PL6.E3A0      #001=QBV$VERI_PRES File=QBV$VERI_PRES.:E05TSI                      WED 07/30/97 04:57 Page:1
        1        1        /*M* QBV$VERI_PRES:  VERIFY and PRESENT instructions.  */
        2        2        /*T***********************************************************/
        3        3        /*T*                                                         */
        4        4        /*T* Copyright (c) Bull HN Information Systems Inc., 1997    */
        5        5        /*T*                                                         */
        6        6        /*T***********************************************************/
        7        7        /*X* DMC,PLM=4,IND=0,DCI=4,CSI=2,IAD=2,DTI=2,AND,ECI=0,DIN=2,STI=2 */
        8        8
        9        9        /*P*  NAME:         QBV$VERI_PRES
       10       10              PURPOSE:      VERIFY or PRESENT pairs of COBOL and FIELD DADs.
       11       11              DESCRIPTION:  Execute a VERIFY or PRESENT op-code, whose argument
       12       12                            may be a pair of COBOL and FIELD DADs, or a list of
       13       13                            such pairs.
       14       14        */
       15       15
       16       16        QBV$VERI_PRES: PROC;
       17       17
       18       18          %INCLUDE LCP_6;
       19      209          %INCLUDE G_JIT_M;
       20      474          %G$JIT;
       21      888    1     DCL G$JIT$ PTR SYMREF;
       22      889
       23      890          %INCLUDE QG_MACRO_M;
       24     1027          %INCLUDE QI_EQUATES_E;
       25     1386          %INCLUDE QI_PERR_C;
       26     1554          %INCLUDE QI_MACROS_M;
       27     6612          %QI$ALL;
       28    17725
       29    17726    1     DCL ARRAY_OFFSET UBIN;
       30    17727    1     DCL CIP_INDEX UBIN;
       31    17728    1     DCL CLB$ PTR;
       32    17729    1     DCL COBOL_ARRAY_OFFSET UBIN;
       33    17730    1     DCL COBOL_DAD$ PTR;
       34    17731    1     DCL CURRENT_RETRY_COUNT UBIN;
       35    17732    1     DCL DA_DA$ PTR;
       36    17733    1     DCL DIMENSION_COUNT UBIN;
       37    17734    1     DCL 1 DOCASE_THING,
PL6.E3A0      #001=QBV$VERI_PRES File=QBV$VERI_PRES.:E05TSI                      WED 07/30/97 04:57 Page:2
       38    17735    1           2 EIGHT_BIT_DEAL UBIN BYTE UNAL,
       39    17736    1           2 INNARDS REDEF EIGHT_BIT_DEAL,
       40    17737    1             3 TYPE_S UBIN(2) UNAL,
       41    17738    1             3 PICTURE_STRING_S UBIN(2) UNAL,
       42    17739    1             3 TYPE_T UBIN(2) UNAL,
       43    17740    1             3 PICTURE_STRING_T UBIN(2) UNAL;
       44    17741    1     DCL ERROR_MESSAGE_INDEX SBIN;
       45    17742    1     DCL ERROR_STATUS$ PTR;
       46    17743    1     DCL FIELD_DAD$ PTR;
       47    17744    1     DCL FIELD_DAD_P$ PTR;
       48    17745    1     DCL FIELD_IDENTIFIER$ PTR;
       49    17746    1     DCL GZ_FIELD$ PTR;
       50    17747    1     DCL INITIAL_COBOL_DATA$ PTR;
       51    17748    1     DCL INITIAL_COBOL_OFFSET UBIN;
       52    17749    1     DCL INITIAL_GZ$ PTR;
       53    17750    1     DCL INITIAL_LEGAL_ARRAY_DATA$ PTR;
       54    17751    1     DCL INITIAL_LEGAL_ARRAY_OFFSET UBIN;
       55    17752    1     DCL INITIAL_RETRY_COUNT UBIN;
       56    17753    1     DCL INSTR$ PTR;
       57    17754    1     DCL LEGAL_ARRAY_ELEMENT_SIZE UBIN;
       58    17755    1     DCL LEGAL_ARRAY_OFFSET UBIN;
       59    17756    1     DCL LEGAL_INDEX SBIN;
       60    17757    1     DCL LEGAL_LIST_INDEX UBIN;
       61    17758    1     DCL LEVEL_MULTIPLIER_INDEX UBIN;
       62    17759    1     DCL P_ITEM_INDEX UBIN;
       63    17760    1     DCL REPEATS_INDEX SBIN;
       64    17761    1     DCL RESTORE_FLAG BIT(1) ALIGNED;
       65    17762    1     DCL SAVED_BINARY_CIP_SOURCE UBIN;
       66    17763    1     DCL SAVED_BINARY_CIP_TARGET UBIN;
       67    17764    1     DCL SAVED_BINARY_DATA_SOURCE$ PTR;
       68    17765    1     DCL SAVED_BINARY_DATA_TARGET$ PTR;
       69    17766    1     DCL SAVED_BINARY_LEN_SOURCE UBIN;
       70    17767    1     DCL SAVED_BINARY_LEN_TARGET UBIN;
       71    17768    1     DCL SAVED_BINARY_TYPE_SOURCE UBIN;
       72    17769    1     DCL SAVED_BINARY_TYPE_TARGET UBIN;
       73    17770    1     DCL SUBSCRIPT_BOUND_A(0:%(QI#MAXIMUM_DIMENSION-1)) UBIN;
       74    17771    1     DCL SUBSCRIPT_INDEX SBIN;
PL6.E3A0      #001=QBV$VERI_PRES File=QBV$VERI_PRES.:E05TSI                      WED 07/30/97 04:57 Page:3
       75    17772    1     DCL 1 SUBSCRIPT_DO_INDICES,
       76    17773    1           2 FIRST UBIN,
       77    17774    1           2 SECOND UBIN,
       78    17775    1           2 * UBIN;
       79    17776    1     DCL SUBSCRIPT_DO_INDEX_A(0:%(QI#MAXIMUM_DIMENSION-1)) REDEF SUBSCRIPT_DO_INDICES
             17776              UBIN;
       80    17777    1     DCL THIS_IS_A_VERIFY BIT(1) ALIGNED;
       81    17778    1     DCL VERI_PRES_COUNT UBIN;
       82    17779    1     DCL VERI_PRES_INDEX UBIN;
       83    17780
       84    17781          %QI_1 ( NAME = QI@1,
       85    17782                  STCLASS = "AUTO" );
       86    18752          %QI@OTTER_SPACE ( NAME = OTTER_DECIMAL_SOURCE );
       87    18780          %QI@OTTER_SPACE ( NAME = OTTER_DECIMAL_TARGET );
       88    18808    1     DCL OTTER_ERROR_MESSAGE CHAR(80);
       89    18809
       90    18810          %SET LISTMAC = '1'B;
       91    18811
       92    18812          %INCLUDE QCG_GET_FIELD_M;
       93    18851          %QCG@GET_FIELD;
             18852            %BEGIN_MACRO;
             18853            %SET LISTDIR = '0'B;
             18866    1     DCL 1 QCG@GET_FIELD ALIGNED,
             18867    1           2 MESSAGE_LINE_GZ_HEADER$ PTR,
             18868                           /* Pointer to QI$GZ_HEADER for the
             18869                              MESSAGE LINE to use.  */
             18870    1           2 IS_MESSAGE_A_DAD BIT(1) ALIGNED,
             18871                           /* Set if MESSAGE$ points to a DAD,
             18872                              reset if MESSAGE$ points to text
             18873                              (in which case MESSAGE_LENGTH is valid).  */
             18874    1           2 MESSAGE_LENGTH UBIN,
             18875                           /* Length, in bytes, of the error message.  */
             18876    1           2 MESSAGE$ PTR,
             18877                           /* See IS_MESSAGE_A_DAD.  */
             18878    1           2 FRAME_INDEX UBIN,
             18879                           /* Index of the current frame.  */
             18880    1           2 FIELD_INDEX UBIN,
PL6.E3A0      #001=QBV$VERI_PRES File=QBV$VERI_PRES.:E05TSI                      WED 07/30/97 04:57 Page:4
             18881                           /* Index of the field to re-get (if any).  */
             18882    1           2 STATUS UBIN,
             18883                           /* Returned status code:  0 -> Immediate return to level 0;
             18884                                                    >0 -> Status is ok.  */
             18885    1           2 FIELD_ERROR_STOP_INDEX UBIN;
             18886                           /* Passed index for QCG$GET_FIELD processing.  */
             18893            %ENDIF;
       94    18896
       95    18897          %INCLUDE QCU_USE_M;
       96    18951          %QCU@USE;
             18952            %BEGIN_MACRO;
             18953            %SET LISTDIR = '0'B;
             18966    1     DCL 1 QCU@USE AUTO ALIGNED,
             18967    1           2 CURR_FRAME$ PTR,
             18968                          /* Pointer to DAD of current frame or ADDR (NIL).  */
             18969    1           2 CURR_NODE$ PTR,
             18970                          /* Pointer to current node or ADDR (NIL).  */
             18971    1           2 USE_DEFAULT_IO UBIN,
             18972                          /* For USE procedures which default applies
             18973                             (see corresponding EQUs).  */
             18974    1           2 IS_TIME_TO_SAVE_AWAY_FIELDS BIT(1) ALIGNED,
             18975                          /* If IS_TIME_TO_SAVE_AWAY_FIELDS, then
             18976                             save the fields within the bounds of
             18977                             FRAME_START_INDEX, FRAME_STOP_INDEX,
             18978                             FIELD_START_INDEX, and FIELD_STOP_INDEX
             18979                             before calling the USE procedure.  */
             18980    1           2 FRAME_START_INDEX UBIN,
             18981                          /* Foist frame of the CURRENT.FORM$
             18982                             involved with the I-O error.  */
             18983    1           2 FRAME_STOP_INDEX UBIN,
             18984                          /* Larst frame of the CURRENT.FORM$
             18985                             involved with the I-O error.  */
             18986    1           2 IS_FIELD_INDEXES_VALID BIT(1) ALIGNED,
             18987                          /* If IS_FIELD_INDEXES_VALID, use them;
             18988                             else use all the fields in the frame.  */
             18989    1           2 FIELD_START_INDEX UBIN,
             18990                          /* Starting index into QI$GZ_FIELD
PL6.E3A0      #001=QBV$VERI_PRES File=QBV$VERI_PRES.:E05TSI                      WED 07/30/97 04:57 Page:5
             18991                             which may have values "pushed".  */
             18992    1           2 FIELD_STOP_INDEX UBIN,
             18993                          /* Stopping index into QI$GZ_FIELD
             18994                             which may have values "pushed".  */
             18995    1           2 IS_CURSOR_POSITION_VALID BIT(1) ALIGNED,
             18996                          /* If IS_CURSOR_POSITION_VALID, use it;
             18997                             else allow cursor to default to upper-left-most field.  */
             18998    1           2 CURSOR_POSITION BIT(16) ALIGNED,
             18999                          /* POSition of the field on which to place the cursor.  */
             19000    1           2 STATUS UBIN;
             19001                          /* Returned action code; see corresponding EQUs.  */
             19008            %ENDIF;
       97    19011
       98    19012          %SET LISTMAC = '0'B;
       99    19013
      100    19014          %EQU NO_PICTURE_STRING = 2;
      101    19015          %EQU JUSTIFIED_RIGHT = 3;
      102    19016          %EQU ALPHANUMERIC_TARGET = ( QI#TYPE_ALPHANUMERIC * 4 ) + NO_PICTURE_STRING;
      103    19017          %EQU ALPHANUMERIC_EDITED_TARGET = ( QI#TYPE_ALPHANUMERIC * 4 ) +
             19017              QI#ALPHANUMERIC_PICTURE_STRING;
      104    19018          %EQU ALPHANUMERIC_RJ_TARGET = ( QI#TYPE_ALPHANUMERIC * 4 ) + JUSTIFIED_RIGHT;
      105    19019          %EQU NUMERIC_EDITED_TARGET = ( QI#TYPE_ALPHANUMERIC * 4 ) +
             19019              QI#NUMERIC_PICTURE_STRING;
      106    19020          %EQU DISPLAY_TARGET = ( QI#TYPE_DISPLAY * 4 ) + NO_PICTURE_STRING;
      107    19021          %EQU PACKED_TARGET = ( QI#TYPE_PACKED * 4 ) + NO_PICTURE_STRING;
      108    19022          %EQU BINARY_TARGET = ( QI#TYPE_BINARY * 4 ) + NO_PICTURE_STRING;
      109    19023          %EQU ALPHANUMERIC_SOURCE = ( ALPHANUMERIC_TARGET ) * 16;
      110    19024          %EQU ALPHANUMERIC_EDITED_SOURCE = ( ALPHANUMERIC_EDITED_TARGET ) * 16;
      111    19025          %EQU ALPHANUMERIC_RJ_SOURCE = ( ALPHANUMERIC_RJ_TARGET ) * 16;
      112    19026          %EQU NUMERIC_EDITED_SOURCE = ( NUMERIC_EDITED_TARGET ) * 16;
      113    19027          %EQU DISPLAY_SOURCE = ( DISPLAY_TARGET ) * 16;
      114    19028          %EQU PACKED_SOURCE = ( PACKED_TARGET ) * 16;
      115    19029          %EQU BINARY_SOURCE = ( BINARY_TARGET ) * 16;
      116    19030
      117    19031    1     DCL QCS$SETUP_SOURCE ENTRY;
      118    19032    1     DCL QCS$SETUP_TARGET ENTRY;
      119    19033    1     DCL QBM$MOVA_VP ENTRY;
PL6.E3A0      #001=QBV$VERI_PRES File=QBV$VERI_PRES.:E05TSI                      WED 07/30/97 04:57 Page:6
      120    19034    1     DCL QBM$MOVAE_VP ENTRY;
      121    19035    1     DCL QBM$MOVAJ_VP ENTRY;
      122    19036    1     DCL QBM$MOVNE_VP ENTRY;
      123    19037    1     DCL QBM$MOVN_VP ENTRY;
      124    19038    1     DCL QBM$MOVP_VP ENTRY;
      125    19039    1     DCL QBM$MOVB_VP ENTRY;
      126    19040    1     DCL QBM$MOVDE_VP ENTRY;
      127    19041    1     DCL QCF$FIND_CURRENTS ENTRY;
      128    19042    1     DCL QCI$IFA ENTRY;
      129    19043    1     DCL QCI$IFN ENTRY;
      130    19044    1     DCL QCC$CBD ENTRY (1) ALTRET;
      131    19045    1     DCL QCE$ERROR ENTRY (4);
      132    19046    1     DCL QCE$ERROR_INTERNAL ENTRY (4);
      133    19047    1     DCL QCE$ERROR_MESSAGE ENTRY (5);
      134    19048    1     DCL QCG$GET_FIELD_ILLEGAL ENTRY (1);
      135    19049    1     DCL QCU$USE_IO ENTRY (1);
      136    19050    1     DCL QCU$USE_VERIFY ENTRY (1);
      137    19051
      138    19052          /* CONSTANT error-message stuff */
      139    19053    1     DCL ILLEGAL_VALUE_TEXT CHAR(%QI#ERROR_MESSAGE_LINE_SIZE) CONSTANT
      140    19054    1       INIT ( 'Illegal value.' );
      141    19055
      142    19056        %EJECT;
PL6.E3A0      #001=QBV$VERI_PRES File=QBV$VERI_PRES.:E05TSI                      WED 07/30/97 04:57 Page:7
      143    19057    1   QBV$PRESENT: ENTRY;
      144    19058
      145    19059        /*D*  NAME:         QBV$PRESENT
      146    19060              CALL:         CALL QBV$PRESENT;
      147    19061              PARAMETERS:   None.
      148    19062              INTERFACE:    Called by QAT$TALLYHO when a PRESENT op-code is
      149    19063                            encountered.
      150    19064              ENVIRONMENT:  Nothing unusual.
      151    19065              INPUT:        QI_1,
      152    19066                            FPL rununit static data following the op-code.
      153    19067              OUTPUT:       Moves data from the COBOL DAD(s) to the FIELD DAD(s).
      154    19068                            Also sets QI$GZ_FIELD.INDICATORS$ ->
      155    19069                                      QI$INDICATORS.STATE_FLAGS.PRESENTED.
      156    19070              SCRATCH:      Various otter data.
      157    19071              DESCRIPTION:  Move data from COBOL (FILE or WORKING-STORAGE SECTION) DADs
      158    19072                            to FIELD (FRAME SECTION) DADs.  That means setting up not
      159    19073                            only the COBOL DAD addresses but also QI$GZ_FIELD
      160    19074                            stuff.  About the only real oddity is that the compiler
      161    19075                            gens only one argument@P for each COBOL DAD, so if the
      162    19076                            DAD is an array (has an OCCURS clause associated with it),
      163    19077                            the location of each array element has to be devined
      164    19078                            by this routine.  Ish.
      165    19079        */
      166    19080
      167    19081    1       THIS_IS_A_VERIFY = %NO;
      168    19082    1       GOTO SO_DO_THE_VERI_PRES_ALREADY;
      169    19083
      170    19084    1   QBV$VERIFY: ENTRY;
      171    19085
      172    19086        /*D*  NAME:         QBV$VERIFY
      173    19087              CALL:         CALL QBV$VERIFY;
      174    19088              PARAMETERS:   None.
      175    19089              INTERFACE:    Called by QAT$TALLYHO when a VERIFY op-code is
      176    19090                            encountered.
      177    19091                            Calls QCG$GET_FIELD if a LEGAL clause is not satisfied.
      178    19092              ENVIRONMENT:  Nothing unusual.
      179    19093              INPUT:        QI_1,
PL6.E3A0      #001=QBV$VERI_PRES File=QBV$VERI_PRES.:E05TSI                      WED 07/30/97 04:57 Page:8
      180    19094                            FPL rununit static data following the op-code.
      181    19095              OUTPUT:       Moves data from the FIELD DAD(s) to the COBOL DAD(s).
      182    19096                            Also sets QI$GZ_FIELD.INDICATORS$ ->
      183    19097                                      QI$INDICATORS.STATE_FLAGS.AVAILABLE.
      184    19098              SCRATCH:      Various otter data.
      185    19099              DESCRIPTION:  Move data from FIELD (FRAME SECTION) DADs to COBOL
      186    19100                            (FILE or WORKING-STORAGE SECTION) DADs.  That means setting
      187    19101                            up not only the COBOL DAD addresses but also QI$GZ_FIELD
      188    19102                            stuff.  About the only real oddity is that the compiler
      189    19103                            gens only one argument@P for each COBOL DAD, so if the
      190    19104                            DAD is an array (has an OCCURS clause associated with it),
      191    19105                            the location of each array element has to be devined
      192    19106                            by this routine.  Ish.
      193    19107                            For VERIFYs, the data move is made only if the FIELD DAD
      194    19108                            is AVAILABLE.  Also, if the COBOL DAD contains a LEGAL
      195    19109                            clause (of one sort or another), then the FIELD DAD's
      196    19110                            data is verified against the clause.  If an error is
      197    19111                            detected, QCG$GET_FIELD is called to re-prompt for the
      198    19112                            FIELD DAD.
      199    19113        */
      200    19114
      201    19115    1       THIS_IS_A_VERIFY = %YES;
      202    19116
      203    19117    1   SO_DO_THE_VERI_PRES_ALREADY:
      204    19118
      205    19119    1       INSTR$ = QI_1.INSTR$;
      206    19120    1       VERI_PRES_COUNT = INSTR$ -> QI$OP_VERI_PRES.DAD_PAIR_COUNT;
      207    19121    1       QI_1.INSTR$ = PINCRW ( QI_1.INSTR$, ( VERI_PRES_COUNT * 2 ) + 2 );
      208    19122
      209    19123    2       DO VERI_PRES_INDEX = 0 TO VERI_PRES_COUNT - 1;
      210    19124
      211    19125    2         QI_1.SOURCE$ = ADDR ( INSTR$ -> QI$OP_VERI_PRES.DAD_PAIR_A.SOURCE@P (
             19125                  VERI_PRES_INDEX ) );
      212    19126
      213    19127    2         CALL QCS$SETUP_SOURCE;
      214    19128    2         CALL QCS$SETUP_TARGET;
      215    19129
PL6.E3A0      #001=QBV$VERI_PRES File=QBV$VERI_PRES.:E05TSI                      WED 07/30/97 04:57 Page:9
      216    19130    2         IF THIS_IS_A_VERIFY
      217    19131    2         THEN
      218    19132    3           DO;
      219    19133    3             COBOL_DAD$ = QI_1.DAD.T$;
      220    19134    3             FIELD_DAD$ = QI_1.DAD.S$;
      221    19135    3           END;
      222    19136    2         ELSE
      223    19137    3           DO;
      224    19138    3             COBOL_DAD$ = QI_1.DAD.S$;
      225    19139    3             FIELD_DAD$ = QI_1.DAD.T$;
      226    19140    3           END;
      227    19141
      228    19142              %IF QI#DEBUG;
      229    19143
      230    19144    2         IF COBOL_DAD$ -> QI$COBOL_DAD.WORD0_FLAGS.IS_FORM_VARIABLE
      231    19145    2         THEN
      232    19146    2           CALL QCE$ERROR_INTERNAL ( %E$INTERNAL_COMPILER_ERROR );
      233    19147
      234    19148    2         IF NOT FIELD_DAD$ -> QI$FIELD_DAD.WORD0_FLAGS.IS_FORM_VARIABLE
      235    19149    2         THEN
      236    19150    2           CALL QCE$ERROR_INTERNAL ( %E$INTERNAL_COMPILER_ERROR );
      237    19151
      238    19152              %ENDIF;
      239    19153
      240    19154    2         QI_1.CURRENT.NODE$ = FIELD_DAD$;
      241    19155
      242    19156    2   RETRY_THE_CURRENT_PAIR:
      243    19157    2         CALL QCF$FIND_CURRENTS;
      244    19158
      245    19159    2         IF NOT QI_1.CURRENT.FRAME_STATUS$ -> QI$FRAME_STATUS.INDICATORS.IS_ACTIVE
      246    19160    2         THEN
      247    19161    3           DO;
      248    19162    3             QI_1.ERROR_STATUS = %E$FRAME_NOT_ACTIVE;
      249    19163    3             GOTO CHECK_USE_PROCEDURE_OR_INVALID;
      250    19164    3           END;
      251    19165
      252    19166    2         IF NOT QI_1.CURRENT.FORM_STATUS$ -> QI$FORM_STATUS.INDICATORS.OPEN_FLAGS.
PL6.E3A0      #001=QBV$VERI_PRES File=QBV$VERI_PRES.:E05TSI                      WED 07/30/97 04:57 Page:10
             19166                  IS_OUTPUT
      253    19167    2           AND NOT QI_1.CURRENT.FORM_STATUS$ -> QI$FORM_STATUS.INDICATORS.OPEN_FLAGS.
             19167                    IS_INPUT
      254    19168    2         THEN
      255    19169    3           DO;
      256    19170    3             QI_1.ERROR_STATUS = %E$FILE_NOT_OPEN;
      257    19171    3             GOTO CHECK_USE_PROCEDURE_OR_INVALID;
      258    19172    3           END;
      259    19173
      260    19174        %EJECT;
PL6.E3A0      #001=QBV$VERI_PRES File=QBV$VERI_PRES.:E05TSI                      WED 07/30/97 04:57 Page:11
      261    19175    2         DIMENSION_COUNT = FIELD_DAD$ -> QI$FIELD_DAD.WORD0_FLAGS.DIMENSION_COUNT;
      262    19176
      263    19177    2   ESTABLISH_DIMENSION_BOUNDS:
      264    19178    3         DO CASE ( DIMENSION_COUNT );
      265    19179
      266    19180    3           CASE ( %QI#ELEMENTARY_ITEM );
      267    19181    3             SUBSCRIPT_BOUND_A (1) = 0;
      268    19182    3             SUBSCRIPT_BOUND_A (0) = 0;
      269    19183
      270    19184    3           CASE ( %QI#ONE_DIMENSIONAL_ITEM );
      271    19185    3             SUBSCRIPT_BOUND_A (1) = 0;
      272    19186    3             SUBSCRIPT_INDEX = 0;
      273    19187
      274    19188    3             GOTO CONTINUE_ESTABLISHMENT;
      275    19189
      276    19190    3           CASE ( %QI#TWO_DIMENSIONAL_ITEM );
      277    19191    3             SUBSCRIPT_INDEX = 1;
      278    19192
      279    19193    3   CONTINUE_ESTABLISHMENT:
      280    19194    3             IF THIS_IS_A_VERIFY
      281    19195    3             THEN
      282    19196    4               DO;
      283    19197    4                 INITIAL_COBOL_OFFSET = QI_1.OP.CIP.T.CD.OFFSET;
      284    19198    4                 INITIAL_COBOL_DATA$ = QI_1.OP.DATA.T$;
      285    19199    4               END;
      286    19200    3             ELSE
      287    19201    4               DO;
      288    19202    4                 INITIAL_COBOL_OFFSET = QI_1.OP.CIP.S.CD.OFFSET;
      289    19203    4                 INITIAL_COBOL_DATA$ = QI_1.OP.DATA.S$;
      290    19204    4               END;
      291    19205
      292    19206                  /*  Increment past any level_multipliers and get to the
      293    19207                      P.whatever flags.  */
      294    19208    3             FIELD_DAD_P$ = ADDR ( FIELD_DAD$ -> QI$FIELD_DAD.VARIABLE_LENGTH_ITEMS.
             19208                      LEVEL_MULTIPLIER_A ( DIMENSION_COUNT ) );
      295    19209    3             IF FIELD_DAD_P$ -> QI$FIELD_DAD_P.P.REPEATS
      296    19210    3             THEN
PL6.E3A0      #001=QBV$VERI_PRES File=QBV$VERI_PRES.:E05TSI                      WED 07/30/97 04:57 Page:12
      297    19211    4               DO;
      298    19212                      %PRESENCE_DISPLACEMENT (
      299    19213                      PRESENCE_THING$ = FIELD_DAD_P$,
      300    19214                      INDEX = P_ITEM_INDEX,
      301    19215                      START = %QI#P_FIELD_FIRST_INDEX,
      302    19216                      STOP = %QI#P_REPEATS_INDEX,
      303    19217                      RESULT = REPEATS_INDEX
      304    19218                      );
      305    19250    4                 SUBSCRIPT_BOUND_A ( SUBSCRIPT_INDEX ) =
      306    19251    4                   FIELD_DAD_P$ -> QI$FIELD_DAD_P.P_ITEM_A ( REPEATS_INDEX ) - 1;
      307    19252    4                 SUBSCRIPT_INDEX = SUBSCRIPT_INDEX - 1;
      308    19253    4                 IF SUBSCRIPT_INDEX < 0
      309    19254    4                 THEN
      310    19255    4                   EXIT ESTABLISH_DIMENSION_BOUNDS;
      311    19256    4               END;
      312    19257
      313    19258    3             DA_DA$ = FIELD_DAD$;
      314    19259    3   FIND_PARENTAL_DIMENSIONS:
      315    19260    4             DO %FOREVER;
      316    19261                    %PROC_ADDRESS ( THING@P = "DA_DA$ -> QI$FIELD_DAD.FATHER@P",
      317    19262                    CHECK_FOR_INDIRECTION = NO,
      318    19263                    RESULT$ = DA_DA$ );
      319    19300
      320    19301                    %IF QI#DEBUG;
      321    19302
      322    19303    4               IF DA_DA$ -> QI$MINOR_NODE.WORD0_FLAGS.TYPE ~= %QI#TYPE_MINOR
      323    19304    4               THEN
      324    19305    4                 CALL QCE$ERROR_INTERNAL ( %E$INTERNAL_COMPILER_ERROR );
      325    19306
      326    19307                    %ENDIF;
      327    19308
      328    19309    4               IF DA_DA$ -> QI$MINOR_NODE.REPEATS > 0
      329    19310    4               THEN
      330    19311    5                 DO;
      331    19312    5                   SUBSCRIPT_BOUND_A ( SUBSCRIPT_INDEX ) =
      332    19313    5                     DA_DA$ -> QI$MINOR_NODE.REPEATS - 1;
      333    19314    5                   SUBSCRIPT_INDEX = SUBSCRIPT_INDEX - 1;
PL6.E3A0      #001=QBV$VERI_PRES File=QBV$VERI_PRES.:E05TSI                      WED 07/30/97 04:57 Page:13
      334    19315    5                   IF SUBSCRIPT_INDEX < 0
      335    19316    5                   THEN
      336    19317    5                     EXIT ESTABLISH_DIMENSION_BOUNDS;
      337    19318    5                 END;
      338    19319
      339    19320    4             END FIND_PARENTAL_DIMENSIONS;
      340    19321
      341    19322    3         END ESTABLISH_DIMENSION_BOUNDS;
      342    19323        %EJECT;
PL6.E3A0      #001=QBV$VERI_PRES File=QBV$VERI_PRES.:E05TSI                      WED 07/30/97 04:57 Page:14
      343    19324    2         INITIAL_GZ$ = PINCRW (
      344    19325    2           QI_1.CURRENT.FRAME_STATUS$ -> QI$FRAME_STATUS.GZ.START$,
      345    19326    2           ( QI_1.CURRENT.NODE_STATUS$ -> QI$FIELD_STATUS.GZ.FIELD_START_INDEX
      346    19327    2           * SIZEW ( QI$GZ_FIELD ) )
      347    19328    2           );
      348    19329    2         GZ_FIELD$ = INITIAL_GZ$;
      349    19330
      350    19331    2         IF THIS_IS_A_VERIFY
      351    19332    2           AND COBOL_DAD$ -> QI$COBOL_DAD.WORD0_FLAGS.P.VALID
      352    19333    2         THEN
      353    19334    3           DO;
      354    19335    3             INITIAL_RETRY_COUNT = QI_1.CURRENT.FORM$ -> QI$FORM_FILE.RETRY_COUNT;
      355    19336
      356    19337                  %PRESENCE_DISPLACEMENT (
      357    19338                  PRESENCE_THING$ =
      358    19339                  "ADDR ( COBOL_DAD$ -> QI$COBOL_DAD.P_A )",
      359    19340                  INDEX = P_ITEM_INDEX,
      360    19341                  START = %QI#P_COBOL_FIRST_INDEX,
      361    19342                  STOP = %QI#P_LEGAL_INDEX,
      362    19343                  RESULT = LEGAL_INDEX
      363    19344                  );
      364    19376
      365    19377                  %PROC_ADDRESS ( THING@P =
      366    19378         "COBOL_DAD$ -> QI$COBOL_DAD.VARIABLE_LENGTH_ITEMS.P_ITEM_A ( ( DIMENSION_COUNT * 2
             19378        ) + LEGAL_INDEX )",
      367    19379                  CHECK_FOR_INDIRECTION = NO,
      368    19380                  RESULT$ = CLB$ );
      369    19417    3           END;
      370    19418    2         ELSE
      371    19419    2           CLB$ = ADDR (NIL);
      372    19420        %EJECT;
PL6.E3A0      #001=QBV$VERI_PRES File=QBV$VERI_PRES.:E05TSI                      WED 07/30/97 04:57 Page:15
      373    19421    2   GREATER_SUBSCRIPT_DO:
      374    19422    3         DO SUBSCRIPT_DO_INDICES.FIRST = 0 TO SUBSCRIPT_BOUND_A (0);
      375    19423
      376    19424    3   LESSER_SUBSCRIPT_DO:
      377    19425    4           DO SUBSCRIPT_DO_INDICES.SECOND = 0 TO SUBSCRIPT_BOUND_A (1);
      378    19426
      379    19427    4   RETRY_RETRY_COUNT:
      380    19428    4             CURRENT_RETRY_COUNT = INITIAL_RETRY_COUNT;
      381    19429
      382    19430    4   RETRY_FIELD_VERI_PRES:
      383    19431    4             IF THIS_IS_A_VERIFY
      384    19432    4               AND NOT GZ_FIELD$ -> QI$GZ_FIELD.INDICATORS$ -> QI$INDICATORS.
             19432                        STATE_FLAGS.IS_AVAILABLE
      385    19433    4             THEN
      386    19434    4               GOTO NEXT_SCALAR_PLEASE;
      387    19435
      388    19436    4             IF DIMENSION_COUNT > 0
      389    19437    4             THEN
      390    19438    4   ARRAY_OFFSET_FINDING_STUFF:
      391    19439    5               DO;
      392    19440    5                 ARRAY_OFFSET = 0;
      393    19441
      394    19442    6                 DO LEVEL_MULTIPLIER_INDEX = 0 TO DIMENSION_COUNT - 1;
      395    19443    6                   ARRAY_OFFSET = ARRAY_OFFSET
      396    19444    6                     + ( COBOL_DAD$ -> QI$COBOL_DAD.VARIABLE_LENGTH_ITEMS.
             19444                              LEVEL_MULTIPLIER_A.ELEMENT_LENGTH ( LEVEL_MULTIPLIER_INDEX )
      397    19445    6                     * SUBSCRIPT_DO_INDEX_A ( LEVEL_MULTIPLIER_INDEX ) );
      398    19446    6                 END;
      399    19447
      400    19448    5                 IF THIS_IS_A_VERIFY
      401    19449    5                 THEN
      402    19450    6                   DO;
      403    19451
      404    19452    6                     QI_1.OP.CIP.S.CD.OFFSET = GZ_FIELD$ -> QI$GZ_FIELD.STATUS.OFFSET;
      405    19453    6                     QI_1.OFFSET.S = GZ_FIELD$ -> QI$GZ_FIELD.STATUS.OFFSET;
      406    19454    6                     QI_1.OP.DATA.S$ = GZ_FIELD$ -> QI$GZ_FIELD.STATUS.DATA$;
      407    19455
PL6.E3A0      #001=QBV$VERI_PRES File=QBV$VERI_PRES.:E05TSI                      WED 07/30/97 04:57 Page:16
      408    19456    6                     COBOL_ARRAY_OFFSET = ARRAY_OFFSET + INITIAL_COBOL_OFFSET;
      409    19457
      410    19458                          /* We're using ...CD.OFFSET here because these array
      411    19459                             deals (even PACKED ones) will be forced to
      412    19460                             (at least) byte boundaries, and filling in, say,
      413    19461                             a ...CD.OFFSET of 1 is the same as filling in
      414    19462                             a ...CP.OFFSET of 2.  */
      415    19463    6                     QI_1.OP.CIP.T.CD.OFFSET = MOD ( COBOL_ARRAY_OFFSET, 2 );
      416    19464    6                     QI_1.OFFSET.T = QI_1.OP.CIP.T.CD.OFFSET;
      417    19465    6                     QI_1.OP.DATA.T$ = PINCRW ( INITIAL_COBOL_DATA$,
      418    19466    6                       COBOL_ARRAY_OFFSET / 2 );
      419    19467
      420    19468    6                   END;
      421    19469    5                 ELSE
      422    19470    6                   DO;
      423    19471    6                     COBOL_ARRAY_OFFSET = ARRAY_OFFSET + INITIAL_COBOL_OFFSET;
      424    19472
      425    19473    6                     QI_1.OP.CIP.S.CD.OFFSET = MOD ( COBOL_ARRAY_OFFSET, 2 );
      426    19474    6                     QI_1.OFFSET.S = QI_1.OP.CIP.S.CD.OFFSET;
      427    19475    6                     QI_1.OP.DATA.S$ = PINCRW ( INITIAL_COBOL_DATA$,
      428    19476    6                       COBOL_ARRAY_OFFSET / 2 );
      429    19477
      430    19478    6                     QI_1.OP.CIP.T.CD.OFFSET = GZ_FIELD$ -> QI$GZ_FIELD.STATUS.OFFSET;
      431    19479    6                     QI_1.OFFSET.T = GZ_FIELD$ -> QI$GZ_FIELD.STATUS.OFFSET;
      432    19480    6                     QI_1.OP.DATA.T$ = GZ_FIELD$ -> QI$GZ_FIELD.STATUS.DATA$;
      433    19481
      434    19482    6                   END;
      435    19483
      436    19484    5               END ARRAY_OFFSET_FINDING_STUFF;
      437    19485        %EJECT;
PL6.E3A0      #001=QBV$VERI_PRES File=QBV$VERI_PRES.:E05TSI                      WED 07/30/97 04:57 Page:17
      438    19486    4             IF CLB$ ~= ADDR (NIL)
      439    19487    4             THEN
      440    19488    4   LEGAL_CHECKING:
      441    19489    5               DO;
      442    19490                      /*N* At some point this should probably be broken down
      443    19491                           into just the things that really need saving
      444    19492                           (.CIP, .LEN, .OFFSET, .TYPE, etc.).  */
      445    19493    5                 QI@1 = QI_1;
      446    19494
      447    19495    5                 QI_1.OP.DATA.T$ = QI_1.VERIFY_BUFFER$;
      448    19496
      449    19497    5                 RESTORE_FLAG = %NO;
      450    19498    5                 CALL MOVE_IT ( RESTORE_FLAG );
      451    19499
      452    19500                      /*  This is kind of ugly:
      453    19501                          here's the only place where a MOVE operation
      454    19502                          is expected to leave the target's vital signs
      455    19503                          alone.  Unfortunately, some of the MOVE code
      456    19504                          (noteably, QBM$MOVAE(_VP)) doesn't.  */
      457    19505    5                 QI_1.OP.LEN.T = QI@1.OP.LEN.T;
      458    19506    5                 QI_1.OP.INX.T = QI@1.OP.INX.T;
      459    19507
      460    19508    6                 DO CASE ( CLB$ -> QI$CONDITION_LEGAL_BLOCK.TYPE );
      461    19509
      462    19510    6                   CASE ( %QI#LEGAL_RANGE );
      463    19511    6                     QI_1.SOURCE$ = ADDR ( CLB$ -> QI$CONDITION_LEGAL_BLOCK.RANGE_A@P (
             19511                              0) );
      464    19512    6                     CALL QCS$SETUP_SOURCE;
      465    19513    6                     CALL IF_IT;
      466    19514    6                     IF QI_1.OP.COMP_RESULT = %QI#IF_GREATER
      467    19515    6                     THEN
      468    19516    6                       GOTO LEGAL_CHECK_FAILED;
      469    19517
      470    19518    6                     CALL QCS$SETUP_SOURCE;
      471    19519    6                     CALL IF_IT;
      472    19520    6                     IF QI_1.OP.COMP_RESULT = %QI#IF_LESS
      473    19521    6                     THEN
PL6.E3A0      #001=QBV$VERI_PRES File=QBV$VERI_PRES.:E05TSI                      WED 07/30/97 04:57 Page:18
      474    19522    6                       GOTO LEGAL_CHECK_FAILED;
      475    19523    6                     GOTO LEGAL_CHECK_PASSED;
      476    19524
      477    19525    6                   CASE ( %QI#LEGAL_LIST );
      478    19526    6                     QI_1.SOURCE$ = ADDR ( CLB$ -> QI$CONDITION_LEGAL_BLOCK.LIST_A@P (0
             19526                              ) );
      479    19527    7                     DO LEGAL_LIST_INDEX = 0 TO CLB$ -> QI$CONDITION_LEGAL_BLOCK.
             19527                              LIST_LENGTH - 1;
      480    19528
      481    19529    7                       CALL QCS$SETUP_SOURCE;
      482    19530    7                       CALL IF_IT;
      483    19531    7                       IF QI_1.OP.COMP_RESULT = %QI#IF_EQUAL
      484    19532    7                       THEN
      485    19533    7                         GOTO LEGAL_CHECK_PASSED;
      486    19534
      487    19535    7                     END;
      488    19536    6                     GOTO LEGAL_CHECK_FAILED;
      489    19537
      490    19538    6                   CASE ( %QI#LEGAL_ARRAY );
      491    19539    6                     QI_1.SOURCE$ = ADDR ( CLB$ -> QI$CONDITION_LEGAL_BLOCK.ARRAY@P );
      492    19540    6                     CALL QCS$SETUP_SOURCE;
      493    19541
      494    19542    6                     INITIAL_LEGAL_ARRAY_DATA$ = QI_1.OP.DATA.S$;
      495    19543    6                     INITIAL_LEGAL_ARRAY_OFFSET = QI_1.OP.CIP.S.CD.OFFSET;
      496    19544    6                     LEGAL_ARRAY_ELEMENT_SIZE =
      497    19545    6                       QI_1.DAD.S$ -> QI$COBOL_DAD.VARIABLE_LENGTH_ITEMS.
             19545                                LEVEL_MULTIPLIERS.ONE_DIMENSIONAL.ELEMENT_LENGTH;
      498    19546
      499    19547    7                     DO LEGAL_LIST_INDEX = 0 TO CLB$ -> QI$CONDITION_LEGAL_BLOCK.
             19547                              LIST_LENGTH - 1;
      500    19548
      501    19549    7                       LEGAL_ARRAY_OFFSET = ( LEGAL_LIST_INDEX *
             19549                                LEGAL_ARRAY_ELEMENT_SIZE )
      502    19550    7                         + INITIAL_LEGAL_ARRAY_OFFSET;
      503    19551
      504    19552    7                       QI_1.OP.CIP.S.CD.OFFSET = MOD ( LEGAL_ARRAY_OFFSET, 2 );
      505    19553    7                       QI_1.OFFSET.S = QI_1.OP.CIP.S.CD.OFFSET;
PL6.E3A0      #001=QBV$VERI_PRES File=QBV$VERI_PRES.:E05TSI                      WED 07/30/97 04:57 Page:19
      506    19554    7                       QI_1.OP.DATA.S$ = PINCRW ( INITIAL_LEGAL_ARRAY_DATA$,
      507    19555    7                         LEGAL_ARRAY_OFFSET / 2 );
      508    19556
      509    19557    7                       CALL IF_IT;
      510    19558    7                       IF QI_1.OP.COMP_RESULT = %QI#IF_EQUAL
      511    19559    7                       THEN
      512    19560    7                         GOTO LEGAL_CHECK_PASSED;
      513    19561
      514    19562    7                     END;
      515    19563    6                     GOTO LEGAL_CHECK_FAILED;
      516    19564
      517    19565    6                 END;          /* do case ( legal_condition_block.type )  */
      518    19566
      519    19567    5   LEGAL_CHECK_FAILED:
      520    19568        %IF QI#RETRY_COUNT_IMPLEMENTED;
      551    19599        %ENDIF;
      552    19600
      553    19601    5                 IF GZ_FIELD$ -> QI$GZ_FIELD.STATUS.IS_VALUE_DEFAULT
      554    19602    5                 THEN
      555    19603    6                   DO;
      556    19604                          %PROC_ADDRESS ( THING@P =
             19604              "GZ_FIELD$ -> QI$GZ_FIELD.DESCRIPTION.FIELD_DAD$ -> QI$FIELD_DAD.IDENTIFIER@P"
             19604                              ,
      557    19605                          CHECK_FOR_INDIRECTION = NO,
      558    19606                          RESULT$ = FIELD_IDENTIFIER$ );
      559    19643
      560    19644                          /*  Can't re-prompt for a DEFAULT VALUE!  */
      561    19645    6                     CALL QCE$ERROR ( %E$VERIFY_ILLEGAL_DEFAULT,
      562    19646    6                       FIELD_IDENTIFIER$ -> QI$VARIABLE_IDENTIFIER );
      563    19647    6                   END;
      564    19648
      565    19649    5                 IF NOT GZ_FIELD$ -> QI$GZ_FIELD.INDICATORS$ -> QI$INDICATORS.
             19649                          ENABLED_FLAGS.IS_INPUT
      566    19650    5                 THEN
      567    19651    6                   DO;
      568    19652                          %PROC_ADDRESS ( THING@P =
             19652              "GZ_FIELD$ -> QI$GZ_FIELD.DESCRIPTION.FIELD_DAD$ -> QI$FIELD_DAD.IDENTIFIER@P"
PL6.E3A0      #001=QBV$VERI_PRES File=QBV$VERI_PRES.:E05TSI                      WED 07/30/97 04:57 Page:20
             19652                              ,
      569    19653                          CHECK_FOR_INDIRECTION = NO,
      570    19654                          RESULT$ = FIELD_IDENTIFIER$ );
      571    19691
      572    19692                          /*  Can't re-prompt for a DISABLEd field!  */
      573    19693    6                     CALL QCE$ERROR ( %E$VERIFY_GET_FIELD_DISABLED,
      574    19694    6                       FIELD_IDENTIFIER$ -> QI$VARIABLE_IDENTIFIER );
      575    19695    6                   END;
      576    19696
      577    19697    5                 IF COBOL_DAD$ -> QI$COBOL_DAD.WORD0_FLAGS.P.ERROR_MESSAGE
      578    19698    5                 THEN
      579    19699    6                   DO;
      580    19700                          %PRESENCE_DISPLACEMENT (
      581    19701                          PRESENCE_THING$ =
      582    19702                          "ADDR ( COBOL_DAD$ -> QI$COBOL_DAD.P_A )",
      583    19703                          INDEX = P_ITEM_INDEX,
      584    19704                          START = %QI#P_COBOL_FIRST_INDEX,
      585    19705                          STOP = %QI#P_ERROR_MESSAGE_INDEX,
      586    19706                          RESULT = ERROR_MESSAGE_INDEX
      587    19707                          );
      588    19739
      589    19740                          %PROC_ADDRESS ( THING@P =
      590    19741         "COBOL_DAD$ -> QI$COBOL_DAD.VARIABLE_LENGTH_ITEMS.P_ITEM_A ( ( DIMENSION_COUNT * 2
             19741        ) + ERROR_MESSAGE_INDEX )",
      591    19742                          CHECK_FOR_INDIRECTION = NO,
      592    19743                          RESULT$ = "QCG@GET_FIELD.MESSAGE$" );
      593    19780
      594    19781    6                     QCG@GET_FIELD.IS_MESSAGE_A_DAD = %YES;
      595    19782    6                   END;
      596    19783    5                 ELSE
      597    19784    6                   DO;
      598    19785    6                     QCG@GET_FIELD.MESSAGE_LENGTH = LENGTHC ( ILLEGAL_VALUE_TEXT );
      599    19786    6                     QCG@GET_FIELD.MESSAGE$ = ADDR ( ILLEGAL_VALUE_TEXT );
      600    19787    6                     QCG@GET_FIELD.IS_MESSAGE_A_DAD = %NO;
      601    19788
      602    19789                          /*N*
      603    19790                                MUCH ADO ABOUT ERROR MESSAGES
PL6.E3A0      #001=QBV$VERI_PRES File=QBV$VERI_PRES.:E05TSI                      WED 07/30/97 04:57 Page:21
      604    19791                                See comments in QCR$READ.
      605    19792                          */
      606    19793    6                     IF G$JIT$ -> G$JIT.LANG = G$JIT$ -> G$JIT.LANG
      607    19794    6                     THEN
      608    19795    6   GET_THE_ERRMSG_FROM_THE_HOST:
      609    19796    7                       DO;
      610    19797    7                         CALL QCE$ERROR_MESSAGE ( %E$ILLEGAL_VALUE,
      611    19798    7                           /* no U1 */,
      612    19799    7                           /* no U2 */,
      613    19800    7                           /* no U3 */,
      614    19801    7                           OTTER_ERROR_MESSAGE );
      615    19802
      616    19803    7                         QCG@GET_FIELD.MESSAGE$ = ADDR ( OTTER_ERROR_MESSAGE );
      617    19804    7                       END GET_THE_ERRMSG_FROM_THE_HOST;
      618    19805
      619    19806    6                   END;
      620    19807
      621    19808    5                 QCG@GET_FIELD.MESSAGE_LINE_GZ_HEADER$ = QI_1.MESSAGE_LINE_GZ.HEADER$;
      622    19809
      623    19810    5                 QCG@GET_FIELD.FRAME_INDEX = QI_1.CURRENT.FRAME_INDEX;
      624    19811    5                 QCG@GET_FIELD.FIELD_INDEX = QI_1.CURRENT.NODE_STATUS$ ->
             19811                          QI$FIELD_STATUS.GZ.FIELD_START_INDEX
      625    19812    5                   + ( POFFW ( GZ_FIELD$, INITIAL_GZ$ ) / SIZEW (QI$GZ_FIELD) );
      626    19813
      627    19814    5                 CALL QCG$GET_FIELD_ILLEGAL ( QCG@GET_FIELD );
      628    19815
      629    19816    5                 IF QCG@GET_FIELD.STATUS = %QI#USE_INVALID_RETURN
      630    19817    5                 THEN
      631    19818    5                   RETURN;
      632    19819
      633    19820    5                 QI_1 = QI@1;
      634    19821
      635    19822    5                 GOTO RETRY_FIELD_VERI_PRES;
      636    19823
      637    19824    5   LEGAL_CHECK_PASSED:
      638    19825    5                 QI_1 = QI@1;
      639    19826
PL6.E3A0      #001=QBV$VERI_PRES File=QBV$VERI_PRES.:E05TSI                      WED 07/30/97 04:57 Page:22
      640    19827    5               END LEGAL_CHECKING;
      641    19828        %EJECT;
PL6.E3A0      #001=QBV$VERI_PRES File=QBV$VERI_PRES.:E05TSI                      WED 07/30/97 04:57 Page:23
      642    19829                  /* The Big Move:  */
      643    19830    4             RESTORE_FLAG = %YES;
      644    19831    4             CALL MOVE_IT ( RESTORE_FLAG );
      645    19832
      646    19833    4             IF THIS_IS_A_VERIFY
      647    19834    4             THEN
      648    19835    4               GZ_FIELD$ -> QI$GZ_FIELD.INDICATORS$ -> QI$INDICATORS.STATE_VALUE = %
             19835                        QI#STATE_AVAIL_VERIFY;
      649    19836    4             ELSE
      650    19837    4               GZ_FIELD$ -> QI$GZ_FIELD.INDICATORS$ -> QI$INDICATORS.STATE_VALUE = %
             19837                        QI#STATE_AVAIL_OUTPUT;
      651    19838
      652    19839    4   NEXT_SCALAR_PLEASE:
      653    19840    4             GZ_FIELD$ = PINCRW ( GZ_FIELD$, SIZEW (QI$GZ_FIELD) );
      654    19841
      655    19842    4           END LESSER_SUBSCRIPT_DO;
      656    19843
      657    19844    3         END GREATER_SUBSCRIPT_DO;
      658    19845
      659    19846    2   NEXT_PAIR_PLEASE:
      660    19847
      661    19848    2       END;  /* veri_pres_index */
      662    19849
      663    19850    1       IF QI_1.CURRENT.FORM$ -> QI$FORM_FILE.WORD0_FLAGS.IS_ERROR_STATUS_VALID
      664    19851    1       THEN
      665    19852    2         DO;
      666    19853                %DATA_ADDRESS ( THING@D =
             19853                    "QI_1.CURRENT.FORM$ -> QI$FORM_FILE.ERROR_STATUS@D",
      667    19854                CHECK_FOR_INDIRECTION = NO,
      668    19855                RESULT$ = ERROR_STATUS$ );
      669    19892    2           IF THIS_IS_A_VERIFY
      670    19893    2           THEN
      671    19894    2             ERROR_STATUS$ -> QI$ERROR_STATUS.TEXT = %QI#OP_VERIFY_TEXT;
      672    19895    2           ELSE
      673    19896    2             ERROR_STATUS$ -> QI$ERROR_STATUS.TEXT = %QI#OP_PRESENT_TEXT;
      674    19897    2         END;
      675    19898
PL6.E3A0      #001=QBV$VERI_PRES File=QBV$VERI_PRES.:E05TSI                      WED 07/30/97 04:57 Page:24
      676    19899    1       RETURN;
      677    19900
      678    19901        %EJECT;
PL6.E3A0      #001=QBV$VERI_PRES File=QBV$VERI_PRES.:E05TSI                      WED 07/30/97 04:57 Page:25
      679    19902    1   CHECK_USE_PROCEDURE_OR_INVALID:
      680    19903    1       QCU@USE.CURR_FRAME$ = QI_1.CURRENT.FRAME$;
      681    19904    1       QCU@USE.CURR_NODE$ = FIELD_DAD$;
      682    19905    1       QCU@USE.IS_TIME_TO_SAVE_AWAY_FIELDS = %NO;
      683    19906    1       QCU@USE.USE_DEFAULT_IO = %QI#USE_DEFAULT_NONE;
      684    19907
      685    19908    1       CALL QCU$USE_IO ( QCU@USE );
      686    19909
      687    19910    2       DO CASE ( QCU@USE.STATUS );
      688    19911
      689    19912    2         CASE ( %QI#USE_INVALID_RETRY );
      690    19913    2           GOTO RETRY_THE_CURRENT_PAIR;
      691    19914
      692    19915    2         CASE ( %QI#USE_INVALID_SKIP_TO_NEXT );
      693    19916    2           GOTO NEXT_SCALAR_PLEASE;
      694    19917
      695    19918    2         CASE ( ELSE );
      696    19919    2           CALL QCE$ERROR_INTERNAL ( %E$INTERNAL_INTERPRETER_ERROR );
      697    19920
      698    19921    2       END;
      699    19922
      700    19923        %EJECT;
PL6.E3A0      #001=QBV$VERI_PRES File=QBV$VERI_PRES.:E05TSI                      WED 07/30/97 04:57 Page:26
      701    19924    1   IF_IT: PROC;
      702    19925
      703    19926        /*I*  NAME:         IF_IT
      704    19927              PURPOSE:      Compare a FIELD DAD's data with an item in a LEGAL clause.
      705    19928              CALL:         CALL IF_IT;
      706    19929              PARAMETERS:   None.
      707    19930              DATA:         Stuff in QI_1.
      708    19931              DESCRIPTION:  We've got a FIELD DAD's data to compare with an item in
      709    19932                            a LEGAL clause on a COBOL DAD.  There may be some
      710    19933                            conversion required, or whatever.  Using the QI_1.TYPEs
      711    19934                            of the two data items, call a special entry point in
      712    19935                            one or another of the QCI$IFx routines to make the
      713    19936                            comparison.
      714    19937        */
      715    19938
      716    19939    2       CALL BUILD_DOCASE_THING;
      717    19940
      718    19941    3       DO CASE ( DOCASE_THING.EIGHT_BIT_DEAL );
      719    19942
      720    19943    3         CASE (
      721    19944                     /*  Normal stuff.  */
      722    19945    3         %( ALPHANUMERIC_SOURCE + ALPHANUMERIC_TARGET ),
      723    19946    3         %( ALPHANUMERIC_EDITED_SOURCE + ALPHANUMERIC_TARGET ),
      724    19947    3         %( ALPHANUMERIC_RJ_SOURCE + ALPHANUMERIC_TARGET ),
      725    19948    3         %( NUMERIC_EDITED_SOURCE + ALPHANUMERIC_TARGET ),
      726    19949    3         %( ALPHANUMERIC_SOURCE + ALPHANUMERIC_EDITED_TARGET ),
      727    19950    3         %( ALPHANUMERIC_EDITED_SOURCE + ALPHANUMERIC_EDITED_TARGET ),
      728    19951    3         %( ALPHANUMERIC_RJ_SOURCE + ALPHANUMERIC_EDITED_TARGET ),
      729    19952    3         %( NUMERIC_EDITED_SOURCE + ALPHANUMERIC_EDITED_TARGET ),
      730    19953    3         %( ALPHANUMERIC_SOURCE + ALPHANUMERIC_RJ_TARGET ),
      731    19954    3         %( ALPHANUMERIC_EDITED_SOURCE + ALPHANUMERIC_RJ_TARGET ),
      732    19955    3         %( ALPHANUMERIC_RJ_SOURCE + ALPHANUMERIC_RJ_TARGET ),
      733    19956    3         %( NUMERIC_EDITED_SOURCE + ALPHANUMERIC_RJ_TARGET ),
      734    19957    3         %( ALPHANUMERIC_SOURCE + NUMERIC_EDITED_TARGET ),
      735    19958    3         %( ALPHANUMERIC_EDITED_SOURCE + NUMERIC_EDITED_TARGET ),
      736    19959    3         %( ALPHANUMERIC_RJ_SOURCE + NUMERIC_EDITED_TARGET ),
      737    19960    3         %( NUMERIC_EDITED_SOURCE + NUMERIC_EDITED_TARGET ),
PL6.E3A0      #001=QBV$VERI_PRES File=QBV$VERI_PRES.:E05TSI                      WED 07/30/97 04:57 Page:27
      738    19961
      739    19962                     /*  Wierd stuff:  alphanumeric vs. display.  */
      740    19963    3         %( DISPLAY_SOURCE + ALPHANUMERIC_TARGET ),
      741    19964    3         %( DISPLAY_SOURCE + ALPHANUMERIC_EDITED_TARGET ),
      742    19965    3         %( DISPLAY_SOURCE + ALPHANUMERIC_RJ_TARGET ),
      743    19966    3         %( DISPLAY_SOURCE + NUMERIC_EDITED_TARGET ),
      744    19967    3         %( ALPHANUMERIC_SOURCE + DISPLAY_TARGET ),
      745    19968    3         %( ALPHANUMERIC_EDITED_SOURCE + DISPLAY_TARGET ),
      746    19969    3         %( ALPHANUMERIC_RJ_SOURCE + DISPLAY_TARGET ),
      747    19970    3         %( NUMERIC_EDITED_SOURCE + DISPLAY_TARGET ),
      748    19971
      749    19972                     /* Why the hell is this here?
      750    19973                        Also, compiler disallows:
      751    19974                          IF PACKED_TARGET = NUMERIC_EDITED_SOURCE THEN ...
      752    19975                        Strenge.  */
      753    19976    3         %( NUMERIC_EDITED_SOURCE + PACKED_TARGET )
      754    19977    3         );
      755    19978    3           CALL QCI$IFA;
      756    19979
      757    19980    3         CASE (
      758    19981                     /* Compiler disallows:
      759    19982                          IF BINARY_TARGET = NUMERIC_EDITED_SOURCE THEN ...
      760    19983                        Strenge.  */
      761    19984    3             %( NUMERIC_EDITED_SOURCE + BINARY_TARGET )
      762    19985    3             );
      763    19986    3           CALL SAVE_BINARY_TARGET;
      764    19987    3           CALL BINARY_TO_DECIMAL_TARGET;
      765    19988
      766    19989    3           CALL QCI$IFA;
      767    19990    3           CALL RESTORE_BINARY_TARGET;
      768    19991
      769    19992    3         CASE (
      770    19993    3             %( DISPLAY_SOURCE + DISPLAY_TARGET ),
      771    19994    3             %( PACKED_SOURCE + DISPLAY_TARGET ),
      772    19995    3             %( DISPLAY_SOURCE + PACKED_TARGET ),
      773    19996    3             %( PACKED_SOURCE + PACKED_TARGET )
      774    19997    3             );
PL6.E3A0      #001=QBV$VERI_PRES File=QBV$VERI_PRES.:E05TSI                      WED 07/30/97 04:57 Page:28
      775    19998    3           CALL QCI$IFN;
      776    19999
      777    20000    3         CASE (
      778    20001    3             %( BINARY_SOURCE + DISPLAY_TARGET ),
      779    20002    3             %( BINARY_SOURCE + PACKED_TARGET )
      780    20003    3             );
      781    20004    3           CALL SAVE_BINARY_SOURCE;
      782    20005    3           CALL BINARY_TO_DECIMAL_SOURCE;
      783    20006
      784    20007    3           CALL QCI$IFN;
      785    20008    3           CALL RESTORE_BINARY_SOURCE;
      786    20009
      787    20010    3         CASE (
      788    20011    3             %( DISPLAY_SOURCE + BINARY_TARGET ),
      789    20012    3             %( PACKED_SOURCE + BINARY_TARGET )
      790    20013    3             );
      791    20014    3           CALL SAVE_BINARY_TARGET;
      792    20015    3           CALL BINARY_TO_DECIMAL_TARGET;
      793    20016
      794    20017    3           CALL QCI$IFN;
      795    20018    3           CALL RESTORE_BINARY_TARGET;
      796    20019
      797    20020    3         CASE (
      798    20021    3             %( BINARY_SOURCE + BINARY_TARGET )
      799    20022    3             );
      800    20023    3           CALL SAVE_BINARY_SOURCE;
      801    20024    3           CALL BINARY_TO_DECIMAL_SOURCE;
      802    20025    3           CALL SAVE_BINARY_TARGET;
      803    20026    3           CALL BINARY_TO_DECIMAL_TARGET;
      804    20027
      805    20028    3           CALL QCI$IFN;
      806    20029    3           CALL RESTORE_BINARY_SOURCE;
      807    20030    3           CALL RESTORE_BINARY_TARGET;
      808    20031
      809    20032    3         CASE (
      810    20033    3             ELSE
      811    20034    3             );
PL6.E3A0      #001=QBV$VERI_PRES File=QBV$VERI_PRES.:E05TSI                      WED 07/30/97 04:57 Page:29
      812    20035    3           CALL QCE$ERROR_INTERNAL ( %E$INTERNAL_COMPILER_ERROR );
      813    20036
      814    20037    3       END;
      815    20038
      816    20039    2       RETURN;
      817    20040
      818    20041    2   END IF_IT;
      819    20042        %EJECT;
PL6.E3A0      #001=QBV$VERI_PRES File=QBV$VERI_PRES.:E05TSI                      WED 07/30/97 04:57 Page:30
      820    20043    1   MOVE_IT: PROC ( RESTORE_FLAG );
      821    20044
      822    20045        /*I*  NAME:         MOVE_IT
      823    20046              PURPOSE:      Move a FIELD DAD's data to a COBOL DAD's data,
      824    20047                            or vicey-versey.
      825    20048              CALL:         CALL MOVE_IT;
      826    20049              PARAMETERS:   None.
      827    20050              DATA:         Stuff in QI_1.
      828    20051              DESCRIPTION:  We've got a FIELD DAD's data to move to a COBOL DAD,
      829    20052                            (PRESENT) or the other way around (VERIFY).  Some
      830    20053                            conversion may be required.  Using the QI_1.TYPEs
      831    20054                            of the two data items, call a special entry point in
      832    20055                            one or another of the QBM$MOVxxx routines to make the
      833    20056                            move.
      834    20057                            This is about my favorite module; I really dig the
      835    20058                            DO CASEs in this routine and in IF_IT.  Bet you thought
      836    20059                            we couldn't re-use that IF and/or MOVE code, eh?
      837    20060                            I really hate duplicated code.  JJL, C00.
      838    20061        */
      839    20062
      840    20063    2     DCL RESTORE_FLAG BIT(1) ALIGNED PARAM;
      841    20064
      842    20065    2       CALL BUILD_DOCASE_THING;
      843    20066
      844    20067    3       DO CASE ( DOCASE_THING.EIGHT_BIT_DEAL );
      845    20068
      846    20069    3         CASE (
      847    20070    3         %( ALPHANUMERIC_SOURCE + ALPHANUMERIC_TARGET ),
      848    20071    3         %( ALPHANUMERIC_EDITED_SOURCE + ALPHANUMERIC_TARGET ),
      849    20072    3         %( ALPHANUMERIC_RJ_SOURCE + ALPHANUMERIC_TARGET ),
      850    20073    3         %( NUMERIC_EDITED_SOURCE + ALPHANUMERIC_TARGET ),
      851    20074    3         %( DISPLAY_SOURCE + ALPHANUMERIC_TARGET ),
      852    20075    3         %( PACKED_SOURCE + ALPHANUMERIC_TARGET )
      853    20076    3         );
      854    20077    3           CALL QBM$MOVA_VP;
      855    20078
      856    20079    3         CASE (
PL6.E3A0      #001=QBV$VERI_PRES File=QBV$VERI_PRES.:E05TSI                      WED 07/30/97 04:57 Page:31
      857    20080    3             %( BINARY_SOURCE + ALPHANUMERIC_TARGET )
      858    20081    3             );
      859    20082    3           CALL SAVE_BINARY_SOURCE;
      860    20083    3           CALL BINARY_TO_DECIMAL_SOURCE;
      861    20084
      862    20085    3           CALL QBM$MOVA_VP;
      863    20086    3           IF RESTORE_FLAG
      864    20087    3           THEN
      865    20088    3             CALL RESTORE_BINARY_SOURCE;
      866    20089
      867    20090    3         CASE (
      868    20091    3               %( ALPHANUMERIC_SOURCE + ALPHANUMERIC_EDITED_TARGET ),
      869    20092    3               %( ALPHANUMERIC_EDITED_SOURCE + ALPHANUMERIC_EDITED_TARGET ),
      870    20093    3               %( ALPHANUMERIC_RJ_SOURCE + ALPHANUMERIC_EDITED_TARGET ),
      871    20094    3               %( NUMERIC_EDITED_SOURCE + ALPHANUMERIC_EDITED_TARGET ),
      872    20095    3               %( DISPLAY_SOURCE + ALPHANUMERIC_EDITED_TARGET ),
      873    20096    3               %( PACKED_SOURCE + ALPHANUMERIC_EDITED_TARGET )
      874    20097    3               );
      875    20098    3           CALL QBM$MOVAE_VP;
      876    20099
      877    20100    3         CASE (
      878    20101    3             %( BINARY_SOURCE + ALPHANUMERIC_EDITED_TARGET )
      879    20102    3             );
      880    20103    3           CALL SAVE_BINARY_SOURCE;
      881    20104    3           CALL BINARY_TO_DECIMAL_SOURCE;
      882    20105
      883    20106    3           CALL QBM$MOVAE_VP;
      884    20107    3           IF RESTORE_FLAG
      885    20108    3           THEN
      886    20109    3             CALL RESTORE_BINARY_SOURCE;
      887    20110
      888    20111    3         CASE (
      889    20112    3               %( ALPHANUMERIC_SOURCE + ALPHANUMERIC_RJ_TARGET ),
      890    20113    3               %( ALPHANUMERIC_EDITED_SOURCE + ALPHANUMERIC_RJ_TARGET ),
      891    20114    3               %( ALPHANUMERIC_RJ_SOURCE + ALPHANUMERIC_RJ_TARGET ),
      892    20115    3               %( NUMERIC_EDITED_SOURCE + ALPHANUMERIC_RJ_TARGET ),
      893    20116    3               %( DISPLAY_SOURCE + ALPHANUMERIC_RJ_TARGET ),
PL6.E3A0      #001=QBV$VERI_PRES File=QBV$VERI_PRES.:E05TSI                      WED 07/30/97 04:57 Page:32
      894    20117    3               %( PACKED_SOURCE + ALPHANUMERIC_RJ_TARGET )
      895    20118    3               );
      896    20119    3           CALL QBM$MOVAJ_VP;
      897    20120
      898    20121    3         CASE (
      899    20122    3             %( BINARY_SOURCE + ALPHANUMERIC_RJ_TARGET )
      900    20123    3             );
      901    20124    3           CALL SAVE_BINARY_SOURCE;
      902    20125    3           CALL BINARY_TO_DECIMAL_SOURCE;
      903    20126
      904    20127    3           CALL QBM$MOVAJ_VP;
      905    20128    3           IF RESTORE_FLAG
      906    20129    3           THEN
      907    20130    3             CALL RESTORE_BINARY_SOURCE;
      908    20131
      909    20132    3         CASE (
      910    20133    3               %( ALPHANUMERIC_SOURCE + NUMERIC_EDITED_TARGET ),
      911    20134    3               %( ALPHANUMERIC_RJ_SOURCE + NUMERIC_EDITED_TARGET ),
      912    20135    3               %( DISPLAY_SOURCE + NUMERIC_EDITED_TARGET ),
      913    20136    3               %( PACKED_SOURCE + NUMERIC_EDITED_TARGET )
      914    20137    3               );
      915    20138    3           CALL QBM$MOVNE_VP;
      916    20139
      917    20140    3         CASE (
      918    20141    3             %( BINARY_SOURCE + NUMERIC_EDITED_TARGET )
      919    20142    3             );
      920    20143    3           CALL SAVE_BINARY_SOURCE;
      921    20144    3           CALL BINARY_TO_DECIMAL_SOURCE;
      922    20145
      923    20146    3           CALL QBM$MOVNE_VP;
      924    20147    3           IF RESTORE_FLAG
      925    20148    3           THEN
      926    20149    3             CALL RESTORE_BINARY_SOURCE;
      927    20150
      928    20151    3         CASE (
      929    20152    3               %( ALPHANUMERIC_SOURCE + DISPLAY_TARGET ),
      930    20153    3               %( ALPHANUMERIC_RJ_SOURCE + DISPLAY_TARGET ),
PL6.E3A0      #001=QBV$VERI_PRES File=QBV$VERI_PRES.:E05TSI                      WED 07/30/97 04:57 Page:33
      931    20154    3               %( DISPLAY_SOURCE + DISPLAY_TARGET ),
      932    20155    3               %( PACKED_SOURCE + DISPLAY_TARGET )
      933    20156    3               );
      934    20157    3           CALL QBM$MOVN_VP;
      935    20158
      936    20159    3         CASE (
      937    20160    3             %( BINARY_SOURCE + DISPLAY_TARGET )
      938    20161    3             );
      939    20162    3           CALL SAVE_BINARY_SOURCE;
      940    20163    3           CALL BINARY_TO_DECIMAL_SOURCE;
      941    20164
      942    20165    3           CALL QBM$MOVN_VP;
      943    20166    3           IF RESTORE_FLAG
      944    20167    3           THEN
      945    20168    3             CALL RESTORE_BINARY_SOURCE;
      946    20169
      947    20170    3         CASE (
      948    20171    3               %( ALPHANUMERIC_SOURCE + PACKED_TARGET ),
      949    20172    3               %( ALPHANUMERIC_RJ_SOURCE + PACKED_TARGET ),
      950    20173    3               %( DISPLAY_SOURCE + PACKED_TARGET )
      951    20174    3               );
      952    20175    3           CALL QBM$MOVP_VP;
      953    20176
      954    20177    3         CASE (
      955    20178    3             %( ALPHANUMERIC_SOURCE + BINARY_TARGET ),
      956    20179    3             %( ALPHANUMERIC_RJ_SOURCE + BINARY_TARGET ),
      957    20180    3             %( DISPLAY_SOURCE + BINARY_TARGET )
      958    20181    3             );
      959    20182    3           CALL QBM$MOVB_VP;
      960    20183
      961    20184    3         CASE (
      962    20185                     /*  DE-EDITing wierdnesses.  */
      963    20186    3             %( NUMERIC_EDITED_SOURCE + DISPLAY_TARGET ),
      964    20187    3             %( NUMERIC_EDITED_SOURCE + PACKED_TARGET ),
      965    20188    3             %( NUMERIC_EDITED_SOURCE + BINARY_TARGET )
      966    20189    3             );
      967    20190    3           QI_1.OP.LEN_A (%QI#DE_EDIT) = QI_1.OP.LEN_A (%QI#SOURCE);
PL6.E3A0      #001=QBV$VERI_PRES File=QBV$VERI_PRES.:E05TSI                      WED 07/30/97 04:57 Page:34
      968    20191    3           QI_1.OFFSET_A (%QI#DE_EDIT) = QI_1.OFFSET_A (%QI#SOURCE);
      969    20192    3           QI_1.OP.DATA_A$ (%QI#DE_EDIT) = QI_1.OP.DATA_A$ (%QI#SOURCE);
      970    20193    3           QI_1.PICTURE_STRING_A$ (%QI#DE_EDIT) = QI_1.PICTURE_STRING_A$ (%QI#SOURCE);
      971    20194
      972    20195    3           CALL QBM$MOVDE_VP;
      973    20196
      974    20197    3         CASE (
      975    20198    3             ELSE,
      976    20199                  /*  Two special groups of weirdies here:
      977    20200                      1)  illegal MOVE conversions (see FPL manual);  */
      978    20201    3             %( NUMERIC_EDITED_SOURCE + NUMERIC_EDITED_TARGET ),
      979    20202    3             %( ALPHANUMERIC_EDITED_SOURCE + NUMERIC_EDITED_TARGET ),
      980    20203    3             %( ALPHANUMERIC_EDITED_SOURCE + DISPLAY_TARGET ),
      981    20204    3             %( ALPHANUMERIC_EDITED_SOURCE + PACKED_TARGET ),
      982    20205    3             %( ALPHANUMERIC_EDITED_SOURCE + BINARY_TARGET ),
      983    20206                  /*  2)  the screen item can't be PACKED or BINARY,
      984    20207                          so if both operands are PACKED, BINARY,
      985    20208                          or some combination, then something's wrong.  */
      986    20209    3             %( PACKED_SOURCE + PACKED_TARGET ),
      987    20210    3             %( BINARY_SOURCE + PACKED_TARGET ),
      988    20211    3             %( PACKED_SOURCE + BINARY_TARGET ),
      989    20212    3             %( BINARY_SOURCE + BINARY_TARGET )
      990    20213    3             );
      991    20214    3           CALL QCE$ERROR_INTERNAL ( %E$INTERNAL_COMPILER_ERROR );
      992    20215
      993    20216    3       END;
      994    20217
      995    20218    2       RETURN;
      996    20219
      997    20220    2   END MOVE_IT;
      998    20221        %EJECT;
PL6.E3A0      #001=QBV$VERI_PRES File=QBV$VERI_PRES.:E05TSI                      WED 07/30/97 04:57 Page:35
      999    20222    1   SAVE_BINARY_THING: PROC;
     1000    20223
     1001    20224    2   SAVE_BINARY_SOURCE: ENTRY;
     1002    20225    2       SAVED_BINARY_CIP_SOURCE = QI_1.OP.CIP.S_A (0);
     1003    20226    2       SAVED_BINARY_DATA_SOURCE$ = QI_1.OP.DATA.S$;
     1004    20227    2       SAVED_BINARY_LEN_SOURCE = QI_1.OP.LEN.S;
     1005    20228    2       SAVED_BINARY_TYPE_SOURCE = QI_1.TYPE.S;
     1006    20229
     1007    20230    2       RETURN;
     1008    20231
     1009    20232    2   SAVE_BINARY_TARGET: ENTRY;
     1010    20233    2       SAVED_BINARY_CIP_TARGET = QI_1.OP.CIP.T_A (0);
     1011    20234    2       SAVED_BINARY_DATA_TARGET$ = QI_1.OP.DATA.T$;
     1012    20235    2       SAVED_BINARY_LEN_TARGET = QI_1.OP.LEN.T;
     1013    20236    2       SAVED_BINARY_TYPE_TARGET = QI_1.TYPE.T;
     1014    20237
     1015    20238    2       RETURN;
     1016    20239
     1017    20240    2   END SAVE_BINARY_THING;
     1018    20241        %EJECT;
PL6.E3A0      #001=QBV$VERI_PRES File=QBV$VERI_PRES.:E05TSI                      WED 07/30/97 04:57 Page:36
     1019    20242    1   BINARY_TO_DECIMAL: PROC;
     1020    20243
     1021    20244        /*I*  NAME:         BINARY_TO_DECIMAL
     1022    20245              PURPOSE:      Convert an item from binary to decimal.  (Sheesh.)
     1023    20246              CALL:         CALL BINARY_TO_DECIMAL_SOURCE;
     1024    20247                            CALL BINARY_TO_DECIMAL_TARGET;
     1025    20248              PARAMETERS:   None.
     1026    20249              DATA:         Stuff in QI_1,
     1027    20250                            stuff in QI_TYPE_DISPLAY_TARGET.
     1028    20251              DESCRIPTION:  Convert the data pointed to by QI_1.OP.DATA.S$
     1029    20252                            from binary to decimal (via BINARY_TO_DECIMAL_SOURCE),
     1030    20253                            or the data pointed to by QI_1.OP.DATA.T$
     1031    20254                            from binary to decimal (via BINARY_TO_DECIMAL_TARGET).
     1032    20255                            I know this is a duplication of stuff in the
     1033    20256                            QBC$CONVERSIONS routines, but for some reason I can't
     1034    20257                            remember now I decided not to use that stuff.  JJL, C00.
     1035    20258        */
     1036    20259
     1037    20260          %QI@TYPE_DISPLAY_TARGET;
     1038    20925
     1039    20926    2   BINARY_TO_DECIMAL_SOURCE: ENTRY;
     1040    20927    2       QI@TYPE_DISPLAY_TARGET = QI_TYPE_DISPLAY_TARGET;
     1041    20928    2       QI@TYPE_DISPLAY_TARGET.CIP.S_A (0) = QI_1.OP.CIP.S_A (0);
     1042    20929    2       QI@TYPE_DISPLAY_TARGET.DATA.S$ = QI_1.OP.DATA.S$;
     1043    20930    2       IF QI_1.OP.LEN.S = %QI#MIN_BINARY_LENGTH
     1044    20931    2       THEN
     1045    20932    2         QI@TYPE_DISPLAY_TARGET.CIP.T.LEN = %QI#MIN_BINARY_DIGIT_COUNT;
     1046    20933    2       ELSE
     1047    20934    2         QI@TYPE_DISPLAY_TARGET.CIP.T.LEN = %QI#MAX_BINARY_DIGIT_COUNT;
     1048    20935    2       QI@TYPE_DISPLAY_TARGET.CIP.T.CD.SIGN = %QI#CD_SIGN_TRAILING_OVER;
     1049    20936    2       QI@TYPE_DISPLAY_TARGET.DATA.T$ = ADDR ( OTTER_DECIMAL_SOURCE );
     1050    20937    2       QI@TYPE_DISPLAY_TARGET.SIZE_ERROR = %QI#DONT_CHECK_FOR_SIZE_ERROR;
     1051    20938
     1052    20939    2       CALL QCC$CBD ( QI@TYPE_DISPLAY_TARGET )
     1053    20940    2       WHENALTRETURN
     1054    20941    3         DO;
     1055    20942    3           CALL QCE$ERROR_INTERNAL ( %E$UNEXPECTED_QCC_ALTRET );
PL6.E3A0      #001=QBV$VERI_PRES File=QBV$VERI_PRES.:E05TSI                      WED 07/30/97 04:57 Page:37
     1056    20943    3         END;
     1057    20944
     1058    20945    2       QI_1.OP.CIP.S_A (0) = QI@TYPE_DISPLAY_TARGET.CIP.T_A (0);
     1059    20946    2       QI_1.OP.DATA.S$ = QI@TYPE_DISPLAY_TARGET.DATA.T$;
     1060    20947    2       QI_1.OP.LEN.S = QI@TYPE_DISPLAY_TARGET.CIP.T.LEN;
     1061    20948    2       QI_1.TYPE.S = %QI#TYPE_DISPLAY;
     1062    20949
     1063    20950    2       RETURN;
     1064    20951
     1065    20952    2   BINARY_TO_DECIMAL_TARGET: ENTRY;
     1066    20953    2       QI@TYPE_DISPLAY_TARGET = QI_TYPE_DISPLAY_TARGET;
     1067    20954    2       QI@TYPE_DISPLAY_TARGET.CIP.S_A (0) = QI_1.OP.CIP.T_A (0);
     1068    20955    2       QI@TYPE_DISPLAY_TARGET.DATA.S$ = QI_1.OP.DATA.T$;
     1069    20956    2       IF QI_1.OP.LEN.T = %QI#MIN_BINARY_LENGTH
     1070    20957    2       THEN
     1071    20958    2         QI@TYPE_DISPLAY_TARGET.CIP.T.LEN = %QI#MIN_BINARY_DIGIT_COUNT;
     1072    20959    2       ELSE
     1073    20960    2         QI@TYPE_DISPLAY_TARGET.CIP.T.LEN = %QI#MAX_BINARY_DIGIT_COUNT;
     1074    20961    2       QI@TYPE_DISPLAY_TARGET.CIP.T.CD.SIGN = %QI#CD_SIGN_TRAILING_OVER;
     1075    20962    2       QI@TYPE_DISPLAY_TARGET.DATA.T$ = ADDR ( OTTER_DECIMAL_TARGET );
     1076    20963    2       QI@TYPE_DISPLAY_TARGET.SIZE_ERROR = %QI#DONT_CHECK_FOR_SIZE_ERROR;
     1077    20964
     1078    20965    2       CALL QCC$CBD ( QI@TYPE_DISPLAY_TARGET )
     1079    20966    2       WHENALTRETURN
     1080    20967    3         DO;
     1081    20968    3           CALL QCE$ERROR_INTERNAL ( %E$UNEXPECTED_QCC_ALTRET );
     1082    20969    3         END;
     1083    20970
     1084    20971    2       QI_1.OP.CIP.T_A (0) = QI@TYPE_DISPLAY_TARGET.CIP.T_A (0);
     1085    20972    2       QI_1.OP.DATA.T$ = QI@TYPE_DISPLAY_TARGET.DATA.T$;
     1086    20973    2       QI_1.OP.LEN.T = QI@TYPE_DISPLAY_TARGET.CIP.T.LEN;
     1087    20974    2       QI_1.TYPE.T = %QI#TYPE_DISPLAY;
     1088    20975
     1089    20976    2       RETURN;
     1090    20977
     1091    20978    2   END BINARY_TO_DECIMAL;
     1092    20979        %EJECT;
PL6.E3A0      #001=QBV$VERI_PRES File=QBV$VERI_PRES.:E05TSI                      WED 07/30/97 04:57 Page:38
     1093    20980    1   RESTORE_BINARY_THING: PROC;
     1094    20981
     1095    20982    2   RESTORE_BINARY_SOURCE: ENTRY;
     1096    20983    2       QI_1.OP.CIP.S_A (0) = SAVED_BINARY_CIP_SOURCE;
     1097    20984    2       QI_1.OP.DATA.S$ = SAVED_BINARY_DATA_SOURCE$;
     1098    20985    2       QI_1.OP.LEN.S = SAVED_BINARY_LEN_SOURCE;
     1099    20986    2       QI_1.TYPE.S = SAVED_BINARY_TYPE_SOURCE;
     1100    20987
     1101    20988    2       RETURN;
     1102    20989
     1103    20990    2   RESTORE_BINARY_TARGET: ENTRY;
     1104    20991    2       QI_1.OP.CIP.T_A (0) = SAVED_BINARY_CIP_TARGET;
     1105    20992    2       QI_1.OP.DATA.T$ = SAVED_BINARY_DATA_TARGET$;
     1106    20993    2       QI_1.OP.LEN.T = SAVED_BINARY_LEN_TARGET;
     1107    20994    2       QI_1.TYPE.T = SAVED_BINARY_TYPE_TARGET;
     1108    20995
     1109    20996    2       RETURN;
     1110    20997
     1111    20998    2   END RESTORE_BINARY_THING;
     1112    20999        %EJECT;
PL6.E3A0      #001=QBV$VERI_PRES File=QBV$VERI_PRES.:E05TSI                      WED 07/30/97 04:57 Page:39
     1113    21000    1   BUILD_DOCASE_THING: PROC;
     1114    21001
     1115    21002        /*I*  NAME:         BUILD_DOCASE_THING
     1116    21003              PURPOSE:      Build DOCASE_THING.  (Sheesh again.)
     1117    21004              CALL:         CALL BUILD_DOCASE_THING;
     1118    21005              PARAMETERS:   None.
     1119    21006              DATA:         Stuff in QI_1.
     1120    21007              DESCRIPTION:  Build DOCASE_THING, the thing which contains the
     1121    21008                            QI_1.TYPEs of the two items to eventually be compared
     1122    21009                            or moved, and an indication as to whether the items
     1123    21010                            are picture string edited (and which type) or
     1124    21011                            JUSTIFIED RIGHT.
     1125    21012        */
     1126    21013
     1127    21014    2       IF QI_1.PICTURE_STRING.S$ ~= ADDR (NIL)
     1128    21015    2       THEN
     1129    21016    2         DOCASE_THING.INNARDS.PICTURE_STRING_S =
     1130    21017    2           QI_1.PICTURE_STRING.S$ -> QI$PICTURE_STRING.TYPE;
     1131    21018    2       ELSE
     1132    21019    2         IF QI_1.DAD.S$ -> QI$DAD.WORD0_FLAGS.IS_JUSTIFIED_RIGHT
     1133    21020    2         THEN
     1134    21021    2           DOCASE_THING.INNARDS.PICTURE_STRING_S =
     1135    21022    2             %JUSTIFIED_RIGHT;
     1136    21023    2         ELSE
     1137    21024    2           DOCASE_THING.INNARDS.PICTURE_STRING_S =
     1138    21025    2             %NO_PICTURE_STRING;
     1139    21026
     1140    21027    2       DOCASE_THING.INNARDS.TYPE_S = QI_1.TYPE.S;
     1141    21028
     1142    21029    2       IF QI_1.PICTURE_STRING.T$ ~= ADDR (NIL)
     1143    21030    2       THEN
     1144    21031    2         DOCASE_THING.INNARDS.PICTURE_STRING_T =
     1145    21032    2           QI_1.PICTURE_STRING.T$ -> QI$PICTURE_STRING.TYPE;
     1146    21033    2       ELSE
     1147    21034    2         IF QI_1.DAD.T$ -> QI$DAD.WORD0_FLAGS.IS_JUSTIFIED_RIGHT
     1148    21035    2         THEN
     1149    21036    2           DOCASE_THING.INNARDS.PICTURE_STRING_T =
PL6.E3A0      #001=QBV$VERI_PRES File=QBV$VERI_PRES.:E05TSI                      WED 07/30/97 04:57 Page:40
     1150    21037    2             %JUSTIFIED_RIGHT;
     1151    21038    2         ELSE
     1152    21039    2           DOCASE_THING.INNARDS.PICTURE_STRING_T =
     1153    21040    2             %NO_PICTURE_STRING;
     1154    21041
     1155    21042    2       DOCASE_THING.INNARDS.TYPE_T = QI_1.TYPE.T;
     1156    21043
     1157    21044    2   END BUILD_DOCASE_THING;
     1158    21045
     1159    21046    1   END QBV$VERI_PRES;

PL6.E3A0      #001=QBV$VERI_PRES File=QBV$VERI_PRES.:E05TSI                      WED 07/30/97 04:57 Page:41
--  Include file information  --

   QCU_USE_M.:E05TOU  is referenced.
   QCG_GET_FIELD_M.:E05TOU  is referenced.
   QI_MACROS_M.:E05TOU  is referenced.
   QI_PERR_C.:E05TOU  is referenced.
   QI_EQUATES_E.:E05TOU  is referenced.
   QG_MACRO_M.:E05TOU  is referenced.
   G_JIT_M.:E05TOU  is referenced.
   LCP_6.:E05TOU  cannot be made into a system file and is referenced.
   G_LCP6_E.:E05TOU  was found in the system file and is referenced.
   GT_LCP6_M.:E05TOU  was found in the system file and is referenced.
   KI_CP6.:E05TOU  was found in the system file and is referenced.
   GF_LCP6_M.:E05TOU  was found in the system file and is referenced.
   GM_LCP6_M.:E05TOU  was found in the system file and is referenced.
   GU_LCP6_M.:E05TOU  was found in the system file and is referenced.
   GJ_LCP6_M.:E05TOU  was found in the system file and is referenced.
   GH_LCP6_M.:E05TOU  was found in the system file and is referenced.
      No diagnostics issued in procedure QBV$VERI_PRES.

   Procedure QBV$VERI_PRES requires 2406 words for executable code.
   Procedure QBV$VERI_PRES requires 360 words of local(AUTO) storage.

    No errors detected in file QBV$VERI_PRES.:E05TSI    .

PL6.E3A0      #001=QBV$VERI_PRES File=QBV$VERI_PRES.:E05TSI                      WED 07/30/97 04:57 Page:42

 Object Unit name= QBV$VERI_PRES                              File name= QBV$VERI_PRES.:E05TOU
 UTS= JUL 30 '97 04:57:57.24 WED                              Compiler= PL-6/E31         Sev=      00
 SharedLib= :SHARED_LCP6_SYSTEM                               Alt SharedLib=


    ****  Control sections  ****

 Sect   Type Bound  Init  Size HexSiz  Section name
    0  RoData even  UTS     38     26  QBV$VERI_PRES
    1   Proc  even  none  2406    966  QBV$VERI_PRES
    2  RoData even  none    11      B  QBV$VERI_PRES

    ****  Entry defs  ****

                              Check   Calling
                             calling  sequence
  Sect HexLoc Primary Altret sequence   type   Parms  Name
     1      0   yes            yes      Std        0  QBV$VERI_PRES
     1      7                  yes      Std        0  QBV$PRESENT
     1     10                  yes      Std        0  QBV$VERIFY
PL6.E3A0      #001=QBV$VERI_PRES File=QBV$VERI_PRES.:E05TSI                      WED 07/30/97 04:57 Page:43

  ****  Entry refs  ****

         Check        Calling
        calling       sequence
Altret sequence SRef   type   Args  Name
         yes           Std       0 QCS$SETUP_SOURCE
         yes           Std       0 QCS$SETUP_TARGET
         yes           Std       4 QCE$ERROR_INTERNAL
         yes           Std       0 QCF$FIND_CURRENTS
         yes           Std       5 QCE$ERROR_MESSAGE
         yes           Std       4 QCE$ERROR
         yes           Std       1 QCU$USE_IO
         yes           Std       1 QCG$GET_FIELD_ILLEGAL
         yes           Std       0 QCI$IFA
         yes           Std       0 QCI$IFN
         yes           Std       0 QBM$MOVA_VP
         yes           Std       0 QBM$MOVAJ_VP
         yes           Std       0 QBM$MOVN_VP
         yes           Std       0 QBM$MOVAE_VP
         yes           Std       0 QBM$MOVB_VP
         yes           Std       0 QBM$MOVNE_VP
         yes           Std       0 QBM$MOVDE_VP
         yes           Std       0 QBM$MOVP_VP
 yes     yes           Std       1 QCC$CBD
                       nStd      0 X6A_AUTO_0
                       nStd      0 X6D_MID
                       nStd      0 X6A_ARET

  ****  Data refs  ****

  Flags:  r = read only, s = secondary
Flgs Name                             Flgs Name                             Flgs Name
     G$JIT$                                QI_1                                  QI_TYPE_DISPLAY_TARGET
     QI_4_CHAR_ALPHANUMERIC                QI_31_DIGIT_SLS_DISPLAY               QI_16_BIT_BINARY
     QI_32_BIT_BINARY                      QI_31_DIGIT_ST_PACKED                 QI_PICTURE_STRING
r    G$ROS$
PL6.E3A0      #001=QBV$VERI_PRES File=QBV$VERI_PRES.:E05TSI                      WED 07/30/97 04:57 Page:44


        1        1        /*M* QBV$VERI_PRES:  VERIFY and PRESENT instructions.  */
        2        2        /*T***********************************************************/
        3        3        /*T*                                                         */
        4        4        /*T* Copyright (c) Bull HN Information Systems Inc., 1997    */
        5        5        /*T*                                                         */
        6        6        /*T***********************************************************/
        7        7        /*X* DMC,PLM=4,IND=0,DCI=4,CSI=2,IAD=2,DTI=2,AND,ECI=0,DIN=2,STI=2 */
        8        8
        9        9        /*P*  NAME:         QBV$VERI_PRES
       10       10              PURPOSE:      VERIFY or PRESENT pairs of COBOL and FIELD DADs.
       11       11              DESCRIPTION:  Execute a VERIFY or PRESENT op-code, whose argument
       12       12                            may be a pair of COBOL and FIELD DADs, or a list of
       13       13                            such pairs.
       14       14        */
       15       15
       16       16        QBV$VERI_PRES: PROC;

     16   1 000000  D380 0000 0000  xent QBV$VERI_PRES   LNJ,B5   X6A_AUTO_0
          1 000003       0168 0000                       DC       360,0
          1 000005  0F81 0006                            B        s:19081,PREL

       17       17
       18       18          %INCLUDE LCP_6;
       19      209          %INCLUDE G_JIT_M;
       20      474          %G$JIT;
       21      888    1     DCL G$JIT$ PTR SYMREF;
       22      889
       23      890          %INCLUDE QG_MACRO_M;
       24     1027          %INCLUDE QI_EQUATES_E;
       25     1386          %INCLUDE QI_PERR_C;
       26     1554          %INCLUDE QI_MACROS_M;
       27     6612          %QI$ALL;
       28    17725
       29    17726    1     DCL ARRAY_OFFSET UBIN;
       30    17727    1     DCL CIP_INDEX UBIN;
       31    17728    1     DCL CLB$ PTR;
PL6.E3A0      #001=QBV$VERI_PRES File=QBV$VERI_PRES.:E05TSI                      WED 07/30/97 04:57 Page:45
       32    17729    1     DCL COBOL_ARRAY_OFFSET UBIN;
       33    17730    1     DCL COBOL_DAD$ PTR;
       34    17731    1     DCL CURRENT_RETRY_COUNT UBIN;
       35    17732    1     DCL DA_DA$ PTR;
       36    17733    1     DCL DIMENSION_COUNT UBIN;
       37    17734    1     DCL 1 DOCASE_THING,
       38    17735    1           2 EIGHT_BIT_DEAL UBIN BYTE UNAL,
       39    17736    1           2 INNARDS REDEF EIGHT_BIT_DEAL,
       40    17737    1             3 TYPE_S UBIN(2) UNAL,
       41    17738    1             3 PICTURE_STRING_S UBIN(2) UNAL,
       42    17739    1             3 TYPE_T UBIN(2) UNAL,
       43    17740    1             3 PICTURE_STRING_T UBIN(2) UNAL;
       44    17741    1     DCL ERROR_MESSAGE_INDEX SBIN;
       45    17742    1     DCL ERROR_STATUS$ PTR;
       46    17743    1     DCL FIELD_DAD$ PTR;
       47    17744    1     DCL FIELD_DAD_P$ PTR;
       48    17745    1     DCL FIELD_IDENTIFIER$ PTR;
       49    17746    1     DCL GZ_FIELD$ PTR;
       50    17747    1     DCL INITIAL_COBOL_DATA$ PTR;
       51    17748    1     DCL INITIAL_COBOL_OFFSET UBIN;
       52    17749    1     DCL INITIAL_GZ$ PTR;
       53    17750    1     DCL INITIAL_LEGAL_ARRAY_DATA$ PTR;
       54    17751    1     DCL INITIAL_LEGAL_ARRAY_OFFSET UBIN;
       55    17752    1     DCL INITIAL_RETRY_COUNT UBIN;
       56    17753    1     DCL INSTR$ PTR;
       57    17754    1     DCL LEGAL_ARRAY_ELEMENT_SIZE UBIN;
       58    17755    1     DCL LEGAL_ARRAY_OFFSET UBIN;
       59    17756    1     DCL LEGAL_INDEX SBIN;
       60    17757    1     DCL LEGAL_LIST_INDEX UBIN;
       61    17758    1     DCL LEVEL_MULTIPLIER_INDEX UBIN;
       62    17759    1     DCL P_ITEM_INDEX UBIN;
       63    17760    1     DCL REPEATS_INDEX SBIN;
       64    17761    1     DCL RESTORE_FLAG BIT(1) ALIGNED;
       65    17762    1     DCL SAVED_BINARY_CIP_SOURCE UBIN;
       66    17763    1     DCL SAVED_BINARY_CIP_TARGET UBIN;
       67    17764    1     DCL SAVED_BINARY_DATA_SOURCE$ PTR;
       68    17765    1     DCL SAVED_BINARY_DATA_TARGET$ PTR;
PL6.E3A0      #001=QBV$VERI_PRES File=QBV$VERI_PRES.:E05TSI                      WED 07/30/97 04:57 Page:46
       69    17766    1     DCL SAVED_BINARY_LEN_SOURCE UBIN;
       70    17767    1     DCL SAVED_BINARY_LEN_TARGET UBIN;
       71    17768    1     DCL SAVED_BINARY_TYPE_SOURCE UBIN;
       72    17769    1     DCL SAVED_BINARY_TYPE_TARGET UBIN;
       73    17770    1     DCL SUBSCRIPT_BOUND_A(0:%(QI#MAXIMUM_DIMENSION-1)) UBIN;
       74    17771    1     DCL SUBSCRIPT_INDEX SBIN;
       75    17772    1     DCL 1 SUBSCRIPT_DO_INDICES,
       76    17773    1           2 FIRST UBIN,
       77    17774    1           2 SECOND UBIN,
       78    17775    1           2 * UBIN;
       79    17776    1     DCL SUBSCRIPT_DO_INDEX_A(0:%(QI#MAXIMUM_DIMENSION-1)) REDEF SUBSCRIPT_DO_INDICES
             17776              UBIN;
       80    17777    1     DCL THIS_IS_A_VERIFY BIT(1) ALIGNED;
       81    17778    1     DCL VERI_PRES_COUNT UBIN;
       82    17779    1     DCL VERI_PRES_INDEX UBIN;
       83    17780
       84    17781          %QI_1 ( NAME = QI@1,
       85    17782                  STCLASS = "AUTO" );
       86    18752          %QI@OTTER_SPACE ( NAME = OTTER_DECIMAL_SOURCE );
       87    18780          %QI@OTTER_SPACE ( NAME = OTTER_DECIMAL_TARGET );
       88    18808    1     DCL OTTER_ERROR_MESSAGE CHAR(80);
       89    18809
       90    18810          %SET LISTMAC = '1'B;
       91    18811
       92    18812          %INCLUDE QCG_GET_FIELD_M;
       93    18851          %QCG@GET_FIELD;
             18852            %BEGIN_MACRO;
             18853            %SET LISTDIR = '0'B;
             18866    1     DCL 1 QCG@GET_FIELD ALIGNED,
             18867    1           2 MESSAGE_LINE_GZ_HEADER$ PTR,
             18868                           /* Pointer to QI$GZ_HEADER for the
             18869                              MESSAGE LINE to use.  */
             18870    1           2 IS_MESSAGE_A_DAD BIT(1) ALIGNED,
             18871                           /* Set if MESSAGE$ points to a DAD,
             18872                              reset if MESSAGE$ points to text
             18873                              (in which case MESSAGE_LENGTH is valid).  */
             18874    1           2 MESSAGE_LENGTH UBIN,
PL6.E3A0      #001=QBV$VERI_PRES File=QBV$VERI_PRES.:E05TSI                      WED 07/30/97 04:57 Page:47
             18875                           /* Length, in bytes, of the error message.  */
             18876    1           2 MESSAGE$ PTR,
             18877                           /* See IS_MESSAGE_A_DAD.  */
             18878    1           2 FRAME_INDEX UBIN,
             18879                           /* Index of the current frame.  */
             18880    1           2 FIELD_INDEX UBIN,
             18881                           /* Index of the field to re-get (if any).  */
             18882    1           2 STATUS UBIN,
             18883                           /* Returned status code:  0 -> Immediate return to level 0;
             18884                                                    >0 -> Status is ok.  */
             18885    1           2 FIELD_ERROR_STOP_INDEX UBIN;
             18886                           /* Passed index for QCG$GET_FIELD processing.  */
             18893            %ENDIF;
       94    18896
       95    18897          %INCLUDE QCU_USE_M;
       96    18951          %QCU@USE;
             18952            %BEGIN_MACRO;
             18953            %SET LISTDIR = '0'B;
             18966    1     DCL 1 QCU@USE AUTO ALIGNED,
             18967    1           2 CURR_FRAME$ PTR,
             18968                          /* Pointer to DAD of current frame or ADDR (NIL).  */
             18969    1           2 CURR_NODE$ PTR,
             18970                          /* Pointer to current node or ADDR (NIL).  */
             18971    1           2 USE_DEFAULT_IO UBIN,
             18972                          /* For USE procedures which default applies
             18973                             (see corresponding EQUs).  */
             18974    1           2 IS_TIME_TO_SAVE_AWAY_FIELDS BIT(1) ALIGNED,
             18975                          /* If IS_TIME_TO_SAVE_AWAY_FIELDS, then
             18976                             save the fields within the bounds of
             18977                             FRAME_START_INDEX, FRAME_STOP_INDEX,
             18978                             FIELD_START_INDEX, and FIELD_STOP_INDEX
             18979                             before calling the USE procedure.  */
             18980    1           2 FRAME_START_INDEX UBIN,
             18981                          /* Foist frame of the CURRENT.FORM$
             18982                             involved with the I-O error.  */
             18983    1           2 FRAME_STOP_INDEX UBIN,
             18984                          /* Larst frame of the CURRENT.FORM$
PL6.E3A0      #001=QBV$VERI_PRES File=QBV$VERI_PRES.:E05TSI                      WED 07/30/97 04:57 Page:48
             18985                             involved with the I-O error.  */
             18986    1           2 IS_FIELD_INDEXES_VALID BIT(1) ALIGNED,
             18987                          /* If IS_FIELD_INDEXES_VALID, use them;
             18988                             else use all the fields in the frame.  */
             18989    1           2 FIELD_START_INDEX UBIN,
             18990                          /* Starting index into QI$GZ_FIELD
             18991                             which may have values "pushed".  */
             18992    1           2 FIELD_STOP_INDEX UBIN,
             18993                          /* Stopping index into QI$GZ_FIELD
             18994                             which may have values "pushed".  */
             18995    1           2 IS_CURSOR_POSITION_VALID BIT(1) ALIGNED,
             18996                          /* If IS_CURSOR_POSITION_VALID, use it;
             18997                             else allow cursor to default to upper-left-most field.  */
             18998    1           2 CURSOR_POSITION BIT(16) ALIGNED,
             18999                          /* POSition of the field on which to place the cursor.  */
             19000    1           2 STATUS UBIN;
             19001                          /* Returned action code; see corresponding EQUs.  */
             19008            %ENDIF;
       97    19011
       98    19012          %SET LISTMAC = '0'B;
       99    19013
      100    19014          %EQU NO_PICTURE_STRING = 2;
      101    19015          %EQU JUSTIFIED_RIGHT = 3;
      102    19016          %EQU ALPHANUMERIC_TARGET = ( QI#TYPE_ALPHANUMERIC * 4 ) + NO_PICTURE_STRING;
      103    19017          %EQU ALPHANUMERIC_EDITED_TARGET = ( QI#TYPE_ALPHANUMERIC * 4 ) +
             19017              QI#ALPHANUMERIC_PICTURE_STRING;
      104    19018          %EQU ALPHANUMERIC_RJ_TARGET = ( QI#TYPE_ALPHANUMERIC * 4 ) + JUSTIFIED_RIGHT;
      105    19019          %EQU NUMERIC_EDITED_TARGET = ( QI#TYPE_ALPHANUMERIC * 4 ) +
             19019              QI#NUMERIC_PICTURE_STRING;
      106    19020          %EQU DISPLAY_TARGET = ( QI#TYPE_DISPLAY * 4 ) + NO_PICTURE_STRING;
      107    19021          %EQU PACKED_TARGET = ( QI#TYPE_PACKED * 4 ) + NO_PICTURE_STRING;
      108    19022          %EQU BINARY_TARGET = ( QI#TYPE_BINARY * 4 ) + NO_PICTURE_STRING;
      109    19023          %EQU ALPHANUMERIC_SOURCE = ( ALPHANUMERIC_TARGET ) * 16;
      110    19024          %EQU ALPHANUMERIC_EDITED_SOURCE = ( ALPHANUMERIC_EDITED_TARGET ) * 16;
      111    19025          %EQU ALPHANUMERIC_RJ_SOURCE = ( ALPHANUMERIC_RJ_TARGET ) * 16;
      112    19026          %EQU NUMERIC_EDITED_SOURCE = ( NUMERIC_EDITED_TARGET ) * 16;
      113    19027          %EQU DISPLAY_SOURCE = ( DISPLAY_TARGET ) * 16;
PL6.E3A0      #001=QBV$VERI_PRES File=QBV$VERI_PRES.:E05TSI                      WED 07/30/97 04:57 Page:49
      114    19028          %EQU PACKED_SOURCE = ( PACKED_TARGET ) * 16;
      115    19029          %EQU BINARY_SOURCE = ( BINARY_TARGET ) * 16;
      116    19030
      117    19031    1     DCL QCS$SETUP_SOURCE ENTRY;
      118    19032    1     DCL QCS$SETUP_TARGET ENTRY;
      119    19033    1     DCL QBM$MOVA_VP ENTRY;
      120    19034    1     DCL QBM$MOVAE_VP ENTRY;
      121    19035    1     DCL QBM$MOVAJ_VP ENTRY;
      122    19036    1     DCL QBM$MOVNE_VP ENTRY;
      123    19037    1     DCL QBM$MOVN_VP ENTRY;
      124    19038    1     DCL QBM$MOVP_VP ENTRY;
      125    19039    1     DCL QBM$MOVB_VP ENTRY;
      126    19040    1     DCL QBM$MOVDE_VP ENTRY;
      127    19041    1     DCL QCF$FIND_CURRENTS ENTRY;
      128    19042    1     DCL QCI$IFA ENTRY;
      129    19043    1     DCL QCI$IFN ENTRY;
      130    19044    1     DCL QCC$CBD ENTRY (1) ALTRET;
      131    19045    1     DCL QCE$ERROR ENTRY (4);
      132    19046    1     DCL QCE$ERROR_INTERNAL ENTRY (4);
      133    19047    1     DCL QCE$ERROR_MESSAGE ENTRY (5);
      134    19048    1     DCL QCG$GET_FIELD_ILLEGAL ENTRY (1);
      135    19049    1     DCL QCU$USE_IO ENTRY (1);
      136    19050    1     DCL QCU$USE_VERIFY ENTRY (1);
      137    19051
      138    19052          /* CONSTANT error-message stuff */
      139    19053    1     DCL ILLEGAL_VALUE_TEXT CHAR(%QI#ERROR_MESSAGE_LINE_SIZE) CONSTANT
      140    19054    1       INIT ( 'Illegal value.' );
      141    19055
      142    19056        %EJECT;
PL6.E3A0      #001=QBV$VERI_PRES File=QBV$VERI_PRES.:E05TSI                      WED 07/30/97 04:57 Page:50
      143    19057    1   QBV$PRESENT: ENTRY;

  19057   1 000007  D380 0000 0000  xent QBV$PRESENT     LNJ,B5   X6A_AUTO_0
          1 00000A       0168 0000                       DC       360,0

      144    19058
      145    19059        /*D*  NAME:         QBV$PRESENT
      146    19060              CALL:         CALL QBV$PRESENT;
      147    19061              PARAMETERS:   None.
      148    19062              INTERFACE:    Called by QAT$TALLYHO when a PRESENT op-code is
      149    19063                            encountered.
      150    19064              ENVIRONMENT:  Nothing unusual.
      151    19065              INPUT:        QI_1,
      152    19066                            FPL rununit static data following the op-code.
      153    19067              OUTPUT:       Moves data from the COBOL DAD(s) to the FIELD DAD(s).
      154    19068                            Also sets QI$GZ_FIELD.INDICATORS$ ->
      155    19069                                      QI$INDICATORS.STATE_FLAGS.PRESENTED.
      156    19070              SCRATCH:      Various otter data.
      157    19071              DESCRIPTION:  Move data from COBOL (FILE or WORKING-STORAGE SECTION) DADs
      158    19072                            to FIELD (FRAME SECTION) DADs.  That means setting up not
      159    19073                            only the COBOL DAD addresses but also QI$GZ_FIELD
      160    19074                            stuff.  About the only real oddity is that the compiler
      161    19075                            gens only one argument@P for each COBOL DAD, so if the
      162    19076                            DAD is an array (has an OCCURS clause associated with it),
      163    19077                            the location of each array element has to be devined
      164    19078                            by this routine.  Ish.
      165    19079        */
      166    19080
      167    19081    1       THIS_IS_A_VERIFY = %NO;

  19081   1 00000C  8747 003F                            CL       THIS_IS_A_VERIFY,AUTO

      168    19082    1       GOTO SO_DO_THE_VERI_PRES_ALREADY;

  19082   1 00000E  0F81 0009                            B        s:19119,PREL

      169    19083
PL6.E3A0      #001=QBV$VERI_PRES File=QBV$VERI_PRES.:E05TSI                      WED 07/30/97 04:57 Page:51
      170    19084    1   QBV$VERIFY: ENTRY;

  19084   1 000010  D380 0000 0000  xent QBV$VERIFY      LNJ,B5   X6A_AUTO_0
          1 000013       0168 0000                       DC       360,0

      171    19085
      172    19086        /*D*  NAME:         QBV$VERIFY
      173    19087              CALL:         CALL QBV$VERIFY;
      174    19088              PARAMETERS:   None.
      175    19089              INTERFACE:    Called by QAT$TALLYHO when a VERIFY op-code is
      176    19090                            encountered.
      177    19091                            Calls QCG$GET_FIELD if a LEGAL clause is not satisfied.
      178    19092              ENVIRONMENT:  Nothing unusual.
      179    19093              INPUT:        QI_1,
      180    19094                            FPL rununit static data following the op-code.
      181    19095              OUTPUT:       Moves data from the FIELD DAD(s) to the COBOL DAD(s).
      182    19096                            Also sets QI$GZ_FIELD.INDICATORS$ ->
      183    19097                                      QI$INDICATORS.STATE_FLAGS.AVAILABLE.
      184    19098              SCRATCH:      Various otter data.
      185    19099              DESCRIPTION:  Move data from FIELD (FRAME SECTION) DADs to COBOL
      186    19100                            (FILE or WORKING-STORAGE SECTION) DADs.  That means setting
      187    19101                            up not only the COBOL DAD addresses but also QI$GZ_FIELD
      188    19102                            stuff.  About the only real oddity is that the compiler
      189    19103                            gens only one argument@P for each COBOL DAD, so if the
      190    19104                            DAD is an array (has an OCCURS clause associated with it),
      191    19105                            the location of each array element has to be devined
      192    19106                            by this routine.  Ish.
      193    19107                            For VERIFYs, the data move is made only if the FIELD DAD
      194    19108                            is AVAILABLE.  Also, if the COBOL DAD contains a LEGAL
      195    19109                            clause (of one sort or another), then the FIELD DAD's
      196    19110                            data is verified against the clause.  If an error is
      197    19111                            detected, QCG$GET_FIELD is called to re-prompt for the
      198    19112                            FIELD DAD.
      199    19113        */
      200    19114
      201    19115    1       THIS_IS_A_VERIFY = %YES;

PL6.E3A0      #001=QBV$VERI_PRES File=QBV$VERI_PRES.:E05TSI                      WED 07/30/97 04:57 Page:52
  19115   1 000015  8947 003F                            LBT,'8000'X       THIS_IS_A_VERIFY,AUTO
  19115   1 000017       8000

      202    19116
      203    19117    1   SO_DO_THE_VERI_PRES_ALREADY:
      204    19118
      205    19119    1       INSTR$ = QI_1.INSTR$;

  19119   1 000018  EC80 0000 0006  xsym SO_DO_THE_VERI_*LDB,B6   QI_1+6
          1 00001B  EFC7 0024                            STB,B6   INSTR$,AUTO

      206    19120    1       VERI_PRES_COUNT = INSTR$ -> QI$OP_VERI_PRES.DAD_PAIR_COUNT;

  19120   1 00001D  E846 0001                            LDR,R6   1,B6
          1 00001F  EF47 0040                            STR,R6   VERI_PRES_COUNT,AUTO

      207    19121    1       QI_1.INSTR$ = PINCRW ( QI_1.INSTR$, ( VERI_PRES_COUNT * 2 ) + 2 );

  19121   1 000021  F856                                 LDR,R7   R6
          1 000022  6C00                                 LDV,R6   0
          1 000023  7081                                 DOL,R7   1
          1 000024  8400 0000 0006  xsym                 AID      QI_1+6
          1 000027  8470 0000 0002                       AID      2,IMO
          1 00002A  8D00 0000 0006  xsym                 SDI      QI_1+6

      208    19122
      209    19123    2       DO VERI_PRES_INDEX = 0 TO VERI_PRES_COUNT - 1;

  19123   1 00002D  8747 0041                            CL       VERI_PRES_INDEX,AUTO
          1 00002F  0F81 041F                            B        s:19848+2,PREL

      210    19124
      211    19125    2         QI_1.SOURCE$ = ADDR ( INSTR$ -> QI$OP_VERI_PRES.DAD_PAIR_A.SOURCE@P (
             19125                  VERI_PRES_INDEX ) );

  19125   1 000031  ECC7 0024                            LDB,B6   INSTR$,AUTO
          1 000033  B847 0041                            LDR,R3   VERI_PRES_INDEX,AUTO
PL6.E3A0      #001=QBV$VERI_PRES File=QBV$VERI_PRES.:E05TSI                      WED 07/30/97 04:57 Page:53
          1 000035  3001                                 SOL,R3   1
          1 000036  3E02                                 ADV,R3   2
          1 000037  DBB6                                 LAB,B5   ,B6,R3
          1 000038  DF80 0000 0018  xsym                 STB,B5   QI_1+24

      212    19126
      213    19127    2         CALL QCS$SETUP_SOURCE;

  19127   1 00003B  CBF0 0000                            LAB,B4   0,IMO
          1 00003D  E380 0000 0000  xent                 LNJ,B6   QCS$SETUP_SOURCE
          1 000040       0001                            DC       s:19128,PREL

      214    19128    2         CALL QCS$SETUP_TARGET;

  19128   1 000041  CBF0 0000                            LAB,B4   0,IMO
          1 000043  E380 0000 0000  xent                 LNJ,B6   QCS$SETUP_TARGET
          1 000046       0001                            DC       s:19130,PREL

      215    19129
      216    19130    2         IF THIS_IS_A_VERIFY

  19130   1 000047  89C7 003F                            CMZ      THIS_IS_A_VERIFY,AUTO
          1 000049  0881 000D                            BAGE     s:19138,PREL

      217    19131    2         THEN
      218    19132    3           DO;

      219    19133    3             COBOL_DAD$ = QI_1.DAD.T$;

  19133   1 00004B  EC80 0000 0034  xsym                 LDB,B6   QI_1+52
          1 00004E  EFC7 0009                            STB,B6   COBOL_DAD$,AUTO

      220    19134    3             FIELD_DAD$ = QI_1.DAD.S$;

  19134   1 000050  DC80 0000 0032  xsym                 LDB,B5   QI_1+50
          1 000053  DFC7 0013                            STB,B5   FIELD_DAD$,AUTO

PL6.E3A0      #001=QBV$VERI_PRES File=QBV$VERI_PRES.:E05TSI                      WED 07/30/97 04:57 Page:54
      221    19135    3           END;

  19135   1 000055  0F81 000B                            B        s:19144,PREL

      222    19136    2         ELSE
      223    19137    3           DO;

      224    19138    3             COBOL_DAD$ = QI_1.DAD.S$;

  19138   1 000057  EC80 0000 0032  xsym                 LDB,B6   QI_1+50
          1 00005A  EFC7 0009                            STB,B6   COBOL_DAD$,AUTO

      225    19139    3             FIELD_DAD$ = QI_1.DAD.T$;

  19139   1 00005C  DC80 0000 0034  xsym                 LDB,B5   QI_1+52
          1 00005F  DFC7 0013                            STB,B5   FIELD_DAD$,AUTO

      226    19140    3           END;

      227    19141
      228    19142              %IF QI#DEBUG;
      229    19143
      230    19144    2         IF COBOL_DAD$ -> QI$COBOL_DAD.WORD0_FLAGS.IS_FORM_VARIABLE

  19144   1 000061  8286                                 LB,'0080'X        ,B6
  19144   1 000062       0080
          1 000063  0581 000A                            BBF      s:19148,PREL

      231    19145    2         THEN
      232    19146    2           CALL QCE$ERROR_INTERNAL ( %E$INTERNAL_COMPILER_ERROR );

  19146   1 000065  BB80 0000 0001  02                   LAB,B3   +1
          1 000068  CBF0 0100                            LAB,B4   256,IMO
          1 00006A  E380 0000 0000  xent                 LNJ,B6   QCE$ERROR_INTERNAL
          1 00006D       0001                            DC       s:19148,PREL

      233    19147
PL6.E3A0      #001=QBV$VERI_PRES File=QBV$VERI_PRES.:E05TSI                      WED 07/30/97 04:57 Page:55
      234    19148    2         IF NOT FIELD_DAD$ -> QI$FIELD_DAD.WORD0_FLAGS.IS_FORM_VARIABLE

  19148   1 00006E  ECC7 0013                            LDB,B6   FIELD_DAD$,AUTO
          1 000070  8286                                 LB,'0080'X        ,B6
          1 000071       0080
          1 000072  0501 000A                            BBT      s:19154,PREL

      235    19149    2         THEN
      236    19150    2           CALL QCE$ERROR_INTERNAL ( %E$INTERNAL_COMPILER_ERROR );

  19150   1 000074  BB80 0000 0001  02                   LAB,B3   +1
          1 000077  CBF0 0100                            LAB,B4   256,IMO
          1 000079  E380 0000 0000  xent                 LNJ,B6   QCE$ERROR_INTERNAL
          1 00007C       0001                            DC       s:19154,PREL

      237    19151
      238    19152              %ENDIF;
      239    19153
      240    19154    2         QI_1.CURRENT.NODE$ = FIELD_DAD$;

  19154   1 00007D  ECC7 0013                            LDB,B6   FIELD_DAD$,AUTO
          1 00007F  EF80 0000 0080  xsym                 STB,B6   QI_1+128

      241    19155
      242    19156    2   RETRY_THE_CURRENT_PAIR:
      243    19157    2         CALL QCF$FIND_CURRENTS;

  19157   1 000082  CBF0 0000            RETRY_THE_CURRE*LAB,B4   0,IMO
          1 000084  E380 0000 0000  xent                 LNJ,B6   QCF$FIND_CURRENTS
          1 000087       0001                            DC       s:19159,PREL

      244    19158
      245    19159    2         IF NOT QI_1.CURRENT.FRAME_STATUS$ -> QI$FRAME_STATUS.INDICATORS.IS_ACTIVE

  19159   1 000088  EC80 0000 007C  xsym                 LDB,B6   QI_1+124
          1 00008B  89C6 000C                            CMZ      12,B6
          1 00008D  0801 0007                            BAL      s:19166,PREL
PL6.E3A0      #001=QBV$VERI_PRES File=QBV$VERI_PRES.:E05TSI                      WED 07/30/97 04:57 Page:56

      246    19160    2         THEN
      247    19161    3           DO;

      248    19162    3             QI_1.ERROR_STATUS = %E$FRAME_NOT_ACTIVE;

  19162   1 00008F  6C07                                 LDV,R6   7
          1 000090  EF00 0000 008C  xsym                 STR,R6   QI_1+140

      249    19163    3             GOTO CHECK_USE_PROCEDURE_OR_INVALID;

  19163   1 000093  0F81 03F0                            B        s:19903,PREL

      250    19164    3           END;
      251    19165
      252    19166    2         IF NOT QI_1.CURRENT.FORM_STATUS$ -> QI$FORM_STATUS.INDICATORS.OPEN_FLAGS.
             19166                  IS_OUTPUT

  19166   1 000095  DC80 0000 0078  xsym                 LDB,B5   QI_1+120
          1 000098  82C5 0008                            LB,'0400'X        8,B5
          1 00009A       0400
          1 00009B  0501 000C                            BBT      s:19175,PREL
          1 00009D  82C5 0008                            LB,'0200'X        8,B5
          1 00009F       0200
          1 0000A0  0501 0007                            BBT      s:19175,PREL

      253    19167    2           AND NOT QI_1.CURRENT.FORM_STATUS$ -> QI$FORM_STATUS.INDICATORS.OPEN_FLAGS.
             19167                    IS_INPUT
      254    19168    2         THEN
      255    19169    3           DO;

      256    19170    3             QI_1.ERROR_STATUS = %E$FILE_NOT_OPEN;

  19170   1 0000A2  6C01                                 LDV,R6   1
          1 0000A3  EF00 0000 008C  xsym                 STR,R6   QI_1+140

      257    19171    3             GOTO CHECK_USE_PROCEDURE_OR_INVALID;
PL6.E3A0      #001=QBV$VERI_PRES File=QBV$VERI_PRES.:E05TSI                      WED 07/30/97 04:57 Page:57

  19171   1 0000A6  0F81 03DD                            B        s:19903,PREL

      258    19172    3           END;
      259    19173
      260    19174        %EJECT;
PL6.E3A0      #001=QBV$VERI_PRES File=QBV$VERI_PRES.:E05TSI                      WED 07/30/97 04:57 Page:58
      261    19175    2         DIMENSION_COUNT = FIELD_DAD$ -> QI$FIELD_DAD.WORD0_FLAGS.DIMENSION_COUNT;

  19175   1 0000A8  CCC7 0013                            LDB,B4   FIELD_DAD$,AUTO
          1 0000AA  E804                                 LDR,R6   ,B4
          1 0000AB  6044                                 SOR,R6   4
          1 0000AC  E570 0003                            AND,R6   3,IMO
          1 0000AE  EF47 000E                            STR,R6   DIMENSION_COUNT,AUTO

      262    19176
      263    19177    2   ESTABLISH_DIMENSION_BOUNDS:
      264    19178    3         DO CASE ( DIMENSION_COUNT );

  19178   1 0000B0  B856                 ESTABLISH_DIMEN*LDR,R3   R6
          1 0000B1  3D03                                 CMV,R3   3
          1 0000B2  0281 0092                            BGE      s:19324,PREL
          1 0000B4  A830 0000 00BA  01                   LDR,R2   ESTABLISH_DIMENSION_BOUNDS+10,R3
          1 0000B7  83A0 0000 00BD  01                   JMP      s:19181,R2
          1 0000BA       0000                            DC       s:19181,PREL
          1 0000BB       0006                            DC       s:19185,PREL
          1 0000BC       000C                            DC       s:19191,PREL

      265    19179
      266    19180    3           CASE ( %QI#ELEMENTARY_ITEM );

      267    19181    3             SUBSCRIPT_BOUND_A (1) = 0;

  19181   1 0000BD  8747 0039                            CL       SUBSCRIPT_BOUND_A+1,AUTO

      268    19182    3             SUBSCRIPT_BOUND_A (0) = 0;

  19182   1 0000BF  8747 0038                            CL       SUBSCRIPT_BOUND_A,AUTO
          1 0000C1  0F81 0083                            B        s:19324,PREL

      269    19183
      270    19184    3           CASE ( %QI#ONE_DIMENSIONAL_ITEM );

      271    19185    3             SUBSCRIPT_BOUND_A (1) = 0;
PL6.E3A0      #001=QBV$VERI_PRES File=QBV$VERI_PRES.:E05TSI                      WED 07/30/97 04:57 Page:59

  19185   1 0000C3  8747 0039                            CL       SUBSCRIPT_BOUND_A+1,AUTO

      272    19186    3             SUBSCRIPT_INDEX = 0;

  19186   1 0000C5  8747 003B                            CL       SUBSCRIPT_INDEX,AUTO

      273    19187
      274    19188    3             GOTO CONTINUE_ESTABLISHMENT;

  19188   1 0000C7  0F81 0004                            B        s:19194,PREL

      275    19189
      276    19190    3           CASE ( %QI#TWO_DIMENSIONAL_ITEM );

      277    19191    3             SUBSCRIPT_INDEX = 1;

  19191   1 0000C9  5C01                                 LDV,R5   1
          1 0000CA  DF47 003B                            STR,R5   SUBSCRIPT_INDEX,AUTO

      278    19192
      279    19193    3   CONTINUE_ESTABLISHMENT:
      280    19194    3             IF THIS_IS_A_VERIFY

  19194   1 0000CC  89C7 003F            CONTINUE_ESTABL*CMZ      THIS_IS_A_VERIFY,AUTO
          1 0000CE  0881 000E                            BAGE     s:19202,PREL

      281    19195    3             THEN
      282    19196    4               DO;

      283    19197    4                 INITIAL_COBOL_OFFSET = QI_1.OP.CIP.T.CD.OFFSET;

  19197   1 0000D0  D800 0000 001C  xsym                 LDR,R5   QI_1+28
          1 0000D3  504F                                 SOR,R5   15
          1 0000D4  DF47 001D                            STR,R5   INITIAL_COBOL_OFFSET,AUTO

      284    19198    4                 INITIAL_COBOL_DATA$ = QI_1.OP.DATA.T$;
PL6.E3A0      #001=QBV$VERI_PRES File=QBV$VERI_PRES.:E05TSI                      WED 07/30/97 04:57 Page:60

  19198   1 0000D6  BC80 0000 0022  xsym                 LDB,B3   QI_1+34
          1 0000D9  BFC7 001B                            STB,B3   INITIAL_COBOL_DATA$,AUTO

      285    19199    4               END;

  19199   1 0000DB  0F81 000C                            B        s:19208,PREL

      286    19200    3             ELSE
      287    19201    4               DO;

      288    19202    4                 INITIAL_COBOL_OFFSET = QI_1.OP.CIP.S.CD.OFFSET;

  19202   1 0000DD  D800 0000 001A  xsym                 LDR,R5   QI_1+26
          1 0000E0  504F                                 SOR,R5   15
          1 0000E1  DF47 001D                            STR,R5   INITIAL_COBOL_OFFSET,AUTO

      289    19203    4                 INITIAL_COBOL_DATA$ = QI_1.OP.DATA.S$;

  19203   1 0000E3  BC80 0000 0020  xsym                 LDB,B3   QI_1+32
          1 0000E6  BFC7 001B                            STB,B3   INITIAL_COBOL_DATA$,AUTO

      290    19204    4               END;

      291    19205
      292    19206                  /*  Increment past any level_multipliers and get to the
      293    19207                      P.whatever flags.  */
      294    19208    3             FIELD_DAD_P$ = ADDR ( FIELD_DAD$ -> QI$FIELD_DAD.VARIABLE_LENGTH_ITEMS.
             19208                      LEVEL_MULTIPLIER_A ( DIMENSION_COUNT ) );

  19208   1 0000E8  3001                                 SOL,R3   1
          1 0000E9  3E0B                                 ADV,R3   11
          1 0000EA  ABB4                                 LAB,B2   ,B4,R3
          1 0000EB  AFC7 0015                            STB,B2   FIELD_DAD_P$,AUTO

      295    19209    3             IF FIELD_DAD_P$ -> QI$FIELD_DAD_P.P.REPEATS

PL6.E3A0      #001=QBV$VERI_PRES File=QBV$VERI_PRES.:E05TSI                      WED 07/30/97 04:57 Page:61
  19209   1 0000ED  8282                                 LB,'0800'X        ,B2
  19209   1 0000EE       0800
          1 0000EF  0581 0024                            BBF      s:19258,PREL

      296    19210    3             THEN
      297    19211    4               DO;

      298    19212                      %PRESENCE_DISPLACEMENT (
      299    19213                      PRESENCE_THING$ = FIELD_DAD_P$,
      300    19214                      INDEX = P_ITEM_INDEX,
      301    19215                      START = %QI#P_FIELD_FIRST_INDEX,
      302    19216                      STOP = %QI#P_REPEATS_INDEX,
      303    19217                      RESULT = REPEATS_INDEX
      304    19218                      );

  19234   1 0000F1  8947 002C                            LBT,'FFFF'X       REPEATS_INDEX,AUTO
  19234   1 0000F3       FFFF

  19235   1 0000F4  8747 002B                            CL       P_ITEM_INDEX,AUTO

  19236   1 0000F6  ECC7 0015                            LDB,B6   FIELD_DAD_P$,AUTO
          1 0000F8  B847 002B                            LDR,R3   P_ITEM_INDEX,AUTO
          1 0000FA  82B6                                 LB       ,B6,R3
          1 0000FB  0581 0003                            BBF      s:19239,PREL

  19238   1 0000FD  8AC7 002C                            INC      REPEATS_INDEX,AUTO

  19239   1 0000FF  8AC7 002B                            INC      P_ITEM_INDEX,AUTO
          1 000101  E847 002B                            LDR,R6   P_ITEM_INDEX,AUTO
          1 000103  6D04                                 CMV,R6   4
          1 000104  03F2                                 BLE      s:19236,SPREL

      305    19250    4                 SUBSCRIPT_BOUND_A ( SUBSCRIPT_INDEX ) =

  19250   1 000105  B847 002C                            LDR,R3   REPEATS_INDEX,AUTO
          1 000107  3E01                                 ADV,R3   1
          1 000108  A847 003B                            LDR,R2   SUBSCRIPT_INDEX,AUTO
PL6.E3A0      #001=QBV$VERI_PRES File=QBV$VERI_PRES.:E05TSI                      WED 07/30/97 04:57 Page:62
          1 00010A  2E38                                 ADV,R2   56
          1 00010B  D836                                 LDR,R5   ,B6,R3
          1 00010C  5EFF                                 ADV,R5   -1
          1 00010D  DF27                                 STR,R5   ,AUTO,R2

      306    19251    4                   FIELD_DAD_P$ -> QI$FIELD_DAD_P.P_ITEM_A ( REPEATS_INDEX ) - 1;
      307    19252    4                 SUBSCRIPT_INDEX = SUBSCRIPT_INDEX - 1;

  19252   1 00010E  88C7 003B                            DEC      SUBSCRIPT_INDEX,AUTO

      308    19253    4                 IF SUBSCRIPT_INDEX < 0

  19253   1 000110  C847 003B                            LDR,R4   SUBSCRIPT_INDEX,AUTO
          1 000112  4801 0032                            BLZ,R4   s:19324,PREL

      309    19254    4                 THEN
      310    19255    4                   EXIT ESTABLISH_DIMENSION_BOUNDS;
      311    19256    4               END;

      312    19257
      313    19258    3             DA_DA$ = FIELD_DAD$;

  19258   1 000114  ECC7 0013                            LDB,B6   FIELD_DAD$,AUTO
          1 000116  EFC7 000C                            STB,B6   DA_DA$,AUTO

      314    19259    3   FIND_PARENTAL_DIMENSIONS:
      315    19260    4             DO %FOREVER;

  19260   1                              FIND_PARENTAL_D*null
      316    19261                    %PROC_ADDRESS ( THING@P = "DA_DA$ -> QI$FIELD_DAD.FATHER@P",
      317    19262                    CHECK_FOR_INDIRECTION = NO,
      318    19263                    RESULT$ = DA_DA$ );

  19281   1 000118  ECC7 000C            FIND_PARENTAL_D*LDB,B6   DA_DA$,AUTO
          1 00011A  B846 0005                            LDR,R3   5,B6
          1 00011C  F853                                 LDR,R7   R3
          1 00011D  6C00                                 LDV,R6   0
PL6.E3A0      #001=QBV$VERI_PRES File=QBV$VERI_PRES.:E05TSI                      WED 07/30/97 04:57 Page:63
          1 00011E  8400 0000 0002  xsym                 AID      QI_1+2
          1 000121  8D47 000C                            SDI      DA_DA$,AUTO

      319    19300
      320    19301                    %IF QI#DEBUG;
      321    19302
      322    19303    4               IF DA_DA$ -> QI$MINOR_NODE.WORD0_FLAGS.TYPE ~= %QI#TYPE_MINOR

  19303   1 000123  ECC7 000C                            LDB,B6   DA_DA$,AUTO
          1 000125  D806                                 LDR,R5   ,B6
          1 000126  D570 000F                            AND,R5   15,IMO
          1 000128  5D08                                 CMV,R5   8
          1 000129  0901 000A                            BE       s:19309,PREL

      323    19304    4               THEN
      324    19305    4                 CALL QCE$ERROR_INTERNAL ( %E$INTERNAL_COMPILER_ERROR );

  19305   1 00012B  BB80 0000 0001  02                   LAB,B3   +1
          1 00012E  CBF0 0100                            LAB,B4   256,IMO
          1 000130  E380 0000 0000  xent                 LNJ,B6   QCE$ERROR_INTERNAL
          1 000133       0001                            DC       s:19309,PREL

      325    19306
      326    19307                    %ENDIF;
      327    19308
      328    19309    4               IF DA_DA$ -> QI$MINOR_NODE.REPEATS > 0

  19309   1 000134  ECC7 000C                            LDB,B6   DA_DA$,AUTO
          1 000136  E846 0001                            LDR,R6   1,B6
          1 000138  6960                                 BEZ,R6   s:19260,SPREL

      329    19310    4               THEN
      330    19311    5                 DO;

      331    19312    5                   SUBSCRIPT_BOUND_A ( SUBSCRIPT_INDEX ) =

  19312   1 000139  B847 003B                            LDR,R3   SUBSCRIPT_INDEX,AUTO
PL6.E3A0      #001=QBV$VERI_PRES File=QBV$VERI_PRES.:E05TSI                      WED 07/30/97 04:57 Page:64
          1 00013B  3E38                                 ADV,R3   56
          1 00013C  6EFF                                 ADV,R6   -1
          1 00013D  EF37                                 STR,R6   ,AUTO,R3

      332    19313    5                     DA_DA$ -> QI$MINOR_NODE.REPEATS - 1;
      333    19314    5                   SUBSCRIPT_INDEX = SUBSCRIPT_INDEX - 1;

  19314   1 00013E  88C7 003B                            DEC      SUBSCRIPT_INDEX,AUTO

      334    19315    5                   IF SUBSCRIPT_INDEX < 0

  19315   1 000140  D847 003B                            LDR,R5   SUBSCRIPT_INDEX,AUTO
          1 000142  5801 0002                            BLZ,R5   s:19324,PREL

      335    19316    5                   THEN
      336    19317    5                     EXIT ESTABLISH_DIMENSION_BOUNDS;
      337    19318    5                 END;

      338    19319
      339    19320    4             END FIND_PARENTAL_DIMENSIONS;

  19320   1 000144  0FD4                                 B        s:19260,SPREL

      340    19321
      341    19322    3         END ESTABLISH_DIMENSION_BOUNDS;

      342    19323        %EJECT;
PL6.E3A0      #001=QBV$VERI_PRES File=QBV$VERI_PRES.:E05TSI                      WED 07/30/97 04:57 Page:65
      343    19324    2         INITIAL_GZ$ = PINCRW (

  19324   1 000145  EC80 0000 0082  xsym                 LDB,B6   QI_1+130
          1 000148  B806                                 LDR,R3   ,B6
          1 000149  DC80 0000 007C  xsym                 LDB,B5   QI_1+124
          1 00014C  CCC5 0006                            LDB,B4   6,B5
          1 00014E  CFC7 0152                            STB,B4   QI@TYPE_DISPLAY_TARGET+24,AUTO
          1 000150  F853                                 LDR,R7   R3
          1 000151  6C00                                 LDV,R6   0
          1 000152  9B80 0000 0003  02                   LAB,B1   +3
          1 000155  D380 0000 0000  xent                 LNJ,B5   X6D_MID
          1 000158  8447 0152                            AID      QI@TYPE_DISPLAY_TARGET+24,AUTO
          1 00015A  8D47 001E                            SDI      INITIAL_GZ$,AUTO

      344    19325    2           QI_1.CURRENT.FRAME_STATUS$ -> QI$FRAME_STATUS.GZ.START$,
      345    19326    2           ( QI_1.CURRENT.NODE_STATUS$ -> QI$FIELD_STATUS.GZ.FIELD_START_INDEX
      346    19327    2           * SIZEW ( QI$GZ_FIELD ) )
      347    19328    2           );
      348    19329    2         GZ_FIELD$ = INITIAL_GZ$;

  19329   1 00015C  ECC7 001E                            LDB,B6   INITIAL_GZ$,AUTO
          1 00015E  EFC7 0019                            STB,B6   GZ_FIELD$,AUTO

      349    19330
      350    19331    2         IF THIS_IS_A_VERIFY

  19331   1 000160  89C7 003F                            CMZ      THIS_IS_A_VERIFY,AUTO
          1 000162  0881 0034                            BAGE     s:19419,PREL
          1 000164  DCC7 0009                            LDB,B5   COBOL_DAD$,AUTO
          1 000166  8285                                 LB,'2000'X        ,B5
          1 000167       2000
          1 000168  0581 002E                            BBF      s:19419,PREL

      351    19332    2           AND COBOL_DAD$ -> QI$COBOL_DAD.WORD0_FLAGS.P.VALID
      352    19333    2         THEN
      353    19334    3           DO;

PL6.E3A0      #001=QBV$VERI_PRES File=QBV$VERI_PRES.:E05TSI                      WED 07/30/97 04:57 Page:66
      354    19335    3             INITIAL_RETRY_COUNT = QI_1.CURRENT.FORM$ -> QI$FORM_FILE.RETRY_COUNT;

  19335   1 00016A  CC80 0000 0076  xsym                 LDB,B4   QI_1+118
          1 00016D  D844 0005                            LDR,R5   5,B4
          1 00016F  DF47 0023                            STR,R5   INITIAL_RETRY_COUNT,AUTO

      355    19336
      356    19337                  %PRESENCE_DISPLACEMENT (
      357    19338                  PRESENCE_THING$ =
      358    19339                  "ADDR ( COBOL_DAD$ -> QI$COBOL_DAD.P_A )",
      359    19340                  INDEX = P_ITEM_INDEX,
      360    19341                  START = %QI#P_COBOL_FIRST_INDEX,
      361    19342                  STOP = %QI#P_LEGAL_INDEX,
      362    19343                  RESULT = LEGAL_INDEX
      363    19344                  );

  19360   1 000171  8947 0028                            LBT,'FFFF'X       LEGAL_INDEX,AUTO
  19360   1 000173       FFFF

  19361   1 000174  4C01                                 LDV,R4   1
          1 000175  CF47 002B                            STR,R4   P_ITEM_INDEX,AUTO

  19362   1 000177  ECC7 0009                            LDB,B6   COBOL_DAD$,AUTO
          1 000179  B847 002B                            LDR,R3   P_ITEM_INDEX,AUTO
          1 00017B  82B6                                 LB       ,B6,R3
          1 00017C  0581 0003                            BBF      s:19365,PREL

  19364   1 00017E  8AC7 0028                            INC      LEGAL_INDEX,AUTO

  19365   1 000180  8AC7 002B                            INC      P_ITEM_INDEX,AUTO
          1 000182  E847 002B                            LDR,R6   P_ITEM_INDEX,AUTO
          1 000184  6D02                                 CMV,R6   2
          1 000185  03F2                                 BLE      s:19362,SPREL

      364    19376
      365    19377                  %PROC_ADDRESS ( THING@P =
      366    19378         "COBOL_DAD$ -> QI$COBOL_DAD.VARIABLE_LENGTH_ITEMS.P_ITEM_A ( ( DIMENSION_COUNT * 2
PL6.E3A0      #001=QBV$VERI_PRES File=QBV$VERI_PRES.:E05TSI                      WED 07/30/97 04:57 Page:67
             19378        ) + LEGAL_INDEX )",
      367    19379                  CHECK_FOR_INDIRECTION = NO,
      368    19380                  RESULT$ = CLB$ );

  19398   1 000186  D847 000E                            LDR,R5   DIMENSION_COUNT,AUTO
          1 000188  5001                                 SOL,R5   1
          1 000189  DA47 0028                            ADD,R5   LEGAL_INDEX,AUTO
          1 00018B  B855                                 LDR,R3   R5
          1 00018C  3E03                                 ADV,R3   3
          1 00018D  A836                                 LDR,R2   ,B6,R3
          1 00018E  F852                                 LDR,R7   R2
          1 00018F  6C00                                 LDV,R6   0
          1 000190  8400 0000 0002  xsym                 AID      QI_1+2
          1 000193  8D47 0006                            SDI      CLB$,AUTO

      369    19417    3           END;

  19417   1 000195  0F81 0006                            B        s:19422,PREL

      370    19418    2         ELSE
      371    19419    2           CLB$ = ADDR (NIL);

  19419   1 000197  DB80 0000 0000                       LAB,B5   0
          1 00019A  DFC7 0006                            STB,B5   CLB$,AUTO

      372    19420        %EJECT;
PL6.E3A0      #001=QBV$VERI_PRES File=QBV$VERI_PRES.:E05TSI                      WED 07/30/97 04:57 Page:68
      373    19421    2   GREATER_SUBSCRIPT_DO:
      374    19422    3         DO SUBSCRIPT_DO_INDICES.FIRST = 0 TO SUBSCRIPT_BOUND_A (0);

  19422   1 00019C  8747 003C            GREATER_SUBSCRI*CL       SUBSCRIPT_DO_INDICES,AUTO
          1 00019E  0F81 02A8                            B        s:19844+2,PREL

      375    19423
      376    19424    3   LESSER_SUBSCRIPT_DO:
      377    19425    4           DO SUBSCRIPT_DO_INDICES.SECOND = 0 TO SUBSCRIPT_BOUND_A (1);

  19425   1 0001A0  8747 003D            LESSER_SUBSCRIP*CL       SUBSCRIPT_DO_INDICES+1,AUTO
          1 0001A2  0F81 029C                            B        s:19842+2,PREL

      378    19426
      379    19427    4   RETRY_RETRY_COUNT:
      380    19428    4             CURRENT_RETRY_COUNT = INITIAL_RETRY_COUNT;

  19428   1 0001A4  E847 0023            RETRY_RETRY_COU*LDR,R6   INITIAL_RETRY_COUNT,AUTO
          1 0001A6  EF47 000B                            STR,R6   CURRENT_RETRY_COUNT,AUTO

      381    19429
      382    19430    4   RETRY_FIELD_VERI_PRES:
      383    19431    4             IF THIS_IS_A_VERIFY

  19431   1 0001A8  89C7 003F            RETRY_FIELD_VER*CMZ      THIS_IS_A_VERIFY,AUTO
          1 0001AA  0881 0008                            BAGE     s:19436,PREL
          1 0001AC  ECC7 0019                            LDB,B6   GZ_FIELD$,AUTO
          1 0001AE  DC86                                 LDB,B5   ,B6
          1 0001AF  8285                                 LB,'1000'X        ,B5
          1 0001B0       1000
          1 0001B1  0581 0285                            BBF      s:19840,PREL

      384    19432    4               AND NOT GZ_FIELD$ -> QI$GZ_FIELD.INDICATORS$ -> QI$INDICATORS.
             19432                        STATE_FLAGS.IS_AVAILABLE
      385    19433    4             THEN
      386    19434    4               GOTO NEXT_SCALAR_PLEASE;
      387    19435
PL6.E3A0      #001=QBV$VERI_PRES File=QBV$VERI_PRES.:E05TSI                      WED 07/30/97 04:57 Page:69
      388    19436    4             IF DIMENSION_COUNT > 0

  19436   1 0001B3  E847 000E                            LDR,R6   DIMENSION_COUNT,AUTO
          1 0001B5  6901 0086                            BEZ,R6   s:19486,PREL

      389    19437    4             THEN
      390    19438    4   ARRAY_OFFSET_FINDING_STUFF:
      391    19439    5               DO;

  19439   1                              ARRAY_OFFSET_FI*null
      392    19440    5                 ARRAY_OFFSET = 0;

  19440   1 0001B7  8747 0004            ARRAY_OFFSET_FI*CL       ARRAY_OFFSET,AUTO

      393    19441
      394    19442    6                 DO LEVEL_MULTIPLIER_INDEX = 0 TO DIMENSION_COUNT - 1;

  19442   1 0001B9  8747 002A                            CL       LEVEL_MULTIPLIER_INDEX,AUTO
          1 0001BB  0F81 0013                            B        s:19446+2,PREL

      395    19443    6                   ARRAY_OFFSET = ARRAY_OFFSET

  19443   1 0001BD  ECC7 0009                            LDB,B6   COBOL_DAD$,AUTO
          1 0001BF  B847 002A                            LDR,R3   LEVEL_MULTIPLIER_INDEX,AUTO
          1 0001C1  3001                                 SOL,R3   1
          1 0001C2  3E04                                 ADV,R3   4
          1 0001C3  A847 002A                            LDR,R2   LEVEL_MULTIPLIER_INDEX,AUTO
          1 0001C5  2E3C                                 ADV,R2   60
          1 0001C6  F836                                 LDR,R7   ,B6,R3
          1 0001C7  FB27                                 MUL,R7   ,AUTO,R2
          1 0001C8  E857                                 LDR,R6   R7
          1 0001C9  EA47 0004                            ADD,R6   ARRAY_OFFSET,AUTO
          1 0001CB  EF47 0004                            STR,R6   ARRAY_OFFSET,AUTO

      396    19444    6                     + ( COBOL_DAD$ -> QI$COBOL_DAD.VARIABLE_LENGTH_ITEMS.
             19444                              LEVEL_MULTIPLIER_A.ELEMENT_LENGTH ( LEVEL_MULTIPLIER_INDEX )
      397    19445    6                     * SUBSCRIPT_DO_INDEX_A ( LEVEL_MULTIPLIER_INDEX ) );
PL6.E3A0      #001=QBV$VERI_PRES File=QBV$VERI_PRES.:E05TSI                      WED 07/30/97 04:57 Page:70
      398    19446    6                 END;

  19446   1 0001CD  8AC7 002A                            INC      LEVEL_MULTIPLIER_INDEX,AUTO
          1 0001CF  E847 002A                            LDR,R6   LEVEL_MULTIPLIER_INDEX,AUTO
          1 0001D1  E947 000E                            CMR,R6   DIMENSION_COUNT,AUTO
          1 0001D3  026A                                 BL       s:19443,SPREL

      399    19447
      400    19448    5                 IF THIS_IS_A_VERIFY

  19448   1 0001D4  89C7 003F                            CMZ      THIS_IS_A_VERIFY,AUTO
          1 0001D6  0881 0034                            BAGE     s:19471,PREL

      401    19449    5                 THEN
      402    19450    6                   DO;

      403    19451
      404    19452    6                     QI_1.OP.CIP.S.CD.OFFSET = GZ_FIELD$ -> QI$GZ_FIELD.STATUS.OFFSET;

  19452   1 0001D8  ECC7 0019                            LDB,B6   GZ_FIELD$,AUTO
          1 0001DA  D846 0006                            LDR,R5   6,B6
          1 0001DC  DA80 0000 001A  xsym                 SRM,R5,'8000'X    QI_1+26
          1 0001DF       8000

      405    19453    6                     QI_1.OFFSET.S = GZ_FIELD$ -> QI$GZ_FIELD.STATUS.OFFSET;

  19453   1 0001E0  D846 0006                            LDR,R5   6,B6
          1 0001E2  504F                                 SOR,R5   15
          1 0001E3  DF00 0000 0041  xsym                 STR,R5   QI_1+65

      406    19454    6                     QI_1.OP.DATA.S$ = GZ_FIELD$ -> QI$GZ_FIELD.STATUS.DATA$;

  19454   1 0001E6  DCC6 0009                            LDB,B5   9,B6
          1 0001E8  DF80 0000 0020  xsym                 STB,B5   QI_1+32

      407    19455
      408    19456    6                     COBOL_ARRAY_OFFSET = ARRAY_OFFSET + INITIAL_COBOL_OFFSET;
PL6.E3A0      #001=QBV$VERI_PRES File=QBV$VERI_PRES.:E05TSI                      WED 07/30/97 04:57 Page:71

  19456   1 0001EB  C847 0004                            LDR,R4   ARRAY_OFFSET,AUTO
          1 0001ED  CA47 001D                            ADD,R4   INITIAL_COBOL_OFFSET,AUTO
          1 0001EF  CF47 0008                            STR,R4   COBOL_ARRAY_OFFSET,AUTO

      409    19457
      410    19458                          /* We're using ...CD.OFFSET here because these array
      411    19459                             deals (even PACKED ones) will be forced to
      412    19460                             (at least) byte boundaries, and filling in, say,
      413    19461                             a ...CD.OFFSET of 1 is the same as filling in
      414    19462                             a ...CP.OFFSET of 2.  */
      415    19463    6                     QI_1.OP.CIP.T.CD.OFFSET = MOD ( COBOL_ARRAY_OFFSET, 2 );

  19463   1 0001F1  C570 0001                            AND,R4   1,IMO
          1 0001F3  400F                                 SOL,R4   15
          1 0001F4  CA80 0000 001C  xsym                 SRM,R4,'8000'X    QI_1+28
          1 0001F7       8000

      416    19464    6                     QI_1.OFFSET.T = QI_1.OP.CIP.T.CD.OFFSET;

  19464   1 0001F8  C800 0000 001C  xsym                 LDR,R4   QI_1+28
          1 0001FB  404F                                 SOR,R4   15
          1 0001FC  CF00 0000 0042  xsym                 STR,R4   QI_1+66

      417    19465    6                     QI_1.OP.DATA.T$ = PINCRW ( INITIAL_COBOL_DATA$,

  19465   1 0001FF  B847 0008                            LDR,R3   COBOL_ARRAY_OFFSET,AUTO
          1 000201  3041                                 SOR,R3   1
          1 000202  F853                                 LDR,R7   R3
          1 000203  6C00                                 LDV,R6   0
          1 000204  8447 001B                            AID      INITIAL_COBOL_DATA$,AUTO
          1 000206  8D00 0000 0022  xsym                 SDI      QI_1+34

      418    19466    6                       COBOL_ARRAY_OFFSET / 2 );
      419    19467
      420    19468    6                   END;

PL6.E3A0      #001=QBV$VERI_PRES File=QBV$VERI_PRES.:E05TSI                      WED 07/30/97 04:57 Page:72
  19468   1 000209  0F81 0032                            B        s:19486,PREL

      421    19469    5                 ELSE
      422    19470    6                   DO;

      423    19471    6                     COBOL_ARRAY_OFFSET = ARRAY_OFFSET + INITIAL_COBOL_OFFSET;

  19471   1 00020B  D847 0004                            LDR,R5   ARRAY_OFFSET,AUTO
          1 00020D  DA47 001D                            ADD,R5   INITIAL_COBOL_OFFSET,AUTO
          1 00020F  DF47 0008                            STR,R5   COBOL_ARRAY_OFFSET,AUTO

      424    19472
      425    19473    6                     QI_1.OP.CIP.S.CD.OFFSET = MOD ( COBOL_ARRAY_OFFSET, 2 );

  19473   1 000211  D570 0001                            AND,R5   1,IMO
          1 000213  500F                                 SOL,R5   15
          1 000214  DA80 0000 001A  xsym                 SRM,R5,'8000'X    QI_1+26
          1 000217       8000

      426    19474    6                     QI_1.OFFSET.S = QI_1.OP.CIP.S.CD.OFFSET;

  19474   1 000218  D800 0000 001A  xsym                 LDR,R5   QI_1+26
          1 00021B  504F                                 SOR,R5   15
          1 00021C  DF00 0000 0041  xsym                 STR,R5   QI_1+65

      427    19475    6                     QI_1.OP.DATA.S$ = PINCRW ( INITIAL_COBOL_DATA$,

  19475   1 00021F  C847 0008                            LDR,R4   COBOL_ARRAY_OFFSET,AUTO
          1 000221  4041                                 SOR,R4   1
          1 000222  F854                                 LDR,R7   R4
          1 000223  6C00                                 LDV,R6   0
          1 000224  8447 001B                            AID      INITIAL_COBOL_DATA$,AUTO
          1 000226  8D00 0000 0020  xsym                 SDI      QI_1+32

      428    19476    6                       COBOL_ARRAY_OFFSET / 2 );
      429    19477
      430    19478    6                     QI_1.OP.CIP.T.CD.OFFSET = GZ_FIELD$ -> QI$GZ_FIELD.STATUS.OFFSET;
PL6.E3A0      #001=QBV$VERI_PRES File=QBV$VERI_PRES.:E05TSI                      WED 07/30/97 04:57 Page:73

  19478   1 000229  ECC7 0019                            LDB,B6   GZ_FIELD$,AUTO
          1 00022B  C846 0006                            LDR,R4   6,B6
          1 00022D  CA80 0000 001C  xsym                 SRM,R4,'8000'X    QI_1+28
          1 000230       8000

      431    19479    6                     QI_1.OFFSET.T = GZ_FIELD$ -> QI$GZ_FIELD.STATUS.OFFSET;

  19479   1 000231  C846 0006                            LDR,R4   6,B6
          1 000233  404F                                 SOR,R4   15
          1 000234  CF00 0000 0042  xsym                 STR,R4   QI_1+66

      432    19480    6                     QI_1.OP.DATA.T$ = GZ_FIELD$ -> QI$GZ_FIELD.STATUS.DATA$;

  19480   1 000237  DCC6 0009                            LDB,B5   9,B6
          1 000239  DF80 0000 0022  xsym                 STB,B5   QI_1+34

      433    19481
      434    19482    6                   END;

      435    19483
      436    19484    5               END ARRAY_OFFSET_FINDING_STUFF;

      437    19485        %EJECT;
PL6.E3A0      #001=QBV$VERI_PRES File=QBV$VERI_PRES.:E05TSI                      WED 07/30/97 04:57 Page:74
      438    19486    4             IF CLB$ ~= ADDR (NIL)

  19486   1 00023C  8DC7 0006                            CMN      CLB$,AUTO
          1 00023E  0901 01DA                            BE       s:19830,PREL

      439    19487    4             THEN
      440    19488    4   LEGAL_CHECKING:
      441    19489    5               DO;

  19489   1                              LEGAL_CHECKING  null
      442    19490                      /*N* At some point this should probably be broken down
      443    19491                           into just the things that really need saving
      444    19492                           (.CIP, .LEN, .OFFSET, .TYPE, etc.).  */
      445    19493    5                 QI@1 = QI_1;

  19493   1 000240  AB80 0000 0000  xsym LEGAL_CHECKING  LAB,B2   QI_1
          1 000243  2C00                                 LDV,R2   0
          1 000244  E870 0142                            LDR,R6   322,IMO
          1 000246  BBC7 0042                            LAB,B3   QI@1,AUTO
          1 000248  3C00                                 LDV,R3   0
          1 000249  0008                                 MMM

      446    19494
      447    19495    5                 QI_1.OP.DATA.T$ = QI_1.VERIFY_BUFFER$;

  19495   1 00024A  EC80 0000 0012  xsym                 LDB,B6   QI_1+18
          1 00024D  EF80 0000 0022  xsym                 STB,B6   QI_1+34

      448    19496
      449    19497    5                 RESTORE_FLAG = %NO;

  19497   1 000250  8747 002D                            CL       RESTORE_FLAG,AUTO

      450    19498    5                 CALL MOVE_IT ( RESTORE_FLAG );

  19498   1 000252  DBC7 002D                            LAB,B5   RESTORE_FLAG,AUTO
          1 000254  DFC7 0136                            STB,B5   QCU@USE+16,AUTO
PL6.E3A0      #001=QBV$VERI_PRES File=QBV$VERI_PRES.:E05TSI                      WED 07/30/97 04:57 Page:75
          1 000256  E3C0 03BD                            LNJ,B6   s:0,PREL
          1 000258       0001                            DC       s:19505,PREL

      451    19499
      452    19500                      /*  This is kind of ugly:
      453    19501                          here's the only place where a MOVE operation
      454    19502                          is expected to leave the target's vital signs
      455    19503                          alone.  Unfortunately, some of the MOVE code
      456    19504                          (noteably, QBM$MOVAE(_VP)) doesn't.  */
      457    19505    5                 QI_1.OP.LEN.T = QI@1.OP.LEN.T;

  19505   1 000259  E847 0069                            LDR,R6   QI@1+39,AUTO
          1 00025B  EF00 0000 0027  xsym                 STR,R6   QI_1+39

      458    19506    5                 QI_1.OP.INX.T = QI@1.OP.INX.T;

  19506   1 00025E  D847 006C                            LDR,R5   QI@1+42,AUTO
          1 000260  DF00 0000 002A  xsym                 STR,R5   QI_1+42

      459    19507
      460    19508    6                 DO CASE ( CLB$ -> QI$CONDITION_LEGAL_BLOCK.TYPE );

  19508   1 000263  ECC7 0006                            LDB,B6   CLB$,AUTO
          1 000265  B806                                 LDR,R3   ,B6
          1 000266  304E                                 SOR,R3   14
          1 000267  3D03                                 CMV,R3   3
          1 000268  0281 00A9                            BGE      s:19565,PREL
          1 00026A  A830 0000 0270  01                   LDR,R2   s:19508+13,R3
          1 00026D  83A0 0000 0273  01                   JMP      s:19511,R2
          1 000270       0024                            DC       s:19526,PREL
          1 000271       0048                            DC       s:19539,PREL
          1 000272       0000                            DC       s:19511,PREL

      461    19509
      462    19510    6                   CASE ( %QI#LEGAL_RANGE );

      463    19511    6                    QI_1.SOURCE$ = ADDR ( CLB$ -> QI$CONDITION_LEGAL_BLOCK.RANGE_A@P (
PL6.E3A0      #001=QBV$VERI_PRES File=QBV$VERI_PRES.:E05TSI                      WED 07/30/97 04:57 Page:76
             19511                              0) );

  19511   1 000273  DBC6 0001                            LAB,B5   1,B6
          1 000275  DF80 0000 0018  xsym                 STB,B5   QI_1+24

      464    19512    6                     CALL QCS$SETUP_SOURCE;

  19512   1 000278  CBF0 0000                            LAB,B4   0,IMO
          1 00027A  E380 0000 0000  xent                 LNJ,B6   QCS$SETUP_SOURCE
          1 00027D       0001                            DC       s:19513,PREL

      465    19513    6                     CALL IF_IT;

  19513   1 00027E  E3C0 023B                            LNJ,B6   s:0,PREL
          1 000280       0001                            DC       s:19514,PREL

      466    19514    6                     IF QI_1.OP.COMP_RESULT = %QI#IF_GREATER

  19514   1 000281  E800 0000 0031  xsym                 LDR,R6   QI_1+49
          1 000284  6901 008D                            BEZ,R6   s:19565,PREL

      467    19515    6                     THEN
      468    19516    6                       GOTO LEGAL_CHECK_FAILED;
      469    19517
      470    19518    6                     CALL QCS$SETUP_SOURCE;

  19518   1 000286  CBF0 0000                            LAB,B4   0,IMO
          1 000288  E380 0000 0000  xent                 LNJ,B6   QCS$SETUP_SOURCE
          1 00028B       0001                            DC       s:19519,PREL

      471    19519    6                     CALL IF_IT;

  19519   1 00028C  E3C0 022D                            LNJ,B6   s:0,PREL
          1 00028E       0001                            DC       s:19520,PREL

      472    19520    6                     IF QI_1.OP.COMP_RESULT = %QI#IF_LESS

PL6.E3A0      #001=QBV$VERI_PRES File=QBV$VERI_PRES.:E05TSI                      WED 07/30/97 04:57 Page:77
  19520   1 00028F  E800 0000 0031  xsym                 LDR,R6   QI_1+49
          1 000292  6D01                                 CMV,R6   1
          1 000293  0901 007E                            BE       s:19565,PREL

      473    19521    6                     THEN
      474    19522    6                       GOTO LEGAL_CHECK_FAILED;
      475    19523    6                     GOTO LEGAL_CHECK_PASSED;

  19523   1 000295  0F81 0179                            B        s:19825,PREL

      476    19524
      477    19525    6                   CASE ( %QI#LEGAL_LIST );

      478    19526    6                    QI_1.SOURCE$ = ADDR ( CLB$ -> QI$CONDITION_LEGAL_BLOCK.LIST_A@P (0
             19526                              ) );

  19526   1 000297  DBC6 0001                            LAB,B5   1,B6
          1 000299  DF80 0000 0018  xsym                 STB,B5   QI_1+24

      479    19527    7                     DO LEGAL_LIST_INDEX = 0 TO CLB$ -> QI$CONDITION_LEGAL_BLOCK.
             19527                              LIST_LENGTH - 1;

  19527   1 00029C  8747 0029                            CL       LEGAL_LIST_INDEX,AUTO
          1 00029E  0F81 0012                            B        s:19535+2,PREL

      480    19528
      481    19529    7                       CALL QCS$SETUP_SOURCE;

  19529   1 0002A0  CBF0 0000                            LAB,B4   0,IMO
          1 0002A2  E380 0000 0000  xent                 LNJ,B6   QCS$SETUP_SOURCE
          1 0002A5       0001                            DC       s:19530,PREL

      482    19530    7                       CALL IF_IT;

  19530   1 0002A6  E3C0 0213                            LNJ,B6   s:0,PREL
          1 0002A8       0001                            DC       s:19531,PREL

PL6.E3A0      #001=QBV$VERI_PRES File=QBV$VERI_PRES.:E05TSI                      WED 07/30/97 04:57 Page:78
      483    19531    7                       IF QI_1.OP.COMP_RESULT = %QI#IF_EQUAL

  19531   1 0002A9  E800 0000 0031  xsym                 LDR,R6   QI_1+49
          1 0002AC  6D02                                 CMV,R6   2
          1 0002AD  0901 0161                            BE       s:19825,PREL

      484    19532    7                       THEN
      485    19533    7                         GOTO LEGAL_CHECK_PASSED;
      486    19534
      487    19535    7                     END;

  19535   1 0002AF  8AC7 0029                            INC      LEGAL_LIST_INDEX,AUTO
          1 0002B1  ECC7 0006                            LDB,B6   CLB$,AUTO
          1 0002B3  E806                                 LDR,R6   ,B6
          1 0002B4  E570 3FFF                            AND,R6   16383,IMO
          1 0002B6  E947 0029                            CMR,R6   LEGAL_LIST_INDEX,AUTO
          1 0002B8  0368                                 BG       s:19529,SPREL

      488    19536    6                     GOTO LEGAL_CHECK_FAILED;

  19536   1 0002B9  0F81 0058                            B        s:19565,PREL

      489    19537
      490    19538    6                   CASE ( %QI#LEGAL_ARRAY );

      491    19539    6                     QI_1.SOURCE$ = ADDR ( CLB$ -> QI$CONDITION_LEGAL_BLOCK.ARRAY@P );

  19539   1 0002BB  DBC6 0001                            LAB,B5   1,B6
          1 0002BD  DF80 0000 0018  xsym                 STB,B5   QI_1+24

      492    19540    6                     CALL QCS$SETUP_SOURCE;

  19540   1 0002C0  CBF0 0000                            LAB,B4   0,IMO
          1 0002C2  E380 0000 0000  xent                 LNJ,B6   QCS$SETUP_SOURCE
          1 0002C5       0001                            DC       s:19542,PREL

      493    19541
PL6.E3A0      #001=QBV$VERI_PRES File=QBV$VERI_PRES.:E05TSI                      WED 07/30/97 04:57 Page:79
      494    19542    6                     INITIAL_LEGAL_ARRAY_DATA$ = QI_1.OP.DATA.S$;

  19542   1 0002C6  EC80 0000 0020  xsym                 LDB,B6   QI_1+32
          1 0002C9  EFC7 0020                            STB,B6   INITIAL_LEGAL_ARRAY_DATA$,AUTO

      495    19543    6                     INITIAL_LEGAL_ARRAY_OFFSET = QI_1.OP.CIP.S.CD.OFFSET;

  19543   1 0002CB  E800 0000 001A  xsym                 LDR,R6   QI_1+26
          1 0002CE  604F                                 SOR,R6   15
          1 0002CF  EF47 0022                            STR,R6   INITIAL_LEGAL_ARRAY_OFFSET,AUTO

      496    19544    6                     LEGAL_ARRAY_ELEMENT_SIZE =

  19544   1 0002D1  DC80 0000 0032  xsym                 LDB,B5   QI_1+50
          1 0002D4  D845 0004                            LDR,R5   4,B5
          1 0002D6  DF47 0026                            STR,R5   LEGAL_ARRAY_ELEMENT_SIZE,AUTO

      497    19545    6                       QI_1.DAD.S$ -> QI$COBOL_DAD.VARIABLE_LENGTH_ITEMS.
             19545                                LEVEL_MULTIPLIERS.ONE_DIMENSIONAL.ELEMENT_LENGTH;
      498    19546
      499    19547    7                     DO LEGAL_LIST_INDEX = 0 TO CLB$ -> QI$CONDITION_LEGAL_BLOCK.
             19547                              LIST_LENGTH - 1;

  19547   1 0002D8  8747 0029                            CL       LEGAL_LIST_INDEX,AUTO
          1 0002DA  0F81 002D                            B        s:19562+2,PREL

      500    19548
      501    19549    7                       LEGAL_ARRAY_OFFSET = ( LEGAL_LIST_INDEX *
             19549                                LEGAL_ARRAY_ELEMENT_SIZE )

  19549   1 0002DC  F847 0029                            LDR,R7   LEGAL_LIST_INDEX,AUTO
          1 0002DE  FB47 0026                            MUL,R7   LEGAL_ARRAY_ELEMENT_SIZE,AUTO
          1 0002E0  E857                                 LDR,R6   R7
          1 0002E1  EA47 0022                            ADD,R6   INITIAL_LEGAL_ARRAY_OFFSET,AUTO
          1 0002E3  EF47 0027                            STR,R6   LEGAL_ARRAY_OFFSET,AUTO

      502    19550    7                         + INITIAL_LEGAL_ARRAY_OFFSET;
PL6.E3A0      #001=QBV$VERI_PRES File=QBV$VERI_PRES.:E05TSI                      WED 07/30/97 04:57 Page:80
      503    19551
      504    19552    7                       QI_1.OP.CIP.S.CD.OFFSET = MOD ( LEGAL_ARRAY_OFFSET, 2 );

  19552   1 0002E5  E570 0001                            AND,R6   1,IMO
          1 0002E7  600F                                 SOL,R6   15
          1 0002E8  EA80 0000 001A  xsym                 SRM,R6,'8000'X    QI_1+26
          1 0002EB       8000

      505    19553    7                       QI_1.OFFSET.S = QI_1.OP.CIP.S.CD.OFFSET;

  19553   1 0002EC  E800 0000 001A  xsym                 LDR,R6   QI_1+26
          1 0002EF  604F                                 SOR,R6   15
          1 0002F0  EF00 0000 0041  xsym                 STR,R6   QI_1+65

      506    19554    7                       QI_1.OP.DATA.S$ = PINCRW ( INITIAL_LEGAL_ARRAY_DATA$,

  19554   1 0002F3  D847 0027                            LDR,R5   LEGAL_ARRAY_OFFSET,AUTO
          1 0002F5  5041                                 SOR,R5   1
          1 0002F6  F855                                 LDR,R7   R5
          1 0002F7  6C00                                 LDV,R6   0
          1 0002F8  8447 0020                            AID      INITIAL_LEGAL_ARRAY_DATA$,AUTO
          1 0002FA  8D00 0000 0020  xsym                 SDI      QI_1+32

      507    19555    7                         LEGAL_ARRAY_OFFSET / 2 );
      508    19556
      509    19557    7                       CALL IF_IT;

  19557   1 0002FD  E3C0 01BC                            LNJ,B6   s:0,PREL
          1 0002FF       0001                            DC       s:19558,PREL

      510    19558    7                       IF QI_1.OP.COMP_RESULT = %QI#IF_EQUAL

  19558   1 000300  E800 0000 0031  xsym                 LDR,R6   QI_1+49
          1 000303  6D02                                 CMV,R6   2
          1 000304  0901 010A                            BE       s:19825,PREL

      511    19559    7                       THEN
PL6.E3A0      #001=QBV$VERI_PRES File=QBV$VERI_PRES.:E05TSI                      WED 07/30/97 04:57 Page:81
      512    19560    7                         GOTO LEGAL_CHECK_PASSED;
      513    19561
      514    19562    7                     END;

  19562   1 000306  8AC7 0029                            INC      LEGAL_LIST_INDEX,AUTO
          1 000308  ECC7 0006                            LDB,B6   CLB$,AUTO
          1 00030A  E806                                 LDR,R6   ,B6
          1 00030B  E570 3FFF                            AND,R6   16383,IMO
          1 00030D  E947 0029                            CMR,R6   LEGAL_LIST_INDEX,AUTO
          1 00030F  034D                                 BG       s:19549,SPREL

      515    19563    6                     GOTO LEGAL_CHECK_FAILED;

  19563   1 000310  0F81 0001                            B        s:19565,PREL

      516    19564
      517    19565    6                 END;          /* do case ( legal_condition_block.type )  */

      518    19566
      519    19567    5   LEGAL_CHECK_FAILED:
      520    19568        %IF QI#RETRY_COUNT_IMPLEMENTED;
      551    19599        %ENDIF;
      552    19600
      553    19601    5                 IF GZ_FIELD$ -> QI$GZ_FIELD.STATUS.IS_VALUE_DEFAULT

  19601   1 000312  ECC7 0019            LEGAL_CHECK_FAI*LDB,B6   GZ_FIELD$,AUTO
          1 000314  82C6 0006                            LB,'2000'X        6,B6
          1 000316       2000
          1 000317  0581 001C                            BBF      s:19649,PREL

      554    19602    5                 THEN
      555    19603    6                   DO;

      556    19604                          %PROC_ADDRESS ( THING@P =
             19604             "GZ_FIELD$ -> QI$GZ_FIELD.DESCRIPTION.FIELD_DAD$ -> QI$FIELD_DAD.IDENTIFIER@P"
             19604                              ,
      557    19605                          CHECK_FOR_INDIRECTION = NO,
PL6.E3A0      #001=QBV$VERI_PRES File=QBV$VERI_PRES.:E05TSI                      WED 07/30/97 04:57 Page:82
      558    19606                          RESULT$ = FIELD_IDENTIFIER$ );

  19624   1 000319  DCC6 0004                            LDB,B5   4,B6
          1 00031B  B845 0007                            LDR,R3   7,B5
          1 00031D  F853                                 LDR,R7   R3
          1 00031E  6C00                                 LDV,R6   0
          1 00031F  8400 0000 0002  xsym                 AID      QI_1+2
          1 000322  8D47 0017                            SDI      FIELD_IDENTIFIER$,AUTO

      559    19643
      560    19644                          /*  Can't re-prompt for a DEFAULT VALUE!  */
      561    19645    6                     CALL QCE$ERROR ( %E$VERIFY_ILLEGAL_DEFAULT,

  19645   1 000324  CBF0 000B                            LAB,B4   11,IMO
          1 000326  BCC7 0017                            LDB,B3   FIELD_IDENTIFIER$,AUTO
          1 000328  BFC7 0154                            STB,B3   QI@TYPE_DISPLAY_TARGET+26,AUTO
          1 00032A  CFC7 0152                            STB,B4   QI@TYPE_DISPLAY_TARGET+24,AUTO
          1 00032C  BBC7 0152                            LAB,B3   QI@TYPE_DISPLAY_TARGET+24,AUTO
          1 00032E  CBF0 0200                            LAB,B4   512,IMO
          1 000330  E380 0000 0000  xent                 LNJ,B6   QCE$ERROR
          1 000333       0001                            DC       s:19649,PREL

      562    19646    6                       FIELD_IDENTIFIER$ -> QI$VARIABLE_IDENTIFIER );
      563    19647    6                   END;

      564    19648
      565    19649    5                 IF NOT GZ_FIELD$ -> QI$GZ_FIELD.INDICATORS$ -> QI$INDICATORS.
             19649                          ENABLED_FLAGS.IS_INPUT

  19649   1 000334  ECC7 0019                            LDB,B6   GZ_FIELD$,AUTO
          1 000336  DC86                                 LDB,B5   ,B6
          1 000337  8285                                 LB,'2000'X        ,B5
          1 000338       2000
          1 000339  0501 001C                            BBT      s:19697,PREL

      566    19650    5                 THEN
      567    19651    6                   DO;
PL6.E3A0      #001=QBV$VERI_PRES File=QBV$VERI_PRES.:E05TSI                      WED 07/30/97 04:57 Page:83

      568    19652                          %PROC_ADDRESS ( THING@P =
             19652             "GZ_FIELD$ -> QI$GZ_FIELD.DESCRIPTION.FIELD_DAD$ -> QI$FIELD_DAD.IDENTIFIER@P"
             19652                              ,
      569    19653                          CHECK_FOR_INDIRECTION = NO,
      570    19654                          RESULT$ = FIELD_IDENTIFIER$ );

  19672   1 00033B  CCC6 0004                            LDB,B4   4,B6
          1 00033D  B844 0007                            LDR,R3   7,B4
          1 00033F  F853                                 LDR,R7   R3
          1 000340  6C00                                 LDV,R6   0
          1 000341  8400 0000 0002  xsym                 AID      QI_1+2
          1 000344  8D47 0017                            SDI      FIELD_IDENTIFIER$,AUTO

      571    19691
      572    19692                          /*  Can't re-prompt for a DISABLEd field!  */
      573    19693    6                     CALL QCE$ERROR ( %E$VERIFY_GET_FIELD_DISABLED,

  19693   1 000346  BBF0 000A                            LAB,B3   10,IMO
          1 000348  ACC7 0017                            LDB,B2   FIELD_IDENTIFIER$,AUTO
          1 00034A  AFC7 0154                            STB,B2   QI@TYPE_DISPLAY_TARGET+26,AUTO
          1 00034C  BFC7 0152                            STB,B3   QI@TYPE_DISPLAY_TARGET+24,AUTO
          1 00034E  BBC7 0152                            LAB,B3   QI@TYPE_DISPLAY_TARGET+24,AUTO
          1 000350  CBF0 0200                            LAB,B4   512,IMO
          1 000352  E380 0000 0000  xent                 LNJ,B6   QCE$ERROR
          1 000355       0001                            DC       s:19697,PREL

      574    19694    6                       FIELD_IDENTIFIER$ -> QI$VARIABLE_IDENTIFIER );
      575    19695    6                   END;

      576    19696
      577    19697    5                 IF COBOL_DAD$ -> QI$COBOL_DAD.WORD0_FLAGS.P.ERROR_MESSAGE

  19697   1 000356  ECC7 0009                            LDB,B6   COBOL_DAD$,AUTO
          1 000358  8286                                 LB,'1000'X        ,B6
          1 000359       1000
          1 00035A  0581 002A                            BBF      s:19785,PREL
PL6.E3A0      #001=QBV$VERI_PRES File=QBV$VERI_PRES.:E05TSI                      WED 07/30/97 04:57 Page:84

      578    19698    5                 THEN
      579    19699    6                   DO;

      580    19700                          %PRESENCE_DISPLACEMENT (
      581    19701                          PRESENCE_THING$ =
      582    19702                          "ADDR ( COBOL_DAD$ -> QI$COBOL_DAD.P_A )",
      583    19703                          INDEX = P_ITEM_INDEX,
      584    19704                          START = %QI#P_COBOL_FIRST_INDEX,
      585    19705                          STOP = %QI#P_ERROR_MESSAGE_INDEX,
      586    19706                          RESULT = ERROR_MESSAGE_INDEX
      587    19707                          );

  19723   1 00035C  8947 0010                            LBT,'FFFF'X       ERROR_MESSAGE_INDEX,AUTO
  19723   1 00035E       FFFF

  19724   1 00035F  6C01                                 LDV,R6   1
          1 000360  EF47 002B                            STR,R6   P_ITEM_INDEX,AUTO

  19725   1 000362  ECC7 0009                            LDB,B6   COBOL_DAD$,AUTO
          1 000364  B847 002B                            LDR,R3   P_ITEM_INDEX,AUTO
          1 000366  82B6                                 LB       ,B6,R3
          1 000367  0581 0003                            BBF      s:19728,PREL

  19727   1 000369  8AC7 0010                            INC      ERROR_MESSAGE_INDEX,AUTO

  19728   1 00036B  8AC7 002B                            INC      P_ITEM_INDEX,AUTO
          1 00036D  E847 002B                            LDR,R6   P_ITEM_INDEX,AUTO
          1 00036F  6D03                                 CMV,R6   3
          1 000370  03F2                                 BLE      s:19725,SPREL

      588    19739
      589    19740                          %PROC_ADDRESS ( THING@P =
      590    19741         "COBOL_DAD$ -> QI$COBOL_DAD.VARIABLE_LENGTH_ITEMS.P_ITEM_A ( ( DIMENSION_COUNT * 2
             19741        ) + ERROR_MESSAGE_INDEX )",
      591    19742                          CHECK_FOR_INDIRECTION = NO,
      592    19743                          RESULT$ = "QCG@GET_FIELD.MESSAGE$" );
PL6.E3A0      #001=QBV$VERI_PRES File=QBV$VERI_PRES.:E05TSI                      WED 07/30/97 04:57 Page:85

  19761   1 000371  D847 000E                            LDR,R5   DIMENSION_COUNT,AUTO
          1 000373  5001                                 SOL,R5   1
          1 000374  DA47 0010                            ADD,R5   ERROR_MESSAGE_INDEX,AUTO
          1 000376  B855                                 LDR,R3   R5
          1 000377  3E03                                 ADV,R3   3
          1 000378  A836                                 LDR,R2   ,B6,R3
          1 000379  F852                                 LDR,R7   R2
          1 00037A  6C00                                 LDV,R6   0
          1 00037B  8400 0000 0002  xsym                 AID      QI_1+2
          1 00037E  8D47 0120                            SDI      QCG@GET_FIELD+4,AUTO

      593    19780
      594    19781    6                     QCG@GET_FIELD.IS_MESSAGE_A_DAD = %YES;

  19781   1 000380  8947 011E                            LBT,'8000'X       QCG@GET_FIELD+2,AUTO
  19781   1 000382       8000

      595    19782    6                   END;

  19782   1 000383  0F81 0038                            B        s:19808,PREL

      596    19783    5                 ELSE
      597    19784    6                   DO;

      598    19785    6                     QCG@GET_FIELD.MESSAGE_LENGTH = LENGTHC ( ILLEGAL_VALUE_TEXT );

  19785   1 000385  6C48                                 LDV,R6   72
          1 000386  EF47 011F                            STR,R6   QCG@GET_FIELD+3,AUTO

      599    19786    6                     QCG@GET_FIELD.MESSAGE$ = ADDR ( ILLEGAL_VALUE_TEXT );

  19786   1 000388  DB80 0000 0000  00                   LAB,B5   ILLEGAL_VALUE_TEXT
          1 00038B  DFC7 0120                            STB,B5   QCG@GET_FIELD+4,AUTO

      600    19787    6                     QCG@GET_FIELD.IS_MESSAGE_A_DAD = %NO;

PL6.E3A0      #001=QBV$VERI_PRES File=QBV$VERI_PRES.:E05TSI                      WED 07/30/97 04:57 Page:86
  19787   1 00038D  8747 011E                            CL       QCG@GET_FIELD+2,AUTO

      601    19788
      602    19789                          /*N*
      603    19790                                MUCH ADO ABOUT ERROR MESSAGES
      604    19791                                See comments in QCR$READ.
      605    19792                          */
      606    19793    6                     IF G$JIT$ -> G$JIT.LANG = G$JIT$ -> G$JIT.LANG

  19793   1 00038F  CC80 0000 0000  xsym                 LDB,B4   G$JIT$
          1 000392  D844 0099                            LDR,R5   153,B4
          1 000394  5008                                 SOL,R5   8
          1 000395  5068                                 SAR,R5   8
          1 000396  D1D5                                 CMH,R5   R5
          1 000397  0981 0024                            BNE      s:19808,PREL

      607    19794    6                     THEN
      608    19795    6   GET_THE_ERRMSG_FROM_THE_HOST:
      609    19796    7                       DO;

  19796   1                              GET_THE_ERRMSG_*null
      610    19797    7                         CALL QCE$ERROR_MESSAGE ( %E$ILLEGAL_VALUE,

  19797   1 000399  BBF0 0064            GET_THE_ERRMSG_*LAB,B3   100,IMO
          1 00039B  ABC7 00F4                            LAB,B2   OTTER_ERROR_MESSAGE,AUTO
          1 00039D  AFC7 015A                            STB,B2   QI@TYPE_DISPLAY_TARGET+32,AUTO
          1 00039F  9B80 0000 0000                       LAB,B1   0
          1 0003A2  9FC7 0158                            STB,B1   QI@TYPE_DISPLAY_TARGET+30,AUTO
          1 0003A4  EB80 0000 0000                       LAB,B6   0
          1 0003A7  EFC7 0156                            STB,B6   QI@TYPE_DISPLAY_TARGET+28,AUTO
          1 0003A9  EB80 0000 0000                       LAB,B6   0
          1 0003AC  EFC7 0154                            STB,B6   QI@TYPE_DISPLAY_TARGET+26,AUTO
          1 0003AE  BFC7 0152                            STB,B3   QI@TYPE_DISPLAY_TARGET+24,AUTO
          1 0003B0  BBC7 0152                            LAB,B3   QI@TYPE_DISPLAY_TARGET+24,AUTO
          1 0003B2  CBF0 0500                            LAB,B4   1280,IMO
          1 0003B4  E380 0000 0000  xent                 LNJ,B6   QCE$ERROR_MESSAGE
          1 0003B7       0001                            DC       s:19803,PREL
PL6.E3A0      #001=QBV$VERI_PRES File=QBV$VERI_PRES.:E05TSI                      WED 07/30/97 04:57 Page:87

      611    19798    7                           /* no U1 */,
      612    19799    7                           /* no U2 */,
      613    19800    7                           /* no U3 */,
      614    19801    7                           OTTER_ERROR_MESSAGE );
      615    19802
      616    19803    7                         QCG@GET_FIELD.MESSAGE$ = ADDR ( OTTER_ERROR_MESSAGE );

  19803   1 0003B8  EBC7 00F4                            LAB,B6   OTTER_ERROR_MESSAGE,AUTO
          1 0003BA  EFC7 0120                            STB,B6   QCG@GET_FIELD+4,AUTO

      617    19804    7                       END GET_THE_ERRMSG_FROM_THE_HOST;

      618    19805
      619    19806    6                   END;

      620    19807
      621    19808    5                 QCG@GET_FIELD.MESSAGE_LINE_GZ_HEADER$ = QI_1.MESSAGE_LINE_GZ.HEADER$;

  19808   1 0003BC  EC80 0000 0064  xsym                 LDB,B6   QI_1+100
          1 0003BF  EFC7 011C                            STB,B6   QCG@GET_FIELD,AUTO

      622    19809
      623    19810    5                 QCG@GET_FIELD.FRAME_INDEX = QI_1.CURRENT.FRAME_INDEX;

  19810   1 0003C1  E800 0000 007E  xsym                 LDR,R6   QI_1+126
          1 0003C4  EF47 0122                            STR,R6   QCG@GET_FIELD+6,AUTO

      624    19811    5                 QCG@GET_FIELD.FIELD_INDEX = QI_1.CURRENT.NODE_STATUS$ ->
             19811                          QI$FIELD_STATUS.GZ.FIELD_START_INDEX

  19811   1 0003C6  8CC7 0019                            LDI      GZ_FIELD$,AUTO
          1 0003C8  84C7 001E                            SID      INITIAL_GZ$,AUTO
          1 0003CA  8D47 0164                            SDI      QI@TYPE_DISPLAY_TARGET+42,AUTO
          1 0003CC  DB80 0000 0000  02                   LAB,B5   0
          1 0003CF  0027                                 CBD      ;
          1 0003D0       0205 0004                                BINARY(4,B5,,2),;
PL6.E3A0      #001=QBV$VERI_PRES File=QBV$VERI_PRES.:E05TSI                      WED 07/30/97 04:57 Page:88
          1 0003D2       4C07 0152                       UNPACKED(QI@TYPE_DISPLAY_TARGET+24,AUTO,,12,LEADING)
          1 0003D4  0027                                 CBD      ;
          1 0003D5       0407 0164                                BINARY(QI@TYPE_DISPLAY_TARGET+42,AUTO,,4),;
          1 0003D7       4C07 0158                       UNPACKED(QI@TYPE_DISPLAY_TARGET+30,AUTO,,12,LEADING)
          1 0003D9  002B                                 DDV      ;
          1 0003DA       4C07 0152                     UNPACKED(QI@TYPE_DISPLAY_TARGET+24,AUTO,,12,LEADING),;
          1 0003DC       4C07 0158                     UNPACKED(QI@TYPE_DISPLAY_TARGET+30,AUTO,,12,LEADING),;
          1 0003DE       4C07 015E                       UNPACKED(QI@TYPE_DISPLAY_TARGET+36,AUTO,,12,LEADING)
          1 0003E0  002A                                 CDB      ;
          1 0003E1       4C07 015E                     UNPACKED(QI@TYPE_DISPLAY_TARGET+36,AUTO,,12,LEADING),;
          1 0003E3       0407 0166                                BINARY(QI@TYPE_DISPLAY_TARGET+44,AUTO,,4)
          1 0003E5  DC80 0000 0082  xsym                 LDB,B5   QI_1+130
          1 0003E8  437F                                 CSYNC    s:19811+33,SPREL
          1 0003E9  F805                                 LDR,R7   ,B5
          1 0003EA  6C00                                 LDV,R6   0
          1 0003EB  8447 0166                            AID      QI@TYPE_DISPLAY_TARGET+44,AUTO
          1 0003ED  E857                                 LDR,R6   R7
          1 0003EE  EF47 0123                            STR,R6   QCG@GET_FIELD+7,AUTO

      625    19812    5                   + ( POFFW ( GZ_FIELD$, INITIAL_GZ$ ) / SIZEW (QI$GZ_FIELD) );
      626    19813
      627    19814    5                 CALL QCG$GET_FIELD_ILLEGAL ( QCG@GET_FIELD );

  19814   1 0003F0  CBC7 011C                            LAB,B4   QCG@GET_FIELD,AUTO
          1 0003F2  CFC7 0152                            STB,B4   QI@TYPE_DISPLAY_TARGET+24,AUTO
          1 0003F4  BBC7 0152                            LAB,B3   QI@TYPE_DISPLAY_TARGET+24,AUTO
          1 0003F6  CBF0 0100                            LAB,B4   256,IMO
          1 0003F8  E380 0000 0000  xent                 LNJ,B6   QCG$GET_FIELD_ILLEGAL
          1 0003FB       0001                            DC       s:19816,PREL

      628    19815
      629    19816    5                 IF QCG@GET_FIELD.STATUS = %QI#USE_INVALID_RETURN

  19816   1 0003FC  E847 0124                            LDR,R6   QCG@GET_FIELD+8,AUTO
          1 0003FE  6981 0004                            BNEZ,R6  s:19820,PREL

      630    19817    5                 THEN
PL6.E3A0      #001=QBV$VERI_PRES File=QBV$VERI_PRES.:E05TSI                      WED 07/30/97 04:57 Page:89
      631    19818    5                   RETURN;

  19818   1 000400  C380 0000 0000  xent                 LNJ,B4   X6A_ARET

      632    19819
      633    19820    5                 QI_1 = QI@1;

  19820   1 000403  ABC7 0042                            LAB,B2   QI@1,AUTO
          1 000405  2C00                                 LDV,R2   0
          1 000406  E870 0142                            LDR,R6   322,IMO
          1 000408  BB80 0000 0000  xsym                 LAB,B3   QI_1
          1 00040B  3C00                                 LDV,R3   0
          1 00040C  0008                                 MMM

      634    19821
      635    19822    5                 GOTO RETRY_FIELD_VERI_PRES;

  19822   1 00040D  0F81 FD9A                            B        s:19431,PREL

      636    19823
      637    19824    5   LEGAL_CHECK_PASSED:
      638    19825    5                 QI_1 = QI@1;

  19825   1 00040F  ABC7 0042            LEGAL_CHECK_PAS*LAB,B2   QI@1,AUTO
          1 000411  2C00                                 LDV,R2   0
          1 000412  E870 0142                            LDR,R6   322,IMO
          1 000414  BB80 0000 0000  xsym                 LAB,B3   QI_1
          1 000417  3C00                                 LDV,R3   0
          1 000418  0008                                 MMM

      639    19826
      640    19827    5               END LEGAL_CHECKING;

      641    19828        %EJECT;
PL6.E3A0      #001=QBV$VERI_PRES File=QBV$VERI_PRES.:E05TSI                      WED 07/30/97 04:57 Page:90
      642    19829                  /* The Big Move:  */
      643    19830    4             RESTORE_FLAG = %YES;

  19830   1 000419  8947 002D                            LBT,'8000'X       RESTORE_FLAG,AUTO
  19830   1 00041B       8000

      644    19831    4             CALL MOVE_IT ( RESTORE_FLAG );

  19831   1 00041C  EBC7 002D                            LAB,B6   RESTORE_FLAG,AUTO
          1 00041E  EFC7 0136                            STB,B6   QCU@USE+16,AUTO
          1 000420  E3C0 01F3                            LNJ,B6   s:0,PREL
          1 000422       0001                            DC       s:19833,PREL

      645    19832
      646    19833    4             IF THIS_IS_A_VERIFY

  19833   1 000423  89C7 003F                            CMZ      THIS_IS_A_VERIFY,AUTO
          1 000425  0881 000A                            BAGE     s:19837,PREL

      647    19834    4             THEN
      648    19835    4               GZ_FIELD$ -> QI$GZ_FIELD.INDICATORS$ -> QI$INDICATORS.STATE_VALUE = %
             19835                        QI#STATE_AVAIL_VERIFY;

  19835   1 000427  ECC7 0019                            LDB,B6   GZ_FIELD$,AUTO
          1 000429  DC86                                 LDB,B5   ,B6
          1 00042A  E870 1000                            LDR,R6   4096,IMO
          1 00042C  EA85                                 SRM,R6,'1800'X    ,B5
          1 00042D       1800
          1 00042E  0F81 0008                            B        s:19840,PREL

      649    19836    4             ELSE
      650    19837    4               GZ_FIELD$ -> QI$GZ_FIELD.INDICATORS$ -> QI$INDICATORS.STATE_VALUE = %
             19837                        QI#STATE_AVAIL_OUTPUT;

  19837   1 000430  ECC7 0019                            LDB,B6   GZ_FIELD$,AUTO
          1 000432  DC86                                 LDB,B5   ,B6
          1 000433  E870 0800                            LDR,R6   2048,IMO
PL6.E3A0      #001=QBV$VERI_PRES File=QBV$VERI_PRES.:E05TSI                      WED 07/30/97 04:57 Page:91
          1 000435  EA85                                 SRM,R6,'1800'X    ,B5
          1 000436       1800

      651    19838
      652    19839    4   NEXT_SCALAR_PLEASE:
      653    19840    4             GZ_FIELD$ = PINCRW ( GZ_FIELD$, SIZEW (QI$GZ_FIELD) );

  19840   1 000437  ECC7 0019            NEXT_SCALAR_PLE*LDB,B6   GZ_FIELD$,AUTO
          1 000439  DBC6 000C                            LAB,B5   12,B6
          1 00043B  DFC7 0019                            STB,B5   GZ_FIELD$,AUTO

      654    19841
      655    19842    4           END LESSER_SUBSCRIPT_DO;

  19842   1 00043D  8AC7 003D                            INC      SUBSCRIPT_DO_INDICES+1,AUTO
          1 00043F  E847 003D                            LDR,R6   SUBSCRIPT_DO_INDICES+1,AUTO
          1 000441  E947 0039                            CMR,R6   SUBSCRIPT_BOUND_A+1,AUTO
          1 000443  0381 FD60                            BLE      s:19428,PREL

      656    19843
      657    19844    3         END GREATER_SUBSCRIPT_DO;

  19844   1 000445  8AC7 003C                            INC      SUBSCRIPT_DO_INDICES,AUTO
          1 000447  E847 003C                            LDR,R6   SUBSCRIPT_DO_INDICES,AUTO
          1 000449  E947 0038                            CMR,R6   SUBSCRIPT_BOUND_A,AUTO
          1 00044B  0381 FD54                            BLE      s:19425,PREL

      658    19845
      659    19846    2   NEXT_PAIR_PLEASE:
      660    19847
      661    19848    2       END;  /* veri_pres_index */

  19848   1 00044D  8AC7 0041            NEXT_PAIR_PLEASEINC      VERI_PRES_INDEX,AUTO
          1 00044F  E847 0041                            LDR,R6   VERI_PRES_INDEX,AUTO
          1 000451  E947 0040                            CMR,R6   VERI_PRES_COUNT,AUTO
          1 000453  0201 FBDD                            BL       s:19125,PREL

PL6.E3A0      #001=QBV$VERI_PRES File=QBV$VERI_PRES.:E05TSI                      WED 07/30/97 04:57 Page:92
      662    19849
      663    19850    1       IF QI_1.CURRENT.FORM$ -> QI$FORM_FILE.WORD0_FLAGS.IS_ERROR_STATUS_VALID

  19850   1 000455  EC80 0000 0076  xsym                 LDB,B6   QI_1+118
          1 000458  8286                                 LB,'4000'X        ,B6
          1 000459       4000
          1 00045A  0581 0025                            BBF      s:19899,PREL

      664    19851    1       THEN
      665    19852    2         DO;

      666    19853                %DATA_ADDRESS ( THING@D =
             19853                    "QI_1.CURRENT.FORM$ -> QI$FORM_FILE.ERROR_STATUS@D",
      667    19854                CHECK_FOR_INDIRECTION = NO,
      668    19855                RESULT$ = ERROR_STATUS$ );

  19873   1 00045C  B846 0003                            LDR,R3   3,B6
          1 00045E  F853                                 LDR,R7   R3
          1 00045F  6C00                                 LDV,R6   0
          1 000460  8400 0000 0000  xsym                 AID      QI_1
          1 000463  8D47 0011                            SDI      ERROR_STATUS$,AUTO

      669    19892    2           IF THIS_IS_A_VERIFY

  19892   1 000465  89C7 003F                            CMZ      THIS_IS_A_VERIFY,AUTO
          1 000467  0881 000E                            BAGE     s:19896,PREL

      670    19893    2           THEN
      671    19894    2             ERROR_STATUS$ -> QI$ERROR_STATUS.TEXT = %QI#OP_VERIFY_TEXT;

  19894   1 000469  DB80 0000 0000  00                   LAB,B5   ILLEGAL_VALUE_TEXT
          1 00046C  CCC7 0011                            LDB,B4   ERROR_STATUS$,AUTO
          1 00046E  0021                                 ALR      ;
          1 00046F       4205 0024                                ALPHANUM(36,B5,,2),;
          1 000471       4804 0000                                ALPHANUM(0,B4,,8,FILL)
          1 000473  437F                                 CSYNC    s:19894+9,SPREL
          1 000474  0F81 000B                            B        s:19899,PREL
PL6.E3A0      #001=QBV$VERI_PRES File=QBV$VERI_PRES.:E05TSI                      WED 07/30/97 04:57 Page:93

      672    19895    2           ELSE
      673    19896    2             ERROR_STATUS$ -> QI$ERROR_STATUS.TEXT = %QI#OP_PRESENT_TEXT;

  19896   1 000476  DB80 0000 0000  00                   LAB,B5   ILLEGAL_VALUE_TEXT
          1 000479  CCC7 0011                            LDB,B4   ERROR_STATUS$,AUTO
          1 00047B  0021                                 ALR      ;
          1 00047C       4205 0025                                ALPHANUM(37,B5,,2),;
          1 00047E       4804 0000                                ALPHANUM(0,B4,,8,FILL)

      674    19897    2         END;

      675    19898
      676    19899    1       RETURN;

  19899   1 000480  437F                                 CSYNC    s:19896+9,SPREL
          1 000481  C380 0000 0000  xent                 LNJ,B4   X6A_ARET

      677    19900
      678    19901        %EJECT;
PL6.E3A0      #001=QBV$VERI_PRES File=QBV$VERI_PRES.:E05TSI                      WED 07/30/97 04:57 Page:94
      679    19902    1   CHECK_USE_PROCEDURE_OR_INVALID:
      680    19903    1       QCU@USE.CURR_FRAME$ = QI_1.CURRENT.FRAME$;

  19903   1 000484  DC80 0000 007A  xsym CHECK_USE_PROCE*LDB,B5   QI_1+122
          1 000487  DFC7 0126                            STB,B5   QCU@USE,AUTO

      681    19904    1       QCU@USE.CURR_NODE$ = FIELD_DAD$;

  19904   1 000489  CCC7 0013                            LDB,B4   FIELD_DAD$,AUTO
          1 00048B  CFC7 0128                            STB,B4   QCU@USE+2,AUTO

      682    19905    1       QCU@USE.IS_TIME_TO_SAVE_AWAY_FIELDS = %NO;

  19905   1 00048D  8747 012B                            CL       QCU@USE+5,AUTO

      683    19906    1       QCU@USE.USE_DEFAULT_IO = %QI#USE_DEFAULT_NONE;

  19906   1 00048F  8747 012A                            CL       QCU@USE+4,AUTO

      684    19907
      685    19908    1       CALL QCU$USE_IO ( QCU@USE );

  19908   1 000491  BBC7 0126                            LAB,B3   QCU@USE,AUTO
          1 000493  BFC7 0152                            STB,B3   QI@TYPE_DISPLAY_TARGET+24,AUTO
          1 000495  BBC7 0152                            LAB,B3   QI@TYPE_DISPLAY_TARGET+24,AUTO
          1 000497  CBF0 0100                            LAB,B4   256,IMO
          1 000499  E380 0000 0000  xent                 LNJ,B6   QCU$USE_IO
          1 00049C       0001                            DC       s:19910,PREL

      686    19909
      687    19910    2       DO CASE ( QCU@USE.STATUS );

  19910   1 00049D  B847 0133                            LDR,R3   QCU@USE+13,AUTO
          1 00049F  3D03                                 CMV,R3   3
          1 0004A0  0281 000E                            BGE      s:19919,PREL
          1 0004A2  A830 0000 04A8  01                   LDR,R2   s:19910+11,R3
          1 0004A5  83A0 0000 04AB  01                   JMP      s:19913,R2
PL6.E3A0      #001=QBV$VERI_PRES File=QBV$VERI_PRES.:E05TSI                      WED 07/30/97 04:57 Page:95
          1 0004A8       0004                            DC       s:19919,PREL
          1 0004A9       0000                            DC       s:19913,PREL
          1 0004AA       0002                            DC       s:19916,PREL

      688    19911
      689    19912    2         CASE ( %QI#USE_INVALID_RETRY );

      690    19913    2           GOTO RETRY_THE_CURRENT_PAIR;

  19913   1 0004AB  0F81 FBD6                            B        s:19157,PREL

      691    19914
      692    19915    2         CASE ( %QI#USE_INVALID_SKIP_TO_NEXT );

      693    19916    2           GOTO NEXT_SCALAR_PLEASE;

  19916   1 0004AD  0F81 FF89                            B        s:19840,PREL

      694    19917
      695    19918    2         CASE ( ELSE );

      696    19919    2           CALL QCE$ERROR_INTERNAL ( %E$INTERNAL_INTERPRETER_ERROR );

  19919   1 0004AF  BB80 0000 0006  02                   LAB,B3   +6
          1 0004B2  CBF0 0100                            LAB,B4   256,IMO
          1 0004B4  E380 0000 0000  xent                 LNJ,B6   QCE$ERROR_INTERNAL
          1 0004B7       0001                            DC       s:19921,PREL

      697    19920
      698    19921    2       END;

  19921   1 0004B8  0F81 04AA                            B        s:21046,PREL

      699    19922
      700    19923        %EJECT;
PL6.E3A0      #001=QBV$VERI_PRES File=QBV$VERI_PRES.:E05TSI                      WED 07/30/97 04:57 Page:96
      701    19924    1   IF_IT: PROC;

  19924   1 0004BA  EFC7 0134            IF_IT           STB,B6   QCU@USE+14,AUTO

      702    19925
      703    19926        /*I*  NAME:         IF_IT
      704    19927              PURPOSE:      Compare a FIELD DAD's data with an item in a LEGAL clause.
      705    19928              CALL:         CALL IF_IT;
      706    19929              PARAMETERS:   None.
      707    19930              DATA:         Stuff in QI_1.
      708    19931              DESCRIPTION:  We've got a FIELD DAD's data to compare with an item in
      709    19932                            a LEGAL clause on a COBOL DAD.  There may be some
      710    19933                            conversion required, or whatever.  Using the QI_1.TYPEs
      711    19934                            of the two data items, call a special entry point in
      712    19935                            one or another of the QCI$IFx routines to make the
      713    19936                            comparison.
      714    19937        */
      715    19938
      716    19939    2       CALL BUILD_DOCASE_THING;

  19939   1 0004BC  E3C0 0452                            LNJ,B6   s:0,PREL
          1 0004BE       0001                            DC       s:19941,PREL

      717    19940
      718    19941    3       DO CASE ( DOCASE_THING.EIGHT_BIT_DEAL );

  19941   1 0004BF  B2C7 000F                            LLH,R3   DOCASE_THING,AUTO
          1 0004C1  3EDE                                 ADV,R3   -34
          1 0004C2  B970 00DE                            CMR,R3   222,IMO
          1 0004C4  0281 0142                            BGE      s:20035,PREL
          1 0004C6  A830 0000 04CC  01                   LDR,R2   s:19941+13,R3
          1 0004C9  83A0 0000 05AA  01                   JMP      s:19978,R2
          1 0004CC       0019                            DC       s:19998,PREL
          1 0004CD       005D                            DC       s:20035,PREL
          1 0004CE       005D                            DC       s:20035,PREL
          1 0004CF       005D                            DC       s:20035,PREL
          1 0004D0       0019                            DC       s:19998,PREL
PL6.E3A0      #001=QBV$VERI_PRES File=QBV$VERI_PRES.:E05TSI                      WED 07/30/97 04:57 Page:97
          1 0004D1       005D                            DC       s:20035,PREL
          1 0004D2       005D                            DC       s:20035,PREL
          1 0004D3       005D                            DC       s:20035,PREL
          1 0004D4       0032                            DC       s:20014,PREL
          1 0004D5       005D                            DC       s:20035,PREL
          1 0004D6       0000                            DC       s:19978,PREL
          1 0004D7       0000                            DC       s:19978,PREL
          1 0004D8       0000                            DC       s:19978,PREL
          1 0004D9       0000                            DC       s:19978,PREL
          1 0004DA       005D                            DC       s:20035,PREL
          1 0004DB       005D                            DC       s:20035,PREL
          1 0004DC       005D                            DC       s:20035,PREL
          1 0004DD       005D                            DC       s:20035,PREL
          1 0004DE       005D                            DC       s:20035,PREL
          1 0004DF       005D                            DC       s:20035,PREL
          1 0004E0       005D                            DC       s:20035,PREL
          1 0004E1       005D                            DC       s:20035,PREL
          1 0004E2       005D                            DC       s:20035,PREL
          1 0004E3       005D                            DC       s:20035,PREL
          1 0004E4       005D                            DC       s:20035,PREL
          1 0004E5       005D                            DC       s:20035,PREL
          1 0004E6       005D                            DC       s:20035,PREL
          1 0004E7       005D                            DC       s:20035,PREL
          1 0004E8       005D                            DC       s:20035,PREL
          1 0004E9       005D                            DC       s:20035,PREL
          1 0004EA       005D                            DC       s:20035,PREL
          1 0004EB       005D                            DC       s:20035,PREL
          1 0004EC       005D                            DC       s:20035,PREL
          1 0004ED       005D                            DC       s:20035,PREL
          1 0004EE       005D                            DC       s:20035,PREL
          1 0004EF       005D                            DC       s:20035,PREL
          1 0004F0       005D                            DC       s:20035,PREL
          1 0004F1       005D                            DC       s:20035,PREL
          1 0004F2       005D                            DC       s:20035,PREL
          1 0004F3       005D                            DC       s:20035,PREL
          1 0004F4       005D                            DC       s:20035,PREL
          1 0004F5       005D                            DC       s:20035,PREL
PL6.E3A0      #001=QBV$VERI_PRES File=QBV$VERI_PRES.:E05TSI                      WED 07/30/97 04:57 Page:98
          1 0004F6       005D                            DC       s:20035,PREL
          1 0004F7       005D                            DC       s:20035,PREL
          1 0004F8       005D                            DC       s:20035,PREL
          1 0004F9       005D                            DC       s:20035,PREL
          1 0004FA       005D                            DC       s:20035,PREL
          1 0004FB       005D                            DC       s:20035,PREL
          1 0004FC       005D                            DC       s:20035,PREL
          1 0004FD       005D                            DC       s:20035,PREL
          1 0004FE       005D                            DC       s:20035,PREL
          1 0004FF       005D                            DC       s:20035,PREL
          1 000500       005D                            DC       s:20035,PREL
          1 000501       005D                            DC       s:20035,PREL
          1 000502       005D                            DC       s:20035,PREL
          1 000503       005D                            DC       s:20035,PREL
          1 000504       005D                            DC       s:20035,PREL
          1 000505       005D                            DC       s:20035,PREL
          1 000506       005D                            DC       s:20035,PREL
          1 000507       005D                            DC       s:20035,PREL
          1 000508       005D                            DC       s:20035,PREL
          1 000509       005D                            DC       s:20035,PREL
          1 00050A       005D                            DC       s:20035,PREL
          1 00050B       005D                            DC       s:20035,PREL
          1 00050C       0019                            DC       s:19998,PREL
          1 00050D       005D                            DC       s:20035,PREL
          1 00050E       005D                            DC       s:20035,PREL
          1 00050F       005D                            DC       s:20035,PREL
          1 000510       0019                            DC       s:19998,PREL
          1 000511       005D                            DC       s:20035,PREL
          1 000512       005D                            DC       s:20035,PREL
          1 000513       005D                            DC       s:20035,PREL
          1 000514       0032                            DC       s:20014,PREL
          1 000515       005D                            DC       s:20035,PREL
          1 000516       005D                            DC       s:20035,PREL
          1 000517       005D                            DC       s:20035,PREL
          1 000518       005D                            DC       s:20035,PREL
          1 000519       005D                            DC       s:20035,PREL
          1 00051A       005D                            DC       s:20035,PREL
PL6.E3A0      #001=QBV$VERI_PRES File=QBV$VERI_PRES.:E05TSI                      WED 07/30/97 04:57 Page:99
          1 00051B       005D                            DC       s:20035,PREL
          1 00051C       005D                            DC       s:20035,PREL
          1 00051D       005D                            DC       s:20035,PREL
          1 00051E       005D                            DC       s:20035,PREL
          1 00051F       005D                            DC       s:20035,PREL
          1 000520       005D                            DC       s:20035,PREL
          1 000521       005D                            DC       s:20035,PREL
          1 000522       005D                            DC       s:20035,PREL
          1 000523       005D                            DC       s:20035,PREL
          1 000524       005D                            DC       s:20035,PREL
          1 000525       005D                            DC       s:20035,PREL
          1 000526       005D                            DC       s:20035,PREL
          1 000527       005D                            DC       s:20035,PREL
          1 000528       005D                            DC       s:20035,PREL
          1 000529       005D                            DC       s:20035,PREL
          1 00052A       005D                            DC       s:20035,PREL
          1 00052B       005D                            DC       s:20035,PREL
          1 00052C       005D                            DC       s:20035,PREL
          1 00052D       005D                            DC       s:20035,PREL
          1 00052E       005D                            DC       s:20035,PREL
          1 00052F       005D                            DC       s:20035,PREL
          1 000530       005D                            DC       s:20035,PREL
          1 000531       005D                            DC       s:20035,PREL
          1 000532       005D                            DC       s:20035,PREL
          1 000533       005D                            DC       s:20035,PREL
          1 000534       005D                            DC       s:20035,PREL
          1 000535       005D                            DC       s:20035,PREL
          1 000536       005D                            DC       s:20035,PREL
          1 000537       005D                            DC       s:20035,PREL
          1 000538       005D                            DC       s:20035,PREL
          1 000539       005D                            DC       s:20035,PREL
          1 00053A       005D                            DC       s:20035,PREL
          1 00053B       005D                            DC       s:20035,PREL
          1 00053C       005D                            DC       s:20035,PREL
          1 00053D       005D                            DC       s:20035,PREL
          1 00053E       005D                            DC       s:20035,PREL
          1 00053F       005D                            DC       s:20035,PREL
PL6.E3A0      #001=QBV$VERI_PRES File=QBV$VERI_PRES.:E05TSI                      WED 07/30/97 04:57 Page:100
          1 000540       005D                            DC       s:20035,PREL
          1 000541       005D                            DC       s:20035,PREL
          1 000542       005D                            DC       s:20035,PREL
          1 000543       005D                            DC       s:20035,PREL
          1 000544       005D                            DC       s:20035,PREL
          1 000545       005D                            DC       s:20035,PREL
          1 000546       005D                            DC       s:20035,PREL
          1 000547       005D                            DC       s:20035,PREL
          1 000548       005D                            DC       s:20035,PREL
          1 000549       005D                            DC       s:20035,PREL
          1 00054A       005D                            DC       s:20035,PREL
          1 00054B       005D                            DC       s:20035,PREL
          1 00054C       0021                            DC       s:20004,PREL
          1 00054D       005D                            DC       s:20035,PREL
          1 00054E       005D                            DC       s:20035,PREL
          1 00054F       005D                            DC       s:20035,PREL
          1 000550       0021                            DC       s:20004,PREL
          1 000551       005D                            DC       s:20035,PREL
          1 000552       005D                            DC       s:20035,PREL
          1 000553       005D                            DC       s:20035,PREL
          1 000554       0043                            DC       s:20023,PREL
          1 000555       005D                            DC       s:20035,PREL
          1 000556       005D                            DC       s:20035,PREL
          1 000557       005D                            DC       s:20035,PREL
          1 000558       005D                            DC       s:20035,PREL
          1 000559       005D                            DC       s:20035,PREL
          1 00055A       005D                            DC       s:20035,PREL
          1 00055B       005D                            DC       s:20035,PREL
          1 00055C       005D                            DC       s:20035,PREL
          1 00055D       005D                            DC       s:20035,PREL
          1 00055E       005D                            DC       s:20035,PREL
          1 00055F       005D                            DC       s:20035,PREL
          1 000560       005D                            DC       s:20035,PREL
          1 000561       005D                            DC       s:20035,PREL
          1 000562       005D                            DC       s:20035,PREL
          1 000563       005D                            DC       s:20035,PREL
          1 000564       005D                            DC       s:20035,PREL
PL6.E3A0      #001=QBV$VERI_PRES File=QBV$VERI_PRES.:E05TSI                      WED 07/30/97 04:57 Page:101
          1 000565       005D                            DC       s:20035,PREL
          1 000566       005D                            DC       s:20035,PREL
          1 000567       005D                            DC       s:20035,PREL
          1 000568       005D                            DC       s:20035,PREL
          1 000569       005D                            DC       s:20035,PREL
          1 00056A       005D                            DC       s:20035,PREL
          1 00056B       005D                            DC       s:20035,PREL
          1 00056C       0000                            DC       s:19978,PREL
          1 00056D       005D                            DC       s:20035,PREL
          1 00056E       005D                            DC       s:20035,PREL
          1 00056F       005D                            DC       s:20035,PREL
          1 000570       005D                            DC       s:20035,PREL
          1 000571       005D                            DC       s:20035,PREL
          1 000572       005D                            DC       s:20035,PREL
          1 000573       005D                            DC       s:20035,PREL
          1 000574       005D                            DC       s:20035,PREL
          1 000575       005D                            DC       s:20035,PREL
          1 000576       0000                            DC       s:19978,PREL
          1 000577       0000                            DC       s:19978,PREL
          1 000578       0000                            DC       s:19978,PREL
          1 000579       0000                            DC       s:19978,PREL
          1 00057A       005D                            DC       s:20035,PREL
          1 00057B       005D                            DC       s:20035,PREL
          1 00057C       0000                            DC       s:19978,PREL
          1 00057D       005D                            DC       s:20035,PREL
          1 00057E       005D                            DC       s:20035,PREL
          1 00057F       005D                            DC       s:20035,PREL
          1 000580       0000                            DC       s:19978,PREL
          1 000581       005D                            DC       s:20035,PREL
          1 000582       005D                            DC       s:20035,PREL
          1 000583       005D                            DC       s:20035,PREL
          1 000584       0008                            DC       s:19986,PREL
          1 000585       005D                            DC       s:20035,PREL
          1 000586       0000                            DC       s:19978,PREL
          1 000587       0000                            DC       s:19978,PREL
          1 000588       0000                            DC       s:19978,PREL
          1 000589       0000                            DC       s:19978,PREL
PL6.E3A0      #001=QBV$VERI_PRES File=QBV$VERI_PRES.:E05TSI                      WED 07/30/97 04:57 Page:102
          1 00058A       005D                            DC       s:20035,PREL
          1 00058B       005D                            DC       s:20035,PREL
          1 00058C       0000                            DC       s:19978,PREL
          1 00058D       005D                            DC       s:20035,PREL
          1 00058E       005D                            DC       s:20035,PREL
          1 00058F       005D                            DC       s:20035,PREL
          1 000590       005D                            DC       s:20035,PREL
          1 000591       005D                            DC       s:20035,PREL
          1 000592       005D                            DC       s:20035,PREL
          1 000593       005D                            DC       s:20035,PREL
          1 000594       005D                            DC       s:20035,PREL
          1 000595       005D                            DC       s:20035,PREL
          1 000596       0000                            DC       s:19978,PREL
          1 000597       0000                            DC       s:19978,PREL
          1 000598       0000                            DC       s:19978,PREL
          1 000599       0000                            DC       s:19978,PREL
          1 00059A       005D                            DC       s:20035,PREL
          1 00059B       005D                            DC       s:20035,PREL
          1 00059C       0000                            DC       s:19978,PREL
          1 00059D       005D                            DC       s:20035,PREL
          1 00059E       005D                            DC       s:20035,PREL
          1 00059F       005D                            DC       s:20035,PREL
          1 0005A0       005D                            DC       s:20035,PREL
          1 0005A1       005D                            DC       s:20035,PREL
          1 0005A2       005D                            DC       s:20035,PREL
          1 0005A3       005D                            DC       s:20035,PREL
          1 0005A4       005D                            DC       s:20035,PREL
          1 0005A5       005D                            DC       s:20035,PREL
          1 0005A6       0000                            DC       s:19978,PREL
          1 0005A7       0000                            DC       s:19978,PREL
          1 0005A8       0000                            DC       s:19978,PREL
          1 0005A9       0000                            DC       s:19978,PREL

      719    19942
      720    19943    3         CASE (

      721    19944                     /*  Normal stuff.  */
PL6.E3A0      #001=QBV$VERI_PRES File=QBV$VERI_PRES.:E05TSI                      WED 07/30/97 04:57 Page:103
      722    19945    3         %( ALPHANUMERIC_SOURCE + ALPHANUMERIC_TARGET ),
      723    19946    3         %( ALPHANUMERIC_EDITED_SOURCE + ALPHANUMERIC_TARGET ),
      724    19947    3         %( ALPHANUMERIC_RJ_SOURCE + ALPHANUMERIC_TARGET ),
      725    19948    3         %( NUMERIC_EDITED_SOURCE + ALPHANUMERIC_TARGET ),
      726    19949    3         %( ALPHANUMERIC_SOURCE + ALPHANUMERIC_EDITED_TARGET ),
      727    19950    3         %( ALPHANUMERIC_EDITED_SOURCE + ALPHANUMERIC_EDITED_TARGET ),
      728    19951    3         %( ALPHANUMERIC_RJ_SOURCE + ALPHANUMERIC_EDITED_TARGET ),
      729    19952    3         %( NUMERIC_EDITED_SOURCE + ALPHANUMERIC_EDITED_TARGET ),
      730    19953    3         %( ALPHANUMERIC_SOURCE + ALPHANUMERIC_RJ_TARGET ),
      731    19954    3         %( ALPHANUMERIC_EDITED_SOURCE + ALPHANUMERIC_RJ_TARGET ),
      732    19955    3         %( ALPHANUMERIC_RJ_SOURCE + ALPHANUMERIC_RJ_TARGET ),
      733    19956    3         %( NUMERIC_EDITED_SOURCE + ALPHANUMERIC_RJ_TARGET ),
      734    19957    3         %( ALPHANUMERIC_SOURCE + NUMERIC_EDITED_TARGET ),
      735    19958    3         %( ALPHANUMERIC_EDITED_SOURCE + NUMERIC_EDITED_TARGET ),
      736    19959    3         %( ALPHANUMERIC_RJ_SOURCE + NUMERIC_EDITED_TARGET ),
      737    19960    3         %( NUMERIC_EDITED_SOURCE + NUMERIC_EDITED_TARGET ),
      738    19961
      739    19962                     /*  Wierd stuff:  alphanumeric vs. display.  */
      740    19963    3         %( DISPLAY_SOURCE + ALPHANUMERIC_TARGET ),
      741    19964    3         %( DISPLAY_SOURCE + ALPHANUMERIC_EDITED_TARGET ),
      742    19965    3         %( DISPLAY_SOURCE + ALPHANUMERIC_RJ_TARGET ),
      743    19966    3         %( DISPLAY_SOURCE + NUMERIC_EDITED_TARGET ),
      744    19967    3         %( ALPHANUMERIC_SOURCE + DISPLAY_TARGET ),
      745    19968    3         %( ALPHANUMERIC_EDITED_SOURCE + DISPLAY_TARGET ),
      746    19969    3         %( ALPHANUMERIC_RJ_SOURCE + DISPLAY_TARGET ),
      747    19970    3         %( NUMERIC_EDITED_SOURCE + DISPLAY_TARGET ),
      748    19971
      749    19972                     /* Why the hell is this here?
      750    19973                        Also, compiler disallows:
      751    19974                          IF PACKED_TARGET = NUMERIC_EDITED_SOURCE THEN ...
      752    19975                        Strenge.  */
      753    19976    3         %( NUMERIC_EDITED_SOURCE + PACKED_TARGET )
      754    19977    3         );
      755    19978    3           CALL QCI$IFA;

  19978   1 0005AA  CBF0 0000                            LAB,B4   0,IMO
          1 0005AC  E380 0000 0000  xent                 LNJ,B6   QCI$IFA
PL6.E3A0      #001=QBV$VERI_PRES File=QBV$VERI_PRES.:E05TSI                      WED 07/30/97 04:57 Page:104
          1 0005AF       0001                            DC       s:19978+6,PREL
          1 0005B0  0F81 005F                            B        s:20039,PREL

      756    19979
      757    19980    3         CASE (

      758    19981                     /* Compiler disallows:
      759    19982                          IF BINARY_TARGET = NUMERIC_EDITED_SOURCE THEN ...
      760    19983                        Strenge.  */
      761    19984    3             %( NUMERIC_EDITED_SOURCE + BINARY_TARGET )
      762    19985    3             );
      763    19986    3           CALL SAVE_BINARY_TARGET;

  19986   1 0005B2  E3C0 0242                            LNJ,B6   s:0,PREL
          1 0005B4       0001                            DC       s:19987,PREL

      764    19987    3           CALL BINARY_TO_DECIMAL_TARGET;

  19987   1 0005B5  E3C0 02BF                            LNJ,B6   s:0,PREL
          1 0005B7       0001                            DC       s:19989,PREL

      765    19988
      766    19989    3           CALL QCI$IFA;

  19989   1 0005B8  CBF0 0000                            LAB,B4   0,IMO
          1 0005BA  E380 0000 0000  xent                 LNJ,B6   QCI$IFA
          1 0005BD       0001                            DC       s:19990,PREL

      767    19990    3           CALL RESTORE_BINARY_TARGET;

  19990   1 0005BE  E3C0 0336                            LNJ,B6   s:0,PREL
          1 0005C0       0001                            DC       s:19990+3,PREL
          1 0005C1  0F81 004E                            B        s:20039,PREL

      768    19991
      769    19992    3         CASE (

PL6.E3A0      #001=QBV$VERI_PRES File=QBV$VERI_PRES.:E05TSI                      WED 07/30/97 04:57 Page:105
      770    19993    3             %( DISPLAY_SOURCE + DISPLAY_TARGET ),
      771    19994    3             %( PACKED_SOURCE + DISPLAY_TARGET ),
      772    19995    3             %( DISPLAY_SOURCE + PACKED_TARGET ),
      773    19996    3             %( PACKED_SOURCE + PACKED_TARGET )
      774    19997    3             );
      775    19998    3           CALL QCI$IFN;

  19998   1 0005C3  CBF0 0000                            LAB,B4   0,IMO
          1 0005C5  E380 0000 0000  xent                 LNJ,B6   QCI$IFN
          1 0005C8       0001                            DC       s:19998+6,PREL
          1 0005C9  0F81 0046                            B        s:20039,PREL

      776    19999
      777    20000    3         CASE (

      778    20001    3             %( BINARY_SOURCE + DISPLAY_TARGET ),
      779    20002    3             %( BINARY_SOURCE + PACKED_TARGET )
      780    20003    3             );
      781    20004    3           CALL SAVE_BINARY_SOURCE;

  20004   1 0005CB  E3C0 020F                            LNJ,B6   s:0,PREL
          1 0005CD       0001                            DC       s:20005,PREL

      782    20005    3           CALL BINARY_TO_DECIMAL_SOURCE;

  20005   1 0005CE  E3C0 0244                            LNJ,B6   s:0,PREL
          1 0005D0       0001                            DC       s:20007,PREL

      783    20006
      784    20007    3           CALL QCI$IFN;

  20007   1 0005D1  CBF0 0000                            LAB,B4   0,IMO
          1 0005D3  E380 0000 0000  xent                 LNJ,B6   QCI$IFN
          1 0005D6       0001                            DC       s:20008,PREL

      785    20008    3           CALL RESTORE_BINARY_SOURCE;

PL6.E3A0      #001=QBV$VERI_PRES File=QBV$VERI_PRES.:E05TSI                      WED 07/30/97 04:57 Page:106
  20008   1 0005D7  E3C0 0303                            LNJ,B6   s:0,PREL
          1 0005D9       0001                            DC       s:20008+3,PREL
          1 0005DA  0F81 0035                            B        s:20039,PREL

      786    20009
      787    20010    3         CASE (

      788    20011    3             %( DISPLAY_SOURCE + BINARY_TARGET ),
      789    20012    3             %( PACKED_SOURCE + BINARY_TARGET )
      790    20013    3             );
      791    20014    3           CALL SAVE_BINARY_TARGET;

  20014   1 0005DC  E3C0 0218                            LNJ,B6   s:0,PREL
          1 0005DE       0001                            DC       s:20015,PREL

      792    20015    3           CALL BINARY_TO_DECIMAL_TARGET;

  20015   1 0005DF  E3C0 0295                            LNJ,B6   s:0,PREL
          1 0005E1       0001                            DC       s:20017,PREL

      793    20016
      794    20017    3           CALL QCI$IFN;

  20017   1 0005E2  CBF0 0000                            LAB,B4   0,IMO
          1 0005E4  E380 0000 0000  xent                 LNJ,B6   QCI$IFN
          1 0005E7       0001                            DC       s:20018,PREL

      795    20018    3           CALL RESTORE_BINARY_TARGET;

  20018   1 0005E8  E3C0 030C                            LNJ,B6   s:0,PREL
          1 0005EA       0001                            DC       s:20018+3,PREL
          1 0005EB  0F81 0024                            B        s:20039,PREL

      796    20019
      797    20020    3         CASE (

      798    20021    3             %( BINARY_SOURCE + BINARY_TARGET )
PL6.E3A0      #001=QBV$VERI_PRES File=QBV$VERI_PRES.:E05TSI                      WED 07/30/97 04:57 Page:107
      799    20022    3             );
      800    20023    3           CALL SAVE_BINARY_SOURCE;

  20023   1 0005ED  E3C0 01ED                            LNJ,B6   s:0,PREL
          1 0005EF       0001                            DC       s:20024,PREL

      801    20024    3           CALL BINARY_TO_DECIMAL_SOURCE;

  20024   1 0005F0  E3C0 0222                            LNJ,B6   s:0,PREL
          1 0005F2       0001                            DC       s:20025,PREL

      802    20025    3           CALL SAVE_BINARY_TARGET;

  20025   1 0005F3  E3C0 0201                            LNJ,B6   s:0,PREL
          1 0005F5       0001                            DC       s:20026,PREL

      803    20026    3           CALL BINARY_TO_DECIMAL_TARGET;

  20026   1 0005F6  E3C0 027E                            LNJ,B6   s:0,PREL
          1 0005F8       0001                            DC       s:20028,PREL

      804    20027
      805    20028    3           CALL QCI$IFN;

  20028   1 0005F9  CBF0 0000                            LAB,B4   0,IMO
          1 0005FB  E380 0000 0000  xent                 LNJ,B6   QCI$IFN
          1 0005FE       0001                            DC       s:20029,PREL

      806    20029    3           CALL RESTORE_BINARY_SOURCE;

  20029   1 0005FF  E3C0 02DB                            LNJ,B6   s:0,PREL
          1 000601       0001                            DC       s:20030,PREL

      807    20030    3           CALL RESTORE_BINARY_TARGET;

  20030   1 000602  E3C0 02F2                            LNJ,B6   s:0,PREL
          1 000604       0001                            DC       s:20030+3,PREL
PL6.E3A0      #001=QBV$VERI_PRES File=QBV$VERI_PRES.:E05TSI                      WED 07/30/97 04:57 Page:108
          1 000605  0F81 000A                            B        s:20039,PREL

      808    20031
      809    20032    3         CASE (

      810    20033    3             ELSE
      811    20034    3             );
      812    20035    3           CALL QCE$ERROR_INTERNAL ( %E$INTERNAL_COMPILER_ERROR );

  20035   1 000607  BB80 0000 0001  02                   LAB,B3   +1
          1 00060A  CBF0 0100                            LAB,B4   256,IMO
          1 00060C  E380 0000 0000  xent                 LNJ,B6   QCE$ERROR_INTERNAL
          1 00060F       0001                            DC       s:20039,PREL

      813    20036
      814    20037    3       END;

      815    20038
      816    20039    2       RETURN;

  20039   1 000610  ECC7 0134                            LDB,B6   QCU@USE+14,AUTO
          1 000612  C3C6 0001                            LNJ,B4   1,B6

      817    20040
      818    20041    2   END IF_IT;
      819    20042        %EJECT;
PL6.E3A0      #001=QBV$VERI_PRES File=QBV$VERI_PRES.:E05TSI                      WED 07/30/97 04:57 Page:109
      820    20043    1   MOVE_IT: PROC ( RESTORE_FLAG );

  20043   1 000614  EFC7 0134            MOVE_IT         STB,B6   QCU@USE+14,AUTO

      821    20044
      822    20045        /*I*  NAME:         MOVE_IT
      823    20046              PURPOSE:      Move a FIELD DAD's data to a COBOL DAD's data,
      824    20047                            or vicey-versey.
      825    20048              CALL:         CALL MOVE_IT;
      826    20049              PARAMETERS:   None.
      827    20050              DATA:         Stuff in QI_1.
      828    20051              DESCRIPTION:  We've got a FIELD DAD's data to move to a COBOL DAD,
      829    20052                            (PRESENT) or the other way around (VERIFY).  Some
      830    20053                            conversion may be required.  Using the QI_1.TYPEs
      831    20054                            of the two data items, call a special entry point in
      832    20055                            one or another of the QBM$MOVxxx routines to make the
      833    20056                            move.
      834    20057                            This is about my favorite module; I really dig the
      835    20058                            DO CASEs in this routine and in IF_IT.  Bet you thought
      836    20059                            we couldn't re-use that IF and/or MOVE code, eh?
      837    20060                            I really hate duplicated code.  JJL, C00.
      838    20061        */
      839    20062
      840    20063    2     DCL RESTORE_FLAG BIT(1) ALIGNED PARAM;
      841    20064
      842    20065    2       CALL BUILD_DOCASE_THING;

  20065   1 000616  E3C0 02F8                            LNJ,B6   s:0,PREL
          1 000618       0001                            DC       s:20067,PREL

      843    20066
      844    20067    3       DO CASE ( DOCASE_THING.EIGHT_BIT_DEAL );

  20067   1 000619  B2C7 000F                            LLH,R3   DOCASE_THING,AUTO
          1 00061B  3EDE                                 ADV,R3   -34
          1 00061C  B970 00DE                            CMR,R3   222,IMO
          1 00061E  0281 01AB                            BGE      s:20214,PREL
PL6.E3A0      #001=QBV$VERI_PRES File=QBV$VERI_PRES.:E05TSI                      WED 07/30/97 04:57 Page:110
          1 000620  A830 0000 0626  01                   LDR,R2   s:20067+13,R3
          1 000623  83A0 0000 0704  01                   JMP      s:20077,R2
          1 000626       0078                            DC       s:20157,PREL
          1 000627       00C6                            DC       s:20214,PREL
          1 000628       00C6                            DC       s:20214,PREL
          1 000629       00C6                            DC       s:20214,PREL
          1 00062A       0096                            DC       s:20175,PREL
          1 00062B       00C6                            DC       s:20214,PREL
          1 00062C       00C6                            DC       s:20214,PREL
          1 00062D       00C6                            DC       s:20214,PREL
          1 00062E       009E                            DC       s:20182,PREL
          1 00062F       00C6                            DC       s:20214,PREL
          1 000630       001E                            DC       s:20098,PREL
          1 000631       005A                            DC       s:20138,PREL
          1 000632       0000                            DC       s:20077,PREL
          1 000633       003C                            DC       s:20119,PREL
          1 000634       00C6                            DC       s:20214,PREL
          1 000635       00C6                            DC       s:20214,PREL
          1 000636       00C6                            DC       s:20214,PREL
          1 000637       00C6                            DC       s:20214,PREL
          1 000638       00C6                            DC       s:20214,PREL
          1 000639       00C6                            DC       s:20214,PREL
          1 00063A       00C6                            DC       s:20214,PREL
          1 00063B       00C6                            DC       s:20214,PREL
          1 00063C       00C6                            DC       s:20214,PREL
          1 00063D       00C6                            DC       s:20214,PREL
          1 00063E       00C6                            DC       s:20214,PREL
          1 00063F       00C6                            DC       s:20214,PREL
          1 000640       00C6                            DC       s:20214,PREL
          1 000641       00C6                            DC       s:20214,PREL
          1 000642       00C6                            DC       s:20214,PREL
          1 000643       00C6                            DC       s:20214,PREL
          1 000644       00C6                            DC       s:20214,PREL
          1 000645       00C6                            DC       s:20214,PREL
          1 000646       00C6                            DC       s:20214,PREL
          1 000647       00C6                            DC       s:20214,PREL
          1 000648       00C6                            DC       s:20214,PREL
PL6.E3A0      #001=QBV$VERI_PRES File=QBV$VERI_PRES.:E05TSI                      WED 07/30/97 04:57 Page:111
          1 000649       00C6                            DC       s:20214,PREL
          1 00064A       00C6                            DC       s:20214,PREL
          1 00064B       00C6                            DC       s:20214,PREL
          1 00064C       00C6                            DC       s:20214,PREL
          1 00064D       00C6                            DC       s:20214,PREL
          1 00064E       00C6                            DC       s:20214,PREL
          1 00064F       00C6                            DC       s:20214,PREL
          1 000650       00C6                            DC       s:20214,PREL
          1 000651       00C6                            DC       s:20214,PREL
          1 000652       00C6                            DC       s:20214,PREL
          1 000653       00C6                            DC       s:20214,PREL
          1 000654       00C6                            DC       s:20214,PREL
          1 000655       00C6                            DC       s:20214,PREL
          1 000656       00C6                            DC       s:20214,PREL
          1 000657       00C6                            DC       s:20214,PREL
          1 000658       00C6                            DC       s:20214,PREL
          1 000659       00C6                            DC       s:20214,PREL
          1 00065A       00C6                            DC       s:20214,PREL
          1 00065B       00C6                            DC       s:20214,PREL
          1 00065C       00C6                            DC       s:20214,PREL
          1 00065D       00C6                            DC       s:20214,PREL
          1 00065E       00C6                            DC       s:20214,PREL
          1 00065F       00C6                            DC       s:20214,PREL
          1 000660       00C6                            DC       s:20214,PREL
          1 000661       00C6                            DC       s:20214,PREL
          1 000662       00C6                            DC       s:20214,PREL
          1 000663       00C6                            DC       s:20214,PREL
          1 000664       00C6                            DC       s:20214,PREL
          1 000665       00C6                            DC       s:20214,PREL
          1 000666       0078                            DC       s:20157,PREL
          1 000667       00C6                            DC       s:20214,PREL
          1 000668       00C6                            DC       s:20214,PREL
          1 000669       00C6                            DC       s:20214,PREL
          1 00066A       00C6                            DC       s:20214,PREL
          1 00066B       00C6                            DC       s:20214,PREL
          1 00066C       00C6                            DC       s:20214,PREL
          1 00066D       00C6                            DC       s:20214,PREL
PL6.E3A0      #001=QBV$VERI_PRES File=QBV$VERI_PRES.:E05TSI                      WED 07/30/97 04:57 Page:112
          1 00066E       00C6                            DC       s:20214,PREL
          1 00066F       00C6                            DC       s:20214,PREL
          1 000670       001E                            DC       s:20098,PREL
          1 000671       005A                            DC       s:20138,PREL
          1 000672       0000                            DC       s:20077,PREL
          1 000673       003C                            DC       s:20119,PREL
          1 000674       00C6                            DC       s:20214,PREL
          1 000675       00C6                            DC       s:20214,PREL
          1 000676       00C6                            DC       s:20214,PREL
          1 000677       00C6                            DC       s:20214,PREL
          1 000678       00C6                            DC       s:20214,PREL
          1 000679       00C6                            DC       s:20214,PREL
          1 00067A       00C6                            DC       s:20214,PREL
          1 00067B       00C6                            DC       s:20214,PREL
          1 00067C       00C6                            DC       s:20214,PREL
          1 00067D       00C6                            DC       s:20214,PREL
          1 00067E       00C6                            DC       s:20214,PREL
          1 00067F       00C6                            DC       s:20214,PREL
          1 000680       00C6                            DC       s:20214,PREL
          1 000681       00C6                            DC       s:20214,PREL
          1 000682       00C6                            DC       s:20214,PREL
          1 000683       00C6                            DC       s:20214,PREL
          1 000684       00C6                            DC       s:20214,PREL
          1 000685       00C6                            DC       s:20214,PREL
          1 000686       00C6                            DC       s:20214,PREL
          1 000687       00C6                            DC       s:20214,PREL
          1 000688       00C6                            DC       s:20214,PREL
          1 000689       00C6                            DC       s:20214,PREL
          1 00068A       00C6                            DC       s:20214,PREL
          1 00068B       00C6                            DC       s:20214,PREL
          1 00068C       00C6                            DC       s:20214,PREL
          1 00068D       00C6                            DC       s:20214,PREL
          1 00068E       00C6                            DC       s:20214,PREL
          1 00068F       00C6                            DC       s:20214,PREL
          1 000690       00C6                            DC       s:20214,PREL
          1 000691       00C6                            DC       s:20214,PREL
          1 000692       00C6                            DC       s:20214,PREL
PL6.E3A0      #001=QBV$VERI_PRES File=QBV$VERI_PRES.:E05TSI                      WED 07/30/97 04:57 Page:113
          1 000693       00C6                            DC       s:20214,PREL
          1 000694       00C6                            DC       s:20214,PREL
          1 000695       00C6                            DC       s:20214,PREL
          1 000696       00C6                            DC       s:20214,PREL
          1 000697       00C6                            DC       s:20214,PREL
          1 000698       00C6                            DC       s:20214,PREL
          1 000699       00C6                            DC       s:20214,PREL
          1 00069A       00C6                            DC       s:20214,PREL
          1 00069B       00C6                            DC       s:20214,PREL
          1 00069C       00C6                            DC       s:20214,PREL
          1 00069D       00C6                            DC       s:20214,PREL
          1 00069E       00C6                            DC       s:20214,PREL
          1 00069F       00C6                            DC       s:20214,PREL
          1 0006A0       00C6                            DC       s:20214,PREL
          1 0006A1       00C6                            DC       s:20214,PREL
          1 0006A2       00C6                            DC       s:20214,PREL
          1 0006A3       00C6                            DC       s:20214,PREL
          1 0006A4       00C6                            DC       s:20214,PREL
          1 0006A5       00C6                            DC       s:20214,PREL
          1 0006A6       0080                            DC       s:20162,PREL
          1 0006A7       00C6                            DC       s:20214,PREL
          1 0006A8       00C6                            DC       s:20214,PREL
          1 0006A9       00C6                            DC       s:20214,PREL
          1 0006AA       00C6                            DC       s:20214,PREL
          1 0006AB       00C6                            DC       s:20214,PREL
          1 0006AC       00C6                            DC       s:20214,PREL
          1 0006AD       00C6                            DC       s:20214,PREL
          1 0006AE       00C6                            DC       s:20214,PREL
          1 0006AF       00C6                            DC       s:20214,PREL
          1 0006B0       0026                            DC       s:20103,PREL
          1 0006B1       0062                            DC       s:20143,PREL
          1 0006B2       0008                            DC       s:20082,PREL
          1 0006B3       0044                            DC       s:20124,PREL
          1 0006B4       00C6                            DC       s:20214,PREL
          1 0006B5       00C6                            DC       s:20214,PREL
          1 0006B6       00C6                            DC       s:20214,PREL
          1 0006B7       00C6                            DC       s:20214,PREL
PL6.E3A0      #001=QBV$VERI_PRES File=QBV$VERI_PRES.:E05TSI                      WED 07/30/97 04:57 Page:114
          1 0006B8       00C6                            DC       s:20214,PREL
          1 0006B9       00C6                            DC       s:20214,PREL
          1 0006BA       00C6                            DC       s:20214,PREL
          1 0006BB       00C6                            DC       s:20214,PREL
          1 0006BC       00C6                            DC       s:20214,PREL
          1 0006BD       00C6                            DC       s:20214,PREL
          1 0006BE       00C6                            DC       s:20214,PREL
          1 0006BF       00C6                            DC       s:20214,PREL
          1 0006C0       00C6                            DC       s:20214,PREL
          1 0006C1       00C6                            DC       s:20214,PREL
          1 0006C2       00C6                            DC       s:20214,PREL
          1 0006C3       00C6                            DC       s:20214,PREL
          1 0006C4       00C6                            DC       s:20214,PREL
          1 0006C5       00C6                            DC       s:20214,PREL
          1 0006C6       00C6                            DC       s:20214,PREL
          1 0006C7       00C6                            DC       s:20214,PREL
          1 0006C8       00C6                            DC       s:20214,PREL
          1 0006C9       00C6                            DC       s:20214,PREL
          1 0006CA       00C6                            DC       s:20214,PREL
          1 0006CB       00C6                            DC       s:20214,PREL
          1 0006CC       00C6                            DC       s:20214,PREL
          1 0006CD       00C6                            DC       s:20214,PREL
          1 0006CE       00C6                            DC       s:20214,PREL
          1 0006CF       00C6                            DC       s:20214,PREL
          1 0006D0       001E                            DC       s:20098,PREL
          1 0006D1       00C6                            DC       s:20214,PREL
          1 0006D2       0000                            DC       s:20077,PREL
          1 0006D3       003C                            DC       s:20119,PREL
          1 0006D4       00C6                            DC       s:20214,PREL
          1 0006D5       00C6                            DC       s:20214,PREL
          1 0006D6       00A6                            DC       s:20190,PREL
          1 0006D7       00C6                            DC       s:20214,PREL
          1 0006D8       00C6                            DC       s:20214,PREL
          1 0006D9       00C6                            DC       s:20214,PREL
          1 0006DA       00A6                            DC       s:20190,PREL
          1 0006DB       00C6                            DC       s:20214,PREL
          1 0006DC       00C6                            DC       s:20214,PREL
PL6.E3A0      #001=QBV$VERI_PRES File=QBV$VERI_PRES.:E05TSI                      WED 07/30/97 04:57 Page:115
          1 0006DD       00C6                            DC       s:20214,PREL
          1 0006DE       00A6                            DC       s:20190,PREL
          1 0006DF       00C6                            DC       s:20214,PREL
          1 0006E0       001E                            DC       s:20098,PREL
          1 0006E1       00C6                            DC       s:20214,PREL
          1 0006E2       0000                            DC       s:20077,PREL
          1 0006E3       003C                            DC       s:20119,PREL
          1 0006E4       00C6                            DC       s:20214,PREL
          1 0006E5       00C6                            DC       s:20214,PREL
          1 0006E6       0078                            DC       s:20157,PREL
          1 0006E7       00C6                            DC       s:20214,PREL
          1 0006E8       00C6                            DC       s:20214,PREL
          1 0006E9       00C6                            DC       s:20214,PREL
          1 0006EA       0096                            DC       s:20175,PREL
          1 0006EB       00C6                            DC       s:20214,PREL
          1 0006EC       00C6                            DC       s:20214,PREL
          1 0006ED       00C6                            DC       s:20214,PREL
          1 0006EE       009E                            DC       s:20182,PREL
          1 0006EF       00C6                            DC       s:20214,PREL
          1 0006F0       001E                            DC       s:20098,PREL
          1 0006F1       005A                            DC       s:20138,PREL
          1 0006F2       0000                            DC       s:20077,PREL
          1 0006F3       003C                            DC       s:20119,PREL
          1 0006F4       00C6                            DC       s:20214,PREL
          1 0006F5       00C6                            DC       s:20214,PREL
          1 0006F6       0078                            DC       s:20157,PREL
          1 0006F7       00C6                            DC       s:20214,PREL
          1 0006F8       00C6                            DC       s:20214,PREL
          1 0006F9       00C6                            DC       s:20214,PREL
          1 0006FA       0096                            DC       s:20175,PREL
          1 0006FB       00C6                            DC       s:20214,PREL
          1 0006FC       00C6                            DC       s:20214,PREL
          1 0006FD       00C6                            DC       s:20214,PREL
          1 0006FE       009E                            DC       s:20182,PREL
          1 0006FF       00C6                            DC       s:20214,PREL
          1 000700       001E                            DC       s:20098,PREL
          1 000701       005A                            DC       s:20138,PREL
PL6.E3A0      #001=QBV$VERI_PRES File=QBV$VERI_PRES.:E05TSI                      WED 07/30/97 04:57 Page:116
          1 000702       0000                            DC       s:20077,PREL
          1 000703       003C                            DC       s:20119,PREL

      845    20068
      846    20069    3         CASE (

      847    20070    3         %( ALPHANUMERIC_SOURCE + ALPHANUMERIC_TARGET ),
      848    20071    3         %( ALPHANUMERIC_EDITED_SOURCE + ALPHANUMERIC_TARGET ),
      849    20072    3         %( ALPHANUMERIC_RJ_SOURCE + ALPHANUMERIC_TARGET ),
      850    20073    3         %( NUMERIC_EDITED_SOURCE + ALPHANUMERIC_TARGET ),
      851    20074    3         %( DISPLAY_SOURCE + ALPHANUMERIC_TARGET ),
      852    20075    3         %( PACKED_SOURCE + ALPHANUMERIC_TARGET )
      853    20076    3         );
      854    20077    3           CALL QBM$MOVA_VP;

  20077   1 000704  CBF0 0000                            LAB,B4   0,IMO
          1 000706  E380 0000 0000  xent                 LNJ,B6   QBM$MOVA_VP
          1 000709       0001                            DC       s:20077+6,PREL
          1 00070A  0F81 00C8                            B        s:20218,PREL

      855    20078
      856    20079    3         CASE (

      857    20080    3             %( BINARY_SOURCE + ALPHANUMERIC_TARGET )
      858    20081    3             );
      859    20082    3           CALL SAVE_BINARY_SOURCE;

  20082   1 00070C  E3C0 00CE                            LNJ,B6   s:0,PREL
          1 00070E       0001                            DC       s:20083,PREL

      860    20083    3           CALL BINARY_TO_DECIMAL_SOURCE;

  20083   1 00070F  E3C0 0103                            LNJ,B6   s:0,PREL
          1 000711       0001                            DC       s:20085,PREL

      861    20084
      862    20085    3           CALL QBM$MOVA_VP;
PL6.E3A0      #001=QBV$VERI_PRES File=QBV$VERI_PRES.:E05TSI                      WED 07/30/97 04:57 Page:117

  20085   1 000712  CBF0 0000                            LAB,B4   0,IMO
          1 000714  E380 0000 0000  xent                 LNJ,B6   QBM$MOVA_VP
          1 000717       0001                            DC       s:20086,PREL

      863    20086    3           IF RESTORE_FLAG

  20086   1 000718  ECC7 0136                            LDB,B6   @RESTORE_FLAG,AUTO
          1 00071A  8986                                 CMZ      ,B6
          1 00071B  0881 00B7                            BAGE     s:20218,PREL

      864    20087    3           THEN
      865    20088    3             CALL RESTORE_BINARY_SOURCE;

  20088   1 00071D  E3C0 01BD                            LNJ,B6   s:0,PREL
          1 00071F       0001                            DC       s:20088+3,PREL
          1 000720  0F81 00B2                            B        s:20218,PREL

      866    20089
      867    20090    3         CASE (

      868    20091    3               %( ALPHANUMERIC_SOURCE + ALPHANUMERIC_EDITED_TARGET ),
      869    20092    3               %( ALPHANUMERIC_EDITED_SOURCE + ALPHANUMERIC_EDITED_TARGET ),
      870    20093    3               %( ALPHANUMERIC_RJ_SOURCE + ALPHANUMERIC_EDITED_TARGET ),
      871    20094    3               %( NUMERIC_EDITED_SOURCE + ALPHANUMERIC_EDITED_TARGET ),
      872    20095    3               %( DISPLAY_SOURCE + ALPHANUMERIC_EDITED_TARGET ),
      873    20096    3               %( PACKED_SOURCE + ALPHANUMERIC_EDITED_TARGET )
      874    20097    3               );
      875    20098    3           CALL QBM$MOVAE_VP;

  20098   1 000722  CBF0 0000                            LAB,B4   0,IMO
          1 000724  E380 0000 0000  xent                 LNJ,B6   QBM$MOVAE_VP
          1 000727       0001                            DC       s:20098+6,PREL
          1 000728  0F81 00AA                            B        s:20218,PREL

      876    20099
      877    20100    3         CASE (
PL6.E3A0      #001=QBV$VERI_PRES File=QBV$VERI_PRES.:E05TSI                      WED 07/30/97 04:57 Page:118

      878    20101    3             %( BINARY_SOURCE + ALPHANUMERIC_EDITED_TARGET )
      879    20102    3             );
      880    20103    3           CALL SAVE_BINARY_SOURCE;

  20103   1 00072A  E3C0 00B0                            LNJ,B6   s:0,PREL
          1 00072C       0001                            DC       s:20104,PREL

      881    20104    3           CALL BINARY_TO_DECIMAL_SOURCE;

  20104   1 00072D  E3C0 00E5                            LNJ,B6   s:0,PREL
          1 00072F       0001                            DC       s:20106,PREL

      882    20105
      883    20106    3           CALL QBM$MOVAE_VP;

  20106   1 000730  CBF0 0000                            LAB,B4   0,IMO
          1 000732  E380 0000 0000  xent                 LNJ,B6   QBM$MOVAE_VP
          1 000735       0001                            DC       s:20107,PREL

      884    20107    3           IF RESTORE_FLAG

  20107   1 000736  ECC7 0136                            LDB,B6   @RESTORE_FLAG,AUTO
          1 000738  8986                                 CMZ      ,B6
          1 000739  0881 0099                            BAGE     s:20218,PREL

      885    20108    3           THEN
      886    20109    3             CALL RESTORE_BINARY_SOURCE;

  20109   1 00073B  E3C0 019F                            LNJ,B6   s:0,PREL
          1 00073D       0001                            DC       s:20109+3,PREL
          1 00073E  0F81 0094                            B        s:20218,PREL

      887    20110
      888    20111    3         CASE (

      889    20112    3               %( ALPHANUMERIC_SOURCE + ALPHANUMERIC_RJ_TARGET ),
PL6.E3A0      #001=QBV$VERI_PRES File=QBV$VERI_PRES.:E05TSI                      WED 07/30/97 04:57 Page:119
      890    20113    3               %( ALPHANUMERIC_EDITED_SOURCE + ALPHANUMERIC_RJ_TARGET ),
      891    20114    3               %( ALPHANUMERIC_RJ_SOURCE + ALPHANUMERIC_RJ_TARGET ),
      892    20115    3               %( NUMERIC_EDITED_SOURCE + ALPHANUMERIC_RJ_TARGET ),
      893    20116    3               %( DISPLAY_SOURCE + ALPHANUMERIC_RJ_TARGET ),
      894    20117    3               %( PACKED_SOURCE + ALPHANUMERIC_RJ_TARGET )
      895    20118    3               );
      896    20119    3           CALL QBM$MOVAJ_VP;

  20119   1 000740  CBF0 0000                            LAB,B4   0,IMO
          1 000742  E380 0000 0000  xent                 LNJ,B6   QBM$MOVAJ_VP
          1 000745       0001                            DC       s:20119+6,PREL
          1 000746  0F81 008C                            B        s:20218,PREL

      897    20120
      898    20121    3         CASE (

      899    20122    3             %( BINARY_SOURCE + ALPHANUMERIC_RJ_TARGET )
      900    20123    3             );
      901    20124    3           CALL SAVE_BINARY_SOURCE;

  20124   1 000748  E3C0 0092                            LNJ,B6   s:0,PREL
          1 00074A       0001                            DC       s:20125,PREL

      902    20125    3           CALL BINARY_TO_DECIMAL_SOURCE;

  20125   1 00074B  E3C0 00C7                            LNJ,B6   s:0,PREL
          1 00074D       0001                            DC       s:20127,PREL

      903    20126
      904    20127    3           CALL QBM$MOVAJ_VP;

  20127   1 00074E  CBF0 0000                            LAB,B4   0,IMO
          1 000750  E380 0000 0000  xent                 LNJ,B6   QBM$MOVAJ_VP
          1 000753       0001                            DC       s:20128,PREL

      905    20128    3           IF RESTORE_FLAG

PL6.E3A0      #001=QBV$VERI_PRES File=QBV$VERI_PRES.:E05TSI                      WED 07/30/97 04:57 Page:120
  20128   1 000754  ECC7 0136                            LDB,B6   @RESTORE_FLAG,AUTO
          1 000756  8986                                 CMZ      ,B6
          1 000757  0881 007B                            BAGE     s:20218,PREL

      906    20129    3           THEN
      907    20130    3             CALL RESTORE_BINARY_SOURCE;

  20130   1 000759  E3C0 0181                            LNJ,B6   s:0,PREL
          1 00075B       0001                            DC       s:20130+3,PREL
          1 00075C  0F81 0076                            B        s:20218,PREL

      908    20131
      909    20132    3         CASE (

      910    20133    3               %( ALPHANUMERIC_SOURCE + NUMERIC_EDITED_TARGET ),
      911    20134    3               %( ALPHANUMERIC_RJ_SOURCE + NUMERIC_EDITED_TARGET ),
      912    20135    3               %( DISPLAY_SOURCE + NUMERIC_EDITED_TARGET ),
      913    20136    3               %( PACKED_SOURCE + NUMERIC_EDITED_TARGET )
      914    20137    3               );
      915    20138    3           CALL QBM$MOVNE_VP;

  20138   1 00075E  CBF0 0000                            LAB,B4   0,IMO
          1 000760  E380 0000 0000  xent                 LNJ,B6   QBM$MOVNE_VP
          1 000763       0001                            DC       s:20138+6,PREL
          1 000764  0F81 006E                            B        s:20218,PREL

      916    20139
      917    20140    3         CASE (

      918    20141    3             %( BINARY_SOURCE + NUMERIC_EDITED_TARGET )
      919    20142    3             );
      920    20143    3           CALL SAVE_BINARY_SOURCE;

  20143   1 000766  E3C0 0074                            LNJ,B6   s:0,PREL
          1 000768       0001                            DC       s:20144,PREL

      921    20144    3           CALL BINARY_TO_DECIMAL_SOURCE;
PL6.E3A0      #001=QBV$VERI_PRES File=QBV$VERI_PRES.:E05TSI                      WED 07/30/97 04:57 Page:121

  20144   1 000769  E3C0 00A9                            LNJ,B6   s:0,PREL
          1 00076B       0001                            DC       s:20146,PREL

      922    20145
      923    20146    3           CALL QBM$MOVNE_VP;

  20146   1 00076C  CBF0 0000                            LAB,B4   0,IMO
          1 00076E  E380 0000 0000  xent                 LNJ,B6   QBM$MOVNE_VP
          1 000771       0001                            DC       s:20147,PREL

      924    20147    3           IF RESTORE_FLAG

  20147   1 000772  ECC7 0136                            LDB,B6   @RESTORE_FLAG,AUTO
          1 000774  8986                                 CMZ      ,B6
          1 000775  0881 005D                            BAGE     s:20218,PREL

      925    20148    3           THEN
      926    20149    3             CALL RESTORE_BINARY_SOURCE;

  20149   1 000777  E3C0 0163                            LNJ,B6   s:0,PREL
          1 000779       0001                            DC       s:20149+3,PREL
          1 00077A  0F81 0058                            B        s:20218,PREL

      927    20150
      928    20151    3         CASE (

      929    20152    3               %( ALPHANUMERIC_SOURCE + DISPLAY_TARGET ),
      930    20153    3               %( ALPHANUMERIC_RJ_SOURCE + DISPLAY_TARGET ),
      931    20154    3               %( DISPLAY_SOURCE + DISPLAY_TARGET ),
      932    20155    3               %( PACKED_SOURCE + DISPLAY_TARGET )
      933    20156    3               );
      934    20157    3           CALL QBM$MOVN_VP;

  20157   1 00077C  CBF0 0000                            LAB,B4   0,IMO
          1 00077E  E380 0000 0000  xent                 LNJ,B6   QBM$MOVN_VP
          1 000781       0001                            DC       s:20157+6,PREL
PL6.E3A0      #001=QBV$VERI_PRES File=QBV$VERI_PRES.:E05TSI                      WED 07/30/97 04:57 Page:122
          1 000782  0F81 0050                            B        s:20218,PREL

      935    20158
      936    20159    3         CASE (

      937    20160    3             %( BINARY_SOURCE + DISPLAY_TARGET )
      938    20161    3             );
      939    20162    3           CALL SAVE_BINARY_SOURCE;

  20162   1 000784  E3C0 0056                            LNJ,B6   s:0,PREL
          1 000786       0001                            DC       s:20163,PREL

      940    20163    3           CALL BINARY_TO_DECIMAL_SOURCE;

  20163   1 000787  E3C0 008B                            LNJ,B6   s:0,PREL
          1 000789       0001                            DC       s:20165,PREL

      941    20164
      942    20165    3           CALL QBM$MOVN_VP;

  20165   1 00078A  CBF0 0000                            LAB,B4   0,IMO
          1 00078C  E380 0000 0000  xent                 LNJ,B6   QBM$MOVN_VP
          1 00078F       0001                            DC       s:20166,PREL

      943    20166    3           IF RESTORE_FLAG

  20166   1 000790  ECC7 0136                            LDB,B6   @RESTORE_FLAG,AUTO
          1 000792  8986                                 CMZ      ,B6
          1 000793  0881 003F                            BAGE     s:20218,PREL

      944    20167    3           THEN
      945    20168    3             CALL RESTORE_BINARY_SOURCE;

  20168   1 000795  E3C0 0145                            LNJ,B6   s:0,PREL
          1 000797       0001                            DC       s:20168+3,PREL
          1 000798  0F81 003A                            B        s:20218,PREL

PL6.E3A0      #001=QBV$VERI_PRES File=QBV$VERI_PRES.:E05TSI                      WED 07/30/97 04:57 Page:123
      946    20169
      947    20170    3         CASE (

      948    20171    3               %( ALPHANUMERIC_SOURCE + PACKED_TARGET ),
      949    20172    3               %( ALPHANUMERIC_RJ_SOURCE + PACKED_TARGET ),
      950    20173    3               %( DISPLAY_SOURCE + PACKED_TARGET )
      951    20174    3               );
      952    20175    3           CALL QBM$MOVP_VP;

  20175   1 00079A  CBF0 0000                            LAB,B4   0,IMO
          1 00079C  E380 0000 0000  xent                 LNJ,B6   QBM$MOVP_VP
          1 00079F       0001                            DC       s:20175+6,PREL
          1 0007A0  0F81 0032                            B        s:20218,PREL

      953    20176
      954    20177    3         CASE (

      955    20178    3             %( ALPHANUMERIC_SOURCE + BINARY_TARGET ),
      956    20179    3             %( ALPHANUMERIC_RJ_SOURCE + BINARY_TARGET ),
      957    20180    3             %( DISPLAY_SOURCE + BINARY_TARGET )
      958    20181    3             );
      959    20182    3           CALL QBM$MOVB_VP;

  20182   1 0007A2  CBF0 0000                            LAB,B4   0,IMO
          1 0007A4  E380 0000 0000  xent                 LNJ,B6   QBM$MOVB_VP
          1 0007A7       0001                            DC       s:20182+6,PREL
          1 0007A8  0F81 002A                            B        s:20218,PREL

      960    20183
      961    20184    3         CASE (

      962    20185                     /*  DE-EDITing wierdnesses.  */
      963    20186    3             %( NUMERIC_EDITED_SOURCE + DISPLAY_TARGET ),
      964    20187    3             %( NUMERIC_EDITED_SOURCE + PACKED_TARGET ),
      965    20188    3             %( NUMERIC_EDITED_SOURCE + BINARY_TARGET )
      966    20189    3             );
      967    20190    3           QI_1.OP.LEN_A (%QI#DE_EDIT) = QI_1.OP.LEN_A (%QI#SOURCE);
PL6.E3A0      #001=QBV$VERI_PRES File=QBV$VERI_PRES.:E05TSI                      WED 07/30/97 04:57 Page:124

  20190   1 0007AA  E800 0000 0026  xsym                 LDR,R6   QI_1+38
          1 0007AD  EF00 0000 0028  xsym                 STR,R6   QI_1+40

      968    20191    3           QI_1.OFFSET_A (%QI#DE_EDIT) = QI_1.OFFSET_A (%QI#SOURCE);

  20191   1 0007B0  D800 0000 0041  xsym                 LDR,R5   QI_1+65
          1 0007B3  DF00 0000 0043  xsym                 STR,R5   QI_1+67

      969    20192    3           QI_1.OP.DATA_A$ (%QI#DE_EDIT) = QI_1.OP.DATA_A$ (%QI#SOURCE);

  20192   1 0007B6  EC80 0000 0020  xsym                 LDB,B6   QI_1+32
          1 0007B9  EF80 0000 0024  xsym                 STB,B6   QI_1+36

      970    20193    3           QI_1.PICTURE_STRING_A$ (%QI#DE_EDIT) = QI_1.PICTURE_STRING_A$ (%QI#SOURCE);

  20193   1 0007BC  DC80 0000 004A  xsym                 LDB,B5   QI_1+74
          1 0007BF  DF80 0000 004E  xsym                 STB,B5   QI_1+78

      971    20194
      972    20195    3           CALL QBM$MOVDE_VP;

  20195   1 0007C2  CBF0 0000                            LAB,B4   0,IMO
          1 0007C4  E380 0000 0000  xent                 LNJ,B6   QBM$MOVDE_VP
          1 0007C7       0001                            DC       s:20195+6,PREL
          1 0007C8  0F81 000A                            B        s:20218,PREL

      973    20196
      974    20197    3         CASE (

      975    20198    3             ELSE,
      976    20199                  /*  Two special groups of weirdies here:
      977    20200                      1)  illegal MOVE conversions (see FPL manual);  */
      978    20201    3             %( NUMERIC_EDITED_SOURCE + NUMERIC_EDITED_TARGET ),
      979    20202    3             %( ALPHANUMERIC_EDITED_SOURCE + NUMERIC_EDITED_TARGET ),
      980    20203    3             %( ALPHANUMERIC_EDITED_SOURCE + DISPLAY_TARGET ),
      981    20204    3             %( ALPHANUMERIC_EDITED_SOURCE + PACKED_TARGET ),
PL6.E3A0      #001=QBV$VERI_PRES File=QBV$VERI_PRES.:E05TSI                      WED 07/30/97 04:57 Page:125
      982    20205    3             %( ALPHANUMERIC_EDITED_SOURCE + BINARY_TARGET ),
      983    20206                  /*  2)  the screen item can't be PACKED or BINARY,
      984    20207                          so if both operands are PACKED, BINARY,
      985    20208                          or some combination, then something's wrong.  */
      986    20209    3             %( PACKED_SOURCE + PACKED_TARGET ),
      987    20210    3             %( BINARY_SOURCE + PACKED_TARGET ),
      988    20211    3             %( PACKED_SOURCE + BINARY_TARGET ),
      989    20212    3             %( BINARY_SOURCE + BINARY_TARGET )
      990    20213    3             );
      991    20214    3           CALL QCE$ERROR_INTERNAL ( %E$INTERNAL_COMPILER_ERROR );

  20214   1 0007CA  BB80 0000 0001  02                   LAB,B3   +1
          1 0007CD  CBF0 0100                            LAB,B4   256,IMO
          1 0007CF  E380 0000 0000  xent                 LNJ,B6   QCE$ERROR_INTERNAL
          1 0007D2       0001                            DC       s:20218,PREL

      992    20215
      993    20216    3       END;

      994    20217
      995    20218    2       RETURN;

  20218   1 0007D3  ECC7 0134                            LDB,B6   QCU@USE+14,AUTO
          1 0007D5  C3C6 0001                            LNJ,B4   1,B6

      996    20219
      997    20220    2   END MOVE_IT;
      998    20221        %EJECT;
PL6.E3A0      #001=QBV$VERI_PRES File=QBV$VERI_PRES.:E05TSI                      WED 07/30/97 04:57 Page:126
      999    20222    1   SAVE_BINARY_THING: PROC;

  20222   1 0007D7  EFC7 0138            SAVE_BINARY_THI*STB,B6   @RESTORE_FLAG+2,AUTO
          1 0007D9  0F81 0003                            B        s:20225,PREL

     1000    20223
     1001    20224    2   SAVE_BINARY_SOURCE: ENTRY;

  20224   1 0007DB  EFC7 0138            SAVE_BINARY_SOU*STB,B6   @RESTORE_FLAG+2,AUTO

     1002    20225    2       SAVED_BINARY_CIP_SOURCE = QI_1.OP.CIP.S_A (0);

  20225   1 0007DD  E800 0000 001A  xsym                 LDR,R6   QI_1+26
          1 0007E0  EF47 002E                            STR,R6   SAVED_BINARY_CIP_SOURCE,AUTO

     1003    20226    2       SAVED_BINARY_DATA_SOURCE$ = QI_1.OP.DATA.S$;

  20226   1 0007E2  DC80 0000 0020  xsym                 LDB,B5   QI_1+32
          1 0007E5  DFC7 0030                            STB,B5   SAVED_BINARY_DATA_SOURCE$,AUTO

     1004    20227    2       SAVED_BINARY_LEN_SOURCE = QI_1.OP.LEN.S;

  20227   1 0007E7  D800 0000 0026  xsym                 LDR,R5   QI_1+38
          1 0007EA  DF47 0034                            STR,R5   SAVED_BINARY_LEN_SOURCE,AUTO

     1005    20228    2       SAVED_BINARY_TYPE_SOURCE = QI_1.TYPE.S;

  20228   1 0007EC  C800 0000 0050  xsym                 LDR,R4   QI_1+80
          1 0007EF  CF47 0036                            STR,R4   SAVED_BINARY_TYPE_SOURCE,AUTO

     1006    20229
     1007    20230    2       RETURN;

  20230   1 0007F1  ECC7 0138                            LDB,B6   @RESTORE_FLAG+2,AUTO
          1 0007F3  C3C6 0001                            LNJ,B4   1,B6

     1008    20231
PL6.E3A0      #001=QBV$VERI_PRES File=QBV$VERI_PRES.:E05TSI                      WED 07/30/97 04:57 Page:127
     1009    20232    2   SAVE_BINARY_TARGET: ENTRY;

  20232   1 0007F5  EFC7 0138            SAVE_BINARY_TAR*STB,B6   @RESTORE_FLAG+2,AUTO

     1010    20233    2       SAVED_BINARY_CIP_TARGET = QI_1.OP.CIP.T_A (0);

  20233   1 0007F7  E800 0000 001C  xsym                 LDR,R6   QI_1+28
          1 0007FA  EF47 002F                            STR,R6   SAVED_BINARY_CIP_TARGET,AUTO

     1011    20234    2       SAVED_BINARY_DATA_TARGET$ = QI_1.OP.DATA.T$;

  20234   1 0007FC  DC80 0000 0022  xsym                 LDB,B5   QI_1+34
          1 0007FF  DFC7 0032                            STB,B5   SAVED_BINARY_DATA_TARGET$,AUTO

     1012    20235    2       SAVED_BINARY_LEN_TARGET = QI_1.OP.LEN.T;

  20235   1 000801  D800 0000 0027  xsym                 LDR,R5   QI_1+39
          1 000804  DF47 0035                            STR,R5   SAVED_BINARY_LEN_TARGET,AUTO

     1013    20236    2       SAVED_BINARY_TYPE_TARGET = QI_1.TYPE.T;

  20236   1 000806  C800 0000 0051  xsym                 LDR,R4   QI_1+81
          1 000809  CF47 0037                            STR,R4   SAVED_BINARY_TYPE_TARGET,AUTO

     1014    20237
     1015    20238    2       RETURN;

  20238   1 00080B  ECC7 0138                            LDB,B6   @RESTORE_FLAG+2,AUTO
          1 00080D  C3C6 0001                            LNJ,B4   1,B6

     1016    20239
     1017    20240    2   END SAVE_BINARY_THING;
     1018    20241        %EJECT;
PL6.E3A0      #001=QBV$VERI_PRES File=QBV$VERI_PRES.:E05TSI                      WED 07/30/97 04:57 Page:128
     1019    20242    1   BINARY_TO_DECIMAL: PROC;

  20242   1 00080F  EFC7 0138            BINARY_TO_DECIM*STB,B6   @RESTORE_FLAG+2,AUTO
          1 000811  0F81 0003                            B        s:20927,PREL

     1020    20243
     1021    20244        /*I*  NAME:         BINARY_TO_DECIMAL
     1022    20245              PURPOSE:      Convert an item from binary to decimal.  (Sheesh.)
     1023    20246              CALL:         CALL BINARY_TO_DECIMAL_SOURCE;
     1024    20247                            CALL BINARY_TO_DECIMAL_TARGET;
     1025    20248              PARAMETERS:   None.
     1026    20249              DATA:         Stuff in QI_1,
     1027    20250                            stuff in QI_TYPE_DISPLAY_TARGET.
     1028    20251              DESCRIPTION:  Convert the data pointed to by QI_1.OP.DATA.S$
     1029    20252                            from binary to decimal (via BINARY_TO_DECIMAL_SOURCE),
     1030    20253                            or the data pointed to by QI_1.OP.DATA.T$
     1031    20254                            from binary to decimal (via BINARY_TO_DECIMAL_TARGET).
     1032    20255                            I know this is a duplication of stuff in the
     1033    20256                            QBC$CONVERSIONS routines, but for some reason I can't
     1034    20257                            remember now I decided not to use that stuff.  JJL, C00.
     1035    20258        */
     1036    20259
     1037    20260          %QI@TYPE_DISPLAY_TARGET;
     1038    20925
     1039    20926    2   BINARY_TO_DECIMAL_SOURCE: ENTRY;

  20926   1 000813  EFC7 0138            BINARY_TO_DECIM*STB,B6   @RESTORE_FLAG+2,AUTO

     1040    20927    2       QI@TYPE_DISPLAY_TARGET = QI_TYPE_DISPLAY_TARGET;

  20927   1 000815  AB80 0000 0000  xsym                 LAB,B2   QI_TYPE_DISPLAY_TARGET
          1 000818  2C00                                 LDV,R2   0
          1 000819  6C30                                 LDV,R6   48
          1 00081A  BBC7 013A                            LAB,B3   QI@TYPE_DISPLAY_TARGET,AUTO
          1 00081C  3C00                                 LDV,R3   0
          1 00081D  0008                                 MMM

PL6.E3A0      #001=QBV$VERI_PRES File=QBV$VERI_PRES.:E05TSI                      WED 07/30/97 04:57 Page:129
     1041    20928    2       QI@TYPE_DISPLAY_TARGET.CIP.S_A (0) = QI_1.OP.CIP.S_A (0);

  20928   1 00081E  E800 0000 001A  xsym                 LDR,R6   QI_1+26
          1 000821  EF47 013A                            STR,R6   QI@TYPE_DISPLAY_TARGET,AUTO

     1042    20929    2       QI@TYPE_DISPLAY_TARGET.DATA.S$ = QI_1.OP.DATA.S$;

  20929   1 000823  EC80 0000 0020  xsym                 LDB,B6   QI_1+32
          1 000826  EFC7 0140                            STB,B6   QI@TYPE_DISPLAY_TARGET+6,AUTO

     1043    20930    2       IF QI_1.OP.LEN.S = %QI#MIN_BINARY_LENGTH

  20930   1 000828  D800 0000 0026  xsym                 LDR,R5   QI_1+38
          1 00082B  5D02                                 CMV,R5   2
          1 00082C  0981 0008                            BNE      s:20934,PREL

     1044    20931    2       THEN
     1045    20932    2         QI@TYPE_DISPLAY_TARGET.CIP.T.LEN = %QI#MIN_BINARY_DIGIT_COUNT;

  20932   1 00082E  C870 0500                            LDR,R4   1280,IMO
          1 000830  CAC7 013C                            SRM,R4,'1F00'X    QI@TYPE_DISPLAY_TARGET+2,AUTO
          1 000832       1F00
          1 000833  0F81 0006                            B        s:20935,PREL

     1046    20933    2       ELSE
     1047    20934    2         QI@TYPE_DISPLAY_TARGET.CIP.T.LEN = %QI#MAX_BINARY_DIGIT_COUNT;

  20934   1 000835  C870 0A00                            LDR,R4   2560,IMO
          1 000837  CAC7 013C                            SRM,R4,'1F00'X    QI@TYPE_DISPLAY_TARGET+2,AUTO
          1 000839       1F00

     1048    20935    2       QI@TYPE_DISPLAY_TARGET.CIP.T.CD.SIGN = %QI#CD_SIGN_TRAILING_OVER;

  20935   1 00083A  C870 2000                            LDR,R4   8192,IMO
          1 00083C  CAC7 013C                            SRM,R4,'6000'X    QI@TYPE_DISPLAY_TARGET+2,AUTO
          1 00083E       6000

PL6.E3A0      #001=QBV$VERI_PRES File=QBV$VERI_PRES.:E05TSI                      WED 07/30/97 04:57 Page:130
     1049    20936    2       QI@TYPE_DISPLAY_TARGET.DATA.T$ = ADDR ( OTTER_DECIMAL_SOURCE );

  20936   1 00083F  DBC7 00E4                            LAB,B5   OTTER_DECIMAL_SOURCE,AUTO
          1 000841  DFC7 0142                            STB,B5   QI@TYPE_DISPLAY_TARGET+8,AUTO

     1050    20937    2       QI@TYPE_DISPLAY_TARGET.SIZE_ERROR = %QI#DONT_CHECK_FOR_SIZE_ERROR;

  20937   1 000843  8747 0150                            CL       QI@TYPE_DISPLAY_TARGET+22,AUTO

     1051    20938
     1052    20939    2       CALL QCC$CBD ( QI@TYPE_DISPLAY_TARGET )

  20939   1 000845  CBC7 013A                            LAB,B4   QI@TYPE_DISPLAY_TARGET,AUTO
          1 000847  CFC7 0152                            STB,B4   QI@TYPE_DISPLAY_TARGET+24,AUTO
          1 000849  BBC7 0152                            LAB,B3   QI@TYPE_DISPLAY_TARGET+24,AUTO
          1 00084B  CBF0 0100                            LAB,B4   256,IMO
          1 00084D  E380 0000 0000  xent                 LNJ,B6   QCC$CBD
          1 000850       0003                            DC       s:20942,PREL
          1 000851  0F81 000A                            B        s:20945,PREL

     1053    20940    2       WHENALTRETURN
     1054    20941    3         DO;

     1055    20942    3           CALL QCE$ERROR_INTERNAL ( %E$UNEXPECTED_QCC_ALTRET );

  20942   1 000853  BB80 0000 0009  02                   LAB,B3   +9
          1 000856  CBF0 0100                            LAB,B4   256,IMO
          1 000858  E380 0000 0000  xent                 LNJ,B6   QCE$ERROR_INTERNAL
          1 00085B       0001                            DC       s:20945,PREL

     1056    20943    3         END;

     1057    20944
     1058    20945    2       QI_1.OP.CIP.S_A (0) = QI@TYPE_DISPLAY_TARGET.CIP.T_A (0);

  20945   1 00085C  E847 013C                            LDR,R6   QI@TYPE_DISPLAY_TARGET+2,AUTO
          1 00085E  EF00 0000 001A  xsym                 STR,R6   QI_1+26
PL6.E3A0      #001=QBV$VERI_PRES File=QBV$VERI_PRES.:E05TSI                      WED 07/30/97 04:57 Page:131

     1059    20946    2       QI_1.OP.DATA.S$ = QI@TYPE_DISPLAY_TARGET.DATA.T$;

  20946   1 000861  ECC7 0142                            LDB,B6   QI@TYPE_DISPLAY_TARGET+8,AUTO
          1 000863  EF80 0000 0020  xsym                 STB,B6   QI_1+32

     1060    20947    2       QI_1.OP.LEN.S = QI@TYPE_DISPLAY_TARGET.CIP.T.LEN;

  20947   1 000866  D847 013C                            LDR,R5   QI@TYPE_DISPLAY_TARGET+2,AUTO
          1 000868  5048                                 SOR,R5   8
          1 000869  D570 001F                            AND,R5   31,IMO
          1 00086B  DF00 0000 0026  xsym                 STR,R5   QI_1+38

     1061    20948    2       QI_1.TYPE.S = %QI#TYPE_DISPLAY;

  20948   1 00086E  8700 0000 0050  xsym                 CL       QI_1+80

     1062    20949
     1063    20950    2       RETURN;

  20950   1 000871  ECC7 0138                            LDB,B6   @RESTORE_FLAG+2,AUTO
          1 000873  C3C6 0001                            LNJ,B4   1,B6

     1064    20951
     1065    20952    2   BINARY_TO_DECIMAL_TARGET: ENTRY;

  20952   1 000875  EFC7 0138            BINARY_TO_DECIM*STB,B6   @RESTORE_FLAG+2,AUTO

     1066    20953    2       QI@TYPE_DISPLAY_TARGET = QI_TYPE_DISPLAY_TARGET;

  20953   1 000877  AB80 0000 0000  xsym                 LAB,B2   QI_TYPE_DISPLAY_TARGET
          1 00087A  2C00                                 LDV,R2   0
          1 00087B  6C30                                 LDV,R6   48
          1 00087C  BBC7 013A                            LAB,B3   QI@TYPE_DISPLAY_TARGET,AUTO
          1 00087E  3C00                                 LDV,R3   0
          1 00087F  0008                                 MMM

PL6.E3A0      #001=QBV$VERI_PRES File=QBV$VERI_PRES.:E05TSI                      WED 07/30/97 04:57 Page:132
     1067    20954    2       QI@TYPE_DISPLAY_TARGET.CIP.S_A (0) = QI_1.OP.CIP.T_A (0);

  20954   1 000880  E800 0000 001C  xsym                 LDR,R6   QI_1+28
          1 000883  EF47 013A                            STR,R6   QI@TYPE_DISPLAY_TARGET,AUTO

     1068    20955    2       QI@TYPE_DISPLAY_TARGET.DATA.S$ = QI_1.OP.DATA.T$;

  20955   1 000885  EC80 0000 0022  xsym                 LDB,B6   QI_1+34
          1 000888  EFC7 0140                            STB,B6   QI@TYPE_DISPLAY_TARGET+6,AUTO

     1069    20956    2       IF QI_1.OP.LEN.T = %QI#MIN_BINARY_LENGTH

  20956   1 00088A  D800 0000 0027  xsym                 LDR,R5   QI_1+39
          1 00088D  5D02                                 CMV,R5   2
          1 00088E  0981 0008                            BNE      s:20960,PREL

     1070    20957    2       THEN
     1071    20958    2         QI@TYPE_DISPLAY_TARGET.CIP.T.LEN = %QI#MIN_BINARY_DIGIT_COUNT;

  20958   1 000890  C870 0500                            LDR,R4   1280,IMO
          1 000892  CAC7 013C                            SRM,R4,'1F00'X    QI@TYPE_DISPLAY_TARGET+2,AUTO
          1 000894       1F00
          1 000895  0F81 0006                            B        s:20961,PREL

     1072    20959    2       ELSE
     1073    20960    2         QI@TYPE_DISPLAY_TARGET.CIP.T.LEN = %QI#MAX_BINARY_DIGIT_COUNT;

  20960   1 000897  C870 0A00                            LDR,R4   2560,IMO
          1 000899  CAC7 013C                            SRM,R4,'1F00'X    QI@TYPE_DISPLAY_TARGET+2,AUTO
          1 00089B       1F00

     1074    20961    2       QI@TYPE_DISPLAY_TARGET.CIP.T.CD.SIGN = %QI#CD_SIGN_TRAILING_OVER;

  20961   1 00089C  C870 2000                            LDR,R4   8192,IMO
          1 00089E  CAC7 013C                            SRM,R4,'6000'X    QI@TYPE_DISPLAY_TARGET+2,AUTO
          1 0008A0       6000

PL6.E3A0      #001=QBV$VERI_PRES File=QBV$VERI_PRES.:E05TSI                      WED 07/30/97 04:57 Page:133
     1075    20962    2       QI@TYPE_DISPLAY_TARGET.DATA.T$ = ADDR ( OTTER_DECIMAL_TARGET );

  20962   1 0008A1  DBC7 00EC                            LAB,B5   OTTER_DECIMAL_TARGET,AUTO
          1 0008A3  DFC7 0142                            STB,B5   QI@TYPE_DISPLAY_TARGET+8,AUTO

     1076    20963    2       QI@TYPE_DISPLAY_TARGET.SIZE_ERROR = %QI#DONT_CHECK_FOR_SIZE_ERROR;

  20963   1 0008A5  8747 0150                            CL       QI@TYPE_DISPLAY_TARGET+22,AUTO

     1077    20964
     1078    20965    2       CALL QCC$CBD ( QI@TYPE_DISPLAY_TARGET )

  20965   1 0008A7  CBC7 013A                            LAB,B4   QI@TYPE_DISPLAY_TARGET,AUTO
          1 0008A9  CFC7 0152                            STB,B4   QI@TYPE_DISPLAY_TARGET+24,AUTO
          1 0008AB  BBC7 0152                            LAB,B3   QI@TYPE_DISPLAY_TARGET+24,AUTO
          1 0008AD  CBF0 0100                            LAB,B4   256,IMO
          1 0008AF  E380 0000 0000  xent                 LNJ,B6   QCC$CBD
          1 0008B2       0003                            DC       s:20968,PREL
          1 0008B3  0F81 000A                            B        s:20971,PREL

     1079    20966    2       WHENALTRETURN
     1080    20967    3         DO;

     1081    20968    3           CALL QCE$ERROR_INTERNAL ( %E$UNEXPECTED_QCC_ALTRET );

  20968   1 0008B5  BB80 0000 0009  02                   LAB,B3   +9
          1 0008B8  CBF0 0100                            LAB,B4   256,IMO
          1 0008BA  E380 0000 0000  xent                 LNJ,B6   QCE$ERROR_INTERNAL
          1 0008BD       0001                            DC       s:20971,PREL

     1082    20969    3         END;

     1083    20970
     1084    20971    2       QI_1.OP.CIP.T_A (0) = QI@TYPE_DISPLAY_TARGET.CIP.T_A (0);

  20971   1 0008BE  E847 013C                            LDR,R6   QI@TYPE_DISPLAY_TARGET+2,AUTO
          1 0008C0  EF00 0000 001C  xsym                 STR,R6   QI_1+28
PL6.E3A0      #001=QBV$VERI_PRES File=QBV$VERI_PRES.:E05TSI                      WED 07/30/97 04:57 Page:134

     1085    20972    2       QI_1.OP.DATA.T$ = QI@TYPE_DISPLAY_TARGET.DATA.T$;

  20972   1 0008C3  ECC7 0142                            LDB,B6   QI@TYPE_DISPLAY_TARGET+8,AUTO
          1 0008C5  EF80 0000 0022  xsym                 STB,B6   QI_1+34

     1086    20973    2       QI_1.OP.LEN.T = QI@TYPE_DISPLAY_TARGET.CIP.T.LEN;

  20973   1 0008C8  D847 013C                            LDR,R5   QI@TYPE_DISPLAY_TARGET+2,AUTO
          1 0008CA  5048                                 SOR,R5   8
          1 0008CB  D570 001F                            AND,R5   31,IMO
          1 0008CD  DF00 0000 0027  xsym                 STR,R5   QI_1+39

     1087    20974    2       QI_1.TYPE.T = %QI#TYPE_DISPLAY;

  20974   1 0008D0  8700 0000 0051  xsym                 CL       QI_1+81

     1088    20975
     1089    20976    2       RETURN;

  20976   1 0008D3  ECC7 0138                            LDB,B6   @RESTORE_FLAG+2,AUTO
          1 0008D5  C3C6 0001                            LNJ,B4   1,B6

     1090    20977
     1091    20978    2   END BINARY_TO_DECIMAL;
     1092    20979        %EJECT;
PL6.E3A0      #001=QBV$VERI_PRES File=QBV$VERI_PRES.:E05TSI                      WED 07/30/97 04:57 Page:135
     1093    20980    1   RESTORE_BINARY_THING: PROC;

  20980   1 0008D7  EFC7 0138            RESTORE_BINARY_*STB,B6   @RESTORE_FLAG+2,AUTO
          1 0008D9  0F81 0003                            B        s:20983,PREL

     1094    20981
     1095    20982    2   RESTORE_BINARY_SOURCE: ENTRY;

  20982   1 0008DB  EFC7 0138            RESTORE_BINARY_*STB,B6   @RESTORE_FLAG+2,AUTO

     1096    20983    2       QI_1.OP.CIP.S_A (0) = SAVED_BINARY_CIP_SOURCE;

  20983   1 0008DD  E847 002E                            LDR,R6   SAVED_BINARY_CIP_SOURCE,AUTO
          1 0008DF  EF00 0000 001A  xsym                 STR,R6   QI_1+26

     1097    20984    2       QI_1.OP.DATA.S$ = SAVED_BINARY_DATA_SOURCE$;

  20984   1 0008E2  DCC7 0030                            LDB,B5   SAVED_BINARY_DATA_SOURCE$,AUTO
          1 0008E4  DF80 0000 0020  xsym                 STB,B5   QI_1+32

     1098    20985    2       QI_1.OP.LEN.S = SAVED_BINARY_LEN_SOURCE;

  20985   1 0008E7  D847 0034                            LDR,R5   SAVED_BINARY_LEN_SOURCE,AUTO
          1 0008E9  DF00 0000 0026  xsym                 STR,R5   QI_1+38

     1099    20986    2       QI_1.TYPE.S = SAVED_BINARY_TYPE_SOURCE;

  20986   1 0008EC  C847 0036                            LDR,R4   SAVED_BINARY_TYPE_SOURCE,AUTO
          1 0008EE  CF00 0000 0050  xsym                 STR,R4   QI_1+80

     1100    20987
     1101    20988    2       RETURN;

  20988   1 0008F1  ECC7 0138                            LDB,B6   @RESTORE_FLAG+2,AUTO
          1 0008F3  C3C6 0001                            LNJ,B4   1,B6

     1102    20989
PL6.E3A0      #001=QBV$VERI_PRES File=QBV$VERI_PRES.:E05TSI                      WED 07/30/97 04:57 Page:136
     1103    20990    2   RESTORE_BINARY_TARGET: ENTRY;

  20990   1 0008F5  EFC7 0138            RESTORE_BINARY_*STB,B6   @RESTORE_FLAG+2,AUTO

     1104    20991    2       QI_1.OP.CIP.T_A (0) = SAVED_BINARY_CIP_TARGET;

  20991   1 0008F7  E847 002F                            LDR,R6   SAVED_BINARY_CIP_TARGET,AUTO
          1 0008F9  EF00 0000 001C  xsym                 STR,R6   QI_1+28

     1105    20992    2       QI_1.OP.DATA.T$ = SAVED_BINARY_DATA_TARGET$;

  20992   1 0008FC  DCC7 0032                            LDB,B5   SAVED_BINARY_DATA_TARGET$,AUTO
          1 0008FE  DF80 0000 0022  xsym                 STB,B5   QI_1+34

     1106    20993    2       QI_1.OP.LEN.T = SAVED_BINARY_LEN_TARGET;

  20993   1 000901  D847 0035                            LDR,R5   SAVED_BINARY_LEN_TARGET,AUTO
          1 000903  DF00 0000 0027  xsym                 STR,R5   QI_1+39

     1107    20994    2       QI_1.TYPE.T = SAVED_BINARY_TYPE_TARGET;

  20994   1 000906  C847 0037                            LDR,R4   SAVED_BINARY_TYPE_TARGET,AUTO
          1 000908  CF00 0000 0051  xsym                 STR,R4   QI_1+81

     1108    20995
     1109    20996    2       RETURN;

  20996   1 00090B  ECC7 0138                            LDB,B6   @RESTORE_FLAG+2,AUTO
          1 00090D  C3C6 0001                            LNJ,B4   1,B6

     1110    20997
     1111    20998    2   END RESTORE_BINARY_THING;
     1112    20999        %EJECT;
PL6.E3A0      #001=QBV$VERI_PRES File=QBV$VERI_PRES.:E05TSI                      WED 07/30/97 04:57 Page:137
     1113    21000    1   BUILD_DOCASE_THING: PROC;

  21000   1 00090F  EFC7 0138            BUILD_DOCASE_TH*STB,B6   @RESTORE_FLAG+2,AUTO

     1114    21001
     1115    21002        /*I*  NAME:         BUILD_DOCASE_THING
     1116    21003              PURPOSE:      Build DOCASE_THING.  (Sheesh again.)
     1117    21004              CALL:         CALL BUILD_DOCASE_THING;
     1118    21005              PARAMETERS:   None.
     1119    21006              DATA:         Stuff in QI_1.
     1120    21007              DESCRIPTION:  Build DOCASE_THING, the thing which contains the
     1121    21008                            QI_1.TYPEs of the two items to eventually be compared
     1122    21009                            or moved, and an indication as to whether the items
     1123    21010                            are picture string edited (and which type) or
     1124    21011                            JUSTIFIED RIGHT.
     1125    21012        */
     1126    21013
     1127    21014    2       IF QI_1.PICTURE_STRING.S$ ~= ADDR (NIL)

  21014   1 000911  8D80 0000 004A  xsym                 CMN      QI_1+74
          1 000914  0901 000B                            BE       s:21019,PREL

     1128    21015    2       THEN
     1129    21016    2         DOCASE_THING.INNARDS.PICTURE_STRING_S =

  21016   1 000916  DC80 0000 004A  xsym                 LDB,B5   QI_1+74
          1 000919  E805                                 LDR,R6   ,B5
          1 00091A  6041                                 SOR,R6   1
          1 00091B  EAC7 000F                            SRM,R6,'3000'X    DOCASE_THING,AUTO
          1 00091D       3000
          1 00091E  0F81 0012                            B        s:21027,PREL

     1130    21017    2           QI_1.PICTURE_STRING.S$ -> QI$PICTURE_STRING.TYPE;
     1131    21018    2       ELSE
     1132    21019    2         IF QI_1.DAD.S$ -> QI$DAD.WORD0_FLAGS.IS_JUSTIFIED_RIGHT

  21019   1 000920  DC80 0000 0032  xsym                 LDB,B5   QI_1+50
PL6.E3A0      #001=QBV$VERI_PRES File=QBV$VERI_PRES.:E05TSI                      WED 07/30/97 04:57 Page:138
          1 000923  8285                                 LB,'0400'X        ,B5
          1 000924       0400
          1 000925  0581 0006                            BBF      s:21024,PREL

     1133    21020    2         THEN
     1134    21021    2           DOCASE_THING.INNARDS.PICTURE_STRING_S =

  21021   1 000927  8947 000F                            LBT,'3000'X       DOCASE_THING,AUTO
  21021   1 000929       3000
          1 00092A  0F81 0006                            B        s:21027,PREL

     1135    21022    2             %JUSTIFIED_RIGHT;
     1136    21023    2         ELSE
     1137    21024    2           DOCASE_THING.INNARDS.PICTURE_STRING_S =

  21024   1 00092C  E870 2000                            LDR,R6   8192,IMO
          1 00092E  EAC7 000F                            SRM,R6,'3000'X    DOCASE_THING,AUTO
          1 000930       3000

     1138    21025    2             %NO_PICTURE_STRING;
     1139    21026
     1140    21027    2       DOCASE_THING.INNARDS.TYPE_S = QI_1.TYPE.S;

  21027   1 000931  E800 0000 0050  xsym                 LDR,R6   QI_1+80
          1 000934  600E                                 SOL,R6   14
          1 000935  EAC7 000F                            SRM,R6,'C000'X    DOCASE_THING,AUTO
          1 000937       C000

     1141    21028
     1142    21029    2       IF QI_1.PICTURE_STRING.T$ ~= ADDR (NIL)

  21029   1 000938  8D80 0000 004C  xsym                 CMN      QI_1+76
          1 00093B  0901 000B                            BE       s:21034,PREL

     1143    21030    2       THEN
     1144    21031    2         DOCASE_THING.INNARDS.PICTURE_STRING_T =

PL6.E3A0      #001=QBV$VERI_PRES File=QBV$VERI_PRES.:E05TSI                      WED 07/30/97 04:57 Page:139
  21031   1 00093D  DC80 0000 004C  xsym                 LDB,B5   QI_1+76
          1 000940  E805                                 LDR,R6   ,B5
          1 000941  6045                                 SOR,R6   5
          1 000942  EAC7 000F                            SRM,R6,'0300'X    DOCASE_THING,AUTO
          1 000944       0300
          1 000945  0F81 0012                            B        s:21042,PREL

     1145    21032    2           QI_1.PICTURE_STRING.T$ -> QI$PICTURE_STRING.TYPE;
     1146    21033    2       ELSE
     1147    21034    2         IF QI_1.DAD.T$ -> QI$DAD.WORD0_FLAGS.IS_JUSTIFIED_RIGHT

  21034   1 000947  DC80 0000 0034  xsym                 LDB,B5   QI_1+52
          1 00094A  8285                                 LB,'0400'X        ,B5
          1 00094B       0400
          1 00094C  0581 0006                            BBF      s:21039,PREL

     1148    21035    2         THEN
     1149    21036    2           DOCASE_THING.INNARDS.PICTURE_STRING_T =

  21036   1 00094E  8947 000F                            LBT,'0300'X       DOCASE_THING,AUTO
  21036   1 000950       0300
          1 000951  0F81 0006                            B        s:21042,PREL

     1150    21037    2             %JUSTIFIED_RIGHT;
     1151    21038    2         ELSE
     1152    21039    2           DOCASE_THING.INNARDS.PICTURE_STRING_T =

  21039   1 000953  E870 0200                            LDR,R6   512,IMO
          1 000955  EAC7 000F                            SRM,R6,'0300'X    DOCASE_THING,AUTO
          1 000957       0300

     1153    21040    2             %NO_PICTURE_STRING;
     1154    21041
     1155    21042    2       DOCASE_THING.INNARDS.TYPE_T = QI_1.TYPE.T;

  21042   1 000958  E800 0000 0051  xsym                 LDR,R6   QI_1+81
          1 00095B  600A                                 SOL,R6   10
PL6.E3A0      #001=QBV$VERI_PRES File=QBV$VERI_PRES.:E05TSI                      WED 07/30/97 04:57 Page:140
          1 00095C  EAC7 000F                            SRM,R6,'0C00'X    DOCASE_THING,AUTO
          1 00095E       0C00

     1156    21043
     1157    21044    2   END BUILD_DOCASE_THING;

  21044   1 00095F  ECC7 0138                            LDB,B6   @RESTORE_FLAG+2,AUTO
          1 000961  C3C6 0001                            LNJ,B4   1,B6

     1158    21045
     1159    21046    1   END QBV$VERI_PRES;

  21046   1 000963  C380 0000 0000  xent                 LNJ,B4   X6A_ARET

PL6.E3A0      #001=QBV$VERI_PRES File=QBV$VERI_PRES.:E05TSI                      WED 07/30/97 04:57 Page:141
--  Include file information  --

   QCU_USE_M.:E05TOU  is referenced.
   QCG_GET_FIELD_M.:E05TOU  is referenced.
   QI_MACROS_M.:E05TOU  is referenced.
   QI_PERR_C.:E05TOU  is referenced.
   QI_EQUATES_E.:E05TOU  is referenced.
   QG_MACRO_M.:E05TOU  is referenced.
   G_JIT_M.:E05TOU  is referenced.
   LCP_6.:E05TOU  cannot be made into a system file and is referenced.
   G_LCP6_E.:E05TOU  was found in the system file and is referenced.
   GT_LCP6_M.:E05TOU  was found in the system file and is referenced.
   KI_CP6.:E05TOU  was found in the system file and is referenced.
   GF_LCP6_M.:E05TOU  was found in the system file and is referenced.
   GM_LCP6_M.:E05TOU  was found in the system file and is referenced.
   GU_LCP6_M.:E05TOU  was found in the system file and is referenced.
   GJ_LCP6_M.:E05TOU  was found in the system file and is referenced.
   GH_LCP6_M.:E05TOU  was found in the system file and is referenced.
      No diagnostics issued in procedure QBV$VERI_PRES.
PL6.E3A0      #001=QBV$VERI_PRES File=QBV$VERI_PRES.:E05TSI                      WED 07/30/97 04:57 Page:142

 **** Variables and constants ****

  ****  Section 000 RoData QBV$VERI_PRES

  ****  Scalars and arrays  ****
HexLoc.c.b A Datatyp(siz) R M Lvl/name                 HexLoc.c.b A Datatyp(siz) R M Lvl/name

     0-0-0/c CHAR(72)    r     1 ILLEGAL_VALUE_TEXT

  ****  Auto variables  ****

  ****  Scalars and arrays  ****
HexLoc.c.b A Datatyp(siz) R M Lvl/name                 HexLoc.c.b A Datatyp(siz) R M Lvl/name

   136-0-0/w PTR         r     1 @RESTORE_FLAG              4-0-0/w UBIN(16)    r     1 ARRAY_OFFSET
     6-0-0/w PTR         r     1 CLB$                       8-0-0/w UBIN(16)    r     1 COBOL_ARRAY_OFFSET
     9-0-0/w PTR         r     1 COBOL_DAD$                 B-0-0/w UBIN(16)    r     1 CURRENT_RETRY_COUNT
     C-0-0/w PTR         r     1 DA_DA$                     E-0-0/w UBIN(16)    r     1 DIMENSION_COUNT
     F-0-0/b STRC(8)     r     1 DOCASE_THING              10-0-0/w SBIN(16)    r     1 ERROR_MESSAGE_INDEX
    11-0-0/w PTR         r     1 ERROR_STATUS$             13-0-0/w PTR         r     1 FIELD_DAD$
    15-0-0/w PTR         r     1 FIELD_DAD_P$              17-0-0/w PTR         r     1 FIELD_IDENTIFIER$
    19-0-0/w PTR         r     1 GZ_FIELD$                 1B-0-0/w PTR         r     1 INITIAL_COBOL_DATA$
    1D-0-0/w UBIN(16)    r     1 INITIAL_COBOL_OFFSET      1E-0-0/w PTR         r     1 INITIAL_GZ$
    20-0-0/w PTR         r     1 INITIAL_LEGAL_ARRAY_DATA$
    22-0-0/w UBIN(16)    r     1 INITIAL_LEGAL_ARRAY_OFFSET
    23-0-0/w UBIN(16)    r     1 INITIAL_RETRY_COUNT       24-0-0/w PTR         r     1 INSTR$
    26-0-0/w UBIN(16)    r     1 LEGAL_ARRAY_ELEMENT_SIZE
    27-0-0/w UBIN(16)    r     1 LEGAL_ARRAY_OFFSET        28-0-0/w SBIN(16)    r     1 LEGAL_INDEX
    29-0-0/w UBIN(16)    r     1 LEGAL_LIST_INDEX
    2A-0-0/w UBIN(16)    r     1 LEVEL_MULTIPLIER_INDEX
    E4-0-0/w STRC(128)   r     1 OTTER_DECIMAL_SOURCE      EC-0-0/w STRC(128)   r     1 OTTER_DECIMAL_TARGET
    F4-0-0/c CHAR(80)    r     1 OTTER_ERROR_MESSAGE       2B-0-0/w UBIN(16)    r     1 P_ITEM_INDEX
   11C-0-0/w STRC(160)   r     1 QCG@GET_FIELD            126-0-0/w STRC(224)   r     1 QCU@USE
    42-0-0/d STRC(2576)  r     1 QI@1
   13A-0-0/d STRC(384)   r     1 QI@TYPE_DISPLAY_TARGET
    2C-0-0/w SBIN(16)    r     1 REPEATS_INDEX             2D-0-0/w BIT         r     1 RESTORE_FLAG
    *0-0-0/w BIT         r     1 RESTORE_FLAG
PL6.E3A0      #001=QBV$VERI_PRES File=QBV$VERI_PRES.:E05TSI                      WED 07/30/97 04:57 Page:143
    2E-0-0/w UBIN(16)    r     1 SAVED_BINARY_CIP_SOURCE
    2F-0-0/w UBIN(16)    r     1 SAVED_BINARY_CIP_TARGET
    30-0-0/w PTR         r     1 SAVED_BINARY_DATA_SOURCE$
    32-0-0/w PTR         r     1 SAVED_BINARY_DATA_TARGET$
    34-0-0/w UBIN(16)    r     1 SAVED_BINARY_LEN_SOURCE
    35-0-0/w UBIN(16)    r     1 SAVED_BINARY_LEN_TARGET
    36-0-0/w UBIN(16)    r     1 SAVED_BINARY_TYPE_SOURCE
    37-0-0/w UBIN(16)    r     1 SAVED_BINARY_TYPE_TARGET
    38-0-0/w UBIN(16)    r     1 SUBSCRIPT_BOUND_A(0:2)
    3C-0-0/w UBIN(16)    r     1 SUBSCRIPT_DO_INDEX_A(0:2)
    3C-0-0/w STRC(48)    r     1 SUBSCRIPT_DO_INDICES      3B-0-0/w SBIN(16)    r     1 SUBSCRIPT_INDEX
    3F-0-0/w BIT         r     1 THIS_IS_A_VERIFY          40-0-0/w UBIN(16)    r     1 VERI_PRES_COUNT
    41-0-0/w UBIN(16)    r     1 VERI_PRES_INDEX

  ****  SYMREF variables  ****

  ****  Scalars and arrays  ****
HexLoc.c.b A Datatyp(siz) R M Lvl/name                 HexLoc.c.b A Datatyp(siz) R M Lvl/name

     0-0-0/w PTR         r     1 G$JIT$                     0-0-0/d STRC(2576)  r     1 QI_1
     0-0-0/d STRC(384)   r     1 QI_TYPE_DISPLAY_TARGET

  ****  BASED and DCB variables  ****

  ****  Scalars and arrays  ****
HexLoc.c.b A Datatyp(siz) R M Lvl/name                 HexLoc.c.b A Datatyp(siz) R M Lvl/name

     0-0-0/w STRC(5616)  r     1 G$JIT                      0-0-0/w STRC        r     1 QI$BITS
     0-0-0/w STRC(192)   r     1 QI$COBOL_DAD
     0-0-0/w STRC(32)    r     1 QI$CONDITION_LEGAL_BLOCK
     0-0-0/w STRC(48)    r     1 QI$DAD                     0-0-0/c STRC(64)    r     1 QI$ERROR_STATUS
     0-0-0/w STRC(384)   r     1 QI$FIELD_DAD               0-0-0/w STRC(112)   r     1 QI$FIELD_DAD_P
     0-0-0/w STRC(48)    r     1 QI$FIELD_STATUS            0-0-0/w STRC(192)   r     1 QI$FORM_FILE
     0-0-0/w STRC(144)   r     1 QI$FORM_STATUS             0-0-0/w STRC(208)   r     1 QI$FRAME_STATUS
     0-0-0/w STRC(184)   r     1 QI$GZ_FIELD                0-0-0/w STRC(16)    r     1 QI$INDICATORS
     0-0-0/w STRC(128)   r     1 QI$MINOR_NODE              0-0-0/w STRC(64)    r     1 QI$OP_VERI_PRES
     0-0-0/w STRC(32)    r     1 QI$PICTURE_STRING
PL6.E3A0      #001=QBV$VERI_PRES File=QBV$VERI_PRES.:E05TSI                      WED 07/30/97 04:57 Page:144
     0-0-0/c ASTR(8)     r     1 QI$VARIABLE_IDENTIFIER


   Procedure QBV$VERI_PRES requires 2406 words for executable code.
   Procedure QBV$VERI_PRES requires 360 words of local(AUTO) storage.

    No errors detected in file QBV$VERI_PRES.:E05TSI    .
PL6.E3A0      #001=QBV$VERI_PRES File=QBV$VERI_PRES.:E05TSI                      WED 07/30/97 04:57 Page:145
          *** CROSS REFERENCE LISTING ***
**     DENOTES     IDENTIFIER DEFINITION
<<                 IDENTIFIER'S VALUE SET
>>                 IDENTIFIER'S VALUE USED
<>                 IDENTIFIER SET AND/OR USED
--                 IDENTIFIER REFERENCED
PL6.E3A0      #001=QBV$VERI_PRES File=QBV$VERI_PRES.:E05TSI                      WED 07/30/97 04:57 Page:146
          MINI XREF LISTING

ARRAY_OFFSET
     17726**DCL     19440<<ASSIGN  19443<<ASSIGN  19443>>ASSIGN  19456>>ASSIGN  19471>>ASSIGN
BINARY_TO_DECIMAL_SOURCE IN PROCEDURE BINARY_TO_DECIMAL
     20926**ENTRY   20005--CALL    20024--CALL    20083--CALL    20104--CALL    20125--CALL    20144--CALL
     20163--CALL
BINARY_TO_DECIMAL_TARGET IN PROCEDURE BINARY_TO_DECIMAL
     20952**ENTRY   19987--CALL    20015--CALL    20026--CALL
BUILD_DOCASE_THING
     21000**PROC    19939--CALL    20065--CALL
CHECK_USE_PROCEDURE_OR_INVALID
     19903**LABEL   19163--GOTO    19171--GOTO
CLB$
     17728**DCL     19398<<ASSIGN  19419<<ASSIGN  19486>>IF      19508>>DOCASE  19511>>ASSIGN  19526>>ASSIGN
     19527>>DOINDEX 19539>>ASSIGN  19547>>DOINDEX
COBOL_ARRAY_OFFSET
     17729**DCL     19456<<ASSIGN  19463>>ASSIGN  19465>>ASSIGN  19471<<ASSIGN  19473>>ASSIGN  19475>>ASSIGN
COBOL_DAD$
     17730**DCL     19133<<ASSIGN  19138<<ASSIGN  19144>>IF      19331>>IF      19362>>IF      19398>>ASSIGN
     19443>>ASSIGN  19697>>IF      19725>>IF      19761>>ASSIGN
CONTINUE_ESTABLISHMENT
     19194**LABEL   19188--GOTO
CURRENT_RETRY_COUNT
     17731**DCL     19428<<ASSIGN
DA_DA$
     17732**DCL     19258<<ASSIGN  19281<<ASSIGN  19281>>ASSIGN  19303>>IF      19309>>IF      19312>>ASSIGN
DIMENSION_COUNT
     17733**DCL     19175<<ASSIGN  19178>>DOCASE  19208>>ASSIGN  19398>>ASSIGN  19436>>IF      19442>>DOINDEX
     19761>>ASSIGN
DOCASE_THING.EIGHT_BIT_DEAL
     17735**DCL     17736--REDEF   19941>>DOCASE  20067>>DOCASE
DOCASE_THING.INNARDS.PICTURE_STRING_S
     17738**DCL     21016<<ASSIGN  21021<<ASSIGN  21024<<ASSIGN
PL6.E3A0      #001=QBV$VERI_PRES File=QBV$VERI_PRES.:E05TSI                      WED 07/30/97 04:57 Page:147
DOCASE_THING.INNARDS.PICTURE_STRING_T
     17740**DCL     21031<<ASSIGN  21036<<ASSIGN  21039<<ASSIGN
DOCASE_THING.INNARDS.TYPE_S
     17737**DCL     21027<<ASSIGN
DOCASE_THING.INNARDS.TYPE_T
     17739**DCL     21042<<ASSIGN
ERROR_MESSAGE_INDEX
     17741**DCL     19723<<ASSIGN  19727<<ASSIGN  19727>>ASSIGN  19761>>ASSIGN
ERROR_STATUS$
     17742**DCL     19873<<ASSIGN  19894>>ASSIGN  19896>>ASSIGN
ESTABLISH_DIMENSION_BOUNDS
     19178**LABEL   19255--EXIT    19317--EXIT
FIELD_DAD$
     17743**DCL     19134<<ASSIGN  19139<<ASSIGN  19148>>IF      19154>>ASSIGN  19175>>ASSIGN  19208>>ASSIGN
     19258>>ASSIGN  19904>>ASSIGN
FIELD_DAD_P$
     17744**DCL     19208<<ASSIGN  19209>>IF      19236>>IF      19250>>ASSIGN
FIELD_IDENTIFIER$
     17745**DCL     19624<<ASSIGN  19645>>CALL    19645>>CALL    19672<<ASSIGN  19693>>CALL    19693>>CALL
G$JIT.ERRLOG
       818**DCL       821--REDEF
G$JIT.JSUNIT
       557**DCL       558--REDEF
G$JIT.LANG
       821**DCL     19793>>IF      19793>>IF
G$JIT.MCLS
       556**DCL       556--REDEF
G$JIT.TMRZ
       825**DCL       826--REDEF
G$JIT.USER_EXTIME
       549**DCL       550--REDEF
G$JIT.USER_MEMTIME
       552**DCL       552--REDEF
G$JIT.USER_SVTIME
       551**DCL       551--REDEF
G$JIT$
PL6.E3A0      #001=QBV$VERI_PRES File=QBV$VERI_PRES.:E05TSI                      WED 07/30/97 04:57 Page:148
       888**DCL     19793>>IF      19793>>IF
GZ_FIELD$
     17746**DCL     19329<<ASSIGN  19431>>IF      19452>>ASSIGN  19453>>ASSIGN  19454>>ASSIGN  19478>>ASSIGN
     19479>>ASSIGN  19480>>ASSIGN  19601>>IF      19624>>ASSIGN  19649>>IF      19672>>ASSIGN  19811>>ASSIGN
     19835>>ASSIGN  19837>>ASSIGN  19840<<ASSIGN  19840>>ASSIGN
IF_IT
     19924**PROC    19513--CALL    19519--CALL    19530--CALL    19557--CALL
ILLEGAL_VALUE_TEXT
     19053**DCL     19785--ASSIGN  19786--ASSIGN
INITIAL_COBOL_DATA$
     17747**DCL     19198<<ASSIGN  19203<<ASSIGN  19465>>ASSIGN  19475>>ASSIGN
INITIAL_COBOL_OFFSET
     17748**DCL     19197<<ASSIGN  19202<<ASSIGN  19456>>ASSIGN  19471>>ASSIGN
INITIAL_GZ$
     17749**DCL     19324<<ASSIGN  19329>>ASSIGN  19811>>ASSIGN
INITIAL_LEGAL_ARRAY_DATA$
     17750**DCL     19542<<ASSIGN  19554>>ASSIGN
INITIAL_LEGAL_ARRAY_OFFSET
     17751**DCL     19543<<ASSIGN  19549>>ASSIGN
INITIAL_RETRY_COUNT
     17752**DCL     19335<<ASSIGN  19428>>ASSIGN
INSTR$
     17753**DCL     19119<<ASSIGN  19120>>ASSIGN  19125>>ASSIGN
LEGAL_ARRAY_ELEMENT_SIZE
     17754**DCL     19544<<ASSIGN  19549>>ASSIGN
LEGAL_ARRAY_OFFSET
     17755**DCL     19549<<ASSIGN  19552>>ASSIGN  19554>>ASSIGN
LEGAL_CHECK_FAILED
     19601**LABEL   19516--GOTO    19522--GOTO    19536--GOTO    19563--GOTO
LEGAL_CHECK_PASSED
     19825**LABEL   19523--GOTO    19533--GOTO    19560--GOTO
LEGAL_INDEX
     17756**DCL     19360<<ASSIGN  19364<<ASSIGN  19364>>ASSIGN  19398>>ASSIGN
LEGAL_LIST_INDEX
     17757**DCL     19527<<DOINDEX 19547<<DOINDEX 19549>>ASSIGN
LEVEL_MULTIPLIER_INDEX
PL6.E3A0      #001=QBV$VERI_PRES File=QBV$VERI_PRES.:E05TSI                      WED 07/30/97 04:57 Page:149
     17758**DCL     19442<<DOINDEX 19443>>ASSIGN  19443>>ASSIGN
MOVE_IT
     20043**PROC    19498--CALL    19831--CALL
NEXT_SCALAR_PLEASE
     19840**LABEL   19434--GOTO    19916--GOTO
OTTER_DECIMAL_SOURCE
     18767**DCL     18769--REDEF   18770--REDEF   20936--ASSIGN
OTTER_DECIMAL_TARGET
     18795**DCL     18797--REDEF   18798--REDEF   20962--ASSIGN
OTTER_ERROR_MESSAGE
     18808**DCL     19797<>CALL    19803--ASSIGN
P_ITEM_INDEX
     17759**DCL     19235<<DOINDEX 19236>>IF      19361<<DOINDEX 19362>>IF      19724<<DOINDEX 19725>>IF
QBM$MOVAE_VP
     19034**DCL-ENT 20098--CALL    20106--CALL
QBM$MOVAJ_VP
     19035**DCL-ENT 20119--CALL    20127--CALL
QBM$MOVA_VP
     19033**DCL-ENT 20077--CALL    20085--CALL
QBM$MOVB_VP
     19039**DCL-ENT 20182--CALL
QBM$MOVDE_VP
     19040**DCL-ENT 20195--CALL
QBM$MOVNE_VP
     19036**DCL-ENT 20138--CALL    20146--CALL
QBM$MOVN_VP
     19037**DCL-ENT 20157--CALL    20165--CALL
QBM$MOVP_VP
     19038**DCL-ENT 20175--CALL
QCC$CBD
     19044**DCL-ENT 20939--CALL    20965--CALL
QCE$ERROR
     19045**DCL-ENT 19645--CALL    19693--CALL
QCE$ERROR_INTERNAL
     19046**DCL-ENT 19146--CALL    19150--CALL    19305--CALL    19919--CALL    20035--CALL    20214--CALL
     20942--CALL    20968--CALL
PL6.E3A0      #001=QBV$VERI_PRES File=QBV$VERI_PRES.:E05TSI                      WED 07/30/97 04:57 Page:150
QCE$ERROR_MESSAGE
     19047**DCL-ENT 19797--CALL
QCF$FIND_CURRENTS
     19041**DCL-ENT 19157--CALL
QCG$GET_FIELD_ILLEGAL
     19048**DCL-ENT 19814--CALL
QCG@GET_FIELD
     18866**DCL     19814<>CALL
QCG@GET_FIELD.FIELD_INDEX
     18880**DCL     19811<<ASSIGN
QCG@GET_FIELD.FRAME_INDEX
     18878**DCL     19810<<ASSIGN
QCG@GET_FIELD.IS_MESSAGE_A_DAD
     18870**DCL     19781<<ASSIGN  19787<<ASSIGN
QCG@GET_FIELD.MESSAGE$
     18876**DCL     19761<<ASSIGN  19786<<ASSIGN  19803<<ASSIGN
QCG@GET_FIELD.MESSAGE_LENGTH
     18874**DCL     19785<<ASSIGN
QCG@GET_FIELD.MESSAGE_LINE_GZ_HEADER$
     18867**DCL     19808<<ASSIGN
QCG@GET_FIELD.STATUS
     18882**DCL     19816>>IF
QCI$IFA
     19042**DCL-ENT 19978--CALL    19989--CALL
QCI$IFN
     19043**DCL-ENT 19998--CALL    20007--CALL    20017--CALL    20028--CALL
QCS$SETUP_SOURCE
     19031**DCL-ENT 19127--CALL    19512--CALL    19518--CALL    19529--CALL    19540--CALL
QCS$SETUP_TARGET
     19032**DCL-ENT 19128--CALL
QCU$USE_IO
     19049**DCL-ENT 19908--CALL
QCU@USE
     18966**DCL     19908<>CALL
QCU@USE.CURR_FRAME$
     18967**DCL     19903<<ASSIGN
PL6.E3A0      #001=QBV$VERI_PRES File=QBV$VERI_PRES.:E05TSI                      WED 07/30/97 04:57 Page:151
QCU@USE.CURR_NODE$
     18969**DCL     19904<<ASSIGN
QCU@USE.IS_TIME_TO_SAVE_AWAY_FIELDS
     18974**DCL     19905<<ASSIGN
QCU@USE.STATUS
     19000**DCL     19910>>DOCASE
QCU@USE.USE_DEFAULT_IO
     18971**DCL     19906<<ASSIGN
QGB_PARAM.DVE.DVBYTE.VFC
     12209**DCL     12210--REDEF
QGB_PARAM.DVE.EOMCHAR
     12221**DCL     12222--REDEF
QGB_PARAM.MSG$
     12203**DCL     12204--REDEF
QGB_PARAM.UHDR$
     12228**DCL     12229--REDEF
QI$ACTIVATION_STATUS
      9967**DCL      9973--REDEF
QI$BITS.BIT_A
     12302**DCL     19236>>IF      19362>>IF      19725>>IF
QI$CIP
      8808**DCL      8878--REDEF
QI$CIP.CA
      8813**DCL      8817--REDEF    8820--REDEF    8823--REDEF
QI$COBOL_DAD.PSEUDO_CIP
      9052**DCL      9077--REDEF
QI$COBOL_DAD.PSEUDO_CIP.ALPHANUMERIC
      9054**DCL      9059--REDEF
QI$COBOL_DAD.PSEUDO_CIP.NUMERIC.CB
      9060**DCL      9063--REDEF    9066--REDEF
QI$COBOL_DAD.P_A
      9031**DCL     19362--IF      19725--IF
QI$COBOL_DAD.VARIABLE_LENGTH_ITEMS
      9088**DCL      9104--REDEF    9112--REDEF    9120--REDEF
QI$COBOL_DAD.VARIABLE_LENGTH_ITEMS.LEVEL_MULTIPLIERS
      9089**DCL      9099--REDEF    9102--REDEF
PL6.E3A0      #001=QBV$VERI_PRES File=QBV$VERI_PRES.:E05TSI                      WED 07/30/97 04:57 Page:152
QI$COBOL_DAD.VARIABLE_LENGTH_ITEMS.LEVEL_MULTIPLIERS.ONE_DIMENSIONAL.ELEMENT_LENGTH
      9092**DCL     19544>>ASSIGN
QI$COBOL_DAD.VARIABLE_LENGTH_ITEMS.LEVEL_MULTIPLIER_A.ELEMENT_LENGTH
      9101**DCL     19443>>ASSIGN
QI$COBOL_DAD.VARIABLE_LENGTH_ITEMS.P_ITEM_A
      9102**DCL     19398>>ASSIGN  19761>>ASSIGN
QI$COBOL_DAD.WORD0
      9016**DCL      9017--REDEF    9031--REDEF
QI$COBOL_DAD.WORD0_FLAGS.IS_FORM_VARIABLE
      9027**DCL     19144>>IF
QI$COBOL_DAD.WORD0_FLAGS.P.ERROR_MESSAGE
      9022**DCL     19697>>IF
QI$COBOL_DAD.WORD0_FLAGS.P.VALID
      9021**DCL     19331>>IF
QI$COBOL_DAD_P_BITS.P
      9156**DCL      9162--REDEF
QI$CONDITION_CONTROL_BLOCK.LIST_A@P
      8642**DCL      8643--REDEF
QI$CONDITION_CONTROL_BLOCK.WORD0_FLAGS
      8638**DCL      8641--REDEF
QI$CONDITION_LEGAL_BLOCK.ARRAY@P
      8675**DCL      8676--REDEF    8677--REDEF   19539--ASSIGN
QI$CONDITION_LEGAL_BLOCK.LIST_A@P
      8676**DCL     19526--ASSIGN
QI$CONDITION_LEGAL_BLOCK.LIST_LENGTH
      8674**DCL     19527>>DOINDEX 19547>>DOINDEX
QI$CONDITION_LEGAL_BLOCK.RANGE_A@P
      8677**DCL     19511--ASSIGN
QI$CONDITION_LEGAL_BLOCK.TYPE
      8673**DCL     19508>>DOCASE
QI$DAD.PSEUDO_CIP
      8955**DCL      8980--REDEF
QI$DAD.PSEUDO_CIP.ALPHANUMERIC
      8957**DCL      8962--REDEF
QI$DAD.PSEUDO_CIP.NUMERIC.CB
      8963**DCL      8966--REDEF    8969--REDEF
PL6.E3A0      #001=QBV$VERI_PRES File=QBV$VERI_PRES.:E05TSI                      WED 07/30/97 04:57 Page:153
QI$DAD.WORD0
      8924**DCL      8925--REDEF
QI$DAD.WORD0_FLAGS.IS_JUSTIFIED_RIGHT
      8928**DCL     21019>>IF      21034>>IF
QI$ERROR_MESSAGE_LINE
     12316**DCL     12318--REDEF
QI$ERROR_STATUS
     12313**DCL     12315--REDEF
QI$ERROR_STATUS.TEXT
     12314**DCL     19894<<ASSIGN  19896<<ASSIGN
QI$FIELD_DAD.ELEMENTARY_ITEM.P
      9370**DCL      9377--REDEF
QI$FIELD_DAD.FATHER@P
      9337**DCL     19281>>ASSIGN
QI$FIELD_DAD.IDENTIFIER@P
      9341**DCL     19624>>ASSIGN  19672>>ASSIGN
QI$FIELD_DAD.ONE_DIMENSIONAL_ITEM.P
      9390**DCL      9397--REDEF
QI$FIELD_DAD.PSEUDO_CIP
      9297**DCL      9322--REDEF
QI$FIELD_DAD.PSEUDO_CIP.ALPHANUMERIC
      9299**DCL      9304--REDEF
QI$FIELD_DAD.PSEUDO_CIP.NUMERIC.CB
      9305**DCL      9308--REDEF    9311--REDEF
QI$FIELD_DAD.TWO_DIMENSIONAL_ITEM.P
      9410**DCL      9417--REDEF
QI$FIELD_DAD.VARIABLE_LENGTH_ITEMS
      9353**DCL      9369--REDEF    9387--REDEF    9405--REDEF
QI$FIELD_DAD.VARIABLE_LENGTH_ITEMS.LEVEL_MULTIPLIERS
      9354**DCL      9364--REDEF    9367--REDEF
QI$FIELD_DAD.VARIABLE_LENGTH_ITEMS.LEVEL_MULTIPLIER_A
      9364**DCL     19208--ASSIGN
QI$FIELD_DAD.WORD0
      9249**DCL      9250--REDEF
QI$FIELD_DAD.WORD0_FLAGS.DIMENSION_COUNT
      9273**DCL     19175>>ASSIGN
PL6.E3A0      #001=QBV$VERI_PRES File=QBV$VERI_PRES.:E05TSI                      WED 07/30/97 04:57 Page:154
QI$FIELD_DAD.WORD0_FLAGS.IO_FLAGS
      9253**DCL      9258--REDEF
QI$FIELD_DAD.WORD0_FLAGS.IS_FORM_VARIABLE
      9269**DCL     19148>>IF
QI$FIELD_DAD_P.P
      9451**DCL      9458--REDEF
QI$FIELD_DAD_P.P.REPEATS
      9456**DCL     19209>>IF
QI$FIELD_DAD_P.P_ITEM_A
      9461**DCL     19250>>ASSIGN
QI$FIELD_STATUS.GZ.FIELD_START_INDEX
     10093**DCL     19324>>ASSIGN  19811>>ASSIGN
QI$FIELD_STATUS.INDICATORS
     10117**DCL     10149--REDEF
QI$FIELD_STATUS.INDICATORS.ENABLED_FLAGS
     10121**DCL     10126--REDEF
QI$FIELD_STATUS.INDICATORS.OPEN_FLAGS
     10133**DCL     10140--REDEF
QI$FIELD_STATUS.INDICATORS.STATE_FLAGS
     10127**DCL     10132--REDEF
QI$FILE.WORD0
      9573**DCL      9574--REDEF
QI$FILE_STATUS.INDICATORS
     10410**DCL     10442--REDEF
QI$FILE_STATUS.INDICATORS.ENABLED_FLAGS
     10414**DCL     10419--REDEF
QI$FILE_STATUS.INDICATORS.OPEN_FLAGS
     10426**DCL     10433--REDEF
QI$FILE_STATUS.INDICATORS.STATE_FLAGS
     10420**DCL     10425--REDEF
QI$FORM_FILE.ERROR_STATUS@D
      9657**DCL     19873>>ASSIGN
QI$FORM_FILE.RETRY_COUNT
      9663**DCL     19335>>ASSIGN
QI$FORM_FILE.USE_PROCEDURE
      9673**DCL      9680--REDEF
PL6.E3A0      #001=QBV$VERI_PRES File=QBV$VERI_PRES.:E05TSI                      WED 07/30/97 04:57 Page:155
QI$FORM_FILE.WORD0
      9627**DCL      9628--REDEF
QI$FORM_FILE.WORD0_FLAGS.IS_ERROR_STATUS_VALID
      9632**DCL     19850>>IF
QI$FORM_STATUS.INDICATORS
     10531**DCL     10563--REDEF
QI$FORM_STATUS.INDICATORS.ENABLED_FLAGS
     10535**DCL     10540--REDEF
QI$FORM_STATUS.INDICATORS.OPEN_FLAGS
     10547**DCL     10554--REDEF
QI$FORM_STATUS.INDICATORS.OPEN_FLAGS.IS_INPUT
     10551**DCL     19166>>IF
QI$FORM_STATUS.INDICATORS.OPEN_FLAGS.IS_OUTPUT
     10548**DCL     19166>>IF
QI$FORM_STATUS.INDICATORS.STATE_FLAGS
     10541**DCL     10546--REDEF
QI$FRAME.WORD0
      9788**DCL      9789--REDEF
QI$FRAME_STATUS.GZ.START$
     10723**DCL     19324>>ASSIGN
QI$FRAME_STATUS.INDICATORS
     10760**DCL     10792--REDEF
QI$FRAME_STATUS.INDICATORS.ENABLED_FLAGS
     10764**DCL     10769--REDEF
QI$FRAME_STATUS.INDICATORS.IS_ACTIVE
     10762**DCL     19159>>IF
QI$FRAME_STATUS.INDICATORS.OPEN_FLAGS
     10776**DCL     10783--REDEF
QI$FRAME_STATUS.INDICATORS.STATE_FLAGS
     10770**DCL     10775--REDEF
QI$GZ_FIELD
     17639**DCL     19324--ASSIGN  19811--ASSIGN  19840--ASSIGN
QI$GZ_FIELD.DESCRIPTION.FIELD_DAD$
     17663**DCL     19624>>ASSIGN  19672>>ASSIGN
QI$GZ_FIELD.DESCRIPTION.IO_FLAGS
     17642**DCL     17647--REDEF
PL6.E3A0      #001=QBV$VERI_PRES File=QBV$VERI_PRES.:E05TSI                      WED 07/30/97 04:57 Page:156
QI$GZ_FIELD.INDICATORS$
     17640**DCL     19431>>IF      19649>>IF      19835>>ASSIGN  19837>>ASSIGN
QI$GZ_FIELD.STATUS.DATA$
     17683**DCL     19454>>ASSIGN  19480>>ASSIGN
QI$GZ_FIELD.STATUS.IS_VALUE_DEFAULT
     17671**DCL     19601>>IF
QI$GZ_FIELD.STATUS.OFFSET
     17666**DCL     19452>>ASSIGN  19453>>ASSIGN  19478>>ASSIGN  19479>>ASSIGN
QI$IDENTIFIER
     12319**DCL     12321--REDEF
QI$INDICATORS
     10031**DCL     10061--REDEF
QI$INDICATORS.ENABLED_FLAGS
     10037**DCL     10042--REDEF
QI$INDICATORS.ENABLED_FLAGS.IS_INPUT
     10040**DCL     19649>>IF
QI$INDICATORS.OPEN_FLAGS
     10049**DCL     10056--REDEF
QI$INDICATORS.STATE_FLAGS
     10043**DCL     10048--REDEF
QI$INDICATORS.STATE_FLAGS.IS_AVAILABLE
     10044**DCL     19431>>IF
QI$INDICATORS.STATE_VALUE
     10048**DCL     19835<<ASSIGN  19837<<ASSIGN
QI$MAJOR_NODE.WORD0
      9487**DCL      9488--REDEF
QI$MAJOR_STATUS.INDICATORS
     10210**DCL     10242--REDEF
QI$MAJOR_STATUS.INDICATORS.ENABLED_FLAGS
     10214**DCL     10219--REDEF
QI$MAJOR_STATUS.INDICATORS.OPEN_FLAGS
     10226**DCL     10233--REDEF
QI$MAJOR_STATUS.INDICATORS.STATE_FLAGS
     10220**DCL     10225--REDEF
QI$MESSAGE_TYPE
     12310**DCL     12312--REDEF
PL6.E3A0      #001=QBV$VERI_PRES File=QBV$VERI_PRES.:E05TSI                      WED 07/30/97 04:57 Page:157
QI$MINOR_NODE.REPEATS
      9540**DCL     19309>>IF      19312>>ASSIGN
QI$MINOR_NODE.WORD0
      9530**DCL      9531--REDEF
QI$MINOR_NODE.WORD0_FLAGS.TYPE
      9539**DCL     19303>>IF
QI$MINOR_STATUS.INDICATORS
     10303**DCL     10335--REDEF
QI$MINOR_STATUS.INDICATORS.ENABLED_FLAGS
     10307**DCL     10312--REDEF
QI$MINOR_STATUS.INDICATORS.OPEN_FLAGS
     10319**DCL     10326--REDEF
QI$MINOR_STATUS.INDICATORS.STATE_FLAGS
     10313**DCL     10318--REDEF
QI$OP_ACCEPT.DATANAME@P
      6718**DCL      6719--REDEF
QI$OP_CALL.EPTR$
      6890**DCL      6891--REDEF
QI$OP_CLEAR.IO_FLAGS
      6923**DCL      6926--REDEF
QI$OP_DISPLAY.FIELD_A@P
      7190**DCL      7191--REDEF
QI$OP_ENABLE.IO_FLAGS
      7277**DCL      7280--REDEF
QI$OP_IFCLS.ATTRIBUTE.TYPE
      7370**DCL      7375--REDEF
QI$OP_INSPECT.TALLYING_FOR_ITEM@P
      7604**DCL      7605--REDEF
QI$OP_INSPECT.TALLYING_INITIAL_ITEM@P
      7606**DCL      7607--REDEF
QI$OP_INSPECT.TALLYING_ITEM@P
      7602**DCL      7603--REDEF
QI$OP_OPEN.IO_FLAGS
      8164**DCL      8167--REDEF
QI$OP_PERFM.BINARY_ITERATION_COUNT@P
      8202**DCL      8203--REDEF
PL6.E3A0      #001=QBV$VERI_PRES File=QBV$VERI_PRES.:E05TSI                      WED 07/30/97 04:57 Page:158
QI$OP_VERI_PRES.DAD_PAIR_A.SOURCE@P
      8500**DCL     19125--ASSIGN
QI$OP_VERI_PRES.DAD_PAIR_COUNT
      8498**DCL     19120>>ASSIGN
QI$PICTURE_STRING.TYPE
      9831**DCL     21016>>ASSIGN  21031>>ASSIGN
QI$PSEUDO_CIP
      8703**DCL      8727--REDEF
QI$PSEUDO_CIP.ALPHANUMERIC
      8707**DCL      8712--REDEF
QI$PSEUDO_CIP.NUMERIC.CB
      8713**DCL      8716--REDEF    8719--REDEF
QI$TERMINAL_ATTRIBUTES
      9924**DCL      9937--REDEF
QI$TRAN_FILE.WORD0
      9709**DCL      9710--REDEF
QI$TRAN_STATUS.INDICATORS
     10644**DCL     10676--REDEF
QI$TRAN_STATUS.INDICATORS.ENABLED_FLAGS
     10648**DCL     10653--REDEF
QI$TRAN_STATUS.INDICATORS.OPEN_FLAGS
     10660**DCL     10667--REDEF
QI$TRAN_STATUS.INDICATORS.STATE_FLAGS
     10654**DCL     10659--REDEF
QI$VARIABLE_IDENTIFIER
     12322**DCL     19645<>CALL    19693<>CALL
QI$VARIABLE_IDENTIFIER.LENGTH
     12323**DCL     12324--IMP-SIZ 19645>>CALL    19693>>CALL
QI@1
     17797**DCL     19493<<ASSIGN  19820>>ASSIGN  19825>>ASSIGN
QI@1.BASE
     17798**DCL     17805--REDEF
QI@1.CURRENT.FILE$
     18689**DCL     18691--REDEF   18693--REDEF
QI@1.CURRENT.FILE_STATUS$
     18695**DCL     18697--REDEF   18699--REDEF
PL6.E3A0      #001=QBV$VERI_PRES File=QBV$VERI_PRES.:E05TSI                      WED 07/30/97 04:57 Page:159
QI@1.DAD
     18493**DCL     18498--REDEF
QI@1.FILE_HEAD
     18676**DCL     18683--REDEF
QI@1.IS_ALL_LIT
     18499**DCL     18504--REDEF
QI@1.IS_FORM_VARIABLE
     18505**DCL     18510--REDEF
QI@1.IS_TEMP
     18511**DCL     18516--REDEF
QI@1.MESSAGE_LINE_DAD.PSEUDO_CIP
     18609**DCL     18634--REDEF
QI@1.MESSAGE_LINE_DAD.PSEUDO_CIP.ALPHANUMERIC
     18611**DCL     18616--REDEF
QI@1.MESSAGE_LINE_DAD.PSEUDO_CIP.NUMERIC.CB
     18617**DCL     18620--REDEF   18623--REDEF
QI@1.MESSAGE_LINE_DAD.WORD0
     18578**DCL     18579--REDEF
QI@1.OFFSET
     18517**DCL     18522--REDEF
QI@1.OP.CIP
     17878**DCL     18329--REDEF
QI@1.OP.CIP.AUX
     18244**DCL     18315--REDEF
QI@1.OP.CIP.AUX.CD
     18289**DCL     18292--REDEF   18296--REDEF   18299--REDEF
QI@1.OP.CIP.S
     17948**DCL     18019--REDEF
QI@1.OP.CIP.S.CD
     17993**DCL     17996--REDEF   18000--REDEF   18003--REDEF
QI@1.OP.CIP.T
     18096**DCL     18167--REDEF
QI@1.OP.CIP.T.CD
     18141**DCL     18144--REDEF   18148--REDEF   18151--REDEF
QI@1.OP.DATA
     18336**DCL     18340--REDEF
PL6.E3A0      #001=QBV$VERI_PRES File=QBV$VERI_PRES.:E05TSI                      WED 07/30/97 04:57 Page:160
QI@1.OP.FILL_CHAR
     18460**DCL     18463--REDEF
QI@1.OP.INX
     18393**DCL     18397--REDEF   18398--REDEF   18402--REDEF
QI@1.OP.INX.T
     18395**DCL     19506>>ASSIGN
QI@1.OP.LEN
     18376**DCL     18380--REDEF   18381--REDEF   18385--REDEF   18386--REDEF   18390--REDEF
QI@1.OP.LEN.T
     18378**DCL     19505>>ASSIGN
QI@1.OP.PICTURE_STRING
     18446**DCL     18449--REDEF   18450--REDEF   18453--REDEF   18454--REDEF   18457--REDEF
QI@1.OP.ROUND
     18479**DCL     18480--REDEF   18481--REDEF
QI@1.OP.SRCH_VRFY_ELEMS
     18415**DCL     18418--REDEF
QI@1.OPENED_COUNT
     18684**DCL     18687--REDEF
QI@1.OTTER_SPACE
     18523**DCL     18528--REDEF
QI@1.PICTURE_STRING
     18529**DCL     18534--REDEF
QI@1.SPECIAL_NAMES
     18712**DCL     18721--REDEF
QI@1.TYPE
     18535**DCL     18540--REDEF
QI@TYPE_DISPLAY_TARGET IN PROCEDURE BINARY_TO_DECIMAL
     20297**DCL     20927<<ASSIGN  20939<>CALL    20953<<ASSIGN  20965<>CALL
QI@TYPE_DISPLAY_TARGET.CIP IN PROCEDURE BINARY_TO_DECIMAL
     20301**DCL     20752--REDEF
QI@TYPE_DISPLAY_TARGET.CIP.AUX IN PROCEDURE BINARY_TO_DECIMAL
     20667**DCL     20738--REDEF
QI@TYPE_DISPLAY_TARGET.CIP.AUX.CA IN PROCEDURE BINARY_TO_DECIMAL
     20670**DCL     20674--REDEF   20677--REDEF   20680--REDEF
QI@TYPE_DISPLAY_TARGET.CIP.S IN PROCEDURE BINARY_TO_DECIMAL
     20371**DCL     20442--REDEF
PL6.E3A0      #001=QBV$VERI_PRES File=QBV$VERI_PRES.:E05TSI                      WED 07/30/97 04:57 Page:161
QI@TYPE_DISPLAY_TARGET.CIP.S.CA IN PROCEDURE BINARY_TO_DECIMAL
     20374**DCL     20378--REDEF   20381--REDEF   20384--REDEF
QI@TYPE_DISPLAY_TARGET.CIP.S_A IN PROCEDURE BINARY_TO_DECIMAL
     20442**DCL     20928<<ASSIGN  20954<<ASSIGN
QI@TYPE_DISPLAY_TARGET.CIP.T IN PROCEDURE BINARY_TO_DECIMAL
     20519**DCL     20590--REDEF
QI@TYPE_DISPLAY_TARGET.CIP.T.CD IN PROCEDURE BINARY_TO_DECIMAL
     20564**DCL     20567--REDEF   20571--REDEF   20574--REDEF
QI@TYPE_DISPLAY_TARGET.CIP.T.CD.SIGN IN PROCEDURE BINARY_TO_DECIMAL
     20566**DCL     20935<<ASSIGN  20961<<ASSIGN
QI@TYPE_DISPLAY_TARGET.CIP.T.LEN IN PROCEDURE BINARY_TO_DECIMAL
     20578**DCL     20932<<ASSIGN  20934<<ASSIGN  20947>>ASSIGN  20958<<ASSIGN  20960<<ASSIGN  20973>>ASSIGN
QI@TYPE_DISPLAY_TARGET.CIP.T_A IN PROCEDURE BINARY_TO_DECIMAL
     20590**DCL     20945>>ASSIGN  20971>>ASSIGN
QI@TYPE_DISPLAY_TARGET.DATA IN PROCEDURE BINARY_TO_DECIMAL
     20759**DCL     20763--REDEF
QI@TYPE_DISPLAY_TARGET.DATA.S$ IN PROCEDURE BINARY_TO_DECIMAL
     20760**DCL     20929<<ASSIGN  20955<<ASSIGN
QI@TYPE_DISPLAY_TARGET.DATA.T$ IN PROCEDURE BINARY_TO_DECIMAL
     20761**DCL     20936<<ASSIGN  20946>>ASSIGN  20962<<ASSIGN  20972>>ASSIGN
QI@TYPE_DISPLAY_TARGET.DEC IN PROCEDURE BINARY_TO_DECIMAL
     20827**DCL     20831--REDEF   20832--REDEF   20836--REDEF
QI@TYPE_DISPLAY_TARGET.LEN IN PROCEDURE BINARY_TO_DECIMAL
     20799**DCL     20803--REDEF   20804--REDEF   20808--REDEF   20809--REDEF   20813--REDEF
QI@TYPE_DISPLAY_TARGET.PICTURE_STRING IN PROCEDURE BINARY_TO_DECIMAL
     20869**DCL     20872--REDEF   20873--REDEF   20876--REDEF   20877--REDEF   20880--REDEF
QI@TYPE_DISPLAY_TARGET.ROUND IN PROCEDURE BINARY_TO_DECIMAL
     20902**DCL     20903--REDEF   20904--REDEF
QI@TYPE_DISPLAY_TARGET.SIZE_ERROR IN PROCEDURE BINARY_TO_DECIMAL
     20888**DCL     20889--REDEF   20937<<ASSIGN  20963<<ASSIGN
QI@TYPE_DISPLAY_TARGET.SRCH_VRFY_ELEMS IN PROCEDURE BINARY_TO_DECIMAL
     20838**DCL     20841--REDEF
QI_1
     10851**DCL     19493>>ASSIGN  19820<<ASSIGN  19825<<ASSIGN
QI_1.BASE
     10852**DCL     10859--REDEF
PL6.E3A0      #001=QBV$VERI_PRES File=QBV$VERI_PRES.:E05TSI                      WED 07/30/97 04:57 Page:162
QI_1.BASE.DATA$
     10853**DCL     19873>>ASSIGN
QI_1.BASE.PROC$
     10855**DCL     19281>>ASSIGN  19398>>ASSIGN  19624>>ASSIGN  19672>>ASSIGN  19761>>ASSIGN
QI_1.CURRENT.FILE$
     11743**DCL     11745--REDEF   11747--REDEF
QI_1.CURRENT.FILE_STATUS$
     11749**DCL     11751--REDEF   11753--REDEF
QI_1.CURRENT.FORM$
     11745**DCL     19335>>ASSIGN  19850>>IF      19873>>ASSIGN
QI_1.CURRENT.FORM_STATUS$
     11751**DCL     19166>>IF      19166>>IF
QI_1.CURRENT.FRAME$
     11755**DCL     19903>>ASSIGN
QI_1.CURRENT.FRAME_INDEX
     11759**DCL     19810>>ASSIGN
QI_1.CURRENT.FRAME_STATUS$
     11757**DCL     19159>>IF      19324>>ASSIGN
QI_1.CURRENT.NODE$
     11762**DCL     19154<<ASSIGN
QI_1.CURRENT.NODE_STATUS$
     11764**DCL     19324>>ASSIGN  19811>>ASSIGN
QI_1.DAD
     11547**DCL     11552--REDEF
QI_1.DAD.S$
     11549**DCL     19134>>ASSIGN  19138>>ASSIGN  19544>>ASSIGN  21019>>IF
QI_1.DAD.T$
     11550**DCL     19133>>ASSIGN  19139>>ASSIGN  21034>>IF
QI_1.ERROR_STATUS
     11777**DCL     19162<<ASSIGN  19170<<ASSIGN
QI_1.FILE_HEAD
     11730**DCL     11737--REDEF
QI_1.INSTR$
     10860**DCL     19119>>ASSIGN  19121<<ASSIGN  19121>>ASSIGN
QI_1.IS_ALL_LIT
     11553**DCL     11558--REDEF
PL6.E3A0      #001=QBV$VERI_PRES File=QBV$VERI_PRES.:E05TSI                      WED 07/30/97 04:57 Page:163
QI_1.IS_FORM_VARIABLE
     11559**DCL     11564--REDEF
QI_1.IS_TEMP
     11565**DCL     11570--REDEF
QI_1.MESSAGE_LINE_DAD.PSEUDO_CIP
     11663**DCL     11688--REDEF
QI_1.MESSAGE_LINE_DAD.PSEUDO_CIP.ALPHANUMERIC
     11665**DCL     11670--REDEF
QI_1.MESSAGE_LINE_DAD.PSEUDO_CIP.NUMERIC.CB
     11671**DCL     11674--REDEF   11677--REDEF
QI_1.MESSAGE_LINE_DAD.WORD0
     11632**DCL     11633--REDEF
QI_1.MESSAGE_LINE_GZ.HEADER$
     11709**DCL     19808>>ASSIGN
QI_1.OFFSET
     11571**DCL     11576--REDEF
QI_1.OFFSET.S
     11573**DCL     19453<<ASSIGN  19474<<ASSIGN  19553<<ASSIGN
QI_1.OFFSET.T
     11574**DCL     19464<<ASSIGN  19479<<ASSIGN
QI_1.OFFSET_A
     11576**DCL     20191<<ASSIGN  20191>>ASSIGN
QI_1.OP.CIP
     10932**DCL     11383--REDEF
QI_1.OP.CIP.AUX
     11298**DCL     11369--REDEF
QI_1.OP.CIP.AUX.CD
     11343**DCL     11346--REDEF   11350--REDEF   11353--REDEF
QI_1.OP.CIP.S
     11002**DCL     11073--REDEF
QI_1.OP.CIP.S.CD
     11047**DCL     11050--REDEF   11054--REDEF   11057--REDEF
QI_1.OP.CIP.S.CD.OFFSET
     11048**DCL     19202>>ASSIGN  19452<<ASSIGN  19473<<ASSIGN  19474>>ASSIGN  19543>>ASSIGN  19552<<ASSIGN
     19553>>ASSIGN
QI_1.OP.CIP.S_A
PL6.E3A0      #001=QBV$VERI_PRES File=QBV$VERI_PRES.:E05TSI                      WED 07/30/97 04:57 Page:164
     11073**DCL     20225>>ASSIGN  20928>>ASSIGN  20945<<ASSIGN  20983<<ASSIGN
QI_1.OP.CIP.T
     11150**DCL     11221--REDEF
QI_1.OP.CIP.T.CD
     11195**DCL     11198--REDEF   11202--REDEF   11205--REDEF
QI_1.OP.CIP.T.CD.OFFSET
     11196**DCL     19197>>ASSIGN  19463<<ASSIGN  19464>>ASSIGN  19478<<ASSIGN
QI_1.OP.CIP.T_A
     11221**DCL     20233>>ASSIGN  20954>>ASSIGN  20971<<ASSIGN  20991<<ASSIGN
QI_1.OP.COMP_RESULT
     11534**DCL     19514>>IF      19520>>IF      19531>>IF      19558>>IF
QI_1.OP.DATA
     11390**DCL     11394--REDEF
QI_1.OP.DATA.S$
     11391**DCL     19203>>ASSIGN  19454<<ASSIGN  19475<<ASSIGN  19542>>ASSIGN  19554<<ASSIGN  20226>>ASSIGN
     20929>>ASSIGN  20946<<ASSIGN  20984<<ASSIGN
QI_1.OP.DATA.T$
     11392**DCL     19198>>ASSIGN  19465<<ASSIGN  19480<<ASSIGN  19495<<ASSIGN  20234>>ASSIGN  20955>>ASSIGN
     20972<<ASSIGN  20992<<ASSIGN
QI_1.OP.DATA_A$
     11394**DCL     20192<<ASSIGN  20192>>ASSIGN
QI_1.OP.FILL_CHAR
     11514**DCL     11517--REDEF
QI_1.OP.INX
     11447**DCL     11451--REDEF   11452--REDEF   11456--REDEF
QI_1.OP.INX.T
     11449**DCL     19506<<ASSIGN
QI_1.OP.LEN
     11430**DCL     11434--REDEF   11435--REDEF   11439--REDEF   11440--REDEF   11444--REDEF
QI_1.OP.LEN.AUX
     11433**DCL     12334--IMP-SIZ
QI_1.OP.LEN.S
     11431**DCL     12330--IMP-SIZ 20227>>ASSIGN  20930>>IF      20947<<ASSIGN  20985<<ASSIGN
QI_1.OP.LEN.T
     11432**DCL     12332--IMP-SIZ 19505<<ASSIGN  20235>>ASSIGN  20956>>IF      20973<<ASSIGN  20993<<ASSIGN
QI_1.OP.LEN_A
PL6.E3A0      #001=QBV$VERI_PRES File=QBV$VERI_PRES.:E05TSI                      WED 07/30/97 04:57 Page:165
     11434**DCL     20190<<ASSIGN  20190>>ASSIGN
QI_1.OP.PICTURE_STRING
     11500**DCL     11503--REDEF   11504--REDEF   11507--REDEF   11508--REDEF   11511--REDEF
QI_1.OP.ROUND
     11533**DCL     11534--REDEF   11535--REDEF
QI_1.OP.SRCH_VRFY_ELEMS
     11469**DCL     11472--REDEF
QI_1.OPENED_COUNT
     11738**DCL     11741--REDEF
QI_1.OTTER_SPACE
     11577**DCL     11582--REDEF
QI_1.PICTURE_STRING
     11583**DCL     11588--REDEF
QI_1.PICTURE_STRING.S$
     11585**DCL     21014>>IF      21016>>ASSIGN
QI_1.PICTURE_STRING.T$
     11586**DCL     21029>>IF      21031>>ASSIGN
QI_1.PICTURE_STRING_A$
     11588**DCL     20193<<ASSIGN  20193>>ASSIGN
QI_1.SOURCE$
     10903**DCL     19125<<ASSIGN  19511<<ASSIGN  19526<<ASSIGN  19539<<ASSIGN
QI_1.SPECIAL_NAMES
     11766**DCL     11775--REDEF
QI_1.TYPE
     11589**DCL     11594--REDEF
QI_1.TYPE.S
     11591**DCL     20228>>ASSIGN  20948<<ASSIGN  20986<<ASSIGN  21027>>ASSIGN
QI_1.TYPE.T
     11592**DCL     20236>>ASSIGN  20974<<ASSIGN  20994<<ASSIGN  21042>>ASSIGN
QI_1.VERIFY_BUFFER$
     10871**DCL     19495>>ASSIGN
QI_16_BIT_BINARY
     16779**DCL     16849--REDEF
QI_16_BIT_BINARY.CB
     16798**DCL     16801--REDEF   16805--REDEF   16808--REDEF
QI_31_DIGIT_SLS_DISPLAY
PL6.E3A0      #001=QBV$VERI_PRES File=QBV$VERI_PRES.:E05TSI                      WED 07/30/97 04:57 Page:166
     16612**DCL     16682--REDEF
QI_31_DIGIT_SLS_DISPLAY.CD
     16659**DCL     16662--REDEF   16666--REDEF   16669--REDEF
QI_31_DIGIT_ST_PACKED
     17114**DCL     17184--REDEF
QI_31_DIGIT_ST_PACKED.CP
     17147**DCL     17150--REDEF   17154--REDEF   17157--REDEF
QI_32_BIT_BINARY
     16946**DCL     17016--REDEF
QI_32_BIT_BINARY.CB
     16965**DCL     16968--REDEF   16972--REDEF   16975--REDEF
QI_4_CHAR_ALPHANUMERIC
     16444**DCL     16514--REDEF
QI_4_CHAR_ALPHANUMERIC.CA
     16449**DCL     16453--REDEF   16456--REDEF   16459--REDEF
QI_ACCUMULATOR_DAD.CIP
     17457**DCL     17528--REDEF
QI_ACCUMULATOR_DAD.CIP.CP
     17488**DCL     17491--REDEF   17495--REDEF   17498--REDEF
QI_ALR.CIP
     12409**DCL     12860--REDEF
QI_ALR.CIP.AUX
     12775**DCL     12846--REDEF
QI_ALR.CIP.AUX.CA
     12778**DCL     12782--REDEF   12785--REDEF   12788--REDEF
QI_ALR.CIP.S
     12479**DCL     12550--REDEF
QI_ALR.CIP.S.CA
     12482**DCL     12486--REDEF   12489--REDEF   12492--REDEF
QI_ALR.CIP.T
     12627**DCL     12698--REDEF
QI_ALR.CIP.T.CA
     12630**DCL     12634--REDEF   12637--REDEF   12640--REDEF
QI_ALR.DATA
     12867**DCL     12871--REDEF
QI_ALR.FILL_CHAR
PL6.E3A0      #001=QBV$VERI_PRES File=QBV$VERI_PRES.:E05TSI                      WED 07/30/97 04:57 Page:167
     12991**DCL     12994--REDEF
QI_ALR.INX
     12924**DCL     12928--REDEF   12929--REDEF   12933--REDEF
QI_ALR.LEN
     12907**DCL     12911--REDEF   12912--REDEF   12916--REDEF   12917--REDEF   12921--REDEF
QI_ALR.PICTURE_STRING
     12977**DCL     12980--REDEF   12981--REDEF   12984--REDEF   12985--REDEF   12988--REDEF
QI_ALR.ROUND
     13010**DCL     13011--REDEF   13012--REDEF
QI_ALR.SRCH_VRFY_ELEMS
     12946**DCL     12949--REDEF
QI_MAT.CIP
     15748**DCL     16199--REDEF
QI_MAT.CIP.AUX
     16114**DCL     16185--REDEF
QI_MAT.CIP.AUX.CA
     16117**DCL     16121--REDEF   16124--REDEF   16127--REDEF
QI_MAT.CIP.S
     15818**DCL     15889--REDEF
QI_MAT.CIP.S.CA
     15821**DCL     15825--REDEF   15828--REDEF   15831--REDEF
QI_MAT.CIP.T
     15966**DCL     16037--REDEF
QI_MAT.CIP.T.CA
     15969**DCL     15973--REDEF   15976--REDEF   15979--REDEF
QI_MAT.DATA
     16206**DCL     16210--REDEF
QI_MAT.DEC
     16274**DCL     16278--REDEF   16279--REDEF   16283--REDEF
QI_MAT.FILL_CHAR
     16330**DCL     16333--REDEF
QI_MAT.LEN
     16246**DCL     16250--REDEF   16251--REDEF   16255--REDEF   16256--REDEF   16260--REDEF
QI_MAT.PICTURE_STRING
     16316**DCL     16319--REDEF   16320--REDEF   16323--REDEF   16324--REDEF   16327--REDEF
QI_MAT.ROUND
PL6.E3A0      #001=QBV$VERI_PRES File=QBV$VERI_PRES.:E05TSI                      WED 07/30/97 04:57 Page:168
     16349**DCL     16350--REDEF   16351--REDEF
QI_MAT.SRCH_VRFY_ELEMS
     16285**DCL     16288--REDEF
QI_PICTURE_STRING
     17282**DCL     17352--REDEF
QI_PICTURE_STRING.CA
     17287**DCL     17291--REDEF   17294--REDEF   17297--REDEF
QI_SRCH_VRFY.CIP
     15079**DCL     15530--REDEF
QI_SRCH_VRFY.CIP.AUX
     15445**DCL     15516--REDEF
QI_SRCH_VRFY.CIP.AUX.CA
     15448**DCL     15452--REDEF   15455--REDEF   15458--REDEF
QI_SRCH_VRFY.CIP.S
     15149**DCL     15220--REDEF
QI_SRCH_VRFY.CIP.S.CA
     15152**DCL     15156--REDEF   15159--REDEF   15162--REDEF
QI_SRCH_VRFY.CIP.T
     15297**DCL     15368--REDEF
QI_SRCH_VRFY.CIP.T.CA
     15300**DCL     15304--REDEF   15307--REDEF   15310--REDEF
QI_SRCH_VRFY.DATA
     15537**DCL     15541--REDEF
QI_SRCH_VRFY.DEC
     15605**DCL     15609--REDEF   15610--REDEF   15614--REDEF
QI_SRCH_VRFY.FILL_CHAR
     15661**DCL     15664--REDEF
QI_SRCH_VRFY.ROUND
     15680**DCL     15681--REDEF   15682--REDEF
QI_SRCH_VRFY.SRCH_RESULT
     15621**DCL     15624--REDEF   15625--REDEF   15628--REDEF   15629--REDEF   15632--REDEF
QI_SRCH_VRFY.SRCH_VRFY_ARGS
     15545**DCL     15549--REDEF   15550--REDEF   15554--REDEF   15555--REDEF   15559--REDEF
QI_SRCH_VRFY.SRCH_VRFY_ELEMS
     15616**DCL     15619--REDEF
QI_TYPE_BINARY_TARGET.CIP
PL6.E3A0      #001=QBV$VERI_PRES File=QBV$VERI_PRES.:E05TSI                      WED 07/30/97 04:57 Page:169
     14406**DCL     14857--REDEF
QI_TYPE_BINARY_TARGET.CIP.AUX
     14772**DCL     14843--REDEF
QI_TYPE_BINARY_TARGET.CIP.AUX.CA
     14775**DCL     14779--REDEF   14782--REDEF   14785--REDEF
QI_TYPE_BINARY_TARGET.CIP.S
     14476**DCL     14547--REDEF
QI_TYPE_BINARY_TARGET.CIP.S.CA
     14479**DCL     14483--REDEF   14486--REDEF   14489--REDEF
QI_TYPE_BINARY_TARGET.CIP.T
     14624**DCL     14695--REDEF
QI_TYPE_BINARY_TARGET.CIP.T.CB
     14641**DCL     14644--REDEF   14648--REDEF   14651--REDEF
QI_TYPE_BINARY_TARGET.DATA
     14864**DCL     14868--REDEF
QI_TYPE_BINARY_TARGET.DEC
     14932**DCL     14936--REDEF   14937--REDEF   14941--REDEF
QI_TYPE_BINARY_TARGET.LEN
     14904**DCL     14908--REDEF   14909--REDEF   14913--REDEF   14914--REDEF   14918--REDEF
QI_TYPE_BINARY_TARGET.PICTURE_STRING
     14974**DCL     14977--REDEF   14978--REDEF   14981--REDEF   14982--REDEF   14985--REDEF
QI_TYPE_BINARY_TARGET.ROUND
     15007**DCL     15008--REDEF   15009--REDEF
QI_TYPE_BINARY_TARGET.SIZE_ERROR
     14993**DCL     14994--REDEF
QI_TYPE_BINARY_TARGET.SRCH_VRFY_ELEMS
     14943**DCL     14946--REDEF
QI_TYPE_DISPLAY_SOURCE.CIP
     13074**DCL     13525--REDEF
QI_TYPE_DISPLAY_SOURCE.CIP.AUX
     13440**DCL     13511--REDEF
QI_TYPE_DISPLAY_SOURCE.CIP.AUX.CA
     13443**DCL     13447--REDEF   13450--REDEF   13453--REDEF
QI_TYPE_DISPLAY_SOURCE.CIP.S
     13144**DCL     13215--REDEF
QI_TYPE_DISPLAY_SOURCE.CIP.S.CD
PL6.E3A0      #001=QBV$VERI_PRES File=QBV$VERI_PRES.:E05TSI                      WED 07/30/97 04:57 Page:170
     13189**DCL     13192--REDEF   13196--REDEF   13199--REDEF
QI_TYPE_DISPLAY_SOURCE.CIP.T
     13292**DCL     13363--REDEF
QI_TYPE_DISPLAY_SOURCE.CIP.T.CA
     13295**DCL     13299--REDEF   13302--REDEF   13305--REDEF
QI_TYPE_DISPLAY_SOURCE.DATA
     13532**DCL     13536--REDEF
QI_TYPE_DISPLAY_SOURCE.DEC
     13600**DCL     13604--REDEF   13605--REDEF   13609--REDEF
QI_TYPE_DISPLAY_SOURCE.LEN
     13572**DCL     13576--REDEF   13577--REDEF   13581--REDEF   13582--REDEF   13586--REDEF
QI_TYPE_DISPLAY_SOURCE.PICTURE_STRING
     13642**DCL     13645--REDEF   13646--REDEF   13649--REDEF   13650--REDEF   13653--REDEF
QI_TYPE_DISPLAY_SOURCE.ROUND
     13675**DCL     13676--REDEF   13677--REDEF
QI_TYPE_DISPLAY_SOURCE.SIZE_ERROR
     13661**DCL     13662--REDEF
QI_TYPE_DISPLAY_SOURCE.SRCH_VRFY_ELEMS
     13611**DCL     13614--REDEF
QI_TYPE_DISPLAY_TARGET
     13736**DCL     20927>>ASSIGN  20953>>ASSIGN
QI_TYPE_DISPLAY_TARGET.CIP
     13740**DCL     14191--REDEF
QI_TYPE_DISPLAY_TARGET.CIP.AUX
     14106**DCL     14177--REDEF
QI_TYPE_DISPLAY_TARGET.CIP.AUX.CA
     14109**DCL     14113--REDEF   14116--REDEF   14119--REDEF
QI_TYPE_DISPLAY_TARGET.CIP.S
     13810**DCL     13881--REDEF
QI_TYPE_DISPLAY_TARGET.CIP.S.CA
     13813**DCL     13817--REDEF   13820--REDEF   13823--REDEF
QI_TYPE_DISPLAY_TARGET.CIP.T
     13958**DCL     14029--REDEF
QI_TYPE_DISPLAY_TARGET.CIP.T.CD
     14003**DCL     14006--REDEF   14010--REDEF   14013--REDEF
QI_TYPE_DISPLAY_TARGET.DATA
PL6.E3A0      #001=QBV$VERI_PRES File=QBV$VERI_PRES.:E05TSI                      WED 07/30/97 04:57 Page:171
     14198**DCL     14202--REDEF
QI_TYPE_DISPLAY_TARGET.DEC
     14266**DCL     14270--REDEF   14271--REDEF   14275--REDEF
QI_TYPE_DISPLAY_TARGET.LEN
     14238**DCL     14242--REDEF   14243--REDEF   14247--REDEF   14248--REDEF   14252--REDEF
QI_TYPE_DISPLAY_TARGET.PICTURE_STRING
     14308**DCL     14311--REDEF   14312--REDEF   14315--REDEF   14316--REDEF   14319--REDEF
QI_TYPE_DISPLAY_TARGET.ROUND
     14341**DCL     14342--REDEF   14343--REDEF
QI_TYPE_DISPLAY_TARGET.SIZE_ERROR
     14327**DCL     14328--REDEF
QI_TYPE_DISPLAY_TARGET.SRCH_VRFY_ELEMS
     14277**DCL     14280--REDEF
REPEATS_INDEX
     17760**DCL     19234<<ASSIGN  19238<<ASSIGN  19238>>ASSIGN  19250>>ASSIGN
RESTORE_BINARY_SOURCE IN PROCEDURE RESTORE_BINARY_THING
     20982**ENTRY   20008--CALL    20029--CALL    20088--CALL    20109--CALL    20130--CALL    20149--CALL
     20168--CALL
RESTORE_BINARY_TARGET IN PROCEDURE RESTORE_BINARY_THING
     20990**ENTRY   19990--CALL    20018--CALL    20030--CALL
RESTORE_FLAG
     17761**DCL     19497<<ASSIGN  19498<>CALL    19830<<ASSIGN  19831<>CALL
RESTORE_FLAG IN PROCEDURE MOVE_IT
     20063**DCL     20043--PROC    20086>>IF      20107>>IF      20128>>IF      20147>>IF      20166>>IF
RETRY_FIELD_VERI_PRES
     19431**LABEL   19822--GOTO
RETRY_THE_CURRENT_PAIR
     19157**LABEL   19913--GOTO
SAVED_BINARY_CIP_SOURCE
     17762**DCL     20225<<ASSIGN  20983>>ASSIGN
SAVED_BINARY_CIP_TARGET
     17763**DCL     20233<<ASSIGN  20991>>ASSIGN
SAVED_BINARY_DATA_SOURCE$
     17764**DCL     20226<<ASSIGN  20984>>ASSIGN
SAVED_BINARY_DATA_TARGET$
     17765**DCL     20234<<ASSIGN  20992>>ASSIGN
PL6.E3A0      #001=QBV$VERI_PRES File=QBV$VERI_PRES.:E05TSI                      WED 07/30/97 04:57 Page:172
SAVED_BINARY_LEN_SOURCE
     17766**DCL     20227<<ASSIGN  20985>>ASSIGN
SAVED_BINARY_LEN_TARGET
     17767**DCL     20235<<ASSIGN  20993>>ASSIGN
SAVED_BINARY_TYPE_SOURCE
     17768**DCL     20228<<ASSIGN  20986>>ASSIGN
SAVED_BINARY_TYPE_TARGET
     17769**DCL     20236<<ASSIGN  20994>>ASSIGN
SAVE_BINARY_SOURCE IN PROCEDURE SAVE_BINARY_THING
     20224**ENTRY   20004--CALL    20023--CALL    20082--CALL    20103--CALL    20124--CALL    20143--CALL
     20162--CALL
SAVE_BINARY_TARGET IN PROCEDURE SAVE_BINARY_THING
     20232**ENTRY   19986--CALL    20014--CALL    20025--CALL
SO_DO_THE_VERI_PRES_ALREADY
     19119**LABEL   19082--GOTO
SUBSCRIPT_BOUND_A
     17770**DCL     19181<<ASSIGN  19182<<ASSIGN  19185<<ASSIGN  19250<<ASSIGN  19312<<ASSIGN  19422>>DOINDEX
     19425>>DOINDEX
SUBSCRIPT_DO_INDEX_A
     17776**DCL     19443>>ASSIGN
SUBSCRIPT_DO_INDICES
     17772**DCL     17776--REDEF
SUBSCRIPT_DO_INDICES.FIRST
     17773**DCL     19422<<DOINDEX
SUBSCRIPT_DO_INDICES.SECOND
     17774**DCL     19425<<DOINDEX
SUBSCRIPT_INDEX
     17771**DCL     19186<<ASSIGN  19191<<ASSIGN  19250>>ASSIGN  19252<<ASSIGN  19252>>ASSIGN  19253>>IF
     19312>>ASSIGN  19314<<ASSIGN  19314>>ASSIGN  19315>>IF
THIS_IS_A_VERIFY
     17777**DCL     19081<<ASSIGN  19115<<ASSIGN  19130>>IF      19194>>IF      19331>>IF      19431>>IF
     19448>>IF      19833>>IF      19892>>IF
VERI_PRES_COUNT
     17778**DCL     19120<<ASSIGN  19121>>ASSIGN  19123>>DOINDEX
VERI_PRES_INDEX
     17779**DCL     19123<<DOINDEX 19125>>ASSIGN
