VERSION E05

PL6.E3A0      #001=QBW$WRITE_TRAN File=QBW$WRITE_TRAN.:E05TSI                    WED 07/30/97 04:59 Page:1
        1        1        /*M* QBW$WRITE_TRAN:  WRITE a transaction to the host.  */
        2        2        /*T***********************************************************/
        3        3        /*T*                                                         */
        4        4        /*T* Copyright (c) Bull HN Information Systems Inc., 1997    */
        5        5        /*T*                                                         */
        6        6        /*T***********************************************************/
        7        7        /*X* DMC,PLM=4,IND=0,DCI=4,CSI=2,IAD=2,DTI=2,AND,ECI=0,DIN=2,STI=2 */
        8        8
        9        9        /*P*  NAME:         QBW$WRITE_TRAN
       10       10              PURPOSE:      Write a transaction to the host.
       11       11              DESCRIPTION:  Execute a WRITE_TRAN op-code, whose argument is
       12       12                            a 01-level FILE SECTION DAD (record).
       13       13        */
       14       14
       15       15        QBW$WRITE_TRAN: PROC;
       16       16
       17       17        /*D*  NAME:         QBW$WRITE_TRAN
       18       18              CALL:         CALL QBW$WRITE_TRAN;
       19       19              PARAMETERS:   None.
       20       20              INTERFACE:    Called by QAT$TALLYHO when a WRITE_TRAN op-code
       21       21                            is encountered.
       22       22                            Calls M$WRITE directed at the host.
       23       23              ENVIRONMENT:  Nothing unusual.
       24       24              INPUT:        QI_1,
       25       25                            FPL rununit static data following the op-code.
       26       26              OUTPUT:       Writes the record in the general direction of the
       27       27                            host, to a timesharing- or comgroup-connected user.
       28       28              SCRATCH:      Various otter data.
       29       29              DESCRIPTION:  Check the transaction TYPE for legality, and write
       30       30                            it (RRR is always set).
       31       31                            Something in the host should be smart enough to
       32       32                            throw away unusable FPT junk (VLP_CG, etc.) for
       33       33                            writes directed to non-comgroup things.
       34       34        */
       35       35
       36       36          %INCLUDE B_ERRORS_C;
       37     1163          %INCLUDE QI_PERR_C;
PL6.E3A0      #001=QBW$WRITE_TRAN File=QBW$WRITE_TRAN.:E05TSI                    WED 07/30/97 04:59 Page:2
       38     1331          %INCLUDE LCP_6;
       39     1522          %FPT_WRITE ( FPTN = FPT@WRITE,
       40     1523                       STCLASS = AUTO );
       41     1547          %VLP_CG ( FPTN = VLP@CG,
       42     1548                    STCLASS = AUTO );
       43     1568
       44     1569          %INCLUDE QG_MACRO_M;
       45     1706          %QGB_ENTRIES;
       46     1719          %INCLUDE QI_EQUATES_E;
       47     2078          %INCLUDE QI_MACROS_M;
       48     7136          %QI$ALL;
       49    18249          %QI_FPTS;
       50    20294
       51    20295    1     DCL DAD$ PTR;
       52    20296    1     DCL ERROR_STATUS$ PTR;
       53    20297    1     DCL INSTR$ PTR;
       54    20298    1     DCL MESSAGE_TYPE$ PTR;
       55    20299    1     DCL TRAN_FILE$ PTR;
       56    20300    1     DCL TRAN_STATUS$ PTR;
       57    20301
       58    20302    1     DCL QCC$CBD ENTRY (1);
       59    20303    1     DCL QCC$CDB ENTRY (1);
       60    20304    1     DCL QCE$ERROR_INTERNAL ENTRY (4);
       61    20305    1     DCL QCE$ERROR_M$INTERNAL ENTRY (4);
       62    20306    1     DCL QCS$SETUP_TARGET ENTRY;
       63    20307    1     DCL QCU$USE_INVALID_IO ENTRY (1);
       64    20308
       65    20309          %QI@TYPE_DISPLAY_TARGET;
       66    20974          %QI@OTTER_SPACE;
       67    21002
       68    21003          %SET LISTMAC = '1'B;
       69    21004
       70    21005          %INCLUDE QCU_USE_M;
       71    21059          %QCU@USE;
             21060            %BEGIN_MACRO;
             21061            %SET LISTDIR = '0'B;
             21074    1     DCL 1 QCU@USE AUTO ALIGNED,
PL6.E3A0      #001=QBW$WRITE_TRAN File=QBW$WRITE_TRAN.:E05TSI                    WED 07/30/97 04:59 Page:3
             21075    1           2 CURR_FRAME$ PTR,
             21076                          /* Pointer to DAD of current frame or ADDR (NIL).  */
             21077    1           2 CURR_NODE$ PTR,
             21078                          /* Pointer to current node or ADDR (NIL).  */
             21079    1           2 USE_DEFAULT_IO UBIN,
             21080                          /* For USE procedures which default applies
             21081                             (see corresponding EQUs).  */
             21082    1           2 IS_TIME_TO_SAVE_AWAY_FIELDS BIT(1) ALIGNED,
             21083                          /* If IS_TIME_TO_SAVE_AWAY_FIELDS, then
             21084                             save the fields within the bounds of
             21085                             FRAME_START_INDEX, FRAME_STOP_INDEX,
             21086                             FIELD_START_INDEX, and FIELD_STOP_INDEX
             21087                             before calling the USE procedure.  */
             21088    1           2 FRAME_START_INDEX UBIN,
             21089                          /* Foist frame of the CURRENT.FORM$
             21090                             involved with the I-O error.  */
             21091    1           2 FRAME_STOP_INDEX UBIN,
             21092                          /* Larst frame of the CURRENT.FORM$
             21093                             involved with the I-O error.  */
             21094    1           2 IS_FIELD_INDEXES_VALID BIT(1) ALIGNED,
             21095                          /* If IS_FIELD_INDEXES_VALID, use them;
             21096                             else use all the fields in the frame.  */
             21097    1           2 FIELD_START_INDEX UBIN,
             21098                          /* Starting index into QI$GZ_FIELD
             21099                             which may have values "pushed".  */
             21100    1           2 FIELD_STOP_INDEX UBIN,
             21101                          /* Stopping index into QI$GZ_FIELD
             21102                             which may have values "pushed".  */
             21103    1           2 IS_CURSOR_POSITION_VALID BIT(1) ALIGNED,
             21104                          /* If IS_CURSOR_POSITION_VALID, use it;
             21105                             else allow cursor to default to upper-left-most field.  */
             21106    1           2 CURSOR_POSITION BIT(16) ALIGNED,
             21107                          /* POSition of the field on which to place the cursor.  */
             21108    1           2 STATUS UBIN;
             21109                          /* Returned action code; see corresponding EQUs.  */
             21116            %ENDIF;
       72    21119
PL6.E3A0      #001=QBW$WRITE_TRAN File=QBW$WRITE_TRAN.:E05TSI                    WED 07/30/97 04:59 Page:4
       73    21120          %SET LISTMAC = '0'B;
       74    21121        %EJECT;
PL6.E3A0      #001=QBW$WRITE_TRAN File=QBW$WRITE_TRAN.:E05TSI                    WED 07/30/97 04:59 Page:5
       75    21122    1       INSTR$ = QI_1.INSTR$;
       76    21123    1       QI_1.INSTR$ = ADDR ( INSTR$ -> QI$OP_WRITE_TRAN.NEXT_CODE@P );
       77    21124
       78    21125    1   RETRY_TRANSACTION_WRITE:
       79    21126    1       QI_1.A_REG = 0;
       80    21127    1       QI_1.AT_END = 0;
       81    21128
       82    21129            %PROC_ADDRESS ( THING@P = "INSTR$ -> QI$OP_WRITE_TRAN.TRAN_RECORD@P",
       83    21130            CHECK_FOR_INDIRECTION = NO,
       84    21131            RESULT$ = TRAN_FILE$ );
       85    21168
       86    21169            %IF QI#DEBUG;
       87    21170
       88    21171    1       IF TRAN_FILE$ -> QI$TRAN_FILE.WORD0_FLAGS.TYPE ~= %QI#TYPE_TRANSACTION
       89    21172    1       THEN
       90    21173    1         CALL QCE$ERROR_INTERNAL ( %E$INTERNAL_COMPILER_ERROR );
       91    21174
       92    21175            %ENDIF;
       93    21176
       94    21177            %DATA_ADDRESS ( THING@D = "TRAN_FILE$ -> QI$TRAN_FILE.STATUS_AREA@D",
       95    21178            CHECK_FOR_INDIRECTION = NO,
       96    21179            RESULT$ = TRAN_STATUS$ );
       97    21216
       98    21217    1       IF NOT TRAN_STATUS$ -> QI$TRAN_STATUS.INDICATORS.OPEN_FLAGS.IS_OUTPUT
       99    21218    1       THEN
      100    21219    2         DO;
      101    21220    2           IF NOT TRAN_STATUS$ -> QI$TRAN_STATUS.INDICATORS.OPEN_FLAGS.IS_INPUT
      102    21221    2           THEN
      103    21222    2             QI_1.ERROR_STATUS = %E$FILE_NOT_OPEN;
      104    21223    2           ELSE
      105    21224    2             QI_1.ERROR_STATUS = %E$FILE_NOT_OPEN_OUTPUT;
      106    21225
      107    21226    2           GOTO CHECK_USE_PROCEDURE_OR_INVALID;
      108    21227    2         END;
      109    21228
      110    21229    1       FPT@WRITE = QI_FPT_WRITE;
      111    21230    1       VBASE ( FPT@WRITE.V_ ) = ADDR ( FPT@WRITE.V );
PL6.E3A0      #001=QBW$WRITE_TRAN File=QBW$WRITE_TRAN.:E05TSI                    WED 07/30/97 04:59 Page:6
      112    21231    1       VLP@CG = QI_VLP_CG;
      113    21232    1       FPT@WRITE.CG_ = VECTOR ( VLP@CG );
      114    21233
      115    21234    1       FPT@WRITE.V.DCB# = TRAN_FILE$ -> QI$TRAN_FILE.DCB#;
      116    21235
      117    21236            %DATA_ADDRESS ( THING@D = "TRAN_FILE$ -> QI$TRAN_FILE.BUFFER@D",
      118    21237            CHECK_FOR_INDIRECTION = NO,
      119    21238            RESULT$ = "VBASE ( FPT@WRITE.BUF_ )" );
      120    21275
      121    21276    1       VBOUND ( FPT@WRITE.BUF_ ) = INSTR$ -> QI$OP_WRITE_TRAN.DATA_SIZE - 1;
      122    21277
      123    21278            %IF QI#DEBUG;
      124    21279
      125    21280    1       IF INSTR$ -> QI$OP_WRITE_TRAN.DATA_SIZE > TRAN_FILE$ -> QI$TRAN_FILE.
             21280                MAX_RECORD_SIZE
      126    21281    1       THEN
      127    21282            /*  Yuck:  tried to write more than the biggest FD record.  */
      128    21283    1         CALL QCE$ERROR_INTERNAL ( %E$INTERNAL_COMPILER_ERROR );
      129    21284
      130    21285            %ENDIF;
      131    21286
      132    21287    1       FPT@WRITE.V.DVBYTE.RRR = %YES;
      133    21288
      134    21289            %PROC_ADDRESS ( THING@P = "TRAN_FILE$ -> QI$TRAN_FILE.TYPE@P",
      135    21290            CHECK_FOR_INDIRECTION = YES,
      136    21291            RESULT$ = DAD$ );
      137    21328
      138    21329            %DATA_ADDRESS ( THING@D = "DAD$ -> QI$DAD.PSEUDO_CIP.DATA@",
      139    21330            CHECK_FOR_INDIRECTION = NO,
      140    21331            RESULT$ = MESSAGE_TYPE$ );
      141    21368
      142    21369    1       VLP@CG.MSGTYP# = MESSAGE_TYPE$ -> QI$MESSAGE_TYPE.TEXT;
      143    21370
      144    21371    1       CALL QGB$WRITE ( FPT@WRITE, QGB_PARAM )
      145    21372    1       WHENALTRETURN
      146    21373    2         DO;
      147    21374
PL6.E3A0      #001=QBW$WRITE_TRAN File=QBW$WRITE_TRAN.:E05TSI                    WED 07/30/97 04:59 Page:7
      148    21375    2           IF QGB_PARAM.ERR.ERR# = %E$LD
      149    21376    2           THEN
      150    21377    2             QI_1.ERROR_STATUS = %E$TRANSACTION_LOST_DATA;
      151    21378    2           ELSE
      152    21379    2             QI_1.ERROR_STATUS = %E$TRANSACTION_WRITE_ERROR;
      153    21380
      154    21381    2           GOTO CHECK_USE_PROCEDURE_OR_INVALID;
      155    21382
      156    21383    2         END;
      157    21384
      158    21385    1       TRAN_STATUS$ -> QI$TRAN_STATUS.LAST_ID = VLP@CG.MSGID#;
      159    21386
      160    21387    1       IF TRAN_FILE$ -> QI$TRAN_FILE.WORD0_FLAGS.IS_ID_VALID
      161    21388    1       THEN
      162    21389    2         DO;
      163    21390    2           QI_1.SOURCE$ = ADDR ( TRAN_FILE$ -> QI$TRAN_FILE.ID@P );
      164    21391
      165    21392    2           CALL QCS$SETUP_TARGET;
      166    21393
      167    21394    3           DO CASE ( QI_1.TYPE.T );
      168    21395
      169    21396    3             CASE ( %QI#TYPE_BINARY );
      170    21397                      %IF QI#DEBUG;
      171    21398
      172    21399    3               IF QI_1.OP.LEN.T ~= %QI#MAX_BINARY_LENGTH
      173    21400    3               THEN
      174    21401    3                 CALL QCE$ERROR_INTERNAL ( %E$INTERNAL_COMPILER_ERROR );
      175    21402
      176    21403                      %ENDIF;
      177    21404
      178    21405    3               QI@TYPE_DISPLAY_TARGET = QI_TYPE_DISPLAY_TARGET;
      179    21406    3               QI@TYPE_DISPLAY_TARGET.CIP.S_A (0) = QI_32_BIT_BINARY_A (0);
      180    21407    3               QI@TYPE_DISPLAY_TARGET.DATA.S$ = ADDR ( VLP@CG.MSGID# );
      181    21408    3               QI@TYPE_DISPLAY_TARGET.DATA.T$ = ADDR ( QI@OTTER_SPACE );
      182    21409
      183    21410    3               QI@TYPE_DISPLAY_TARGET.SIZE_ERROR = %QI#DONT_CHECK_FOR_SIZE_ERROR;
      184    21411
PL6.E3A0      #001=QBW$WRITE_TRAN File=QBW$WRITE_TRAN.:E05TSI                    WED 07/30/97 04:59 Page:8
      185    21412    3               CALL QCC$CBD ( QI@TYPE_DISPLAY_TARGET );
      186    21413
      187    21414    3               QI_1.OP.CIP.S_A (0) = QI@TYPE_DISPLAY_TARGET.CIP.T_A (0);
      188    21415    3               QI_1.OP.DATA.S$ = QI@TYPE_DISPLAY_TARGET.DATA.T$;
      189    21416
      190    21417    3               CALL QCC$CDB ( QI_1.OP );
      191    21418
      192    21419    3             CASE ( %QI#TYPE_DISPLAY,
      193    21420    3                 %QI#TYPE_PACKED );
      194    21421                      %IF QI#DEBUG;
      195    21422
      196    21423    3               IF QI_1.OP.LEN.T ~= 10
      197    21424    3               THEN
      198    21425    3                 CALL QCE$ERROR_INTERNAL ( %E$INTERNAL_COMPILER_ERROR );
      199    21426
      200    21427                      %ENDIF;
      201    21428
      202    21429    3               QI_1.OP.CIP.S_A (0) = QI_32_BIT_BINARY_A (0);
      203    21430    3               QI_1.OP.DATA.S$ = ADDR ( VLP@CG.MSGID# );
      204    21431    3               QI_1.OP.DEC.S = 0;
      205    21432
      206    21433    3               QI_1.OP.SIZE_ERROR = %QI#DONT_CHECK_FOR_SIZE_ERROR;
      207    21434
      208    21435    3               CALL QCC$CBD ( QI_1.OP );
      209    21436
      210    21437    3             CASE ( ELSE );
      211    21438    3               CALL QCE$ERROR_INTERNAL ( %E$INTERNAL_COMPILER_ERROR );
      212    21439
      213    21440    3           END;
      214    21441
      215    21442    2         END;
      216    21443
      217    21444    1       IF TRAN_FILE$ -> QI$TRAN_FILE.WORD0_FLAGS.IS_ERROR_STATUS_VALID
      218    21445    1       THEN
      219    21446    2         DO;
      220    21447                %DATA_ADDRESS ( THING@D = "TRAN_FILE$ -> QI$TRAN_FILE.ERROR_STATUS@D",
      221    21448                CHECK_FOR_INDIRECTION = NO,
PL6.E3A0      #001=QBW$WRITE_TRAN File=QBW$WRITE_TRAN.:E05TSI                    WED 07/30/97 04:59 Page:9
      222    21449                RESULT$ = ERROR_STATUS$ );
      223    21486    2           ERROR_STATUS$ -> QI$ERROR_STATUS.TEXT = %QI#OP_WRITE_TRAN_TEXT;
      224    21487    2         END;
      225    21488
      226    21489    1       RETURN;
      227    21490
      228    21491        %EJECT;
PL6.E3A0      #001=QBW$WRITE_TRAN File=QBW$WRITE_TRAN.:E05TSI                    WED 07/30/97 04:59 Page:10
      229    21492    1   CHECK_USE_PROCEDURE_OR_INVALID:
      230    21493    1       QI_1.CURRENT.TRAN$ = TRAN_FILE$;
      231    21494    1       QI_1.CURRENT.TRAN_STATUS$ = TRAN_STATUS$;
      232    21495
      233    21496    1       QCU@USE.USE_DEFAULT_IO = %QI#USE_DEFAULT_NONE;
      234    21497    1       QCU@USE.IS_TIME_TO_SAVE_AWAY_FIELDS = %NO;
      235    21498    1       QCU@USE.CURR_FRAME$ = ADDR (NIL);
      236    21499    1       QCU@USE.CURR_NODE$ = TRAN_FILE$;
      237    21500
      238    21501    1       CALL QCU$USE_INVALID_IO ( QCU@USE );
      239    21502
      240    21503    2       DO CASE ( QCU@USE.STATUS );
      241    21504
      242    21505    2         CASE ( %QI#USE_INVALID_RETURN );
      243    21506    2           RETURN;
      244    21507
      245    21508    2         CASE ( %QI#USE_INVALID_RETRY );
      246    21509    2           GOTO RETRY_TRANSACTION_WRITE;
      247    21510
      248    21511    2         CASE ( %QI#USE_INVALID_SKIP_TO_NEXT );
      249    21512    2           RETURN;
      250    21513
      251    21514    2         CASE ( ELSE );
      252    21515    2           CALL QCE$ERROR_INTERNAL ( %E$INTERNAL_INTERPRETER_ERROR );
      253    21516
      254    21517    2       END;
      255    21518
      256    21519    1   END QBW$WRITE_TRAN;

PL6.E3A0      #001=QBW$WRITE_TRAN File=QBW$WRITE_TRAN.:E05TSI                    WED 07/30/97 04:59 Page:11
--  Include file information  --

   QCU_USE_M.:E05TOU  is referenced.
   QI_MACROS_M.:E05TOU  is referenced.
   QI_EQUATES_E.:E05TOU  is referenced.
   QG_MACRO_M.:E05TOU  is referenced.
   LCP_6.:E05TOU  cannot be made into a system file and is referenced.
   QI_PERR_C.:E05TOU  is referenced.
   B_ERRORS_C.:E05TOU  is referenced.
   G_LCP6_E.:E05TOU  was found in the system file and is referenced.
   GT_LCP6_M.:E05TOU  was found in the system file and is referenced.
   KI_CP6.:E05TOU  was found in the system file and is referenced.
   GF_LCP6_M.:E05TOU  was found in the system file and is referenced.
   GM_LCP6_M.:E05TOU  was found in the system file and is referenced.
   GU_LCP6_M.:E05TOU  was found in the system file and is referenced.
   GJ_LCP6_M.:E05TOU  was found in the system file and is referenced.
   GH_LCP6_M.:E05TOU  was found in the system file and is referenced.
      No diagnostics issued in procedure QBW$WRITE_TRAN.

   Procedure QBW$WRITE_TRAN requires 513 words for executable code.
   Procedure QBW$WRITE_TRAN requires 96 words of local(AUTO) storage.

    No errors detected in file QBW$WRITE_TRAN.:E05TSI    .

PL6.E3A0      #001=QBW$WRITE_TRAN File=QBW$WRITE_TRAN.:E05TSI                    WED 07/30/97 04:59 Page:12

 Object Unit name= QBW$WRITE_TRAN                             File name= QBW$WRITE_TRAN.:E05TOU
 UTS= JUL 30 '97 04:59:29.76 WED                              Compiler= PL-6/E31         Sev=      00
 SharedLib= :SHARED_LCP6_SYSTEM                               Alt SharedLib=


    ****  Control sections  ****

 Sect   Type Bound  Init  Size HexSiz  Section name
    0  RoData even  UTS      1      1  QBW$WRITE_TRAN
    1   Proc  even  none   513    201  QBW$WRITE_TRAN
    2  RoData even  none     8      8  QBW$WRITE_TRAN

    ****  Entry defs  ****

                              Check   Calling
                             calling  sequence
  Sect HexLoc Primary Altret sequence   type   Parms  Name
     1      0   yes            yes      Std        0  QBW$WRITE_TRAN

  ****  Entry refs  ****

         Check        Calling
        calling       sequence
Altret sequence SRef   type   Args  Name
         yes           Std       4 QCE$ERROR_INTERNAL
         yes           Std       1 QCC$CBD
 yes     yes           Std       2 QGB$WRITE
         yes           Std       0 QCS$SETUP_TARGET
         yes           Std       1 QCC$CDB
         yes           Std       1 QCU$USE_INVALID_IO
                       nStd      0 X6A_AUTO_0
                       nStd      0 X6A_ARET
PL6.E3A0      #001=QBW$WRITE_TRAN File=QBW$WRITE_TRAN.:E05TSI                    WED 07/30/97 04:59 Page:13

  ****  Data refs  ****

  Flags:  r = read only, s = secondary
Flgs Name                             Flgs Name                             Flgs Name
     QI_1                                  QGB_PARAM                             QI_TYPE_DISPLAY_TARGET
     QI_4_CHAR_ALPHANUMERIC                QI_31_DIGIT_SLS_DISPLAY               QI_16_BIT_BINARY
     QI_32_BIT_BINARY                      QI_31_DIGIT_ST_PACKED                 QI_PICTURE_STRING
     QI_VLP_CG                             QI_FPT_WRITE                     r    G$ROS$
PL6.E3A0      #001=QBW$WRITE_TRAN File=QBW$WRITE_TRAN.:E05TSI                    WED 07/30/97 04:59 Page:14


        1        1        /*M* QBW$WRITE_TRAN:  WRITE a transaction to the host.  */
        2        2        /*T***********************************************************/
        3        3        /*T*                                                         */
        4        4        /*T* Copyright (c) Bull HN Information Systems Inc., 1997    */
        5        5        /*T*                                                         */
        6        6        /*T***********************************************************/
        7        7        /*X* DMC,PLM=4,IND=0,DCI=4,CSI=2,IAD=2,DTI=2,AND,ECI=0,DIN=2,STI=2 */
        8        8
        9        9        /*P*  NAME:         QBW$WRITE_TRAN
       10       10              PURPOSE:      Write a transaction to the host.
       11       11              DESCRIPTION:  Execute a WRITE_TRAN op-code, whose argument is
       12       12                            a 01-level FILE SECTION DAD (record).
       13       13        */
       14       14
       15       15        QBW$WRITE_TRAN: PROC;

     15   1 000000  D380 0000 0000  xent QBW$WRITE_TRAN  LNJ,B5   X6A_AUTO_0
          1 000003       0060 0000                       DC       96,0

       16       16
       17       17        /*D*  NAME:         QBW$WRITE_TRAN
       18       18              CALL:         CALL QBW$WRITE_TRAN;
       19       19              PARAMETERS:   None.
       20       20              INTERFACE:    Called by QAT$TALLYHO when a WRITE_TRAN op-code
       21       21                            is encountered.
       22       22                            Calls M$WRITE directed at the host.
       23       23              ENVIRONMENT:  Nothing unusual.
       24       24              INPUT:        QI_1,
       25       25                            FPL rununit static data following the op-code.
       26       26              OUTPUT:       Writes the record in the general direction of the
       27       27                            host, to a timesharing- or comgroup-connected user.
       28       28              SCRATCH:      Various otter data.
       29       29              DESCRIPTION:  Check the transaction TYPE for legality, and write
       30       30                            it (RRR is always set).
       31       31                            Something in the host should be smart enough to
       32       32                            throw away unusable FPT junk (VLP_CG, etc.) for
PL6.E3A0      #001=QBW$WRITE_TRAN File=QBW$WRITE_TRAN.:E05TSI                    WED 07/30/97 04:59 Page:15
       33       33                            writes directed to non-comgroup things.
       34       34        */
       35       35
       36       36          %INCLUDE B_ERRORS_C;
       37     1163          %INCLUDE QI_PERR_C;
       38     1331          %INCLUDE LCP_6;
       39     1522          %FPT_WRITE ( FPTN = FPT@WRITE,
       40     1523                       STCLASS = AUTO );
       41     1547          %VLP_CG ( FPTN = VLP@CG,
       42     1548                    STCLASS = AUTO );
       43     1568
       44     1569          %INCLUDE QG_MACRO_M;
       45     1706          %QGB_ENTRIES;
       46     1719          %INCLUDE QI_EQUATES_E;
       47     2078          %INCLUDE QI_MACROS_M;
       48     7136          %QI$ALL;
       49    18249          %QI_FPTS;
       50    20294
       51    20295    1     DCL DAD$ PTR;
       52    20296    1     DCL ERROR_STATUS$ PTR;
       53    20297    1     DCL INSTR$ PTR;
       54    20298    1     DCL MESSAGE_TYPE$ PTR;
       55    20299    1     DCL TRAN_FILE$ PTR;
       56    20300    1     DCL TRAN_STATUS$ PTR;
       57    20301
       58    20302    1     DCL QCC$CBD ENTRY (1);
       59    20303    1     DCL QCC$CDB ENTRY (1);
       60    20304    1     DCL QCE$ERROR_INTERNAL ENTRY (4);
       61    20305    1     DCL QCE$ERROR_M$INTERNAL ENTRY (4);
       62    20306    1     DCL QCS$SETUP_TARGET ENTRY;
       63    20307    1     DCL QCU$USE_INVALID_IO ENTRY (1);
       64    20308
       65    20309          %QI@TYPE_DISPLAY_TARGET;
       66    20974          %QI@OTTER_SPACE;
       67    21002
       68    21003          %SET LISTMAC = '1'B;
       69    21004
PL6.E3A0      #001=QBW$WRITE_TRAN File=QBW$WRITE_TRAN.:E05TSI                    WED 07/30/97 04:59 Page:16
       70    21005          %INCLUDE QCU_USE_M;
       71    21059          %QCU@USE;
             21060            %BEGIN_MACRO;
             21061            %SET LISTDIR = '0'B;
             21074    1     DCL 1 QCU@USE AUTO ALIGNED,
             21075    1           2 CURR_FRAME$ PTR,
             21076                          /* Pointer to DAD of current frame or ADDR (NIL).  */
             21077    1           2 CURR_NODE$ PTR,
             21078                          /* Pointer to current node or ADDR (NIL).  */
             21079    1           2 USE_DEFAULT_IO UBIN,
             21080                          /* For USE procedures which default applies
             21081                             (see corresponding EQUs).  */
             21082    1           2 IS_TIME_TO_SAVE_AWAY_FIELDS BIT(1) ALIGNED,
             21083                          /* If IS_TIME_TO_SAVE_AWAY_FIELDS, then
             21084                             save the fields within the bounds of
             21085                             FRAME_START_INDEX, FRAME_STOP_INDEX,
             21086                             FIELD_START_INDEX, and FIELD_STOP_INDEX
             21087                             before calling the USE procedure.  */
             21088    1           2 FRAME_START_INDEX UBIN,
             21089                          /* Foist frame of the CURRENT.FORM$
             21090                             involved with the I-O error.  */
             21091    1           2 FRAME_STOP_INDEX UBIN,
             21092                          /* Larst frame of the CURRENT.FORM$
             21093                             involved with the I-O error.  */
             21094    1           2 IS_FIELD_INDEXES_VALID BIT(1) ALIGNED,
             21095                          /* If IS_FIELD_INDEXES_VALID, use them;
             21096                             else use all the fields in the frame.  */
             21097    1           2 FIELD_START_INDEX UBIN,
             21098                          /* Starting index into QI$GZ_FIELD
             21099                             which may have values "pushed".  */
             21100    1           2 FIELD_STOP_INDEX UBIN,
             21101                          /* Stopping index into QI$GZ_FIELD
             21102                             which may have values "pushed".  */
             21103    1           2 IS_CURSOR_POSITION_VALID BIT(1) ALIGNED,
             21104                          /* If IS_CURSOR_POSITION_VALID, use it;
             21105                             else allow cursor to default to upper-left-most field.  */
             21106    1           2 CURSOR_POSITION BIT(16) ALIGNED,
PL6.E3A0      #001=QBW$WRITE_TRAN File=QBW$WRITE_TRAN.:E05TSI                    WED 07/30/97 04:59 Page:17
             21107                          /* POSition of the field on which to place the cursor.  */
             21108    1           2 STATUS UBIN;
             21109                          /* Returned action code; see corresponding EQUs.  */
             21116            %ENDIF;
       72    21119
       73    21120          %SET LISTMAC = '0'B;
       74    21121        %EJECT;
PL6.E3A0      #001=QBW$WRITE_TRAN File=QBW$WRITE_TRAN.:E05TSI                    WED 07/30/97 04:59 Page:18
       75    21122    1       INSTR$ = QI_1.INSTR$;

  21122   1 000005  EC80 0000 0006  xsym                 LDB,B6   QI_1+6
          1 000008  EFC7 0026                            STB,B6   INSTR$,AUTO

       76    21123    1       QI_1.INSTR$ = ADDR ( INSTR$ -> QI$OP_WRITE_TRAN.NEXT_CODE@P );

  21123   1 00000A  DBC6 0003                            LAB,B5   3,B6
          1 00000C  DF80 0000 0006  xsym                 STB,B5   QI_1+6

       77    21124
       78    21125    1   RETRY_TRANSACTION_WRITE:
       79    21126    1       QI_1.A_REG = 0;

  21126   1 00000F  8700 0000 0054  xsym RETRY_TRANSACTI*CL       QI_1+84

       80    21127    1       QI_1.AT_END = 0;

  21127   1 000012  8700 0000 0056  xsym                 CL       QI_1+86

       81    21128
       82    21129            %PROC_ADDRESS ( THING@P = "INSTR$ -> QI$OP_WRITE_TRAN.TRAN_RECORD@P",
       83    21130            CHECK_FOR_INDIRECTION = NO,
       84    21131            RESULT$ = TRAN_FILE$ );

  21149   1 000015  ECC7 0026                            LDB,B6   INSTR$,AUTO
          1 000017  B846 0001                            LDR,R3   1,B6
          1 000019  F853                                 LDR,R7   R3
          1 00001A  6C00                                 LDV,R6   0
          1 00001B  8400 0000 0002  xsym                 AID      QI_1+2
          1 00001E  8D47 002A                            SDI      TRAN_FILE$,AUTO

       85    21168
       86    21169            %IF QI#DEBUG;
       87    21170
       88    21171    1       IF TRAN_FILE$ -> QI$TRAN_FILE.WORD0_FLAGS.TYPE ~= %QI#TYPE_TRANSACTION

PL6.E3A0      #001=QBW$WRITE_TRAN File=QBW$WRITE_TRAN.:E05TSI                    WED 07/30/97 04:59 Page:19
  21171   1 000020  DCC7 002A                            LDB,B5   TRAN_FILE$,AUTO
          1 000022  D805                                 LDR,R5   ,B5
          1 000023  D570 000F                            AND,R5   15,IMO
          1 000025  5D0C                                 CMV,R5   12
          1 000026  0901 000A                            BE       s:21197,PREL

       89    21172    1       THEN
       90    21173    1         CALL QCE$ERROR_INTERNAL ( %E$INTERNAL_COMPILER_ERROR );

  21173   1 000028  BB80 0000 0001  02                   LAB,B3   +1
          1 00002B  CBF0 0100                            LAB,B4   256,IMO
          1 00002D  E380 0000 0000  xent                 LNJ,B6   QCE$ERROR_INTERNAL
          1 000030       0001                            DC       s:21197,PREL

       91    21174
       92    21175            %ENDIF;
       93    21176
       94    21177            %DATA_ADDRESS ( THING@D = "TRAN_FILE$ -> QI$TRAN_FILE.STATUS_AREA@D",
       95    21178            CHECK_FOR_INDIRECTION = NO,
       96    21179            RESULT$ = TRAN_STATUS$ );

  21197   1 000031  ECC7 002A                            LDB,B6   TRAN_FILE$,AUTO
          1 000033  B846 0006                            LDR,R3   6,B6
          1 000035  F853                                 LDR,R7   R3
          1 000036  6C00                                 LDV,R6   0
          1 000037  8400 0000 0000  xsym                 AID      QI_1
          1 00003A  8D47 002C                            SDI      TRAN_STATUS$,AUTO

       97    21216
       98    21217    1       IF NOT TRAN_STATUS$ -> QI$TRAN_STATUS.INDICATORS.OPEN_FLAGS.IS_OUTPUT

  21217   1 00003C  DCC7 002C                            LDB,B5   TRAN_STATUS$,AUTO
          1 00003E  82C5 0008                            LB,'0400'X        8,B5
          1 000040       0400
          1 000041  0501 0012                            BBT      s:21229,PREL

       99    21218    1       THEN
PL6.E3A0      #001=QBW$WRITE_TRAN File=QBW$WRITE_TRAN.:E05TSI                    WED 07/30/97 04:59 Page:20
      100    21219    2         DO;

      101    21220    2           IF NOT TRAN_STATUS$ -> QI$TRAN_STATUS.INDICATORS.OPEN_FLAGS.IS_INPUT

  21220   1 000043  82C5 0008                            LB,'0200'X        8,B5
  21220   1 000045       0200
          1 000046  0501 0007                            BBT      s:21224,PREL

      102    21221    2           THEN
      103    21222    2             QI_1.ERROR_STATUS = %E$FILE_NOT_OPEN;

  21222   1 000048  5C01                                 LDV,R5   1
          1 000049  DF00 0000 008C  xsym                 STR,R5   QI_1+140
          1 00004C  0F81 0005                            B        s:21226,PREL

      104    21223    2           ELSE
      105    21224    2             QI_1.ERROR_STATUS = %E$FILE_NOT_OPEN_OUTPUT;

  21224   1 00004E  5C06                                 LDV,R5   6
          1 00004F  DF00 0000 008C  xsym                 STR,R5   QI_1+140

      106    21225
      107    21226    2           GOTO CHECK_USE_PROCEDURE_OR_INVALID;

  21226   1 000052  0F81 016B                            B        s:21493,PREL

      108    21227    2         END;
      109    21228
      110    21229    1       FPT@WRITE = QI_FPT_WRITE;

  21229   1 000054  AB80 0000 0000  xsym                 LAB,B2   QI_FPT_WRITE
          1 000057  2C00                                 LDV,R2   0
          1 000058  6C24                                 LDV,R6   36
          1 000059  BB87                                 LAB,B3   ,AUTO
          1 00005A  3C08                                 LDV,R3   8
          1 00005B  0008                                 MMM

PL6.E3A0      #001=QBW$WRITE_TRAN File=QBW$WRITE_TRAN.:E05TSI                    WED 07/30/97 04:59 Page:21
      111    21230    1       VBASE ( FPT@WRITE.V_ ) = ADDR ( FPT@WRITE.V );

  21230   1 00005C  EBC7 0013                            LAB,B6   FPT@WRITE+15,AUTO
          1 00005E  EFC7 0005                            STB,B6   FPT@WRITE+1,AUTO

      112    21231    1       VLP@CG = QI_VLP_CG;

  21231   1 000060  AB80 0000 0000  xsym                 LAB,B2   QI_VLP_CG
          1 000063  2C00                                 LDV,R2   0
          1 000064  6C18                                 LDV,R6   24
          1 000065  BB87                                 LAB,B3   ,AUTO
          1 000066  3C2C                                 LDV,R3   44
          1 000067  0008                                 MMM

      113    21232    1       FPT@WRITE.CG_ = VECTOR ( VLP@CG );

  21232   1 000068  EBC7 0016                            LAB,B6   VLP@CG,AUTO
          1 00006A  EFC7 005D                            STB,B6   QCU@USE+15,AUTO
          1 00006C  6C17                                 LDV,R6   23
          1 00006D  EF47 005C                            STR,R6   QCU@USE+14,AUTO
          1 00006F  ABC7 005C                            LAB,B2   QCU@USE+14,AUTO
          1 000071  2C00                                 LDV,R2   0
          1 000072  6C06                                 LDV,R6   6
          1 000073  BB87                                 LAB,B3   ,AUTO
          1 000074  3C1A                                 LDV,R3   26
          1 000075  0008                                 MMM

      114    21233
      115    21234    1       FPT@WRITE.V.DCB# = TRAN_FILE$ -> QI$TRAN_FILE.DCB#;

  21234   1 000076  ECC7 002A                            LDB,B6   TRAN_FILE$,AUTO
          1 000078  E846 0008                            LDR,R6   8,B6
          1 00007A  E7C7 0013                            STH,R6   FPT@WRITE+15,AUTO

      116    21235
      117    21236            %DATA_ADDRESS ( THING@D = "TRAN_FILE$ -> QI$TRAN_FILE.BUFFER@D",
      118    21237            CHECK_FOR_INDIRECTION = NO,
PL6.E3A0      #001=QBW$WRITE_TRAN File=QBW$WRITE_TRAN.:E05TSI                    WED 07/30/97 04:59 Page:22
      119    21238            RESULT$ = "VBASE ( FPT@WRITE.BUF_ )" );

  21256   1 00007C  B846 0002                            LDR,R3   2,B6
          1 00007E  F853                                 LDR,R7   R3
          1 00007F  6C00                                 LDV,R6   0
          1 000080  8400 0000 0000  xsym                 AID      QI_1
          1 000083  8D47 000B                            SDI      FPT@WRITE+7,AUTO

      120    21275
      121    21276    1       VBOUND ( FPT@WRITE.BUF_ ) = INSTR$ -> QI$OP_WRITE_TRAN.DATA_SIZE - 1;

  21276   1 000085  DCC7 0026                            LDB,B5   INSTR$,AUTO
          1 000087  D845 0002                            LDR,R5   2,B5
          1 000089  5EFF                                 ADV,R5   -1
          1 00008A  DF47 000A                            STR,R5   FPT@WRITE+6,AUTO

      122    21277
      123    21278            %IF QI#DEBUG;
      124    21279
      125    21280    1       IF INSTR$ -> QI$OP_WRITE_TRAN.DATA_SIZE > TRAN_FILE$ -> QI$TRAN_FILE.
             21280                MAX_RECORD_SIZE

  21280   1 00008C  C845 0002                            LDR,R4   2,B5
          1 00008E  C946 0001                            CMR,R4   1,B6
          1 000090  0381 000A                            BLE      s:21287,PREL

      126    21281    1       THEN
      127    21282            /*  Yuck:  tried to write more than the biggest FD record.  */
      128    21283    1         CALL QCE$ERROR_INTERNAL ( %E$INTERNAL_COMPILER_ERROR );

  21283   1 000092  BB80 0000 0001  02                   LAB,B3   +1
          1 000095  CBF0 0100                            LAB,B4   256,IMO
          1 000097  E380 0000 0000  xent                 LNJ,B6   QCE$ERROR_INTERNAL
          1 00009A       0001                            DC       s:21287,PREL

      129    21284
      130    21285            %ENDIF;
PL6.E3A0      #001=QBW$WRITE_TRAN File=QBW$WRITE_TRAN.:E05TSI                    WED 07/30/97 04:59 Page:23
      131    21286
      132    21287    1       FPT@WRITE.V.DVBYTE.RRR = %YES;

  21287   1 00009B  8947 0015                            LBT,'0800'X       FPT@WRITE+17,AUTO
  21287   1 00009D       0800

      133    21288
      134    21289            %PROC_ADDRESS ( THING@P = "TRAN_FILE$ -> QI$TRAN_FILE.TYPE@P",
      135    21290            CHECK_FOR_INDIRECTION = YES,
      136    21291            RESULT$ = DAD$ );

  21309   1 00009E  ECC7 002A                            LDB,B6   TRAN_FILE$,AUTO
          1 0000A0  B846 000B                            LDR,R3   11,B6
          1 0000A2  F853                                 LDR,R7   R3
          1 0000A3  6C00                                 LDV,R6   0
          1 0000A4  8400 0000 0002  xsym                 AID      QI_1+2
          1 0000A7  8D47 0022                            SDI      DAD$,AUTO

  21311   1 0000A9  DCC7 0022                            LDB,B5   DAD$,AUTO
          1 0000AB  8985                                 CMZ      ,B5
          1 0000AC  0881 0019                            BAGE     s:21349,PREL

  21312   1 0000AE  ECC7 0022                            LDB,B6   DAD$,AUTO
          1 0000B0  E806                                 LDR,R6   ,B6
          1 0000B1  6046                                 SOR,R6   6
          1 0000B2  E570 0001                            AND,R6   1,IMO
          1 0000B4  B846 0002                            LDR,R3   2,B6
          1 0000B6  A856                                 LDR,R2   R6
          1 0000B7  DCA0 0000 0000  xsym                 LDB,B5   QI_1,R2
          1 0000BA  DFC7 005C                            STB,B5   QCU@USE+14,AUTO
          1 0000BC  F853                                 LDR,R7   R3
          1 0000BD  6C00                                 LDV,R6   0
          1 0000BE  8447 005C                            AID      QCU@USE+14,AUTO
          1 0000C0  8D47 0022                            SDI      DAD$,AUTO

  21316   1 0000C2  ECC7 0022                            LDB,B6   DAD$,AUTO
          1 0000C4  8986                                 CMZ      ,B6
PL6.E3A0      #001=QBW$WRITE_TRAN File=QBW$WRITE_TRAN.:E05TSI                    WED 07/30/97 04:59 Page:24
          1 0000C5  0869                                 BAL      s:21312,SPREL

      137    21328
      138    21329            %DATA_ADDRESS ( THING@D = "DAD$ -> QI$DAD.PSEUDO_CIP.DATA@",
      139    21330            CHECK_FOR_INDIRECTION = NO,
      140    21331            RESULT$ = MESSAGE_TYPE$ );

  21349   1 0000C6  ECC7 0022                            LDB,B6   DAD$,AUTO
          1 0000C8  B846 0002                            LDR,R3   2,B6
          1 0000CA  F853                                 LDR,R7   R3
          1 0000CB  6C00                                 LDV,R6   0
          1 0000CC  8400 0000 0000  xsym                 AID      QI_1
          1 0000CF  8D47 0028                            SDI      MESSAGE_TYPE$,AUTO

      141    21368
      142    21369    1       VLP@CG.MSGTYP# = MESSAGE_TYPE$ -> QI$MESSAGE_TYPE.TEXT;

  21369   1 0000D1  ACC7 0028                            LDB,B2   MESSAGE_TYPE$,AUTO
          1 0000D3  2C00                                 LDV,R2   0
          1 0000D4  6C08                                 LDV,R6   8
          1 0000D5  BB87                                 LAB,B3   ,AUTO
          1 0000D6  3C34                                 LDV,R3   52
          1 0000D7  0008                                 MMM

      143    21370
      144    21371    1       CALL QGB$WRITE ( FPT@WRITE, QGB_PARAM )

  21371   1 0000D8  EB80 0000 0000  xsym                 LAB,B6   QGB_PARAM
          1 0000DB  EFC7 005E                            STB,B6   QCU@USE+16,AUTO
          1 0000DD  DBC7 0004                            LAB,B5   FPT@WRITE,AUTO
          1 0000DF  DFC7 005C                            STB,B5   QCU@USE+14,AUTO
          1 0000E1  BBC7 005C                            LAB,B3   QCU@USE+14,AUTO
          1 0000E3  CBF0 0200                            LAB,B4   512,IMO
          1 0000E5  E380 0000 0000  xent                 LNJ,B6   QGB$WRITE
          1 0000E8       0003                            DC       s:21375,PREL
          1 0000E9  0F81 0016                            B        s:21385,PREL

PL6.E3A0      #001=QBW$WRITE_TRAN File=QBW$WRITE_TRAN.:E05TSI                    WED 07/30/97 04:59 Page:25
      145    21372    1       WHENALTRETURN
      146    21373    2         DO;

      147    21374
      148    21375    2           IF QGB_PARAM.ERR.ERR# = %E$LD

  21375   1 0000EB  E800 0000 0006  xsym                 LDR,R6   QGB_PARAM+6
          1 0000EE  6043                                 SOR,R6   3
          1 0000EF  6D07                                 CMV,R6   7
          1 0000F0  0981 0008                            BNE      s:21379,PREL

      149    21376    2           THEN
      150    21377    2             QI_1.ERROR_STATUS = %E$TRANSACTION_LOST_DATA;

  21377   1 0000F2  D870 00CF                            LDR,R5   207,IMO
          1 0000F4  DF00 0000 008C  xsym                 STR,R5   QI_1+140
          1 0000F7  0F81 0006                            B        s:21381,PREL

      151    21378    2           ELSE
      152    21379    2             QI_1.ERROR_STATUS = %E$TRANSACTION_WRITE_ERROR;

  21379   1 0000F9  D870 00CD                            LDR,R5   205,IMO
          1 0000FB  DF00 0000 008C  xsym                 STR,R5   QI_1+140

      153    21380
      154    21381    2           GOTO CHECK_USE_PROCEDURE_OR_INVALID;

  21381   1 0000FE  0F81 00BF                            B        s:21493,PREL

      155    21382
      156    21383    2         END;
      157    21384
      158    21385    1       TRAN_STATUS$ -> QI$TRAN_STATUS.LAST_ID = VLP@CG.MSGID#;

  21385   1 000100  8CC7 001F                            LDI      VLP@CG+9,AUTO
          1 000102  ECC7 002C                            LDB,B6   TRAN_STATUS$,AUTO
          1 000104  8D46 0004                            SDI      4,B6
PL6.E3A0      #001=QBW$WRITE_TRAN File=QBW$WRITE_TRAN.:E05TSI                    WED 07/30/97 04:59 Page:26

      159    21386
      160    21387    1       IF TRAN_FILE$ -> QI$TRAN_FILE.WORD0_FLAGS.IS_ID_VALID

  21387   1 000106  DCC7 002A                            LDB,B5   TRAN_FILE$,AUTO
          1 000108  8285                                 LB,'1000'X        ,B5
          1 000109       1000
          1 00010A  0581 0096                            BBF      s:21444,PREL

      161    21388    1       THEN
      162    21389    2         DO;

      163    21390    2           QI_1.SOURCE$ = ADDR ( TRAN_FILE$ -> QI$TRAN_FILE.ID@P );

  21390   1 00010C  CBC5 0005                            LAB,B4   5,B5
          1 00010E  CF80 0000 0018  xsym                 STB,B4   QI_1+24

      164    21391
      165    21392    2           CALL QCS$SETUP_TARGET;

  21392   1 000111  CBF0 0000                            LAB,B4   0,IMO
          1 000113  E380 0000 0000  xent                 LNJ,B6   QCS$SETUP_TARGET
          1 000116       0001                            DC       s:21394,PREL

      166    21393
      167    21394    3           DO CASE ( QI_1.TYPE.T );

  21394   1 000117  B800 0000 0051  xsym                 LDR,R3   QI_1+81
          1 00011A  3D03                                 CMV,R3   3
          1 00011B  0281 007C                            BGE      s:21438,PREL
          1 00011D  A830 0000 0123  01                   LDR,R2   s:21394+12,R3
          1 000120  83A0 0000 0126  01                   JMP      s:21399,R2
          1 000123       0047                            DC       s:21423,PREL
          1 000124       0047                            DC       s:21423,PREL
          1 000125       0000                            DC       s:21399,PREL

      168    21395
PL6.E3A0      #001=QBW$WRITE_TRAN File=QBW$WRITE_TRAN.:E05TSI                    WED 07/30/97 04:59 Page:27
      169    21396    3             CASE ( %QI#TYPE_BINARY );

      170    21397                      %IF QI#DEBUG;
      171    21398
      172    21399    3               IF QI_1.OP.LEN.T ~= %QI#MAX_BINARY_LENGTH

  21399   1 000126  E800 0000 0027  xsym                 LDR,R6   QI_1+39
          1 000129  6D04                                 CMV,R6   4
          1 00012A  0901 000A                            BE       s:21405,PREL

      173    21400    3               THEN
      174    21401    3                 CALL QCE$ERROR_INTERNAL ( %E$INTERNAL_COMPILER_ERROR );

  21401   1 00012C  BB80 0000 0001  02                   LAB,B3   +1
          1 00012F  CBF0 0100                            LAB,B4   256,IMO
          1 000131  E380 0000 0000  xent                 LNJ,B6   QCE$ERROR_INTERNAL
          1 000134       0001                            DC       s:21405,PREL

      175    21402
      176    21403                      %ENDIF;
      177    21404
      178    21405    3               QI@TYPE_DISPLAY_TARGET = QI_TYPE_DISPLAY_TARGET;

  21405   1 000135  AB80 0000 0000  xsym                 LAB,B2   QI_TYPE_DISPLAY_TARGET
          1 000138  2C00                                 LDV,R2   0
          1 000139  6C30                                 LDV,R6   48
          1 00013A  BB87                                 LAB,B3   ,AUTO
          1 00013B  3C5C                                 LDV,R3   92
          1 00013C  0008                                 MMM

      179    21406    3               QI@TYPE_DISPLAY_TARGET.CIP.S_A (0) = QI_32_BIT_BINARY_A (0);

  21406   1 00013D  E800 0000 0000  xsym                 LDR,R6   QI_32_BIT_BINARY
          1 000140  EF47 002E                            STR,R6   QI@TYPE_DISPLAY_TARGET,AUTO

      180    21407    3               QI@TYPE_DISPLAY_TARGET.DATA.S$ = ADDR ( VLP@CG.MSGID# );

PL6.E3A0      #001=QBW$WRITE_TRAN File=QBW$WRITE_TRAN.:E05TSI                    WED 07/30/97 04:59 Page:28
  21407   1 000142  EBC7 001F                            LAB,B6   VLP@CG+9,AUTO
          1 000144  EFC7 0034                            STB,B6   QI@TYPE_DISPLAY_TARGET+6,AUTO

      181    21408    3               QI@TYPE_DISPLAY_TARGET.DATA.T$ = ADDR ( QI@OTTER_SPACE );

  21408   1 000146  DBC7 0046                            LAB,B5   QI@OTTER_SPACE,AUTO
          1 000148  DFC7 0036                            STB,B5   QI@TYPE_DISPLAY_TARGET+8,AUTO

      182    21409
      183    21410    3               QI@TYPE_DISPLAY_TARGET.SIZE_ERROR = %QI#DONT_CHECK_FOR_SIZE_ERROR;

  21410   1 00014A  8747 0044                            CL       QI@TYPE_DISPLAY_TARGET+22,AUTO

      184    21411
      185    21412    3               CALL QCC$CBD ( QI@TYPE_DISPLAY_TARGET );

  21412   1 00014C  CBC7 002E                            LAB,B4   QI@TYPE_DISPLAY_TARGET,AUTO
          1 00014E  CFC7 005C                            STB,B4   QCU@USE+14,AUTO
          1 000150  BBC7 005C                            LAB,B3   QCU@USE+14,AUTO
          1 000152  CBF0 0100                            LAB,B4   256,IMO
          1 000154  E380 0000 0000  xent                 LNJ,B6   QCC$CBD
          1 000157       0001                            DC       s:21414,PREL

      186    21413
      187    21414    3               QI_1.OP.CIP.S_A (0) = QI@TYPE_DISPLAY_TARGET.CIP.T_A (0);

  21414   1 000158  E847 0030                            LDR,R6   QI@TYPE_DISPLAY_TARGET+2,AUTO
          1 00015A  EF00 0000 001A  xsym                 STR,R6   QI_1+26

      188    21415    3               QI_1.OP.DATA.S$ = QI@TYPE_DISPLAY_TARGET.DATA.T$;

  21415   1 00015D  ECC7 0036                            LDB,B6   QI@TYPE_DISPLAY_TARGET+8,AUTO
          1 00015F  EF80 0000 0020  xsym                 STB,B6   QI_1+32

      189    21416
      190    21417    3               CALL QCC$CDB ( QI_1.OP );

PL6.E3A0      #001=QBW$WRITE_TRAN File=QBW$WRITE_TRAN.:E05TSI                    WED 07/30/97 04:59 Page:29
  21417   1 000162  BB80 0000 0003  02                   LAB,B3   +3
          1 000165  CBF0 0100                            LAB,B4   256,IMO
          1 000167  E380 0000 0000  xent                 LNJ,B6   QCC$CDB
          1 00016A       0001                            DC       s:21417+9,PREL
          1 00016B  0F81 0035                            B        s:21444,PREL

      191    21418
      192    21419    3             CASE ( %QI#TYPE_DISPLAY,

      193    21420    3                 %QI#TYPE_PACKED );
      194    21421                      %IF QI#DEBUG;
      195    21422
      196    21423    3               IF QI_1.OP.LEN.T ~= 10

  21423   1 00016D  E800 0000 0027  xsym                 LDR,R6   QI_1+39
          1 000170  6D0A                                 CMV,R6   10
          1 000171  0901 000A                            BE       s:21429,PREL

      197    21424    3               THEN
      198    21425    3                 CALL QCE$ERROR_INTERNAL ( %E$INTERNAL_COMPILER_ERROR );

  21425   1 000173  BB80 0000 0001  02                   LAB,B3   +1
          1 000176  CBF0 0100                            LAB,B4   256,IMO
          1 000178  E380 0000 0000  xent                 LNJ,B6   QCE$ERROR_INTERNAL
          1 00017B       0001                            DC       s:21429,PREL

      199    21426
      200    21427                      %ENDIF;
      201    21428
      202    21429    3               QI_1.OP.CIP.S_A (0) = QI_32_BIT_BINARY_A (0);

  21429   1 00017C  E800 0000 0000  xsym                 LDR,R6   QI_32_BIT_BINARY
          1 00017F  EF00 0000 001A  xsym                 STR,R6   QI_1+26

      203    21430    3               QI_1.OP.DATA.S$ = ADDR ( VLP@CG.MSGID# );

  21430   1 000182  EBC7 001F                            LAB,B6   VLP@CG+9,AUTO
PL6.E3A0      #001=QBW$WRITE_TRAN File=QBW$WRITE_TRAN.:E05TSI                    WED 07/30/97 04:59 Page:30
          1 000184  EF80 0000 0020  xsym                 STB,B6   QI_1+32

      204    21431    3               QI_1.OP.DEC.S = 0;

  21431   1 000187  8700 0000 0029  xsym                 CL       QI_1+41

      205    21432
      206    21433    3               QI_1.OP.SIZE_ERROR = %QI#DONT_CHECK_FOR_SIZE_ERROR;

  21433   1 00018A  8700 0000 0030  xsym                 CL       QI_1+48

      207    21434
      208    21435    3               CALL QCC$CBD ( QI_1.OP );

  21435   1 00018D  BB80 0000 0003  02                   LAB,B3   +3
          1 000190  CBF0 0100                            LAB,B4   256,IMO
          1 000192  E380 0000 0000  xent                 LNJ,B6   QCC$CBD
          1 000195       0001                            DC       s:21435+9,PREL
          1 000196  0F81 000A                            B        s:21444,PREL

      209    21436
      210    21437    3             CASE ( ELSE );

      211    21438    3               CALL QCE$ERROR_INTERNAL ( %E$INTERNAL_COMPILER_ERROR );

  21438   1 000198  BB80 0000 0001  02                   LAB,B3   +1
          1 00019B  CBF0 0100                            LAB,B4   256,IMO
          1 00019D  E380 0000 0000  xent                 LNJ,B6   QCE$ERROR_INTERNAL
          1 0001A0       0001                            DC       s:21444,PREL

      212    21439
      213    21440    3           END;

      214    21441
      215    21442    2         END;

      216    21443
PL6.E3A0      #001=QBW$WRITE_TRAN File=QBW$WRITE_TRAN.:E05TSI                    WED 07/30/97 04:59 Page:31
      217    21444    1       IF TRAN_FILE$ -> QI$TRAN_FILE.WORD0_FLAGS.IS_ERROR_STATUS_VALID

  21444   1 0001A1  ECC7 002A                            LDB,B6   TRAN_FILE$,AUTO
          1 0001A3  8286                                 LB,'4000'X        ,B6
          1 0001A4       4000
          1 0001A5  0581 0014                            BBF      s:21489,PREL

      218    21445    1       THEN
      219    21446    2         DO;

      220    21447                %DATA_ADDRESS ( THING@D = "TRAN_FILE$ -> QI$TRAN_FILE.ERROR_STATUS@D",
      221    21448                CHECK_FOR_INDIRECTION = NO,
      222    21449                RESULT$ = ERROR_STATUS$ );

  21467   1 0001A7  B846 0003                            LDR,R3   3,B6
          1 0001A9  F853                                 LDR,R7   R3
          1 0001AA  6C00                                 LDV,R6   0
          1 0001AB  8400 0000 0000  xsym                 AID      QI_1
          1 0001AE  8D47 0024                            SDI      ERROR_STATUS$,AUTO

      223    21486    2           ERROR_STATUS$ -> QI$ERROR_STATUS.TEXT = %QI#OP_WRITE_TRAN_TEXT;

  21486   1 0001B0  DB80 0000 0000  00                   LAB,B5   0
          1 0001B3  CCC7 0024                            LDB,B4   ERROR_STATUS$,AUTO
          1 0001B5  0021                                 ALR      ;
          1 0001B6       4205 0000                                ALPHANUM(0,B5,,2),;
          1 0001B8       4804 0000                                ALPHANUM(0,B4,,8,FILL)

      224    21487    2         END;

      225    21488
      226    21489    1       RETURN;

  21489   1 0001BA  437F                                 CSYNC    s:21486+9,SPREL
          1 0001BB  C380 0000 0000  xent                 LNJ,B4   X6A_ARET

      227    21490
PL6.E3A0      #001=QBW$WRITE_TRAN File=QBW$WRITE_TRAN.:E05TSI                    WED 07/30/97 04:59 Page:32
      228    21491        %EJECT;
PL6.E3A0      #001=QBW$WRITE_TRAN File=QBW$WRITE_TRAN.:E05TSI                    WED 07/30/97 04:59 Page:33
      229    21492    1   CHECK_USE_PROCEDURE_OR_INVALID:
      230    21493    1       QI_1.CURRENT.TRAN$ = TRAN_FILE$;

  21493   1 0001BE  ECC7 002A            CHECK_USE_PROCE*LDB,B6   TRAN_FILE$,AUTO
          1 0001C0  EF80 0000 0076  xsym                 STB,B6   QI_1+118

      231    21494    1       QI_1.CURRENT.TRAN_STATUS$ = TRAN_STATUS$;

  21494   1 0001C3  DCC7 002C                            LDB,B5   TRAN_STATUS$,AUTO
          1 0001C5  DF80 0000 0078  xsym                 STB,B5   QI_1+120

      232    21495
      233    21496    1       QCU@USE.USE_DEFAULT_IO = %QI#USE_DEFAULT_NONE;

  21496   1 0001C8  8747 0052                            CL       QCU@USE+4,AUTO

      234    21497    1       QCU@USE.IS_TIME_TO_SAVE_AWAY_FIELDS = %NO;

  21497   1 0001CA  8747 0053                            CL       QCU@USE+5,AUTO

      235    21498    1       QCU@USE.CURR_FRAME$ = ADDR (NIL);

  21498   1 0001CC  CB80 0000 0000                       LAB,B4   0
          1 0001CF  CFC7 004E                            STB,B4   QCU@USE,AUTO

      236    21499    1       QCU@USE.CURR_NODE$ = TRAN_FILE$;

  21499   1 0001D1  EFC7 0050                            STB,B6   QCU@USE+2,AUTO

      237    21500
      238    21501    1       CALL QCU$USE_INVALID_IO ( QCU@USE );

  21501   1 0001D3  BBC7 004E                            LAB,B3   QCU@USE,AUTO
          1 0001D5  BFC7 005C                            STB,B3   QCU@USE+14,AUTO
          1 0001D7  BBC7 005C                            LAB,B3   QCU@USE+14,AUTO
          1 0001D9  CBF0 0100                            LAB,B4   256,IMO
          1 0001DB  E380 0000 0000  xent                 LNJ,B6   QCU$USE_INVALID_IO
PL6.E3A0      #001=QBW$WRITE_TRAN File=QBW$WRITE_TRAN.:E05TSI                    WED 07/30/97 04:59 Page:34
          1 0001DE       0001                            DC       s:21503,PREL

      239    21502
      240    21503    2       DO CASE ( QCU@USE.STATUS );

  21503   1 0001DF  B847 005B                            LDR,R3   QCU@USE+13,AUTO
          1 0001E1  3D03                                 CMV,R3   3
          1 0001E2  0281 0012                            BGE      s:21515,PREL
          1 0001E4  A830 0000 01EA  01                   LDR,R2   s:21503+11,R3
          1 0001E7  83A0 0000 01ED  01                   JMP      s:21506,R2
          1 0001EA       0000                            DC       s:21506,PREL
          1 0001EB       0003                            DC       s:21509,PREL
          1 0001EC       0005                            DC       s:21512,PREL

      241    21504
      242    21505    2         CASE ( %QI#USE_INVALID_RETURN );

      243    21506    2           RETURN;

  21506   1 0001ED  C380 0000 0000  xent                 LNJ,B4   X6A_ARET

      244    21507
      245    21508    2         CASE ( %QI#USE_INVALID_RETRY );

      246    21509    2           GOTO RETRY_TRANSACTION_WRITE;

  21509   1 0001F0  0F81 FE1E                            B        s:21126,PREL

      247    21510
      248    21511    2         CASE ( %QI#USE_INVALID_SKIP_TO_NEXT );

      249    21512    2           RETURN;

  21512   1 0001F2  C380 0000 0000  xent                 LNJ,B4   X6A_ARET

      250    21513
      251    21514    2         CASE ( ELSE );
PL6.E3A0      #001=QBW$WRITE_TRAN File=QBW$WRITE_TRAN.:E05TSI                    WED 07/30/97 04:59 Page:35

      252    21515    2           CALL QCE$ERROR_INTERNAL ( %E$INTERNAL_INTERPRETER_ERROR );

  21515   1 0001F5  BB80 0000 0006  02                   LAB,B3   +6
          1 0001F8  CBF0 0100                            LAB,B4   256,IMO
          1 0001FA  E380 0000 0000  xent                 LNJ,B6   QCE$ERROR_INTERNAL
          1 0001FD       0001                            DC       s:21519,PREL

      253    21516
      254    21517    2       END;

      255    21518
      256    21519    1   END QBW$WRITE_TRAN;

  21519   1 0001FE  C380 0000 0000  xent                 LNJ,B4   X6A_ARET

PL6.E3A0      #001=QBW$WRITE_TRAN File=QBW$WRITE_TRAN.:E05TSI                    WED 07/30/97 04:59 Page:36
--  Include file information  --

   QCU_USE_M.:E05TOU  is referenced.
   QI_MACROS_M.:E05TOU  is referenced.
   QI_EQUATES_E.:E05TOU  is referenced.
   QG_MACRO_M.:E05TOU  is referenced.
   LCP_6.:E05TOU  cannot be made into a system file and is referenced.
   QI_PERR_C.:E05TOU  is referenced.
   B_ERRORS_C.:E05TOU  is referenced.
   G_LCP6_E.:E05TOU  was found in the system file and is referenced.
   GT_LCP6_M.:E05TOU  was found in the system file and is referenced.
   KI_CP6.:E05TOU  was found in the system file and is referenced.
   GF_LCP6_M.:E05TOU  was found in the system file and is referenced.
   GM_LCP6_M.:E05TOU  was found in the system file and is referenced.
   GU_LCP6_M.:E05TOU  was found in the system file and is referenced.
   GJ_LCP6_M.:E05TOU  was found in the system file and is referenced.
   GH_LCP6_M.:E05TOU  was found in the system file and is referenced.
      No diagnostics issued in procedure QBW$WRITE_TRAN.
PL6.E3A0      #001=QBW$WRITE_TRAN File=QBW$WRITE_TRAN.:E05TSI                    WED 07/30/97 04:59 Page:37

 **** Variables and constants ****

  ****  Auto variables  ****

  ****  Scalars and arrays  ****
HexLoc.c.b A Datatyp(siz) R M Lvl/name                 HexLoc.c.b A Datatyp(siz) R M Lvl/name

    22-0-0/w PTR         r     1 DAD$                      24-0-0/w PTR         r     1 ERROR_STATUS$
     4-0-0/w STRC(288)   r     1 FPT@WRITE                 26-0-0/w PTR         r     1 INSTR$
    28-0-0/w PTR         r     1 MESSAGE_TYPE$             4E-0-0/w STRC(224)   r     1 QCU@USE
    46-0-0/w STRC(128)   r     1 QI@OTTER_SPACE
    2E-0-0/d STRC(384)   r     1 QI@TYPE_DISPLAY_TARGET
    2A-0-0/w PTR         r     1 TRAN_FILE$                2C-0-0/w PTR         r     1 TRAN_STATUS$
    16-0-0/w STRC(192)   r     1 VLP@CG

  ****  SYMREF variables  ****

  ****  Scalars and arrays  ****
HexLoc.c.b A Datatyp(siz) R M Lvl/name                 HexLoc.c.b A Datatyp(siz) R M Lvl/name

     0-0-0/w STRC(432)   r     1 QGB_PARAM                  0-0-0/d STRC(2576)  r     1 QI_1
     0-0-0/d STRC(32)    r     1 QI_32_BIT_BINARY
     0-0-0/d UBIN(16)    r     1 QI_32_BIT_BINARY_A(0:1)
     0-0-0/w STRC(288)   r     1 QI_FPT_WRITE
     0-0-0/d STRC(384)   r     1 QI_TYPE_DISPLAY_TARGET
     0-0-0/w STRC(192)   r     1 QI_VLP_CG

  ****  BASED and DCB variables  ****

  ****  Scalars and arrays  ****
HexLoc.c.b A Datatyp(siz) R M Lvl/name                 HexLoc.c.b A Datatyp(siz) R M Lvl/name

     0-0-0/w STRC(48)    r     1 QI$DAD                     0-0-0/c STRC(64)    r     1 QI$ERROR_STATUS
     0-0-0/c STRC(64)    r     1 QI$MESSAGE_TYPE            0-0-0/w STRC(64)    r     1 QI$OP_WRITE_TRAN
     0-0-0/w STRC(192)   r     1 QI$TRAN_FILE               0-0-0/w STRC(144)   r     1 QI$TRAN_STATUS
     0-0-0/c ASTR(8)     r     1 QI$VARIABLE_IDENTIFIER

PL6.E3A0      #001=QBW$WRITE_TRAN File=QBW$WRITE_TRAN.:E05TSI                    WED 07/30/97 04:59 Page:38

   Procedure QBW$WRITE_TRAN requires 513 words for executable code.
   Procedure QBW$WRITE_TRAN requires 96 words of local(AUTO) storage.

    No errors detected in file QBW$WRITE_TRAN.:E05TSI    .
PL6.E3A0      #001=QBW$WRITE_TRAN File=QBW$WRITE_TRAN.:E05TSI                    WED 07/30/97 04:59 Page:39
          *** CROSS REFERENCE LISTING ***
**     DENOTES     IDENTIFIER DEFINITION
<<                 IDENTIFIER'S VALUE SET
>>                 IDENTIFIER'S VALUE USED
<>                 IDENTIFIER SET AND/OR USED
--                 IDENTIFIER REFERENCED
PL6.E3A0      #001=QBW$WRITE_TRAN File=QBW$WRITE_TRAN.:E05TSI                    WED 07/30/97 04:59 Page:40
          MINI XREF LISTING

CHECK_USE_PROCEDURE_OR_INVALID
     21493**LABEL   21226--GOTO    21381--GOTO
DAD$
     20295**DCL     21309<<ASSIGN  21311>>DOWHILE 21312<<ASSIGN  21312>>ASSIGN  21312>>ASSIGN  21349>>ASSIGN
ERROR_STATUS$
     20296**DCL     21467<<ASSIGN  21486>>ASSIGN
FPT@WRITE
      1536**DCL     21229<<ASSIGN  21371<>CALL
FPT@WRITE.BUF_
      1538**DCL     21256<<ASSIGN  21276<<ASSIGN
FPT@WRITE.CG_
      1538**DCL     21232<<ASSIGN
FPT@WRITE.V
      1541**DCL     21230--ASSIGN
FPT@WRITE.V.DCB#
      1541**DCL     21234<<ASSIGN
FPT@WRITE.V.DVBYTE.RRR
      1543**DCL     21287<<ASSIGN
FPT@WRITE.V_
      1538**DCL     21230<<ASSIGN
INSTR$
     20297**DCL     21122<<ASSIGN  21123>>ASSIGN  21149>>ASSIGN  21276>>ASSIGN  21280>>IF
MESSAGE_TYPE$
     20298**DCL     21349<<ASSIGN  21369>>ASSIGN
QCC$CBD
     20302**DCL-ENT 21412--CALL    21435--CALL
QCC$CDB
     20303**DCL-ENT 21417--CALL
QCE$ERROR_INTERNAL
     20304**DCL-ENT 21173--CALL    21283--CALL    21401--CALL    21425--CALL    21438--CALL    21515--CALL
QCS$SETUP_TARGET
     20306**DCL-ENT 21392--CALL
PL6.E3A0      #001=QBW$WRITE_TRAN File=QBW$WRITE_TRAN.:E05TSI                    WED 07/30/97 04:59 Page:41
QCU$USE_INVALID_IO
     20307**DCL-ENT 21501--CALL
QCU@USE
     21074**DCL     21501<>CALL
QCU@USE.CURR_FRAME$
     21075**DCL     21498<<ASSIGN
QCU@USE.CURR_NODE$
     21077**DCL     21499<<ASSIGN
QCU@USE.IS_TIME_TO_SAVE_AWAY_FIELDS
     21082**DCL     21497<<ASSIGN
QCU@USE.STATUS
     21108**DCL     21503>>DOCASE
QCU@USE.USE_DEFAULT_IO
     21079**DCL     21496<<ASSIGN
QGB$WRITE
      1714**DCL-ENT 21371--CALL
QGB_PARAM
     12665**DCL     21371<>CALL
QGB_PARAM.DVE.DVBYTE.VFC
     12733**DCL     12734--REDEF
QGB_PARAM.DVE.EOMCHAR
     12745**DCL     12746--REDEF
QGB_PARAM.ERR.ERR#
     12724**DCL     21375>>IF
QGB_PARAM.MSG$
     12727**DCL     12728--REDEF
QGB_PARAM.UHDR$
     12752**DCL     12753--REDEF
QI$ACTIVATION_STATUS
     10491**DCL     10497--REDEF
QI$CIP
      9332**DCL      9402--REDEF
QI$CIP.CA
      9337**DCL      9341--REDEF    9344--REDEF    9347--REDEF
QI$COBOL_DAD.PSEUDO_CIP
      9576**DCL      9601--REDEF
PL6.E3A0      #001=QBW$WRITE_TRAN File=QBW$WRITE_TRAN.:E05TSI                    WED 07/30/97 04:59 Page:42
QI$COBOL_DAD.PSEUDO_CIP.ALPHANUMERIC
      9578**DCL      9583--REDEF
QI$COBOL_DAD.PSEUDO_CIP.NUMERIC.CB
      9584**DCL      9587--REDEF    9590--REDEF
QI$COBOL_DAD.VARIABLE_LENGTH_ITEMS
      9612**DCL      9628--REDEF    9636--REDEF    9644--REDEF
QI$COBOL_DAD.VARIABLE_LENGTH_ITEMS.LEVEL_MULTIPLIERS
      9613**DCL      9623--REDEF    9626--REDEF
QI$COBOL_DAD.WORD0
      9540**DCL      9541--REDEF    9555--REDEF
QI$COBOL_DAD_P_BITS.P
      9680**DCL      9686--REDEF
QI$CONDITION_CONTROL_BLOCK.LIST_A@P
      9166**DCL      9167--REDEF
QI$CONDITION_CONTROL_BLOCK.WORD0_FLAGS
      9162**DCL      9165--REDEF
QI$CONDITION_LEGAL_BLOCK.ARRAY@P
      9199**DCL      9200--REDEF    9201--REDEF
QI$DAD.PSEUDO_CIP
      9479**DCL      9504--REDEF
QI$DAD.PSEUDO_CIP.ALPHANUMERIC
      9481**DCL      9486--REDEF
QI$DAD.PSEUDO_CIP.DATA@
      9503**DCL     21312>>ASSIGN  21349>>ASSIGN
QI$DAD.PSEUDO_CIP.NUMERIC.CB
      9487**DCL      9490--REDEF    9493--REDEF
QI$DAD.WORD0
      9448**DCL      9449--REDEF
QI$DAD.WORD0_FLAGS.INDIRECT
      9450**DCL     21311>>DOWHILE
QI$DAD.WORD0_FLAGS.IS_CONSTANT
      9455**DCL     21312>>ASSIGN
QI$ERROR_MESSAGE_LINE
     12840**DCL     12842--REDEF
QI$ERROR_STATUS
     12837**DCL     12839--REDEF
PL6.E3A0      #001=QBW$WRITE_TRAN File=QBW$WRITE_TRAN.:E05TSI                    WED 07/30/97 04:59 Page:43
QI$ERROR_STATUS.TEXT
     12838**DCL     21486<<ASSIGN
QI$FIELD_DAD.ELEMENTARY_ITEM.P
      9894**DCL      9901--REDEF
QI$FIELD_DAD.ONE_DIMENSIONAL_ITEM.P
      9914**DCL      9921--REDEF
QI$FIELD_DAD.PSEUDO_CIP
      9821**DCL      9846--REDEF
QI$FIELD_DAD.PSEUDO_CIP.ALPHANUMERIC
      9823**DCL      9828--REDEF
QI$FIELD_DAD.PSEUDO_CIP.NUMERIC.CB
      9829**DCL      9832--REDEF    9835--REDEF
QI$FIELD_DAD.TWO_DIMENSIONAL_ITEM.P
      9934**DCL      9941--REDEF
QI$FIELD_DAD.VARIABLE_LENGTH_ITEMS
      9877**DCL      9893--REDEF    9911--REDEF    9929--REDEF
QI$FIELD_DAD.VARIABLE_LENGTH_ITEMS.LEVEL_MULTIPLIERS
      9878**DCL      9888--REDEF    9891--REDEF
QI$FIELD_DAD.WORD0
      9773**DCL      9774--REDEF
QI$FIELD_DAD.WORD0_FLAGS.IO_FLAGS
      9777**DCL      9782--REDEF
QI$FIELD_DAD_P.P
      9975**DCL      9982--REDEF
QI$FIELD_STATUS.INDICATORS
     10641**DCL     10673--REDEF
QI$FIELD_STATUS.INDICATORS.ENABLED_FLAGS
     10645**DCL     10650--REDEF
QI$FIELD_STATUS.INDICATORS.OPEN_FLAGS
     10657**DCL     10664--REDEF
QI$FIELD_STATUS.INDICATORS.STATE_FLAGS
     10651**DCL     10656--REDEF
QI$FILE.WORD0
     10097**DCL     10098--REDEF
QI$FILE_STATUS.INDICATORS
     10934**DCL     10966--REDEF
PL6.E3A0      #001=QBW$WRITE_TRAN File=QBW$WRITE_TRAN.:E05TSI                    WED 07/30/97 04:59 Page:44
QI$FILE_STATUS.INDICATORS.ENABLED_FLAGS
     10938**DCL     10943--REDEF
QI$FILE_STATUS.INDICATORS.OPEN_FLAGS
     10950**DCL     10957--REDEF
QI$FILE_STATUS.INDICATORS.STATE_FLAGS
     10944**DCL     10949--REDEF
QI$FORM_FILE.USE_PROCEDURE
     10197**DCL     10204--REDEF
QI$FORM_FILE.WORD0
     10151**DCL     10152--REDEF
QI$FORM_STATUS.INDICATORS
     11055**DCL     11087--REDEF
QI$FORM_STATUS.INDICATORS.ENABLED_FLAGS
     11059**DCL     11064--REDEF
QI$FORM_STATUS.INDICATORS.OPEN_FLAGS
     11071**DCL     11078--REDEF
QI$FORM_STATUS.INDICATORS.STATE_FLAGS
     11065**DCL     11070--REDEF
QI$FRAME.WORD0
     10312**DCL     10313--REDEF
QI$FRAME_STATUS.INDICATORS
     11284**DCL     11316--REDEF
QI$FRAME_STATUS.INDICATORS.ENABLED_FLAGS
     11288**DCL     11293--REDEF
QI$FRAME_STATUS.INDICATORS.OPEN_FLAGS
     11300**DCL     11307--REDEF
QI$FRAME_STATUS.INDICATORS.STATE_FLAGS
     11294**DCL     11299--REDEF
QI$GZ_FIELD.DESCRIPTION.IO_FLAGS
     18166**DCL     18171--REDEF
QI$IDENTIFIER
     12843**DCL     12845--REDEF
QI$INDICATORS
     10555**DCL     10585--REDEF
QI$INDICATORS.ENABLED_FLAGS
     10561**DCL     10566--REDEF
PL6.E3A0      #001=QBW$WRITE_TRAN File=QBW$WRITE_TRAN.:E05TSI                    WED 07/30/97 04:59 Page:45
QI$INDICATORS.OPEN_FLAGS
     10573**DCL     10580--REDEF
QI$INDICATORS.STATE_FLAGS
     10567**DCL     10572--REDEF
QI$MAJOR_NODE.WORD0
     10011**DCL     10012--REDEF
QI$MAJOR_STATUS.INDICATORS
     10734**DCL     10766--REDEF
QI$MAJOR_STATUS.INDICATORS.ENABLED_FLAGS
     10738**DCL     10743--REDEF
QI$MAJOR_STATUS.INDICATORS.OPEN_FLAGS
     10750**DCL     10757--REDEF
QI$MAJOR_STATUS.INDICATORS.STATE_FLAGS
     10744**DCL     10749--REDEF
QI$MESSAGE_TYPE
     12834**DCL     12836--REDEF
QI$MESSAGE_TYPE.TEXT
     12835**DCL     21369>>ASSIGN
QI$MINOR_NODE.WORD0
     10054**DCL     10055--REDEF
QI$MINOR_STATUS.INDICATORS
     10827**DCL     10859--REDEF
QI$MINOR_STATUS.INDICATORS.ENABLED_FLAGS
     10831**DCL     10836--REDEF
QI$MINOR_STATUS.INDICATORS.OPEN_FLAGS
     10843**DCL     10850--REDEF
QI$MINOR_STATUS.INDICATORS.STATE_FLAGS
     10837**DCL     10842--REDEF
QI$OP_ACCEPT.DATANAME@P
      7242**DCL      7243--REDEF
QI$OP_CALL.EPTR$
      7414**DCL      7415--REDEF
QI$OP_CLEAR.IO_FLAGS
      7447**DCL      7450--REDEF
QI$OP_DISPLAY.FIELD_A@P
      7714**DCL      7715--REDEF
PL6.E3A0      #001=QBW$WRITE_TRAN File=QBW$WRITE_TRAN.:E05TSI                    WED 07/30/97 04:59 Page:46
QI$OP_ENABLE.IO_FLAGS
      7801**DCL      7804--REDEF
QI$OP_IFCLS.ATTRIBUTE.TYPE
      7894**DCL      7899--REDEF
QI$OP_INSPECT.TALLYING_FOR_ITEM@P
      8128**DCL      8129--REDEF
QI$OP_INSPECT.TALLYING_INITIAL_ITEM@P
      8130**DCL      8131--REDEF
QI$OP_INSPECT.TALLYING_ITEM@P
      8126**DCL      8127--REDEF
QI$OP_OPEN.IO_FLAGS
      8688**DCL      8691--REDEF
QI$OP_PERFM.BINARY_ITERATION_COUNT@P
      8726**DCL      8727--REDEF
QI$OP_WRITE_TRAN.DATA_SIZE
      9083**DCL     21276>>ASSIGN  21280>>IF
QI$OP_WRITE_TRAN.NEXT_CODE@P
      9084**DCL     21123--ASSIGN
QI$OP_WRITE_TRAN.TRAN_RECORD@P
      9082**DCL     21149>>ASSIGN
QI$PSEUDO_CIP
      9227**DCL      9251--REDEF
QI$PSEUDO_CIP.ALPHANUMERIC
      9231**DCL      9236--REDEF
QI$PSEUDO_CIP.NUMERIC.CB
      9237**DCL      9240--REDEF    9243--REDEF
QI$TERMINAL_ATTRIBUTES
     10448**DCL     10461--REDEF
QI$TRAN_FILE.BUFFER@D
     10262**DCL     21256>>ASSIGN
QI$TRAN_FILE.DCB#
     10279**DCL     21234>>ASSIGN
QI$TRAN_FILE.ERROR_STATUS@D
     10264**DCL     21467>>ASSIGN
QI$TRAN_FILE.ID@P
     10270**DCL     21390--ASSIGN
PL6.E3A0      #001=QBW$WRITE_TRAN File=QBW$WRITE_TRAN.:E05TSI                    WED 07/30/97 04:59 Page:47
QI$TRAN_FILE.MAX_RECORD_SIZE
     10260**DCL     21280>>IF
QI$TRAN_FILE.STATUS_AREA@D
     10273**DCL     21197>>ASSIGN
QI$TRAN_FILE.TYPE@P
     10284**DCL     21309>>ASSIGN
QI$TRAN_FILE.WORD0
     10233**DCL     10234--REDEF
QI$TRAN_FILE.WORD0_FLAGS.IS_ERROR_STATUS_VALID
     10238**DCL     21444>>IF
QI$TRAN_FILE.WORD0_FLAGS.IS_ID_VALID
     10244**DCL     21387>>IF
QI$TRAN_FILE.WORD0_FLAGS.TYPE
     10257**DCL     21171>>IF
QI$TRAN_STATUS.INDICATORS
     11168**DCL     11200--REDEF
QI$TRAN_STATUS.INDICATORS.ENABLED_FLAGS
     11172**DCL     11177--REDEF
QI$TRAN_STATUS.INDICATORS.OPEN_FLAGS
     11184**DCL     11191--REDEF
QI$TRAN_STATUS.INDICATORS.OPEN_FLAGS.IS_INPUT
     11188**DCL     21220>>IF
QI$TRAN_STATUS.INDICATORS.OPEN_FLAGS.IS_OUTPUT
     11185**DCL     21217>>IF
QI$TRAN_STATUS.INDICATORS.STATE_FLAGS
     11178**DCL     11183--REDEF
QI$TRAN_STATUS.LAST_ID
     11142**DCL     21385<<ASSIGN
QI$VARIABLE_IDENTIFIER.LENGTH
     12847**DCL     12848--IMP-SIZ
QI@OTTER_SPACE
     20989**DCL     20991--REDEF   20992--REDEF   21408--ASSIGN
QI@TYPE_DISPLAY_TARGET
     20346**DCL     21405<<ASSIGN  21412<>CALL
QI@TYPE_DISPLAY_TARGET.CIP
     20350**DCL     20801--REDEF
PL6.E3A0      #001=QBW$WRITE_TRAN File=QBW$WRITE_TRAN.:E05TSI                    WED 07/30/97 04:59 Page:48
QI@TYPE_DISPLAY_TARGET.CIP.AUX
     20716**DCL     20787--REDEF
QI@TYPE_DISPLAY_TARGET.CIP.AUX.CA
     20719**DCL     20723--REDEF   20726--REDEF   20729--REDEF
QI@TYPE_DISPLAY_TARGET.CIP.S
     20420**DCL     20491--REDEF
QI@TYPE_DISPLAY_TARGET.CIP.S.CA
     20423**DCL     20427--REDEF   20430--REDEF   20433--REDEF
QI@TYPE_DISPLAY_TARGET.CIP.S_A
     20491**DCL     21406<<ASSIGN
QI@TYPE_DISPLAY_TARGET.CIP.T
     20568**DCL     20639--REDEF
QI@TYPE_DISPLAY_TARGET.CIP.T.CD
     20613**DCL     20616--REDEF   20620--REDEF   20623--REDEF
QI@TYPE_DISPLAY_TARGET.CIP.T_A
     20639**DCL     21414>>ASSIGN
QI@TYPE_DISPLAY_TARGET.DATA
     20808**DCL     20812--REDEF
QI@TYPE_DISPLAY_TARGET.DATA.S$
     20809**DCL     21407<<ASSIGN
QI@TYPE_DISPLAY_TARGET.DATA.T$
     20810**DCL     21408<<ASSIGN  21415>>ASSIGN
QI@TYPE_DISPLAY_TARGET.DEC
     20876**DCL     20880--REDEF   20881--REDEF   20885--REDEF
QI@TYPE_DISPLAY_TARGET.LEN
     20848**DCL     20852--REDEF   20853--REDEF   20857--REDEF   20858--REDEF   20862--REDEF
QI@TYPE_DISPLAY_TARGET.PICTURE_STRING
     20918**DCL     20921--REDEF   20922--REDEF   20925--REDEF   20926--REDEF   20929--REDEF
QI@TYPE_DISPLAY_TARGET.ROUND
     20951**DCL     20952--REDEF   20953--REDEF
QI@TYPE_DISPLAY_TARGET.SIZE_ERROR
     20937**DCL     20938--REDEF   21410<<ASSIGN
QI@TYPE_DISPLAY_TARGET.SRCH_VRFY_ELEMS
     20887**DCL     20890--REDEF
QI_1.AT_END
     12125**DCL     21127<<ASSIGN
PL6.E3A0      #001=QBW$WRITE_TRAN File=QBW$WRITE_TRAN.:E05TSI                    WED 07/30/97 04:59 Page:49
QI_1.A_REG
     12121**DCL     21126<<ASSIGN
QI_1.BASE
     11376**DCL     11383--REDEF
QI_1.BASE.DATA$
     11377**DCL     21197>>ASSIGN  21256>>ASSIGN  21349>>ASSIGN  21467>>ASSIGN
QI_1.BASE.PROC$
     11379**DCL     21149>>ASSIGN  21309>>ASSIGN
QI_1.BASE_A$
     11383**DCL     21312>>ASSIGN
QI_1.CURRENT.FILE$
     12267**DCL     12269--REDEF   12271--REDEF
QI_1.CURRENT.FILE_STATUS$
     12273**DCL     12275--REDEF   12277--REDEF
QI_1.CURRENT.TRAN$
     12271**DCL     21493<<ASSIGN
QI_1.CURRENT.TRAN_STATUS$
     12277**DCL     21494<<ASSIGN
QI_1.DAD
     12071**DCL     12076--REDEF
QI_1.ERROR_STATUS
     12301**DCL     21222<<ASSIGN  21224<<ASSIGN  21377<<ASSIGN  21379<<ASSIGN
QI_1.FILE_HEAD
     12254**DCL     12261--REDEF
QI_1.INSTR$
     11384**DCL     21122>>ASSIGN  21123<<ASSIGN
QI_1.IS_ALL_LIT
     12077**DCL     12082--REDEF
QI_1.IS_FORM_VARIABLE
     12083**DCL     12088--REDEF
QI_1.IS_TEMP
     12089**DCL     12094--REDEF
QI_1.MESSAGE_LINE_DAD.PSEUDO_CIP
     12187**DCL     12212--REDEF
QI_1.MESSAGE_LINE_DAD.PSEUDO_CIP.ALPHANUMERIC
     12189**DCL     12194--REDEF
PL6.E3A0      #001=QBW$WRITE_TRAN File=QBW$WRITE_TRAN.:E05TSI                    WED 07/30/97 04:59 Page:50
QI_1.MESSAGE_LINE_DAD.PSEUDO_CIP.NUMERIC.CB
     12195**DCL     12198--REDEF   12201--REDEF
QI_1.MESSAGE_LINE_DAD.WORD0
     12156**DCL     12157--REDEF
QI_1.OFFSET
     12095**DCL     12100--REDEF
QI_1.OP
     11454**DCL     21417<>CALL    21435<>CALL
QI_1.OP.CIP
     11456**DCL     11907--REDEF
QI_1.OP.CIP.AUX
     11822**DCL     11893--REDEF
QI_1.OP.CIP.AUX.CD
     11867**DCL     11870--REDEF   11874--REDEF   11877--REDEF
QI_1.OP.CIP.S
     11526**DCL     11597--REDEF
QI_1.OP.CIP.S.CD
     11571**DCL     11574--REDEF   11578--REDEF   11581--REDEF
QI_1.OP.CIP.S_A
     11597**DCL     21414<<ASSIGN  21429<<ASSIGN
QI_1.OP.CIP.T
     11674**DCL     11745--REDEF
QI_1.OP.CIP.T.CD
     11719**DCL     11722--REDEF   11726--REDEF   11729--REDEF
QI_1.OP.DATA
     11914**DCL     11918--REDEF
QI_1.OP.DATA.S$
     11915**DCL     21415<<ASSIGN  21430<<ASSIGN
QI_1.OP.DEC.S
     11977**DCL     21431<<ASSIGN
QI_1.OP.FILL_CHAR
     12038**DCL     12041--REDEF
QI_1.OP.INX
     11971**DCL     11975--REDEF   11976--REDEF   11980--REDEF
QI_1.OP.LEN
     11954**DCL     11958--REDEF   11959--REDEF   11963--REDEF   11964--REDEF   11968--REDEF
PL6.E3A0      #001=QBW$WRITE_TRAN File=QBW$WRITE_TRAN.:E05TSI                    WED 07/30/97 04:59 Page:51
QI_1.OP.LEN.AUX
     11957**DCL     12858--IMP-SIZ
QI_1.OP.LEN.S
     11955**DCL     12854--IMP-SIZ
QI_1.OP.LEN.T
     11956**DCL     12856--IMP-SIZ 21399>>IF      21423>>IF
QI_1.OP.PICTURE_STRING
     12024**DCL     12027--REDEF   12028--REDEF   12031--REDEF   12032--REDEF   12035--REDEF
QI_1.OP.ROUND
     12057**DCL     12058--REDEF   12059--REDEF
QI_1.OP.SIZE_ERROR
     12041**DCL     21433<<ASSIGN
QI_1.OP.SRCH_VRFY_ELEMS
     11993**DCL     11996--REDEF
QI_1.OPENED_COUNT
     12262**DCL     12265--REDEF
QI_1.OTTER_SPACE
     12101**DCL     12106--REDEF
QI_1.PICTURE_STRING
     12107**DCL     12112--REDEF
QI_1.SOURCE$
     11427**DCL     21390<<ASSIGN
QI_1.SPECIAL_NAMES
     12290**DCL     12299--REDEF
QI_1.TYPE
     12113**DCL     12118--REDEF
QI_1.TYPE.T
     12116**DCL     21394>>DOCASE
QI_16_BIT_BINARY
     17303**DCL     17373--REDEF
QI_16_BIT_BINARY.CB
     17322**DCL     17325--REDEF   17329--REDEF   17332--REDEF
QI_31_DIGIT_SLS_DISPLAY
     17136**DCL     17206--REDEF
QI_31_DIGIT_SLS_DISPLAY.CD
     17183**DCL     17186--REDEF   17190--REDEF   17193--REDEF
PL6.E3A0      #001=QBW$WRITE_TRAN File=QBW$WRITE_TRAN.:E05TSI                    WED 07/30/97 04:59 Page:52
QI_31_DIGIT_ST_PACKED
     17638**DCL     17708--REDEF
QI_31_DIGIT_ST_PACKED.CP
     17671**DCL     17674--REDEF   17678--REDEF   17681--REDEF
QI_32_BIT_BINARY
     17470**DCL     17540--REDEF
QI_32_BIT_BINARY.CB
     17489**DCL     17492--REDEF   17496--REDEF   17499--REDEF
QI_32_BIT_BINARY_A
     17540**DCL     21406>>ASSIGN  21429>>ASSIGN
QI_4_CHAR_ALPHANUMERIC
     16968**DCL     17038--REDEF
QI_4_CHAR_ALPHANUMERIC.CA
     16973**DCL     16977--REDEF   16980--REDEF   16983--REDEF
QI_ACCUMULATOR_DAD.CIP
     17981**DCL     18052--REDEF
QI_ACCUMULATOR_DAD.CIP.CP
     18012**DCL     18015--REDEF   18019--REDEF   18022--REDEF
QI_ALR.CIP
     12933**DCL     13384--REDEF
QI_ALR.CIP.AUX
     13299**DCL     13370--REDEF
QI_ALR.CIP.AUX.CA
     13302**DCL     13306--REDEF   13309--REDEF   13312--REDEF
QI_ALR.CIP.S
     13003**DCL     13074--REDEF
QI_ALR.CIP.S.CA
     13006**DCL     13010--REDEF   13013--REDEF   13016--REDEF
QI_ALR.CIP.T
     13151**DCL     13222--REDEF
QI_ALR.CIP.T.CA
     13154**DCL     13158--REDEF   13161--REDEF   13164--REDEF
QI_ALR.DATA
     13391**DCL     13395--REDEF
QI_ALR.FILL_CHAR
     13515**DCL     13518--REDEF
PL6.E3A0      #001=QBW$WRITE_TRAN File=QBW$WRITE_TRAN.:E05TSI                    WED 07/30/97 04:59 Page:53
QI_ALR.INX
     13448**DCL     13452--REDEF   13453--REDEF   13457--REDEF
QI_ALR.LEN
     13431**DCL     13435--REDEF   13436--REDEF   13440--REDEF   13441--REDEF   13445--REDEF
QI_ALR.PICTURE_STRING
     13501**DCL     13504--REDEF   13505--REDEF   13508--REDEF   13509--REDEF   13512--REDEF
QI_ALR.ROUND
     13534**DCL     13535--REDEF   13536--REDEF
QI_ALR.SRCH_VRFY_ELEMS
     13470**DCL     13473--REDEF
QI_FPT_DBCONTROL.V_
     18353**DCL     18353--REDEF
QI_FPT_INT.V_
     19191**DCL     19191--REDEF
QI_FPT_WRITE
     20180**DCL     21229>>ASSIGN
QI_MAT.CIP
     16272**DCL     16723--REDEF
QI_MAT.CIP.AUX
     16638**DCL     16709--REDEF
QI_MAT.CIP.AUX.CA
     16641**DCL     16645--REDEF   16648--REDEF   16651--REDEF
QI_MAT.CIP.S
     16342**DCL     16413--REDEF
QI_MAT.CIP.S.CA
     16345**DCL     16349--REDEF   16352--REDEF   16355--REDEF
QI_MAT.CIP.T
     16490**DCL     16561--REDEF
QI_MAT.CIP.T.CA
     16493**DCL     16497--REDEF   16500--REDEF   16503--REDEF
QI_MAT.DATA
     16730**DCL     16734--REDEF
QI_MAT.DEC
     16798**DCL     16802--REDEF   16803--REDEF   16807--REDEF
QI_MAT.FILL_CHAR
     16854**DCL     16857--REDEF
PL6.E3A0      #001=QBW$WRITE_TRAN File=QBW$WRITE_TRAN.:E05TSI                    WED 07/30/97 04:59 Page:54
QI_MAT.LEN
     16770**DCL     16774--REDEF   16775--REDEF   16779--REDEF   16780--REDEF   16784--REDEF
QI_MAT.PICTURE_STRING
     16840**DCL     16843--REDEF   16844--REDEF   16847--REDEF   16848--REDEF   16851--REDEF
QI_MAT.ROUND
     16873**DCL     16874--REDEF   16875--REDEF
QI_MAT.SRCH_VRFY_ELEMS
     16809**DCL     16812--REDEF
QI_PICTURE_STRING
     17806**DCL     17876--REDEF
QI_PICTURE_STRING.CA
     17811**DCL     17815--REDEF   17818--REDEF   17821--REDEF
QI_SRCH_VRFY.CIP
     15603**DCL     16054--REDEF
QI_SRCH_VRFY.CIP.AUX
     15969**DCL     16040--REDEF
QI_SRCH_VRFY.CIP.AUX.CA
     15972**DCL     15976--REDEF   15979--REDEF   15982--REDEF
QI_SRCH_VRFY.CIP.S
     15673**DCL     15744--REDEF
QI_SRCH_VRFY.CIP.S.CA
     15676**DCL     15680--REDEF   15683--REDEF   15686--REDEF
QI_SRCH_VRFY.CIP.T
     15821**DCL     15892--REDEF
QI_SRCH_VRFY.CIP.T.CA
     15824**DCL     15828--REDEF   15831--REDEF   15834--REDEF
QI_SRCH_VRFY.DATA
     16061**DCL     16065--REDEF
QI_SRCH_VRFY.DEC
     16129**DCL     16133--REDEF   16134--REDEF   16138--REDEF
QI_SRCH_VRFY.FILL_CHAR
     16185**DCL     16188--REDEF
QI_SRCH_VRFY.ROUND
     16204**DCL     16205--REDEF   16206--REDEF
QI_SRCH_VRFY.SRCH_RESULT
     16145**DCL     16148--REDEF   16149--REDEF   16152--REDEF   16153--REDEF   16156--REDEF
PL6.E3A0      #001=QBW$WRITE_TRAN File=QBW$WRITE_TRAN.:E05TSI                    WED 07/30/97 04:59 Page:55
QI_SRCH_VRFY.SRCH_VRFY_ARGS
     16069**DCL     16073--REDEF   16074--REDEF   16078--REDEF   16079--REDEF   16083--REDEF
QI_SRCH_VRFY.SRCH_VRFY_ELEMS
     16140**DCL     16143--REDEF
QI_TYPE_BINARY_TARGET.CIP
     14930**DCL     15381--REDEF
QI_TYPE_BINARY_TARGET.CIP.AUX
     15296**DCL     15367--REDEF
QI_TYPE_BINARY_TARGET.CIP.AUX.CA
     15299**DCL     15303--REDEF   15306--REDEF   15309--REDEF
QI_TYPE_BINARY_TARGET.CIP.S
     15000**DCL     15071--REDEF
QI_TYPE_BINARY_TARGET.CIP.S.CA
     15003**DCL     15007--REDEF   15010--REDEF   15013--REDEF
QI_TYPE_BINARY_TARGET.CIP.T
     15148**DCL     15219--REDEF
QI_TYPE_BINARY_TARGET.CIP.T.CB
     15165**DCL     15168--REDEF   15172--REDEF   15175--REDEF
QI_TYPE_BINARY_TARGET.DATA
     15388**DCL     15392--REDEF
QI_TYPE_BINARY_TARGET.DEC
     15456**DCL     15460--REDEF   15461--REDEF   15465--REDEF
QI_TYPE_BINARY_TARGET.LEN
     15428**DCL     15432--REDEF   15433--REDEF   15437--REDEF   15438--REDEF   15442--REDEF
QI_TYPE_BINARY_TARGET.PICTURE_STRING
     15498**DCL     15501--REDEF   15502--REDEF   15505--REDEF   15506--REDEF   15509--REDEF
QI_TYPE_BINARY_TARGET.ROUND
     15531**DCL     15532--REDEF   15533--REDEF
QI_TYPE_BINARY_TARGET.SIZE_ERROR
     15517**DCL     15518--REDEF
QI_TYPE_BINARY_TARGET.SRCH_VRFY_ELEMS
     15467**DCL     15470--REDEF
QI_TYPE_DISPLAY_SOURCE.CIP
     13598**DCL     14049--REDEF
QI_TYPE_DISPLAY_SOURCE.CIP.AUX
     13964**DCL     14035--REDEF
PL6.E3A0      #001=QBW$WRITE_TRAN File=QBW$WRITE_TRAN.:E05TSI                    WED 07/30/97 04:59 Page:56
QI_TYPE_DISPLAY_SOURCE.CIP.AUX.CA
     13967**DCL     13971--REDEF   13974--REDEF   13977--REDEF
QI_TYPE_DISPLAY_SOURCE.CIP.S
     13668**DCL     13739--REDEF
QI_TYPE_DISPLAY_SOURCE.CIP.S.CD
     13713**DCL     13716--REDEF   13720--REDEF   13723--REDEF
QI_TYPE_DISPLAY_SOURCE.CIP.T
     13816**DCL     13887--REDEF
QI_TYPE_DISPLAY_SOURCE.CIP.T.CA
     13819**DCL     13823--REDEF   13826--REDEF   13829--REDEF
QI_TYPE_DISPLAY_SOURCE.DATA
     14056**DCL     14060--REDEF
QI_TYPE_DISPLAY_SOURCE.DEC
     14124**DCL     14128--REDEF   14129--REDEF   14133--REDEF
QI_TYPE_DISPLAY_SOURCE.LEN
     14096**DCL     14100--REDEF   14101--REDEF   14105--REDEF   14106--REDEF   14110--REDEF
QI_TYPE_DISPLAY_SOURCE.PICTURE_STRING
     14166**DCL     14169--REDEF   14170--REDEF   14173--REDEF   14174--REDEF   14177--REDEF
QI_TYPE_DISPLAY_SOURCE.ROUND
     14199**DCL     14200--REDEF   14201--REDEF
QI_TYPE_DISPLAY_SOURCE.SIZE_ERROR
     14185**DCL     14186--REDEF
QI_TYPE_DISPLAY_SOURCE.SRCH_VRFY_ELEMS
     14135**DCL     14138--REDEF
QI_TYPE_DISPLAY_TARGET
     14260**DCL     21405>>ASSIGN
QI_TYPE_DISPLAY_TARGET.CIP
     14264**DCL     14715--REDEF
QI_TYPE_DISPLAY_TARGET.CIP.AUX
     14630**DCL     14701--REDEF
QI_TYPE_DISPLAY_TARGET.CIP.AUX.CA
     14633**DCL     14637--REDEF   14640--REDEF   14643--REDEF
QI_TYPE_DISPLAY_TARGET.CIP.S
     14334**DCL     14405--REDEF
QI_TYPE_DISPLAY_TARGET.CIP.S.CA
     14337**DCL     14341--REDEF   14344--REDEF   14347--REDEF
PL6.E3A0      #001=QBW$WRITE_TRAN File=QBW$WRITE_TRAN.:E05TSI                    WED 07/30/97 04:59 Page:57
QI_TYPE_DISPLAY_TARGET.CIP.T
     14482**DCL     14553--REDEF
QI_TYPE_DISPLAY_TARGET.CIP.T.CD
     14527**DCL     14530--REDEF   14534--REDEF   14537--REDEF
QI_TYPE_DISPLAY_TARGET.DATA
     14722**DCL     14726--REDEF
QI_TYPE_DISPLAY_TARGET.DEC
     14790**DCL     14794--REDEF   14795--REDEF   14799--REDEF
QI_TYPE_DISPLAY_TARGET.LEN
     14762**DCL     14766--REDEF   14767--REDEF   14771--REDEF   14772--REDEF   14776--REDEF
QI_TYPE_DISPLAY_TARGET.PICTURE_STRING
     14832**DCL     14835--REDEF   14836--REDEF   14839--REDEF   14840--REDEF   14843--REDEF
QI_TYPE_DISPLAY_TARGET.ROUND
     14865**DCL     14866--REDEF   14867--REDEF
QI_TYPE_DISPLAY_TARGET.SIZE_ERROR
     14851**DCL     14852--REDEF
QI_TYPE_DISPLAY_TARGET.SRCH_VRFY_ELEMS
     14801**DCL     14804--REDEF
QI_VLP_CG
     19515**DCL     21231>>ASSIGN
QI_VLP_SEGMENT.BASE
     18890**DCL     18890--REDEF
QI_VLP_SEGMENT_BUFFER.BASE
     18988**DCL     18988--REDEF
QI_VLP_SEGMENT_LOAD.BASE
     19086**DCL     19086--REDEF
QI_VLP_TRMCTL.BREAKCOUNT
     20080**DCL     20081--REDEF
QI_VLP_XBREAK.IC
     20270**DCL     20270--REDEF
QI_VLP_XBREAK.OLDIC
     20270**DCL     20271--REDEF   20271--REDEF
RETRY_TRANSACTION_WRITE
     21126**LABEL   21509--GOTO
TRAN_FILE$
     20299**DCL     21149<<ASSIGN  21171>>IF      21197>>ASSIGN  21234>>ASSIGN  21256>>ASSIGN  21280>>IF
PL6.E3A0      #001=QBW$WRITE_TRAN File=QBW$WRITE_TRAN.:E05TSI                    WED 07/30/97 04:59 Page:58
     21309>>ASSIGN  21387>>IF      21390>>ASSIGN  21444>>IF      21467>>ASSIGN  21493>>ASSIGN  21499>>ASSIGN
TRAN_STATUS$
     20300**DCL     21197<<ASSIGN  21217>>IF      21220>>IF      21385>>ASSIGN  21494>>ASSIGN
VLP@CG
      1560**DCL     21231<<ASSIGN  21232--ASSIGN
VLP@CG.MSGID#
      1565**DCL     21385>>ASSIGN  21407--ASSIGN  21430--ASSIGN
VLP@CG.MSGTYP#
      1564**DCL     21369<<ASSIGN
