VERSION E05

PL6.E3A0      #001=QCA$ALL_LITERAL_MOVES File=QCA$ALL_LITERALS.:E05TSI           WED 07/30/97 05:01 Page:1
        1        1        /*M* QCA$ALL_LITERAL_MOVES:  'MOVE' an 'ALL "literal"'.  */
        2        2        /*T***********************************************************/
        3        3        /*T*                                                         */
        4        4        /*T* Copyright (c) Bull HN Information Systems Inc., 1997    */
        5        5        /*T*                                                         */
        6        6        /*T***********************************************************/
        7        7        /*X* DMC,PLM=4,IND=0,DCI=4,CSI=2,IAD=2,DTI=2,AND,ECI=0,DIN=2,STI=2 */
        8        8
        9        9        /*P*  NAME:         QCA$ALL_LITERAL_MOVES
       10       10              PURPOSE:      Handle ALL "literal" sources moved to various
       11       11                            types of targets.
       12       12              DESCRIPTION:  1)  Execute an ALL_LITERAL op-code, whose arguments
       13       13                                include an ALL "literal" source and a DISPLAY
       14       14                                target to fill up (only generated for things like:
       15       15                                MOVE ALL "1" TO PACKED-OR-BINARY-TARGET).
       16       16                            2)  Handle ALL "literals" moved to various targets
       17       17                                via entries called by MOVA, MOVAE, MOVAJ who
       18       18                                find themselves up against such strange sources.
       19       19        */
       20       20
       21       21        QCA$ALL_LITERAL_MOVES: PROC;
       22       22
       23       23          %INCLUDE LCP_6;
       24      214
       25      215          %INCLUDE QG_MACRO_M;
       26      352          %INCLUDE QI_EQUATES_E;
       27      711          %INCLUDE QI_MACROS_M;
       28     5769          %QI$ALL;
       29    16882
       30    16883    1     DCL QCS$SETUP_SOURCE ENTRY;
       31    16884    1     DCL QCS$SETUP_TARGET ENTRY;
       32    16885    1     DCL QCC$ALR ENTRY (1);
       33    16886
       34    16887    1     DCL LEFT_TRUNCATION_LENGTH UBIN;
       35    16888    1     DCL MOP_STRING_INDEX UBIN;
       36    16889    1     DCL OLD_SOURCE_CIP_WORD0 UBIN;
       37    16890    1     DCL OLD_SOURCE_DATA$ PTR;
PL6.E3A0      #001=QCA$ALL_LITERAL_MOVES File=QCA$ALL_LITERALS.:E05TSI           WED 07/30/97 05:01 Page:2
       38    16891    1     DCL OLD_SOURCE_INDEX UBIN;
       39    16892    1     DCL OLD_SOURCE_LENGTH UBIN;
       40    16893    1     DCL OLD_SOURCE_OFFSET UBIN;
       41    16894    1     DCL OLD_TARGET_LENGTH UBIN;
       42    16895    1     DCL PIC$ PTR;
       43    16896    1     DCL SOURCE_INDEX_FROM_LAST_TIME UBIN;
       44    16897        %EJECT;
PL6.E3A0      #001=QCA$ALL_LITERAL_MOVES File=QCA$ALL_LITERALS.:E05TSI           WED 07/30/97 05:01 Page:3
       45    16898    1   QBA$ALL_LITERAL_MOVE: ENTRY;
       46    16899
       47    16900        /*D*  NAME:         QBA$ALL_LITERAL_MOVE
       48    16901              CALL:         CALL QBA$ALL_LITERAL_MOVE;
       49    16902              PARAMETERS:   None.
       50    16903              INTERFACE:    Called by QAT$TALLYHO when an ALL_LITERAL_MOVE
       51    16904                            op-code is encountered.
       52    16905              ENVIRONMENT:  Nothing unusual.
       53    16906              INPUT:        QI_1,
       54    16907                            FPL rununit static data following the op-code.
       55    16908              OUTPUT:       DISPLAY-type target DAD filled up appropriately.
       56    16909              SCRATCH:      Various otter data.
       57    16910              DESCRIPTION:  This op-code is generated only for stuff like:
       58    16911                            MOVE ALL "1" TO PACKED-OR-BINARY-TARGET.
       59    16912                            The DISPLAY-type target should be filled with
       60    16913                            the ALL "literal" as a numeric item, i.e.,
       61    16914                            with any truncation occurring to the LEFT.
       62    16915                            If it's any consolation, the target's only
       63    16916                            31 digits long.
       64    16917        */
       65    16918
       66    16919    1       CALL QCS$SETUP_SOURCE;
       67    16920    1       CALL QCS$SETUP_TARGET;
       68    16921
       69    16922    1       QI_1.INSTR$ = ADDR ( QI_1.INSTR$ -> QI$OP_ALL_LITERAL.NEXT_CODE@P );
       70    16923
       71    16924            /* Even though our current target will eventually look
       72    16925               DISPLAY (when it's the source for the next op-code),
       73    16926               we're making it ALPHANUMERIC now so we can use ALR
       74    16927               instructions to mold it into whatever frightful thing
       75    16928               this ALL "literal" will expand into... */
       76    16929    1       QI_1.OP.LEN.T = %QI#MAX_DISPLAY;
       77    16930    1       QI_1.OP.CIP.T.AS = %QI#CIP_INDEXED_TARGET_AS;
       78    16931    1       QI_1.OP.CIP.T.CA.FILL = 1;
       79    16932    1       QI_1.OP.CIP.T.LEN = 0;
       80    16933
       81    16934    1       QI_1.DAD.T$ -> QI$COBOL_DAD.WORD0 = %( QI#IS_TEMP_BIT_MASK + QI#TYPE_DISPLAY );
PL6.E3A0      #001=QCA$ALL_LITERAL_MOVES File=QCA$ALL_LITERALS.:E05TSI           WED 07/30/97 05:01 Page:4
       82    16935    1       QI_1.DAD.T$ -> QI$COBOL_DAD.PSEUDO_CIP_A (0) = 0;
       83    16936    1       QI_1.DAD.T$ -> QI$COBOL_DAD.PSEUDO_CIP.NUMERIC.LEN = %QI#MAX_DISPLAY;
       84    16937
       85    16938    1   QCA$ALL_LITERAL_MOVE_AJ: ENTRY;
       86    16939
       87    16940        /*D*  NAME:         QCA$ALL_LITERAL_MOVE_AJ
       88    16941              CALL:         CALL QCA$ALL_LITERAL_MOVE_AJ;
       89    16942              PARAMETERS:   None.
       90    16943              INTERFACE:    Called by QBM$MOVAJ when an ALL "literal" source
       91    16944                            is encountered.
       92    16945              ENVIRONMENT:  Nothing unusual.
       93    16946              INPUT:        QI_1.
       94    16947              OUTPUT:       ALPHANUMERIC-type, RIGHT-JUSTIFIED target DAD
       95    16948                            filled up appropriately.
       96    16949              SCRATCH:      Various otter data.
       97    16950              DESCRIPTION:  QBM$MOVAJ has given us this ALL "literal" move.
       98    16951                            The ALPHANUMERIC-type target should be filled with
       99    16952                            the ALL "literal" like a numeric item, i.e.,
      100    16953                            with any truncation occurring to the LEFT.
      101    16954        */
      102    16955
      103    16956            /* Just in case we were asked to "MOVE ZEROES TO ...",
      104    16957               we'll blot out the address syllable (which would
      105    16958               be DEFAULT from SETUP for such a DISPLAY source)
      106    16959               with a new, shiny INDEXED one.  We'll zero out the
      107    16960               length in the descriptor itself, too. */
      108    16961    1       QI_1.OP.CIP.S.AS = %QI#CIP_INDEXED_SOURCE_AS;
      109    16962    1       QI_1.OP.CIP.S.LEN = 0;
      110    16963
      111    16964            /* This is a right-justified thingo, and so we should probably
      112    16965               check to see if the source length (e.g., 3 for ALL "ABC")
      113    16966               is a multiple of the target length.
      114    16967               It isn't?  Rats.  We'll have to stick in a left-end-truncated
      115    16968               piece of the ALL "literal" and set the target index to point
      116    16969               to the character right after it for later on. */
      117    16970    1       LEFT_TRUNCATION_LENGTH = MOD ( QI_1.OP.LEN.T, QI_1.OP.LEN.S );
      118    16971
PL6.E3A0      #001=QCA$ALL_LITERAL_MOVES File=QCA$ALL_LITERALS.:E05TSI           WED 07/30/97 05:01 Page:5
      119    16972    1       IF LEFT_TRUNCATION_LENGTH ~= 0
      120    16973    1       THEN
      121    16974    2         DO;
      122    16975
      123    16976    2           OLD_SOURCE_LENGTH = QI_1.OP.LEN.S;
      124    16977    2           OLD_TARGET_LENGTH = QI_1.OP.LEN.T;
      125    16978    2           QI_1.OP.INX.S = QI_1.OP.LEN.S - LEFT_TRUNCATION_LENGTH;
      126    16979    2           QI_1.OP.LEN.S = LEFT_TRUNCATION_LENGTH;
      127    16980    2           QI_1.OP.LEN.T = LEFT_TRUNCATION_LENGTH;
      128    16981
      129    16982    2           CALL QCC$ALR ( QI_1.OP );
      130    16983
      131    16984    2           QI_1.OP.LEN.S = OLD_SOURCE_LENGTH;
      132    16985    2           QI_1.OP.LEN.T = OLD_TARGET_LENGTH
      133    16986    2             - LEFT_TRUNCATION_LENGTH;
      134    16987
      135    16988                /* If the target length is zero, then the
      136    16989                   bimbo did something like 'MOVE ALL "777" TO PIC9.'
      137    16990                   (where PIC9 has a PICture of PIC 9).  Gratefully,
      138    16991                   we're finished in this case. */
      139    16992    2           IF QI_1.OP.LEN.T = 0
      140    16993    2           THEN
      141    16994    2             RETURN;
      142    16995
      143    16996    2         END;
      144    16997
      145    16998    1       QI_1.OP.INX.S = 0;
      146    16999    1       QI_1.OP.INX.T = LEFT_TRUNCATION_LENGTH;
      147    17000
      148    17001    1       GOTO SO_MOVE_ALL_TO_X_FIELD_ALREADY;
      149    17002        %EJECT;
PL6.E3A0      #001=QCA$ALL_LITERAL_MOVES File=QCA$ALL_LITERALS.:E05TSI           WED 07/30/97 05:01 Page:6
      150    17003    1   QCA$ALL_LITERAL_MOVE_A: ENTRY;
      151    17004
      152    17005        /*D*  NAME:         QCA$ALL_LITERAL_MOVE_A
      153    17006              CALL:         CALL QCA$ALL_LITERAL_MOVE_A;
      154    17007              PARAMETERS:   None.
      155    17008              INTERFACE:    Called by QBM$MOVA when an ALL "literal" source
      156    17009                            is encountered.
      157    17010              ENVIRONMENT:  Nothing unusual.
      158    17011              INPUT:        QI_1.
      159    17012              OUTPUT:       ALPHANUMERIC-type target DAD
      160    17013                            filled up appropriately.
      161    17014              SCRATCH:      Various otter data.
      162    17015              DESCRIPTION:  QBM$MOVA has given us this ALL "literal" move.
      163    17016                            The ALPHANUMERIC-type target should be filled with
      164    17017                            the ALL "literal" as an alphanumeric item, i.e.,
      165    17018                            with any truncation occurring to the RIGHT.
      166    17019        */
      167    17020
      168    17021            /* Just in case we were asked to "MOVE ZEROES TO ...",
      169    17022               we'll blot out the address syllable (which would
      170    17023               be DEFAULT from SETUP for such a DISPLAY source)
      171    17024               with a new, shiny INDEXED one.  We'll zero out the
      172    17025               length in the descriptor itself, too. */
      173    17026    1       QI_1.OP.CIP.S.AS = %QI#CIP_INDEXED_SOURCE_AS;
      174    17027    1       QI_1.OP.CIP.S.LEN = 0;
      175    17028    1       QI_1.OP.INX.S = 0;
      176    17029
      177    17030    1   SO_MOVE_ALL_TO_X_FIELD_ALREADY:
      178    17031
      179    17032            /* If the length of the source string is 1, we're in luck.
      180    17033               Our hero said 'MOVE SPACES TO ...'
      181    17034                          or 'MOVE ZEROES TO ...'
      182    17035                          or 'MOVE ALL "U" TO ...'
      183    17036               or some strange thing like that.  In that case, we'll
      184    17037               just call QCC$ALR once, giving it that one-character
      185    17038               data item as the FILL character. */
      186    17039    1       IF QI_1.OP.LEN.S = 1
PL6.E3A0      #001=QCA$ALL_LITERAL_MOVES File=QCA$ALL_LITERALS.:E05TSI           WED 07/30/97 05:01 Page:7
      187    17040    1       THEN
      188    17041    2         DO;
      189    17042
      190    17043    2           QI_1.OP.LEN.S = 0;
      191    17044    2           QI_1.OP.FILL_CHAR.TEXT = QI_1.OP.DATA.S$ -> QI$UBYTE_A ( QI_1.OFFSET.S );
      192    17045
      193    17046    2           CALL QCC$ALR ( QI_1.OP );
      194    17047
      195    17048    2           RETURN;
      196    17049
      197    17050    2         END;
      198    17051
      199    17052    1       CALL MOVE_LOTS_TO_X_FIELDS;
      200    17053
      201    17054    1       RETURN;
      202    17055        %EJECT;
PL6.E3A0      #001=QCA$ALL_LITERAL_MOVES File=QCA$ALL_LITERALS.:E05TSI           WED 07/30/97 05:01 Page:8
      203    17056    1   QCA$ALL_LITERAL_MOVE_AE: ENTRY;
      204    17057
      205    17058        /*D*  NAME:         QCA$ALL_LITERAL_MOVE_AE
      206    17059              CALL:         CALL QCA$ALL_LITERAL_MOVE_AE;
      207    17060              PARAMETERS:   None.
      208    17061              INTERFACE:    Called by QBM$MOVAE when an ALL "literal" source
      209    17062                            is encountered.
      210    17063              ENVIRONMENT:  Nothing unusual.
      211    17064              INPUT:        QI_1.
      212    17065              OUTPUT:       ALPHANUMERIC-EDITED-type target DAD
      213    17066                            filled up appropriately.
      214    17067              SCRATCH:      Various otter data.
      215    17068              DESCRIPTION:  QBM$MOVAE has given us this ALL "literal" move.
      216    17069                            The ALPHANUMERIC-type target should be filled with
      217    17070                            the ALL "literal" as an alphanumeric item, i.e.,
      218    17071                            with any truncation occurring to the RIGHT.
      219    17072                            An example of this weird occurrance:
      220    17073                            MOVE ALL "123" TO PICXXBBBXX00XXX
      221    17074                            (PIC XXBBBXX00XXX has a PICture clause of PIC XXBBBXX00XXX)
      222    17075                            results in the target looking like:
      223    17076                            "12   3100231".  Sheesh.
      224    17077        */
      225    17078
      226    17079    1       PIC$ = QI_1.PICTURE_STRING.T$;
      227    17080
      228    17081            /* Just in case we were asked to "MOVE ZEROES TO ...",
      229    17082               we'll blot out the address syllable (which would
      230    17083               be DEFAULT from SETUP for such a DISPLAY source)
      231    17084               with a new, shiny INDEXED one.  We'll zero out the
      232    17085               length in the descriptor itself, too. */
      233    17086    1       QI_1.OP.CIP.S.AS = %QI#CIP_INDEXED_SOURCE_AS;
      234    17087    1       QI_1.OP.CIP.S.LEN = 0;
      235    17088
      236    17089    1       SOURCE_INDEX_FROM_LAST_TIME = 0;
      237    17090
      238    17091            /* If the length of the source string is 1, we're in luck.
      239    17092               Our hero said 'MOVE SPACES TO ...'
PL6.E3A0      #001=QCA$ALL_LITERAL_MOVES File=QCA$ALL_LITERALS.:E05TSI           WED 07/30/97 05:01 Page:9
      240    17093                          or 'MOVE ZEROES TO ...'
      241    17094                          or 'MOVE ALL "U" TO ...'
      242    17095               or some strange thing like that.  In that case, we'll
      243    17096               just call QCC$ALR once, giving it that one-character
      244    17097               data item as the FILL character.  This whole deal is to
      245    17098               save time spinning around in QCC$ALR with a 1-character
      246    17099               source string, since probably 90% of the time we're in
      247    17100               this routine 'cause someone said 'MOVE SPACES TO ...'. */
      248    17101
      249    17102    1       IF QI_1.OP.LEN.S = 1
      250    17103    1       THEN
      251    17104    2         DO;
      252    17105
      253    17106    2           QI_1.OP.FILL_CHAR.TEXT = QI_1.OP.DATA.S$ -> QI$UBYTE_A ( QI_1.OFFSET.S );
      254    17107    2           QI_1.OP.LEN.S = 0;
      255    17108
      256    17109    2           CALL QCC$ALR ( QI_1.OP );
      257    17110
      258    17111    2           QI_1.OP.LEN.S = 1;
      259    17112
      260    17113    2         END;
      261    17114
      262    17115    2       DO MOP_STRING_INDEX = 0 TO PIC$ -> QI$ALPHANUMERIC_PICTURE_STRING.
             17115                EDIT_STRING_COUNT - 1;
      263    17116
      264    17117    2         QI_1.OP.INX.S = 0;
      265    17118    2         QI_1.OP.LEN.T = PIC$ -> QI$ALPHANUMERIC_PICTURE_STRING.EDIT_STRING_A.LENGTH (
             17118                  MOP_STRING_INDEX);
      266    17119
      267    17120    3         DO CASE ( PIC$ -> QI$ALPHANUMERIC_PICTURE_STRING.EDIT_STRING_A.FUNCTION (
             17120                  MOP_STRING_INDEX) );
      268    17121
      269    17122    3           CASE ( %QI#PIC_M_9_A_X );
      270    17123    3             IF QI_1.OP.LEN.S > 1
      271    17124    3             THEN
      272    17125    4               DO;
      273    17126
PL6.E3A0      #001=QCA$ALL_LITERAL_MOVES File=QCA$ALL_LITERALS.:E05TSI           WED 07/30/97 05:01 Page:10
      274    17127                      /* SOURCE_INDEX_FROM_LAST_TIME > 0 means we had something
      275    17128                         like 'MOVE ALL "ABCDEFG" TO PICX5B2X3.' (where
      276    17129                         PICX5B2X3 has a PICture clause of 'PIC X(5)B(2)X(3)').
      277    17130                         The first time through CASE %QI#PIC_M_9_A_X, we'd
      278    17131                         move "ABCDE" to the X(5) part.  Then we'd go through
      279    17132                         CASE %QI#PIC_M_B, and stick in the two blanks.
      280    17133                         Supposing we're now in CASE %QI#PIC_M_9_A_X again,
      281    17134                         we'll make QI_1.OP.INX.S = 5, and then go through
      282    17135                         the following in order to squeeze "FG" into the
      283    17136                         leftmost two characters of the remaining X(3)... */
      284    17137    4                 IF SOURCE_INDEX_FROM_LAST_TIME > 0
      285    17138    4                 THEN
      286    17139    5                   DO;
      287    17140
      288    17141    5                     OLD_SOURCE_LENGTH = QI_1.OP.LEN.S;
      289    17142    5                     OLD_TARGET_LENGTH = QI_1.OP.LEN.T;
      290    17143    5                     LEFT_TRUNCATION_LENGTH = QI_1.OP.LEN.S
      291    17144    5                       - SOURCE_INDEX_FROM_LAST_TIME;
      292    17145    5                     QI_1.OP.LEN.S = LEFT_TRUNCATION_LENGTH;
      293    17146    5                     QI_1.OP.LEN.T = LEFT_TRUNCATION_LENGTH;
      294    17147    5                     QI_1.OP.INX.S = SOURCE_INDEX_FROM_LAST_TIME;
      295    17148
      296    17149    5                     CALL QCC$ALR ( QI_1.OP );
      297    17150
      298    17151    5                     QI_1.OP.LEN.S = OLD_SOURCE_LENGTH;
      299    17152    5                     QI_1.OP.LEN.T = OLD_TARGET_LENGTH
      300    17153    5                       - LEFT_TRUNCATION_LENGTH;
      301    17154    5                     QI_1.OP.INX.S = 0;
      302    17155    5                     QI_1.OP.INX.T = QI_1.OP.INX.T
      303    17156    5                       + LEFT_TRUNCATION_LENGTH;
      304    17157
      305    17158    5                   END;
      306    17159
      307    17160    4                 SOURCE_INDEX_FROM_LAST_TIME = MOD ( QI_1.OP.LEN.T, QI_1.OP.LEN.S );
      308    17161
      309    17162    4                 OLD_SOURCE_DATA$ = QI_1.OP.DATA.S$;
      310    17163    4                 OLD_SOURCE_CIP_WORD0 = QI_1.OP.CIP.S_A (0);
PL6.E3A0      #001=QCA$ALL_LITERAL_MOVES File=QCA$ALL_LITERALS.:E05TSI           WED 07/30/97 05:01 Page:11
      311    17164    4                 OLD_SOURCE_LENGTH = QI_1.OP.LEN.S;
      312    17165
      313    17166    4                 CALL MOVE_LOTS_TO_X_FIELDS;
      314    17167
      315    17168    4                 QI_1.OP.DATA.S$ = OLD_SOURCE_DATA$;
      316    17169    4                 QI_1.OP.CIP.S_A (0) = OLD_SOURCE_CIP_WORD0;
      317    17170    4                 QI_1.OP.LEN.S = OLD_SOURCE_LENGTH;
      318    17171
      319    17172    4               END;
      320    17173    3             ELSE
      321    17174    3               QI_1.OP.INX.T = QI_1.OP.INX.T + QI_1.OP.LEN.T;
      322    17175
      323    17176    3           CASE ( %QI#PIC_M_B );
      324    17177    3             QI_1.OP.FILL_CHAR.TEXT = %QI#CIP_BLANK_FILL;
      325    17178    3             GOTO STICK_IT;
      326    17179
      327    17180    3           CASE ( %QI#PIC_M_0 );
      328    17181    3             QI_1.OP.FILL_CHAR.TEXT = %QI#CIP_ZERO_FILL;
      329    17182    3             GOTO STICK_IT;
      330    17183
      331    17184    3           CASE ( %QI#PIC_M_SLASH );
      332    17185    3             QI_1.OP.FILL_CHAR.TEXT = %QI#CIP_SLASH_FILL;
      333    17186
      334    17187    3   STICK_IT:
      335    17188    3             OLD_SOURCE_LENGTH = QI_1.OP.LEN.S;
      336    17189    3             QI_1.OP.LEN.S = 0;
      337    17190
      338    17191    3             CALL QCC$ALR ( QI_1.OP );
      339    17192
      340    17193    3             QI_1.OP.LEN.S = OLD_SOURCE_LENGTH;
      341    17194    3             QI_1.OP.INX.T = QI_1.OP.INX.T + QI_1.OP.LEN.T;
      342    17195
      343    17196    3         END;  /* DO CASE ( PIC$ -> ... ) */
      344    17197
      345    17198    2       END;  /* DO MOP_STRING_INDEX ... */
      346    17199
      347    17200    1       RETURN;
PL6.E3A0      #001=QCA$ALL_LITERAL_MOVES File=QCA$ALL_LITERALS.:E05TSI           WED 07/30/97 05:01 Page:12
      348    17201        %EJECT;
PL6.E3A0      #001=QCA$ALL_LITERAL_MOVES File=QCA$ALL_LITERALS.:E05TSI           WED 07/30/97 05:01 Page:13
      349    17202    1   MOVE_LOTS_TO_X_FIELDS: PROC;
      350    17203
      351    17204        /*I*  NAME:         MOVE_LOTS_TO_X_FIELDS
      352    17205              PURPOSE:      To "unfold" an ALL "literal" source within
      353    17206                            an ALPHANUMERIC-type target.
      354    17207              CALL:         CALL MOVE_LOTS_TO_X_FIELDS;
      355    17208              PARAMETERS:   None.
      356    17209              DATA:         Uses QI_1.OP.LEN.S,
      357    17210                                 QI_1.OP.LEN.T,
      358    17211                                 QI_1.OP.INX.S (always zero, turns out),
      359    17212                                 QI_1.OP.INX.T
      360    17213                            to move QI_1.OP.CIP.S
      361    17214                                 to QI_1.OP.CIP.T.
      362    17215              DESCRIPTION:  Well, we got this ALL "literal" source, see, and
      363    17216                            we move it into the target.  If it just fit, or
      364    17217                            if it had to be truncated to fit, we're done.
      365    17218                            Otherwise...
      366    17219                            we start moving the target within the target,
      367    17220                            "unfolding" the ALL "literal".
      368    17221                            For exemplum:
      369    17222                            MOVE "123" TO TARGET.
      370    17223                            Step 1, source to target:
      371    17224                                "123"    "                             "
      372    17225                                 ^        ^
      373    17226                                 S$       T$
      374    17227
      375    17228                            Step 2, target to target:
      376    17229                                "123"    "123                          "
      377    17230                                          ^  ^
      378    17231                                          S$ T$
      379    17232
      380    17233                            Repeat step 2:
      381    17234                                "123"    "123123                       "
      382    17235                                          ^     ^
      383    17236                                          S$    T$
      384    17237
      385    17238                            Repeat step 2:
PL6.E3A0      #001=QCA$ALL_LITERAL_MOVES File=QCA$ALL_LITERALS.:E05TSI           WED 07/30/97 05:01 Page:14
      386    17239                                "123"    "123123123123                 "
      387    17240                                          ^           ^
      388    17241                                          S$          T$
      389    17242
      390    17243                            Repeat step 2:
      391    17244                                "123"    "123123123123123123123123     "
      392    17245                                          ^                       ^
      393    17246                                          S$                      T$
      394    17247
      395    17248                            All done:
      396    17249                                "123"    "12312312312312312312312312312"
      397    17250        */
      398    17251
      399    17252    2     DCL SIGNED_TARGET_LENGTH SBIN;
      400    17253
      401    17254            /* First we'll move the original ALL string (e.g., ALL "ABC")
      402    17255               to the target... */
      403    17256    2       IF QI_1.OP.LEN.S > QI_1.OP.LEN.T
      404    17257    2       THEN
      405    17258    2         QI_1.OP.LEN.S = QI_1.OP.LEN.T;
      406    17259
      407    17260    2       OLD_TARGET_LENGTH = QI_1.OP.LEN.T;
      408    17261    2       QI_1.OP.LEN.T = QI_1.OP.LEN.S;
      409    17262
      410    17263    2       CALL QCC$ALR ( QI_1.OP );
      411    17264
      412    17265            /* Now we'll start moving the target string within itself,
      413    17266               doubling the length each time, until the target's filled
      414    17267               up... */
      415    17268    2       QI_1.OP.DATA.S$ = QI_1.OP.DATA.T$;
      416    17269    2       QI_1.OP.CIP.S.CA.OFFSET = QI_1.OP.CIP.T.CA.OFFSET;
      417    17270    2       QI_1.OP.INX.S = QI_1.OP.INX.T;
      418    17271    2       QI_1.OP.INX.T = QI_1.OP.INX.T + QI_1.OP.LEN.S;
      419    17272    2       SIGNED_TARGET_LENGTH = OLD_TARGET_LENGTH - QI_1.OP.LEN.S;
      420    17273
      421    17274    3       DO WHILE ( SIGNED_TARGET_LENGTH > 0 );
      422    17275
PL6.E3A0      #001=QCA$ALL_LITERAL_MOVES File=QCA$ALL_LITERALS.:E05TSI           WED 07/30/97 05:01 Page:15
      423    17276    3         IF QI_1.OP.LEN.S > SIGNED_TARGET_LENGTH
      424    17277    3         THEN
      425    17278    4           DO;
      426    17279    4             QI_1.OP.LEN.S = SIGNED_TARGET_LENGTH;
      427    17280    4             QI_1.OP.LEN.T = SIGNED_TARGET_LENGTH;
      428    17281    4           END;
      429    17282
      430    17283    3         QI_1.OP.FILL_CHAR.TEXT = %QI#CIP_BLANK_FILL;
      431    17284
      432    17285    3         CALL QCC$ALR ( QI_1.OP );
      433    17286
      434    17287    3         QI_1.OP.INX.T = QI_1.OP.INX.T + QI_1.OP.LEN.S;
      435    17288    3         SIGNED_TARGET_LENGTH = SIGNED_TARGET_LENGTH - QI_1.OP.LEN.T;
      436    17289    3         QI_1.OP.LEN.S = QI_1.OP.LEN.S * 2;
      437    17290    3         QI_1.OP.LEN.T = QI_1.OP.LEN.S;
      438    17291
      439    17292    3       END;
      440    17293
      441    17294    2       RETURN;
      442    17295
      443    17296    2   END MOVE_LOTS_TO_X_FIELDS;
      444    17297
      445    17298    1   END QCA$ALL_LITERAL_MOVES;
      446    17299        %EOD;

PL6.E3A0      #001=QCA$ALL_LITERAL_MOVES File=QCA$ALL_LITERALS.:E05TSI           WED 07/30/97 05:01 Page:16
--  Include file information  --

   QI_MACROS_M.:E05TOU  is referenced.
   QI_EQUATES_E.:E05TOU  is referenced.
   QG_MACRO_M.:E05TOU  is referenced.
   LCP_6.:E05TOU  cannot be made into a system file and is referenced.
   G_LCP6_E.:E05TOU  was found in the system file and is referenced.
   GT_LCP6_M.:E05TOU  was found in the system file and is referenced.
   KI_CP6.:E05TOU  was found in the system file and is referenced.
   GF_LCP6_M.:E05TOU  was found in the system file and is referenced.
   GM_LCP6_M.:E05TOU  was found in the system file and is referenced.
   GU_LCP6_M.:E05TOU  was found in the system file and is referenced.
   GJ_LCP6_M.:E05TOU  was found in the system file and is referenced.
   GH_LCP6_M.:E05TOU  was found in the system file and is referenced.
      No diagnostics issued in procedure QCA$ALL_LITERAL_MOVES.

   Procedure QCA$ALL_LITERAL_MOVES requires 593 words for executable code.
   Procedure QCA$ALL_LITERAL_MOVES requires 20 words of local(AUTO) storage.

PL6.E3A0      #001=QCA$ALL_LITERAL_MOVES File=QCA$ALL_LITERALS.:E05TSI           WED 07/30/97 05:01 Page:17

 Object Unit name= QCA$ALL_LITERAL_MOVES                      File name= QCA$ALL_LITERALS.:E05TOU
 UTS= JUL 30 '97 05:01:43.60 WED                              Compiler= PL-6/E31         Sev=      00
 SharedLib= :SHARED_LCP6_SYSTEM                               Alt SharedLib=


    ****  Control sections  ****

 Sect   Type Bound  Init  Size HexSiz  Section name
    0   Proc  even  none   593    251  QCA$ALL_LITERAL_MOVES
    1  RoData even  none     2      2  QCA$ALL_LITERAL_MOVES

    ****  Entry defs  ****

                              Check   Calling
                             calling  sequence
  Sect HexLoc Primary Altret sequence   type   Parms  Name
     0      0   yes            yes      Std        0  QCA$ALL_LITERAL_MOVES
     0      7                  yes      Std        0  QBA$ALL_LITERAL_MOVE
     0     46                  yes      Std        0  QCA$ALL_LITERAL_MOVE_AJ
     0     98                  yes      Std        0  QCA$ALL_LITERAL_MOVE_A
     0     CE                  yes      Std        0  QCA$ALL_LITERAL_MOVE_AE

  ****  Entry refs  ****

         Check        Calling
        calling       sequence
Altret sequence SRef   type   Args  Name
         yes           Std       0 QCS$SETUP_SOURCE
         yes           Std       0 QCS$SETUP_TARGET
         yes           Std       1 QCC$ALR
                       nStd      0 X6A_AUTO_0
                       nStd      0 X6A_ARET
PL6.E3A0      #001=QCA$ALL_LITERAL_MOVES File=QCA$ALL_LITERALS.:E05TSI           WED 07/30/97 05:01 Page:18

  ****  Data refs  ****

  Flags:  r = read only, s = secondary
Flgs Name                             Flgs Name                             Flgs Name
     QI_1                                  QI_4_CHAR_ALPHANUMERIC                QI_31_DIGIT_SLS_DISPLAY
     QI_16_BIT_BINARY                      QI_32_BIT_BINARY                      QI_31_DIGIT_ST_PACKED
     QI_PICTURE_STRING                r    G$ROS$
PL6.E3A0      #001=QCA$ALL_LITERAL_MOVES File=QCA$ALL_LITERALS.:E05TSI           WED 07/30/97 05:01 Page:19


        1        1        /*M* QCA$ALL_LITERAL_MOVES:  'MOVE' an 'ALL "literal"'.  */
        2        2        /*T***********************************************************/
        3        3        /*T*                                                         */
        4        4        /*T* Copyright (c) Bull HN Information Systems Inc., 1997    */
        5        5        /*T*                                                         */
        6        6        /*T***********************************************************/
        7        7        /*X* DMC,PLM=4,IND=0,DCI=4,CSI=2,IAD=2,DTI=2,AND,ECI=0,DIN=2,STI=2 */
        8        8
        9        9        /*P*  NAME:         QCA$ALL_LITERAL_MOVES
       10       10              PURPOSE:      Handle ALL "literal" sources moved to various
       11       11                            types of targets.
       12       12              DESCRIPTION:  1)  Execute an ALL_LITERAL op-code, whose arguments
       13       13                                include an ALL "literal" source and a DISPLAY
       14       14                                target to fill up (only generated for things like:
       15       15                                MOVE ALL "1" TO PACKED-OR-BINARY-TARGET).
       16       16                            2)  Handle ALL "literals" moved to various targets
       17       17                                via entries called by MOVA, MOVAE, MOVAJ who
       18       18                                find themselves up against such strange sources.
       19       19        */
       20       20
       21       21        QCA$ALL_LITERAL_MOVES: PROC;

     21   0 000000  D380 0000 0000  xent QCA$ALL_LITERAL*LNJ,B5   X6A_AUTO_0
          0 000003       0014 0000                       DC       20,0
          0 000005  0F81 0006                            B        s:16919,PREL

       22       22
       23       23          %INCLUDE LCP_6;
       24      214
       25      215          %INCLUDE QG_MACRO_M;
       26      352          %INCLUDE QI_EQUATES_E;
       27      711          %INCLUDE QI_MACROS_M;
       28     5769          %QI$ALL;
       29    16882
       30    16883    1     DCL QCS$SETUP_SOURCE ENTRY;
       31    16884    1     DCL QCS$SETUP_TARGET ENTRY;
PL6.E3A0      #001=QCA$ALL_LITERAL_MOVES File=QCA$ALL_LITERALS.:E05TSI           WED 07/30/97 05:01 Page:20
       32    16885    1     DCL QCC$ALR ENTRY (1);
       33    16886
       34    16887    1     DCL LEFT_TRUNCATION_LENGTH UBIN;
       35    16888    1     DCL MOP_STRING_INDEX UBIN;
       36    16889    1     DCL OLD_SOURCE_CIP_WORD0 UBIN;
       37    16890    1     DCL OLD_SOURCE_DATA$ PTR;
       38    16891    1     DCL OLD_SOURCE_INDEX UBIN;
       39    16892    1     DCL OLD_SOURCE_LENGTH UBIN;
       40    16893    1     DCL OLD_SOURCE_OFFSET UBIN;
       41    16894    1     DCL OLD_TARGET_LENGTH UBIN;
       42    16895    1     DCL PIC$ PTR;
       43    16896    1     DCL SOURCE_INDEX_FROM_LAST_TIME UBIN;
       44    16897        %EJECT;
PL6.E3A0      #001=QCA$ALL_LITERAL_MOVES File=QCA$ALL_LITERALS.:E05TSI           WED 07/30/97 05:01 Page:21
       45    16898    1   QBA$ALL_LITERAL_MOVE: ENTRY;

  16898   0 000007  D380 0000 0000  xent QBA$ALL_LITERAL*LNJ,B5   X6A_AUTO_0
          0 00000A       0014 0000                       DC       20,0

       46    16899
       47    16900        /*D*  NAME:         QBA$ALL_LITERAL_MOVE
       48    16901              CALL:         CALL QBA$ALL_LITERAL_MOVE;
       49    16902              PARAMETERS:   None.
       50    16903              INTERFACE:    Called by QAT$TALLYHO when an ALL_LITERAL_MOVE
       51    16904                            op-code is encountered.
       52    16905              ENVIRONMENT:  Nothing unusual.
       53    16906              INPUT:        QI_1,
       54    16907                            FPL rununit static data following the op-code.
       55    16908              OUTPUT:       DISPLAY-type target DAD filled up appropriately.
       56    16909              SCRATCH:      Various otter data.
       57    16910              DESCRIPTION:  This op-code is generated only for stuff like:
       58    16911                            MOVE ALL "1" TO PACKED-OR-BINARY-TARGET.
       59    16912                            The DISPLAY-type target should be filled with
       60    16913                            the ALL "literal" as a numeric item, i.e.,
       61    16914                            with any truncation occurring to the LEFT.
       62    16915                            If it's any consolation, the target's only
       63    16916                            31 digits long.
       64    16917        */
       65    16918
       66    16919    1       CALL QCS$SETUP_SOURCE;

  16919   0 00000C  CBF0 0000                            LAB,B4   0,IMO
          0 00000E  E380 0000 0000  xent                 LNJ,B6   QCS$SETUP_SOURCE
          0 000011       0001                            DC       s:16920,PREL

       67    16920    1       CALL QCS$SETUP_TARGET;

  16920   0 000012  CBF0 0000                            LAB,B4   0,IMO
          0 000014  E380 0000 0000  xent                 LNJ,B6   QCS$SETUP_TARGET
          0 000017       0001                            DC       s:16922,PREL

PL6.E3A0      #001=QCA$ALL_LITERAL_MOVES File=QCA$ALL_LITERALS.:E05TSI           WED 07/30/97 05:01 Page:22
       68    16921
       69    16922    1       QI_1.INSTR$ = ADDR ( QI_1.INSTR$ -> QI$OP_ALL_LITERAL.NEXT_CODE@P );

  16922   0 000018  EC80 0000 0006  xsym                 LDB,B6   QI_1+6
          0 00001B  DBC6 0003                            LAB,B5   3,B6
          0 00001D  DF80 0000 0006  xsym                 STB,B5   QI_1+6

       70    16923
       71    16924            /* Even though our current target will eventually look
       72    16925               DISPLAY (when it's the source for the next op-code),
       73    16926               we're making it ALPHANUMERIC now so we can use ALR
       74    16927               instructions to mold it into whatever frightful thing
       75    16928               this ALL "literal" will expand into... */
       76    16929    1       QI_1.OP.LEN.T = %QI#MAX_DISPLAY;

  16929   0 000020  6C0F                                 LDV,R6   15
          0 000021  EF00 0000 0027  xsym                 STR,R6   QI_1+39

       77    16930    1       QI_1.OP.CIP.T.AS = %QI#CIP_INDEXED_TARGET_AS;

  16930   0 000024  5C2B                                 LDV,R5   43
          0 000025  DA80 0000 001C  xsym                 SRM,R5,'007F'X    QI_1+28
          0 000028       007F

       78    16931    1       QI_1.OP.CIP.T.CA.FILL = 1;

  16931   0 000029  8900 0000 001C  xsym                 LBT,'4000'X       QI_1+28
  16931   0 00002C       4000

       79    16932    1       QI_1.OP.CIP.T.LEN = 0;

  16932   0 00002D  8800 0000 001C  xsym                 LBF,'1F00'X       QI_1+28
  16932   0 000030       1F00

       80    16933
       81    16934    1       QI_1.DAD.T$ -> QI$COBOL_DAD.WORD0 = %( QI#IS_TEMP_BIT_MASK + QI#TYPE_DISPLAY );

PL6.E3A0      #001=QCA$ALL_LITERAL_MOVES File=QCA$ALL_LITERALS.:E05TSI           WED 07/30/97 05:01 Page:23
  16934   0 000031  EC80 0000 0034  xsym                 LDB,B6   QI_1+52
          0 000034  C870 0200                            LDR,R4   512,IMO
          0 000036  CF06                                 STR,R4   ,B6

       82    16935    1       QI_1.DAD.T$ -> QI$COBOL_DAD.PSEUDO_CIP_A (0) = 0;

  16935   0 000037  EC80 0000 0034  xsym                 LDB,B6   QI_1+52
          0 00003A  8746 0001                            CL       1,B6

       83    16936    1       QI_1.DAD.T$ -> QI$COBOL_DAD.PSEUDO_CIP.NUMERIC.LEN = %QI#MAX_DISPLAY;

  16936   0 00003C  B870 0F00                            LDR,R3   3840,IMO
          0 00003E  EC80 0000 0034  xsym                 LDB,B6   QI_1+52
          0 000041  BAC6 0001                            SRM,R3,'1F00'X    1,B6
          0 000043       1F00
          0 000044  0F81 0006                            B        s:16961,PREL

       84    16937
       85    16938    1   QCA$ALL_LITERAL_MOVE_AJ: ENTRY;

  16938   0 000046  D380 0000 0000  xent QCA$ALL_LITERAL*LNJ,B5   X6A_AUTO_0
          0 000049       0014 0000                       DC       20,0

       86    16939
       87    16940        /*D*  NAME:         QCA$ALL_LITERAL_MOVE_AJ
       88    16941              CALL:         CALL QCA$ALL_LITERAL_MOVE_AJ;
       89    16942              PARAMETERS:   None.
       90    16943              INTERFACE:    Called by QBM$MOVAJ when an ALL "literal" source
       91    16944                            is encountered.
       92    16945              ENVIRONMENT:  Nothing unusual.
       93    16946              INPUT:        QI_1.
       94    16947              OUTPUT:       ALPHANUMERIC-type, RIGHT-JUSTIFIED target DAD
       95    16948                            filled up appropriately.
       96    16949              SCRATCH:      Various otter data.
       97    16950              DESCRIPTION:  QBM$MOVAJ has given us this ALL "literal" move.
       98    16951                            The ALPHANUMERIC-type target should be filled with
       99    16952                            the ALL "literal" like a numeric item, i.e.,
PL6.E3A0      #001=QCA$ALL_LITERAL_MOVES File=QCA$ALL_LITERALS.:E05TSI           WED 07/30/97 05:01 Page:24
      100    16953                            with any truncation occurring to the LEFT.
      101    16954        */
      102    16955
      103    16956            /* Just in case we were asked to "MOVE ZEROES TO ...",
      104    16957               we'll blot out the address syllable (which would
      105    16958               be DEFAULT from SETUP for such a DISPLAY source)
      106    16959               with a new, shiny INDEXED one.  We'll zero out the
      107    16960               length in the descriptor itself, too. */
      108    16961    1       QI_1.OP.CIP.S.AS = %QI#CIP_INDEXED_SOURCE_AS;

  16961   0 00004B  6C1B                                 LDV,R6   27
          0 00004C  EA80 0000 001A  xsym                 SRM,R6,'007F'X    QI_1+26
          0 00004F       007F

      109    16962    1       QI_1.OP.CIP.S.LEN = 0;

  16962   0 000050  8800 0000 001A  xsym                 LBF,'1F00'X       QI_1+26
  16962   0 000053       1F00

      110    16963
      111    16964            /* This is a right-justified thingo, and so we should probably
      112    16965               check to see if the source length (e.g., 3 for ALL "ABC")
      113    16966               is a multiple of the target length.
      114    16967               It isn't?  Rats.  We'll have to stick in a left-end-truncated
      115    16968               piece of the ALL "literal" and set the target index to point
      116    16969               to the character right after it for later on. */
      117    16970    1       LEFT_TRUNCATION_LENGTH = MOD ( QI_1.OP.LEN.T, QI_1.OP.LEN.S );

  16970   0 000054  F800 0000 0027  xsym                 LDR,R7   QI_1+39
          0 000057  6C00                                 LDV,R6   0
          0 000058  F300 0000 0026  xsym                 DIV,R7   QI_1+38
          0 00005B  EF47 0004                            STR,R6   LEFT_TRUNCATION_LENGTH,AUTO

      118    16971
      119    16972    1       IF LEFT_TRUNCATION_LENGTH ~= 0

  16972   0 00005D  6901 0030                            BEZ,R6   s:16998,PREL
PL6.E3A0      #001=QCA$ALL_LITERAL_MOVES File=QCA$ALL_LITERALS.:E05TSI           WED 07/30/97 05:01 Page:25

      120    16973    1       THEN
      121    16974    2         DO;

      122    16975
      123    16976    2           OLD_SOURCE_LENGTH = QI_1.OP.LEN.S;

  16976   0 00005F  D800 0000 0026  xsym                 LDR,R5   QI_1+38
          0 000062  DF47 000A                            STR,R5   OLD_SOURCE_LENGTH,AUTO

      124    16977    2           OLD_TARGET_LENGTH = QI_1.OP.LEN.T;

  16977   0 000064  C800 0000 0027  xsym                 LDR,R4   QI_1+39
          0 000067  CF47 000C                            STR,R4   OLD_TARGET_LENGTH,AUTO

      125    16978    2           QI_1.OP.INX.S = QI_1.OP.LEN.S - LEFT_TRUNCATION_LENGTH;

  16978   0 000069  D256                                 SUB,R5   R6
          0 00006A  DF00 0000 0029  xsym                 STR,R5   QI_1+41

      126    16979    2           QI_1.OP.LEN.S = LEFT_TRUNCATION_LENGTH;

  16979   0 00006D  EF00 0000 0026  xsym                 STR,R6   QI_1+38

      127    16980    2           QI_1.OP.LEN.T = LEFT_TRUNCATION_LENGTH;

  16980   0 000070  C856                                 LDR,R4   R6
          0 000071  CF00 0000 0027  xsym                 STR,R4   QI_1+39

      128    16981
      129    16982    2           CALL QCC$ALR ( QI_1.OP );

  16982   0 000074  BB80 0000 0000  01                   LAB,B3   0
          0 000077  CBF0 0100                            LAB,B4   256,IMO
          0 000079  E380 0000 0000  xent                 LNJ,B6   QCC$ALR
          0 00007C       0001                            DC       s:16984,PREL

PL6.E3A0      #001=QCA$ALL_LITERAL_MOVES File=QCA$ALL_LITERALS.:E05TSI           WED 07/30/97 05:01 Page:26
      130    16983
      131    16984    2           QI_1.OP.LEN.S = OLD_SOURCE_LENGTH;

  16984   0 00007D  E847 000A                            LDR,R6   OLD_SOURCE_LENGTH,AUTO
          0 00007F  EF00 0000 0026  xsym                 STR,R6   QI_1+38

      132    16985    2           QI_1.OP.LEN.T = OLD_TARGET_LENGTH

  16985   0 000082  D847 000C                            LDR,R5   OLD_TARGET_LENGTH,AUTO
          0 000084  D247 0004                            SUB,R5   LEFT_TRUNCATION_LENGTH,AUTO
          0 000086  DF00 0000 0027  xsym                 STR,R5   QI_1+39

      133    16986    2             - LEFT_TRUNCATION_LENGTH;
      134    16987
      135    16988                /* If the target length is zero, then the
      136    16989                   bimbo did something like 'MOVE ALL "777" TO PIC9.'
      137    16990                   (where PIC9 has a PICture of PIC 9).  Gratefully,
      138    16991                   we're finished in this case. */
      139    16992    2           IF QI_1.OP.LEN.T = 0

  16992   0 000089  5981 0004                            BNEZ,R5  s:16998,PREL

      140    16993    2           THEN
      141    16994    2             RETURN;

  16994   0 00008B  C380 0000 0000  xent                 LNJ,B4   X6A_ARET

      142    16995
      143    16996    2         END;
      144    16997
      145    16998    1       QI_1.OP.INX.S = 0;

  16998   0 00008E  8700 0000 0029  xsym                 CL       QI_1+41

      146    16999    1       QI_1.OP.INX.T = LEFT_TRUNCATION_LENGTH;

  16999   0 000091  E847 0004                            LDR,R6   LEFT_TRUNCATION_LENGTH,AUTO
PL6.E3A0      #001=QCA$ALL_LITERAL_MOVES File=QCA$ALL_LITERALS.:E05TSI           WED 07/30/97 05:01 Page:27
          0 000093  EF00 0000 002A  xsym                 STR,R6   QI_1+42

      147    17000
      148    17001    1       GOTO SO_MOVE_ALL_TO_X_FIELD_ALREADY;

  17001   0 000096  0F81 0012                            B        s:17039,PREL

      149    17002        %EJECT;
PL6.E3A0      #001=QCA$ALL_LITERAL_MOVES File=QCA$ALL_LITERALS.:E05TSI           WED 07/30/97 05:01 Page:28
      150    17003    1   QCA$ALL_LITERAL_MOVE_A: ENTRY;

  17003   0 000098  D380 0000 0000  xent QCA$ALL_LITERAL*LNJ,B5   X6A_AUTO_0
          0 00009B       0014 0000                       DC       20,0

      151    17004
      152    17005        /*D*  NAME:         QCA$ALL_LITERAL_MOVE_A
      153    17006              CALL:         CALL QCA$ALL_LITERAL_MOVE_A;
      154    17007              PARAMETERS:   None.
      155    17008              INTERFACE:    Called by QBM$MOVA when an ALL "literal" source
      156    17009                            is encountered.
      157    17010              ENVIRONMENT:  Nothing unusual.
      158    17011              INPUT:        QI_1.
      159    17012              OUTPUT:       ALPHANUMERIC-type target DAD
      160    17013                            filled up appropriately.
      161    17014              SCRATCH:      Various otter data.
      162    17015              DESCRIPTION:  QBM$MOVA has given us this ALL "literal" move.
      163    17016                            The ALPHANUMERIC-type target should be filled with
      164    17017                            the ALL "literal" as an alphanumeric item, i.e.,
      165    17018                            with any truncation occurring to the RIGHT.
      166    17019        */
      167    17020
      168    17021            /* Just in case we were asked to "MOVE ZEROES TO ...",
      169    17022               we'll blot out the address syllable (which would
      170    17023               be DEFAULT from SETUP for such a DISPLAY source)
      171    17024               with a new, shiny INDEXED one.  We'll zero out the
      172    17025               length in the descriptor itself, too. */
      173    17026    1       QI_1.OP.CIP.S.AS = %QI#CIP_INDEXED_SOURCE_AS;

  17026   0 00009D  6C1B                                 LDV,R6   27
          0 00009E  EA80 0000 001A  xsym                 SRM,R6,'007F'X    QI_1+26
          0 0000A1       007F

      174    17027    1       QI_1.OP.CIP.S.LEN = 0;

  17027   0 0000A2  8800 0000 001A  xsym                 LBF,'1F00'X       QI_1+26
  17027   0 0000A5       1F00
PL6.E3A0      #001=QCA$ALL_LITERAL_MOVES File=QCA$ALL_LITERALS.:E05TSI           WED 07/30/97 05:01 Page:29

      175    17028    1       QI_1.OP.INX.S = 0;

  17028   0 0000A6  8700 0000 0029  xsym                 CL       QI_1+41

      176    17029
      177    17030    1   SO_MOVE_ALL_TO_X_FIELD_ALREADY:
      178    17031
      179    17032            /* If the length of the source string is 1, we're in luck.
      180    17033               Our hero said 'MOVE SPACES TO ...'
      181    17034                          or 'MOVE ZEROES TO ...'
      182    17035                          or 'MOVE ALL "U" TO ...'
      183    17036               or some strange thing like that.  In that case, we'll
      184    17037               just call QCC$ALR once, giving it that one-character
      185    17038               data item as the FILL character. */
      186    17039    1       IF QI_1.OP.LEN.S = 1

  17039   0 0000A9  E800 0000 0026  xsym SO_MOVE_ALL_TO_*LDR,R6   QI_1+38
          0 0000AC  6D01                                 CMV,R6   1
          0 0000AD  0981 001A                            BNE      s:17052,PREL

      187    17040    1       THEN
      188    17041    2         DO;

      189    17042
      190    17043    2           QI_1.OP.LEN.S = 0;

  17043   0 0000AF  8700 0000 0026  xsym                 CL       QI_1+38

      191    17044    2           QI_1.OP.FILL_CHAR.TEXT = QI_1.OP.DATA.S$ -> QI$UBYTE_A ( QI_1.OFFSET.S );

  17044   0 0000B2  EC80 0000 0020  xsym                 LDB,B6   QI_1+32
          0 0000B5  B800 0000 0041  xsym                 LDR,R3   QI_1+65
          0 0000B8  E2B6                                 LLH,R6   ,B6,R3
          0 0000B9  E780 0000 0030  xsym                 STH,R6   QI_1+48

      192    17045
PL6.E3A0      #001=QCA$ALL_LITERAL_MOVES File=QCA$ALL_LITERALS.:E05TSI           WED 07/30/97 05:01 Page:30
      193    17046    2           CALL QCC$ALR ( QI_1.OP );

  17046   0 0000BC  BB80 0000 0000  01                   LAB,B3   0
          0 0000BF  CBF0 0100                            LAB,B4   256,IMO
          0 0000C1  E380 0000 0000  xent                 LNJ,B6   QCC$ALR
          0 0000C4       0001                            DC       s:17048,PREL

      194    17047
      195    17048    2           RETURN;

  17048   0 0000C5  C380 0000 0000  xent                 LNJ,B4   X6A_ARET

      196    17049
      197    17050    2         END;
      198    17051
      199    17052    1       CALL MOVE_LOTS_TO_X_FIELDS;

  17052   0 0000C8  E3C0 0107                            LNJ,B6   s:0,PREL
          0 0000CA       0001                            DC       s:17054,PREL

      200    17053
      201    17054    1       RETURN;

  17054   0 0000CB  C380 0000 0000  xent                 LNJ,B4   X6A_ARET

      202    17055        %EJECT;
PL6.E3A0      #001=QCA$ALL_LITERAL_MOVES File=QCA$ALL_LITERALS.:E05TSI           WED 07/30/97 05:01 Page:31
      203    17056    1   QCA$ALL_LITERAL_MOVE_AE: ENTRY;

  17056   0 0000CE  D380 0000 0000  xent QCA$ALL_LITERAL*LNJ,B5   X6A_AUTO_0
          0 0000D1       0014 0000                       DC       20,0

      204    17057
      205    17058        /*D*  NAME:         QCA$ALL_LITERAL_MOVE_AE
      206    17059              CALL:         CALL QCA$ALL_LITERAL_MOVE_AE;
      207    17060              PARAMETERS:   None.
      208    17061              INTERFACE:    Called by QBM$MOVAE when an ALL "literal" source
      209    17062                            is encountered.
      210    17063              ENVIRONMENT:  Nothing unusual.
      211    17064              INPUT:        QI_1.
      212    17065              OUTPUT:       ALPHANUMERIC-EDITED-type target DAD
      213    17066                            filled up appropriately.
      214    17067              SCRATCH:      Various otter data.
      215    17068              DESCRIPTION:  QBM$MOVAE has given us this ALL "literal" move.
      216    17069                            The ALPHANUMERIC-type target should be filled with
      217    17070                            the ALL "literal" as an alphanumeric item, i.e.,
      218    17071                            with any truncation occurring to the RIGHT.
      219    17072                            An example of this weird occurrance:
      220    17073                            MOVE ALL "123" TO PICXXBBBXX00XXX
      221    17074                            (PIC XXBBBXX00XXX has a PICture clause of PIC XXBBBXX00XXX)
      222    17075                            results in the target looking like:
      223    17076                            "12   3100231".  Sheesh.
      224    17077        */
      225    17078
      226    17079    1       PIC$ = QI_1.PICTURE_STRING.T$;

  17079   0 0000D3  EC80 0000 004C  xsym                 LDB,B6   QI_1+76
          0 0000D6  EFC7 000D                            STB,B6   PIC$,AUTO

      227    17080
      228    17081            /* Just in case we were asked to "MOVE ZEROES TO ...",
      229    17082               we'll blot out the address syllable (which would
      230    17083               be DEFAULT from SETUP for such a DISPLAY source)
      231    17084               with a new, shiny INDEXED one.  We'll zero out the
PL6.E3A0      #001=QCA$ALL_LITERAL_MOVES File=QCA$ALL_LITERALS.:E05TSI           WED 07/30/97 05:01 Page:32
      232    17085               length in the descriptor itself, too. */
      233    17086    1       QI_1.OP.CIP.S.AS = %QI#CIP_INDEXED_SOURCE_AS;

  17086   0 0000D8  6C1B                                 LDV,R6   27
          0 0000D9  EA80 0000 001A  xsym                 SRM,R6,'007F'X    QI_1+26
          0 0000DC       007F

      234    17087    1       QI_1.OP.CIP.S.LEN = 0;

  17087   0 0000DD  8800 0000 001A  xsym                 LBF,'1F00'X       QI_1+26
  17087   0 0000E0       1F00

      235    17088
      236    17089    1       SOURCE_INDEX_FROM_LAST_TIME = 0;

  17089   0 0000E1  8747 000F                            CL       SOURCE_INDEX_FROM_LAST_TIME,AUTO

      237    17090
      238    17091            /* If the length of the source string is 1, we're in luck.
      239    17092               Our hero said 'MOVE SPACES TO ...'
      240    17093                          or 'MOVE ZEROES TO ...'
      241    17094                          or 'MOVE ALL "U" TO ...'
      242    17095               or some strange thing like that.  In that case, we'll
      243    17096               just call QCC$ALR once, giving it that one-character
      244    17097               data item as the FILL character.  This whole deal is to
      245    17098               save time spinning around in QCC$ALR with a 1-character
      246    17099               source string, since probably 90% of the time we're in
      247    17100               this routine 'cause someone said 'MOVE SPACES TO ...'. */
      248    17101
      249    17102    1       IF QI_1.OP.LEN.S = 1

  17102   0 0000E3  D800 0000 0026  xsym                 LDR,R5   QI_1+38
          0 0000E6  5D01                                 CMV,R5   1
          0 0000E7  0981 001B                            BNE      s:17115,PREL

      250    17103    1       THEN
      251    17104    2         DO;
PL6.E3A0      #001=QCA$ALL_LITERAL_MOVES File=QCA$ALL_LITERALS.:E05TSI           WED 07/30/97 05:01 Page:33

      252    17105
      253    17106    2           QI_1.OP.FILL_CHAR.TEXT = QI_1.OP.DATA.S$ -> QI$UBYTE_A ( QI_1.OFFSET.S );

  17106   0 0000E9  DC80 0000 0020  xsym                 LDB,B5   QI_1+32
          0 0000EC  B800 0000 0041  xsym                 LDR,R3   QI_1+65
          0 0000EF  C2B5                                 LLH,R4   ,B5,R3
          0 0000F0  C780 0000 0030  xsym                 STH,R4   QI_1+48

      254    17107    2           QI_1.OP.LEN.S = 0;

  17107   0 0000F3  8700 0000 0026  xsym                 CL       QI_1+38

      255    17108
      256    17109    2           CALL QCC$ALR ( QI_1.OP );

  17109   0 0000F6  BB80 0000 0000  01                   LAB,B3   0
          0 0000F9  CBF0 0100                            LAB,B4   256,IMO
          0 0000FB  E380 0000 0000  xent                 LNJ,B6   QCC$ALR
          0 0000FE       0001                            DC       s:17111,PREL

      257    17110
      258    17111    2           QI_1.OP.LEN.S = 1;

  17111   0 0000FF  6C01                                 LDV,R6   1
          0 000100  EF00 0000 0026  xsym                 STR,R6   QI_1+38

      259    17112
      260    17113    2         END;

      261    17114
      262    17115    2       DO MOP_STRING_INDEX = 0 TO PIC$ -> QI$ALPHANUMERIC_PICTURE_STRING.
             17115                EDIT_STRING_COUNT - 1;

  17115   0 000103  8747 0005                            CL       MOP_STRING_INDEX,AUTO
          0 000105  0F81 00BE                            B        s:17198+2,PREL

PL6.E3A0      #001=QCA$ALL_LITERAL_MOVES File=QCA$ALL_LITERALS.:E05TSI           WED 07/30/97 05:01 Page:34
      263    17116
      264    17117    2         QI_1.OP.INX.S = 0;

  17117   0 000107  8700 0000 0029  xsym                 CL       QI_1+41

      265    17118    2         QI_1.OP.LEN.T = PIC$ -> QI$ALPHANUMERIC_PICTURE_STRING.EDIT_STRING_A.LENGTH (
             17118                  MOP_STRING_INDEX);

  17118   0 00010A  ECC7 000D                            LDB,B6   PIC$,AUTO
          0 00010C  B847 0005                            LDR,R3   MOP_STRING_INDEX,AUTO
          0 00010E  3E01                                 ADV,R3   1
          0 00010F  E836                                 LDR,R6   ,B6,R3
          0 000110  E570 3FFF                            AND,R6   16383,IMO
          0 000112  EF00 0000 0027  xsym                 STR,R6   QI_1+39

      266    17119
      267    17120    3         DO CASE ( PIC$ -> QI$ALPHANUMERIC_PICTURE_STRING.EDIT_STRING_A.FUNCTION (
             17120                  MOP_STRING_INDEX) );

  17120   0 000115  A836                                 LDR,R2   ,B6,R3
          0 000116  204E                                 SOR,R2   14
          0 000117  2D04                                 CMV,R2   4
          0 000118  0281 00A9                            BGE      s:17198,PREL
          0 00011A  9820 0000 0120  00                   LDR,R1   s:17120+11,R2
          0 00011D  8390 0000 0124  00                   JMP      s:17123,R1
          0 000120       0000                            DC       s:17123,PREL
          0 000121       006F                            DC       s:17177,PREL
          0 000122       0075                            DC       s:17181,PREL
          0 000123       007B                            DC       s:17185,PREL

      268    17121
      269    17122    3           CASE ( %QI#PIC_M_9_A_X );

      270    17123    3             IF QI_1.OP.LEN.S > 1

  17123   0 000124  D800 0000 0026  xsym                 LDR,R5   QI_1+38
          0 000127  5D01                                 CMV,R5   1
PL6.E3A0      #001=QCA$ALL_LITERAL_MOVES File=QCA$ALL_LITERALS.:E05TSI           WED 07/30/97 05:01 Page:35
          0 000128  0381 0062                            BLE      s:17174,PREL

      271    17124    3             THEN
      272    17125    4               DO;

      273    17126
      274    17127                      /* SOURCE_INDEX_FROM_LAST_TIME > 0 means we had something
      275    17128                         like 'MOVE ALL "ABCDEFG" TO PICX5B2X3.' (where
      276    17129                         PICX5B2X3 has a PICture clause of 'PIC X(5)B(2)X(3)').
      277    17130                         The first time through CASE %QI#PIC_M_9_A_X, we'd
      278    17131                         move "ABCDE" to the X(5) part.  Then we'd go through
      279    17132                         CASE %QI#PIC_M_B, and stick in the two blanks.
      280    17133                         Supposing we're now in CASE %QI#PIC_M_9_A_X again,
      281    17134                         we'll make QI_1.OP.INX.S = 5, and then go through
      282    17135                         the following in order to squeeze "FG" into the
      283    17136                         leftmost two characters of the remaining X(3)... */
      284    17137    4                 IF SOURCE_INDEX_FROM_LAST_TIME > 0

  17137   0 00012A  C847 000F                            LDR,R4   SOURCE_INDEX_FROM_LAST_TIME,AUTO
          0 00012C  4901 0032                            BEZ,R4   s:17160,PREL

      285    17138    4                 THEN
      286    17139    5                   DO;

      287    17140
      288    17141    5                     OLD_SOURCE_LENGTH = QI_1.OP.LEN.S;

  17141   0 00012E  DF47 000A                            STR,R5   OLD_SOURCE_LENGTH,AUTO

      289    17142    5                     OLD_TARGET_LENGTH = QI_1.OP.LEN.T;

  17142   0 000130  EF47 000C                            STR,R6   OLD_TARGET_LENGTH,AUTO

      290    17143    5                     LEFT_TRUNCATION_LENGTH = QI_1.OP.LEN.S

  17143   0 000132  D254                                 SUB,R5   R4
          0 000133  DF47 0004                            STR,R5   LEFT_TRUNCATION_LENGTH,AUTO
PL6.E3A0      #001=QCA$ALL_LITERAL_MOVES File=QCA$ALL_LITERALS.:E05TSI           WED 07/30/97 05:01 Page:36

      291    17144    5                       - SOURCE_INDEX_FROM_LAST_TIME;
      292    17145    5                     QI_1.OP.LEN.S = LEFT_TRUNCATION_LENGTH;

  17145   0 000135  DF00 0000 0026  xsym                 STR,R5   QI_1+38

      293    17146    5                     QI_1.OP.LEN.T = LEFT_TRUNCATION_LENGTH;

  17146   0 000138  E855                                 LDR,R6   R5
          0 000139  EF00 0000 0027  xsym                 STR,R6   QI_1+39

      294    17147    5                     QI_1.OP.INX.S = SOURCE_INDEX_FROM_LAST_TIME;

  17147   0 00013C  CF00 0000 0029  xsym                 STR,R4   QI_1+41

      295    17148
      296    17149    5                     CALL QCC$ALR ( QI_1.OP );

  17149   0 00013F  BB80 0000 0000  01                   LAB,B3   0
          0 000142  CBF0 0100                            LAB,B4   256,IMO
          0 000144  E380 0000 0000  xent                 LNJ,B6   QCC$ALR
          0 000147       0001                            DC       s:17151,PREL

      297    17150
      298    17151    5                     QI_1.OP.LEN.S = OLD_SOURCE_LENGTH;

  17151   0 000148  E847 000A                            LDR,R6   OLD_SOURCE_LENGTH,AUTO
          0 00014A  EF00 0000 0026  xsym                 STR,R6   QI_1+38

      299    17152    5                     QI_1.OP.LEN.T = OLD_TARGET_LENGTH

  17152   0 00014D  D847 000C                            LDR,R5   OLD_TARGET_LENGTH,AUTO
          0 00014F  D247 0004                            SUB,R5   LEFT_TRUNCATION_LENGTH,AUTO
          0 000151  DF00 0000 0027  xsym                 STR,R5   QI_1+39

      300    17153    5                       - LEFT_TRUNCATION_LENGTH;
      301    17154    5                     QI_1.OP.INX.S = 0;
PL6.E3A0      #001=QCA$ALL_LITERAL_MOVES File=QCA$ALL_LITERALS.:E05TSI           WED 07/30/97 05:01 Page:37

  17154   0 000154  8700 0000 0029  xsym                 CL       QI_1+41

      302    17155    5                     QI_1.OP.INX.T = QI_1.OP.INX.T

  17155   0 000157  C800 0000 002A  xsym                 LDR,R4   QI_1+42
          0 00015A  CA47 0004                            ADD,R4   LEFT_TRUNCATION_LENGTH,AUTO
          0 00015C  CF00 0000 002A  xsym                 STR,R4   QI_1+42

      303    17156    5                       + LEFT_TRUNCATION_LENGTH;
      304    17157
      305    17158    5                   END;

      306    17159
      307    17160    4                 SOURCE_INDEX_FROM_LAST_TIME = MOD ( QI_1.OP.LEN.T, QI_1.OP.LEN.S );

  17160   0 00015F  F800 0000 0027  xsym                 LDR,R7   QI_1+39
          0 000162  6C00                                 LDV,R6   0
          0 000163  F300 0000 0026  xsym                 DIV,R7   QI_1+38
          0 000166  EF47 000F                            STR,R6   SOURCE_INDEX_FROM_LAST_TIME,AUTO

      308    17161
      309    17162    4                 OLD_SOURCE_DATA$ = QI_1.OP.DATA.S$;

  17162   0 000168  EC80 0000 0020  xsym                 LDB,B6   QI_1+32
          0 00016B  EFC7 0007                            STB,B6   OLD_SOURCE_DATA$,AUTO

      310    17163    4                 OLD_SOURCE_CIP_WORD0 = QI_1.OP.CIP.S_A (0);

  17163   0 00016D  D800 0000 001A  xsym                 LDR,R5   QI_1+26
          0 000170  DF47 0006                            STR,R5   OLD_SOURCE_CIP_WORD0,AUTO

      311    17164    4                 OLD_SOURCE_LENGTH = QI_1.OP.LEN.S;

  17164   0 000172  C800 0000 0026  xsym                 LDR,R4   QI_1+38
          0 000175  CF47 000A                            STR,R4   OLD_SOURCE_LENGTH,AUTO

PL6.E3A0      #001=QCA$ALL_LITERAL_MOVES File=QCA$ALL_LITERALS.:E05TSI           WED 07/30/97 05:01 Page:38
      312    17165
      313    17166    4                 CALL MOVE_LOTS_TO_X_FIELDS;

  17166   0 000177  E3C0 0058                            LNJ,B6   s:0,PREL
          0 000179       0001                            DC       s:17168,PREL

      314    17167
      315    17168    4                 QI_1.OP.DATA.S$ = OLD_SOURCE_DATA$;

  17168   0 00017A  ECC7 0007                            LDB,B6   OLD_SOURCE_DATA$,AUTO
          0 00017C  EF80 0000 0020  xsym                 STB,B6   QI_1+32

      316    17169    4                 QI_1.OP.CIP.S_A (0) = OLD_SOURCE_CIP_WORD0;

  17169   0 00017F  E847 0006                            LDR,R6   OLD_SOURCE_CIP_WORD0,AUTO
          0 000181  EF00 0000 001A  xsym                 STR,R6   QI_1+26

      317    17170    4                 QI_1.OP.LEN.S = OLD_SOURCE_LENGTH;

  17170   0 000184  D847 000A                            LDR,R5   OLD_SOURCE_LENGTH,AUTO
          0 000186  DF00 0000 0026  xsym                 STR,R5   QI_1+38

      318    17171
      319    17172    4               END;

  17172   0 000189  0F81 0038                            B        s:17198,PREL

      320    17173    3             ELSE
      321    17174    3               QI_1.OP.INX.T = QI_1.OP.INX.T + QI_1.OP.LEN.T;

  17174   0 00018B  EA00 0000 002A  xsym                 ADD,R6   QI_1+42
          0 00018E  EF00 0000 002A  xsym                 STR,R6   QI_1+42
          0 000191  0F81 0030                            B        s:17198,PREL

      322    17175
      323    17176    3           CASE ( %QI#PIC_M_B );

PL6.E3A0      #001=QCA$ALL_LITERAL_MOVES File=QCA$ALL_LITERALS.:E05TSI           WED 07/30/97 05:01 Page:39
      324    17177    3             QI_1.OP.FILL_CHAR.TEXT = %QI#CIP_BLANK_FILL;

  17177   0 000193  5C20                                 LDV,R5   32
          0 000194  D780 0000 0030  xsym                 STH,R5   QI_1+48

      325    17178    3             GOTO STICK_IT;

  17178   0 000197  0F81 000B                            B        s:17188,PREL

      326    17179
      327    17180    3           CASE ( %QI#PIC_M_0 );

      328    17181    3             QI_1.OP.FILL_CHAR.TEXT = %QI#CIP_ZERO_FILL;

  17181   0 000199  5C30                                 LDV,R5   48
          0 00019A  D780 0000 0030  xsym                 STH,R5   QI_1+48

      329    17182    3             GOTO STICK_IT;

  17182   0 00019D  0F81 0005                            B        s:17188,PREL

      330    17183
      331    17184    3           CASE ( %QI#PIC_M_SLASH );

      332    17185    3             QI_1.OP.FILL_CHAR.TEXT = %QI#CIP_SLASH_FILL;

  17185   0 00019F  5C2F                                 LDV,R5   47
          0 0001A0  D780 0000 0030  xsym                 STH,R5   QI_1+48

      333    17186
      334    17187    3   STICK_IT:
      335    17188    3             OLD_SOURCE_LENGTH = QI_1.OP.LEN.S;

  17188   0 0001A3  D800 0000 0026  xsym STICK_IT        LDR,R5   QI_1+38
          0 0001A6  DF47 000A                            STR,R5   OLD_SOURCE_LENGTH,AUTO

      336    17189    3             QI_1.OP.LEN.S = 0;
PL6.E3A0      #001=QCA$ALL_LITERAL_MOVES File=QCA$ALL_LITERALS.:E05TSI           WED 07/30/97 05:01 Page:40

  17189   0 0001A8  8700 0000 0026  xsym                 CL       QI_1+38

      337    17190
      338    17191    3             CALL QCC$ALR ( QI_1.OP );

  17191   0 0001AB  BB80 0000 0000  01                   LAB,B3   0
          0 0001AE  CBF0 0100                            LAB,B4   256,IMO
          0 0001B0  E380 0000 0000  xent                 LNJ,B6   QCC$ALR
          0 0001B3       0001                            DC       s:17193,PREL

      339    17192
      340    17193    3             QI_1.OP.LEN.S = OLD_SOURCE_LENGTH;

  17193   0 0001B4  E847 000A                            LDR,R6   OLD_SOURCE_LENGTH,AUTO
          0 0001B6  EF00 0000 0026  xsym                 STR,R6   QI_1+38

      341    17194    3             QI_1.OP.INX.T = QI_1.OP.INX.T + QI_1.OP.LEN.T;

  17194   0 0001B9  D800 0000 002A  xsym                 LDR,R5   QI_1+42
          0 0001BC  DA00 0000 0027  xsym                 ADD,R5   QI_1+39
          0 0001BF  DF00 0000 002A  xsym                 STR,R5   QI_1+42

      342    17195
      343    17196    3         END;  /* DO CASE ( PIC$ -> ... ) */

      344    17197
      345    17198    2       END;  /* DO MOP_STRING_INDEX ... */

  17198   0 0001C2  8AC7 0005                            INC      MOP_STRING_INDEX,AUTO
          0 0001C4  ECC7 000D                            LDB,B6   PIC$,AUTO
          0 0001C6  E806                                 LDR,R6   ,B6
          0 0001C7  E570 1FFF                            AND,R6   8191,IMO
          0 0001C9  E947 0005                            CMR,R6   MOP_STRING_INDEX,AUTO
          0 0001CB  0301 FF3B                            BG       s:17117,PREL

      346    17199
PL6.E3A0      #001=QCA$ALL_LITERAL_MOVES File=QCA$ALL_LITERALS.:E05TSI           WED 07/30/97 05:01 Page:41
      347    17200    1       RETURN;

  17200   0 0001CD  C380 0000 0000  xent                 LNJ,B4   X6A_ARET

      348    17201        %EJECT;
PL6.E3A0      #001=QCA$ALL_LITERAL_MOVES File=QCA$ALL_LITERALS.:E05TSI           WED 07/30/97 05:01 Page:42
      349    17202    1   MOVE_LOTS_TO_X_FIELDS: PROC;

  17202   0 0001D0  EFC7 0010            MOVE_LOTS_TO_X_*STB,B6   SOURCE_INDEX_FROM_LAST_TIME+1,AUTO

      350    17203
      351    17204        /*I*  NAME:         MOVE_LOTS_TO_X_FIELDS
      352    17205              PURPOSE:      To "unfold" an ALL "literal" source within
      353    17206                            an ALPHANUMERIC-type target.
      354    17207              CALL:         CALL MOVE_LOTS_TO_X_FIELDS;
      355    17208              PARAMETERS:   None.
      356    17209              DATA:         Uses QI_1.OP.LEN.S,
      357    17210                                 QI_1.OP.LEN.T,
      358    17211                                 QI_1.OP.INX.S (always zero, turns out),
      359    17212                                 QI_1.OP.INX.T
      360    17213                            to move QI_1.OP.CIP.S
      361    17214                                 to QI_1.OP.CIP.T.
      362    17215              DESCRIPTION:  Well, we got this ALL "literal" source, see, and
      363    17216                            we move it into the target.  If it just fit, or
      364    17217                            if it had to be truncated to fit, we're done.
      365    17218                            Otherwise...
      366    17219                            we start moving the target within the target,
      367    17220                            "unfolding" the ALL "literal".
      368    17221                            For exemplum:
      369    17222                            MOVE "123" TO TARGET.
      370    17223                            Step 1, source to target:
      371    17224                                "123"    "                             "
      372    17225                                 ^        ^
      373    17226                                 S$       T$
      374    17227
      375    17228                            Step 2, target to target:
      376    17229                                "123"    "123                          "
      377    17230                                          ^  ^
      378    17231                                          S$ T$
      379    17232
      380    17233                            Repeat step 2:
      381    17234                                "123"    "123123                       "
      382    17235                                          ^     ^
PL6.E3A0      #001=QCA$ALL_LITERAL_MOVES File=QCA$ALL_LITERALS.:E05TSI           WED 07/30/97 05:01 Page:43
      383    17236                                          S$    T$
      384    17237
      385    17238                            Repeat step 2:
      386    17239                                "123"    "123123123123                 "
      387    17240                                          ^           ^
      388    17241                                          S$          T$
      389    17242
      390    17243                            Repeat step 2:
      391    17244                                "123"    "123123123123123123123123     "
      392    17245                                          ^                       ^
      393    17246                                          S$                      T$
      394    17247
      395    17248                            All done:
      396    17249                                "123"    "12312312312312312312312312312"
      397    17250        */
      398    17251
      399    17252    2     DCL SIGNED_TARGET_LENGTH SBIN;
      400    17253
      401    17254            /* First we'll move the original ALL string (e.g., ALL "ABC")
      402    17255               to the target... */
      403    17256    2       IF QI_1.OP.LEN.S > QI_1.OP.LEN.T

  17256   0 0001D2  E800 0000 0026  xsym                 LDR,R6   QI_1+38
          0 0001D5  E900 0000 0027  xsym                 CMR,R6   QI_1+39
          0 0001D8  0381 0007                            BLE      s:17260,PREL

      404    17257    2       THEN
      405    17258    2         QI_1.OP.LEN.S = QI_1.OP.LEN.T;

  17258   0 0001DA  E800 0000 0027  xsym                 LDR,R6   QI_1+39
          0 0001DD  EF00 0000 0026  xsym                 STR,R6   QI_1+38

      406    17259
      407    17260    2       OLD_TARGET_LENGTH = QI_1.OP.LEN.T;

  17260   0 0001E0  D800 0000 0027  xsym                 LDR,R5   QI_1+39
          0 0001E3  DF47 000C                            STR,R5   OLD_TARGET_LENGTH,AUTO
PL6.E3A0      #001=QCA$ALL_LITERAL_MOVES File=QCA$ALL_LITERALS.:E05TSI           WED 07/30/97 05:01 Page:44

      408    17261    2       QI_1.OP.LEN.T = QI_1.OP.LEN.S;

  17261   0 0001E5  D856                                 LDR,R5   R6
          0 0001E6  DF00 0000 0027  xsym                 STR,R5   QI_1+39

      409    17262
      410    17263    2       CALL QCC$ALR ( QI_1.OP );

  17263   0 0001E9  BB80 0000 0000  01                   LAB,B3   0
          0 0001EC  CBF0 0100                            LAB,B4   256,IMO
          0 0001EE  E380 0000 0000  xent                 LNJ,B6   QCC$ALR
          0 0001F1       0001                            DC       s:17268,PREL

      411    17264
      412    17265            /* Now we'll start moving the target string within itself,
      413    17266               doubling the length each time, until the target's filled
      414    17267               up... */
      415    17268    2       QI_1.OP.DATA.S$ = QI_1.OP.DATA.T$;

  17268   0 0001F2  EC80 0000 0022  xsym                 LDB,B6   QI_1+34
          0 0001F5  EF80 0000 0020  xsym                 STB,B6   QI_1+32

      416    17269    2       QI_1.OP.CIP.S.CA.OFFSET = QI_1.OP.CIP.T.CA.OFFSET;

  17269   0 0001F8  E800 0000 001C  xsym                 LDR,R6   QI_1+28
          0 0001FB  EA80 0000 001A  xsym                 SRM,R6,'8000'X    QI_1+26
          0 0001FE       8000

      417    17270    2       QI_1.OP.INX.S = QI_1.OP.INX.T;

  17270   0 0001FF  D800 0000 002A  xsym                 LDR,R5   QI_1+42
          0 000202  DF00 0000 0029  xsym                 STR,R5   QI_1+41

      418    17271    2       QI_1.OP.INX.T = QI_1.OP.INX.T + QI_1.OP.LEN.S;

  17271   0 000205  DA00 0000 0026  xsym                 ADD,R5   QI_1+38
PL6.E3A0      #001=QCA$ALL_LITERAL_MOVES File=QCA$ALL_LITERALS.:E05TSI           WED 07/30/97 05:01 Page:45
          0 000208  DF00 0000 002A  xsym                 STR,R5   QI_1+42

      419    17272    2       SIGNED_TARGET_LENGTH = OLD_TARGET_LENGTH - QI_1.OP.LEN.S;

  17272   0 00020B  C847 000C                            LDR,R4   OLD_TARGET_LENGTH,AUTO
          0 00020D  C200 0000 0026  xsym                 SUB,R4   QI_1+38
          0 000210  CF47 0012                            STR,R4   SIGNED_TARGET_LENGTH,AUTO

      420    17273
      421    17274    3       DO WHILE ( SIGNED_TARGET_LENGTH > 0 );

  17274   0 000212  4A81 003A                            BLEZ,R4  s:17294,PREL

      422    17275
      423    17276    3         IF QI_1.OP.LEN.S > SIGNED_TARGET_LENGTH

  17276   0 000214  E800 0000 0026  xsym                 LDR,R6   QI_1+38
          0 000217  6801 0005                            BLZ,R6   s:17279,PREL
          0 000219  E947 0012                            CMR,R6   SIGNED_TARGET_LENGTH,AUTO
          0 00021B  0A81 0009                            BALE     s:17283,PREL

      424    17277    3         THEN
      425    17278    4           DO;

      426    17279    4             QI_1.OP.LEN.S = SIGNED_TARGET_LENGTH;

  17279   0 00021D  E847 0012                            LDR,R6   SIGNED_TARGET_LENGTH,AUTO
          0 00021F  EF00 0000 0026  xsym                 STR,R6   QI_1+38

      427    17280    4             QI_1.OP.LEN.T = SIGNED_TARGET_LENGTH;

  17280   0 000222  EF00 0000 0027  xsym                 STR,R6   QI_1+39

      428    17281    4           END;

      429    17282
      430    17283    3         QI_1.OP.FILL_CHAR.TEXT = %QI#CIP_BLANK_FILL;
PL6.E3A0      #001=QCA$ALL_LITERAL_MOVES File=QCA$ALL_LITERALS.:E05TSI           WED 07/30/97 05:01 Page:46

  17283   0 000225  5C20                                 LDV,R5   32
          0 000226  D780 0000 0030  xsym                 STH,R5   QI_1+48

      431    17284
      432    17285    3         CALL QCC$ALR ( QI_1.OP );

  17285   0 000229  BB80 0000 0000  01                   LAB,B3   0
          0 00022C  CBF0 0100                            LAB,B4   256,IMO
          0 00022E  E380 0000 0000  xent                 LNJ,B6   QCC$ALR
          0 000231       0001                            DC       s:17287,PREL

      433    17286
      434    17287    3         QI_1.OP.INX.T = QI_1.OP.INX.T + QI_1.OP.LEN.S;

  17287   0 000232  E800 0000 002A  xsym                 LDR,R6   QI_1+42
          0 000235  EA00 0000 0026  xsym                 ADD,R6   QI_1+38
          0 000238  EF00 0000 002A  xsym                 STR,R6   QI_1+42

      435    17288    3         SIGNED_TARGET_LENGTH = SIGNED_TARGET_LENGTH - QI_1.OP.LEN.T;

  17288   0 00023B  D847 0012                            LDR,R5   SIGNED_TARGET_LENGTH,AUTO
          0 00023D  D200 0000 0027  xsym                 SUB,R5   QI_1+39
          0 000240  DF47 0012                            STR,R5   SIGNED_TARGET_LENGTH,AUTO

      436    17289    3         QI_1.OP.LEN.S = QI_1.OP.LEN.S * 2;

  17289   0 000242  C800 0000 0026  xsym                 LDR,R4   QI_1+38
          0 000245  4001                                 SOL,R4   1
          0 000246  CF00 0000 0026  xsym                 STR,R4   QI_1+38

      437    17290    3         QI_1.OP.LEN.T = QI_1.OP.LEN.S;

  17290   0 000249  CF00 0000 0027  xsym                 STR,R4   QI_1+39

      438    17291
      439    17292    3       END;
PL6.E3A0      #001=QCA$ALL_LITERAL_MOVES File=QCA$ALL_LITERALS.:E05TSI           WED 07/30/97 05:01 Page:47

  17292   0 00024C  5A48                                 BGZ,R5   s:17276,SPREL

      440    17293
      441    17294    2       RETURN;

  17294   0 00024D  ECC7 0010                            LDB,B6   SOURCE_INDEX_FROM_LAST_TIME+1,AUTO
          0 00024F  C3C6 0001                            LNJ,B4   1,B6
      442    17295
      443    17296    2   END MOVE_LOTS_TO_X_FIELDS;
      444    17297
      445    17298    1   END QCA$ALL_LITERAL_MOVES;
      446    17299        %EOD;

PL6.E3A0      #001=QCA$ALL_LITERAL_MOVES File=QCA$ALL_LITERALS.:E05TSI           WED 07/30/97 05:01 Page:48
--  Include file information  --

   QI_MACROS_M.:E05TOU  is referenced.
   QI_EQUATES_E.:E05TOU  is referenced.
   QG_MACRO_M.:E05TOU  is referenced.
   LCP_6.:E05TOU  cannot be made into a system file and is referenced.
   G_LCP6_E.:E05TOU  was found in the system file and is referenced.
   GT_LCP6_M.:E05TOU  was found in the system file and is referenced.
   KI_CP6.:E05TOU  was found in the system file and is referenced.
   GF_LCP6_M.:E05TOU  was found in the system file and is referenced.
   GM_LCP6_M.:E05TOU  was found in the system file and is referenced.
   GU_LCP6_M.:E05TOU  was found in the system file and is referenced.
   GJ_LCP6_M.:E05TOU  was found in the system file and is referenced.
   GH_LCP6_M.:E05TOU  was found in the system file and is referenced.
      No diagnostics issued in procedure QCA$ALL_LITERAL_MOVES.
PL6.E3A0      #001=QCA$ALL_LITERAL_MOVES File=QCA$ALL_LITERALS.:E05TSI           WED 07/30/97 05:01 Page:49

 **** Variables and constants ****

  ****  Auto variables  ****

  ****  Scalars and arrays  ****
HexLoc.c.b A Datatyp(siz) R M Lvl/name                 HexLoc.c.b A Datatyp(siz) R M Lvl/name

     4-0-0/w UBIN(16)    r     1 LEFT_TRUNCATION_LENGTH
     5-0-0/w UBIN(16)    r     1 MOP_STRING_INDEX           6-0-0/w UBIN(16)    r     1 OLD_SOURCE_CIP_WORD0
     7-0-0/w PTR         r     1 OLD_SOURCE_DATA$           A-0-0/w UBIN(16)    r     1 OLD_SOURCE_LENGTH
     C-0-0/w UBIN(16)    r     1 OLD_TARGET_LENGTH          D-0-0/w PTR         r     1 PIC$
    12-0-0/w SBIN(16)    r     1 SIGNED_TARGET_LENGTH
     F-0-0/w UBIN(16)    r     1 SOURCE_INDEX_FROM_LAST_TIME

  ****  SYMREF variables  ****

  ****  Scalars and arrays  ****
HexLoc.c.b A Datatyp(siz) R M Lvl/name                 HexLoc.c.b A Datatyp(siz) R M Lvl/name

     0-0-0/d STRC(2576)  r     1 QI_1

  ****  BASED and DCB variables  ****

  ****  Scalars and arrays  ****
HexLoc.c.b A Datatyp(siz) R M Lvl/name                 HexLoc.c.b A Datatyp(siz) R M Lvl/name

     0-0-0/w STRC(32)    r     1 QI$ALPHANUMERIC_PICTURE_STRING
     0-0-0/w STRC(192)   r     1 QI$COBOL_DAD               0-0-0/w STRC(64)    r     1 QI$OP_ALL_LITERAL
     0-0-0/c UBIN(8)     r     1 QI$UBYTE_A(0:0)
     0-0-0/c ASTR(8)     r     1 QI$VARIABLE_IDENTIFIER


   Procedure QCA$ALL_LITERAL_MOVES requires 593 words for executable code.
   Procedure QCA$ALL_LITERAL_MOVES requires 20 words of local(AUTO) storage.
PL6.E3A0      #001=QCA$ALL_LITERAL_MOVES File=QCA$ALL_LITERALS.:E05TSI           WED 07/30/97 05:01 Page:50
          *** CROSS REFERENCE LISTING ***
**     DENOTES     IDENTIFIER DEFINITION
<<                 IDENTIFIER'S VALUE SET
>>                 IDENTIFIER'S VALUE USED
<>                 IDENTIFIER SET AND/OR USED
--                 IDENTIFIER REFERENCED
PL6.E3A0      #001=QCA$ALL_LITERAL_MOVES File=QCA$ALL_LITERALS.:E05TSI           WED 07/30/97 05:01 Page:51
          MINI XREF LISTING

LEFT_TRUNCATION_LENGTH
     16887**DCL     16970<<ASSIGN  16972>>IF      16978>>ASSIGN  16979>>ASSIGN  16980>>ASSIGN  16985>>ASSIGN
     16999>>ASSIGN  17143<<ASSIGN  17145>>ASSIGN  17146>>ASSIGN  17152>>ASSIGN  17155>>ASSIGN
MOP_STRING_INDEX
     16888**DCL     17115<<DOINDEX 17118>>ASSIGN  17120>>DOCASE
MOVE_LOTS_TO_X_FIELDS
     17202**PROC    17052--CALL    17166--CALL
OLD_SOURCE_CIP_WORD0
     16889**DCL     17163<<ASSIGN  17169>>ASSIGN
OLD_SOURCE_DATA$
     16890**DCL     17162<<ASSIGN  17168>>ASSIGN
OLD_SOURCE_LENGTH
     16892**DCL     16976<<ASSIGN  16984>>ASSIGN  17141<<ASSIGN  17151>>ASSIGN  17164<<ASSIGN  17170>>ASSIGN
     17188<<ASSIGN  17193>>ASSIGN
OLD_TARGET_LENGTH
     16894**DCL     16977<<ASSIGN  16985>>ASSIGN  17142<<ASSIGN  17152>>ASSIGN  17260<<ASSIGN  17272>>ASSIGN
PIC$
     16895**DCL     17079<<ASSIGN  17115>>DOINDEX 17118>>ASSIGN  17120>>DOCASE
QCC$ALR
     16885**DCL-ENT 16982--CALL    17046--CALL    17109--CALL    17149--CALL    17191--CALL    17263--CALL
     17285--CALL
QCS$SETUP_SOURCE
     16883**DCL-ENT 16919--CALL
QCS$SETUP_TARGET
     16884**DCL-ENT 16920--CALL
QGB_PARAM.DVE.DVBYTE.VFC
     11366**DCL     11367--REDEF
QGB_PARAM.DVE.EOMCHAR
     11378**DCL     11379--REDEF
QGB_PARAM.MSG$
     11360**DCL     11361--REDEF
QGB_PARAM.UHDR$
PL6.E3A0      #001=QCA$ALL_LITERAL_MOVES File=QCA$ALL_LITERALS.:E05TSI           WED 07/30/97 05:01 Page:52
     11385**DCL     11386--REDEF
QI$ACTIVATION_STATUS
      9124**DCL      9130--REDEF
QI$ALPHANUMERIC_PICTURE_STRING.EDIT_STRING_A.FUNCTION
      9050**DCL     17120>>DOCASE
QI$ALPHANUMERIC_PICTURE_STRING.EDIT_STRING_A.LENGTH
      9051**DCL     17118>>ASSIGN
QI$ALPHANUMERIC_PICTURE_STRING.EDIT_STRING_COUNT
      9048**DCL     17115>>DOINDEX
QI$CIP
      7965**DCL      8035--REDEF
QI$CIP.CA
      7970**DCL      7974--REDEF    7977--REDEF    7980--REDEF
QI$COBOL_DAD.PSEUDO_CIP
      8209**DCL      8234--REDEF
QI$COBOL_DAD.PSEUDO_CIP.ALPHANUMERIC
      8211**DCL      8216--REDEF
QI$COBOL_DAD.PSEUDO_CIP.NUMERIC.CB
      8217**DCL      8220--REDEF    8223--REDEF
QI$COBOL_DAD.PSEUDO_CIP.NUMERIC.LEN
      8226**DCL     16936<<ASSIGN
QI$COBOL_DAD.PSEUDO_CIP_A
      8234**DCL     16935<<ASSIGN
QI$COBOL_DAD.VARIABLE_LENGTH_ITEMS
      8245**DCL      8261--REDEF    8269--REDEF    8277--REDEF
QI$COBOL_DAD.VARIABLE_LENGTH_ITEMS.LEVEL_MULTIPLIERS
      8246**DCL      8256--REDEF    8259--REDEF
QI$COBOL_DAD.WORD0
      8173**DCL      8174--REDEF    8188--REDEF   16934<<ASSIGN
QI$COBOL_DAD_P_BITS.P
      8313**DCL      8319--REDEF
QI$CONDITION_CONTROL_BLOCK.LIST_A@P
      7799**DCL      7800--REDEF
QI$CONDITION_CONTROL_BLOCK.WORD0_FLAGS
      7795**DCL      7798--REDEF
QI$CONDITION_LEGAL_BLOCK.ARRAY@P
PL6.E3A0      #001=QCA$ALL_LITERAL_MOVES File=QCA$ALL_LITERALS.:E05TSI           WED 07/30/97 05:01 Page:53
      7832**DCL      7833--REDEF    7834--REDEF
QI$DAD.PSEUDO_CIP
      8112**DCL      8137--REDEF
QI$DAD.PSEUDO_CIP.ALPHANUMERIC
      8114**DCL      8119--REDEF
QI$DAD.PSEUDO_CIP.NUMERIC.CB
      8120**DCL      8123--REDEF    8126--REDEF
QI$DAD.WORD0
      8081**DCL      8082--REDEF
QI$ERROR_MESSAGE_LINE
     11473**DCL     11475--REDEF
QI$ERROR_STATUS
     11470**DCL     11472--REDEF
QI$FIELD_DAD.ELEMENTARY_ITEM.P
      8527**DCL      8534--REDEF
QI$FIELD_DAD.ONE_DIMENSIONAL_ITEM.P
      8547**DCL      8554--REDEF
QI$FIELD_DAD.PSEUDO_CIP
      8454**DCL      8479--REDEF
QI$FIELD_DAD.PSEUDO_CIP.ALPHANUMERIC
      8456**DCL      8461--REDEF
QI$FIELD_DAD.PSEUDO_CIP.NUMERIC.CB
      8462**DCL      8465--REDEF    8468--REDEF
QI$FIELD_DAD.TWO_DIMENSIONAL_ITEM.P
      8567**DCL      8574--REDEF
QI$FIELD_DAD.VARIABLE_LENGTH_ITEMS
      8510**DCL      8526--REDEF    8544--REDEF    8562--REDEF
QI$FIELD_DAD.VARIABLE_LENGTH_ITEMS.LEVEL_MULTIPLIERS
      8511**DCL      8521--REDEF    8524--REDEF
QI$FIELD_DAD.WORD0
      8406**DCL      8407--REDEF
QI$FIELD_DAD.WORD0_FLAGS.IO_FLAGS
      8410**DCL      8415--REDEF
QI$FIELD_DAD_P.P
      8608**DCL      8615--REDEF
QI$FIELD_STATUS.INDICATORS
PL6.E3A0      #001=QCA$ALL_LITERAL_MOVES File=QCA$ALL_LITERALS.:E05TSI           WED 07/30/97 05:01 Page:54
      9274**DCL      9306--REDEF
QI$FIELD_STATUS.INDICATORS.ENABLED_FLAGS
      9278**DCL      9283--REDEF
QI$FIELD_STATUS.INDICATORS.OPEN_FLAGS
      9290**DCL      9297--REDEF
QI$FIELD_STATUS.INDICATORS.STATE_FLAGS
      9284**DCL      9289--REDEF
QI$FILE.WORD0
      8730**DCL      8731--REDEF
QI$FILE_STATUS.INDICATORS
      9567**DCL      9599--REDEF
QI$FILE_STATUS.INDICATORS.ENABLED_FLAGS
      9571**DCL      9576--REDEF
QI$FILE_STATUS.INDICATORS.OPEN_FLAGS
      9583**DCL      9590--REDEF
QI$FILE_STATUS.INDICATORS.STATE_FLAGS
      9577**DCL      9582--REDEF
QI$FORM_FILE.USE_PROCEDURE
      8830**DCL      8837--REDEF
QI$FORM_FILE.WORD0
      8784**DCL      8785--REDEF
QI$FORM_STATUS.INDICATORS
      9688**DCL      9720--REDEF
QI$FORM_STATUS.INDICATORS.ENABLED_FLAGS
      9692**DCL      9697--REDEF
QI$FORM_STATUS.INDICATORS.OPEN_FLAGS
      9704**DCL      9711--REDEF
QI$FORM_STATUS.INDICATORS.STATE_FLAGS
      9698**DCL      9703--REDEF
QI$FRAME.WORD0
      8945**DCL      8946--REDEF
QI$FRAME_STATUS.INDICATORS
      9917**DCL      9949--REDEF
QI$FRAME_STATUS.INDICATORS.ENABLED_FLAGS
      9921**DCL      9926--REDEF
QI$FRAME_STATUS.INDICATORS.OPEN_FLAGS
PL6.E3A0      #001=QCA$ALL_LITERAL_MOVES File=QCA$ALL_LITERALS.:E05TSI           WED 07/30/97 05:01 Page:55
      9933**DCL      9940--REDEF
QI$FRAME_STATUS.INDICATORS.STATE_FLAGS
      9927**DCL      9932--REDEF
QI$GZ_FIELD.DESCRIPTION.IO_FLAGS
     16799**DCL     16804--REDEF
QI$IDENTIFIER
     11476**DCL     11478--REDEF
QI$INDICATORS
      9188**DCL      9218--REDEF
QI$INDICATORS.ENABLED_FLAGS
      9194**DCL      9199--REDEF
QI$INDICATORS.OPEN_FLAGS
      9206**DCL      9213--REDEF
QI$INDICATORS.STATE_FLAGS
      9200**DCL      9205--REDEF
QI$MAJOR_NODE.WORD0
      8644**DCL      8645--REDEF
QI$MAJOR_STATUS.INDICATORS
      9367**DCL      9399--REDEF
QI$MAJOR_STATUS.INDICATORS.ENABLED_FLAGS
      9371**DCL      9376--REDEF
QI$MAJOR_STATUS.INDICATORS.OPEN_FLAGS
      9383**DCL      9390--REDEF
QI$MAJOR_STATUS.INDICATORS.STATE_FLAGS
      9377**DCL      9382--REDEF
QI$MESSAGE_TYPE
     11467**DCL     11469--REDEF
QI$MINOR_NODE.WORD0
      8687**DCL      8688--REDEF
QI$MINOR_STATUS.INDICATORS
      9460**DCL      9492--REDEF
QI$MINOR_STATUS.INDICATORS.ENABLED_FLAGS
      9464**DCL      9469--REDEF
QI$MINOR_STATUS.INDICATORS.OPEN_FLAGS
      9476**DCL      9483--REDEF
QI$MINOR_STATUS.INDICATORS.STATE_FLAGS
PL6.E3A0      #001=QCA$ALL_LITERAL_MOVES File=QCA$ALL_LITERALS.:E05TSI           WED 07/30/97 05:01 Page:56
      9470**DCL      9475--REDEF
QI$OP_ACCEPT.DATANAME@P
      5875**DCL      5876--REDEF
QI$OP_ALL_LITERAL.NEXT_CODE@P
      5991**DCL     16922--ASSIGN
QI$OP_CALL.EPTR$
      6047**DCL      6048--REDEF
QI$OP_CLEAR.IO_FLAGS
      6080**DCL      6083--REDEF
QI$OP_DISPLAY.FIELD_A@P
      6347**DCL      6348--REDEF
QI$OP_ENABLE.IO_FLAGS
      6434**DCL      6437--REDEF
QI$OP_IFCLS.ATTRIBUTE.TYPE
      6527**DCL      6532--REDEF
QI$OP_INSPECT.TALLYING_FOR_ITEM@P
      6761**DCL      6762--REDEF
QI$OP_INSPECT.TALLYING_INITIAL_ITEM@P
      6763**DCL      6764--REDEF
QI$OP_INSPECT.TALLYING_ITEM@P
      6759**DCL      6760--REDEF
QI$OP_OPEN.IO_FLAGS
      7321**DCL      7324--REDEF
QI$OP_PERFM.BINARY_ITERATION_COUNT@P
      7359**DCL      7360--REDEF
QI$PSEUDO_CIP
      7860**DCL      7884--REDEF
QI$PSEUDO_CIP.ALPHANUMERIC
      7864**DCL      7869--REDEF
QI$PSEUDO_CIP.NUMERIC.CB
      7870**DCL      7873--REDEF    7876--REDEF
QI$TERMINAL_ATTRIBUTES
      9081**DCL      9094--REDEF
QI$TRAN_FILE.WORD0
      8866**DCL      8867--REDEF
QI$TRAN_STATUS.INDICATORS
PL6.E3A0      #001=QCA$ALL_LITERAL_MOVES File=QCA$ALL_LITERALS.:E05TSI           WED 07/30/97 05:01 Page:57
      9801**DCL      9833--REDEF
QI$TRAN_STATUS.INDICATORS.ENABLED_FLAGS
      9805**DCL      9810--REDEF
QI$TRAN_STATUS.INDICATORS.OPEN_FLAGS
      9817**DCL      9824--REDEF
QI$TRAN_STATUS.INDICATORS.STATE_FLAGS
      9811**DCL      9816--REDEF
QI$UBYTE_A
     11461**DCL     17044>>ASSIGN  17106>>ASSIGN
QI$VARIABLE_IDENTIFIER.LENGTH
     11480**DCL     11481--IMP-SIZ
QI_1.BASE
     10009**DCL     10016--REDEF
QI_1.CURRENT.FILE$
     10900**DCL     10902--REDEF   10904--REDEF
QI_1.CURRENT.FILE_STATUS$
     10906**DCL     10908--REDEF   10910--REDEF
QI_1.DAD
     10704**DCL     10709--REDEF
QI_1.DAD.T$
     10707**DCL     16934>>ASSIGN  16935>>ASSIGN  16936>>ASSIGN
QI_1.FILE_HEAD
     10887**DCL     10894--REDEF
QI_1.INSTR$
     10017**DCL     16922<<ASSIGN  16922>>ASSIGN
QI_1.IS_ALL_LIT
     10710**DCL     10715--REDEF
QI_1.IS_FORM_VARIABLE
     10716**DCL     10721--REDEF
QI_1.IS_TEMP
     10722**DCL     10727--REDEF
QI_1.MESSAGE_LINE_DAD.PSEUDO_CIP
     10820**DCL     10845--REDEF
QI_1.MESSAGE_LINE_DAD.PSEUDO_CIP.ALPHANUMERIC
     10822**DCL     10827--REDEF
QI_1.MESSAGE_LINE_DAD.PSEUDO_CIP.NUMERIC.CB
PL6.E3A0      #001=QCA$ALL_LITERAL_MOVES File=QCA$ALL_LITERALS.:E05TSI           WED 07/30/97 05:01 Page:58
     10828**DCL     10831--REDEF   10834--REDEF
QI_1.MESSAGE_LINE_DAD.WORD0
     10789**DCL     10790--REDEF
QI_1.OFFSET
     10728**DCL     10733--REDEF
QI_1.OFFSET.S
     10730**DCL     17044>>ASSIGN  17106>>ASSIGN
QI_1.OP
     10087**DCL     16982<>CALL    17046<>CALL    17109<>CALL    17149<>CALL    17191<>CALL    17263<>CALL
     17285<>CALL
QI_1.OP.CIP
     10089**DCL     10540--REDEF
QI_1.OP.CIP.AUX
     10455**DCL     10526--REDEF
QI_1.OP.CIP.AUX.CD
     10500**DCL     10503--REDEF   10507--REDEF   10510--REDEF
QI_1.OP.CIP.S
     10159**DCL     10230--REDEF
QI_1.OP.CIP.S.AS
     10224**DCL     16961<<ASSIGN  17026<<ASSIGN  17086<<ASSIGN
QI_1.OP.CIP.S.CA.OFFSET
     10208**DCL     17269<<ASSIGN
QI_1.OP.CIP.S.CD
     10204**DCL     10207--REDEF   10211--REDEF   10214--REDEF
QI_1.OP.CIP.S.LEN
     10218**DCL     16962<<ASSIGN  17027<<ASSIGN  17087<<ASSIGN
QI_1.OP.CIP.S_A
     10230**DCL     17163>>ASSIGN  17169<<ASSIGN
QI_1.OP.CIP.T
     10307**DCL     10378--REDEF
QI_1.OP.CIP.T.AS
     10372**DCL     16930<<ASSIGN
QI_1.OP.CIP.T.CA.FILL
     10357**DCL     16931<<ASSIGN
QI_1.OP.CIP.T.CA.OFFSET
     10356**DCL     17269>>ASSIGN
PL6.E3A0      #001=QCA$ALL_LITERAL_MOVES File=QCA$ALL_LITERALS.:E05TSI           WED 07/30/97 05:01 Page:59
QI_1.OP.CIP.T.CD
     10352**DCL     10355--REDEF   10359--REDEF   10362--REDEF
QI_1.OP.CIP.T.LEN
     10366**DCL     16932<<ASSIGN
QI_1.OP.DATA
     10547**DCL     10551--REDEF
QI_1.OP.DATA.S$
     10548**DCL     17044>>ASSIGN  17106>>ASSIGN  17162>>ASSIGN  17168<<ASSIGN  17268<<ASSIGN
QI_1.OP.DATA.T$
     10549**DCL     17268>>ASSIGN
QI_1.OP.FILL_CHAR
     10671**DCL     10674--REDEF
QI_1.OP.FILL_CHAR.TEXT
     10672**DCL     17044<<ASSIGN  17106<<ASSIGN  17177<<ASSIGN  17181<<ASSIGN  17185<<ASSIGN  17283<<ASSIGN
QI_1.OP.INX
     10604**DCL     10608--REDEF   10609--REDEF   10613--REDEF
QI_1.OP.INX.S
     10605**DCL     16978<<ASSIGN  16998<<ASSIGN  17028<<ASSIGN  17117<<ASSIGN  17147<<ASSIGN  17154<<ASSIGN
     17270<<ASSIGN
QI_1.OP.INX.T
     10606**DCL     16999<<ASSIGN  17155<<ASSIGN  17155>>ASSIGN  17174<<ASSIGN  17174>>ASSIGN  17194<<ASSIGN
     17194>>ASSIGN  17270>>ASSIGN  17271<<ASSIGN  17271>>ASSIGN  17287<<ASSIGN  17287>>ASSIGN
QI_1.OP.LEN
     10587**DCL     10591--REDEF   10592--REDEF   10596--REDEF   10597--REDEF   10601--REDEF
QI_1.OP.LEN.AUX
     10590**DCL     11491--IMP-SIZ
QI_1.OP.LEN.S
     10588**DCL     11487--IMP-SIZ 16970>>ASSIGN  16976>>ASSIGN  16978>>ASSIGN  16979<<ASSIGN  16984<<ASSIGN
     17039>>IF      17043<<ASSIGN  17102>>IF      17107<<ASSIGN  17111<<ASSIGN  17123>>IF      17141>>ASSIGN
     17143>>ASSIGN  17145<<ASSIGN  17151<<ASSIGN  17160>>ASSIGN  17164>>ASSIGN  17170<<ASSIGN  17188>>ASSIGN
     17189<<ASSIGN  17193<<ASSIGN  17256>>IF      17258<<ASSIGN  17261>>ASSIGN  17271>>ASSIGN  17272>>ASSIGN
     17276>>IF      17279<<ASSIGN  17287>>ASSIGN  17289<<ASSIGN  17289>>ASSIGN  17290>>ASSIGN
QI_1.OP.LEN.T
     10589**DCL     11489--IMP-SIZ 16929<<ASSIGN  16970>>ASSIGN  16977>>ASSIGN  16980<<ASSIGN  16985<<ASSIGN
     16992>>IF      17118<<ASSIGN  17142>>ASSIGN  17146<<ASSIGN  17152<<ASSIGN  17160>>ASSIGN  17174>>ASSIGN
     17194>>ASSIGN  17256>>IF      17258>>ASSIGN  17260>>ASSIGN  17261<<ASSIGN  17280<<ASSIGN  17288>>ASSIGN
PL6.E3A0      #001=QCA$ALL_LITERAL_MOVES File=QCA$ALL_LITERALS.:E05TSI           WED 07/30/97 05:01 Page:60
     17290<<ASSIGN
QI_1.OP.PICTURE_STRING
     10657**DCL     10660--REDEF   10661--REDEF   10664--REDEF   10665--REDEF   10668--REDEF
QI_1.OP.ROUND
     10690**DCL     10691--REDEF   10692--REDEF
QI_1.OP.SRCH_VRFY_ELEMS
     10626**DCL     10629--REDEF
QI_1.OPENED_COUNT
     10895**DCL     10898--REDEF
QI_1.OTTER_SPACE
     10734**DCL     10739--REDEF
QI_1.PICTURE_STRING
     10740**DCL     10745--REDEF
QI_1.PICTURE_STRING.T$
     10743**DCL     17079>>ASSIGN
QI_1.SPECIAL_NAMES
     10923**DCL     10932--REDEF
QI_1.TYPE
     10746**DCL     10751--REDEF
QI_16_BIT_BINARY
     15936**DCL     16006--REDEF
QI_16_BIT_BINARY.CB
     15955**DCL     15958--REDEF   15962--REDEF   15965--REDEF
QI_31_DIGIT_SLS_DISPLAY
     15769**DCL     15839--REDEF
QI_31_DIGIT_SLS_DISPLAY.CD
     15816**DCL     15819--REDEF   15823--REDEF   15826--REDEF
QI_31_DIGIT_ST_PACKED
     16271**DCL     16341--REDEF
QI_31_DIGIT_ST_PACKED.CP
     16304**DCL     16307--REDEF   16311--REDEF   16314--REDEF
QI_32_BIT_BINARY
     16103**DCL     16173--REDEF
QI_32_BIT_BINARY.CB
     16122**DCL     16125--REDEF   16129--REDEF   16132--REDEF
QI_4_CHAR_ALPHANUMERIC
PL6.E3A0      #001=QCA$ALL_LITERAL_MOVES File=QCA$ALL_LITERALS.:E05TSI           WED 07/30/97 05:01 Page:61
     15601**DCL     15671--REDEF
QI_4_CHAR_ALPHANUMERIC.CA
     15606**DCL     15610--REDEF   15613--REDEF   15616--REDEF
QI_ACCUMULATOR_DAD.CIP
     16614**DCL     16685--REDEF
QI_ACCUMULATOR_DAD.CIP.CP
     16645**DCL     16648--REDEF   16652--REDEF   16655--REDEF
QI_ALR.CIP
     11566**DCL     12017--REDEF
QI_ALR.CIP.AUX
     11932**DCL     12003--REDEF
QI_ALR.CIP.AUX.CA
     11935**DCL     11939--REDEF   11942--REDEF   11945--REDEF
QI_ALR.CIP.S
     11636**DCL     11707--REDEF
QI_ALR.CIP.S.CA
     11639**DCL     11643--REDEF   11646--REDEF   11649--REDEF
QI_ALR.CIP.T
     11784**DCL     11855--REDEF
QI_ALR.CIP.T.CA
     11787**DCL     11791--REDEF   11794--REDEF   11797--REDEF
QI_ALR.DATA
     12024**DCL     12028--REDEF
QI_ALR.FILL_CHAR
     12148**DCL     12151--REDEF
QI_ALR.INX
     12081**DCL     12085--REDEF   12086--REDEF   12090--REDEF
QI_ALR.LEN
     12064**DCL     12068--REDEF   12069--REDEF   12073--REDEF   12074--REDEF   12078--REDEF
QI_ALR.PICTURE_STRING
     12134**DCL     12137--REDEF   12138--REDEF   12141--REDEF   12142--REDEF   12145--REDEF
QI_ALR.ROUND
     12167**DCL     12168--REDEF   12169--REDEF
QI_ALR.SRCH_VRFY_ELEMS
     12103**DCL     12106--REDEF
QI_MAT.CIP
PL6.E3A0      #001=QCA$ALL_LITERAL_MOVES File=QCA$ALL_LITERALS.:E05TSI           WED 07/30/97 05:01 Page:62
     14905**DCL     15356--REDEF
QI_MAT.CIP.AUX
     15271**DCL     15342--REDEF
QI_MAT.CIP.AUX.CA
     15274**DCL     15278--REDEF   15281--REDEF   15284--REDEF
QI_MAT.CIP.S
     14975**DCL     15046--REDEF
QI_MAT.CIP.S.CA
     14978**DCL     14982--REDEF   14985--REDEF   14988--REDEF
QI_MAT.CIP.T
     15123**DCL     15194--REDEF
QI_MAT.CIP.T.CA
     15126**DCL     15130--REDEF   15133--REDEF   15136--REDEF
QI_MAT.DATA
     15363**DCL     15367--REDEF
QI_MAT.DEC
     15431**DCL     15435--REDEF   15436--REDEF   15440--REDEF
QI_MAT.FILL_CHAR
     15487**DCL     15490--REDEF
QI_MAT.LEN
     15403**DCL     15407--REDEF   15408--REDEF   15412--REDEF   15413--REDEF   15417--REDEF
QI_MAT.PICTURE_STRING
     15473**DCL     15476--REDEF   15477--REDEF   15480--REDEF   15481--REDEF   15484--REDEF
QI_MAT.ROUND
     15506**DCL     15507--REDEF   15508--REDEF
QI_MAT.SRCH_VRFY_ELEMS
     15442**DCL     15445--REDEF
QI_PICTURE_STRING
     16439**DCL     16509--REDEF
QI_PICTURE_STRING.CA
     16444**DCL     16448--REDEF   16451--REDEF   16454--REDEF
QI_SRCH_VRFY.CIP
     14236**DCL     14687--REDEF
QI_SRCH_VRFY.CIP.AUX
     14602**DCL     14673--REDEF
QI_SRCH_VRFY.CIP.AUX.CA
PL6.E3A0      #001=QCA$ALL_LITERAL_MOVES File=QCA$ALL_LITERALS.:E05TSI           WED 07/30/97 05:01 Page:63
     14605**DCL     14609--REDEF   14612--REDEF   14615--REDEF
QI_SRCH_VRFY.CIP.S
     14306**DCL     14377--REDEF
QI_SRCH_VRFY.CIP.S.CA
     14309**DCL     14313--REDEF   14316--REDEF   14319--REDEF
QI_SRCH_VRFY.CIP.T
     14454**DCL     14525--REDEF
QI_SRCH_VRFY.CIP.T.CA
     14457**DCL     14461--REDEF   14464--REDEF   14467--REDEF
QI_SRCH_VRFY.DATA
     14694**DCL     14698--REDEF
QI_SRCH_VRFY.DEC
     14762**DCL     14766--REDEF   14767--REDEF   14771--REDEF
QI_SRCH_VRFY.FILL_CHAR
     14818**DCL     14821--REDEF
QI_SRCH_VRFY.ROUND
     14837**DCL     14838--REDEF   14839--REDEF
QI_SRCH_VRFY.SRCH_RESULT
     14778**DCL     14781--REDEF   14782--REDEF   14785--REDEF   14786--REDEF   14789--REDEF
QI_SRCH_VRFY.SRCH_VRFY_ARGS
     14702**DCL     14706--REDEF   14707--REDEF   14711--REDEF   14712--REDEF   14716--REDEF
QI_SRCH_VRFY.SRCH_VRFY_ELEMS
     14773**DCL     14776--REDEF
QI_TYPE_BINARY_TARGET.CIP
     13563**DCL     14014--REDEF
QI_TYPE_BINARY_TARGET.CIP.AUX
     13929**DCL     14000--REDEF
QI_TYPE_BINARY_TARGET.CIP.AUX.CA
     13932**DCL     13936--REDEF   13939--REDEF   13942--REDEF
QI_TYPE_BINARY_TARGET.CIP.S
     13633**DCL     13704--REDEF
QI_TYPE_BINARY_TARGET.CIP.S.CA
     13636**DCL     13640--REDEF   13643--REDEF   13646--REDEF
QI_TYPE_BINARY_TARGET.CIP.T
     13781**DCL     13852--REDEF
QI_TYPE_BINARY_TARGET.CIP.T.CB
PL6.E3A0      #001=QCA$ALL_LITERAL_MOVES File=QCA$ALL_LITERALS.:E05TSI           WED 07/30/97 05:01 Page:64
     13798**DCL     13801--REDEF   13805--REDEF   13808--REDEF
QI_TYPE_BINARY_TARGET.DATA
     14021**DCL     14025--REDEF
QI_TYPE_BINARY_TARGET.DEC
     14089**DCL     14093--REDEF   14094--REDEF   14098--REDEF
QI_TYPE_BINARY_TARGET.LEN
     14061**DCL     14065--REDEF   14066--REDEF   14070--REDEF   14071--REDEF   14075--REDEF
QI_TYPE_BINARY_TARGET.PICTURE_STRING
     14131**DCL     14134--REDEF   14135--REDEF   14138--REDEF   14139--REDEF   14142--REDEF
QI_TYPE_BINARY_TARGET.ROUND
     14164**DCL     14165--REDEF   14166--REDEF
QI_TYPE_BINARY_TARGET.SIZE_ERROR
     14150**DCL     14151--REDEF
QI_TYPE_BINARY_TARGET.SRCH_VRFY_ELEMS
     14100**DCL     14103--REDEF
QI_TYPE_DISPLAY_SOURCE.CIP
     12231**DCL     12682--REDEF
QI_TYPE_DISPLAY_SOURCE.CIP.AUX
     12597**DCL     12668--REDEF
QI_TYPE_DISPLAY_SOURCE.CIP.AUX.CA
     12600**DCL     12604--REDEF   12607--REDEF   12610--REDEF
QI_TYPE_DISPLAY_SOURCE.CIP.S
     12301**DCL     12372--REDEF
QI_TYPE_DISPLAY_SOURCE.CIP.S.CD
     12346**DCL     12349--REDEF   12353--REDEF   12356--REDEF
QI_TYPE_DISPLAY_SOURCE.CIP.T
     12449**DCL     12520--REDEF
QI_TYPE_DISPLAY_SOURCE.CIP.T.CA
     12452**DCL     12456--REDEF   12459--REDEF   12462--REDEF
QI_TYPE_DISPLAY_SOURCE.DATA
     12689**DCL     12693--REDEF
QI_TYPE_DISPLAY_SOURCE.DEC
     12757**DCL     12761--REDEF   12762--REDEF   12766--REDEF
QI_TYPE_DISPLAY_SOURCE.LEN
     12729**DCL     12733--REDEF   12734--REDEF   12738--REDEF   12739--REDEF   12743--REDEF
QI_TYPE_DISPLAY_SOURCE.PICTURE_STRING
PL6.E3A0      #001=QCA$ALL_LITERAL_MOVES File=QCA$ALL_LITERALS.:E05TSI           WED 07/30/97 05:01 Page:65
     12799**DCL     12802--REDEF   12803--REDEF   12806--REDEF   12807--REDEF   12810--REDEF
QI_TYPE_DISPLAY_SOURCE.ROUND
     12832**DCL     12833--REDEF   12834--REDEF
QI_TYPE_DISPLAY_SOURCE.SIZE_ERROR
     12818**DCL     12819--REDEF
QI_TYPE_DISPLAY_SOURCE.SRCH_VRFY_ELEMS
     12768**DCL     12771--REDEF
QI_TYPE_DISPLAY_TARGET.CIP
     12897**DCL     13348--REDEF
QI_TYPE_DISPLAY_TARGET.CIP.AUX
     13263**DCL     13334--REDEF
QI_TYPE_DISPLAY_TARGET.CIP.AUX.CA
     13266**DCL     13270--REDEF   13273--REDEF   13276--REDEF
QI_TYPE_DISPLAY_TARGET.CIP.S
     12967**DCL     13038--REDEF
QI_TYPE_DISPLAY_TARGET.CIP.S.CA
     12970**DCL     12974--REDEF   12977--REDEF   12980--REDEF
QI_TYPE_DISPLAY_TARGET.CIP.T
     13115**DCL     13186--REDEF
QI_TYPE_DISPLAY_TARGET.CIP.T.CD
     13160**DCL     13163--REDEF   13167--REDEF   13170--REDEF
QI_TYPE_DISPLAY_TARGET.DATA
     13355**DCL     13359--REDEF
QI_TYPE_DISPLAY_TARGET.DEC
     13423**DCL     13427--REDEF   13428--REDEF   13432--REDEF
QI_TYPE_DISPLAY_TARGET.LEN
     13395**DCL     13399--REDEF   13400--REDEF   13404--REDEF   13405--REDEF   13409--REDEF
QI_TYPE_DISPLAY_TARGET.PICTURE_STRING
     13465**DCL     13468--REDEF   13469--REDEF   13472--REDEF   13473--REDEF   13476--REDEF
QI_TYPE_DISPLAY_TARGET.ROUND
     13498**DCL     13499--REDEF   13500--REDEF
QI_TYPE_DISPLAY_TARGET.SIZE_ERROR
     13484**DCL     13485--REDEF
QI_TYPE_DISPLAY_TARGET.SRCH_VRFY_ELEMS
     13434**DCL     13437--REDEF
SIGNED_TARGET_LENGTH IN PROCEDURE MOVE_LOTS_TO_X_FIELDS
PL6.E3A0      #001=QCA$ALL_LITERAL_MOVES File=QCA$ALL_LITERALS.:E05TSI           WED 07/30/97 05:01 Page:66
     17252**DCL     17272<<ASSIGN  17274>>DOWHILE 17276>>IF      17279>>ASSIGN  17280>>ASSIGN  17288<<ASSIGN
     17288>>ASSIGN
SOURCE_INDEX_FROM_LAST_TIME
     16896**DCL     17089<<ASSIGN  17137>>IF      17143>>ASSIGN  17147>>ASSIGN  17160<<ASSIGN
SO_MOVE_ALL_TO_X_FIELD_ALREADY
     17039**LABEL   17001--GOTO
STICK_IT
     17188**LABEL   17178--GOTO    17182--GOTO

PL6.E3A0      #002=QCA$ALL_LITERAL_IFS File=QCA$ALL_LITERALS.:E05TSI             WED 07/30/97 05:04 Page:67
      447        1        /*M* QCA$ALL_LITERAL_IFS:  'IF' an 'ALL "literal"'.  */
      448        2        /*T***********************************************************/
      449        3        /*T*                                                         */
      450        4        /*T* Copyright (c) Bull HN Information Systems Inc., 1997    */
      451        5        /*T*                                                         */
      452        6        /*T***********************************************************/
      453        7
      454        8        /*P*  NAME:         QCA$ALL_LITERAL_IFS
      455        9              PURPOSE:      Handle ALL "literal" sources or targets compared to
      456       10                            various types of sources or targets.
      457       11              DESCRIPTION:  Handle ALL "literals" compared to various sources
      458       12                            and targets via calls from QCI$IFA and QCI$IFG
      459       13                            who find themselves up against such strange things.
      460       14        */
      461       15
      462       16        QCA$ALL_LITERAL_IFS: PROC;
      463       17
      464       18          %INCLUDE LCP_6;
      465      209
      466      210          %INCLUDE QG_MACRO_M;
      467      347          %INCLUDE QI_EQUATES_E;
      468      706          %INCLUDE QI_MACROS_M;
      469     5764          %QI$ALL;
      470    16877
      471    16878          %SET LISTINC = '1'B;
      472    16879          %SET LISTMAC = '1'B;
      473    16880
      474    16881    1     DCL QCC$ACM ENTRY (1);
      475    16882    1     DCL OLD_OTHER_THINGS_LENGTH UBIN;
      476    16883    1     DCL THE_ALL_LITERALS_TABLE_INDEX UBIN;
      477    16884    1     DCL THE_OTHER_THINGS_TABLE_INDEX UBIN;
      478    16885
      479    16886    1   QCA$ALL_LITERAL_IF: ENTRY;
      480    16887
      481    16888        /*D*  NAME:         QCA$ALL_LITERAL_IF
      482    16889              CALL:         CALL QCA$ALL_LITERAL_IF;
      483    16890              PARAMETERS:   None.
PL6.E3A0      #002=QCA$ALL_LITERAL_IFS File=QCA$ALL_LITERALS.:E05TSI             WED 07/30/97 05:04 Page:68
      484    16891              INTERFACE:    Called by QCI$IFA or QCI$IFG when an ALL "literal"
      485    16892                            source or target is encountered.
      486    16893              ENVIRONMENT:  Nothing unusual.
      487    16894              INPUT:        QI_1.
      488    16895              OUTPUT:       QI_1.OP.COMP_RESULT will be checked by the caller
      489    16896                            (set by QCC$ACM).
      490    16897              SCRATCH:      Various otter data.
      491    16898              DESCRIPTION:  QCI$IFA or QCI$IFG has given us this ALL "literal" if.
      492    16899                            We'll just bop along comparing the offending ALL "literal"
      493    16900                            to a piece of the source or target (which ever one the
      494    16901                            ALL "literal" isn't) as long as the ALL "literal" at
      495    16902                            a time, waiting for a "not equal" result.
      496    16903                            Admittedly, the ALL "literal" could be expanded into
      497    16904                            dynamic memory, and then compared at one whack, but
      498    16905                            that's sort of like cutting off your memory to spite
      499    16906                            your CIP.
      500    16907        */
      501    16908
      502    16909    1       IF QI_1.IS_ALL_LIT.S
      503    16910    1       THEN
      504    16911    2         DO;
      505    16912    2           THE_ALL_LITERALS_TABLE_INDEX = %QI#SOURCE;
      506    16913    2           THE_OTHER_THINGS_TABLE_INDEX = %QI#TARGET;
      507    16914    2         END;
      508    16915    1       ELSE
      509    16916    2         DO;
      510    16917    2           THE_OTHER_THINGS_TABLE_INDEX = %QI#SOURCE;
      511    16918    2           THE_ALL_LITERALS_TABLE_INDEX = %QI#TARGET;
      512    16919    2         END;
      513    16920
      514    16921            /*  If we're lucky, somebody said something like:
      515    16922                IF TRASH = SPACES THEN...
      516    16923                and so we can use the ALL-literal as the FILL character
      517    16924                for the comparison.  */
      518    16925    1       IF QI_1.OP.LEN_A (THE_ALL_LITERALS_TABLE_INDEX) = 1
      519    16926    1       THEN
      520    16927    2         DO;
PL6.E3A0      #002=QCA$ALL_LITERAL_IFS File=QCA$ALL_LITERALS.:E05TSI             WED 07/30/97 05:04 Page:69
      521    16928
      522    16929                /* Sometimes, on a lark, the compiler'll gen a DISPLAY
      523    16930                   figurative constant, for stuff like IF GROUP = ZEROES,
      524    16931                   and so the CIP's length gotta get zapped, too.  */
      525    16932    2           QI_1.OP.CIP.S.LEN = 0;
      526    16933    2           QI_1.OP.CIP.T.LEN = 0;
      527    16934    2           QI_1.OP.FILL_CHAR.TEXT =
      528    16935    2             QI_1.OP.DATA_A$ (THE_ALL_LITERALS_TABLE_INDEX) ->
      529    16936    2             QI$UBYTE_A ( QI_1.OFFSET_A (THE_ALL_LITERALS_TABLE_INDEX) );
      530    16937
      531    16938    2           CALL QCC$ACM ( QI_1.OP );
      532    16939
      533    16940    2           RETURN;
      534    16941
      535    16942    2         END;
      536    16943
      537    16944    1       QI_1.OP.COMP_RESULT = %QI#IF_EQUAL;
      538    16945
      539    16946    2       DO WHILE (    ( QI_1.OP.COMP_RESULT = %QI#IF_EQUAL )
      540    16947    2         AND ( QI_1.OP.LEN_A (THE_OTHER_THINGS_TABLE_INDEX) ~= 0 ) );
      541    16948
      542    16949    2         IF QI_1.OP.LEN_A (THE_ALL_LITERALS_TABLE_INDEX)
      543    16950    2           > QI_1.OP.LEN_A (THE_OTHER_THINGS_TABLE_INDEX)
      544    16951    2         THEN
      545    16952    2           QI_1.OP.LEN_A (THE_ALL_LITERALS_TABLE_INDEX) =
      546    16953    2             QI_1.OP.LEN_A (THE_OTHER_THINGS_TABLE_INDEX);
      547    16954
      548    16955    2         OLD_OTHER_THINGS_LENGTH =
      549    16956    2           QI_1.OP.LEN_A (THE_OTHER_THINGS_TABLE_INDEX);
      550    16957    2         QI_1.OP.LEN_A (THE_OTHER_THINGS_TABLE_INDEX) =
      551    16958    2           QI_1.OP.LEN_A (THE_ALL_LITERALS_TABLE_INDEX);
      552    16959
      553    16960    2         CALL QCC$ACM ( QI_1.OP );
      554    16961
      555    16962    2         QI_1.OP.INX_A (THE_OTHER_THINGS_TABLE_INDEX) =
      556    16963    2           QI_1.OP.INX_A (THE_OTHER_THINGS_TABLE_INDEX)
      557    16964    2           + QI_1.OP.LEN_A (THE_ALL_LITERALS_TABLE_INDEX);
PL6.E3A0      #002=QCA$ALL_LITERAL_IFS File=QCA$ALL_LITERALS.:E05TSI             WED 07/30/97 05:04 Page:70
      558    16965    2         QI_1.OP.LEN_A (THE_OTHER_THINGS_TABLE_INDEX) =
      559    16966    2           OLD_OTHER_THINGS_LENGTH
      560    16967    2           - QI_1.OP.LEN_A (THE_ALL_LITERALS_TABLE_INDEX);
      561    16968
      562    16969    2       END;
      563    16970
      564    16971    1       RETURN;
      565    16972
      566    16973    1   END QCA$ALL_LITERAL_IFS;

PL6.E3A0      #002=QCA$ALL_LITERAL_IFS File=QCA$ALL_LITERALS.:E05TSI             WED 07/30/97 05:04 Page:71
--  Include file information  --

   QI_MACROS_M.:E05TOU  is referenced.
   QI_EQUATES_E.:E05TOU  is referenced.
   QG_MACRO_M.:E05TOU  is referenced.
   LCP_6.:E05TOU  cannot be made into a system file and is referenced.
   G_LCP6_E.:E05TOU  was found in the system file and is referenced.
   GT_LCP6_M.:E05TOU  was found in the system file and is referenced.
   KI_CP6.:E05TOU  was found in the system file and is referenced.
   GF_LCP6_M.:E05TOU  was found in the system file and is referenced.
   GM_LCP6_M.:E05TOU  was found in the system file and is referenced.
   GU_LCP6_M.:E05TOU  was found in the system file and is referenced.
   GJ_LCP6_M.:E05TOU  was found in the system file and is referenced.
   GH_LCP6_M.:E05TOU  was found in the system file and is referenced.
      No diagnostics issued in procedure QCA$ALL_LITERAL_IFS.

   Procedure QCA$ALL_LITERAL_IFS requires 146 words for executable code.
   Procedure QCA$ALL_LITERAL_IFS requires 8 words of local(AUTO) storage.

    No errors detected in file QCA$ALL_LITERALS.:E05TSI    .

PL6.E3A0      #002=QCA$ALL_LITERAL_IFS File=QCA$ALL_LITERALS.:E05TSI             WED 07/30/97 05:04 Page:72

 Object Unit name= QCA$ALL_LITERAL_IFS                        File name= QCA$ALL_LITERALS.:E05TOU
 UTS= JUL 30 '97 05:04:27.24 WED                              Compiler= PL-6/E31         Sev=      00
 SharedLib= :SHARED_LCP6_SYSTEM                               Alt SharedLib=


    ****  Control sections  ****

 Sect   Type Bound  Init  Size HexSiz  Section name
    0   Proc  even  none   146     92  QCA$ALL_LITERAL_IFS
    1  RoData even  none     2      2  QCA$ALL_LITERAL_IFS

    ****  Entry defs  ****

                              Check   Calling
                             calling  sequence
  Sect HexLoc Primary Altret sequence   type   Parms  Name
     0      0   yes            yes      Std        0  QCA$ALL_LITERAL_IFS
     0      7                  yes      Std        0  QCA$ALL_LITERAL_IF

  ****  Entry refs  ****

         Check        Calling
        calling       sequence
Altret sequence SRef   type   Args  Name
         yes           Std       1 QCC$ACM
                       nStd      0 X6A_AUTO_0
                       nStd      0 X6A_ARET

  ****  Data refs  ****

  Flags:  r = read only, s = secondary
Flgs Name                             Flgs Name                             Flgs Name
     QI_1                                  QI_4_CHAR_ALPHANUMERIC                QI_31_DIGIT_SLS_DISPLAY
     QI_16_BIT_BINARY                      QI_32_BIT_BINARY                      QI_31_DIGIT_ST_PACKED
     QI_PICTURE_STRING                r    G$ROS$
PL6.E3A0      #002=QCA$ALL_LITERAL_IFS File=QCA$ALL_LITERALS.:E05TSI             WED 07/30/97 05:04 Page:73


      447        1        /*M* QCA$ALL_LITERAL_IFS:  'IF' an 'ALL "literal"'.  */
      448        2        /*T***********************************************************/
      449        3        /*T*                                                         */
      450        4        /*T* Copyright (c) Bull HN Information Systems Inc., 1997    */
      451        5        /*T*                                                         */
      452        6        /*T***********************************************************/
      453        7
      454        8        /*P*  NAME:         QCA$ALL_LITERAL_IFS
      455        9              PURPOSE:      Handle ALL "literal" sources or targets compared to
      456       10                            various types of sources or targets.
      457       11              DESCRIPTION:  Handle ALL "literals" compared to various sources
      458       12                            and targets via calls from QCI$IFA and QCI$IFG
      459       13                            who find themselves up against such strange things.
      460       14        */
      461       15
      462       16        QCA$ALL_LITERAL_IFS: PROC;

     16   0 000000  D380 0000 0000  xent QCA$ALL_LITERAL*LNJ,B5   X6A_AUTO_0
          0 000003       0008 0000                       DC       8,0
          0 000005  0F81 0006                            B        s:16909,PREL

      463       17
      464       18          %INCLUDE LCP_6;
      465      209
      466      210          %INCLUDE QG_MACRO_M;
      467      347          %INCLUDE QI_EQUATES_E;
      468      706          %INCLUDE QI_MACROS_M;
      469     5764          %QI$ALL;
      470    16877
      471    16878          %SET LISTINC = '1'B;
      472    16879          %SET LISTMAC = '1'B;
      473    16880
      474    16881    1     DCL QCC$ACM ENTRY (1);
      475    16882    1     DCL OLD_OTHER_THINGS_LENGTH UBIN;
      476    16883    1     DCL THE_ALL_LITERALS_TABLE_INDEX UBIN;
      477    16884    1     DCL THE_OTHER_THINGS_TABLE_INDEX UBIN;
PL6.E3A0      #002=QCA$ALL_LITERAL_IFS File=QCA$ALL_LITERALS.:E05TSI             WED 07/30/97 05:04 Page:74
      478    16885
      479    16886    1   QCA$ALL_LITERAL_IF: ENTRY;

  16886   0 000007  D380 0000 0000  xent QCA$ALL_LITERAL*LNJ,B5   X6A_AUTO_0
          0 00000A       0008 0000                       DC       8,0

      480    16887
      481    16888        /*D*  NAME:         QCA$ALL_LITERAL_IF
      482    16889              CALL:         CALL QCA$ALL_LITERAL_IF;
      483    16890              PARAMETERS:   None.
      484    16891              INTERFACE:    Called by QCI$IFA or QCI$IFG when an ALL "literal"
      485    16892                            source or target is encountered.
      486    16893              ENVIRONMENT:  Nothing unusual.
      487    16894              INPUT:        QI_1.
      488    16895              OUTPUT:       QI_1.OP.COMP_RESULT will be checked by the caller
      489    16896                            (set by QCC$ACM).
      490    16897              SCRATCH:      Various otter data.
      491    16898              DESCRIPTION:  QCI$IFA or QCI$IFG has given us this ALL "literal" if.
      492    16899                            We'll just bop along comparing the offending ALL "literal"
      493    16900                            to a piece of the source or target (which ever one the
      494    16901                            ALL "literal" isn't) as long as the ALL "literal" at
      495    16902                            a time, waiting for a "not equal" result.
      496    16903                            Admittedly, the ALL "literal" could be expanded into
      497    16904                            dynamic memory, and then compared at one whack, but
      498    16905                            that's sort of like cutting off your memory to spite
      499    16906                            your CIP.
      500    16907        */
      501    16908
      502    16909    1       IF QI_1.IS_ALL_LIT.S

  16909   0 00000C  8980 0000 0038  xsym                 CMZ      QI_1+56
          0 00000F  0881 0008                            BAGE     s:16917,PREL

      503    16910    1       THEN
      504    16911    2         DO;

      505    16912    2           THE_ALL_LITERALS_TABLE_INDEX = %QI#SOURCE;
PL6.E3A0      #002=QCA$ALL_LITERAL_IFS File=QCA$ALL_LITERALS.:E05TSI             WED 07/30/97 05:04 Page:75

  16912   0 000011  8747 0005                            CL       THE_ALL_LITERALS_TABLE_INDEX,AUTO

      506    16913    2           THE_OTHER_THINGS_TABLE_INDEX = %QI#TARGET;

  16913   0 000013  6C01                                 LDV,R6   1
          0 000014  EF47 0006                            STR,R6   THE_OTHER_THINGS_TABLE_INDEX,AUTO

      507    16914    2         END;

  16914   0 000016  0F81 0006                            B        s:16925,PREL

      508    16915    1       ELSE
      509    16916    2         DO;

      510    16917    2           THE_OTHER_THINGS_TABLE_INDEX = %QI#SOURCE;

  16917   0 000018  8747 0006                            CL       THE_OTHER_THINGS_TABLE_INDEX,AUTO

      511    16918    2           THE_ALL_LITERALS_TABLE_INDEX = %QI#TARGET;

  16918   0 00001A  6C01                                 LDV,R6   1
          0 00001B  EF47 0005                            STR,R6   THE_ALL_LITERALS_TABLE_INDEX,AUTO

      512    16919    2         END;

      513    16920
      514    16921            /*  If we're lucky, somebody said something like:
      515    16922                IF TRASH = SPACES THEN...
      516    16923                and so we can use the ALL-literal as the FILL character
      517    16924                for the comparison.  */
      518    16925    1       IF QI_1.OP.LEN_A (THE_ALL_LITERALS_TABLE_INDEX) = 1

  16925   0 00001D  B847 0005                            LDR,R3   THE_ALL_LITERALS_TABLE_INDEX,AUTO
          0 00001F  D830 0000 0026  xsym                 LDR,R5   QI_1+38,R3
          0 000022  5D01                                 CMV,R5   1
          0 000023  0981 001F                            BNE      s:16944,PREL
PL6.E3A0      #002=QCA$ALL_LITERAL_IFS File=QCA$ALL_LITERALS.:E05TSI             WED 07/30/97 05:04 Page:76

      519    16926    1       THEN
      520    16927    2         DO;

      521    16928
      522    16929                /* Sometimes, on a lark, the compiler'll gen a DISPLAY
      523    16930                   figurative constant, for stuff like IF GROUP = ZEROES,
      524    16931                   and so the CIP's length gotta get zapped, too.  */
      525    16932    2           QI_1.OP.CIP.S.LEN = 0;

  16932   0 000025  8800 0000 001A  xsym                 LBF,'1F00'X       QI_1+26
  16932   0 000028       1F00

      526    16933    2           QI_1.OP.CIP.T.LEN = 0;

  16933   0 000029  8800 0000 001C  xsym                 LBF,'1F00'X       QI_1+28
  16933   0 00002C       1F00

      527    16934    2           QI_1.OP.FILL_CHAR.TEXT =

  16934   0 00002D  ECB0 0000 0020  xsym                 LDB,B6   QI_1+32,R3
          0 000030  A830 0000 0041  xsym                 LDR,R2   QI_1+65,R3
          0 000033  D2A6                                 LLH,R5   ,B6,R2
          0 000034  D780 0000 0030  xsym                 STH,R5   QI_1+48

      528    16935    2             QI_1.OP.DATA_A$ (THE_ALL_LITERALS_TABLE_INDEX) ->
      529    16936    2             QI$UBYTE_A ( QI_1.OFFSET_A (THE_ALL_LITERALS_TABLE_INDEX) );
      530    16937
      531    16938    2           CALL QCC$ACM ( QI_1.OP );

  16938   0 000037  BB80 0000 0000  01                   LAB,B3   0
          0 00003A  CBF0 0100                            LAB,B4   256,IMO
          0 00003C  E380 0000 0000  xent                 LNJ,B6   QCC$ACM
          0 00003F       0001                            DC       s:16940,PREL

      532    16939
      533    16940    2           RETURN;
PL6.E3A0      #002=QCA$ALL_LITERAL_IFS File=QCA$ALL_LITERALS.:E05TSI             WED 07/30/97 05:04 Page:77

  16940   0 000040  C380 0000 0000  xent                 LNJ,B4   X6A_ARET

      534    16941
      535    16942    2         END;
      536    16943
      537    16944    1       QI_1.OP.COMP_RESULT = %QI#IF_EQUAL;

  16944   0 000043  4C02                                 LDV,R4   2
          0 000044  CF00 0000 0031  xsym                 STR,R4   QI_1+49

      538    16945
      539    16946    2       DO WHILE (    ( QI_1.OP.COMP_RESULT = %QI#IF_EQUAL )

  16946   0 000047  0F81 003A                            B        s:16969,PREL

      540    16947    2         AND ( QI_1.OP.LEN_A (THE_OTHER_THINGS_TABLE_INDEX) ~= 0 ) );
      541    16948
      542    16949    2         IF QI_1.OP.LEN_A (THE_ALL_LITERALS_TABLE_INDEX)

  16949   0 000049  B847 0005                            LDR,R3   THE_ALL_LITERALS_TABLE_INDEX,AUTO
          0 00004B  A847 0006                            LDR,R2   THE_OTHER_THINGS_TABLE_INDEX,AUTO
          0 00004D  E830 0000 0026  xsym                 LDR,R6   QI_1+38,R3
          0 000050  E920 0000 0026  xsym                 CMR,R6   QI_1+38,R2
          0 000053  0381 0007                            BLE      s:16955,PREL

      543    16950    2           > QI_1.OP.LEN_A (THE_OTHER_THINGS_TABLE_INDEX)
      544    16951    2         THEN
      545    16952    2           QI_1.OP.LEN_A (THE_ALL_LITERALS_TABLE_INDEX) =

  16952   0 000055  E820 0000 0026  xsym                 LDR,R6   QI_1+38,R2
          0 000058  EF30 0000 0026  xsym                 STR,R6   QI_1+38,R3

      546    16953    2             QI_1.OP.LEN_A (THE_OTHER_THINGS_TABLE_INDEX);
      547    16954
      548    16955    2         OLD_OTHER_THINGS_LENGTH =

PL6.E3A0      #002=QCA$ALL_LITERAL_IFS File=QCA$ALL_LITERALS.:E05TSI             WED 07/30/97 05:04 Page:78
  16955   0 00005B  D820 0000 0026  xsym                 LDR,R5   QI_1+38,R2
          0 00005E  DF47 0004                            STR,R5   OLD_OTHER_THINGS_LENGTH,AUTO

      549    16956    2           QI_1.OP.LEN_A (THE_OTHER_THINGS_TABLE_INDEX);
      550    16957    2         QI_1.OP.LEN_A (THE_OTHER_THINGS_TABLE_INDEX) =

  16957   0 000060  D856                                 LDR,R5   R6
          0 000061  DF20 0000 0026  xsym                 STR,R5   QI_1+38,R2

      551    16958    2           QI_1.OP.LEN_A (THE_ALL_LITERALS_TABLE_INDEX);
      552    16959
      553    16960    2         CALL QCC$ACM ( QI_1.OP );

  16960   0 000064  BB80 0000 0000  01                   LAB,B3   0
          0 000067  CBF0 0100                            LAB,B4   256,IMO
          0 000069  E380 0000 0000  xent                 LNJ,B6   QCC$ACM
          0 00006C       0001                            DC       s:16962,PREL

      554    16961
      555    16962    2         QI_1.OP.INX_A (THE_OTHER_THINGS_TABLE_INDEX) =

  16962   0 00006D  B847 0006                            LDR,R3   THE_OTHER_THINGS_TABLE_INDEX,AUTO
          0 00006F  A847 0005                            LDR,R2   THE_ALL_LITERALS_TABLE_INDEX,AUTO
          0 000071  E830 0000 0029  xsym                 LDR,R6   QI_1+41,R3
          0 000074  EA20 0000 0026  xsym                 ADD,R6   QI_1+38,R2
          0 000077  EF30 0000 0029  xsym                 STR,R6   QI_1+41,R3

      556    16963    2           QI_1.OP.INX_A (THE_OTHER_THINGS_TABLE_INDEX)
      557    16964    2           + QI_1.OP.LEN_A (THE_ALL_LITERALS_TABLE_INDEX);
      558    16965    2         QI_1.OP.LEN_A (THE_OTHER_THINGS_TABLE_INDEX) =

  16965   0 00007A  D847 0004                            LDR,R5   OLD_OTHER_THINGS_LENGTH,AUTO
          0 00007C  D220 0000 0026  xsym                 SUB,R5   QI_1+38,R2
          0 00007F  DF30 0000 0026  xsym                 STR,R5   QI_1+38,R3

      559    16966    2           OLD_OTHER_THINGS_LENGTH
      560    16967    2           - QI_1.OP.LEN_A (THE_ALL_LITERALS_TABLE_INDEX);
PL6.E3A0      #002=QCA$ALL_LITERAL_IFS File=QCA$ALL_LITERALS.:E05TSI             WED 07/30/97 05:04 Page:79
      561    16968
      562    16969    2       END;

  16969   0 000082  E800 0000 0031  xsym                 LDR,R6   QI_1+49
          0 000085  6D02                                 CMV,R6   2
          0 000086  0981 0008                            BNE      s:16971,PREL
          0 000088  B847 0006                            LDR,R3   THE_OTHER_THINGS_TABLE_INDEX,AUTO
          0 00008A  D830 0000 0026  xsym                 LDR,R5   QI_1+38,R3
          0 00008D  5981 FFBB                            BNEZ,R5  s:16949,PREL

      563    16970
      564    16971    1       RETURN;

  16971   0 00008F  C380 0000 0000  xent                 LNJ,B4   X6A_ARET
      565    16972
      566    16973    1   END QCA$ALL_LITERAL_IFS;

PL6.E3A0      #002=QCA$ALL_LITERAL_IFS File=QCA$ALL_LITERALS.:E05TSI             WED 07/30/97 05:04 Page:80
--  Include file information  --

   QI_MACROS_M.:E05TOU  is referenced.
   QI_EQUATES_E.:E05TOU  is referenced.
   QG_MACRO_M.:E05TOU  is referenced.
   LCP_6.:E05TOU  cannot be made into a system file and is referenced.
   G_LCP6_E.:E05TOU  was found in the system file and is referenced.
   GT_LCP6_M.:E05TOU  was found in the system file and is referenced.
   KI_CP6.:E05TOU  was found in the system file and is referenced.
   GF_LCP6_M.:E05TOU  was found in the system file and is referenced.
   GM_LCP6_M.:E05TOU  was found in the system file and is referenced.
   GU_LCP6_M.:E05TOU  was found in the system file and is referenced.
   GJ_LCP6_M.:E05TOU  was found in the system file and is referenced.
   GH_LCP6_M.:E05TOU  was found in the system file and is referenced.
      No diagnostics issued in procedure QCA$ALL_LITERAL_IFS.
PL6.E3A0      #002=QCA$ALL_LITERAL_IFS File=QCA$ALL_LITERALS.:E05TSI             WED 07/30/97 05:04 Page:81

 **** Variables and constants ****

  ****  Auto variables  ****

  ****  Scalars and arrays  ****
HexLoc.c.b A Datatyp(siz) R M Lvl/name                 HexLoc.c.b A Datatyp(siz) R M Lvl/name

     4-0-0/w UBIN(16)    r     1 OLD_OTHER_THINGS_LENGTH
     5-0-0/w UBIN(16)    r     1 THE_ALL_LITERALS_TABLE_INDEX
     6-0-0/w UBIN(16)    r     1 THE_OTHER_THINGS_TABLE_INDEX

  ****  SYMREF variables  ****

  ****  Scalars and arrays  ****
HexLoc.c.b A Datatyp(siz) R M Lvl/name                 HexLoc.c.b A Datatyp(siz) R M Lvl/name

     0-0-0/d STRC(2576)  r     1 QI_1

  ****  BASED and DCB variables  ****

  ****  Scalars and arrays  ****
HexLoc.c.b A Datatyp(siz) R M Lvl/name                 HexLoc.c.b A Datatyp(siz) R M Lvl/name

     0-0-0/c UBIN(8)     r     1 QI$UBYTE_A(0:0)
     0-0-0/c ASTR(8)     r     1 QI$VARIABLE_IDENTIFIER


   Procedure QCA$ALL_LITERAL_IFS requires 146 words for executable code.
   Procedure QCA$ALL_LITERAL_IFS requires 8 words of local(AUTO) storage.

    No errors detected in file QCA$ALL_LITERALS.:E05TSI    .
PL6.E3A0      #002=QCA$ALL_LITERAL_IFS File=QCA$ALL_LITERALS.:E05TSI             WED 07/30/97 05:04 Page:82
          *** CROSS REFERENCE LISTING ***
**     DENOTES     IDENTIFIER DEFINITION
<<                 IDENTIFIER'S VALUE SET
>>                 IDENTIFIER'S VALUE USED
<>                 IDENTIFIER SET AND/OR USED
--                 IDENTIFIER REFERENCED
PL6.E3A0      #002=QCA$ALL_LITERAL_IFS File=QCA$ALL_LITERALS.:E05TSI             WED 07/30/97 05:04 Page:83
          MINI XREF LISTING

OLD_OTHER_THINGS_LENGTH
     16882**DCL     16955<<ASSIGN  16965>>ASSIGN
QCC$ACM
     16881**DCL-ENT 16938--CALL    16960--CALL
QGB_PARAM.DVE.DVBYTE.VFC
     11361**DCL     11362--REDEF
QGB_PARAM.DVE.EOMCHAR
     11373**DCL     11374--REDEF
QGB_PARAM.MSG$
     11355**DCL     11356--REDEF
QGB_PARAM.UHDR$
     11380**DCL     11381--REDEF
QI$ACTIVATION_STATUS
      9119**DCL      9125--REDEF
QI$CIP
      7960**DCL      8030--REDEF
QI$CIP.CA
      7965**DCL      7969--REDEF    7972--REDEF    7975--REDEF
QI$COBOL_DAD.PSEUDO_CIP
      8204**DCL      8229--REDEF
QI$COBOL_DAD.PSEUDO_CIP.ALPHANUMERIC
      8206**DCL      8211--REDEF
QI$COBOL_DAD.PSEUDO_CIP.NUMERIC.CB
      8212**DCL      8215--REDEF    8218--REDEF
QI$COBOL_DAD.VARIABLE_LENGTH_ITEMS
      8240**DCL      8256--REDEF    8264--REDEF    8272--REDEF
QI$COBOL_DAD.VARIABLE_LENGTH_ITEMS.LEVEL_MULTIPLIERS
      8241**DCL      8251--REDEF    8254--REDEF
QI$COBOL_DAD.WORD0
      8168**DCL      8169--REDEF    8183--REDEF
QI$COBOL_DAD_P_BITS.P
      8308**DCL      8314--REDEF
PL6.E3A0      #002=QCA$ALL_LITERAL_IFS File=QCA$ALL_LITERALS.:E05TSI             WED 07/30/97 05:04 Page:84
QI$CONDITION_CONTROL_BLOCK.LIST_A@P
      7794**DCL      7795--REDEF
QI$CONDITION_CONTROL_BLOCK.WORD0_FLAGS
      7790**DCL      7793--REDEF
QI$CONDITION_LEGAL_BLOCK.ARRAY@P
      7827**DCL      7828--REDEF    7829--REDEF
QI$DAD.PSEUDO_CIP
      8107**DCL      8132--REDEF
QI$DAD.PSEUDO_CIP.ALPHANUMERIC
      8109**DCL      8114--REDEF
QI$DAD.PSEUDO_CIP.NUMERIC.CB
      8115**DCL      8118--REDEF    8121--REDEF
QI$DAD.WORD0
      8076**DCL      8077--REDEF
QI$ERROR_MESSAGE_LINE
     11468**DCL     11470--REDEF
QI$ERROR_STATUS
     11465**DCL     11467--REDEF
QI$FIELD_DAD.ELEMENTARY_ITEM.P
      8522**DCL      8529--REDEF
QI$FIELD_DAD.ONE_DIMENSIONAL_ITEM.P
      8542**DCL      8549--REDEF
QI$FIELD_DAD.PSEUDO_CIP
      8449**DCL      8474--REDEF
QI$FIELD_DAD.PSEUDO_CIP.ALPHANUMERIC
      8451**DCL      8456--REDEF
QI$FIELD_DAD.PSEUDO_CIP.NUMERIC.CB
      8457**DCL      8460--REDEF    8463--REDEF
QI$FIELD_DAD.TWO_DIMENSIONAL_ITEM.P
      8562**DCL      8569--REDEF
QI$FIELD_DAD.VARIABLE_LENGTH_ITEMS
      8505**DCL      8521--REDEF    8539--REDEF    8557--REDEF
QI$FIELD_DAD.VARIABLE_LENGTH_ITEMS.LEVEL_MULTIPLIERS
      8506**DCL      8516--REDEF    8519--REDEF
QI$FIELD_DAD.WORD0
      8401**DCL      8402--REDEF
PL6.E3A0      #002=QCA$ALL_LITERAL_IFS File=QCA$ALL_LITERALS.:E05TSI             WED 07/30/97 05:04 Page:85
QI$FIELD_DAD.WORD0_FLAGS.IO_FLAGS
      8405**DCL      8410--REDEF
QI$FIELD_DAD_P.P
      8603**DCL      8610--REDEF
QI$FIELD_STATUS.INDICATORS
      9269**DCL      9301--REDEF
QI$FIELD_STATUS.INDICATORS.ENABLED_FLAGS
      9273**DCL      9278--REDEF
QI$FIELD_STATUS.INDICATORS.OPEN_FLAGS
      9285**DCL      9292--REDEF
QI$FIELD_STATUS.INDICATORS.STATE_FLAGS
      9279**DCL      9284--REDEF
QI$FILE.WORD0
      8725**DCL      8726--REDEF
QI$FILE_STATUS.INDICATORS
      9562**DCL      9594--REDEF
QI$FILE_STATUS.INDICATORS.ENABLED_FLAGS
      9566**DCL      9571--REDEF
QI$FILE_STATUS.INDICATORS.OPEN_FLAGS
      9578**DCL      9585--REDEF
QI$FILE_STATUS.INDICATORS.STATE_FLAGS
      9572**DCL      9577--REDEF
QI$FORM_FILE.USE_PROCEDURE
      8825**DCL      8832--REDEF
QI$FORM_FILE.WORD0
      8779**DCL      8780--REDEF
QI$FORM_STATUS.INDICATORS
      9683**DCL      9715--REDEF
QI$FORM_STATUS.INDICATORS.ENABLED_FLAGS
      9687**DCL      9692--REDEF
QI$FORM_STATUS.INDICATORS.OPEN_FLAGS
      9699**DCL      9706--REDEF
QI$FORM_STATUS.INDICATORS.STATE_FLAGS
      9693**DCL      9698--REDEF
QI$FRAME.WORD0
      8940**DCL      8941--REDEF
PL6.E3A0      #002=QCA$ALL_LITERAL_IFS File=QCA$ALL_LITERALS.:E05TSI             WED 07/30/97 05:04 Page:86
QI$FRAME_STATUS.INDICATORS
      9912**DCL      9944--REDEF
QI$FRAME_STATUS.INDICATORS.ENABLED_FLAGS
      9916**DCL      9921--REDEF
QI$FRAME_STATUS.INDICATORS.OPEN_FLAGS
      9928**DCL      9935--REDEF
QI$FRAME_STATUS.INDICATORS.STATE_FLAGS
      9922**DCL      9927--REDEF
QI$GZ_FIELD.DESCRIPTION.IO_FLAGS
     16794**DCL     16799--REDEF
QI$IDENTIFIER
     11471**DCL     11473--REDEF
QI$INDICATORS
      9183**DCL      9213--REDEF
QI$INDICATORS.ENABLED_FLAGS
      9189**DCL      9194--REDEF
QI$INDICATORS.OPEN_FLAGS
      9201**DCL      9208--REDEF
QI$INDICATORS.STATE_FLAGS
      9195**DCL      9200--REDEF
QI$MAJOR_NODE.WORD0
      8639**DCL      8640--REDEF
QI$MAJOR_STATUS.INDICATORS
      9362**DCL      9394--REDEF
QI$MAJOR_STATUS.INDICATORS.ENABLED_FLAGS
      9366**DCL      9371--REDEF
QI$MAJOR_STATUS.INDICATORS.OPEN_FLAGS
      9378**DCL      9385--REDEF
QI$MAJOR_STATUS.INDICATORS.STATE_FLAGS
      9372**DCL      9377--REDEF
QI$MESSAGE_TYPE
     11462**DCL     11464--REDEF
QI$MINOR_NODE.WORD0
      8682**DCL      8683--REDEF
QI$MINOR_STATUS.INDICATORS
      9455**DCL      9487--REDEF
PL6.E3A0      #002=QCA$ALL_LITERAL_IFS File=QCA$ALL_LITERALS.:E05TSI             WED 07/30/97 05:04 Page:87
QI$MINOR_STATUS.INDICATORS.ENABLED_FLAGS
      9459**DCL      9464--REDEF
QI$MINOR_STATUS.INDICATORS.OPEN_FLAGS
      9471**DCL      9478--REDEF
QI$MINOR_STATUS.INDICATORS.STATE_FLAGS
      9465**DCL      9470--REDEF
QI$OP_ACCEPT.DATANAME@P
      5870**DCL      5871--REDEF
QI$OP_CALL.EPTR$
      6042**DCL      6043--REDEF
QI$OP_CLEAR.IO_FLAGS
      6075**DCL      6078--REDEF
QI$OP_DISPLAY.FIELD_A@P
      6342**DCL      6343--REDEF
QI$OP_ENABLE.IO_FLAGS
      6429**DCL      6432--REDEF
QI$OP_IFCLS.ATTRIBUTE.TYPE
      6522**DCL      6527--REDEF
QI$OP_INSPECT.TALLYING_FOR_ITEM@P
      6756**DCL      6757--REDEF
QI$OP_INSPECT.TALLYING_INITIAL_ITEM@P
      6758**DCL      6759--REDEF
QI$OP_INSPECT.TALLYING_ITEM@P
      6754**DCL      6755--REDEF
QI$OP_OPEN.IO_FLAGS
      7316**DCL      7319--REDEF
QI$OP_PERFM.BINARY_ITERATION_COUNT@P
      7354**DCL      7355--REDEF
QI$PSEUDO_CIP
      7855**DCL      7879--REDEF
QI$PSEUDO_CIP.ALPHANUMERIC
      7859**DCL      7864--REDEF
QI$PSEUDO_CIP.NUMERIC.CB
      7865**DCL      7868--REDEF    7871--REDEF
QI$TERMINAL_ATTRIBUTES
      9076**DCL      9089--REDEF
PL6.E3A0      #002=QCA$ALL_LITERAL_IFS File=QCA$ALL_LITERALS.:E05TSI             WED 07/30/97 05:04 Page:88
QI$TRAN_FILE.WORD0
      8861**DCL      8862--REDEF
QI$TRAN_STATUS.INDICATORS
      9796**DCL      9828--REDEF
QI$TRAN_STATUS.INDICATORS.ENABLED_FLAGS
      9800**DCL      9805--REDEF
QI$TRAN_STATUS.INDICATORS.OPEN_FLAGS
      9812**DCL      9819--REDEF
QI$TRAN_STATUS.INDICATORS.STATE_FLAGS
      9806**DCL      9811--REDEF
QI$UBYTE_A
     11456**DCL     16934>>ASSIGN
QI$VARIABLE_IDENTIFIER.LENGTH
     11475**DCL     11476--IMP-SIZ
QI_1.BASE
     10004**DCL     10011--REDEF
QI_1.CURRENT.FILE$
     10895**DCL     10897--REDEF   10899--REDEF
QI_1.CURRENT.FILE_STATUS$
     10901**DCL     10903--REDEF   10905--REDEF
QI_1.DAD
     10699**DCL     10704--REDEF
QI_1.FILE_HEAD
     10882**DCL     10889--REDEF
QI_1.IS_ALL_LIT
     10705**DCL     10710--REDEF
QI_1.IS_ALL_LIT.S
     10707**DCL     16909>>IF
QI_1.IS_FORM_VARIABLE
     10711**DCL     10716--REDEF
QI_1.IS_TEMP
     10717**DCL     10722--REDEF
QI_1.MESSAGE_LINE_DAD.PSEUDO_CIP
     10815**DCL     10840--REDEF
QI_1.MESSAGE_LINE_DAD.PSEUDO_CIP.ALPHANUMERIC
     10817**DCL     10822--REDEF
PL6.E3A0      #002=QCA$ALL_LITERAL_IFS File=QCA$ALL_LITERALS.:E05TSI             WED 07/30/97 05:04 Page:89
QI_1.MESSAGE_LINE_DAD.PSEUDO_CIP.NUMERIC.CB
     10823**DCL     10826--REDEF   10829--REDEF
QI_1.MESSAGE_LINE_DAD.WORD0
     10784**DCL     10785--REDEF
QI_1.OFFSET
     10723**DCL     10728--REDEF
QI_1.OFFSET_A
     10728**DCL     16934>>ASSIGN
QI_1.OP
     10082**DCL     16938<>CALL    16960<>CALL
QI_1.OP.CIP
     10084**DCL     10535--REDEF
QI_1.OP.CIP.AUX
     10450**DCL     10521--REDEF
QI_1.OP.CIP.AUX.CD
     10495**DCL     10498--REDEF   10502--REDEF   10505--REDEF
QI_1.OP.CIP.S
     10154**DCL     10225--REDEF
QI_1.OP.CIP.S.CD
     10199**DCL     10202--REDEF   10206--REDEF   10209--REDEF
QI_1.OP.CIP.S.LEN
     10213**DCL     16932<<ASSIGN
QI_1.OP.CIP.T
     10302**DCL     10373--REDEF
QI_1.OP.CIP.T.CD
     10347**DCL     10350--REDEF   10354--REDEF   10357--REDEF
QI_1.OP.CIP.T.LEN
     10361**DCL     16933<<ASSIGN
QI_1.OP.COMP_RESULT
     10686**DCL     16944<<ASSIGN  16946>>DOWHILE
QI_1.OP.DATA
     10542**DCL     10546--REDEF
QI_1.OP.DATA_A$
     10546**DCL     16934>>ASSIGN
QI_1.OP.FILL_CHAR
     10666**DCL     10669--REDEF
PL6.E3A0      #002=QCA$ALL_LITERAL_IFS File=QCA$ALL_LITERALS.:E05TSI             WED 07/30/97 05:04 Page:90
QI_1.OP.FILL_CHAR.TEXT
     10667**DCL     16934<<ASSIGN
QI_1.OP.INX
     10599**DCL     10603--REDEF   10604--REDEF   10608--REDEF
QI_1.OP.INX_A
     10603**DCL     16962<<ASSIGN  16962>>ASSIGN
QI_1.OP.LEN
     10582**DCL     10586--REDEF   10587--REDEF   10591--REDEF   10592--REDEF   10596--REDEF
QI_1.OP.LEN.AUX
     10585**DCL     11486--IMP-SIZ
QI_1.OP.LEN.S
     10583**DCL     11482--IMP-SIZ
QI_1.OP.LEN.T
     10584**DCL     11484--IMP-SIZ
QI_1.OP.LEN_A
     10586**DCL     16925>>IF      16946>>DOWHILE 16949>>IF      16949>>IF      16952<<ASSIGN  16952>>ASSIGN
     16955>>ASSIGN  16957<<ASSIGN  16957>>ASSIGN  16962>>ASSIGN  16965<<ASSIGN  16965>>ASSIGN
QI_1.OP.PICTURE_STRING
     10652**DCL     10655--REDEF   10656--REDEF   10659--REDEF   10660--REDEF   10663--REDEF
QI_1.OP.ROUND
     10685**DCL     10686--REDEF   10687--REDEF
QI_1.OP.SRCH_VRFY_ELEMS
     10621**DCL     10624--REDEF
QI_1.OPENED_COUNT
     10890**DCL     10893--REDEF
QI_1.OTTER_SPACE
     10729**DCL     10734--REDEF
QI_1.PICTURE_STRING
     10735**DCL     10740--REDEF
QI_1.SPECIAL_NAMES
     10918**DCL     10927--REDEF
QI_1.TYPE
     10741**DCL     10746--REDEF
QI_16_BIT_BINARY
     15931**DCL     16001--REDEF
QI_16_BIT_BINARY.CB
PL6.E3A0      #002=QCA$ALL_LITERAL_IFS File=QCA$ALL_LITERALS.:E05TSI             WED 07/30/97 05:04 Page:91
     15950**DCL     15953--REDEF   15957--REDEF   15960--REDEF
QI_31_DIGIT_SLS_DISPLAY
     15764**DCL     15834--REDEF
QI_31_DIGIT_SLS_DISPLAY.CD
     15811**DCL     15814--REDEF   15818--REDEF   15821--REDEF
QI_31_DIGIT_ST_PACKED
     16266**DCL     16336--REDEF
QI_31_DIGIT_ST_PACKED.CP
     16299**DCL     16302--REDEF   16306--REDEF   16309--REDEF
QI_32_BIT_BINARY
     16098**DCL     16168--REDEF
QI_32_BIT_BINARY.CB
     16117**DCL     16120--REDEF   16124--REDEF   16127--REDEF
QI_4_CHAR_ALPHANUMERIC
     15596**DCL     15666--REDEF
QI_4_CHAR_ALPHANUMERIC.CA
     15601**DCL     15605--REDEF   15608--REDEF   15611--REDEF
QI_ACCUMULATOR_DAD.CIP
     16609**DCL     16680--REDEF
QI_ACCUMULATOR_DAD.CIP.CP
     16640**DCL     16643--REDEF   16647--REDEF   16650--REDEF
QI_ALR.CIP
     11561**DCL     12012--REDEF
QI_ALR.CIP.AUX
     11927**DCL     11998--REDEF
QI_ALR.CIP.AUX.CA
     11930**DCL     11934--REDEF   11937--REDEF   11940--REDEF
QI_ALR.CIP.S
     11631**DCL     11702--REDEF
QI_ALR.CIP.S.CA
     11634**DCL     11638--REDEF   11641--REDEF   11644--REDEF
QI_ALR.CIP.T
     11779**DCL     11850--REDEF
QI_ALR.CIP.T.CA
     11782**DCL     11786--REDEF   11789--REDEF   11792--REDEF
QI_ALR.DATA
PL6.E3A0      #002=QCA$ALL_LITERAL_IFS File=QCA$ALL_LITERALS.:E05TSI             WED 07/30/97 05:04 Page:92
     12019**DCL     12023--REDEF
QI_ALR.FILL_CHAR
     12143**DCL     12146--REDEF
QI_ALR.INX
     12076**DCL     12080--REDEF   12081--REDEF   12085--REDEF
QI_ALR.LEN
     12059**DCL     12063--REDEF   12064--REDEF   12068--REDEF   12069--REDEF   12073--REDEF
QI_ALR.PICTURE_STRING
     12129**DCL     12132--REDEF   12133--REDEF   12136--REDEF   12137--REDEF   12140--REDEF
QI_ALR.ROUND
     12162**DCL     12163--REDEF   12164--REDEF
QI_ALR.SRCH_VRFY_ELEMS
     12098**DCL     12101--REDEF
QI_MAT.CIP
     14900**DCL     15351--REDEF
QI_MAT.CIP.AUX
     15266**DCL     15337--REDEF
QI_MAT.CIP.AUX.CA
     15269**DCL     15273--REDEF   15276--REDEF   15279--REDEF
QI_MAT.CIP.S
     14970**DCL     15041--REDEF
QI_MAT.CIP.S.CA
     14973**DCL     14977--REDEF   14980--REDEF   14983--REDEF
QI_MAT.CIP.T
     15118**DCL     15189--REDEF
QI_MAT.CIP.T.CA
     15121**DCL     15125--REDEF   15128--REDEF   15131--REDEF
QI_MAT.DATA
     15358**DCL     15362--REDEF
QI_MAT.DEC
     15426**DCL     15430--REDEF   15431--REDEF   15435--REDEF
QI_MAT.FILL_CHAR
     15482**DCL     15485--REDEF
QI_MAT.LEN
     15398**DCL     15402--REDEF   15403--REDEF   15407--REDEF   15408--REDEF   15412--REDEF
QI_MAT.PICTURE_STRING
PL6.E3A0      #002=QCA$ALL_LITERAL_IFS File=QCA$ALL_LITERALS.:E05TSI             WED 07/30/97 05:04 Page:93
     15468**DCL     15471--REDEF   15472--REDEF   15475--REDEF   15476--REDEF   15479--REDEF
QI_MAT.ROUND
     15501**DCL     15502--REDEF   15503--REDEF
QI_MAT.SRCH_VRFY_ELEMS
     15437**DCL     15440--REDEF
QI_PICTURE_STRING
     16434**DCL     16504--REDEF
QI_PICTURE_STRING.CA
     16439**DCL     16443--REDEF   16446--REDEF   16449--REDEF
QI_SRCH_VRFY.CIP
     14231**DCL     14682--REDEF
QI_SRCH_VRFY.CIP.AUX
     14597**DCL     14668--REDEF
QI_SRCH_VRFY.CIP.AUX.CA
     14600**DCL     14604--REDEF   14607--REDEF   14610--REDEF
QI_SRCH_VRFY.CIP.S
     14301**DCL     14372--REDEF
QI_SRCH_VRFY.CIP.S.CA
     14304**DCL     14308--REDEF   14311--REDEF   14314--REDEF
QI_SRCH_VRFY.CIP.T
     14449**DCL     14520--REDEF
QI_SRCH_VRFY.CIP.T.CA
     14452**DCL     14456--REDEF   14459--REDEF   14462--REDEF
QI_SRCH_VRFY.DATA
     14689**DCL     14693--REDEF
QI_SRCH_VRFY.DEC
     14757**DCL     14761--REDEF   14762--REDEF   14766--REDEF
QI_SRCH_VRFY.FILL_CHAR
     14813**DCL     14816--REDEF
QI_SRCH_VRFY.ROUND
     14832**DCL     14833--REDEF   14834--REDEF
QI_SRCH_VRFY.SRCH_RESULT
     14773**DCL     14776--REDEF   14777--REDEF   14780--REDEF   14781--REDEF   14784--REDEF
QI_SRCH_VRFY.SRCH_VRFY_ARGS
     14697**DCL     14701--REDEF   14702--REDEF   14706--REDEF   14707--REDEF   14711--REDEF
QI_SRCH_VRFY.SRCH_VRFY_ELEMS
PL6.E3A0      #002=QCA$ALL_LITERAL_IFS File=QCA$ALL_LITERALS.:E05TSI             WED 07/30/97 05:04 Page:94
     14768**DCL     14771--REDEF
QI_TYPE_BINARY_TARGET.CIP
     13558**DCL     14009--REDEF
QI_TYPE_BINARY_TARGET.CIP.AUX
     13924**DCL     13995--REDEF
QI_TYPE_BINARY_TARGET.CIP.AUX.CA
     13927**DCL     13931--REDEF   13934--REDEF   13937--REDEF
QI_TYPE_BINARY_TARGET.CIP.S
     13628**DCL     13699--REDEF
QI_TYPE_BINARY_TARGET.CIP.S.CA
     13631**DCL     13635--REDEF   13638--REDEF   13641--REDEF
QI_TYPE_BINARY_TARGET.CIP.T
     13776**DCL     13847--REDEF
QI_TYPE_BINARY_TARGET.CIP.T.CB
     13793**DCL     13796--REDEF   13800--REDEF   13803--REDEF
QI_TYPE_BINARY_TARGET.DATA
     14016**DCL     14020--REDEF
QI_TYPE_BINARY_TARGET.DEC
     14084**DCL     14088--REDEF   14089--REDEF   14093--REDEF
QI_TYPE_BINARY_TARGET.LEN
     14056**DCL     14060--REDEF   14061--REDEF   14065--REDEF   14066--REDEF   14070--REDEF
QI_TYPE_BINARY_TARGET.PICTURE_STRING
     14126**DCL     14129--REDEF   14130--REDEF   14133--REDEF   14134--REDEF   14137--REDEF
QI_TYPE_BINARY_TARGET.ROUND
     14159**DCL     14160--REDEF   14161--REDEF
QI_TYPE_BINARY_TARGET.SIZE_ERROR
     14145**DCL     14146--REDEF
QI_TYPE_BINARY_TARGET.SRCH_VRFY_ELEMS
     14095**DCL     14098--REDEF
QI_TYPE_DISPLAY_SOURCE.CIP
     12226**DCL     12677--REDEF
QI_TYPE_DISPLAY_SOURCE.CIP.AUX
     12592**DCL     12663--REDEF
QI_TYPE_DISPLAY_SOURCE.CIP.AUX.CA
     12595**DCL     12599--REDEF   12602--REDEF   12605--REDEF
QI_TYPE_DISPLAY_SOURCE.CIP.S
PL6.E3A0      #002=QCA$ALL_LITERAL_IFS File=QCA$ALL_LITERALS.:E05TSI             WED 07/30/97 05:04 Page:95
     12296**DCL     12367--REDEF
QI_TYPE_DISPLAY_SOURCE.CIP.S.CD
     12341**DCL     12344--REDEF   12348--REDEF   12351--REDEF
QI_TYPE_DISPLAY_SOURCE.CIP.T
     12444**DCL     12515--REDEF
QI_TYPE_DISPLAY_SOURCE.CIP.T.CA
     12447**DCL     12451--REDEF   12454--REDEF   12457--REDEF
QI_TYPE_DISPLAY_SOURCE.DATA
     12684**DCL     12688--REDEF
QI_TYPE_DISPLAY_SOURCE.DEC
     12752**DCL     12756--REDEF   12757--REDEF   12761--REDEF
QI_TYPE_DISPLAY_SOURCE.LEN
     12724**DCL     12728--REDEF   12729--REDEF   12733--REDEF   12734--REDEF   12738--REDEF
QI_TYPE_DISPLAY_SOURCE.PICTURE_STRING
     12794**DCL     12797--REDEF   12798--REDEF   12801--REDEF   12802--REDEF   12805--REDEF
QI_TYPE_DISPLAY_SOURCE.ROUND
     12827**DCL     12828--REDEF   12829--REDEF
QI_TYPE_DISPLAY_SOURCE.SIZE_ERROR
     12813**DCL     12814--REDEF
QI_TYPE_DISPLAY_SOURCE.SRCH_VRFY_ELEMS
     12763**DCL     12766--REDEF
QI_TYPE_DISPLAY_TARGET.CIP
     12892**DCL     13343--REDEF
QI_TYPE_DISPLAY_TARGET.CIP.AUX
     13258**DCL     13329--REDEF
QI_TYPE_DISPLAY_TARGET.CIP.AUX.CA
     13261**DCL     13265--REDEF   13268--REDEF   13271--REDEF
QI_TYPE_DISPLAY_TARGET.CIP.S
     12962**DCL     13033--REDEF
QI_TYPE_DISPLAY_TARGET.CIP.S.CA
     12965**DCL     12969--REDEF   12972--REDEF   12975--REDEF
QI_TYPE_DISPLAY_TARGET.CIP.T
     13110**DCL     13181--REDEF
QI_TYPE_DISPLAY_TARGET.CIP.T.CD
     13155**DCL     13158--REDEF   13162--REDEF   13165--REDEF
QI_TYPE_DISPLAY_TARGET.DATA
PL6.E3A0      #002=QCA$ALL_LITERAL_IFS File=QCA$ALL_LITERALS.:E05TSI             WED 07/30/97 05:04 Page:96
     13350**DCL     13354--REDEF
QI_TYPE_DISPLAY_TARGET.DEC
     13418**DCL     13422--REDEF   13423--REDEF   13427--REDEF
QI_TYPE_DISPLAY_TARGET.LEN
     13390**DCL     13394--REDEF   13395--REDEF   13399--REDEF   13400--REDEF   13404--REDEF
QI_TYPE_DISPLAY_TARGET.PICTURE_STRING
     13460**DCL     13463--REDEF   13464--REDEF   13467--REDEF   13468--REDEF   13471--REDEF
QI_TYPE_DISPLAY_TARGET.ROUND
     13493**DCL     13494--REDEF   13495--REDEF
QI_TYPE_DISPLAY_TARGET.SIZE_ERROR
     13479**DCL     13480--REDEF
QI_TYPE_DISPLAY_TARGET.SRCH_VRFY_ELEMS
     13429**DCL     13432--REDEF
THE_ALL_LITERALS_TABLE_INDEX
     16883**DCL     16912<<ASSIGN  16918<<ASSIGN  16925>>IF      16934>>ASSIGN  16934>>ASSIGN  16949>>IF
     16952>>ASSIGN  16957>>ASSIGN  16962>>ASSIGN  16965>>ASSIGN
THE_OTHER_THINGS_TABLE_INDEX
     16884**DCL     16913<<ASSIGN  16917<<ASSIGN  16946>>DOWHILE 16949>>IF      16952>>ASSIGN  16955>>ASSIGN
     16957>>ASSIGN  16962>>ASSIGN  16962>>ASSIGN  16965>>ASSIGN
