VERSION E05

PL6.E3A0      #001=QCE$ERRORS File=QCE$ERROR.:E05TSI                             WED 07/30/97 05:05 Page:1
        1        1        /*M* QCE$ERRORS:  Report an error.  */
        2        2        /*T***********************************************************/
        3        3        /*T*                                                         */
        4        4        /*T* Copyright (c) Bull HN Information Systems Inc., 1997    */
        5        5        /*T*                                                         */
        6        6        /*T***********************************************************/
        7        7        /*X* DMC,PLM=4,IND=0,DCI=4,CSI=2,IAD=2,DTI=2,AND,ECI=0,DIN=2,STI=2 */
        8        8
        9        9        /*P*  NAME:         QCE$ERRORS
       10       10              PURPOSE:      To report some sort of error.
       11       11              DESCRIPTION:  One of the entry points of this routine, corresponding
       12       12                            to the basic "type" of error detected, is called.  The
       13       13                            appropriate type of error is produced.
       14       14        */
       15       15
       16       16        QCE$ERRORS: PROC ( ERROR_CODE, U1, U2, U3, ERROR_MESSAGE );
       17       17
       18       18          %INCLUDE LCP_6;
       19      209          %FPT_ERRMSG ( FPTN = FPT@ERRMSG,
       20      210                        STCLASS = AUTO );
       21      238          %VLR_ERRMSG ( FPTN = VLR@ERRMSG,
       22      239                        STCLASS = AUTO );
       23      256          %FPT_OPEN ( FPTN = FPT@OPEN,
       24      257                      STCLASS = AUTO );
       25      285          %FPT_WRITE ( FPTN = FPT@WRITE,
       26      286                       STCLASS = AUTO );
       27      310          %VLP_CG ( FPTN = VLP@CG,
       28      311                    STCLASS = AUTO );
       29      331          %VLP_ERRCODE ( FPTN = G$ERR,
       30      332                         STCLASS = BASED );
       31      378          %G$EXCFR;
       32      760          %G$TCB;
       33      781    1     DCL G$TCB$ PTR SYMREF;
       34      782
       35      783          %INCLUDE QG_MACRO_M;
       36      920          %INCLUDE QI_EQUATES_E;
       37     1279          %INCLUDE QI_PERR_C;
PL6.E3A0      #001=QCE$ERRORS File=QCE$ERROR.:E05TSI                             WED 07/30/97 05:05 Page:2
       38     1447          %INCLUDE QI_MACROS_M;
       39     6505          %INCLUDE Q_MACRO_C;
       40     6851          %QI$ALL;
       41    17964          %QI_FPTS;
       42    20009
       43    20010    1     DCL ERROR_CODE UBIN PARAM;
       44    20011    1     DCL 1 U1 PARAM ALIGNED,
       45    20012    1           2 L UBIN BYTE CALIGNED,
       46    20013    1           2 NAME CHAR(U1.L) CALIGNED;
       47    20014    1     DCL 1 U2 PARAM ALIGNED,
       48    20015    1           2 L UBIN BYTE CALIGNED,
       49    20016    1           2 NAME CHAR(U2.L) CALIGNED;
       50    20017    1     DCL 1 U3 PARAM ALIGNED,
       51    20018    1           2 L UBIN BYTE CALIGNED,
       52    20019    1           2 NAME CHAR(U3.L) CALIGNED;
       53    20020    1     DCL ERROR_MESSAGE CHAR(80) PARAM ALIGNED;
       54    20021
       55    20022          %VLP_TEXTC ( FPTN = COLON_QQERRMSG,
       56    20023                       TEXT = ':QQERRMSG' );
       57    20052    1     DCL FILE_IDENTIFIER$ PTR;
       58    20053    1     DCL FRAME_IDENTIFIER$ PTR;
       59    20054    1     DCL HEX_TABLE CHAR(16) CONSTANT INIT('0123456789ABCDEF');
       60    20055    1     DCL INSTRUCTION_OFFSET UBIN;
       61    20056    1     DCL INSTRUCTION_OFFSET_DIGITS(0:3) REDEF INSTRUCTION_OFFSET
       62    20057    1         UBIN(4) UNAL;
       63    20058    1     DCL PROGRAM_COUNTER PTR;
       64    20059    1     DCL PROGRAM_COUNTER_DIGITS(0:7) REDEF PROGRAM_COUNTER
       65    20060    1         UBIN(4) UNAL;
       66    20061    1     DCL DIGIT_INDEX UBIN;
       67    20062
       68    20063          %SET LISTMAC = '1'B;
       69    20064          %Q_FPABT ( FPTN = Q_FPABT,
       70    20065                     STCLASS = CONSTANT,
       71    20066                     MSGCNT = 3 );
             20067         %LSET LISTDIR='0'B;
             20081    1   DCL 1 Q_FPABT CONSTANT,
             20082    1         2 FPABTTXT# CHAR(6) INIT('*FPABT'),
PL6.E3A0      #001=QCE$ERRORS File=QCE$ERROR.:E05TSI                             WED 07/30/97 05:05 Page:3
             20088    1         2 LANG# CHAR(1) CALIGNED INIT(' '),
             20091    1         2 MSGCNT# UBIN BYTE UNAL INIT(3),
             20095    1         2 MSGS(0:2) CALIGNED,
             20115    1   3 ERR CALIGNED,
             20129    1   4 FCG  BIT(10)/*('0'B)*/,
             20142    1   4 MID  BIT(5)/*('0'B)*/,4 MON  BIT(1)/*('0'B)*/,4 ERR#
             20143    1   UBIN(13)/*(0)*/ UNAL,4 SEV  UBIN(3)/*(0)*/ UNAL ,
             20145    1           3 U1 CALIGNED,
             20146    1             4 LEN# UBIN BYTE UNAL,
             20147    1             4 NAME# CHAR(31) CALIGNED,
             20148    1           3 U2 CALIGNED,
             20149    1             4 LEN# UBIN BYTE UNAL,
             20150    1             4 NAME# CHAR(31) CALIGNED,
             20151    1           3 U3 CALIGNED,
             20152    1             4 LEN# UBIN BYTE UNAL,
             20153    1             4 NAME# CHAR(31) CALIGNED;
       72    20155          %SET LISTMAC = '0'B;
       73    20156          %Q_FPABT ( FPTN = Q@FPABT,
       74    20157                     STCLASS = AUTO,
       75    20158                     MSGCNT = 3 );
       76    20247
       77    20248          %VLP_ERRCODE ( FPTN = VLP_ERRCODE_QB,
       78    20249                         FCG = 'QB',
       79    20250                         STCLASS = CONSTANT );
       80    20296          %VLP_ERRCODE ( FPTN = VLP_ERRCODE_QBA,
       81    20297                         FCG = 'QB',
       82    20298                         MID = 'A',
       83    20299                         STCLASS = CONSTANT );
       84    20345          %VLP_ERRCODE ( FPTN = VLP_ERRCODE_QBC,
       85    20346                         FCG = 'QB',
       86    20347                         MID = 'C',
       87    20348                         STCLASS = CONSTANT );
       88    20394          %VLP_ERRCODE ( FPTN = VLP_ERRCODE_QBL,
       89    20395                         FCG = 'QB',
       90    20396                         MID = 'L',
       91    20397                         STCLASS = CONSTANT );
       92    20443          %VLP_ERRCODE ( FPTN = VLP_ERRCODE_QBM,
PL6.E3A0      #001=QCE$ERRORS File=QCE$ERROR.:E05TSI                             WED 07/30/97 05:05 Page:4
       93    20444                         FCG = 'QB',
       94    20445                         MID = 'M',
       95    20446                         STCLASS = CONSTANT );
       96    20492          %VLP_ERRCODE ( FPTN = VLP_ERRCODE_QBO,
       97    20493                         FCG = 'QB',
       98    20494                         MID = 'O',
       99    20495                         STCLASS = CONSTANT );
      100    20541          %VLP_ERRCODE ( FPTN = VLP_ERRCODE_QBR,
      101    20542                         FCG = 'QB',
      102    20543                         MID = 'R',
      103    20544                         STCLASS = CONSTANT );
      104    20590          %VLP_ERRCODE ( FPTN = VLP_ERRCODE_QBS,
      105    20591                         FCG = 'QB',
      106    20592                         MID = 'S',
      107    20593                         STCLASS = CONSTANT );
      108    20639          %VLP_ERRCODE ( FPTN = VLP_ERRCODE_QBV,
      109    20640                         FCG = 'QB',
      110    20641                         MID = 'V',
      111    20642                         STCLASS = CONSTANT );
      112    20688          %VLP_ERRCODE ( FPTN = VLP_ERRCODE_QBW,
      113    20689                         FCG = 'QB',
      114    20690                         MID = 'W',
      115    20691                         STCLASS = CONSTANT );
      116    20737          %VLP_ERRCODE ( FPTN = VLP_ERRCODE_QCI,
      117    20738                         FCG = 'QC',
      118    20739                         MID = 'I',
      119    20740                         STCLASS = CONSTANT );
      120    20786          %VLP_ERRCODE ( FPTN = VLP_ERRCODE_QCR,
      121    20787                         FCG = 'QC',
      122    20788                         MID = 'R',
      123    20789                         STCLASS = CONSTANT );
      124    20835          %VLP_ERRCODE ( FPTN = VLP_ERRCODE_QI,
      125    20836                         FCG = 'QI',
      126    20837                         STCLASS = CONSTANT );
      127    20883          %VLP_ERRCODE ( FPTN = VLP_ERRCODE_QIO,
      128    20884                         FCG = 'QI',
      129    20885                         MID = 'O',
PL6.E3A0      #001=QCE$ERRORS File=QCE$ERROR.:E05TSI                             WED 07/30/97 05:05 Page:5
      130    20886                         STCLASS = CONSTANT );
      131    20932
      132    20933    1     DCL USER_ERROR CHAR(80) STATIC
      133    20934    1       INIT('Forms Program Abort:  Error #xxx');
      134    20935    1     DCL INTERNAL_ERROR CHAR(80) STATIC
      135    20936    1       INIT('Internal Inconsistency:  Error #xxx');
      136    20937    1     DCL INTERNAL_M$ERROR CHAR(80) STATIC
      137    20938    1       INIT('Unexpected Altret:  Error #xxx');
      138    20939
      139    20940    1     DCL QCM$MESS ENTRY(1);
      140    20941    1     DCL QCM$MESS_PAUSE ENTRY(1);
      141    20942    1     DCL QCU$RESTORE_PAGEHALT ENTRY;
      142    20943
      143    20944          %SET LISTMAC = '1'B;
      144    20945
      145    20946          %INCLUDE QCM_MESS_M;
      146    20988          %QCM@MESS;
             20989            %BEGIN_MACRO;
             20990            %SET LISTDIR = '0'B;
             21003    1     DCL 1 QCM@MESS ALIGNED,
             21004    1           2 MESSAGE_LINE_GZ_HEADER$ PTR,
             21005                           /* Pointer to QI$GZ_HEADER for the
             21006                              MESSAGE LINE to use.  */
             21007    1           2 IS_MESSAGE_A_DAD BIT(1) ALIGNED,
             21008                           /* Set if MESSAGE$ points to a DAD,
             21009                              reset if MESSAGE$ points to text
             21010                              (in which case MESSAGE_LENGTH is valid).  */
             21011    1           2 MESSAGE_LENGTH UBIN,
             21012                           /* Length, in bytes, of the error message.  */
             21013    1           2 MESSAGE$ PTR,
             21014                           /* See IS_MESSAGE_A_DAD.  */
             21015    1           2 FRAME_INDEX UBIN,
             21016                           /* Index of the current frame.  */
             21017    1           2 FIELD_INDEX UBIN,
             21018                           /* Index of the field to re-get (if any).  */
             21019    1           2 STATUS UBIN,
             21020                           /* Returned status code:  0 -> Immediate return to level 0;
PL6.E3A0      #001=QCE$ERRORS File=QCE$ERROR.:E05TSI                             WED 07/30/97 05:05 Page:6
             21021                                                    >0 -> Status is ok.  */
             21022    1           2 FIELD_ERROR_STOP_INDEX UBIN,
             21023                           /* Passed index for QCG$GET_FIELD processing.  */
             21024    1           2 VISUAL_ATTRIBUTE UBIN;
             21025                           /* Matches %EQUs for QI#xxx_VISUAL_ATTR
             21026                              (currently, blinking or non-blinking message line).  */
             21033            %ENDIF;
      147    21036
      148    21037          %SET LISTMAC = '0'B;
      149    21038
      150    21039    1     DCL ERROR_MESSAGE_SAVE CHAR(80) ALIGNED;
      151    21040    1     DCL U_INDEX UBIN;
      152    21041        %EJECT;
PL6.E3A0      #001=QCE$ERRORS File=QCE$ERROR.:E05TSI                             WED 07/30/97 05:05 Page:7
      153    21042    1   QCE$ERROR_MESSAGE: ENTRY ( ERROR_CODE, U1, U2, U3, ERROR_MESSAGE );
      154    21043
      155    21044        /*D*  NAME:         QCE$ERROR_MESSAGE
      156    21045              CALL:         CALL QCE$ERROR_MESSAGE ( ERROR_CODE,
      157    21046                              U1, U2, U3, ERROR_MESSAGE );
      158    21047              PARAMETERS:   ERROR_CODE contains an E$xxx for the Qxx FCG.
      159    21048              INTERFACE:    This entry point is used for callers who wish to
      160    21049                            acquire an error message from the host.
      161    21050              ENVIRONMENT:  End-user error.
      162    21051              INPUT:        QI_1[.ERROR_STATUS], etc.
      163    21052              OUTPUT:       Error messages down from the host.
      164    21053              SCRATCH:      Various otter data.
      165    21054              DESCRIPTION:  Call M$ERRMSG.
      166    21055                            The FCG will be either QBV (verify) or
      167    21056                            QCR (postread validation).
      168    21057        */
      169    21058
      170    21059    1       FPT@ERRMSG = QI_FPT_ERRMSG;
      171    21060    1       VBASE ( FPT@ERRMSG.V_ ) = ADDR ( FPT@ERRMSG.V );
      172    21061
      173    21062    2       DO CASE ( ERROR_CODE );
      174    21063
      175    21064    2         CASE ( %E$ILLEGAL_VALUE );
      176    21065    2           Q@FPABT.MSGS.ERR (0) = VLP_ERRCODE_QBV;
      177    21066
      178    21067    2         CASE ( ELSE );
      179    21068    2           Q@FPABT.MSGS.ERR (0) = VLP_ERRCODE_QCR;
      180    21069
      181    21070    2       END;
      182    21071
      183    21072    1       Q@FPABT.MSGS.ERR.ERR# (0) = ERROR_CODE;
      184    21073    1       FPT@ERRMSG.CODE_ = VECTOR ( Q@FPABT.MSGS.ERR (0) );
      185    21074
      186    21075    1       ERROR_MESSAGE = ' ';
      187    21076    1       FPT@ERRMSG.BUF_ = VECTOR ( ERROR_MESSAGE );
      188    21077    1       FPT@ERRMSG.FILENAME_ = VECTOR ( COLON_QQERRMSG );
      189    21078    1       IF ADDR ( U1 ) ~= ADDR ( NIL )
PL6.E3A0      #001=QCE$ERRORS File=QCE$ERROR.:E05TSI                             WED 07/30/97 05:05 Page:8
      190    21079    1       THEN
      191    21080    1         FPT@ERRMSG.FIELD1_ = VECTOR ( U1 );
      192    21081    1       IF ADDR ( U2 ) ~= ADDR ( NIL )
      193    21082    1       THEN
      194    21083    1         FPT@ERRMSG.FIELD2_ = VECTOR ( U2 );
      195    21084    1       IF ADDR ( U3 ) ~= ADDR ( NIL )
      196    21085    1       THEN
      197    21086    1         FPT@ERRMSG.FIELD3_ = VECTOR ( U3 );
      198    21087
      199    21088    1       FPT@ERRMSG.RESULTS_ = VECTOR ( VLR@ERRMSG );
      200    21089
      201    21090    1       CALL M$ERRMSG ( FPT@ERRMSG )
      202    21091    1         ALTRET ( IGNORE_ALTRET_TEMPORARILY );
      203    21092    1   IGNORE_ALTRET_TEMPORARILY:
      204    21093
      205    21094    1       IF VLR@ERRMSG.NOFILE
      206    21095    1         OR VLR@ERRMSG.NOMSG
      207    21096    1         OR VLR@ERRMSG.INERR
      208    21097    1       THEN
      209    21098    1   NO_MESSAGE_AVAILABLE:
      210    21099    2         DO;
      211    21100    2           ERROR_MESSAGE =
      212    21101    2             '****No message available:  please report this in STARLOG.';
      213    21102    2         END NO_MESSAGE_AVAILABLE;
      214    21103
      215    21104    1       IF ADDR ( U1 ) ~= ADDR ( NIL )
      216    21105    1       THEN
      217    21106    2         DO;
      218    21107    2           ERROR_MESSAGE_SAVE = ERROR_MESSAGE;
      219    21108    2           CALL INDEX ( U_INDEX, '%U1', ERROR_MESSAGE_SAVE )
      220    21109    2           WHENALTRETURN
      221    21110    3             DO;
      222    21111    3               RETURN;
      223    21112    3             END;
      224    21113    2           SUBSTR ( ERROR_MESSAGE, U_INDEX ) = U1.NAME;
      225    21114    2           SUBSTR ( ERROR_MESSAGE, U_INDEX + U1.L ) =
      226    21115    2             SUBSTR ( ERROR_MESSAGE_SAVE, U_INDEX + 3 );
PL6.E3A0      #001=QCE$ERRORS File=QCE$ERROR.:E05TSI                             WED 07/30/97 05:05 Page:9
      227    21116    2         END;
      228    21117    1       RETURN;
      229    21118
      230    21119        %EJECT;
PL6.E3A0      #001=QCE$ERRORS File=QCE$ERROR.:E05TSI                             WED 07/30/97 05:05 Page:10
      231    21120    1   QCE$ERROR: ENTRY ( ERROR_CODE, U1, U2, U3 );
      232    21121
      233    21122        /*D*  NAME:         QCE$ERROR
      234    21123              CALL:         CALL QCE$ERROR ( ERROR_CODE );
      235    21124              PARAMETERS:   ERROR_CODE contains an E$xxx for the Qxx FCG.
      236    21125              INTERFACE:    This entry point is used for aborting after detecting
      237    21126                            a user-caused error, e.g., overlapping field,
      238    21127                            form already open, etc.
      239    21128              ENVIRONMENT:  Ready to abandon ship.
      240    21129              INPUT:        QI_1[.ERROR_STATUS], etc.
      241    21130              OUTPUT:       Error messages up to the host.
      242    21131              SCRATCH:      Various otter data.
      243    21132              DESCRIPTION:  Abort appropriately.
      244    21133        */
      245    21134
      246    21135    1       Q@FPABT = Q_FPABT;
      247    21136    1       Q@FPABT.MSGCNT# = 2;
      248    21137
      249    21138    1       CALL FORMAT_ABORT_MESSAGE;
      250    21139
      251    21140    1       Q@FPABT.MSGS.U1.LEN# (1) = 0;
      252    21141    1       Q@FPABT.MSGS.U2.LEN# (1) = 0;
      253    21142    1       Q@FPABT.MSGS.U3.LEN# (1) = 0;
      254    21143
      255    21144            /*  OK, first, this was thrown together in about 1 evening.
      256    21145                Second, we're on our way out, so who cares how slow it is.
      257    21146                Third, I sure hope somebody throws that USE stuff out
      258    21147                soon.
      259    21148                The problem's that we might have gotten here from QCU$USE,
      260    21149                so we don't know what the "FCG of origin" was.
      261    21150                It just so happens, however, that in order to have come
      262    21151                from QCU$USE, we must have an error whose U1 is either
      263    21152                in QI_1.CURRENT.FILE$ or QI_1.CURRENT.FRAME$.
      264    21153                Sooo, we can just "devine" the FCG by vectoring off the
      265    21154                error code.  */
      266    21155    1       IF QI_1.CURRENT.FILE$ ~= ADDR (NIL)
      267    21156    1       THEN
PL6.E3A0      #001=QCE$ERRORS File=QCE$ERROR.:E05TSI                             WED 07/30/97 05:05 Page:11
      268    21157              %PROC_ADDRESS ( THING@P = "QI_1.CURRENT.FILE$ -> QI$FILE.IDENTIFIER@P",
      269    21158                CHECK_FOR_INDIRECTION = NO,
      270    21159                RESULT$ = FILE_IDENTIFIER$ );
      271    21196    1       ELSE
      272    21197    1         FILE_IDENTIFIER$ = ADDR (NIL);
      273    21198
      274    21199    1       IF QI_1.CURRENT.FRAME$ ~= ADDR (NIL)
      275    21200    1       THEN
      276    21201              %PROC_ADDRESS ( THING@P = "QI_1.CURRENT.FRAME$ -> QI$FRAME.IDENTIFIER@P",
      277    21202                CHECK_FOR_INDIRECTION = NO,
      278    21203                RESULT$ = FRAME_IDENTIFIER$ );
      279    21240    1       ELSE
      280    21241    1         FRAME_IDENTIFIER$ = ADDR (NIL);
      281    21242
      282    21243    2       DO CASE ( ERROR_CODE );
      283    21244
      284    21245    2         CASE ( %E$TPAP_ABORT );
      285    21246    2           Q@FPABT.MSGS.ERR (1) = VLP_ERRCODE_QB;
      286    21247
      287    21248    2         CASE ( %E$FILE_NOT_OPEN,
      288    21249    2             %E$FILE_NOT_OPEN_INPUT,
      289    21250    2             %E$FILE_NOT_OPEN_OUTPUT,
      290    21251    2             %E$TRANSACTION_TYPE_ILLEGAL,
      291    21252    2             %E$TRANSACTION_LOST_DATA );
      292    21253    2           Q@FPABT.MSGS.ERR (1) = VLP_ERRCODE_QB;
      293    21254    2           Q@FPABT.MSGS.U1 (1) = FILE_IDENTIFIER$ -> QI$VARIABLE_IDENTIFIER;
      294    21255
      295    21256    2         CASE ( %E$FILE_ALREADY_CLOSED );
      296    21257    2           Q@FPABT.MSGS.ERR (1) = VLP_ERRCODE_QBC;
      297    21258    2           Q@FPABT.MSGS.U1 (1) = FILE_IDENTIFIER$ -> QI$VARIABLE_IDENTIFIER;
      298    21259
      299    21260    2         CASE ( %E$FILE_ALREADY_OPEN );
      300    21261    2           Q@FPABT.MSGS.ERR (1) = VLP_ERRCODE_QBO;
      301    21262    2           Q@FPABT.MSGS.U1 (1) = FILE_IDENTIFIER$ -> QI$VARIABLE_IDENTIFIER;
      302    21263
      303    21264    2         CASE ( %E$TRANSACTION_READ_ERROR );
      304    21265    2           Q@FPABT.MSGS.ERR (1) = VLP_ERRCODE_QBR;
PL6.E3A0      #001=QCE$ERRORS File=QCE$ERROR.:E05TSI                             WED 07/30/97 05:05 Page:12
      305    21266    2           Q@FPABT.MSGS.U1 (1) = FILE_IDENTIFIER$ -> QI$VARIABLE_IDENTIFIER;
      306    21267    2           Q@FPABT.MSGS.ERR (2) = G$TCB$ -> G$TCB.ALT$ -> G$EXCFR.TRLR.ERR;
      307    21268
      308    21269    2         CASE ( %E$TRANSACTION_TYPE_WILD,
      309    21270    2             %E$TRANSACTION_WRITE_ERROR,
      310    21271    2             %E$TRANSACTION_RRR_ERROR );
      311    21272    2           Q@FPABT.MSGS.ERR (1) = VLP_ERRCODE_QBW;
      312    21273    2           Q@FPABT.MSGS.U1 (1) = FILE_IDENTIFIER$ -> QI$VARIABLE_IDENTIFIER;
      313    21274    2           Q@FPABT.MSGS.ERR (2) = G$TCB$ -> G$TCB.ALT$ -> G$EXCFR.TRLR.ERR;
      314    21275
      315    21276    2         CASE ( %E$FORM_READ_ERROR,
      316    21277    2             %E$FORM_WRITE_ERROR );
      317    21278    2           Q@FPABT.MSGS.ERR (1) = VLP_ERRCODE_QCI;
      318    21279    2           Q@FPABT.MSGS.U1 (1) = FILE_IDENTIFIER$ -> QI$VARIABLE_IDENTIFIER;
      319    21280                /* In the case of a form read error, the error code was returned
      320    21281                   to us in a RDMULT buffer (not the TCB).  Since both read form
      321    21282                   and write form go through the QGB layer, it's safe to get the
      322    21283                   error code from the QGB_PARAM structure here. */
      323    21284    2           Q@FPABT.MSGS.ERR (2) = QGB_PARAM.ERR;
      324    21285
      325    21286    2         CASE ( %E$FRAME_NOT_ACTIVE );
      326    21287    2           Q@FPABT.MSGS.ERR (1) = VLP_ERRCODE_QB;
      327    21288    2           Q@FPABT.MSGS.U1 (1) = FRAME_IDENTIFIER$ -> QI$VARIABLE_IDENTIFIER;
      328    21289
      329    21290    2         CASE ( %E$FRAME_ALREADY_ACTIVATED,
      330    21291    2             %E$FRAME_ALREADY_DEACTIVATED );
      331    21292    2           Q@FPABT.MSGS.ERR (1) = VLP_ERRCODE_QBA;
      332    21293    2           Q@FPABT.MSGS.U1 (1) = FRAME_IDENTIFIER$ -> QI$VARIABLE_IDENTIFIER;
      333    21294
      334    21295    2         CASE ( %E$VERIFY_GET_FIELD_DISABLED,
      335    21296    2             %E$VERIFY_ILLEGAL_DEFAULT );
      336    21297    2           Q@FPABT.MSGS.ERR (1) = VLP_ERRCODE_QBV;
      337    21298    2           Q@FPABT.MSGS.U1 (1) = U1;
      338    21299
      339    21300    2         CASE ( %E$POSTREAD_ILLEGAL_DEFAULT );
      340    21301    2           Q@FPABT.MSGS.ERR (1) = VLP_ERRCODE_QCR;
      341    21302    2           Q@FPABT.MSGS.U1 (1) = U1;
PL6.E3A0      #001=QCE$ERRORS File=QCE$ERROR.:E05TSI                             WED 07/30/97 05:05 Page:13
      342    21303
      343    21304    2         CASE ( %E$BINARY_OVERFLOW,
      344    21305    2             %E$COMMERCIAL_ILLEGAL_CHARACTER,
      345    21306    2             %E$COMMERCIAL_DIVIDE_BY_ZERO,
      346    21307    2             %E$INCOMPATIBLE_VERSION,
      347    21308    2             %E$INSUFFICIENT_MEMORY );
      348    21309    2           Q@FPABT.MSGS.ERR (1) = VLP_ERRCODE_QI;
      349    21310
      350    21311    2         CASE ( %E$SUBSCRIPT_OUT_OF_SIGHT );
      351    21312    2           Q@FPABT.MSGS.ERR (1) = VLP_ERRCODE_QBS;
      352    21313
      353    21314    2         CASE ( %E$SUBSCRIPT_OUT_OF_RANGE );
      354    21315    2           Q@FPABT.MSGS.ERR (1) = VLP_ERRCODE_QBS;
      355    21316    2           Q@FPABT.MSGS.U1 (1) = U1;
      356    21317    2           Q@FPABT.MSGS.U2 (1) = U2;
      357    21318
      358    21319    2         CASE ( %E$LOAD_ILLEGAL_FID );
      359    21320    2           Q@FPABT.MSGS.ERR (1) = VLP_ERRCODE_QBL;
      360    21321    2           Q@FPABT.MSGS.U1 (1) = U1;
      361    21322
      362    21323    2         CASE ( %E$LOAD_ERROR );
      363    21324    2           Q@FPABT.MSGCNT# = 3;
      364    21325    2           Q@FPABT.MSGS.ERR (1) = VLP_ERRCODE_QBL;
      365    21326    2           Q@FPABT.MSGS.U1 (1) = U1;
      366    21327    2           Q@FPABT.MSGS.ERR (2) = ADDR ( U2 ) -> G$ERR;
      367    21328
      368    21329    2         CASE ( %E$ABORT_EXECUTED );
      369    21330    2           Q@FPABT.MSGS.ERR (1) = VLP_ERRCODE_QBA;
      370    21331
      371    21332    2         CASE ( %E$DE_EDIT_ILLEGAL_SOURCE );
      372    21333    2           Q@FPABT.MSGS.ERR (1) = VLP_ERRCODE_QBM;
      373    21334
      374    21335    2         CASE ( %E$CALL_UNSATISFIED_REFERENCE );
      375    21336    2           Q@FPABT.MSGS.ERR (1) = VLP_ERRCODE_QBC;
      376    21337
      377    21338    2         CASE ( %E$FIELD_OVERLAPS );
      378    21339    2           Q@FPABT.MSGS.ERR (1) = VLP_ERRCODE_QBA;
PL6.E3A0      #001=QCE$ERRORS File=QCE$ERROR.:E05TSI                             WED 07/30/97 05:05 Page:14
      379    21340    2           Q@FPABT.MSGS.U1 (1) = U1;
      380    21341    2           Q@FPABT.MSGS.U2 (1) = U2;
      381    21342
      382    21343    2         CASE ( %E$FIELD_SPACE_CADET );
      383    21344    2           Q@FPABT.MSGS.ERR (1) = VLP_ERRCODE_QBA;
      384    21345    2           Q@FPABT.MSGS.U1 (1) = U1;
      385    21346
      386    21347    2       END;
      387    21348
      388    21349    1       CALL BINCHAR ( SUBSTR ( USER_ERROR, 29, 3 ),
      389    21350    1         ERROR_CODE );
      390    21351    1       QCM@MESS.MESSAGE$ = ADDR ( USER_ERROR );
      391    21352    1       QCM@MESS.MESSAGE_LENGTH = LENGTHC ( USER_ERROR );
      392    21353    1       Q@FPABT.MSGS.ERR.ERR# (1) = ERROR_CODE;
      393    21354
      394    21355    1       GOTO SPIT_UP;
      395    21356
      396    21357    1   QCE$ERROR_INTERNAL: ENTRY ( ERROR_CODE, U1, U2, U3 );
      397    21358
      398    21359        /*D*  NAME:         QCE$ERROR_INTERNAL
      399    21360              CALL:         CALL QCE$ERROR_INTERNAL ( ERROR_CODE );
      400    21361              PARAMETERS:   ERROR_CODE contains an E$xxx for the Qxx FCG.
      401    21362              INTERFACE:    This entry point is used for aborting after detecting
      402    21363                            an internal inconsistency at any level.
      403    21364              ENVIRONMENT:  Ready to abandon ship.
      404    21365              INPUT:        QI_1[.ERROR_STATUS], etc.
      405    21366              OUTPUT:       Error messages up to the host.
      406    21367              SCRATCH:      Various otter data.
      407    21368              DESCRIPTION:  Abort appropriately.
      408    21369        */
      409    21370    1       Q@FPABT = Q_FPABT;
      410    21371    1       Q@FPABT.MSGCNT# = 2;
      411    21372
      412    21373    1       CALL FORMAT_ABORT_MESSAGE;
      413    21374
      414    21375    1       Q@FPABT.MSGS.U1.LEN# (1) = 0;
      415    21376    1       Q@FPABT.MSGS.U2.LEN# (1) = 0;
PL6.E3A0      #001=QCE$ERRORS File=QCE$ERROR.:E05TSI                             WED 07/30/97 05:05 Page:15
      416    21377    1       Q@FPABT.MSGS.U3.LEN# (1) = 0;
      417    21378
      418    21379    1       Q@FPABT.MSGS.ERR (1) = VLP_ERRCODE_QI;
      419    21380    1       Q@FPABT.MSGS.ERR.ERR# (1) = ERROR_CODE;
      420    21381
      421    21382    1       CALL BINCHAR ( SUBSTR ( INTERNAL_ERROR, 32, 3 ),
      422    21383    1         ERROR_CODE );
      423    21384    1       QCM@MESS.MESSAGE$ = ADDR ( INTERNAL_ERROR );
      424    21385    1       GOTO SPIT_UP;
      425    21386
      426    21387    1   QCE$ERROR_M$INTERNAL: ENTRY ( ERROR_CODE, U1, U2, U3 );
      427    21388
      428    21389        /*D*  NAME:         QCE$ERROR_M$INTERNAL
      429    21390              CALL:         CALL QCE$ERROR_M$INTERNAL ( ERROR_CODE );
      430    21391              PARAMETERS:   ERROR_CODE contains an E$xxx for the Qxx FCG.
      431    21392              INTERFACE:    This entry point is used for aborting after receiving
      432    21393                            an unexpected M$whatever ALTRET.
      433    21394              ENVIRONMENT:  Ready to abandon ship.
      434    21395              INPUT:        QI_1[.ERROR_STATUS], etc.
      435    21396              OUTPUT:       Error messages up to the host.
      436    21397              SCRATCH:      Various otter data.
      437    21398              DESCRIPTION:  Abort appropriately.
      438    21399                            Somehow it's been determined that the error received
      439    21400                            from M$whatever was an internal goof, e.g.,
      440    21401                            bad DCB# in FPT, etc.
      441    21402        */
      442    21403
      443    21404    1       Q@FPABT = Q_FPABT;
      444    21405    1       Q@FPABT.MSGCNT# = 3;
      445    21406
      446    21407    1       CALL FORMAT_ABORT_MESSAGE;
      447    21408
      448    21409    1       Q@FPABT.MSGS.U1.LEN# (1) = 8;
      449    21410    1       Q@FPABT.MSGS.U2.LEN# (1) = 0;
      450    21411    1       Q@FPABT.MSGS.U3.LEN# (1) = 0;
      451    21412
      452    21413    1       Q@FPABT.MSGS.ERR (1) = VLP_ERRCODE_QI;
PL6.E3A0      #001=QCE$ERRORS File=QCE$ERROR.:E05TSI                             WED 07/30/97 05:05 Page:16
      453    21414
      454    21415    1       Q@FPABT.MSGS.U1.LEN# (2) = 0;
      455    21416    1       Q@FPABT.MSGS.U2.LEN# (2) = 0;
      456    21417    1       Q@FPABT.MSGS.U3.LEN# (2) = 0;
      457    21418
      458    21419    2       DO CASE ( ERROR_CODE );
      459    21420
      460    21421    2         CASE ( %E$INTERPRETER_TRAP );
      461    21422    2           Q@FPABT.MSGS.ERR.ERR# (1) = %E$INTERPRETER_TRAP;
      462    21423    2           Q@FPABT.MSGS.ERR (2) = G$TCB$ -> G$TCB.STK$ -> G$EXCFR.TRLR.ERR;
      463    21424    2           PROGRAM_COUNTER = G$TCB$ -> G$TCB.STK$ -> G$EXCFR.P$;
      464    21425
      465    21426    2         CASE ( ELSE );
      466    21427    2           Q@FPABT.MSGS.ERR.ERR# (1) = %E$UNEXPECTED_ALTRET;
      467    21428    2           Q@FPABT.MSGS.ERR (2) = G$TCB$ -> G$TCB.ALT$ -> G$EXCFR.TRLR.ERR;
      468    21429    2           PROGRAM_COUNTER = G$TCB$ -> G$TCB.ALT$ -> G$EXCFR.P$;
      469    21430
      470    21431    2       END;
      471    21432
      472    21433    2       DO DIGIT_INDEX = 0 TO 7;
      473    21434    2         SUBSTR ( Q@FPABT.MSGS.U1.NAME# (1), DIGIT_INDEX, 1 ) =
      474    21435    2           SUBSTR ( HEX_TABLE, PROGRAM_COUNTER_DIGITS ( DIGIT_INDEX ), 1 );
      475    21436    2       END;
      476    21437
      477    21438    1       CALL BINCHAR ( SUBSTR ( INTERNAL_M$ERROR, 27, 3 ),
      478    21439    1         ERROR_CODE );
      479    21440    1       QCM@MESS.MESSAGE$ = ADDR ( INTERNAL_M$ERROR );
      480    21441    1       QCM@MESS.MESSAGE_LENGTH = LENGTHC ( INTERNAL_M$ERROR );
      481    21442
      482    21443    1   SPIT_UP:
      483    21444            /*  The following spits the error out on the message line
      484    21445                before sending it up to the host.  It may be used in
      485    21446                debugging, etc., and should only be turned on for good
      486    21447                in the extreme emergency that all this error message
      487    21448                stuff falls apart.  */
      488    21449    1       IF QI_1.ERROR_STATUS ~= QI_1.ERROR_STATUS
      489    21450    1       THEN
PL6.E3A0      #001=QCE$ERRORS File=QCE$ERROR.:E05TSI                             WED 07/30/97 05:05 Page:17
      490    21451    1   MESSAGE_LINE_IT:
      491    21452    2         DO;
      492    21453    2           QCM@MESS.MESSAGE_LINE_GZ_HEADER$ = QI_1.MESSAGE_LINE_GZ.HEADER$;
      493    21454    2           QCM@MESS.IS_MESSAGE_A_DAD = %NO;
      494    21455
      495    21456    2           CALL QCM$MESS ( QCM@MESS );
      496    21457
      497    21458    2           CALL QCM$MESS_PAUSE ( QCM@MESS );
      498    21459    2         END MESSAGE_LINE_IT;
      499    21460
      500    21461    1       CALL QCU$RESTORE_PAGEHALT;
      501    21462
      502    21463    1       FPT@OPEN = QI_FPT_OPEN;
      503    21464    1       VBASE ( FPT@OPEN.V_ ) = ADDR ( FPT@OPEN.V );
      504    21465    1       FPT@OPEN.V.DCB# = QI_1.INITIALIZATION_BLOCK$ -> QI$INITIALIZATION_BLOCK.
             21465                VANILLA_HOST_DCB#;
      505    21466    1       FPT@OPEN.V.ORG = %G_ORG_CONSEC#;
      506    21467    1       FPT@OPEN.V.RES = 'HO';
      507    21468    1       FPT@OPEN.V.KEYTYPE = 3 /* MSGID */;
      508    21469
      509    21470    1       CALL M$OPEN ( FPT@OPEN );
      510    21471
      511    21472    1       FPT@WRITE = QI_FPT_WRITE;
      512    21473    1       VBASE ( FPT@WRITE.V_ ) = ADDR ( FPT@WRITE.V );
      513    21474    1       FPT@WRITE.V.DCB# = FPT@OPEN.V.DCB#;
      514    21475    1       FPT@WRITE.CG_ = VECTOR ( VLP@CG );
      515    21476    1       VLP@CG = QI_VLP_CG;
      516    21477    1       VLP@CG.MSGTYP# = '*FPABT';
      517    21478    1       FPT@WRITE.BUF_ = VECTOR ( Q@FPABT );
      518    21479
      519    21480    1       CALL M$WRITE ( FPT@WRITE );
      520    21481
      521    21482    1       CALL M$ERR;
      522    21483
      523    21484        %EJECT;
PL6.E3A0      #001=QCE$ERRORS File=QCE$ERROR.:E05TSI                             WED 07/30/97 05:05 Page:18
      524    21485    1   FORMAT_ABORT_MESSAGE: PROC;
      525    21486
      526    21487    2       Q@FPABT.MSGS.ERR (0) = VLP_ERRCODE_QIO;
      527    21488    2       Q@FPABT.MSGS.ERR.ERR# (0) = QI_1.OP_CODE;
      528    21489
      529    21490    2       Q@FPABT.MSGS.U1.LEN# (0) = 4;
      530    21491    2       Q@FPABT.MSGS.U2.LEN# (0) = 0;
      531    21492    2       Q@FPABT.MSGS.U3.LEN# (0) = 0;
      532    21493    2       INSTRUCTION_OFFSET = POFFW ( QI_1.CURR_INSTR$,
      533    21494    2         QI_1.BASE.PROC$ );
      534    21495    3       DO DIGIT_INDEX = 0 TO 3;
      535    21496    3         SUBSTR ( Q@FPABT.MSGS.U1.NAME# (0), DIGIT_INDEX, 1 ) =
      536    21497    3           SUBSTR ( HEX_TABLE, INSTRUCTION_OFFSET_DIGITS ( DIGIT_INDEX ), 1 );
      537    21498    3       END;
      538    21499
      539    21500    2       RETURN;
      540    21501
      541    21502    2   END FORMAT_ABORT_MESSAGE;
      542    21503    1   END QCE$ERRORS;
      543    21504        %EOD;

PL6.E3A0      #001=QCE$ERRORS File=QCE$ERROR.:E05TSI                             WED 07/30/97 05:05 Page:19
--  Include file information  --

   QCM_MESS_M.:E05TOU  is referenced.
   Q_MACRO_C.:E05TOU  is referenced.
   QI_MACROS_M.:E05TOU  is referenced.
   QI_PERR_C.:E05TOU  is referenced.
   QI_EQUATES_E.:E05TOU  is referenced.
   QG_MACRO_M.:E05TOU  is referenced.
   LCP_6.:E05TOU  cannot be made into a system file and is referenced.
   G_LCP6_E.:E05TOU  was found in the system file and is referenced.
   GT_LCP6_M.:E05TOU  was found in the system file and is referenced.
   KI_CP6.:E05TOU  was found in the system file and is referenced.
   GF_LCP6_M.:E05TOU  was found in the system file and is referenced.
   GM_LCP6_M.:E05TOU  was found in the system file and is referenced.
   GU_LCP6_M.:E05TOU  was found in the system file and is referenced.
   GJ_LCP6_M.:E05TOU  was found in the system file and is referenced.
   GH_LCP6_M.:E05TOU  was found in the system file and is referenced.
      No diagnostics issued in procedure QCE$ERRORS.

   Procedure QCE$ERRORS requires 1515 words for executable code.
   Procedure QCE$ERRORS requires 347 words of local(AUTO) storage.

PL6.E3A0      #001=QCE$ERRORS File=QCE$ERROR.:E05TSI                             WED 07/30/97 05:05 Page:20

 Object Unit name= QCE$ERRORS                                 File name= QCE$ERROR.:E05TOU
 UTS= JUL 30 '97 05:05:55.04 WED                              Compiler= PL-6/E31         Sev=      00
 SharedLib= :SHARED_LCP6_SYSTEM                               Alt SharedLib=


    ****  Control sections  ****

 Sect   Type Bound  Init  Size HexSiz  Section name
    0   Data  even  none   125     7D  QCE$ERRORS
    1  RoData even  UTS    225     E1  QCE$ERRORS
    2   Proc  even  none  1515    5EB  QCE$ERRORS
    3  RoData even  none     3      3  QCE$ERRORS

    ****  Entry defs  ****

                              Check   Calling
                             calling  sequence
  Sect HexLoc Primary Altret sequence   type   Parms  Name
     2      0   yes            yes      Std        5  QCE$ERRORS
     2      7                  yes      Std        5  QCE$ERROR_MESSAGE
     2    12B                  yes      Std        4  QCE$ERROR
     2    42F                  yes      Std        4  QCE$ERROR_INTERNAL
     2    46B                  yes      Std        4  QCE$ERROR_M$INTERNAL

  ****  Entry refs  ****

         Check        Calling
        calling       sequence
Altret sequence SRef   type   Args  Name
         yes           Std       1 QCM$MESS_PAUSE
         yes           Std       0 QCU$RESTORE_PAGEHALT
         yes           Std       1 QCM$MESS
                       nStd      0 X6A_AUTO_N
                       nStd      0 X6A_ARET
                       nStd      0 X6C_ALR
                       nStd      0 X6C_ALRZ
                       nStd      0 X6B_BLR
PL6.E3A0      #001=QCE$ERRORS File=QCE$ERROR.:E05TSI                             WED 07/30/97 05:05 Page:21

  ****  Data refs  ****

  Flags:  r = read only, s = secondary
Flgs Name                             Flgs Name                             Flgs Name
     G$TCB$                                QI_1                                  QGB_PARAM
     QI_4_CHAR_ALPHANUMERIC                QI_31_DIGIT_SLS_DISPLAY               QI_16_BIT_BINARY
     QI_32_BIT_BINARY                      QI_31_DIGIT_ST_PACKED                 QI_PICTURE_STRING
     QI_FPT_ERRMSG                         QI_FPT_OPEN                           QI_VLP_CG
     QI_FPT_WRITE                     r    G$ROS$
PL6.E3A0      #001=QCE$ERRORS File=QCE$ERROR.:E05TSI                             WED 07/30/97 05:05 Page:22


        1        1        /*M* QCE$ERRORS:  Report an error.  */
        2        2        /*T***********************************************************/
        3        3        /*T*                                                         */
        4        4        /*T* Copyright (c) Bull HN Information Systems Inc., 1997    */
        5        5        /*T*                                                         */
        6        6        /*T***********************************************************/
        7        7        /*X* DMC,PLM=4,IND=0,DCI=4,CSI=2,IAD=2,DTI=2,AND,ECI=0,DIN=2,STI=2 */
        8        8
        9        9        /*P*  NAME:         QCE$ERRORS
       10       10              PURPOSE:      To report some sort of error.
       11       11              DESCRIPTION:  One of the entry points of this routine, corresponding
       12       12                            to the basic "type" of error detected, is called.  The
       13       13                            appropriate type of error is produced.
       14       14        */
       15       15
       16       16        QCE$ERRORS: PROC ( ERROR_CODE, U1, U2, U3, ERROR_MESSAGE );

     16   2 000000  D380 0000 0000  xent QCE$ERRORS      LNJ,B5   X6A_AUTO_N
          2 000003       015B 0005                       DC       347,5
          2 000005  0F81 0006                            B        s:21059,PREL

       17       17
       18       18          %INCLUDE LCP_6;
       19      209          %FPT_ERRMSG ( FPTN = FPT@ERRMSG,
       20      210                        STCLASS = AUTO );
       21      238          %VLR_ERRMSG ( FPTN = VLR@ERRMSG,
       22      239                        STCLASS = AUTO );
       23      256          %FPT_OPEN ( FPTN = FPT@OPEN,
       24      257                      STCLASS = AUTO );
       25      285          %FPT_WRITE ( FPTN = FPT@WRITE,
       26      286                       STCLASS = AUTO );
       27      310          %VLP_CG ( FPTN = VLP@CG,
       28      311                    STCLASS = AUTO );
       29      331          %VLP_ERRCODE ( FPTN = G$ERR,
       30      332                         STCLASS = BASED );
       31      378          %G$EXCFR;
PL6.E3A0      #001=QCE$ERRORS File=QCE$ERROR.:E05TSI                             WED 07/30/97 05:05 Page:23
       32      760          %G$TCB;
       33      781    1     DCL G$TCB$ PTR SYMREF;
       34      782
       35      783          %INCLUDE QG_MACRO_M;
       36      920          %INCLUDE QI_EQUATES_E;
       37     1279          %INCLUDE QI_PERR_C;
       38     1447          %INCLUDE QI_MACROS_M;
       39     6505          %INCLUDE Q_MACRO_C;
       40     6851          %QI$ALL;
       41    17964          %QI_FPTS;
       42    20009
       43    20010    1     DCL ERROR_CODE UBIN PARAM;
       44    20011    1     DCL 1 U1 PARAM ALIGNED,
       45    20012    1           2 L UBIN BYTE CALIGNED,
       46    20013    1           2 NAME CHAR(U1.L) CALIGNED;
       47    20014    1     DCL 1 U2 PARAM ALIGNED,
       48    20015    1           2 L UBIN BYTE CALIGNED,
       49    20016    1           2 NAME CHAR(U2.L) CALIGNED;
       50    20017    1     DCL 1 U3 PARAM ALIGNED,
       51    20018    1           2 L UBIN BYTE CALIGNED,
       52    20019    1           2 NAME CHAR(U3.L) CALIGNED;
       53    20020    1     DCL ERROR_MESSAGE CHAR(80) PARAM ALIGNED;
       54    20021
       55    20022          %VLP_TEXTC ( FPTN = COLON_QQERRMSG,
       56    20023                       TEXT = ':QQERRMSG' );
       57    20052    1     DCL FILE_IDENTIFIER$ PTR;
       58    20053    1     DCL FRAME_IDENTIFIER$ PTR;
       59    20054    1     DCL HEX_TABLE CHAR(16) CONSTANT INIT('0123456789ABCDEF');
       60    20055    1     DCL INSTRUCTION_OFFSET UBIN;
       61    20056    1     DCL INSTRUCTION_OFFSET_DIGITS(0:3) REDEF INSTRUCTION_OFFSET
       62    20057    1         UBIN(4) UNAL;
       63    20058    1     DCL PROGRAM_COUNTER PTR;
       64    20059    1     DCL PROGRAM_COUNTER_DIGITS(0:7) REDEF PROGRAM_COUNTER
       65    20060    1         UBIN(4) UNAL;
       66    20061    1     DCL DIGIT_INDEX UBIN;
       67    20062
       68    20063          %SET LISTMAC = '1'B;
PL6.E3A0      #001=QCE$ERRORS File=QCE$ERROR.:E05TSI                             WED 07/30/97 05:05 Page:24
       69    20064          %Q_FPABT ( FPTN = Q_FPABT,
       70    20065                     STCLASS = CONSTANT,
       71    20066                     MSGCNT = 3 );
             20067         %LSET LISTDIR='0'B;
             20081    1   DCL 1 Q_FPABT CONSTANT,
             20082    1         2 FPABTTXT# CHAR(6) INIT('*FPABT'),
             20088    1         2 LANG# CHAR(1) CALIGNED INIT(' '),
             20091    1         2 MSGCNT# UBIN BYTE UNAL INIT(3),
             20095    1         2 MSGS(0:2) CALIGNED,
             20115    1   3 ERR CALIGNED,
             20129    1   4 FCG  BIT(10)/*('0'B)*/,
             20142    1   4 MID  BIT(5)/*('0'B)*/,4 MON  BIT(1)/*('0'B)*/,4 ERR#
             20143    1   UBIN(13)/*(0)*/ UNAL,4 SEV  UBIN(3)/*(0)*/ UNAL ,
             20145    1           3 U1 CALIGNED,
             20146    1             4 LEN# UBIN BYTE UNAL,
             20147    1             4 NAME# CHAR(31) CALIGNED,
             20148    1           3 U2 CALIGNED,
             20149    1             4 LEN# UBIN BYTE UNAL,
             20150    1             4 NAME# CHAR(31) CALIGNED,
             20151    1           3 U3 CALIGNED,
             20152    1             4 LEN# UBIN BYTE UNAL,
             20153    1             4 NAME# CHAR(31) CALIGNED;
       72    20155          %SET LISTMAC = '0'B;
       73    20156          %Q_FPABT ( FPTN = Q@FPABT,
       74    20157                     STCLASS = AUTO,
       75    20158                     MSGCNT = 3 );
       76    20247
       77    20248          %VLP_ERRCODE ( FPTN = VLP_ERRCODE_QB,
       78    20249                         FCG = 'QB',
       79    20250                         STCLASS = CONSTANT );
       80    20296          %VLP_ERRCODE ( FPTN = VLP_ERRCODE_QBA,
       81    20297                         FCG = 'QB',
       82    20298                         MID = 'A',
       83    20299                         STCLASS = CONSTANT );
       84    20345          %VLP_ERRCODE ( FPTN = VLP_ERRCODE_QBC,
       85    20346                         FCG = 'QB',
       86    20347                         MID = 'C',
PL6.E3A0      #001=QCE$ERRORS File=QCE$ERROR.:E05TSI                             WED 07/30/97 05:05 Page:25
       87    20348                         STCLASS = CONSTANT );
       88    20394          %VLP_ERRCODE ( FPTN = VLP_ERRCODE_QBL,
       89    20395                         FCG = 'QB',
       90    20396                         MID = 'L',
       91    20397                         STCLASS = CONSTANT );
       92    20443          %VLP_ERRCODE ( FPTN = VLP_ERRCODE_QBM,
       93    20444                         FCG = 'QB',
       94    20445                         MID = 'M',
       95    20446                         STCLASS = CONSTANT );
       96    20492          %VLP_ERRCODE ( FPTN = VLP_ERRCODE_QBO,
       97    20493                         FCG = 'QB',
       98    20494                         MID = 'O',
       99    20495                         STCLASS = CONSTANT );
      100    20541          %VLP_ERRCODE ( FPTN = VLP_ERRCODE_QBR,
      101    20542                         FCG = 'QB',
      102    20543                         MID = 'R',
      103    20544                         STCLASS = CONSTANT );
      104    20590          %VLP_ERRCODE ( FPTN = VLP_ERRCODE_QBS,
      105    20591                         FCG = 'QB',
      106    20592                         MID = 'S',
      107    20593                         STCLASS = CONSTANT );
      108    20639          %VLP_ERRCODE ( FPTN = VLP_ERRCODE_QBV,
      109    20640                         FCG = 'QB',
      110    20641                         MID = 'V',
      111    20642                         STCLASS = CONSTANT );
      112    20688          %VLP_ERRCODE ( FPTN = VLP_ERRCODE_QBW,
      113    20689                         FCG = 'QB',
      114    20690                         MID = 'W',
      115    20691                         STCLASS = CONSTANT );
      116    20737          %VLP_ERRCODE ( FPTN = VLP_ERRCODE_QCI,
      117    20738                         FCG = 'QC',
      118    20739                         MID = 'I',
      119    20740                         STCLASS = CONSTANT );
      120    20786          %VLP_ERRCODE ( FPTN = VLP_ERRCODE_QCR,
      121    20787                         FCG = 'QC',
      122    20788                         MID = 'R',
      123    20789                         STCLASS = CONSTANT );
PL6.E3A0      #001=QCE$ERRORS File=QCE$ERROR.:E05TSI                             WED 07/30/97 05:05 Page:26
      124    20835          %VLP_ERRCODE ( FPTN = VLP_ERRCODE_QI,
      125    20836                         FCG = 'QI',
      126    20837                         STCLASS = CONSTANT );
      127    20883          %VLP_ERRCODE ( FPTN = VLP_ERRCODE_QIO,
      128    20884                         FCG = 'QI',
      129    20885                         MID = 'O',
      130    20886                         STCLASS = CONSTANT );
      131    20932
      132    20933    1     DCL USER_ERROR CHAR(80) STATIC
      133    20934    1       INIT('Forms Program Abort:  Error #xxx');
      134    20935    1     DCL INTERNAL_ERROR CHAR(80) STATIC
      135    20936    1       INIT('Internal Inconsistency:  Error #xxx');
      136    20937    1     DCL INTERNAL_M$ERROR CHAR(80) STATIC
      137    20938    1       INIT('Unexpected Altret:  Error #xxx');
      138    20939
      139    20940    1     DCL QCM$MESS ENTRY(1);
      140    20941    1     DCL QCM$MESS_PAUSE ENTRY(1);
      141    20942    1     DCL QCU$RESTORE_PAGEHALT ENTRY;
      142    20943
      143    20944          %SET LISTMAC = '1'B;
      144    20945
      145    20946          %INCLUDE QCM_MESS_M;
      146    20988          %QCM@MESS;
             20989            %BEGIN_MACRO;
             20990            %SET LISTDIR = '0'B;
             21003    1     DCL 1 QCM@MESS ALIGNED,
             21004    1           2 MESSAGE_LINE_GZ_HEADER$ PTR,
             21005                           /* Pointer to QI$GZ_HEADER for the
             21006                              MESSAGE LINE to use.  */
             21007    1           2 IS_MESSAGE_A_DAD BIT(1) ALIGNED,
             21008                           /* Set if MESSAGE$ points to a DAD,
             21009                              reset if MESSAGE$ points to text
             21010                              (in which case MESSAGE_LENGTH is valid).  */
             21011    1           2 MESSAGE_LENGTH UBIN,
             21012                           /* Length, in bytes, of the error message.  */
             21013    1           2 MESSAGE$ PTR,
             21014                           /* See IS_MESSAGE_A_DAD.  */
PL6.E3A0      #001=QCE$ERRORS File=QCE$ERROR.:E05TSI                             WED 07/30/97 05:05 Page:27
             21015    1           2 FRAME_INDEX UBIN,
             21016                           /* Index of the current frame.  */
             21017    1           2 FIELD_INDEX UBIN,
             21018                           /* Index of the field to re-get (if any).  */
             21019    1           2 STATUS UBIN,
             21020                           /* Returned status code:  0 -> Immediate return to level 0;
             21021                                                    >0 -> Status is ok.  */
             21022    1           2 FIELD_ERROR_STOP_INDEX UBIN,
             21023                           /* Passed index for QCG$GET_FIELD processing.  */
             21024    1           2 VISUAL_ATTRIBUTE UBIN;
             21025                           /* Matches %EQUs for QI#xxx_VISUAL_ATTR
             21026                              (currently, blinking or non-blinking message line).  */
             21033            %ENDIF;
      147    21036
      148    21037          %SET LISTMAC = '0'B;
      149    21038
      150    21039    1     DCL ERROR_MESSAGE_SAVE CHAR(80) ALIGNED;
      151    21040    1     DCL U_INDEX UBIN;
      152    21041        %EJECT;
PL6.E3A0      #001=QCE$ERRORS File=QCE$ERROR.:E05TSI                             WED 07/30/97 05:05 Page:28
      153    21042    1   QCE$ERROR_MESSAGE: ENTRY ( ERROR_CODE, U1, U2, U3, ERROR_MESSAGE );

  21042   2 000007  D380 0000 0000  xent QCE$ERROR_MESSA*LNJ,B5   X6A_AUTO_N
          2 00000A       015B 0005                       DC       347,5

      154    21043
      155    21044        /*D*  NAME:         QCE$ERROR_MESSAGE
      156    21045              CALL:         CALL QCE$ERROR_MESSAGE ( ERROR_CODE,
      157    21046                              U1, U2, U3, ERROR_MESSAGE );
      158    21047              PARAMETERS:   ERROR_CODE contains an E$xxx for the Qxx FCG.
      159    21048              INTERFACE:    This entry point is used for callers who wish to
      160    21049                            acquire an error message from the host.
      161    21050              ENVIRONMENT:  End-user error.
      162    21051              INPUT:        QI_1[.ERROR_STATUS], etc.
      163    21052              OUTPUT:       Error messages down from the host.
      164    21053              SCRATCH:      Various otter data.
      165    21054              DESCRIPTION:  Call M$ERRMSG.
      166    21055                            The FCG will be either QBV (verify) or
      167    21056                            QCR (postread validation).
      168    21057        */
      169    21058
      170    21059    1       FPT@ERRMSG = QI_FPT_ERRMSG;

  21059   2 00000C  AB80 0000 0000  xsym                 LAB,B2   QI_FPT_ERRMSG
          2 00000F  2C00                                 LDV,R2   0
          2 000010  6C46                                 LDV,R6   70
          2 000011  BB87                                 LAB,B3   ,AUTO
          2 000012  3C1C                                 LDV,R3   28
          2 000013  0008                                 MMM

      171    21060    1       VBASE ( FPT@ERRMSG.V_ ) = ADDR ( FPT@ERRMSG.V );

  21060   2 000014  EBC7 002F                            LAB,B6   FPT@ERRMSG+33,AUTO
          2 000016  EFC7 000F                            STB,B6   FPT@ERRMSG+1,AUTO

      172    21061
      173    21062    2       DO CASE ( ERROR_CODE );
PL6.E3A0      #001=QCE$ERRORS File=QCE$ERROR.:E05TSI                             WED 07/30/97 05:05 Page:29

  21062   2 000018  DCC7 0004                            LDB,B5   @ERROR_CODE,AUTO
          2 00001A  B805                                 LDR,R3   ,B5
          2 00001B  3E9C                                 ADV,R3   -100
          2 00001C  3D01                                 CMV,R3   1
          2 00001D  0281 000F                            BGE      s:21068,PREL
          2 00001F  A830 0000 0025  02                   LDR,R2   s:21062+13,R3
          2 000022  83A0 0000 0026  02                   JMP      s:21065,R2
          2 000025       0000                            DC       s:21065,PREL

      174    21063
      175    21064    2         CASE ( %E$ILLEGAL_VALUE );

      176    21065    2           Q@FPABT.MSGS.ERR (0) = VLP_ERRCODE_QBV;

  21065   2 000026  8C80 0000 00B2  01                   LDI      VLP_ERRCODE_QBV
          2 000029  8D47 008B                            SDI      Q@FPABT+4,AUTO
          2 00002B  0F81 0006                            B        s:21072,PREL

      177    21066
      178    21067    2         CASE ( ELSE );

      179    21068    2           Q@FPABT.MSGS.ERR (0) = VLP_ERRCODE_QCR;

  21068   2 00002D  8C80 0000 00B8  01                   LDI      VLP_ERRCODE_QCR
          2 000030  8D47 008B                            SDI      Q@FPABT+4,AUTO

      180    21069
      181    21070    2       END;

      182    21071
      183    21072    1       Q@FPABT.MSGS.ERR.ERR# (0) = ERROR_CODE;

  21072   2 000032  D805                                 LDR,R5   ,B5
          2 000033  5003                                 SOL,R5   3
          2 000034  DAC7 008C                            SRM,R5,'FFF8'X    Q@FPABT+5,AUTO
          2 000036       FFF8
PL6.E3A0      #001=QCE$ERRORS File=QCE$ERROR.:E05TSI                             WED 07/30/97 05:05 Page:30

      184    21073    1       FPT@ERRMSG.CODE_ = VECTOR ( Q@FPABT.MSGS.ERR (0) );

  21073   2 000037  CBC7 008B                            LAB,B4   Q@FPABT+4,AUTO
          2 000039  CFC7 0159                            STB,B4   U_INDEX+5,AUTO
          2 00003B  5C03                                 LDV,R5   3
          2 00003C  DF47 0158                            STR,R5   U_INDEX+4,AUTO
          2 00003E  ABC7 0158                            LAB,B2   U_INDEX+4,AUTO
          2 000040  2C00                                 LDV,R2   0
          2 000041  6C06                                 LDV,R6   6
          2 000042  BB87                                 LAB,B3   ,AUTO
          2 000043  3C22                                 LDV,R3   34
          2 000044  0008                                 MMM

      185    21074
      186    21075    1       ERROR_MESSAGE = ' ';

  21075   2 000045  ECC7 000C                            LDB,B6   @ERROR_MESSAGE,AUTO
          2 000047  D870 2050                            LDR,R5   8272,IMO
          2 000049  0021                                 ALR      ;
          2 00004A       4178 2000                                ALPHANUM('2000'X,IMO,,1),;
          2 00004C       4006 0000                                ALPHANUM(0,B6,,R5,FILL)

      187    21076    1       FPT@ERRMSG.BUF_ = VECTOR ( ERROR_MESSAGE );

  21076   2 00004E  437F                                 CSYNC    s:21075+8,SPREL
          2 00004F  EFC7 0159                            STB,B6   U_INDEX+5,AUTO
          2 000051  6C4F                                 LDV,R6   79
          2 000052  EF47 0158                            STR,R6   U_INDEX+4,AUTO
          2 000054  ABC7 0158                            LAB,B2   U_INDEX+4,AUTO
          2 000056  2C00                                 LDV,R2   0
          2 000057  6C06                                 LDV,R6   6
          2 000058  BB87                                 LAB,B3   ,AUTO
          2 000059  3C28                                 LDV,R3   40
          2 00005A  0008                                 MMM

      188    21077    1       FPT@ERRMSG.FILENAME_ = VECTOR ( COLON_QQERRMSG );
PL6.E3A0      #001=QCE$ERRORS File=QCE$ERROR.:E05TSI                             WED 07/30/97 05:05 Page:31

  21077   2 00005B  AB80 0000 0000  03                   LAB,B2   0
          2 00005E  2C00                                 LDV,R2   0
          2 00005F  6C06                                 LDV,R6   6
          2 000060  BB87                                 LAB,B3   ,AUTO
          2 000061  3C2E                                 LDV,R3   46
          2 000062  0008                                 MMM

      189    21078    1       IF ADDR ( U1 ) ~= ADDR ( NIL )

  21078   2 000063  CCC7 0006                            LDB,B4   @U1,AUTO
          2 000065  8DD4                                 CMN      B4
          2 000066  0901 0012                            BE       s:21081,PREL

      190    21079    1       THEN
      191    21080    1         FPT@ERRMSG.FIELD1_ = VECTOR ( U1 );

  21080   2 000068  E284                                 LLH,R6   ,B4
          2 000069  CFC7 0159                            STB,B4   U_INDEX+5,AUTO
          2 00006B  6003                                 SOL,R6   3
          2 00006C  6E17                                 ADV,R6   23
          2 00006D  6044                                 SOR,R6   4
          2 00006E  6001                                 SOL,R6   1
          2 00006F  6EFF                                 ADV,R6   -1
          2 000070  EF47 0158                            STR,R6   U_INDEX+4,AUTO
          2 000072  ABC7 0158                            LAB,B2   U_INDEX+4,AUTO
          2 000074  2C00                                 LDV,R2   0
          2 000075  6C06                                 LDV,R6   6
          2 000076  BB87                                 LAB,B3   ,AUTO
          2 000077  3C40                                 LDV,R3   64
          2 000078  0008                                 MMM

      192    21081    1       IF ADDR ( U2 ) ~= ADDR ( NIL )

  21081   2 000079  ACC7 0008                            LDB,B2   @U2,AUTO
          2 00007B  8DD2                                 CMN      B2
          2 00007C  0901 0012                            BE       s:21084,PREL
PL6.E3A0      #001=QCE$ERRORS File=QCE$ERROR.:E05TSI                             WED 07/30/97 05:05 Page:32

      193    21082    1       THEN
      194    21083    1         FPT@ERRMSG.FIELD2_ = VECTOR ( U2 );

  21083   2 00007E  E282                                 LLH,R6   ,B2
          2 00007F  AFC7 0159                            STB,B2   U_INDEX+5,AUTO
          2 000081  6003                                 SOL,R6   3
          2 000082  6E17                                 ADV,R6   23
          2 000083  6044                                 SOR,R6   4
          2 000084  6001                                 SOL,R6   1
          2 000085  6EFF                                 ADV,R6   -1
          2 000086  EF47 0158                            STR,R6   U_INDEX+4,AUTO
          2 000088  ABC7 0158                            LAB,B2   U_INDEX+4,AUTO
          2 00008A  2C00                                 LDV,R2   0
          2 00008B  6C06                                 LDV,R6   6
          2 00008C  BB87                                 LAB,B3   ,AUTO
          2 00008D  3C46                                 LDV,R3   70
          2 00008E  0008                                 MMM

      195    21084    1       IF ADDR ( U3 ) ~= ADDR ( NIL )

  21084   2 00008F  ACC7 000A                            LDB,B2   @U3,AUTO
          2 000091  8DD2                                 CMN      B2
          2 000092  0901 0012                            BE       s:21088,PREL

      196    21085    1       THEN
      197    21086    1         FPT@ERRMSG.FIELD3_ = VECTOR ( U3 );

  21086   2 000094  E282                                 LLH,R6   ,B2
          2 000095  AFC7 0159                            STB,B2   U_INDEX+5,AUTO
          2 000097  6003                                 SOL,R6   3
          2 000098  6E17                                 ADV,R6   23
          2 000099  6044                                 SOR,R6   4
          2 00009A  6001                                 SOL,R6   1
          2 00009B  6EFF                                 ADV,R6   -1
          2 00009C  EF47 0158                            STR,R6   U_INDEX+4,AUTO
          2 00009E  ABC7 0158                            LAB,B2   U_INDEX+4,AUTO
PL6.E3A0      #001=QCE$ERRORS File=QCE$ERROR.:E05TSI                             WED 07/30/97 05:05 Page:33
          2 0000A0  2C00                                 LDV,R2   0
          2 0000A1  6C06                                 LDV,R6   6
          2 0000A2  BB87                                 LAB,B3   ,AUTO
          2 0000A3  3C4C                                 LDV,R3   76
          2 0000A4  0008                                 MMM

      198    21087
      199    21088    1       FPT@ERRMSG.RESULTS_ = VECTOR ( VLR@ERRMSG );

  21088   2 0000A5  ABC7 0031                            LAB,B2   VLR@ERRMSG,AUTO
          2 0000A7  AFC7 0159                            STB,B2   U_INDEX+5,AUTO
          2 0000A9  6C01                                 LDV,R6   1
          2 0000AA  EF47 0158                            STR,R6   U_INDEX+4,AUTO
          2 0000AC  ABC7 0158                            LAB,B2   U_INDEX+4,AUTO
          2 0000AE  2C00                                 LDV,R2   0
          2 0000AF  6C06                                 LDV,R6   6
          2 0000B0  BB87                                 LAB,B3   ,AUTO
          2 0000B1  3C52                                 LDV,R3   82
          2 0000B2  0008                                 MMM

      200    21089
      201    21090    1       CALL M$ERRMSG ( FPT@ERRMSG )

  21090   2 0000B3  BBC7 000E                            LAB,B3   FPT@ERRMSG,AUTO
          2 0000B5  B870 2CD6                            LDR,R3   11478,IMO
          2 0000B7  0001                                 MCL
          2 0000B8       0001                            DC       s:21094,PREL

      202    21091    1         ALTRET ( IGNORE_ALTRET_TEMPORARILY );
      203    21092    1   IGNORE_ALTRET_TEMPORARILY:
      204    21093
      205    21094    1       IF VLR@ERRMSG.NOFILE

  21094   2 0000B9  82C7 0031            IGNORE_ALTRET_T*LB,'4000'X        VLR@ERRMSG,AUTO
  21094   2 0000BB       4000
          2 0000BC  0501 000B                            BBT      s:21099,PREL
          2 0000BE  82C7 0031                            LB,'2000'X        VLR@ERRMSG,AUTO
PL6.E3A0      #001=QCE$ERRORS File=QCE$ERROR.:E05TSI                             WED 07/30/97 05:05 Page:34
          2 0000C0       2000
          2 0000C1  0501 0006                            BBT      s:21099,PREL
          2 0000C3  82C7 0031                            LB,'0100'X        VLR@ERRMSG,AUTO
          2 0000C5       0100
          2 0000C6  0581 000E                            BBF      s:21104,PREL

      206    21095    1         OR VLR@ERRMSG.NOMSG
      207    21096    1         OR VLR@ERRMSG.INERR
      208    21097    1       THEN
      209    21098    1   NO_MESSAGE_AVAILABLE:
      210    21099    2         DO;

  21099   2                              NO_MESSAGE_AVAI*null
      211    21100    2           ERROR_MESSAGE =

  21100   2 0000C8  EB80 0000 0000  01   NO_MESSAGE_AVAI*LAB,B6   HEX_TABLE
          2 0000CB  4C39                                 LDV,R4   57
          2 0000CC  DCC7 000C                            LDB,B5   @ERROR_MESSAGE,AUTO
          2 0000CE  D870 2050                            LDR,R5   8272,IMO
          2 0000D0  0021                                 ALR      ;
          2 0000D1       4006 00BE                                ALPHANUM(190,B6,,R4),;
          2 0000D3       4005 0000                                ALPHANUM(0,B5,,R5,FILL)

      212    21101    2             '****No message available:  please report this in STARLOG.';
      213    21102    2         END NO_MESSAGE_AVAILABLE;

      214    21103
      215    21104    1       IF ADDR ( U1 ) ~= ADDR ( NIL )

  21104   2 0000D5  437F                                 CSYNC    s:21099+12,SPREL
          2 0000D6  ECC7 0006                            LDB,B6   @U1,AUTO
          2 0000D8  8DD6                                 CMN      B6
          2 0000D9  0901 004E                            BE       s:21117,PREL

      216    21105    1       THEN
      217    21106    2         DO;

PL6.E3A0      #001=QCE$ERRORS File=QCE$ERROR.:E05TSI                             WED 07/30/97 05:05 Page:35
      218    21107    2           ERROR_MESSAGE_SAVE = ERROR_MESSAGE;

  21107   2 0000DB  ACC7 000C                            LDB,B2   @ERROR_MESSAGE,AUTO
          2 0000DD  2C00                                 LDV,R2   0
          2 0000DE  6C50                                 LDV,R6   80
          2 0000DF  BBC7 012C                            LAB,B3   ERROR_MESSAGE_SAVE,AUTO
          2 0000E1  3C00                                 LDV,R3   0
          2 0000E2  0008                                 MMM

      219    21108    2           CALL INDEX ( U_INDEX, '%U1', ERROR_MESSAGE_SAVE )

  21108   2 0000E3  DB80 0000 0000  01                   LAB,B5   HEX_TABLE
          2 0000E6  E870 0150                            LDR,R6   336,IMO
          2 0000E8  0028                                 SRH      ;
          2 0000E9       4305 00DB                                ALPHANUM(219,B5,,3),;
          2 0000EB       4407 0158                                BINARY(U_INDEX+4,AUTO,,4),;
          2 0000ED       4007 012C                                ALPHANUM(ERROR_MESSAGE_SAVE,AUTO,,R6)
          2 0000EF  5381 0006                            CBE      s:21108+19,PREL
          2 0000F1  5C50                                 LDV,R5   80
          2 0000F2  DF47 0154                            STR,R5   U_INDEX,AUTO
          2 0000F4  0F81 0007                            B        s:21111,PREL
          2 0000F6  D847 0159                            LDR,R5   U_INDEX+5,AUTO
          2 0000F8  DF47 0154                            STR,R5   U_INDEX,AUTO
          2 0000FA  0F81 0004                            B        s:21113,PREL

      220    21109    2           WHENALTRETURN
      221    21110    3             DO;

      222    21111    3               RETURN;

  21111   2 0000FC  C380 0000 0000  xent                 LNJ,B4   X6A_ARET

      223    21112    3             END;
      224    21113    2           SUBSTR ( ERROR_MESSAGE, U_INDEX ) = U1.NAME;

  21113   2 0000FF  C286                                 LLH,R4   ,B6
          2 000100  CF47 0158                            STR,R4   U_INDEX+4,AUTO
PL6.E3A0      #001=QCE$ERRORS File=QCE$ERROR.:E05TSI                             WED 07/30/97 05:05 Page:36
          2 000102  AB86                                 LAB,B2   ,B6
          2 000103  2C01                                 LDV,R2   1
          2 000104  E854                                 LDR,R6   R4
          2 000105  BCC7 000C                            LDB,B3   @ERROR_MESSAGE,AUTO
          2 000107  B855                                 LDR,R3   R5
          2 000108  F853                                 LDR,R7   R3
          2 000109  8257                                 NEG      R7
          2 00010A  7E50                                 ADV,R7   80
          2 00010B  D380 0000 0000  xent                 LNJ,B5   X6C_ALR

      225    21114    2           SUBSTR ( ERROR_MESSAGE, U_INDEX + U1.L ) =

  21114   2 00010E  ECC7 0006                            LDB,B6   @U1,AUTO
          2 000110  E286                                 LLH,R6   ,B6
          2 000111  EA47 0154                            ADD,R6   U_INDEX,AUTO
          2 000113  EF47 0158                            STR,R6   U_INDEX+4,AUTO
          2 000115  ABC7 012D                            LAB,B2   ERROR_MESSAGE_SAVE+1,AUTO
          2 000117  A847 0154                            LDR,R2   U_INDEX,AUTO
          2 000119  2E01                                 ADV,R2   1
          2 00011A  E847 0154                            LDR,R6   U_INDEX,AUTO
          2 00011C  8256                                 NEG      R6
          2 00011D  6E4D                                 ADV,R6   77
          2 00011E  BCC7 000C                            LDB,B3   @ERROR_MESSAGE,AUTO
          2 000120  B847 0158                            LDR,R3   U_INDEX+4,AUTO
          2 000122  F853                                 LDR,R7   R3
          2 000123  8257                                 NEG      R7
          2 000124  7E50                                 ADV,R7   80
          2 000125  D380 0000 0000  xent                 LNJ,B5   X6C_ALR

      226    21115    2             SUBSTR ( ERROR_MESSAGE_SAVE, U_INDEX + 3 );
      227    21116    2         END;

      228    21117    1       RETURN;

  21117   2 000128  C380 0000 0000  xent                 LNJ,B4   X6A_ARET

      229    21118
PL6.E3A0      #001=QCE$ERRORS File=QCE$ERROR.:E05TSI                             WED 07/30/97 05:05 Page:37
      230    21119        %EJECT;
PL6.E3A0      #001=QCE$ERRORS File=QCE$ERROR.:E05TSI                             WED 07/30/97 05:05 Page:38
      231    21120    1   QCE$ERROR: ENTRY ( ERROR_CODE, U1, U2, U3 );

  21120   2 00012B  D380 0000 0000  xent QCE$ERROR       LNJ,B5   X6A_AUTO_N
          2 00012E       015B 0005                       DC       347,5

      232    21121
      233    21122        /*D*  NAME:         QCE$ERROR
      234    21123              CALL:         CALL QCE$ERROR ( ERROR_CODE );
      235    21124              PARAMETERS:   ERROR_CODE contains an E$xxx for the Qxx FCG.
      236    21125              INTERFACE:    This entry point is used for aborting after detecting
      237    21126                            a user-caused error, e.g., overlapping field,
      238    21127                            form already open, etc.
      239    21128              ENVIRONMENT:  Ready to abandon ship.
      240    21129              INPUT:        QI_1[.ERROR_STATUS], etc.
      241    21130              OUTPUT:       Error messages up to the host.
      242    21131              SCRATCH:      Various otter data.
      243    21132              DESCRIPTION:  Abort appropriately.
      244    21133        */
      245    21134
      246    21135    1       Q@FPABT = Q_FPABT;

  21135   2 000130  AB80 0000 0000  01                   LAB,B2   HEX_TABLE
          2 000133  2C10                                 LDV,R2   16
          2 000134  E870 0134                            LDR,R6   308,IMO
          2 000136  BBC7 0087                            LAB,B3   Q@FPABT,AUTO
          2 000138  3C00                                 LDV,R3   0
          2 000139  0008                                 MMM

      247    21136    1       Q@FPABT.MSGCNT# = 2;

  21136   2 00013A  6C02                                 LDV,R6   2
          2 00013B  EAC7 008A                            SRM,R6,'00FF'X    Q@FPABT+3,AUTO
          2 00013D       00FF

      248    21137
      249    21138    1       CALL FORMAT_ABORT_MESSAGE;

PL6.E3A0      #001=QCE$ERRORS File=QCE$ERROR.:E05TSI                             WED 07/30/97 05:05 Page:39
  21138   2 00013E  E3C0 0465                            LNJ,B6   s:0,PREL
          2 000140       0001                            DC       s:21140,PREL

      250    21139
      251    21140    1       Q@FPABT.MSGS.U1.LEN# (1) = 0;

  21140   2 000141  87C7 00BF                            CLH      Q@FPABT+56,AUTO

      252    21141    1       Q@FPABT.MSGS.U2.LEN# (1) = 0;

  21141   2 000143  87C7 00CF                            CLH      Q@FPABT+72,AUTO

      253    21142    1       Q@FPABT.MSGS.U3.LEN# (1) = 0;

  21142   2 000145  87C7 00DF                            CLH      Q@FPABT+88,AUTO

      254    21143
      255    21144            /*  OK, first, this was thrown together in about 1 evening.
      256    21145                Second, we're on our way out, so who cares how slow it is.
      257    21146                Third, I sure hope somebody throws that USE stuff out
      258    21147                soon.
      259    21148                The problem's that we might have gotten here from QCU$USE,
      260    21149                so we don't know what the "FCG of origin" was.
      261    21150                It just so happens, however, that in order to have come
      262    21151                from QCU$USE, we must have an error whose U1 is either
      263    21152                in QI_1.CURRENT.FILE$ or QI_1.CURRENT.FRAME$.
      264    21153                Sooo, we can just "devine" the FCG by vectoring off the
      265    21154                error code.  */
      266    21155    1       IF QI_1.CURRENT.FILE$ ~= ADDR (NIL)

  21155   2 000147  8D80 0000 0076  xsym                 CMN      QI_1+118
          2 00014A  0901 000F                            BE       s:21197,PREL

      267    21156    1       THEN
      268    21157              %PROC_ADDRESS ( THING@P = "QI_1.CURRENT.FILE$ -> QI$FILE.IDENTIFIER@P",
      269    21158                CHECK_FOR_INDIRECTION = NO,
      270    21159                RESULT$ = FILE_IDENTIFIER$ );
PL6.E3A0      #001=QCE$ERRORS File=QCE$ERROR.:E05TSI                             WED 07/30/97 05:05 Page:40

  21177   2 00014C  EC80 0000 0076  xsym                 LDB,B6   QI_1+118
          2 00014F  B846 0007                            LDR,R3   7,B6
          2 000151  F853                                 LDR,R7   R3
          2 000152  6C00                                 LDV,R6   0
          2 000153  8400 0000 0002  xsym                 AID      QI_1+2
          2 000156  8D47 007F                            SDI      FILE_IDENTIFIER$,AUTO

  21186   2 000158  0F81 0006                            B        s:21199,PREL

      271    21196    1       ELSE
      272    21197    1         FILE_IDENTIFIER$ = ADDR (NIL);

  21197   2 00015A  EB80 0000 0000                       LAB,B6   0
          2 00015D  EFC7 007F                            STB,B6   FILE_IDENTIFIER$,AUTO

      273    21198
      274    21199    1       IF QI_1.CURRENT.FRAME$ ~= ADDR (NIL)

  21199   2 00015F  8D80 0000 007A  xsym                 CMN      QI_1+122
          2 000162  0901 000F                            BE       s:21241,PREL

      275    21200    1       THEN
      276    21201              %PROC_ADDRESS ( THING@P = "QI_1.CURRENT.FRAME$ -> QI$FRAME.IDENTIFIER@P",
      277    21202                CHECK_FOR_INDIRECTION = NO,
      278    21203                RESULT$ = FRAME_IDENTIFIER$ );

  21221   2 000164  EC80 0000 007A  xsym                 LDB,B6   QI_1+122
          2 000167  B846 0007                            LDR,R3   7,B6
          2 000169  F853                                 LDR,R7   R3
          2 00016A  6C00                                 LDV,R6   0
          2 00016B  8400 0000 0002  xsym                 AID      QI_1+2
          2 00016E  8D47 0081                            SDI      FRAME_IDENTIFIER$,AUTO

  21230   2 000170  0F81 0006                            B        s:21243,PREL

      279    21240    1       ELSE
PL6.E3A0      #001=QCE$ERRORS File=QCE$ERROR.:E05TSI                             WED 07/30/97 05:05 Page:41
      280    21241    1         FRAME_IDENTIFIER$ = ADDR (NIL);

  21241   2 000172  EB80 0000 0000                       LAB,B6   0
          2 000175  EFC7 0081                            STB,B6   FRAME_IDENTIFIER$,AUTO

      281    21242
      282    21243    2       DO CASE ( ERROR_CODE );

  21243   2 000177  ECC7 0004                            LDB,B6   @ERROR_CODE,AUTO
          2 000179  B806                                 LDR,R3   ,B6
          2 00017A  B970 00D0                            CMR,R3   208,IMO
          2 00017C  0281 0294                            BGE      s:21349,PREL
          2 00017E  A830 0000 0184  02                   LDR,R2   s:21243+13,R3
          2 000181  83A0 0000 0254  02                   JMP      s:21246,R2
          2 000184       01BD                            DC       s:21349,PREL
          2 000185       0007                            DC       s:21253,PREL
          2 000186       0035                            DC       s:21261,PREL
          2 000187       01BD                            DC       s:21349,PREL
          2 000188       001E                            DC       s:21257,PREL
          2 000189       0007                            DC       s:21253,PREL
          2 00018A       0007                            DC       s:21253,PREL
          2 00018B       00A6                            DC       s:21287,PREL
          2 00018C       00EB                            DC       s:21301,PREL
          2 00018D       01BD                            DC       s:21349,PREL
          2 00018E       00D4                            DC       s:21297,PREL
          2 00018F       00D4                            DC       s:21297,PREL
          2 000190       00BD                            DC       s:21292,PREL
          2 000191       00BD                            DC       s:21292,PREL
          2 000192       0182                            DC       s:21339,PREL
          2 000193       01A8                            DC       s:21344,PREL
          2 000194       008A                            DC       s:21278,PREL
          2 000195       008A                            DC       s:21278,PREL
          2 000196       0174                            DC       s:21333,PREL
          2 000197       017B                            DC       s:21336,PREL
          2 000198       0102                            DC       s:21309,PREL
          2 000199       0102                            DC       s:21309,PREL
          2 00019A       0102                            DC       s:21309,PREL
PL6.E3A0      #001=QCE$ERRORS File=QCE$ERROR.:E05TSI                             WED 07/30/97 05:05 Page:42
          2 00019B       0110                            DC       s:21315,PREL
          2 00019C       0109                            DC       s:21312,PREL
          2 00019D       01BD                            DC       s:21349,PREL
          2 00019E       0136                            DC       s:21320,PREL
          2 00019F       014D                            DC       s:21324,PREL
          2 0001A0       01BD                            DC       s:21349,PREL
          2 0001A1       016D                            DC       s:21330,PREL
          2 0001A2       01BD                            DC       s:21349,PREL
          2 0001A3       01BD                            DC       s:21349,PREL
          2 0001A4       01BD                            DC       s:21349,PREL
          2 0001A5       01BD                            DC       s:21349,PREL
          2 0001A6       01BD                            DC       s:21349,PREL
          2 0001A7       01BD                            DC       s:21349,PREL
          2 0001A8       01BD                            DC       s:21349,PREL
          2 0001A9       01BD                            DC       s:21349,PREL
          2 0001AA       01BD                            DC       s:21349,PREL
          2 0001AB       01BD                            DC       s:21349,PREL
          2 0001AC       01BD                            DC       s:21349,PREL
          2 0001AD       01BD                            DC       s:21349,PREL
          2 0001AE       01BD                            DC       s:21349,PREL
          2 0001AF       01BD                            DC       s:21349,PREL
          2 0001B0       01BD                            DC       s:21349,PREL
          2 0001B1       01BD                            DC       s:21349,PREL
          2 0001B2       01BD                            DC       s:21349,PREL
          2 0001B3       01BD                            DC       s:21349,PREL
          2 0001B4       01BD                            DC       s:21349,PREL
          2 0001B5       01BD                            DC       s:21349,PREL
          2 0001B6       01BD                            DC       s:21349,PREL
          2 0001B7       01BD                            DC       s:21349,PREL
          2 0001B8       01BD                            DC       s:21349,PREL
          2 0001B9       01BD                            DC       s:21349,PREL
          2 0001BA       01BD                            DC       s:21349,PREL
          2 0001BB       0102                            DC       s:21309,PREL
          2 0001BC       0102                            DC       s:21309,PREL
          2 0001BD       01BD                            DC       s:21349,PREL
          2 0001BE       01BD                            DC       s:21349,PREL
          2 0001BF       01BD                            DC       s:21349,PREL
PL6.E3A0      #001=QCE$ERRORS File=QCE$ERROR.:E05TSI                             WED 07/30/97 05:05 Page:43
          2 0001C0       01BD                            DC       s:21349,PREL
          2 0001C1       01BD                            DC       s:21349,PREL
          2 0001C2       01BD                            DC       s:21349,PREL
          2 0001C3       01BD                            DC       s:21349,PREL
          2 0001C4       01BD                            DC       s:21349,PREL
          2 0001C5       01BD                            DC       s:21349,PREL
          2 0001C6       01BD                            DC       s:21349,PREL
          2 0001C7       01BD                            DC       s:21349,PREL
          2 0001C8       01BD                            DC       s:21349,PREL
          2 0001C9       01BD                            DC       s:21349,PREL
          2 0001CA       01BD                            DC       s:21349,PREL
          2 0001CB       01BD                            DC       s:21349,PREL
          2 0001CC       01BD                            DC       s:21349,PREL
          2 0001CD       01BD                            DC       s:21349,PREL
          2 0001CE       01BD                            DC       s:21349,PREL
          2 0001CF       01BD                            DC       s:21349,PREL
          2 0001D0       01BD                            DC       s:21349,PREL
          2 0001D1       01BD                            DC       s:21349,PREL
          2 0001D2       01BD                            DC       s:21349,PREL
          2 0001D3       01BD                            DC       s:21349,PREL
          2 0001D4       01BD                            DC       s:21349,PREL
          2 0001D5       01BD                            DC       s:21349,PREL
          2 0001D6       01BD                            DC       s:21349,PREL
          2 0001D7       01BD                            DC       s:21349,PREL
          2 0001D8       01BD                            DC       s:21349,PREL
          2 0001D9       01BD                            DC       s:21349,PREL
          2 0001DA       01BD                            DC       s:21349,PREL
          2 0001DB       01BD                            DC       s:21349,PREL
          2 0001DC       01BD                            DC       s:21349,PREL
          2 0001DD       01BD                            DC       s:21349,PREL
          2 0001DE       01BD                            DC       s:21349,PREL
          2 0001DF       01BD                            DC       s:21349,PREL
          2 0001E0       01BD                            DC       s:21349,PREL
          2 0001E1       01BD                            DC       s:21349,PREL
          2 0001E2       01BD                            DC       s:21349,PREL
          2 0001E3       01BD                            DC       s:21349,PREL
          2 0001E4       01BD                            DC       s:21349,PREL
PL6.E3A0      #001=QCE$ERRORS File=QCE$ERROR.:E05TSI                             WED 07/30/97 05:05 Page:44
          2 0001E5       01BD                            DC       s:21349,PREL
          2 0001E6       01BD                            DC       s:21349,PREL
          2 0001E7       01BD                            DC       s:21349,PREL
          2 0001E8       01BD                            DC       s:21349,PREL
          2 0001E9       01BD                            DC       s:21349,PREL
          2 0001EA       01BD                            DC       s:21349,PREL
          2 0001EB       01BD                            DC       s:21349,PREL
          2 0001EC       01BD                            DC       s:21349,PREL
          2 0001ED       01BD                            DC       s:21349,PREL
          2 0001EE       01BD                            DC       s:21349,PREL
          2 0001EF       01BD                            DC       s:21349,PREL
          2 0001F0       01BD                            DC       s:21349,PREL
          2 0001F1       01BD                            DC       s:21349,PREL
          2 0001F2       01BD                            DC       s:21349,PREL
          2 0001F3       01BD                            DC       s:21349,PREL
          2 0001F4       01BD                            DC       s:21349,PREL
          2 0001F5       01BD                            DC       s:21349,PREL
          2 0001F6       01BD                            DC       s:21349,PREL
          2 0001F7       01BD                            DC       s:21349,PREL
          2 0001F8       01BD                            DC       s:21349,PREL
          2 0001F9       01BD                            DC       s:21349,PREL
          2 0001FA       01BD                            DC       s:21349,PREL
          2 0001FB       01BD                            DC       s:21349,PREL
          2 0001FC       01BD                            DC       s:21349,PREL
          2 0001FD       01BD                            DC       s:21349,PREL
          2 0001FE       01BD                            DC       s:21349,PREL
          2 0001FF       01BD                            DC       s:21349,PREL
          2 000200       01BD                            DC       s:21349,PREL
          2 000201       01BD                            DC       s:21349,PREL
          2 000202       01BD                            DC       s:21349,PREL
          2 000203       01BD                            DC       s:21349,PREL
          2 000204       01BD                            DC       s:21349,PREL
          2 000205       01BD                            DC       s:21349,PREL
          2 000206       01BD                            DC       s:21349,PREL
          2 000207       01BD                            DC       s:21349,PREL
          2 000208       01BD                            DC       s:21349,PREL
          2 000209       01BD                            DC       s:21349,PREL
PL6.E3A0      #001=QCE$ERRORS File=QCE$ERROR.:E05TSI                             WED 07/30/97 05:05 Page:45
          2 00020A       01BD                            DC       s:21349,PREL
          2 00020B       01BD                            DC       s:21349,PREL
          2 00020C       01BD                            DC       s:21349,PREL
          2 00020D       01BD                            DC       s:21349,PREL
          2 00020E       01BD                            DC       s:21349,PREL
          2 00020F       01BD                            DC       s:21349,PREL
          2 000210       01BD                            DC       s:21349,PREL
          2 000211       01BD                            DC       s:21349,PREL
          2 000212       01BD                            DC       s:21349,PREL
          2 000213       01BD                            DC       s:21349,PREL
          2 000214       01BD                            DC       s:21349,PREL
          2 000215       01BD                            DC       s:21349,PREL
          2 000216       01BD                            DC       s:21349,PREL
          2 000217       01BD                            DC       s:21349,PREL
          2 000218       01BD                            DC       s:21349,PREL
          2 000219       01BD                            DC       s:21349,PREL
          2 00021A       01BD                            DC       s:21349,PREL
          2 00021B       01BD                            DC       s:21349,PREL
          2 00021C       01BD                            DC       s:21349,PREL
          2 00021D       01BD                            DC       s:21349,PREL
          2 00021E       01BD                            DC       s:21349,PREL
          2 00021F       01BD                            DC       s:21349,PREL
          2 000220       01BD                            DC       s:21349,PREL
          2 000221       01BD                            DC       s:21349,PREL
          2 000222       01BD                            DC       s:21349,PREL
          2 000223       01BD                            DC       s:21349,PREL
          2 000224       01BD                            DC       s:21349,PREL
          2 000225       01BD                            DC       s:21349,PREL
          2 000226       01BD                            DC       s:21349,PREL
          2 000227       01BD                            DC       s:21349,PREL
          2 000228       01BD                            DC       s:21349,PREL
          2 000229       01BD                            DC       s:21349,PREL
          2 00022A       01BD                            DC       s:21349,PREL
          2 00022B       01BD                            DC       s:21349,PREL
          2 00022C       01BD                            DC       s:21349,PREL
          2 00022D       01BD                            DC       s:21349,PREL
          2 00022E       01BD                            DC       s:21349,PREL
PL6.E3A0      #001=QCE$ERRORS File=QCE$ERROR.:E05TSI                             WED 07/30/97 05:05 Page:46
          2 00022F       01BD                            DC       s:21349,PREL
          2 000230       01BD                            DC       s:21349,PREL
          2 000231       01BD                            DC       s:21349,PREL
          2 000232       01BD                            DC       s:21349,PREL
          2 000233       01BD                            DC       s:21349,PREL
          2 000234       01BD                            DC       s:21349,PREL
          2 000235       01BD                            DC       s:21349,PREL
          2 000236       01BD                            DC       s:21349,PREL
          2 000237       01BD                            DC       s:21349,PREL
          2 000238       01BD                            DC       s:21349,PREL
          2 000239       01BD                            DC       s:21349,PREL
          2 00023A       01BD                            DC       s:21349,PREL
          2 00023B       01BD                            DC       s:21349,PREL
          2 00023C       01BD                            DC       s:21349,PREL
          2 00023D       01BD                            DC       s:21349,PREL
          2 00023E       01BD                            DC       s:21349,PREL
          2 00023F       01BD                            DC       s:21349,PREL
          2 000240       01BD                            DC       s:21349,PREL
          2 000241       01BD                            DC       s:21349,PREL
          2 000242       01BD                            DC       s:21349,PREL
          2 000243       01BD                            DC       s:21349,PREL
          2 000244       01BD                            DC       s:21349,PREL
          2 000245       01BD                            DC       s:21349,PREL
          2 000246       01BD                            DC       s:21349,PREL
          2 000247       01BD                            DC       s:21349,PREL
          2 000248       01BD                            DC       s:21349,PREL
          2 000249       01BD                            DC       s:21349,PREL
          2 00024A       01BD                            DC       s:21349,PREL
          2 00024B       01BD                            DC       s:21349,PREL
          2 00024C       004C                            DC       s:21265,PREL
          2 00024D       0000                            DC       s:21246,PREL
          2 00024E       01BD                            DC       s:21349,PREL
          2 00024F       0007                            DC       s:21253,PREL
          2 000250       006B                            DC       s:21272,PREL
          2 000251       006B                            DC       s:21272,PREL
          2 000252       006B                            DC       s:21272,PREL
          2 000253       0007                            DC       s:21253,PREL
PL6.E3A0      #001=QCE$ERRORS File=QCE$ERROR.:E05TSI                             WED 07/30/97 05:05 Page:47

      283    21244
      284    21245    2         CASE ( %E$TPAP_ABORT );

      285    21246    2           Q@FPABT.MSGS.ERR (1) = VLP_ERRCODE_QB;

  21246   2 000254  8C80 0000 00A2  01                   LDI      VLP_ERRCODE_QB
          2 000257  8D47 00BD                            SDI      Q@FPABT+54,AUTO
          2 000259  0F81 01B7                            B        s:21349,PREL

      286    21247
      287    21248    2         CASE ( %E$FILE_NOT_OPEN,

      288    21249    2             %E$FILE_NOT_OPEN_INPUT,
      289    21250    2             %E$FILE_NOT_OPEN_OUTPUT,
      290    21251    2             %E$TRANSACTION_TYPE_ILLEGAL,
      291    21252    2             %E$TRANSACTION_LOST_DATA );
      292    21253    2           Q@FPABT.MSGS.ERR (1) = VLP_ERRCODE_QB;

  21253   2 00025B  8C80 0000 00A2  01                   LDI      VLP_ERRCODE_QB
          2 00025E  8D47 00BD                            SDI      Q@FPABT+54,AUTO

      293    21254    2           Q@FPABT.MSGS.U1 (1) = FILE_IDENTIFIER$ -> QI$VARIABLE_IDENTIFIER;

  21254   2 000260  DCC7 007F                            LDB,B5   FILE_IDENTIFIER$,AUTO
          2 000262  D285                                 LLH,R5   ,B5
          2 000263  DF47 0158                            STR,R5   U_INDEX+4,AUTO
          2 000265  AB85                                 LAB,B2   ,B5
          2 000266  2C00                                 LDV,R2   0
          2 000267  E855                                 LDR,R6   R5
          2 000268  6E01                                 ADV,R6   1
          2 000269  BBC7 00BF                            LAB,B3   Q@FPABT+56,AUTO
          2 00026B  3C00                                 LDV,R3   0
          2 00026C  7C20                                 LDV,R7   32
          2 00026D  D380 0000 0000  xent                 LNJ,B5   X6C_ALRZ
          2 000270  0F81 01A0                            B        s:21349,PREL

PL6.E3A0      #001=QCE$ERRORS File=QCE$ERROR.:E05TSI                             WED 07/30/97 05:05 Page:48
      294    21255
      295    21256    2         CASE ( %E$FILE_ALREADY_CLOSED );

      296    21257    2           Q@FPABT.MSGS.ERR (1) = VLP_ERRCODE_QBC;

  21257   2 000272  8C80 0000 00A6  01                   LDI      VLP_ERRCODE_QBC
          2 000275  8D47 00BD                            SDI      Q@FPABT+54,AUTO

      297    21258    2           Q@FPABT.MSGS.U1 (1) = FILE_IDENTIFIER$ -> QI$VARIABLE_IDENTIFIER;

  21258   2 000277  DCC7 007F                            LDB,B5   FILE_IDENTIFIER$,AUTO
          2 000279  D285                                 LLH,R5   ,B5
          2 00027A  DF47 0158                            STR,R5   U_INDEX+4,AUTO
          2 00027C  AB85                                 LAB,B2   ,B5
          2 00027D  2C00                                 LDV,R2   0
          2 00027E  E855                                 LDR,R6   R5
          2 00027F  6E01                                 ADV,R6   1
          2 000280  BBC7 00BF                            LAB,B3   Q@FPABT+56,AUTO
          2 000282  3C00                                 LDV,R3   0
          2 000283  7C20                                 LDV,R7   32
          2 000284  D380 0000 0000  xent                 LNJ,B5   X6C_ALRZ
          2 000287  0F81 0189                            B        s:21349,PREL

      298    21259
      299    21260    2         CASE ( %E$FILE_ALREADY_OPEN );

      300    21261    2           Q@FPABT.MSGS.ERR (1) = VLP_ERRCODE_QBO;

  21261   2 000289  8C80 0000 00AC  01                   LDI      VLP_ERRCODE_QBO
          2 00028C  8D47 00BD                            SDI      Q@FPABT+54,AUTO

      301    21262    2           Q@FPABT.MSGS.U1 (1) = FILE_IDENTIFIER$ -> QI$VARIABLE_IDENTIFIER;

  21262   2 00028E  DCC7 007F                            LDB,B5   FILE_IDENTIFIER$,AUTO
          2 000290  D285                                 LLH,R5   ,B5
          2 000291  DF47 0158                            STR,R5   U_INDEX+4,AUTO
          2 000293  AB85                                 LAB,B2   ,B5
PL6.E3A0      #001=QCE$ERRORS File=QCE$ERROR.:E05TSI                             WED 07/30/97 05:05 Page:49
          2 000294  2C00                                 LDV,R2   0
          2 000295  E855                                 LDR,R6   R5
          2 000296  6E01                                 ADV,R6   1
          2 000297  BBC7 00BF                            LAB,B3   Q@FPABT+56,AUTO
          2 000299  3C00                                 LDV,R3   0
          2 00029A  7C20                                 LDV,R7   32
          2 00029B  D380 0000 0000  xent                 LNJ,B5   X6C_ALRZ
          2 00029E  0F81 0172                            B        s:21349,PREL

      302    21263
      303    21264    2         CASE ( %E$TRANSACTION_READ_ERROR );

      304    21265    2           Q@FPABT.MSGS.ERR (1) = VLP_ERRCODE_QBR;

  21265   2 0002A0  8C80 0000 00AE  01                   LDI      VLP_ERRCODE_QBR
          2 0002A3  8D47 00BD                            SDI      Q@FPABT+54,AUTO

      305    21266    2           Q@FPABT.MSGS.U1 (1) = FILE_IDENTIFIER$ -> QI$VARIABLE_IDENTIFIER;

  21266   2 0002A5  DCC7 007F                            LDB,B5   FILE_IDENTIFIER$,AUTO
          2 0002A7  D285                                 LLH,R5   ,B5
          2 0002A8  DF47 0158                            STR,R5   U_INDEX+4,AUTO
          2 0002AA  AB85                                 LAB,B2   ,B5
          2 0002AB  2C00                                 LDV,R2   0
          2 0002AC  E855                                 LDR,R6   R5
          2 0002AD  6E01                                 ADV,R6   1
          2 0002AE  BBC7 00BF                            LAB,B3   Q@FPABT+56,AUTO
          2 0002B0  3C00                                 LDV,R3   0
          2 0002B1  7C20                                 LDV,R7   32
          2 0002B2  D380 0000 0000  xent                 LNJ,B5   X6C_ALRZ

      306    21267    2           Q@FPABT.MSGS.ERR (2) = G$TCB$ -> G$TCB.ALT$ -> G$EXCFR.TRLR.ERR;

  21267   2 0002B5  EC80 0000 0000  xsym                 LDB,B6   G$TCB$
          2 0002B8  DC86                                 LDB,B5   ,B6
          2 0002B9  8CC5 002B                            LDI      43,B5
          2 0002BB  8D47 00EF                            SDI      Q@FPABT+104,AUTO
PL6.E3A0      #001=QCE$ERRORS File=QCE$ERROR.:E05TSI                             WED 07/30/97 05:05 Page:50
          2 0002BD  0F81 0153                            B        s:21349,PREL

      307    21268
      308    21269    2         CASE ( %E$TRANSACTION_TYPE_WILD,

      309    21270    2             %E$TRANSACTION_WRITE_ERROR,
      310    21271    2             %E$TRANSACTION_RRR_ERROR );
      311    21272    2           Q@FPABT.MSGS.ERR (1) = VLP_ERRCODE_QBW;

  21272   2 0002BF  8C80 0000 00B4  01                   LDI      VLP_ERRCODE_QBW
          2 0002C2  8D47 00BD                            SDI      Q@FPABT+54,AUTO

      312    21273    2           Q@FPABT.MSGS.U1 (1) = FILE_IDENTIFIER$ -> QI$VARIABLE_IDENTIFIER;

  21273   2 0002C4  DCC7 007F                            LDB,B5   FILE_IDENTIFIER$,AUTO
          2 0002C6  D285                                 LLH,R5   ,B5
          2 0002C7  DF47 0158                            STR,R5   U_INDEX+4,AUTO
          2 0002C9  AB85                                 LAB,B2   ,B5
          2 0002CA  2C00                                 LDV,R2   0
          2 0002CB  E855                                 LDR,R6   R5
          2 0002CC  6E01                                 ADV,R6   1
          2 0002CD  BBC7 00BF                            LAB,B3   Q@FPABT+56,AUTO
          2 0002CF  3C00                                 LDV,R3   0
          2 0002D0  7C20                                 LDV,R7   32
          2 0002D1  D380 0000 0000  xent                 LNJ,B5   X6C_ALRZ

      313    21274    2           Q@FPABT.MSGS.ERR (2) = G$TCB$ -> G$TCB.ALT$ -> G$EXCFR.TRLR.ERR;

  21274   2 0002D4  EC80 0000 0000  xsym                 LDB,B6   G$TCB$
          2 0002D7  DC86                                 LDB,B5   ,B6
          2 0002D8  8CC5 002B                            LDI      43,B5
          2 0002DA  8D47 00EF                            SDI      Q@FPABT+104,AUTO
          2 0002DC  0F81 0134                            B        s:21349,PREL

      314    21275
      315    21276    2         CASE ( %E$FORM_READ_ERROR,

PL6.E3A0      #001=QCE$ERRORS File=QCE$ERROR.:E05TSI                             WED 07/30/97 05:05 Page:51
      316    21277    2             %E$FORM_WRITE_ERROR );
      317    21278    2           Q@FPABT.MSGS.ERR (1) = VLP_ERRCODE_QCI;

  21278   2 0002DE  8C80 0000 00B6  01                   LDI      VLP_ERRCODE_QCI
          2 0002E1  8D47 00BD                            SDI      Q@FPABT+54,AUTO

      318    21279    2           Q@FPABT.MSGS.U1 (1) = FILE_IDENTIFIER$ -> QI$VARIABLE_IDENTIFIER;

  21279   2 0002E3  DCC7 007F                            LDB,B5   FILE_IDENTIFIER$,AUTO
          2 0002E5  D285                                 LLH,R5   ,B5
          2 0002E6  DF47 0158                            STR,R5   U_INDEX+4,AUTO
          2 0002E8  AB85                                 LAB,B2   ,B5
          2 0002E9  2C00                                 LDV,R2   0
          2 0002EA  E855                                 LDR,R6   R5
          2 0002EB  6E01                                 ADV,R6   1
          2 0002EC  BBC7 00BF                            LAB,B3   Q@FPABT+56,AUTO
          2 0002EE  3C00                                 LDV,R3   0
          2 0002EF  7C20                                 LDV,R7   32
          2 0002F0  D380 0000 0000  xent                 LNJ,B5   X6C_ALRZ

      319    21280                /* In the case of a form read error, the error code was returned
      320    21281                   to us in a RDMULT buffer (not the TCB).  Since both read form
      321    21282                   and write form go through the QGB layer, it's safe to get the
      322    21283                   error code from the QGB_PARAM structure here. */
      323    21284    2           Q@FPABT.MSGS.ERR (2) = QGB_PARAM.ERR;

  21284   2 0002F3  8C80 0000 0005  xsym                 LDI      QGB_PARAM+5
          2 0002F6  8D47 00EF                            SDI      Q@FPABT+104,AUTO
          2 0002F8  0F81 0118                            B        s:21349,PREL

      324    21285
      325    21286    2         CASE ( %E$FRAME_NOT_ACTIVE );

      326    21287    2           Q@FPABT.MSGS.ERR (1) = VLP_ERRCODE_QB;

  21287   2 0002FA  8C80 0000 00A2  01                   LDI      VLP_ERRCODE_QB
          2 0002FD  8D47 00BD                            SDI      Q@FPABT+54,AUTO
PL6.E3A0      #001=QCE$ERRORS File=QCE$ERROR.:E05TSI                             WED 07/30/97 05:05 Page:52

      327    21288    2           Q@FPABT.MSGS.U1 (1) = FRAME_IDENTIFIER$ -> QI$VARIABLE_IDENTIFIER;

  21288   2 0002FF  DCC7 0081                            LDB,B5   FRAME_IDENTIFIER$,AUTO
          2 000301  D285                                 LLH,R5   ,B5
          2 000302  DF47 0158                            STR,R5   U_INDEX+4,AUTO
          2 000304  AB85                                 LAB,B2   ,B5
          2 000305  2C00                                 LDV,R2   0
          2 000306  E855                                 LDR,R6   R5
          2 000307  6E01                                 ADV,R6   1
          2 000308  BBC7 00BF                            LAB,B3   Q@FPABT+56,AUTO
          2 00030A  3C00                                 LDV,R3   0
          2 00030B  7C20                                 LDV,R7   32
          2 00030C  D380 0000 0000  xent                 LNJ,B5   X6C_ALRZ
          2 00030F  0F81 0101                            B        s:21349,PREL

      328    21289
      329    21290    2         CASE ( %E$FRAME_ALREADY_ACTIVATED,

      330    21291    2             %E$FRAME_ALREADY_DEACTIVATED );
      331    21292    2           Q@FPABT.MSGS.ERR (1) = VLP_ERRCODE_QBA;

  21292   2 000311  8C80 0000 00A4  01                   LDI      VLP_ERRCODE_QBA
          2 000314  8D47 00BD                            SDI      Q@FPABT+54,AUTO

      332    21293    2           Q@FPABT.MSGS.U1 (1) = FRAME_IDENTIFIER$ -> QI$VARIABLE_IDENTIFIER;

  21293   2 000316  DCC7 0081                            LDB,B5   FRAME_IDENTIFIER$,AUTO
          2 000318  D285                                 LLH,R5   ,B5
          2 000319  DF47 0158                            STR,R5   U_INDEX+4,AUTO
          2 00031B  AB85                                 LAB,B2   ,B5
          2 00031C  2C00                                 LDV,R2   0
          2 00031D  E855                                 LDR,R6   R5
          2 00031E  6E01                                 ADV,R6   1
          2 00031F  BBC7 00BF                            LAB,B3   Q@FPABT+56,AUTO
          2 000321  3C00                                 LDV,R3   0
          2 000322  7C20                                 LDV,R7   32
PL6.E3A0      #001=QCE$ERRORS File=QCE$ERROR.:E05TSI                             WED 07/30/97 05:05 Page:53
          2 000323  D380 0000 0000  xent                 LNJ,B5   X6C_ALRZ
          2 000326  0F81 00EA                            B        s:21349,PREL

      333    21294
      334    21295    2         CASE ( %E$VERIFY_GET_FIELD_DISABLED,

      335    21296    2             %E$VERIFY_ILLEGAL_DEFAULT );
      336    21297    2           Q@FPABT.MSGS.ERR (1) = VLP_ERRCODE_QBV;

  21297   2 000328  8C80 0000 00B2  01                   LDI      VLP_ERRCODE_QBV
          2 00032B  8D47 00BD                            SDI      Q@FPABT+54,AUTO

      337    21298    2           Q@FPABT.MSGS.U1 (1) = U1;

  21298   2 00032D  DCC7 0006                            LDB,B5   @U1,AUTO
          2 00032F  D285                                 LLH,R5   ,B5
          2 000330  DF47 0158                            STR,R5   U_INDEX+4,AUTO
          2 000332  AB85                                 LAB,B2   ,B5
          2 000333  2C00                                 LDV,R2   0
          2 000334  E855                                 LDR,R6   R5
          2 000335  6E01                                 ADV,R6   1
          2 000336  BBC7 00BF                            LAB,B3   Q@FPABT+56,AUTO
          2 000338  3C00                                 LDV,R3   0
          2 000339  7C20                                 LDV,R7   32
          2 00033A  D380 0000 0000  xent                 LNJ,B5   X6C_ALRZ
          2 00033D  0F81 00D3                            B        s:21349,PREL

      338    21299
      339    21300    2         CASE ( %E$POSTREAD_ILLEGAL_DEFAULT );

      340    21301    2           Q@FPABT.MSGS.ERR (1) = VLP_ERRCODE_QCR;

  21301   2 00033F  8C80 0000 00B8  01                   LDI      VLP_ERRCODE_QCR
          2 000342  8D47 00BD                            SDI      Q@FPABT+54,AUTO

      341    21302    2           Q@FPABT.MSGS.U1 (1) = U1;

PL6.E3A0      #001=QCE$ERRORS File=QCE$ERROR.:E05TSI                             WED 07/30/97 05:05 Page:54
  21302   2 000344  DCC7 0006                            LDB,B5   @U1,AUTO
          2 000346  D285                                 LLH,R5   ,B5
          2 000347  DF47 0158                            STR,R5   U_INDEX+4,AUTO
          2 000349  AB85                                 LAB,B2   ,B5
          2 00034A  2C00                                 LDV,R2   0
          2 00034B  E855                                 LDR,R6   R5
          2 00034C  6E01                                 ADV,R6   1
          2 00034D  BBC7 00BF                            LAB,B3   Q@FPABT+56,AUTO
          2 00034F  3C00                                 LDV,R3   0
          2 000350  7C20                                 LDV,R7   32
          2 000351  D380 0000 0000  xent                 LNJ,B5   X6C_ALRZ
          2 000354  0F81 00BC                            B        s:21349,PREL

      342    21303
      343    21304    2         CASE ( %E$BINARY_OVERFLOW,

      344    21305    2             %E$COMMERCIAL_ILLEGAL_CHARACTER,
      345    21306    2             %E$COMMERCIAL_DIVIDE_BY_ZERO,
      346    21307    2             %E$INCOMPATIBLE_VERSION,
      347    21308    2             %E$INSUFFICIENT_MEMORY );
      348    21309    2           Q@FPABT.MSGS.ERR (1) = VLP_ERRCODE_QI;

  21309   2 000356  8C80 0000 00BA  01                   LDI      VLP_ERRCODE_QI
          2 000359  8D47 00BD                            SDI      Q@FPABT+54,AUTO
          2 00035B  0F81 00B5                            B        s:21349,PREL

      349    21310
      350    21311    2         CASE ( %E$SUBSCRIPT_OUT_OF_SIGHT );

      351    21312    2           Q@FPABT.MSGS.ERR (1) = VLP_ERRCODE_QBS;

  21312   2 00035D  8C80 0000 00B0  01                   LDI      VLP_ERRCODE_QBS
          2 000360  8D47 00BD                            SDI      Q@FPABT+54,AUTO
          2 000362  0F81 00AE                            B        s:21349,PREL

      352    21313
      353    21314    2         CASE ( %E$SUBSCRIPT_OUT_OF_RANGE );
PL6.E3A0      #001=QCE$ERRORS File=QCE$ERROR.:E05TSI                             WED 07/30/97 05:05 Page:55

      354    21315    2           Q@FPABT.MSGS.ERR (1) = VLP_ERRCODE_QBS;

  21315   2 000364  8C80 0000 00B0  01                   LDI      VLP_ERRCODE_QBS
          2 000367  8D47 00BD                            SDI      Q@FPABT+54,AUTO

      355    21316    2           Q@FPABT.MSGS.U1 (1) = U1;

  21316   2 000369  DCC7 0006                            LDB,B5   @U1,AUTO
          2 00036B  D285                                 LLH,R5   ,B5
          2 00036C  DF47 0158                            STR,R5   U_INDEX+4,AUTO
          2 00036E  AB85                                 LAB,B2   ,B5
          2 00036F  2C00                                 LDV,R2   0
          2 000370  E855                                 LDR,R6   R5
          2 000371  6E01                                 ADV,R6   1
          2 000372  BBC7 00BF                            LAB,B3   Q@FPABT+56,AUTO
          2 000374  3C00                                 LDV,R3   0
          2 000375  7C20                                 LDV,R7   32
          2 000376  D380 0000 0000  xent                 LNJ,B5   X6C_ALRZ

      356    21317    2           Q@FPABT.MSGS.U2 (1) = U2;

  21317   2 000379  ECC7 0008                            LDB,B6   @U2,AUTO
          2 00037B  E286                                 LLH,R6   ,B6
          2 00037C  EF47 0158                            STR,R6   U_INDEX+4,AUTO
          2 00037E  AB86                                 LAB,B2   ,B6
          2 00037F  2C00                                 LDV,R2   0
          2 000380  6E01                                 ADV,R6   1
          2 000381  BBC7 00CF                            LAB,B3   Q@FPABT+72,AUTO
          2 000383  3C00                                 LDV,R3   0
          2 000384  7C20                                 LDV,R7   32
          2 000385  D380 0000 0000  xent                 LNJ,B5   X6C_ALRZ
          2 000388  0F81 0088                            B        s:21349,PREL

      357    21318
      358    21319    2         CASE ( %E$LOAD_ILLEGAL_FID );

PL6.E3A0      #001=QCE$ERRORS File=QCE$ERROR.:E05TSI                             WED 07/30/97 05:05 Page:56
      359    21320    2           Q@FPABT.MSGS.ERR (1) = VLP_ERRCODE_QBL;

  21320   2 00038A  8C80 0000 00A8  01                   LDI      VLP_ERRCODE_QBL
          2 00038D  8D47 00BD                            SDI      Q@FPABT+54,AUTO

      360    21321    2           Q@FPABT.MSGS.U1 (1) = U1;

  21321   2 00038F  DCC7 0006                            LDB,B5   @U1,AUTO
          2 000391  D285                                 LLH,R5   ,B5
          2 000392  DF47 0158                            STR,R5   U_INDEX+4,AUTO
          2 000394  AB85                                 LAB,B2   ,B5
          2 000395  2C00                                 LDV,R2   0
          2 000396  E855                                 LDR,R6   R5
          2 000397  6E01                                 ADV,R6   1
          2 000398  BBC7 00BF                            LAB,B3   Q@FPABT+56,AUTO
          2 00039A  3C00                                 LDV,R3   0
          2 00039B  7C20                                 LDV,R7   32
          2 00039C  D380 0000 0000  xent                 LNJ,B5   X6C_ALRZ
          2 00039F  0F81 0071                            B        s:21349,PREL

      361    21322
      362    21323    2         CASE ( %E$LOAD_ERROR );

      363    21324    2           Q@FPABT.MSGCNT# = 3;

  21324   2 0003A1  6C03                                 LDV,R6   3
          2 0003A2  EAC7 008A                            SRM,R6,'00FF'X    Q@FPABT+3,AUTO
          2 0003A4       00FF

      364    21325    2           Q@FPABT.MSGS.ERR (1) = VLP_ERRCODE_QBL;

  21325   2 0003A5  8C80 0000 00A8  01                   LDI      VLP_ERRCODE_QBL
          2 0003A8  8D47 00BD                            SDI      Q@FPABT+54,AUTO

      365    21326    2           Q@FPABT.MSGS.U1 (1) = U1;

  21326   2 0003AA  DCC7 0006                            LDB,B5   @U1,AUTO
PL6.E3A0      #001=QCE$ERRORS File=QCE$ERROR.:E05TSI                             WED 07/30/97 05:05 Page:57
          2 0003AC  D285                                 LLH,R5   ,B5
          2 0003AD  DF47 0158                            STR,R5   U_INDEX+4,AUTO
          2 0003AF  AB85                                 LAB,B2   ,B5
          2 0003B0  2C00                                 LDV,R2   0
          2 0003B1  E855                                 LDR,R6   R5
          2 0003B2  6E01                                 ADV,R6   1
          2 0003B3  BBC7 00BF                            LAB,B3   Q@FPABT+56,AUTO
          2 0003B5  3C00                                 LDV,R3   0
          2 0003B6  7C20                                 LDV,R7   32
          2 0003B7  D380 0000 0000  xent                 LNJ,B5   X6C_ALRZ

      366    21327    2           Q@FPABT.MSGS.ERR (2) = ADDR ( U2 ) -> G$ERR;

  21327   2 0003BA  ECC7 0008                            LDB,B6   @U2,AUTO
          2 0003BC  8C86                                 LDI      ,B6
          2 0003BD  8D47 00EF                            SDI      Q@FPABT+104,AUTO
          2 0003BF  0F81 0051                            B        s:21349,PREL

      367    21328
      368    21329    2         CASE ( %E$ABORT_EXECUTED );

      369    21330    2           Q@FPABT.MSGS.ERR (1) = VLP_ERRCODE_QBA;

  21330   2 0003C1  8C80 0000 00A4  01                   LDI      VLP_ERRCODE_QBA
          2 0003C4  8D47 00BD                            SDI      Q@FPABT+54,AUTO
          2 0003C6  0F81 004A                            B        s:21349,PREL

      370    21331
      371    21332    2         CASE ( %E$DE_EDIT_ILLEGAL_SOURCE );

      372    21333    2           Q@FPABT.MSGS.ERR (1) = VLP_ERRCODE_QBM;

  21333   2 0003C8  8C80 0000 00AA  01                   LDI      VLP_ERRCODE_QBM
          2 0003CB  8D47 00BD                            SDI      Q@FPABT+54,AUTO
          2 0003CD  0F81 0043                            B        s:21349,PREL

      373    21334
PL6.E3A0      #001=QCE$ERRORS File=QCE$ERROR.:E05TSI                             WED 07/30/97 05:05 Page:58
      374    21335    2         CASE ( %E$CALL_UNSATISFIED_REFERENCE );

      375    21336    2           Q@FPABT.MSGS.ERR (1) = VLP_ERRCODE_QBC;

  21336   2 0003CF  8C80 0000 00A6  01                   LDI      VLP_ERRCODE_QBC
          2 0003D2  8D47 00BD                            SDI      Q@FPABT+54,AUTO
          2 0003D4  0F81 003C                            B        s:21349,PREL

      376    21337
      377    21338    2         CASE ( %E$FIELD_OVERLAPS );

      378    21339    2           Q@FPABT.MSGS.ERR (1) = VLP_ERRCODE_QBA;

  21339   2 0003D6  8C80 0000 00A4  01                   LDI      VLP_ERRCODE_QBA
          2 0003D9  8D47 00BD                            SDI      Q@FPABT+54,AUTO

      379    21340    2           Q@FPABT.MSGS.U1 (1) = U1;

  21340   2 0003DB  DCC7 0006                            LDB,B5   @U1,AUTO
          2 0003DD  D285                                 LLH,R5   ,B5
          2 0003DE  DF47 0158                            STR,R5   U_INDEX+4,AUTO
          2 0003E0  AB85                                 LAB,B2   ,B5
          2 0003E1  2C00                                 LDV,R2   0
          2 0003E2  E855                                 LDR,R6   R5
          2 0003E3  6E01                                 ADV,R6   1
          2 0003E4  BBC7 00BF                            LAB,B3   Q@FPABT+56,AUTO
          2 0003E6  3C00                                 LDV,R3   0
          2 0003E7  7C20                                 LDV,R7   32
          2 0003E8  D380 0000 0000  xent                 LNJ,B5   X6C_ALRZ

      380    21341    2           Q@FPABT.MSGS.U2 (1) = U2;

  21341   2 0003EB  ECC7 0008                            LDB,B6   @U2,AUTO
          2 0003ED  E286                                 LLH,R6   ,B6
          2 0003EE  EF47 0158                            STR,R6   U_INDEX+4,AUTO
          2 0003F0  AB86                                 LAB,B2   ,B6
          2 0003F1  2C00                                 LDV,R2   0
PL6.E3A0      #001=QCE$ERRORS File=QCE$ERROR.:E05TSI                             WED 07/30/97 05:05 Page:59
          2 0003F2  6E01                                 ADV,R6   1
          2 0003F3  BBC7 00CF                            LAB,B3   Q@FPABT+72,AUTO
          2 0003F5  3C00                                 LDV,R3   0
          2 0003F6  7C20                                 LDV,R7   32
          2 0003F7  D380 0000 0000  xent                 LNJ,B5   X6C_ALRZ
          2 0003FA  0F81 0016                            B        s:21349,PREL

      381    21342
      382    21343    2         CASE ( %E$FIELD_SPACE_CADET );

      383    21344    2           Q@FPABT.MSGS.ERR (1) = VLP_ERRCODE_QBA;

  21344   2 0003FC  8C80 0000 00A4                       LDI      164
          2 0003FF  8D47 00BD                            SDI      Q@FPABT+54,AUTO

      384    21345    2           Q@FPABT.MSGS.U1 (1) = U1;

  21345   2 000401  DCC7 0006                            LDB,B5   @U1,AUTO
          2 000403  D285                                 LLH,R5   ,B5
          2 000404  DF47 0158                            STR,R5   U_INDEX+4,AUTO
          2 000406  AB85                                 LAB,B2   ,B5
          2 000407  2C00                                 LDV,R2   0
          2 000408  E855                                 LDR,R6   R5
          2 000409  6E01                                 ADV,R6   1
          2 00040A  BBC7 00BF                            LAB,B3   Q@FPABT+56,AUTO
          2 00040C  3C00                                 LDV,R3   0
          2 00040D  7C20                                 LDV,R7   32
          2 00040E  D380 0000 0000  xent                 LNJ,B5   X6C_ALRZ

      385    21346
      386    21347    2       END;

      387    21348
      388    21349    1       CALL BINCHAR ( SUBSTR ( USER_ERROR, 29, 3 ),

  21349   2 000411  ECC7 0004                            LDB,B6   @ERROR_CODE,AUTO
          2 000413  F806                                 LDR,R7   ,B6
PL6.E3A0      #001=QCE$ERRORS File=QCE$ERROR.:E05TSI                             WED 07/30/97 05:05 Page:60
          2 000414  6C00                                 LDV,R6   0
          2 000415  8D47 0158                            SDI      U_INDEX+4,AUTO
          2 000417  DB80 0000 0000  00                   LAB,B5   COLON_QQERRMSG
          2 00041A  0027                                 CBD      ;
          2 00041B       0407 0158                                BINARY(U_INDEX+4,AUTO,,4),;
          2 00041D       8305 0013                                UNPACKED(19,B5,1,3,UNSIGNED)

      389    21350    1         ERROR_CODE );
      390    21351    1       QCM@MESS.MESSAGE$ = ADDR ( USER_ERROR );

  21351   2 00041F  DB80 0000 0005  00                   LAB,B5   USER_ERROR
          2 000422  437F                                 CSYNC    s:21351+2,SPREL
          2 000423  DFC7 0125                            STB,B5   QCM@MESS+4,AUTO

      391    21352    1       QCM@MESS.MESSAGE_LENGTH = LENGTHC ( USER_ERROR );

  21352   2 000425  6C50                                 LDV,R6   80
          2 000426  EF47 0124                            STR,R6   QCM@MESS+3,AUTO

      392    21353    1       Q@FPABT.MSGS.ERR.ERR# (1) = ERROR_CODE;

  21353   2 000428  D806                                 LDR,R5   ,B6
          2 000429  5003                                 SOL,R5   3
          2 00042A  DAC7 00BE                            SRM,R5,'FFF8'X    Q@FPABT+55,AUTO
          2 00042C       FFF8

      393    21354
      394    21355    1       GOTO SPIT_UP;

  21355   2 00042D  0F81 00D4                            B        s:21449,PREL

      395    21356
      396    21357    1   QCE$ERROR_INTERNAL: ENTRY ( ERROR_CODE, U1, U2, U3 );

  21357   2 00042F  D380 0000 0000  xent QCE$ERROR_INTER*LNJ,B5   X6A_AUTO_N
          2 000432       015B 0005                       DC       347,5

PL6.E3A0      #001=QCE$ERRORS File=QCE$ERROR.:E05TSI                             WED 07/30/97 05:05 Page:61
      397    21358
      398    21359        /*D*  NAME:         QCE$ERROR_INTERNAL
      399    21360              CALL:         CALL QCE$ERROR_INTERNAL ( ERROR_CODE );
      400    21361              PARAMETERS:   ERROR_CODE contains an E$xxx for the Qxx FCG.
      401    21362              INTERFACE:    This entry point is used for aborting after detecting
      402    21363                            an internal inconsistency at any level.
      403    21364              ENVIRONMENT:  Ready to abandon ship.
      404    21365              INPUT:        QI_1[.ERROR_STATUS], etc.
      405    21366              OUTPUT:       Error messages up to the host.
      406    21367              SCRATCH:      Various otter data.
      407    21368              DESCRIPTION:  Abort appropriately.
      408    21369        */
      409    21370    1       Q@FPABT = Q_FPABT;

  21370   2 000434  AB80 0000 0000  01                   LAB,B2   HEX_TABLE
          2 000437  2C10                                 LDV,R2   16
          2 000438  E870 0134                            LDR,R6   308,IMO
          2 00043A  BBC7 0087                            LAB,B3   Q@FPABT,AUTO
          2 00043C  3C00                                 LDV,R3   0
          2 00043D  0008                                 MMM

      410    21371    1       Q@FPABT.MSGCNT# = 2;

  21371   2 00043E  6C02                                 LDV,R6   2
          2 00043F  EAC7 008A                            SRM,R6,'00FF'X    Q@FPABT+3,AUTO
          2 000441       00FF

      411    21372
      412    21373    1       CALL FORMAT_ABORT_MESSAGE;

  21373   2 000442  E3C0 0161                            LNJ,B6   s:0,PREL
          2 000444       0001                            DC       s:21375,PREL

      413    21374
      414    21375    1       Q@FPABT.MSGS.U1.LEN# (1) = 0;

  21375   2 000445  87C7 00BF                            CLH      Q@FPABT+56,AUTO
PL6.E3A0      #001=QCE$ERRORS File=QCE$ERROR.:E05TSI                             WED 07/30/97 05:05 Page:62

      415    21376    1       Q@FPABT.MSGS.U2.LEN# (1) = 0;

  21376   2 000447  87C7 00CF                            CLH      Q@FPABT+72,AUTO

      416    21377    1       Q@FPABT.MSGS.U3.LEN# (1) = 0;

  21377   2 000449  87C7 00DF                            CLH      Q@FPABT+88,AUTO

      417    21378
      418    21379    1       Q@FPABT.MSGS.ERR (1) = VLP_ERRCODE_QI;

  21379   2 00044B  8C80 0000 00BA  01                   LDI      VLP_ERRCODE_QI
          2 00044E  8D47 00BD                            SDI      Q@FPABT+54,AUTO

      419    21380    1       Q@FPABT.MSGS.ERR.ERR# (1) = ERROR_CODE;

  21380   2 000450  ECC7 0004                            LDB,B6   @ERROR_CODE,AUTO
          2 000452  D806                                 LDR,R5   ,B6
          2 000453  5003                                 SOL,R5   3
          2 000454  DAC7 00BE                            SRM,R5,'FFF8'X    Q@FPABT+55,AUTO
          2 000456       FFF8

      420    21381
      421    21382    1       CALL BINCHAR ( SUBSTR ( INTERNAL_ERROR, 32, 3 ),

  21382   2 000457  F806                                 LDR,R7   ,B6
          2 000458  6C00                                 LDV,R6   0
          2 000459  8D47 0158                            SDI      U_INDEX+4,AUTO
          2 00045B  DB80 0000 0000  00                   LAB,B5   COLON_QQERRMSG
          2 00045E  0027                                 CBD      ;
          2 00045F       0407 0158                                BINARY(U_INDEX+4,AUTO,,4),;
          2 000461       0305 003D                                UNPACKED(61,B5,,3,UNSIGNED)

      422    21383    1         ERROR_CODE );
      423    21384    1       QCM@MESS.MESSAGE$ = ADDR ( INTERNAL_ERROR );

PL6.E3A0      #001=QCE$ERRORS File=QCE$ERROR.:E05TSI                             WED 07/30/97 05:05 Page:63
  21384   2 000463  DB80 0000 002D  00                   LAB,B5   INTERNAL_ERROR
          2 000466  437F                                 CSYNC    s:21384+2,SPREL
          2 000467  DFC7 0125                            STB,B5   QCM@MESS+4,AUTO

      424    21385    1       GOTO SPIT_UP;

  21385   2 000469  0F81 0098                            B        s:21449,PREL

      425    21386
      426    21387    1   QCE$ERROR_M$INTERNAL: ENTRY ( ERROR_CODE, U1, U2, U3 );

  21387   2 00046B  D380 0000 0000  xent QCE$ERROR_M$INT*LNJ,B5   X6A_AUTO_N
          2 00046E       015B 0005                       DC       347,5

      427    21388
      428    21389        /*D*  NAME:         QCE$ERROR_M$INTERNAL
      429    21390              CALL:         CALL QCE$ERROR_M$INTERNAL ( ERROR_CODE );
      430    21391              PARAMETERS:   ERROR_CODE contains an E$xxx for the Qxx FCG.
      431    21392              INTERFACE:    This entry point is used for aborting after receiving
      432    21393                            an unexpected M$whatever ALTRET.
      433    21394              ENVIRONMENT:  Ready to abandon ship.
      434    21395              INPUT:        QI_1[.ERROR_STATUS], etc.
      435    21396              OUTPUT:       Error messages up to the host.
      436    21397              SCRATCH:      Various otter data.
      437    21398              DESCRIPTION:  Abort appropriately.
      438    21399                            Somehow it's been determined that the error received
      439    21400                            from M$whatever was an internal goof, e.g.,
      440    21401                            bad DCB# in FPT, etc.
      441    21402        */
      442    21403
      443    21404    1       Q@FPABT = Q_FPABT;

  21404   2 000470  AB80 0000 0000  01                   LAB,B2   HEX_TABLE
          2 000473  2C10                                 LDV,R2   16
          2 000474  E870 0134                            LDR,R6   308,IMO
          2 000476  BBC7 0087                            LAB,B3   Q@FPABT,AUTO
          2 000478  3C00                                 LDV,R3   0
PL6.E3A0      #001=QCE$ERRORS File=QCE$ERROR.:E05TSI                             WED 07/30/97 05:05 Page:64
          2 000479  0008                                 MMM

      444    21405    1       Q@FPABT.MSGCNT# = 3;

  21405   2 00047A  6C03                                 LDV,R6   3
          2 00047B  EAC7 008A                            SRM,R6,'00FF'X    Q@FPABT+3,AUTO
          2 00047D       00FF

      445    21406
      446    21407    1       CALL FORMAT_ABORT_MESSAGE;

  21407   2 00047E  E3C0 0125                            LNJ,B6   s:0,PREL
          2 000480       0001                            DC       s:21409,PREL

      447    21408
      448    21409    1       Q@FPABT.MSGS.U1.LEN# (1) = 8;

  21409   2 000481  6C08                                 LDV,R6   8
          2 000482  E7C7 00BF                            STH,R6   Q@FPABT+56,AUTO

      449    21410    1       Q@FPABT.MSGS.U2.LEN# (1) = 0;

  21410   2 000484  87C7 00CF                            CLH      Q@FPABT+72,AUTO

      450    21411    1       Q@FPABT.MSGS.U3.LEN# (1) = 0;

  21411   2 000486  87C7 00DF                            CLH      Q@FPABT+88,AUTO

      451    21412
      452    21413    1       Q@FPABT.MSGS.ERR (1) = VLP_ERRCODE_QI;

  21413   2 000488  8C80 0000 00BA  01                   LDI      VLP_ERRCODE_QI
          2 00048B  8D47 00BD                            SDI      Q@FPABT+54,AUTO

      453    21414
      454    21415    1       Q@FPABT.MSGS.U1.LEN# (2) = 0;

PL6.E3A0      #001=QCE$ERRORS File=QCE$ERROR.:E05TSI                             WED 07/30/97 05:05 Page:65
  21415   2 00048D  87C7 00F1                            CLH      Q@FPABT+106,AUTO

      455    21416    1       Q@FPABT.MSGS.U2.LEN# (2) = 0;

  21416   2 00048F  87C7 0101                            CLH      Q@FPABT+122,AUTO

      456    21417    1       Q@FPABT.MSGS.U3.LEN# (2) = 0;

  21417   2 000491  87C7 0111                            CLH      Q@FPABT+138,AUTO

      457    21418
      458    21419    2       DO CASE ( ERROR_CODE );

  21419   2 000493  ECC7 0004                            LDB,B6   @ERROR_CODE,AUTO
          2 000495  B806                                 LDR,R3   ,B6
          2 000496  3ECB                                 ADV,R3   -53
          2 000497  3D01                                 CMV,R3   1
          2 000498  0281 001E                            BGE      s:21427,PREL
          2 00049A  A830 0000 04A0  02                   LDR,R2   s:21419+13,R3
          2 00049D  83A0 0000 04A1  02                   JMP      s:21422,R2
          2 0004A0       0000                            DC       s:21422,PREL

      459    21420
      460    21421    2         CASE ( %E$INTERPRETER_TRAP );

      461    21422    2           Q@FPABT.MSGS.ERR.ERR# (1) = %E$INTERPRETER_TRAP;

  21422   2 0004A1  D870 01A8                            LDR,R5   424,IMO
          2 0004A3  DAC7 00BE                            SRM,R5,'FFF8'X    Q@FPABT+55,AUTO
          2 0004A5       FFF8

      462    21423    2           Q@FPABT.MSGS.ERR (2) = G$TCB$ -> G$TCB.STK$ -> G$EXCFR.TRLR.ERR;

  21423   2 0004A6  DC80 0000 0000  xsym                 LDB,B5   G$TCB$
          2 0004A9  CCC5 0002                            LDB,B4   2,B5
          2 0004AB  8CC4 002B                            LDI      43,B4
          2 0004AD  8D47 00EF                            SDI      Q@FPABT+104,AUTO
PL6.E3A0      #001=QCE$ERRORS File=QCE$ERROR.:E05TSI                             WED 07/30/97 05:05 Page:66

      463    21424    2           PROGRAM_COUNTER = G$TCB$ -> G$TCB.STK$ -> G$EXCFR.P$;

  21424   2 0004AF  CCC5 0002                            LDB,B4   2,B5
          2 0004B1  BCC4 0004                            LDB,B3   4,B4
          2 0004B3  BFC7 0084                            STB,B3   PROGRAM_COUNTER,AUTO
          2 0004B5  0F81 0013                            B        s:21433,PREL

      464    21425
      465    21426    2         CASE ( ELSE );

      466    21427    2           Q@FPABT.MSGS.ERR.ERR# (1) = %E$UNEXPECTED_ALTRET;

  21427   2 0004B7  D870 01B0                            LDR,R5   432,IMO
          2 0004B9  DAC7 00BE                            SRM,R5,'FFF8'X    Q@FPABT+55,AUTO
          2 0004BB       FFF8

      467    21428    2           Q@FPABT.MSGS.ERR (2) = G$TCB$ -> G$TCB.ALT$ -> G$EXCFR.TRLR.ERR;

  21428   2 0004BC  DC80 0000 0000  xsym                 LDB,B5   G$TCB$
          2 0004BF  CC85                                 LDB,B4   ,B5
          2 0004C0  8CC4 002B                            LDI      43,B4
          2 0004C2  8D47 00EF                            SDI      Q@FPABT+104,AUTO

      468    21429    2           PROGRAM_COUNTER = G$TCB$ -> G$TCB.ALT$ -> G$EXCFR.P$;

  21429   2 0004C4  CC85                                 LDB,B4   ,B5
          2 0004C5  BCC4 0004                            LDB,B3   4,B4
          2 0004C7  BFC7 0084                            STB,B3   PROGRAM_COUNTER,AUTO

      469    21430
      470    21431    2       END;

      471    21432
      472    21433    2       DO DIGIT_INDEX = 0 TO 7;

  21433   2 0004C9  8747 0086                            CL       DIGIT_INDEX,AUTO
PL6.E3A0      #001=QCE$ERRORS File=QCE$ERROR.:E05TSI                             WED 07/30/97 05:05 Page:67

      473    21434    2         SUBSTR ( Q@FPABT.MSGS.U1.NAME# (1), DIGIT_INDEX, 1 ) =

  21434   2 0004CB  ABC7 0084                            LAB,B2   PROGRAM_COUNTER,AUTO
          2 0004CD  A847 0086                            LDR,R2   DIGIT_INDEX,AUTO
          2 0004CF  2002                                 SOL,R2   2
          2 0004D0  6C04                                 LDV,R6   4
          2 0004D1  BBC7 0158                            LAB,B3   U_INDEX+4,AUTO
          2 0004D3  3C00                                 LDV,R3   0
          2 0004D4  7C10                                 LDV,R7   16
          2 0004D5  D380 0000 0000  xent                 LNJ,B5   X6B_BLR
          2 0004D8  E847 0158                            LDR,R6   U_INDEX+4,AUTO
          2 0004DA  604C                                 SOR,R6   12
          2 0004DB  B856                                 LDR,R3   R6
          2 0004DC  E0B0 0000 0000  01                   LDH,R6   HEX_TABLE,R3
          2 0004DF  EBC7 00BF                            LAB,B6   Q@FPABT+56,AUTO
          2 0004E1  B847 0086                            LDR,R3   DIGIT_INDEX,AUTO
          2 0004E3  3E01                                 ADV,R3   1
          2 0004E4  E7B6                                 STH,R6   ,B6,R3

      474    21435    2           SUBSTR ( HEX_TABLE, PROGRAM_COUNTER_DIGITS ( DIGIT_INDEX ), 1 );
      475    21436    2       END;

  21436   2 0004E5  8AC7 0086                            INC      DIGIT_INDEX,AUTO
          2 0004E7  E847 0086                            LDR,R6   DIGIT_INDEX,AUTO
          2 0004E9  6D07                                 CMV,R6   7
          2 0004EA  03E1                                 BLE      s:21434,SPREL

      476    21437
      477    21438    1       CALL BINCHAR ( SUBSTR ( INTERNAL_M$ERROR, 27, 3 ),

  21438   2 0004EB  ECC7 0004                            LDB,B6   @ERROR_CODE,AUTO
          2 0004ED  F806                                 LDR,R7   ,B6
          2 0004EE  6C00                                 LDV,R6   0
          2 0004EF  8D47 0158                            SDI      U_INDEX+4,AUTO
          2 0004F1  DB80 0000 0000  00                   LAB,B5   COLON_QQERRMSG
          2 0004F4  0027                                 CBD      ;
PL6.E3A0      #001=QCE$ERRORS File=QCE$ERROR.:E05TSI                             WED 07/30/97 05:05 Page:68
          2 0004F5       0407 0158                                BINARY(U_INDEX+4,AUTO,,4),;
          2 0004F7       8305 0062                                UNPACKED(98,B5,1,3,UNSIGNED)

      478    21439    1         ERROR_CODE );
      479    21440    1       QCM@MESS.MESSAGE$ = ADDR ( INTERNAL_M$ERROR );

  21440   2 0004F9  DB80 0000 0055  00                   LAB,B5   INTERNAL_M$ERROR
          2 0004FC  437F                                 CSYNC    s:21440+2,SPREL
          2 0004FD  DFC7 0125                            STB,B5   QCM@MESS+4,AUTO

      480    21441    1       QCM@MESS.MESSAGE_LENGTH = LENGTHC ( INTERNAL_M$ERROR );

  21441   2 0004FF  6C50                                 LDV,R6   80
          2 000500  EF47 0124                            STR,R6   QCM@MESS+3,AUTO

      481    21442
      482    21443    1   SPIT_UP:
      483    21444            /*  The following spits the error out on the message line
      484    21445                before sending it up to the host.  It may be used in
      485    21446                debugging, etc., and should only be turned on for good
      486    21447                in the extreme emergency that all this error message
      487    21448                stuff falls apart.  */
      488    21449    1       IF QI_1.ERROR_STATUS ~= QI_1.ERROR_STATUS

  21449   2 000502  E800 0000 008C  xsym SPIT_UP         LDR,R6   QI_1+140
          2 000505  E956                                 CMR,R6   R6
          2 000506  0901 0020                            BE       s:21461,PREL

      489    21450    1       THEN
      490    21451    1   MESSAGE_LINE_IT:
      491    21452    2         DO;

  21452   2                              MESSAGE_LINE_IT null
      492    21453    2           QCM@MESS.MESSAGE_LINE_GZ_HEADER$ = QI_1.MESSAGE_LINE_GZ.HEADER$;

  21453   2 000508  CC80 0000 0064  xsym MESSAGE_LINE_IT LDB,B4   QI_1+100
          2 00050B  CFC7 0121                            STB,B4   QCM@MESS,AUTO
PL6.E3A0      #001=QCE$ERRORS File=QCE$ERROR.:E05TSI                             WED 07/30/97 05:05 Page:69

      493    21454    2           QCM@MESS.IS_MESSAGE_A_DAD = %NO;

  21454   2 00050D  8747 0123                            CL       QCM@MESS+2,AUTO

      494    21455
      495    21456    2           CALL QCM$MESS ( QCM@MESS );

  21456   2 00050F  BBC7 0121                            LAB,B3   QCM@MESS,AUTO
          2 000511  BFC7 0158                            STB,B3   U_INDEX+4,AUTO
          2 000513  BBC7 0158                            LAB,B3   U_INDEX+4,AUTO
          2 000515  CBF0 0100                            LAB,B4   256,IMO
          2 000517  E380 0000 0000  xent                 LNJ,B6   QCM$MESS
          2 00051A       0001                            DC       s:21458,PREL

      496    21457
      497    21458    2           CALL QCM$MESS_PAUSE ( QCM@MESS );

  21458   2 00051B  EBC7 0121                            LAB,B6   QCM@MESS,AUTO
          2 00051D  EFC7 0158                            STB,B6   U_INDEX+4,AUTO
          2 00051F  BBC7 0158                            LAB,B3   U_INDEX+4,AUTO
          2 000521  CBF0 0100                            LAB,B4   256,IMO
          2 000523  E380 0000 0000  xent                 LNJ,B6   QCM$MESS_PAUSE
          2 000526       0001                            DC       s:21461,PREL

      498    21459    2         END MESSAGE_LINE_IT;

      499    21460
      500    21461    1       CALL QCU$RESTORE_PAGEHALT;

  21461   2 000527  CBF0 0000                            LAB,B4   0,IMO
          2 000529  E380 0000 0000  xent                 LNJ,B6   QCU$RESTORE_PAGEHALT
          2 00052C       0001                            DC       s:21463,PREL

      501    21462
      502    21463    1       FPT@OPEN = QI_FPT_OPEN;

PL6.E3A0      #001=QCE$ERRORS File=QCE$ERROR.:E05TSI                             WED 07/30/97 05:05 Page:70
  21463   2 00052D  AB80 0000 0000  xsym                 LAB,B2   QI_FPT_OPEN
          2 000530  2C00                                 LDV,R2   0
          2 000531  6C5E                                 LDV,R6   94
          2 000532  BB87                                 LAB,B3   ,AUTO
          2 000533  3C64                                 LDV,R3   100
          2 000534  0008                                 MMM

      503    21464    1       VBASE ( FPT@OPEN.V_ ) = ADDR ( FPT@OPEN.V );

  21464   2 000535  EBC7 0059                            LAB,B6   FPT@OPEN+39,AUTO
          2 000537  EFC7 0033                            STB,B6   FPT@OPEN+1,AUTO

      504    21465    1       FPT@OPEN.V.DCB# = QI_1.INITIALIZATION_BLOCK$ -> QI$INITIALIZATION_BLOCK.
             21465                VANILLA_HOST_DCB#;

  21465   2 000539  DC80 0000 000A  xsym                 LDB,B5   QI_1+10
          2 00053C  E845 0013                            LDR,R6   19,B5
          2 00053E  E7C7 0059                            STH,R6   FPT@OPEN+39,AUTO

      505    21466    1       FPT@OPEN.V.ORG = %G_ORG_CONSEC#;

  21466   2 000540  6C01                                 LDV,R6   1
          2 000541  E7C7 005B                            STH,R6   FPT@OPEN+41,AUTO

      506    21467    1       FPT@OPEN.V.RES = 'HO';

  21467   2 000543  CB80 0000 0000  01                   LAB,B4   HEX_TABLE
          2 000546  0021                                 ALR      ;
          2 000547       4204 00DD                                ALPHANUM(221,B4,,2),;
          2 000549       4407 005C                                ALPHANUM(FPT@OPEN+42,AUTO,,4,FILL)

      507    21468    1       FPT@OPEN.V.KEYTYPE = 3 /* MSGID */;

  21468   2 00054B  5C03                                 LDV,R5   3
          2 00054C  DAC7 005A                            SRM,R5,'00FF'X    FPT@OPEN+40,AUTO
          2 00054E       00FF

PL6.E3A0      #001=QCE$ERRORS File=QCE$ERROR.:E05TSI                             WED 07/30/97 05:05 Page:71
      508    21469
      509    21470    1       CALL M$OPEN ( FPT@OPEN );

  21470   2 00054F  BBC7 0032                            LAB,B3   FPT@OPEN,AUTO
          2 000551  B870 3540                            LDR,R3   13632,IMO
          2 000553  437F                                 CSYNC    s:21470+3,SPREL
          2 000554  0001                                 MCL
          2 000555       0000                            DC       s:21470+6,PREL

      510    21471
      511    21472    1       FPT@WRITE = QI_FPT_WRITE;

  21472   2 000556  AB80 0000 0000  xsym                 LAB,B2   QI_FPT_WRITE
          2 000559  2C00                                 LDV,R2   0
          2 00055A  6C24                                 LDV,R6   36
          2 00055B  BBC7 0061                            LAB,B3   FPT@WRITE,AUTO
          2 00055D  3C00                                 LDV,R3   0
          2 00055E  0008                                 MMM

      512    21473    1       VBASE ( FPT@WRITE.V_ ) = ADDR ( FPT@WRITE.V );

  21473   2 00055F  EBC7 0070                            LAB,B6   FPT@WRITE+15,AUTO
          2 000561  EFC7 0062                            STB,B6   FPT@WRITE+1,AUTO

      513    21474    1       FPT@WRITE.V.DCB# = FPT@OPEN.V.DCB#;

  21474   2 000563  E2C7 0059                            LLH,R6   FPT@OPEN+39,AUTO
          2 000565  E7C7 0070                            STH,R6   FPT@WRITE+15,AUTO

      514    21475    1       FPT@WRITE.CG_ = VECTOR ( VLP@CG );

  21475   2 000567  DBC7 0073                            LAB,B5   VLP@CG,AUTO
          2 000569  DFC7 0159                            STB,B5   U_INDEX+5,AUTO
          2 00056B  5C17                                 LDV,R5   23
          2 00056C  DF47 0158                            STR,R5   U_INDEX+4,AUTO
          2 00056E  ABC7 0158                            LAB,B2   U_INDEX+4,AUTO
          2 000570  2C00                                 LDV,R2   0
PL6.E3A0      #001=QCE$ERRORS File=QCE$ERROR.:E05TSI                             WED 07/30/97 05:05 Page:72
          2 000571  6C06                                 LDV,R6   6
          2 000572  BBC7 006A                            LAB,B3   FPT@WRITE+9,AUTO
          2 000574  3C00                                 LDV,R3   0
          2 000575  0008                                 MMM

      515    21476    1       VLP@CG = QI_VLP_CG;

  21476   2 000576  AB80 0000 0000  xsym                 LAB,B2   QI_VLP_CG
          2 000579  2C00                                 LDV,R2   0
          2 00057A  6C18                                 LDV,R6   24
          2 00057B  BBC7 0073                            LAB,B3   VLP@CG,AUTO
          2 00057D  3C00                                 LDV,R3   0
          2 00057E  0008                                 MMM

      516    21477    1       VLP@CG.MSGTYP# = '*FPABT';

  21477   2 00057F  EB80 0000 0000  01                   LAB,B6   HEX_TABLE
          2 000582  0021                                 ALR      ;
          2 000583       4606 00DE                                ALPHANUM(222,B6,,6),;
          2 000585       4807 0077                                ALPHANUM(VLP@CG+4,AUTO,,8,FILL)

      517    21478    1       FPT@WRITE.BUF_ = VECTOR ( Q@FPABT );

  21478   2 000587  EBC7 0087                            LAB,B6   Q@FPABT,AUTO
          2 000589  437F                                 CSYNC    s:21478+1,SPREL
          2 00058A  EFC7 0159                            STB,B6   U_INDEX+5,AUTO
          2 00058C  E870 0133                            LDR,R6   307,IMO
          2 00058E  EF47 0158                            STR,R6   U_INDEX+4,AUTO
          2 000590  ABC7 0158                            LAB,B2   U_INDEX+4,AUTO
          2 000592  2C00                                 LDV,R2   0
          2 000593  6C06                                 LDV,R6   6
          2 000594  BBC7 0067                            LAB,B3   FPT@WRITE+6,AUTO
          2 000596  3C00                                 LDV,R3   0
          2 000597  0008                                 MMM

      518    21479
      519    21480    1       CALL M$WRITE ( FPT@WRITE );
PL6.E3A0      #001=QCE$ERRORS File=QCE$ERROR.:E05TSI                             WED 07/30/97 05:05 Page:73

  21480   2 000598  BBC7 0061                            LAB,B3   FPT@WRITE,AUTO
          2 00059A  B870 1543                            LDR,R3   5443,IMO
          2 00059C  0001                                 MCL
          2 00059D       0000                            DC       s:21480+5,PREL

      520    21481
      521    21482    1       CALL M$ERR;

  21482   2 00059E  B870 0081                            LDR,R3   129,IMO
          2 0005A0  0001                                 MCL
          2 0005A1       0000                            DC       s:21482+3,PREL
          2 0005A2  0F81 0045                            B        s:21503,PREL

      522    21483
      523    21484        %EJECT;
PL6.E3A0      #001=QCE$ERRORS File=QCE$ERROR.:E05TSI                             WED 07/30/97 05:05 Page:74
      524    21485    1   FORMAT_ABORT_MESSAGE: PROC;

  21485   2 0005A4  EFC7 0156            FORMAT_ABORT_ME*STB,B6   U_INDEX+2,AUTO

      525    21486
      526    21487    2       Q@FPABT.MSGS.ERR (0) = VLP_ERRCODE_QIO;

  21487   2 0005A6  8C80 0000 00BC  01                   LDI      VLP_ERRCODE_QIO
          2 0005A9  8D47 008B                            SDI      Q@FPABT+4,AUTO

      527    21488    2       Q@FPABT.MSGS.ERR.ERR# (0) = QI_1.OP_CODE;

  21488   2 0005AB  D800 0000 0053  xsym                 LDR,R5   QI_1+83
          2 0005AE  5003                                 SOL,R5   3
          2 0005AF  DAC7 008C                            SRM,R5,'FFF8'X    Q@FPABT+5,AUTO
          2 0005B1       FFF8

      528    21489
      529    21490    2       Q@FPABT.MSGS.U1.LEN# (0) = 4;

  21490   2 0005B2  5C04                                 LDV,R5   4
          2 0005B3  D7C7 008D                            STH,R5   Q@FPABT+6,AUTO

      530    21491    2       Q@FPABT.MSGS.U2.LEN# (0) = 0;

  21491   2 0005B5  87C7 009D                            CLH      Q@FPABT+22,AUTO

      531    21492    2       Q@FPABT.MSGS.U3.LEN# (0) = 0;

  21492   2 0005B7  87C7 00AD                            CLH      Q@FPABT+38,AUTO

      532    21493    2       INSTRUCTION_OFFSET = POFFW ( QI_1.CURR_INSTR$,

  21493   2 0005B9  8C80 0000 0008  xsym                 LDI      QI_1+8
          2 0005BC  8480 0000 0002  xsym                 SID      QI_1+2
          2 0005BF  E857                                 LDR,R6   R7
          2 0005C0  EF47 0083                            STR,R6   INSTRUCTION_OFFSET,AUTO
PL6.E3A0      #001=QCE$ERRORS File=QCE$ERROR.:E05TSI                             WED 07/30/97 05:05 Page:75

      533    21494    2         QI_1.BASE.PROC$ );
      534    21495    3       DO DIGIT_INDEX = 0 TO 3;

  21495   2 0005C2  8747 0086                            CL       DIGIT_INDEX,AUTO

      535    21496    3         SUBSTR ( Q@FPABT.MSGS.U1.NAME# (0), DIGIT_INDEX, 1 ) =

  21496   2 0005C4  ABC7 0083                            LAB,B2   INSTRUCTION_OFFSET,AUTO
          2 0005C6  A847 0086                            LDR,R2   DIGIT_INDEX,AUTO
          2 0005C8  2002                                 SOL,R2   2
          2 0005C9  6C04                                 LDV,R6   4
          2 0005CA  BBC7 0158                            LAB,B3   U_INDEX+4,AUTO
          2 0005CC  3C00                                 LDV,R3   0
          2 0005CD  7C10                                 LDV,R7   16
          2 0005CE  D380 0000 0000  xent                 LNJ,B5   X6B_BLR
          2 0005D1  E847 0158                            LDR,R6   U_INDEX+4,AUTO
          2 0005D3  604C                                 SOR,R6   12
          2 0005D4  B856                                 LDR,R3   R6
          2 0005D5  E0B0 0000 0000  01                   LDH,R6   HEX_TABLE,R3
          2 0005D8  EBC7 008D                            LAB,B6   Q@FPABT+6,AUTO
          2 0005DA  B847 0086                            LDR,R3   DIGIT_INDEX,AUTO
          2 0005DC  3E01                                 ADV,R3   1
          2 0005DD  E7B6                                 STH,R6   ,B6,R3

      536    21497    3           SUBSTR ( HEX_TABLE, INSTRUCTION_OFFSET_DIGITS ( DIGIT_INDEX ), 1 );
      537    21498    3       END;

  21498   2 0005DE  8AC7 0086                            INC      DIGIT_INDEX,AUTO
          2 0005E0  E847 0086                            LDR,R6   DIGIT_INDEX,AUTO
          2 0005E2  6D03                                 CMV,R6   3
          2 0005E3  03E1                                 BLE      s:21496,SPREL

      538    21499
      539    21500    2       RETURN;

  21500   2 0005E4  ECC7 0156                            LDB,B6   U_INDEX+2,AUTO
PL6.E3A0      #001=QCE$ERRORS File=QCE$ERROR.:E05TSI                             WED 07/30/97 05:05 Page:76
          2 0005E6  C3C6 0001                            LNJ,B4   1,B6

      540    21501
      541    21502    2   END FORMAT_ABORT_MESSAGE;
      542    21503    1   END QCE$ERRORS;

  21503   2 0005E8  C380 0000 0000  xent                 LNJ,B4   X6A_ARET
      543    21504        %EOD;

PL6.E3A0      #001=QCE$ERRORS File=QCE$ERROR.:E05TSI                             WED 07/30/97 05:05 Page:77
--  Include file information  --

   QCM_MESS_M.:E05TOU  is referenced.
   Q_MACRO_C.:E05TOU  is referenced.
   QI_MACROS_M.:E05TOU  is referenced.
   QI_PERR_C.:E05TOU  is referenced.
   QI_EQUATES_E.:E05TOU  is referenced.
   QG_MACRO_M.:E05TOU  is referenced.
   LCP_6.:E05TOU  cannot be made into a system file and is referenced.
   G_LCP6_E.:E05TOU  was found in the system file and is referenced.
   GT_LCP6_M.:E05TOU  was found in the system file and is referenced.
   KI_CP6.:E05TOU  was found in the system file and is referenced.
   GF_LCP6_M.:E05TOU  was found in the system file and is referenced.
   GM_LCP6_M.:E05TOU  was found in the system file and is referenced.
   GU_LCP6_M.:E05TOU  was found in the system file and is referenced.
   GJ_LCP6_M.:E05TOU  was found in the system file and is referenced.
   GH_LCP6_M.:E05TOU  was found in the system file and is referenced.
      No diagnostics issued in procedure QCE$ERRORS.
PL6.E3A0      #001=QCE$ERRORS File=QCE$ERROR.:E05TSI                             WED 07/30/97 05:05 Page:78

 **** Variables and constants ****

  ****  Section 000  Data  QCE$ERRORS

  ****  Scalars and arrays  ****
HexLoc.c.b A Datatyp(siz) R M Lvl/name                 HexLoc.c.b A Datatyp(siz) R M Lvl/name

     0-0-0/c STRC(80)    r     1 COLON_QQERRMSG            2D-0-0/c CHAR(80)    r     1 INTERNAL_ERROR
    55-0-0/c CHAR(80)    r     1 INTERNAL_M$ERROR           5-0-0/c CHAR(80)    r     1 USER_ERROR

  ****  Section 001 RoData QCE$ERRORS

  ****  Scalars and arrays  ****
HexLoc.c.b A Datatyp(siz) R M Lvl/name                 HexLoc.c.b A Datatyp(siz) R M Lvl/name

     0-0-0/c CHAR(16)    r     1 HEX_TABLE                  8-0-0/c STRC(2464)  r     1 Q_FPABT
    A2-0-0/w STRC(32)    r     1 VLP_ERRCODE_QB            A4-0-0/w STRC(32)    r     1 VLP_ERRCODE_QBA
    A6-0-0/w STRC(32)    r     1 VLP_ERRCODE_QBC           A8-0-0/w STRC(32)    r     1 VLP_ERRCODE_QBL
    AA-0-0/w STRC(32)    r     1 VLP_ERRCODE_QBM           AC-0-0/w STRC(32)    r     1 VLP_ERRCODE_QBO
    AE-0-0/w STRC(32)    r     1 VLP_ERRCODE_QBR           B0-0-0/w STRC(32)    r     1 VLP_ERRCODE_QBS
    B2-0-0/w STRC(32)    r     1 VLP_ERRCODE_QBV           B4-0-0/w STRC(32)    r     1 VLP_ERRCODE_QBW
    B6-0-0/w STRC(32)    r     1 VLP_ERRCODE_QCI           B8-0-0/w STRC(32)    r     1 VLP_ERRCODE_QCR
    BA-0-0/w STRC(32)    r     1 VLP_ERRCODE_QI            BC-0-0/w STRC(32)    r     1 VLP_ERRCODE_QIO

  ****  Auto variables  ****

  ****  Scalars and arrays  ****
HexLoc.c.b A Datatyp(siz) R M Lvl/name                 HexLoc.c.b A Datatyp(siz) R M Lvl/name

     4-0-0/w PTR         r     1 @ERROR_CODE                C-0-0/w PTR         r     1 @ERROR_MESSAGE
     6-0-0/w PTR         r     1 @U1                        8-0-0/w PTR         r     1 @U2
     A-0-0/w PTR         r     1 @U3                       86-0-0/w UBIN(16)    r     1 DIGIT_INDEX
    *0-0-0/w UBIN(16)    r     1 ERROR_CODE                *0-0-0/w CHAR(80)    r     1 ERROR_MESSAGE
   12C-0-0/w CHAR(80)    r     1 ERROR_MESSAGE_SAVE        7F-0-0/w PTR         r     1 FILE_IDENTIFIER$
     E-0-0/w STRC(560)   r     1 FPT@ERRMSG                32-0-0/w STRC(752)   r     1 FPT@OPEN
    61-0-0/w STRC(288)   r     1 FPT@WRITE                 81-0-0/w PTR         r     1 FRAME_IDENTIFIER$
    83-0-0/w UBIN(16)    r     1 INSTRUCTION_OFFSET
PL6.E3A0      #001=QCE$ERRORS File=QCE$ERROR.:E05TSI                             WED 07/30/97 05:05 Page:79
    83-0-0/w UBIN(4)     r     1 INSTRUCTION_OFFSET_DIGITS(0:3)
    84-0-0/w PTR         r     1 PROGRAM_COUNTER
    84-0-0/w UBIN(4)     r     1 PROGRAM_COUNTER_DIGITS(0:7)
    87-0-0/c STRC(2464)  r     1 Q@FPABT                  121-0-0/w STRC(176)   r     1 QCM@MESS
    *0-0-0/w ASTR(8)     r     1 U1                        *0-0-0/w ASTR(8)     r     1 U2
    *0-0-0/w ASTR(8)     r     1 U3                       154-0-0/w UBIN(16)    r     1 U_INDEX
    73-0-0/w STRC(192)   r     1 VLP@CG                    31-0-0/w STRC(16)    r     1 VLR@ERRMSG

  ****  SYMREF variables  ****

  ****  Scalars and arrays  ****
HexLoc.c.b A Datatyp(siz) R M Lvl/name                 HexLoc.c.b A Datatyp(siz) R M Lvl/name

     0-0-0/w PTR         r     1 G$TCB$                     0-0-0/w STRC(432)   r     1 QGB_PARAM
     0-0-0/d STRC(2576)  r     1 QI_1                       0-0-0/w STRC(560)   r     1 QI_FPT_ERRMSG
     0-0-0/w STRC(752)   r     1 QI_FPT_OPEN                0-0-0/w STRC(288)   r     1 QI_FPT_WRITE
     0-0-0/w STRC(192)   r     1 QI_VLP_CG

  ****  BASED and DCB variables  ****

  ****  Scalars and arrays  ****
HexLoc.c.b A Datatyp(siz) R M Lvl/name                 HexLoc.c.b A Datatyp(siz) R M Lvl/name

     0-0-0/w STRC(32)    r     1 G$ERR                      0-0-0/w STRC(736)   r     1 G$EXCFR
     0-0-0/w STRC(96)    r     1 G$TCB                      0-0-0/w STRC(176)   r     1 QI$FILE
     0-0-0/w STRC(128)   r     1 QI$FRAME
     0-0-0/w STRC(336)   r     1 QI$INITIALIZATION_BLOCK
     0-0-0/c ASTR(8)     r     1 QI$VARIABLE_IDENTIFIER


   Procedure QCE$ERRORS requires 1515 words for executable code.
   Procedure QCE$ERRORS requires 347 words of local(AUTO) storage.
PL6.E3A0      #001=QCE$ERRORS File=QCE$ERROR.:E05TSI                             WED 07/30/97 05:05 Page:80
          *** CROSS REFERENCE LISTING ***
**     DENOTES     IDENTIFIER DEFINITION
<<                 IDENTIFIER'S VALUE SET
>>                 IDENTIFIER'S VALUE USED
<>                 IDENTIFIER SET AND/OR USED
--                 IDENTIFIER REFERENCED
PL6.E3A0      #001=QCE$ERRORS File=QCE$ERROR.:E05TSI                             WED 07/30/97 05:05 Page:81
          MINI XREF LISTING

COLON_QQERRMSG
     20050**DCL     21077--ASSIGN
DIGIT_INDEX
     20061**DCL     21433<<DOINDEX 21434>>ASSIGN  21434>>ASSIGN  21495<<DOINDEX 21496>>ASSIGN  21496>>ASSIGN
ERROR_CODE
     20010**DCL        16--PROC    21042--ENTRY   21062>>DOCASE  21072>>ASSIGN  21120--ENTRY   21243>>DOCASE
     21349>>CALLBLT 21353>>ASSIGN  21357--ENTRY   21380>>ASSIGN  21382>>CALLBLT 21387--ENTRY   21419>>DOCASE
     21438>>CALLBLT
ERROR_MESSAGE
     20020**DCL        16--PROC    21042--ENTRY   21075<<ASSIGN  21076--ASSIGN  21100<<ASSIGN  21107>>ASSIGN
     21113<<ASSIGN  21114<<ASSIGN
ERROR_MESSAGE_SAVE
     21039**DCL     21107<<ASSIGN  21108>>CALLBLT 21114>>ASSIGN
FILE_IDENTIFIER$
     20052**DCL     21177<<ASSIGN  21197<<ASSIGN  21254>>ASSIGN  21254>>ASSIGN  21258>>ASSIGN  21258>>ASSIGN
     21262>>ASSIGN  21262>>ASSIGN  21266>>ASSIGN  21266>>ASSIGN  21273>>ASSIGN  21273>>ASSIGN  21279>>ASSIGN
     21279>>ASSIGN
FORMAT_ABORT_MESSAGE
     21485**PROC    21138--CALL    21373--CALL    21407--CALL
FPT@ERRMSG
       223**DCL     21059<<ASSIGN  21090<>CALL
FPT@ERRMSG.BUF_
       226**DCL     21076<<ASSIGN
FPT@ERRMSG.CODE_
       226**DCL     21073<<ASSIGN
FPT@ERRMSG.FIELD1_
       228**DCL     21080<<ASSIGN
FPT@ERRMSG.FIELD2_
       228**DCL     21083<<ASSIGN
FPT@ERRMSG.FIELD3_
       228**DCL     21086<<ASSIGN
FPT@ERRMSG.FILENAME_
PL6.E3A0      #001=QCE$ERRORS File=QCE$ERROR.:E05TSI                             WED 07/30/97 05:05 Page:82
       226**DCL     21077<<ASSIGN
FPT@ERRMSG.RESULTS_
       229**DCL     21088<<ASSIGN
FPT@ERRMSG.V
       229**DCL     21060--ASSIGN
FPT@ERRMSG.V_
       226**DCL     21060<<ASSIGN
FPT@OPEN
       270**DCL     21463<<ASSIGN  21470<>CALL
FPT@OPEN.V
       278**DCL     21464--ASSIGN
FPT@OPEN.V.DCB#
       278**DCL     21465<<ASSIGN  21474>>ASSIGN
FPT@OPEN.V.KEYTYPE
       280**DCL     21468<<ASSIGN
FPT@OPEN.V.ORG
       280**DCL     21466<<ASSIGN
FPT@OPEN.V.RES
       281**DCL     21467<<ASSIGN
FPT@OPEN.V_
       272**DCL     21464<<ASSIGN
FPT@WRITE
       299**DCL     21472<<ASSIGN  21480<>CALL
FPT@WRITE.BUF_
       301**DCL     21478<<ASSIGN
FPT@WRITE.CG_
       301**DCL     21475<<ASSIGN
FPT@WRITE.V
       304**DCL     21473--ASSIGN
FPT@WRITE.V.DCB#
       304**DCL     21474<<ASSIGN
FPT@WRITE.V_
       301**DCL     21473<<ASSIGN
FRAME_IDENTIFIER$
     20053**DCL     21221<<ASSIGN  21241<<ASSIGN  21288>>ASSIGN  21288>>ASSIGN  21293>>ASSIGN  21293>>ASSIGN
G$ERR
PL6.E3A0      #001=QCE$ERRORS File=QCE$ERROR.:E05TSI                             WED 07/30/97 05:05 Page:83
       346**DCL     21327>>ASSIGN
G$EXCFR.P$
       447**DCL     21424>>ASSIGN  21429>>ASSIGN
G$EXCFR.P$$
       447**DCL       447--REDEF     447--REDEF
G$EXCFR.PREVSZ
       397**DCL       397--REDEF
G$EXCFR.TRLR.ERR
       727**DCL     21267>>ASSIGN  21274>>ASSIGN  21423>>ASSIGN  21428>>ASSIGN
G$EXCFR.TRLR.EVID
       684**DCL       702--REDEF     710--REDEF     710--REDEF
G$EXCFR.TRLR.SUBC
       661**DCL       661--REDEF     679--REDEF     683--REDEF     683--REDEF
G$TCB.ALT$
       778**DCL     21267>>ASSIGN  21274>>ASSIGN  21428>>ASSIGN  21429>>ASSIGN
G$TCB.STK$
       778**DCL     21423>>ASSIGN  21424>>ASSIGN
G$TCB$
       781**DCL     21267>>ASSIGN  21274>>ASSIGN  21423>>ASSIGN  21424>>ASSIGN  21428>>ASSIGN  21429>>ASSIGN
HEX_TABLE
     20054**DCL     21434>>ASSIGN  21496>>ASSIGN
IGNORE_ALTRET_TEMPORARILY
     21094**LABEL   21090--CALLALT
INSTRUCTION_OFFSET
     20055**DCL     20056--REDEF   21493<<ASSIGN
INSTRUCTION_OFFSET_DIGITS
     20056**DCL     21496>>ASSIGN
INTERNAL_ERROR
     20935**DCL     21382<<CALLBLT 21384--ASSIGN
INTERNAL_M$ERROR
     20937**DCL     21438<<CALLBLT 21440--ASSIGN  21441--ASSIGN
M$ERR
       168**DCL-ENT 21482--CALL
M$ERRMSG
       181**DCL-ENT 21090--CALL
M$OPEN
PL6.E3A0      #001=QCE$ERRORS File=QCE$ERROR.:E05TSI                             WED 07/30/97 05:05 Page:84
       190**DCL-ENT 21470--CALL
M$WRITE
       191**DCL-ENT 21480--CALL
PROGRAM_COUNTER
     20058**DCL     20059--REDEF   21424<<ASSIGN  21429<<ASSIGN
PROGRAM_COUNTER_DIGITS
     20059**DCL     21434>>ASSIGN
Q@FPABT
     20173**DCL     21135<<ASSIGN  21370<<ASSIGN  21404<<ASSIGN  21478--ASSIGN
Q@FPABT.MSGCNT#
     20183**DCL     21136<<ASSIGN  21324<<ASSIGN  21371<<ASSIGN  21405<<ASSIGN
Q@FPABT.MSGS.ERR
     20207**DCL     21065<<ASSIGN  21068<<ASSIGN  21073--ASSIGN  21246<<ASSIGN  21253<<ASSIGN  21257<<ASSIGN
     21261<<ASSIGN  21265<<ASSIGN  21267<<ASSIGN  21272<<ASSIGN  21274<<ASSIGN  21278<<ASSIGN  21284<<ASSIGN
     21287<<ASSIGN  21292<<ASSIGN  21297<<ASSIGN  21301<<ASSIGN  21309<<ASSIGN  21312<<ASSIGN  21315<<ASSIGN
     21320<<ASSIGN  21325<<ASSIGN  21327<<ASSIGN  21330<<ASSIGN  21333<<ASSIGN  21336<<ASSIGN  21339<<ASSIGN
     21344<<ASSIGN  21379<<ASSIGN  21413<<ASSIGN  21423<<ASSIGN  21428<<ASSIGN  21487<<ASSIGN
Q@FPABT.MSGS.ERR.ERR#
     20234**DCL     21072<<ASSIGN  21353<<ASSIGN  21380<<ASSIGN  21422<<ASSIGN  21427<<ASSIGN  21488<<ASSIGN
Q@FPABT.MSGS.U1
     20237**DCL     21254<<ASSIGN  21258<<ASSIGN  21262<<ASSIGN  21266<<ASSIGN  21273<<ASSIGN  21279<<ASSIGN
     21288<<ASSIGN  21293<<ASSIGN  21298<<ASSIGN  21302<<ASSIGN  21316<<ASSIGN  21321<<ASSIGN  21326<<ASSIGN
     21340<<ASSIGN  21345<<ASSIGN
Q@FPABT.MSGS.U1.LEN#
     20238**DCL     21140<<ASSIGN  21375<<ASSIGN  21409<<ASSIGN  21415<<ASSIGN  21490<<ASSIGN
Q@FPABT.MSGS.U1.NAME#
     20239**DCL     21434<<ASSIGN  21496<<ASSIGN
Q@FPABT.MSGS.U2
     20240**DCL     21317<<ASSIGN  21341<<ASSIGN
Q@FPABT.MSGS.U2.LEN#
     20241**DCL     21141<<ASSIGN  21376<<ASSIGN  21410<<ASSIGN  21416<<ASSIGN  21491<<ASSIGN
Q@FPABT.MSGS.U3.LEN#
     20244**DCL     21142<<ASSIGN  21377<<ASSIGN  21411<<ASSIGN  21417<<ASSIGN  21492<<ASSIGN
QCM$MESS
     20940**DCL-ENT 21456--CALL
QCM$MESS_PAUSE
PL6.E3A0      #001=QCE$ERRORS File=QCE$ERROR.:E05TSI                             WED 07/30/97 05:05 Page:85
     20941**DCL-ENT 21458--CALL
QCM@MESS
     21003**DCL     21456<>CALL    21458<>CALL
QCM@MESS.IS_MESSAGE_A_DAD
     21007**DCL     21454<<ASSIGN
QCM@MESS.MESSAGE$
     21013**DCL     21351<<ASSIGN  21384<<ASSIGN  21440<<ASSIGN
QCM@MESS.MESSAGE_LENGTH
     21011**DCL     21352<<ASSIGN  21441<<ASSIGN
QCM@MESS.MESSAGE_LINE_GZ_HEADER$
     21004**DCL     21453<<ASSIGN
QCU$RESTORE_PAGEHALT
     20942**DCL-ENT 21461--CALL
QGB_PARAM.DVE.DVBYTE.VFC
     12448**DCL     12449--REDEF
QGB_PARAM.DVE.EOMCHAR
     12460**DCL     12461--REDEF
QGB_PARAM.ERR
     12412**DCL     21284>>ASSIGN
QGB_PARAM.MSG$
     12442**DCL     12443--REDEF
QGB_PARAM.UHDR$
     12467**DCL     12468--REDEF
QI$ACTIVATION_STATUS
     10206**DCL     10212--REDEF
QI$CIP
      9047**DCL      9117--REDEF
QI$CIP.CA
      9052**DCL      9056--REDEF    9059--REDEF    9062--REDEF
QI$COBOL_DAD.PSEUDO_CIP
      9291**DCL      9316--REDEF
QI$COBOL_DAD.PSEUDO_CIP.ALPHANUMERIC
      9293**DCL      9298--REDEF
QI$COBOL_DAD.PSEUDO_CIP.NUMERIC.CB
      9299**DCL      9302--REDEF    9305--REDEF
QI$COBOL_DAD.VARIABLE_LENGTH_ITEMS
PL6.E3A0      #001=QCE$ERRORS File=QCE$ERROR.:E05TSI                             WED 07/30/97 05:05 Page:86
      9327**DCL      9343--REDEF    9351--REDEF    9359--REDEF
QI$COBOL_DAD.VARIABLE_LENGTH_ITEMS.LEVEL_MULTIPLIERS
      9328**DCL      9338--REDEF    9341--REDEF
QI$COBOL_DAD.WORD0
      9255**DCL      9256--REDEF    9270--REDEF
QI$COBOL_DAD_P_BITS.P
      9395**DCL      9401--REDEF
QI$CONDITION_CONTROL_BLOCK.LIST_A@P
      8881**DCL      8882--REDEF
QI$CONDITION_CONTROL_BLOCK.WORD0_FLAGS
      8877**DCL      8880--REDEF
QI$CONDITION_LEGAL_BLOCK.ARRAY@P
      8914**DCL      8915--REDEF    8916--REDEF
QI$DAD.PSEUDO_CIP
      9194**DCL      9219--REDEF
QI$DAD.PSEUDO_CIP.ALPHANUMERIC
      9196**DCL      9201--REDEF
QI$DAD.PSEUDO_CIP.NUMERIC.CB
      9202**DCL      9205--REDEF    9208--REDEF
QI$DAD.WORD0
      9163**DCL      9164--REDEF
QI$ERROR_MESSAGE_LINE
     12555**DCL     12557--REDEF
QI$ERROR_STATUS
     12552**DCL     12554--REDEF
QI$FIELD_DAD.ELEMENTARY_ITEM.P
      9609**DCL      9616--REDEF
QI$FIELD_DAD.ONE_DIMENSIONAL_ITEM.P
      9629**DCL      9636--REDEF
QI$FIELD_DAD.PSEUDO_CIP
      9536**DCL      9561--REDEF
QI$FIELD_DAD.PSEUDO_CIP.ALPHANUMERIC
      9538**DCL      9543--REDEF
QI$FIELD_DAD.PSEUDO_CIP.NUMERIC.CB
      9544**DCL      9547--REDEF    9550--REDEF
QI$FIELD_DAD.TWO_DIMENSIONAL_ITEM.P
PL6.E3A0      #001=QCE$ERRORS File=QCE$ERROR.:E05TSI                             WED 07/30/97 05:05 Page:87
      9649**DCL      9656--REDEF
QI$FIELD_DAD.VARIABLE_LENGTH_ITEMS
      9592**DCL      9608--REDEF    9626--REDEF    9644--REDEF
QI$FIELD_DAD.VARIABLE_LENGTH_ITEMS.LEVEL_MULTIPLIERS
      9593**DCL      9603--REDEF    9606--REDEF
QI$FIELD_DAD.WORD0
      9488**DCL      9489--REDEF
QI$FIELD_DAD.WORD0_FLAGS.IO_FLAGS
      9492**DCL      9497--REDEF
QI$FIELD_DAD_P.P
      9690**DCL      9697--REDEF
QI$FIELD_STATUS.INDICATORS
     10356**DCL     10388--REDEF
QI$FIELD_STATUS.INDICATORS.ENABLED_FLAGS
     10360**DCL     10365--REDEF
QI$FIELD_STATUS.INDICATORS.OPEN_FLAGS
     10372**DCL     10379--REDEF
QI$FIELD_STATUS.INDICATORS.STATE_FLAGS
     10366**DCL     10371--REDEF
QI$FILE.IDENTIFIER@P
      9833**DCL     21177>>ASSIGN
QI$FILE.WORD0
      9812**DCL      9813--REDEF
QI$FILE_STATUS.INDICATORS
     10649**DCL     10681--REDEF
QI$FILE_STATUS.INDICATORS.ENABLED_FLAGS
     10653**DCL     10658--REDEF
QI$FILE_STATUS.INDICATORS.OPEN_FLAGS
     10665**DCL     10672--REDEF
QI$FILE_STATUS.INDICATORS.STATE_FLAGS
     10659**DCL     10664--REDEF
QI$FORM_FILE.USE_PROCEDURE
      9912**DCL      9919--REDEF
QI$FORM_FILE.WORD0
      9866**DCL      9867--REDEF
QI$FORM_STATUS.INDICATORS
PL6.E3A0      #001=QCE$ERRORS File=QCE$ERROR.:E05TSI                             WED 07/30/97 05:05 Page:88
     10770**DCL     10802--REDEF
QI$FORM_STATUS.INDICATORS.ENABLED_FLAGS
     10774**DCL     10779--REDEF
QI$FORM_STATUS.INDICATORS.OPEN_FLAGS
     10786**DCL     10793--REDEF
QI$FORM_STATUS.INDICATORS.STATE_FLAGS
     10780**DCL     10785--REDEF
QI$FRAME.IDENTIFIER@P
     10044**DCL     21221>>ASSIGN
QI$FRAME.WORD0
     10027**DCL     10028--REDEF
QI$FRAME_STATUS.INDICATORS
     10999**DCL     11031--REDEF
QI$FRAME_STATUS.INDICATORS.ENABLED_FLAGS
     11003**DCL     11008--REDEF
QI$FRAME_STATUS.INDICATORS.OPEN_FLAGS
     11015**DCL     11022--REDEF
QI$FRAME_STATUS.INDICATORS.STATE_FLAGS
     11009**DCL     11014--REDEF
QI$GZ_FIELD.DESCRIPTION.IO_FLAGS
     17881**DCL     17886--REDEF
QI$IDENTIFIER
     12558**DCL     12560--REDEF
QI$INDICATORS
     10270**DCL     10300--REDEF
QI$INDICATORS.ENABLED_FLAGS
     10276**DCL     10281--REDEF
QI$INDICATORS.OPEN_FLAGS
     10288**DCL     10295--REDEF
QI$INDICATORS.STATE_FLAGS
     10282**DCL     10287--REDEF
QI$INITIALIZATION_BLOCK.VANILLA_HOST_DCB#
      8845**DCL     21465>>ASSIGN
QI$MAJOR_NODE.WORD0
      9726**DCL      9727--REDEF
QI$MAJOR_STATUS.INDICATORS
PL6.E3A0      #001=QCE$ERRORS File=QCE$ERROR.:E05TSI                             WED 07/30/97 05:05 Page:89
     10449**DCL     10481--REDEF
QI$MAJOR_STATUS.INDICATORS.ENABLED_FLAGS
     10453**DCL     10458--REDEF
QI$MAJOR_STATUS.INDICATORS.OPEN_FLAGS
     10465**DCL     10472--REDEF
QI$MAJOR_STATUS.INDICATORS.STATE_FLAGS
     10459**DCL     10464--REDEF
QI$MESSAGE_TYPE
     12549**DCL     12551--REDEF
QI$MINOR_NODE.WORD0
      9769**DCL      9770--REDEF
QI$MINOR_STATUS.INDICATORS
     10542**DCL     10574--REDEF
QI$MINOR_STATUS.INDICATORS.ENABLED_FLAGS
     10546**DCL     10551--REDEF
QI$MINOR_STATUS.INDICATORS.OPEN_FLAGS
     10558**DCL     10565--REDEF
QI$MINOR_STATUS.INDICATORS.STATE_FLAGS
     10552**DCL     10557--REDEF
QI$OP_ACCEPT.DATANAME@P
      6957**DCL      6958--REDEF
QI$OP_CALL.EPTR$
      7129**DCL      7130--REDEF
QI$OP_CLEAR.IO_FLAGS
      7162**DCL      7165--REDEF
QI$OP_DISPLAY.FIELD_A@P
      7429**DCL      7430--REDEF
QI$OP_ENABLE.IO_FLAGS
      7516**DCL      7519--REDEF
QI$OP_IFCLS.ATTRIBUTE.TYPE
      7609**DCL      7614--REDEF
QI$OP_INSPECT.TALLYING_FOR_ITEM@P
      7843**DCL      7844--REDEF
QI$OP_INSPECT.TALLYING_INITIAL_ITEM@P
      7845**DCL      7846--REDEF
QI$OP_INSPECT.TALLYING_ITEM@P
PL6.E3A0      #001=QCE$ERRORS File=QCE$ERROR.:E05TSI                             WED 07/30/97 05:05 Page:90
      7841**DCL      7842--REDEF
QI$OP_OPEN.IO_FLAGS
      8403**DCL      8406--REDEF
QI$OP_PERFM.BINARY_ITERATION_COUNT@P
      8441**DCL      8442--REDEF
QI$PSEUDO_CIP
      8942**DCL      8966--REDEF
QI$PSEUDO_CIP.ALPHANUMERIC
      8946**DCL      8951--REDEF
QI$PSEUDO_CIP.NUMERIC.CB
      8952**DCL      8955--REDEF    8958--REDEF
QI$TERMINAL_ATTRIBUTES
     10163**DCL     10176--REDEF
QI$TRAN_FILE.WORD0
      9948**DCL      9949--REDEF
QI$TRAN_STATUS.INDICATORS
     10883**DCL     10915--REDEF
QI$TRAN_STATUS.INDICATORS.ENABLED_FLAGS
     10887**DCL     10892--REDEF
QI$TRAN_STATUS.INDICATORS.OPEN_FLAGS
     10899**DCL     10906--REDEF
QI$TRAN_STATUS.INDICATORS.STATE_FLAGS
     10893**DCL     10898--REDEF
QI$VARIABLE_IDENTIFIER
     12561**DCL     21254>>ASSIGN  21258>>ASSIGN  21262>>ASSIGN  21266>>ASSIGN  21273>>ASSIGN  21279>>ASSIGN
     21288>>ASSIGN  21293>>ASSIGN
QI$VARIABLE_IDENTIFIER.LENGTH
     12562**DCL     12563--IMP-SIZ 21254>>ASSIGN  21258>>ASSIGN  21262>>ASSIGN  21266>>ASSIGN  21273>>ASSIGN
     21279>>ASSIGN  21288>>ASSIGN  21293>>ASSIGN
QI_1.BASE
     11091**DCL     11098--REDEF
QI_1.BASE.PROC$
     11094**DCL     21177>>ASSIGN  21221>>ASSIGN  21493>>ASSIGN
QI_1.CURRENT.FILE$
     11982**DCL     11984--REDEF   11986--REDEF   21155>>IF      21177>>ASSIGN
QI_1.CURRENT.FILE_STATUS$
PL6.E3A0      #001=QCE$ERRORS File=QCE$ERROR.:E05TSI                             WED 07/30/97 05:05 Page:91
     11988**DCL     11990--REDEF   11992--REDEF
QI_1.CURRENT.FRAME$
     11994**DCL     21199>>IF      21221>>ASSIGN
QI_1.CURR_INSTR$
     11101**DCL     21493>>ASSIGN
QI_1.DAD
     11786**DCL     11791--REDEF
QI_1.ERROR_STATUS
     12016**DCL     21449>>IF      21449>>IF
QI_1.FILE_HEAD
     11969**DCL     11976--REDEF
QI_1.INITIALIZATION_BLOCK$
     11103**DCL     21465>>ASSIGN
QI_1.IS_ALL_LIT
     11792**DCL     11797--REDEF
QI_1.IS_FORM_VARIABLE
     11798**DCL     11803--REDEF
QI_1.IS_TEMP
     11804**DCL     11809--REDEF
QI_1.MESSAGE_LINE_DAD.PSEUDO_CIP
     11902**DCL     11927--REDEF
QI_1.MESSAGE_LINE_DAD.PSEUDO_CIP.ALPHANUMERIC
     11904**DCL     11909--REDEF
QI_1.MESSAGE_LINE_DAD.PSEUDO_CIP.NUMERIC.CB
     11910**DCL     11913--REDEF   11916--REDEF
QI_1.MESSAGE_LINE_DAD.WORD0
     11871**DCL     11872--REDEF
QI_1.MESSAGE_LINE_GZ.HEADER$
     11948**DCL     21453>>ASSIGN
QI_1.OFFSET
     11810**DCL     11815--REDEF
QI_1.OP.CIP
     11171**DCL     11622--REDEF
QI_1.OP.CIP.AUX
     11537**DCL     11608--REDEF
QI_1.OP.CIP.AUX.CD
PL6.E3A0      #001=QCE$ERRORS File=QCE$ERROR.:E05TSI                             WED 07/30/97 05:05 Page:92
     11582**DCL     11585--REDEF   11589--REDEF   11592--REDEF
QI_1.OP.CIP.S
     11241**DCL     11312--REDEF
QI_1.OP.CIP.S.CD
     11286**DCL     11289--REDEF   11293--REDEF   11296--REDEF
QI_1.OP.CIP.T
     11389**DCL     11460--REDEF
QI_1.OP.CIP.T.CD
     11434**DCL     11437--REDEF   11441--REDEF   11444--REDEF
QI_1.OP.DATA
     11629**DCL     11633--REDEF
QI_1.OP.FILL_CHAR
     11753**DCL     11756--REDEF
QI_1.OP.INX
     11686**DCL     11690--REDEF   11691--REDEF   11695--REDEF
QI_1.OP.LEN
     11669**DCL     11673--REDEF   11674--REDEF   11678--REDEF   11679--REDEF   11683--REDEF
QI_1.OP.LEN.AUX
     11672**DCL     12573--IMP-SIZ
QI_1.OP.LEN.S
     11670**DCL     12569--IMP-SIZ
QI_1.OP.LEN.T
     11671**DCL     12571--IMP-SIZ
QI_1.OP.PICTURE_STRING
     11739**DCL     11742--REDEF   11743--REDEF   11746--REDEF   11747--REDEF   11750--REDEF
QI_1.OP.ROUND
     11772**DCL     11773--REDEF   11774--REDEF
QI_1.OP.SRCH_VRFY_ELEMS
     11708**DCL     11711--REDEF
QI_1.OPENED_COUNT
     11977**DCL     11980--REDEF
QI_1.OP_CODE
     11834**DCL     21488>>ASSIGN
QI_1.OTTER_SPACE
     11816**DCL     11821--REDEF
QI_1.PICTURE_STRING
PL6.E3A0      #001=QCE$ERRORS File=QCE$ERROR.:E05TSI                             WED 07/30/97 05:05 Page:93
     11822**DCL     11827--REDEF
QI_1.SPECIAL_NAMES
     12005**DCL     12014--REDEF
QI_1.TYPE
     11828**DCL     11833--REDEF
QI_16_BIT_BINARY
     17018**DCL     17088--REDEF
QI_16_BIT_BINARY.CB
     17037**DCL     17040--REDEF   17044--REDEF   17047--REDEF
QI_31_DIGIT_SLS_DISPLAY
     16851**DCL     16921--REDEF
QI_31_DIGIT_SLS_DISPLAY.CD
     16898**DCL     16901--REDEF   16905--REDEF   16908--REDEF
QI_31_DIGIT_ST_PACKED
     17353**DCL     17423--REDEF
QI_31_DIGIT_ST_PACKED.CP
     17386**DCL     17389--REDEF   17393--REDEF   17396--REDEF
QI_32_BIT_BINARY
     17185**DCL     17255--REDEF
QI_32_BIT_BINARY.CB
     17204**DCL     17207--REDEF   17211--REDEF   17214--REDEF
QI_4_CHAR_ALPHANUMERIC
     16683**DCL     16753--REDEF
QI_4_CHAR_ALPHANUMERIC.CA
     16688**DCL     16692--REDEF   16695--REDEF   16698--REDEF
QI_ACCUMULATOR_DAD.CIP
     17696**DCL     17767--REDEF
QI_ACCUMULATOR_DAD.CIP.CP
     17727**DCL     17730--REDEF   17734--REDEF   17737--REDEF
QI_ALR.CIP
     12648**DCL     13099--REDEF
QI_ALR.CIP.AUX
     13014**DCL     13085--REDEF
QI_ALR.CIP.AUX.CA
     13017**DCL     13021--REDEF   13024--REDEF   13027--REDEF
QI_ALR.CIP.S
PL6.E3A0      #001=QCE$ERRORS File=QCE$ERROR.:E05TSI                             WED 07/30/97 05:05 Page:94
     12718**DCL     12789--REDEF
QI_ALR.CIP.S.CA
     12721**DCL     12725--REDEF   12728--REDEF   12731--REDEF
QI_ALR.CIP.T
     12866**DCL     12937--REDEF
QI_ALR.CIP.T.CA
     12869**DCL     12873--REDEF   12876--REDEF   12879--REDEF
QI_ALR.DATA
     13106**DCL     13110--REDEF
QI_ALR.FILL_CHAR
     13230**DCL     13233--REDEF
QI_ALR.INX
     13163**DCL     13167--REDEF   13168--REDEF   13172--REDEF
QI_ALR.LEN
     13146**DCL     13150--REDEF   13151--REDEF   13155--REDEF   13156--REDEF   13160--REDEF
QI_ALR.PICTURE_STRING
     13216**DCL     13219--REDEF   13220--REDEF   13223--REDEF   13224--REDEF   13227--REDEF
QI_ALR.ROUND
     13249**DCL     13250--REDEF   13251--REDEF
QI_ALR.SRCH_VRFY_ELEMS
     13185**DCL     13188--REDEF
QI_FPT_DBCONTROL.V_
     18068**DCL     18068--REDEF
QI_FPT_ERRMSG
     18351**DCL     21059>>ASSIGN
QI_FPT_INT.V_
     18906**DCL     18906--REDEF
QI_FPT_OPEN
     19071**DCL     21463>>ASSIGN
QI_FPT_WRITE
     19895**DCL     21472>>ASSIGN
QI_MAT.CIP
     15987**DCL     16438--REDEF
QI_MAT.CIP.AUX
     16353**DCL     16424--REDEF
QI_MAT.CIP.AUX.CA
PL6.E3A0      #001=QCE$ERRORS File=QCE$ERROR.:E05TSI                             WED 07/30/97 05:05 Page:95
     16356**DCL     16360--REDEF   16363--REDEF   16366--REDEF
QI_MAT.CIP.S
     16057**DCL     16128--REDEF
QI_MAT.CIP.S.CA
     16060**DCL     16064--REDEF   16067--REDEF   16070--REDEF
QI_MAT.CIP.T
     16205**DCL     16276--REDEF
QI_MAT.CIP.T.CA
     16208**DCL     16212--REDEF   16215--REDEF   16218--REDEF
QI_MAT.DATA
     16445**DCL     16449--REDEF
QI_MAT.DEC
     16513**DCL     16517--REDEF   16518--REDEF   16522--REDEF
QI_MAT.FILL_CHAR
     16569**DCL     16572--REDEF
QI_MAT.LEN
     16485**DCL     16489--REDEF   16490--REDEF   16494--REDEF   16495--REDEF   16499--REDEF
QI_MAT.PICTURE_STRING
     16555**DCL     16558--REDEF   16559--REDEF   16562--REDEF   16563--REDEF   16566--REDEF
QI_MAT.ROUND
     16588**DCL     16589--REDEF   16590--REDEF
QI_MAT.SRCH_VRFY_ELEMS
     16524**DCL     16527--REDEF
QI_PICTURE_STRING
     17521**DCL     17591--REDEF
QI_PICTURE_STRING.CA
     17526**DCL     17530--REDEF   17533--REDEF   17536--REDEF
QI_SRCH_VRFY.CIP
     15318**DCL     15769--REDEF
QI_SRCH_VRFY.CIP.AUX
     15684**DCL     15755--REDEF
QI_SRCH_VRFY.CIP.AUX.CA
     15687**DCL     15691--REDEF   15694--REDEF   15697--REDEF
QI_SRCH_VRFY.CIP.S
     15388**DCL     15459--REDEF
QI_SRCH_VRFY.CIP.S.CA
PL6.E3A0      #001=QCE$ERRORS File=QCE$ERROR.:E05TSI                             WED 07/30/97 05:05 Page:96
     15391**DCL     15395--REDEF   15398--REDEF   15401--REDEF
QI_SRCH_VRFY.CIP.T
     15536**DCL     15607--REDEF
QI_SRCH_VRFY.CIP.T.CA
     15539**DCL     15543--REDEF   15546--REDEF   15549--REDEF
QI_SRCH_VRFY.DATA
     15776**DCL     15780--REDEF
QI_SRCH_VRFY.DEC
     15844**DCL     15848--REDEF   15849--REDEF   15853--REDEF
QI_SRCH_VRFY.FILL_CHAR
     15900**DCL     15903--REDEF
QI_SRCH_VRFY.ROUND
     15919**DCL     15920--REDEF   15921--REDEF
QI_SRCH_VRFY.SRCH_RESULT
     15860**DCL     15863--REDEF   15864--REDEF   15867--REDEF   15868--REDEF   15871--REDEF
QI_SRCH_VRFY.SRCH_VRFY_ARGS
     15784**DCL     15788--REDEF   15789--REDEF   15793--REDEF   15794--REDEF   15798--REDEF
QI_SRCH_VRFY.SRCH_VRFY_ELEMS
     15855**DCL     15858--REDEF
QI_TYPE_BINARY_TARGET.CIP
     14645**DCL     15096--REDEF
QI_TYPE_BINARY_TARGET.CIP.AUX
     15011**DCL     15082--REDEF
QI_TYPE_BINARY_TARGET.CIP.AUX.CA
     15014**DCL     15018--REDEF   15021--REDEF   15024--REDEF
QI_TYPE_BINARY_TARGET.CIP.S
     14715**DCL     14786--REDEF
QI_TYPE_BINARY_TARGET.CIP.S.CA
     14718**DCL     14722--REDEF   14725--REDEF   14728--REDEF
QI_TYPE_BINARY_TARGET.CIP.T
     14863**DCL     14934--REDEF
QI_TYPE_BINARY_TARGET.CIP.T.CB
     14880**DCL     14883--REDEF   14887--REDEF   14890--REDEF
QI_TYPE_BINARY_TARGET.DATA
     15103**DCL     15107--REDEF
QI_TYPE_BINARY_TARGET.DEC
PL6.E3A0      #001=QCE$ERRORS File=QCE$ERROR.:E05TSI                             WED 07/30/97 05:05 Page:97
     15171**DCL     15175--REDEF   15176--REDEF   15180--REDEF
QI_TYPE_BINARY_TARGET.LEN
     15143**DCL     15147--REDEF   15148--REDEF   15152--REDEF   15153--REDEF   15157--REDEF
QI_TYPE_BINARY_TARGET.PICTURE_STRING
     15213**DCL     15216--REDEF   15217--REDEF   15220--REDEF   15221--REDEF   15224--REDEF
QI_TYPE_BINARY_TARGET.ROUND
     15246**DCL     15247--REDEF   15248--REDEF
QI_TYPE_BINARY_TARGET.SIZE_ERROR
     15232**DCL     15233--REDEF
QI_TYPE_BINARY_TARGET.SRCH_VRFY_ELEMS
     15182**DCL     15185--REDEF
QI_TYPE_DISPLAY_SOURCE.CIP
     13313**DCL     13764--REDEF
QI_TYPE_DISPLAY_SOURCE.CIP.AUX
     13679**DCL     13750--REDEF
QI_TYPE_DISPLAY_SOURCE.CIP.AUX.CA
     13682**DCL     13686--REDEF   13689--REDEF   13692--REDEF
QI_TYPE_DISPLAY_SOURCE.CIP.S
     13383**DCL     13454--REDEF
QI_TYPE_DISPLAY_SOURCE.CIP.S.CD
     13428**DCL     13431--REDEF   13435--REDEF   13438--REDEF
QI_TYPE_DISPLAY_SOURCE.CIP.T
     13531**DCL     13602--REDEF
QI_TYPE_DISPLAY_SOURCE.CIP.T.CA
     13534**DCL     13538--REDEF   13541--REDEF   13544--REDEF
QI_TYPE_DISPLAY_SOURCE.DATA
     13771**DCL     13775--REDEF
QI_TYPE_DISPLAY_SOURCE.DEC
     13839**DCL     13843--REDEF   13844--REDEF   13848--REDEF
QI_TYPE_DISPLAY_SOURCE.LEN
     13811**DCL     13815--REDEF   13816--REDEF   13820--REDEF   13821--REDEF   13825--REDEF
QI_TYPE_DISPLAY_SOURCE.PICTURE_STRING
     13881**DCL     13884--REDEF   13885--REDEF   13888--REDEF   13889--REDEF   13892--REDEF
QI_TYPE_DISPLAY_SOURCE.ROUND
     13914**DCL     13915--REDEF   13916--REDEF
QI_TYPE_DISPLAY_SOURCE.SIZE_ERROR
PL6.E3A0      #001=QCE$ERRORS File=QCE$ERROR.:E05TSI                             WED 07/30/97 05:05 Page:98
     13900**DCL     13901--REDEF
QI_TYPE_DISPLAY_SOURCE.SRCH_VRFY_ELEMS
     13850**DCL     13853--REDEF
QI_TYPE_DISPLAY_TARGET.CIP
     13979**DCL     14430--REDEF
QI_TYPE_DISPLAY_TARGET.CIP.AUX
     14345**DCL     14416--REDEF
QI_TYPE_DISPLAY_TARGET.CIP.AUX.CA
     14348**DCL     14352--REDEF   14355--REDEF   14358--REDEF
QI_TYPE_DISPLAY_TARGET.CIP.S
     14049**DCL     14120--REDEF
QI_TYPE_DISPLAY_TARGET.CIP.S.CA
     14052**DCL     14056--REDEF   14059--REDEF   14062--REDEF
QI_TYPE_DISPLAY_TARGET.CIP.T
     14197**DCL     14268--REDEF
QI_TYPE_DISPLAY_TARGET.CIP.T.CD
     14242**DCL     14245--REDEF   14249--REDEF   14252--REDEF
QI_TYPE_DISPLAY_TARGET.DATA
     14437**DCL     14441--REDEF
QI_TYPE_DISPLAY_TARGET.DEC
     14505**DCL     14509--REDEF   14510--REDEF   14514--REDEF
QI_TYPE_DISPLAY_TARGET.LEN
     14477**DCL     14481--REDEF   14482--REDEF   14486--REDEF   14487--REDEF   14491--REDEF
QI_TYPE_DISPLAY_TARGET.PICTURE_STRING
     14547**DCL     14550--REDEF   14551--REDEF   14554--REDEF   14555--REDEF   14558--REDEF
QI_TYPE_DISPLAY_TARGET.ROUND
     14580**DCL     14581--REDEF   14582--REDEF
QI_TYPE_DISPLAY_TARGET.SIZE_ERROR
     14566**DCL     14567--REDEF
QI_TYPE_DISPLAY_TARGET.SRCH_VRFY_ELEMS
     14516**DCL     14519--REDEF
QI_VLP_CG
     19230**DCL     21476>>ASSIGN
QI_VLP_SEGMENT.BASE
     18605**DCL     18605--REDEF
QI_VLP_SEGMENT_BUFFER.BASE
PL6.E3A0      #001=QCE$ERRORS File=QCE$ERROR.:E05TSI                             WED 07/30/97 05:05 Page:99
     18703**DCL     18703--REDEF
QI_VLP_SEGMENT_LOAD.BASE
     18801**DCL     18801--REDEF
QI_VLP_TRMCTL.BREAKCOUNT
     19795**DCL     19796--REDEF
QI_VLP_XBREAK.IC
     19985**DCL     19985--REDEF
QI_VLP_XBREAK.OLDIC
     19985**DCL     19986--REDEF   19986--REDEF
Q_FPABT
     20081**DCL     21135>>ASSIGN  21370>>ASSIGN  21404>>ASSIGN
SPIT_UP
     21449**LABEL   21355--GOTO    21385--GOTO
U1
     20011**DCL        16--PROC    21042--ENTRY   21078--IF      21080--ASSIGN  21104--IF      21120--ENTRY
     21298>>ASSIGN  21302>>ASSIGN  21316>>ASSIGN  21321>>ASSIGN  21326>>ASSIGN  21340>>ASSIGN  21345>>ASSIGN
     21357--ENTRY   21387--ENTRY
U1.L
     20012**DCL     20013--IMP-SIZ 21080>>ASSIGN  21113>>ASSIGN  21114>>ASSIGN  21298>>ASSIGN  21302>>ASSIGN
     21316>>ASSIGN  21321>>ASSIGN  21326>>ASSIGN  21340>>ASSIGN  21345>>ASSIGN
U1.NAME
     20013**DCL     21113>>ASSIGN
U2
     20014**DCL        16--PROC    21042--ENTRY   21081--IF      21083--ASSIGN  21120--ENTRY   21317>>ASSIGN
     21327--ASSIGN  21341>>ASSIGN  21357--ENTRY   21387--ENTRY
U2.L
     20015**DCL     20016--IMP-SIZ 21083>>ASSIGN  21317>>ASSIGN  21341>>ASSIGN
U3
     20017**DCL        16--PROC    21042--ENTRY   21084--IF      21086--ASSIGN  21120--ENTRY   21357--ENTRY
     21387--ENTRY
U3.L
     20018**DCL     20019--IMP-SIZ 21086>>ASSIGN
USER_ERROR
     20933**DCL     21349<<CALLBLT 21351--ASSIGN  21352--ASSIGN
U_INDEX
     21040**DCL     21108<<CALLBLT 21113>>ASSIGN  21114>>ASSIGN  21114>>ASSIGN
PL6.E3A0      #001=QCE$ERRORS File=QCE$ERROR.:E05TSI                             WED 07/30/97 05:05 Page:100
VLP@CG
       323**DCL     21475--ASSIGN  21476<<ASSIGN
VLP@CG.MSGTYP#
       327**DCL     21477<<ASSIGN
VLP_ERRCODE_QB
     20264**DCL     21246>>ASSIGN  21253>>ASSIGN  21287>>ASSIGN
VLP_ERRCODE_QBA
     20313**DCL     21292>>ASSIGN  21330>>ASSIGN  21339>>ASSIGN  21344>>ASSIGN
VLP_ERRCODE_QBC
     20362**DCL     21257>>ASSIGN  21336>>ASSIGN
VLP_ERRCODE_QBL
     20411**DCL     21320>>ASSIGN  21325>>ASSIGN
VLP_ERRCODE_QBM
     20460**DCL     21333>>ASSIGN
VLP_ERRCODE_QBO
     20509**DCL     21261>>ASSIGN
VLP_ERRCODE_QBR
     20558**DCL     21265>>ASSIGN
VLP_ERRCODE_QBS
     20607**DCL     21312>>ASSIGN  21315>>ASSIGN
VLP_ERRCODE_QBV
     20656**DCL     21065>>ASSIGN  21297>>ASSIGN
VLP_ERRCODE_QBW
     20705**DCL     21272>>ASSIGN
VLP_ERRCODE_QCI
     20754**DCL     21278>>ASSIGN
VLP_ERRCODE_QCR
     20803**DCL     21068>>ASSIGN  21301>>ASSIGN
VLP_ERRCODE_QI
     20851**DCL     21309>>ASSIGN  21379>>ASSIGN  21413>>ASSIGN
VLP_ERRCODE_QIO
     20900**DCL     21487>>ASSIGN
VLR@ERRMSG
       252**DCL     21088--ASSIGN
VLR@ERRMSG.INERR
       253**DCL     21094>>IF
PL6.E3A0      #001=QCE$ERRORS File=QCE$ERROR.:E05TSI                             WED 07/30/97 05:05 Page:101
VLR@ERRMSG.NOFILE
       252**DCL     21094>>IF
VLR@ERRMSG.NOMSG
       252**DCL     21094>>IF

PL6.E3A0      #002=QCE$ERRORS_ASYNC File=QCE$ERROR.:E05TSI                       WED 07/30/97 05:10 Page:102
      544        1        /*M* QCE$ERRORS_ASYNC:  Catch ASYNC events.  */
      545        2        /*T***********************************************************/
      546        3        /*T*                                                         */
      547        4        /*T* Copyright (c) Bull HN Information Systems Inc., 1997    */
      548        5        /*T*                                                         */
      549        6        /*T***********************************************************/
      550        7        /*X* DMC,PLM=4,IND=0,DCI=4,CSI=2,IAD=2,DTI=2,AND,ECI=0,DIN=2,STI=2 */
      551        8
      552        9        /*P*  NAME:         QCE$ERRORS_ASYNC
      553       10              PURPOSE:      To catch some sort of ASYNC event and figure out
      554       11                            what to do with it.
      555       12              DESCRIPTION:  Various ASYNC entries within are called or
      556       13                            entered at various times.
      557       14        */
      558       15
      559       16        QCE$ERRORS_ASYNC: PROC ASYNC;
      560       17
      561       18        /*D*  NAME:         QCE$ERRORS_ASYNC
      562       19              CALL:         Never called:  ASYNC entries within are called.
      563       20              PARAMETERS:   None.
      564       21              INTERFACE:    None.
      565       22              ENVIRONMENT:  Asynchronous.
      566       23              INPUT:        None.
      567       24              OUTPUT:       None.
      568       25              SCRATCH:      None.
      569       26              DESCRIPTION:  Dummy OU name for ASYNC entries within.
      570       27        */
      571       28
      572       29          %INCLUDE G_JIT_M;
      573      294          %INCLUDE LCP_6;
      574      485          %FPT_EXIT ( FPTN = FPT@EXIT,
      575      486                      STCLASS = AUTO );
      576      508          %G$JIT;
      577      922    1     DCL G$JIT$ PTR SYMREF;
      578      923          %G$EXCFR;
      579     1305          %G$TCB;
      580     1326    1     DCL G$TCB$ PTR SYMREF;
PL6.E3A0      #002=QCE$ERRORS_ASYNC File=QCE$ERROR.:E05TSI                       WED 07/30/97 05:10 Page:103
      581     1327
      582     1328          %INCLUDE QG_MACRO_M;
      583     1465          %INCLUDE QI_EQUATES_E;
      584     1824          %INCLUDE QI_PERR_C;
      585     1992          %INCLUDE QI_MACROS_M;
      586     7050          %QI$ALL;
      587    18163          %QI_FPTS;
      588    20208
      589    20209    1     DCL QCE$ERROR ENTRY (4);
      590    20210    1     DCL QCE$ERROR_M$INTERNAL ENTRY (4);
      591    20211    1     DCL QCE$EXPERIENCE_M$XBREAK ENTRY;
      592    20212        %EJECT;
PL6.E3A0      #002=QCE$ERRORS_ASYNC File=QCE$ERROR.:E05TSI                       WED 07/30/97 05:10 Page:104
      593    20213    1   QCE$ERROR_DBCONTROL: ENTRY ASYNC;
      594    20214
      595    20215        /*D*  NAME:         QCE$ERROR_DBCONTROL
      596    20216              CALL:         CALL QCE$ERROR_DBCONTROL;
      597    20217              PARAMETERS:   None.
      598    20218              INTERFACE:    Entered asynchronously.
      599    20219              ENVIRONMENT:  Asynchronous.
      600    20220              INPUT:        None.
      601    20221              OUTPUT:       None.
      602    20222              SCRATCH:      None.
      603    20223              DESCRIPTION:  Set up as the entry to call if front-end
      604    20224                            DELTA becomes associated; call to M$DBCONTROL
      605    20225                            is in QAT$TALLYHO.
      606    20226        */
      607    20227
      608    20228    1       QI_1.HOUSEKEEPING.IS_DEBUGGER_ASSOCIATING = %YES;
      609    20229
      610    20230    1       RETURN;
      611    20231
      612    20232        %EJECT;
PL6.E3A0      #002=QCE$ERRORS_ASYNC File=QCE$ERROR.:E05TSI                       WED 07/30/97 05:10 Page:105
      613    20233    1   QCE$ERROR_INT: ENTRY ASYNC;
      614    20234
      615    20235        /*D*  NAME:         QCE$ERROR_INT
      616    20236              CALL:         CALL QCE$ERROR_INT;
      617    20237              PARAMETERS:   None.
      618    20238              INTERFACE:    Entered asynchronously.
      619    20239              ENVIRONMENT:  Asynchronous.
      620    20240              INPUT:        None.
      621    20241              OUTPUT:       None.
      622    20242              SCRATCH:      None.
      623    20243              DESCRIPTION:  Set up as the entry to call if CTL-Y
      624    20244                            is hit by the forms user; call to M$INT
      625    20245                            is in QAT$TALLYHO.
      626    20246        */
      627    20247
      628    20248            /*  For CTL-Y, exit with STEPCC = G_SKIP# (2).
      629    20249                Otherwise (e.g., BRK) ignore.  */
      630    20250    1       IF G$TCB$ -> G$TCB.STK$ -> G$EXCFR.TRLR.SUBC = %G_YCSC#
      631    20251    1       THEN
      632    20252    2         DO;
      633    20253    2           FPT@EXIT = QI_FPT_EXIT;
      634    20254    2           VBASE ( FPT@EXIT.V_ ) = ADDR ( FPT@EXIT.V );
      635    20255
      636    20256    2           CALL M$EXIT ( FPT@EXIT );
      637    20257    2         END;
      638    20258
      639    20259    1       RETURN;
      640    20260
      641    20261        %EJECT;
PL6.E3A0      #002=QCE$ERRORS_ASYNC File=QCE$ERROR.:E05TSI                       WED 07/30/97 05:10 Page:106
      642    20262    1   QCE$ERROR_TRAP: ENTRY ASYNC;
      643    20263
      644    20264        /*D*  NAME:         QCE$ERROR_TRAP
      645    20265              CALL:         CALL QCE$ERROR_TRAP;
      646    20266              PARAMETERS:   None.
      647    20267              INTERFACE:    Entered asynchronously.
      648    20268              ENVIRONMENT:  Asynchronous.
      649    20269              INPUT:        None.
      650    20270              OUTPUT:       None.
      651    20271              SCRATCH:      None.
      652    20272              DESCRIPTION:  Set up as the entry to call if a trap
      653    20273                            occurs; call to M$TRAP is in QAT$TALLYHO.
      654    20274        */
      655    20275
      656    20276    1       IF G$JIT$ -> G$JIT.DB# > 0
      657    20277    1       THEN
      658    20278    1   THE_DEBUGGERS_ASSOCIATED:
      659    20279    2         DO;
      660    20280                /*  If the debugger's associated, set QI_VLP_XBREAK.IC$ to:
      661    20281                    1)  QI_1.INSTR$ if it's the user's fault;
      662    20282                    2)  P$ in the trap frame if it's our fault.
      663    20283                    Then call Carl.  */
      664    20284    2           QI_VLP_XBREAK.TRAP# = G$TCB$ -> G$TCB.STK$ -> G$EXCFR.TRLR.TRAP.TRAP#;
      665    20285
      666    20286    3           DO CASE ( QI_VLP_XBREAK.TRAP# );
      667    20287
      668    20288    3             CASE ( %G_C_CHAR#,
      669    20289    3             %G_C_DBZ# );
      670    20290    3               QI_VLP_XBREAK.IC$ = QI_1.INSTR$;
      671    20291
      672    20292    3             CASE ( ELSE );
      673    20293    3               QI_VLP_XBREAK.IC$ = G$TCB$ -> G$TCB.STK$ -> G$EXCFR.P$;
      674    20294
      675    20295    3           END;
      676    20296
      677    20297    2           CALL QCE$EXPERIENCE_M$XBREAK;
      678    20298
PL6.E3A0      #002=QCE$ERRORS_ASYNC File=QCE$ERROR.:E05TSI                       WED 07/30/97 05:10 Page:107
      679    20299    2         END THE_DEBUGGERS_ASSOCIATED;
      680    20300    1       ELSE
      681    20301    1   NO_DEBUGGER:
      682    20302    2         DO;
      683    20303    3           DO CASE ( G$TCB$ -> G$TCB.STK$ -> G$EXCFR.TRLR.TRAP.TRAP# );
      684    20304
      685    20305    3             CASE ( %G_C_CHAR# );
      686    20306                    /*  Commercial Illegal Character:
      687    20307                        assume (?) it's the user's fault.  */
      688    20308    3               CALL QCE$ERROR ( %E$COMMERCIAL_ILLEGAL_CHARACTER );
      689    20309
      690    20310    3             CASE ( %G_C_DBZ# );
      691    20311                    /*  Commercial Divide By Zero:
      692    20312                        assume (?) it's the user's fault.  */
      693    20313    3               CALL QCE$ERROR ( %E$COMMERCIAL_DIVIDE_BY_ZERO );
      694    20314
      695    20315    3             CASE ( ELSE );
      696    20316                    /*  Oops.  */
      697    20317    3               CALL QCE$ERROR_M$INTERNAL ( %E$INTERPRETER_TRAP );
      698    20318
      699    20319    3           END;
      700    20320    2         END NO_DEBUGGER;
      701    20321
      702    20322    1   END QCE$ERRORS_ASYNC;
      703    20323        %EOD;

PL6.E3A0      #002=QCE$ERRORS_ASYNC File=QCE$ERROR.:E05TSI                       WED 07/30/97 05:10 Page:108
--  Include file information  --

   QI_MACROS_M.:E05TOU  is referenced.
   QI_PERR_C.:E05TOU  is referenced.
   QI_EQUATES_E.:E05TOU  is referenced.
   QG_MACRO_M.:E05TOU  is referenced.
   LCP_6.:E05TOU  cannot be made into a system file and is referenced.
   G_JIT_M.:E05TOU  is referenced.
   G_LCP6_E.:E05TOU  was found in the system file and is referenced.
   GT_LCP6_M.:E05TOU  was found in the system file and is referenced.
   KI_CP6.:E05TOU  was found in the system file and is referenced.
   GF_LCP6_M.:E05TOU  was found in the system file and is referenced.
   GM_LCP6_M.:E05TOU  was found in the system file and is referenced.
   GU_LCP6_M.:E05TOU  was found in the system file and is referenced.
   GJ_LCP6_M.:E05TOU  was found in the system file and is referenced.
   GH_LCP6_M.:E05TOU  was found in the system file and is referenced.
      No diagnostics issued in procedure QCE$ERRORS_ASYNC.

   Procedure QCE$ERRORS_ASYNC requires 169 words for executable code.
   Procedure QCE$ERRORS_ASYNC requires 12 words of local(AUTO) storage.

PL6.E3A0      #002=QCE$ERRORS_ASYNC File=QCE$ERROR.:E05TSI                       WED 07/30/97 05:10 Page:109

 Object Unit name= QCE$ERRORS_ASYNC                           File name= QCE$ERROR.:E05TOU
 UTS= JUL 30 '97 05:10:03.60 WED                              Compiler= PL-6/E31         Sev=      00
 SharedLib= :SHARED_LCP6_SYSTEM                               Alt SharedLib=


    ****  Control sections  ****

 Sect   Type Bound  Init  Size HexSiz  Section name
    0   Proc  even  none   169     A9  QCE$ERRORS_ASYNC
    1  RoData even  none     9      9  QCE$ERRORS_ASYNC

    ****  Entry defs  ****

                              Check   Calling
                             calling  sequence
  Sect HexLoc Primary Altret sequence   type   Parms  Name
     0      0   yes            yes     Async       0  QCE$ERRORS_ASYNC
     0      7                  yes     Async       0  QCE$ERROR_DBCONTROL
     0     13                  yes     Async       0  QCE$ERROR_INT
     0     36                  yes     Async       0  QCE$ERROR_TRAP

  ****  Entry refs  ****

         Check        Calling
        calling       sequence
Altret sequence SRef   type   Args  Name
         yes           Std       0 QCE$EXPERIENCE_M$XBREAK
         yes           Std       4 QCE$ERROR_M$INTERNAL
         yes           Std       4 QCE$ERROR
                       nStd      0 X6A_AAUTO
                       nStd      0 X6A_AARET
PL6.E3A0      #002=QCE$ERRORS_ASYNC File=QCE$ERROR.:E05TSI                       WED 07/30/97 05:10 Page:110

  ****  Data refs  ****

  Flags:  r = read only, s = secondary
Flgs Name                             Flgs Name                             Flgs Name
     G$JIT$                                G$TCB$                                QI_1
     QI_4_CHAR_ALPHANUMERIC                QI_31_DIGIT_SLS_DISPLAY               QI_16_BIT_BINARY
     QI_32_BIT_BINARY                      QI_31_DIGIT_ST_PACKED                 QI_PICTURE_STRING
     QI_FPT_EXIT                           QI_VLP_XBREAK                    r    G$ROS$
PL6.E3A0      #002=QCE$ERRORS_ASYNC File=QCE$ERROR.:E05TSI                       WED 07/30/97 05:10 Page:111


      544        1        /*M* QCE$ERRORS_ASYNC:  Catch ASYNC events.  */
      545        2        /*T***********************************************************/
      546        3        /*T*                                                         */
      547        4        /*T* Copyright (c) Bull HN Information Systems Inc., 1997    */
      548        5        /*T*                                                         */
      549        6        /*T***********************************************************/
      550        7        /*X* DMC,PLM=4,IND=0,DCI=4,CSI=2,IAD=2,DTI=2,AND,ECI=0,DIN=2,STI=2 */
      551        8
      552        9        /*P*  NAME:         QCE$ERRORS_ASYNC
      553       10              PURPOSE:      To catch some sort of ASYNC event and figure out
      554       11                            what to do with it.
      555       12              DESCRIPTION:  Various ASYNC entries within are called or
      556       13                            entered at various times.
      557       14        */
      558       15
      559       16        QCE$ERRORS_ASYNC: PROC ASYNC;

     16   0 000000  D380 0000 0000  xent QCE$ERRORS_ASYNCLNJ,B5   X6A_AAUTO
          0 000003       000C 0000                       DC       12,0
          0 000005  0F81 0006                            B        s:20228,PREL

      560       17
      561       18        /*D*  NAME:         QCE$ERRORS_ASYNC
      562       19              CALL:         Never called:  ASYNC entries within are called.
      563       20              PARAMETERS:   None.
      564       21              INTERFACE:    None.
      565       22              ENVIRONMENT:  Asynchronous.
      566       23              INPUT:        None.
      567       24              OUTPUT:       None.
      568       25              SCRATCH:      None.
      569       26              DESCRIPTION:  Dummy OU name for ASYNC entries within.
      570       27        */
      571       28
      572       29          %INCLUDE G_JIT_M;
      573      294          %INCLUDE LCP_6;
      574      485          %FPT_EXIT ( FPTN = FPT@EXIT,
PL6.E3A0      #002=QCE$ERRORS_ASYNC File=QCE$ERROR.:E05TSI                       WED 07/30/97 05:10 Page:112
      575      486                      STCLASS = AUTO );
      576      508          %G$JIT;
      577      922    1     DCL G$JIT$ PTR SYMREF;
      578      923          %G$EXCFR;
      579     1305          %G$TCB;
      580     1326    1     DCL G$TCB$ PTR SYMREF;
      581     1327
      582     1328          %INCLUDE QG_MACRO_M;
      583     1465          %INCLUDE QI_EQUATES_E;
      584     1824          %INCLUDE QI_PERR_C;
      585     1992          %INCLUDE QI_MACROS_M;
      586     7050          %QI$ALL;
      587    18163          %QI_FPTS;
      588    20208
      589    20209    1     DCL QCE$ERROR ENTRY (4);
      590    20210    1     DCL QCE$ERROR_M$INTERNAL ENTRY (4);
      591    20211    1     DCL QCE$EXPERIENCE_M$XBREAK ENTRY;
      592    20212        %EJECT;
PL6.E3A0      #002=QCE$ERRORS_ASYNC File=QCE$ERROR.:E05TSI                       WED 07/30/97 05:10 Page:113
      593    20213    1   QCE$ERROR_DBCONTROL: ENTRY ASYNC;

  20213   0 000007  D380 0000 0000  xent QCE$ERROR_DBCON*LNJ,B5   X6A_AAUTO
          0 00000A       000C 0000                       DC       12,0

      594    20214
      595    20215        /*D*  NAME:         QCE$ERROR_DBCONTROL
      596    20216              CALL:         CALL QCE$ERROR_DBCONTROL;
      597    20217              PARAMETERS:   None.
      598    20218              INTERFACE:    Entered asynchronously.
      599    20219              ENVIRONMENT:  Asynchronous.
      600    20220              INPUT:        None.
      601    20221              OUTPUT:       None.
      602    20222              SCRATCH:      None.
      603    20223              DESCRIPTION:  Set up as the entry to call if front-end
      604    20224                            DELTA becomes associated; call to M$DBCONTROL
      605    20225                            is in QAT$TALLYHO.
      606    20226        */
      607    20227
      608    20228    1       QI_1.HOUSEKEEPING.IS_DEBUGGER_ASSOCIATING = %YES;

  20228   0 00000C  8900 0000 0015  xsym                 LBT,'0400'X       QI_1+21
  20228   0 00000F       0400

      609    20229
      610    20230    1       RETURN;

  20230   0 000010  C380 0000 0000  xent                 LNJ,B4   X6A_AARET

      611    20231
      612    20232        %EJECT;
PL6.E3A0      #002=QCE$ERRORS_ASYNC File=QCE$ERROR.:E05TSI                       WED 07/30/97 05:10 Page:114
      613    20233    1   QCE$ERROR_INT: ENTRY ASYNC;

  20233   0 000013  D380 0000 0000  xent QCE$ERROR_INT   LNJ,B5   X6A_AAUTO
          0 000016       000C 0000                       DC       12,0

      614    20234
      615    20235        /*D*  NAME:         QCE$ERROR_INT
      616    20236              CALL:         CALL QCE$ERROR_INT;
      617    20237              PARAMETERS:   None.
      618    20238              INTERFACE:    Entered asynchronously.
      619    20239              ENVIRONMENT:  Asynchronous.
      620    20240              INPUT:        None.
      621    20241              OUTPUT:       None.
      622    20242              SCRATCH:      None.
      623    20243              DESCRIPTION:  Set up as the entry to call if CTL-Y
      624    20244                            is hit by the forms user; call to M$INT
      625    20245                            is in QAT$TALLYHO.
      626    20246        */
      627    20247
      628    20248            /*  For CTL-Y, exit with STEPCC = G_SKIP# (2).
      629    20249                Otherwise (e.g., BRK) ignore.  */
      630    20250    1       IF G$TCB$ -> G$TCB.STK$ -> G$EXCFR.TRLR.SUBC = %G_YCSC#

  20250   0 000018  EC80 0000 0000  xsym                 LDB,B6   G$TCB$
          0 00001B  DCC6 0002                            LDB,B5   2,B6
          0 00001D  E845 0029                            LDR,R6   41,B5
          0 00001F  6981 0013                            BNEZ,R6  s:20259,PREL

      631    20251    1       THEN
      632    20252    2         DO;

      633    20253    2           FPT@EXIT = QI_FPT_EXIT;

  20253   0 000021  AB80 0000 0000  xsym                 LAB,B2   QI_FPT_EXIT
          0 000024  2C00                                 LDV,R2   0
          0 000025  6C10                                 LDV,R6   16
          0 000026  BB87                                 LAB,B3   ,AUTO
PL6.E3A0      #002=QCE$ERRORS_ASYNC File=QCE$ERROR.:E05TSI                       WED 07/30/97 05:10 Page:115
          0 000027  3C08                                 LDV,R3   8
          0 000028  0008                                 MMM

      634    20254    2           VBASE ( FPT@EXIT.V_ ) = ADDR ( FPT@EXIT.V );

  20254   0 000029  EBC7 000A                            LAB,B6   FPT@EXIT+6,AUTO
          0 00002B  EFC7 0008                            STB,B6   FPT@EXIT+4,AUTO

      635    20255
      636    20256    2           CALL M$EXIT ( FPT@EXIT );

  20256   0 00002D  BBC7 0004                            LAB,B3   FPT@EXIT,AUTO
          0 00002F  B870 0880                            LDR,R3   2176,IMO
          0 000031  0001                                 MCL
          0 000032       0000                            DC       s:20256+5,PREL

      637    20257    2         END;

      638    20258
      639    20259    1       RETURN;

  20259   0 000033  C380 0000 0000  xent                 LNJ,B4   X6A_AARET

      640    20260
      641    20261        %EJECT;
PL6.E3A0      #002=QCE$ERRORS_ASYNC File=QCE$ERROR.:E05TSI                       WED 07/30/97 05:10 Page:116
      642    20262    1   QCE$ERROR_TRAP: ENTRY ASYNC;

  20262   0 000036  D380 0000 0000  xent QCE$ERROR_TRAP  LNJ,B5   X6A_AAUTO
          0 000039       000C 0000                       DC       12,0

      643    20263
      644    20264        /*D*  NAME:         QCE$ERROR_TRAP
      645    20265              CALL:         CALL QCE$ERROR_TRAP;
      646    20266              PARAMETERS:   None.
      647    20267              INTERFACE:    Entered asynchronously.
      648    20268              ENVIRONMENT:  Asynchronous.
      649    20269              INPUT:        None.
      650    20270              OUTPUT:       None.
      651    20271              SCRATCH:      None.
      652    20272              DESCRIPTION:  Set up as the entry to call if a trap
      653    20273                            occurs; call to M$TRAP is in QAT$TALLYHO.
      654    20274        */
      655    20275
      656    20276    1       IF G$JIT$ -> G$JIT.DB# > 0

  20276   0 00003B  EC80 0000 0000  xsym                 LDB,B6   G$JIT$
          0 00003E  E2C6 008D                            LLH,R6   141,B6
          0 000040  6901 0032                            BEZ,R6   s:20302,PREL

      657    20277    1       THEN
      658    20278    1   THE_DEBUGGERS_ASSOCIATED:
      659    20279    2         DO;

  20279   0                              THE_DEBUGGERS_A*null
      660    20280                /*  If the debugger's associated, set QI_VLP_XBREAK.IC$ to:
      661    20281                    1)  QI_1.INSTR$ if it's the user's fault;
      662    20282                    2)  P$ in the trap frame if it's our fault.
      663    20283                    Then call Carl.  */
      664    20284    2           QI_VLP_XBREAK.TRAP# = G$TCB$ -> G$TCB.STK$ -> G$EXCFR.TRLR.TRAP.TRAP#;

  20284   0 000042  DC80 0000 0000  xsym THE_DEBUGGERS_A*LDB,B5   G$TCB$
          0 000045  CCC5 0002                            LDB,B4   2,B5
PL6.E3A0      #002=QCE$ERRORS_ASYNC File=QCE$ERROR.:E05TSI                       WED 07/30/97 05:10 Page:117
          0 000047  D2C4 0029                            LLH,R5   41,B4
          0 000049  D780 0000 0006  xsym                 STH,R5   QI_VLP_XBREAK+6

      665    20285
      666    20286    3           DO CASE ( QI_VLP_XBREAK.TRAP# );

  20286   0 00004C  B280 0000 0006  xsym                 LLH,R3   QI_VLP_XBREAK+6
          0 00004F  3EE7                                 ADV,R3   -25
          0 000050  3D03                                 CMV,R3   3
          0 000051  0281 0012                            BGE      s:20293,PREL
          0 000053  A830 0000 0059  00                   LDR,R2   s:20286+13,R3
          0 000056  83A0 0000 005C  00                   JMP      s:20290,R2
          0 000059       0000                            DC       s:20290,PREL
          0 00005A       0008                            DC       s:20293,PREL
          0 00005B       0000                            DC       s:20290,PREL

      667    20287
      668    20288    3             CASE ( %G_C_CHAR#,

      669    20289    3             %G_C_DBZ# );
      670    20290    3               QI_VLP_XBREAK.IC$ = QI_1.INSTR$;

  20290   0 00005C  CC80 0000 0006  xsym                 LDB,B4   QI_1+6
          0 00005F  CF80 0000 0000  xsym                 STB,B4   QI_VLP_XBREAK
          0 000062  0F81 0008                            B        s:20297,PREL

      671    20291
      672    20292    3             CASE ( ELSE );

      673    20293    3               QI_VLP_XBREAK.IC$ = G$TCB$ -> G$TCB.STK$ -> G$EXCFR.P$;

  20293   0 000064  CCC5 0002                            LDB,B4   2,B5
          0 000066  BCC4 0004                            LDB,B3   4,B4
          0 000068  BF80 0000 0000  xsym                 STB,B3   QI_VLP_XBREAK

      674    20294
      675    20295    3           END;
PL6.E3A0      #002=QCE$ERRORS_ASYNC File=QCE$ERROR.:E05TSI                       WED 07/30/97 05:10 Page:118

      676    20296
      677    20297    2           CALL QCE$EXPERIENCE_M$XBREAK;

  20297   0 00006B  CBF0 0000                            LAB,B4   0,IMO
          0 00006D  E380 0000 0000  xent                 LNJ,B6   QCE$EXPERIENCE_M$XBREAK
          0 000070       0001                            DC       s:20299,PREL

      678    20298
      679    20299    2         END THE_DEBUGGERS_ASSOCIATED;

  20299   0 000071  0F81 0034                            B        s:20322,PREL

      680    20300    1       ELSE
      681    20301    1   NO_DEBUGGER:
      682    20302    2         DO;

  20302   0                              NO_DEBUGGER     null
      683    20303    3           DO CASE ( G$TCB$ -> G$TCB.STK$ -> G$EXCFR.TRLR.TRAP.TRAP# );

  20303   0 000073  DC80 0000 0000  xsym NO_DEBUGGER     LDB,B5   G$TCB$
          0 000076  CCC5 0002                            LDB,B4   2,B5
          0 000078  B2C4 0029                            LLH,R3   41,B4
          0 00007A  3EE7                                 ADV,R3   -25
          0 00007B  3D03                                 CMV,R3   3
          0 00007C  0281 0020                            BGE      s:20317,PREL
          0 00007E  A830 0000 0084  00                   LDR,R2   NO_DEBUGGER+17,R3
          0 000081  83A0 0000 0087  00                   JMP      s:20308,R2
          0 000084       000B                            DC       s:20313,PREL
          0 000085       0016                            DC       s:20317,PREL
          0 000086       0000                            DC       s:20308,PREL

      684    20304
      685    20305    3             CASE ( %G_C_CHAR# );

      686    20306                    /*  Commercial Illegal Character:
      687    20307                        assume (?) it's the user's fault.  */
PL6.E3A0      #002=QCE$ERRORS_ASYNC File=QCE$ERROR.:E05TSI                       WED 07/30/97 05:10 Page:119
      688    20308    3               CALL QCE$ERROR ( %E$COMMERCIAL_ILLEGAL_CHARACTER );

  20308   0 000087  BB80 0000 0001  01                   LAB,B3   +1
          0 00008A  CBF0 0100                            LAB,B4   256,IMO
          0 00008C  E380 0000 0000  xent                 LNJ,B6   QCE$ERROR
          0 00008F       0001                            DC       s:20308+9,PREL
          0 000090  0F81 0015                            B        s:20322,PREL

      689    20309
      690    20310    3             CASE ( %G_C_DBZ# );

      691    20311                    /*  Commercial Divide By Zero:
      692    20312                        assume (?) it's the user's fault.  */
      693    20313    3               CALL QCE$ERROR ( %E$COMMERCIAL_DIVIDE_BY_ZERO );

  20313   0 000092  BB80 0000 0004  01                   LAB,B3   +4
          0 000095  CBF0 0100                            LAB,B4   256,IMO
          0 000097  E380 0000 0000  xent                 LNJ,B6   QCE$ERROR
          0 00009A       0001                            DC       s:20313+9,PREL
          0 00009B  0F81 000A                            B        s:20322,PREL

      694    20314
      695    20315    3             CASE ( ELSE );

      696    20316                    /*  Oops.  */
      697    20317    3               CALL QCE$ERROR_M$INTERNAL ( %E$INTERPRETER_TRAP );

  20317   0 00009D  BB80 0000 0007  01                   LAB,B3   +7
          0 0000A0  CBF0 0100                            LAB,B4   256,IMO
          0 0000A2  E380 0000 0000  xent                 LNJ,B6   QCE$ERROR_M$INTERNAL
          0 0000A5       0001                            DC       s:20322,PREL

      698    20318
      699    20319    3           END;

      700    20320    2         END NO_DEBUGGER;

PL6.E3A0      #002=QCE$ERRORS_ASYNC File=QCE$ERROR.:E05TSI                       WED 07/30/97 05:10 Page:120
      701    20321
      702    20322    1   END QCE$ERRORS_ASYNC;

  20322   0 0000A6  C380 0000 0000  xent                 LNJ,B4   X6A_AARET
      703    20323        %EOD;

PL6.E3A0      #002=QCE$ERRORS_ASYNC File=QCE$ERROR.:E05TSI                       WED 07/30/97 05:10 Page:121
--  Include file information  --

   QI_MACROS_M.:E05TOU  is referenced.
   QI_PERR_C.:E05TOU  is referenced.
   QI_EQUATES_E.:E05TOU  is referenced.
   QG_MACRO_M.:E05TOU  is referenced.
   LCP_6.:E05TOU  cannot be made into a system file and is referenced.
   G_JIT_M.:E05TOU  is referenced.
   G_LCP6_E.:E05TOU  was found in the system file and is referenced.
   GT_LCP6_M.:E05TOU  was found in the system file and is referenced.
   KI_CP6.:E05TOU  was found in the system file and is referenced.
   GF_LCP6_M.:E05TOU  was found in the system file and is referenced.
   GM_LCP6_M.:E05TOU  was found in the system file and is referenced.
   GU_LCP6_M.:E05TOU  was found in the system file and is referenced.
   GJ_LCP6_M.:E05TOU  was found in the system file and is referenced.
   GH_LCP6_M.:E05TOU  was found in the system file and is referenced.
      No diagnostics issued in procedure QCE$ERRORS_ASYNC.
PL6.E3A0      #002=QCE$ERRORS_ASYNC File=QCE$ERROR.:E05TSI                       WED 07/30/97 05:10 Page:122

 **** Variables and constants ****

  ****  Auto variables  ****

  ****  Scalars and arrays  ****
HexLoc.c.b A Datatyp(siz) R M Lvl/name                 HexLoc.c.b A Datatyp(siz) R M Lvl/name

     4-0-0/w STRC(128)   r     1 FPT@EXIT

  ****  SYMREF variables  ****

  ****  Scalars and arrays  ****
HexLoc.c.b A Datatyp(siz) R M Lvl/name                 HexLoc.c.b A Datatyp(siz) R M Lvl/name

     0-0-0/w PTR         r     1 G$JIT$                     0-0-0/w PTR         r     1 G$TCB$
     0-0-0/d STRC(2576)  r     1 QI_1                       0-0-0/w STRC(128)   r     1 QI_FPT_EXIT
     0-0-0/w STRC(112)   r     1 QI_VLP_XBREAK

  ****  BASED and DCB variables  ****

  ****  Scalars and arrays  ****
HexLoc.c.b A Datatyp(siz) R M Lvl/name                 HexLoc.c.b A Datatyp(siz) R M Lvl/name

     0-0-0/w STRC(736)   r     1 G$EXCFR                    0-0-0/w STRC(5616)  r     1 G$JIT
     0-0-0/w STRC(96)    r     1 G$TCB
     0-0-0/c ASTR(8)     r     1 QI$VARIABLE_IDENTIFIER


   Procedure QCE$ERRORS_ASYNC requires 169 words for executable code.
   Procedure QCE$ERRORS_ASYNC requires 12 words of local(AUTO) storage.
PL6.E3A0      #002=QCE$ERRORS_ASYNC File=QCE$ERROR.:E05TSI                       WED 07/30/97 05:10 Page:123
          *** CROSS REFERENCE LISTING ***
**     DENOTES     IDENTIFIER DEFINITION
<<                 IDENTIFIER'S VALUE SET
>>                 IDENTIFIER'S VALUE USED
<>                 IDENTIFIER SET AND/OR USED
--                 IDENTIFIER REFERENCED
PL6.E3A0      #002=QCE$ERRORS_ASYNC File=QCE$ERROR.:E05TSI                       WED 07/30/97 05:10 Page:124
          MINI XREF LISTING

FPT@EXIT
       499**DCL     20253<<ASSIGN  20256<>CALL
FPT@EXIT.V
       501**DCL     20254--ASSIGN
FPT@EXIT.V_
       501**DCL     20254<<ASSIGN
G$EXCFR.P$
       992**DCL     20293>>ASSIGN
G$EXCFR.P$$
       992**DCL       992--REDEF     992--REDEF
G$EXCFR.PREVSZ
       942**DCL       942--REDEF
G$EXCFR.TRLR.EVID
      1229**DCL      1247--REDEF    1255--REDEF    1255--REDEF
G$EXCFR.TRLR.SUBC
      1206**DCL      1206--REDEF    1224--REDEF    1228--REDEF    1228--REDEF   20250>>IF
G$EXCFR.TRLR.TRAP.TRAP#
      1228**DCL     20284>>ASSIGN  20303>>DOCASE
G$JIT.DB#
       703**DCL     20276>>IF
G$JIT.ERRLOG
       852**DCL       855--REDEF
G$JIT.JSUNIT
       591**DCL       592--REDEF
G$JIT.MCLS
       590**DCL       590--REDEF
G$JIT.TMRZ
       859**DCL       860--REDEF
G$JIT.USER_EXTIME
       583**DCL       584--REDEF
G$JIT.USER_MEMTIME
       586**DCL       586--REDEF
PL6.E3A0      #002=QCE$ERRORS_ASYNC File=QCE$ERROR.:E05TSI                       WED 07/30/97 05:10 Page:125
G$JIT.USER_SVTIME
       585**DCL       585--REDEF
G$JIT$
       922**DCL     20276>>IF
G$TCB.STK$
      1323**DCL     20250>>IF      20284>>ASSIGN  20293>>ASSIGN  20303>>DOCASE
G$TCB$
      1326**DCL     20250>>IF      20284>>ASSIGN  20293>>ASSIGN  20303>>DOCASE
M$EXIT
       444**DCL-ENT 20256--CALL
QCE$ERROR
     20209**DCL-ENT 20308--CALL    20313--CALL
QCE$ERROR_M$INTERNAL
     20210**DCL-ENT 20317--CALL
QCE$EXPERIENCE_M$XBREAK
     20211**DCL-ENT 20297--CALL
QGB_PARAM.DVE.DVBYTE.VFC
     12647**DCL     12648--REDEF
QGB_PARAM.DVE.EOMCHAR
     12659**DCL     12660--REDEF
QGB_PARAM.MSG$
     12641**DCL     12642--REDEF
QGB_PARAM.UHDR$
     12666**DCL     12667--REDEF
QI$ACTIVATION_STATUS
     10405**DCL     10411--REDEF
QI$CIP
      9246**DCL      9316--REDEF
QI$CIP.CA
      9251**DCL      9255--REDEF    9258--REDEF    9261--REDEF
QI$COBOL_DAD.PSEUDO_CIP
      9490**DCL      9515--REDEF
QI$COBOL_DAD.PSEUDO_CIP.ALPHANUMERIC
      9492**DCL      9497--REDEF
QI$COBOL_DAD.PSEUDO_CIP.NUMERIC.CB
      9498**DCL      9501--REDEF    9504--REDEF
PL6.E3A0      #002=QCE$ERRORS_ASYNC File=QCE$ERROR.:E05TSI                       WED 07/30/97 05:10 Page:126
QI$COBOL_DAD.VARIABLE_LENGTH_ITEMS
      9526**DCL      9542--REDEF    9550--REDEF    9558--REDEF
QI$COBOL_DAD.VARIABLE_LENGTH_ITEMS.LEVEL_MULTIPLIERS
      9527**DCL      9537--REDEF    9540--REDEF
QI$COBOL_DAD.WORD0
      9454**DCL      9455--REDEF    9469--REDEF
QI$COBOL_DAD_P_BITS.P
      9594**DCL      9600--REDEF
QI$CONDITION_CONTROL_BLOCK.LIST_A@P
      9080**DCL      9081--REDEF
QI$CONDITION_CONTROL_BLOCK.WORD0_FLAGS
      9076**DCL      9079--REDEF
QI$CONDITION_LEGAL_BLOCK.ARRAY@P
      9113**DCL      9114--REDEF    9115--REDEF
QI$DAD.PSEUDO_CIP
      9393**DCL      9418--REDEF
QI$DAD.PSEUDO_CIP.ALPHANUMERIC
      9395**DCL      9400--REDEF
QI$DAD.PSEUDO_CIP.NUMERIC.CB
      9401**DCL      9404--REDEF    9407--REDEF
QI$DAD.WORD0
      9362**DCL      9363--REDEF
QI$ERROR_MESSAGE_LINE
     12754**DCL     12756--REDEF
QI$ERROR_STATUS
     12751**DCL     12753--REDEF
QI$FIELD_DAD.ELEMENTARY_ITEM.P
      9808**DCL      9815--REDEF
QI$FIELD_DAD.ONE_DIMENSIONAL_ITEM.P
      9828**DCL      9835--REDEF
QI$FIELD_DAD.PSEUDO_CIP
      9735**DCL      9760--REDEF
QI$FIELD_DAD.PSEUDO_CIP.ALPHANUMERIC
      9737**DCL      9742--REDEF
QI$FIELD_DAD.PSEUDO_CIP.NUMERIC.CB
      9743**DCL      9746--REDEF    9749--REDEF
PL6.E3A0      #002=QCE$ERRORS_ASYNC File=QCE$ERROR.:E05TSI                       WED 07/30/97 05:10 Page:127
QI$FIELD_DAD.TWO_DIMENSIONAL_ITEM.P
      9848**DCL      9855--REDEF
QI$FIELD_DAD.VARIABLE_LENGTH_ITEMS
      9791**DCL      9807--REDEF    9825--REDEF    9843--REDEF
QI$FIELD_DAD.VARIABLE_LENGTH_ITEMS.LEVEL_MULTIPLIERS
      9792**DCL      9802--REDEF    9805--REDEF
QI$FIELD_DAD.WORD0
      9687**DCL      9688--REDEF
QI$FIELD_DAD.WORD0_FLAGS.IO_FLAGS
      9691**DCL      9696--REDEF
QI$FIELD_DAD_P.P
      9889**DCL      9896--REDEF
QI$FIELD_STATUS.INDICATORS
     10555**DCL     10587--REDEF
QI$FIELD_STATUS.INDICATORS.ENABLED_FLAGS
     10559**DCL     10564--REDEF
QI$FIELD_STATUS.INDICATORS.OPEN_FLAGS
     10571**DCL     10578--REDEF
QI$FIELD_STATUS.INDICATORS.STATE_FLAGS
     10565**DCL     10570--REDEF
QI$FILE.WORD0
     10011**DCL     10012--REDEF
QI$FILE_STATUS.INDICATORS
     10848**DCL     10880--REDEF
QI$FILE_STATUS.INDICATORS.ENABLED_FLAGS
     10852**DCL     10857--REDEF
QI$FILE_STATUS.INDICATORS.OPEN_FLAGS
     10864**DCL     10871--REDEF
QI$FILE_STATUS.INDICATORS.STATE_FLAGS
     10858**DCL     10863--REDEF
QI$FORM_FILE.USE_PROCEDURE
     10111**DCL     10118--REDEF
QI$FORM_FILE.WORD0
     10065**DCL     10066--REDEF
QI$FORM_STATUS.INDICATORS
     10969**DCL     11001--REDEF
PL6.E3A0      #002=QCE$ERRORS_ASYNC File=QCE$ERROR.:E05TSI                       WED 07/30/97 05:10 Page:128
QI$FORM_STATUS.INDICATORS.ENABLED_FLAGS
     10973**DCL     10978--REDEF
QI$FORM_STATUS.INDICATORS.OPEN_FLAGS
     10985**DCL     10992--REDEF
QI$FORM_STATUS.INDICATORS.STATE_FLAGS
     10979**DCL     10984--REDEF
QI$FRAME.WORD0
     10226**DCL     10227--REDEF
QI$FRAME_STATUS.INDICATORS
     11198**DCL     11230--REDEF
QI$FRAME_STATUS.INDICATORS.ENABLED_FLAGS
     11202**DCL     11207--REDEF
QI$FRAME_STATUS.INDICATORS.OPEN_FLAGS
     11214**DCL     11221--REDEF
QI$FRAME_STATUS.INDICATORS.STATE_FLAGS
     11208**DCL     11213--REDEF
QI$GZ_FIELD.DESCRIPTION.IO_FLAGS
     18080**DCL     18085--REDEF
QI$IDENTIFIER
     12757**DCL     12759--REDEF
QI$INDICATORS
     10469**DCL     10499--REDEF
QI$INDICATORS.ENABLED_FLAGS
     10475**DCL     10480--REDEF
QI$INDICATORS.OPEN_FLAGS
     10487**DCL     10494--REDEF
QI$INDICATORS.STATE_FLAGS
     10481**DCL     10486--REDEF
QI$MAJOR_NODE.WORD0
      9925**DCL      9926--REDEF
QI$MAJOR_STATUS.INDICATORS
     10648**DCL     10680--REDEF
QI$MAJOR_STATUS.INDICATORS.ENABLED_FLAGS
     10652**DCL     10657--REDEF
QI$MAJOR_STATUS.INDICATORS.OPEN_FLAGS
     10664**DCL     10671--REDEF
PL6.E3A0      #002=QCE$ERRORS_ASYNC File=QCE$ERROR.:E05TSI                       WED 07/30/97 05:10 Page:129
QI$MAJOR_STATUS.INDICATORS.STATE_FLAGS
     10658**DCL     10663--REDEF
QI$MESSAGE_TYPE
     12748**DCL     12750--REDEF
QI$MINOR_NODE.WORD0
      9968**DCL      9969--REDEF
QI$MINOR_STATUS.INDICATORS
     10741**DCL     10773--REDEF
QI$MINOR_STATUS.INDICATORS.ENABLED_FLAGS
     10745**DCL     10750--REDEF
QI$MINOR_STATUS.INDICATORS.OPEN_FLAGS
     10757**DCL     10764--REDEF
QI$MINOR_STATUS.INDICATORS.STATE_FLAGS
     10751**DCL     10756--REDEF
QI$OP_ACCEPT.DATANAME@P
      7156**DCL      7157--REDEF
QI$OP_CALL.EPTR$
      7328**DCL      7329--REDEF
QI$OP_CLEAR.IO_FLAGS
      7361**DCL      7364--REDEF
QI$OP_DISPLAY.FIELD_A@P
      7628**DCL      7629--REDEF
QI$OP_ENABLE.IO_FLAGS
      7715**DCL      7718--REDEF
QI$OP_IFCLS.ATTRIBUTE.TYPE
      7808**DCL      7813--REDEF
QI$OP_INSPECT.TALLYING_FOR_ITEM@P
      8042**DCL      8043--REDEF
QI$OP_INSPECT.TALLYING_INITIAL_ITEM@P
      8044**DCL      8045--REDEF
QI$OP_INSPECT.TALLYING_ITEM@P
      8040**DCL      8041--REDEF
QI$OP_OPEN.IO_FLAGS
      8602**DCL      8605--REDEF
QI$OP_PERFM.BINARY_ITERATION_COUNT@P
      8640**DCL      8641--REDEF
PL6.E3A0      #002=QCE$ERRORS_ASYNC File=QCE$ERROR.:E05TSI                       WED 07/30/97 05:10 Page:130
QI$PSEUDO_CIP
      9141**DCL      9165--REDEF
QI$PSEUDO_CIP.ALPHANUMERIC
      9145**DCL      9150--REDEF
QI$PSEUDO_CIP.NUMERIC.CB
      9151**DCL      9154--REDEF    9157--REDEF
QI$TERMINAL_ATTRIBUTES
     10362**DCL     10375--REDEF
QI$TRAN_FILE.WORD0
     10147**DCL     10148--REDEF
QI$TRAN_STATUS.INDICATORS
     11082**DCL     11114--REDEF
QI$TRAN_STATUS.INDICATORS.ENABLED_FLAGS
     11086**DCL     11091--REDEF
QI$TRAN_STATUS.INDICATORS.OPEN_FLAGS
     11098**DCL     11105--REDEF
QI$TRAN_STATUS.INDICATORS.STATE_FLAGS
     11092**DCL     11097--REDEF
QI$VARIABLE_IDENTIFIER.LENGTH
     12761**DCL     12762--IMP-SIZ
QI_1.BASE
     11290**DCL     11297--REDEF
QI_1.CURRENT.FILE$
     12181**DCL     12183--REDEF   12185--REDEF
QI_1.CURRENT.FILE_STATUS$
     12187**DCL     12189--REDEF   12191--REDEF
QI_1.DAD
     11985**DCL     11990--REDEF
QI_1.FILE_HEAD
     12168**DCL     12175--REDEF
QI_1.HOUSEKEEPING.IS_DEBUGGER_ASSOCIATING
     11324**DCL     20228<<ASSIGN
QI_1.INSTR$
     11298**DCL     20290>>ASSIGN
QI_1.IS_ALL_LIT
     11991**DCL     11996--REDEF
PL6.E3A0      #002=QCE$ERRORS_ASYNC File=QCE$ERROR.:E05TSI                       WED 07/30/97 05:10 Page:131
QI_1.IS_FORM_VARIABLE
     11997**DCL     12002--REDEF
QI_1.IS_TEMP
     12003**DCL     12008--REDEF
QI_1.MESSAGE_LINE_DAD.PSEUDO_CIP
     12101**DCL     12126--REDEF
QI_1.MESSAGE_LINE_DAD.PSEUDO_CIP.ALPHANUMERIC
     12103**DCL     12108--REDEF
QI_1.MESSAGE_LINE_DAD.PSEUDO_CIP.NUMERIC.CB
     12109**DCL     12112--REDEF   12115--REDEF
QI_1.MESSAGE_LINE_DAD.WORD0
     12070**DCL     12071--REDEF
QI_1.OFFSET
     12009**DCL     12014--REDEF
QI_1.OP.CIP
     11370**DCL     11821--REDEF
QI_1.OP.CIP.AUX
     11736**DCL     11807--REDEF
QI_1.OP.CIP.AUX.CD
     11781**DCL     11784--REDEF   11788--REDEF   11791--REDEF
QI_1.OP.CIP.S
     11440**DCL     11511--REDEF
QI_1.OP.CIP.S.CD
     11485**DCL     11488--REDEF   11492--REDEF   11495--REDEF
QI_1.OP.CIP.T
     11588**DCL     11659--REDEF
QI_1.OP.CIP.T.CD
     11633**DCL     11636--REDEF   11640--REDEF   11643--REDEF
QI_1.OP.DATA
     11828**DCL     11832--REDEF
QI_1.OP.FILL_CHAR
     11952**DCL     11955--REDEF
QI_1.OP.INX
     11885**DCL     11889--REDEF   11890--REDEF   11894--REDEF
QI_1.OP.LEN
     11868**DCL     11872--REDEF   11873--REDEF   11877--REDEF   11878--REDEF   11882--REDEF
PL6.E3A0      #002=QCE$ERRORS_ASYNC File=QCE$ERROR.:E05TSI                       WED 07/30/97 05:10 Page:132
QI_1.OP.LEN.AUX
     11871**DCL     12772--IMP-SIZ
QI_1.OP.LEN.S
     11869**DCL     12768--IMP-SIZ
QI_1.OP.LEN.T
     11870**DCL     12770--IMP-SIZ
QI_1.OP.PICTURE_STRING
     11938**DCL     11941--REDEF   11942--REDEF   11945--REDEF   11946--REDEF   11949--REDEF
QI_1.OP.ROUND
     11971**DCL     11972--REDEF   11973--REDEF
QI_1.OP.SRCH_VRFY_ELEMS
     11907**DCL     11910--REDEF
QI_1.OPENED_COUNT
     12176**DCL     12179--REDEF
QI_1.OTTER_SPACE
     12015**DCL     12020--REDEF
QI_1.PICTURE_STRING
     12021**DCL     12026--REDEF
QI_1.SPECIAL_NAMES
     12204**DCL     12213--REDEF
QI_1.TYPE
     12027**DCL     12032--REDEF
QI_16_BIT_BINARY
     17217**DCL     17287--REDEF
QI_16_BIT_BINARY.CB
     17236**DCL     17239--REDEF   17243--REDEF   17246--REDEF
QI_31_DIGIT_SLS_DISPLAY
     17050**DCL     17120--REDEF
QI_31_DIGIT_SLS_DISPLAY.CD
     17097**DCL     17100--REDEF   17104--REDEF   17107--REDEF
QI_31_DIGIT_ST_PACKED
     17552**DCL     17622--REDEF
QI_31_DIGIT_ST_PACKED.CP
     17585**DCL     17588--REDEF   17592--REDEF   17595--REDEF
QI_32_BIT_BINARY
     17384**DCL     17454--REDEF
PL6.E3A0      #002=QCE$ERRORS_ASYNC File=QCE$ERROR.:E05TSI                       WED 07/30/97 05:10 Page:133
QI_32_BIT_BINARY.CB
     17403**DCL     17406--REDEF   17410--REDEF   17413--REDEF
QI_4_CHAR_ALPHANUMERIC
     16882**DCL     16952--REDEF
QI_4_CHAR_ALPHANUMERIC.CA
     16887**DCL     16891--REDEF   16894--REDEF   16897--REDEF
QI_ACCUMULATOR_DAD.CIP
     17895**DCL     17966--REDEF
QI_ACCUMULATOR_DAD.CIP.CP
     17926**DCL     17929--REDEF   17933--REDEF   17936--REDEF
QI_ALR.CIP
     12847**DCL     13298--REDEF
QI_ALR.CIP.AUX
     13213**DCL     13284--REDEF
QI_ALR.CIP.AUX.CA
     13216**DCL     13220--REDEF   13223--REDEF   13226--REDEF
QI_ALR.CIP.S
     12917**DCL     12988--REDEF
QI_ALR.CIP.S.CA
     12920**DCL     12924--REDEF   12927--REDEF   12930--REDEF
QI_ALR.CIP.T
     13065**DCL     13136--REDEF
QI_ALR.CIP.T.CA
     13068**DCL     13072--REDEF   13075--REDEF   13078--REDEF
QI_ALR.DATA
     13305**DCL     13309--REDEF
QI_ALR.FILL_CHAR
     13429**DCL     13432--REDEF
QI_ALR.INX
     13362**DCL     13366--REDEF   13367--REDEF   13371--REDEF
QI_ALR.LEN
     13345**DCL     13349--REDEF   13350--REDEF   13354--REDEF   13355--REDEF   13359--REDEF
QI_ALR.PICTURE_STRING
     13415**DCL     13418--REDEF   13419--REDEF   13422--REDEF   13423--REDEF   13426--REDEF
QI_ALR.ROUND
     13448**DCL     13449--REDEF   13450--REDEF
PL6.E3A0      #002=QCE$ERRORS_ASYNC File=QCE$ERROR.:E05TSI                       WED 07/30/97 05:10 Page:134
QI_ALR.SRCH_VRFY_ELEMS
     13384**DCL     13387--REDEF
QI_FPT_DBCONTROL.V_
     18267**DCL     18267--REDEF
QI_FPT_EXIT
     18604**DCL     20253>>ASSIGN
QI_FPT_INT.V_
     19105**DCL     19105--REDEF
QI_MAT.CIP
     16186**DCL     16637--REDEF
QI_MAT.CIP.AUX
     16552**DCL     16623--REDEF
QI_MAT.CIP.AUX.CA
     16555**DCL     16559--REDEF   16562--REDEF   16565--REDEF
QI_MAT.CIP.S
     16256**DCL     16327--REDEF
QI_MAT.CIP.S.CA
     16259**DCL     16263--REDEF   16266--REDEF   16269--REDEF
QI_MAT.CIP.T
     16404**DCL     16475--REDEF
QI_MAT.CIP.T.CA
     16407**DCL     16411--REDEF   16414--REDEF   16417--REDEF
QI_MAT.DATA
     16644**DCL     16648--REDEF
QI_MAT.DEC
     16712**DCL     16716--REDEF   16717--REDEF   16721--REDEF
QI_MAT.FILL_CHAR
     16768**DCL     16771--REDEF
QI_MAT.LEN
     16684**DCL     16688--REDEF   16689--REDEF   16693--REDEF   16694--REDEF   16698--REDEF
QI_MAT.PICTURE_STRING
     16754**DCL     16757--REDEF   16758--REDEF   16761--REDEF   16762--REDEF   16765--REDEF
QI_MAT.ROUND
     16787**DCL     16788--REDEF   16789--REDEF
QI_MAT.SRCH_VRFY_ELEMS
     16723**DCL     16726--REDEF
PL6.E3A0      #002=QCE$ERRORS_ASYNC File=QCE$ERROR.:E05TSI                       WED 07/30/97 05:10 Page:135
QI_PICTURE_STRING
     17720**DCL     17790--REDEF
QI_PICTURE_STRING.CA
     17725**DCL     17729--REDEF   17732--REDEF   17735--REDEF
QI_SRCH_VRFY.CIP
     15517**DCL     15968--REDEF
QI_SRCH_VRFY.CIP.AUX
     15883**DCL     15954--REDEF
QI_SRCH_VRFY.CIP.AUX.CA
     15886**DCL     15890--REDEF   15893--REDEF   15896--REDEF
QI_SRCH_VRFY.CIP.S
     15587**DCL     15658--REDEF
QI_SRCH_VRFY.CIP.S.CA
     15590**DCL     15594--REDEF   15597--REDEF   15600--REDEF
QI_SRCH_VRFY.CIP.T
     15735**DCL     15806--REDEF
QI_SRCH_VRFY.CIP.T.CA
     15738**DCL     15742--REDEF   15745--REDEF   15748--REDEF
QI_SRCH_VRFY.DATA
     15975**DCL     15979--REDEF
QI_SRCH_VRFY.DEC
     16043**DCL     16047--REDEF   16048--REDEF   16052--REDEF
QI_SRCH_VRFY.FILL_CHAR
     16099**DCL     16102--REDEF
QI_SRCH_VRFY.ROUND
     16118**DCL     16119--REDEF   16120--REDEF
QI_SRCH_VRFY.SRCH_RESULT
     16059**DCL     16062--REDEF   16063--REDEF   16066--REDEF   16067--REDEF   16070--REDEF
QI_SRCH_VRFY.SRCH_VRFY_ARGS
     15983**DCL     15987--REDEF   15988--REDEF   15992--REDEF   15993--REDEF   15997--REDEF
QI_SRCH_VRFY.SRCH_VRFY_ELEMS
     16054**DCL     16057--REDEF
QI_TYPE_BINARY_TARGET.CIP
     14844**DCL     15295--REDEF
QI_TYPE_BINARY_TARGET.CIP.AUX
     15210**DCL     15281--REDEF
PL6.E3A0      #002=QCE$ERRORS_ASYNC File=QCE$ERROR.:E05TSI                       WED 07/30/97 05:10 Page:136
QI_TYPE_BINARY_TARGET.CIP.AUX.CA
     15213**DCL     15217--REDEF   15220--REDEF   15223--REDEF
QI_TYPE_BINARY_TARGET.CIP.S
     14914**DCL     14985--REDEF
QI_TYPE_BINARY_TARGET.CIP.S.CA
     14917**DCL     14921--REDEF   14924--REDEF   14927--REDEF
QI_TYPE_BINARY_TARGET.CIP.T
     15062**DCL     15133--REDEF
QI_TYPE_BINARY_TARGET.CIP.T.CB
     15079**DCL     15082--REDEF   15086--REDEF   15089--REDEF
QI_TYPE_BINARY_TARGET.DATA
     15302**DCL     15306--REDEF
QI_TYPE_BINARY_TARGET.DEC
     15370**DCL     15374--REDEF   15375--REDEF   15379--REDEF
QI_TYPE_BINARY_TARGET.LEN
     15342**DCL     15346--REDEF   15347--REDEF   15351--REDEF   15352--REDEF   15356--REDEF
QI_TYPE_BINARY_TARGET.PICTURE_STRING
     15412**DCL     15415--REDEF   15416--REDEF   15419--REDEF   15420--REDEF   15423--REDEF
QI_TYPE_BINARY_TARGET.ROUND
     15445**DCL     15446--REDEF   15447--REDEF
QI_TYPE_BINARY_TARGET.SIZE_ERROR
     15431**DCL     15432--REDEF
QI_TYPE_BINARY_TARGET.SRCH_VRFY_ELEMS
     15381**DCL     15384--REDEF
QI_TYPE_DISPLAY_SOURCE.CIP
     13512**DCL     13963--REDEF
QI_TYPE_DISPLAY_SOURCE.CIP.AUX
     13878**DCL     13949--REDEF
QI_TYPE_DISPLAY_SOURCE.CIP.AUX.CA
     13881**DCL     13885--REDEF   13888--REDEF   13891--REDEF
QI_TYPE_DISPLAY_SOURCE.CIP.S
     13582**DCL     13653--REDEF
QI_TYPE_DISPLAY_SOURCE.CIP.S.CD
     13627**DCL     13630--REDEF   13634--REDEF   13637--REDEF
QI_TYPE_DISPLAY_SOURCE.CIP.T
     13730**DCL     13801--REDEF
PL6.E3A0      #002=QCE$ERRORS_ASYNC File=QCE$ERROR.:E05TSI                       WED 07/30/97 05:10 Page:137
QI_TYPE_DISPLAY_SOURCE.CIP.T.CA
     13733**DCL     13737--REDEF   13740--REDEF   13743--REDEF
QI_TYPE_DISPLAY_SOURCE.DATA
     13970**DCL     13974--REDEF
QI_TYPE_DISPLAY_SOURCE.DEC
     14038**DCL     14042--REDEF   14043--REDEF   14047--REDEF
QI_TYPE_DISPLAY_SOURCE.LEN
     14010**DCL     14014--REDEF   14015--REDEF   14019--REDEF   14020--REDEF   14024--REDEF
QI_TYPE_DISPLAY_SOURCE.PICTURE_STRING
     14080**DCL     14083--REDEF   14084--REDEF   14087--REDEF   14088--REDEF   14091--REDEF
QI_TYPE_DISPLAY_SOURCE.ROUND
     14113**DCL     14114--REDEF   14115--REDEF
QI_TYPE_DISPLAY_SOURCE.SIZE_ERROR
     14099**DCL     14100--REDEF
QI_TYPE_DISPLAY_SOURCE.SRCH_VRFY_ELEMS
     14049**DCL     14052--REDEF
QI_TYPE_DISPLAY_TARGET.CIP
     14178**DCL     14629--REDEF
QI_TYPE_DISPLAY_TARGET.CIP.AUX
     14544**DCL     14615--REDEF
QI_TYPE_DISPLAY_TARGET.CIP.AUX.CA
     14547**DCL     14551--REDEF   14554--REDEF   14557--REDEF
QI_TYPE_DISPLAY_TARGET.CIP.S
     14248**DCL     14319--REDEF
QI_TYPE_DISPLAY_TARGET.CIP.S.CA
     14251**DCL     14255--REDEF   14258--REDEF   14261--REDEF
QI_TYPE_DISPLAY_TARGET.CIP.T
     14396**DCL     14467--REDEF
QI_TYPE_DISPLAY_TARGET.CIP.T.CD
     14441**DCL     14444--REDEF   14448--REDEF   14451--REDEF
QI_TYPE_DISPLAY_TARGET.DATA
     14636**DCL     14640--REDEF
QI_TYPE_DISPLAY_TARGET.DEC
     14704**DCL     14708--REDEF   14709--REDEF   14713--REDEF
QI_TYPE_DISPLAY_TARGET.LEN
     14676**DCL     14680--REDEF   14681--REDEF   14685--REDEF   14686--REDEF   14690--REDEF
PL6.E3A0      #002=QCE$ERRORS_ASYNC File=QCE$ERROR.:E05TSI                       WED 07/30/97 05:10 Page:138
QI_TYPE_DISPLAY_TARGET.PICTURE_STRING
     14746**DCL     14749--REDEF   14750--REDEF   14753--REDEF   14754--REDEF   14757--REDEF
QI_TYPE_DISPLAY_TARGET.ROUND
     14779**DCL     14780--REDEF   14781--REDEF
QI_TYPE_DISPLAY_TARGET.SIZE_ERROR
     14765**DCL     14766--REDEF
QI_TYPE_DISPLAY_TARGET.SRCH_VRFY_ELEMS
     14715**DCL     14718--REDEF
QI_VLP_SEGMENT.BASE
     18804**DCL     18804--REDEF
QI_VLP_SEGMENT_BUFFER.BASE
     18902**DCL     18902--REDEF
QI_VLP_SEGMENT_LOAD.BASE
     19000**DCL     19000--REDEF
QI_VLP_TRMCTL.BREAKCOUNT
     19994**DCL     19995--REDEF
QI_VLP_XBREAK.IC
     20184**DCL     20184--REDEF
QI_VLP_XBREAK.IC$
     20184**DCL     20290<<ASSIGN  20293<<ASSIGN
QI_VLP_XBREAK.OLDIC
     20184**DCL     20185--REDEF   20185--REDEF
QI_VLP_XBREAK.TRAP#
     20186**DCL     20284<<ASSIGN  20286>>DOCASE

PL6.E3A0      #003=QCE$EXPERIENCE_M$XBREAK File=QCE$ERROR.:E05TSI                WED 07/30/97 05:12 Page:139
      704        1        /*M* QCE$EXPERIENCE_M$XBREAK:  Call Carl.  */
      705        2        /*T***********************************************************/
      706        3        /*T*                                                         */
      707        4        /*T* Copyright (c) Bull HN Information Systems Inc., 1997    */
      708        5        /*T*                                                         */
      709        6        /*T***********************************************************/
      710        7        /*X* DMC,PLM=4,IND=0,DCI=4,CSI=2,IAD=2,DTI=2,AND,ECI=0,DIN=2,STI=2 */
      711        8
      712        9        /*P*  NAME:         QCE$EXPERIENCE_M$XBREAK
      713       10              PURPOSE:      To CALL M$XBREAK and act appropriately
      714       11                            upon its return.
      715       12              DESCRIPTION:  Basically, this is just a home for the
      716       13                            M$XBREAK call.
      717       14        */
      718       15
      719       16        QCE$EXPERIENCE_M$XBREAK: PROC;
      720       17
      721       18        /*D*  NAME:         QCE$EXPERIENCE_M$XBREAK
      722       19              CALL:         CALL QCE$EXPERIENCE_M$XBREAK;
      723       20              PARAMETERS:   None.
      724       21              INTERFACE:    Called when:
      725       22                            1)  QAT$TALLYHO encounters a BRK op-code;
      726       23                            2)  QAT$TALLYHO sees that QI_VLP_XBREAK.TT is set
      727       24                                and the just-executed op-code has resulted
      728       25                                in a transfer (QI_1.INSTRUCTION_TRANSFERRED);
      729       26                            3)  QCE$ERROR_DBCONTROL was entered.
      730       27              ENVIRONMENT:  Nothing unusual.
      731       28              INPUT:        QI_1.INSTR$, etc.
      732       29              OUTPUT:       None.
      733       30              SCRATCH:      Various otter data.
      734       31              DESCRIPTION:  Call M$XBREAK and act accordingly.
      735       32        */
      736       33
      737       34          %INCLUDE LCP_6;
      738      225          %FPT_XBREAK ( FPTN = FPT@XBREAK,
      739      226                       STCLASS = AUTO );
      740      241          %G$EXCFR;
PL6.E3A0      #003=QCE$EXPERIENCE_M$XBREAK File=QCE$ERROR.:E05TSI                WED 07/30/97 05:12 Page:140
      741      623          %G$TCB;
      742      644    1     DCL G$TCB$ PTR SYMREF;
      743      645
      744      646          %INCLUDE QG_MACRO_M;
      745      783          %INCLUDE QI_EQUATES_E;
      746     1142          %INCLUDE QI_PERR_C;
      747     1310          %INCLUDE QI_MACROS_M;
      748     6368          %QI$ALL;
      749    17481          %QI_FPTS;
      750    19526
      751    19527    1     DCL QCE$ERROR_M$INTERNAL ENTRY (4);
      752    19528        %EJECT;
PL6.E3A0      #003=QCE$EXPERIENCE_M$XBREAK File=QCE$ERROR.:E05TSI                WED 07/30/97 05:12 Page:141
      753    19529    1       FPT@XBREAK = QI_FPT_XBREAK;
      754    19530
      755    19531    1       CALL M$XBREAK ( FPT@XBREAK )
      756    19532    1       WHENRETURN
      757    19533    2         DO;
      758    19534    2           IF QI_VLP_XBREAK.GOIC
      759    19535    2           THEN
      760    19536    2             QI_1.INSTR$ = QI_VLP_XBREAK.IC$;
      761    19537    2         END;
      762    19538    1       WHENALTRETURN
      763    19539    2         DO;
      764    19540    2           CALL QCE$ERROR_M$INTERNAL ( G$TCB$ -> G$TCB.ALT$ -> G$EXCFR.TRLR.ERR.ERR# );
      765    19541    2         END;
      766    19542
      767    19543    1       RETURN;
      768    19544
      769    19545    1   END QCE$EXPERIENCE_M$XBREAK;

PL6.E3A0      #003=QCE$EXPERIENCE_M$XBREAK File=QCE$ERROR.:E05TSI                WED 07/30/97 05:12 Page:142
--  Include file information  --

   QI_MACROS_M.:E05TOU  is referenced.
   QI_PERR_C.:E05TOU  is referenced.
   QI_EQUATES_E.:E05TOU  is referenced.
   QG_MACRO_M.:E05TOU  is referenced.
   LCP_6.:E05TOU  cannot be made into a system file and is referenced.
   G_LCP6_E.:E05TOU  was found in the system file and is referenced.
   GT_LCP6_M.:E05TOU  was found in the system file and is referenced.
   KI_CP6.:E05TOU  was found in the system file and is referenced.
   GF_LCP6_M.:E05TOU  was found in the system file and is referenced.
   GM_LCP6_M.:E05TOU  was found in the system file and is referenced.
   GU_LCP6_M.:E05TOU  was found in the system file and is referenced.
   GJ_LCP6_M.:E05TOU  was found in the system file and is referenced.
   GH_LCP6_M.:E05TOU  was found in the system file and is referenced.
      No diagnostics issued in procedure QCE$EXPERIENCE_M$XBREAK.

   Procedure QCE$EXPERIENCE_M$XBREAK requires 52 words for executable code.
   Procedure QCE$EXPERIENCE_M$XBREAK requires 10 words of local(AUTO) storage.

    No errors detected in file QCE$ERROR.:E05TSI    .

PL6.E3A0      #003=QCE$EXPERIENCE_M$XBREAK File=QCE$ERROR.:E05TSI                WED 07/30/97 05:12 Page:143

 Object Unit name= QCE$EXPERIENCE_M$XBREAK                    File name= QCE$ERROR.:E05TOU
 UTS= JUL 30 '97 05:12:48.32 WED                              Compiler= PL-6/E31         Sev=      00
 SharedLib= :SHARED_LCP6_SYSTEM                               Alt SharedLib=


    ****  Control sections  ****

 Sect   Type Bound  Init  Size HexSiz  Section name
    0   Proc  even  none    52     34  QCE$EXPERIENCE_M$XBREAK

    ****  Entry defs  ****

                              Check   Calling
                             calling  sequence
  Sect HexLoc Primary Altret sequence   type   Parms  Name
     0      0   yes            yes      Std        0  QCE$EXPERIENCE_M$XBREAK

  ****  Entry refs  ****

         Check        Calling
        calling       sequence
Altret sequence SRef   type   Args  Name
         yes           Std       4 QCE$ERROR_M$INTERNAL
                       nStd      0 X6A_AUTO_0
                       nStd      0 X6A_ARET

  ****  Data refs  ****

  Flags:  r = read only, s = secondary
Flgs Name                             Flgs Name                             Flgs Name
     G$TCB$                                QI_1                                  QI_4_CHAR_ALPHANUMERIC
     QI_31_DIGIT_SLS_DISPLAY               QI_16_BIT_BINARY                      QI_32_BIT_BINARY
     QI_31_DIGIT_ST_PACKED                 QI_PICTURE_STRING                     QI_FPT_XBREAK
     QI_VLP_XBREAK                    r    G$ROS$
PL6.E3A0      #003=QCE$EXPERIENCE_M$XBREAK File=QCE$ERROR.:E05TSI                WED 07/30/97 05:12 Page:144


      704        1        /*M* QCE$EXPERIENCE_M$XBREAK:  Call Carl.  */
      705        2        /*T***********************************************************/
      706        3        /*T*                                                         */
      707        4        /*T* Copyright (c) Bull HN Information Systems Inc., 1997    */
      708        5        /*T*                                                         */
      709        6        /*T***********************************************************/
      710        7        /*X* DMC,PLM=4,IND=0,DCI=4,CSI=2,IAD=2,DTI=2,AND,ECI=0,DIN=2,STI=2 */
      711        8
      712        9        /*P*  NAME:         QCE$EXPERIENCE_M$XBREAK
      713       10              PURPOSE:      To CALL M$XBREAK and act appropriately
      714       11                            upon its return.
      715       12              DESCRIPTION:  Basically, this is just a home for the
      716       13                            M$XBREAK call.
      717       14        */
      718       15
      719       16        QCE$EXPERIENCE_M$XBREAK: PROC;

     16   0 000000  D380 0000 0000  xent QCE$EXPERIENCE_*LNJ,B5   X6A_AUTO_0
          0 000003       000A 0000                       DC       10,0

      720       17
      721       18        /*D*  NAME:         QCE$EXPERIENCE_M$XBREAK
      722       19              CALL:         CALL QCE$EXPERIENCE_M$XBREAK;
      723       20              PARAMETERS:   None.
      724       21              INTERFACE:    Called when:
      725       22                            1)  QAT$TALLYHO encounters a BRK op-code;
      726       23                            2)  QAT$TALLYHO sees that QI_VLP_XBREAK.TT is set
      727       24                                and the just-executed op-code has resulted
      728       25                                in a transfer (QI_1.INSTRUCTION_TRANSFERRED);
      729       26                            3)  QCE$ERROR_DBCONTROL was entered.
      730       27              ENVIRONMENT:  Nothing unusual.
      731       28              INPUT:        QI_1.INSTR$, etc.
      732       29              OUTPUT:       None.
      733       30              SCRATCH:      Various otter data.
      734       31              DESCRIPTION:  Call M$XBREAK and act accordingly.
      735       32        */
PL6.E3A0      #003=QCE$EXPERIENCE_M$XBREAK File=QCE$ERROR.:E05TSI                WED 07/30/97 05:12 Page:145
      736       33
      737       34          %INCLUDE LCP_6;
      738      225          %FPT_XBREAK ( FPTN = FPT@XBREAK,
      739      226                       STCLASS = AUTO );
      740      241          %G$EXCFR;
      741      623          %G$TCB;
      742      644    1     DCL G$TCB$ PTR SYMREF;
      743      645
      744      646          %INCLUDE QG_MACRO_M;
      745      783          %INCLUDE QI_EQUATES_E;
      746     1142          %INCLUDE QI_PERR_C;
      747     1310          %INCLUDE QI_MACROS_M;
      748     6368          %QI$ALL;
      749    17481          %QI_FPTS;
      750    19526
      751    19527    1     DCL QCE$ERROR_M$INTERNAL ENTRY (4);
      752    19528        %EJECT;
PL6.E3A0      #003=QCE$EXPERIENCE_M$XBREAK File=QCE$ERROR.:E05TSI                WED 07/30/97 05:12 Page:146
      753    19529    1       FPT@XBREAK = QI_FPT_XBREAK;

  19529   0 000005  AB80 0000 0000  xsym                 LAB,B2   QI_FPT_XBREAK
          0 000008  2C00                                 LDV,R2   0
          0 000009  6C06                                 LDV,R6   6
          0 00000A  BB87                                 LAB,B3   ,AUTO
          0 00000B  3C08                                 LDV,R3   8
          0 00000C  0008                                 MMM

      754    19530
      755    19531    1       CALL M$XBREAK ( FPT@XBREAK )

  19531   0 00000D  BBC7 0004                            LAB,B3   FPT@XBREAK,AUTO
          0 00000F  B870 0484                            LDR,R3   1156,IMO
          0 000011  0001                                 MCL
          0 000012       000F                            DC       s:19540,PREL

      756    19532    1       WHENRETURN
      757    19533    2         DO;

      758    19534    2           IF QI_VLP_XBREAK.GOIC

  19534   0 000013  8280 0000 0006  xsym                 LB,'0040'X        QI_VLP_XBREAK+6
  19534   0 000016       0040
          0 000017  0581 0007                            BBF      s:19537,PREL

      759    19535    2           THEN
      760    19536    2             QI_1.INSTR$ = QI_VLP_XBREAK.IC$;

  19536   0 000019  EC80 0000 0000  xsym                 LDB,B6   QI_VLP_XBREAK
          0 00001C  EF80 0000 0006  xsym                 STB,B6   QI_1+6

      761    19537    2         END;

  19537   0 00001F  0F81 0011                            B        s:19543,PREL

      762    19538    1       WHENALTRETURN
PL6.E3A0      #003=QCE$EXPERIENCE_M$XBREAK File=QCE$ERROR.:E05TSI                WED 07/30/97 05:12 Page:147
      763    19539    2         DO;

      764    19540    2          CALL QCE$ERROR_M$INTERNAL ( G$TCB$ -> G$TCB.ALT$ -> G$EXCFR.TRLR.ERR.ERR# );

  19540   0 000021  EC80 0000 0000  xsym                 LDB,B6   G$TCB$
          0 000024  DC86                                 LDB,B5   ,B6
          0 000025  CBC5 002C                            LAB,B4   44,B5
          0 000027  CFC7 0008                            STB,B4   FPT@XBREAK+4,AUTO
          0 000029  BBC7 0008                            LAB,B3   FPT@XBREAK+4,AUTO
          0 00002B  CBF0 0100                            LAB,B4   256,IMO
          0 00002D  E380 0000 0000  xent                 LNJ,B6   QCE$ERROR_M$INTERNAL
          0 000030       0001                            DC       s:19543,PREL

      765    19541    2         END;

      766    19542
      767    19543    1       RETURN;

  19543   0 000031  C380 0000 0000  xent                 LNJ,B4   X6A_ARET
      768    19544
      769    19545    1   END QCE$EXPERIENCE_M$XBREAK;

PL6.E3A0      #003=QCE$EXPERIENCE_M$XBREAK File=QCE$ERROR.:E05TSI                WED 07/30/97 05:12 Page:148
--  Include file information  --

   QI_MACROS_M.:E05TOU  is referenced.
   QI_PERR_C.:E05TOU  is referenced.
   QI_EQUATES_E.:E05TOU  is referenced.
   QG_MACRO_M.:E05TOU  is referenced.
   LCP_6.:E05TOU  cannot be made into a system file and is referenced.
   G_LCP6_E.:E05TOU  was found in the system file and is referenced.
   GT_LCP6_M.:E05TOU  was found in the system file and is referenced.
   KI_CP6.:E05TOU  was found in the system file and is referenced.
   GF_LCP6_M.:E05TOU  was found in the system file and is referenced.
   GM_LCP6_M.:E05TOU  was found in the system file and is referenced.
   GU_LCP6_M.:E05TOU  was found in the system file and is referenced.
   GJ_LCP6_M.:E05TOU  was found in the system file and is referenced.
   GH_LCP6_M.:E05TOU  was found in the system file and is referenced.
      No diagnostics issued in procedure QCE$EXPERIENCE_M$XBREAK.
PL6.E3A0      #003=QCE$EXPERIENCE_M$XBREAK File=QCE$ERROR.:E05TSI                WED 07/30/97 05:12 Page:149

 **** Variables and constants ****

  ****  Auto variables  ****

  ****  Scalars and arrays  ****
HexLoc.c.b A Datatyp(siz) R M Lvl/name                 HexLoc.c.b A Datatyp(siz) R M Lvl/name

     4-0-0/w STRC(48)    r     1 FPT@XBREAK

  ****  SYMREF variables  ****

  ****  Scalars and arrays  ****
HexLoc.c.b A Datatyp(siz) R M Lvl/name                 HexLoc.c.b A Datatyp(siz) R M Lvl/name

     0-0-0/w PTR         r     1 G$TCB$                     0-0-0/d STRC(2576)  r     1 QI_1
     0-0-0/w STRC(48)    r     1 QI_FPT_XBREAK              0-0-0/w STRC(112)   r     1 QI_VLP_XBREAK

  ****  BASED and DCB variables  ****

  ****  Scalars and arrays  ****
HexLoc.c.b A Datatyp(siz) R M Lvl/name                 HexLoc.c.b A Datatyp(siz) R M Lvl/name

     0-0-0/w STRC(736)   r     1 G$EXCFR                    0-0-0/w STRC(96)    r     1 G$TCB
     0-0-0/c ASTR(8)     r     1 QI$VARIABLE_IDENTIFIER


   Procedure QCE$EXPERIENCE_M$XBREAK requires 52 words for executable code.
   Procedure QCE$EXPERIENCE_M$XBREAK requires 10 words of local(AUTO) storage.

    No errors detected in file QCE$ERROR.:E05TSI    .
PL6.E3A0      #003=QCE$EXPERIENCE_M$XBREAK File=QCE$ERROR.:E05TSI                WED 07/30/97 05:12 Page:150
          *** CROSS REFERENCE LISTING ***
**     DENOTES     IDENTIFIER DEFINITION
<<                 IDENTIFIER'S VALUE SET
>>                 IDENTIFIER'S VALUE USED
<>                 IDENTIFIER SET AND/OR USED
--                 IDENTIFIER REFERENCED
PL6.E3A0      #003=QCE$EXPERIENCE_M$XBREAK File=QCE$ERROR.:E05TSI                WED 07/30/97 05:12 Page:151
          MINI XREF LISTING

FPT@XBREAK
       239**DCL     19529<<ASSIGN  19531<>CALL
G$EXCFR.P$$
       310**DCL       310--REDEF     310--REDEF
G$EXCFR.PREVSZ
       260**DCL       260--REDEF
G$EXCFR.TRLR.ERR.ERR#
       617**DCL     19540<>CALL
G$EXCFR.TRLR.EVID
       547**DCL       565--REDEF     573--REDEF     573--REDEF
G$EXCFR.TRLR.SUBC
       524**DCL       524--REDEF     542--REDEF     546--REDEF     546--REDEF
G$TCB.ALT$
       641**DCL     19540>>CALL
G$TCB$
       644**DCL     19540>>CALL
M$XBREAK
       185**DCL-ENT 19531--CALL
QCE$ERROR_M$INTERNAL
     19527**DCL-ENT 19540--CALL
QGB_PARAM.DVE.DVBYTE.VFC
     11965**DCL     11966--REDEF
QGB_PARAM.DVE.EOMCHAR
     11977**DCL     11978--REDEF
QGB_PARAM.MSG$
     11959**DCL     11960--REDEF
QGB_PARAM.UHDR$
     11984**DCL     11985--REDEF
QI$ACTIVATION_STATUS
      9723**DCL      9729--REDEF
QI$CIP
      8564**DCL      8634--REDEF
PL6.E3A0      #003=QCE$EXPERIENCE_M$XBREAK File=QCE$ERROR.:E05TSI                WED 07/30/97 05:12 Page:152
QI$CIP.CA
      8569**DCL      8573--REDEF    8576--REDEF    8579--REDEF
QI$COBOL_DAD.PSEUDO_CIP
      8808**DCL      8833--REDEF
QI$COBOL_DAD.PSEUDO_CIP.ALPHANUMERIC
      8810**DCL      8815--REDEF
QI$COBOL_DAD.PSEUDO_CIP.NUMERIC.CB
      8816**DCL      8819--REDEF    8822--REDEF
QI$COBOL_DAD.VARIABLE_LENGTH_ITEMS
      8844**DCL      8860--REDEF    8868--REDEF    8876--REDEF
QI$COBOL_DAD.VARIABLE_LENGTH_ITEMS.LEVEL_MULTIPLIERS
      8845**DCL      8855--REDEF    8858--REDEF
QI$COBOL_DAD.WORD0
      8772**DCL      8773--REDEF    8787--REDEF
QI$COBOL_DAD_P_BITS.P
      8912**DCL      8918--REDEF
QI$CONDITION_CONTROL_BLOCK.LIST_A@P
      8398**DCL      8399--REDEF
QI$CONDITION_CONTROL_BLOCK.WORD0_FLAGS
      8394**DCL      8397--REDEF
QI$CONDITION_LEGAL_BLOCK.ARRAY@P
      8431**DCL      8432--REDEF    8433--REDEF
QI$DAD.PSEUDO_CIP
      8711**DCL      8736--REDEF
QI$DAD.PSEUDO_CIP.ALPHANUMERIC
      8713**DCL      8718--REDEF
QI$DAD.PSEUDO_CIP.NUMERIC.CB
      8719**DCL      8722--REDEF    8725--REDEF
QI$DAD.WORD0
      8680**DCL      8681--REDEF
QI$ERROR_MESSAGE_LINE
     12072**DCL     12074--REDEF
QI$ERROR_STATUS
     12069**DCL     12071--REDEF
QI$FIELD_DAD.ELEMENTARY_ITEM.P
      9126**DCL      9133--REDEF
PL6.E3A0      #003=QCE$EXPERIENCE_M$XBREAK File=QCE$ERROR.:E05TSI                WED 07/30/97 05:12 Page:153
QI$FIELD_DAD.ONE_DIMENSIONAL_ITEM.P
      9146**DCL      9153--REDEF
QI$FIELD_DAD.PSEUDO_CIP
      9053**DCL      9078--REDEF
QI$FIELD_DAD.PSEUDO_CIP.ALPHANUMERIC
      9055**DCL      9060--REDEF
QI$FIELD_DAD.PSEUDO_CIP.NUMERIC.CB
      9061**DCL      9064--REDEF    9067--REDEF
QI$FIELD_DAD.TWO_DIMENSIONAL_ITEM.P
      9166**DCL      9173--REDEF
QI$FIELD_DAD.VARIABLE_LENGTH_ITEMS
      9109**DCL      9125--REDEF    9143--REDEF    9161--REDEF
QI$FIELD_DAD.VARIABLE_LENGTH_ITEMS.LEVEL_MULTIPLIERS
      9110**DCL      9120--REDEF    9123--REDEF
QI$FIELD_DAD.WORD0
      9005**DCL      9006--REDEF
QI$FIELD_DAD.WORD0_FLAGS.IO_FLAGS
      9009**DCL      9014--REDEF
QI$FIELD_DAD_P.P
      9207**DCL      9214--REDEF
QI$FIELD_STATUS.INDICATORS
      9873**DCL      9905--REDEF
QI$FIELD_STATUS.INDICATORS.ENABLED_FLAGS
      9877**DCL      9882--REDEF
QI$FIELD_STATUS.INDICATORS.OPEN_FLAGS
      9889**DCL      9896--REDEF
QI$FIELD_STATUS.INDICATORS.STATE_FLAGS
      9883**DCL      9888--REDEF
QI$FILE.WORD0
      9329**DCL      9330--REDEF
QI$FILE_STATUS.INDICATORS
     10166**DCL     10198--REDEF
QI$FILE_STATUS.INDICATORS.ENABLED_FLAGS
     10170**DCL     10175--REDEF
QI$FILE_STATUS.INDICATORS.OPEN_FLAGS
     10182**DCL     10189--REDEF
PL6.E3A0      #003=QCE$EXPERIENCE_M$XBREAK File=QCE$ERROR.:E05TSI                WED 07/30/97 05:12 Page:154
QI$FILE_STATUS.INDICATORS.STATE_FLAGS
     10176**DCL     10181--REDEF
QI$FORM_FILE.USE_PROCEDURE
      9429**DCL      9436--REDEF
QI$FORM_FILE.WORD0
      9383**DCL      9384--REDEF
QI$FORM_STATUS.INDICATORS
     10287**DCL     10319--REDEF
QI$FORM_STATUS.INDICATORS.ENABLED_FLAGS
     10291**DCL     10296--REDEF
QI$FORM_STATUS.INDICATORS.OPEN_FLAGS
     10303**DCL     10310--REDEF
QI$FORM_STATUS.INDICATORS.STATE_FLAGS
     10297**DCL     10302--REDEF
QI$FRAME.WORD0
      9544**DCL      9545--REDEF
QI$FRAME_STATUS.INDICATORS
     10516**DCL     10548--REDEF
QI$FRAME_STATUS.INDICATORS.ENABLED_FLAGS
     10520**DCL     10525--REDEF
QI$FRAME_STATUS.INDICATORS.OPEN_FLAGS
     10532**DCL     10539--REDEF
QI$FRAME_STATUS.INDICATORS.STATE_FLAGS
     10526**DCL     10531--REDEF
QI$GZ_FIELD.DESCRIPTION.IO_FLAGS
     17398**DCL     17403--REDEF
QI$IDENTIFIER
     12075**DCL     12077--REDEF
QI$INDICATORS
      9787**DCL      9817--REDEF
QI$INDICATORS.ENABLED_FLAGS
      9793**DCL      9798--REDEF
QI$INDICATORS.OPEN_FLAGS
      9805**DCL      9812--REDEF
QI$INDICATORS.STATE_FLAGS
      9799**DCL      9804--REDEF
PL6.E3A0      #003=QCE$EXPERIENCE_M$XBREAK File=QCE$ERROR.:E05TSI                WED 07/30/97 05:12 Page:155
QI$MAJOR_NODE.WORD0
      9243**DCL      9244--REDEF
QI$MAJOR_STATUS.INDICATORS
      9966**DCL      9998--REDEF
QI$MAJOR_STATUS.INDICATORS.ENABLED_FLAGS
      9970**DCL      9975--REDEF
QI$MAJOR_STATUS.INDICATORS.OPEN_FLAGS
      9982**DCL      9989--REDEF
QI$MAJOR_STATUS.INDICATORS.STATE_FLAGS
      9976**DCL      9981--REDEF
QI$MESSAGE_TYPE
     12066**DCL     12068--REDEF
QI$MINOR_NODE.WORD0
      9286**DCL      9287--REDEF
QI$MINOR_STATUS.INDICATORS
     10059**DCL     10091--REDEF
QI$MINOR_STATUS.INDICATORS.ENABLED_FLAGS
     10063**DCL     10068--REDEF
QI$MINOR_STATUS.INDICATORS.OPEN_FLAGS
     10075**DCL     10082--REDEF
QI$MINOR_STATUS.INDICATORS.STATE_FLAGS
     10069**DCL     10074--REDEF
QI$OP_ACCEPT.DATANAME@P
      6474**DCL      6475--REDEF
QI$OP_CALL.EPTR$
      6646**DCL      6647--REDEF
QI$OP_CLEAR.IO_FLAGS
      6679**DCL      6682--REDEF
QI$OP_DISPLAY.FIELD_A@P
      6946**DCL      6947--REDEF
QI$OP_ENABLE.IO_FLAGS
      7033**DCL      7036--REDEF
QI$OP_IFCLS.ATTRIBUTE.TYPE
      7126**DCL      7131--REDEF
QI$OP_INSPECT.TALLYING_FOR_ITEM@P
      7360**DCL      7361--REDEF
PL6.E3A0      #003=QCE$EXPERIENCE_M$XBREAK File=QCE$ERROR.:E05TSI                WED 07/30/97 05:12 Page:156
QI$OP_INSPECT.TALLYING_INITIAL_ITEM@P
      7362**DCL      7363--REDEF
QI$OP_INSPECT.TALLYING_ITEM@P
      7358**DCL      7359--REDEF
QI$OP_OPEN.IO_FLAGS
      7920**DCL      7923--REDEF
QI$OP_PERFM.BINARY_ITERATION_COUNT@P
      7958**DCL      7959--REDEF
QI$PSEUDO_CIP
      8459**DCL      8483--REDEF
QI$PSEUDO_CIP.ALPHANUMERIC
      8463**DCL      8468--REDEF
QI$PSEUDO_CIP.NUMERIC.CB
      8469**DCL      8472--REDEF    8475--REDEF
QI$TERMINAL_ATTRIBUTES
      9680**DCL      9693--REDEF
QI$TRAN_FILE.WORD0
      9465**DCL      9466--REDEF
QI$TRAN_STATUS.INDICATORS
     10400**DCL     10432--REDEF
QI$TRAN_STATUS.INDICATORS.ENABLED_FLAGS
     10404**DCL     10409--REDEF
QI$TRAN_STATUS.INDICATORS.OPEN_FLAGS
     10416**DCL     10423--REDEF
QI$TRAN_STATUS.INDICATORS.STATE_FLAGS
     10410**DCL     10415--REDEF
QI$VARIABLE_IDENTIFIER.LENGTH
     12079**DCL     12080--IMP-SIZ
QI_1.BASE
     10608**DCL     10615--REDEF
QI_1.CURRENT.FILE$
     11499**DCL     11501--REDEF   11503--REDEF
QI_1.CURRENT.FILE_STATUS$
     11505**DCL     11507--REDEF   11509--REDEF
QI_1.DAD
     11303**DCL     11308--REDEF
PL6.E3A0      #003=QCE$EXPERIENCE_M$XBREAK File=QCE$ERROR.:E05TSI                WED 07/30/97 05:12 Page:157
QI_1.FILE_HEAD
     11486**DCL     11493--REDEF
QI_1.INSTR$
     10616**DCL     19536<<ASSIGN
QI_1.IS_ALL_LIT
     11309**DCL     11314--REDEF
QI_1.IS_FORM_VARIABLE
     11315**DCL     11320--REDEF
QI_1.IS_TEMP
     11321**DCL     11326--REDEF
QI_1.MESSAGE_LINE_DAD.PSEUDO_CIP
     11419**DCL     11444--REDEF
QI_1.MESSAGE_LINE_DAD.PSEUDO_CIP.ALPHANUMERIC
     11421**DCL     11426--REDEF
QI_1.MESSAGE_LINE_DAD.PSEUDO_CIP.NUMERIC.CB
     11427**DCL     11430--REDEF   11433--REDEF
QI_1.MESSAGE_LINE_DAD.WORD0
     11388**DCL     11389--REDEF
QI_1.OFFSET
     11327**DCL     11332--REDEF
QI_1.OP.CIP
     10688**DCL     11139--REDEF
QI_1.OP.CIP.AUX
     11054**DCL     11125--REDEF
QI_1.OP.CIP.AUX.CD
     11099**DCL     11102--REDEF   11106--REDEF   11109--REDEF
QI_1.OP.CIP.S
     10758**DCL     10829--REDEF
QI_1.OP.CIP.S.CD
     10803**DCL     10806--REDEF   10810--REDEF   10813--REDEF
QI_1.OP.CIP.T
     10906**DCL     10977--REDEF
QI_1.OP.CIP.T.CD
     10951**DCL     10954--REDEF   10958--REDEF   10961--REDEF
QI_1.OP.DATA
     11146**DCL     11150--REDEF
PL6.E3A0      #003=QCE$EXPERIENCE_M$XBREAK File=QCE$ERROR.:E05TSI                WED 07/30/97 05:12 Page:158
QI_1.OP.FILL_CHAR
     11270**DCL     11273--REDEF
QI_1.OP.INX
     11203**DCL     11207--REDEF   11208--REDEF   11212--REDEF
QI_1.OP.LEN
     11186**DCL     11190--REDEF   11191--REDEF   11195--REDEF   11196--REDEF   11200--REDEF
QI_1.OP.LEN.AUX
     11189**DCL     12090--IMP-SIZ
QI_1.OP.LEN.S
     11187**DCL     12086--IMP-SIZ
QI_1.OP.LEN.T
     11188**DCL     12088--IMP-SIZ
QI_1.OP.PICTURE_STRING
     11256**DCL     11259--REDEF   11260--REDEF   11263--REDEF   11264--REDEF   11267--REDEF
QI_1.OP.ROUND
     11289**DCL     11290--REDEF   11291--REDEF
QI_1.OP.SRCH_VRFY_ELEMS
     11225**DCL     11228--REDEF
QI_1.OPENED_COUNT
     11494**DCL     11497--REDEF
QI_1.OTTER_SPACE
     11333**DCL     11338--REDEF
QI_1.PICTURE_STRING
     11339**DCL     11344--REDEF
QI_1.SPECIAL_NAMES
     11522**DCL     11531--REDEF
QI_1.TYPE
     11345**DCL     11350--REDEF
QI_16_BIT_BINARY
     16535**DCL     16605--REDEF
QI_16_BIT_BINARY.CB
     16554**DCL     16557--REDEF   16561--REDEF   16564--REDEF
QI_31_DIGIT_SLS_DISPLAY
     16368**DCL     16438--REDEF
QI_31_DIGIT_SLS_DISPLAY.CD
     16415**DCL     16418--REDEF   16422--REDEF   16425--REDEF
PL6.E3A0      #003=QCE$EXPERIENCE_M$XBREAK File=QCE$ERROR.:E05TSI                WED 07/30/97 05:12 Page:159
QI_31_DIGIT_ST_PACKED
     16870**DCL     16940--REDEF
QI_31_DIGIT_ST_PACKED.CP
     16903**DCL     16906--REDEF   16910--REDEF   16913--REDEF
QI_32_BIT_BINARY
     16702**DCL     16772--REDEF
QI_32_BIT_BINARY.CB
     16721**DCL     16724--REDEF   16728--REDEF   16731--REDEF
QI_4_CHAR_ALPHANUMERIC
     16200**DCL     16270--REDEF
QI_4_CHAR_ALPHANUMERIC.CA
     16205**DCL     16209--REDEF   16212--REDEF   16215--REDEF
QI_ACCUMULATOR_DAD.CIP
     17213**DCL     17284--REDEF
QI_ACCUMULATOR_DAD.CIP.CP
     17244**DCL     17247--REDEF   17251--REDEF   17254--REDEF
QI_ALR.CIP
     12165**DCL     12616--REDEF
QI_ALR.CIP.AUX
     12531**DCL     12602--REDEF
QI_ALR.CIP.AUX.CA
     12534**DCL     12538--REDEF   12541--REDEF   12544--REDEF
QI_ALR.CIP.S
     12235**DCL     12306--REDEF
QI_ALR.CIP.S.CA
     12238**DCL     12242--REDEF   12245--REDEF   12248--REDEF
QI_ALR.CIP.T
     12383**DCL     12454--REDEF
QI_ALR.CIP.T.CA
     12386**DCL     12390--REDEF   12393--REDEF   12396--REDEF
QI_ALR.DATA
     12623**DCL     12627--REDEF
QI_ALR.FILL_CHAR
     12747**DCL     12750--REDEF
QI_ALR.INX
     12680**DCL     12684--REDEF   12685--REDEF   12689--REDEF
PL6.E3A0      #003=QCE$EXPERIENCE_M$XBREAK File=QCE$ERROR.:E05TSI                WED 07/30/97 05:12 Page:160
QI_ALR.LEN
     12663**DCL     12667--REDEF   12668--REDEF   12672--REDEF   12673--REDEF   12677--REDEF
QI_ALR.PICTURE_STRING
     12733**DCL     12736--REDEF   12737--REDEF   12740--REDEF   12741--REDEF   12744--REDEF
QI_ALR.ROUND
     12766**DCL     12767--REDEF   12768--REDEF
QI_ALR.SRCH_VRFY_ELEMS
     12702**DCL     12705--REDEF
QI_FPT_DBCONTROL.V_
     17585**DCL     17585--REDEF
QI_FPT_INT.V_
     18423**DCL     18423--REDEF
QI_FPT_XBREAK
     19462**DCL     19529>>ASSIGN
QI_MAT.CIP
     15504**DCL     15955--REDEF
QI_MAT.CIP.AUX
     15870**DCL     15941--REDEF
QI_MAT.CIP.AUX.CA
     15873**DCL     15877--REDEF   15880--REDEF   15883--REDEF
QI_MAT.CIP.S
     15574**DCL     15645--REDEF
QI_MAT.CIP.S.CA
     15577**DCL     15581--REDEF   15584--REDEF   15587--REDEF
QI_MAT.CIP.T
     15722**DCL     15793--REDEF
QI_MAT.CIP.T.CA
     15725**DCL     15729--REDEF   15732--REDEF   15735--REDEF
QI_MAT.DATA
     15962**DCL     15966--REDEF
QI_MAT.DEC
     16030**DCL     16034--REDEF   16035--REDEF   16039--REDEF
QI_MAT.FILL_CHAR
     16086**DCL     16089--REDEF
QI_MAT.LEN
     16002**DCL     16006--REDEF   16007--REDEF   16011--REDEF   16012--REDEF   16016--REDEF
PL6.E3A0      #003=QCE$EXPERIENCE_M$XBREAK File=QCE$ERROR.:E05TSI                WED 07/30/97 05:12 Page:161
QI_MAT.PICTURE_STRING
     16072**DCL     16075--REDEF   16076--REDEF   16079--REDEF   16080--REDEF   16083--REDEF
QI_MAT.ROUND
     16105**DCL     16106--REDEF   16107--REDEF
QI_MAT.SRCH_VRFY_ELEMS
     16041**DCL     16044--REDEF
QI_PICTURE_STRING
     17038**DCL     17108--REDEF
QI_PICTURE_STRING.CA
     17043**DCL     17047--REDEF   17050--REDEF   17053--REDEF
QI_SRCH_VRFY.CIP
     14835**DCL     15286--REDEF
QI_SRCH_VRFY.CIP.AUX
     15201**DCL     15272--REDEF
QI_SRCH_VRFY.CIP.AUX.CA
     15204**DCL     15208--REDEF   15211--REDEF   15214--REDEF
QI_SRCH_VRFY.CIP.S
     14905**DCL     14976--REDEF
QI_SRCH_VRFY.CIP.S.CA
     14908**DCL     14912--REDEF   14915--REDEF   14918--REDEF
QI_SRCH_VRFY.CIP.T
     15053**DCL     15124--REDEF
QI_SRCH_VRFY.CIP.T.CA
     15056**DCL     15060--REDEF   15063--REDEF   15066--REDEF
QI_SRCH_VRFY.DATA
     15293**DCL     15297--REDEF
QI_SRCH_VRFY.DEC
     15361**DCL     15365--REDEF   15366--REDEF   15370--REDEF
QI_SRCH_VRFY.FILL_CHAR
     15417**DCL     15420--REDEF
QI_SRCH_VRFY.ROUND
     15436**DCL     15437--REDEF   15438--REDEF
QI_SRCH_VRFY.SRCH_RESULT
     15377**DCL     15380--REDEF   15381--REDEF   15384--REDEF   15385--REDEF   15388--REDEF
QI_SRCH_VRFY.SRCH_VRFY_ARGS
     15301**DCL     15305--REDEF   15306--REDEF   15310--REDEF   15311--REDEF   15315--REDEF
PL6.E3A0      #003=QCE$EXPERIENCE_M$XBREAK File=QCE$ERROR.:E05TSI                WED 07/30/97 05:12 Page:162
QI_SRCH_VRFY.SRCH_VRFY_ELEMS
     15372**DCL     15375--REDEF
QI_TYPE_BINARY_TARGET.CIP
     14162**DCL     14613--REDEF
QI_TYPE_BINARY_TARGET.CIP.AUX
     14528**DCL     14599--REDEF
QI_TYPE_BINARY_TARGET.CIP.AUX.CA
     14531**DCL     14535--REDEF   14538--REDEF   14541--REDEF
QI_TYPE_BINARY_TARGET.CIP.S
     14232**DCL     14303--REDEF
QI_TYPE_BINARY_TARGET.CIP.S.CA
     14235**DCL     14239--REDEF   14242--REDEF   14245--REDEF
QI_TYPE_BINARY_TARGET.CIP.T
     14380**DCL     14451--REDEF
QI_TYPE_BINARY_TARGET.CIP.T.CB
     14397**DCL     14400--REDEF   14404--REDEF   14407--REDEF
QI_TYPE_BINARY_TARGET.DATA
     14620**DCL     14624--REDEF
QI_TYPE_BINARY_TARGET.DEC
     14688**DCL     14692--REDEF   14693--REDEF   14697--REDEF
QI_TYPE_BINARY_TARGET.LEN
     14660**DCL     14664--REDEF   14665--REDEF   14669--REDEF   14670--REDEF   14674--REDEF
QI_TYPE_BINARY_TARGET.PICTURE_STRING
     14730**DCL     14733--REDEF   14734--REDEF   14737--REDEF   14738--REDEF   14741--REDEF
QI_TYPE_BINARY_TARGET.ROUND
     14763**DCL     14764--REDEF   14765--REDEF
QI_TYPE_BINARY_TARGET.SIZE_ERROR
     14749**DCL     14750--REDEF
QI_TYPE_BINARY_TARGET.SRCH_VRFY_ELEMS
     14699**DCL     14702--REDEF
QI_TYPE_DISPLAY_SOURCE.CIP
     12830**DCL     13281--REDEF
QI_TYPE_DISPLAY_SOURCE.CIP.AUX
     13196**DCL     13267--REDEF
QI_TYPE_DISPLAY_SOURCE.CIP.AUX.CA
     13199**DCL     13203--REDEF   13206--REDEF   13209--REDEF
PL6.E3A0      #003=QCE$EXPERIENCE_M$XBREAK File=QCE$ERROR.:E05TSI                WED 07/30/97 05:12 Page:163
QI_TYPE_DISPLAY_SOURCE.CIP.S
     12900**DCL     12971--REDEF
QI_TYPE_DISPLAY_SOURCE.CIP.S.CD
     12945**DCL     12948--REDEF   12952--REDEF   12955--REDEF
QI_TYPE_DISPLAY_SOURCE.CIP.T
     13048**DCL     13119--REDEF
QI_TYPE_DISPLAY_SOURCE.CIP.T.CA
     13051**DCL     13055--REDEF   13058--REDEF   13061--REDEF
QI_TYPE_DISPLAY_SOURCE.DATA
     13288**DCL     13292--REDEF
QI_TYPE_DISPLAY_SOURCE.DEC
     13356**DCL     13360--REDEF   13361--REDEF   13365--REDEF
QI_TYPE_DISPLAY_SOURCE.LEN
     13328**DCL     13332--REDEF   13333--REDEF   13337--REDEF   13338--REDEF   13342--REDEF
QI_TYPE_DISPLAY_SOURCE.PICTURE_STRING
     13398**DCL     13401--REDEF   13402--REDEF   13405--REDEF   13406--REDEF   13409--REDEF
QI_TYPE_DISPLAY_SOURCE.ROUND
     13431**DCL     13432--REDEF   13433--REDEF
QI_TYPE_DISPLAY_SOURCE.SIZE_ERROR
     13417**DCL     13418--REDEF
QI_TYPE_DISPLAY_SOURCE.SRCH_VRFY_ELEMS
     13367**DCL     13370--REDEF
QI_TYPE_DISPLAY_TARGET.CIP
     13496**DCL     13947--REDEF
QI_TYPE_DISPLAY_TARGET.CIP.AUX
     13862**DCL     13933--REDEF
QI_TYPE_DISPLAY_TARGET.CIP.AUX.CA
     13865**DCL     13869--REDEF   13872--REDEF   13875--REDEF
QI_TYPE_DISPLAY_TARGET.CIP.S
     13566**DCL     13637--REDEF
QI_TYPE_DISPLAY_TARGET.CIP.S.CA
     13569**DCL     13573--REDEF   13576--REDEF   13579--REDEF
QI_TYPE_DISPLAY_TARGET.CIP.T
     13714**DCL     13785--REDEF
QI_TYPE_DISPLAY_TARGET.CIP.T.CD
     13759**DCL     13762--REDEF   13766--REDEF   13769--REDEF
PL6.E3A0      #003=QCE$EXPERIENCE_M$XBREAK File=QCE$ERROR.:E05TSI                WED 07/30/97 05:12 Page:164
QI_TYPE_DISPLAY_TARGET.DATA
     13954**DCL     13958--REDEF
QI_TYPE_DISPLAY_TARGET.DEC
     14022**DCL     14026--REDEF   14027--REDEF   14031--REDEF
QI_TYPE_DISPLAY_TARGET.LEN
     13994**DCL     13998--REDEF   13999--REDEF   14003--REDEF   14004--REDEF   14008--REDEF
QI_TYPE_DISPLAY_TARGET.PICTURE_STRING
     14064**DCL     14067--REDEF   14068--REDEF   14071--REDEF   14072--REDEF   14075--REDEF
QI_TYPE_DISPLAY_TARGET.ROUND
     14097**DCL     14098--REDEF   14099--REDEF
QI_TYPE_DISPLAY_TARGET.SIZE_ERROR
     14083**DCL     14084--REDEF
QI_TYPE_DISPLAY_TARGET.SRCH_VRFY_ELEMS
     14033**DCL     14036--REDEF
QI_VLP_SEGMENT.BASE
     18122**DCL     18122--REDEF
QI_VLP_SEGMENT_BUFFER.BASE
     18220**DCL     18220--REDEF
QI_VLP_SEGMENT_LOAD.BASE
     18318**DCL     18318--REDEF
QI_VLP_TRMCTL.BREAKCOUNT
     19312**DCL     19313--REDEF
QI_VLP_XBREAK.GOIC
     19504**DCL     19534>>IF
QI_VLP_XBREAK.IC
     19502**DCL     19502--REDEF
QI_VLP_XBREAK.IC$
     19502**DCL     19536>>ASSIGN
QI_VLP_XBREAK.OLDIC
     19502**DCL     19503--REDEF   19503--REDEF
