VERSION E05

PL6.E3A0      #001=QCF$FIND_CURRENTS File=QCF$FIND_CURRENTS.:E05TSI              WED 07/30/97 05:06 Page:1
        1        1        /*M* QCF$FIND_CURRENTS:  Find QI_1.CURRENT.whatever for some node.  */
        2        2        /*T***********************************************************/
        3        3        /*T*                                                         */
        4        4        /*T* Copyright (c) Bull HN Information Systems Inc., 1997    */
        5        5        /*T*                                                         */
        6        6        /*T***********************************************************/
        7        7        /*X* DMC,PLM=4,IND=0,DCI=4,CSI=2,IAD=2,DTI=2,AND,ECI=0,DIN=2,STI=2 */
        8        8
        9        9        /*P*  NAME:         QCF$FIND_CURRENTS
       10       10              PURPOSE:      Find QI_1.CURRENT.whatever for a given node.
       11       11              DESCRIPTION:  Uses QI_1.CURRENT.NODE$ to divine
       12       12                            QI_1.CURRENT.all_else for the caller.
       13       13        */
       14       14
       15       15        QCF$FIND_CURRENTS: PROC;
       16       16
       17       17        /*D*  NAME:         QCF$FIND_CURRENTS
       18       18              CALL:         CALL QCF$FIND_CURRENTS;
       19       19              PARAMETERS:   None.
       20       20              INTERFACE:    Called by any module which finds on its hands a
       21       21                            form, frame, or field which it would like to know
       22       22                            more about.  Uses QI_1.CURRENT.NODE$ (set by caller).
       23       23              ENVIRONMENT:  Nothing unusual.
       24       24              INPUT:        QI_1, etc.
       25       25              OUTPUT:       QI_1, etc.
       26       26              SCRATCH:      Various otter stuff.
       27       27              DESCRIPTION:  First, sets all QI_1.CURRENT.stuff to ADDR (NIL)
       28       28                            (except QI_1.CURRENT.NODE$), then
       29       29                            starts with QI_1.CURRENT.NODE$ and works upwards
       30       30                            along FATHER@P links.
       31       31                            If QI_1.CURRENT.NODE$ is already a QI$FORM_FILE, sets:
       32       32                            1)  QI_1.CURRENT.NODE_STATUS$;
       33       33                            2)  QI_1.CURRENT.FORM$;
       34       34                            3)  QI_1.CURRENT.FORM_STATUS$.
       35       35                            If QI_1.CURRENT.NODE$ is a QI$FRAME or QI$FIELD_DAD, sets:
       36       36                            1)  QI_1.CURRENT.NODE_STATUS$;
       37       37                            2)  QI_1.CURRENT.FRAME$;
PL6.E3A0      #001=QCF$FIND_CURRENTS File=QCF$FIND_CURRENTS.:E05TSI              WED 07/30/97 05:06 Page:2
       38       38                            3)  QI_1.CURRENT.FRAME_STATUS$;
       39       39                            4)  QI_1.CURRENT.FRAME_INDEX;
       40       40                            5)  QI_1.CURRENT.FORM$;
       41       41                            6)  QI_1.CURRENT.FORM_STATUS$.
       42       42        */
       43       43
       44       44          %INCLUDE LCP_6;
       45      235
       46      236          %INCLUDE QG_MACRO_M;
       47      373          %INCLUDE QI_EQUATES_E;
       48      732          %INCLUDE QI_PERR_C;
       49      900          %INCLUDE QI_MACROS_M;
       50     5958          %QI$ALL;
       51    17071
       52    17072    1     DCL FRAME$ PTR;
       53    17073    1     DCL FRAME_INDEX UBIN;
       54    17074    1     DCL FRAME_OR_FORM$ PTR;
       55    17075
       56    17076    1     DCL QCE$ERROR_INTERNAL ENTRY (4);
       57    17077        %EJECT;
PL6.E3A0      #001=QCF$FIND_CURRENTS File=QCF$FIND_CURRENTS.:E05TSI              WED 07/30/97 05:06 Page:3
       58    17078    1       QI_1.CURRENT.FORM$ = ADDR (NIL);
       59    17079    1       QI_1.CURRENT.FORM_STATUS$ = ADDR (NIL);
       60    17080    1       QI_1.CURRENT.FRAME$ = ADDR (NIL);
       61    17081    1       QI_1.CURRENT.FRAME_STATUS$ = ADDR (NIL);
       62    17082    1       QI_1.CURRENT.FRAME_INDEX = %QI#SOME_HUGE_NUMBER;
       63    17083
       64    17084    1       IF QI_1.CURRENT.NODE$ = ADDR (NIL)
       65    17085    1       THEN
       66    17086    2         DO;
       67    17087    2           QI_1.CURRENT.NODE_STATUS$ = ADDR (NIL);
       68    17088    2           RETURN;
       69    17089    2         END;
       70    17090
       71    17091        /* Set up the scratch area for current node.                                  */
       72    17092            %DATA_ADDRESS ( THING@D = "QI_1.CURRENT.NODE$ -> QI$FRAME.STATUS_AREA@D",
       73    17093            CHECK_FOR_INDIRECTION = NO,
       74    17094            RESULT$ = "QI_1.CURRENT.NODE_STATUS$" );
       75    17131
       76    17132    1       FRAME_OR_FORM$ = QI_1.CURRENT.NODE$;
       77    17133
       78    17134    2       DO WHILE ( FRAME_OR_FORM$ -> QI$FRAME.WORD0_FLAGS.TYPE ~= %QI#TYPE_FRAME
       79    17135    2         AND FRAME_OR_FORM$ -> QI$FRAME.WORD0_FLAGS.TYPE ~= %QI#TYPE_FORM );
       80    17136        /* Not Frame or Form, must be Major, minor, or elementary field.              */
       81    17137        /* Note that FATHER@P and STATUS_AREA@D are always in the same                */
       82    17138        /* place regardless of which kind it is.                                      */
       83    17139        /* We must trace the Father links back till we hit a frame.                   */
       84    17140
       85    17141              %PROC_ADDRESS ( THING@P = "FRAME_OR_FORM$ -> QI$MAJOR_NODE.FATHER@P",
       86    17142              CHECK_FOR_INDIRECTION = NO,
       87    17143              RESULT$ = FRAME_OR_FORM$ );
       88    17180
       89    17181    2       END;
       90    17182
       91    17183    1       IF FRAME_OR_FORM$ -> QI$FRAME.WORD0_FLAGS.TYPE = %QI#TYPE_FRAME
       92    17184    1       THEN
       93    17185    2         DO;
       94    17186    2           QI_1.CURRENT.FRAME$ = FRAME_OR_FORM$;
PL6.E3A0      #001=QCF$FIND_CURRENTS File=QCF$FIND_CURRENTS.:E05TSI              WED 07/30/97 05:06 Page:4
       95    17187
       96    17188                %DATA_ADDRESS ( THING@D = "QI_1.CURRENT.FRAME$ -> QI$FRAME.STATUS_AREA@D",
       97    17189                CHECK_FOR_INDIRECTION = NO,
       98    17190                RESULT$ = "QI_1.CURRENT.FRAME_STATUS$" );
       99    17227
      100    17228    2           IF QI_1.CURRENT.FRAME_STATUS$ -> QI$FRAME_STATUS.FORM_BACK_LINK@P > 0
      101    17229    2           THEN
      102    17230    2   FIND_OUR_FORM_AND_FRAME_INDEX:
      103    17231    3             DO;
      104    17232                    %PROC_ADDRESS ( THING@P =
             17232                        "QI_1.CURRENT.FRAME_STATUS$ -> QI$FRAME_STATUS.FORM_BACK_LINK@P",
      105    17233                    CHECK_FOR_INDIRECTION = NO,
      106    17234                    RESULT$ = FRAME_OR_FORM$ );
      107    17271
      108    17272    3   FIND_OUR_FRAME:
      109    17273    4               DO;
      110    17274    4                 DO FRAME_INDEX =
      111    17275    5                   0 TO FRAME_OR_FORM$ -> QI$FORM_FILE.FRAME_COUNT - 1;
      112    17276
      113    17277                        %PROC_ADDRESS ( THING@P =
             17277                            "FRAME_OR_FORM$ -> QI$FORM_FILE.FRAME_LIST_A@P ( FRAME_INDEX )",
      114    17278                        CHECK_FOR_INDIRECTION = NO,
      115    17279                        RESULT$ = FRAME$ );
      116    17316
      117    17317    5                   IF FRAME$ = QI_1.CURRENT.FRAME$
      118    17318    5                   THEN
      119    17319    5                     EXIT FIND_OUR_FRAME;
      120    17320
      121    17321    5                 END;
      122    17322
      123    17323    4                 CALL QCE$ERROR_INTERNAL ( %E$INTERNAL_INTERPRETER_ERROR );
      124    17324    4               END FIND_OUR_FRAME;
      125    17325
      126    17326    3               QI_1.CURRENT.FRAME_INDEX = FRAME_INDEX;
      127    17327    3             END FIND_OUR_FORM_AND_FRAME_INDEX;
      128    17328    2         END;
      129    17329
PL6.E3A0      #001=QCF$FIND_CURRENTS File=QCF$FIND_CURRENTS.:E05TSI              WED 07/30/97 05:06 Page:5
      130    17330    1       IF FRAME_OR_FORM$ -> QI$FRAME.WORD0_FLAGS.TYPE = %QI#TYPE_FORM
      131    17331    1       THEN
      132    17332    2         DO;
      133    17333    2           QI_1.CURRENT.FORM$ = FRAME_OR_FORM$;
      134    17334
      135    17335                %DATA_ADDRESS ( THING@D = "QI_1.CURRENT.FORM$ -> QI$FORM_FILE.STATUS_AREA@D"
             17335                    ,
      136    17336                CHECK_FOR_INDIRECTION = NO,
      137    17337                RESULT$ = "QI_1.CURRENT.FORM_STATUS$" );
      138    17374    2         END;
      139    17375
      140    17376    1       RETURN;
      141    17377
      142    17378    1   END QCF$FIND_CURRENTS;

PL6.E3A0      #001=QCF$FIND_CURRENTS File=QCF$FIND_CURRENTS.:E05TSI              WED 07/30/97 05:06 Page:6
--  Include file information  --

   QI_MACROS_M.:E05TOU  is referenced.
   QI_PERR_C.:E05TOU  is referenced.
   QI_EQUATES_E.:E05TOU  is referenced.
   QG_MACRO_M.:E05TOU  is referenced.
   LCP_6.:E05TOU  cannot be made into a system file and is referenced.
   G_LCP6_E.:E05TOU  was found in the system file and is referenced.
   GT_LCP6_M.:E05TOU  was found in the system file and is referenced.
   KI_CP6.:E05TOU  was found in the system file and is referenced.
   GF_LCP6_M.:E05TOU  was found in the system file and is referenced.
   GM_LCP6_M.:E05TOU  was found in the system file and is referenced.
   GU_LCP6_M.:E05TOU  was found in the system file and is referenced.
   GJ_LCP6_M.:E05TOU  was found in the system file and is referenced.
   GH_LCP6_M.:E05TOU  was found in the system file and is referenced.
      No diagnostics issued in procedure QCF$FIND_CURRENTS.

   Procedure QCF$FIND_CURRENTS requires 187 words for executable code.
   Procedure QCF$FIND_CURRENTS requires 10 words of local(AUTO) storage.

    No errors detected in file QCF$FIND_CURRENTS.:E05TSI    .

PL6.E3A0      #001=QCF$FIND_CURRENTS File=QCF$FIND_CURRENTS.:E05TSI              WED 07/30/97 05:06 Page:7

 Object Unit name= QCF$FIND_CURRENTS                          File name= QCF$FIND_CURRENTS.:E05TOU
 UTS= JUL 30 '97 05:06:02.56 WED                              Compiler= PL-6/E31         Sev=      00
 SharedLib= :SHARED_LCP6_SYSTEM                               Alt SharedLib=


    ****  Control sections  ****

 Sect   Type Bound  Init  Size HexSiz  Section name
    0   Proc  even  none   187     BB  QCF$FIND_CURRENTS
    1  RoData even  none     3      3  QCF$FIND_CURRENTS

    ****  Entry defs  ****

                              Check   Calling
                             calling  sequence
  Sect HexLoc Primary Altret sequence   type   Parms  Name
     0      0   yes            yes      Std        0  QCF$FIND_CURRENTS

  ****  Entry refs  ****

         Check        Calling
        calling       sequence
Altret sequence SRef   type   Args  Name
         yes           Std       4 QCE$ERROR_INTERNAL
                       nStd      0 X6A_AUTO_0
                       nStd      0 X6A_ARET

  ****  Data refs  ****

  Flags:  r = read only, s = secondary
Flgs Name                             Flgs Name                             Flgs Name
     QI_1                                  QI_4_CHAR_ALPHANUMERIC                QI_31_DIGIT_SLS_DISPLAY
     QI_16_BIT_BINARY                      QI_32_BIT_BINARY                      QI_31_DIGIT_ST_PACKED
     QI_PICTURE_STRING                r    G$ROS$
PL6.E3A0      #001=QCF$FIND_CURRENTS File=QCF$FIND_CURRENTS.:E05TSI              WED 07/30/97 05:06 Page:8


        1        1        /*M* QCF$FIND_CURRENTS:  Find QI_1.CURRENT.whatever for some node.  */
        2        2        /*T***********************************************************/
        3        3        /*T*                                                         */
        4        4        /*T* Copyright (c) Bull HN Information Systems Inc., 1997    */
        5        5        /*T*                                                         */
        6        6        /*T***********************************************************/
        7        7        /*X* DMC,PLM=4,IND=0,DCI=4,CSI=2,IAD=2,DTI=2,AND,ECI=0,DIN=2,STI=2 */
        8        8
        9        9        /*P*  NAME:         QCF$FIND_CURRENTS
       10       10              PURPOSE:      Find QI_1.CURRENT.whatever for a given node.
       11       11              DESCRIPTION:  Uses QI_1.CURRENT.NODE$ to divine
       12       12                            QI_1.CURRENT.all_else for the caller.
       13       13        */
       14       14
       15       15        QCF$FIND_CURRENTS: PROC;

     15   0 000000  D380 0000 0000  xent QCF$FIND_CURREN*LNJ,B5   X6A_AUTO_0
          0 000003       000A 0000                       DC       10,0

       16       16
       17       17        /*D*  NAME:         QCF$FIND_CURRENTS
       18       18              CALL:         CALL QCF$FIND_CURRENTS;
       19       19              PARAMETERS:   None.
       20       20              INTERFACE:    Called by any module which finds on its hands a
       21       21                            form, frame, or field which it would like to know
       22       22                            more about.  Uses QI_1.CURRENT.NODE$ (set by caller).
       23       23              ENVIRONMENT:  Nothing unusual.
       24       24              INPUT:        QI_1, etc.
       25       25              OUTPUT:       QI_1, etc.
       26       26              SCRATCH:      Various otter stuff.
       27       27              DESCRIPTION:  First, sets all QI_1.CURRENT.stuff to ADDR (NIL)
       28       28                            (except QI_1.CURRENT.NODE$), then
       29       29                            starts with QI_1.CURRENT.NODE$ and works upwards
       30       30                            along FATHER@P links.
       31       31                            If QI_1.CURRENT.NODE$ is already a QI$FORM_FILE, sets:
       32       32                            1)  QI_1.CURRENT.NODE_STATUS$;
PL6.E3A0      #001=QCF$FIND_CURRENTS File=QCF$FIND_CURRENTS.:E05TSI              WED 07/30/97 05:06 Page:9
       33       33                            2)  QI_1.CURRENT.FORM$;
       34       34                            3)  QI_1.CURRENT.FORM_STATUS$.
       35       35                            If QI_1.CURRENT.NODE$ is a QI$FRAME or QI$FIELD_DAD, sets:
       36       36                            1)  QI_1.CURRENT.NODE_STATUS$;
       37       37                            2)  QI_1.CURRENT.FRAME$;
       38       38                            3)  QI_1.CURRENT.FRAME_STATUS$;
       39       39                            4)  QI_1.CURRENT.FRAME_INDEX;
       40       40                            5)  QI_1.CURRENT.FORM$;
       41       41                            6)  QI_1.CURRENT.FORM_STATUS$.
       42       42        */
       43       43
       44       44          %INCLUDE LCP_6;
       45      235
       46      236          %INCLUDE QG_MACRO_M;
       47      373          %INCLUDE QI_EQUATES_E;
       48      732          %INCLUDE QI_PERR_C;
       49      900          %INCLUDE QI_MACROS_M;
       50     5958          %QI$ALL;
       51    17071
       52    17072    1     DCL FRAME$ PTR;
       53    17073    1     DCL FRAME_INDEX UBIN;
       54    17074    1     DCL FRAME_OR_FORM$ PTR;
       55    17075
       56    17076    1     DCL QCE$ERROR_INTERNAL ENTRY (4);
       57    17077        %EJECT;
PL6.E3A0      #001=QCF$FIND_CURRENTS File=QCF$FIND_CURRENTS.:E05TSI              WED 07/30/97 05:06 Page:10
       58    17078    1       QI_1.CURRENT.FORM$ = ADDR (NIL);

  17078   0 000005  EB80 0000 0000                       LAB,B6   0
          0 000008  EF80 0000 0076  xsym                 STB,B6   QI_1+118

       59    17079    1       QI_1.CURRENT.FORM_STATUS$ = ADDR (NIL);

  17079   0 00000B  DB80 0000 0000                       LAB,B5   0
          0 00000E  DF80 0000 0078  xsym                 STB,B5   QI_1+120

       60    17080    1       QI_1.CURRENT.FRAME$ = ADDR (NIL);

  17080   0 000011  CB80 0000 0000                       LAB,B4   0
          0 000014  CF80 0000 007A  xsym                 STB,B4   QI_1+122

       61    17081    1       QI_1.CURRENT.FRAME_STATUS$ = ADDR (NIL);

  17081   0 000017  BB80 0000 0000                       LAB,B3   0
          0 00001A  BF80 0000 007C  xsym                 STB,B3   QI_1+124

       62    17082    1       QI_1.CURRENT.FRAME_INDEX = %QI#SOME_HUGE_NUMBER;

  17082   0 00001D  8900 0000 007E  xsym                 LBT,'FFFF'X       QI_1+126
  17082   0 000020       FFFF

       63    17083
       64    17084    1       IF QI_1.CURRENT.NODE$ = ADDR (NIL)

  17084   0 000021  8D80 0000 0080  xsym                 CMN      QI_1+128
          0 000024  0981 000A                            BNE      s:17112,PREL

       65    17085    1       THEN
       66    17086    2         DO;

       67    17087    2           QI_1.CURRENT.NODE_STATUS$ = ADDR (NIL);

  17087   0 000026  AB80 0000 0000                       LAB,B2   0
PL6.E3A0      #001=QCF$FIND_CURRENTS File=QCF$FIND_CURRENTS.:E05TSI              WED 07/30/97 05:06 Page:11
          0 000029  AF80 0000 0082  xsym                 STB,B2   QI_1+130

       68    17088    2           RETURN;

  17088   0 00002C  C380 0000 0000  xent                 LNJ,B4   X6A_ARET

       69    17089    2         END;
       70    17090
       71    17091        /* Set up the scratch area for current node.                                  */
       72    17092            %DATA_ADDRESS ( THING@D = "QI_1.CURRENT.NODE$ -> QI$FRAME.STATUS_AREA@D",
       73    17093            CHECK_FOR_INDIRECTION = NO,
       74    17094            RESULT$ = "QI_1.CURRENT.NODE_STATUS$" );

  17112   0 00002F  AC80 0000 0080  xsym                 LDB,B2   QI_1+128
          0 000032  B842 0006                            LDR,R3   6,B2
          0 000034  F853                                 LDR,R7   R3
          0 000035  6C00                                 LDV,R6   0
          0 000036  8400 0000 0000  xsym                 AID      QI_1
          0 000039  8D00 0000 0082  xsym                 SDI      QI_1+130

       75    17131
       76    17132    1       FRAME_OR_FORM$ = QI_1.CURRENT.NODE$;

  17132   0 00003C  AFC7 0007                            STB,B2   FRAME_OR_FORM$,AUTO

       77    17133
       78    17134    2       DO WHILE ( FRAME_OR_FORM$ -> QI$FRAME.WORD0_FLAGS.TYPE ~= %QI#TYPE_FRAME

  17134   0 00003E  0F81 000C                            B        s:17181,PREL

       79    17135    2         AND FRAME_OR_FORM$ -> QI$FRAME.WORD0_FLAGS.TYPE ~= %QI#TYPE_FORM );
       80    17136        /* Not Frame or Form, must be Major, minor, or elementary field.              */
       81    17137        /* Note that FATHER@P and STATUS_AREA@D are always in the same                */
       82    17138        /* place regardless of which kind it is.                                      */
       83    17139        /* We must trace the Father links back till we hit a frame.                   */
       84    17140
       85    17141              %PROC_ADDRESS ( THING@P = "FRAME_OR_FORM$ -> QI$MAJOR_NODE.FATHER@P",
PL6.E3A0      #001=QCF$FIND_CURRENTS File=QCF$FIND_CURRENTS.:E05TSI              WED 07/30/97 05:06 Page:12
       86    17142              CHECK_FOR_INDIRECTION = NO,
       87    17143              RESULT$ = FRAME_OR_FORM$ );

  17161   0 000040  ECC7 0007                            LDB,B6   FRAME_OR_FORM$,AUTO
          0 000042  B846 0005                            LDR,R3   5,B6
          0 000044  F853                                 LDR,R7   R3
          0 000045  6C00                                 LDV,R6   0
          0 000046  8400 0000 0002  xsym                 AID      QI_1+2
          0 000049  8D47 0007                            SDI      FRAME_OR_FORM$,AUTO

       88    17180
       89    17181    2       END;

  17181   0 00004B  ECC7 0007                            LDB,B6   FRAME_OR_FORM$,AUTO
          0 00004D  E806                                 LDR,R6   ,B6
          0 00004E  E570 000F                            AND,R6   15,IMO
          0 000050  6D0A                                 CMV,R6   10
          0 000051  0901 0003                            BE       s:17183,PREL
          0 000053  6D0B                                 CMV,R6   11
          0 000054  09EC                                 BNE      s:17161,SPREL

       90    17182
       91    17183    1       IF FRAME_OR_FORM$ -> QI$FRAME.WORD0_FLAGS.TYPE = %QI#TYPE_FRAME

  17183   0 000055  6D0A                                 CMV,R6   10
          0 000056  0981 004C                            BNE      s:17330,PREL

       92    17184    1       THEN
       93    17185    2         DO;

       94    17186    2           QI_1.CURRENT.FRAME$ = FRAME_OR_FORM$;

  17186   0 000058  EF80 0000 007A  xsym                 STB,B6   QI_1+122

       95    17187
       96    17188                %DATA_ADDRESS ( THING@D = "QI_1.CURRENT.FRAME$ -> QI$FRAME.STATUS_AREA@D",
       97    17189                CHECK_FOR_INDIRECTION = NO,
PL6.E3A0      #001=QCF$FIND_CURRENTS File=QCF$FIND_CURRENTS.:E05TSI              WED 07/30/97 05:06 Page:13
       98    17190                RESULT$ = "QI_1.CURRENT.FRAME_STATUS$" );

  17208   0 00005B  A846 0006                            LDR,R2   6,B6
          0 00005D  F852                                 LDR,R7   R2
          0 00005E  6C00                                 LDV,R6   0
          0 00005F  8400 0000 0000  xsym                 AID      QI_1
          0 000062  8D00 0000 007C  xsym                 SDI      QI_1+124

       99    17227
      100    17228    2           IF QI_1.CURRENT.FRAME_STATUS$ -> QI$FRAME_STATUS.FORM_BACK_LINK@P > 0

  17228   0 000065  DC80 0000 007C  xsym                 LDB,B5   QI_1+124
          0 000068  D845 000B                            LDR,R5   11,B5
          0 00006A  5901 0038                            BEZ,R5   s:17330,PREL

      101    17229    2           THEN
      102    17230    2   FIND_OUR_FORM_AND_FRAME_INDEX:
      103    17231    3             DO;

  17231   0                              FIND_OUR_FORM_A*null
      104    17232                    %PROC_ADDRESS ( THING@P =
             17232                        "QI_1.CURRENT.FRAME_STATUS$ -> QI$FRAME_STATUS.FORM_BACK_LINK@P",
      105    17233                    CHECK_FOR_INDIRECTION = NO,
      106    17234                    RESULT$ = FRAME_OR_FORM$ );

  17252   0 00006C  9855                 FIND_OUR_FORM_A*LDR,R1   R5
          0 00006D  F851                                 LDR,R7   R1
          0 00006E  6C00                                 LDV,R6   0
          0 00006F  8400 0000 0002  xsym                 AID      QI_1+2
          0 000072  8D47 0007                            SDI      FRAME_OR_FORM$,AUTO

      107    17271
      108    17272    3   FIND_OUR_FRAME:
      109    17273    4               DO;

  17273   0                              FIND_OUR_FRAME  null
      110    17274    4                 DO FRAME_INDEX =
PL6.E3A0      #001=QCF$FIND_CURRENTS File=QCF$FIND_CURRENTS.:E05TSI              WED 07/30/97 05:06 Page:14
      111    17275    5                   0 TO FRAME_OR_FORM$ -> QI$FORM_FILE.FRAME_COUNT - 1;

  17275   0 000074  8747 0006            FIND_OUR_FRAME  CL       FRAME_INDEX,AUTO
          0 000076  0F81 0017                            B        s:17321+2,PREL

      112    17276
      113    17277                        %PROC_ADDRESS ( THING@P =
             17277                           "FRAME_OR_FORM$ -> QI$FORM_FILE.FRAME_LIST_A@P ( FRAME_INDEX )",
      114    17278                        CHECK_FOR_INDIRECTION = NO,
      115    17279                        RESULT$ = FRAME$ );

  17297   0 000078  ECC7 0007                            LDB,B6   FRAME_OR_FORM$,AUTO
          0 00007A  B847 0006                            LDR,R3   FRAME_INDEX,AUTO
          0 00007C  3E0B                                 ADV,R3   11
          0 00007D  A836                                 LDR,R2   ,B6,R3
          0 00007E  F852                                 LDR,R7   R2
          0 00007F  6C00                                 LDV,R6   0
          0 000080  8400 0000 0002  xsym                 AID      QI_1+2
          0 000083  8D47 0004                            SDI      FRAME$,AUTO

      116    17316
      117    17317    5                   IF FRAME$ = QI_1.CURRENT.FRAME$

  17317   0 000085  DCC7 0004                            LDB,B5   FRAME$,AUTO
          0 000087  DD80 0000 007A  xsym                 CMB,B5   QI_1+122
          0 00008A  0901 0013                            BE       s:17326,PREL

      118    17318    5                   THEN
      119    17319    5                     EXIT FIND_OUR_FRAME;
      120    17320
      121    17321    5                 END;

  17321   0 00008C  8AC7 0006                            INC      FRAME_INDEX,AUTO
          0 00008E  ECC7 0007                            LDB,B6   FRAME_OR_FORM$,AUTO
          0 000090  E847 0006                            LDR,R6   FRAME_INDEX,AUTO
          0 000092  E946 0001                            CMR,R6   1,B6
          0 000094  0264                                 BL       s:17297,SPREL
PL6.E3A0      #001=QCF$FIND_CURRENTS File=QCF$FIND_CURRENTS.:E05TSI              WED 07/30/97 05:06 Page:15

      122    17322
      123    17323    4                 CALL QCE$ERROR_INTERNAL ( %E$INTERNAL_INTERPRETER_ERROR );

  17323   0 000095  BB80 0000 0001  01                   LAB,B3   +1
          0 000098  CBF0 0100                            LAB,B4   256,IMO
          0 00009A  E380 0000 0000  xent                 LNJ,B6   QCE$ERROR_INTERNAL
          0 00009D       0001                            DC       s:17326,PREL

      124    17324    4               END FIND_OUR_FRAME;

      125    17325
      126    17326    3               QI_1.CURRENT.FRAME_INDEX = FRAME_INDEX;

  17326   0 00009E  E847 0006                            LDR,R6   FRAME_INDEX,AUTO
          0 0000A0  EF00 0000 007E  xsym                 STR,R6   QI_1+126

      127    17327    3             END FIND_OUR_FORM_AND_FRAME_INDEX;

      128    17328    2         END;

      129    17329
      130    17330    1       IF FRAME_OR_FORM$ -> QI$FRAME.WORD0_FLAGS.TYPE = %QI#TYPE_FORM

  17330   0 0000A3  ECC7 0007                            LDB,B6   FRAME_OR_FORM$,AUTO
          0 0000A5  E806                                 LDR,R6   ,B6
          0 0000A6  E570 000F                            AND,R6   15,IMO
          0 0000A8  6D0B                                 CMV,R6   11
          0 0000A9  0981 000E                            BNE      s:17376,PREL

      131    17331    1       THEN
      132    17332    2         DO;

      133    17333    2           QI_1.CURRENT.FORM$ = FRAME_OR_FORM$;

  17333   0 0000AB  EF80 0000 0076  xsym                 STB,B6   QI_1+118

PL6.E3A0      #001=QCF$FIND_CURRENTS File=QCF$FIND_CURRENTS.:E05TSI              WED 07/30/97 05:06 Page:16
      134    17334
      135    17335               %DATA_ADDRESS ( THING@D = "QI_1.CURRENT.FORM$ -> QI$FORM_FILE.STATUS_AREA@D"
             17335                    ,
      136    17336                CHECK_FOR_INDIRECTION = NO,
      137    17337                RESULT$ = "QI_1.CURRENT.FORM_STATUS$" );

  17355   0 0000AE  B846 0006                            LDR,R3   6,B6
          0 0000B0  F853                                 LDR,R7   R3
          0 0000B1  6C00                                 LDV,R6   0
          0 0000B2  8400 0000 0000  xsym                 AID      QI_1
          0 0000B5  8D00 0000 0078  xsym                 SDI      QI_1+120

      138    17374    2         END;

      139    17375
      140    17376    1       RETURN;

  17376   0 0000B8  C380 0000 0000  xent                 LNJ,B4   X6A_ARET
      141    17377
      142    17378    1   END QCF$FIND_CURRENTS;

PL6.E3A0      #001=QCF$FIND_CURRENTS File=QCF$FIND_CURRENTS.:E05TSI              WED 07/30/97 05:06 Page:17
--  Include file information  --

   QI_MACROS_M.:E05TOU  is referenced.
   QI_PERR_C.:E05TOU  is referenced.
   QI_EQUATES_E.:E05TOU  is referenced.
   QG_MACRO_M.:E05TOU  is referenced.
   LCP_6.:E05TOU  cannot be made into a system file and is referenced.
   G_LCP6_E.:E05TOU  was found in the system file and is referenced.
   GT_LCP6_M.:E05TOU  was found in the system file and is referenced.
   KI_CP6.:E05TOU  was found in the system file and is referenced.
   GF_LCP6_M.:E05TOU  was found in the system file and is referenced.
   GM_LCP6_M.:E05TOU  was found in the system file and is referenced.
   GU_LCP6_M.:E05TOU  was found in the system file and is referenced.
   GJ_LCP6_M.:E05TOU  was found in the system file and is referenced.
   GH_LCP6_M.:E05TOU  was found in the system file and is referenced.
      No diagnostics issued in procedure QCF$FIND_CURRENTS.
PL6.E3A0      #001=QCF$FIND_CURRENTS File=QCF$FIND_CURRENTS.:E05TSI              WED 07/30/97 05:06 Page:18

 **** Variables and constants ****

  ****  Auto variables  ****

  ****  Scalars and arrays  ****
HexLoc.c.b A Datatyp(siz) R M Lvl/name                 HexLoc.c.b A Datatyp(siz) R M Lvl/name

     4-0-0/w PTR         r     1 FRAME$                     6-0-0/w UBIN(16)    r     1 FRAME_INDEX
     7-0-0/w PTR         r     1 FRAME_OR_FORM$

  ****  SYMREF variables  ****

  ****  Scalars and arrays  ****
HexLoc.c.b A Datatyp(siz) R M Lvl/name                 HexLoc.c.b A Datatyp(siz) R M Lvl/name

     0-0-0/d STRC(2576)  r     1 QI_1

  ****  BASED and DCB variables  ****

  ****  Scalars and arrays  ****
HexLoc.c.b A Datatyp(siz) R M Lvl/name                 HexLoc.c.b A Datatyp(siz) R M Lvl/name

     0-0-0/w STRC(192)   r     1 QI$FORM_FILE               0-0-0/w STRC(128)   r     1 QI$FRAME
     0-0-0/w STRC(208)   r     1 QI$FRAME_STATUS            0-0-0/w STRC(128)   r     1 QI$MAJOR_NODE
     0-0-0/c ASTR(8)     r     1 QI$VARIABLE_IDENTIFIER


   Procedure QCF$FIND_CURRENTS requires 187 words for executable code.
   Procedure QCF$FIND_CURRENTS requires 10 words of local(AUTO) storage.

    No errors detected in file QCF$FIND_CURRENTS.:E05TSI    .
PL6.E3A0      #001=QCF$FIND_CURRENTS File=QCF$FIND_CURRENTS.:E05TSI              WED 07/30/97 05:06 Page:19
          *** CROSS REFERENCE LISTING ***
**     DENOTES     IDENTIFIER DEFINITION
<<                 IDENTIFIER'S VALUE SET
>>                 IDENTIFIER'S VALUE USED
<>                 IDENTIFIER SET AND/OR USED
--                 IDENTIFIER REFERENCED
PL6.E3A0      #001=QCF$FIND_CURRENTS File=QCF$FIND_CURRENTS.:E05TSI              WED 07/30/97 05:06 Page:20
          MINI XREF LISTING

FIND_OUR_FRAME
     17273**LABEL   17319--EXIT
FRAME$
     17072**DCL     17297<<ASSIGN  17317>>IF
FRAME_INDEX
     17073**DCL     17275<<DOINDEX 17297>>ASSIGN  17326>>ASSIGN
FRAME_OR_FORM$
     17074**DCL     17132<<ASSIGN  17134>>DOWHILE 17134>>DOWHILE 17161<<ASSIGN  17161>>ASSIGN  17183>>IF
     17186>>ASSIGN  17252<<ASSIGN  17275>>DOINDEX 17297>>ASSIGN  17330>>IF      17333>>ASSIGN
QCE$ERROR_INTERNAL
     17076**DCL-ENT 17323--CALL
QGB_PARAM.DVE.DVBYTE.VFC
     11555**DCL     11556--REDEF
QGB_PARAM.DVE.EOMCHAR
     11567**DCL     11568--REDEF
QGB_PARAM.MSG$
     11549**DCL     11550--REDEF
QGB_PARAM.UHDR$
     11574**DCL     11575--REDEF
QI$ACTIVATION_STATUS
      9313**DCL      9319--REDEF
QI$CIP
      8154**DCL      8224--REDEF
QI$CIP.CA
      8159**DCL      8163--REDEF    8166--REDEF    8169--REDEF
QI$COBOL_DAD.PSEUDO_CIP
      8398**DCL      8423--REDEF
QI$COBOL_DAD.PSEUDO_CIP.ALPHANUMERIC
      8400**DCL      8405--REDEF
QI$COBOL_DAD.PSEUDO_CIP.NUMERIC.CB
      8406**DCL      8409--REDEF    8412--REDEF
QI$COBOL_DAD.VARIABLE_LENGTH_ITEMS
PL6.E3A0      #001=QCF$FIND_CURRENTS File=QCF$FIND_CURRENTS.:E05TSI              WED 07/30/97 05:06 Page:21
      8434**DCL      8450--REDEF    8458--REDEF    8466--REDEF
QI$COBOL_DAD.VARIABLE_LENGTH_ITEMS.LEVEL_MULTIPLIERS
      8435**DCL      8445--REDEF    8448--REDEF
QI$COBOL_DAD.WORD0
      8362**DCL      8363--REDEF    8377--REDEF
QI$COBOL_DAD_P_BITS.P
      8502**DCL      8508--REDEF
QI$CONDITION_CONTROL_BLOCK.LIST_A@P
      7988**DCL      7989--REDEF
QI$CONDITION_CONTROL_BLOCK.WORD0_FLAGS
      7984**DCL      7987--REDEF
QI$CONDITION_LEGAL_BLOCK.ARRAY@P
      8021**DCL      8022--REDEF    8023--REDEF
QI$DAD.PSEUDO_CIP
      8301**DCL      8326--REDEF
QI$DAD.PSEUDO_CIP.ALPHANUMERIC
      8303**DCL      8308--REDEF
QI$DAD.PSEUDO_CIP.NUMERIC.CB
      8309**DCL      8312--REDEF    8315--REDEF
QI$DAD.WORD0
      8270**DCL      8271--REDEF
QI$ERROR_MESSAGE_LINE
     11662**DCL     11664--REDEF
QI$ERROR_STATUS
     11659**DCL     11661--REDEF
QI$FIELD_DAD.ELEMENTARY_ITEM.P
      8716**DCL      8723--REDEF
QI$FIELD_DAD.ONE_DIMENSIONAL_ITEM.P
      8736**DCL      8743--REDEF
QI$FIELD_DAD.PSEUDO_CIP
      8643**DCL      8668--REDEF
QI$FIELD_DAD.PSEUDO_CIP.ALPHANUMERIC
      8645**DCL      8650--REDEF
QI$FIELD_DAD.PSEUDO_CIP.NUMERIC.CB
      8651**DCL      8654--REDEF    8657--REDEF
QI$FIELD_DAD.TWO_DIMENSIONAL_ITEM.P
PL6.E3A0      #001=QCF$FIND_CURRENTS File=QCF$FIND_CURRENTS.:E05TSI              WED 07/30/97 05:06 Page:22
      8756**DCL      8763--REDEF
QI$FIELD_DAD.VARIABLE_LENGTH_ITEMS
      8699**DCL      8715--REDEF    8733--REDEF    8751--REDEF
QI$FIELD_DAD.VARIABLE_LENGTH_ITEMS.LEVEL_MULTIPLIERS
      8700**DCL      8710--REDEF    8713--REDEF
QI$FIELD_DAD.WORD0
      8595**DCL      8596--REDEF
QI$FIELD_DAD.WORD0_FLAGS.IO_FLAGS
      8599**DCL      8604--REDEF
QI$FIELD_DAD_P.P
      8797**DCL      8804--REDEF
QI$FIELD_STATUS.INDICATORS
      9463**DCL      9495--REDEF
QI$FIELD_STATUS.INDICATORS.ENABLED_FLAGS
      9467**DCL      9472--REDEF
QI$FIELD_STATUS.INDICATORS.OPEN_FLAGS
      9479**DCL      9486--REDEF
QI$FIELD_STATUS.INDICATORS.STATE_FLAGS
      9473**DCL      9478--REDEF
QI$FILE.WORD0
      8919**DCL      8920--REDEF
QI$FILE_STATUS.INDICATORS
      9756**DCL      9788--REDEF
QI$FILE_STATUS.INDICATORS.ENABLED_FLAGS
      9760**DCL      9765--REDEF
QI$FILE_STATUS.INDICATORS.OPEN_FLAGS
      9772**DCL      9779--REDEF
QI$FILE_STATUS.INDICATORS.STATE_FLAGS
      9766**DCL      9771--REDEF
QI$FORM_FILE.FRAME_COUNT
      8998**DCL     17275>>DOINDEX
QI$FORM_FILE.FRAME_LIST_A@P
      9027**DCL     17297>>ASSIGN
QI$FORM_FILE.STATUS_AREA@D
      9011**DCL     17355>>ASSIGN
QI$FORM_FILE.USE_PROCEDURE
PL6.E3A0      #001=QCF$FIND_CURRENTS File=QCF$FIND_CURRENTS.:E05TSI              WED 07/30/97 05:06 Page:23
      9019**DCL      9026--REDEF
QI$FORM_FILE.WORD0
      8973**DCL      8974--REDEF
QI$FORM_STATUS.INDICATORS
      9877**DCL      9909--REDEF
QI$FORM_STATUS.INDICATORS.ENABLED_FLAGS
      9881**DCL      9886--REDEF
QI$FORM_STATUS.INDICATORS.OPEN_FLAGS
      9893**DCL      9900--REDEF
QI$FORM_STATUS.INDICATORS.STATE_FLAGS
      9887**DCL      9892--REDEF
QI$FRAME.STATUS_AREA@D
      9150**DCL     17112>>ASSIGN  17208>>ASSIGN
QI$FRAME.WORD0
      9134**DCL      9135--REDEF
QI$FRAME.WORD0_FLAGS.TYPE
      9143**DCL     17134>>DOWHILE 17134>>DOWHILE 17183>>IF      17330>>IF
QI$FRAME_STATUS.FORM_BACK_LINK@P
     10083**DCL     17228>>IF      17252>>ASSIGN
QI$FRAME_STATUS.INDICATORS
     10106**DCL     10138--REDEF
QI$FRAME_STATUS.INDICATORS.ENABLED_FLAGS
     10110**DCL     10115--REDEF
QI$FRAME_STATUS.INDICATORS.OPEN_FLAGS
     10122**DCL     10129--REDEF
QI$FRAME_STATUS.INDICATORS.STATE_FLAGS
     10116**DCL     10121--REDEF
QI$GZ_FIELD.DESCRIPTION.IO_FLAGS
     16988**DCL     16993--REDEF
QI$IDENTIFIER
     11665**DCL     11667--REDEF
QI$INDICATORS
      9377**DCL      9407--REDEF
QI$INDICATORS.ENABLED_FLAGS
      9383**DCL      9388--REDEF
QI$INDICATORS.OPEN_FLAGS
PL6.E3A0      #001=QCF$FIND_CURRENTS File=QCF$FIND_CURRENTS.:E05TSI              WED 07/30/97 05:06 Page:24
      9395**DCL      9402--REDEF
QI$INDICATORS.STATE_FLAGS
      9389**DCL      9394--REDEF
QI$MAJOR_NODE.FATHER@P
      8847**DCL     17161>>ASSIGN
QI$MAJOR_NODE.WORD0
      8833**DCL      8834--REDEF
QI$MAJOR_STATUS.INDICATORS
      9556**DCL      9588--REDEF
QI$MAJOR_STATUS.INDICATORS.ENABLED_FLAGS
      9560**DCL      9565--REDEF
QI$MAJOR_STATUS.INDICATORS.OPEN_FLAGS
      9572**DCL      9579--REDEF
QI$MAJOR_STATUS.INDICATORS.STATE_FLAGS
      9566**DCL      9571--REDEF
QI$MESSAGE_TYPE
     11656**DCL     11658--REDEF
QI$MINOR_NODE.WORD0
      8876**DCL      8877--REDEF
QI$MINOR_STATUS.INDICATORS
      9649**DCL      9681--REDEF
QI$MINOR_STATUS.INDICATORS.ENABLED_FLAGS
      9653**DCL      9658--REDEF
QI$MINOR_STATUS.INDICATORS.OPEN_FLAGS
      9665**DCL      9672--REDEF
QI$MINOR_STATUS.INDICATORS.STATE_FLAGS
      9659**DCL      9664--REDEF
QI$OP_ACCEPT.DATANAME@P
      6064**DCL      6065--REDEF
QI$OP_CALL.EPTR$
      6236**DCL      6237--REDEF
QI$OP_CLEAR.IO_FLAGS
      6269**DCL      6272--REDEF
QI$OP_DISPLAY.FIELD_A@P
      6536**DCL      6537--REDEF
QI$OP_ENABLE.IO_FLAGS
PL6.E3A0      #001=QCF$FIND_CURRENTS File=QCF$FIND_CURRENTS.:E05TSI              WED 07/30/97 05:06 Page:25
      6623**DCL      6626--REDEF
QI$OP_IFCLS.ATTRIBUTE.TYPE
      6716**DCL      6721--REDEF
QI$OP_INSPECT.TALLYING_FOR_ITEM@P
      6950**DCL      6951--REDEF
QI$OP_INSPECT.TALLYING_INITIAL_ITEM@P
      6952**DCL      6953--REDEF
QI$OP_INSPECT.TALLYING_ITEM@P
      6948**DCL      6949--REDEF
QI$OP_OPEN.IO_FLAGS
      7510**DCL      7513--REDEF
QI$OP_PERFM.BINARY_ITERATION_COUNT@P
      7548**DCL      7549--REDEF
QI$PSEUDO_CIP
      8049**DCL      8073--REDEF
QI$PSEUDO_CIP.ALPHANUMERIC
      8053**DCL      8058--REDEF
QI$PSEUDO_CIP.NUMERIC.CB
      8059**DCL      8062--REDEF    8065--REDEF
QI$TERMINAL_ATTRIBUTES
      9270**DCL      9283--REDEF
QI$TRAN_FILE.WORD0
      9055**DCL      9056--REDEF
QI$TRAN_STATUS.INDICATORS
      9990**DCL     10022--REDEF
QI$TRAN_STATUS.INDICATORS.ENABLED_FLAGS
      9994**DCL      9999--REDEF
QI$TRAN_STATUS.INDICATORS.OPEN_FLAGS
     10006**DCL     10013--REDEF
QI$TRAN_STATUS.INDICATORS.STATE_FLAGS
     10000**DCL     10005--REDEF
QI$VARIABLE_IDENTIFIER.LENGTH
     11669**DCL     11670--IMP-SIZ
QI_1.BASE
     10198**DCL     10205--REDEF
QI_1.BASE.DATA$
PL6.E3A0      #001=QCF$FIND_CURRENTS File=QCF$FIND_CURRENTS.:E05TSI              WED 07/30/97 05:06 Page:26
     10199**DCL     17112>>ASSIGN  17208>>ASSIGN  17355>>ASSIGN
QI_1.BASE.PROC$
     10201**DCL     17161>>ASSIGN  17252>>ASSIGN  17297>>ASSIGN
QI_1.CURRENT.FILE$
     11089**DCL     11091--REDEF   11093--REDEF
QI_1.CURRENT.FILE_STATUS$
     11095**DCL     11097--REDEF   11099--REDEF
QI_1.CURRENT.FORM$
     11091**DCL     17078<<ASSIGN  17333<<ASSIGN  17355>>ASSIGN
QI_1.CURRENT.FORM_STATUS$
     11097**DCL     17079<<ASSIGN  17355<<ASSIGN
QI_1.CURRENT.FRAME$
     11101**DCL     17080<<ASSIGN  17186<<ASSIGN  17208>>ASSIGN  17317>>IF
QI_1.CURRENT.FRAME_INDEX
     11105**DCL     17082<<ASSIGN  17326<<ASSIGN
QI_1.CURRENT.FRAME_STATUS$
     11103**DCL     17081<<ASSIGN  17208<<ASSIGN  17228>>IF      17252>>ASSIGN
QI_1.CURRENT.NODE$
     11108**DCL     17084>>IF      17112>>ASSIGN  17132>>ASSIGN
QI_1.CURRENT.NODE_STATUS$
     11110**DCL     17087<<ASSIGN  17112<<ASSIGN
QI_1.DAD
     10893**DCL     10898--REDEF
QI_1.FILE_HEAD
     11076**DCL     11083--REDEF
QI_1.IS_ALL_LIT
     10899**DCL     10904--REDEF
QI_1.IS_FORM_VARIABLE
     10905**DCL     10910--REDEF
QI_1.IS_TEMP
     10911**DCL     10916--REDEF
QI_1.MESSAGE_LINE_DAD.PSEUDO_CIP
     11009**DCL     11034--REDEF
QI_1.MESSAGE_LINE_DAD.PSEUDO_CIP.ALPHANUMERIC
     11011**DCL     11016--REDEF
QI_1.MESSAGE_LINE_DAD.PSEUDO_CIP.NUMERIC.CB
PL6.E3A0      #001=QCF$FIND_CURRENTS File=QCF$FIND_CURRENTS.:E05TSI              WED 07/30/97 05:06 Page:27
     11017**DCL     11020--REDEF   11023--REDEF
QI_1.MESSAGE_LINE_DAD.WORD0
     10978**DCL     10979--REDEF
QI_1.OFFSET
     10917**DCL     10922--REDEF
QI_1.OP.CIP
     10278**DCL     10729--REDEF
QI_1.OP.CIP.AUX
     10644**DCL     10715--REDEF
QI_1.OP.CIP.AUX.CD
     10689**DCL     10692--REDEF   10696--REDEF   10699--REDEF
QI_1.OP.CIP.S
     10348**DCL     10419--REDEF
QI_1.OP.CIP.S.CD
     10393**DCL     10396--REDEF   10400--REDEF   10403--REDEF
QI_1.OP.CIP.T
     10496**DCL     10567--REDEF
QI_1.OP.CIP.T.CD
     10541**DCL     10544--REDEF   10548--REDEF   10551--REDEF
QI_1.OP.DATA
     10736**DCL     10740--REDEF
QI_1.OP.FILL_CHAR
     10860**DCL     10863--REDEF
QI_1.OP.INX
     10793**DCL     10797--REDEF   10798--REDEF   10802--REDEF
QI_1.OP.LEN
     10776**DCL     10780--REDEF   10781--REDEF   10785--REDEF   10786--REDEF   10790--REDEF
QI_1.OP.LEN.AUX
     10779**DCL     11680--IMP-SIZ
QI_1.OP.LEN.S
     10777**DCL     11676--IMP-SIZ
QI_1.OP.LEN.T
     10778**DCL     11678--IMP-SIZ
QI_1.OP.PICTURE_STRING
     10846**DCL     10849--REDEF   10850--REDEF   10853--REDEF   10854--REDEF   10857--REDEF
QI_1.OP.ROUND
PL6.E3A0      #001=QCF$FIND_CURRENTS File=QCF$FIND_CURRENTS.:E05TSI              WED 07/30/97 05:06 Page:28
     10879**DCL     10880--REDEF   10881--REDEF
QI_1.OP.SRCH_VRFY_ELEMS
     10815**DCL     10818--REDEF
QI_1.OPENED_COUNT
     11084**DCL     11087--REDEF
QI_1.OTTER_SPACE
     10923**DCL     10928--REDEF
QI_1.PICTURE_STRING
     10929**DCL     10934--REDEF
QI_1.SPECIAL_NAMES
     11112**DCL     11121--REDEF
QI_1.TYPE
     10935**DCL     10940--REDEF
QI_16_BIT_BINARY
     16125**DCL     16195--REDEF
QI_16_BIT_BINARY.CB
     16144**DCL     16147--REDEF   16151--REDEF   16154--REDEF
QI_31_DIGIT_SLS_DISPLAY
     15958**DCL     16028--REDEF
QI_31_DIGIT_SLS_DISPLAY.CD
     16005**DCL     16008--REDEF   16012--REDEF   16015--REDEF
QI_31_DIGIT_ST_PACKED
     16460**DCL     16530--REDEF
QI_31_DIGIT_ST_PACKED.CP
     16493**DCL     16496--REDEF   16500--REDEF   16503--REDEF
QI_32_BIT_BINARY
     16292**DCL     16362--REDEF
QI_32_BIT_BINARY.CB
     16311**DCL     16314--REDEF   16318--REDEF   16321--REDEF
QI_4_CHAR_ALPHANUMERIC
     15790**DCL     15860--REDEF
QI_4_CHAR_ALPHANUMERIC.CA
     15795**DCL     15799--REDEF   15802--REDEF   15805--REDEF
QI_ACCUMULATOR_DAD.CIP
     16803**DCL     16874--REDEF
QI_ACCUMULATOR_DAD.CIP.CP
PL6.E3A0      #001=QCF$FIND_CURRENTS File=QCF$FIND_CURRENTS.:E05TSI              WED 07/30/97 05:06 Page:29
     16834**DCL     16837--REDEF   16841--REDEF   16844--REDEF
QI_ALR.CIP
     11755**DCL     12206--REDEF
QI_ALR.CIP.AUX
     12121**DCL     12192--REDEF
QI_ALR.CIP.AUX.CA
     12124**DCL     12128--REDEF   12131--REDEF   12134--REDEF
QI_ALR.CIP.S
     11825**DCL     11896--REDEF
QI_ALR.CIP.S.CA
     11828**DCL     11832--REDEF   11835--REDEF   11838--REDEF
QI_ALR.CIP.T
     11973**DCL     12044--REDEF
QI_ALR.CIP.T.CA
     11976**DCL     11980--REDEF   11983--REDEF   11986--REDEF
QI_ALR.DATA
     12213**DCL     12217--REDEF
QI_ALR.FILL_CHAR
     12337**DCL     12340--REDEF
QI_ALR.INX
     12270**DCL     12274--REDEF   12275--REDEF   12279--REDEF
QI_ALR.LEN
     12253**DCL     12257--REDEF   12258--REDEF   12262--REDEF   12263--REDEF   12267--REDEF
QI_ALR.PICTURE_STRING
     12323**DCL     12326--REDEF   12327--REDEF   12330--REDEF   12331--REDEF   12334--REDEF
QI_ALR.ROUND
     12356**DCL     12357--REDEF   12358--REDEF
QI_ALR.SRCH_VRFY_ELEMS
     12292**DCL     12295--REDEF
QI_MAT.CIP
     15094**DCL     15545--REDEF
QI_MAT.CIP.AUX
     15460**DCL     15531--REDEF
QI_MAT.CIP.AUX.CA
     15463**DCL     15467--REDEF   15470--REDEF   15473--REDEF
QI_MAT.CIP.S
PL6.E3A0      #001=QCF$FIND_CURRENTS File=QCF$FIND_CURRENTS.:E05TSI              WED 07/30/97 05:06 Page:30
     15164**DCL     15235--REDEF
QI_MAT.CIP.S.CA
     15167**DCL     15171--REDEF   15174--REDEF   15177--REDEF
QI_MAT.CIP.T
     15312**DCL     15383--REDEF
QI_MAT.CIP.T.CA
     15315**DCL     15319--REDEF   15322--REDEF   15325--REDEF
QI_MAT.DATA
     15552**DCL     15556--REDEF
QI_MAT.DEC
     15620**DCL     15624--REDEF   15625--REDEF   15629--REDEF
QI_MAT.FILL_CHAR
     15676**DCL     15679--REDEF
QI_MAT.LEN
     15592**DCL     15596--REDEF   15597--REDEF   15601--REDEF   15602--REDEF   15606--REDEF
QI_MAT.PICTURE_STRING
     15662**DCL     15665--REDEF   15666--REDEF   15669--REDEF   15670--REDEF   15673--REDEF
QI_MAT.ROUND
     15695**DCL     15696--REDEF   15697--REDEF
QI_MAT.SRCH_VRFY_ELEMS
     15631**DCL     15634--REDEF
QI_PICTURE_STRING
     16628**DCL     16698--REDEF
QI_PICTURE_STRING.CA
     16633**DCL     16637--REDEF   16640--REDEF   16643--REDEF
QI_SRCH_VRFY.CIP
     14425**DCL     14876--REDEF
QI_SRCH_VRFY.CIP.AUX
     14791**DCL     14862--REDEF
QI_SRCH_VRFY.CIP.AUX.CA
     14794**DCL     14798--REDEF   14801--REDEF   14804--REDEF
QI_SRCH_VRFY.CIP.S
     14495**DCL     14566--REDEF
QI_SRCH_VRFY.CIP.S.CA
     14498**DCL     14502--REDEF   14505--REDEF   14508--REDEF
QI_SRCH_VRFY.CIP.T
PL6.E3A0      #001=QCF$FIND_CURRENTS File=QCF$FIND_CURRENTS.:E05TSI              WED 07/30/97 05:06 Page:31
     14643**DCL     14714--REDEF
QI_SRCH_VRFY.CIP.T.CA
     14646**DCL     14650--REDEF   14653--REDEF   14656--REDEF
QI_SRCH_VRFY.DATA
     14883**DCL     14887--REDEF
QI_SRCH_VRFY.DEC
     14951**DCL     14955--REDEF   14956--REDEF   14960--REDEF
QI_SRCH_VRFY.FILL_CHAR
     15007**DCL     15010--REDEF
QI_SRCH_VRFY.ROUND
     15026**DCL     15027--REDEF   15028--REDEF
QI_SRCH_VRFY.SRCH_RESULT
     14967**DCL     14970--REDEF   14971--REDEF   14974--REDEF   14975--REDEF   14978--REDEF
QI_SRCH_VRFY.SRCH_VRFY_ARGS
     14891**DCL     14895--REDEF   14896--REDEF   14900--REDEF   14901--REDEF   14905--REDEF
QI_SRCH_VRFY.SRCH_VRFY_ELEMS
     14962**DCL     14965--REDEF
QI_TYPE_BINARY_TARGET.CIP
     13752**DCL     14203--REDEF
QI_TYPE_BINARY_TARGET.CIP.AUX
     14118**DCL     14189--REDEF
QI_TYPE_BINARY_TARGET.CIP.AUX.CA
     14121**DCL     14125--REDEF   14128--REDEF   14131--REDEF
QI_TYPE_BINARY_TARGET.CIP.S
     13822**DCL     13893--REDEF
QI_TYPE_BINARY_TARGET.CIP.S.CA
     13825**DCL     13829--REDEF   13832--REDEF   13835--REDEF
QI_TYPE_BINARY_TARGET.CIP.T
     13970**DCL     14041--REDEF
QI_TYPE_BINARY_TARGET.CIP.T.CB
     13987**DCL     13990--REDEF   13994--REDEF   13997--REDEF
QI_TYPE_BINARY_TARGET.DATA
     14210**DCL     14214--REDEF
QI_TYPE_BINARY_TARGET.DEC
     14278**DCL     14282--REDEF   14283--REDEF   14287--REDEF
QI_TYPE_BINARY_TARGET.LEN
PL6.E3A0      #001=QCF$FIND_CURRENTS File=QCF$FIND_CURRENTS.:E05TSI              WED 07/30/97 05:06 Page:32
     14250**DCL     14254--REDEF   14255--REDEF   14259--REDEF   14260--REDEF   14264--REDEF
QI_TYPE_BINARY_TARGET.PICTURE_STRING
     14320**DCL     14323--REDEF   14324--REDEF   14327--REDEF   14328--REDEF   14331--REDEF
QI_TYPE_BINARY_TARGET.ROUND
     14353**DCL     14354--REDEF   14355--REDEF
QI_TYPE_BINARY_TARGET.SIZE_ERROR
     14339**DCL     14340--REDEF
QI_TYPE_BINARY_TARGET.SRCH_VRFY_ELEMS
     14289**DCL     14292--REDEF
QI_TYPE_DISPLAY_SOURCE.CIP
     12420**DCL     12871--REDEF
QI_TYPE_DISPLAY_SOURCE.CIP.AUX
     12786**DCL     12857--REDEF
QI_TYPE_DISPLAY_SOURCE.CIP.AUX.CA
     12789**DCL     12793--REDEF   12796--REDEF   12799--REDEF
QI_TYPE_DISPLAY_SOURCE.CIP.S
     12490**DCL     12561--REDEF
QI_TYPE_DISPLAY_SOURCE.CIP.S.CD
     12535**DCL     12538--REDEF   12542--REDEF   12545--REDEF
QI_TYPE_DISPLAY_SOURCE.CIP.T
     12638**DCL     12709--REDEF
QI_TYPE_DISPLAY_SOURCE.CIP.T.CA
     12641**DCL     12645--REDEF   12648--REDEF   12651--REDEF
QI_TYPE_DISPLAY_SOURCE.DATA
     12878**DCL     12882--REDEF
QI_TYPE_DISPLAY_SOURCE.DEC
     12946**DCL     12950--REDEF   12951--REDEF   12955--REDEF
QI_TYPE_DISPLAY_SOURCE.LEN
     12918**DCL     12922--REDEF   12923--REDEF   12927--REDEF   12928--REDEF   12932--REDEF
QI_TYPE_DISPLAY_SOURCE.PICTURE_STRING
     12988**DCL     12991--REDEF   12992--REDEF   12995--REDEF   12996--REDEF   12999--REDEF
QI_TYPE_DISPLAY_SOURCE.ROUND
     13021**DCL     13022--REDEF   13023--REDEF
QI_TYPE_DISPLAY_SOURCE.SIZE_ERROR
     13007**DCL     13008--REDEF
QI_TYPE_DISPLAY_SOURCE.SRCH_VRFY_ELEMS
PL6.E3A0      #001=QCF$FIND_CURRENTS File=QCF$FIND_CURRENTS.:E05TSI              WED 07/30/97 05:06 Page:33
     12957**DCL     12960--REDEF
QI_TYPE_DISPLAY_TARGET.CIP
     13086**DCL     13537--REDEF
QI_TYPE_DISPLAY_TARGET.CIP.AUX
     13452**DCL     13523--REDEF
QI_TYPE_DISPLAY_TARGET.CIP.AUX.CA
     13455**DCL     13459--REDEF   13462--REDEF   13465--REDEF
QI_TYPE_DISPLAY_TARGET.CIP.S
     13156**DCL     13227--REDEF
QI_TYPE_DISPLAY_TARGET.CIP.S.CA
     13159**DCL     13163--REDEF   13166--REDEF   13169--REDEF
QI_TYPE_DISPLAY_TARGET.CIP.T
     13304**DCL     13375--REDEF
QI_TYPE_DISPLAY_TARGET.CIP.T.CD
     13349**DCL     13352--REDEF   13356--REDEF   13359--REDEF
QI_TYPE_DISPLAY_TARGET.DATA
     13544**DCL     13548--REDEF
QI_TYPE_DISPLAY_TARGET.DEC
     13612**DCL     13616--REDEF   13617--REDEF   13621--REDEF
QI_TYPE_DISPLAY_TARGET.LEN
     13584**DCL     13588--REDEF   13589--REDEF   13593--REDEF   13594--REDEF   13598--REDEF
QI_TYPE_DISPLAY_TARGET.PICTURE_STRING
     13654**DCL     13657--REDEF   13658--REDEF   13661--REDEF   13662--REDEF   13665--REDEF
QI_TYPE_DISPLAY_TARGET.ROUND
     13687**DCL     13688--REDEF   13689--REDEF
QI_TYPE_DISPLAY_TARGET.SIZE_ERROR
     13673**DCL     13674--REDEF
QI_TYPE_DISPLAY_TARGET.SRCH_VRFY_ELEMS
     13623**DCL     13626--REDEF
