VERSION E05

PL6.E3A0      #001=QCG$GET_FIELD File=QCG$GET_FIELD.:E05TSI                      WED 07/30/97 05:07 Page:1
        1        1        /*M* QCG$GET_FIELD:  Re-prompt for illegal fields.  */
        2        2        /*T***********************************************************/
        3        3        /*T*                                                         */
        4        4        /*T* Copyright (c) Bull HN Information Systems Inc., 1997    */
        5        5        /*T*                                                         */
        6        6        /*T***********************************************************/
        7        7        /*X* DMC,PLM=4,IND=0,DCI=4,CSI=2,IAD=2,DTI=2,AND,ECI=0,DIN=2,STI=2 */
        8        8
        9        9        /*P*  NAME:         QCG$GET_FIELD
       10       10              PURPOSE:      Re-prompt for illegal terminal inputs (inpi?).
       11       11              DESCRIPTION:  A field has been M$READ, determined to have
       12       12                            illegal input, and is to be re-read.
       13       13        */
       14       14
       15       15        QCG$GET_FIELD: PROC ( QCG@GET_FIELD );
       16       16
       17       17        /*D*  NAME:         QCG$GET_FIELD
       18       18              CALL:         CALL QCG$GET_FIELD ( QCG@GET_FIELD );
       19       19              PARAMETERS:   QCG@GET_FIELD is a structure which contains information
       20       20                            concerning the field to be re-read; it's generated
       21       21                            by invoking the QCG@GET_FIELD %MACRO within the
       22       22                            QCG_GET_FIELD_M %INCLUDE file (see commentary within
       23       23                            that file).
       24       24              INTERFACE:    Called by QBV$VERIFY on LEGAL VALUE errors,
       25       25                            in which case QCM$MESS is called to post an error message
       26       26                            and QCR$READ is called to re-read the field;
       27       27                            called by QCR$READ on post-read verification errors,
       28       28                            in which case QCM$MESS is called to post an error message
       29       29                            and QCI$IO_READ is called to re-read the field.
       30       30              ENVIRONMENT:  Nothing unusual.
       31       31              INPUT:        QI_1, etc.
       32       32              OUTPUT:       The QI$GZ_FIELD.STATUS.DATA$ buffer is filled with
       33       33                            the new stuff read.  Affects the screen, too, y'know?
       34       34              SCRATCH:      Various otter data.
       35       35              DESCRIPTION:  Pretty much summed up in INTERFACE above.
       36       36        */
       37       37
PL6.E3A0      #001=QCG$GET_FIELD File=QCG$GET_FIELD.:E05TSI                      WED 07/30/97 05:07 Page:2
       38       38          %INCLUDE LCP_6;
       39      229          %FPT_MDFFLD ( FPTN = FPT@MDFFLD,
       40      230                        STCLASS = AUTO );
       41      263          %VLP_FLDATR ( FPTN = VLP@FLDATR,
       42      264                        STCLASS = AUTO );
       43      290
       44      291          %INCLUDE QG_MACRO_M;
       45      428          %QGB_ENTRIES;
       46      441          %INCLUDE QI_EQUATES_E;
       47      800          %INCLUDE QI_PERR_C;
       48      968          %INCLUDE QI_MACROS_M;
       49     6026          %QI$ALL;
       50    17139          %QI_FPTS;
       51    19184
       52    19185    1     DCL FRAME$ PTR;
       53    19186    1     DCL FRAME_STATUS$ PTR;
       54    19187    1     DCL GZ_FIELD$ PTR;
       55    19188    1     DCL OLD_VISUAL_ATTRIBUTE UBIN;
       56    19189    1     DCL WE_WERE_CALLED_FROM_A_VERIFY BIT(1) ALIGNED;
       57    19190
       58    19191    1     DCL QCE$ERROR_INTERNAL ENTRY (4);
       59    19192    1     DCL QCE$ERROR_M$INTERNAL ENTRY (4);
       60    19193    1     DCL QCI$IO_READ ENTRY (1);
       61    19194    1     DCL QCM$MESS ENTRY (1);
       62    19195    1     DCL QCM$MESS_ERASE ENTRY (1);
       63    19196    1     DCL QCR$READ ENTRY (1);
       64    19197
       65    19198          %SET LISTMAC = '1'B;
       66    19199
       67    19200          %INCLUDE QCG_GET_FIELD_M;
       68    19239          %QCG@GET_FIELD;
             19240            %BEGIN_MACRO;
             19241            %SET LISTDIR = '0'B;
             19254    1     DCL 1 QCG@GET_FIELD ALIGNED,
             19255    1           2 MESSAGE_LINE_GZ_HEADER$ PTR,
             19256                           /* Pointer to QI$GZ_HEADER for the
             19257                              MESSAGE LINE to use.  */
PL6.E3A0      #001=QCG$GET_FIELD File=QCG$GET_FIELD.:E05TSI                      WED 07/30/97 05:07 Page:3
             19258    1           2 IS_MESSAGE_A_DAD BIT(1) ALIGNED,
             19259                           /* Set if MESSAGE$ points to a DAD,
             19260                              reset if MESSAGE$ points to text
             19261                              (in which case MESSAGE_LENGTH is valid).  */
             19262    1           2 MESSAGE_LENGTH UBIN,
             19263                           /* Length, in bytes, of the error message.  */
             19264    1           2 MESSAGE$ PTR,
             19265                           /* See IS_MESSAGE_A_DAD.  */
             19266    1           2 FRAME_INDEX UBIN,
             19267                           /* Index of the current frame.  */
             19268    1           2 FIELD_INDEX UBIN,
             19269                           /* Index of the field to re-get (if any).  */
             19270    1           2 STATUS UBIN,
             19271                           /* Returned status code:  0 -> Immediate return to level 0;
             19272                                                    >0 -> Status is ok.  */
             19273    1           2 FIELD_ERROR_STOP_INDEX UBIN;
             19274                           /* Passed index for QCG$GET_FIELD processing.  */
             19281            %ENDIF;
       69    19284
       70    19285          %INCLUDE QCI_IO_READ_M;
       71    19325          %QCI@IO_READ;
             19326            %BEGIN_MACRO ( STCLASS = STCLASS );
             19327            %SET LISTDIR = '0'B;
             19340    1     DCL 1 QCI@IO_READ ALIGNED,
             19341    1           2 FRAME_START_INDEX UBIN,
             19342                          /* Starting index into QI$FORM_FILE.FRAME_LIST_A@P.  */
             19343    1           2 FRAME_STOP_INDEX UBIN,
             19344                          /* Stopping index into QI$FORM_FILE.FRAME_LIST_A@P.  */
             19345    1           2 IS_FIELD_INDEXES_VALID BIT(1) ALIGNED,
             19346                          /* If IS_FIELD_INDEXES_VALID, use them;
             19347                             else use all the fields in the frame.  */
             19348    1           2 FIELD_START_INDEX UBIN,
             19349                          /* Starting index into QI$GZ_FIELD table.  */
             19350    1           2 FIELD_STOP_INDEX UBIN,
             19351                          /* Stopping index into QI$GZ_FIELD table.  */
             19352    1           2 IS_CURSOR_POSITION_VALID BIT(1) ALIGNED,
             19353                          /* If IS_CURSOR_POSITION_VALID, use it;
PL6.E3A0      #001=QCG$GET_FIELD File=QCG$GET_FIELD.:E05TSI                      WED 07/30/97 05:07 Page:4
             19354                             else allow cursor to default to upper-left-most field.  */
             19355    1           2 CURSOR_POSITION BIT(16) ALIGNED,
             19356                          /* POSition of the field on which to place the cursor.  */
             19357    1           2 STATUS UBIN,
             19358                          /* Returned status code:  0 -> Immediate return to level 0;
             19359                                                   >0 -> Status is ok.  */
             19360    1           2 FIELD_ERROR_STOP_INDEX UBIN;
             19361                          /* Passed index for QCG$GET_FIELD processing.  */
             19368            %ENDIF;
       72    19371
       73    19372          %INCLUDE QCM_MESS_M;
       74    19414          %QCM@MESS;
             19415            %BEGIN_MACRO;
             19416            %SET LISTDIR = '0'B;
             19429    1     DCL 1 QCM@MESS ALIGNED,
             19430    1           2 MESSAGE_LINE_GZ_HEADER$ PTR,
             19431                           /* Pointer to QI$GZ_HEADER for the
             19432                              MESSAGE LINE to use.  */
             19433    1           2 IS_MESSAGE_A_DAD BIT(1) ALIGNED,
             19434                           /* Set if MESSAGE$ points to a DAD,
             19435                              reset if MESSAGE$ points to text
             19436                              (in which case MESSAGE_LENGTH is valid).  */
             19437    1           2 MESSAGE_LENGTH UBIN,
             19438                           /* Length, in bytes, of the error message.  */
             19439    1           2 MESSAGE$ PTR,
             19440                           /* See IS_MESSAGE_A_DAD.  */
             19441    1           2 FRAME_INDEX UBIN,
             19442                           /* Index of the current frame.  */
             19443    1           2 FIELD_INDEX UBIN,
             19444                           /* Index of the field to re-get (if any).  */
             19445    1           2 STATUS UBIN,
             19446                           /* Returned status code:  0 -> Immediate return to level 0;
             19447                                                    >0 -> Status is ok.  */
             19448    1           2 FIELD_ERROR_STOP_INDEX UBIN,
             19449                           /* Passed index for QCG$GET_FIELD processing.  */
             19450    1           2 VISUAL_ATTRIBUTE UBIN;
             19451                           /* Matches %EQUs for QI#xxx_VISUAL_ATTR
PL6.E3A0      #001=QCG$GET_FIELD File=QCG$GET_FIELD.:E05TSI                      WED 07/30/97 05:07 Page:5
             19452                              (currently, blinking or non-blinking message line).  */
             19459            %ENDIF;
       75    19462
       76    19463          %INCLUDE QCU_USE_M;
       77    19517          %QCU@USE;
             19518            %BEGIN_MACRO;
             19519            %SET LISTDIR = '0'B;
             19532    1     DCL 1 QCU@USE AUTO ALIGNED,
             19533    1           2 CURR_FRAME$ PTR,
             19534                          /* Pointer to DAD of current frame or ADDR (NIL).  */
             19535    1           2 CURR_NODE$ PTR,
             19536                          /* Pointer to current node or ADDR (NIL).  */
             19537    1           2 USE_DEFAULT_IO UBIN,
             19538                          /* For USE procedures which default applies
             19539                             (see corresponding EQUs).  */
             19540    1           2 IS_TIME_TO_SAVE_AWAY_FIELDS BIT(1) ALIGNED,
             19541                          /* If IS_TIME_TO_SAVE_AWAY_FIELDS, then
             19542                             save the fields within the bounds of
             19543                             FRAME_START_INDEX, FRAME_STOP_INDEX,
             19544                             FIELD_START_INDEX, and FIELD_STOP_INDEX
             19545                             before calling the USE procedure.  */
             19546    1           2 FRAME_START_INDEX UBIN,
             19547                          /* Foist frame of the CURRENT.FORM$
             19548                             involved with the I-O error.  */
             19549    1           2 FRAME_STOP_INDEX UBIN,
             19550                          /* Larst frame of the CURRENT.FORM$
             19551                             involved with the I-O error.  */
             19552    1           2 IS_FIELD_INDEXES_VALID BIT(1) ALIGNED,
             19553                          /* If IS_FIELD_INDEXES_VALID, use them;
             19554                             else use all the fields in the frame.  */
             19555    1           2 FIELD_START_INDEX UBIN,
             19556                          /* Starting index into QI$GZ_FIELD
             19557                             which may have values "pushed".  */
             19558    1           2 FIELD_STOP_INDEX UBIN,
             19559                          /* Stopping index into QI$GZ_FIELD
             19560                             which may have values "pushed".  */
             19561    1           2 IS_CURSOR_POSITION_VALID BIT(1) ALIGNED,
PL6.E3A0      #001=QCG$GET_FIELD File=QCG$GET_FIELD.:E05TSI                      WED 07/30/97 05:07 Page:6
             19562                          /* If IS_CURSOR_POSITION_VALID, use it;
             19563                             else allow cursor to default to upper-left-most field.  */
             19564    1           2 CURSOR_POSITION BIT(16) ALIGNED,
             19565                          /* POSition of the field on which to place the cursor.  */
             19566    1           2 STATUS UBIN;
             19567                          /* Returned action code; see corresponding EQUs.  */
             19574            %ENDIF;
       78    19577
       79    19578          %SET LISTMAC = %NO;
       80    19579
       81    19580        %EJECT;
PL6.E3A0      #001=QCG$GET_FIELD File=QCG$GET_FIELD.:E05TSI                      WED 07/30/97 05:07 Page:7
       82    19581    1       WE_WERE_CALLED_FROM_A_VERIFY = %NO;
       83    19582
       84    19583    1       GOTO SO_GET_THE_FIELD_ALREADY;
       85    19584
       86    19585    1   QCG$GET_FIELD_ILLEGAL: ENTRY ( QCG@GET_FIELD );
       87    19586
       88    19587    1       WE_WERE_CALLED_FROM_A_VERIFY = %YES;
       89    19588
       90    19589    1   SO_GET_THE_FIELD_ALREADY:
       91    19590            %IF QI#DEBUG;
       92    19591
       93    19592    1       IF QCG@GET_FIELD.MESSAGE$ = ADDR (NIL)
       94    19593    1       THEN
       95    19594    1         CALL QCE$ERROR_INTERNAL ( %E$INTERNAL_INTERPRETER_ERROR );
       96    19595
       97    19596    1       IF QI_1.CURRENT.FORM_STATUS$ = ADDR (NIL)
       98    19597    1       THEN
       99    19598    1         CALL QCE$ERROR_INTERNAL ( %E$INTERNAL_INTERPRETER_ERROR );
      100    19599
      101    19600            %ENDIF;
      102    19601
      103    19602    1       QCM@MESS = QCG@GET_FIELD;
      104    19603
      105    19604        /*  Sure, but how do we REALLY know how long the message line is?  */
      106    19605    1       QCM@MESS.MESSAGE_LENGTH = 80;
      107    19606
      108    19607            %IF QI#ERROR_MESSAGE_BLINKING;
      109    19608    1       QCM@MESS.VISUAL_ATTRIBUTE = %QI#ERROR_VISUAL_ATTRIBUTE;
      110    19609            %ELSE;
      112    19611            %ENDIF;
      113    19612
      114    19613    1       CALL QCM$MESS ( QCM@MESS );
      115    19614
      116    19615    1       IF QCM@MESS.STATUS = %QI#USE_INVALID_RETURN
      117    19616    1       THEN
      118    19617    2         DO;
      119    19618    2           QI_1.CURRENT.FORM_STATUS$ -> QI$FORM_STATUS.CURRENT.
PL6.E3A0      #001=QCG$GET_FIELD File=QCG$GET_FIELD.:E05TSI                      WED 07/30/97 05:07 Page:8
             19618                    IS_MESSAGE_LINE_NON_BLANK = %NO;
      120    19619    2           QCG@GET_FIELD.STATUS = %QI#USE_INVALID_RETURN;
      121    19620
      122    19621    2           RETURN;
      123    19622    2         END;
      124    19623
      125    19624    1       QI_1.CURRENT.FORM_STATUS$ -> QI$FORM_STATUS.CURRENT.IS_MESSAGE_LINE_NON_BLANK =
             19624                %YES;
      126    19625
      127    19626            %PROC_ADDRESS ( THING@P =
             19626           "QI_1.CURRENT.FORM$ -> QI$FORM_FILE.FRAME_LIST_A@P ( QCG@GET_FIELD.FRAME_INDEX )"
             19626                ,
      128    19627            CHECK_FOR_INDIRECTION = NO,
      129    19628            RESULT$ = FRAME$ );
      130    19665            %DATA_ADDRESS ( THING@D = "FRAME$ -> QI$FRAME.STATUS_AREA@D",
      131    19666            CHECK_FOR_INDIRECTION = NO,
      132    19667            RESULT$ = FRAME_STATUS$ );
      133    19704    1       GZ_FIELD$ = PINCRW ( FRAME_STATUS$ -> QI$FRAME_STATUS.GZ.START$,
      134    19705    1         QCG@GET_FIELD.FIELD_INDEX * SIZEW (QI$GZ_FIELD) );
      135    19706
      136    19707        /* SAVE PRESENT(ERRONEOUS) FIELDS' VISUAL ATTRIBUTE                           */
      137    19708    1       OLD_VISUAL_ATTRIBUTE = GZ_FIELD$ -> QI$GZ_FIELD.STATUS.VISUAL_ATTRIBUTE;
      138    19709        /*  Change attribute to ERROR, unless it's a HIDDEN field.  */
      139    19710    1       IF OLD_VISUAL_ATTRIBUTE ~= %QI#HIDDEN_VISUAL_ATTRIBUTE
      140    19711    1       THEN
      141    19712    2         DO;
      142    19713    2           FPT@MDFFLD = QI_FPT_MDFFLD;
      143    19714    2           VBASE ( FPT@MDFFLD.V_ ) = ADDR ( FPT@MDFFLD.V );
      144    19715    2           FPT@MDFFLD.V.DCB# = FRAME_STATUS$ -> QI$FRAME_STATUS.GZ.HEADER$ ->
             19715                    QI$GZ_HEADER.DCB#;
      145    19716    2           FPT@MDFFLD.KEY_ = VECTOR ( GZ_FIELD$ -> QI$GZ_FIELD.DESCRIPTION.POSITION );
      146    19717    2           FPT@MDFFLD.FLDATR_ = VECTOR ( VLP@FLDATR );
      147    19718    2           VLP@FLDATR = QI_VLP_FLDATR;
      148    19719    2           VLP@FLDATR.ABSGRPRND = %QI#ERROR_VISUAL_ATTRIBUTE;
      149    19720    2           GZ_FIELD$ -> QI$GZ_FIELD.STATUS.VISUAL_ATTRIBUTE = %
             19720                    QI#ERROR_VISUAL_ATTRIBUTE;
      150    19721
PL6.E3A0      #001=QCG$GET_FIELD File=QCG$GET_FIELD.:E05TSI                      WED 07/30/97 05:07 Page:9
      151    19722    2           CALL QGB$MDFFLD ( FPT@MDFFLD, QGB_PARAM )
      152    19723    2           WHENALTRETURN
      153    19724    3             DO;
      154    19725    3               CALL QCE$ERROR_M$INTERNAL ( %E$UNEXPECTED_ALTRET );
      155    19726    3             END;
      156    19727    2         END;
      157    19728
      158    19729    1       GZ_FIELD$ -> QI$GZ_FIELD.OPERATION.IS_OPERATE = %YES;
      159    19730
      160    19731    1       QCI@IO_READ.FRAME_START_INDEX = QCG@GET_FIELD.FRAME_INDEX;
      161    19732    1       QCI@IO_READ.FRAME_STOP_INDEX = QCG@GET_FIELD.FRAME_INDEX;
      162    19733    1       QCI@IO_READ.IS_FIELD_INDEXES_VALID = %YES;
      163    19734    1       QCI@IO_READ.FIELD_START_INDEX = QCG@GET_FIELD.FIELD_INDEX;
      164    19735    1       QCI@IO_READ.FIELD_STOP_INDEX = QCG@GET_FIELD.FIELD_INDEX;
      165    19736    1       QCI@IO_READ.IS_CURSOR_POSITION_VALID = %NO;
      166    19737
      167    19738        /* NOW DO THE READ REQUEST                                                    */
      168    19739        /* REQUEST FROM QCR$READ FOR A FIELD*                                         */
      169    19740    1       IF WE_WERE_CALLED_FROM_A_VERIFY
      170    19741    1       THEN
      171    19742            /*  Notice that if the QCI_IO_READ_M macro ever becomes
      172    19743                different than the QCR_READ_M macro, we're in deep.  */
      173    19744    1         CALL QCR$READ ( QCI@IO_READ );
      174    19745    1       ELSE
      175    19746    1         CALL QCI$IO_READ ( QCI@IO_READ );
      176    19747
      177    19748    1       IF QCI@IO_READ.STATUS = %QI#USE_INVALID_RETURN
      178    19749    1       THEN
      179    19750    2         DO;
      180    19751    2           GZ_FIELD$ -> QI$GZ_FIELD.OPERATION.IS_OPERATE = %NO;
      181    19752    2           QCG@GET_FIELD.STATUS = %QI#USE_INVALID_RETURN;
      182    19753
      183    19754    2           RETURN;
      184    19755    2         END;
      185    19756
      186    19757            /*  Change the attributes of the now-corrected field
      187    19758                back to the ol' ones (if it wasn't HIDDEN).  */
PL6.E3A0      #001=QCG$GET_FIELD File=QCG$GET_FIELD.:E05TSI                      WED 07/30/97 05:07 Page:10
      188    19759    1       IF OLD_VISUAL_ATTRIBUTE ~= %QI#HIDDEN_VISUAL_ATTRIBUTE
      189    19760    1       THEN
      190    19761    2         DO;
      191    19762    2           VLP@FLDATR.ABSGRPRND = OLD_VISUAL_ATTRIBUTE;
      192    19763    2           GZ_FIELD$ -> QI$GZ_FIELD.STATUS.VISUAL_ATTRIBUTE = OLD_VISUAL_ATTRIBUTE;
      193    19764
      194    19765    2           CALL QGB$MDFFLD ( FPT@MDFFLD, QGB_PARAM )
      195    19766    2           WHENALTRETURN
      196    19767    3             DO;
      197    19768    3               CALL QCE$ERROR_M$INTERNAL ( %E$UNEXPECTED_ALTRET );
      198    19769    3             END;
      199    19770    2         END;
      200    19771
      201    19772    1       QI_1.SCREEN_UPDATE_FLAGS.WAS_APPLIED = %YES;
      202    19773
      203    19774    1       CALL QCM$MESS_ERASE ( QCM@MESS );
      204    19775
      205    19776    1       IF QCM@MESS.STATUS = %QI#USE_INVALID_RETURN
      206    19777    1       THEN
      207    19778    2         DO;
      208    19779    2           QCG@GET_FIELD.STATUS = %QI#USE_INVALID_RETURN;
      209    19780
      210    19781    2           RETURN;
      211    19782    2         END;
      212    19783
      213    19784    1       QI_1.CURRENT.FORM_STATUS$ -> QI$FORM_STATUS.CURRENT.IS_MESSAGE_LINE_NON_BLANK =
             19784                %NO;
      214    19785
      215    19786    1       QCG@GET_FIELD.STATUS = %QI#USE_INVALID_OK;
      216    19787
      217    19788    1       RETURN;
      218    19789
      219    19790    1   END QCG$GET_FIELD;

PL6.E3A0      #001=QCG$GET_FIELD File=QCG$GET_FIELD.:E05TSI                      WED 07/30/97 05:07 Page:11
--  Include file information  --

   QCU_USE_M.:E05TOU  is referenced.
   QCM_MESS_M.:E05TOU  is referenced.
   QCI_IO_READ_M.:E05TOU  is referenced.
   QCG_GET_FIELD_M.:E05TOU  is referenced.
   QI_MACROS_M.:E05TOU  is referenced.
   QI_PERR_C.:E05TOU  is referenced.
   QI_EQUATES_E.:E05TOU  is referenced.
   QG_MACRO_M.:E05TOU  is referenced.
   LCP_6.:E05TOU  cannot be made into a system file and is referenced.
   G_LCP6_E.:E05TOU  was found in the system file and is referenced.
   GT_LCP6_M.:E05TOU  was found in the system file and is referenced.
   KI_CP6.:E05TOU  was found in the system file and is referenced.
   GF_LCP6_M.:E05TOU  was found in the system file and is referenced.
   GM_LCP6_M.:E05TOU  was found in the system file and is referenced.
   GU_LCP6_M.:E05TOU  was found in the system file and is referenced.
   GJ_LCP6_M.:E05TOU  was found in the system file and is referenced.
   GH_LCP6_M.:E05TOU  was found in the system file and is referenced.
      No diagnostics issued in procedure QCG$GET_FIELD.

   Procedure QCG$GET_FIELD requires 396 words for executable code.
   Procedure QCG$GET_FIELD requires 70 words of local(AUTO) storage.

    No errors detected in file QCG$GET_FIELD.:E05TSI    .

PL6.E3A0      #001=QCG$GET_FIELD File=QCG$GET_FIELD.:E05TSI                      WED 07/30/97 05:07 Page:12

 Object Unit name= QCG$GET_FIELD                              File name= QCG$GET_FIELD.:E05TOU
 UTS= JUL 30 '97 05:07:29.00 WED                              Compiler= PL-6/E31         Sev=      00
 SharedLib= :SHARED_LCP6_SYSTEM                               Alt SharedLib=


    ****  Control sections  ****

 Sect   Type Bound  Init  Size HexSiz  Section name
    0   Proc  even  none   396    18C  QCG$GET_FIELD
    1  RoData even  none     8      8  QCG$GET_FIELD

    ****  Entry defs  ****

                              Check   Calling
                             calling  sequence
  Sect HexLoc Primary Altret sequence   type   Parms  Name
     0      0   yes            yes      Std        1  QCG$GET_FIELD
     0      9                  yes      Std        1  QCG$GET_FIELD_ILLEGAL

  ****  Entry refs  ****

         Check        Calling
        calling       sequence
Altret sequence SRef   type   Args  Name
         yes           Std       4 QCE$ERROR_INTERNAL
         yes           Std       1 QCM$MESS
         yes           Std       4 QCE$ERROR_M$INTERNAL
         yes           Std       1 QCR$READ
         yes           Std       1 QCI$IO_READ
         yes           Std       1 QCM$MESS_ERASE
 yes     yes           Std       2 QGB$MDFFLD
                       nStd      0 X6A_AUTO_1
                       nStd      0 X6A_ARET
                       nStd      0 X6D_MID
PL6.E3A0      #001=QCG$GET_FIELD File=QCG$GET_FIELD.:E05TSI                      WED 07/30/97 05:07 Page:13

  ****  Data refs  ****

  Flags:  r = read only, s = secondary
Flgs Name                             Flgs Name                             Flgs Name
     QI_1                                  QGB_PARAM                             QI_4_CHAR_ALPHANUMERIC
     QI_31_DIGIT_SLS_DISPLAY               QI_16_BIT_BINARY                      QI_32_BIT_BINARY
     QI_31_DIGIT_ST_PACKED                 QI_PICTURE_STRING                     QI_VLP_FLDATR
     QI_FPT_MDFFLD                    r    G$ROS$
PL6.E3A0      #001=QCG$GET_FIELD File=QCG$GET_FIELD.:E05TSI                      WED 07/30/97 05:07 Page:14


        1        1        /*M* QCG$GET_FIELD:  Re-prompt for illegal fields.  */
        2        2        /*T***********************************************************/
        3        3        /*T*                                                         */
        4        4        /*T* Copyright (c) Bull HN Information Systems Inc., 1997    */
        5        5        /*T*                                                         */
        6        6        /*T***********************************************************/
        7        7        /*X* DMC,PLM=4,IND=0,DCI=4,CSI=2,IAD=2,DTI=2,AND,ECI=0,DIN=2,STI=2 */
        8        8
        9        9        /*P*  NAME:         QCG$GET_FIELD
       10       10              PURPOSE:      Re-prompt for illegal terminal inputs (inpi?).
       11       11              DESCRIPTION:  A field has been M$READ, determined to have
       12       12                            illegal input, and is to be re-read.
       13       13        */
       14       14
       15       15        QCG$GET_FIELD: PROC ( QCG@GET_FIELD );

     15   0 000000  D380 0000 0000  xent QCG$GET_FIELD   LNJ,B5   X6A_AUTO_1
          0 000003       0046 0001                       DC       70,1

       16       16
       17       17        /*D*  NAME:         QCG$GET_FIELD
       18       18              CALL:         CALL QCG$GET_FIELD ( QCG@GET_FIELD );
       19       19              PARAMETERS:   QCG@GET_FIELD is a structure which contains information
       20       20                            concerning the field to be re-read; it's generated
       21       21                            by invoking the QCG@GET_FIELD %MACRO within the
       22       22                            QCG_GET_FIELD_M %INCLUDE file (see commentary within
       23       23                            that file).
       24       24              INTERFACE:    Called by QBV$VERIFY on LEGAL VALUE errors,
       25       25                            in which case QCM$MESS is called to post an error message
       26       26                            and QCR$READ is called to re-read the field;
       27       27                            called by QCR$READ on post-read verification errors,
       28       28                            in which case QCM$MESS is called to post an error message
       29       29                            and QCI$IO_READ is called to re-read the field.
       30       30              ENVIRONMENT:  Nothing unusual.
       31       31              INPUT:        QI_1, etc.
       32       32              OUTPUT:       The QI$GZ_FIELD.STATUS.DATA$ buffer is filled with
PL6.E3A0      #001=QCG$GET_FIELD File=QCG$GET_FIELD.:E05TSI                      WED 07/30/97 05:07 Page:15
       33       33                            the new stuff read.  Affects the screen, too, y'know?
       34       34              SCRATCH:      Various otter data.
       35       35              DESCRIPTION:  Pretty much summed up in INTERFACE above.
       36       36        */
       37       37
       38       38          %INCLUDE LCP_6;
       39      229          %FPT_MDFFLD ( FPTN = FPT@MDFFLD,
       40      230                        STCLASS = AUTO );
       41      263          %VLP_FLDATR ( FPTN = VLP@FLDATR,
       42      264                        STCLASS = AUTO );
       43      290
       44      291          %INCLUDE QG_MACRO_M;
       45      428          %QGB_ENTRIES;
       46      441          %INCLUDE QI_EQUATES_E;
       47      800          %INCLUDE QI_PERR_C;
       48      968          %INCLUDE QI_MACROS_M;
       49     6026          %QI$ALL;
       50    17139          %QI_FPTS;
       51    19184
       52    19185    1     DCL FRAME$ PTR;
       53    19186    1     DCL FRAME_STATUS$ PTR;
       54    19187    1     DCL GZ_FIELD$ PTR;
       55    19188    1     DCL OLD_VISUAL_ATTRIBUTE UBIN;
       56    19189    1     DCL WE_WERE_CALLED_FROM_A_VERIFY BIT(1) ALIGNED;
       57    19190
       58    19191    1     DCL QCE$ERROR_INTERNAL ENTRY (4);
       59    19192    1     DCL QCE$ERROR_M$INTERNAL ENTRY (4);
       60    19193    1     DCL QCI$IO_READ ENTRY (1);
       61    19194    1     DCL QCM$MESS ENTRY (1);
       62    19195    1     DCL QCM$MESS_ERASE ENTRY (1);
       63    19196    1     DCL QCR$READ ENTRY (1);
       64    19197
       65    19198          %SET LISTMAC = '1'B;
       66    19199
       67    19200          %INCLUDE QCG_GET_FIELD_M;
       68    19239          %QCG@GET_FIELD;
             19240            %BEGIN_MACRO;
PL6.E3A0      #001=QCG$GET_FIELD File=QCG$GET_FIELD.:E05TSI                      WED 07/30/97 05:07 Page:16
             19241            %SET LISTDIR = '0'B;
             19254    1     DCL 1 QCG@GET_FIELD ALIGNED,
             19255    1           2 MESSAGE_LINE_GZ_HEADER$ PTR,
             19256                           /* Pointer to QI$GZ_HEADER for the
             19257                              MESSAGE LINE to use.  */
             19258    1           2 IS_MESSAGE_A_DAD BIT(1) ALIGNED,
             19259                           /* Set if MESSAGE$ points to a DAD,
             19260                              reset if MESSAGE$ points to text
             19261                              (in which case MESSAGE_LENGTH is valid).  */
             19262    1           2 MESSAGE_LENGTH UBIN,
             19263                           /* Length, in bytes, of the error message.  */
             19264    1           2 MESSAGE$ PTR,
             19265                           /* See IS_MESSAGE_A_DAD.  */
             19266    1           2 FRAME_INDEX UBIN,
             19267                           /* Index of the current frame.  */
             19268    1           2 FIELD_INDEX UBIN,
             19269                           /* Index of the field to re-get (if any).  */
             19270    1           2 STATUS UBIN,
             19271                           /* Returned status code:  0 -> Immediate return to level 0;
             19272                                                    >0 -> Status is ok.  */
             19273    1           2 FIELD_ERROR_STOP_INDEX UBIN;
             19274                           /* Passed index for QCG$GET_FIELD processing.  */
             19281            %ENDIF;
       69    19284
       70    19285          %INCLUDE QCI_IO_READ_M;
       71    19325          %QCI@IO_READ;
             19326            %BEGIN_MACRO ( STCLASS = STCLASS );
             19327            %SET LISTDIR = '0'B;
             19340    1     DCL 1 QCI@IO_READ ALIGNED,
             19341    1           2 FRAME_START_INDEX UBIN,
             19342                          /* Starting index into QI$FORM_FILE.FRAME_LIST_A@P.  */
             19343    1           2 FRAME_STOP_INDEX UBIN,
             19344                          /* Stopping index into QI$FORM_FILE.FRAME_LIST_A@P.  */
             19345    1           2 IS_FIELD_INDEXES_VALID BIT(1) ALIGNED,
             19346                          /* If IS_FIELD_INDEXES_VALID, use them;
             19347                             else use all the fields in the frame.  */
             19348    1           2 FIELD_START_INDEX UBIN,
PL6.E3A0      #001=QCG$GET_FIELD File=QCG$GET_FIELD.:E05TSI                      WED 07/30/97 05:07 Page:17
             19349                          /* Starting index into QI$GZ_FIELD table.  */
             19350    1           2 FIELD_STOP_INDEX UBIN,
             19351                          /* Stopping index into QI$GZ_FIELD table.  */
             19352    1           2 IS_CURSOR_POSITION_VALID BIT(1) ALIGNED,
             19353                          /* If IS_CURSOR_POSITION_VALID, use it;
             19354                             else allow cursor to default to upper-left-most field.  */
             19355    1           2 CURSOR_POSITION BIT(16) ALIGNED,
             19356                          /* POSition of the field on which to place the cursor.  */
             19357    1           2 STATUS UBIN,
             19358                          /* Returned status code:  0 -> Immediate return to level 0;
             19359                                                   >0 -> Status is ok.  */
             19360    1           2 FIELD_ERROR_STOP_INDEX UBIN;
             19361                          /* Passed index for QCG$GET_FIELD processing.  */
             19368            %ENDIF;
       72    19371
       73    19372          %INCLUDE QCM_MESS_M;
       74    19414          %QCM@MESS;
             19415            %BEGIN_MACRO;
             19416            %SET LISTDIR = '0'B;
             19429    1     DCL 1 QCM@MESS ALIGNED,
             19430    1           2 MESSAGE_LINE_GZ_HEADER$ PTR,
             19431                           /* Pointer to QI$GZ_HEADER for the
             19432                              MESSAGE LINE to use.  */
             19433    1           2 IS_MESSAGE_A_DAD BIT(1) ALIGNED,
             19434                           /* Set if MESSAGE$ points to a DAD,
             19435                              reset if MESSAGE$ points to text
             19436                              (in which case MESSAGE_LENGTH is valid).  */
             19437    1           2 MESSAGE_LENGTH UBIN,
             19438                           /* Length, in bytes, of the error message.  */
             19439    1           2 MESSAGE$ PTR,
             19440                           /* See IS_MESSAGE_A_DAD.  */
             19441    1           2 FRAME_INDEX UBIN,
             19442                           /* Index of the current frame.  */
             19443    1           2 FIELD_INDEX UBIN,
             19444                           /* Index of the field to re-get (if any).  */
             19445    1           2 STATUS UBIN,
             19446                           /* Returned status code:  0 -> Immediate return to level 0;
PL6.E3A0      #001=QCG$GET_FIELD File=QCG$GET_FIELD.:E05TSI                      WED 07/30/97 05:07 Page:18
             19447                                                    >0 -> Status is ok.  */
             19448    1           2 FIELD_ERROR_STOP_INDEX UBIN,
             19449                           /* Passed index for QCG$GET_FIELD processing.  */
             19450    1           2 VISUAL_ATTRIBUTE UBIN;
             19451                           /* Matches %EQUs for QI#xxx_VISUAL_ATTR
             19452                              (currently, blinking or non-blinking message line).  */
             19459            %ENDIF;
       75    19462
       76    19463          %INCLUDE QCU_USE_M;
       77    19517          %QCU@USE;
             19518            %BEGIN_MACRO;
             19519            %SET LISTDIR = '0'B;
             19532    1     DCL 1 QCU@USE AUTO ALIGNED,
             19533    1           2 CURR_FRAME$ PTR,
             19534                          /* Pointer to DAD of current frame or ADDR (NIL).  */
             19535    1           2 CURR_NODE$ PTR,
             19536                          /* Pointer to current node or ADDR (NIL).  */
             19537    1           2 USE_DEFAULT_IO UBIN,
             19538                          /* For USE procedures which default applies
             19539                             (see corresponding EQUs).  */
             19540    1           2 IS_TIME_TO_SAVE_AWAY_FIELDS BIT(1) ALIGNED,
             19541                          /* If IS_TIME_TO_SAVE_AWAY_FIELDS, then
             19542                             save the fields within the bounds of
             19543                             FRAME_START_INDEX, FRAME_STOP_INDEX,
             19544                             FIELD_START_INDEX, and FIELD_STOP_INDEX
             19545                             before calling the USE procedure.  */
             19546    1           2 FRAME_START_INDEX UBIN,
             19547                          /* Foist frame of the CURRENT.FORM$
             19548                             involved with the I-O error.  */
             19549    1           2 FRAME_STOP_INDEX UBIN,
             19550                          /* Larst frame of the CURRENT.FORM$
             19551                             involved with the I-O error.  */
             19552    1           2 IS_FIELD_INDEXES_VALID BIT(1) ALIGNED,
             19553                          /* If IS_FIELD_INDEXES_VALID, use them;
             19554                             else use all the fields in the frame.  */
             19555    1           2 FIELD_START_INDEX UBIN,
             19556                          /* Starting index into QI$GZ_FIELD
PL6.E3A0      #001=QCG$GET_FIELD File=QCG$GET_FIELD.:E05TSI                      WED 07/30/97 05:07 Page:19
             19557                             which may have values "pushed".  */
             19558    1           2 FIELD_STOP_INDEX UBIN,
             19559                          /* Stopping index into QI$GZ_FIELD
             19560                             which may have values "pushed".  */
             19561    1           2 IS_CURSOR_POSITION_VALID BIT(1) ALIGNED,
             19562                          /* If IS_CURSOR_POSITION_VALID, use it;
             19563                             else allow cursor to default to upper-left-most field.  */
             19564    1           2 CURSOR_POSITION BIT(16) ALIGNED,
             19565                          /* POSition of the field on which to place the cursor.  */
             19566    1           2 STATUS UBIN;
             19567                          /* Returned action code; see corresponding EQUs.  */
             19574            %ENDIF;
       78    19577
       79    19578          %SET LISTMAC = %NO;
       80    19579
       81    19580        %EJECT;
PL6.E3A0      #001=QCG$GET_FIELD File=QCG$GET_FIELD.:E05TSI                      WED 07/30/97 05:07 Page:20
       82    19581    1       WE_WERE_CALLED_FROM_A_VERIFY = %NO;

  19581   0 000005  8747 001F                            CL       WE_WERE_CALLED_FROM_A_VERIFY,AUTO

       83    19582
       84    19583    1       GOTO SO_GET_THE_FIELD_ALREADY;

  19583   0 000007  0F81 0009                            B        s:19592,PREL

       85    19584
       86    19585    1   QCG$GET_FIELD_ILLEGAL: ENTRY ( QCG@GET_FIELD );

  19585   0 000009  D380 0000 0000  xent QCG$GET_FIELD_I*LNJ,B5   X6A_AUTO_1
          0 00000C       0046 0001                       DC       70,1

       87    19586
       88    19587    1       WE_WERE_CALLED_FROM_A_VERIFY = %YES;

  19587   0 00000E  8947 001F                            LBT,'8000'X       WE_WERE_CALLED_FROM_A_VERIFY,AUTO
  19587   0 000010       8000

       89    19588
       90    19589    1   SO_GET_THE_FIELD_ALREADY:
       91    19590            %IF QI#DEBUG;
       92    19591
       93    19592    1       IF QCG@GET_FIELD.MESSAGE$ = ADDR (NIL)

  19592   0 000011  ECC7 0004            SO_GET_THE_FIEL*LDB,B6   @QCG@GET_FIELD,AUTO
          0 000013  8DC6 0004                            CMN      4,B6
          0 000015  0981 000A                            BNE      s:19596,PREL

       94    19593    1       THEN
       95    19594    1         CALL QCE$ERROR_INTERNAL ( %E$INTERNAL_INTERPRETER_ERROR );

  19594   0 000017  BB80 0000 0001  01                   LAB,B3   +1
          0 00001A  CBF0 0100                            LAB,B4   256,IMO
          0 00001C  E380 0000 0000  xent                 LNJ,B6   QCE$ERROR_INTERNAL
PL6.E3A0      #001=QCG$GET_FIELD File=QCG$GET_FIELD.:E05TSI                      WED 07/30/97 05:07 Page:21
          0 00001F       0001                            DC       s:19596,PREL

       96    19595
       97    19596    1       IF QI_1.CURRENT.FORM_STATUS$ = ADDR (NIL)

  19596   0 000020  8D80 0000 0078  xsym                 CMN      QI_1+120
          0 000023  0981 000A                            BNE      s:19602,PREL

       98    19597    1       THEN
       99    19598    1         CALL QCE$ERROR_INTERNAL ( %E$INTERNAL_INTERPRETER_ERROR );

  19598   0 000025  BB80 0000 0001  01                   LAB,B3   +1
          0 000028  CBF0 0100                            LAB,B4   256,IMO
          0 00002A  E380 0000 0000  xent                 LNJ,B6   QCE$ERROR_INTERNAL
          0 00002D       0001                            DC       s:19602,PREL

      100    19599
      101    19600            %ENDIF;
      102    19601
      103    19602    1       QCM@MESS = QCG@GET_FIELD;

  19602   0 00002E  ECC7 0004                            LDB,B6   @QCG@GET_FIELD,AUTO
          0 000030  5C16                                 LDV,R5   22
          0 000031  0021                                 ALR      ;
          0 000032       5406 0000                                ALPHANUM(0,B6,,20),;
          0 000034       4007 0029                                ALPHANUM(QCM@MESS,AUTO,,R5,FILL)

      104    19603
      105    19604        /*  Sure, but how do we REALLY know how long the message line is?  */
      106    19605    1       QCM@MESS.MESSAGE_LENGTH = 80;

  19605   0 000036  6C50                                 LDV,R6   80
          0 000037  437F                                 CSYNC    s:19605,SPREL
          0 000038  EF47 002C                            STR,R6   QCM@MESS+3,AUTO

      107    19606
      108    19607            %IF QI#ERROR_MESSAGE_BLINKING;
PL6.E3A0      #001=QCG$GET_FIELD File=QCG$GET_FIELD.:E05TSI                      WED 07/30/97 05:07 Page:22
      109    19608    1       QCM@MESS.VISUAL_ATTRIBUTE = %QI#ERROR_VISUAL_ATTRIBUTE;

  19608   0 00003A  4C06                                 LDV,R4   6
          0 00003B  CF47 0033                            STR,R4   QCM@MESS+10,AUTO

      110    19609            %ELSE;
      112    19611            %ENDIF;
      113    19612
      114    19613    1       CALL QCM$MESS ( QCM@MESS );

  19613   0 00003D  DBC7 0029                            LAB,B5   QCM@MESS,AUTO
          0 00003F  DFC7 0042                            STB,B5   QCM@MESS+25,AUTO
          0 000041  BBC7 0042                            LAB,B3   QCM@MESS+25,AUTO
          0 000043  CBF0 0100                            LAB,B4   256,IMO
          0 000045  E380 0000 0000  xent                 LNJ,B6   QCM$MESS
          0 000048       0001                            DC       s:19615,PREL

      115    19614
      116    19615    1       IF QCM@MESS.STATUS = %QI#USE_INVALID_RETURN

  19615   0 000049  E847 0031                            LDR,R6   QCM@MESS+8,AUTO
          0 00004B  6981 000D                            BNEZ,R6  s:19624,PREL

      117    19616    1       THEN
      118    19617    2         DO;

      119    19618    2           QI_1.CURRENT.FORM_STATUS$ -> QI$FORM_STATUS.CURRENT.
             19618                    IS_MESSAGE_LINE_NON_BLANK = %NO;

  19618   0 00004D  EC80 0000 0078  xsym                 LDB,B6   QI_1+120
          0 000050  8806                                 LBF,'0100'X       ,B6
          0 000051       0100

      120    19619    2           QCG@GET_FIELD.STATUS = %QI#USE_INVALID_RETURN;

  19619   0 000052  ECC7 0004                            LDB,B6   @QCG@GET_FIELD,AUTO
          0 000054  8746 0008                            CL       8,B6
PL6.E3A0      #001=QCG$GET_FIELD File=QCG$GET_FIELD.:E05TSI                      WED 07/30/97 05:07 Page:23

      121    19620
      122    19621    2           RETURN;

  19621   0 000056  C380 0000 0000  xent                 LNJ,B4   X6A_ARET

      123    19622    2         END;
      124    19623
      125    19624    1       QI_1.CURRENT.FORM_STATUS$ -> QI$FORM_STATUS.CURRENT.IS_MESSAGE_LINE_NON_BLANK =
             19624                %YES;

  19624   0 000059  EC80 0000 0078  xsym                 LDB,B6   QI_1+120
          0 00005C  8906                                 LBT,'0100'X       ,B6
          0 00005D       0100

      126    19625
      127    19626            %PROC_ADDRESS ( THING@P =
             19626          "QI_1.CURRENT.FORM$ -> QI$FORM_FILE.FRAME_LIST_A@P ( QCG@GET_FIELD.FRAME_INDEX )"
             19626                ,
      128    19627            CHECK_FOR_INDIRECTION = NO,
      129    19628            RESULT$ = FRAME$ );

  19646   0 00005E  ECC7 0004                            LDB,B6   @QCG@GET_FIELD,AUTO
          0 000060  B846 0006                            LDR,R3   6,B6
          0 000062  DC80 0000 0076  xsym                 LDB,B5   QI_1+118
          0 000065  3E0B                                 ADV,R3   11
          0 000066  A835                                 LDR,R2   ,B5,R3
          0 000067  F852                                 LDR,R7   R2
          0 000068  6C00                                 LDV,R6   0
          0 000069  8400 0000 0002  xsym                 AID      QI_1+2
          0 00006C  8D47 0018                            SDI      FRAME$,AUTO

      130    19665            %DATA_ADDRESS ( THING@D = "FRAME$ -> QI$FRAME.STATUS_AREA@D",
      131    19666            CHECK_FOR_INDIRECTION = NO,
      132    19667            RESULT$ = FRAME_STATUS$ );

  19685   0 00006E  CCC7 0018                            LDB,B4   FRAME$,AUTO
PL6.E3A0      #001=QCG$GET_FIELD File=QCG$GET_FIELD.:E05TSI                      WED 07/30/97 05:07 Page:24
          0 000070  B844 0006                            LDR,R3   6,B4
          0 000072  F853                                 LDR,R7   R3
          0 000073  6C00                                 LDV,R6   0
          0 000074  8400 0000 0000  xsym                 AID      QI_1
          0 000077  8D47 001A                            SDI      FRAME_STATUS$,AUTO

      133    19704    1       GZ_FIELD$ = PINCRW ( FRAME_STATUS$ -> QI$FRAME_STATUS.GZ.START$,

  19704   0 000079  A846 0007                            LDR,R2   7,B6
          0 00007B  BCC7 001A                            LDB,B3   FRAME_STATUS$,AUTO
          0 00007D  ACC3 0006                            LDB,B2   6,B3
          0 00007F  AFC7 0042                            STB,B2   QCM@MESS+25,AUTO
          0 000081  F852                                 LDR,R7   R2
          0 000082  6C00                                 LDV,R6   0
          0 000083  9B80 0000 0003  01                   LAB,B1   +3
          0 000086  D380 0000 0000  xent                 LNJ,B5   X6D_MID
          0 000089  8447 0042                            AID      QCM@MESS+25,AUTO
          0 00008B  8D47 001C                            SDI      GZ_FIELD$,AUTO

      134    19705    1         QCG@GET_FIELD.FIELD_INDEX * SIZEW (QI$GZ_FIELD) );
      135    19706
      136    19707        /* SAVE PRESENT(ERRONEOUS) FIELDS' VISUAL ATTRIBUTE                           */
      137    19708    1       OLD_VISUAL_ATTRIBUTE = GZ_FIELD$ -> QI$GZ_FIELD.STATUS.VISUAL_ATTRIBUTE;

  19708   0 00008D  ECC7 001C                            LDB,B6   GZ_FIELD$,AUTO
          0 00008F  D2C6 0007                            LLH,R5   7,B6
          0 000091  DF47 001E                            STR,R5   OLD_VISUAL_ATTRIBUTE,AUTO

      138    19709        /*  Change attribute to ERROR, unless it's a HIDDEN field.  */
      139    19710    1       IF OLD_VISUAL_ATTRIBUTE ~= %QI#HIDDEN_VISUAL_ATTRIBUTE

  19710   0 000093  5D02                                 CMV,R5   2
          0 000094  0901 005E                            BE       s:19729,PREL

      140    19711    1       THEN
      141    19712    2         DO;

PL6.E3A0      #001=QCG$GET_FIELD File=QCG$GET_FIELD.:E05TSI                      WED 07/30/97 05:07 Page:25
      142    19713    2           FPT@MDFFLD = QI_FPT_MDFFLD;

  19713   0 000096  AB80 0000 0000  xsym                 LAB,B2   QI_FPT_MDFFLD
          0 000099  2C00                                 LDV,R2   0
          0 00009A  6C1E                                 LDV,R6   30
          0 00009B  BB87                                 LAB,B3   ,AUTO
          0 00009C  3C0C                                 LDV,R3   12
          0 00009D  0008                                 MMM

      143    19714    2           VBASE ( FPT@MDFFLD.V_ ) = ADDR ( FPT@MDFFLD.V );

  19714   0 00009E  EBC7 0012                            LAB,B6   FPT@MDFFLD+12,AUTO
          0 0000A0  EFC7 0007                            STB,B6   FPT@MDFFLD+1,AUTO

      144    19715    2           FPT@MDFFLD.V.DCB# = FRAME_STATUS$ -> QI$FRAME_STATUS.GZ.HEADER$ ->
             19715                    QI$GZ_HEADER.DCB#;

  19715   0 0000A2  DCC7 001A                            LDB,B5   FRAME_STATUS$,AUTO
          0 0000A4  CCC5 0004                            LDB,B4   4,B5
          0 0000A6  E844 0003                            LDR,R6   3,B4
          0 0000A8  E7C7 0012                            STH,R6   FPT@MDFFLD+12,AUTO

      145    19716    2           FPT@MDFFLD.KEY_ = VECTOR ( GZ_FIELD$ -> QI$GZ_FIELD.DESCRIPTION.POSITION );

  19716   0 0000AA  CCC7 001C                            LDB,B4   GZ_FIELD$,AUTO
          0 0000AC  ABC4 0003                            LAB,B2   3,B4
          0 0000AE  AFC7 0043                            STB,B2   QCM@MESS+26,AUTO
          0 0000B0  6C01                                 LDV,R6   1
          0 0000B1  EF47 0042                            STR,R6   QCM@MESS+25,AUTO
          0 0000B3  ABC7 0042                            LAB,B2   QCM@MESS+25,AUTO
          0 0000B5  2C00                                 LDV,R2   0
          0 0000B6  6C06                                 LDV,R6   6
          0 0000B7  BB87                                 LAB,B3   ,AUTO
          0 0000B8  3C18                                 LDV,R3   24
          0 0000B9  0008                                 MMM

      146    19717    2           FPT@MDFFLD.FLDATR_ = VECTOR ( VLP@FLDATR );
PL6.E3A0      #001=QCG$GET_FIELD File=QCG$GET_FIELD.:E05TSI                      WED 07/30/97 05:07 Page:26

  19717   0 0000BA  EBC7 0015                            LAB,B6   VLP@FLDATR,AUTO
          0 0000BC  EFC7 0043                            STB,B6   QCM@MESS+26,AUTO
          0 0000BE  6C05                                 LDV,R6   5
          0 0000BF  EF47 0042                            STR,R6   QCM@MESS+25,AUTO
          0 0000C1  ABC7 0042                            LAB,B2   QCM@MESS+25,AUTO
          0 0000C3  2C00                                 LDV,R2   0
          0 0000C4  6C06                                 LDV,R6   6
          0 0000C5  BB87                                 LAB,B3   ,AUTO
          0 0000C6  3C1E                                 LDV,R3   30
          0 0000C7  0008                                 MMM

      147    19718    2           VLP@FLDATR = QI_VLP_FLDATR;

  19718   0 0000C8  AB80 0000 0000  xsym                 LAB,B2   QI_VLP_FLDATR
          0 0000CB  2C00                                 LDV,R2   0
          0 0000CC  6C06                                 LDV,R6   6
          0 0000CD  BB87                                 LAB,B3   ,AUTO
          0 0000CE  3C2A                                 LDV,R3   42
          0 0000CF  0008                                 MMM

      148    19719    2           VLP@FLDATR.ABSGRPRND = %QI#ERROR_VISUAL_ATTRIBUTE;

  19719   0 0000D0  6C06                                 LDV,R6   6
          0 0000D1  E7C7 0017                            STH,R6   VLP@FLDATR+2,AUTO

      149    19720    2           GZ_FIELD$ -> QI$GZ_FIELD.STATUS.VISUAL_ATTRIBUTE = %
             19720                    QI#ERROR_VISUAL_ATTRIBUTE;

  19720   0 0000D3  ECC7 001C                            LDB,B6   GZ_FIELD$,AUTO
          0 0000D5  E7C6 0007                            STH,R6   7,B6

      150    19721
      151    19722    2           CALL QGB$MDFFLD ( FPT@MDFFLD, QGB_PARAM )

  19722   0 0000D7  DB80 0000 0000  xsym                 LAB,B5   QGB_PARAM
          0 0000DA  DFC7 0044                            STB,B5   QCM@MESS+27,AUTO
PL6.E3A0      #001=QCG$GET_FIELD File=QCG$GET_FIELD.:E05TSI                      WED 07/30/97 05:07 Page:27
          0 0000DC  CBC7 0006                            LAB,B4   FPT@MDFFLD,AUTO
          0 0000DE  CFC7 0042                            STB,B4   QCM@MESS+25,AUTO
          0 0000E0  BBC7 0042                            LAB,B3   QCM@MESS+25,AUTO
          0 0000E2  CBF0 0200                            LAB,B4   512,IMO
          0 0000E4  E380 0000 0000  xent                 LNJ,B6   QGB$MDFFLD
          0 0000E7       0003                            DC       s:19725,PREL
          0 0000E8  0F81 000A                            B        s:19729,PREL

      152    19723    2           WHENALTRETURN
      153    19724    3             DO;

      154    19725    3               CALL QCE$ERROR_M$INTERNAL ( %E$UNEXPECTED_ALTRET );

  19725   0 0000EA  BB80 0000 0006  01                   LAB,B3   +6
          0 0000ED  CBF0 0100                            LAB,B4   256,IMO
          0 0000EF  E380 0000 0000  xent                 LNJ,B6   QCE$ERROR_M$INTERNAL
          0 0000F2       0001                            DC       s:19729,PREL

      155    19726    3             END;

      156    19727    2         END;

      157    19728
      158    19729    1       GZ_FIELD$ -> QI$GZ_FIELD.OPERATION.IS_OPERATE = %YES;

  19729   0 0000F3  ECC7 001C                            LDB,B6   GZ_FIELD$,AUTO
          0 0000F5  8946 000B                            LBT,'8000'X       11,B6
          0 0000F7       8000

      159    19730
      160    19731    1       QCI@IO_READ.FRAME_START_INDEX = QCG@GET_FIELD.FRAME_INDEX;

  19731   0 0000F8  DCC7 0004                            LDB,B5   @QCG@GET_FIELD,AUTO
          0 0000FA  E845 0006                            LDR,R6   6,B5
          0 0000FC  EF47 0020                            STR,R6   QCI@IO_READ,AUTO

      161    19732    1       QCI@IO_READ.FRAME_STOP_INDEX = QCG@GET_FIELD.FRAME_INDEX;
PL6.E3A0      #001=QCG$GET_FIELD File=QCG$GET_FIELD.:E05TSI                      WED 07/30/97 05:07 Page:28

  19732   0 0000FE  D845 0006                            LDR,R5   6,B5
          0 000100  DF47 0021                            STR,R5   QCI@IO_READ+1,AUTO

      162    19733    1       QCI@IO_READ.IS_FIELD_INDEXES_VALID = %YES;

  19733   0 000102  8947 0022                            LBT,'8000'X       QCI@IO_READ+2,AUTO
  19733   0 000104       8000

      163    19734    1       QCI@IO_READ.FIELD_START_INDEX = QCG@GET_FIELD.FIELD_INDEX;

  19734   0 000105  C845 0007                            LDR,R4   7,B5
          0 000107  CF47 0023                            STR,R4   QCI@IO_READ+3,AUTO

      164    19735    1       QCI@IO_READ.FIELD_STOP_INDEX = QCG@GET_FIELD.FIELD_INDEX;

  19735   0 000109  B845 0007                            LDR,R3   7,B5
          0 00010B  BF47 0024                            STR,R3   QCI@IO_READ+4,AUTO

      165    19736    1       QCI@IO_READ.IS_CURSOR_POSITION_VALID = %NO;

  19736   0 00010D  8747 0025                            CL       QCI@IO_READ+5,AUTO

      166    19737
      167    19738        /* NOW DO THE READ REQUEST                                                    */
      168    19739        /* REQUEST FROM QCR$READ FOR A FIELD*                                         */
      169    19740    1       IF WE_WERE_CALLED_FROM_A_VERIFY

  19740   0 00010F  89C7 001F                            CMZ      WE_WERE_CALLED_FROM_A_VERIFY,AUTO
          0 000111  0881 000F                            BAGE     s:19746,PREL

      170    19741    1       THEN
      171    19742            /*  Notice that if the QCI_IO_READ_M macro ever becomes
      172    19743                different than the QCR_READ_M macro, we're in deep.  */
      173    19744    1         CALL QCR$READ ( QCI@IO_READ );

  19744   0 000113  CBC7 0020                            LAB,B4   QCI@IO_READ,AUTO
PL6.E3A0      #001=QCG$GET_FIELD File=QCG$GET_FIELD.:E05TSI                      WED 07/30/97 05:07 Page:29
          0 000115  CFC7 0042                            STB,B4   QCM@MESS+25,AUTO
          0 000117  BBC7 0042                            LAB,B3   QCM@MESS+25,AUTO
          0 000119  CBF0 0100                            LAB,B4   256,IMO
          0 00011B  E380 0000 0000  xent                 LNJ,B6   QCR$READ
          0 00011E       0001                            DC       s:19744+12,PREL
          0 00011F  0F81 000D                            B        s:19748,PREL

      174    19745    1       ELSE
      175    19746    1         CALL QCI$IO_READ ( QCI@IO_READ );

  19746   0 000121  CBC7 0020                            LAB,B4   QCI@IO_READ,AUTO
          0 000123  CFC7 0042                            STB,B4   QCM@MESS+25,AUTO
          0 000125  BBC7 0042                            LAB,B3   QCM@MESS+25,AUTO
          0 000127  CBF0 0100                            LAB,B4   256,IMO
          0 000129  E380 0000 0000  xent                 LNJ,B6   QCI$IO_READ
          0 00012C       0001                            DC       s:19748,PREL

      176    19747
      177    19748    1       IF QCI@IO_READ.STATUS = %QI#USE_INVALID_RETURN

  19748   0 00012D  E847 0027                            LDR,R6   QCI@IO_READ+7,AUTO
          0 00012F  6981 000D                            BNEZ,R6  s:19759,PREL

      178    19749    1       THEN
      179    19750    2         DO;

      180    19751    2           GZ_FIELD$ -> QI$GZ_FIELD.OPERATION.IS_OPERATE = %NO;

  19751   0 000131  ECC7 001C                            LDB,B6   GZ_FIELD$,AUTO
          0 000133  8846 000B                            LBF,'8000'X       11,B6
          0 000135       8000

      181    19752    2           QCG@GET_FIELD.STATUS = %QI#USE_INVALID_RETURN;

  19752   0 000136  DCC7 0004                            LDB,B5   @QCG@GET_FIELD,AUTO
          0 000138  8745 0008                            CL       8,B5

PL6.E3A0      #001=QCG$GET_FIELD File=QCG$GET_FIELD.:E05TSI                      WED 07/30/97 05:07 Page:30
      182    19753
      183    19754    2           RETURN;

  19754   0 00013A  C380 0000 0000  xent                 LNJ,B4   X6A_ARET

      184    19755    2         END;
      185    19756
      186    19757            /*  Change the attributes of the now-corrected field
      187    19758                back to the ol' ones (if it wasn't HIDDEN).  */
      188    19759    1       IF OLD_VISUAL_ATTRIBUTE ~= %QI#HIDDEN_VISUAL_ATTRIBUTE

  19759   0 00013D  D847 001E                            LDR,R5   OLD_VISUAL_ATTRIBUTE,AUTO
          0 00013F  5D02                                 CMV,R5   2
          0 000140  0901 0023                            BE       s:19772,PREL

      189    19760    1       THEN
      190    19761    2         DO;

      191    19762    2           VLP@FLDATR.ABSGRPRND = OLD_VISUAL_ATTRIBUTE;

  19762   0 000142  D7C7 0017                            STH,R5   VLP@FLDATR+2,AUTO

      192    19763    2           GZ_FIELD$ -> QI$GZ_FIELD.STATUS.VISUAL_ATTRIBUTE = OLD_VISUAL_ATTRIBUTE;

  19763   0 000144  ECC7 001C                            LDB,B6   GZ_FIELD$,AUTO
          0 000146  D7C6 0007                            STH,R5   7,B6

      193    19764
      194    19765    2           CALL QGB$MDFFLD ( FPT@MDFFLD, QGB_PARAM )

  19765   0 000148  DB80 0000 0000  xsym                 LAB,B5   QGB_PARAM
          0 00014B  DFC7 0044                            STB,B5   QCM@MESS+27,AUTO
          0 00014D  CBC7 0006                            LAB,B4   FPT@MDFFLD,AUTO
          0 00014F  CFC7 0042                            STB,B4   QCM@MESS+25,AUTO
          0 000151  BBC7 0042                            LAB,B3   QCM@MESS+25,AUTO
          0 000153  CBF0 0200                            LAB,B4   512,IMO
          0 000155  E380 0000 0000  xent                 LNJ,B6   QGB$MDFFLD
PL6.E3A0      #001=QCG$GET_FIELD File=QCG$GET_FIELD.:E05TSI                      WED 07/30/97 05:07 Page:31
          0 000158       0003                            DC       s:19768,PREL
          0 000159  0F81 000A                            B        s:19772,PREL

      195    19766    2           WHENALTRETURN
      196    19767    3             DO;

      197    19768    3               CALL QCE$ERROR_M$INTERNAL ( %E$UNEXPECTED_ALTRET );

  19768   0 00015B  BB80 0000 0006  01                   LAB,B3   +6
          0 00015E  CBF0 0100                            LAB,B4   256,IMO
          0 000160  E380 0000 0000  xent                 LNJ,B6   QCE$ERROR_M$INTERNAL
          0 000163       0001                            DC       s:19772,PREL

      198    19769    3             END;

      199    19770    2         END;

      200    19771
      201    19772    1       QI_1.SCREEN_UPDATE_FLAGS.WAS_APPLIED = %YES;

  19772   0 000164  8900 0000 0016  xsym                 LBT,'8000'X       QI_1+22
  19772   0 000167       8000

      202    19773
      203    19774    1       CALL QCM$MESS_ERASE ( QCM@MESS );

  19774   0 000168  EBC7 0029                            LAB,B6   QCM@MESS,AUTO
          0 00016A  EFC7 0042                            STB,B6   QCM@MESS+25,AUTO
          0 00016C  BBC7 0042                            LAB,B3   QCM@MESS+25,AUTO
          0 00016E  CBF0 0100                            LAB,B4   256,IMO
          0 000170  E380 0000 0000  xent                 LNJ,B6   QCM$MESS_ERASE
          0 000173       0001                            DC       s:19776,PREL

      204    19775
      205    19776    1       IF QCM@MESS.STATUS = %QI#USE_INVALID_RETURN

  19776   0 000174  E847 0031                            LDR,R6   QCM@MESS+8,AUTO
PL6.E3A0      #001=QCG$GET_FIELD File=QCG$GET_FIELD.:E05TSI                      WED 07/30/97 05:07 Page:32
          0 000176  6981 0008                            BNEZ,R6  s:19784,PREL

      206    19777    1       THEN
      207    19778    2         DO;

      208    19779    2           QCG@GET_FIELD.STATUS = %QI#USE_INVALID_RETURN;

  19779   0 000178  ECC7 0004                            LDB,B6   @QCG@GET_FIELD,AUTO
          0 00017A  8746 0008                            CL       8,B6

      209    19780
      210    19781    2           RETURN;

  19781   0 00017C  C380 0000 0000  xent                 LNJ,B4   X6A_ARET

      211    19782    2         END;
      212    19783
      213    19784    1       QI_1.CURRENT.FORM_STATUS$ -> QI$FORM_STATUS.CURRENT.IS_MESSAGE_LINE_NON_BLANK =
             19784                %NO;

  19784   0 00017F  EC80 0000 0078  xsym                 LDB,B6   QI_1+120
          0 000182  8806                                 LBF,'0100'X       ,B6
          0 000183       0100

      214    19785
      215    19786    1       QCG@GET_FIELD.STATUS = %QI#USE_INVALID_OK;

  19786   0 000184  ECC7 0004                            LDB,B6   @QCG@GET_FIELD,AUTO
          0 000186  6C03                                 LDV,R6   3
          0 000187  EF46 0008                            STR,R6   8,B6

      216    19787
      217    19788    1       RETURN;

  19788   0 000189  C380 0000 0000  xent                 LNJ,B4   X6A_ARET
      218    19789
      219    19790    1   END QCG$GET_FIELD;
PL6.E3A0      #001=QCG$GET_FIELD File=QCG$GET_FIELD.:E05TSI                      WED 07/30/97 05:07 Page:33

PL6.E3A0      #001=QCG$GET_FIELD File=QCG$GET_FIELD.:E05TSI                      WED 07/30/97 05:07 Page:34
--  Include file information  --

   QCU_USE_M.:E05TOU  is referenced.
   QCM_MESS_M.:E05TOU  is referenced.
   QCI_IO_READ_M.:E05TOU  is referenced.
   QCG_GET_FIELD_M.:E05TOU  is referenced.
   QI_MACROS_M.:E05TOU  is referenced.
   QI_PERR_C.:E05TOU  is referenced.
   QI_EQUATES_E.:E05TOU  is referenced.
   QG_MACRO_M.:E05TOU  is referenced.
   LCP_6.:E05TOU  cannot be made into a system file and is referenced.
   G_LCP6_E.:E05TOU  was found in the system file and is referenced.
   GT_LCP6_M.:E05TOU  was found in the system file and is referenced.
   KI_CP6.:E05TOU  was found in the system file and is referenced.
   GF_LCP6_M.:E05TOU  was found in the system file and is referenced.
   GM_LCP6_M.:E05TOU  was found in the system file and is referenced.
   GU_LCP6_M.:E05TOU  was found in the system file and is referenced.
   GJ_LCP6_M.:E05TOU  was found in the system file and is referenced.
   GH_LCP6_M.:E05TOU  was found in the system file and is referenced.
      No diagnostics issued in procedure QCG$GET_FIELD.
PL6.E3A0      #001=QCG$GET_FIELD File=QCG$GET_FIELD.:E05TSI                      WED 07/30/97 05:07 Page:35

 **** Variables and constants ****

  ****  Auto variables  ****

  ****  Scalars and arrays  ****
HexLoc.c.b A Datatyp(siz) R M Lvl/name                 HexLoc.c.b A Datatyp(siz) R M Lvl/name

     4-0-0/w PTR         r     1 @QCG@GET_FIELD             6-0-0/w STRC(240)   r     1 FPT@MDFFLD
    18-0-0/w PTR         r     1 FRAME$                    1A-0-0/w PTR         r     1 FRAME_STATUS$
    1C-0-0/w PTR         r     1 GZ_FIELD$                 1E-0-0/w UBIN(16)    r     1 OLD_VISUAL_ATTRIBUTE
    *0-0-0/w STRC(160)   r     1 QCG@GET_FIELD             20-0-0/w STRC(144)   r     1 QCI@IO_READ
    29-0-0/w STRC(176)   r     1 QCM@MESS                  15-0-0/w STRC(48)    r     1 VLP@FLDATR
    1F-0-0/w BIT         r     1 WE_WERE_CALLED_FROM_A_VERIFY

  ****  SYMREF variables  ****

  ****  Scalars and arrays  ****
HexLoc.c.b A Datatyp(siz) R M Lvl/name                 HexLoc.c.b A Datatyp(siz) R M Lvl/name

     0-0-0/w STRC(432)   r     1 QGB_PARAM                  0-0-0/d STRC(2576)  r     1 QI_1
     0-0-0/w STRC(240)   r     1 QI_FPT_MDFFLD              0-0-0/w STRC(48)    r     1 QI_VLP_FLDATR

  ****  BASED and DCB variables  ****

  ****  Scalars and arrays  ****
HexLoc.c.b A Datatyp(siz) R M Lvl/name                 HexLoc.c.b A Datatyp(siz) R M Lvl/name

     0-0-0/w STRC(192)   r     1 QI$FORM_FILE               0-0-0/w STRC(144)   r     1 QI$FORM_STATUS
     0-0-0/w STRC(128)   r     1 QI$FRAME                   0-0-0/w STRC(208)   r     1 QI$FRAME_STATUS
     0-0-0/w STRC(184)   r     1 QI$GZ_FIELD                0-0-0/w STRC(176)   r     1 QI$GZ_HEADER
     0-0-0/c ASTR(8)     r     1 QI$VARIABLE_IDENTIFIER


   Procedure QCG$GET_FIELD requires 396 words for executable code.
   Procedure QCG$GET_FIELD requires 70 words of local(AUTO) storage.
PL6.E3A0      #001=QCG$GET_FIELD File=QCG$GET_FIELD.:E05TSI                      WED 07/30/97 05:07 Page:36

    No errors detected in file QCG$GET_FIELD.:E05TSI    .
PL6.E3A0      #001=QCG$GET_FIELD File=QCG$GET_FIELD.:E05TSI                      WED 07/30/97 05:07 Page:37
          *** CROSS REFERENCE LISTING ***
**     DENOTES     IDENTIFIER DEFINITION
<<                 IDENTIFIER'S VALUE SET
>>                 IDENTIFIER'S VALUE USED
<>                 IDENTIFIER SET AND/OR USED
--                 IDENTIFIER REFERENCED
PL6.E3A0      #001=QCG$GET_FIELD File=QCG$GET_FIELD.:E05TSI                      WED 07/30/97 05:07 Page:38
          MINI XREF LISTING

FPT@MDFFLD
       246**DCL     19713<<ASSIGN  19722<>CALL    19765<>CALL
FPT@MDFFLD.FLDATR_
       252**DCL     19717<<ASSIGN
FPT@MDFFLD.KEY_
       252**DCL     19716<<ASSIGN
FPT@MDFFLD.V
       254**DCL     19714--ASSIGN
FPT@MDFFLD.V.DCB#
       254**DCL     19715<<ASSIGN
FPT@MDFFLD.V_
       248**DCL     19714<<ASSIGN
FRAME$
     19185**DCL     19646<<ASSIGN  19685>>ASSIGN
FRAME_STATUS$
     19186**DCL     19685<<ASSIGN  19704>>ASSIGN  19715>>ASSIGN
GZ_FIELD$
     19187**DCL     19704<<ASSIGN  19708>>ASSIGN  19716>>ASSIGN  19720>>ASSIGN  19729>>ASSIGN  19751>>ASSIGN
     19763>>ASSIGN
OLD_VISUAL_ATTRIBUTE
     19188**DCL     19708<<ASSIGN  19710>>IF      19759>>IF      19762>>ASSIGN  19763>>ASSIGN
QCE$ERROR_INTERNAL
     19191**DCL-ENT 19594--CALL    19598--CALL
QCE$ERROR_M$INTERNAL
     19192**DCL-ENT 19725--CALL    19768--CALL
QCG@GET_FIELD
     19254**DCL        15--PROC    19585--ENTRY   19602>>ASSIGN
QCG@GET_FIELD.FIELD_INDEX
     19268**DCL     19704>>ASSIGN  19734>>ASSIGN  19735>>ASSIGN
QCG@GET_FIELD.FRAME_INDEX
     19266**DCL     19646>>ASSIGN  19731>>ASSIGN  19732>>ASSIGN
QCG@GET_FIELD.MESSAGE$
PL6.E3A0      #001=QCG$GET_FIELD File=QCG$GET_FIELD.:E05TSI                      WED 07/30/97 05:07 Page:39
     19264**DCL     19592>>IF
QCG@GET_FIELD.STATUS
     19270**DCL     19619<<ASSIGN  19752<<ASSIGN  19779<<ASSIGN  19786<<ASSIGN
QCI$IO_READ
     19193**DCL-ENT 19746--CALL
QCI@IO_READ
     19340**DCL     19744<>CALL    19746<>CALL
QCI@IO_READ.FIELD_START_INDEX
     19348**DCL     19734<<ASSIGN
QCI@IO_READ.FIELD_STOP_INDEX
     19350**DCL     19735<<ASSIGN
QCI@IO_READ.FRAME_START_INDEX
     19341**DCL     19731<<ASSIGN
QCI@IO_READ.FRAME_STOP_INDEX
     19343**DCL     19732<<ASSIGN
QCI@IO_READ.IS_CURSOR_POSITION_VALID
     19352**DCL     19736<<ASSIGN
QCI@IO_READ.IS_FIELD_INDEXES_VALID
     19345**DCL     19733<<ASSIGN
QCI@IO_READ.STATUS
     19357**DCL     19748>>IF
QCM$MESS
     19194**DCL-ENT 19613--CALL
QCM$MESS_ERASE
     19195**DCL-ENT 19774--CALL
QCM@MESS
     19429**DCL     19602<<ASSIGN  19613<>CALL    19774<>CALL
QCM@MESS.MESSAGE_LENGTH
     19437**DCL     19605<<ASSIGN
QCM@MESS.STATUS
     19445**DCL     19615>>IF      19776>>IF
QCM@MESS.VISUAL_ATTRIBUTE
     19450**DCL     19608<<ASSIGN
QCR$READ
     19196**DCL-ENT 19744--CALL
QGB$MDFFLD
PL6.E3A0      #001=QCG$GET_FIELD File=QCG$GET_FIELD.:E05TSI                      WED 07/30/97 05:07 Page:40
       432**DCL-ENT 19722--CALL    19765--CALL
QGB_PARAM
     11555**DCL     19722<>CALL    19765<>CALL
QGB_PARAM.DVE.DVBYTE.VFC
     11623**DCL     11624--REDEF
QGB_PARAM.DVE.EOMCHAR
     11635**DCL     11636--REDEF
QGB_PARAM.MSG$
     11617**DCL     11618--REDEF
QGB_PARAM.UHDR$
     11642**DCL     11643--REDEF
QI$ACTIVATION_STATUS
      9381**DCL      9387--REDEF
QI$CIP
      8222**DCL      8292--REDEF
QI$CIP.CA
      8227**DCL      8231--REDEF    8234--REDEF    8237--REDEF
QI$COBOL_DAD.PSEUDO_CIP
      8466**DCL      8491--REDEF
QI$COBOL_DAD.PSEUDO_CIP.ALPHANUMERIC
      8468**DCL      8473--REDEF
QI$COBOL_DAD.PSEUDO_CIP.NUMERIC.CB
      8474**DCL      8477--REDEF    8480--REDEF
QI$COBOL_DAD.VARIABLE_LENGTH_ITEMS
      8502**DCL      8518--REDEF    8526--REDEF    8534--REDEF
QI$COBOL_DAD.VARIABLE_LENGTH_ITEMS.LEVEL_MULTIPLIERS
      8503**DCL      8513--REDEF    8516--REDEF
QI$COBOL_DAD.WORD0
      8430**DCL      8431--REDEF    8445--REDEF
QI$COBOL_DAD_P_BITS.P
      8570**DCL      8576--REDEF
QI$CONDITION_CONTROL_BLOCK.LIST_A@P
      8056**DCL      8057--REDEF
QI$CONDITION_CONTROL_BLOCK.WORD0_FLAGS
      8052**DCL      8055--REDEF
QI$CONDITION_LEGAL_BLOCK.ARRAY@P
PL6.E3A0      #001=QCG$GET_FIELD File=QCG$GET_FIELD.:E05TSI                      WED 07/30/97 05:07 Page:41
      8089**DCL      8090--REDEF    8091--REDEF
QI$DAD.PSEUDO_CIP
      8369**DCL      8394--REDEF
QI$DAD.PSEUDO_CIP.ALPHANUMERIC
      8371**DCL      8376--REDEF
QI$DAD.PSEUDO_CIP.NUMERIC.CB
      8377**DCL      8380--REDEF    8383--REDEF
QI$DAD.WORD0
      8338**DCL      8339--REDEF
QI$ERROR_MESSAGE_LINE
     11730**DCL     11732--REDEF
QI$ERROR_STATUS
     11727**DCL     11729--REDEF
QI$FIELD_DAD.ELEMENTARY_ITEM.P
      8784**DCL      8791--REDEF
QI$FIELD_DAD.ONE_DIMENSIONAL_ITEM.P
      8804**DCL      8811--REDEF
QI$FIELD_DAD.PSEUDO_CIP
      8711**DCL      8736--REDEF
QI$FIELD_DAD.PSEUDO_CIP.ALPHANUMERIC
      8713**DCL      8718--REDEF
QI$FIELD_DAD.PSEUDO_CIP.NUMERIC.CB
      8719**DCL      8722--REDEF    8725--REDEF
QI$FIELD_DAD.TWO_DIMENSIONAL_ITEM.P
      8824**DCL      8831--REDEF
QI$FIELD_DAD.VARIABLE_LENGTH_ITEMS
      8767**DCL      8783--REDEF    8801--REDEF    8819--REDEF
QI$FIELD_DAD.VARIABLE_LENGTH_ITEMS.LEVEL_MULTIPLIERS
      8768**DCL      8778--REDEF    8781--REDEF
QI$FIELD_DAD.WORD0
      8663**DCL      8664--REDEF
QI$FIELD_DAD.WORD0_FLAGS.IO_FLAGS
      8667**DCL      8672--REDEF
QI$FIELD_DAD_P.P
      8865**DCL      8872--REDEF
QI$FIELD_STATUS.INDICATORS
PL6.E3A0      #001=QCG$GET_FIELD File=QCG$GET_FIELD.:E05TSI                      WED 07/30/97 05:07 Page:42
      9531**DCL      9563--REDEF
QI$FIELD_STATUS.INDICATORS.ENABLED_FLAGS
      9535**DCL      9540--REDEF
QI$FIELD_STATUS.INDICATORS.OPEN_FLAGS
      9547**DCL      9554--REDEF
QI$FIELD_STATUS.INDICATORS.STATE_FLAGS
      9541**DCL      9546--REDEF
QI$FILE.WORD0
      8987**DCL      8988--REDEF
QI$FILE_STATUS.INDICATORS
      9824**DCL      9856--REDEF
QI$FILE_STATUS.INDICATORS.ENABLED_FLAGS
      9828**DCL      9833--REDEF
QI$FILE_STATUS.INDICATORS.OPEN_FLAGS
      9840**DCL      9847--REDEF
QI$FILE_STATUS.INDICATORS.STATE_FLAGS
      9834**DCL      9839--REDEF
QI$FORM_FILE.FRAME_LIST_A@P
      9095**DCL     19646>>ASSIGN
QI$FORM_FILE.USE_PROCEDURE
      9087**DCL      9094--REDEF
QI$FORM_FILE.WORD0
      9041**DCL      9042--REDEF
QI$FORM_STATUS.CURRENT.IS_MESSAGE_LINE_NON_BLANK
      9904**DCL     19618<<ASSIGN  19624<<ASSIGN  19784<<ASSIGN
QI$FORM_STATUS.INDICATORS
      9945**DCL      9977--REDEF
QI$FORM_STATUS.INDICATORS.ENABLED_FLAGS
      9949**DCL      9954--REDEF
QI$FORM_STATUS.INDICATORS.OPEN_FLAGS
      9961**DCL      9968--REDEF
QI$FORM_STATUS.INDICATORS.STATE_FLAGS
      9955**DCL      9960--REDEF
QI$FRAME.STATUS_AREA@D
      9218**DCL     19685>>ASSIGN
QI$FRAME.WORD0
PL6.E3A0      #001=QCG$GET_FIELD File=QCG$GET_FIELD.:E05TSI                      WED 07/30/97 05:07 Page:43
      9202**DCL      9203--REDEF
QI$FRAME_STATUS.GZ.HEADER$
     10135**DCL     19715>>ASSIGN
QI$FRAME_STATUS.GZ.START$
     10137**DCL     19704>>ASSIGN
QI$FRAME_STATUS.INDICATORS
     10174**DCL     10206--REDEF
QI$FRAME_STATUS.INDICATORS.ENABLED_FLAGS
     10178**DCL     10183--REDEF
QI$FRAME_STATUS.INDICATORS.OPEN_FLAGS
     10190**DCL     10197--REDEF
QI$FRAME_STATUS.INDICATORS.STATE_FLAGS
     10184**DCL     10189--REDEF
QI$GZ_FIELD
     17053**DCL     19704--ASSIGN
QI$GZ_FIELD.DESCRIPTION.IO_FLAGS
     17056**DCL     17061--REDEF
QI$GZ_FIELD.DESCRIPTION.POSITION
     17072**DCL     19716--ASSIGN
QI$GZ_FIELD.OPERATION.IS_OPERATE
     17100**DCL     19729<<ASSIGN  19751<<ASSIGN
QI$GZ_FIELD.STATUS.VISUAL_ATTRIBUTE
     17092**DCL     19708>>ASSIGN  19720<<ASSIGN  19763<<ASSIGN
QI$GZ_HEADER.DCB#
     17010**DCL     19715>>ASSIGN
QI$IDENTIFIER
     11733**DCL     11735--REDEF
QI$INDICATORS
      9445**DCL      9475--REDEF
QI$INDICATORS.ENABLED_FLAGS
      9451**DCL      9456--REDEF
QI$INDICATORS.OPEN_FLAGS
      9463**DCL      9470--REDEF
QI$INDICATORS.STATE_FLAGS
      9457**DCL      9462--REDEF
QI$MAJOR_NODE.WORD0
PL6.E3A0      #001=QCG$GET_FIELD File=QCG$GET_FIELD.:E05TSI                      WED 07/30/97 05:07 Page:44
      8901**DCL      8902--REDEF
QI$MAJOR_STATUS.INDICATORS
      9624**DCL      9656--REDEF
QI$MAJOR_STATUS.INDICATORS.ENABLED_FLAGS
      9628**DCL      9633--REDEF
QI$MAJOR_STATUS.INDICATORS.OPEN_FLAGS
      9640**DCL      9647--REDEF
QI$MAJOR_STATUS.INDICATORS.STATE_FLAGS
      9634**DCL      9639--REDEF
QI$MESSAGE_TYPE
     11724**DCL     11726--REDEF
QI$MINOR_NODE.WORD0
      8944**DCL      8945--REDEF
QI$MINOR_STATUS.INDICATORS
      9717**DCL      9749--REDEF
QI$MINOR_STATUS.INDICATORS.ENABLED_FLAGS
      9721**DCL      9726--REDEF
QI$MINOR_STATUS.INDICATORS.OPEN_FLAGS
      9733**DCL      9740--REDEF
QI$MINOR_STATUS.INDICATORS.STATE_FLAGS
      9727**DCL      9732--REDEF
QI$OP_ACCEPT.DATANAME@P
      6132**DCL      6133--REDEF
QI$OP_CALL.EPTR$
      6304**DCL      6305--REDEF
QI$OP_CLEAR.IO_FLAGS
      6337**DCL      6340--REDEF
QI$OP_DISPLAY.FIELD_A@P
      6604**DCL      6605--REDEF
QI$OP_ENABLE.IO_FLAGS
      6691**DCL      6694--REDEF
QI$OP_IFCLS.ATTRIBUTE.TYPE
      6784**DCL      6789--REDEF
QI$OP_INSPECT.TALLYING_FOR_ITEM@P
      7018**DCL      7019--REDEF
QI$OP_INSPECT.TALLYING_INITIAL_ITEM@P
PL6.E3A0      #001=QCG$GET_FIELD File=QCG$GET_FIELD.:E05TSI                      WED 07/30/97 05:07 Page:45
      7020**DCL      7021--REDEF
QI$OP_INSPECT.TALLYING_ITEM@P
      7016**DCL      7017--REDEF
QI$OP_OPEN.IO_FLAGS
      7578**DCL      7581--REDEF
QI$OP_PERFM.BINARY_ITERATION_COUNT@P
      7616**DCL      7617--REDEF
QI$PSEUDO_CIP
      8117**DCL      8141--REDEF
QI$PSEUDO_CIP.ALPHANUMERIC
      8121**DCL      8126--REDEF
QI$PSEUDO_CIP.NUMERIC.CB
      8127**DCL      8130--REDEF    8133--REDEF
QI$TERMINAL_ATTRIBUTES
      9338**DCL      9351--REDEF
QI$TRAN_FILE.WORD0
      9123**DCL      9124--REDEF
QI$TRAN_STATUS.INDICATORS
     10058**DCL     10090--REDEF
QI$TRAN_STATUS.INDICATORS.ENABLED_FLAGS
     10062**DCL     10067--REDEF
QI$TRAN_STATUS.INDICATORS.OPEN_FLAGS
     10074**DCL     10081--REDEF
QI$TRAN_STATUS.INDICATORS.STATE_FLAGS
     10068**DCL     10073--REDEF
QI$VARIABLE_IDENTIFIER.LENGTH
     11737**DCL     11738--IMP-SIZ
QI_1.BASE
     10266**DCL     10273--REDEF
QI_1.BASE.DATA$
     10267**DCL     19685>>ASSIGN
QI_1.BASE.PROC$
     10269**DCL     19646>>ASSIGN
QI_1.CURRENT.FILE$
     11157**DCL     11159--REDEF   11161--REDEF
QI_1.CURRENT.FILE_STATUS$
PL6.E3A0      #001=QCG$GET_FIELD File=QCG$GET_FIELD.:E05TSI                      WED 07/30/97 05:07 Page:46
     11163**DCL     11165--REDEF   11167--REDEF
QI_1.CURRENT.FORM$
     11159**DCL     19646>>ASSIGN
QI_1.CURRENT.FORM_STATUS$
     11165**DCL     19596>>IF      19618>>ASSIGN  19624>>ASSIGN  19784>>ASSIGN
QI_1.DAD
     10961**DCL     10966--REDEF
QI_1.FILE_HEAD
     11144**DCL     11151--REDEF
QI_1.IS_ALL_LIT
     10967**DCL     10972--REDEF
QI_1.IS_FORM_VARIABLE
     10973**DCL     10978--REDEF
QI_1.IS_TEMP
     10979**DCL     10984--REDEF
QI_1.MESSAGE_LINE_DAD.PSEUDO_CIP
     11077**DCL     11102--REDEF
QI_1.MESSAGE_LINE_DAD.PSEUDO_CIP.ALPHANUMERIC
     11079**DCL     11084--REDEF
QI_1.MESSAGE_LINE_DAD.PSEUDO_CIP.NUMERIC.CB
     11085**DCL     11088--REDEF   11091--REDEF
QI_1.MESSAGE_LINE_DAD.WORD0
     11046**DCL     11047--REDEF
QI_1.OFFSET
     10985**DCL     10990--REDEF
QI_1.OP.CIP
     10346**DCL     10797--REDEF
QI_1.OP.CIP.AUX
     10712**DCL     10783--REDEF
QI_1.OP.CIP.AUX.CD
     10757**DCL     10760--REDEF   10764--REDEF   10767--REDEF
QI_1.OP.CIP.S
     10416**DCL     10487--REDEF
QI_1.OP.CIP.S.CD
     10461**DCL     10464--REDEF   10468--REDEF   10471--REDEF
QI_1.OP.CIP.T
PL6.E3A0      #001=QCG$GET_FIELD File=QCG$GET_FIELD.:E05TSI                      WED 07/30/97 05:07 Page:47
     10564**DCL     10635--REDEF
QI_1.OP.CIP.T.CD
     10609**DCL     10612--REDEF   10616--REDEF   10619--REDEF
QI_1.OP.DATA
     10804**DCL     10808--REDEF
QI_1.OP.FILL_CHAR
     10928**DCL     10931--REDEF
QI_1.OP.INX
     10861**DCL     10865--REDEF   10866--REDEF   10870--REDEF
QI_1.OP.LEN
     10844**DCL     10848--REDEF   10849--REDEF   10853--REDEF   10854--REDEF   10858--REDEF
QI_1.OP.LEN.AUX
     10847**DCL     11748--IMP-SIZ
QI_1.OP.LEN.S
     10845**DCL     11744--IMP-SIZ
QI_1.OP.LEN.T
     10846**DCL     11746--IMP-SIZ
QI_1.OP.PICTURE_STRING
     10914**DCL     10917--REDEF   10918--REDEF   10921--REDEF   10922--REDEF   10925--REDEF
QI_1.OP.ROUND
     10947**DCL     10948--REDEF   10949--REDEF
QI_1.OP.SRCH_VRFY_ELEMS
     10883**DCL     10886--REDEF
QI_1.OPENED_COUNT
     11152**DCL     11155--REDEF
QI_1.OTTER_SPACE
     10991**DCL     10996--REDEF
QI_1.PICTURE_STRING
     10997**DCL     11002--REDEF
QI_1.SCREEN_UPDATE_FLAGS.WAS_APPLIED
     10309**DCL     19772<<ASSIGN
QI_1.SPECIAL_NAMES
     11180**DCL     11189--REDEF
QI_1.TYPE
     11003**DCL     11008--REDEF
QI_16_BIT_BINARY
PL6.E3A0      #001=QCG$GET_FIELD File=QCG$GET_FIELD.:E05TSI                      WED 07/30/97 05:07 Page:48
     16193**DCL     16263--REDEF
QI_16_BIT_BINARY.CB
     16212**DCL     16215--REDEF   16219--REDEF   16222--REDEF
QI_31_DIGIT_SLS_DISPLAY
     16026**DCL     16096--REDEF
QI_31_DIGIT_SLS_DISPLAY.CD
     16073**DCL     16076--REDEF   16080--REDEF   16083--REDEF
QI_31_DIGIT_ST_PACKED
     16528**DCL     16598--REDEF
QI_31_DIGIT_ST_PACKED.CP
     16561**DCL     16564--REDEF   16568--REDEF   16571--REDEF
QI_32_BIT_BINARY
     16360**DCL     16430--REDEF
QI_32_BIT_BINARY.CB
     16379**DCL     16382--REDEF   16386--REDEF   16389--REDEF
QI_4_CHAR_ALPHANUMERIC
     15858**DCL     15928--REDEF
QI_4_CHAR_ALPHANUMERIC.CA
     15863**DCL     15867--REDEF   15870--REDEF   15873--REDEF
QI_ACCUMULATOR_DAD.CIP
     16871**DCL     16942--REDEF
QI_ACCUMULATOR_DAD.CIP.CP
     16902**DCL     16905--REDEF   16909--REDEF   16912--REDEF
QI_ALR.CIP
     11823**DCL     12274--REDEF
QI_ALR.CIP.AUX
     12189**DCL     12260--REDEF
QI_ALR.CIP.AUX.CA
     12192**DCL     12196--REDEF   12199--REDEF   12202--REDEF
QI_ALR.CIP.S
     11893**DCL     11964--REDEF
QI_ALR.CIP.S.CA
     11896**DCL     11900--REDEF   11903--REDEF   11906--REDEF
QI_ALR.CIP.T
     12041**DCL     12112--REDEF
QI_ALR.CIP.T.CA
PL6.E3A0      #001=QCG$GET_FIELD File=QCG$GET_FIELD.:E05TSI                      WED 07/30/97 05:07 Page:49
     12044**DCL     12048--REDEF   12051--REDEF   12054--REDEF
QI_ALR.DATA
     12281**DCL     12285--REDEF
QI_ALR.FILL_CHAR
     12405**DCL     12408--REDEF
QI_ALR.INX
     12338**DCL     12342--REDEF   12343--REDEF   12347--REDEF
QI_ALR.LEN
     12321**DCL     12325--REDEF   12326--REDEF   12330--REDEF   12331--REDEF   12335--REDEF
QI_ALR.PICTURE_STRING
     12391**DCL     12394--REDEF   12395--REDEF   12398--REDEF   12399--REDEF   12402--REDEF
QI_ALR.ROUND
     12424**DCL     12425--REDEF   12426--REDEF
QI_ALR.SRCH_VRFY_ELEMS
     12360**DCL     12363--REDEF
QI_FPT_DBCONTROL.V_
     17243**DCL     17243--REDEF
QI_FPT_INT.V_
     18081**DCL     18081--REDEF
QI_FPT_MDFFLD
     18188**DCL     19713>>ASSIGN
QI_MAT.CIP
     15162**DCL     15613--REDEF
QI_MAT.CIP.AUX
     15528**DCL     15599--REDEF
QI_MAT.CIP.AUX.CA
     15531**DCL     15535--REDEF   15538--REDEF   15541--REDEF
QI_MAT.CIP.S
     15232**DCL     15303--REDEF
QI_MAT.CIP.S.CA
     15235**DCL     15239--REDEF   15242--REDEF   15245--REDEF
QI_MAT.CIP.T
     15380**DCL     15451--REDEF
QI_MAT.CIP.T.CA
     15383**DCL     15387--REDEF   15390--REDEF   15393--REDEF
QI_MAT.DATA
PL6.E3A0      #001=QCG$GET_FIELD File=QCG$GET_FIELD.:E05TSI                      WED 07/30/97 05:07 Page:50
     15620**DCL     15624--REDEF
QI_MAT.DEC
     15688**DCL     15692--REDEF   15693--REDEF   15697--REDEF
QI_MAT.FILL_CHAR
     15744**DCL     15747--REDEF
QI_MAT.LEN
     15660**DCL     15664--REDEF   15665--REDEF   15669--REDEF   15670--REDEF   15674--REDEF
QI_MAT.PICTURE_STRING
     15730**DCL     15733--REDEF   15734--REDEF   15737--REDEF   15738--REDEF   15741--REDEF
QI_MAT.ROUND
     15763**DCL     15764--REDEF   15765--REDEF
QI_MAT.SRCH_VRFY_ELEMS
     15699**DCL     15702--REDEF
QI_PICTURE_STRING
     16696**DCL     16766--REDEF
QI_PICTURE_STRING.CA
     16701**DCL     16705--REDEF   16708--REDEF   16711--REDEF
QI_SRCH_VRFY.CIP
     14493**DCL     14944--REDEF
QI_SRCH_VRFY.CIP.AUX
     14859**DCL     14930--REDEF
QI_SRCH_VRFY.CIP.AUX.CA
     14862**DCL     14866--REDEF   14869--REDEF   14872--REDEF
QI_SRCH_VRFY.CIP.S
     14563**DCL     14634--REDEF
QI_SRCH_VRFY.CIP.S.CA
     14566**DCL     14570--REDEF   14573--REDEF   14576--REDEF
QI_SRCH_VRFY.CIP.T
     14711**DCL     14782--REDEF
QI_SRCH_VRFY.CIP.T.CA
     14714**DCL     14718--REDEF   14721--REDEF   14724--REDEF
QI_SRCH_VRFY.DATA
     14951**DCL     14955--REDEF
QI_SRCH_VRFY.DEC
     15019**DCL     15023--REDEF   15024--REDEF   15028--REDEF
QI_SRCH_VRFY.FILL_CHAR
PL6.E3A0      #001=QCG$GET_FIELD File=QCG$GET_FIELD.:E05TSI                      WED 07/30/97 05:07 Page:51
     15075**DCL     15078--REDEF
QI_SRCH_VRFY.ROUND
     15094**DCL     15095--REDEF   15096--REDEF
QI_SRCH_VRFY.SRCH_RESULT
     15035**DCL     15038--REDEF   15039--REDEF   15042--REDEF   15043--REDEF   15046--REDEF
QI_SRCH_VRFY.SRCH_VRFY_ARGS
     14959**DCL     14963--REDEF   14964--REDEF   14968--REDEF   14969--REDEF   14973--REDEF
QI_SRCH_VRFY.SRCH_VRFY_ELEMS
     15030**DCL     15033--REDEF
QI_TYPE_BINARY_TARGET.CIP
     13820**DCL     14271--REDEF
QI_TYPE_BINARY_TARGET.CIP.AUX
     14186**DCL     14257--REDEF
QI_TYPE_BINARY_TARGET.CIP.AUX.CA
     14189**DCL     14193--REDEF   14196--REDEF   14199--REDEF
QI_TYPE_BINARY_TARGET.CIP.S
     13890**DCL     13961--REDEF
QI_TYPE_BINARY_TARGET.CIP.S.CA
     13893**DCL     13897--REDEF   13900--REDEF   13903--REDEF
QI_TYPE_BINARY_TARGET.CIP.T
     14038**DCL     14109--REDEF
QI_TYPE_BINARY_TARGET.CIP.T.CB
     14055**DCL     14058--REDEF   14062--REDEF   14065--REDEF
QI_TYPE_BINARY_TARGET.DATA
     14278**DCL     14282--REDEF
QI_TYPE_BINARY_TARGET.DEC
     14346**DCL     14350--REDEF   14351--REDEF   14355--REDEF
QI_TYPE_BINARY_TARGET.LEN
     14318**DCL     14322--REDEF   14323--REDEF   14327--REDEF   14328--REDEF   14332--REDEF
QI_TYPE_BINARY_TARGET.PICTURE_STRING
     14388**DCL     14391--REDEF   14392--REDEF   14395--REDEF   14396--REDEF   14399--REDEF
QI_TYPE_BINARY_TARGET.ROUND
     14421**DCL     14422--REDEF   14423--REDEF
QI_TYPE_BINARY_TARGET.SIZE_ERROR
     14407**DCL     14408--REDEF
QI_TYPE_BINARY_TARGET.SRCH_VRFY_ELEMS
PL6.E3A0      #001=QCG$GET_FIELD File=QCG$GET_FIELD.:E05TSI                      WED 07/30/97 05:07 Page:52
     14357**DCL     14360--REDEF
QI_TYPE_DISPLAY_SOURCE.CIP
     12488**DCL     12939--REDEF
QI_TYPE_DISPLAY_SOURCE.CIP.AUX
     12854**DCL     12925--REDEF
QI_TYPE_DISPLAY_SOURCE.CIP.AUX.CA
     12857**DCL     12861--REDEF   12864--REDEF   12867--REDEF
QI_TYPE_DISPLAY_SOURCE.CIP.S
     12558**DCL     12629--REDEF
QI_TYPE_DISPLAY_SOURCE.CIP.S.CD
     12603**DCL     12606--REDEF   12610--REDEF   12613--REDEF
QI_TYPE_DISPLAY_SOURCE.CIP.T
     12706**DCL     12777--REDEF
QI_TYPE_DISPLAY_SOURCE.CIP.T.CA
     12709**DCL     12713--REDEF   12716--REDEF   12719--REDEF
QI_TYPE_DISPLAY_SOURCE.DATA
     12946**DCL     12950--REDEF
QI_TYPE_DISPLAY_SOURCE.DEC
     13014**DCL     13018--REDEF   13019--REDEF   13023--REDEF
QI_TYPE_DISPLAY_SOURCE.LEN
     12986**DCL     12990--REDEF   12991--REDEF   12995--REDEF   12996--REDEF   13000--REDEF
QI_TYPE_DISPLAY_SOURCE.PICTURE_STRING
     13056**DCL     13059--REDEF   13060--REDEF   13063--REDEF   13064--REDEF   13067--REDEF
QI_TYPE_DISPLAY_SOURCE.ROUND
     13089**DCL     13090--REDEF   13091--REDEF
QI_TYPE_DISPLAY_SOURCE.SIZE_ERROR
     13075**DCL     13076--REDEF
QI_TYPE_DISPLAY_SOURCE.SRCH_VRFY_ELEMS
     13025**DCL     13028--REDEF
QI_TYPE_DISPLAY_TARGET.CIP
     13154**DCL     13605--REDEF
QI_TYPE_DISPLAY_TARGET.CIP.AUX
     13520**DCL     13591--REDEF
QI_TYPE_DISPLAY_TARGET.CIP.AUX.CA
     13523**DCL     13527--REDEF   13530--REDEF   13533--REDEF
QI_TYPE_DISPLAY_TARGET.CIP.S
PL6.E3A0      #001=QCG$GET_FIELD File=QCG$GET_FIELD.:E05TSI                      WED 07/30/97 05:07 Page:53
     13224**DCL     13295--REDEF
QI_TYPE_DISPLAY_TARGET.CIP.S.CA
     13227**DCL     13231--REDEF   13234--REDEF   13237--REDEF
QI_TYPE_DISPLAY_TARGET.CIP.T
     13372**DCL     13443--REDEF
QI_TYPE_DISPLAY_TARGET.CIP.T.CD
     13417**DCL     13420--REDEF   13424--REDEF   13427--REDEF
QI_TYPE_DISPLAY_TARGET.DATA
     13612**DCL     13616--REDEF
QI_TYPE_DISPLAY_TARGET.DEC
     13680**DCL     13684--REDEF   13685--REDEF   13689--REDEF
QI_TYPE_DISPLAY_TARGET.LEN
     13652**DCL     13656--REDEF   13657--REDEF   13661--REDEF   13662--REDEF   13666--REDEF
QI_TYPE_DISPLAY_TARGET.PICTURE_STRING
     13722**DCL     13725--REDEF   13726--REDEF   13729--REDEF   13730--REDEF   13733--REDEF
QI_TYPE_DISPLAY_TARGET.ROUND
     13755**DCL     13756--REDEF   13757--REDEF
QI_TYPE_DISPLAY_TARGET.SIZE_ERROR
     13741**DCL     13742--REDEF
QI_TYPE_DISPLAY_TARGET.SRCH_VRFY_ELEMS
     13691**DCL     13694--REDEF
QI_VLP_FLDATR
     17364**DCL     19718>>ASSIGN
QI_VLP_SEGMENT.BASE
     17780**DCL     17780--REDEF
QI_VLP_SEGMENT_BUFFER.BASE
     17878**DCL     17878--REDEF
QI_VLP_SEGMENT_LOAD.BASE
     17976**DCL     17976--REDEF
QI_VLP_TRMCTL.BREAKCOUNT
     18970**DCL     18971--REDEF
QI_VLP_XBREAK.IC
     19160**DCL     19160--REDEF
QI_VLP_XBREAK.OLDIC
     19160**DCL     19161--REDEF   19161--REDEF
SO_GET_THE_FIELD_ALREADY
PL6.E3A0      #001=QCG$GET_FIELD File=QCG$GET_FIELD.:E05TSI                      WED 07/30/97 05:07 Page:54
     19592**LABEL   19583--GOTO
VLP@FLDATR
       281**DCL     19717--ASSIGN  19718<<ASSIGN
VLP@FLDATR.ABSGRPRND
       287**DCL     19719<<ASSIGN  19762<<ASSIGN
WE_WERE_CALLED_FROM_A_VERIFY
     19189**DCL     19581<<ASSIGN  19587<<ASSIGN  19740>>IF
