VERSION E05

PL6.E3A0      #001=QCI$IO_READ File=QCI$IO_READ.:E05TSI                          WED 07/30/97 05:10 Page:1
        1        1        /*M* QCI$IO_READ:  Monitor CALLs for screen READ/ACCEPT.  */
        2        2        /*T***********************************************************/
        3        3        /*T*                                                         */
        4        4        /*T* Copyright (c) Bull HN Information Systems Inc., 1997    */
        5        5        /*T*                                                         */
        6        6        /*T***********************************************************/
        7        7        /*X* DMC,PLM=4,IND=0,DCI=4,CSI=2,IAD=2,DTI=2,AND,ECI=0,DIN=2,STI=2 */
        8        8
        9        9        /*P*  NAME:         QCI$IO_READ
       10       10              PURPOSE:      Execute monitor calls to read fields.
       11       11              DESCRIPTION:  M$SLCFLD, M$MDFFLD and M$READ are used to perform
       12       12                            input through fields which have already been M$DCLFLDed
       13       13                            (i.e., which are in an ACTIVATEd frame).
       14       14        */
       15       15
       16       16        QCI$IO_READ: PROC ( QCI@IO_READ );
       17       17
       18       18        /*D*  NAME:         QCI$IO_READ
       19       19              CALL:         CALL QCI$IO_READ ( QCI@IO_READ );
       20       20              PARAMETERS:   QCI@IO_READ is a structure which contains information
       21       21                            concerning the read to be performed; it's generated
       22       22                            by invoking the QCI@IO_READ %MACRO within the QCI_IO_READ_M
       23       23                            %INCLUDE file (see commentary within that file).
       24       24              INTERFACE:    Called by routines wishing to perform non-message-line
       25       25                            input:  QBA$ACCEPT, QBR$READ_FORM.
       26       26              ENVIRONMENT:  Nothing unusual.
       27       27              INPUT:        QI_1, etc.
       28       28              OUTPUT:       QI_1, etc.
       29       29              SCRATCH:      Various otter stuff.
       30       30              DESCRIPTION:  The calling routine (ACCEPT or READ_FORM) sets up the
       31       31                            starting and stopping indices for both frames within the
       32       32                            form to be read, and fields within those frames to be
       33       33                            read.  Each of those fields is then tested for:
       34       34                            1)  proper I-O type (INPUT or I-O);
       35       35                            2)  ENABLEd for INPUT or I-O.
       36       36                            Those fields which pass both tests are then read.
       37       37        */
PL6.E3A0      #001=QCI$IO_READ File=QCI$IO_READ.:E05TSI                          WED 07/30/97 05:10 Page:2
       38       38
       39       39          %INCLUDE B_ERRORS_C;
       40     1166          %INCLUDE LCP_6;
       41     1357          %FPT_READ ( FPTN = FPT@READ,
       42     1358                      STCLASS = AUTO );
       43     1384          %FPT_SLCFLD ( FPTN = FPT@SLCFLD,
       44     1385                        STCLASS = AUTO );
       45     1417
       46     1418          %INCLUDE QG_MACRO_M;
       47     1555          %QGB_ENTRIES;
       48     1568          %INCLUDE QI_EQUATES_E;
       49     1927          %INCLUDE QI_PERR_C;
       50     2095          %INCLUDE QI_MACROS_M;
       51     7153          %QI$ALL;
       52    18266          %QI_FPTS;
       53    20311
       54    20312    1     DCL FIELD_FIRST_INDEX UBIN;
       55    20313    1     DCL FIELD_IDENTIFIER$ PTR;
       56    20314    1     DCL FIELD_INDEX UBIN;
       57    20315    1     DCL FIELD_LAST_INDEX UBIN;
       58    20316    1     DCL FRAME$ PTR;
       59    20317    1     DCL FRAME_FIRST_INDEX UBIN;
       60    20318    1     DCL FRAME_INDEX UBIN;
       61    20319    1     DCL FRAME_LAST_INDEX UBIN;
       62    20320    1     DCL FRAME_STATUS$ PTR;
       63    20321    1     DCL GZ_FIELD$ PTR;
       64    20322    1     DCL GZ_HEADER$ PTR;
       65    20323    1     DCL VARIABLE_SOURCE$ PTR;
       66    20324    1     DCL VARIABLE_TARGET$ CPTR;
       67    20325    1     DCL WE_SELECTED_ONE BIT(1) ALIGNED;
       68    20326
       69    20327    1     DCL QCE$ERROR_INTERNAL ENTRY (4);
       70    20328    1     DCL QCE$ERROR_M$INTERNAL ENTRY (4);
       71    20329    1     DCL QCS$SETUP_TARGET ENTRY;
       72    20330    1     DCL QCU$USE_INVALID_IO ENTRY (1);
       73    20331
       74    20332          %SET LISTMAC = '1'B;
PL6.E3A0      #001=QCI$IO_READ File=QCI$IO_READ.:E05TSI                          WED 07/30/97 05:10 Page:3
       75    20333
       76    20334          %INCLUDE QCI_IO_READ_M;
       77    20374          %QCI@IO_READ;
             20375            %BEGIN_MACRO ( STCLASS = STCLASS );
             20376            %SET LISTDIR = '0'B;
             20389    1     DCL 1 QCI@IO_READ ALIGNED,
             20390    1           2 FRAME_START_INDEX UBIN,
             20391                          /* Starting index into QI$FORM_FILE.FRAME_LIST_A@P.  */
             20392    1           2 FRAME_STOP_INDEX UBIN,
             20393                          /* Stopping index into QI$FORM_FILE.FRAME_LIST_A@P.  */
             20394    1           2 IS_FIELD_INDEXES_VALID BIT(1) ALIGNED,
             20395                          /* If IS_FIELD_INDEXES_VALID, use them;
             20396                             else use all the fields in the frame.  */
             20397    1           2 FIELD_START_INDEX UBIN,
             20398                          /* Starting index into QI$GZ_FIELD table.  */
             20399    1           2 FIELD_STOP_INDEX UBIN,
             20400                          /* Stopping index into QI$GZ_FIELD table.  */
             20401    1           2 IS_CURSOR_POSITION_VALID BIT(1) ALIGNED,
             20402                          /* If IS_CURSOR_POSITION_VALID, use it;
             20403                             else allow cursor to default to upper-left-most field.  */
             20404    1           2 CURSOR_POSITION BIT(16) ALIGNED,
             20405                          /* POSition of the field on which to place the cursor.  */
             20406    1           2 STATUS UBIN,
             20407                          /* Returned status code:  0 -> Immediate return to level 0;
             20408                                                   >0 -> Status is ok.  */
             20409    1           2 FIELD_ERROR_STOP_INDEX UBIN;
             20410                          /* Passed index for QCG$GET_FIELD processing.  */
             20417            %ENDIF;
       78    20420
       79    20421          %INCLUDE QCU_USE_M;
       80    20475          %QCU@USE;
             20476            %BEGIN_MACRO;
             20477            %SET LISTDIR = '0'B;
             20490    1     DCL 1 QCU@USE AUTO ALIGNED,
             20491    1           2 CURR_FRAME$ PTR,
             20492                          /* Pointer to DAD of current frame or ADDR (NIL).  */
             20493    1           2 CURR_NODE$ PTR,
PL6.E3A0      #001=QCI$IO_READ File=QCI$IO_READ.:E05TSI                          WED 07/30/97 05:10 Page:4
             20494                          /* Pointer to current node or ADDR (NIL).  */
             20495    1           2 USE_DEFAULT_IO UBIN,
             20496                          /* For USE procedures which default applies
             20497                             (see corresponding EQUs).  */
             20498    1           2 IS_TIME_TO_SAVE_AWAY_FIELDS BIT(1) ALIGNED,
             20499                          /* If IS_TIME_TO_SAVE_AWAY_FIELDS, then
             20500                             save the fields within the bounds of
             20501                             FRAME_START_INDEX, FRAME_STOP_INDEX,
             20502                             FIELD_START_INDEX, and FIELD_STOP_INDEX
             20503                             before calling the USE procedure.  */
             20504    1           2 FRAME_START_INDEX UBIN,
             20505                          /* Foist frame of the CURRENT.FORM$
             20506                             involved with the I-O error.  */
             20507    1           2 FRAME_STOP_INDEX UBIN,
             20508                          /* Larst frame of the CURRENT.FORM$
             20509                             involved with the I-O error.  */
             20510    1           2 IS_FIELD_INDEXES_VALID BIT(1) ALIGNED,
             20511                          /* If IS_FIELD_INDEXES_VALID, use them;
             20512                             else use all the fields in the frame.  */
             20513    1           2 FIELD_START_INDEX UBIN,
             20514                          /* Starting index into QI$GZ_FIELD
             20515                             which may have values "pushed".  */
             20516    1           2 FIELD_STOP_INDEX UBIN,
             20517                          /* Stopping index into QI$GZ_FIELD
             20518                             which may have values "pushed".  */
             20519    1           2 IS_CURSOR_POSITION_VALID BIT(1) ALIGNED,
             20520                          /* If IS_CURSOR_POSITION_VALID, use it;
             20521                             else allow cursor to default to upper-left-most field.  */
             20522    1           2 CURSOR_POSITION BIT(16) ALIGNED,
             20523                          /* POSition of the field on which to place the cursor.  */
             20524    1           2 STATUS UBIN;
             20525                          /* Returned action code; see corresponding EQUs.  */
             20532            %ENDIF;
       81    20535
       82    20536          %QI$ACTIVATION_STATUS ( NAME = QI@ACTIVATION_STATUS,
       83    20537                                  STCLASS = AUTO );
             20538            %BEGIN_MACRO ( STCLASS = STCLASS );
PL6.E3A0      #001=QCI$IO_READ File=QCI$IO_READ.:E05TSI                          WED 07/30/97 05:10 Page:5
             20539            %SET LISTDIR = '0'B;
             20552        /*    Although the compiler never explicitly generates this,
             20553              it's implicitly the largest possible *thing* to say
             20554              ACTIVATION STATUS IS *thing*
             20555              about.  See the FPL manual under the SELECT clause.
             20556        */
             20557    1     DCL 1 QI@ACTIVATION_STATUS AUTO CALIGNED,
             20558    1           2 ACTIVATION_CHARACTER CHAR(1) CALIGNED,
             20559    1           2 ACTIVATION_POSITION CHAR(3) CALIGNED,
             20560    1           2 ACTIVATION_LINE CHAR(3) CALIGNED,
             20561    1           2 ACTIVATION_COLUMN CHAR(3) CALIGNED,
             20562    1           2 ACTIVATION_FIELD CHAR(30) CALIGNED;
             20563    1     DCL 1 QI@ACTIVATION_STATUS_TEXT REDEF QI@ACTIVATION_STATUS CHAR(40);
             20570            %ENDIF;
       84    20573
       85    20574          %SET LISTMAC = '0'B;
       86    20575        %EJECT;
PL6.E3A0      #001=QCI$IO_READ File=QCI$IO_READ.:E05TSI                          WED 07/30/97 05:10 Page:6
       87    20576        /*
       88    20577              Anyone calling QCI$IO_READ should have their act together
       89    20578              as far as open forms are concerned.  A closed form at this
       90    20579              point is therefore considered an internal error.
       91    20580              QCF$FIND_CURRENTS should have been called @sometime previous.
       92    20581        */
       93    20582            %IF QI#DEBUG;
       94    20583
       95    20584    1       IF QI_1.CURRENT.FORM$ = ADDR (NIL)
       96    20585    1         OR QI_1.CURRENT.FORM_STATUS$ = ADDR (NIL)
       97    20586    1       THEN
       98    20587    1         CALL QCE$ERROR_INTERNAL ( %E$INTERNAL_INTERPRETER_ERROR );
       99    20588
      100    20589    1       IF NOT QI_1.CURRENT.FORM_STATUS$ -> QI$FORM_STATUS.INDICATORS.OPEN_FLAGS.
             20589                IS_INPUT
      101    20590    1       THEN
      102    20591    1         CALL QCE$ERROR_INTERNAL ( %E$INTERNAL_INTERPRETER_ERROR );
      103    20592
      104    20593            %ENDIF;
      105    20594
      106    20595    1       WE_SELECTED_ONE = %NO;
      107    20596
      108    20597    1       FPT@SLCFLD = QI_FPT_SLCFLD;
      109    20598    1       VBASE ( FPT@SLCFLD.V_ ) = ADDR ( FPT@SLCFLD.V );
      110    20599
      111    20600    1       FRAME_FIRST_INDEX = %QI#SOME_HUGE_NUMBER;
      112    20601    1       FRAME_LAST_INDEX = 0;
      113    20602    1       FIELD_FIRST_INDEX = %QI#SOME_HUGE_NUMBER;
      114    20603    1       FIELD_LAST_INDEX = 0;
      115    20604
      116    20605    1   CHECK_ALL_THE_FRAMES:
      117    20606    1       DO FRAME_INDEX =
      118    20607    2         QCI@IO_READ.FRAME_START_INDEX TO QCI@IO_READ.FRAME_STOP_INDEX;
      119    20608
      120    20609              %PROC_ADDRESS ( THING@P =
             20609                  "QI_1.CURRENT.FORM$ -> QI$FORM_FILE.FRAME_LIST_A@P ( FRAME_INDEX )",
      121    20610              CHECK_FOR_INDIRECTION = NO,
PL6.E3A0      #001=QCI$IO_READ File=QCI$IO_READ.:E05TSI                          WED 07/30/97 05:10 Page:7
      122    20611              RESULT$ = FRAME$ );
      123    20648
      124    20649              %DATA_ADDRESS ( THING@D = "FRAME$ -> QI$FRAME.STATUS_AREA@D",
      125    20650              CHECK_FOR_INDIRECTION = NO,
      126    20651              RESULT$ = FRAME_STATUS$ );
      127    20688
      128    20689    2         IF FRAME_STATUS$ -> QI$FRAME_STATUS.INDICATORS.IS_ACTIVE
      129    20690    2         THEN
      130    20691    2   FRAME_IS_ACTIVE:
      131    20692    3           DO;
      132    20693
      133    20694    3             IF NOT QCI@IO_READ.IS_FIELD_INDEXES_VALID
      134    20695    3             THEN
      135    20696    4               DO;
      136    20697    4                 QCI@IO_READ.FIELD_START_INDEX = FRAME_STATUS$ -> QI$FRAME_STATUS.GZ.
             20697                          FIELD_START_INDEX;
      137    20698    4                 QCI@IO_READ.FIELD_STOP_INDEX = FRAME_STATUS$ -> QI$FRAME_STATUS.GZ.
             20698                          FIELD_STOP_INDEX;
      138    20699    4               END;
      139    20700
      140    20701    3             GZ_HEADER$ = FRAME_STATUS$ -> QI$FRAME_STATUS.GZ.HEADER$;
      141    20702    3             GZ_FIELD$ = PINCRW ( FRAME_STATUS$ -> QI$FRAME_STATUS.GZ.START$,
      142    20703    3               QCI@IO_READ.FIELD_START_INDEX * SIZEW (QI$GZ_FIELD) );
      143    20704
      144    20705    3   SELECT_THE_PROPER_FIELDS:
      145    20706    3             DO FIELD_INDEX =
      146    20707    4               QCI@IO_READ.FIELD_START_INDEX TO QCI@IO_READ.FIELD_STOP_INDEX;
      147    20708
      148    20709    4               IF GZ_FIELD$ -> QI$GZ_FIELD.DESCRIPTION.IO_FLAGS.IS_INPUT
      149    20710    4               THEN
      150    20711    4   FIELD_IS_PROPER_IO_TYPE:
      151    20712    5                 DO;
      152    20713
      153    20714    5                   IF GZ_FIELD$ -> QI$GZ_FIELD.INDICATORS$ -> QI$INDICATORS.
             20714                            ENABLED_FLAGS.IS_INPUT
      154    20715    5                   THEN
      155    20716    5   FIELD_IS_ENABLED:
PL6.E3A0      #001=QCI$IO_READ File=QCI$IO_READ.:E05TSI                          WED 07/30/97 05:10 Page:8
      156    20717    6                     DO;
      157    20718    6                       GZ_FIELD$ -> QI$GZ_FIELD.OPERATION.IS_OPERATE = %YES;
      158    20719
      159    20720    6                       WE_SELECTED_ONE = %YES;
      160    20721
      161    20722    6                       FPT@SLCFLD.V.DCB# = GZ_HEADER$ -> QI$GZ_HEADER.DCB#;
      162    20723    6                       FPT@SLCFLD.KEY_ = VECTOR ( GZ_FIELD$ -> QI$GZ_FIELD.DESCRIPTION.
             20723                                POSITION );
      163    20724
      164    20725    6                       CALL QGB$SLCFLD ( FPT@SLCFLD, QGB_PARAM )
      165    20726    6                       WHENALTRETURN
      166    20727    7                         DO;
      167    20728    7                           CALL QCE$ERROR_M$INTERNAL ( %E$UNEXPECTED_ALTRET );
      168    20729    7                         END;
      169    20730
      170    20731    6                       GZ_FIELD$ -> QI$GZ_FIELD.OPERATION.IS_DONE = %YES;
      171    20732    6                       GZ_FIELD$ -> QI$GZ_FIELD.STATUS.IS_AOIM_MODIFIED = %NO;
      172    20733
      173    20734    6                       IF FRAME_INDEX < FRAME_FIRST_INDEX
      174    20735    6                       THEN
      175    20736    6                         FRAME_FIRST_INDEX = FRAME_INDEX;
      176    20737    6                       IF FRAME_INDEX > FRAME_LAST_INDEX
      177    20738    6                       THEN
      178    20739    6                         FRAME_LAST_INDEX = FRAME_INDEX;
      179    20740    6                       IF FIELD_INDEX < FIELD_FIRST_INDEX
      180    20741    6                       THEN
      181    20742    6                         FIELD_FIRST_INDEX = FIELD_INDEX;
      182    20743    6                       IF FIELD_INDEX > FIELD_LAST_INDEX
      183    20744    6                       THEN
      184    20745    6                         FIELD_LAST_INDEX = FIELD_INDEX;
      185    20746
      186    20747    6                     END FIELD_IS_ENABLED;
      187    20748
      188    20749    5                 END FIELD_IS_PROPER_IO_TYPE;
      189    20750
      190    20751    4   SKIP:
      191    20752    4               GZ_FIELD$ = PINCRW ( GZ_FIELD$, SIZEW (QI$GZ_FIELD) );
PL6.E3A0      #001=QCI$IO_READ File=QCI$IO_READ.:E05TSI                          WED 07/30/97 05:10 Page:9
      192    20753
      193    20754    4             END SELECT_THE_PROPER_FIELDS;
      194    20755
      195    20756    3           END FRAME_IS_ACTIVE;
      196    20757
      197    20758    2       END CHECK_ALL_THE_FRAMES;
      198    20759
      199    20760    1       IF WE_SELECTED_ONE
      200    20761    1       THEN
      201    20762    2         DO;
      202    20763
      203    20764    2           QI_1.SCREEN_UPDATE_FLAGS = %NO;
      204    20765
      205    20766    2           FPT@READ = QI_FPT_READ;
      206    20767    2           VBASE ( FPT@READ.V_ ) = ADDR ( FPT@READ.V );
      207    20768    2           FPT@READ.V.DCB# = GZ_HEADER$ -> QI$GZ_HEADER.DCB#;
      208    20769    2           VBASE ( FPT@READ.BUF_ ) = QI_1.OTTER_SPACE.T$;
      209    20770    2           VBOUND ( FPT@READ.BUF_ ) = %QI#MAXIMUM_FIELD_LENGTH - 1;
      210    20771
      211    20772    2           IF QCI@IO_READ.IS_CURSOR_POSITION_VALID
      212    20773    2           THEN
      213    20774    2   SPECIFY_CURSOR_FIELD:
      214    20775    3             DO;
      215    20776    3               FPT@READ.V.KEYS = %YES;
      216    20777    3               FPT@READ.KEY_ = VECTOR ( QCI@IO_READ.CURSOR_POSITION );
      217    20778    3             END SPECIFY_CURSOR_FIELD;
      218    20779
      219    20780    2   READ_SELECTED_FIELDS:
      220    20781    3           DO %FOREVER;
      221    20782
      222    20783    3             CALL QGB$READ ( FPT@READ, QGB_PARAM )
      223    20784    3             WHENALTRETURN
      224    20785    4               DO;
      225    20786
      226    20787    4                 IF QGB_PARAM.ERR.ERR# = %E$EOF
      227    20788    4                 THEN
      228    20789    4                   EXIT READ_SELECTED_FIELDS;
PL6.E3A0      #001=QCI$IO_READ File=QCI$IO_READ.:E05TSI                          WED 07/30/97 05:10 Page:10
      229    20790
      230    20791                    /*  Something's wrong.
      231    20792                        Since INVALID clauses are allowed on READ statments,
      232    20793                        QCU$USE may either execute the INVALID imperatives
      233    20794                        or blow the program away.  */
      234    20795    4                 QI_1.ERROR_STATUS = %E$FORM_READ_ERROR;
      235    20796
      236    20797    4                 QCU@USE.CURR_NODE$ = ADDR (NIL);
      237    20798    4                 QCU@USE.CURR_FRAME$ = ADDR (NIL);
      238    20799    4                 QCU@USE.IS_TIME_TO_SAVE_AWAY_FIELDS = %YES;
      239    20800    4                 QCU@USE.FRAME_START_INDEX = QCI@IO_READ.FRAME_START_INDEX;
      240    20801    4                 QCU@USE.FRAME_STOP_INDEX = QCI@IO_READ.FRAME_STOP_INDEX;
      241    20802    4                 QCU@USE.IS_FIELD_INDEXES_VALID = %YES;
      242    20803    4                 QCU@USE.FIELD_START_INDEX = QCI@IO_READ.FIELD_START_INDEX;
      243    20804    4                 QCU@USE.FIELD_STOP_INDEX = QCI@IO_READ.FIELD_STOP_INDEX;
      244    20805    4                 QCU@USE.USE_DEFAULT_IO = %QI#USE_DEFAULT_INPUT;
      245    20806
      246    20807    4                 CALL QCU$USE_INVALID_IO ( QCU@USE );
      247    20808
      248    20809    5                 DO CASE ( QCU@USE.STATUS );
      249    20810
      250    20811    5                   CASE ( %QI#USE_INVALID_RETURN );
      251    20812    5                     QCI@IO_READ.STATUS = %QI#USE_INVALID_RETURN;
      252    20813    5                     RETURN;
      253    20814
      254    20815    5                   CASE ( %QI#USE_INVALID_RETRY );
      255    20816        /*
      256    20817              You're asking:  "Well, let's say the USE PROCEDURE stuff does
      257    20818              eventually work.  How do we retry a (possibly multiple) field
      258    20819              read after an IO error?".  I dunno.  Perhaps the field in error,
      259    20820              and all subsequent fields, should be reread.
      260    20821        */
      261    20822    5                     CALL QCE$ERROR_INTERNAL ( %E$INTERNAL_INTERPRETER_ERROR );
      262    20823
      263    20824    5                   CASE ( %QI#USE_INVALID_SKIP_TO_NEXT );
      264    20825        /*
      265    20826              You're asking:  "Well, let's say the USE PROCEDURE stuff does
PL6.E3A0      #001=QCI$IO_READ File=QCI$IO_READ.:E05TSI                          WED 07/30/97 05:10 Page:11
      266    20827              eventually work.  How do we skip a field on a (possibly multiple) field
      267    20828              read after an IO error?".  I dunno.  Perhaps all subsequent fields,
      268    20829              after the field in error, should be reread.
      269    20830        */
      270    20831    5                     CALL QCE$ERROR_INTERNAL ( %E$INTERNAL_INTERPRETER_ERROR );
      271    20832
      272    20833    5                   CASE ( ELSE );
      273    20834    5                     CALL QCE$ERROR_INTERNAL ( %E$INTERNAL_INTERPRETER_ERROR );
      274    20835
      275    20836    5                 END;
      276    20837
      277    20838    4               END;
      278    20839
      279    20840    3   FIND_THAT_JUST_READ_FIELD:
      280    20841    3             DO FRAME_INDEX =
      281    20842    4               QCI@IO_READ.FRAME_START_INDEX TO QCI@IO_READ.FRAME_STOP_INDEX;
      282    20843
      283    20844                    %PROC_ADDRESS ( THING@P =
             20844                        "QI_1.CURRENT.FORM$ -> QI$FORM_FILE.FRAME_LIST_A@P ( FRAME_INDEX )",
      284    20845                    CHECK_FOR_INDIRECTION = NO,
      285    20846                    RESULT$ = FRAME$ );
      286    20883
      287    20884                    %DATA_ADDRESS ( THING@D = "FRAME$ -> QI$FRAME.STATUS_AREA@D",
      288    20885                    CHECK_FOR_INDIRECTION = NO,
      289    20886                    RESULT$ = FRAME_STATUS$ );
      290    20923
      291    20924    4               IF FRAME_STATUS$ -> QI$FRAME_STATUS.INDICATORS.IS_ACTIVE
      292    20925    4                 AND FRAME_STATUS$ -> QI$FRAME_STATUS.GZ.FLDID_START <=
      293    20926    4                 QGB_PARAM.FLDID
      294    20927    4                 AND FRAME_STATUS$ -> QI$FRAME_STATUS.GZ.FLDID_STOP >=
      295    20928    4                 QGB_PARAM.FLDID
      296    20929    4               THEN
      297    20930    4   FOUND_THAT_JUST_READ_FIELD:
      298    20931    5                 DO;
      299    20932    5                   GZ_HEADER$ = FRAME_STATUS$ -> QI$FRAME_STATUS.GZ.HEADER$;
      300    20933    5                   FIELD_INDEX = QGB_PARAM.FLDID
      301    20934    5                     - FRAME_STATUS$ -> QI$FRAME_STATUS.GZ.FLDID_START;
PL6.E3A0      #001=QCI$IO_READ File=QCI$IO_READ.:E05TSI                          WED 07/30/97 05:10 Page:12
      302    20935    5                   GZ_FIELD$ = PINCRW ( FRAME_STATUS$ -> QI$FRAME_STATUS.GZ.START$,
      303    20936    5                     FIELD_INDEX * SIZEW (QI$GZ_FIELD) );
      304    20937
      305    20938    5                   IF QI_1.CURRENT.FORM$ -> QI$FORM_FILE.WORD0_FLAGS.
             20938                            IS_ACTIVATION_STATUS_VALID
      306    20939    5                     AND QGB_PARAM.DVE.EOMCHAR ~= %G_EOM_EOR#
      307    20940    5                   THEN
      308    20941    5   UPDATE_SILLY_ACTIVATION_STATUS:
      309    20942    6                     DO;
      310    20943    6                       QI@ACTIVATION_STATUS.ACTIVATION_CHARACTER =
      311    20944    6                         QGB_PARAM.DVE.EOMCHAR;
      312    20945    6                       CALL BINCHAR ( QI@ACTIVATION_STATUS.ACTIVATION_POSITION,
      313    20946    6                         QGB_PARAM.ACTPOS );
      314    20947    6                       CALL BINCHAR ( QI@ACTIVATION_STATUS.ACTIVATION_LINE,
      315    20948    6                         GZ_FIELD$ -> QI$GZ_FIELD.DESCRIPTION.POSITION.LINE );
      316    20949    6                       CALL BINCHAR ( QI@ACTIVATION_STATUS.ACTIVATION_COLUMN,
      317    20950    6                         GZ_FIELD$ -> QI$GZ_FIELD.DESCRIPTION.POSITION.COLUMN );
      318    20951                            %PROC_ADDRESS ( THING@P =
             20951              "GZ_FIELD$ -> QI$GZ_FIELD.DESCRIPTION.FIELD_DAD$ -> QI$FIELD_DAD.IDENTIFIER@P"
             20951                                ,
      319    20952                            CHECK_FOR_INDIRECTION = NO,
      320    20953                            RESULT$ = FIELD_IDENTIFIER$ );
      321    20990    6                       QI@ACTIVATION_STATUS.ACTIVATION_FIELD =
      322    20991    6                         FIELD_IDENTIFIER$ -> QI$VARIABLE_IDENTIFIER.TEXT;
      323    20992
      324    20993    6                       QI_1.SOURCE$ = ADDR ( QI_1.CURRENT.FORM$ -> QI$FORM_FILE.
             20993                                ACTIVATION_STATUS@P );
      325    20994    6                       CALL QCS$SETUP_TARGET;
      326    20995
      327    20996    6                       PINCRC ( QI_1.OP.DATA.T$, QI_1.OFFSET.T ) ->
      328    20997    6                         QI$VARIABLE_STRING_TARGET.TEXT =
      329    20998    6                         QI@ACTIVATION_STATUS_TEXT;
      330    20999    6                     END UPDATE_SILLY_ACTIVATION_STATUS;
      331    21000
      332    21001    5                   VARIABLE_SOURCE$ = QI_1.OTTER_SPACE.T$;
      333    21002    5                   QI_1.OP.LEN.S = QGB_PARAM.ARS;
      334    21003    5                   VARIABLE_TARGET$ = PINCRC ( GZ_FIELD$ -> QI$GZ_FIELD.STATUS.DATA$,
PL6.E3A0      #001=QCI$IO_READ File=QCI$IO_READ.:E05TSI                          WED 07/30/97 05:10 Page:13
      335    21004    5                     GZ_FIELD$ -> QI$GZ_FIELD.STATUS.OFFSET );
      336    21005
      337    21006                        /*  There's a bit of history behind this IF statement...
      338    21007                            it's checking to see if the A-O-I-M clause on a field
      339    21008                            should be honored, i.e., if the field's new contents
      340    21009                            should be checked against the old ones in determining
      341    21010                            if it's to be placed in the AVAILABLE state.
      342    21011                            If no I-O was done to this field yet (this is the first
      343    21012                            read in which it was ENABLED for INPUT or I-O), then
      344    21013                            it should be made AVAILABLE.  Also, if it has been
      345    21014                            CLEARed (STATUS.LENGTH = 0), then make it available
      346    21015                            on this READ.  See stars 23661 and 27274 for previous
      347    21016                            goofs at this particular check.  */
      348    21017    5                   IF GZ_FIELD$ -> QI$GZ_FIELD.DESCRIPTION.IS_AOIM
      349    21018    5                     AND GZ_FIELD$ -> QI$GZ_FIELD.STATUS.WAS_IO_EVER_DONE
      350    21019    5                     AND GZ_FIELD$ -> QI$GZ_FIELD.STATUS.LENGTH > 0
      351    21020    5                   THEN
      352    21021    5   CHECK_THAT_AOIM_FIELD:
      353    21022    6                     DO;
      354    21023    6                       QI_1.OP.LEN.T = QI_1.OP.LEN.S;
      355    21024
      356    21025    6                       IF VARIABLE_SOURCE$ -> QI$VARIABLE_STRING_SOURCE.TEXT =
      357    21026    6                         VARIABLE_TARGET$ -> QI$VARIABLE_STRING_TARGET.TEXT
      358    21027    6                       THEN
      359    21028    6                         EXIT FIND_THAT_JUST_READ_FIELD;
      360    21029    6                     END CHECK_THAT_AOIM_FIELD;
      361    21030
      362    21031    5                   QI_1.OP.LEN.T = GZ_FIELD$ -> QI$GZ_FIELD.DESCRIPTION.LENGTH;
      363    21032
      364    21033    5                   VARIABLE_TARGET$ -> QI$VARIABLE_STRING_TARGET.TEXT =
      365    21034    5                     VARIABLE_SOURCE$ -> QI$VARIABLE_STRING_SOURCE.TEXT;
      366    21035
      367    21036    5                   GZ_FIELD$ -> QI$GZ_FIELD.STATUS.IS_AOIM_MODIFIED = %YES;
      368    21037    5                   GZ_FIELD$ -> QI$GZ_FIELD.STATUS.LENGTH = QI_1.OP.LEN.S;
      369    21038    5                   EXIT FIND_THAT_JUST_READ_FIELD;
      370    21039    5                 END FOUND_THAT_JUST_READ_FIELD;
      371    21040
PL6.E3A0      #001=QCI$IO_READ File=QCI$IO_READ.:E05TSI                          WED 07/30/97 05:10 Page:14
      372    21041    4             END FIND_THAT_JUST_READ_FIELD;
      373    21042
      374    21043    3             FPT@READ.V.KEYS = %NO;
      375    21044
      376    21045    3           END READ_SELECTED_FIELDS;
      377    21046
      378    21047    2         END;
      379    21048
      380    21049    1       QCI@IO_READ.FRAME_START_INDEX = FRAME_FIRST_INDEX;
      381    21050    1       QCI@IO_READ.FRAME_STOP_INDEX = FRAME_LAST_INDEX;
      382    21051    1       IF FRAME_FIRST_INDEX = FRAME_LAST_INDEX
      383    21052    1       THEN
      384    21053    2         DO;
      385    21054    2           QCI@IO_READ.IS_FIELD_INDEXES_VALID = %YES;
      386    21055    2           QCI@IO_READ.FIELD_START_INDEX = FIELD_FIRST_INDEX;
      387    21056    2           QCI@IO_READ.FIELD_STOP_INDEX = FIELD_LAST_INDEX;
      388    21057    2         END;
      389    21058    1       ELSE
      390    21059    1         QCI@IO_READ.IS_FIELD_INDEXES_VALID = %NO;
      391    21060    1       QCI@IO_READ.STATUS = %QI#USE_INVALID_OK;
      392    21061
      393    21062    1       RETURN;
      394    21063
      395    21064    1   END QCI$IO_READ;

PL6.E3A0      #001=QCI$IO_READ File=QCI$IO_READ.:E05TSI                          WED 07/30/97 05:10 Page:15
--  Include file information  --

   QCU_USE_M.:E05TOU  is referenced.
   QCI_IO_READ_M.:E05TOU  is referenced.
   QI_MACROS_M.:E05TOU  is referenced.
   QI_PERR_C.:E05TOU  is referenced.
   QI_EQUATES_E.:E05TOU  is referenced.
   QG_MACRO_M.:E05TOU  is referenced.
   LCP_6.:E05TOU  cannot be made into a system file and is referenced.
   B_ERRORS_C.:E05TOU  is referenced.
   G_LCP6_E.:E05TOU  was found in the system file and is referenced.
   GT_LCP6_M.:E05TOU  was found in the system file and is referenced.
   KI_CP6.:E05TOU  was found in the system file and is referenced.
   GF_LCP6_M.:E05TOU  was found in the system file and is referenced.
   GM_LCP6_M.:E05TOU  was found in the system file and is referenced.
   GU_LCP6_M.:E05TOU  was found in the system file and is referenced.
   GJ_LCP6_M.:E05TOU  was found in the system file and is referenced.
   GH_LCP6_M.:E05TOU  was found in the system file and is referenced.
      No diagnostics issued in procedure QCI$IO_READ.

   Procedure QCI$IO_READ requires 840 words for executable code.
   Procedure QCI$IO_READ requires 95 words of local(AUTO) storage.

    No errors detected in file QCI$IO_READ.:E05TSI    .

PL6.E3A0      #001=QCI$IO_READ File=QCI$IO_READ.:E05TSI                          WED 07/30/97 05:10 Page:16

 Object Unit name= QCI$IO_READ                                File name= QCI$IO_READ.:E05TOU
 UTS= JUL 30 '97 05:10:11.00 WED                              Compiler= PL-6/E31         Sev=      00
 SharedLib= :SHARED_LCP6_SYSTEM                               Alt SharedLib=


    ****  Control sections  ****

 Sect   Type Bound  Init  Size HexSiz  Section name
    0  RoData even  UTS      1      1  QCI$IO_READ
    1   Proc  even  none   840    348  QCI$IO_READ
    2  RoData even  none     8      8  QCI$IO_READ

    ****  Entry defs  ****

                              Check   Calling
                             calling  sequence
  Sect HexLoc Primary Altret sequence   type   Parms  Name
     1      0   yes            yes      Std        1  QCI$IO_READ

  ****  Entry refs  ****

         Check        Calling
        calling       sequence
Altret sequence SRef   type   Args  Name
         yes           Std       4 QCE$ERROR_INTERNAL
 yes     yes           Std       2 QGB$SLCFLD
         yes           Std       4 QCE$ERROR_M$INTERNAL
         yes           Std       0 QCS$SETUP_TARGET
 yes     yes           Std       2 QGB$READ
         yes           Std       1 QCU$USE_INVALID_IO
                       nStd      0 X6A_AUTO_1
                       nStd      0 X6D_MID
                       nStd      0 X6A_ARET
                       nStd      0 X6C_ALR
                       nStd      0 X6C_ACM
PL6.E3A0      #001=QCI$IO_READ File=QCI$IO_READ.:E05TSI                          WED 07/30/97 05:10 Page:17

  ****  Data refs  ****

  Flags:  r = read only, s = secondary
Flgs Name                             Flgs Name                             Flgs Name
     QI_1                                  QGB_PARAM                             QI_4_CHAR_ALPHANUMERIC
     QI_31_DIGIT_SLS_DISPLAY               QI_16_BIT_BINARY                      QI_32_BIT_BINARY
     QI_31_DIGIT_ST_PACKED                 QI_PICTURE_STRING                     QI_FPT_READ
     QI_FPT_SLCFLD                    r    G$ROS$
PL6.E3A0      #001=QCI$IO_READ File=QCI$IO_READ.:E05TSI                          WED 07/30/97 05:10 Page:18


        1        1        /*M* QCI$IO_READ:  Monitor CALLs for screen READ/ACCEPT.  */
        2        2        /*T***********************************************************/
        3        3        /*T*                                                         */
        4        4        /*T* Copyright (c) Bull HN Information Systems Inc., 1997    */
        5        5        /*T*                                                         */
        6        6        /*T***********************************************************/
        7        7        /*X* DMC,PLM=4,IND=0,DCI=4,CSI=2,IAD=2,DTI=2,AND,ECI=0,DIN=2,STI=2 */
        8        8
        9        9        /*P*  NAME:         QCI$IO_READ
       10       10              PURPOSE:      Execute monitor calls to read fields.
       11       11              DESCRIPTION:  M$SLCFLD, M$MDFFLD and M$READ are used to perform
       12       12                            input through fields which have already been M$DCLFLDed
       13       13                            (i.e., which are in an ACTIVATEd frame).
       14       14        */
       15       15
       16       16        QCI$IO_READ: PROC ( QCI@IO_READ );

     16   1 000000  D380 0000 0000  xent QCI$IO_READ     LNJ,B5   X6A_AUTO_1
          1 000003       005F 0001                       DC       95,1

       17       17
       18       18        /*D*  NAME:         QCI$IO_READ
       19       19              CALL:         CALL QCI$IO_READ ( QCI@IO_READ );
       20       20              PARAMETERS:   QCI@IO_READ is a structure which contains information
       21       21                            concerning the read to be performed; it's generated
       22       22                            by invoking the QCI@IO_READ %MACRO within the QCI_IO_READ_M
       23       23                            %INCLUDE file (see commentary within that file).
       24       24              INTERFACE:    Called by routines wishing to perform non-message-line
       25       25                            input:  QBA$ACCEPT, QBR$READ_FORM.
       26       26              ENVIRONMENT:  Nothing unusual.
       27       27              INPUT:        QI_1, etc.
       28       28              OUTPUT:       QI_1, etc.
       29       29              SCRATCH:      Various otter stuff.
       30       30              DESCRIPTION:  The calling routine (ACCEPT or READ_FORM) sets up the
       31       31                            starting and stopping indices for both frames within the
       32       32                            form to be read, and fields within those frames to be
PL6.E3A0      #001=QCI$IO_READ File=QCI$IO_READ.:E05TSI                          WED 07/30/97 05:10 Page:19
       33       33                            read.  Each of those fields is then tested for:
       34       34                            1)  proper I-O type (INPUT or I-O);
       35       35                            2)  ENABLEd for INPUT or I-O.
       36       36                            Those fields which pass both tests are then read.
       37       37        */
       38       38
       39       39          %INCLUDE B_ERRORS_C;
       40     1166          %INCLUDE LCP_6;
       41     1357          %FPT_READ ( FPTN = FPT@READ,
       42     1358                      STCLASS = AUTO );
       43     1384          %FPT_SLCFLD ( FPTN = FPT@SLCFLD,
       44     1385                        STCLASS = AUTO );
       45     1417
       46     1418          %INCLUDE QG_MACRO_M;
       47     1555          %QGB_ENTRIES;
       48     1568          %INCLUDE QI_EQUATES_E;
       49     1927          %INCLUDE QI_PERR_C;
       50     2095          %INCLUDE QI_MACROS_M;
       51     7153          %QI$ALL;
       52    18266          %QI_FPTS;
       53    20311
       54    20312    1     DCL FIELD_FIRST_INDEX UBIN;
       55    20313    1     DCL FIELD_IDENTIFIER$ PTR;
       56    20314    1     DCL FIELD_INDEX UBIN;
       57    20315    1     DCL FIELD_LAST_INDEX UBIN;
       58    20316    1     DCL FRAME$ PTR;
       59    20317    1     DCL FRAME_FIRST_INDEX UBIN;
       60    20318    1     DCL FRAME_INDEX UBIN;
       61    20319    1     DCL FRAME_LAST_INDEX UBIN;
       62    20320    1     DCL FRAME_STATUS$ PTR;
       63    20321    1     DCL GZ_FIELD$ PTR;
       64    20322    1     DCL GZ_HEADER$ PTR;
       65    20323    1     DCL VARIABLE_SOURCE$ PTR;
       66    20324    1     DCL VARIABLE_TARGET$ CPTR;
       67    20325    1     DCL WE_SELECTED_ONE BIT(1) ALIGNED;
       68    20326
       69    20327    1     DCL QCE$ERROR_INTERNAL ENTRY (4);
PL6.E3A0      #001=QCI$IO_READ File=QCI$IO_READ.:E05TSI                          WED 07/30/97 05:10 Page:20
       70    20328    1     DCL QCE$ERROR_M$INTERNAL ENTRY (4);
       71    20329    1     DCL QCS$SETUP_TARGET ENTRY;
       72    20330    1     DCL QCU$USE_INVALID_IO ENTRY (1);
       73    20331
       74    20332          %SET LISTMAC = '1'B;
       75    20333
       76    20334          %INCLUDE QCI_IO_READ_M;
       77    20374          %QCI@IO_READ;
             20375            %BEGIN_MACRO ( STCLASS = STCLASS );
             20376            %SET LISTDIR = '0'B;
             20389    1     DCL 1 QCI@IO_READ ALIGNED,
             20390    1           2 FRAME_START_INDEX UBIN,
             20391                          /* Starting index into QI$FORM_FILE.FRAME_LIST_A@P.  */
             20392    1           2 FRAME_STOP_INDEX UBIN,
             20393                          /* Stopping index into QI$FORM_FILE.FRAME_LIST_A@P.  */
             20394    1           2 IS_FIELD_INDEXES_VALID BIT(1) ALIGNED,
             20395                          /* If IS_FIELD_INDEXES_VALID, use them;
             20396                             else use all the fields in the frame.  */
             20397    1           2 FIELD_START_INDEX UBIN,
             20398                          /* Starting index into QI$GZ_FIELD table.  */
             20399    1           2 FIELD_STOP_INDEX UBIN,
             20400                          /* Stopping index into QI$GZ_FIELD table.  */
             20401    1           2 IS_CURSOR_POSITION_VALID BIT(1) ALIGNED,
             20402                          /* If IS_CURSOR_POSITION_VALID, use it;
             20403                             else allow cursor to default to upper-left-most field.  */
             20404    1           2 CURSOR_POSITION BIT(16) ALIGNED,
             20405                          /* POSition of the field on which to place the cursor.  */
             20406    1           2 STATUS UBIN,
             20407                          /* Returned status code:  0 -> Immediate return to level 0;
             20408                                                   >0 -> Status is ok.  */
             20409    1           2 FIELD_ERROR_STOP_INDEX UBIN;
             20410                          /* Passed index for QCG$GET_FIELD processing.  */
             20417            %ENDIF;
       78    20420
       79    20421          %INCLUDE QCU_USE_M;
       80    20475          %QCU@USE;
             20476            %BEGIN_MACRO;
PL6.E3A0      #001=QCI$IO_READ File=QCI$IO_READ.:E05TSI                          WED 07/30/97 05:10 Page:21
             20477            %SET LISTDIR = '0'B;
             20490    1     DCL 1 QCU@USE AUTO ALIGNED,
             20491    1           2 CURR_FRAME$ PTR,
             20492                          /* Pointer to DAD of current frame or ADDR (NIL).  */
             20493    1           2 CURR_NODE$ PTR,
             20494                          /* Pointer to current node or ADDR (NIL).  */
             20495    1           2 USE_DEFAULT_IO UBIN,
             20496                          /* For USE procedures which default applies
             20497                             (see corresponding EQUs).  */
             20498    1           2 IS_TIME_TO_SAVE_AWAY_FIELDS BIT(1) ALIGNED,
             20499                          /* If IS_TIME_TO_SAVE_AWAY_FIELDS, then
             20500                             save the fields within the bounds of
             20501                             FRAME_START_INDEX, FRAME_STOP_INDEX,
             20502                             FIELD_START_INDEX, and FIELD_STOP_INDEX
             20503                             before calling the USE procedure.  */
             20504    1           2 FRAME_START_INDEX UBIN,
             20505                          /* Foist frame of the CURRENT.FORM$
             20506                             involved with the I-O error.  */
             20507    1           2 FRAME_STOP_INDEX UBIN,
             20508                          /* Larst frame of the CURRENT.FORM$
             20509                             involved with the I-O error.  */
             20510    1           2 IS_FIELD_INDEXES_VALID BIT(1) ALIGNED,
             20511                          /* If IS_FIELD_INDEXES_VALID, use them;
             20512                             else use all the fields in the frame.  */
             20513    1           2 FIELD_START_INDEX UBIN,
             20514                          /* Starting index into QI$GZ_FIELD
             20515                             which may have values "pushed".  */
             20516    1           2 FIELD_STOP_INDEX UBIN,
             20517                          /* Stopping index into QI$GZ_FIELD
             20518                             which may have values "pushed".  */
             20519    1           2 IS_CURSOR_POSITION_VALID BIT(1) ALIGNED,
             20520                          /* If IS_CURSOR_POSITION_VALID, use it;
             20521                             else allow cursor to default to upper-left-most field.  */
             20522    1           2 CURSOR_POSITION BIT(16) ALIGNED,
             20523                          /* POSition of the field on which to place the cursor.  */
             20524    1           2 STATUS UBIN;
             20525                          /* Returned action code; see corresponding EQUs.  */
PL6.E3A0      #001=QCI$IO_READ File=QCI$IO_READ.:E05TSI                          WED 07/30/97 05:10 Page:22
             20532            %ENDIF;
       81    20535
       82    20536          %QI$ACTIVATION_STATUS ( NAME = QI@ACTIVATION_STATUS,
       83    20537                                  STCLASS = AUTO );
             20538            %BEGIN_MACRO ( STCLASS = STCLASS );
             20539            %SET LISTDIR = '0'B;
             20552        /*    Although the compiler never explicitly generates this,
             20553              it's implicitly the largest possible *thing* to say
             20554              ACTIVATION STATUS IS *thing*
             20555              about.  See the FPL manual under the SELECT clause.
             20556        */
             20557    1     DCL 1 QI@ACTIVATION_STATUS AUTO CALIGNED,
             20558    1           2 ACTIVATION_CHARACTER CHAR(1) CALIGNED,
             20559    1           2 ACTIVATION_POSITION CHAR(3) CALIGNED,
             20560    1           2 ACTIVATION_LINE CHAR(3) CALIGNED,
             20561    1           2 ACTIVATION_COLUMN CHAR(3) CALIGNED,
             20562    1           2 ACTIVATION_FIELD CHAR(30) CALIGNED;
             20563    1     DCL 1 QI@ACTIVATION_STATUS_TEXT REDEF QI@ACTIVATION_STATUS CHAR(40);
             20570            %ENDIF;
       84    20573
       85    20574          %SET LISTMAC = '0'B;
       86    20575        %EJECT;
PL6.E3A0      #001=QCI$IO_READ File=QCI$IO_READ.:E05TSI                          WED 07/30/97 05:10 Page:23
       87    20576        /*
       88    20577              Anyone calling QCI$IO_READ should have their act together
       89    20578              as far as open forms are concerned.  A closed form at this
       90    20579              point is therefore considered an internal error.
       91    20580              QCF$FIND_CURRENTS should have been called @sometime previous.
       92    20581        */
       93    20582            %IF QI#DEBUG;
       94    20583
       95    20584    1       IF QI_1.CURRENT.FORM$ = ADDR (NIL)

  20584   1 000005  8D80 0000 0076  xsym                 CMN      QI_1+118
          1 000008  0901 0006                            BE       s:20587,PREL
          1 00000A  8D80 0000 0078  xsym                 CMN      QI_1+120
          1 00000D  0981 000A                            BNE      s:20589,PREL

       96    20585    1         OR QI_1.CURRENT.FORM_STATUS$ = ADDR (NIL)
       97    20586    1       THEN
       98    20587    1         CALL QCE$ERROR_INTERNAL ( %E$INTERNAL_INTERPRETER_ERROR );

  20587   1 00000F  BB80 0000 0001  02                   LAB,B3   +1
          1 000012  CBF0 0100                            LAB,B4   256,IMO
          1 000014  E380 0000 0000  xent                 LNJ,B6   QCE$ERROR_INTERNAL
          1 000017       0001                            DC       s:20589,PREL

       99    20588
      100    20589    1       IF NOT QI_1.CURRENT.FORM_STATUS$ -> QI$FORM_STATUS.INDICATORS.OPEN_FLAGS.
             20589                IS_INPUT

  20589   1 000018  EC80 0000 0078  xsym                 LDB,B6   QI_1+120
          1 00001B  82C6 0008                            LB,'0200'X        8,B6
          1 00001D       0200
          1 00001E  0501 000A                            BBT      s:20595,PREL

      101    20590    1       THEN
      102    20591    1         CALL QCE$ERROR_INTERNAL ( %E$INTERNAL_INTERPRETER_ERROR );

  20591   1 000020  BB80 0000 0001  02                   LAB,B3   +1
PL6.E3A0      #001=QCI$IO_READ File=QCI$IO_READ.:E05TSI                          WED 07/30/97 05:10 Page:24
          1 000023  CBF0 0100                            LAB,B4   256,IMO
          1 000025  E380 0000 0000  xent                 LNJ,B6   QCE$ERROR_INTERNAL
          1 000028       0001                            DC       s:20595,PREL

      103    20592
      104    20593            %ENDIF;
      105    20594
      106    20595    1       WE_SELECTED_ONE = %NO;

  20595   1 000029  8747 0034                            CL       WE_SELECTED_ONE,AUTO

      107    20596
      108    20597    1       FPT@SLCFLD = QI_FPT_SLCFLD;

  20597   1 00002B  AB80 0000 0000  xsym                 LAB,B2   QI_FPT_SLCFLD
          1 00002E  2C00                                 LDV,R2   0
          1 00002F  6C10                                 LDV,R6   16
          1 000030  BB87                                 LAB,B3   ,AUTO
          1 000031  3C30                                 LDV,R3   48
          1 000032  0008                                 MMM

      109    20598    1       VBASE ( FPT@SLCFLD.V_ ) = ADDR ( FPT@SLCFLD.V );

  20598   1 000033  EBC7 001E                            LAB,B6   FPT@SLCFLD+6,AUTO
          1 000035  EFC7 0019                            STB,B6   FPT@SLCFLD+1,AUTO

      110    20599
      111    20600    1       FRAME_FIRST_INDEX = %QI#SOME_HUGE_NUMBER;

  20600   1 000037  8947 0027                            LBT,'FFFF'X       FRAME_FIRST_INDEX,AUTO
  20600   1 000039       FFFF

      112    20601    1       FRAME_LAST_INDEX = 0;

  20601   1 00003A  8747 0029                            CL       FRAME_LAST_INDEX,AUTO

      113    20602    1       FIELD_FIRST_INDEX = %QI#SOME_HUGE_NUMBER;
PL6.E3A0      #001=QCI$IO_READ File=QCI$IO_READ.:E05TSI                          WED 07/30/97 05:10 Page:25

  20602   1 00003C  8947 0020                            LBT,'FFFF'X       FIELD_FIRST_INDEX,AUTO
  20602   1 00003E       FFFF

      114    20603    1       FIELD_LAST_INDEX = 0;

  20603   1 00003F  8747 0024                            CL       FIELD_LAST_INDEX,AUTO

      115    20604
      116    20605    1   CHECK_ALL_THE_FRAMES:
      117    20606    1       DO FRAME_INDEX =
      118    20607    2         QCI@IO_READ.FRAME_START_INDEX TO QCI@IO_READ.FRAME_STOP_INDEX;

  20607   1 000041  DCC7 0004            CHECK_ALL_THE_F*LDB,B5   @QCI@IO_READ,AUTO
          1 000043  E805                                 LDR,R6   ,B5
          1 000044  EF47 0028                            STR,R6   FRAME_INDEX,AUTO
          1 000046  0F81 00C1                            B        s:20758+2,PREL

      119    20608
      120    20609              %PROC_ADDRESS ( THING@P =
             20609                  "QI_1.CURRENT.FORM$ -> QI$FORM_FILE.FRAME_LIST_A@P ( FRAME_INDEX )",
      121    20610              CHECK_FOR_INDIRECTION = NO,
      122    20611              RESULT$ = FRAME$ );

  20629   1 000048  EC80 0000 0076  xsym                 LDB,B6   QI_1+118
          1 00004B  B847 0028                            LDR,R3   FRAME_INDEX,AUTO
          1 00004D  3E0B                                 ADV,R3   11
          1 00004E  A836                                 LDR,R2   ,B6,R3
          1 00004F  F852                                 LDR,R7   R2
          1 000050  6C00                                 LDV,R6   0
          1 000051  8400 0000 0002  xsym                 AID      QI_1+2
          1 000054  8D47 0025                            SDI      FRAME$,AUTO

      123    20648
      124    20649              %DATA_ADDRESS ( THING@D = "FRAME$ -> QI$FRAME.STATUS_AREA@D",
      125    20650              CHECK_FOR_INDIRECTION = NO,
      126    20651              RESULT$ = FRAME_STATUS$ );
PL6.E3A0      #001=QCI$IO_READ File=QCI$IO_READ.:E05TSI                          WED 07/30/97 05:10 Page:26

  20669   1 000056  DCC7 0025                            LDB,B5   FRAME$,AUTO
          1 000058  9845 0006                            LDR,R1   6,B5
          1 00005A  F851                                 LDR,R7   R1
          1 00005B  6C00                                 LDV,R6   0
          1 00005C  8400 0000 0000  xsym                 AID      QI_1
          1 00005F  8D47 002A                            SDI      FRAME_STATUS$,AUTO

      127    20688
      128    20689    2         IF FRAME_STATUS$ -> QI$FRAME_STATUS.INDICATORS.IS_ACTIVE

  20689   1 000061  CCC7 002A                            LDB,B4   FRAME_STATUS$,AUTO
          1 000063  89C4 000C                            CMZ      12,B4
          1 000065  0881 00A0                            BAGE     s:20758,PREL

      129    20690    2         THEN
      130    20691    2   FRAME_IS_ACTIVE:
      131    20692    3           DO;

  20692   1                              FRAME_IS_ACTIVE null
      132    20693
      133    20694    3             IF NOT QCI@IO_READ.IS_FIELD_INDEXES_VALID

  20694   1 000067  BCC7 0004            FRAME_IS_ACTIVE LDB,B3   @QCI@IO_READ,AUTO
          1 000069  89C3 0002                            CMZ      2,B3
          1 00006B  0801 0008                            BAL      s:20701,PREL

      134    20695    3             THEN
      135    20696    4               DO;

      136    20697    4                 QCI@IO_READ.FIELD_START_INDEX = FRAME_STATUS$ -> QI$FRAME_STATUS.GZ.
             20697                          FIELD_START_INDEX;

  20697   1 00006D  D804                                 LDR,R5   ,B4
          1 00006E  DF43 0003                            STR,R5   3,B3

      137    20698    4                 QCI@IO_READ.FIELD_STOP_INDEX = FRAME_STATUS$ -> QI$FRAME_STATUS.GZ.
PL6.E3A0      #001=QCI$IO_READ File=QCI$IO_READ.:E05TSI                          WED 07/30/97 05:10 Page:27
             20698                          FIELD_STOP_INDEX;

  20698   1 000070  C844 0001                            LDR,R4   1,B4
          1 000072  CF43 0004                            STR,R4   4,B3

      138    20699    4               END;

      139    20700
      140    20701    3             GZ_HEADER$ = FRAME_STATUS$ -> QI$FRAME_STATUS.GZ.HEADER$;

  20701   1 000074  ECC4 0004                            LDB,B6   4,B4
          1 000076  EFC7 002E                            STB,B6   GZ_HEADER$,AUTO

      141    20702    3             GZ_FIELD$ = PINCRW ( FRAME_STATUS$ -> QI$FRAME_STATUS.GZ.START$,

  20702   1 000078  B843 0003                            LDR,R3   3,B3
          1 00007A  ACC4 0006                            LDB,B2   6,B4
          1 00007C  AFC7 0058                            STB,B2   QI@ACTIVATION_STATUS+21,AUTO
          1 00007E  F853                                 LDR,R7   R3
          1 00007F  6C00                                 LDV,R6   0
          1 000080  9B80 0000 0003  02                   LAB,B1   +3
          1 000083  D380 0000 0000  xent                 LNJ,B5   X6D_MID
          1 000086  8447 0058                            AID      QI@ACTIVATION_STATUS+21,AUTO
          1 000088  8D47 002C                            SDI      GZ_FIELD$,AUTO

      142    20703    3               QCI@IO_READ.FIELD_START_INDEX * SIZEW (QI$GZ_FIELD) );
      143    20704
      144    20705    3   SELECT_THE_PROPER_FIELDS:
      145    20706    3             DO FIELD_INDEX =
      146    20707    4               QCI@IO_READ.FIELD_START_INDEX TO QCI@IO_READ.FIELD_STOP_INDEX;

  20707   1 00008A  ECC7 0004            SELECT_THE_PROP*LDB,B6   @QCI@IO_READ,AUTO
          1 00008C  D846 0003                            LDR,R5   3,B6
          1 00008E  DF47 0023                            STR,R5   FIELD_INDEX,AUTO
          1 000090  0F81 006D                            B        s:20754+2,PREL

      147    20708
PL6.E3A0      #001=QCI$IO_READ File=QCI$IO_READ.:E05TSI                          WED 07/30/97 05:10 Page:28
      148    20709    4               IF GZ_FIELD$ -> QI$GZ_FIELD.DESCRIPTION.IO_FLAGS.IS_INPUT

  20709   1 000092  ECC7 002C                            LDB,B6   GZ_FIELD$,AUTO
          1 000094  82C6 0002                            LB,'4000'X        2,B6
          1 000096       4000
          1 000097  0581 0060                            BBF      s:20749,PREL

      149    20710    4               THEN
      150    20711    4   FIELD_IS_PROPER_IO_TYPE:
      151    20712    5                 DO;

  20712   1                              FIELD_IS_PROPER*null
      152    20713
      153    20714    5                   IF GZ_FIELD$ -> QI$GZ_FIELD.INDICATORS$ -> QI$INDICATORS.
             20714                            ENABLED_FLAGS.IS_INPUT

  20714   1 000099  DC86                 FIELD_IS_PROPER*LDB,B5   ,B6
          1 00009A  8285                                 LB,'2000'X        ,B5
          1 00009B       2000
          1 00009C  0581 005B                            BBF      s:20749,PREL

      154    20715    5                   THEN
      155    20716    5   FIELD_IS_ENABLED:
      156    20717    6                     DO;

  20717   1                              FIELD_IS_ENABLEDnull
      157    20718    6                       GZ_FIELD$ -> QI$GZ_FIELD.OPERATION.IS_OPERATE = %YES;

  20718   1 00009E  8946 000B            FIELD_IS_ENABLEDLBT,'8000'X       11,B6
  20718   1 0000A0       8000

      158    20719
      159    20720    6                       WE_SELECTED_ONE = %YES;

  20720   1 0000A1  8947 0034                            LBT,'8000'X       WE_SELECTED_ONE,AUTO
  20720   1 0000A3       8000

PL6.E3A0      #001=QCI$IO_READ File=QCI$IO_READ.:E05TSI                          WED 07/30/97 05:10 Page:29
      160    20721
      161    20722    6                       FPT@SLCFLD.V.DCB# = GZ_HEADER$ -> QI$GZ_HEADER.DCB#;

  20722   1 0000A4  CCC7 002E                            LDB,B4   GZ_HEADER$,AUTO
          1 0000A6  E844 0003                            LDR,R6   3,B4
          1 0000A8  E7C7 001E                            STH,R6   FPT@SLCFLD+6,AUTO

      162    20723    6                      FPT@SLCFLD.KEY_ = VECTOR ( GZ_FIELD$ -> QI$GZ_FIELD.DESCRIPTION.
             20723                                POSITION );

  20723   1 0000AA  DBC6 0003                            LAB,B5   3,B6
          1 0000AC  DFC7 0059                            STB,B5   QI@ACTIVATION_STATUS+22,AUTO
          1 0000AE  6C01                                 LDV,R6   1
          1 0000AF  EF47 0058                            STR,R6   QI@ACTIVATION_STATUS+21,AUTO
          1 0000B1  ABC7 0058                            LAB,B2   QI@ACTIVATION_STATUS+21,AUTO
          1 0000B3  2C00                                 LDV,R2   0
          1 0000B4  6C06                                 LDV,R6   6
          1 0000B5  BB87                                 LAB,B3   ,AUTO
          1 0000B6  3C36                                 LDV,R3   54
          1 0000B7  0008                                 MMM

      163    20724
      164    20725    6                       CALL QGB$SLCFLD ( FPT@SLCFLD, QGB_PARAM )

  20725   1 0000B8  EB80 0000 0000  xsym                 LAB,B6   QGB_PARAM
          1 0000BB  EFC7 005A                            STB,B6   QI@ACTIVATION_STATUS+23,AUTO
          1 0000BD  DBC7 0018                            LAB,B5   FPT@SLCFLD,AUTO
          1 0000BF  DFC7 0058                            STB,B5   QI@ACTIVATION_STATUS+21,AUTO
          1 0000C1  BBC7 0058                            LAB,B3   QI@ACTIVATION_STATUS+21,AUTO
          1 0000C3  CBF0 0200                            LAB,B4   512,IMO
          1 0000C5  E380 0000 0000  xent                 LNJ,B6   QGB$SLCFLD
          1 0000C8       0003                            DC       s:20728,PREL
          1 0000C9  0F81 000A                            B        s:20731,PREL

      165    20726    6                       WHENALTRETURN
      166    20727    7                         DO;

PL6.E3A0      #001=QCI$IO_READ File=QCI$IO_READ.:E05TSI                          WED 07/30/97 05:10 Page:30
      167    20728    7                           CALL QCE$ERROR_M$INTERNAL ( %E$UNEXPECTED_ALTRET );

  20728   1 0000CB  BB80 0000 0006  02                   LAB,B3   +6
          1 0000CE  CBF0 0100                            LAB,B4   256,IMO
          1 0000D0  E380 0000 0000  xent                 LNJ,B6   QCE$ERROR_M$INTERNAL
          1 0000D3       0001                            DC       s:20731,PREL

      168    20729    7                         END;

      169    20730
      170    20731    6                       GZ_FIELD$ -> QI$GZ_FIELD.OPERATION.IS_DONE = %YES;

  20731   1 0000D4  ECC7 002C                            LDB,B6   GZ_FIELD$,AUTO
          1 0000D6  8946 000B                            LBT,'2000'X       11,B6
          1 0000D8       2000

      171    20732    6                       GZ_FIELD$ -> QI$GZ_FIELD.STATUS.IS_AOIM_MODIFIED = %NO;

  20732   1 0000D9  8846 0006                            LBF,'4000'X       6,B6
  20732   1 0000DB       4000

      172    20733
      173    20734    6                       IF FRAME_INDEX < FRAME_FIRST_INDEX

  20734   1 0000DC  E847 0028                            LDR,R6   FRAME_INDEX,AUTO
          1 0000DE  E947 0027                            CMR,R6   FRAME_FIRST_INDEX,AUTO
          1 0000E0  0281 0003                            BGE      s:20737,PREL

      174    20735    6                       THEN
      175    20736    6                         FRAME_FIRST_INDEX = FRAME_INDEX;

  20736   1 0000E2  EF47 0027                            STR,R6   FRAME_FIRST_INDEX,AUTO

      176    20737    6                       IF FRAME_INDEX > FRAME_LAST_INDEX

  20737   1 0000E4  E947 0029                            CMR,R6   FRAME_LAST_INDEX,AUTO
          1 0000E6  0381 0003                            BLE      s:20740,PREL
PL6.E3A0      #001=QCI$IO_READ File=QCI$IO_READ.:E05TSI                          WED 07/30/97 05:10 Page:31

      177    20738    6                       THEN
      178    20739    6                         FRAME_LAST_INDEX = FRAME_INDEX;

  20739   1 0000E8  EF47 0029                            STR,R6   FRAME_LAST_INDEX,AUTO

      179    20740    6                       IF FIELD_INDEX < FIELD_FIRST_INDEX

  20740   1 0000EA  D847 0023                            LDR,R5   FIELD_INDEX,AUTO
          1 0000EC  D947 0020                            CMR,R5   FIELD_FIRST_INDEX,AUTO
          1 0000EE  0281 0003                            BGE      s:20743,PREL

      180    20741    6                       THEN
      181    20742    6                         FIELD_FIRST_INDEX = FIELD_INDEX;

  20742   1 0000F0  DF47 0020                            STR,R5   FIELD_FIRST_INDEX,AUTO

      182    20743    6                       IF FIELD_INDEX > FIELD_LAST_INDEX

  20743   1 0000F2  D947 0024                            CMR,R5   FIELD_LAST_INDEX,AUTO
          1 0000F4  0381 0003                            BLE      s:20749,PREL

      183    20744    6                       THEN
      184    20745    6                         FIELD_LAST_INDEX = FIELD_INDEX;

  20745   1 0000F6  DF47 0024                            STR,R5   FIELD_LAST_INDEX,AUTO

      185    20746
      186    20747    6                     END FIELD_IS_ENABLED;

      187    20748
      188    20749    5                 END FIELD_IS_PROPER_IO_TYPE;

      189    20750
      190    20751    4   SKIP:
      191    20752    4               GZ_FIELD$ = PINCRW ( GZ_FIELD$, SIZEW (QI$GZ_FIELD) );

PL6.E3A0      #001=QCI$IO_READ File=QCI$IO_READ.:E05TSI                          WED 07/30/97 05:10 Page:32
  20752   1 0000F8  DBC6 000C            SKIP            LAB,B5   12,B6
          1 0000FA  DFC7 002C                            STB,B5   GZ_FIELD$,AUTO

      192    20753
      193    20754    4             END SELECT_THE_PROPER_FIELDS;

  20754   1 0000FC  8AC7 0023                            INC      FIELD_INDEX,AUTO
          1 0000FE  ECC7 0004                            LDB,B6   @QCI@IO_READ,AUTO
          1 000100  E847 0023                            LDR,R6   FIELD_INDEX,AUTO
          1 000102  E946 0004                            CMR,R6   4,B6
          1 000104  0381 FF8D                            BLE      s:20709,PREL

      194    20755
      195    20756    3           END FRAME_IS_ACTIVE;

      196    20757
      197    20758    2       END CHECK_ALL_THE_FRAMES;

  20758   1 000106  8AC7 0028                            INC      FRAME_INDEX,AUTO
          1 000108  ECC7 0004                            LDB,B6   @QCI@IO_READ,AUTO
          1 00010A  E847 0028                            LDR,R6   FRAME_INDEX,AUTO
          1 00010C  E946 0001                            CMR,R6   1,B6
          1 00010E  0381 FF39                            BLE      s:20629,PREL

      198    20759
      199    20760    1       IF WE_SELECTED_ONE

  20760   1 000110  89C7 0034                            CMZ      WE_SELECTED_ONE,AUTO
          1 000112  0881 0214                            BAGE     s:21049,PREL

      200    20761    1       THEN
      201    20762    2         DO;

      202    20763
      203    20764    2           QI_1.SCREEN_UPDATE_FLAGS = %NO;

  20764   1 000114  8800 0000 0016  xsym                 LBF,'F000'X       QI_1+22
PL6.E3A0      #001=QCI$IO_READ File=QCI$IO_READ.:E05TSI                          WED 07/30/97 05:10 Page:33
  20764   1 000117       F000

      204    20765
      205    20766    2           FPT@READ = QI_FPT_READ;

  20766   1 000118  AB80 0000 0000  xsym                 LAB,B2   QI_FPT_READ
          1 00011B  2C00                                 LDV,R2   0
          1 00011C  6C24                                 LDV,R6   36
          1 00011D  BB87                                 LAB,B3   ,AUTO
          1 00011E  3C0C                                 LDV,R3   12
          1 00011F  0008                                 MMM

      206    20767    2           VBASE ( FPT@READ.V_ ) = ADDR ( FPT@READ.V );

  20767   1 000120  DBC7 0015                            LAB,B5   FPT@READ+15,AUTO
          1 000122  DFC7 0007                            STB,B5   FPT@READ+1,AUTO

      207    20768    2           FPT@READ.V.DCB# = GZ_HEADER$ -> QI$GZ_HEADER.DCB#;

  20768   1 000124  CCC7 002E                            LDB,B4   GZ_HEADER$,AUTO
          1 000126  E844 0003                            LDR,R6   3,B4
          1 000128  E7C7 0015                            STH,R6   FPT@READ+15,AUTO

      208    20769    2           VBASE ( FPT@READ.BUF_ ) = QI_1.OTTER_SPACE.T$;

  20769   1 00012A  AC80 0000 0046  xsym                 LDB,B2   QI_1+70
          1 00012D  AFC7 000D                            STB,B2   FPT@READ+7,AUTO

      209    20770    2           VBOUND ( FPT@READ.BUF_ ) = %QI#MAXIMUM_FIELD_LENGTH - 1;

  20770   1 00012F  E870 00FF                            LDR,R6   255,IMO
          1 000131  EF47 000C                            STR,R6   FPT@READ+6,AUTO

      210    20771
      211    20772    2           IF QCI@IO_READ.IS_CURSOR_POSITION_VALID

  20772   1 000133  89C6 0005                            CMZ      5,B6
PL6.E3A0      #001=QCI$IO_READ File=QCI$IO_READ.:E05TSI                          WED 07/30/97 05:10 Page:34
          1 000135  0881 0012                            BAGE     s:20778,PREL

      212    20773    2           THEN
      213    20774    2   SPECIFY_CURSOR_FIELD:
      214    20775    3             DO;

  20775   1                              SPECIFY_CURSOR_*null
      215    20776    3               FPT@READ.V.KEYS = %YES;

  20776   1 000137  8947 0015            SPECIFY_CURSOR_*LBT,'0080'X       FPT@READ+15,AUTO
  20776   1 000139       0080

      216    20777    3               FPT@READ.KEY_ = VECTOR ( QCI@IO_READ.CURSOR_POSITION );

  20777   1 00013A  9BC6 0006                            LAB,B1   6,B6
          1 00013C  9FC7 0059                            STB,B1   QI@ACTIVATION_STATUS+22,AUTO
          1 00013E  5C01                                 LDV,R5   1
          1 00013F  DF47 0058                            STR,R5   QI@ACTIVATION_STATUS+21,AUTO
          1 000141  ABC7 0058                            LAB,B2   QI@ACTIVATION_STATUS+21,AUTO
          1 000143  2C00                                 LDV,R2   0
          1 000144  6C06                                 LDV,R6   6
          1 000145  BB87                                 LAB,B3   ,AUTO
          1 000146  3C12                                 LDV,R3   18
          1 000147  0008                                 MMM

      217    20778    3             END SPECIFY_CURSOR_FIELD;

      218    20779
      219    20780    2   READ_SELECTED_FIELDS:
      220    20781    3           DO %FOREVER;

  20781   1                              READ_SELECTED_F*null
      221    20782
      222    20783    3             CALL QGB$READ ( FPT@READ, QGB_PARAM )

  20783   1 000148  EB80 0000 0000  xsym READ_SELECTED_F*LAB,B6   QGB_PARAM
          1 00014B  EFC7 005A                            STB,B6   QI@ACTIVATION_STATUS+23,AUTO
PL6.E3A0      #001=QCI$IO_READ File=QCI$IO_READ.:E05TSI                          WED 07/30/97 05:10 Page:35
          1 00014D  DBC7 0006                            LAB,B5   FPT@READ,AUTO
          1 00014F  DFC7 0058                            STB,B5   QI@ACTIVATION_STATUS+21,AUTO
          1 000151  BBC7 0058                            LAB,B3   QI@ACTIVATION_STATUS+21,AUTO
          1 000153  CBF0 0200                            LAB,B4   512,IMO
          1 000155  E380 0000 0000  xent                 LNJ,B6   QGB$READ
          1 000158       0003                            DC       s:20787,PREL
          1 000159  0F81 0070                            B        s:20838,PREL

      223    20784    3             WHENALTRETURN
      224    20785    4               DO;

      225    20786
      226    20787    4                 IF QGB_PARAM.ERR.ERR# = %E$EOF

  20787   1 00015B  E800 0000 0006  xsym                 LDR,R6   QGB_PARAM+6
          1 00015E  6043                                 SOR,R6   3
          1 00015F  6D06                                 CMV,R6   6
          1 000160  0901 01C6                            BE       s:21049,PREL

      227    20788    4                 THEN
      228    20789    4                   EXIT READ_SELECTED_FIELDS;
      229    20790
      230    20791                    /*  Something's wrong.
      231    20792                        Since INVALID clauses are allowed on READ statments,
      232    20793                        QCU$USE may either execute the INVALID imperatives
      233    20794                        or blow the program away.  */
      234    20795    4                 QI_1.ERROR_STATUS = %E$FORM_READ_ERROR;

  20795   1 000162  5C10                                 LDV,R5   16
          1 000163  DF00 0000 008C  xsym                 STR,R5   QI_1+140

      235    20796
      236    20797    4                 QCU@USE.CURR_NODE$ = ADDR (NIL);

  20797   1 000166  EB80 0000 0000                       LAB,B6   0
          1 000169  EFC7 0037                            STB,B6   QCU@USE+2,AUTO

PL6.E3A0      #001=QCI$IO_READ File=QCI$IO_READ.:E05TSI                          WED 07/30/97 05:10 Page:36
      237    20798    4                 QCU@USE.CURR_FRAME$ = ADDR (NIL);

  20798   1 00016B  DB80 0000 0000                       LAB,B5   0
          1 00016E  DFC7 0035                            STB,B5   QCU@USE,AUTO

      238    20799    4                 QCU@USE.IS_TIME_TO_SAVE_AWAY_FIELDS = %YES;

  20799   1 000170  8947 003A                            LBT,'8000'X       QCU@USE+5,AUTO
  20799   1 000172       8000

      239    20800    4                 QCU@USE.FRAME_START_INDEX = QCI@IO_READ.FRAME_START_INDEX;

  20800   1 000173  CCC7 0004                            LDB,B4   @QCI@IO_READ,AUTO
          1 000175  C804                                 LDR,R4   ,B4
          1 000176  CF47 003B                            STR,R4   QCU@USE+6,AUTO

      240    20801    4                 QCU@USE.FRAME_STOP_INDEX = QCI@IO_READ.FRAME_STOP_INDEX;

  20801   1 000178  B844 0001                            LDR,R3   1,B4
          1 00017A  BF47 003C                            STR,R3   QCU@USE+7,AUTO

      241    20802    4                 QCU@USE.IS_FIELD_INDEXES_VALID = %YES;

  20802   1 00017C  8947 003D                            LBT,'8000'X       QCU@USE+8,AUTO
  20802   1 00017E       8000

      242    20803    4                 QCU@USE.FIELD_START_INDEX = QCI@IO_READ.FIELD_START_INDEX;

  20803   1 00017F  A844 0003                            LDR,R2   3,B4
          1 000181  AF47 003E                            STR,R2   QCU@USE+9,AUTO

      243    20804    4                 QCU@USE.FIELD_STOP_INDEX = QCI@IO_READ.FIELD_STOP_INDEX;

  20804   1 000183  9844 0004                            LDR,R1   4,B4
          1 000185  9F47 003F                            STR,R1   QCU@USE+10,AUTO

      244    20805    4                 QCU@USE.USE_DEFAULT_IO = %QI#USE_DEFAULT_INPUT;
PL6.E3A0      #001=QCI$IO_READ File=QCI$IO_READ.:E05TSI                          WED 07/30/97 05:10 Page:37

  20805   1 000187  6C01                                 LDV,R6   1
          1 000188  EF47 0039                            STR,R6   QCU@USE+4,AUTO

      245    20806
      246    20807    4                 CALL QCU$USE_INVALID_IO ( QCU@USE );

  20807   1 00018A  BBC7 0035                            LAB,B3   QCU@USE,AUTO
          1 00018C  BFC7 0058                            STB,B3   QI@ACTIVATION_STATUS+21,AUTO
          1 00018E  BBC7 0058                            LAB,B3   QI@ACTIVATION_STATUS+21,AUTO
          1 000190  CBF0 0100                            LAB,B4   256,IMO
          1 000192  E380 0000 0000  xent                 LNJ,B6   QCU$USE_INVALID_IO
          1 000195       0001                            DC       s:20809,PREL

      247    20808
      248    20809    5                 DO CASE ( QCU@USE.STATUS );

  20809   1 000196  B847 0042                            LDR,R3   QCU@USE+13,AUTO
          1 000198  3D03                                 CMV,R3   3
          1 000199  0281 0027                            BGE      s:20834,PREL
          1 00019B  A830 0000 01A1  01                   LDR,R2   s:20809+11,R3
          1 00019E  83A0 0000 01A4  01                   JMP      s:20812,R2
          1 0001A1       0000                            DC       s:20812,PREL
          1 0001A2       0007                            DC       s:20822,PREL
          1 0001A3       0012                            DC       s:20831,PREL

      249    20810
      250    20811    5                   CASE ( %QI#USE_INVALID_RETURN );

      251    20812    5                     QCI@IO_READ.STATUS = %QI#USE_INVALID_RETURN;

  20812   1 0001A4  ECC7 0004                            LDB,B6   @QCI@IO_READ,AUTO
          1 0001A6  8746 0007                            CL       7,B6

      252    20813    5                     RETURN;

  20813   1 0001A8  C380 0000 0000  xent                 LNJ,B4   X6A_ARET
PL6.E3A0      #001=QCI$IO_READ File=QCI$IO_READ.:E05TSI                          WED 07/30/97 05:10 Page:38

      253    20814
      254    20815    5                   CASE ( %QI#USE_INVALID_RETRY );

      255    20816        /*
      256    20817              You're asking:  "Well, let's say the USE PROCEDURE stuff does
      257    20818              eventually work.  How do we retry a (possibly multiple) field
      258    20819              read after an IO error?".  I dunno.  Perhaps the field in error,
      259    20820              and all subsequent fields, should be reread.
      260    20821        */
      261    20822    5                     CALL QCE$ERROR_INTERNAL ( %E$INTERNAL_INTERPRETER_ERROR );

  20822   1 0001AB  BB80 0000 0001  02                   LAB,B3   +1
          1 0001AE  CBF0 0100                            LAB,B4   256,IMO
          1 0001B0  E380 0000 0000  xent                 LNJ,B6   QCE$ERROR_INTERNAL
          1 0001B3       0001                            DC       s:20822+9,PREL
          1 0001B4  0F81 0015                            B        s:20838,PREL

      262    20823
      263    20824    5                   CASE ( %QI#USE_INVALID_SKIP_TO_NEXT );

      264    20825        /*
      265    20826              You're asking:  "Well, let's say the USE PROCEDURE stuff does
      266    20827              eventually work.  How do we skip a field on a (possibly multiple) field
      267    20828              read after an IO error?".  I dunno.  Perhaps all subsequent fields,
      268    20829              after the field in error, should be reread.
      269    20830        */
      270    20831    5                     CALL QCE$ERROR_INTERNAL ( %E$INTERNAL_INTERPRETER_ERROR );

  20831   1 0001B6  BB80 0000 0001  02                   LAB,B3   +1
          1 0001B9  CBF0 0100                            LAB,B4   256,IMO
          1 0001BB  E380 0000 0000  xent                 LNJ,B6   QCE$ERROR_INTERNAL
          1 0001BE       0001                            DC       s:20831+9,PREL
          1 0001BF  0F81 000A                            B        s:20838,PREL

      271    20832
      272    20833    5                   CASE ( ELSE );
PL6.E3A0      #001=QCI$IO_READ File=QCI$IO_READ.:E05TSI                          WED 07/30/97 05:10 Page:39

      273    20834    5                     CALL QCE$ERROR_INTERNAL ( %E$INTERNAL_INTERPRETER_ERROR );

  20834   1 0001C1  BB80 0000 0001  02                   LAB,B3   +1
          1 0001C4  CBF0 0100                            LAB,B4   256,IMO
          1 0001C6  E380 0000 0000  xent                 LNJ,B6   QCE$ERROR_INTERNAL
          1 0001C9       0001                            DC       s:20838,PREL

      274    20835
      275    20836    5                 END;

      276    20837
      277    20838    4               END;

      278    20839
      279    20840    3   FIND_THAT_JUST_READ_FIELD:
      280    20841    3             DO FRAME_INDEX =
      281    20842    4               QCI@IO_READ.FRAME_START_INDEX TO QCI@IO_READ.FRAME_STOP_INDEX;

  20842   1 0001CA  ECC7 0004            FIND_THAT_JUST_*LDB,B6   @QCI@IO_READ,AUTO
          1 0001CC  E806                                 LDR,R6   ,B6
          1 0001CD  EF47 0028                            STR,R6   FRAME_INDEX,AUTO
          1 0001CF  0F81 014A                            B        s:21041+2,PREL

      282    20843
      283    20844                    %PROC_ADDRESS ( THING@P =
             20844                       "QI_1.CURRENT.FORM$ -> QI$FORM_FILE.FRAME_LIST_A@P ( FRAME_INDEX )",
      284    20845                    CHECK_FOR_INDIRECTION = NO,
      285    20846                    RESULT$ = FRAME$ );

  20864   1 0001D1  EC80 0000 0076  xsym                 LDB,B6   QI_1+118
          1 0001D4  B847 0028                            LDR,R3   FRAME_INDEX,AUTO
          1 0001D6  3E0B                                 ADV,R3   11
          1 0001D7  A836                                 LDR,R2   ,B6,R3
          1 0001D8  F852                                 LDR,R7   R2
          1 0001D9  6C00                                 LDV,R6   0
          1 0001DA  8400 0000 0002  xsym                 AID      QI_1+2
PL6.E3A0      #001=QCI$IO_READ File=QCI$IO_READ.:E05TSI                          WED 07/30/97 05:10 Page:40
          1 0001DD  8D47 0025                            SDI      FRAME$,AUTO

      286    20883
      287    20884                    %DATA_ADDRESS ( THING@D = "FRAME$ -> QI$FRAME.STATUS_AREA@D",
      288    20885                    CHECK_FOR_INDIRECTION = NO,
      289    20886                    RESULT$ = FRAME_STATUS$ );

  20904   1 0001DF  DCC7 0025                            LDB,B5   FRAME$,AUTO
          1 0001E1  9845 0006                            LDR,R1   6,B5
          1 0001E3  F851                                 LDR,R7   R1
          1 0001E4  6C00                                 LDV,R6   0
          1 0001E5  8400 0000 0000  xsym                 AID      QI_1
          1 0001E8  8D47 002A                            SDI      FRAME_STATUS$,AUTO

      290    20923
      291    20924    4               IF FRAME_STATUS$ -> QI$FRAME_STATUS.INDICATORS.IS_ACTIVE

  20924   1 0001EA  CCC7 002A                            LDB,B4   FRAME_STATUS$,AUTO
          1 0001EC  89C4 000C                            CMZ      12,B4
          1 0001EE  0881 0129                            BAGE     s:21041,PREL
          1 0001F0  D844 0002                            LDR,R5   2,B4
          1 0001F2  D900 0000 0017  xsym                 CMR,R5   QGB_PARAM+23
          1 0001F5  0301 0122                            BG       s:21041,PREL
          1 0001F7  C844 0003                            LDR,R4   3,B4
          1 0001F9  C900 0000 0017  xsym                 CMR,R4   QGB_PARAM+23
          1 0001FC  0201 011B                            BL       s:21041,PREL

      292    20925    4                 AND FRAME_STATUS$ -> QI$FRAME_STATUS.GZ.FLDID_START <=
      293    20926    4                 QGB_PARAM.FLDID
      294    20927    4                 AND FRAME_STATUS$ -> QI$FRAME_STATUS.GZ.FLDID_STOP >=
      295    20928    4                 QGB_PARAM.FLDID
      296    20929    4               THEN
      297    20930    4   FOUND_THAT_JUST_READ_FIELD:
      298    20931    5                 DO;

  20931   1                              FOUND_THAT_JUST*null
      299    20932    5                   GZ_HEADER$ = FRAME_STATUS$ -> QI$FRAME_STATUS.GZ.HEADER$;
PL6.E3A0      #001=QCI$IO_READ File=QCI$IO_READ.:E05TSI                          WED 07/30/97 05:10 Page:41

  20932   1 0001FE  BCC4 0004            FOUND_THAT_JUST*LDB,B3   4,B4
          1 000200  BFC7 002E                            STB,B3   GZ_HEADER$,AUTO

      300    20933    5                   FIELD_INDEX = QGB_PARAM.FLDID

  20933   1 000202  D200 0000 0017  xsym                 SUB,R5   QGB_PARAM+23
          1 000205  8255                                 NEG      R5
          1 000206  DF47 0023                            STR,R5   FIELD_INDEX,AUTO

      301    20934    5                     - FRAME_STATUS$ -> QI$FRAME_STATUS.GZ.FLDID_START;
      302    20935    5                   GZ_FIELD$ = PINCRW ( FRAME_STATUS$ -> QI$FRAME_STATUS.GZ.START$,

  20935   1 000208  ACC4 0006                            LDB,B2   6,B4
          1 00020A  AFC7 0058                            STB,B2   QI@ACTIVATION_STATUS+21,AUTO
          1 00020C  F855                                 LDR,R7   R5
          1 00020D  6C00                                 LDV,R6   0
          1 00020E  9B80 0000 0003  02                   LAB,B1   +3
          1 000211  D380 0000 0000  xent                 LNJ,B5   X6D_MID
          1 000214  8447 0058                            AID      QI@ACTIVATION_STATUS+21,AUTO
          1 000216  8D47 002C                            SDI      GZ_FIELD$,AUTO

      303    20936    5                     FIELD_INDEX * SIZEW (QI$GZ_FIELD) );
      304    20937
      305    20938    5                   IF QI_1.CURRENT.FORM$ -> QI$FORM_FILE.WORD0_FLAGS.
             20938                            IS_ACTIVATION_STATUS_VALID

  20938   1 000218  EC80 0000 0076  xsym                 LDB,B6   QI_1+118
          1 00021B  8286                                 LB,'1000'X        ,B6
          1 00021C       1000
          1 00021D  0581 007E                            BBF      s:21001,PREL
          1 00021F  DB80 0000 0000  xsym                 LAB,B5   QGB_PARAM
          1 000222  CB80 0000 0000  00                   LAB,B4   0
          1 000225  0022                                 ACM      ;
          1 000226       C105 000A                                ALPHANUM(10,B5,1,1,FILL),;
          1 000228       4204 0000                                ALPHANUM(0,B4,,2,FILL)
          1 00022A  5381 0071                            CBE      s:21001,PREL
PL6.E3A0      #001=QCI$IO_READ File=QCI$IO_READ.:E05TSI                          WED 07/30/97 05:10 Page:42

      306    20939    5                     AND QGB_PARAM.DVE.EOMCHAR ~= %G_EOM_EOR#
      307    20940    5                   THEN
      308    20941    5   UPDATE_SILLY_ACTIVATION_STATUS:
      309    20942    6                     DO;

  20942   1                              UPDATE_SILLY_AC*null
      310    20943    6                       QI@ACTIVATION_STATUS.ACTIVATION_CHARACTER =

  20943   1 00022C  D800 0000 000A  xsym UPDATE_SILLY_AC*LDR,R5   QGB_PARAM+10
          1 00022F  5008                                 SOL,R5   8
          1 000230  5068                                 SAR,R5   8
          1 000231  D7C7 0043                            STH,R5   QI@ACTIVATION_STATUS,AUTO

      311    20944    6                         QGB_PARAM.DVE.EOMCHAR;
      312    20945    6                       CALL BINCHAR ( QI@ACTIVATION_STATUS.ACTIVATION_POSITION,

  20945   1 000233  F800 0000 0018  xsym                 LDR,R7   QGB_PARAM+24
          1 000236  6C00                                 LDV,R6   0
          1 000237  8D47 0058                            SDI      QI@ACTIVATION_STATUS+21,AUTO
          1 000239  0027                                 CBD      ;
          1 00023A       0407 0058                                BINARY(QI@ACTIVATION_STATUS+21,AUTO,,4),;
          1 00023C       8307 0043                           UNPACKED(QI@ACTIVATION_STATUS,AUTO,1,3,UNSIGNED)

      313    20946    6                         QGB_PARAM.ACTPOS );
      314    20947    6                       CALL BINCHAR ( QI@ACTIVATION_STATUS.ACTIVATION_LINE,

  20947   1 00023E  DCC7 002C                            LDB,B5   GZ_FIELD$,AUTO
          1 000240  437F                                 CSYNC    s:20947+1,SPREL
          1 000241  F2C5 0003                            LLH,R7   3,B5
          1 000243  6C00                                 LDV,R6   0
          1 000244  8D47 0058                            SDI      QI@ACTIVATION_STATUS+21,AUTO
          1 000246  0027                                 CBD      ;
          1 000247       0407 0058                                BINARY(QI@ACTIVATION_STATUS+21,AUTO,,4),;
          1 000249       0307 0045                          UNPACKED(QI@ACTIVATION_STATUS+2,AUTO,,3,UNSIGNED)

      315    20948    6                         GZ_FIELD$ -> QI$GZ_FIELD.DESCRIPTION.POSITION.LINE );
PL6.E3A0      #001=QCI$IO_READ File=QCI$IO_READ.:E05TSI                          WED 07/30/97 05:10 Page:43
      316    20949    6                       CALL BINCHAR ( QI@ACTIVATION_STATUS.ACTIVATION_COLUMN,

  20949   1 00024B  437F                                 CSYNC    s:20947+12,SPREL
          1 00024C  F845 0003                            LDR,R7   3,B5
          1 00024E  F570 00FF                            AND,R7   255,IMO
          1 000250  6C00                                 LDV,R6   0
          1 000251  8D47 0058                            SDI      QI@ACTIVATION_STATUS+21,AUTO
          1 000253  0027                                 CBD      ;
          1 000254       0407 0058                                BINARY(QI@ACTIVATION_STATUS+21,AUTO,,4),;
          1 000256       8307 0046                         UNPACKED(QI@ACTIVATION_STATUS+3,AUTO,1,3,UNSIGNED)

      317    20950    6                         GZ_FIELD$ -> QI$GZ_FIELD.DESCRIPTION.POSITION.COLUMN );
      318    20951                            %PROC_ADDRESS ( THING@P =
             20951             "GZ_FIELD$ -> QI$GZ_FIELD.DESCRIPTION.FIELD_DAD$ -> QI$FIELD_DAD.IDENTIFIER@P"
             20951                                ,
      319    20952                            CHECK_FOR_INDIRECTION = NO,
      320    20953                            RESULT$ = FIELD_IDENTIFIER$ );

  20971   1 000258  437F                                 CSYNC    s:20949+12,SPREL
          1 000259  CCC5 0004                            LDB,B4   4,B5
          1 00025B  B844 0007                            LDR,R3   7,B4
          1 00025D  F853                                 LDR,R7   R3
          1 00025E  6C00                                 LDV,R6   0
          1 00025F  8400 0000 0002  xsym                 AID      QI_1+2
          1 000262  8D47 0021                            SDI      FIELD_IDENTIFIER$,AUTO

      321    20990    6                       QI@ACTIVATION_STATUS.ACTIVATION_FIELD =

  20990   1 000264  BCC7 0021                            LDB,B3   FIELD_IDENTIFIER$,AUTO
          1 000266  C283                                 LLH,R4   ,B3
          1 000267  0021                                 ALR      ;
          1 000268       C003 0000                                ALPHANUM(0,B3,1,R4),;
          1 00026A       5E07 0048                             ALPHANUM(QI@ACTIVATION_STATUS+5,AUTO,,30,FILL)

      322    20991    6                         FIELD_IDENTIFIER$ -> QI$VARIABLE_IDENTIFIER.TEXT;
      323    20992
      324    20993    6                       QI_1.SOURCE$ = ADDR ( QI_1.CURRENT.FORM$ -> QI$FORM_FILE.
PL6.E3A0      #001=QCI$IO_READ File=QCI$IO_READ.:E05TSI                          WED 07/30/97 05:10 Page:44
             20993                                ACTIVATION_STATUS@P );

  20993   1 00026C  CBC6 0002                            LAB,B4   2,B6
          1 00026E  437F                                 CSYNC    s:20993+1,SPREL
          1 00026F  CF80 0000 0018  xsym                 STB,B4   QI_1+24

      325    20994    6                       CALL QCS$SETUP_TARGET;

  20994   1 000272  CBF0 0000                            LAB,B4   0,IMO
          1 000274  E380 0000 0000  xent                 LNJ,B6   QCS$SETUP_TARGET
          1 000277       0001                            DC       s:20996,PREL

      326    20995
      327    20996    6                       PINCRC ( QI_1.OP.DATA.T$, QI_1.OFFSET.T ) ->

  20996   1 000278  8C80 0000 0022  xsym                 LDI      QI_1+34
          1 00027B  7031                                 DCL,R7   1
          1 00027C  8D47 0058                            SDI      QI@ACTIVATION_STATUS+21,AUTO
          1 00027E  F800 0000 0042  xsym                 LDR,R7   QI_1+66
          1 000281  6C00                                 LDV,R6   0
          1 000282  8447 0058                            AID      QI@ACTIVATION_STATUS+21,AUTO
          1 000284  7071                                 DCR,R7   1
          1 000285  B856                                 LDR,R3   R6
          1 000286  E570 7FFF                            AND,R6   32767,IMO
          1 000288  8D47 005A                            SDI      QI@ACTIVATION_STATUS+23,AUTO
          1 00028A  ECC7 005A                            LDB,B6   QI@ACTIVATION_STATUS+23,AUTO
          1 00028C  304F                                 SOR,R3   15
          1 00028D  BF47 005C                            STR,R3   QI@ACTIVATION_STATUS+25,AUTO
          1 00028F  EFC7 005D                            STB,B6   QI@ACTIVATION_STATUS+26,AUTO
          1 000291  ABC7 0043                            LAB,B2   QI@ACTIVATION_STATUS,AUTO
          1 000293  2C00                                 LDV,R2   0
          1 000294  6C28                                 LDV,R6   40
          1 000295  BB86                                 LAB,B3   ,B6
          1 000296  F800 0000 0027  xsym                 LDR,R7   QI_1+39
          1 000299  D380 0000 0000  xent                 LNJ,B5   X6C_ALR

      328    20997    6                         QI$VARIABLE_STRING_TARGET.TEXT =
PL6.E3A0      #001=QCI$IO_READ File=QCI$IO_READ.:E05TSI                          WED 07/30/97 05:10 Page:45
      329    20998    6                         QI@ACTIVATION_STATUS_TEXT;
      330    20999    6                     END UPDATE_SILLY_ACTIVATION_STATUS;

      331    21000
      332    21001    5                   VARIABLE_SOURCE$ = QI_1.OTTER_SPACE.T$;

  21001   1 00029C  EC80 0000 0046  xsym                 LDB,B6   QI_1+70
          1 00029F  EFC7 0030                            STB,B6   VARIABLE_SOURCE$,AUTO

      333    21002    5                   QI_1.OP.LEN.S = QGB_PARAM.ARS;

  21002   1 0002A1  E800 0000 0019  xsym                 LDR,R6   QGB_PARAM+25
          1 0002A4  EF00 0000 0026  xsym                 STR,R6   QI_1+38

      334    21003    5                   VARIABLE_TARGET$ = PINCRC ( GZ_FIELD$ -> QI$GZ_FIELD.STATUS.DATA$,

  21003   1 0002A7  DCC7 002C                            LDB,B5   GZ_FIELD$,AUTO
          1 0002A9  B845 0006                            LDR,R3   6,B5
          1 0002AB  304F                                 SOR,R3   15
          1 0002AC  CCC5 0009                            LDB,B4   9,B5
          1 0002AE  CFC7 0058                            STB,B4   QI@ACTIVATION_STATUS+21,AUTO
          1 0002B0  8CC7 0058                            LDI      QI@ACTIVATION_STATUS+21,AUTO
          1 0002B2  7031                                 DCL,R7   1
          1 0002B3  8D47 005A                            SDI      QI@ACTIVATION_STATUS+23,AUTO
          1 0002B5  F853                                 LDR,R7   R3
          1 0002B6  6C00                                 LDV,R6   0
          1 0002B7  8447 005A                            AID      QI@ACTIVATION_STATUS+23,AUTO
          1 0002B9  7071                                 DCR,R7   1
          1 0002BA  8D47 0032                            SDI      VARIABLE_TARGET$,AUTO

      335    21004    5                     GZ_FIELD$ -> QI$GZ_FIELD.STATUS.OFFSET );
      336    21005
      337    21006                        /*  There's a bit of history behind this IF statement...
      338    21007                            it's checking to see if the A-O-I-M clause on a field
      339    21008                            should be honored, i.e., if the field's new contents
      340    21009                            should be checked against the old ones in determining
      341    21010                            if it's to be placed in the AVAILABLE state.
PL6.E3A0      #001=QCI$IO_READ File=QCI$IO_READ.:E05TSI                          WED 07/30/97 05:10 Page:46
      342    21011                            If no I-O was done to this field yet (this is the first
      343    21012                            read in which it was ENABLED for INPUT or I-O), then
      344    21013                            it should be made AVAILABLE.  Also, if it has been
      345    21014                            CLEARed (STATUS.LENGTH = 0), then make it available
      346    21015                            on this READ.  See stars 23661 and 27274 for previous
      347    21016                            goofs at this particular check.  */
      348    21017    5                   IF GZ_FIELD$ -> QI$GZ_FIELD.DESCRIPTION.IS_AOIM

  21017   1 0002BC  82C5 0002                            LB,'0800'X        2,B5
  21017   1 0002BE       0800
          1 0002BF  0581 0027                            BBF      s:21031,PREL
          1 0002C1  82C5 0006                            LB,'1000'X        6,B5
          1 0002C3       1000
          1 0002C4  0581 0022                            BBF      s:21031,PREL
          1 0002C6  82C5 0006                            LB,'00FF'X        6,B5
          1 0002C8       00FF
          1 0002C9  0581 001D                            BBF      s:21031,PREL

      349    21018    5                     AND GZ_FIELD$ -> QI$GZ_FIELD.STATUS.WAS_IO_EVER_DONE
      350    21019    5                     AND GZ_FIELD$ -> QI$GZ_FIELD.STATUS.LENGTH > 0
      351    21020    5                   THEN
      352    21021    5   CHECK_THAT_AOIM_FIELD:
      353    21022    6                     DO;

  21022   1                              CHECK_THAT_AOIM*null
      354    21023    6                       QI_1.OP.LEN.T = QI_1.OP.LEN.S;

  21023   1 0002CB  D800 0000 0026  xsym CHECK_THAT_AOIM*LDR,R5   QI_1+38
          1 0002CE  DF00 0000 0027  xsym                 STR,R5   QI_1+39

      355    21024
      356    21025    6                       IF VARIABLE_SOURCE$ -> QI$VARIABLE_STRING_SOURCE.TEXT =

  21025   1 0002D1  B856                                 LDR,R3   R6
          1 0002D2  E570 7FFF                            AND,R6   32767,IMO
          1 0002D4  8D47 0058                            SDI      QI@ACTIVATION_STATUS+21,AUTO
          1 0002D6  CCC7 0058                            LDB,B4   QI@ACTIVATION_STATUS+21,AUTO
PL6.E3A0      #001=QCI$IO_READ File=QCI$IO_READ.:E05TSI                          WED 07/30/97 05:10 Page:47
          1 0002D8  304F                                 SOR,R3   15
          1 0002D9  BF47 005A                            STR,R3   QI@ACTIVATION_STATUS+23,AUTO
          1 0002DB  CFC7 005B                            STB,B4   QI@ACTIVATION_STATUS+24,AUTO
          1 0002DD  AB86                                 LAB,B2   ,B6
          1 0002DE  2C00                                 LDV,R2   0
          1 0002DF  E855                                 LDR,R6   R5
          1 0002E0  BB84                                 LAB,B3   ,B4
          1 0002E1  F855                                 LDR,R7   R5
          1 0002E2  D380 0000 0000  xent                 LNJ,B5   X6C_ACM
          1 0002E5  5381 003C                            CBE      s:21043,PREL

      357    21026    6                         VARIABLE_TARGET$ -> QI$VARIABLE_STRING_TARGET.TEXT
      358    21027    6                       THEN
      359    21028    6                         EXIT FIND_THAT_JUST_READ_FIELD;
      360    21029    6                     END CHECK_THAT_AOIM_FIELD;

      361    21030
      362    21031    5                   QI_1.OP.LEN.T = GZ_FIELD$ -> QI$GZ_FIELD.DESCRIPTION.LENGTH;

  21031   1 0002E7  ECC7 002C                            LDB,B6   GZ_FIELD$,AUTO
          1 0002E9  E846 0002                            LDR,R6   2,B6
          1 0002EB  E570 00FF                            AND,R6   255,IMO
          1 0002ED  EF00 0000 0027  xsym                 STR,R6   QI_1+39

      363    21032
      364    21033    5                   VARIABLE_TARGET$ -> QI$VARIABLE_STRING_TARGET.TEXT =

  21033   1 0002F0  8CC7 0032                            LDI      VARIABLE_TARGET$,AUTO
          1 0002F2  B856                                 LDR,R3   R6
          1 0002F3  E570 7FFF                            AND,R6   32767,IMO
          1 0002F5  8D47 0058                            SDI      QI@ACTIVATION_STATUS+21,AUTO
          1 0002F7  DCC7 0058                            LDB,B5   QI@ACTIVATION_STATUS+21,AUTO
          1 0002F9  304F                                 SOR,R3   15
          1 0002FA  BF47 005A                            STR,R3   QI@ACTIVATION_STATUS+23,AUTO
          1 0002FC  DFC7 005B                            STB,B5   QI@ACTIVATION_STATUS+24,AUTO
          1 0002FE  ACC7 0030                            LDB,B2   VARIABLE_SOURCE$,AUTO
          1 000300  2C00                                 LDV,R2   0
PL6.E3A0      #001=QCI$IO_READ File=QCI$IO_READ.:E05TSI                          WED 07/30/97 05:10 Page:48
          1 000301  E800 0000 0026  xsym                 LDR,R6   QI_1+38
          1 000304  BB85                                 LAB,B3   ,B5
          1 000305  F800 0000 0027  xsym                 LDR,R7   QI_1+39
          1 000308  D380 0000 0000  xent                 LNJ,B5   X6C_ALR

      365    21034    5                     VARIABLE_SOURCE$ -> QI$VARIABLE_STRING_SOURCE.TEXT;
      366    21035
      367    21036    5                   GZ_FIELD$ -> QI$GZ_FIELD.STATUS.IS_AOIM_MODIFIED = %YES;

  21036   1 00030B  ECC7 002C                            LDB,B6   GZ_FIELD$,AUTO
          1 00030D  8946 0006                            LBT,'4000'X       6,B6
          1 00030F       4000

      368    21037    5                   GZ_FIELD$ -> QI$GZ_FIELD.STATUS.LENGTH = QI_1.OP.LEN.S;

  21037   1 000310  E800 0000 0026  xsym                 LDR,R6   QI_1+38
          1 000313  EAC6 0006                            SRM,R6,'00FF'X    6,B6
          1 000315       00FF

      369    21038    5                   EXIT FIND_THAT_JUST_READ_FIELD;

  21038   1 000316  0F81 000B                            B        s:21043,PREL

      370    21039    5                 END FOUND_THAT_JUST_READ_FIELD;
      371    21040
      372    21041    4             END FIND_THAT_JUST_READ_FIELD;

  21041   1 000318  8AC7 0028                            INC      FRAME_INDEX,AUTO
          1 00031A  ECC7 0004                            LDB,B6   @QCI@IO_READ,AUTO
          1 00031C  E847 0028                            LDR,R6   FRAME_INDEX,AUTO
          1 00031E  E946 0001                            CMR,R6   1,B6
          1 000320  0381 FEB0                            BLE      s:20864,PREL

      373    21042
      374    21043    3             FPT@READ.V.KEYS = %NO;

  21043   1 000322  8847 0015                            LBF,'0080'X       FPT@READ+15,AUTO
PL6.E3A0      #001=QCI$IO_READ File=QCI$IO_READ.:E05TSI                          WED 07/30/97 05:10 Page:49
  21043   1 000324       0080

      375    21044
      376    21045    3           END READ_SELECTED_FIELDS;

  21045   1 000325  0F81 FE22                            B        s:20778,PREL

      377    21046
      378    21047    2         END;

      379    21048
      380    21049    1       QCI@IO_READ.FRAME_START_INDEX = FRAME_FIRST_INDEX;

  21049   1 000327  ECC7 0004                            LDB,B6   @QCI@IO_READ,AUTO
          1 000329  E847 0027                            LDR,R6   FRAME_FIRST_INDEX,AUTO
          1 00032B  EF06                                 STR,R6   ,B6

      381    21050    1       QCI@IO_READ.FRAME_STOP_INDEX = FRAME_LAST_INDEX;

  21050   1 00032C  D847 0029                            LDR,R5   FRAME_LAST_INDEX,AUTO
          1 00032E  DF46 0001                            STR,R5   1,B6

      382    21051    1       IF FRAME_FIRST_INDEX = FRAME_LAST_INDEX

  21051   1 000330  E955                                 CMR,R6   R5
          1 000331  0981 000E                            BNE      s:21059,PREL

      383    21052    1       THEN
      384    21053    2         DO;

      385    21054    2           QCI@IO_READ.IS_FIELD_INDEXES_VALID = %YES;

  21054   1 000333  8946 0002                            LBT,'8000'X       2,B6
  21054   1 000335       8000

      386    21055    2           QCI@IO_READ.FIELD_START_INDEX = FIELD_FIRST_INDEX;

PL6.E3A0      #001=QCI$IO_READ File=QCI$IO_READ.:E05TSI                          WED 07/30/97 05:10 Page:50
  21055   1 000336  C847 0020                            LDR,R4   FIELD_FIRST_INDEX,AUTO
          1 000338  CF46 0003                            STR,R4   3,B6

      387    21056    2           QCI@IO_READ.FIELD_STOP_INDEX = FIELD_LAST_INDEX;

  21056   1 00033A  B847 0024                            LDR,R3   FIELD_LAST_INDEX,AUTO
          1 00033C  BF46 0004                            STR,R3   4,B6

      388    21057    2         END;

  21057   1 00033E  0F81 0003                            B        s:21060,PREL

      389    21058    1       ELSE
      390    21059    1         QCI@IO_READ.IS_FIELD_INDEXES_VALID = %NO;

  21059   1 000340  8746 0002                            CL       2,B6

      391    21060    1       QCI@IO_READ.STATUS = %QI#USE_INVALID_OK;

  21060   1 000342  4C03                                 LDV,R4   3
          1 000343  CF46 0007                            STR,R4   7,B6

      392    21061
      393    21062    1       RETURN;

  21062   1 000345  C380 0000 0000  xent                 LNJ,B4   X6A_ARET
      394    21063
      395    21064    1   END QCI$IO_READ;

PL6.E3A0      #001=QCI$IO_READ File=QCI$IO_READ.:E05TSI                          WED 07/30/97 05:10 Page:51
--  Include file information  --

   QCU_USE_M.:E05TOU  is referenced.
   QCI_IO_READ_M.:E05TOU  is referenced.
   QI_MACROS_M.:E05TOU  is referenced.
   QI_PERR_C.:E05TOU  is referenced.
   QI_EQUATES_E.:E05TOU  is referenced.
   QG_MACRO_M.:E05TOU  is referenced.
   LCP_6.:E05TOU  cannot be made into a system file and is referenced.
   B_ERRORS_C.:E05TOU  is referenced.
   G_LCP6_E.:E05TOU  was found in the system file and is referenced.
   GT_LCP6_M.:E05TOU  was found in the system file and is referenced.
   KI_CP6.:E05TOU  was found in the system file and is referenced.
   GF_LCP6_M.:E05TOU  was found in the system file and is referenced.
   GM_LCP6_M.:E05TOU  was found in the system file and is referenced.
   GU_LCP6_M.:E05TOU  was found in the system file and is referenced.
   GJ_LCP6_M.:E05TOU  was found in the system file and is referenced.
   GH_LCP6_M.:E05TOU  was found in the system file and is referenced.
      No diagnostics issued in procedure QCI$IO_READ.
PL6.E3A0      #001=QCI$IO_READ File=QCI$IO_READ.:E05TSI                          WED 07/30/97 05:10 Page:52

 **** Variables and constants ****

  ****  Auto variables  ****

  ****  Scalars and arrays  ****
HexLoc.c.b A Datatyp(siz) R M Lvl/name                 HexLoc.c.b A Datatyp(siz) R M Lvl/name

     4-0-0/w PTR         r     1 @QCI@IO_READ              20-0-0/w UBIN(16)    r     1 FIELD_FIRST_INDEX
    21-0-0/w PTR         r     1 FIELD_IDENTIFIER$         23-0-0/w UBIN(16)    r     1 FIELD_INDEX
    24-0-0/w UBIN(16)    r     1 FIELD_LAST_INDEX           6-0-0/w STRC(288)   r     1 FPT@READ
    18-0-0/w STRC(128)   r     1 FPT@SLCFLD                25-0-0/w PTR         r     1 FRAME$
    27-0-0/w UBIN(16)    r     1 FRAME_FIRST_INDEX         28-0-0/w UBIN(16)    r     1 FRAME_INDEX
    29-0-0/w UBIN(16)    r     1 FRAME_LAST_INDEX          2A-0-0/w PTR         r     1 FRAME_STATUS$
    2C-0-0/w PTR         r     1 GZ_FIELD$                 2E-0-0/w PTR         r     1 GZ_HEADER$
    *0-0-0/w STRC(144)   r     1 QCI@IO_READ               35-0-0/w STRC(224)   r     1 QCU@USE
    43-0-0/c STRC(320)   r     1 QI@ACTIVATION_STATUS
    43-0-0/c CHAR(40)    r     1 QI@ACTIVATION_STATUS_TEXT
    30-0-0/w PTR         r     1 VARIABLE_SOURCE$          32-0-0/w PTR         r     1 VARIABLE_TARGET$
    34-0-0/w BIT         r     1 WE_SELECTED_ONE

  ****  SYMREF variables  ****

  ****  Scalars and arrays  ****
HexLoc.c.b A Datatyp(siz) R M Lvl/name                 HexLoc.c.b A Datatyp(siz) R M Lvl/name

     0-0-0/w STRC(432)   r     1 QGB_PARAM                  0-0-0/d STRC(2576)  r     1 QI_1
     0-0-0/w STRC(288)   r     1 QI_FPT_READ                0-0-0/w STRC(128)   r     1 QI_FPT_SLCFLD

  ****  BASED and DCB variables  ****

  ****  Scalars and arrays  ****
HexLoc.c.b A Datatyp(siz) R M Lvl/name                 HexLoc.c.b A Datatyp(siz) R M Lvl/name

     0-0-0/w STRC(384)   r     1 QI$FIELD_DAD               0-0-0/w STRC(192)   r     1 QI$FORM_FILE
     0-0-0/w STRC(144)   r     1 QI$FORM_STATUS             0-0-0/w STRC(128)   r     1 QI$FRAME
     0-0-0/w STRC(208)   r     1 QI$FRAME_STATUS            0-0-0/w STRC(184)   r     1 QI$GZ_FIELD
     0-0-0/w STRC(176)   r     1 QI$GZ_HEADER               0-0-0/w STRC(16)    r     1 QI$INDICATORS
PL6.E3A0      #001=QCI$IO_READ File=QCI$IO_READ.:E05TSI                          WED 07/30/97 05:10 Page:53
     0-0-0/c ASTR(8)     r     1 QI$VARIABLE_IDENTIFIER
     0-0-0/c ASTR(0)     r     1 QI$VARIABLE_STRING_SOURCE
     0-0-0/c ASTR(0)     r     1 QI$VARIABLE_STRING_TARGET


   Procedure QCI$IO_READ requires 840 words for executable code.
   Procedure QCI$IO_READ requires 95 words of local(AUTO) storage.

    No errors detected in file QCI$IO_READ.:E05TSI    .
PL6.E3A0      #001=QCI$IO_READ File=QCI$IO_READ.:E05TSI                          WED 07/30/97 05:10 Page:54
          *** CROSS REFERENCE LISTING ***
**     DENOTES     IDENTIFIER DEFINITION
<<                 IDENTIFIER'S VALUE SET
>>                 IDENTIFIER'S VALUE USED
<>                 IDENTIFIER SET AND/OR USED
--                 IDENTIFIER REFERENCED
PL6.E3A0      #001=QCI$IO_READ File=QCI$IO_READ.:E05TSI                          WED 07/30/97 05:10 Page:55
          MINI XREF LISTING

FIELD_FIRST_INDEX
     20312**DCL     20602<<ASSIGN  20740>>IF      20742<<ASSIGN  21055>>ASSIGN
FIELD_IDENTIFIER$
     20313**DCL     20971<<ASSIGN  20990>>ASSIGN  20990>>ASSIGN
FIELD_INDEX
     20314**DCL     20707<<DOINDEX 20740>>IF      20742>>ASSIGN  20743>>IF      20745>>ASSIGN  20933<<ASSIGN
     20935>>ASSIGN
FIELD_LAST_INDEX
     20315**DCL     20603<<ASSIGN  20743>>IF      20745<<ASSIGN  21056>>ASSIGN
FIND_THAT_JUST_READ_FIELD
     20842**LABEL   21028--EXIT    21038--EXIT
FPT@READ
      1371**DCL     20766<<ASSIGN  20783<>CALL
FPT@READ.BUF_
      1373**DCL     20769<<ASSIGN  20770<<ASSIGN
FPT@READ.KEY_
      1373**DCL     20777<<ASSIGN
FPT@READ.V
      1376**DCL     20767--ASSIGN
FPT@READ.V.DCB#
      1376**DCL     20768<<ASSIGN
FPT@READ.V.KEYS
      1376**DCL     20776<<ASSIGN  21043<<ASSIGN
FPT@READ.V_
      1373**DCL     20767<<ASSIGN
FPT@SLCFLD
      1401**DCL     20597<<ASSIGN  20725<>CALL
FPT@SLCFLD.KEY_
      1407**DCL     20723<<ASSIGN
FPT@SLCFLD.V
      1409**DCL     20598--ASSIGN
FPT@SLCFLD.V.DCB#
PL6.E3A0      #001=QCI$IO_READ File=QCI$IO_READ.:E05TSI                          WED 07/30/97 05:10 Page:56
      1409**DCL     20722<<ASSIGN
FPT@SLCFLD.V_
      1403**DCL     20598<<ASSIGN
FRAME$
     20316**DCL     20629<<ASSIGN  20669>>ASSIGN  20864<<ASSIGN  20904>>ASSIGN
FRAME_FIRST_INDEX
     20317**DCL     20600<<ASSIGN  20734>>IF      20736<<ASSIGN  21049>>ASSIGN  21051>>IF
FRAME_INDEX
     20318**DCL     20607<<DOINDEX 20629>>ASSIGN  20734>>IF      20736>>ASSIGN  20737>>IF      20739>>ASSIGN
     20842<<DOINDEX 20864>>ASSIGN
FRAME_LAST_INDEX
     20319**DCL     20601<<ASSIGN  20737>>IF      20739<<ASSIGN  21050>>ASSIGN  21051>>IF
FRAME_STATUS$
     20320**DCL     20669<<ASSIGN  20689>>IF      20697>>ASSIGN  20698>>ASSIGN  20701>>ASSIGN  20702>>ASSIGN
     20904<<ASSIGN  20924>>IF      20924>>IF      20924>>IF      20932>>ASSIGN  20933>>ASSIGN  20935>>ASSIGN
GZ_FIELD$
     20321**DCL     20702<<ASSIGN  20709>>IF      20714>>IF      20718>>ASSIGN  20723>>ASSIGN  20731>>ASSIGN
     20732>>ASSIGN  20752<<ASSIGN  20752>>ASSIGN  20935<<ASSIGN  20947>>CALLBLT 20949>>CALLBLT 20971>>ASSIGN
     21003>>ASSIGN  21003>>ASSIGN  21017>>IF      21017>>IF      21017>>IF      21031>>ASSIGN  21036>>ASSIGN
     21037>>ASSIGN
GZ_HEADER$
     20322**DCL     20701<<ASSIGN  20722>>ASSIGN  20768>>ASSIGN  20932<<ASSIGN
QCE$ERROR_INTERNAL
     20327**DCL-ENT 20587--CALL    20591--CALL    20822--CALL    20831--CALL    20834--CALL
QCE$ERROR_M$INTERNAL
     20328**DCL-ENT 20728--CALL
QCI@IO_READ
     20389**DCL        16--PROC
QCI@IO_READ.CURSOR_POSITION
     20404**DCL     20777--ASSIGN
QCI@IO_READ.FIELD_START_INDEX
     20397**DCL     20697<<ASSIGN  20702>>ASSIGN  20707>>DOINDEX 20803>>ASSIGN  21055<<ASSIGN
QCI@IO_READ.FIELD_STOP_INDEX
     20399**DCL     20698<<ASSIGN  20707>>DOINDEX 20804>>ASSIGN  21056<<ASSIGN
QCI@IO_READ.FRAME_START_INDEX
     20390**DCL     20607>>DOINDEX 20800>>ASSIGN  20842>>DOINDEX 21049<<ASSIGN
PL6.E3A0      #001=QCI$IO_READ File=QCI$IO_READ.:E05TSI                          WED 07/30/97 05:10 Page:57
QCI@IO_READ.FRAME_STOP_INDEX
     20392**DCL     20607>>DOINDEX 20801>>ASSIGN  20842>>DOINDEX 21050<<ASSIGN
QCI@IO_READ.IS_CURSOR_POSITION_VALID
     20401**DCL     20772>>IF
QCI@IO_READ.IS_FIELD_INDEXES_VALID
     20394**DCL     20694>>IF      21054<<ASSIGN  21059<<ASSIGN
QCI@IO_READ.STATUS
     20406**DCL     20812<<ASSIGN  21060<<ASSIGN
QCS$SETUP_TARGET
     20329**DCL-ENT 20994--CALL
QCU$USE_INVALID_IO
     20330**DCL-ENT 20807--CALL
QCU@USE
     20490**DCL     20807<>CALL
QCU@USE.CURR_FRAME$
     20491**DCL     20798<<ASSIGN
QCU@USE.CURR_NODE$
     20493**DCL     20797<<ASSIGN
QCU@USE.FIELD_START_INDEX
     20513**DCL     20803<<ASSIGN
QCU@USE.FIELD_STOP_INDEX
     20516**DCL     20804<<ASSIGN
QCU@USE.FRAME_START_INDEX
     20504**DCL     20800<<ASSIGN
QCU@USE.FRAME_STOP_INDEX
     20507**DCL     20801<<ASSIGN
QCU@USE.IS_FIELD_INDEXES_VALID
     20510**DCL     20802<<ASSIGN
QCU@USE.IS_TIME_TO_SAVE_AWAY_FIELDS
     20498**DCL     20799<<ASSIGN
QCU@USE.STATUS
     20524**DCL     20809>>DOCASE
QCU@USE.USE_DEFAULT_IO
     20495**DCL     20805<<ASSIGN
QGB$READ
      1564**DCL-ENT 20783--CALL
PL6.E3A0      #001=QCI$IO_READ File=QCI$IO_READ.:E05TSI                          WED 07/30/97 05:10 Page:58
QGB$SLCFLD
      1560**DCL-ENT 20725--CALL
QGB_PARAM
     12682**DCL     20725<>CALL    20783<>CALL
QGB_PARAM.ACTPOS
     12789**DCL     20945>>CALLBLT
QGB_PARAM.ARS
     12793**DCL     21002>>ASSIGN
QGB_PARAM.DVE.DVBYTE.VFC
     12750**DCL     12751--REDEF
QGB_PARAM.DVE.EOMCHAR
     12762**DCL     12763--REDEF   20938>>IF      20943>>ASSIGN
QGB_PARAM.ERR.ERR#
     12741**DCL     20787>>IF
QGB_PARAM.FLDID
     12783**DCL     20924>>IF      20924>>IF      20933>>ASSIGN
QGB_PARAM.MSG$
     12744**DCL     12745--REDEF
QGB_PARAM.UHDR$
     12769**DCL     12770--REDEF
QI$ACTIVATION_STATUS
     10508**DCL     10514--REDEF
QI$CIP
      9349**DCL      9419--REDEF
QI$CIP.CA
      9354**DCL      9358--REDEF    9361--REDEF    9364--REDEF
QI$COBOL_DAD.PSEUDO_CIP
      9593**DCL      9618--REDEF
QI$COBOL_DAD.PSEUDO_CIP.ALPHANUMERIC
      9595**DCL      9600--REDEF
QI$COBOL_DAD.PSEUDO_CIP.NUMERIC.CB
      9601**DCL      9604--REDEF    9607--REDEF
QI$COBOL_DAD.VARIABLE_LENGTH_ITEMS
      9629**DCL      9645--REDEF    9653--REDEF    9661--REDEF
QI$COBOL_DAD.VARIABLE_LENGTH_ITEMS.LEVEL_MULTIPLIERS
      9630**DCL      9640--REDEF    9643--REDEF
PL6.E3A0      #001=QCI$IO_READ File=QCI$IO_READ.:E05TSI                          WED 07/30/97 05:10 Page:59
QI$COBOL_DAD.WORD0
      9557**DCL      9558--REDEF    9572--REDEF
QI$COBOL_DAD_P_BITS.P
      9697**DCL      9703--REDEF
QI$CONDITION_CONTROL_BLOCK.LIST_A@P
      9183**DCL      9184--REDEF
QI$CONDITION_CONTROL_BLOCK.WORD0_FLAGS
      9179**DCL      9182--REDEF
QI$CONDITION_LEGAL_BLOCK.ARRAY@P
      9216**DCL      9217--REDEF    9218--REDEF
QI$DAD.PSEUDO_CIP
      9496**DCL      9521--REDEF
QI$DAD.PSEUDO_CIP.ALPHANUMERIC
      9498**DCL      9503--REDEF
QI$DAD.PSEUDO_CIP.NUMERIC.CB
      9504**DCL      9507--REDEF    9510--REDEF
QI$DAD.WORD0
      9465**DCL      9466--REDEF
QI$ERROR_MESSAGE_LINE
     12857**DCL     12859--REDEF
QI$ERROR_STATUS
     12854**DCL     12856--REDEF
QI$FIELD_DAD.ELEMENTARY_ITEM.P
      9911**DCL      9918--REDEF
QI$FIELD_DAD.IDENTIFIER@P
      9882**DCL     20971>>ASSIGN
QI$FIELD_DAD.ONE_DIMENSIONAL_ITEM.P
      9931**DCL      9938--REDEF
QI$FIELD_DAD.PSEUDO_CIP
      9838**DCL      9863--REDEF
QI$FIELD_DAD.PSEUDO_CIP.ALPHANUMERIC
      9840**DCL      9845--REDEF
QI$FIELD_DAD.PSEUDO_CIP.NUMERIC.CB
      9846**DCL      9849--REDEF    9852--REDEF
QI$FIELD_DAD.TWO_DIMENSIONAL_ITEM.P
      9951**DCL      9958--REDEF
PL6.E3A0      #001=QCI$IO_READ File=QCI$IO_READ.:E05TSI                          WED 07/30/97 05:10 Page:60
QI$FIELD_DAD.VARIABLE_LENGTH_ITEMS
      9894**DCL      9910--REDEF    9928--REDEF    9946--REDEF
QI$FIELD_DAD.VARIABLE_LENGTH_ITEMS.LEVEL_MULTIPLIERS
      9895**DCL      9905--REDEF    9908--REDEF
QI$FIELD_DAD.WORD0
      9790**DCL      9791--REDEF
QI$FIELD_DAD.WORD0_FLAGS.IO_FLAGS
      9794**DCL      9799--REDEF
QI$FIELD_DAD_P.P
      9992**DCL      9999--REDEF
QI$FIELD_STATUS.INDICATORS
     10658**DCL     10690--REDEF
QI$FIELD_STATUS.INDICATORS.ENABLED_FLAGS
     10662**DCL     10667--REDEF
QI$FIELD_STATUS.INDICATORS.OPEN_FLAGS
     10674**DCL     10681--REDEF
QI$FIELD_STATUS.INDICATORS.STATE_FLAGS
     10668**DCL     10673--REDEF
QI$FILE.WORD0
     10114**DCL     10115--REDEF
QI$FILE_STATUS.INDICATORS
     10951**DCL     10983--REDEF
QI$FILE_STATUS.INDICATORS.ENABLED_FLAGS
     10955**DCL     10960--REDEF
QI$FILE_STATUS.INDICATORS.OPEN_FLAGS
     10967**DCL     10974--REDEF
QI$FILE_STATUS.INDICATORS.STATE_FLAGS
     10961**DCL     10966--REDEF
QI$FORM_FILE.ACTIVATION_STATUS@P
     10195**DCL     20993--ASSIGN
QI$FORM_FILE.FRAME_LIST_A@P
     10222**DCL     20629>>ASSIGN  20864>>ASSIGN
QI$FORM_FILE.USE_PROCEDURE
     10214**DCL     10221--REDEF
QI$FORM_FILE.WORD0
     10168**DCL     10169--REDEF
PL6.E3A0      #001=QCI$IO_READ File=QCI$IO_READ.:E05TSI                          WED 07/30/97 05:10 Page:61
QI$FORM_FILE.WORD0_FLAGS.IS_ACTIVATION_STATUS_VALID
     10179**DCL     20938>>IF
QI$FORM_STATUS.INDICATORS
     11072**DCL     11104--REDEF
QI$FORM_STATUS.INDICATORS.ENABLED_FLAGS
     11076**DCL     11081--REDEF
QI$FORM_STATUS.INDICATORS.OPEN_FLAGS
     11088**DCL     11095--REDEF
QI$FORM_STATUS.INDICATORS.OPEN_FLAGS.IS_INPUT
     11092**DCL     20589>>IF
QI$FORM_STATUS.INDICATORS.STATE_FLAGS
     11082**DCL     11087--REDEF
QI$FRAME.STATUS_AREA@D
     10345**DCL     20669>>ASSIGN  20904>>ASSIGN
QI$FRAME.WORD0
     10329**DCL     10330--REDEF
QI$FRAME_STATUS.GZ.FIELD_START_INDEX
     11254**DCL     20697>>ASSIGN
QI$FRAME_STATUS.GZ.FIELD_STOP_INDEX
     11256**DCL     20698>>ASSIGN
QI$FRAME_STATUS.GZ.FLDID_START
     11258**DCL     20924>>IF      20933>>ASSIGN
QI$FRAME_STATUS.GZ.FLDID_STOP
     11260**DCL     20924>>IF
QI$FRAME_STATUS.GZ.HEADER$
     11262**DCL     20701>>ASSIGN  20932>>ASSIGN
QI$FRAME_STATUS.GZ.START$
     11264**DCL     20702>>ASSIGN  20935>>ASSIGN
QI$FRAME_STATUS.INDICATORS
     11301**DCL     11333--REDEF
QI$FRAME_STATUS.INDICATORS.ENABLED_FLAGS
     11305**DCL     11310--REDEF
QI$FRAME_STATUS.INDICATORS.IS_ACTIVE
     11303**DCL     20689>>IF      20924>>IF
QI$FRAME_STATUS.INDICATORS.OPEN_FLAGS
     11317**DCL     11324--REDEF
PL6.E3A0      #001=QCI$IO_READ File=QCI$IO_READ.:E05TSI                          WED 07/30/97 05:10 Page:62
QI$FRAME_STATUS.INDICATORS.STATE_FLAGS
     11311**DCL     11316--REDEF
QI$GZ_FIELD
     18180**DCL     20702--ASSIGN  20752--ASSIGN  20935--ASSIGN
QI$GZ_FIELD.DESCRIPTION.FIELD_DAD$
     18204**DCL     20971>>ASSIGN
QI$GZ_FIELD.DESCRIPTION.IO_FLAGS
     18183**DCL     18188--REDEF
QI$GZ_FIELD.DESCRIPTION.IO_FLAGS.IS_INPUT
     18186**DCL     20709>>IF
QI$GZ_FIELD.DESCRIPTION.IS_AOIM
     18194**DCL     21017>>IF
QI$GZ_FIELD.DESCRIPTION.LENGTH
     18197**DCL     21031>>ASSIGN
QI$GZ_FIELD.DESCRIPTION.POSITION
     18199**DCL     20723--ASSIGN
QI$GZ_FIELD.DESCRIPTION.POSITION.COLUMN
     18202**DCL     20949>>CALLBLT
QI$GZ_FIELD.DESCRIPTION.POSITION.LINE
     18200**DCL     20947>>CALLBLT
QI$GZ_FIELD.INDICATORS$
     18181**DCL     20714>>IF
QI$GZ_FIELD.OPERATION.IS_DONE
     18232**DCL     20731<<ASSIGN
QI$GZ_FIELD.OPERATION.IS_OPERATE
     18227**DCL     20718<<ASSIGN
QI$GZ_FIELD.STATUS.DATA$
     18224**DCL     21003>>ASSIGN
QI$GZ_FIELD.STATUS.IS_AOIM_MODIFIED
     18209**DCL     20732<<ASSIGN  21036<<ASSIGN
QI$GZ_FIELD.STATUS.LENGTH
     18217**DCL     21017>>IF      21037<<ASSIGN
QI$GZ_FIELD.STATUS.OFFSET
     18207**DCL     21003>>ASSIGN
QI$GZ_FIELD.STATUS.WAS_IO_EVER_DONE
     18215**DCL     21017>>IF
PL6.E3A0      #001=QCI$IO_READ File=QCI$IO_READ.:E05TSI                          WED 07/30/97 05:10 Page:63
QI$GZ_HEADER.DCB#
     18137**DCL     20722>>ASSIGN  20768>>ASSIGN
QI$IDENTIFIER
     12860**DCL     12862--REDEF
QI$INDICATORS
     10572**DCL     10602--REDEF
QI$INDICATORS.ENABLED_FLAGS
     10578**DCL     10583--REDEF
QI$INDICATORS.ENABLED_FLAGS.IS_INPUT
     10581**DCL     20714>>IF
QI$INDICATORS.OPEN_FLAGS
     10590**DCL     10597--REDEF
QI$INDICATORS.STATE_FLAGS
     10584**DCL     10589--REDEF
QI$MAJOR_NODE.WORD0
     10028**DCL     10029--REDEF
QI$MAJOR_STATUS.INDICATORS
     10751**DCL     10783--REDEF
QI$MAJOR_STATUS.INDICATORS.ENABLED_FLAGS
     10755**DCL     10760--REDEF
QI$MAJOR_STATUS.INDICATORS.OPEN_FLAGS
     10767**DCL     10774--REDEF
QI$MAJOR_STATUS.INDICATORS.STATE_FLAGS
     10761**DCL     10766--REDEF
QI$MESSAGE_TYPE
     12851**DCL     12853--REDEF
QI$MINOR_NODE.WORD0
     10071**DCL     10072--REDEF
QI$MINOR_STATUS.INDICATORS
     10844**DCL     10876--REDEF
QI$MINOR_STATUS.INDICATORS.ENABLED_FLAGS
     10848**DCL     10853--REDEF
QI$MINOR_STATUS.INDICATORS.OPEN_FLAGS
     10860**DCL     10867--REDEF
QI$MINOR_STATUS.INDICATORS.STATE_FLAGS
     10854**DCL     10859--REDEF
PL6.E3A0      #001=QCI$IO_READ File=QCI$IO_READ.:E05TSI                          WED 07/30/97 05:10 Page:64
QI$OP_ACCEPT.DATANAME@P
      7259**DCL      7260--REDEF
QI$OP_CALL.EPTR$
      7431**DCL      7432--REDEF
QI$OP_CLEAR.IO_FLAGS
      7464**DCL      7467--REDEF
QI$OP_DISPLAY.FIELD_A@P
      7731**DCL      7732--REDEF
QI$OP_ENABLE.IO_FLAGS
      7818**DCL      7821--REDEF
QI$OP_IFCLS.ATTRIBUTE.TYPE
      7911**DCL      7916--REDEF
QI$OP_INSPECT.TALLYING_FOR_ITEM@P
      8145**DCL      8146--REDEF
QI$OP_INSPECT.TALLYING_INITIAL_ITEM@P
      8147**DCL      8148--REDEF
QI$OP_INSPECT.TALLYING_ITEM@P
      8143**DCL      8144--REDEF
QI$OP_OPEN.IO_FLAGS
      8705**DCL      8708--REDEF
QI$OP_PERFM.BINARY_ITERATION_COUNT@P
      8743**DCL      8744--REDEF
QI$PSEUDO_CIP
      9244**DCL      9268--REDEF
QI$PSEUDO_CIP.ALPHANUMERIC
      9248**DCL      9253--REDEF
QI$PSEUDO_CIP.NUMERIC.CB
      9254**DCL      9257--REDEF    9260--REDEF
QI$TERMINAL_ATTRIBUTES
     10465**DCL     10478--REDEF
QI$TRAN_FILE.WORD0
     10250**DCL     10251--REDEF
QI$TRAN_STATUS.INDICATORS
     11185**DCL     11217--REDEF
QI$TRAN_STATUS.INDICATORS.ENABLED_FLAGS
     11189**DCL     11194--REDEF
PL6.E3A0      #001=QCI$IO_READ File=QCI$IO_READ.:E05TSI                          WED 07/30/97 05:10 Page:65
QI$TRAN_STATUS.INDICATORS.OPEN_FLAGS
     11201**DCL     11208--REDEF
QI$TRAN_STATUS.INDICATORS.STATE_FLAGS
     11195**DCL     11200--REDEF
QI$VARIABLE_IDENTIFIER.LENGTH
     12864**DCL     12865--IMP-SIZ 20990>>ASSIGN
QI$VARIABLE_IDENTIFIER.TEXT
     12865**DCL     20990>>ASSIGN
QI$VARIABLE_STRING_SOURCE.TEXT
     12871**DCL     21025>>IF      21033>>ASSIGN
QI$VARIABLE_STRING_TARGET.TEXT
     12873**DCL     20996<<ASSIGN  21025>>IF      21033<<ASSIGN
QI@ACTIVATION_STATUS
     20557**DCL     20563--REDEF
QI@ACTIVATION_STATUS.ACTIVATION_CHARACTER
     20558**DCL     20943<<ASSIGN
QI@ACTIVATION_STATUS.ACTIVATION_COLUMN
     20561**DCL     20949<<CALLBLT
QI@ACTIVATION_STATUS.ACTIVATION_FIELD
     20562**DCL     20990<<ASSIGN
QI@ACTIVATION_STATUS.ACTIVATION_LINE
     20560**DCL     20947<<CALLBLT
QI@ACTIVATION_STATUS.ACTIVATION_POSITION
     20559**DCL     20945<<CALLBLT
QI@ACTIVATION_STATUS_TEXT
     20563**DCL     20996>>ASSIGN
QI_1.BASE
     11393**DCL     11400--REDEF
QI_1.BASE.DATA$
     11394**DCL     20669>>ASSIGN  20904>>ASSIGN
QI_1.BASE.PROC$
     11396**DCL     20629>>ASSIGN  20864>>ASSIGN  20971>>ASSIGN
QI_1.CURRENT.FILE$
     12284**DCL     12286--REDEF   12288--REDEF
QI_1.CURRENT.FILE_STATUS$
     12290**DCL     12292--REDEF   12294--REDEF
PL6.E3A0      #001=QCI$IO_READ File=QCI$IO_READ.:E05TSI                          WED 07/30/97 05:10 Page:66
QI_1.CURRENT.FORM$
     12286**DCL     20584>>IF      20629>>ASSIGN  20864>>ASSIGN  20938>>IF      20993>>ASSIGN
QI_1.CURRENT.FORM_STATUS$
     12292**DCL     20584>>IF      20589>>IF
QI_1.DAD
     12088**DCL     12093--REDEF
QI_1.ERROR_STATUS
     12318**DCL     20795<<ASSIGN
QI_1.FILE_HEAD
     12271**DCL     12278--REDEF
QI_1.IS_ALL_LIT
     12094**DCL     12099--REDEF
QI_1.IS_FORM_VARIABLE
     12100**DCL     12105--REDEF
QI_1.IS_TEMP
     12106**DCL     12111--REDEF
QI_1.MESSAGE_LINE_DAD.PSEUDO_CIP
     12204**DCL     12229--REDEF
QI_1.MESSAGE_LINE_DAD.PSEUDO_CIP.ALPHANUMERIC
     12206**DCL     12211--REDEF
QI_1.MESSAGE_LINE_DAD.PSEUDO_CIP.NUMERIC.CB
     12212**DCL     12215--REDEF   12218--REDEF
QI_1.MESSAGE_LINE_DAD.WORD0
     12173**DCL     12174--REDEF
QI_1.OFFSET
     12112**DCL     12117--REDEF
QI_1.OFFSET.T
     12115**DCL     20996>>ASSIGN
QI_1.OP.CIP
     11473**DCL     11924--REDEF
QI_1.OP.CIP.AUX
     11839**DCL     11910--REDEF
QI_1.OP.CIP.AUX.CD
     11884**DCL     11887--REDEF   11891--REDEF   11894--REDEF
QI_1.OP.CIP.S
     11543**DCL     11614--REDEF
PL6.E3A0      #001=QCI$IO_READ File=QCI$IO_READ.:E05TSI                          WED 07/30/97 05:10 Page:67
QI_1.OP.CIP.S.CD
     11588**DCL     11591--REDEF   11595--REDEF   11598--REDEF
QI_1.OP.CIP.T
     11691**DCL     11762--REDEF
QI_1.OP.CIP.T.CD
     11736**DCL     11739--REDEF   11743--REDEF   11746--REDEF
QI_1.OP.DATA
     11931**DCL     11935--REDEF
QI_1.OP.DATA.T$
     11933**DCL     20996>>ASSIGN
QI_1.OP.FILL_CHAR
     12055**DCL     12058--REDEF
QI_1.OP.INX
     11988**DCL     11992--REDEF   11993--REDEF   11997--REDEF
QI_1.OP.LEN
     11971**DCL     11975--REDEF   11976--REDEF   11980--REDEF   11981--REDEF   11985--REDEF
QI_1.OP.LEN.AUX
     11974**DCL     12875--IMP-SIZ
QI_1.OP.LEN.S
     11972**DCL     12871--IMP-SIZ 21002<<ASSIGN  21023>>ASSIGN  21025>>IF      21033>>ASSIGN  21037>>ASSIGN
QI_1.OP.LEN.T
     11973**DCL     12873--IMP-SIZ 20996>>ASSIGN  21023<<ASSIGN  21025>>IF      21031<<ASSIGN  21033>>ASSIGN
QI_1.OP.PICTURE_STRING
     12041**DCL     12044--REDEF   12045--REDEF   12048--REDEF   12049--REDEF   12052--REDEF
QI_1.OP.ROUND
     12074**DCL     12075--REDEF   12076--REDEF
QI_1.OP.SRCH_VRFY_ELEMS
     12010**DCL     12013--REDEF
QI_1.OPENED_COUNT
     12279**DCL     12282--REDEF
QI_1.OTTER_SPACE
     12118**DCL     12123--REDEF
QI_1.OTTER_SPACE.T$
     12121**DCL     20769>>ASSIGN  21001>>ASSIGN
QI_1.PICTURE_STRING
     12124**DCL     12129--REDEF
PL6.E3A0      #001=QCI$IO_READ File=QCI$IO_READ.:E05TSI                          WED 07/30/97 05:10 Page:68
QI_1.SCREEN_UPDATE_FLAGS
     11432**DCL     20764<<ASSIGN
QI_1.SOURCE$
     11444**DCL     20993<<ASSIGN
QI_1.SPECIAL_NAMES
     12307**DCL     12316--REDEF
QI_1.TYPE
     12130**DCL     12135--REDEF
QI_16_BIT_BINARY
     17320**DCL     17390--REDEF
QI_16_BIT_BINARY.CB
     17339**DCL     17342--REDEF   17346--REDEF   17349--REDEF
QI_31_DIGIT_SLS_DISPLAY
     17153**DCL     17223--REDEF
QI_31_DIGIT_SLS_DISPLAY.CD
     17200**DCL     17203--REDEF   17207--REDEF   17210--REDEF
QI_31_DIGIT_ST_PACKED
     17655**DCL     17725--REDEF
QI_31_DIGIT_ST_PACKED.CP
     17688**DCL     17691--REDEF   17695--REDEF   17698--REDEF
QI_32_BIT_BINARY
     17487**DCL     17557--REDEF
QI_32_BIT_BINARY.CB
     17506**DCL     17509--REDEF   17513--REDEF   17516--REDEF
QI_4_CHAR_ALPHANUMERIC
     16985**DCL     17055--REDEF
QI_4_CHAR_ALPHANUMERIC.CA
     16990**DCL     16994--REDEF   16997--REDEF   17000--REDEF
QI_ACCUMULATOR_DAD.CIP
     17998**DCL     18069--REDEF
QI_ACCUMULATOR_DAD.CIP.CP
     18029**DCL     18032--REDEF   18036--REDEF   18039--REDEF
QI_ALR.CIP
     12950**DCL     13401--REDEF
QI_ALR.CIP.AUX
     13316**DCL     13387--REDEF
PL6.E3A0      #001=QCI$IO_READ File=QCI$IO_READ.:E05TSI                          WED 07/30/97 05:10 Page:69
QI_ALR.CIP.AUX.CA
     13319**DCL     13323--REDEF   13326--REDEF   13329--REDEF
QI_ALR.CIP.S
     13020**DCL     13091--REDEF
QI_ALR.CIP.S.CA
     13023**DCL     13027--REDEF   13030--REDEF   13033--REDEF
QI_ALR.CIP.T
     13168**DCL     13239--REDEF
QI_ALR.CIP.T.CA
     13171**DCL     13175--REDEF   13178--REDEF   13181--REDEF
QI_ALR.DATA
     13408**DCL     13412--REDEF
QI_ALR.FILL_CHAR
     13532**DCL     13535--REDEF
QI_ALR.INX
     13465**DCL     13469--REDEF   13470--REDEF   13474--REDEF
QI_ALR.LEN
     13448**DCL     13452--REDEF   13453--REDEF   13457--REDEF   13458--REDEF   13462--REDEF
QI_ALR.PICTURE_STRING
     13518**DCL     13521--REDEF   13522--REDEF   13525--REDEF   13526--REDEF   13529--REDEF
QI_ALR.ROUND
     13551**DCL     13552--REDEF   13553--REDEF
QI_ALR.SRCH_VRFY_ELEMS
     13487**DCL     13490--REDEF
QI_FPT_DBCONTROL.V_
     18370**DCL     18370--REDEF
QI_FPT_INT.V_
     19208**DCL     19208--REDEF
QI_FPT_READ
     19482**DCL     20766>>ASSIGN
QI_FPT_SLCFLD
     19640**DCL     20597>>ASSIGN
QI_MAT.CIP
     16289**DCL     16740--REDEF
QI_MAT.CIP.AUX
     16655**DCL     16726--REDEF
PL6.E3A0      #001=QCI$IO_READ File=QCI$IO_READ.:E05TSI                          WED 07/30/97 05:10 Page:70
QI_MAT.CIP.AUX.CA
     16658**DCL     16662--REDEF   16665--REDEF   16668--REDEF
QI_MAT.CIP.S
     16359**DCL     16430--REDEF
QI_MAT.CIP.S.CA
     16362**DCL     16366--REDEF   16369--REDEF   16372--REDEF
QI_MAT.CIP.T
     16507**DCL     16578--REDEF
QI_MAT.CIP.T.CA
     16510**DCL     16514--REDEF   16517--REDEF   16520--REDEF
QI_MAT.DATA
     16747**DCL     16751--REDEF
QI_MAT.DEC
     16815**DCL     16819--REDEF   16820--REDEF   16824--REDEF
QI_MAT.FILL_CHAR
     16871**DCL     16874--REDEF
QI_MAT.LEN
     16787**DCL     16791--REDEF   16792--REDEF   16796--REDEF   16797--REDEF   16801--REDEF
QI_MAT.PICTURE_STRING
     16857**DCL     16860--REDEF   16861--REDEF   16864--REDEF   16865--REDEF   16868--REDEF
QI_MAT.ROUND
     16890**DCL     16891--REDEF   16892--REDEF
QI_MAT.SRCH_VRFY_ELEMS
     16826**DCL     16829--REDEF
QI_PICTURE_STRING
     17823**DCL     17893--REDEF
QI_PICTURE_STRING.CA
     17828**DCL     17832--REDEF   17835--REDEF   17838--REDEF
QI_SRCH_VRFY.CIP
     15620**DCL     16071--REDEF
QI_SRCH_VRFY.CIP.AUX
     15986**DCL     16057--REDEF
QI_SRCH_VRFY.CIP.AUX.CA
     15989**DCL     15993--REDEF   15996--REDEF   15999--REDEF
QI_SRCH_VRFY.CIP.S
     15690**DCL     15761--REDEF
PL6.E3A0      #001=QCI$IO_READ File=QCI$IO_READ.:E05TSI                          WED 07/30/97 05:10 Page:71
QI_SRCH_VRFY.CIP.S.CA
     15693**DCL     15697--REDEF   15700--REDEF   15703--REDEF
QI_SRCH_VRFY.CIP.T
     15838**DCL     15909--REDEF
QI_SRCH_VRFY.CIP.T.CA
     15841**DCL     15845--REDEF   15848--REDEF   15851--REDEF
QI_SRCH_VRFY.DATA
     16078**DCL     16082--REDEF
QI_SRCH_VRFY.DEC
     16146**DCL     16150--REDEF   16151--REDEF   16155--REDEF
QI_SRCH_VRFY.FILL_CHAR
     16202**DCL     16205--REDEF
QI_SRCH_VRFY.ROUND
     16221**DCL     16222--REDEF   16223--REDEF
QI_SRCH_VRFY.SRCH_RESULT
     16162**DCL     16165--REDEF   16166--REDEF   16169--REDEF   16170--REDEF   16173--REDEF
QI_SRCH_VRFY.SRCH_VRFY_ARGS
     16086**DCL     16090--REDEF   16091--REDEF   16095--REDEF   16096--REDEF   16100--REDEF
QI_SRCH_VRFY.SRCH_VRFY_ELEMS
     16157**DCL     16160--REDEF
QI_TYPE_BINARY_TARGET.CIP
     14947**DCL     15398--REDEF
QI_TYPE_BINARY_TARGET.CIP.AUX
     15313**DCL     15384--REDEF
QI_TYPE_BINARY_TARGET.CIP.AUX.CA
     15316**DCL     15320--REDEF   15323--REDEF   15326--REDEF
QI_TYPE_BINARY_TARGET.CIP.S
     15017**DCL     15088--REDEF
QI_TYPE_BINARY_TARGET.CIP.S.CA
     15020**DCL     15024--REDEF   15027--REDEF   15030--REDEF
QI_TYPE_BINARY_TARGET.CIP.T
     15165**DCL     15236--REDEF
QI_TYPE_BINARY_TARGET.CIP.T.CB
     15182**DCL     15185--REDEF   15189--REDEF   15192--REDEF
QI_TYPE_BINARY_TARGET.DATA
     15405**DCL     15409--REDEF
PL6.E3A0      #001=QCI$IO_READ File=QCI$IO_READ.:E05TSI                          WED 07/30/97 05:10 Page:72
QI_TYPE_BINARY_TARGET.DEC
     15473**DCL     15477--REDEF   15478--REDEF   15482--REDEF
QI_TYPE_BINARY_TARGET.LEN
     15445**DCL     15449--REDEF   15450--REDEF   15454--REDEF   15455--REDEF   15459--REDEF
QI_TYPE_BINARY_TARGET.PICTURE_STRING
     15515**DCL     15518--REDEF   15519--REDEF   15522--REDEF   15523--REDEF   15526--REDEF
QI_TYPE_BINARY_TARGET.ROUND
     15548**DCL     15549--REDEF   15550--REDEF
QI_TYPE_BINARY_TARGET.SIZE_ERROR
     15534**DCL     15535--REDEF
QI_TYPE_BINARY_TARGET.SRCH_VRFY_ELEMS
     15484**DCL     15487--REDEF
QI_TYPE_DISPLAY_SOURCE.CIP
     13615**DCL     14066--REDEF
QI_TYPE_DISPLAY_SOURCE.CIP.AUX
     13981**DCL     14052--REDEF
QI_TYPE_DISPLAY_SOURCE.CIP.AUX.CA
     13984**DCL     13988--REDEF   13991--REDEF   13994--REDEF
QI_TYPE_DISPLAY_SOURCE.CIP.S
     13685**DCL     13756--REDEF
QI_TYPE_DISPLAY_SOURCE.CIP.S.CD
     13730**DCL     13733--REDEF   13737--REDEF   13740--REDEF
QI_TYPE_DISPLAY_SOURCE.CIP.T
     13833**DCL     13904--REDEF
QI_TYPE_DISPLAY_SOURCE.CIP.T.CA
     13836**DCL     13840--REDEF   13843--REDEF   13846--REDEF
QI_TYPE_DISPLAY_SOURCE.DATA
     14073**DCL     14077--REDEF
QI_TYPE_DISPLAY_SOURCE.DEC
     14141**DCL     14145--REDEF   14146--REDEF   14150--REDEF
QI_TYPE_DISPLAY_SOURCE.LEN
     14113**DCL     14117--REDEF   14118--REDEF   14122--REDEF   14123--REDEF   14127--REDEF
QI_TYPE_DISPLAY_SOURCE.PICTURE_STRING
     14183**DCL     14186--REDEF   14187--REDEF   14190--REDEF   14191--REDEF   14194--REDEF
QI_TYPE_DISPLAY_SOURCE.ROUND
     14216**DCL     14217--REDEF   14218--REDEF
PL6.E3A0      #001=QCI$IO_READ File=QCI$IO_READ.:E05TSI                          WED 07/30/97 05:10 Page:73
QI_TYPE_DISPLAY_SOURCE.SIZE_ERROR
     14202**DCL     14203--REDEF
QI_TYPE_DISPLAY_SOURCE.SRCH_VRFY_ELEMS
     14152**DCL     14155--REDEF
QI_TYPE_DISPLAY_TARGET.CIP
     14281**DCL     14732--REDEF
QI_TYPE_DISPLAY_TARGET.CIP.AUX
     14647**DCL     14718--REDEF
QI_TYPE_DISPLAY_TARGET.CIP.AUX.CA
     14650**DCL     14654--REDEF   14657--REDEF   14660--REDEF
QI_TYPE_DISPLAY_TARGET.CIP.S
     14351**DCL     14422--REDEF
QI_TYPE_DISPLAY_TARGET.CIP.S.CA
     14354**DCL     14358--REDEF   14361--REDEF   14364--REDEF
QI_TYPE_DISPLAY_TARGET.CIP.T
     14499**DCL     14570--REDEF
QI_TYPE_DISPLAY_TARGET.CIP.T.CD
     14544**DCL     14547--REDEF   14551--REDEF   14554--REDEF
QI_TYPE_DISPLAY_TARGET.DATA
     14739**DCL     14743--REDEF
QI_TYPE_DISPLAY_TARGET.DEC
     14807**DCL     14811--REDEF   14812--REDEF   14816--REDEF
QI_TYPE_DISPLAY_TARGET.LEN
     14779**DCL     14783--REDEF   14784--REDEF   14788--REDEF   14789--REDEF   14793--REDEF
QI_TYPE_DISPLAY_TARGET.PICTURE_STRING
     14849**DCL     14852--REDEF   14853--REDEF   14856--REDEF   14857--REDEF   14860--REDEF
QI_TYPE_DISPLAY_TARGET.ROUND
     14882**DCL     14883--REDEF   14884--REDEF
QI_TYPE_DISPLAY_TARGET.SIZE_ERROR
     14868**DCL     14869--REDEF
QI_TYPE_DISPLAY_TARGET.SRCH_VRFY_ELEMS
     14818**DCL     14821--REDEF
QI_VLP_SEGMENT.BASE
     18907**DCL     18907--REDEF
QI_VLP_SEGMENT_BUFFER.BASE
     19005**DCL     19005--REDEF
PL6.E3A0      #001=QCI$IO_READ File=QCI$IO_READ.:E05TSI                          WED 07/30/97 05:10 Page:74
QI_VLP_SEGMENT_LOAD.BASE
     19103**DCL     19103--REDEF
QI_VLP_TRMCTL.BREAKCOUNT
     20097**DCL     20098--REDEF
QI_VLP_XBREAK.IC
     20287**DCL     20287--REDEF
QI_VLP_XBREAK.OLDIC
     20287**DCL     20288--REDEF   20288--REDEF
READ_SELECTED_FIELDS
     20781**LABEL   20789--EXIT
VARIABLE_SOURCE$
     20323**DCL     21001<<ASSIGN  21025>>IF      21033>>ASSIGN
VARIABLE_TARGET$
     20324**DCL     21003<<ASSIGN  21025>>IF      21033>>ASSIGN
WE_SELECTED_ONE
     20325**DCL     20595<<ASSIGN  20720<<ASSIGN  20760>>IF
