VERSION E05

PL6.E3A0      #001=QCU$UNSIGN File=QCU$UNSIGN.:E05TSI                            WED 07/30/97 05:15 Page:1
        1        1        /*M* QCU$UNSIGN:  Make an ALPHANUMERIC-looking item out of something.  */
        2        2        /*T***********************************************************/
        3        3        /*T*                                                         */
        4        4        /*T* Copyright (c) Bull HN Information Systems Inc., 1997    */
        5        5        /*T*                                                         */
        6        6        /*T***********************************************************/
        7        7        /*X* DMC,PLM=4,IND=0,DCI=4,CSI=2,IAD=2,DTI=2,AND,ECI=0,DIN=2,STI=2 */
        8        8
        9        9        /*P*  NAME:         QCU$UNSIGN
       10       10              PURPOSE:      Make an ALPHANUMERIC-looking item out of something
       11       11                            which may be DISPLAY or PACKED, signed, and
       12       12                            possibly P-scaled.
       13       13              DESCRIPTION:  At various times, the compiler gens op-codes which
       14       14                            "mix" numeric and alphanumeric items, knowing full
       15       15                            well that the interpreter's going to have to turn
       16       16                            cartwheels to make everything work.  This thing is
       17       17                            called to alphanumericize numeric items so such
       18       18                            operations will work.
       19       19        */
       20       20
       21       21        QCU$UNSIGN: PROC;
       22       22
       23       23          %INCLUDE LCP_6;
       24      214
       25      215          %INCLUDE QG_MACRO_M;
       26      352          %INCLUDE QI_EQUATES_E;
       27      711          %INCLUDE QI_MACROS_M;
       28     5769          %QI$ALL;
       29    16882
       30    16883    1     DCL CIP$ PTR;
       31    16884    1     DCL FUNNY_ADDRESS_SYLLABLE_OR_BITS BIT(16);
       32    16885    1     DCL INX UBIN;
       33    16886    1     DCL LENGTH_DECREMENT_FOR_SIGN UBIN;
       34    16887          %QI@TYPE_DISPLAY_TARGET ( STCLASS = "AUTO" );
       35    17552
       36    17553    1     DCL QCC$DMC ENTRY(1) ALTRET;
       37    17554        %EJECT;
PL6.E3A0      #001=QCU$UNSIGN File=QCU$UNSIGN.:E05TSI                            WED 07/30/97 05:15 Page:2
       38    17555    1   QCU$UNSIGN_SOURCE: ENTRY;
       39    17556
       40    17557        /*D*  NAME:         QCU$UNSIGN_SOURCE
       41    17558              CALL:         CALL QCU$UNSIGN_SOURCE;
       42    17559              PARAMETERS:   None.
       43    17560              INTERFACE:    Called by QBM$MOVxx, QCI$IFxx;
       44    17561                            may call QCC$DMC for some numeric items.
       45    17562              ENVIRONMENT:  Nothing unusual.
       46    17563              INPUT:        QI_1.OP.xx.S., all flags of which have been
       47    17564                            QCS$SETUP_SOURCE'd.
       48    17565              OUTPUT:       Changes some things in QI_1.OP.xx.S., notably
       49    17566                            QI_1.OP.DATA.S$ -> the_data.
       50    17567              SCRATCH:      Various otter data.
       51    17568              DESCRIPTION:  Just make QI_1.OP.xx.S. look as alphanumeric as
       52    17569                            possible:  get rid of packing, signs and P-scaling.
       53    17570        */
       54    17571
       55    17572    1       INX = %QI#SOURCE;
       56    17573    1       FUNNY_ADDRESS_SYLLABLE_OR_BITS = '0010'X;
       57    17574    1       CIP$ = ADDR ( QI_1.OP.CIP_A (%QI#SOURCE) );
       58    17575    1       GOTO SO_UNSIGN_IT_ALREADY;
       59    17576
       60    17577    1   QCU$UNSIGN_TARGET: ENTRY;
       61    17578
       62    17579        /*D*  NAME:         QCU$UNSIGN_TARGET
       63    17580              CALL:         CALL QCU$UNSIGN_TARGET;
       64    17581              PARAMETERS:   None.
       65    17582              INTERFACE:    Called by QBM$MOVxx, QCI$IFxx;
       66    17583                            may call QCC$DMC for some numeric items.
       67    17584              ENVIRONMENT:  Nothing unusual.
       68    17585              INPUT:        QI_1.OP.xx.T., all flags of which have been
       69    17586                            QCS$SETUP_TARGET'd.
       70    17587              OUTPUT:       Changes some things in QI_1.OP.xx.T., notably
       71    17588                            QI_1.OP.DATA.T$ -> the_data.
       72    17589              SCRATCH:      Various otter data.
       73    17590              DESCRIPTION:  Just make QI_1.OP.xx.T. look as alphanumeric as
       74    17591                            possible:  get rid of packing, signs and P-scaling.
PL6.E3A0      #001=QCU$UNSIGN File=QCU$UNSIGN.:E05TSI                            WED 07/30/97 05:15 Page:3
       75    17592        */
       76    17593
       77    17594    1       INX = %QI#TARGET;
       78    17595    1       FUNNY_ADDRESS_SYLLABLE_OR_BITS = '0020'X;
       79    17596    1       CIP$ = ADDR ( QI_1.OP.CIP_A (%QI#TARGET) );
       80    17597    1       GOTO SO_UNSIGN_IT_ALREADY;
       81    17598
       82    17599    1   QCU$UNSIGN_AUX: ENTRY;
       83    17600
       84    17601        /*D*  NAME:         QCU$UNSIGN_AUX
       85    17602              CALL:         CALL QCU$UNSIGN_AUX;
       86    17603              PARAMETERS:   None.
       87    17604              INTERFACE:    Called by QBM$MOVxx, QCI$IFxx;
       88    17605                            may call QCC$DMC for some numeric items.
       89    17606              ENVIRONMENT:  Nothing unusual.
       90    17607              INPUT:        QI_1.OP.xx.AUX., all flags of which have been
       91    17608                            QCS$SETUP_AUX'd.
       92    17609              OUTPUT:       Changes some things in QI_1.OP.xx.AUX., notably
       93    17610                            QI_1.OP.DATA.AUX$ -> the_data.
       94    17611              SCRATCH:      Various otter data.
       95    17612              DESCRIPTION:  Just make QI_1.OP.xx.AUX. look as alphanumeric as
       96    17613                            possible:  get rid of packing, signs and P-scaling.
       97    17614        */
       98    17615
       99    17616    1       INX = %QI#AUX;
      100    17617    1       FUNNY_ADDRESS_SYLLABLE_OR_BITS = '0030'X;
      101    17618    1       CIP$ = ADDR ( QI_1.OP.CIP_A (%QI#AUX) );
      102    17619
      103    17620    1   SO_UNSIGN_IT_ALREADY:
      104    17621
      105    17622            /*  These next few cases contain lots of code that could be
      106    17623                "compressed" into fewer statements.  However, after about
      107    17624                the 17th rewrite of this module, I have come to appreciate
      108    17625                the subtlety of some of these conversions, and have decided
      109    17626                to re-code it in the most obvious fashion.  JJL, C01.  */
      110    17627    2       DO CASE ( QI_1.TYPE_A (INX) );
      111    17628
PL6.E3A0      #001=QCU$UNSIGN File=QCU$UNSIGN.:E05TSI                            WED 07/30/97 05:15 Page:4
      112    17629    2         CASE ( %QI#TYPE_ALPHANUMERIC );
      113    17630    2           RETURN;
      114    17631
      115    17632    2         CASE ( %QI#TYPE_DISPLAY );
      116    17633    3           DO CASE ( CIP$ -> QI$CIP.CD.SIGN );
      117    17634
      118    17635    3             CASE ( %QI#CD_UNSIGNED );
      119    17636    3               IF QI_1.OP.DEC_A (INX) < 0
      120    17637    3               THEN
      121    17638    4                 DO;
      122    17639    4                   LENGTH_DECREMENT_FOR_SIGN = 0;
      123    17640    4                   CALL MAKE_A_SCALED_DISPLAY_ITEM;
      124    17641    4                 END;
      125    17642    3               ELSE
      126    17643    4                 DO;
      127    17644    4                   QI_1.OP.INX_A (INX) = 0;
      128    17645    4                 END;
      129    17646
      130    17647    3             CASE ( %QI#CD_SIGN_LEADING_SEPARATE );
      131    17648    3               IF QI_1.OP.DEC_A (INX) < 0
      132    17649    3               THEN
      133    17650    4                 DO;
      134    17651    4                   LENGTH_DECREMENT_FOR_SIGN = 1;
      135    17652    4                   CALL MAKE_A_SCALED_DISPLAY_ITEM;
      136    17653    4                 END;
      137    17654    3               ELSE
      138    17655    4                 DO;
      139    17656    4                   QI_1.OP.INX_A (INX) = 1;
      140    17657    4                   QI_1.OP.LEN_A (INX) = QI_1.OP.LEN_A (INX) - 1;
      141    17658    4                 END;
      142    17659
      143    17660    3             CASE ( %QI#CD_SIGN_TRAILING_SEPARATE );
      144    17661    3               IF QI_1.OP.DEC_A (INX) < 0
      145    17662    3               THEN
      146    17663    4                 DO;
      147    17664    4                   LENGTH_DECREMENT_FOR_SIGN = 1;
      148    17665    4                   CALL MAKE_A_SCALED_DISPLAY_ITEM;
PL6.E3A0      #001=QCU$UNSIGN File=QCU$UNSIGN.:E05TSI                            WED 07/30/97 05:15 Page:5
      149    17666    4                 END;
      150    17667    3               ELSE
      151    17668    4                 DO;
      152    17669    4                   QI_1.OP.INX_A (INX) = 0;
      153    17670    4                   QI_1.OP.LEN_A (INX) = QI_1.OP.LEN_A (INX) - 1;
      154    17671    4                 END;
      155    17672
      156    17673    3             CASE ( %QI#CD_SIGN_TRAILING_OVER );
      157    17674    3               IF QI_1.OP.DEC_A (INX) < 0
      158    17675    3               THEN
      159    17676    4                 DO;
      160    17677    4                   LENGTH_DECREMENT_FOR_SIGN = 0;
      161    17678    4                   CALL MAKE_A_SCALED_DISPLAY_ITEM;
      162    17679    4                 END;
      163    17680    3               ELSE
      164    17681    4                 DO;
      165    17682    4                   QI_1.OP.DEC_A (INX) = 0;
      166    17683    4                   LENGTH_DECREMENT_FOR_SIGN = 0;
      167    17684    4                   CALL MAKE_A_SCALED_DISPLAY_ITEM;
      168    17685    4                 END;
      169    17686
      170    17687    3           END;
      171    17688
      172    17689    2         CASE ( %QI#TYPE_PACKED );
      173    17690    3           DO CASE ( QI_1.OP.CIP.S.CP.SIGN );
      174    17691
      175    17692    3             CASE ( %QI#CP_UNSIGNED );
      176    17693    3               IF QI_1.OP.DEC_A (INX) < 0
      177    17694    3               THEN
      178    17695    4                 DO;
      179    17696    4                   LENGTH_DECREMENT_FOR_SIGN = 0;
      180    17697    4                   CALL MAKE_A_SCALED_DISPLAY_ITEM;
      181    17698    4                 END;
      182    17699    3               ELSE
      183    17700    4                 DO;
      184    17701    4                   QI_1.OP.DEC_A (INX) = 0;
      185    17702    4                   LENGTH_DECREMENT_FOR_SIGN = 0;
PL6.E3A0      #001=QCU$UNSIGN File=QCU$UNSIGN.:E05TSI                            WED 07/30/97 05:15 Page:6
      186    17703    4                   CALL MAKE_A_SCALED_DISPLAY_ITEM;
      187    17704    4                 END;
      188    17705
      189    17706    3             CASE ( %QI#CP_SIGN_TRAILING );
      190    17707    3               IF QI_1.OP.DEC_A (INX) < 0
      191    17708    3               THEN
      192    17709    4                 DO;
      193    17710    4                   LENGTH_DECREMENT_FOR_SIGN = 1;
      194    17711    4                   CALL MAKE_A_SCALED_DISPLAY_ITEM;
      195    17712    4                 END;
      196    17713    3               ELSE
      197    17714    4                 DO;
      198    17715    4                   QI_1.OP.DEC_A (INX) = 0;
      199    17716    4                   LENGTH_DECREMENT_FOR_SIGN = 1;
      200    17717    4                   CALL MAKE_A_SCALED_DISPLAY_ITEM;
      201    17718    4                 END;
      202    17719
      203    17720    3           END;
      204    17721
      205    17722    2       END;
      206    17723
      207    17724            /* By the time we get here (even if we had such a monster as a
      208    17725               packed field with P-scaling) we now have a ALPANUMERIC-
      209    17726               looking item whose real length can be found in
      210    17727               QI_1.OP.LEN_A (INX).  Sooo, we'll just randomly stomp
      211    17728               on the length in the CIP descriptor itself, stick
      212    17729               in an appropriate address syllable, and remember to FILL.  */
      213    17730    1       CIP$ -> QI$CIP.LEN = 0;
      214    17731    1       CIP$ -> QI$CIP.AS = BITBIN ( %BINBIT ( %QI#CIP_DEFAULT_AS, 16 ) |
             17731                FUNNY_ADDRESS_SYLLABLE_OR_BITS );
      215    17732    1       CIP$ -> QI$CIP.CA.FILL = 1;
      216    17733
      217    17734    1       QI_1.TYPE_A (INX) = %QI#TYPE_ALPHANUMERIC;
      218    17735
      219    17736    1       RETURN;
      220    17737
      221    17738        %EJECT;
PL6.E3A0      #001=QCU$UNSIGN File=QCU$UNSIGN.:E05TSI                            WED 07/30/97 05:15 Page:7
      222    17739    1   MAKE_A_SCALED_DISPLAY_ITEM: PROC;
      223    17740
      224    17741        /*I*  NAME:         MAKE_A_SCALED_DISPLAY_ITEM
      225    17742              PURPOSE:      Make an alphanumeric-looking item out of a
      226    17743                            DISPLAY or PACKED item.
      227    17744              CALL:         CALL MAKE_A_SCALED_DISPLAY_ITEM;
      228    17745              PARAMETERS:   None.
      229    17746              DATA:         QI_1.stuff,
      230    17747                            CIP$ from above.
      231    17748              DESCRIPTION:  Basically just common code for DISPLAY or PACKED items
      232    17749                            to get them unpacked, unsigned and/or unP-scaled.
      233    17750        */
      234    17751
      235    17752    2       QI@TYPE_DISPLAY_TARGET = QI_TYPE_DISPLAY_TARGET;
      236    17753    2       QI@TYPE_DISPLAY_TARGET.CIP.S_A (0) = CIP$ -> QI$CIP_A (0);
      237    17754    2       QI@TYPE_DISPLAY_TARGET.DATA.S$ = QI_1.OP.DATA_A$ (INX);
      238    17755    2       QI@TYPE_DISPLAY_TARGET.DEC.S = QI_1.OP.DEC_A (INX);
      239    17756
      240    17757            /* Get the address of where to stuff the soon-to-be unsigned
      241    17758               item.  Normally, OTTER_SPACE$ will point to an
      242    17759               OTTER_SPACE item a couple of frames back.  */
      243    17760    2       QI_1.OP.DATA_A$ (INX) = QI_1.OTTER_SPACE_A$ (INX);
      244    17761    2       QI@TYPE_DISPLAY_TARGET.DATA.T$ = QI_1.OTTER_SPACE_A$ (INX);
      245    17762
      246    17763            /* Since the target's DEC is 0, P-scaled items will
      247    17764               automatically be re-aligned here. */
      248    17765
      249    17766    2       QI@TYPE_DISPLAY_TARGET.CIP.T.CD.SIGN = %QI#CD_UNSIGNED;
      250    17767
      251    17768    2       QI@TYPE_DISPLAY_TARGET.SIZE_ERROR = %QI#DONT_CHECK_FOR_SIZE_ERROR;
      252    17769
      253    17770    2       CALL QCC$DMC ( QI@TYPE_DISPLAY_TARGET );
      254    17771
      255    17772    2       CIP$ -> QI$CIP_A (0) = 0;
      256    17773    2       QI_1.OP.LEN_A (INX) = QI_1.OP.LEN_A (INX)
      257    17774    2         - QI_1.OP.DEC_A (INX)
      258    17775    2         - LENGTH_DECREMENT_FOR_SIGN;
PL6.E3A0      #001=QCU$UNSIGN File=QCU$UNSIGN.:E05TSI                            WED 07/30/97 05:15 Page:8
      259    17776    2       QI_1.OP.INX_A (INX) = %QI#MAX_DISPLAY_LENGTH
      260    17777    2         - QI_1.OP.LEN_A (INX);
      261    17778    2       QI_1.OFFSET_A (INX) = 0;
      262    17779
      263    17780    2       RETURN;
      264    17781
      265    17782    2   END MAKE_A_SCALED_DISPLAY_ITEM;
      266    17783
      267    17784    1   END QCU$UNSIGN;

PL6.E3A0      #001=QCU$UNSIGN File=QCU$UNSIGN.:E05TSI                            WED 07/30/97 05:15 Page:9
--  Include file information  --

   QI_MACROS_M.:E05TOU  is referenced.
   QI_EQUATES_E.:E05TOU  is referenced.
   QG_MACRO_M.:E05TOU  is referenced.
   LCP_6.:E05TOU  cannot be made into a system file and is referenced.
   G_LCP6_E.:E05TOU  was found in the system file and is referenced.
   GT_LCP6_M.:E05TOU  was found in the system file and is referenced.
   KI_CP6.:E05TOU  was found in the system file and is referenced.
   GF_LCP6_M.:E05TOU  was found in the system file and is referenced.
   GM_LCP6_M.:E05TOU  was found in the system file and is referenced.
   GU_LCP6_M.:E05TOU  was found in the system file and is referenced.
   GJ_LCP6_M.:E05TOU  was found in the system file and is referenced.
   GH_LCP6_M.:E05TOU  was found in the system file and is referenced.
      No diagnostics issued in procedure QCU$UNSIGN.

   Procedure QCU$UNSIGN requires 355 words for executable code.
   Procedure QCU$UNSIGN requires 38 words of local(AUTO) storage.

    No errors detected in file QCU$UNSIGN.:E05TSI    .

PL6.E3A0      #001=QCU$UNSIGN File=QCU$UNSIGN.:E05TSI                            WED 07/30/97 05:15 Page:10

 Object Unit name= QCU$UNSIGN                                 File name= QCU$UNSIGN.:E05TOU
 UTS= JUL 30 '97 05:15:23.80 WED                              Compiler= PL-6/E31         Sev=      00
 SharedLib= :SHARED_LCP6_SYSTEM                               Alt SharedLib=


    ****  Control sections  ****

 Sect   Type Bound  Init  Size HexSiz  Section name
    0   Proc  even  none   355    163  QCU$UNSIGN

    ****  Entry defs  ****

                              Check   Calling
                             calling  sequence
  Sect HexLoc Primary Altret sequence   type   Parms  Name
     0      0   yes            yes      Std        0  QCU$UNSIGN
     0      7                  yes      Std        0  QCU$UNSIGN_SOURCE
     0     18                  yes      Std        0  QCU$UNSIGN_TARGET
     0     2A                  yes      Std        0  QCU$UNSIGN_AUX

  ****  Entry refs  ****

         Check        Calling
        calling       sequence
Altret sequence SRef   type   Args  Name
 yes     yes           Std       1 QCC$DMC
                       nStd      0 X6A_AUTO_0
                       nStd      0 X6A_ARET

  ****  Data refs  ****

  Flags:  r = read only, s = secondary
Flgs Name                             Flgs Name                             Flgs Name
     QI_1                                  QI_TYPE_DISPLAY_TARGET                QI_4_CHAR_ALPHANUMERIC
     QI_31_DIGIT_SLS_DISPLAY               QI_16_BIT_BINARY                      QI_32_BIT_BINARY
     QI_31_DIGIT_ST_PACKED                 QI_PICTURE_STRING                r    G$ROS$
PL6.E3A0      #001=QCU$UNSIGN File=QCU$UNSIGN.:E05TSI                            WED 07/30/97 05:15 Page:11


        1        1        /*M* QCU$UNSIGN:  Make an ALPHANUMERIC-looking item out of something.  */
        2        2        /*T***********************************************************/
        3        3        /*T*                                                         */
        4        4        /*T* Copyright (c) Bull HN Information Systems Inc., 1997    */
        5        5        /*T*                                                         */
        6        6        /*T***********************************************************/
        7        7        /*X* DMC,PLM=4,IND=0,DCI=4,CSI=2,IAD=2,DTI=2,AND,ECI=0,DIN=2,STI=2 */
        8        8
        9        9        /*P*  NAME:         QCU$UNSIGN
       10       10              PURPOSE:      Make an ALPHANUMERIC-looking item out of something
       11       11                            which may be DISPLAY or PACKED, signed, and
       12       12                            possibly P-scaled.
       13       13              DESCRIPTION:  At various times, the compiler gens op-codes which
       14       14                            "mix" numeric and alphanumeric items, knowing full
       15       15                            well that the interpreter's going to have to turn
       16       16                            cartwheels to make everything work.  This thing is
       17       17                            called to alphanumericize numeric items so such
       18       18                            operations will work.
       19       19        */
       20       20
       21       21        QCU$UNSIGN: PROC;

     21   0 000000  D380 0000 0000  xent QCU$UNSIGN      LNJ,B5   X6A_AUTO_0
          0 000003       0026 0000                       DC       38,0
          0 000005  0F81 0006                            B        s:17572,PREL

       22       22
       23       23          %INCLUDE LCP_6;
       24      214
       25      215          %INCLUDE QG_MACRO_M;
       26      352          %INCLUDE QI_EQUATES_E;
       27      711          %INCLUDE QI_MACROS_M;
       28     5769          %QI$ALL;
       29    16882
       30    16883    1     DCL CIP$ PTR;
       31    16884    1     DCL FUNNY_ADDRESS_SYLLABLE_OR_BITS BIT(16);
PL6.E3A0      #001=QCU$UNSIGN File=QCU$UNSIGN.:E05TSI                            WED 07/30/97 05:15 Page:12
       32    16885    1     DCL INX UBIN;
       33    16886    1     DCL LENGTH_DECREMENT_FOR_SIGN UBIN;
       34    16887          %QI@TYPE_DISPLAY_TARGET ( STCLASS = "AUTO" );
       35    17552
       36    17553    1     DCL QCC$DMC ENTRY(1) ALTRET;
       37    17554        %EJECT;
PL6.E3A0      #001=QCU$UNSIGN File=QCU$UNSIGN.:E05TSI                            WED 07/30/97 05:15 Page:13
       38    17555    1   QCU$UNSIGN_SOURCE: ENTRY;

  17555   0 000007  D380 0000 0000  xent QCU$UNSIGN_SOUR*LNJ,B5   X6A_AUTO_0
          0 00000A       0026 0000                       DC       38,0

       39    17556
       40    17557        /*D*  NAME:         QCU$UNSIGN_SOURCE
       41    17558              CALL:         CALL QCU$UNSIGN_SOURCE;
       42    17559              PARAMETERS:   None.
       43    17560              INTERFACE:    Called by QBM$MOVxx, QCI$IFxx;
       44    17561                            may call QCC$DMC for some numeric items.
       45    17562              ENVIRONMENT:  Nothing unusual.
       46    17563              INPUT:        QI_1.OP.xx.S., all flags of which have been
       47    17564                            QCS$SETUP_SOURCE'd.
       48    17565              OUTPUT:       Changes some things in QI_1.OP.xx.S., notably
       49    17566                            QI_1.OP.DATA.S$ -> the_data.
       50    17567              SCRATCH:      Various otter data.
       51    17568              DESCRIPTION:  Just make QI_1.OP.xx.S. look as alphanumeric as
       52    17569                            possible:  get rid of packing, signs and P-scaling.
       53    17570        */
       54    17571
       55    17572    1       INX = %QI#SOURCE;

  17572   0 00000C  8747 0007                            CL       INX,AUTO

       56    17573    1       FUNNY_ADDRESS_SYLLABLE_OR_BITS = '0010'X;

  17573   0 00000E  6C10                                 LDV,R6   16
          0 00000F  EF47 0006                            STR,R6   FUNNY_ADDRESS_SYLLABLE_OR_BITS,AUTO

       57    17574    1       CIP$ = ADDR ( QI_1.OP.CIP_A (%QI#SOURCE) );

  17574   0 000011  EB80 0000 001A  xsym                 LAB,B6   QI_1+26
          0 000014  EFC7 0004                            STB,B6   CIP$,AUTO

       58    17575    1       GOTO SO_UNSIGN_IT_ALREADY;

PL6.E3A0      #001=QCU$UNSIGN File=QCU$UNSIGN.:E05TSI                            WED 07/30/97 05:15 Page:14
  17575   0 000016  0F81 0023                            B        s:17627,PREL

       59    17576
       60    17577    1   QCU$UNSIGN_TARGET: ENTRY;

  17577   0 000018  D380 0000 0000  xent QCU$UNSIGN_TARG*LNJ,B5   X6A_AUTO_0
          0 00001B       0026 0000                       DC       38,0

       61    17578
       62    17579        /*D*  NAME:         QCU$UNSIGN_TARGET
       63    17580              CALL:         CALL QCU$UNSIGN_TARGET;
       64    17581              PARAMETERS:   None.
       65    17582              INTERFACE:    Called by QBM$MOVxx, QCI$IFxx;
       66    17583                            may call QCC$DMC for some numeric items.
       67    17584              ENVIRONMENT:  Nothing unusual.
       68    17585              INPUT:        QI_1.OP.xx.T., all flags of which have been
       69    17586                            QCS$SETUP_TARGET'd.
       70    17587              OUTPUT:       Changes some things in QI_1.OP.xx.T., notably
       71    17588                            QI_1.OP.DATA.T$ -> the_data.
       72    17589              SCRATCH:      Various otter data.
       73    17590              DESCRIPTION:  Just make QI_1.OP.xx.T. look as alphanumeric as
       74    17591                            possible:  get rid of packing, signs and P-scaling.
       75    17592        */
       76    17593
       77    17594    1       INX = %QI#TARGET;

  17594   0 00001D  6C01                                 LDV,R6   1
          0 00001E  EF47 0007                            STR,R6   INX,AUTO

       78    17595    1       FUNNY_ADDRESS_SYLLABLE_OR_BITS = '0020'X;

  17595   0 000020  5C20                                 LDV,R5   32
          0 000021  DF47 0006                            STR,R5   FUNNY_ADDRESS_SYLLABLE_OR_BITS,AUTO

       79    17596    1       CIP$ = ADDR ( QI_1.OP.CIP_A (%QI#TARGET) );

  17596   0 000023  EB80 0000 001C  xsym                 LAB,B6   QI_1+28
PL6.E3A0      #001=QCU$UNSIGN File=QCU$UNSIGN.:E05TSI                            WED 07/30/97 05:15 Page:15
          0 000026  EFC7 0004                            STB,B6   CIP$,AUTO

       80    17597    1       GOTO SO_UNSIGN_IT_ALREADY;

  17597   0 000028  0F81 0011                            B        s:17627,PREL

       81    17598
       82    17599    1   QCU$UNSIGN_AUX: ENTRY;

  17599   0 00002A  D380 0000 0000  xent QCU$UNSIGN_AUX  LNJ,B5   X6A_AUTO_0
          0 00002D       0026 0000                       DC       38,0

       83    17600
       84    17601        /*D*  NAME:         QCU$UNSIGN_AUX
       85    17602              CALL:         CALL QCU$UNSIGN_AUX;
       86    17603              PARAMETERS:   None.
       87    17604              INTERFACE:    Called by QBM$MOVxx, QCI$IFxx;
       88    17605                            may call QCC$DMC for some numeric items.
       89    17606              ENVIRONMENT:  Nothing unusual.
       90    17607              INPUT:        QI_1.OP.xx.AUX., all flags of which have been
       91    17608                            QCS$SETUP_AUX'd.
       92    17609              OUTPUT:       Changes some things in QI_1.OP.xx.AUX., notably
       93    17610                            QI_1.OP.DATA.AUX$ -> the_data.
       94    17611              SCRATCH:      Various otter data.
       95    17612              DESCRIPTION:  Just make QI_1.OP.xx.AUX. look as alphanumeric as
       96    17613                            possible:  get rid of packing, signs and P-scaling.
       97    17614        */
       98    17615
       99    17616    1       INX = %QI#AUX;

  17616   0 00002F  6C02                                 LDV,R6   2
          0 000030  EF47 0007                            STR,R6   INX,AUTO

      100    17617    1       FUNNY_ADDRESS_SYLLABLE_OR_BITS = '0030'X;

  17617   0 000032  5C30                                 LDV,R5   48
          0 000033  DF47 0006                            STR,R5   FUNNY_ADDRESS_SYLLABLE_OR_BITS,AUTO
PL6.E3A0      #001=QCU$UNSIGN File=QCU$UNSIGN.:E05TSI                            WED 07/30/97 05:15 Page:16

      101    17618    1       CIP$ = ADDR ( QI_1.OP.CIP_A (%QI#AUX) );

  17618   0 000035  EB80 0000 001E  xsym                 LAB,B6   QI_1+30
          0 000038  EFC7 0004                            STB,B6   CIP$,AUTO

      102    17619
      103    17620    1   SO_UNSIGN_IT_ALREADY:
      104    17621
      105    17622            /*  These next few cases contain lots of code that could be
      106    17623                "compressed" into fewer statements.  However, after about
      107    17624                the 17th rewrite of this module, I have come to appreciate
      108    17625                the subtlety of some of these conversions, and have decided
      109    17626                to re-code it in the most obvious fashion.  JJL, C01.  */
      110    17627    2       DO CASE ( QI_1.TYPE_A (INX) );

  17627   0 00003A  B847 0007            SO_UNSIGN_IT_AL*LDR,R3   INX,AUTO
          0 00003C  A830 0000 0050  xsym                 LDR,R2   QI_1+80,R3
          0 00003F  2D04                                 CMV,R2   4
          0 000040  0281 00BA                            BGE      s:17730,PREL
          0 000042  9820 0000 0048  00                   LDR,R1   SO_UNSIGN_IT_ALREADY+14,R2
          0 000045  8390 0000 004C  00                   JMP      s:17630,R1
          0 000048       0003                            DC       s:17633,PREL
          0 000049       006E                            DC       s:17690,PREL
          0 00004A       00AF                            DC       s:17730,PREL
          0 00004B       0000                            DC       s:17630,PREL

      111    17628
      112    17629    2         CASE ( %QI#TYPE_ALPHANUMERIC );

      113    17630    2           RETURN;

  17630   0 00004C  C380 0000 0000  xent                 LNJ,B4   X6A_ARET

      114    17631
      115    17632    2         CASE ( %QI#TYPE_DISPLAY );

PL6.E3A0      #001=QCU$UNSIGN File=QCU$UNSIGN.:E05TSI                            WED 07/30/97 05:15 Page:17
      116    17633    3           DO CASE ( CIP$ -> QI$CIP.CD.SIGN );

  17633   0 00004F  B806                                 LDR,R3   ,B6
          0 000050  304D                                 SOR,R3   13
          0 000051  B570 0003                            AND,R3   3,IMO
          0 000053  3D04                                 CMV,R3   4
          0 000054  0281 00A6                            BGE      s:17730,PREL
          0 000056  A830 0000 005C  00                   LDR,R2   s:17633+13,R3
          0 000059  83A0 0000 0060  00                   JMP      s:17636,R2
          0 00005C       0000                            DC       s:17636,PREL
          0 00005D       0042                            DC       s:17674,PREL
          0 00005E       0013                            DC       s:17648,PREL
          0 00005F       002B                            DC       s:17661,PREL

      117    17634
      118    17635    3             CASE ( %QI#CD_UNSIGNED );

      119    17636    3               IF QI_1.OP.DEC_A (INX) < 0

  17636   0 000060  9847 0007                            LDR,R1   INX,AUTO
          0 000062  E810 0000 0029  xsym                 LDR,R6   QI_1+41,R1
          0 000065  6881 0008                            BGEZ,R6  s:17644,PREL

      120    17637    3               THEN
      121    17638    4                 DO;

      122    17639    4                   LENGTH_DECREMENT_FOR_SIGN = 0;

  17639   0 000067  8747 0008                            CL       LENGTH_DECREMENT_FOR_SIGN,AUTO

      123    17640    4                   CALL MAKE_A_SCALED_DISPLAY_ITEM;

  17640   0 000069  E3C0 00A6                            LNJ,B6   s:0,PREL
          0 00006B       0001                            DC       s:17641,PREL

      124    17641    4                 END;

PL6.E3A0      #001=QCU$UNSIGN File=QCU$UNSIGN.:E05TSI                            WED 07/30/97 05:15 Page:18
  17641   0 00006C  0F81 008E                            B        s:17730,PREL

      125    17642    3               ELSE
      126    17643    4                 DO;

      127    17644    4                   QI_1.OP.INX_A (INX) = 0;

  17644   0 00006E  8710 0000 0029  xsym                 CL       QI_1+41,R1

      128    17645    4                 END;

  17645   0 000071  0F81 0089                            B        s:17730,PREL

      129    17646
      130    17647    3             CASE ( %QI#CD_SIGN_LEADING_SEPARATE );

      131    17648    3               IF QI_1.OP.DEC_A (INX) < 0

  17648   0 000073  9847 0007                            LDR,R1   INX,AUTO
          0 000075  E810 0000 0029  xsym                 LDR,R6   QI_1+41,R1
          0 000078  6881 0009                            BGEZ,R6  s:17656,PREL

      132    17649    3               THEN
      133    17650    4                 DO;

      134    17651    4                   LENGTH_DECREMENT_FOR_SIGN = 1;

  17651   0 00007A  5C01                                 LDV,R5   1
          0 00007B  DF47 0008                            STR,R5   LENGTH_DECREMENT_FOR_SIGN,AUTO

      135    17652    4                   CALL MAKE_A_SCALED_DISPLAY_ITEM;

  17652   0 00007D  E3C0 0092                            LNJ,B6   s:0,PREL
          0 00007F       0001                            DC       s:17653,PREL

      136    17653    4                 END;

PL6.E3A0      #001=QCU$UNSIGN File=QCU$UNSIGN.:E05TSI                            WED 07/30/97 05:15 Page:19
  17653   0 000080  0F81 007A                            B        s:17730,PREL

      137    17654    3               ELSE
      138    17655    4                 DO;

      139    17656    4                   QI_1.OP.INX_A (INX) = 1;

  17656   0 000082  5C01                                 LDV,R5   1
          0 000083  DF10 0000 0029  xsym                 STR,R5   QI_1+41,R1

      140    17657    4                   QI_1.OP.LEN_A (INX) = QI_1.OP.LEN_A (INX) - 1;

  17657   0 000086  8890 0000 0026  xsym                 DEC      QI_1+38,R1

      141    17658    4                 END;

  17658   0 000089  0F81 0071                            B        s:17730,PREL

      142    17659
      143    17660    3             CASE ( %QI#CD_SIGN_TRAILING_SEPARATE );

      144    17661    3               IF QI_1.OP.DEC_A (INX) < 0

  17661   0 00008B  9847 0007                            LDR,R1   INX,AUTO
          0 00008D  E810 0000 0029  xsym                 LDR,R6   QI_1+41,R1
          0 000090  6881 0009                            BGEZ,R6  s:17669,PREL

      145    17662    3               THEN
      146    17663    4                 DO;

      147    17664    4                   LENGTH_DECREMENT_FOR_SIGN = 1;

  17664   0 000092  5C01                                 LDV,R5   1
          0 000093  DF47 0008                            STR,R5   LENGTH_DECREMENT_FOR_SIGN,AUTO

      148    17665    4                   CALL MAKE_A_SCALED_DISPLAY_ITEM;

PL6.E3A0      #001=QCU$UNSIGN File=QCU$UNSIGN.:E05TSI                            WED 07/30/97 05:15 Page:20
  17665   0 000095  E3C0 007A                            LNJ,B6   s:0,PREL
          0 000097       0001                            DC       s:17666,PREL

      149    17666    4                 END;

  17666   0 000098  0F81 0062                            B        s:17730,PREL

      150    17667    3               ELSE
      151    17668    4                 DO;

      152    17669    4                   QI_1.OP.INX_A (INX) = 0;

  17669   0 00009A  8710 0000 0029  xsym                 CL       QI_1+41,R1

      153    17670    4                   QI_1.OP.LEN_A (INX) = QI_1.OP.LEN_A (INX) - 1;

  17670   0 00009D  8890 0000 0026  xsym                 DEC      QI_1+38,R1

      154    17671    4                 END;

  17671   0 0000A0  0F81 005A                            B        s:17730,PREL

      155    17672
      156    17673    3             CASE ( %QI#CD_SIGN_TRAILING_OVER );

      157    17674    3               IF QI_1.OP.DEC_A (INX) < 0

  17674   0 0000A2  9847 0007                            LDR,R1   INX,AUTO
          0 0000A4  E810 0000 0029  xsym                 LDR,R6   QI_1+41,R1
          0 0000A7  6881 0008                            BGEZ,R6  s:17682,PREL

      158    17675    3               THEN
      159    17676    4                 DO;

      160    17677    4                   LENGTH_DECREMENT_FOR_SIGN = 0;

  17677   0 0000A9  8747 0008                            CL       LENGTH_DECREMENT_FOR_SIGN,AUTO
PL6.E3A0      #001=QCU$UNSIGN File=QCU$UNSIGN.:E05TSI                            WED 07/30/97 05:15 Page:21

      161    17678    4                   CALL MAKE_A_SCALED_DISPLAY_ITEM;

  17678   0 0000AB  E3C0 0064                            LNJ,B6   s:0,PREL
          0 0000AD       0001                            DC       s:17679,PREL

      162    17679    4                 END;

  17679   0 0000AE  0F81 004C                            B        s:17730,PREL

      163    17680    3               ELSE
      164    17681    4                 DO;

      165    17682    4                   QI_1.OP.DEC_A (INX) = 0;

  17682   0 0000B0  8710 0000 0029  xsym                 CL       QI_1+41,R1

      166    17683    4                   LENGTH_DECREMENT_FOR_SIGN = 0;

  17683   0 0000B3  8747 0008                            CL       LENGTH_DECREMENT_FOR_SIGN,AUTO

      167    17684    4                   CALL MAKE_A_SCALED_DISPLAY_ITEM;

  17684   0 0000B5  E3C0 005A                            LNJ,B6   s:0,PREL
          0 0000B7       0001                            DC       s:17687,PREL

      168    17685    4                 END;

      169    17686
      170    17687    3           END;

  17687   0 0000B8  0F81 0042                            B        s:17730,PREL

      171    17688
      172    17689    2         CASE ( %QI#TYPE_PACKED );

      173    17690    3           DO CASE ( QI_1.OP.CIP.S.CP.SIGN );
PL6.E3A0      #001=QCU$UNSIGN File=QCU$UNSIGN.:E05TSI                            WED 07/30/97 05:15 Page:22

  17690   0 0000BA  B800 0000 001A  xsym                 LDR,R3   QI_1+26
          0 0000BD  304D                                 SOR,R3   13
          0 0000BE  B570 0001                            AND,R3   1,IMO
          0 0000C0  3D02                                 CMV,R3   2
          0 0000C1  0281 0039                            BGE      s:17730,PREL
          0 0000C3  A830 0000 00C9  00                   LDR,R2   s:17690+15,R3
          0 0000C6  83A0 0000 00CB  00                   JMP      s:17693,R2
          0 0000C9       0000                            DC       s:17693,PREL
          0 0000CA       0018                            DC       s:17707,PREL

      174    17691
      175    17692    3             CASE ( %QI#CP_UNSIGNED );

      176    17693    3               IF QI_1.OP.DEC_A (INX) < 0

  17693   0 0000CB  9847 0007                            LDR,R1   INX,AUTO
          0 0000CD  E810 0000 0029  xsym                 LDR,R6   QI_1+41,R1
          0 0000D0  6881 0008                            BGEZ,R6  s:17701,PREL

      177    17694    3               THEN
      178    17695    4                 DO;

      179    17696    4                   LENGTH_DECREMENT_FOR_SIGN = 0;

  17696   0 0000D2  8747 0008                            CL       LENGTH_DECREMENT_FOR_SIGN,AUTO

      180    17697    4                   CALL MAKE_A_SCALED_DISPLAY_ITEM;

  17697   0 0000D4  E3C0 003B                            LNJ,B6   s:0,PREL
          0 0000D6       0001                            DC       s:17698,PREL

      181    17698    4                 END;

  17698   0 0000D7  0F81 0023                            B        s:17730,PREL

      182    17699    3               ELSE
PL6.E3A0      #001=QCU$UNSIGN File=QCU$UNSIGN.:E05TSI                            WED 07/30/97 05:15 Page:23
      183    17700    4                 DO;

      184    17701    4                   QI_1.OP.DEC_A (INX) = 0;

  17701   0 0000D9  8710 0000 0029  xsym                 CL       QI_1+41,R1

      185    17702    4                   LENGTH_DECREMENT_FOR_SIGN = 0;

  17702   0 0000DC  8747 0008                            CL       LENGTH_DECREMENT_FOR_SIGN,AUTO

      186    17703    4                   CALL MAKE_A_SCALED_DISPLAY_ITEM;

  17703   0 0000DE  E3C0 0031                            LNJ,B6   s:0,PREL
          0 0000E0       0001                            DC       s:17704,PREL

      187    17704    4                 END;

  17704   0 0000E1  0F81 0019                            B        s:17730,PREL

      188    17705
      189    17706    3             CASE ( %QI#CP_SIGN_TRAILING );

      190    17707    3               IF QI_1.OP.DEC_A (INX) < 0

  17707   0 0000E3  9847 0007                            LDR,R1   INX,AUTO
          0 0000E5  E810 0000 0029  xsym                 LDR,R6   QI_1+41,R1
          0 0000E8  6881 0009                            BGEZ,R6  s:17715,PREL

      191    17708    3               THEN
      192    17709    4                 DO;

      193    17710    4                   LENGTH_DECREMENT_FOR_SIGN = 1;

  17710   0 0000EA  5C01                                 LDV,R5   1
          0 0000EB  DF47 0008                            STR,R5   LENGTH_DECREMENT_FOR_SIGN,AUTO

      194    17711    4                   CALL MAKE_A_SCALED_DISPLAY_ITEM;
PL6.E3A0      #001=QCU$UNSIGN File=QCU$UNSIGN.:E05TSI                            WED 07/30/97 05:15 Page:24

  17711   0 0000ED  E3C0 0022                            LNJ,B6   s:0,PREL
          0 0000EF       0001                            DC       s:17712,PREL

      195    17712    4                 END;

  17712   0 0000F0  0F81 000A                            B        s:17730,PREL

      196    17713    3               ELSE
      197    17714    4                 DO;

      198    17715    4                   QI_1.OP.DEC_A (INX) = 0;

  17715   0 0000F2  8710 0000 0029  xsym                 CL       QI_1+41,R1

      199    17716    4                   LENGTH_DECREMENT_FOR_SIGN = 1;

  17716   0 0000F5  6C01                                 LDV,R6   1
          0 0000F6  EF47 0008                            STR,R6   LENGTH_DECREMENT_FOR_SIGN,AUTO

      200    17717    4                   CALL MAKE_A_SCALED_DISPLAY_ITEM;

  17717   0 0000F8  E3C0 0017                            LNJ,B6   s:0,PREL
          0 0000FA       0001                            DC       s:17730,PREL

      201    17718    4                 END;

      202    17719
      203    17720    3           END;

      204    17721
      205    17722    2       END;

      206    17723
      207    17724            /* By the time we get here (even if we had such a monster as a
      208    17725               packed field with P-scaling) we now have a ALPANUMERIC-
      209    17726               looking item whose real length can be found in
PL6.E3A0      #001=QCU$UNSIGN File=QCU$UNSIGN.:E05TSI                            WED 07/30/97 05:15 Page:25
      210    17727               QI_1.OP.LEN_A (INX).  Sooo, we'll just randomly stomp
      211    17728               on the length in the CIP descriptor itself, stick
      212    17729               in an appropriate address syllable, and remember to FILL.  */
      213    17730    1       CIP$ -> QI$CIP.LEN = 0;

  17730   0 0000FB  ECC7 0004                            LDB,B6   CIP$,AUTO
          0 0000FD  8806                                 LBF,'1F00'X       ,B6
          0 0000FE       1F00

      214    17731    1       CIP$ -> QI$CIP.AS = BITBIN ( %BINBIT ( %QI#CIP_DEFAULT_AS, 16 ) |
             17731                FUNNY_ADDRESS_SYLLABLE_OR_BITS );

  17731   0 0000FF  E847 0006                            LDR,R6   FUNNY_ADDRESS_SYLLABLE_OR_BITS,AUTO
          0 000101  E470 000B                            OR,R6    11,IMO
          0 000103  EA86                                 SRM,R6,'007F'X    ,B6
          0 000104       007F

      215    17732    1       CIP$ -> QI$CIP.CA.FILL = 1;

  17732   0 000105  8906                                 LBT,'4000'X       ,B6
  17732   0 000106       4000

      216    17733
      217    17734    1       QI_1.TYPE_A (INX) = %QI#TYPE_ALPHANUMERIC;

  17734   0 000107  B847 0007                            LDR,R3   INX,AUTO
          0 000109  6C03                                 LDV,R6   3
          0 00010A  EF30 0000 0050  xsym                 STR,R6   QI_1+80,R3

      218    17735
      219    17736    1       RETURN;

  17736   0 00010D  C380 0000 0000  xent                 LNJ,B4   X6A_ARET

      220    17737
      221    17738        %EJECT;
PL6.E3A0      #001=QCU$UNSIGN File=QCU$UNSIGN.:E05TSI                            WED 07/30/97 05:15 Page:26
      222    17739    1   MAKE_A_SCALED_DISPLAY_ITEM: PROC;

  17739   0 000110  EFC7 0022            MAKE_A_SCALED_D*STB,B6   QI@TYPE_DISPLAY_TARGET+24,AUTO

      223    17740
      224    17741        /*I*  NAME:         MAKE_A_SCALED_DISPLAY_ITEM
      225    17742              PURPOSE:      Make an alphanumeric-looking item out of a
      226    17743                            DISPLAY or PACKED item.
      227    17744              CALL:         CALL MAKE_A_SCALED_DISPLAY_ITEM;
      228    17745              PARAMETERS:   None.
      229    17746              DATA:         QI_1.stuff,
      230    17747                            CIP$ from above.
      231    17748              DESCRIPTION:  Basically just common code for DISPLAY or PACKED items
      232    17749                            to get them unpacked, unsigned and/or unP-scaled.
      233    17750        */
      234    17751
      235    17752    2       QI@TYPE_DISPLAY_TARGET = QI_TYPE_DISPLAY_TARGET;

  17752   0 000112  AB80 0000 0000  xsym                 LAB,B2   QI_TYPE_DISPLAY_TARGET
          0 000115  2C00                                 LDV,R2   0
          0 000116  6C30                                 LDV,R6   48
          0 000117  BB87                                 LAB,B3   ,AUTO
          0 000118  3C14                                 LDV,R3   20
          0 000119  0008                                 MMM

      236    17753    2       QI@TYPE_DISPLAY_TARGET.CIP.S_A (0) = CIP$ -> QI$CIP_A (0);

  17753   0 00011A  ECC7 0004                            LDB,B6   CIP$,AUTO
          0 00011C  E806                                 LDR,R6   ,B6
          0 00011D  EF47 000A                            STR,R6   QI@TYPE_DISPLAY_TARGET,AUTO

      237    17754    2       QI@TYPE_DISPLAY_TARGET.DATA.S$ = QI_1.OP.DATA_A$ (INX);

  17754   0 00011F  B847 0007                            LDR,R3   INX,AUTO
          0 000121  DCB0 0000 0020  xsym                 LDB,B5   QI_1+32,R3
          0 000124  DFC7 0010                            STB,B5   QI@TYPE_DISPLAY_TARGET+6,AUTO

PL6.E3A0      #001=QCU$UNSIGN File=QCU$UNSIGN.:E05TSI                            WED 07/30/97 05:15 Page:27
      238    17755    2       QI@TYPE_DISPLAY_TARGET.DEC.S = QI_1.OP.DEC_A (INX);

  17755   0 000126  D830 0000 0029  xsym                 LDR,R5   QI_1+41,R3
          0 000129  DF47 0019                            STR,R5   QI@TYPE_DISPLAY_TARGET+15,AUTO

      239    17756
      240    17757            /* Get the address of where to stuff the soon-to-be unsigned
      241    17758               item.  Normally, OTTER_SPACE$ will point to an
      242    17759               OTTER_SPACE item a couple of frames back.  */
      243    17760    2       QI_1.OP.DATA_A$ (INX) = QI_1.OTTER_SPACE_A$ (INX);

  17760   0 00012B  CCB0 0000 0044  xsym                 LDB,B4   QI_1+68,R3
          0 00012E  CFB0 0000 0020  xsym                 STB,B4   QI_1+32,R3

      244    17761    2       QI@TYPE_DISPLAY_TARGET.DATA.T$ = QI_1.OTTER_SPACE_A$ (INX);

  17761   0 000131  ACB0 0000 0044  xsym                 LDB,B2   QI_1+68,R3
          0 000134  AFC7 0012                            STB,B2   QI@TYPE_DISPLAY_TARGET+8,AUTO

      245    17762
      246    17763            /* Since the target's DEC is 0, P-scaled items will
      247    17764               automatically be re-aligned here. */
      248    17765
      249    17766    2       QI@TYPE_DISPLAY_TARGET.CIP.T.CD.SIGN = %QI#CD_UNSIGNED;

  17766   0 000136  8847 000C                            LBF,'6000'X       QI@TYPE_DISPLAY_TARGET+2,AUTO
  17766   0 000138       6000

      250    17767
      251    17768    2       QI@TYPE_DISPLAY_TARGET.SIZE_ERROR = %QI#DONT_CHECK_FOR_SIZE_ERROR;

  17768   0 000139  8747 0020                            CL       QI@TYPE_DISPLAY_TARGET+22,AUTO

      252    17769
      253    17770    2       CALL QCC$DMC ( QI@TYPE_DISPLAY_TARGET );

  17770   0 00013B  9BC7 000A                            LAB,B1   QI@TYPE_DISPLAY_TARGET,AUTO
PL6.E3A0      #001=QCU$UNSIGN File=QCU$UNSIGN.:E05TSI                            WED 07/30/97 05:15 Page:28
          0 00013D  9FC7 0024                            STB,B1   QI@TYPE_DISPLAY_TARGET+26,AUTO
          0 00013F  BBC7 0024                            LAB,B3   QI@TYPE_DISPLAY_TARGET+26,AUTO
          0 000141  CBF0 0100                            LAB,B4   256,IMO
          0 000143  E380 0000 0000  xent                 LNJ,B6   QCC$DMC
          0 000146       0001                            DC       s:17772,PREL

      254    17771
      255    17772    2       CIP$ -> QI$CIP_A (0) = 0;

  17772   0 000147  ECC7 0004                            LDB,B6   CIP$,AUTO
          0 000149  8706                                 CL       ,B6

      256    17773    2       QI_1.OP.LEN_A (INX) = QI_1.OP.LEN_A (INX)

  17773   0 00014A  B847 0007                            LDR,R3   INX,AUTO
          0 00014C  E830 0000 0026  xsym                 LDR,R6   QI_1+38,R3
          0 00014F  E230 0000 0029  xsym                 SUB,R6   QI_1+41,R3
          0 000152  E247 0008                            SUB,R6   LENGTH_DECREMENT_FOR_SIGN,AUTO
          0 000154  EF30 0000 0026  xsym                 STR,R6   QI_1+38,R3

      257    17774    2         - QI_1.OP.DEC_A (INX)
      258    17775    2         - LENGTH_DECREMENT_FOR_SIGN;
      259    17776    2       QI_1.OP.INX_A (INX) = %QI#MAX_DISPLAY_LENGTH

  17776   0 000157  8256                                 NEG      R6
          0 000158  6E0F                                 ADV,R6   15
          0 000159  EF30 0000 0029  xsym                 STR,R6   QI_1+41,R3

      260    17777    2         - QI_1.OP.LEN_A (INX);
      261    17778    2       QI_1.OFFSET_A (INX) = 0;

  17778   0 00015C  8730 0000 0041  xsym                 CL       QI_1+65,R3

      262    17779
      263    17780    2       RETURN;

  17780   0 00015F  ECC7 0022                            LDB,B6   QI@TYPE_DISPLAY_TARGET+24,AUTO
PL6.E3A0      #001=QCU$UNSIGN File=QCU$UNSIGN.:E05TSI                            WED 07/30/97 05:15 Page:29
          0 000161  C3C6 0001                            LNJ,B4   1,B6
      264    17781
      265    17782    2   END MAKE_A_SCALED_DISPLAY_ITEM;
      266    17783
      267    17784    1   END QCU$UNSIGN;

PL6.E3A0      #001=QCU$UNSIGN File=QCU$UNSIGN.:E05TSI                            WED 07/30/97 05:15 Page:30
--  Include file information  --

   QI_MACROS_M.:E05TOU  is referenced.
   QI_EQUATES_E.:E05TOU  is referenced.
   QG_MACRO_M.:E05TOU  is referenced.
   LCP_6.:E05TOU  cannot be made into a system file and is referenced.
   G_LCP6_E.:E05TOU  was found in the system file and is referenced.
   GT_LCP6_M.:E05TOU  was found in the system file and is referenced.
   KI_CP6.:E05TOU  was found in the system file and is referenced.
   GF_LCP6_M.:E05TOU  was found in the system file and is referenced.
   GM_LCP6_M.:E05TOU  was found in the system file and is referenced.
   GU_LCP6_M.:E05TOU  was found in the system file and is referenced.
   GJ_LCP6_M.:E05TOU  was found in the system file and is referenced.
   GH_LCP6_M.:E05TOU  was found in the system file and is referenced.
      No diagnostics issued in procedure QCU$UNSIGN.
PL6.E3A0      #001=QCU$UNSIGN File=QCU$UNSIGN.:E05TSI                            WED 07/30/97 05:15 Page:31

 **** Variables and constants ****

  ****  Auto variables  ****

  ****  Scalars and arrays  ****
HexLoc.c.b A Datatyp(siz) R M Lvl/name                 HexLoc.c.b A Datatyp(siz) R M Lvl/name

     4-0-0/w PTR         r     1 CIP$
     6-0-0/b BIT (16)    r     1 FUNNY_ADDRESS_SYLLABLE_OR_BITS
     7-0-0/w UBIN(16)    r     1 INX
     8-0-0/w UBIN(16)    r     1 LENGTH_DECREMENT_FOR_SIGN
     A-0-0/d STRC(384)   r     1 QI@TYPE_DISPLAY_TARGET

  ****  SYMREF variables  ****

  ****  Scalars and arrays  ****
HexLoc.c.b A Datatyp(siz) R M Lvl/name                 HexLoc.c.b A Datatyp(siz) R M Lvl/name

     0-0-0/d STRC(2576)  r     1 QI_1
     0-0-0/d STRC(384)   r     1 QI_TYPE_DISPLAY_TARGET

  ****  BASED and DCB variables  ****

  ****  Scalars and arrays  ****
HexLoc.c.b A Datatyp(siz) R M Lvl/name                 HexLoc.c.b A Datatyp(siz) R M Lvl/name

     0-0-0/d STRC(32)    r     1 QI$CIP
     0-0-0/d UBIN(16)    r     1 QI$CIP_A(0:1)
     0-0-0/c ASTR(8)     r     1 QI$VARIABLE_IDENTIFIER


   Procedure QCU$UNSIGN requires 355 words for executable code.
   Procedure QCU$UNSIGN requires 38 words of local(AUTO) storage.

    No errors detected in file QCU$UNSIGN.:E05TSI    .
PL6.E3A0      #001=QCU$UNSIGN File=QCU$UNSIGN.:E05TSI                            WED 07/30/97 05:15 Page:32
          *** CROSS REFERENCE LISTING ***
**     DENOTES     IDENTIFIER DEFINITION
<<                 IDENTIFIER'S VALUE SET
>>                 IDENTIFIER'S VALUE USED
<>                 IDENTIFIER SET AND/OR USED
--                 IDENTIFIER REFERENCED
PL6.E3A0      #001=QCU$UNSIGN File=QCU$UNSIGN.:E05TSI                            WED 07/30/97 05:15 Page:33
          MINI XREF LISTING

CIP$
     16883**DCL     17574<<ASSIGN  17596<<ASSIGN  17618<<ASSIGN  17633>>DOCASE  17730>>ASSIGN  17731>>ASSIGN
     17732>>ASSIGN  17753>>ASSIGN  17772>>ASSIGN
FUNNY_ADDRESS_SYLLABLE_OR_BITS
     16884**DCL     17573<<ASSIGN  17595<<ASSIGN  17617<<ASSIGN  17731>>ASSIGN
INX
     16885**DCL     17572<<ASSIGN  17594<<ASSIGN  17616<<ASSIGN  17627>>DOCASE  17636>>IF      17644>>ASSIGN
     17648>>IF      17656>>ASSIGN  17657>>ASSIGN  17657>>ASSIGN  17661>>IF      17669>>ASSIGN  17670>>ASSIGN
     17670>>ASSIGN  17674>>IF      17682>>ASSIGN  17693>>IF      17701>>ASSIGN  17707>>IF      17715>>ASSIGN
     17734>>ASSIGN  17754>>ASSIGN  17755>>ASSIGN  17760>>ASSIGN  17760>>ASSIGN  17761>>ASSIGN  17773>>ASSIGN
     17773>>ASSIGN  17773>>ASSIGN  17776>>ASSIGN  17776>>ASSIGN  17778>>ASSIGN
LENGTH_DECREMENT_FOR_SIGN
     16886**DCL     17639<<ASSIGN  17651<<ASSIGN  17664<<ASSIGN  17677<<ASSIGN  17683<<ASSIGN  17696<<ASSIGN
     17702<<ASSIGN  17710<<ASSIGN  17716<<ASSIGN  17773>>ASSIGN
MAKE_A_SCALED_DISPLAY_ITEM
     17739**PROC    17640--CALL    17652--CALL    17665--CALL    17678--CALL    17684--CALL    17697--CALL
     17703--CALL    17711--CALL    17717--CALL
QCC$DMC
     17553**DCL-ENT 17770--CALL
QGB_PARAM.DVE.DVBYTE.VFC
     11366**DCL     11367--REDEF
QGB_PARAM.DVE.EOMCHAR
     11378**DCL     11379--REDEF
QGB_PARAM.MSG$
     11360**DCL     11361--REDEF
QGB_PARAM.UHDR$
     11385**DCL     11386--REDEF
QI$ACTIVATION_STATUS
      9124**DCL      9130--REDEF
QI$CIP
      7965**DCL      8035--REDEF
QI$CIP.AS
PL6.E3A0      #001=QCU$UNSIGN File=QCU$UNSIGN.:E05TSI                            WED 07/30/97 05:15 Page:34
      8032**DCL     17731<<ASSIGN
QI$CIP.CA
      7970**DCL      7974--REDEF    7977--REDEF    7980--REDEF
QI$CIP.CA.FILL
      7972**DCL     17732<<ASSIGN
QI$CIP.CD.SIGN
      7979**DCL     17633>>DOCASE
QI$CIP.LEN
      8026**DCL     17730<<ASSIGN
QI$CIP_A
      8035**DCL     17753>>ASSIGN  17772<<ASSIGN
QI$COBOL_DAD.PSEUDO_CIP
      8209**DCL      8234--REDEF
QI$COBOL_DAD.PSEUDO_CIP.ALPHANUMERIC
      8211**DCL      8216--REDEF
QI$COBOL_DAD.PSEUDO_CIP.NUMERIC.CB
      8217**DCL      8220--REDEF    8223--REDEF
QI$COBOL_DAD.VARIABLE_LENGTH_ITEMS
      8245**DCL      8261--REDEF    8269--REDEF    8277--REDEF
QI$COBOL_DAD.VARIABLE_LENGTH_ITEMS.LEVEL_MULTIPLIERS
      8246**DCL      8256--REDEF    8259--REDEF
QI$COBOL_DAD.WORD0
      8173**DCL      8174--REDEF    8188--REDEF
QI$COBOL_DAD_P_BITS.P
      8313**DCL      8319--REDEF
QI$CONDITION_CONTROL_BLOCK.LIST_A@P
      7799**DCL      7800--REDEF
QI$CONDITION_CONTROL_BLOCK.WORD0_FLAGS
      7795**DCL      7798--REDEF
QI$CONDITION_LEGAL_BLOCK.ARRAY@P
      7832**DCL      7833--REDEF    7834--REDEF
QI$DAD.PSEUDO_CIP
      8112**DCL      8137--REDEF
QI$DAD.PSEUDO_CIP.ALPHANUMERIC
      8114**DCL      8119--REDEF
QI$DAD.PSEUDO_CIP.NUMERIC.CB
PL6.E3A0      #001=QCU$UNSIGN File=QCU$UNSIGN.:E05TSI                            WED 07/30/97 05:15 Page:35
      8120**DCL      8123--REDEF    8126--REDEF
QI$DAD.WORD0
      8081**DCL      8082--REDEF
QI$ERROR_MESSAGE_LINE
     11473**DCL     11475--REDEF
QI$ERROR_STATUS
     11470**DCL     11472--REDEF
QI$FIELD_DAD.ELEMENTARY_ITEM.P
      8527**DCL      8534--REDEF
QI$FIELD_DAD.ONE_DIMENSIONAL_ITEM.P
      8547**DCL      8554--REDEF
QI$FIELD_DAD.PSEUDO_CIP
      8454**DCL      8479--REDEF
QI$FIELD_DAD.PSEUDO_CIP.ALPHANUMERIC
      8456**DCL      8461--REDEF
QI$FIELD_DAD.PSEUDO_CIP.NUMERIC.CB
      8462**DCL      8465--REDEF    8468--REDEF
QI$FIELD_DAD.TWO_DIMENSIONAL_ITEM.P
      8567**DCL      8574--REDEF
QI$FIELD_DAD.VARIABLE_LENGTH_ITEMS
      8510**DCL      8526--REDEF    8544--REDEF    8562--REDEF
QI$FIELD_DAD.VARIABLE_LENGTH_ITEMS.LEVEL_MULTIPLIERS
      8511**DCL      8521--REDEF    8524--REDEF
QI$FIELD_DAD.WORD0
      8406**DCL      8407--REDEF
QI$FIELD_DAD.WORD0_FLAGS.IO_FLAGS
      8410**DCL      8415--REDEF
QI$FIELD_DAD_P.P
      8608**DCL      8615--REDEF
QI$FIELD_STATUS.INDICATORS
      9274**DCL      9306--REDEF
QI$FIELD_STATUS.INDICATORS.ENABLED_FLAGS
      9278**DCL      9283--REDEF
QI$FIELD_STATUS.INDICATORS.OPEN_FLAGS
      9290**DCL      9297--REDEF
QI$FIELD_STATUS.INDICATORS.STATE_FLAGS
PL6.E3A0      #001=QCU$UNSIGN File=QCU$UNSIGN.:E05TSI                            WED 07/30/97 05:15 Page:36
      9284**DCL      9289--REDEF
QI$FILE.WORD0
      8730**DCL      8731--REDEF
QI$FILE_STATUS.INDICATORS
      9567**DCL      9599--REDEF
QI$FILE_STATUS.INDICATORS.ENABLED_FLAGS
      9571**DCL      9576--REDEF
QI$FILE_STATUS.INDICATORS.OPEN_FLAGS
      9583**DCL      9590--REDEF
QI$FILE_STATUS.INDICATORS.STATE_FLAGS
      9577**DCL      9582--REDEF
QI$FORM_FILE.USE_PROCEDURE
      8830**DCL      8837--REDEF
QI$FORM_FILE.WORD0
      8784**DCL      8785--REDEF
QI$FORM_STATUS.INDICATORS
      9688**DCL      9720--REDEF
QI$FORM_STATUS.INDICATORS.ENABLED_FLAGS
      9692**DCL      9697--REDEF
QI$FORM_STATUS.INDICATORS.OPEN_FLAGS
      9704**DCL      9711--REDEF
QI$FORM_STATUS.INDICATORS.STATE_FLAGS
      9698**DCL      9703--REDEF
QI$FRAME.WORD0
      8945**DCL      8946--REDEF
QI$FRAME_STATUS.INDICATORS
      9917**DCL      9949--REDEF
QI$FRAME_STATUS.INDICATORS.ENABLED_FLAGS
      9921**DCL      9926--REDEF
QI$FRAME_STATUS.INDICATORS.OPEN_FLAGS
      9933**DCL      9940--REDEF
QI$FRAME_STATUS.INDICATORS.STATE_FLAGS
      9927**DCL      9932--REDEF
QI$GZ_FIELD.DESCRIPTION.IO_FLAGS
     16799**DCL     16804--REDEF
QI$IDENTIFIER
PL6.E3A0      #001=QCU$UNSIGN File=QCU$UNSIGN.:E05TSI                            WED 07/30/97 05:15 Page:37
     11476**DCL     11478--REDEF
QI$INDICATORS
      9188**DCL      9218--REDEF
QI$INDICATORS.ENABLED_FLAGS
      9194**DCL      9199--REDEF
QI$INDICATORS.OPEN_FLAGS
      9206**DCL      9213--REDEF
QI$INDICATORS.STATE_FLAGS
      9200**DCL      9205--REDEF
QI$MAJOR_NODE.WORD0
      8644**DCL      8645--REDEF
QI$MAJOR_STATUS.INDICATORS
      9367**DCL      9399--REDEF
QI$MAJOR_STATUS.INDICATORS.ENABLED_FLAGS
      9371**DCL      9376--REDEF
QI$MAJOR_STATUS.INDICATORS.OPEN_FLAGS
      9383**DCL      9390--REDEF
QI$MAJOR_STATUS.INDICATORS.STATE_FLAGS
      9377**DCL      9382--REDEF
QI$MESSAGE_TYPE
     11467**DCL     11469--REDEF
QI$MINOR_NODE.WORD0
      8687**DCL      8688--REDEF
QI$MINOR_STATUS.INDICATORS
      9460**DCL      9492--REDEF
QI$MINOR_STATUS.INDICATORS.ENABLED_FLAGS
      9464**DCL      9469--REDEF
QI$MINOR_STATUS.INDICATORS.OPEN_FLAGS
      9476**DCL      9483--REDEF
QI$MINOR_STATUS.INDICATORS.STATE_FLAGS
      9470**DCL      9475--REDEF
QI$OP_ACCEPT.DATANAME@P
      5875**DCL      5876--REDEF
QI$OP_CALL.EPTR$
      6047**DCL      6048--REDEF
QI$OP_CLEAR.IO_FLAGS
PL6.E3A0      #001=QCU$UNSIGN File=QCU$UNSIGN.:E05TSI                            WED 07/30/97 05:15 Page:38
      6080**DCL      6083--REDEF
QI$OP_DISPLAY.FIELD_A@P
      6347**DCL      6348--REDEF
QI$OP_ENABLE.IO_FLAGS
      6434**DCL      6437--REDEF
QI$OP_IFCLS.ATTRIBUTE.TYPE
      6527**DCL      6532--REDEF
QI$OP_INSPECT.TALLYING_FOR_ITEM@P
      6761**DCL      6762--REDEF
QI$OP_INSPECT.TALLYING_INITIAL_ITEM@P
      6763**DCL      6764--REDEF
QI$OP_INSPECT.TALLYING_ITEM@P
      6759**DCL      6760--REDEF
QI$OP_OPEN.IO_FLAGS
      7321**DCL      7324--REDEF
QI$OP_PERFM.BINARY_ITERATION_COUNT@P
      7359**DCL      7360--REDEF
QI$PSEUDO_CIP
      7860**DCL      7884--REDEF
QI$PSEUDO_CIP.ALPHANUMERIC
      7864**DCL      7869--REDEF
QI$PSEUDO_CIP.NUMERIC.CB
      7870**DCL      7873--REDEF    7876--REDEF
QI$TERMINAL_ATTRIBUTES
      9081**DCL      9094--REDEF
QI$TRAN_FILE.WORD0
      8866**DCL      8867--REDEF
QI$TRAN_STATUS.INDICATORS
      9801**DCL      9833--REDEF
QI$TRAN_STATUS.INDICATORS.ENABLED_FLAGS
      9805**DCL      9810--REDEF
QI$TRAN_STATUS.INDICATORS.OPEN_FLAGS
      9817**DCL      9824--REDEF
QI$TRAN_STATUS.INDICATORS.STATE_FLAGS
      9811**DCL      9816--REDEF
QI$VARIABLE_IDENTIFIER.LENGTH
PL6.E3A0      #001=QCU$UNSIGN File=QCU$UNSIGN.:E05TSI                            WED 07/30/97 05:15 Page:39
     11480**DCL     11481--IMP-SIZ
QI@TYPE_DISPLAY_TARGET
     16924**DCL     17752<<ASSIGN  17770<>CALL
QI@TYPE_DISPLAY_TARGET.CIP
     16928**DCL     17379--REDEF
QI@TYPE_DISPLAY_TARGET.CIP.AUX
     17294**DCL     17365--REDEF
QI@TYPE_DISPLAY_TARGET.CIP.AUX.CA
     17297**DCL     17301--REDEF   17304--REDEF   17307--REDEF
QI@TYPE_DISPLAY_TARGET.CIP.S
     16998**DCL     17069--REDEF
QI@TYPE_DISPLAY_TARGET.CIP.S.CA
     17001**DCL     17005--REDEF   17008--REDEF   17011--REDEF
QI@TYPE_DISPLAY_TARGET.CIP.S_A
     17069**DCL     17753<<ASSIGN
QI@TYPE_DISPLAY_TARGET.CIP.T
     17146**DCL     17217--REDEF
QI@TYPE_DISPLAY_TARGET.CIP.T.CD
     17191**DCL     17194--REDEF   17198--REDEF   17201--REDEF
QI@TYPE_DISPLAY_TARGET.CIP.T.CD.SIGN
     17193**DCL     17766<<ASSIGN
QI@TYPE_DISPLAY_TARGET.DATA
     17386**DCL     17390--REDEF
QI@TYPE_DISPLAY_TARGET.DATA.S$
     17387**DCL     17754<<ASSIGN
QI@TYPE_DISPLAY_TARGET.DATA.T$
     17388**DCL     17761<<ASSIGN
QI@TYPE_DISPLAY_TARGET.DEC
     17454**DCL     17458--REDEF   17459--REDEF   17463--REDEF
QI@TYPE_DISPLAY_TARGET.DEC.S
     17455**DCL     17755<<ASSIGN
QI@TYPE_DISPLAY_TARGET.LEN
     17426**DCL     17430--REDEF   17431--REDEF   17435--REDEF   17436--REDEF   17440--REDEF
QI@TYPE_DISPLAY_TARGET.PICTURE_STRING
     17496**DCL     17499--REDEF   17500--REDEF   17503--REDEF   17504--REDEF   17507--REDEF
QI@TYPE_DISPLAY_TARGET.ROUND
PL6.E3A0      #001=QCU$UNSIGN File=QCU$UNSIGN.:E05TSI                            WED 07/30/97 05:15 Page:40
     17529**DCL     17530--REDEF   17531--REDEF
QI@TYPE_DISPLAY_TARGET.SIZE_ERROR
     17515**DCL     17516--REDEF   17768<<ASSIGN
QI@TYPE_DISPLAY_TARGET.SRCH_VRFY_ELEMS
     17465**DCL     17468--REDEF
QI_1.BASE
     10009**DCL     10016--REDEF
QI_1.CURRENT.FILE$
     10900**DCL     10902--REDEF   10904--REDEF
QI_1.CURRENT.FILE_STATUS$
     10906**DCL     10908--REDEF   10910--REDEF
QI_1.DAD
     10704**DCL     10709--REDEF
QI_1.FILE_HEAD
     10887**DCL     10894--REDEF
QI_1.IS_ALL_LIT
     10710**DCL     10715--REDEF
QI_1.IS_FORM_VARIABLE
     10716**DCL     10721--REDEF
QI_1.IS_TEMP
     10722**DCL     10727--REDEF
QI_1.MESSAGE_LINE_DAD.PSEUDO_CIP
     10820**DCL     10845--REDEF
QI_1.MESSAGE_LINE_DAD.PSEUDO_CIP.ALPHANUMERIC
     10822**DCL     10827--REDEF
QI_1.MESSAGE_LINE_DAD.PSEUDO_CIP.NUMERIC.CB
     10828**DCL     10831--REDEF   10834--REDEF
QI_1.MESSAGE_LINE_DAD.WORD0
     10789**DCL     10790--REDEF
QI_1.OFFSET
     10728**DCL     10733--REDEF
QI_1.OFFSET_A
     10733**DCL     17778<<ASSIGN
QI_1.OP.CIP
     10089**DCL     10540--REDEF
QI_1.OP.CIP.AUX
PL6.E3A0      #001=QCU$UNSIGN File=QCU$UNSIGN.:E05TSI                            WED 07/30/97 05:15 Page:41
     10455**DCL     10526--REDEF
QI_1.OP.CIP.AUX.CD
     10500**DCL     10503--REDEF   10507--REDEF   10510--REDEF
QI_1.OP.CIP.S
     10159**DCL     10230--REDEF
QI_1.OP.CIP.S.CD
     10204**DCL     10207--REDEF   10211--REDEF   10214--REDEF
QI_1.OP.CIP.S.CP.SIGN
     10216**DCL     17690>>DOCASE
QI_1.OP.CIP.T
     10307**DCL     10378--REDEF
QI_1.OP.CIP.T.CD
     10352**DCL     10355--REDEF   10359--REDEF   10362--REDEF
QI_1.OP.CIP_A
     10540**DCL     17574--ASSIGN  17596--ASSIGN  17618--ASSIGN
QI_1.OP.DATA
     10547**DCL     10551--REDEF
QI_1.OP.DATA_A$
     10551**DCL     17754>>ASSIGN  17760<<ASSIGN
QI_1.OP.DEC_A
     10613**DCL     17636>>IF      17648>>IF      17661>>IF      17674>>IF      17682<<ASSIGN  17693>>IF
     17701<<ASSIGN  17707>>IF      17715<<ASSIGN  17755>>ASSIGN  17773>>ASSIGN
QI_1.OP.FILL_CHAR
     10671**DCL     10674--REDEF
QI_1.OP.INX
     10604**DCL     10608--REDEF   10609--REDEF   10613--REDEF
QI_1.OP.INX_A
     10608**DCL     17644<<ASSIGN  17656<<ASSIGN  17669<<ASSIGN  17776<<ASSIGN
QI_1.OP.LEN
     10587**DCL     10591--REDEF   10592--REDEF   10596--REDEF   10597--REDEF   10601--REDEF
QI_1.OP.LEN.AUX
     10590**DCL     11491--IMP-SIZ
QI_1.OP.LEN.S
     10588**DCL     11487--IMP-SIZ
QI_1.OP.LEN.T
     10589**DCL     11489--IMP-SIZ
PL6.E3A0      #001=QCU$UNSIGN File=QCU$UNSIGN.:E05TSI                            WED 07/30/97 05:15 Page:42
QI_1.OP.LEN_A
     10591**DCL     17657<<ASSIGN  17657>>ASSIGN  17670<<ASSIGN  17670>>ASSIGN  17773<<ASSIGN  17773>>ASSIGN
     17776>>ASSIGN
QI_1.OP.PICTURE_STRING
     10657**DCL     10660--REDEF   10661--REDEF   10664--REDEF   10665--REDEF   10668--REDEF
QI_1.OP.ROUND
     10690**DCL     10691--REDEF   10692--REDEF
QI_1.OP.SRCH_VRFY_ELEMS
     10626**DCL     10629--REDEF
QI_1.OPENED_COUNT
     10895**DCL     10898--REDEF
QI_1.OTTER_SPACE
     10734**DCL     10739--REDEF
QI_1.OTTER_SPACE_A$
     10739**DCL     17760>>ASSIGN  17761>>ASSIGN
QI_1.PICTURE_STRING
     10740**DCL     10745--REDEF
QI_1.SPECIAL_NAMES
     10923**DCL     10932--REDEF
QI_1.TYPE
     10746**DCL     10751--REDEF
QI_1.TYPE_A
     10751**DCL     17627>>DOCASE  17734<<ASSIGN
QI_16_BIT_BINARY
     15936**DCL     16006--REDEF
QI_16_BIT_BINARY.CB
     15955**DCL     15958--REDEF   15962--REDEF   15965--REDEF
QI_31_DIGIT_SLS_DISPLAY
     15769**DCL     15839--REDEF
QI_31_DIGIT_SLS_DISPLAY.CD
     15816**DCL     15819--REDEF   15823--REDEF   15826--REDEF
QI_31_DIGIT_ST_PACKED
     16271**DCL     16341--REDEF
QI_31_DIGIT_ST_PACKED.CP
     16304**DCL     16307--REDEF   16311--REDEF   16314--REDEF
QI_32_BIT_BINARY
PL6.E3A0      #001=QCU$UNSIGN File=QCU$UNSIGN.:E05TSI                            WED 07/30/97 05:15 Page:43
     16103**DCL     16173--REDEF
QI_32_BIT_BINARY.CB
     16122**DCL     16125--REDEF   16129--REDEF   16132--REDEF
QI_4_CHAR_ALPHANUMERIC
     15601**DCL     15671--REDEF
QI_4_CHAR_ALPHANUMERIC.CA
     15606**DCL     15610--REDEF   15613--REDEF   15616--REDEF
QI_ACCUMULATOR_DAD.CIP
     16614**DCL     16685--REDEF
QI_ACCUMULATOR_DAD.CIP.CP
     16645**DCL     16648--REDEF   16652--REDEF   16655--REDEF
QI_ALR.CIP
     11566**DCL     12017--REDEF
QI_ALR.CIP.AUX
     11932**DCL     12003--REDEF
QI_ALR.CIP.AUX.CA
     11935**DCL     11939--REDEF   11942--REDEF   11945--REDEF
QI_ALR.CIP.S
     11636**DCL     11707--REDEF
QI_ALR.CIP.S.CA
     11639**DCL     11643--REDEF   11646--REDEF   11649--REDEF
QI_ALR.CIP.T
     11784**DCL     11855--REDEF
QI_ALR.CIP.T.CA
     11787**DCL     11791--REDEF   11794--REDEF   11797--REDEF
QI_ALR.DATA
     12024**DCL     12028--REDEF
QI_ALR.FILL_CHAR
     12148**DCL     12151--REDEF
QI_ALR.INX
     12081**DCL     12085--REDEF   12086--REDEF   12090--REDEF
QI_ALR.LEN
     12064**DCL     12068--REDEF   12069--REDEF   12073--REDEF   12074--REDEF   12078--REDEF
QI_ALR.PICTURE_STRING
     12134**DCL     12137--REDEF   12138--REDEF   12141--REDEF   12142--REDEF   12145--REDEF
QI_ALR.ROUND
PL6.E3A0      #001=QCU$UNSIGN File=QCU$UNSIGN.:E05TSI                            WED 07/30/97 05:15 Page:44
     12167**DCL     12168--REDEF   12169--REDEF
QI_ALR.SRCH_VRFY_ELEMS
     12103**DCL     12106--REDEF
QI_MAT.CIP
     14905**DCL     15356--REDEF
QI_MAT.CIP.AUX
     15271**DCL     15342--REDEF
QI_MAT.CIP.AUX.CA
     15274**DCL     15278--REDEF   15281--REDEF   15284--REDEF
QI_MAT.CIP.S
     14975**DCL     15046--REDEF
QI_MAT.CIP.S.CA
     14978**DCL     14982--REDEF   14985--REDEF   14988--REDEF
QI_MAT.CIP.T
     15123**DCL     15194--REDEF
QI_MAT.CIP.T.CA
     15126**DCL     15130--REDEF   15133--REDEF   15136--REDEF
QI_MAT.DATA
     15363**DCL     15367--REDEF
QI_MAT.DEC
     15431**DCL     15435--REDEF   15436--REDEF   15440--REDEF
QI_MAT.FILL_CHAR
     15487**DCL     15490--REDEF
QI_MAT.LEN
     15403**DCL     15407--REDEF   15408--REDEF   15412--REDEF   15413--REDEF   15417--REDEF
QI_MAT.PICTURE_STRING
     15473**DCL     15476--REDEF   15477--REDEF   15480--REDEF   15481--REDEF   15484--REDEF
QI_MAT.ROUND
     15506**DCL     15507--REDEF   15508--REDEF
QI_MAT.SRCH_VRFY_ELEMS
     15442**DCL     15445--REDEF
QI_PICTURE_STRING
     16439**DCL     16509--REDEF
QI_PICTURE_STRING.CA
     16444**DCL     16448--REDEF   16451--REDEF   16454--REDEF
QI_SRCH_VRFY.CIP
PL6.E3A0      #001=QCU$UNSIGN File=QCU$UNSIGN.:E05TSI                            WED 07/30/97 05:15 Page:45
     14236**DCL     14687--REDEF
QI_SRCH_VRFY.CIP.AUX
     14602**DCL     14673--REDEF
QI_SRCH_VRFY.CIP.AUX.CA
     14605**DCL     14609--REDEF   14612--REDEF   14615--REDEF
QI_SRCH_VRFY.CIP.S
     14306**DCL     14377--REDEF
QI_SRCH_VRFY.CIP.S.CA
     14309**DCL     14313--REDEF   14316--REDEF   14319--REDEF
QI_SRCH_VRFY.CIP.T
     14454**DCL     14525--REDEF
QI_SRCH_VRFY.CIP.T.CA
     14457**DCL     14461--REDEF   14464--REDEF   14467--REDEF
QI_SRCH_VRFY.DATA
     14694**DCL     14698--REDEF
QI_SRCH_VRFY.DEC
     14762**DCL     14766--REDEF   14767--REDEF   14771--REDEF
QI_SRCH_VRFY.FILL_CHAR
     14818**DCL     14821--REDEF
QI_SRCH_VRFY.ROUND
     14837**DCL     14838--REDEF   14839--REDEF
QI_SRCH_VRFY.SRCH_RESULT
     14778**DCL     14781--REDEF   14782--REDEF   14785--REDEF   14786--REDEF   14789--REDEF
QI_SRCH_VRFY.SRCH_VRFY_ARGS
     14702**DCL     14706--REDEF   14707--REDEF   14711--REDEF   14712--REDEF   14716--REDEF
QI_SRCH_VRFY.SRCH_VRFY_ELEMS
     14773**DCL     14776--REDEF
QI_TYPE_BINARY_TARGET.CIP
     13563**DCL     14014--REDEF
QI_TYPE_BINARY_TARGET.CIP.AUX
     13929**DCL     14000--REDEF
QI_TYPE_BINARY_TARGET.CIP.AUX.CA
     13932**DCL     13936--REDEF   13939--REDEF   13942--REDEF
QI_TYPE_BINARY_TARGET.CIP.S
     13633**DCL     13704--REDEF
QI_TYPE_BINARY_TARGET.CIP.S.CA
PL6.E3A0      #001=QCU$UNSIGN File=QCU$UNSIGN.:E05TSI                            WED 07/30/97 05:15 Page:46
     13636**DCL     13640--REDEF   13643--REDEF   13646--REDEF
QI_TYPE_BINARY_TARGET.CIP.T
     13781**DCL     13852--REDEF
QI_TYPE_BINARY_TARGET.CIP.T.CB
     13798**DCL     13801--REDEF   13805--REDEF   13808--REDEF
QI_TYPE_BINARY_TARGET.DATA
     14021**DCL     14025--REDEF
QI_TYPE_BINARY_TARGET.DEC
     14089**DCL     14093--REDEF   14094--REDEF   14098--REDEF
QI_TYPE_BINARY_TARGET.LEN
     14061**DCL     14065--REDEF   14066--REDEF   14070--REDEF   14071--REDEF   14075--REDEF
QI_TYPE_BINARY_TARGET.PICTURE_STRING
     14131**DCL     14134--REDEF   14135--REDEF   14138--REDEF   14139--REDEF   14142--REDEF
QI_TYPE_BINARY_TARGET.ROUND
     14164**DCL     14165--REDEF   14166--REDEF
QI_TYPE_BINARY_TARGET.SIZE_ERROR
     14150**DCL     14151--REDEF
QI_TYPE_BINARY_TARGET.SRCH_VRFY_ELEMS
     14100**DCL     14103--REDEF
QI_TYPE_DISPLAY_SOURCE.CIP
     12231**DCL     12682--REDEF
QI_TYPE_DISPLAY_SOURCE.CIP.AUX
     12597**DCL     12668--REDEF
QI_TYPE_DISPLAY_SOURCE.CIP.AUX.CA
     12600**DCL     12604--REDEF   12607--REDEF   12610--REDEF
QI_TYPE_DISPLAY_SOURCE.CIP.S
     12301**DCL     12372--REDEF
QI_TYPE_DISPLAY_SOURCE.CIP.S.CD
     12346**DCL     12349--REDEF   12353--REDEF   12356--REDEF
QI_TYPE_DISPLAY_SOURCE.CIP.T
     12449**DCL     12520--REDEF
QI_TYPE_DISPLAY_SOURCE.CIP.T.CA
     12452**DCL     12456--REDEF   12459--REDEF   12462--REDEF
QI_TYPE_DISPLAY_SOURCE.DATA
     12689**DCL     12693--REDEF
QI_TYPE_DISPLAY_SOURCE.DEC
PL6.E3A0      #001=QCU$UNSIGN File=QCU$UNSIGN.:E05TSI                            WED 07/30/97 05:15 Page:47
     12757**DCL     12761--REDEF   12762--REDEF   12766--REDEF
QI_TYPE_DISPLAY_SOURCE.LEN
     12729**DCL     12733--REDEF   12734--REDEF   12738--REDEF   12739--REDEF   12743--REDEF
QI_TYPE_DISPLAY_SOURCE.PICTURE_STRING
     12799**DCL     12802--REDEF   12803--REDEF   12806--REDEF   12807--REDEF   12810--REDEF
QI_TYPE_DISPLAY_SOURCE.ROUND
     12832**DCL     12833--REDEF   12834--REDEF
QI_TYPE_DISPLAY_SOURCE.SIZE_ERROR
     12818**DCL     12819--REDEF
QI_TYPE_DISPLAY_SOURCE.SRCH_VRFY_ELEMS
     12768**DCL     12771--REDEF
QI_TYPE_DISPLAY_TARGET
     12893**DCL     17752>>ASSIGN
QI_TYPE_DISPLAY_TARGET.CIP
     12897**DCL     13348--REDEF
QI_TYPE_DISPLAY_TARGET.CIP.AUX
     13263**DCL     13334--REDEF
QI_TYPE_DISPLAY_TARGET.CIP.AUX.CA
     13266**DCL     13270--REDEF   13273--REDEF   13276--REDEF
QI_TYPE_DISPLAY_TARGET.CIP.S
     12967**DCL     13038--REDEF
QI_TYPE_DISPLAY_TARGET.CIP.S.CA
     12970**DCL     12974--REDEF   12977--REDEF   12980--REDEF
QI_TYPE_DISPLAY_TARGET.CIP.T
     13115**DCL     13186--REDEF
QI_TYPE_DISPLAY_TARGET.CIP.T.CD
     13160**DCL     13163--REDEF   13167--REDEF   13170--REDEF
QI_TYPE_DISPLAY_TARGET.DATA
     13355**DCL     13359--REDEF
QI_TYPE_DISPLAY_TARGET.DEC
     13423**DCL     13427--REDEF   13428--REDEF   13432--REDEF
QI_TYPE_DISPLAY_TARGET.LEN
     13395**DCL     13399--REDEF   13400--REDEF   13404--REDEF   13405--REDEF   13409--REDEF
QI_TYPE_DISPLAY_TARGET.PICTURE_STRING
     13465**DCL     13468--REDEF   13469--REDEF   13472--REDEF   13473--REDEF   13476--REDEF
QI_TYPE_DISPLAY_TARGET.ROUND
PL6.E3A0      #001=QCU$UNSIGN File=QCU$UNSIGN.:E05TSI                            WED 07/30/97 05:15 Page:48
     13498**DCL     13499--REDEF   13500--REDEF
QI_TYPE_DISPLAY_TARGET.SIZE_ERROR
     13484**DCL     13485--REDEF
QI_TYPE_DISPLAY_TARGET.SRCH_VRFY_ELEMS
     13434**DCL     13437--REDEF
SO_UNSIGN_IT_ALREADY
     17627**LABEL   17575--GOTO    17597--GOTO
