VERSION E05

PL6.E3A0      #001=QCU$USE File=QCU$USE.:E05TSI                                  WED 07/30/97 05:15 Page:1
        1        1        /*M* QCU$USE:  Handle INVALID clauses and USE procedures.  */
        2        2        /*T***********************************************************/
        3        3        /*T*                                                         */
        4        4        /*T* Copyright (c) Bull HN Information Systems Inc., 1997    */
        5        5        /*T*                                                         */
        6        6        /*T***********************************************************/
        7        7        /*X* DMC,PLM=4,IND=0,DCI=4,CSI=2,IAD=2,DTI=2,AND,ECI=0,DIN=2,STI=2 */
        8        8
        9        9        /*P*  NAME:         QCU$USE
       10       10              PURPOSE:      Handle INVALID clauses and USE procedures after errors.
       11       11              DESCRIPTION:  An IO error has occurred, and this routine has been
       12       12                            called to check for any INVALID clause on the statement
       13       13                            being executed, or for any USE procedure which is to be
       14       14                            invoked.
       15       15        */
       16       16
       17       17        QCU$USE: PROC ( QCU@USE );
       18       18
       19       19          %INCLUDE LCP_6;
       20      210
       21      211          %INCLUDE QG_MACRO_M;
       22      348          %INCLUDE QI_EQUATES_E;
       23      707          %INCLUDE QI_PERR_C;
       24      875          %INCLUDE QI_MACROS_M;
       25     5933          %QI$ALL;
       26    17046          %QI_FPTS;
       27    19091
       28    19092    1     DCL FIELD_INDEX UBIN;
       29    19093    1     DCL FRAME$ PTR;
       30    19094    1     DCL FRAME_INDEX UBIN;
       31    19095    1     DCL FRAME_STATUS$ PTR;
       32    19096    1     DCL GZ_FIELD$ PTR;
       33    19097    1     DCL IO_OR_VERIFY_INDEX UBIN;
       34    19098    1     DCL USE_PROCEDURE_TYPE_INDEX UBIN;
       35    19099
       36    19100    1     DCL QCE$ERROR ENTRY (4);
       37    19101    1     DCL QCE$ERROR_INTERNAL ENTRY (4);
PL6.E3A0      #001=QCU$USE File=QCU$USE.:E05TSI                                  WED 07/30/97 05:15 Page:2
       38    19102    1     DCL QCU$USE_CALL ENTRY (1);
       39    19103
       40    19104          %SET LISTMAC = '1'B;
       41    19105
       42    19106          %INCLUDE QCU_USE_M;
       43    19160          %QCU@USE ( STCLASS = PARAM );
             19161            %BEGIN_MACRO;
             19162            %SET LISTDIR = '0'B;
             19175    1     DCL 1 QCU@USE PARAM ALIGNED,
             19176    1           2 CURR_FRAME$ PTR,
             19177                          /* Pointer to DAD of current frame or ADDR (NIL).  */
             19178    1           2 CURR_NODE$ PTR,
             19179                          /* Pointer to current node or ADDR (NIL).  */
             19180    1           2 USE_DEFAULT_IO UBIN,
             19181                          /* For USE procedures which default applies
             19182                             (see corresponding EQUs).  */
             19183    1           2 IS_TIME_TO_SAVE_AWAY_FIELDS BIT(1) ALIGNED,
             19184                          /* If IS_TIME_TO_SAVE_AWAY_FIELDS, then
             19185                             save the fields within the bounds of
             19186                             FRAME_START_INDEX, FRAME_STOP_INDEX,
             19187                             FIELD_START_INDEX, and FIELD_STOP_INDEX
             19188                             before calling the USE procedure.  */
             19189    1           2 FRAME_START_INDEX UBIN,
             19190                          /* Foist frame of the CURRENT.FORM$
             19191                             involved with the I-O error.  */
             19192    1           2 FRAME_STOP_INDEX UBIN,
             19193                          /* Larst frame of the CURRENT.FORM$
             19194                             involved with the I-O error.  */
             19195    1           2 IS_FIELD_INDEXES_VALID BIT(1) ALIGNED,
             19196                          /* If IS_FIELD_INDEXES_VALID, use them;
             19197                             else use all the fields in the frame.  */
             19198    1           2 FIELD_START_INDEX UBIN,
             19199                          /* Starting index into QI$GZ_FIELD
             19200                             which may have values "pushed".  */
             19201    1           2 FIELD_STOP_INDEX UBIN,
             19202                          /* Stopping index into QI$GZ_FIELD
             19203                             which may have values "pushed".  */
PL6.E3A0      #001=QCU$USE File=QCU$USE.:E05TSI                                  WED 07/30/97 05:15 Page:3
             19204    1           2 IS_CURSOR_POSITION_VALID BIT(1) ALIGNED,
             19205                          /* If IS_CURSOR_POSITION_VALID, use it;
             19206                             else allow cursor to default to upper-left-most field.  */
             19207    1           2 CURSOR_POSITION BIT(16) ALIGNED,
             19208                          /* POSition of the field on which to place the cursor.  */
             19209    1           2 STATUS UBIN;
             19210                          /* Returned action code; see corresponding EQUs.  */
             19217            %ENDIF;
       44    19220
       45    19221          %SET LISTMAC = '0'B;
       46    19222        %EJECT;
PL6.E3A0      #001=QCU$USE File=QCU$USE.:E05TSI                                  WED 07/30/97 05:15 Page:4
       47    19223    1   QCU$USE_INVALID_IO: ENTRY ( QCU@USE );
       48    19224
       49    19225        /*D*  NAME:         QCU$USE_INVALID_IO
       50    19226              CALL:         CALL QCU$USE_INVALID_IO ( QCU@USE );
       51    19227              PARAMETERS:   QCU@USE is a structure which contains information
       52    19228                            concerning the FORM or TRANSACTION file which the
       53    19229                            error occured in, and the frame and field involved,
       54    19230                            if any.  It's generated by invoking the QCU@USE %MACRO
       55    19231                            within the QCU_USE_M %INCLUDE file (see commentary
       56    19232                            within that file).
       57    19233              INTERFACE:    See QCU$USE_IO commentary.
       58    19234              ENVIRONMENT:  Called for interpreter-detected "external" errors.
       59    19235              INPUT:        QI_1, etc.
       60    19236              OUTPUT:       QI_1, etc.
       61    19237              SCRATCH:      Various otter stuff.
       62    19238              DESCRIPTION:  Called by routines executing statements which may
       63    19239                            have INVALID clauses associated with them, for IO
       64    19240                            errors.  Any appropriate USE procedures are called.
       65    19241        */
       66    19242
       67    19243    1       IO_OR_VERIFY_INDEX = %QI#STANDARD;
       68    19244    1       GOTO NEXT_USE;
       69    19245
       70    19246    1   QCU$USE_INVALID_VERIFY: ENTRY ( QCU@USE );
       71    19247
       72    19248        /*D*  NAME:         QCU$USE_INVALID_VERIFY
       73    19249              CALL:         CALL QCU$USE_INVALID_VERIFY ( QCU@USE );
       74    19250              PARAMETERS:   QCU@USE is a structure which contains information
       75    19251                            concerning the FORM or TRANSACTION file which the
       76    19252                            error occured in, and the frame and field involved,
       77    19253                            if any.  It's generated by invoking the QCU@USE %MACRO
       78    19254                            within the QCU_USE_M %INCLUDE file (see commentary
       79    19255                            within that file).
       80    19256              INTERFACE:    See QCU$USE_IO commentary.
       81    19257              ENVIRONMENT:  Called for interpreter-detected "external" errors.
       82    19258              INPUT:        QI_1, etc.
       83    19259              OUTPUT:       QI_1, etc.
PL6.E3A0      #001=QCU$USE File=QCU$USE.:E05TSI                                  WED 07/30/97 05:15 Page:5
       84    19260              SCRATCH:      Various otter stuff.
       85    19261              DESCRIPTION:  Called by routines executing statements which may
       86    19262                            have INVALID clauses associated with them, for VERIFY
       87    19263                            errors.  Any appropriate USE procedures are called.
       88    19264                            (Currently, there are no such routines:  JJL, C00).
       89    19265        */
       90    19266
       91    19267    1       IO_OR_VERIFY_INDEX = %QI#VERIFY;
       92    19268
       93    19269    1   NEXT_USE:
       94    19270    1       CALL SET_SPECIAL_REGISTERS;
       95    19271
       96    19272    1       GOTO SO_USE_IT_ALREADY;
       97    19273
       98    19274    1   QCU$USE_IO: ENTRY ( QCU@USE );
       99    19275
      100    19276        /*D*  NAME:         QCU$USE_IO
      101    19277              CALL:         CALL QCU$USE_IO ( QCU@USE );
      102    19278              PARAMETERS:   QCU@USE is a structure which contains information
      103    19279                            concerning the FORM or TRANSACTION file which the
      104    19280                            error occured in, and the frame and field involved,
      105    19281                            if any.  It's generated by invoking the QCU@USE %MACRO
      106    19282                            within the QCU_USE_M %INCLUDE file (see commentary
      107    19283                            within that file).
      108    19284              INTERFACE:    OK:  here's the entry points to this routine, the
      109    19285                            routines which call them, and why they should.
      110    19286
      111    19287                            1)  QCU$USE_IO called by:
      112    19288                                    QBO$OPEN for:
      113    19289                                        FORM file already open
      114    19290                                    QBC$CLOSE for:
      115    19291                                        FORM file already closed
      116    19292                                    QBA$ACTIVATE for:
      117    19293                                        FORM file not open
      118    19294                                    QBE$ENABLE for:
      119    19295                                        FORM file not open
      120    19296                                        FRAME not active
PL6.E3A0      #001=QCU$USE File=QCU$USE.:E05TSI                                  WED 07/30/97 05:15 Page:6
      121    19297                                    QBV$VERI_PRES for:
      122    19298                                        FORM file not open
      123    19299                                        FRAME not active
      124    19300                                    QBI$IF_STATUS for:
      125    19301                                        FORM file not open
      126    19302                                        FRAME not active (for field status checks)
      127    19303                                    QBA$APPLY for:
      128    19304                                        FORM file not open
      129    19305                                        FRAME not active
      130    19306                                        "Bad IO" monitor errors
      131    19307                                    QBC$CLEAR for:
      132    19308                                        FORM file not open
      133    19309                                        FRAME not active
      134    19310                                        "Bad IO" monitor errors
      135    19311                            2)  QCU$USE_VERIFY called by:
      136    19312                                    QBV$VERI_PRES for:
      137    19313                                        RETRY count exhausted
      138    19314                                        (*not currently implemented*)
      139    19315                            3)  QCU$USE_OR_INVALID called by:
      140    19316                                    QCR$READ_TRAN for:
      141    19317                                        TRANSACTION file not open (for input)
      142    19318                                        Illegal transaction type
      143    19319                                        Insufficient privilege for transaction type
      144    19320                                        TPAP abort
      145    19321                                        Lost data
      146    19322                                        "Bad IO" monitor errors
      147    19323                            4)  QCU$USE_OR_INVALID_VERIFY called by:
      148    19324                                        Nobody, currently.
      149    19325
      150    19326              ENVIRONMENT:  Called for interpreter-detected "external" errors.
      151    19327              INPUT:        QI_1, etc.
      152    19328              OUTPUT:       QI_1, etc.
      153    19329              SCRATCH:      Various otter stuff.
      154    19330              DESCRIPTION:  Called by routines executing statements which cannot
      155    19331                            have INVALID clauses associated with them, for IO
      156    19332                            errors.  Any appropriate USE procedures are called.
      157    19333        */
PL6.E3A0      #001=QCU$USE File=QCU$USE.:E05TSI                                  WED 07/30/97 05:15 Page:7
      158    19334
      159    19335    1       IO_OR_VERIFY_INDEX = %QI#STANDARD;
      160    19336
      161    19337    1       GOTO INVALID_FIRST;
      162    19338
      163    19339    1   QCU$USE_VERIFY: ENTRY ( QCU@USE );
      164    19340
      165    19341        /*D*  NAME:         QCU$USE_VERIFY
      166    19342              CALL:         CALL QCU$USE_VERIFY ( QCU@USE );
      167    19343              PARAMETERS:   QCU@USE is a structure which contains information
      168    19344                            concerning the FORM or TRANSACTION file which the
      169    19345                            error occured in, and the frame and field involved,
      170    19346                            if any.  It's generated by invoking the QCU@USE %MACRO
      171    19347                            within the QCU_USE_M %INCLUDE file (see commentary
      172    19348                            within that file).
      173    19349              INTERFACE:    See QCU$USE_IO commentary.
      174    19350              ENVIRONMENT:  Called for interpreter-detected "external" errors.
      175    19351              INPUT:        QI_1, etc.
      176    19352              OUTPUT:       QI_1, etc.
      177    19353              SCRATCH:      Various otter stuff.
      178    19354              DESCRIPTION:  Called by routines executing statements which cannot
      179    19355                            have INVALID clauses associated with them, for VERIFY
      180    19356                            errors.  Any appropriate USE procedures are called.
      181    19357        */
      182    19358
      183    19359    1       IO_OR_VERIFY_INDEX = %QI#VERIFY;
      184    19360
      185    19361    1   INVALID_FIRST:
      186    19362            %IF QI#DEBUG;
      187    19363
      188    19364    1       IF QI_1.INSTR$ = QI_1.CURR_INSTR$
      189    19365    1       THEN
      190    19366    1         CALL QCE$ERROR_INTERNAL ( %E$INTERNAL_INTERPRETER_ERROR );
      191    19367
      192    19368            %ENDIF;
      193    19369
      194    19370    1       CALL SET_SPECIAL_REGISTERS;
PL6.E3A0      #001=QCU$USE File=QCU$USE.:E05TSI                                  WED 07/30/97 05:15 Page:8
      195    19371
      196    19372    1       IF QI_1.INSTR$ -> QI$OP_SEQUENCE.CODE = %QI#OP_JAZ
      197    19373    1       THEN
      198    19374    1   GOTTA_INVALID_CLAUSE:
      199    19375    2         DO;
      200    19376    2           IF QI_1.CURRENT.FILE$ ~= ADDR (NIL)
      201    19377    2           THEN
      202    19378    2   GOTTA_OK_FILE$:
      203    19379    3             DO;
      204    19380                    %IF QI#DEBUG;
      205    19381
      206    19382    3               IF QI_1.CURRENT.FILE_STATUS$ = ADDR (NIL)
      207    19383    3               THEN
      208    19384    3                 CALL QCE$ERROR_INTERNAL ( %E$INTERNAL_INTERPRETER_ERROR );
      209    19385
      210    19386                    %ENDIF;
      211    19387
      212    19388    3               IF QI_1.CURRENT.FILE_STATUS$ -> QI$FILE_STATUS.INDICATORS.OPEN_VALUE ~=
             19388                        0
      213    19389    3               THEN
      214    19390    3   GOTTA_OPEN_FILE:
      215    19391    4                 DO;
      216    19392    4                   IF QI_1.CURRENT.FILE$ -> QI$FILE.WORD0_FLAGS.TYPE = %QI#TYPE_FORM
      217    19393    4                     AND QCU@USE.IS_TIME_TO_SAVE_AWAY_FIELDS
      218    19394    4                   THEN
      219    19395    4   GOTTA_START_INDEX:
      220    19396    5                     DO;
      221    19397
      222    19398    5   RESET_THEM_FRAMES:
      223    19399    5                       DO FRAME_INDEX =
      224    19400    6                         QCU@USE.FRAME_START_INDEX TO QCU@USE.FRAME_STOP_INDEX;
      225    19401
      226    19402                              %PROC_ADDRESS ( THING@P =
             19402                         "QI_1.CURRENT.FORM$ -> QI$FORM_FILE.FRAME_LIST_A@P ( FRAME_INDEX )"
             19402                                  ,
      227    19403                              CHECK_FOR_INDIRECTION = NO,
      228    19404                              RESULT$ = FRAME$ );
PL6.E3A0      #001=QCU$USE File=QCU$USE.:E05TSI                                  WED 07/30/97 05:15 Page:9
      229    19441
      230    19442                              %DATA_ADDRESS ( THING@D = "FRAME$ -> QI$FRAME.STATUS_AREA@D",
      231    19443                              CHECK_FOR_INDIRECTION = NO,
      232    19444                              RESULT$ = FRAME_STATUS$ );
      233    19481
      234    19482    6                         IF QCU@USE.IS_FIELD_INDEXES_VALID
      235    19483    6                         THEN
      236    19484    7                           DO;
      237    19485    7                             QCU@USE.FIELD_START_INDEX = FRAME_STATUS$ ->
             19485                                      QI$FRAME_STATUS.GZ.FIELD_START_INDEX;
      238    19486    7                             QCU@USE.FIELD_STOP_INDEX = FRAME_STATUS$ ->
             19486                                      QI$FRAME_STATUS.GZ.FIELD_STOP_INDEX;
      239    19487    7                           END;
      240    19488
      241    19489    6                         GZ_FIELD$ = PINCRW ( FRAME_STATUS$ -> QI$FRAME_STATUS.GZ.
             19489                                  START$,
      242    19490    6                           QCU@USE.FIELD_START_INDEX * LENGTHW (QI$GZ_FIELD) );
      243    19491
      244    19492    6   RESET_THEM_FIELDS:
      245    19493    6                         DO FIELD_INDEX =
      246    19494    7                           QCU@USE.FIELD_START_INDEX TO QCU@USE.FIELD_STOP_INDEX;
      247    19495
      248    19496    7                           IF GZ_FIELD$ -> QI$GZ_FIELD.OPERATION.IS_DONE = %YES
      249    19497    7                           THEN
      250    19498    7                             GZ_FIELD$ -> QI$GZ_FIELD.INDICATORS$ -> QI$INDICATORS.
             19498                                      STATE_VALUE = %QI#STATE_NULL;
      251    19499
      252    19500    7                           GZ_FIELD$ -> QI$GZ_FIELD.OPERATION.IS_OPERATE = %NO;
      253    19501    7                           GZ_FIELD$ -> QI$GZ_FIELD.OPERATION.IS_DONE = %NO;
      254    19502    7                           GZ_FIELD$ -> QI$GZ_FIELD.FPL_ERROR = %NO;
      255    19503
      256    19504    7                           GZ_FIELD$ = PINCRW (GZ_FIELD$, LENGTHW (QI$GZ_FIELD));
      257    19505
      258    19506    7                         END RESET_THEM_FIELDS;
      259    19507
      260    19508    6                       END RESET_THEM_FRAMES;
      261    19509
PL6.E3A0      #001=QCU$USE File=QCU$USE.:E05TSI                                  WED 07/30/97 05:15 Page:10
      262    19510    5                     END GOTTA_START_INDEX;
      263    19511
      264    19512    4                 END GOTTA_OPEN_FILE;
      265    19513
      266    19514    3             END GOTTA_OK_FILE$;
      267    19515
      268    19516    2           QI_1.A_REG = 1;
      269    19517
      270    19518    2           QCU@USE.STATUS = %QI#USE_INVALID_RETURN;
      271    19519
      272    19520    2           RETURN;
      273    19521
      274    19522    2         END GOTTA_INVALID_CLAUSE;
      275    19523
      276    19524    1   SO_USE_IT_ALREADY:
      277    19525    1       IF QI_1.CURRENT.FORM$ = ADDR (NIL)
      278    19526    1       THEN
      279    19527    1         CALL QCE$ERROR ( QI_1.ERROR_STATUS );
      280    19528    1       ELSE
      281    19529    2         DO;
      282    19530    2           IF NOT QI_1.CURRENT.FORM$ -> QI$FORM_FILE.WORD0_FLAGS.IS_ERROR_STATUS_VALID
      283    19531    2           THEN
      284    19532    2             CALL QCE$ERROR ( QI_1.ERROR_STATUS );
      285    19533    2         END;
      286    19534
      287    19535        /*N*  I sincerely hope that noone ever decides to actually implement
      288    19536              this USE PROCEDURE junk.
      289    19537              Not only is it a pain for the compiler, and not only does it
      290    19538              *permeate* the entire interpreter, but it's basically useless.
      291    19539              Let's say you're a programmer who wants to take control of I-O
      292    19540              errors with USE PROCEDUREs.  How you gonna do it?  You ain't.
      293    19541              You'll just find out you got one, spit out some stupid
      294    19542              STOP "literal" and abort.  Worthless.
      295    19543              For now, we'll do what the B03 commentary says:
      296    19544                  "Fake the existence of an
      297    19545                  INVALID clause."
      298    19546        */
PL6.E3A0      #001=QCU$USE File=QCU$USE.:E05TSI                                  WED 07/30/97 05:15 Page:11
      299    19547    1       IF QI_1.INSTR$ -> QI$OP_SEQUENCE.CODE = %QI#OP_JAZ
      300    19548    1       THEN
      301    19549    1         QI_1.A_REG = 1;
      302    19550
      303    19551    1       QCU@USE.STATUS = %QI#USE_INVALID_RETURN;
      304    19552
      305    19553    1       IF QCU@USE.STATUS = %QI#USE_INVALID_RETURN
      306    19554    1       THEN
      307    19555    1         RETURN;
      308    19556
      309    19557    1       IF QI_1.CURRENT.FORM$ ~= ADDR (NIL)
      310    19558    1       THEN
      311    19559    1   GOTTA_FORM$_OK:
      312    19560    2         DO;
      313    19561                %IF QI#DEBUG;
      314    19562
      315    19563    2           IF QI_1.CURRENT.FORM_STATUS$ = ADDR (NIL)
      316    19564    2           THEN
      317    19565    2             CALL QCE$ERROR_INTERNAL ( %E$INTERNAL_INTERPRETER_ERROR );
      318    19566
      319    19567                %ENDIF;
      320    19568
      321    19569    2           IF QI_1.CURRENT.FORM_STATUS$ -> QI$FORM_STATUS.INDICATORS.OPEN_VALUE ~= 0
      322    19570    2           THEN
      323    19571    2   GOTTA_FORM_OPEN:
      324    19572    3             DO;
      325    19573
      326    19574    3               IF QI_1.CURRENT.FORM$ -> QI$FORM_FILE.USE_PROCEDURE_A@P (
             19574                        IO_OR_VERIFY_INDEX ) > 0
      327    19575    3               THEN
      328    19576    3   GOTTA_USE_PROCEDURE:
      329    19577    4                 DO;
      330    19578    4                   IF QI_1.CURRENT.FORM_STATUS$ -> QI$FORM_STATUS.CURRENT.
             19578                            IS_USE_PROCEDURE_ACTIVE.STANDARD
      331    19579    4                     AND IO_OR_VERIFY_INDEX = %QI#STANDARD
      332    19580    4                   THEN
      333    19581    4                     CALL QCE$ERROR ( QI_1.ERROR_STATUS );
PL6.E3A0      #001=QCU$USE File=QCU$USE.:E05TSI                                  WED 07/30/97 05:15 Page:12
      334    19582
      335    19583    4                   IF QI_1.CURRENT.FORM_STATUS$ -> QI$FORM_STATUS.CURRENT.
             19583                            IS_USE_PROCEDURE_ACTIVE.VERIFY
      336    19584    4                     AND IO_OR_VERIFY_INDEX = %QI#VERIFY
      337    19585    4                   THEN
      338    19586    4                     CALL QCE$ERROR ( QI_1.ERROR_STATUS );
      339    19587
      340    19588    4                   IF IO_OR_VERIFY_INDEX = %QI#STANDARD
      341    19589    4                   THEN
      342    19590    4                     QI_1.CURRENT.FORM_STATUS$ -> QI$FORM_STATUS.CURRENT.
             19590                              IS_USE_PROCEDURE_ACTIVE.STANDARD = %YES;
      343    19591    4                   ELSE
      344    19592    4                     QI_1.CURRENT.FORM_STATUS$ -> QI$FORM_STATUS.CURRENT.
             19592                              IS_USE_PROCEDURE_ACTIVE.VERIFY = %YES;
      345    19593
      346    19594    4                   QI_1.USE_PROCEDURE@P = QI_1.CURRENT.FORM$ -> QI$FORM_FILE.
             19594                            USE_PROCEDURE_A@P ( IO_OR_VERIFY_INDEX );
      347    19595
      348    19596    4                   CALL QCU$USE_CALL ( QCU@USE );
      349    19597
      350    19598    4                   IF IO_OR_VERIFY_INDEX = %QI#STANDARD
      351    19599    4                   THEN
      352    19600    4                     QI_1.CURRENT.FORM_STATUS$ -> QI$FORM_STATUS.CURRENT.
             19600                              IS_USE_PROCEDURE_ACTIVE.STANDARD = %NO;
      353    19601    4                   ELSE
      354    19602    4                     QI_1.CURRENT.FORM_STATUS$ -> QI$FORM_STATUS.CURRENT.
             19602                              IS_USE_PROCEDURE_ACTIVE.VERIFY = %NO;
      355    19603
      356    19604    4                 END GOTTA_USE_PROCEDURE;
      357    19605
      358    19606        /*
      359    19607            Check if any defaults apply
      360    19608        */
      361    19609    3               IF IO_OR_VERIFY_INDEX = %QI#STANDARD
      362    19610    3               THEN
      363    19611    4                 DO;
      364    19612
PL6.E3A0      #001=QCU$USE File=QCU$USE.:E05TSI                                  WED 07/30/97 05:15 Page:13
      365    19613    5                   DO CASE ( QCU@USE.USE_DEFAULT_IO );
      366    19614
      367    19615    5                     CASE ( %QI#USE_DEFAULT_OUTPUT,
      368    19616    5                     %QI#USE_DEFAULT_INPUT );
      369    19617    5                       USE_PROCEDURE_TYPE_INDEX = QCU@USE.USE_DEFAULT_IO;
      370    19618
      371    19619    5                     CASE ( ELSE );
      372    19620    5                       CALL QCE$ERROR ( QI_1.ERROR_STATUS );
      373    19621
      374    19622    5                   END;
      375    19623
      376    19624    4                 END;
      377    19625    3               ELSE
      378    19626    3                 USE_PROCEDURE_TYPE_INDEX = %QI#USE_DEFAULT_VERIFY;
      379    19627
      380    19628    3               IF QI_1.DEFAULT_USE_PROCEDURE_A@P ( USE_PROCEDURE_TYPE_INDEX ) > 0
      381    19629    3               THEN
      382    19630    3   GOTTA_DEFAULT_USE_PROCEDURE:
      383    19631    4                 DO;
      384    19632
      385    19633    4                   IF QI_1.IS_DEFAULT_USE_PROC_ACTIVE_A ( USE_PROCEDURE_TYPE_INDEX )
      386    19634    4                   THEN
      387    19635    4                     CALL QCE$ERROR ( QI_1.ERROR_STATUS );
      388    19636    4                   ELSE
      389    19637    5                     DO;
      390    19638
      391    19639    5                       QI_1.IS_DEFAULT_USE_PROC_ACTIVE_A ( USE_PROCEDURE_TYPE_INDEX ) =
             19639                                %YES;
      392    19640    5                       QI_1.USE_PROCEDURE@P = QI_1.DEFAULT_USE_PROCEDURE_A@P (
             19640                                USE_PROCEDURE_TYPE_INDEX );
      393    19641
      394    19642    5                       CALL QCU$USE_CALL;
      395    19643
      396    19644    5                       QI_1.IS_DEFAULT_USE_PROC_ACTIVE_A ( USE_PROCEDURE_TYPE_INDEX ) =
             19644                                %NO;
      397    19645
      398    19646    5                     END;
PL6.E3A0      #001=QCU$USE File=QCU$USE.:E05TSI                                  WED 07/30/97 05:15 Page:14
      399    19647
      400    19648    4                 END GOTTA_DEFAULT_USE_PROCEDURE;
      401    19649    3               ELSE
      402    19650    3                 CALL QCE$ERROR ( QI_1.ERROR_STATUS );
      403    19651
      404    19652    3             END GOTTA_FORM_OPEN;
      405    19653
      406    19654    2         END GOTTA_FORM$_OK;
      407    19655
      408    19656    1       IF QI_1.SPECIAL_NAMES.RETRY$ -> QI$UBYTE_A (0) = QI_ZERO
      409    19657    1       THEN
      410    19658    1         QCU@USE.STATUS = %QI#USE_INVALID_RETRY;
      411    19659    1       ELSE
      412    19660    1         QCU@USE.STATUS = %QI#USE_INVALID_SKIP_TO_NEXT;
      413    19661
      414    19662    1       RETURN;
      415    19663
      416    19664        %EJECT;
PL6.E3A0      #001=QCU$USE File=QCU$USE.:E05TSI                                  WED 07/30/97 05:15 Page:15
      417    19665    1   SET_SPECIAL_REGISTERS: PROC;
      418    19666
      419    19667    2     DCL CURRENT$ PTR;
      420    19668    2     DCL CURRENT_DATA$ PTR;
      421    19669    2     DCL ERROR_STATUS$ PTR;
      422    19670    2     DCL IDENTIFIER$ PTR;
      423    19671    2     DCL OTTER_DOUBLE UBIN(32) DALIGNED;
      424    19672
      425    19673            %PROC_ADDRESS ( THING@P =
             19673                "QI_1.INITIALIZATION_BLOCK$ -> QI$INITIALIZATION_BLOCK.CURRENT_FORM@P",
      426    19674            CHECK_FOR_INDIRECTION = NO,
      427    19675            RESULT$ = CURRENT$ );
      428    19712
      429    19713            %DATA_ADDRESS ( THING@D = "CURRENT$ -> QI$COBOL_DAD.PSEUDO_CIP.DATA@",
      430    19714            CHECK_FOR_INDIRECTION = NO,
      431    19715            RESULT$ = CURRENT_DATA$ );
      432    19752
      433    19753    2       IF QI_1.CURRENT.FORM$ ~= ADDR (NIL)
      434    19754    2       THEN
      435    19755    3         DO;
      436    19756
      437    19757                %PROC_ADDRESS ( THING@P = "QI_1.CURRENT.FORM$ -> QI$FORM_FILE.IDENTIFIER@P",
      438    19758                CHECK_FOR_INDIRECTION = NO,
      439    19759                RESULT$ = IDENTIFIER$ );
      440    19796
      441    19797    3           CURRENT_DATA$ -> QI$IDENTIFIER.TEXT =
      442    19798    3             IDENTIFIER$ -> QI$VARIABLE_IDENTIFIER.TEXT;
      443    19799
      444    19800    3         END;
      445    19801    2       ELSE
      446    19802    2         CURRENT_DATA$ -> QI$IDENTIFIER.TEXT = ' ';
      447    19803
      448    19804            %PROC_ADDRESS ( THING@P =
             19804                "QI_1.INITIALIZATION_BLOCK$ -> QI$INITIALIZATION_BLOCK.CURRENT_FRAME@P",
      449    19805            CHECK_FOR_INDIRECTION = YES,
      450    19806            RESULT$ = CURRENT$ );
      451    19843
PL6.E3A0      #001=QCU$USE File=QCU$USE.:E05TSI                                  WED 07/30/97 05:15 Page:16
      452    19844            %DATA_ADDRESS ( THING@D = "CURRENT$ -> QI$COBOL_DAD.PSEUDO_CIP.DATA@",
      453    19845            CHECK_FOR_INDIRECTION = NO,
      454    19846            RESULT$ = CURRENT_DATA$ );
      455    19883
      456    19884    2       IF QCU@USE.CURR_FRAME$ ~= ADDR (NIL)
      457    19885    2       THEN
      458    19886    3         DO;
      459    19887
      460    19888                %PROC_ADDRESS ( THING@P = "QCU@USE.CURR_FRAME$ -> QI$FRAME.IDENTIFIER@P",
      461    19889                CHECK_FOR_INDIRECTION = NO,
      462    19890                RESULT$ = IDENTIFIER$ );
      463    19927
      464    19928    3           CURRENT_DATA$ -> QI$IDENTIFIER.TEXT =
      465    19929    3             IDENTIFIER$ -> QI$VARIABLE_IDENTIFIER.TEXT;
      466    19930
      467    19931    3         END;
      468    19932    2       ELSE
      469    19933    2         CURRENT_DATA$ -> QI$IDENTIFIER.TEXT = ' ';
      470    19934
      471    19935            %PROC_ADDRESS ( THING@P =
             19935                "QI_1.INITIALIZATION_BLOCK$ -> QI$INITIALIZATION_BLOCK.CURRENT_FIELD@P",
      472    19936            CHECK_FOR_INDIRECTION = NO,
      473    19937            RESULT$ = CURRENT$ );
      474    19974
      475    19975            %DATA_ADDRESS ( THING@D = "CURRENT$ -> QI$COBOL_DAD.PSEUDO_CIP.DATA@",
      476    19976            CHECK_FOR_INDIRECTION = NO,
      477    19977            RESULT$ = CURRENT_DATA$ );
      478    20014
      479    20015    2       IF QCU@USE.CURR_NODE$ ~= ADDR (NIL)
      480    20016    2       THEN
      481    20017    3         DO;
      482    20018
      483    20019                %PROC_ADDRESS ( THING@P = "QCU@USE.CURR_NODE$ -> QI$FIELD_DAD.IDENTIFIER@P",
      484    20020                CHECK_FOR_INDIRECTION = NO,
      485    20021                RESULT$ = IDENTIFIER$ );
      486    20058
      487    20059    3           CURRENT_DATA$ -> QI$IDENTIFIER.TEXT =
PL6.E3A0      #001=QCU$USE File=QCU$USE.:E05TSI                                  WED 07/30/97 05:15 Page:17
      488    20060    3             IDENTIFIER$ -> QI$VARIABLE_IDENTIFIER.TEXT;
      489    20061
      490    20062    3         END;
      491    20063    2       ELSE
      492    20064    2         CURRENT_DATA$ -> QI$IDENTIFIER.TEXT = ' ';
      493    20065
      494    20066    2       IF QI_1.CURRENT.FORM$ ~= ADDR (NIL)
      495    20067    2       THEN
      496    20068    3         DO;
      497    20069
      498    20070    3           IF QI_1.CURRENT.FORM$ -> QI$FORM_FILE.WORD0_FLAGS.IS_ERROR_STATUS_VALID
      499    20071    3           THEN
      500    20072    4             DO;
      501    20073
      502    20074                    %DATA_ADDRESS ( THING@D =
             20074                        "QI_1.CURRENT.FORM$ -> QI$FORM_FILE.ERROR_STATUS@D",
      503    20075                    CHECK_FOR_INDIRECTION = NO,
      504    20076                    RESULT$ = ERROR_STATUS$ );
      505    20113
      506    20114    4               OTTER_DOUBLE = QI_1.CURR_INSTR$ -> QI$OP_SEQUENCE.CODE * 20000;
      507    20115    4               OTTER_DOUBLE = OTTER_DOUBLE
      508    20116    4                 + ( QI_1.CURR_INSTR$ -> QI$OP_SEQUENCE.CODE * 80000 )
      509    20117    4                 + QI_1.ERROR_STATUS;
      510    20118
      511    20119    4               CALL BINCHAR ( ERROR_STATUS$ -> QI$ERROR_STATUS.TEXT,
      512    20120    4                 OTTER_DOUBLE );
      513    20121
      514    20122    4             END;
      515    20123
      516    20124    3         END;
      517    20125
      518    20126    2       RETURN;
      519    20127
      520    20128    2   END SET_SPECIAL_REGISTERS;
      521    20129
      522    20130    1   END QCU$USE;
      523    20131        %EOD;
PL6.E3A0      #001=QCU$USE File=QCU$USE.:E05TSI                                  WED 07/30/97 05:15 Page:18

PL6.E3A0      #001=QCU$USE File=QCU$USE.:E05TSI                                  WED 07/30/97 05:15 Page:19
--  Include file information  --

   QCU_USE_M.:E05TOU  is referenced.
   QI_MACROS_M.:E05TOU  is referenced.
   QI_PERR_C.:E05TOU  is referenced.
   QI_EQUATES_E.:E05TOU  is referenced.
   QG_MACRO_M.:E05TOU  is referenced.
   LCP_6.:E05TOU  cannot be made into a system file and is referenced.
   G_LCP6_E.:E05TOU  was found in the system file and is referenced.
   GT_LCP6_M.:E05TOU  was found in the system file and is referenced.
   KI_CP6.:E05TOU  was found in the system file and is referenced.
   GF_LCP6_M.:E05TOU  was found in the system file and is referenced.
   GM_LCP6_M.:E05TOU  was found in the system file and is referenced.
   GU_LCP6_M.:E05TOU  was found in the system file and is referenced.
   GJ_LCP6_M.:E05TOU  was found in the system file and is referenced.
   GH_LCP6_M.:E05TOU  was found in the system file and is referenced.
      No diagnostics issued in procedure QCU$USE.

   Procedure QCU$USE requires 820 words for executable code.
   Procedure QCU$USE requires 30 words of local(AUTO) storage.

PL6.E3A0      #001=QCU$USE File=QCU$USE.:E05TSI                                  WED 07/30/97 05:15 Page:20

 Object Unit name= QCU$USE                                    File name= QCU$USE.:E05TOU
 UTS= JUL 30 '97 05:15:29.88 WED                              Compiler= PL-6/E31         Sev=      00
 SharedLib= :SHARED_LCP6_SYSTEM                               Alt SharedLib=


    ****  Control sections  ****

 Sect   Type Bound  Init  Size HexSiz  Section name
    0   Proc  even  none   820    334  QCU$USE
    1  RoData even  none    11      B  QCU$USE

    ****  Entry defs  ****

                              Check   Calling
                             calling  sequence
  Sect HexLoc Primary Altret sequence   type   Parms  Name
     0      0   yes            yes      Std        1  QCU$USE
     0      7                  yes      Std        1  QCU$USE_INVALID_IO
     0     10                  yes      Std        1  QCU$USE_INVALID_VERIFY
     0     1D                  yes      Std        1  QCU$USE_IO
     0     26                  yes      Std        1  QCU$USE_VERIFY

  ****  Entry refs  ****

         Check        Calling
        calling       sequence
Altret sequence SRef   type   Args  Name
         yes           Std       4 QCE$ERROR_INTERNAL
         yes           Std       4 QCE$ERROR
         yes           Std       1 QCU$USE_CALL
                       nStd      0 X6A_AUTO_1
                       nStd      0 X6D_MID
                       nStd      0 X6A_ARET
PL6.E3A0      #001=QCU$USE File=QCU$USE.:E05TSI                                  WED 07/30/97 05:15 Page:21

  ****  Data refs  ****

  Flags:  r = read only, s = secondary
Flgs Name                             Flgs Name                             Flgs Name
     QI_1                                  QI_ZERO                               QI_4_CHAR_ALPHANUMERIC
     QI_31_DIGIT_SLS_DISPLAY               QI_16_BIT_BINARY                      QI_32_BIT_BINARY
     QI_31_DIGIT_ST_PACKED                 QI_PICTURE_STRING                r    G$ROS$
PL6.E3A0      #001=QCU$USE File=QCU$USE.:E05TSI                                  WED 07/30/97 05:15 Page:22


        1        1        /*M* QCU$USE:  Handle INVALID clauses and USE procedures.  */
        2        2        /*T***********************************************************/
        3        3        /*T*                                                         */
        4        4        /*T* Copyright (c) Bull HN Information Systems Inc., 1997    */
        5        5        /*T*                                                         */
        6        6        /*T***********************************************************/
        7        7        /*X* DMC,PLM=4,IND=0,DCI=4,CSI=2,IAD=2,DTI=2,AND,ECI=0,DIN=2,STI=2 */
        8        8
        9        9        /*P*  NAME:         QCU$USE
       10       10              PURPOSE:      Handle INVALID clauses and USE procedures after errors.
       11       11              DESCRIPTION:  An IO error has occurred, and this routine has been
       12       12                            called to check for any INVALID clause on the statement
       13       13                            being executed, or for any USE procedure which is to be
       14       14                            invoked.
       15       15        */
       16       16
       17       17        QCU$USE: PROC ( QCU@USE );

     17   0 000000  D380 0000 0000  xent QCU$USE         LNJ,B5   X6A_AUTO_1
          0 000003       001E 0001                       DC       30,1
          0 000005  0F81 0006                            B        s:19243,PREL

       18       18
       19       19          %INCLUDE LCP_6;
       20      210
       21      211          %INCLUDE QG_MACRO_M;
       22      348          %INCLUDE QI_EQUATES_E;
       23      707          %INCLUDE QI_PERR_C;
       24      875          %INCLUDE QI_MACROS_M;
       25     5933          %QI$ALL;
       26    17046          %QI_FPTS;
       27    19091
       28    19092    1     DCL FIELD_INDEX UBIN;
       29    19093    1     DCL FRAME$ PTR;
       30    19094    1     DCL FRAME_INDEX UBIN;
       31    19095    1     DCL FRAME_STATUS$ PTR;
PL6.E3A0      #001=QCU$USE File=QCU$USE.:E05TSI                                  WED 07/30/97 05:15 Page:23
       32    19096    1     DCL GZ_FIELD$ PTR;
       33    19097    1     DCL IO_OR_VERIFY_INDEX UBIN;
       34    19098    1     DCL USE_PROCEDURE_TYPE_INDEX UBIN;
       35    19099
       36    19100    1     DCL QCE$ERROR ENTRY (4);
       37    19101    1     DCL QCE$ERROR_INTERNAL ENTRY (4);
       38    19102    1     DCL QCU$USE_CALL ENTRY (1);
       39    19103
       40    19104          %SET LISTMAC = '1'B;
       41    19105
       42    19106          %INCLUDE QCU_USE_M;
       43    19160          %QCU@USE ( STCLASS = PARAM );
             19161            %BEGIN_MACRO;
             19162            %SET LISTDIR = '0'B;
             19175    1     DCL 1 QCU@USE PARAM ALIGNED,
             19176    1           2 CURR_FRAME$ PTR,
             19177                          /* Pointer to DAD of current frame or ADDR (NIL).  */
             19178    1           2 CURR_NODE$ PTR,
             19179                          /* Pointer to current node or ADDR (NIL).  */
             19180    1           2 USE_DEFAULT_IO UBIN,
             19181                          /* For USE procedures which default applies
             19182                             (see corresponding EQUs).  */
             19183    1           2 IS_TIME_TO_SAVE_AWAY_FIELDS BIT(1) ALIGNED,
             19184                          /* If IS_TIME_TO_SAVE_AWAY_FIELDS, then
             19185                             save the fields within the bounds of
             19186                             FRAME_START_INDEX, FRAME_STOP_INDEX,
             19187                             FIELD_START_INDEX, and FIELD_STOP_INDEX
             19188                             before calling the USE procedure.  */
             19189    1           2 FRAME_START_INDEX UBIN,
             19190                          /* Foist frame of the CURRENT.FORM$
             19191                             involved with the I-O error.  */
             19192    1           2 FRAME_STOP_INDEX UBIN,
             19193                          /* Larst frame of the CURRENT.FORM$
             19194                             involved with the I-O error.  */
             19195    1           2 IS_FIELD_INDEXES_VALID BIT(1) ALIGNED,
             19196                          /* If IS_FIELD_INDEXES_VALID, use them;
             19197                             else use all the fields in the frame.  */
PL6.E3A0      #001=QCU$USE File=QCU$USE.:E05TSI                                  WED 07/30/97 05:15 Page:24
             19198    1           2 FIELD_START_INDEX UBIN,
             19199                          /* Starting index into QI$GZ_FIELD
             19200                             which may have values "pushed".  */
             19201    1           2 FIELD_STOP_INDEX UBIN,
             19202                          /* Stopping index into QI$GZ_FIELD
             19203                             which may have values "pushed".  */
             19204    1           2 IS_CURSOR_POSITION_VALID BIT(1) ALIGNED,
             19205                          /* If IS_CURSOR_POSITION_VALID, use it;
             19206                             else allow cursor to default to upper-left-most field.  */
             19207    1           2 CURSOR_POSITION BIT(16) ALIGNED,
             19208                          /* POSition of the field on which to place the cursor.  */
             19209    1           2 STATUS UBIN;
             19210                          /* Returned action code; see corresponding EQUs.  */
             19217            %ENDIF;
       44    19220
       45    19221          %SET LISTMAC = '0'B;
       46    19222        %EJECT;
PL6.E3A0      #001=QCU$USE File=QCU$USE.:E05TSI                                  WED 07/30/97 05:15 Page:25
       47    19223    1   QCU$USE_INVALID_IO: ENTRY ( QCU@USE );

  19223   0 000007  D380 0000 0000  xent QCU$USE_INVALID*LNJ,B5   X6A_AUTO_1
          0 00000A       001E 0001                       DC       30,1

       48    19224
       49    19225        /*D*  NAME:         QCU$USE_INVALID_IO
       50    19226              CALL:         CALL QCU$USE_INVALID_IO ( QCU@USE );
       51    19227              PARAMETERS:   QCU@USE is a structure which contains information
       52    19228                            concerning the FORM or TRANSACTION file which the
       53    19229                            error occured in, and the frame and field involved,
       54    19230                            if any.  It's generated by invoking the QCU@USE %MACRO
       55    19231                            within the QCU_USE_M %INCLUDE file (see commentary
       56    19232                            within that file).
       57    19233              INTERFACE:    See QCU$USE_IO commentary.
       58    19234              ENVIRONMENT:  Called for interpreter-detected "external" errors.
       59    19235              INPUT:        QI_1, etc.
       60    19236              OUTPUT:       QI_1, etc.
       61    19237              SCRATCH:      Various otter stuff.
       62    19238              DESCRIPTION:  Called by routines executing statements which may
       63    19239                            have INVALID clauses associated with them, for IO
       64    19240                            errors.  Any appropriate USE procedures are called.
       65    19241        */
       66    19242
       67    19243    1       IO_OR_VERIFY_INDEX = %QI#STANDARD;

  19243   0 00000C  8747 000E                            CL       IO_OR_VERIFY_INDEX,AUTO

       68    19244    1       GOTO NEXT_USE;

  19244   0 00000E  0F81 0009                            B        s:19270,PREL

       69    19245
       70    19246    1   QCU$USE_INVALID_VERIFY: ENTRY ( QCU@USE );

  19246   0 000010  D380 0000 0000  xent QCU$USE_INVALID*LNJ,B5   X6A_AUTO_1
          0 000013       001E 0001                       DC       30,1
PL6.E3A0      #001=QCU$USE File=QCU$USE.:E05TSI                                  WED 07/30/97 05:15 Page:26

       71    19247
       72    19248        /*D*  NAME:         QCU$USE_INVALID_VERIFY
       73    19249              CALL:         CALL QCU$USE_INVALID_VERIFY ( QCU@USE );
       74    19250              PARAMETERS:   QCU@USE is a structure which contains information
       75    19251                            concerning the FORM or TRANSACTION file which the
       76    19252                            error occured in, and the frame and field involved,
       77    19253                            if any.  It's generated by invoking the QCU@USE %MACRO
       78    19254                            within the QCU_USE_M %INCLUDE file (see commentary
       79    19255                            within that file).
       80    19256              INTERFACE:    See QCU$USE_IO commentary.
       81    19257              ENVIRONMENT:  Called for interpreter-detected "external" errors.
       82    19258              INPUT:        QI_1, etc.
       83    19259              OUTPUT:       QI_1, etc.
       84    19260              SCRATCH:      Various otter stuff.
       85    19261              DESCRIPTION:  Called by routines executing statements which may
       86    19262                            have INVALID clauses associated with them, for VERIFY
       87    19263                            errors.  Any appropriate USE procedures are called.
       88    19264                            (Currently, there are no such routines:  JJL, C00).
       89    19265        */
       90    19266
       91    19267    1       IO_OR_VERIFY_INDEX = %QI#VERIFY;

  19267   0 000015  6C01                                 LDV,R6   1
          0 000016  EF47 000E                            STR,R6   IO_OR_VERIFY_INDEX,AUTO

       92    19268
       93    19269    1   NEXT_USE:
       94    19270    1       CALL SET_SPECIAL_REGISTERS;

  19270   0 000018  E3C0 01FF            NEXT_USE        LNJ,B6   s:0,PREL
          0 00001A       0001                            DC       s:19272,PREL

       95    19271
       96    19272    1       GOTO SO_USE_IT_ALREADY;

  19272   0 00001B  0F81 00D6                            B        s:19525,PREL
PL6.E3A0      #001=QCU$USE File=QCU$USE.:E05TSI                                  WED 07/30/97 05:15 Page:27

       97    19273
       98    19274    1   QCU$USE_IO: ENTRY ( QCU@USE );

  19274   0 00001D  D380 0000 0000  xent QCU$USE_IO      LNJ,B5   X6A_AUTO_1
          0 000020       001E 0001                       DC       30,1

       99    19275
      100    19276        /*D*  NAME:         QCU$USE_IO
      101    19277              CALL:         CALL QCU$USE_IO ( QCU@USE );
      102    19278              PARAMETERS:   QCU@USE is a structure which contains information
      103    19279                            concerning the FORM or TRANSACTION file which the
      104    19280                            error occured in, and the frame and field involved,
      105    19281                            if any.  It's generated by invoking the QCU@USE %MACRO
      106    19282                            within the QCU_USE_M %INCLUDE file (see commentary
      107    19283                            within that file).
      108    19284              INTERFACE:    OK:  here's the entry points to this routine, the
      109    19285                            routines which call them, and why they should.
      110    19286
      111    19287                            1)  QCU$USE_IO called by:
      112    19288                                    QBO$OPEN for:
      113    19289                                        FORM file already open
      114    19290                                    QBC$CLOSE for:
      115    19291                                        FORM file already closed
      116    19292                                    QBA$ACTIVATE for:
      117    19293                                        FORM file not open
      118    19294                                    QBE$ENABLE for:
      119    19295                                        FORM file not open
      120    19296                                        FRAME not active
      121    19297                                    QBV$VERI_PRES for:
      122    19298                                        FORM file not open
      123    19299                                        FRAME not active
      124    19300                                    QBI$IF_STATUS for:
      125    19301                                        FORM file not open
      126    19302                                        FRAME not active (for field status checks)
      127    19303                                    QBA$APPLY for:
      128    19304                                        FORM file not open
PL6.E3A0      #001=QCU$USE File=QCU$USE.:E05TSI                                  WED 07/30/97 05:15 Page:28
      129    19305                                        FRAME not active
      130    19306                                        "Bad IO" monitor errors
      131    19307                                    QBC$CLEAR for:
      132    19308                                        FORM file not open
      133    19309                                        FRAME not active
      134    19310                                        "Bad IO" monitor errors
      135    19311                            2)  QCU$USE_VERIFY called by:
      136    19312                                    QBV$VERI_PRES for:
      137    19313                                        RETRY count exhausted
      138    19314                                        (*not currently implemented*)
      139    19315                            3)  QCU$USE_OR_INVALID called by:
      140    19316                                    QCR$READ_TRAN for:
      141    19317                                        TRANSACTION file not open (for input)
      142    19318                                        Illegal transaction type
      143    19319                                        Insufficient privilege for transaction type
      144    19320                                        TPAP abort
      145    19321                                        Lost data
      146    19322                                        "Bad IO" monitor errors
      147    19323                            4)  QCU$USE_OR_INVALID_VERIFY called by:
      148    19324                                        Nobody, currently.
      149    19325
      150    19326              ENVIRONMENT:  Called for interpreter-detected "external" errors.
      151    19327              INPUT:        QI_1, etc.
      152    19328              OUTPUT:       QI_1, etc.
      153    19329              SCRATCH:      Various otter stuff.
      154    19330              DESCRIPTION:  Called by routines executing statements which cannot
      155    19331                            have INVALID clauses associated with them, for IO
      156    19332                            errors.  Any appropriate USE procedures are called.
      157    19333        */
      158    19334
      159    19335    1       IO_OR_VERIFY_INDEX = %QI#STANDARD;

  19335   0 000022  8747 000E                            CL       IO_OR_VERIFY_INDEX,AUTO

      160    19336
      161    19337    1       GOTO INVALID_FIRST;

PL6.E3A0      #001=QCU$USE File=QCU$USE.:E05TSI                                  WED 07/30/97 05:15 Page:29
  19337   0 000024  0F81 0009                            B        s:19364,PREL

      162    19338
      163    19339    1   QCU$USE_VERIFY: ENTRY ( QCU@USE );

  19339   0 000026  D380 0000 0000  xent QCU$USE_VERIFY  LNJ,B5   X6A_AUTO_1
          0 000029       001E 0001                       DC       30,1

      164    19340
      165    19341        /*D*  NAME:         QCU$USE_VERIFY
      166    19342              CALL:         CALL QCU$USE_VERIFY ( QCU@USE );
      167    19343              PARAMETERS:   QCU@USE is a structure which contains information
      168    19344                            concerning the FORM or TRANSACTION file which the
      169    19345                            error occured in, and the frame and field involved,
      170    19346                            if any.  It's generated by invoking the QCU@USE %MACRO
      171    19347                            within the QCU_USE_M %INCLUDE file (see commentary
      172    19348                            within that file).
      173    19349              INTERFACE:    See QCU$USE_IO commentary.
      174    19350              ENVIRONMENT:  Called for interpreter-detected "external" errors.
      175    19351              INPUT:        QI_1, etc.
      176    19352              OUTPUT:       QI_1, etc.
      177    19353              SCRATCH:      Various otter stuff.
      178    19354              DESCRIPTION:  Called by routines executing statements which cannot
      179    19355                            have INVALID clauses associated with them, for VERIFY
      180    19356                            errors.  Any appropriate USE procedures are called.
      181    19357        */
      182    19358
      183    19359    1       IO_OR_VERIFY_INDEX = %QI#VERIFY;

  19359   0 00002B  6C01                                 LDV,R6   1
          0 00002C  EF47 000E                            STR,R6   IO_OR_VERIFY_INDEX,AUTO

      184    19360
      185    19361    1   INVALID_FIRST:
      186    19362            %IF QI#DEBUG;
      187    19363
      188    19364    1       IF QI_1.INSTR$ = QI_1.CURR_INSTR$
PL6.E3A0      #001=QCU$USE File=QCU$USE.:E05TSI                                  WED 07/30/97 05:15 Page:30

  19364   0 00002E  EC80 0000 0006  xsym INVALID_FIRST   LDB,B6   QI_1+6
          0 000031  ED80 0000 0008  xsym                 CMB,B6   QI_1+8
          0 000034  0981 000A                            BNE      s:19370,PREL

      189    19365    1       THEN
      190    19366    1         CALL QCE$ERROR_INTERNAL ( %E$INTERNAL_INTERPRETER_ERROR );

  19366   0 000036  BB80 0000 0001  01                   LAB,B3   +1
          0 000039  CBF0 0100                            LAB,B4   256,IMO
          0 00003B  E380 0000 0000  xent                 LNJ,B6   QCE$ERROR_INTERNAL
          0 00003E       0001                            DC       s:19370,PREL

      191    19367
      192    19368            %ENDIF;
      193    19369
      194    19370    1       CALL SET_SPECIAL_REGISTERS;

  19370   0 00003F  E3C0 01D8                            LNJ,B6   s:0,PREL
          0 000041       0001                            DC       s:19372,PREL

      195    19371
      196    19372    1       IF QI_1.INSTR$ -> QI$OP_SEQUENCE.CODE = %QI#OP_JAZ

  19372   0 000042  EC80 0000 0006  xsym                 LDB,B6   QI_1+6
          0 000045  E806                                 LDR,R6   ,B6
          0 000046  6D5B                                 CMV,R6   91
          0 000047  0981 00AA                            BNE      s:19525,PREL

      197    19373    1       THEN
      198    19374    1   GOTTA_INVALID_CLAUSE:
      199    19375    2         DO;

  19375   0                              GOTTA_INVALID_C*null
      200    19376    2           IF QI_1.CURRENT.FILE$ ~= ADDR (NIL)

  19376   0 000049  8D80 0000 0076  xsym GOTTA_INVALID_C*CMN      QI_1+118
PL6.E3A0      #001=QCU$USE File=QCU$USE.:E05TSI                                  WED 07/30/97 05:15 Page:31
          0 00004C  0901 009A                            BE       s:19516,PREL

      201    19377    2           THEN
      202    19378    2   GOTTA_OK_FILE$:
      203    19379    3             DO;

  19379   0                              GOTTA_OK_FILE$  null
      204    19380                    %IF QI#DEBUG;
      205    19381
      206    19382    3               IF QI_1.CURRENT.FILE_STATUS$ = ADDR (NIL)

  19382   0 00004E  8D80 0000 0078  xsym GOTTA_OK_FILE$  CMN      QI_1+120
          0 000051  0981 000A                            BNE      s:19388,PREL

      207    19383    3               THEN
      208    19384    3                 CALL QCE$ERROR_INTERNAL ( %E$INTERNAL_INTERPRETER_ERROR );

  19384   0 000053  BB80 0000 0001  01                   LAB,B3   +1
          0 000056  CBF0 0100                            LAB,B4   256,IMO
          0 000058  E380 0000 0000  xent                 LNJ,B6   QCE$ERROR_INTERNAL
          0 00005B       0001                            DC       s:19388,PREL

      209    19385
      210    19386                    %ENDIF;
      211    19387
      212    19388    3               IF QI_1.CURRENT.FILE_STATUS$ -> QI$FILE_STATUS.INDICATORS.OPEN_VALUE ~=
             19388                        0

  19388   0 00005C  EC80 0000 0078  xsym                 LDB,B6   QI_1+120
          0 00005F  82C6 0008                            LB,'0600'X        8,B6
          0 000061       0600
          0 000062  0581 0084                            BBF      s:19516,PREL

      213    19389    3               THEN
      214    19390    3   GOTTA_OPEN_FILE:
      215    19391    4                 DO;

PL6.E3A0      #001=QCU$USE File=QCU$USE.:E05TSI                                  WED 07/30/97 05:15 Page:32
  19391   0                              GOTTA_OPEN_FILE null
      216    19392    4                   IF QI_1.CURRENT.FILE$ -> QI$FILE.WORD0_FLAGS.TYPE = %QI#TYPE_FORM

  19392   0 000064  DC80 0000 0076  xsym GOTTA_OPEN_FILE LDB,B5   QI_1+118
          0 000067  E805                                 LDR,R6   ,B5
          0 000068  E570 000F                            AND,R6   15,IMO
          0 00006A  6D0B                                 CMV,R6   11
          0 00006B  0981 007B                            BNE      s:19516,PREL
          0 00006D  CCC7 0004                            LDB,B4   @QCU@USE,AUTO
          0 00006F  89C4 0005                            CMZ      5,B4
          0 000071  0881 0075                            BAGE     s:19516,PREL

      217    19393    4                     AND QCU@USE.IS_TIME_TO_SAVE_AWAY_FIELDS
      218    19394    4                   THEN
      219    19395    4   GOTTA_START_INDEX:
      220    19396    5                     DO;

  19396   0                              GOTTA_START_IND*null
      221    19397
      222    19398    5   RESET_THEM_FRAMES:
      223    19399    5                       DO FRAME_INDEX =
      224    19400    6                         QCU@USE.FRAME_START_INDEX TO QCU@USE.FRAME_STOP_INDEX;

  19400   0 000073  D844 0006            RESET_THEM_FRAM*LDR,R5   6,B4
          0 000075  DF47 0009                            STR,R5   FRAME_INDEX,AUTO
          0 000077  0F81 0067                            B        s:19508+2,PREL

      225    19401
      226    19402                              %PROC_ADDRESS ( THING@P =
             19402                        "QI_1.CURRENT.FORM$ -> QI$FORM_FILE.FRAME_LIST_A@P ( FRAME_INDEX )"
             19402                                  ,
      227    19403                              CHECK_FOR_INDIRECTION = NO,
      228    19404                              RESULT$ = FRAME$ );

  19422   0 000079  EC80 0000 0076  xsym                 LDB,B6   QI_1+118
          0 00007C  B847 0009                            LDR,R3   FRAME_INDEX,AUTO
          0 00007E  3E0B                                 ADV,R3   11
PL6.E3A0      #001=QCU$USE File=QCU$USE.:E05TSI                                  WED 07/30/97 05:15 Page:33
          0 00007F  A836                                 LDR,R2   ,B6,R3
          0 000080  F852                                 LDR,R7   R2
          0 000081  6C00                                 LDV,R6   0
          0 000082  8400 0000 0002  xsym                 AID      QI_1+2
          0 000085  8D47 0007                            SDI      FRAME$,AUTO

      229    19441
      230    19442                              %DATA_ADDRESS ( THING@D = "FRAME$ -> QI$FRAME.STATUS_AREA@D",
      231    19443                              CHECK_FOR_INDIRECTION = NO,
      232    19444                              RESULT$ = FRAME_STATUS$ );

  19462   0 000087  DCC7 0007                            LDB,B5   FRAME$,AUTO
          0 000089  9845 0006                            LDR,R1   6,B5
          0 00008B  F851                                 LDR,R7   R1
          0 00008C  6C00                                 LDV,R6   0
          0 00008D  8400 0000 0000  xsym                 AID      QI_1
          0 000090  8D47 000A                            SDI      FRAME_STATUS$,AUTO

      233    19481
      234    19482    6                         IF QCU@USE.IS_FIELD_INDEXES_VALID

  19482   0 000092  CCC7 0004                            LDB,B4   @QCU@USE,AUTO
          0 000094  89C4 0008                            CMZ      8,B4
          0 000096  0881 000A                            BAGE     s:19489,PREL

      235    19483    6                         THEN
      236    19484    7                           DO;

      237    19485    7                             QCU@USE.FIELD_START_INDEX = FRAME_STATUS$ ->
             19485                                      QI$FRAME_STATUS.GZ.FIELD_START_INDEX;

  19485   0 000098  BCC7 000A                            LDB,B3   FRAME_STATUS$,AUTO
          0 00009A  D803                                 LDR,R5   ,B3
          0 00009B  DF44 0009                            STR,R5   9,B4

      238    19486    7                             QCU@USE.FIELD_STOP_INDEX = FRAME_STATUS$ ->
             19486                                      QI$FRAME_STATUS.GZ.FIELD_STOP_INDEX;
PL6.E3A0      #001=QCU$USE File=QCU$USE.:E05TSI                                  WED 07/30/97 05:15 Page:34

  19486   0 00009D  C843 0001                            LDR,R4   1,B3
          0 00009F  CF44 000A                            STR,R4   10,B4

      239    19487    7                           END;

      240    19488
      241    19489    6                         GZ_FIELD$ = PINCRW ( FRAME_STATUS$ -> QI$FRAME_STATUS.GZ.
             19489                                  START$,

  19489   0 0000A1  B844 0009                            LDR,R3   9,B4
          0 0000A3  ECC7 000A                            LDB,B6   FRAME_STATUS$,AUTO
          0 0000A5  BCC6 0006                            LDB,B3   6,B6
          0 0000A7  BFC7 001C                            STB,B3   OTTER_DOUBLE+2,AUTO
          0 0000A9  F853                                 LDR,R7   R3
          0 0000AA  6C00                                 LDV,R6   0
          0 0000AB  9B80 0000 0003  01                   LAB,B1   +3
          0 0000AE  D380 0000 0000  xent                 LNJ,B5   X6D_MID
          0 0000B1  8447 001C                            AID      OTTER_DOUBLE+2,AUTO
          0 0000B3  8D47 000C                            SDI      GZ_FIELD$,AUTO

      242    19490    6                           QCU@USE.FIELD_START_INDEX * LENGTHW (QI$GZ_FIELD) );
      243    19491
      244    19492    6   RESET_THEM_FIELDS:
      245    19493    6                         DO FIELD_INDEX =
      246    19494    7                           QCU@USE.FIELD_START_INDEX TO QCU@USE.FIELD_STOP_INDEX;

  19494   0 0000B5  ECC7 0004            RESET_THEM_FIEL*LDB,B6   @QCU@USE,AUTO
          0 0000B7  D846 0009                            LDR,R5   9,B6
          0 0000B9  DF47 0006                            STR,R5   FIELD_INDEX,AUTO
          0 0000BB  0F81 001A                            B        s:19506+2,PREL

      247    19495
      248    19496    7                           IF GZ_FIELD$ -> QI$GZ_FIELD.OPERATION.IS_DONE = %YES

  19496   0 0000BD  ECC7 000C                            LDB,B6   GZ_FIELD$,AUTO
          0 0000BF  82C6 000B                            LB,'2000'X        11,B6
PL6.E3A0      #001=QCU$USE File=QCU$USE.:E05TSI                                  WED 07/30/97 05:15 Page:35
          0 0000C1       2000
          0 0000C2  0581 0004                            BBF      s:19500,PREL

      249    19497    7                           THEN
      250    19498    7                             GZ_FIELD$ -> QI$GZ_FIELD.INDICATORS$ -> QI$INDICATORS.
             19498                                      STATE_VALUE = %QI#STATE_NULL;

  19498   0 0000C4  DC86                                 LDB,B5   ,B6
          0 0000C5  8805                                 LBF,'1800'X       ,B5
          0 0000C6       1800

      251    19499
      252    19500    7                           GZ_FIELD$ -> QI$GZ_FIELD.OPERATION.IS_OPERATE = %NO;

  19500   0 0000C7  8846 000B                            LBF,'8000'X       11,B6
  19500   0 0000C9       8000

      253    19501    7                           GZ_FIELD$ -> QI$GZ_FIELD.OPERATION.IS_DONE = %NO;

  19501   0 0000CA  8846 000B                            LBF,'2000'X       11,B6
  19501   0 0000CC       2000

      254    19502    7                           GZ_FIELD$ -> QI$GZ_FIELD.FPL_ERROR = %NO;

  19502   0 0000CD  8846 000B                            LBF,'1000'X       11,B6
  19502   0 0000CF       1000

      255    19503
      256    19504    7                           GZ_FIELD$ = PINCRW (GZ_FIELD$, LENGTHW (QI$GZ_FIELD));

  19504   0 0000D0  DBC6 000C                            LAB,B5   12,B6
          0 0000D2  DFC7 000C                            STB,B5   GZ_FIELD$,AUTO

      257    19505
      258    19506    7                         END RESET_THEM_FIELDS;

  19506   0 0000D4  8AC7 0006                            INC      FIELD_INDEX,AUTO
PL6.E3A0      #001=QCU$USE File=QCU$USE.:E05TSI                                  WED 07/30/97 05:15 Page:36
          0 0000D6  ECC7 0004                            LDB,B6   @QCU@USE,AUTO
          0 0000D8  E847 0006                            LDR,R6   FIELD_INDEX,AUTO
          0 0000DA  E946 000A                            CMR,R6   10,B6
          0 0000DC  03E1                                 BLE      s:19496,SPREL

      259    19507
      260    19508    6                       END RESET_THEM_FRAMES;

  19508   0 0000DD  8AC7 0009                            INC      FRAME_INDEX,AUTO
          0 0000DF  ECC7 0004                            LDB,B6   @QCU@USE,AUTO
          0 0000E1  E847 0009                            LDR,R6   FRAME_INDEX,AUTO
          0 0000E3  E946 0007                            CMR,R6   7,B6
          0 0000E5  0381 FF93                            BLE      s:19422,PREL

      261    19509
      262    19510    5                     END GOTTA_START_INDEX;

      263    19511
      264    19512    4                 END GOTTA_OPEN_FILE;

      265    19513
      266    19514    3             END GOTTA_OK_FILE$;

      267    19515
      268    19516    2           QI_1.A_REG = 1;

  19516   0 0000E7  6C01                                 LDV,R6   1
          0 0000E8  EF00 0000 0054  xsym                 STR,R6   QI_1+84

      269    19517
      270    19518    2           QCU@USE.STATUS = %QI#USE_INVALID_RETURN;

  19518   0 0000EB  ECC7 0004                            LDB,B6   @QCU@USE,AUTO
          0 0000ED  8746 000D                            CL       13,B6

      271    19519
      272    19520    2           RETURN;
PL6.E3A0      #001=QCU$USE File=QCU$USE.:E05TSI                                  WED 07/30/97 05:15 Page:37

  19520   0 0000EF  C380 0000 0000  xent                 LNJ,B4   X6A_ARET

      273    19521
      274    19522    2         END GOTTA_INVALID_CLAUSE;
      275    19523
      276    19524    1   SO_USE_IT_ALREADY:
      277    19525    1       IF QI_1.CURRENT.FORM$ = ADDR (NIL)

  19525   0 0000F2  8D80 0000 0076  xsym SO_USE_IT_ALREA*CMN      QI_1+118
          0 0000F5  0981 000C                            BNE      s:19530,PREL

      278    19526    1       THEN
      279    19527    1         CALL QCE$ERROR ( QI_1.ERROR_STATUS );

  19527   0 0000F7  BB80 0000 0005  01                   LAB,B3   +5
          0 0000FA  CBF0 0100                            LAB,B4   256,IMO
          0 0000FC  E380 0000 0000  xent                 LNJ,B6   QCE$ERROR
          0 0000FF       0001                            DC       s:19527+9,PREL
          0 000100  0F81 0011                            B        s:19547,PREL

      280    19528    1       ELSE
      281    19529    2         DO;

      282    19530    2           IF NOT QI_1.CURRENT.FORM$ -> QI$FORM_FILE.WORD0_FLAGS.IS_ERROR_STATUS_VALID

  19530   0 000102  EC80 0000 0076  xsym                 LDB,B6   QI_1+118
          0 000105  8286                                 LB,'4000'X        ,B6
          0 000106       4000
          0 000107  0501 000A                            BBT      s:19547,PREL

      283    19531    2           THEN
      284    19532    2             CALL QCE$ERROR ( QI_1.ERROR_STATUS );

  19532   0 000109  BB80 0000 0005  01                   LAB,B3   +5
          0 00010C  CBF0 0100                            LAB,B4   256,IMO
          0 00010E  E380 0000 0000  xent                 LNJ,B6   QCE$ERROR
PL6.E3A0      #001=QCU$USE File=QCU$USE.:E05TSI                                  WED 07/30/97 05:15 Page:38
          0 000111       0001                            DC       s:19547,PREL

      285    19533    2         END;

      286    19534
      287    19535        /*N*  I sincerely hope that noone ever decides to actually implement
      288    19536              this USE PROCEDURE junk.
      289    19537              Not only is it a pain for the compiler, and not only does it
      290    19538              *permeate* the entire interpreter, but it's basically useless.
      291    19539              Let's say you're a programmer who wants to take control of I-O
      292    19540              errors with USE PROCEDUREs.  How you gonna do it?  You ain't.
      293    19541              You'll just find out you got one, spit out some stupid
      294    19542              STOP "literal" and abort.  Worthless.
      295    19543              For now, we'll do what the B03 commentary says:
      296    19544                  "Fake the existence of an
      297    19545                  INVALID clause."
      298    19546        */
      299    19547    1       IF QI_1.INSTR$ -> QI$OP_SEQUENCE.CODE = %QI#OP_JAZ

  19547   0 000112  EC80 0000 0006  xsym                 LDB,B6   QI_1+6
          0 000115  E806                                 LDR,R6   ,B6
          0 000116  6D5B                                 CMV,R6   91
          0 000117  0981 0005                            BNE      s:19551,PREL

      300    19548    1       THEN
      301    19549    1         QI_1.A_REG = 1;

  19549   0 000119  5C01                                 LDV,R5   1
          0 00011A  DF00 0000 0054  xsym                 STR,R5   QI_1+84

      302    19550
      303    19551    1       QCU@USE.STATUS = %QI#USE_INVALID_RETURN;

  19551   0 00011D  DCC7 0004                            LDB,B5   @QCU@USE,AUTO
          0 00011F  8745 000D                            CL       13,B5

      304    19552
PL6.E3A0      #001=QCU$USE File=QCU$USE.:E05TSI                                  WED 07/30/97 05:15 Page:39
      305    19553    1       IF QCU@USE.STATUS = %QI#USE_INVALID_RETURN

  19553   0 000121  E845 000D                            LDR,R6   13,B5
          0 000123  6981 0004                            BNEZ,R6  s:19557,PREL

      306    19554    1       THEN
      307    19555    1         RETURN;

  19555   0 000125  C380 0000 0000  xent                 LNJ,B4   X6A_ARET

      308    19556
      309    19557    1       IF QI_1.CURRENT.FORM$ ~= ADDR (NIL)

  19557   0 000128  8D80 0000 0076  xsym                 CMN      QI_1+118
          0 00012B  0901 00D3                            BE       s:19656,PREL

      310    19558    1       THEN
      311    19559    1   GOTTA_FORM$_OK:
      312    19560    2         DO;

  19560   0                              GOTTA_FORM$_OK  null
      313    19561                %IF QI#DEBUG;
      314    19562
      315    19563    2           IF QI_1.CURRENT.FORM_STATUS$ = ADDR (NIL)

  19563   0 00012D  8D80 0000 0078  xsym GOTTA_FORM$_OK  CMN      QI_1+120
          0 000130  0981 000A                            BNE      s:19569,PREL

      316    19564    2           THEN
      317    19565    2             CALL QCE$ERROR_INTERNAL ( %E$INTERNAL_INTERPRETER_ERROR );

  19565   0 000132  BB80 0000 0001  01                   LAB,B3   +1
          0 000135  CBF0 0100                            LAB,B4   256,IMO
          0 000137  E380 0000 0000  xent                 LNJ,B6   QCE$ERROR_INTERNAL
          0 00013A       0001                            DC       s:19569,PREL

      318    19566
PL6.E3A0      #001=QCU$USE File=QCU$USE.:E05TSI                                  WED 07/30/97 05:15 Page:40
      319    19567                %ENDIF;
      320    19568
      321    19569    2           IF QI_1.CURRENT.FORM_STATUS$ -> QI$FORM_STATUS.INDICATORS.OPEN_VALUE ~= 0

  19569   0 00013B  EC80 0000 0078  xsym                 LDB,B6   QI_1+120
          0 00013E  82C6 0008                            LB,'0600'X        8,B6
          0 000140       0600
          0 000141  0581 00BD                            BBF      s:19656,PREL

      322    19570    2           THEN
      323    19571    2   GOTTA_FORM_OPEN:
      324    19572    3             DO;

  19572   0                              GOTTA_FORM_OPEN null
      325    19573
      326    19574    3               IF QI_1.CURRENT.FORM$ -> QI$FORM_FILE.USE_PROCEDURE_A@P (
             19574                        IO_OR_VERIFY_INDEX ) > 0

  19574   0 000143  DC80 0000 0076  xsym GOTTA_FORM_OPEN LDB,B5   QI_1+118
          0 000146  B847 000E                            LDR,R3   IO_OR_VERIFY_INDEX,AUTO
          0 000148  3E09                                 ADV,R3   9
          0 000149  E835                                 LDR,R6   ,B5,R3
          0 00014A  6901 0058                            BEZ,R6   s:19609,PREL

      327    19575    3               THEN
      328    19576    3   GOTTA_USE_PROCEDURE:
      329    19577    4                 DO;

  19577   0                              GOTTA_USE_PROCE*null
      330    19578    4                   IF QI_1.CURRENT.FORM_STATUS$ -> QI$FORM_STATUS.CURRENT.
             19578                            IS_USE_PROCEDURE_ACTIVE.STANDARD

  19578   0 00014C  8286                 GOTTA_USE_PROCE*LB,'1000'X        ,B6
  19578   0 00014D       1000
          0 00014E  0581 000E                            BBF      s:19583,PREL
          0 000150  D847 000E                            LDR,R5   IO_OR_VERIFY_INDEX,AUTO
          0 000152  5981 000A                            BNEZ,R5  s:19583,PREL
PL6.E3A0      #001=QCU$USE File=QCU$USE.:E05TSI                                  WED 07/30/97 05:15 Page:41

      331    19579    4                     AND IO_OR_VERIFY_INDEX = %QI#STANDARD
      332    19580    4                   THEN
      333    19581    4                     CALL QCE$ERROR ( QI_1.ERROR_STATUS );

  19581   0 000154  BB80 0000 0005  01                   LAB,B3   +5
          0 000157  CBF0 0100                            LAB,B4   256,IMO
          0 000159  E380 0000 0000  xent                 LNJ,B6   QCE$ERROR
          0 00015C       0001                            DC       s:19583,PREL

      334    19582
      335    19583    4                   IF QI_1.CURRENT.FORM_STATUS$ -> QI$FORM_STATUS.CURRENT.
             19583                            IS_USE_PROCEDURE_ACTIVE.VERIFY

  19583   0 00015D  EC80 0000 0078  xsym                 LDB,B6   QI_1+120
          0 000160  8286                                 LB,'0800'X        ,B6
          0 000161       0800
          0 000162  0581 000F                            BBF      s:19588,PREL
          0 000164  E847 000E                            LDR,R6   IO_OR_VERIFY_INDEX,AUTO
          0 000166  6D01                                 CMV,R6   1
          0 000167  0981 000A                            BNE      s:19588,PREL

      336    19584    4                     AND IO_OR_VERIFY_INDEX = %QI#VERIFY
      337    19585    4                   THEN
      338    19586    4                     CALL QCE$ERROR ( QI_1.ERROR_STATUS );

  19586   0 000169  BB80 0000 0005  01                   LAB,B3   +5
          0 00016C  CBF0 0100                            LAB,B4   256,IMO
          0 00016E  E380 0000 0000  xent                 LNJ,B6   QCE$ERROR
          0 000171       0001                            DC       s:19588,PREL

      339    19587
      340    19588    4                   IF IO_OR_VERIFY_INDEX = %QI#STANDARD

  19588   0 000172  E847 000E                            LDR,R6   IO_OR_VERIFY_INDEX,AUTO
          0 000174  6981 0008                            BNEZ,R6  s:19592,PREL

PL6.E3A0      #001=QCU$USE File=QCU$USE.:E05TSI                                  WED 07/30/97 05:15 Page:42
      341    19589    4                   THEN
      342    19590    4                     QI_1.CURRENT.FORM_STATUS$ -> QI$FORM_STATUS.CURRENT.
             19590                              IS_USE_PROCEDURE_ACTIVE.STANDARD = %YES;

  19590   0 000176  EC80 0000 0078  xsym                 LDB,B6   QI_1+120
          0 000179  8906                                 LBT,'1000'X       ,B6
          0 00017A       1000
          0 00017B  0F81 0006                            B        s:19594,PREL

      343    19591    4                   ELSE
      344    19592    4                     QI_1.CURRENT.FORM_STATUS$ -> QI$FORM_STATUS.CURRENT.
             19592                              IS_USE_PROCEDURE_ACTIVE.VERIFY = %YES;

  19592   0 00017D  EC80 0000 0078  xsym                 LDB,B6   QI_1+120
          0 000180  8906                                 LBT,'0800'X       ,B6
          0 000181       0800

      345    19593
      346    19594    4                   QI_1.USE_PROCEDURE@P = QI_1.CURRENT.FORM$ -> QI$FORM_FILE.
             19594                            USE_PROCEDURE_A@P ( IO_OR_VERIFY_INDEX );

  19594   0 000182  EC80 0000 0076  xsym                 LDB,B6   QI_1+118
          0 000185  B856                                 LDR,R3   R6
          0 000186  3E09                                 ADV,R3   9
          0 000187  D836                                 LDR,R5   ,B6,R3
          0 000188  DF00 0000 0092  xsym                 STR,R5   QI_1+146

      347    19595
      348    19596    4                   CALL QCU$USE_CALL ( QCU@USE );

  19596   0 00018B  BBC7 0004                            LAB,B3   @QCU@USE,AUTO
          0 00018D  CBF0 0100                            LAB,B4   256,IMO
          0 00018F  E380 0000 0000  xent                 LNJ,B6   QCU$USE_CALL
          0 000192       0001                            DC       s:19598,PREL

      349    19597
      350    19598    4                   IF IO_OR_VERIFY_INDEX = %QI#STANDARD
PL6.E3A0      #001=QCU$USE File=QCU$USE.:E05TSI                                  WED 07/30/97 05:15 Page:43

  19598   0 000193  E847 000E                            LDR,R6   IO_OR_VERIFY_INDEX,AUTO
          0 000195  6981 0008                            BNEZ,R6  s:19602,PREL

      351    19599    4                   THEN
      352    19600    4                     QI_1.CURRENT.FORM_STATUS$ -> QI$FORM_STATUS.CURRENT.
             19600                              IS_USE_PROCEDURE_ACTIVE.STANDARD = %NO;

  19600   0 000197  EC80 0000 0078  xsym                 LDB,B6   QI_1+120
          0 00019A  8806                                 LBF,'1000'X       ,B6
          0 00019B       1000
          0 00019C  0F81 0006                            B        s:19609,PREL

      353    19601    4                   ELSE
      354    19602    4                     QI_1.CURRENT.FORM_STATUS$ -> QI$FORM_STATUS.CURRENT.
             19602                              IS_USE_PROCEDURE_ACTIVE.VERIFY = %NO;

  19602   0 00019E  EC80 0000 0078  xsym                 LDB,B6   QI_1+120
          0 0001A1  8806                                 LBF,'0800'X       ,B6
          0 0001A2       0800

      355    19603
      356    19604    4                 END GOTTA_USE_PROCEDURE;

      357    19605
      358    19606        /*
      359    19607            Check if any defaults apply
      360    19608        */
      361    19609    3               IF IO_OR_VERIFY_INDEX = %QI#STANDARD

  19609   0 0001A3  E847 000E                            LDR,R6   IO_OR_VERIFY_INDEX,AUTO
          0 0001A5  6981 0020                            BNEZ,R6  s:19626,PREL

      362    19610    3               THEN
      363    19611    4                 DO;

      364    19612
PL6.E3A0      #001=QCU$USE File=QCU$USE.:E05TSI                                  WED 07/30/97 05:15 Page:44
      365    19613    5                   DO CASE ( QCU@USE.USE_DEFAULT_IO );

  19613   0 0001A7  ECC7 0004                            LDB,B6   @QCU@USE,AUTO
          0 0001A9  B846 0004                            LDR,R3   4,B6
          0 0001AB  3D03                                 CMV,R3   3
          0 0001AC  0281 000E                            BGE      s:19620,PREL
          0 0001AE  A830 0000 01B4  00                   LDR,R2   s:19613+13,R3
          0 0001B1  83A0 0000 01B7  00                   JMP      s:19617,R2
          0 0001B4       0004                            DC       s:19620,PREL
          0 0001B5       0000                            DC       s:19617,PREL
          0 0001B6       0000                            DC       s:19617,PREL

      366    19614
      367    19615    5                     CASE ( %QI#USE_DEFAULT_OUTPUT,

      368    19616    5                     %QI#USE_DEFAULT_INPUT );
      369    19617    5                       USE_PROCEDURE_TYPE_INDEX = QCU@USE.USE_DEFAULT_IO;

  19617   0 0001B7  BF47 000F                            STR,R3   USE_PROCEDURE_TYPE_INDEX,AUTO
          0 0001B9  0F81 000F                            B        s:19628,PREL

      370    19618
      371    19619    5                     CASE ( ELSE );

      372    19620    5                       CALL QCE$ERROR ( QI_1.ERROR_STATUS );

  19620   0 0001BB  BB80 0000 0005  01                   LAB,B3   +5
          0 0001BE  CBF0 0100                            LAB,B4   256,IMO
          0 0001C0  E380 0000 0000  xent                 LNJ,B6   QCE$ERROR
          0 0001C3       0001                            DC       s:19624,PREL

      373    19621
      374    19622    5                   END;

      375    19623
      376    19624    4                 END;

PL6.E3A0      #001=QCU$USE File=QCU$USE.:E05TSI                                  WED 07/30/97 05:15 Page:45
  19624   0 0001C4  0F81 0004                            B        s:19628,PREL

      377    19625    3               ELSE
      378    19626    3                 USE_PROCEDURE_TYPE_INDEX = %QI#USE_DEFAULT_VERIFY;

  19626   0 0001C6  5C03                                 LDV,R5   3
          0 0001C7  DF47 000F                            STR,R5   USE_PROCEDURE_TYPE_INDEX,AUTO

      379    19627
      380    19628    3               IF QI_1.DEFAULT_USE_PROCEDURE_A@P ( USE_PROCEDURE_TYPE_INDEX ) > 0

  19628   0 0001C9  B847 000F                            LDR,R3   USE_PROCEDURE_TYPE_INDEX,AUTO
          0 0001CB  E830 0000 008E  xsym                 LDR,R6   QI_1+142,R3
          0 0001CE  6901 0027                            BEZ,R6   s:19650,PREL

      381    19629    3               THEN
      382    19630    3   GOTTA_DEFAULT_USE_PROCEDURE:
      383    19631    4                 DO;

  19631   0                              GOTTA_DEFAULT_U*null
      384    19632
      385    19633    4                   IF QI_1.IS_DEFAULT_USE_PROC_ACTIVE_A ( USE_PROCEDURE_TYPE_INDEX )

  19633   0 0001D0  82B0 0000 0091  xsym GOTTA_DEFAULT_U*LB       QI_1+145,R3
          0 0001D3  0581 000C                            BBF      s:19639,PREL

      386    19634    4                   THEN
      387    19635    4                     CALL QCE$ERROR ( QI_1.ERROR_STATUS );

  19635   0 0001D5  BB80 0000 0005  01                   LAB,B3   +5
          0 0001D8  CBF0 0100                            LAB,B4   256,IMO
          0 0001DA  E380 0000 0000  xent                 LNJ,B6   QCE$ERROR
          0 0001DD       0001                            DC       s:19635+9,PREL
          0 0001DE  0F81 0020                            B        s:19656,PREL

      388    19636    4                   ELSE
      389    19637    5                     DO;
PL6.E3A0      #001=QCU$USE File=QCU$USE.:E05TSI                                  WED 07/30/97 05:15 Page:46

      390    19638
      391    19639    5                      QI_1.IS_DEFAULT_USE_PROC_ACTIVE_A ( USE_PROCEDURE_TYPE_INDEX ) =
             19639                                %YES;

  19639   0 0001E0  8930 0000 0091  xsym                 LBT      QI_1+145,R3

      392    19640    5                       QI_1.USE_PROCEDURE@P = QI_1.DEFAULT_USE_PROCEDURE_A@P (
             19640                                USE_PROCEDURE_TYPE_INDEX );

  19640   0 0001E3  E830 0000 008E  xsym                 LDR,R6   QI_1+142,R3
          0 0001E6  EF00 0000 0092  xsym                 STR,R6   QI_1+146

      393    19641
      394    19642    5                       CALL QCU$USE_CALL;

  19642   0 0001E9  CBF0 0000                            LAB,B4   0,IMO
          0 0001EB  E380 0000 0000  xent                 LNJ,B6   QCU$USE_CALL
          0 0001EE       0001                            DC       s:19644,PREL

      395    19643
      396    19644    5                      QI_1.IS_DEFAULT_USE_PROC_ACTIVE_A ( USE_PROCEDURE_TYPE_INDEX ) =
             19644                                %NO;

  19644   0 0001EF  B847 000F                            LDR,R3   USE_PROCEDURE_TYPE_INDEX,AUTO
          0 0001F1  8830 0000 0091  xsym                 LBF      QI_1+145,R3

      397    19645
      398    19646    5                     END;

      399    19647
      400    19648    4                 END GOTTA_DEFAULT_USE_PROCEDURE;

  19648   0 0001F4  0F81 000A                            B        s:19656,PREL

      401    19649    3               ELSE
      402    19650    3                 CALL QCE$ERROR ( QI_1.ERROR_STATUS );
PL6.E3A0      #001=QCU$USE File=QCU$USE.:E05TSI                                  WED 07/30/97 05:15 Page:47

  19650   0 0001F6  BB80 0000 0005  01                   LAB,B3   +5
          0 0001F9  CBF0 0100                            LAB,B4   256,IMO
          0 0001FB  E380 0000 0000  xent                 LNJ,B6   QCE$ERROR
          0 0001FE       0001                            DC       s:19656,PREL

      403    19651
      404    19652    3             END GOTTA_FORM_OPEN;

      405    19653
      406    19654    2         END GOTTA_FORM$_OK;

      407    19655
      408    19656    1       IF QI_1.SPECIAL_NAMES.RETRY$ -> QI$UBYTE_A (0) = QI_ZERO

  19656   0 0001FF  EC80 0000 008A  xsym                 LDB,B6   QI_1+138
          0 000202  E286                                 LLH,R6   ,B6
          0 000203  D280 0000 0000  xsym                 LLH,R5   QI_ZERO
          0 000206  E955                                 CMR,R6   R5
          0 000207  0981 0008                            BNE      s:19660,PREL

      409    19657    1       THEN
      410    19658    1         QCU@USE.STATUS = %QI#USE_INVALID_RETRY;

  19658   0 000209  DCC7 0004                            LDB,B5   @QCU@USE,AUTO
          0 00020B  4C01                                 LDV,R4   1
          0 00020C  CF45 000D                            STR,R4   13,B5
          0 00020E  0F81 0006                            B        s:19662,PREL

      411    19659    1       ELSE
      412    19660    1         QCU@USE.STATUS = %QI#USE_INVALID_SKIP_TO_NEXT;

  19660   0 000210  DCC7 0004                            LDB,B5   @QCU@USE,AUTO
          0 000212  4C02                                 LDV,R4   2
          0 000213  CF45 000D                            STR,R4   13,B5

      413    19661
PL6.E3A0      #001=QCU$USE File=QCU$USE.:E05TSI                                  WED 07/30/97 05:15 Page:48
      414    19662    1       RETURN;

  19662   0 000215  C380 0000 0000  xent                 LNJ,B4   X6A_ARET

      415    19663
      416    19664        %EJECT;
PL6.E3A0      #001=QCU$USE File=QCU$USE.:E05TSI                                  WED 07/30/97 05:15 Page:49
      417    19665    1   SET_SPECIAL_REGISTERS: PROC;

  19665   0 000218  EFC7 0010            SET_SPECIAL_REG*STB,B6   USE_PROCEDURE_TYPE_INDEX+1,AUTO

      418    19666
      419    19667    2     DCL CURRENT$ PTR;
      420    19668    2     DCL CURRENT_DATA$ PTR;
      421    19669    2     DCL ERROR_STATUS$ PTR;
      422    19670    2     DCL IDENTIFIER$ PTR;
      423    19671    2     DCL OTTER_DOUBLE UBIN(32) DALIGNED;
      424    19672
      425    19673            %PROC_ADDRESS ( THING@P =
             19673                "QI_1.INITIALIZATION_BLOCK$ -> QI$INITIALIZATION_BLOCK.CURRENT_FORM@P",
      426    19674            CHECK_FOR_INDIRECTION = NO,
      427    19675            RESULT$ = CURRENT$ );

  19693   0 00021A  DC80 0000 000A  xsym                 LDB,B5   QI_1+10
          0 00021D  B845 0005                            LDR,R3   5,B5
          0 00021F  F853                                 LDR,R7   R3
          0 000220  6C00                                 LDV,R6   0
          0 000221  8400 0000 0002  xsym                 AID      QI_1+2
          0 000224  8D47 0012                            SDI      CURRENT$,AUTO

      428    19712
      429    19713            %DATA_ADDRESS ( THING@D = "CURRENT$ -> QI$COBOL_DAD.PSEUDO_CIP.DATA@",
      430    19714            CHECK_FOR_INDIRECTION = NO,
      431    19715            RESULT$ = CURRENT_DATA$ );

  19733   0 000226  CCC7 0012                            LDB,B4   CURRENT$,AUTO
          0 000228  A844 0002                            LDR,R2   2,B4
          0 00022A  F852                                 LDR,R7   R2
          0 00022B  6C00                                 LDV,R6   0
          0 00022C  8400 0000 0000  xsym                 AID      QI_1
          0 00022F  8D47 0014                            SDI      CURRENT_DATA$,AUTO

      432    19752
      433    19753    2       IF QI_1.CURRENT.FORM$ ~= ADDR (NIL)
PL6.E3A0      #001=QCU$USE File=QCU$USE.:E05TSI                                  WED 07/30/97 05:15 Page:50

  19753   0 000231  8D80 0000 0076  xsym                 CMN      QI_1+118
          0 000234  0901 001B                            BE       s:19802,PREL

      434    19754    2       THEN
      435    19755    3         DO;

      436    19756
      437    19757               %PROC_ADDRESS ( THING@P = "QI_1.CURRENT.FORM$ -> QI$FORM_FILE.IDENTIFIER@P",
      438    19758                CHECK_FOR_INDIRECTION = NO,
      439    19759                RESULT$ = IDENTIFIER$ );

  19777   0 000236  BC80 0000 0076  xsym                 LDB,B3   QI_1+118
          0 000239  9843 0007                            LDR,R1   7,B3
          0 00023B  F851                                 LDR,R7   R1
          0 00023C  6C00                                 LDV,R6   0
          0 00023D  8400 0000 0002  xsym                 AID      QI_1+2
          0 000240  8D47 0018                            SDI      IDENTIFIER$,AUTO

      440    19796
      441    19797    3           CURRENT_DATA$ -> QI$IDENTIFIER.TEXT =

  19797   0 000242  ACC7 0018                            LDB,B2   IDENTIFIER$,AUTO
          0 000244  D282                                 LLH,R5   ,B2
          0 000245  C855                                 LDR,R4   R5
          0 000246  9CC7 0014                            LDB,B1   CURRENT_DATA$,AUTO
          0 000248  0021                                 ALR      ;
          0 000249       C002 0000                                ALPHANUM(0,B2,1,R4),;
          0 00024B       5E01 0000                                ALPHANUM(0,B1,,30,FILL)

      442    19798    3             IDENTIFIER$ -> QI$VARIABLE_IDENTIFIER.TEXT;
      443    19799
      444    19800    3         END;

  19800   0 00024D  437F                                 CSYNC    s:19797+10,SPREL
          0 00024E  0F81 0008                            B        s:19824,PREL

PL6.E3A0      #001=QCU$USE File=QCU$USE.:E05TSI                                  WED 07/30/97 05:15 Page:51
      445    19801    2       ELSE
      446    19802    2         CURRENT_DATA$ -> QI$IDENTIFIER.TEXT = ' ';

  19802   0 000250  BCC7 0014                            LDB,B3   CURRENT_DATA$,AUTO
          0 000252  0021                                 ALR      ;
          0 000253       4178 2000                                ALPHANUM('2000'X,IMO,,1),;
          0 000255       5E03 0000                                ALPHANUM(0,B3,,30,FILL)

      447    19803
      448    19804            %PROC_ADDRESS ( THING@P =
             19804                "QI_1.INITIALIZATION_BLOCK$ -> QI$INITIALIZATION_BLOCK.CURRENT_FRAME@P",
      449    19805            CHECK_FOR_INDIRECTION = YES,
      450    19806            RESULT$ = CURRENT$ );

  19824   0 000257  437F                                 CSYNC    s:19802+6,SPREL
          0 000258  EC80 0000 000A  xsym                 LDB,B6   QI_1+10
          0 00025B  9846 0006                            LDR,R1   6,B6
          0 00025D  F851                                 LDR,R7   R1
          0 00025E  6C00                                 LDV,R6   0
          0 00025F  8400 0000 0002  xsym                 AID      QI_1+2
          0 000262  8D47 0012                            SDI      CURRENT$,AUTO

  19826   0 000264  DCC7 0012                            LDB,B5   CURRENT$,AUTO
          0 000266  8985                                 CMZ      ,B5
          0 000267  0881 0019                            BAGE     s:19864,PREL

  19827   0 000269  ECC7 0012                            LDB,B6   CURRENT$,AUTO
          0 00026B  E806                                 LDR,R6   ,B6
          0 00026C  6046                                 SOR,R6   6
          0 00026D  E570 0001                            AND,R6   1,IMO
          0 00026F  B846 0002                            LDR,R3   2,B6
          0 000271  A856                                 LDR,R2   R6
          0 000272  DCA0 0000 0000  xsym                 LDB,B5   QI_1,R2
          0 000275  DFC7 001C                            STB,B5   OTTER_DOUBLE+2,AUTO
          0 000277  F853                                 LDR,R7   R3
          0 000278  6C00                                 LDV,R6   0
          0 000279  8447 001C                            AID      OTTER_DOUBLE+2,AUTO
PL6.E3A0      #001=QCU$USE File=QCU$USE.:E05TSI                                  WED 07/30/97 05:15 Page:52
          0 00027B  8D47 0012                            SDI      CURRENT$,AUTO

  19831   0 00027D  ECC7 0012                            LDB,B6   CURRENT$,AUTO
          0 00027F  8986                                 CMZ      ,B6
          0 000280  0869                                 BAL      s:19827,SPREL

      451    19843
      452    19844            %DATA_ADDRESS ( THING@D = "CURRENT$ -> QI$COBOL_DAD.PSEUDO_CIP.DATA@",
      453    19845            CHECK_FOR_INDIRECTION = NO,
      454    19846            RESULT$ = CURRENT_DATA$ );

  19864   0 000281  ECC7 0012                            LDB,B6   CURRENT$,AUTO
          0 000283  B846 0002                            LDR,R3   2,B6
          0 000285  F853                                 LDR,R7   R3
          0 000286  6C00                                 LDV,R6   0
          0 000287  8400 0000 0000  xsym                 AID      QI_1
          0 00028A  8D47 0014                            SDI      CURRENT_DATA$,AUTO

      455    19883
      456    19884    2       IF QCU@USE.CURR_FRAME$ ~= ADDR (NIL)

  19884   0 00028C  DCC7 0004                            LDB,B5   @QCU@USE,AUTO
          0 00028E  8D85                                 CMN      ,B5
          0 00028F  0901 0019                            BE       s:19933,PREL

      457    19885    2       THEN
      458    19886    3         DO;

      459    19887
      460    19888                %PROC_ADDRESS ( THING@P = "QCU@USE.CURR_FRAME$ -> QI$FRAME.IDENTIFIER@P",
      461    19889                CHECK_FOR_INDIRECTION = NO,
      462    19890                RESULT$ = IDENTIFIER$ );

  19908   0 000291  CC85                                 LDB,B4   ,B5
          0 000292  A844 0007                            LDR,R2   7,B4
          0 000294  F852                                 LDR,R7   R2
          0 000295  6C00                                 LDV,R6   0
PL6.E3A0      #001=QCU$USE File=QCU$USE.:E05TSI                                  WED 07/30/97 05:15 Page:53
          0 000296  8400 0000 0002  xsym                 AID      QI_1+2
          0 000299  8D47 0018                            SDI      IDENTIFIER$,AUTO

      463    19927
      464    19928    3           CURRENT_DATA$ -> QI$IDENTIFIER.TEXT =

  19928   0 00029B  BCC7 0018                            LDB,B3   IDENTIFIER$,AUTO
          0 00029D  D283                                 LLH,R5   ,B3
          0 00029E  C855                                 LDR,R4   R5
          0 00029F  ACC7 0014                            LDB,B2   CURRENT_DATA$,AUTO
          0 0002A1  0021                                 ALR      ;
          0 0002A2       C003 0000                                ALPHANUM(0,B3,1,R4),;
          0 0002A4       5E02 0000                                ALPHANUM(0,B2,,30,FILL)

      465    19929    3             IDENTIFIER$ -> QI$VARIABLE_IDENTIFIER.TEXT;
      466    19930
      467    19931    3         END;

  19931   0 0002A6  437F                                 CSYNC    s:19928+10,SPREL
          0 0002A7  0F81 0008                            B        s:19955,PREL

      468    19932    2       ELSE
      469    19933    2         CURRENT_DATA$ -> QI$IDENTIFIER.TEXT = ' ';

  19933   0 0002A9  CCC7 0014                            LDB,B4   CURRENT_DATA$,AUTO
          0 0002AB  0021                                 ALR      ;
          0 0002AC       4178 2000                                ALPHANUM('2000'X,IMO,,1),;
          0 0002AE       5E04 0000                                ALPHANUM(0,B4,,30,FILL)

      470    19934
      471    19935            %PROC_ADDRESS ( THING@P =
             19935                "QI_1.INITIALIZATION_BLOCK$ -> QI$INITIALIZATION_BLOCK.CURRENT_FIELD@P",
      472    19936            CHECK_FOR_INDIRECTION = NO,
      473    19937            RESULT$ = CURRENT$ );

  19955   0 0002B0  437F                                 CSYNC    s:19933+6,SPREL
          0 0002B1  EC80 0000 000A  xsym                 LDB,B6   QI_1+10
PL6.E3A0      #001=QCU$USE File=QCU$USE.:E05TSI                                  WED 07/30/97 05:15 Page:54
          0 0002B4  A846 0007                            LDR,R2   7,B6
          0 0002B6  F852                                 LDR,R7   R2
          0 0002B7  6C00                                 LDV,R6   0
          0 0002B8  8400 0000 0002  xsym                 AID      QI_1+2
          0 0002BB  8D47 0012                            SDI      CURRENT$,AUTO

      474    19974
      475    19975            %DATA_ADDRESS ( THING@D = "CURRENT$ -> QI$COBOL_DAD.PSEUDO_CIP.DATA@",
      476    19976            CHECK_FOR_INDIRECTION = NO,
      477    19977            RESULT$ = CURRENT_DATA$ );

  19995   0 0002BD  CCC7 0012                            LDB,B4   CURRENT$,AUTO
          0 0002BF  9844 0002                            LDR,R1   2,B4
          0 0002C1  F851                                 LDR,R7   R1
          0 0002C2  6C00                                 LDV,R6   0
          0 0002C3  8400 0000 0000  xsym                 AID      QI_1
          0 0002C6  8D47 0014                            SDI      CURRENT_DATA$,AUTO

      478    20014
      479    20015    2       IF QCU@USE.CURR_NODE$ ~= ADDR (NIL)

  20015   0 0002C8  8DC5 0002                            CMN      2,B5
          0 0002CA  0901 001A                            BE       s:20064,PREL

      480    20016    2       THEN
      481    20017    3         DO;

      482    20018
      483    20019               %PROC_ADDRESS ( THING@P = "QCU@USE.CURR_NODE$ -> QI$FIELD_DAD.IDENTIFIER@P",
      484    20020                CHECK_FOR_INDIRECTION = NO,
      485    20021                RESULT$ = IDENTIFIER$ );

  20039   0 0002CC  BCC5 0002                            LDB,B3   2,B5
          0 0002CE  B843 0007                            LDR,R3   7,B3
          0 0002D0  F853                                 LDR,R7   R3
          0 0002D1  6C00                                 LDV,R6   0
          0 0002D2  8400 0000 0002  xsym                 AID      QI_1+2
PL6.E3A0      #001=QCU$USE File=QCU$USE.:E05TSI                                  WED 07/30/97 05:15 Page:55
          0 0002D5  8D47 0018                            SDI      IDENTIFIER$,AUTO

      486    20058
      487    20059    3           CURRENT_DATA$ -> QI$IDENTIFIER.TEXT =

  20059   0 0002D7  ACC7 0018                            LDB,B2   IDENTIFIER$,AUTO
          0 0002D9  D282                                 LLH,R5   ,B2
          0 0002DA  C855                                 LDR,R4   R5
          0 0002DB  9CC7 0014                            LDB,B1   CURRENT_DATA$,AUTO
          0 0002DD  0021                                 ALR      ;
          0 0002DE       C002 0000                                ALPHANUM(0,B2,1,R4),;
          0 0002E0       5E01 0000                                ALPHANUM(0,B1,,30,FILL)

      488    20060    3             IDENTIFIER$ -> QI$VARIABLE_IDENTIFIER.TEXT;
      489    20061
      490    20062    3         END;

  20062   0 0002E2  437F                                 CSYNC    s:20059+10,SPREL
          0 0002E3  0F81 0008                            B        s:20066,PREL

      491    20063    2       ELSE
      492    20064    2         CURRENT_DATA$ -> QI$IDENTIFIER.TEXT = ' ';

  20064   0 0002E5  BCC7 0014                            LDB,B3   CURRENT_DATA$,AUTO
          0 0002E7  0021                                 ALR      ;
          0 0002E8       4178 2000                                ALPHANUM('2000'X,IMO,,1),;
          0 0002EA       5E03 0000                                ALPHANUM(0,B3,,30,FILL)

      493    20065
      494    20066    2       IF QI_1.CURRENT.FORM$ ~= ADDR (NIL)

  20066   0 0002EC  437F                                 CSYNC    s:20064+6,SPREL
          0 0002ED  8D80 0000 0076  xsym                 CMN      QI_1+118
          0 0002F0  0901 003E                            BE       s:20126,PREL

      495    20067    2       THEN
      496    20068    3         DO;
PL6.E3A0      #001=QCU$USE File=QCU$USE.:E05TSI                                  WED 07/30/97 05:15 Page:56

      497    20069
      498    20070    3           IF QI_1.CURRENT.FORM$ -> QI$FORM_FILE.WORD0_FLAGS.IS_ERROR_STATUS_VALID

  20070   0 0002F2  EC80 0000 0076  xsym                 LDB,B6   QI_1+118
          0 0002F5  8286                                 LB,'4000'X        ,B6
          0 0002F6       4000
          0 0002F7  0581 0037                            BBF      s:20126,PREL

      499    20071    3           THEN
      500    20072    4             DO;

      501    20073
      502    20074                    %DATA_ADDRESS ( THING@D =
             20074                        "QI_1.CURRENT.FORM$ -> QI$FORM_FILE.ERROR_STATUS@D",
      503    20075                    CHECK_FOR_INDIRECTION = NO,
      504    20076                    RESULT$ = ERROR_STATUS$ );

  20094   0 0002F9  B846 0003                            LDR,R3   3,B6
          0 0002FB  F853                                 LDR,R7   R3
          0 0002FC  6C00                                 LDV,R6   0
          0 0002FD  8400 0000 0000  xsym                 AID      QI_1
          0 000300  8D47 0016                            SDI      ERROR_STATUS$,AUTO

      505    20113
      506    20114    4               OTTER_DOUBLE = QI_1.CURR_INSTR$ -> QI$OP_SEQUENCE.CODE * 20000;

  20114   0 000302  CC80 0000 0008  xsym                 LDB,B4   QI_1+8
          0 000305  F804                                 LDR,R7   ,B4
          0 000306  6C00                                 LDV,R6   0
          0 000307  9B80 0000 0007  01                   LAB,B1   +7
          0 00030A  D380 0000 0000  xent                 LNJ,B5   X6D_MID
          0 00030D  8D47 001A                            SDI      OTTER_DOUBLE,AUTO

      507    20115    4               OTTER_DOUBLE = OTTER_DOUBLE

  20115   0 00030F  EC80 0000 0008  xsym                 LDB,B6   QI_1+8
PL6.E3A0      #001=QCU$USE File=QCU$USE.:E05TSI                                  WED 07/30/97 05:15 Page:57
          0 000312  F806                                 LDR,R7   ,B6
          0 000313  6C00                                 LDV,R6   0
          0 000314  9B80 0000 0009  01                   LAB,B1   +9
          0 000317  D380 0000 0000  xent                 LNJ,B5   X6D_MID
          0 00031A  8447 001A                            AID      OTTER_DOUBLE,AUTO
          0 00031C  8D47 001C                            SDI      OTTER_DOUBLE+2,AUTO
          0 00031E  F800 0000 008C  xsym                 LDR,R7   QI_1+140
          0 000321  6C00                                 LDV,R6   0
          0 000322  8447 001C                            AID      OTTER_DOUBLE+2,AUTO
          0 000324  8D47 001A                            SDI      OTTER_DOUBLE,AUTO

      508    20116    4                 + ( QI_1.CURR_INSTR$ -> QI$OP_SEQUENCE.CODE * 80000 )
      509    20117    4                 + QI_1.ERROR_STATUS;
      510    20118
      511    20119    4               CALL BINCHAR ( ERROR_STATUS$ -> QI$ERROR_STATUS.TEXT,

  20119   0 000326  8D47 001C                            SDI      OTTER_DOUBLE+2,AUTO
          0 000328  ECC7 0016                            LDB,B6   ERROR_STATUS$,AUTO
          0 00032A  0027                                 CBD      ;
          0 00032B       0407 001C                                BINARY(OTTER_DOUBLE+2,AUTO,,4),;
          0 00032D       0806 0000                                UNPACKED(0,B6,,8,UNSIGNED)

      512    20120    4                 OTTER_DOUBLE );
      513    20121
      514    20122    4             END;

      515    20123
      516    20124    3         END;

      517    20125
      518    20126    2       RETURN;

  20126   0 00032F  437F                                 CSYNC    s:20119+8,SPREL
          0 000330  ECC7 0010                            LDB,B6   USE_PROCEDURE_TYPE_INDEX+1,AUTO
          0 000332  C3C6 0001                            LNJ,B4   1,B6
      519    20127
      520    20128    2   END SET_SPECIAL_REGISTERS;
PL6.E3A0      #001=QCU$USE File=QCU$USE.:E05TSI                                  WED 07/30/97 05:15 Page:58
      521    20129
      522    20130    1   END QCU$USE;
      523    20131        %EOD;

PL6.E3A0      #001=QCU$USE File=QCU$USE.:E05TSI                                  WED 07/30/97 05:15 Page:59
--  Include file information  --

   QCU_USE_M.:E05TOU  is referenced.
   QI_MACROS_M.:E05TOU  is referenced.
   QI_PERR_C.:E05TOU  is referenced.
   QI_EQUATES_E.:E05TOU  is referenced.
   QG_MACRO_M.:E05TOU  is referenced.
   LCP_6.:E05TOU  cannot be made into a system file and is referenced.
   G_LCP6_E.:E05TOU  was found in the system file and is referenced.
   GT_LCP6_M.:E05TOU  was found in the system file and is referenced.
   KI_CP6.:E05TOU  was found in the system file and is referenced.
   GF_LCP6_M.:E05TOU  was found in the system file and is referenced.
   GM_LCP6_M.:E05TOU  was found in the system file and is referenced.
   GU_LCP6_M.:E05TOU  was found in the system file and is referenced.
   GJ_LCP6_M.:E05TOU  was found in the system file and is referenced.
   GH_LCP6_M.:E05TOU  was found in the system file and is referenced.
      No diagnostics issued in procedure QCU$USE.
PL6.E3A0      #001=QCU$USE File=QCU$USE.:E05TSI                                  WED 07/30/97 05:15 Page:60

 **** Variables and constants ****

  ****  Auto variables  ****

  ****  Scalars and arrays  ****
HexLoc.c.b A Datatyp(siz) R M Lvl/name                 HexLoc.c.b A Datatyp(siz) R M Lvl/name

     4-0-0/w PTR         r     1 @QCU@USE                  12-0-0/w PTR         r     1 CURRENT$
    14-0-0/w PTR         r     1 CURRENT_DATA$             16-0-0/w PTR         r     1 ERROR_STATUS$
     6-0-0/w UBIN(16)    r     1 FIELD_INDEX                7-0-0/w PTR         r     1 FRAME$
     9-0-0/w UBIN(16)    r     1 FRAME_INDEX                A-0-0/w PTR         r     1 FRAME_STATUS$
     C-0-0/w PTR         r     1 GZ_FIELD$                 18-0-0/w PTR         r     1 IDENTIFIER$
     E-0-0/w UBIN(16)    r     1 IO_OR_VERIFY_INDEX        1A-0-0/d UBIN(32)    r     1 OTTER_DOUBLE
    *0-0-0/w STRC(224)   r     1 QCU@USE
     F-0-0/w UBIN(16)    r     1 USE_PROCEDURE_TYPE_INDEX

  ****  SYMREF variables  ****

  ****  Scalars and arrays  ****
HexLoc.c.b A Datatyp(siz) R M Lvl/name                 HexLoc.c.b A Datatyp(siz) R M Lvl/name

     0-0-0/d STRC(2576)  r     1 QI_1                       0-0-0/w UBIN(8)     r     1 QI_ZERO

  ****  BASED and DCB variables  ****

  ****  Scalars and arrays  ****
HexLoc.c.b A Datatyp(siz) R M Lvl/name                 HexLoc.c.b A Datatyp(siz) R M Lvl/name

     0-0-0/w STRC(192)   r     1 QI$COBOL_DAD               0-0-0/w STRC(48)    r     1 QI$DAD
     0-0-0/c STRC(64)    r     1 QI$ERROR_STATUS            0-0-0/w STRC(384)   r     1 QI$FIELD_DAD
     0-0-0/w STRC(176)   r     1 QI$FILE                    0-0-0/w STRC(144)   r     1 QI$FILE_STATUS
     0-0-0/w STRC(192)   r     1 QI$FORM_FILE               0-0-0/w STRC(144)   r     1 QI$FORM_STATUS
     0-0-0/w STRC(128)   r     1 QI$FRAME                   0-0-0/w STRC(208)   r     1 QI$FRAME_STATUS
     0-0-0/w STRC(184)   r     1 QI$GZ_FIELD                0-0-0/c STRC(240)   r     1 QI$IDENTIFIER
     0-0-0/w STRC(16)    r     1 QI$INDICATORS
     0-0-0/w STRC(336)   r     1 QI$INITIALIZATION_BLOCK
     0-0-0/w STRC(32)    r     1 QI$OP_SEQUENCE
PL6.E3A0      #001=QCU$USE File=QCU$USE.:E05TSI                                  WED 07/30/97 05:15 Page:61
     0-0-0/c UBIN(8)     r     1 QI$UBYTE_A(0:0)
     0-0-0/c ASTR(8)     r     1 QI$VARIABLE_IDENTIFIER


   Procedure QCU$USE requires 820 words for executable code.
   Procedure QCU$USE requires 30 words of local(AUTO) storage.
PL6.E3A0      #001=QCU$USE File=QCU$USE.:E05TSI                                  WED 07/30/97 05:15 Page:62
          *** CROSS REFERENCE LISTING ***
**     DENOTES     IDENTIFIER DEFINITION
<<                 IDENTIFIER'S VALUE SET
>>                 IDENTIFIER'S VALUE USED
<>                 IDENTIFIER SET AND/OR USED
--                 IDENTIFIER REFERENCED
PL6.E3A0      #001=QCU$USE File=QCU$USE.:E05TSI                                  WED 07/30/97 05:15 Page:63
          MINI XREF LISTING

CURRENT$ IN PROCEDURE SET_SPECIAL_REGISTERS
     19667**DCL     19693<<ASSIGN  19733>>ASSIGN  19824<<ASSIGN  19826>>DOWHILE 19827<<ASSIGN  19827>>ASSIGN
     19827>>ASSIGN  19864>>ASSIGN  19955<<ASSIGN  19995>>ASSIGN
CURRENT_DATA$ IN PROCEDURE SET_SPECIAL_REGISTERS
     19668**DCL     19733<<ASSIGN  19797>>ASSIGN  19802>>ASSIGN  19864<<ASSIGN  19928>>ASSIGN  19933>>ASSIGN
     19995<<ASSIGN  20059>>ASSIGN  20064>>ASSIGN
ERROR_STATUS$ IN PROCEDURE SET_SPECIAL_REGISTERS
     19669**DCL     20094<<ASSIGN  20119>>CALLBLT
FIELD_INDEX
     19092**DCL     19494<<DOINDEX
FRAME$
     19093**DCL     19422<<ASSIGN  19462>>ASSIGN
FRAME_INDEX
     19094**DCL     19400<<DOINDEX 19422>>ASSIGN
FRAME_STATUS$
     19095**DCL     19462<<ASSIGN  19485>>ASSIGN  19486>>ASSIGN  19489>>ASSIGN
GZ_FIELD$
     19096**DCL     19489<<ASSIGN  19496>>IF      19498>>ASSIGN  19500>>ASSIGN  19501>>ASSIGN  19502>>ASSIGN
     19504<<ASSIGN  19504>>ASSIGN
IDENTIFIER$ IN PROCEDURE SET_SPECIAL_REGISTERS
     19670**DCL     19777<<ASSIGN  19797>>ASSIGN  19797>>ASSIGN  19908<<ASSIGN  19928>>ASSIGN  19928>>ASSIGN
     20039<<ASSIGN  20059>>ASSIGN  20059>>ASSIGN
INVALID_FIRST
     19364**LABEL   19337--GOTO
IO_OR_VERIFY_INDEX
     19097**DCL     19243<<ASSIGN  19267<<ASSIGN  19335<<ASSIGN  19359<<ASSIGN  19574>>IF      19578>>IF
     19583>>IF      19588>>IF      19594>>ASSIGN  19598>>IF      19609>>IF
NEXT_USE
     19270**LABEL   19244--GOTO
OTTER_DOUBLE IN PROCEDURE SET_SPECIAL_REGISTERS
     19671**DCL     20114<<ASSIGN  20115<<ASSIGN  20115>>ASSIGN  20119>>CALLBLT
QCE$ERROR
PL6.E3A0      #001=QCU$USE File=QCU$USE.:E05TSI                                  WED 07/30/97 05:15 Page:64
     19100**DCL-ENT 19527--CALL    19532--CALL    19581--CALL    19586--CALL    19620--CALL    19635--CALL
     19650--CALL
QCE$ERROR_INTERNAL
     19101**DCL-ENT 19366--CALL    19384--CALL    19565--CALL
QCU$USE_CALL
     19102**DCL-ENT 19596--CALL    19642--CALL
QCU@USE
     19175**DCL        17--PROC    19223--ENTRY   19246--ENTRY   19274--ENTRY   19339--ENTRY   19596<>CALL
QCU@USE.CURR_FRAME$
     19176**DCL     19884>>IF      19908>>ASSIGN
QCU@USE.CURR_NODE$
     19178**DCL     20015>>IF      20039>>ASSIGN
QCU@USE.FIELD_START_INDEX
     19198**DCL     19485<<ASSIGN  19489>>ASSIGN  19494>>DOINDEX
QCU@USE.FIELD_STOP_INDEX
     19201**DCL     19486<<ASSIGN  19494>>DOINDEX
QCU@USE.FRAME_START_INDEX
     19189**DCL     19400>>DOINDEX
QCU@USE.FRAME_STOP_INDEX
     19192**DCL     19400>>DOINDEX
QCU@USE.IS_FIELD_INDEXES_VALID
     19195**DCL     19482>>IF
QCU@USE.IS_TIME_TO_SAVE_AWAY_FIELDS
     19183**DCL     19392>>IF
QCU@USE.STATUS
     19209**DCL     19518<<ASSIGN  19551<<ASSIGN  19553>>IF      19658<<ASSIGN  19660<<ASSIGN
QCU@USE.USE_DEFAULT_IO
     19180**DCL     19613>>DOCASE  19617>>ASSIGN
QGB_PARAM.DVE.DVBYTE.VFC
     11530**DCL     11531--REDEF
QGB_PARAM.DVE.EOMCHAR
     11542**DCL     11543--REDEF
QGB_PARAM.MSG$
     11524**DCL     11525--REDEF
QGB_PARAM.UHDR$
     11549**DCL     11550--REDEF
PL6.E3A0      #001=QCU$USE File=QCU$USE.:E05TSI                                  WED 07/30/97 05:15 Page:65
QI$ACTIVATION_STATUS
      9288**DCL      9294--REDEF
QI$CIP
      8129**DCL      8199--REDEF
QI$CIP.CA
      8134**DCL      8138--REDEF    8141--REDEF    8144--REDEF
QI$COBOL_DAD.PSEUDO_CIP
      8373**DCL      8398--REDEF
QI$COBOL_DAD.PSEUDO_CIP.ALPHANUMERIC
      8375**DCL      8380--REDEF
QI$COBOL_DAD.PSEUDO_CIP.DATA@
      8397**DCL     19733>>ASSIGN  19864>>ASSIGN  19995>>ASSIGN
QI$COBOL_DAD.PSEUDO_CIP.NUMERIC.CB
      8381**DCL      8384--REDEF    8387--REDEF
QI$COBOL_DAD.VARIABLE_LENGTH_ITEMS
      8409**DCL      8425--REDEF    8433--REDEF    8441--REDEF
QI$COBOL_DAD.VARIABLE_LENGTH_ITEMS.LEVEL_MULTIPLIERS
      8410**DCL      8420--REDEF    8423--REDEF
QI$COBOL_DAD.WORD0
      8337**DCL      8338--REDEF    8352--REDEF
QI$COBOL_DAD_P_BITS.P
      8477**DCL      8483--REDEF
QI$CONDITION_CONTROL_BLOCK.LIST_A@P
      7963**DCL      7964--REDEF
QI$CONDITION_CONTROL_BLOCK.WORD0_FLAGS
      7959**DCL      7962--REDEF
QI$CONDITION_LEGAL_BLOCK.ARRAY@P
      7996**DCL      7997--REDEF    7998--REDEF
QI$DAD.PSEUDO_CIP
      8276**DCL      8301--REDEF
QI$DAD.PSEUDO_CIP.ALPHANUMERIC
      8278**DCL      8283--REDEF
QI$DAD.PSEUDO_CIP.DATA@
      8300**DCL     19827>>ASSIGN
QI$DAD.PSEUDO_CIP.NUMERIC.CB
      8284**DCL      8287--REDEF    8290--REDEF
PL6.E3A0      #001=QCU$USE File=QCU$USE.:E05TSI                                  WED 07/30/97 05:15 Page:66
QI$DAD.WORD0
      8245**DCL      8246--REDEF
QI$DAD.WORD0_FLAGS.INDIRECT
      8247**DCL     19826>>DOWHILE
QI$DAD.WORD0_FLAGS.IS_CONSTANT
      8252**DCL     19827>>ASSIGN
QI$ERROR_MESSAGE_LINE
     11637**DCL     11639--REDEF
QI$ERROR_STATUS
     11634**DCL     11636--REDEF
QI$ERROR_STATUS.TEXT
     11635**DCL     20119<<CALLBLT
QI$FIELD_DAD.ELEMENTARY_ITEM.P
      8691**DCL      8698--REDEF
QI$FIELD_DAD.IDENTIFIER@P
      8662**DCL     20039>>ASSIGN
QI$FIELD_DAD.ONE_DIMENSIONAL_ITEM.P
      8711**DCL      8718--REDEF
QI$FIELD_DAD.PSEUDO_CIP
      8618**DCL      8643--REDEF
QI$FIELD_DAD.PSEUDO_CIP.ALPHANUMERIC
      8620**DCL      8625--REDEF
QI$FIELD_DAD.PSEUDO_CIP.NUMERIC.CB
      8626**DCL      8629--REDEF    8632--REDEF
QI$FIELD_DAD.TWO_DIMENSIONAL_ITEM.P
      8731**DCL      8738--REDEF
QI$FIELD_DAD.VARIABLE_LENGTH_ITEMS
      8674**DCL      8690--REDEF    8708--REDEF    8726--REDEF
QI$FIELD_DAD.VARIABLE_LENGTH_ITEMS.LEVEL_MULTIPLIERS
      8675**DCL      8685--REDEF    8688--REDEF
QI$FIELD_DAD.WORD0
      8570**DCL      8571--REDEF
QI$FIELD_DAD.WORD0_FLAGS.IO_FLAGS
      8574**DCL      8579--REDEF
QI$FIELD_DAD_P.P
      8772**DCL      8779--REDEF
PL6.E3A0      #001=QCU$USE File=QCU$USE.:E05TSI                                  WED 07/30/97 05:15 Page:67
QI$FIELD_STATUS.INDICATORS
      9438**DCL      9470--REDEF
QI$FIELD_STATUS.INDICATORS.ENABLED_FLAGS
      9442**DCL      9447--REDEF
QI$FIELD_STATUS.INDICATORS.OPEN_FLAGS
      9454**DCL      9461--REDEF
QI$FIELD_STATUS.INDICATORS.STATE_FLAGS
      9448**DCL      9453--REDEF
QI$FILE.WORD0
      8894**DCL      8895--REDEF
QI$FILE.WORD0_FLAGS.TYPE
      8903**DCL     19392>>IF
QI$FILE_STATUS.INDICATORS
      9731**DCL      9763--REDEF
QI$FILE_STATUS.INDICATORS.ENABLED_FLAGS
      9735**DCL      9740--REDEF
QI$FILE_STATUS.INDICATORS.OPEN_FLAGS
      9747**DCL      9754--REDEF
QI$FILE_STATUS.INDICATORS.OPEN_VALUE
      9754**DCL     19388>>IF
QI$FILE_STATUS.INDICATORS.STATE_FLAGS
      9741**DCL      9746--REDEF
QI$FORM_FILE.ERROR_STATUS@D
      8978**DCL     20094>>ASSIGN
QI$FORM_FILE.FRAME_LIST_A@P
      9002**DCL     19422>>ASSIGN
QI$FORM_FILE.IDENTIFIER@P
      8989**DCL     19777>>ASSIGN
QI$FORM_FILE.USE_PROCEDURE
      8994**DCL      9001--REDEF
QI$FORM_FILE.USE_PROCEDURE_A@P
      9001**DCL     19574>>IF      19594>>ASSIGN
QI$FORM_FILE.WORD0
      8948**DCL      8949--REDEF
QI$FORM_FILE.WORD0_FLAGS.IS_ERROR_STATUS_VALID
      8953**DCL     19530>>IF      20070>>IF
PL6.E3A0      #001=QCU$USE File=QCU$USE.:E05TSI                                  WED 07/30/97 05:15 Page:68
QI$FORM_STATUS.CURRENT.IS_USE_PROCEDURE_ACTIVE.STANDARD
      9802**DCL     19578>>IF      19590<<ASSIGN  19600<<ASSIGN
QI$FORM_STATUS.CURRENT.IS_USE_PROCEDURE_ACTIVE.VERIFY
      9803**DCL     19583>>IF      19592<<ASSIGN  19602<<ASSIGN
QI$FORM_STATUS.INDICATORS
      9852**DCL      9884--REDEF
QI$FORM_STATUS.INDICATORS.ENABLED_FLAGS
      9856**DCL      9861--REDEF
QI$FORM_STATUS.INDICATORS.OPEN_FLAGS
      9868**DCL      9875--REDEF
QI$FORM_STATUS.INDICATORS.OPEN_VALUE
      9875**DCL     19569>>IF
QI$FORM_STATUS.INDICATORS.STATE_FLAGS
      9862**DCL      9867--REDEF
QI$FRAME.IDENTIFIER@P
      9126**DCL     19908>>ASSIGN
QI$FRAME.STATUS_AREA@D
      9125**DCL     19462>>ASSIGN
QI$FRAME.WORD0
      9109**DCL      9110--REDEF
QI$FRAME_STATUS.GZ.FIELD_START_INDEX
     10034**DCL     19485>>ASSIGN
QI$FRAME_STATUS.GZ.FIELD_STOP_INDEX
     10036**DCL     19486>>ASSIGN
QI$FRAME_STATUS.GZ.START$
     10044**DCL     19489>>ASSIGN
QI$FRAME_STATUS.INDICATORS
     10081**DCL     10113--REDEF
QI$FRAME_STATUS.INDICATORS.ENABLED_FLAGS
     10085**DCL     10090--REDEF
QI$FRAME_STATUS.INDICATORS.OPEN_FLAGS
     10097**DCL     10104--REDEF
QI$FRAME_STATUS.INDICATORS.STATE_FLAGS
     10091**DCL     10096--REDEF
QI$GZ_FIELD
     16960**DCL     19489--ASSIGN  19504--ASSIGN
PL6.E3A0      #001=QCU$USE File=QCU$USE.:E05TSI                                  WED 07/30/97 05:15 Page:69
QI$GZ_FIELD.DESCRIPTION.IO_FLAGS
     16963**DCL     16968--REDEF
QI$GZ_FIELD.FPL_ERROR
     17014**DCL     19502<<ASSIGN
QI$GZ_FIELD.INDICATORS$
     16961**DCL     19498>>ASSIGN
QI$GZ_FIELD.OPERATION.IS_DONE
     17012**DCL     19496>>IF      19501<<ASSIGN
QI$GZ_FIELD.OPERATION.IS_OPERATE
     17007**DCL     19500<<ASSIGN
QI$IDENTIFIER
     11640**DCL     11642--REDEF
QI$IDENTIFIER.TEXT
     11641**DCL     19797<<ASSIGN  19802<<ASSIGN  19928<<ASSIGN  19933<<ASSIGN  20059<<ASSIGN  20064<<ASSIGN
QI$INDICATORS
      9352**DCL      9382--REDEF
QI$INDICATORS.ENABLED_FLAGS
      9358**DCL      9363--REDEF
QI$INDICATORS.OPEN_FLAGS
      9370**DCL      9377--REDEF
QI$INDICATORS.STATE_FLAGS
      9364**DCL      9369--REDEF
QI$INDICATORS.STATE_VALUE
      9369**DCL     19498<<ASSIGN
QI$INITIALIZATION_BLOCK.CURRENT_FIELD@P
      7916**DCL     19955>>ASSIGN
QI$INITIALIZATION_BLOCK.CURRENT_FORM@P
      7914**DCL     19693>>ASSIGN
QI$INITIALIZATION_BLOCK.CURRENT_FRAME@P
      7915**DCL     19824>>ASSIGN
QI$MAJOR_NODE.WORD0
      8808**DCL      8809--REDEF
QI$MAJOR_STATUS.INDICATORS
      9531**DCL      9563--REDEF
QI$MAJOR_STATUS.INDICATORS.ENABLED_FLAGS
      9535**DCL      9540--REDEF
PL6.E3A0      #001=QCU$USE File=QCU$USE.:E05TSI                                  WED 07/30/97 05:15 Page:70
QI$MAJOR_STATUS.INDICATORS.OPEN_FLAGS
      9547**DCL      9554--REDEF
QI$MAJOR_STATUS.INDICATORS.STATE_FLAGS
      9541**DCL      9546--REDEF
QI$MESSAGE_TYPE
     11631**DCL     11633--REDEF
QI$MINOR_NODE.WORD0
      8851**DCL      8852--REDEF
QI$MINOR_STATUS.INDICATORS
      9624**DCL      9656--REDEF
QI$MINOR_STATUS.INDICATORS.ENABLED_FLAGS
      9628**DCL      9633--REDEF
QI$MINOR_STATUS.INDICATORS.OPEN_FLAGS
      9640**DCL      9647--REDEF
QI$MINOR_STATUS.INDICATORS.STATE_FLAGS
      9634**DCL      9639--REDEF
QI$OP_ACCEPT.DATANAME@P
      6039**DCL      6040--REDEF
QI$OP_CALL.EPTR$
      6211**DCL      6212--REDEF
QI$OP_CLEAR.IO_FLAGS
      6244**DCL      6247--REDEF
QI$OP_DISPLAY.FIELD_A@P
      6511**DCL      6512--REDEF
QI$OP_ENABLE.IO_FLAGS
      6598**DCL      6601--REDEF
QI$OP_IFCLS.ATTRIBUTE.TYPE
      6691**DCL      6696--REDEF
QI$OP_INSPECT.TALLYING_FOR_ITEM@P
      6925**DCL      6926--REDEF
QI$OP_INSPECT.TALLYING_INITIAL_ITEM@P
      6927**DCL      6928--REDEF
QI$OP_INSPECT.TALLYING_ITEM@P
      6923**DCL      6924--REDEF
QI$OP_OPEN.IO_FLAGS
      7485**DCL      7488--REDEF
PL6.E3A0      #001=QCU$USE File=QCU$USE.:E05TSI                                  WED 07/30/97 05:15 Page:71
QI$OP_PERFM.BINARY_ITERATION_COUNT@P
      7523**DCL      7524--REDEF
QI$OP_SEQUENCE.CODE
      5979**DCL     19372>>IF      19547>>IF      20114>>ASSIGN  20115>>ASSIGN
QI$PSEUDO_CIP
      8024**DCL      8048--REDEF
QI$PSEUDO_CIP.ALPHANUMERIC
      8028**DCL      8033--REDEF
QI$PSEUDO_CIP.NUMERIC.CB
      8034**DCL      8037--REDEF    8040--REDEF
QI$TERMINAL_ATTRIBUTES
      9245**DCL      9258--REDEF
QI$TRAN_FILE.WORD0
      9030**DCL      9031--REDEF
QI$TRAN_STATUS.INDICATORS
      9965**DCL      9997--REDEF
QI$TRAN_STATUS.INDICATORS.ENABLED_FLAGS
      9969**DCL      9974--REDEF
QI$TRAN_STATUS.INDICATORS.OPEN_FLAGS
      9981**DCL      9988--REDEF
QI$TRAN_STATUS.INDICATORS.STATE_FLAGS
      9975**DCL      9980--REDEF
QI$UBYTE_A
     11625**DCL     19656>>IF
QI$VARIABLE_IDENTIFIER.LENGTH
     11644**DCL     11645--IMP-SIZ 19797>>ASSIGN  19928>>ASSIGN  20059>>ASSIGN
QI$VARIABLE_IDENTIFIER.TEXT
     11645**DCL     19797>>ASSIGN  19928>>ASSIGN  20059>>ASSIGN
QI_1.A_REG
     10918**DCL     19516<<ASSIGN  19549<<ASSIGN
QI_1.BASE
     10173**DCL     10180--REDEF
QI_1.BASE.DATA$
     10174**DCL     19462>>ASSIGN  19733>>ASSIGN  19864>>ASSIGN  19995>>ASSIGN  20094>>ASSIGN
QI_1.BASE.PROC$
     10176**DCL     19422>>ASSIGN  19693>>ASSIGN  19777>>ASSIGN  19824>>ASSIGN  19908>>ASSIGN  19955>>ASSIGN
PL6.E3A0      #001=QCU$USE File=QCU$USE.:E05TSI                                  WED 07/30/97 05:15 Page:72
     20039>>ASSIGN
QI_1.BASE_A$
     10180**DCL     19827>>ASSIGN
QI_1.CURRENT.FILE$
     11064**DCL     11066--REDEF   11068--REDEF   19376>>IF      19392>>IF
QI_1.CURRENT.FILE_STATUS$
     11070**DCL     11072--REDEF   11074--REDEF   19382>>IF      19388>>IF
QI_1.CURRENT.FORM$
     11066**DCL     19422>>ASSIGN  19525>>IF      19530>>IF      19557>>IF      19574>>IF      19594>>ASSIGN
     19753>>IF      19777>>ASSIGN  20066>>IF      20070>>IF      20094>>ASSIGN
QI_1.CURRENT.FORM_STATUS$
     11072**DCL     19563>>IF      19569>>IF      19578>>IF      19583>>IF      19590>>ASSIGN  19592>>ASSIGN
     19600>>ASSIGN  19602>>ASSIGN
QI_1.CURR_INSTR$
     10183**DCL     19364>>IF      20114>>ASSIGN  20115>>ASSIGN
QI_1.DAD
     10868**DCL     10873--REDEF
QI_1.DEFAULT_USE_PROCEDURE_A@P
     11103**DCL     19628>>IF      19640>>ASSIGN
QI_1.ERROR_STATUS
     11098**DCL     19527<>CALL    19532<>CALL    19581<>CALL    19586<>CALL    19620<>CALL    19635<>CALL
     19650<>CALL    20115>>ASSIGN
QI_1.FILE_HEAD
     11051**DCL     11058--REDEF
QI_1.INITIALIZATION_BLOCK$
     10185**DCL     19693>>ASSIGN  19824>>ASSIGN  19955>>ASSIGN
QI_1.INSTR$
     10181**DCL     19364>>IF      19372>>IF      19547>>IF
QI_1.IS_ALL_LIT
     10874**DCL     10879--REDEF
QI_1.IS_DEFAULT_USE_PROC_ACTIVE_A
     11105**DCL     19633>>IF      19639<<ASSIGN  19644<<ASSIGN
QI_1.IS_FORM_VARIABLE
     10880**DCL     10885--REDEF
QI_1.IS_TEMP
     10886**DCL     10891--REDEF
PL6.E3A0      #001=QCU$USE File=QCU$USE.:E05TSI                                  WED 07/30/97 05:15 Page:73
QI_1.MESSAGE_LINE_DAD.PSEUDO_CIP
     10984**DCL     11009--REDEF
QI_1.MESSAGE_LINE_DAD.PSEUDO_CIP.ALPHANUMERIC
     10986**DCL     10991--REDEF
QI_1.MESSAGE_LINE_DAD.PSEUDO_CIP.NUMERIC.CB
     10992**DCL     10995--REDEF   10998--REDEF
QI_1.MESSAGE_LINE_DAD.WORD0
     10953**DCL     10954--REDEF
QI_1.OFFSET
     10892**DCL     10897--REDEF
QI_1.OP.CIP
     10253**DCL     10704--REDEF
QI_1.OP.CIP.AUX
     10619**DCL     10690--REDEF
QI_1.OP.CIP.AUX.CD
     10664**DCL     10667--REDEF   10671--REDEF   10674--REDEF
QI_1.OP.CIP.S
     10323**DCL     10394--REDEF
QI_1.OP.CIP.S.CD
     10368**DCL     10371--REDEF   10375--REDEF   10378--REDEF
QI_1.OP.CIP.T
     10471**DCL     10542--REDEF
QI_1.OP.CIP.T.CD
     10516**DCL     10519--REDEF   10523--REDEF   10526--REDEF
QI_1.OP.DATA
     10711**DCL     10715--REDEF
QI_1.OP.FILL_CHAR
     10835**DCL     10838--REDEF
QI_1.OP.INX
     10768**DCL     10772--REDEF   10773--REDEF   10777--REDEF
QI_1.OP.LEN
     10751**DCL     10755--REDEF   10756--REDEF   10760--REDEF   10761--REDEF   10765--REDEF
QI_1.OP.LEN.AUX
     10754**DCL     11655--IMP-SIZ
QI_1.OP.LEN.S
     10752**DCL     11651--IMP-SIZ
PL6.E3A0      #001=QCU$USE File=QCU$USE.:E05TSI                                  WED 07/30/97 05:15 Page:74
QI_1.OP.LEN.T
     10753**DCL     11653--IMP-SIZ
QI_1.OP.PICTURE_STRING
     10821**DCL     10824--REDEF   10825--REDEF   10828--REDEF   10829--REDEF   10832--REDEF
QI_1.OP.ROUND
     10854**DCL     10855--REDEF   10856--REDEF
QI_1.OP.SRCH_VRFY_ELEMS
     10790**DCL     10793--REDEF
QI_1.OPENED_COUNT
     11059**DCL     11062--REDEF
QI_1.OTTER_SPACE
     10898**DCL     10903--REDEF
QI_1.PICTURE_STRING
     10904**DCL     10909--REDEF
QI_1.SPECIAL_NAMES
     11087**DCL     11096--REDEF
QI_1.SPECIAL_NAMES.RETRY$
     11094**DCL     19656>>IF
QI_1.TYPE
     10910**DCL     10915--REDEF
QI_1.USE_PROCEDURE@P
     11107**DCL     19594<<ASSIGN  19640<<ASSIGN
QI_16_BIT_BINARY
     16100**DCL     16170--REDEF
QI_16_BIT_BINARY.CB
     16119**DCL     16122--REDEF   16126--REDEF   16129--REDEF
QI_31_DIGIT_SLS_DISPLAY
     15933**DCL     16003--REDEF
QI_31_DIGIT_SLS_DISPLAY.CD
     15980**DCL     15983--REDEF   15987--REDEF   15990--REDEF
QI_31_DIGIT_ST_PACKED
     16435**DCL     16505--REDEF
QI_31_DIGIT_ST_PACKED.CP
     16468**DCL     16471--REDEF   16475--REDEF   16478--REDEF
QI_32_BIT_BINARY
     16267**DCL     16337--REDEF
PL6.E3A0      #001=QCU$USE File=QCU$USE.:E05TSI                                  WED 07/30/97 05:15 Page:75
QI_32_BIT_BINARY.CB
     16286**DCL     16289--REDEF   16293--REDEF   16296--REDEF
QI_4_CHAR_ALPHANUMERIC
     15765**DCL     15835--REDEF
QI_4_CHAR_ALPHANUMERIC.CA
     15770**DCL     15774--REDEF   15777--REDEF   15780--REDEF
QI_ACCUMULATOR_DAD.CIP
     16778**DCL     16849--REDEF
QI_ACCUMULATOR_DAD.CIP.CP
     16809**DCL     16812--REDEF   16816--REDEF   16819--REDEF
QI_ALR.CIP
     11730**DCL     12181--REDEF
QI_ALR.CIP.AUX
     12096**DCL     12167--REDEF
QI_ALR.CIP.AUX.CA
     12099**DCL     12103--REDEF   12106--REDEF   12109--REDEF
QI_ALR.CIP.S
     11800**DCL     11871--REDEF
QI_ALR.CIP.S.CA
     11803**DCL     11807--REDEF   11810--REDEF   11813--REDEF
QI_ALR.CIP.T
     11948**DCL     12019--REDEF
QI_ALR.CIP.T.CA
     11951**DCL     11955--REDEF   11958--REDEF   11961--REDEF
QI_ALR.DATA
     12188**DCL     12192--REDEF
QI_ALR.FILL_CHAR
     12312**DCL     12315--REDEF
QI_ALR.INX
     12245**DCL     12249--REDEF   12250--REDEF   12254--REDEF
QI_ALR.LEN
     12228**DCL     12232--REDEF   12233--REDEF   12237--REDEF   12238--REDEF   12242--REDEF
QI_ALR.PICTURE_STRING
     12298**DCL     12301--REDEF   12302--REDEF   12305--REDEF   12306--REDEF   12309--REDEF
QI_ALR.ROUND
     12331**DCL     12332--REDEF   12333--REDEF
PL6.E3A0      #001=QCU$USE File=QCU$USE.:E05TSI                                  WED 07/30/97 05:15 Page:76
QI_ALR.SRCH_VRFY_ELEMS
     12267**DCL     12270--REDEF
QI_FPT_DBCONTROL.V_
     17150**DCL     17150--REDEF
QI_FPT_INT.V_
     17988**DCL     17988--REDEF
QI_MAT.CIP
     15069**DCL     15520--REDEF
QI_MAT.CIP.AUX
     15435**DCL     15506--REDEF
QI_MAT.CIP.AUX.CA
     15438**DCL     15442--REDEF   15445--REDEF   15448--REDEF
QI_MAT.CIP.S
     15139**DCL     15210--REDEF
QI_MAT.CIP.S.CA
     15142**DCL     15146--REDEF   15149--REDEF   15152--REDEF
QI_MAT.CIP.T
     15287**DCL     15358--REDEF
QI_MAT.CIP.T.CA
     15290**DCL     15294--REDEF   15297--REDEF   15300--REDEF
QI_MAT.DATA
     15527**DCL     15531--REDEF
QI_MAT.DEC
     15595**DCL     15599--REDEF   15600--REDEF   15604--REDEF
QI_MAT.FILL_CHAR
     15651**DCL     15654--REDEF
QI_MAT.LEN
     15567**DCL     15571--REDEF   15572--REDEF   15576--REDEF   15577--REDEF   15581--REDEF
QI_MAT.PICTURE_STRING
     15637**DCL     15640--REDEF   15641--REDEF   15644--REDEF   15645--REDEF   15648--REDEF
QI_MAT.ROUND
     15670**DCL     15671--REDEF   15672--REDEF
QI_MAT.SRCH_VRFY_ELEMS
     15606**DCL     15609--REDEF
QI_PICTURE_STRING
     16603**DCL     16673--REDEF
PL6.E3A0      #001=QCU$USE File=QCU$USE.:E05TSI                                  WED 07/30/97 05:15 Page:77
QI_PICTURE_STRING.CA
     16608**DCL     16612--REDEF   16615--REDEF   16618--REDEF
QI_SRCH_VRFY.CIP
     14400**DCL     14851--REDEF
QI_SRCH_VRFY.CIP.AUX
     14766**DCL     14837--REDEF
QI_SRCH_VRFY.CIP.AUX.CA
     14769**DCL     14773--REDEF   14776--REDEF   14779--REDEF
QI_SRCH_VRFY.CIP.S
     14470**DCL     14541--REDEF
QI_SRCH_VRFY.CIP.S.CA
     14473**DCL     14477--REDEF   14480--REDEF   14483--REDEF
QI_SRCH_VRFY.CIP.T
     14618**DCL     14689--REDEF
QI_SRCH_VRFY.CIP.T.CA
     14621**DCL     14625--REDEF   14628--REDEF   14631--REDEF
QI_SRCH_VRFY.DATA
     14858**DCL     14862--REDEF
QI_SRCH_VRFY.DEC
     14926**DCL     14930--REDEF   14931--REDEF   14935--REDEF
QI_SRCH_VRFY.FILL_CHAR
     14982**DCL     14985--REDEF
QI_SRCH_VRFY.ROUND
     15001**DCL     15002--REDEF   15003--REDEF
QI_SRCH_VRFY.SRCH_RESULT
     14942**DCL     14945--REDEF   14946--REDEF   14949--REDEF   14950--REDEF   14953--REDEF
QI_SRCH_VRFY.SRCH_VRFY_ARGS
     14866**DCL     14870--REDEF   14871--REDEF   14875--REDEF   14876--REDEF   14880--REDEF
QI_SRCH_VRFY.SRCH_VRFY_ELEMS
     14937**DCL     14940--REDEF
QI_TYPE_BINARY_TARGET.CIP
     13727**DCL     14178--REDEF
QI_TYPE_BINARY_TARGET.CIP.AUX
     14093**DCL     14164--REDEF
QI_TYPE_BINARY_TARGET.CIP.AUX.CA
     14096**DCL     14100--REDEF   14103--REDEF   14106--REDEF
PL6.E3A0      #001=QCU$USE File=QCU$USE.:E05TSI                                  WED 07/30/97 05:15 Page:78
QI_TYPE_BINARY_TARGET.CIP.S
     13797**DCL     13868--REDEF
QI_TYPE_BINARY_TARGET.CIP.S.CA
     13800**DCL     13804--REDEF   13807--REDEF   13810--REDEF
QI_TYPE_BINARY_TARGET.CIP.T
     13945**DCL     14016--REDEF
QI_TYPE_BINARY_TARGET.CIP.T.CB
     13962**DCL     13965--REDEF   13969--REDEF   13972--REDEF
QI_TYPE_BINARY_TARGET.DATA
     14185**DCL     14189--REDEF
QI_TYPE_BINARY_TARGET.DEC
     14253**DCL     14257--REDEF   14258--REDEF   14262--REDEF
QI_TYPE_BINARY_TARGET.LEN
     14225**DCL     14229--REDEF   14230--REDEF   14234--REDEF   14235--REDEF   14239--REDEF
QI_TYPE_BINARY_TARGET.PICTURE_STRING
     14295**DCL     14298--REDEF   14299--REDEF   14302--REDEF   14303--REDEF   14306--REDEF
QI_TYPE_BINARY_TARGET.ROUND
     14328**DCL     14329--REDEF   14330--REDEF
QI_TYPE_BINARY_TARGET.SIZE_ERROR
     14314**DCL     14315--REDEF
QI_TYPE_BINARY_TARGET.SRCH_VRFY_ELEMS
     14264**DCL     14267--REDEF
QI_TYPE_DISPLAY_SOURCE.CIP
     12395**DCL     12846--REDEF
QI_TYPE_DISPLAY_SOURCE.CIP.AUX
     12761**DCL     12832--REDEF
QI_TYPE_DISPLAY_SOURCE.CIP.AUX.CA
     12764**DCL     12768--REDEF   12771--REDEF   12774--REDEF
QI_TYPE_DISPLAY_SOURCE.CIP.S
     12465**DCL     12536--REDEF
QI_TYPE_DISPLAY_SOURCE.CIP.S.CD
     12510**DCL     12513--REDEF   12517--REDEF   12520--REDEF
QI_TYPE_DISPLAY_SOURCE.CIP.T
     12613**DCL     12684--REDEF
QI_TYPE_DISPLAY_SOURCE.CIP.T.CA
     12616**DCL     12620--REDEF   12623--REDEF   12626--REDEF
PL6.E3A0      #001=QCU$USE File=QCU$USE.:E05TSI                                  WED 07/30/97 05:15 Page:79
QI_TYPE_DISPLAY_SOURCE.DATA
     12853**DCL     12857--REDEF
QI_TYPE_DISPLAY_SOURCE.DEC
     12921**DCL     12925--REDEF   12926--REDEF   12930--REDEF
QI_TYPE_DISPLAY_SOURCE.LEN
     12893**DCL     12897--REDEF   12898--REDEF   12902--REDEF   12903--REDEF   12907--REDEF
QI_TYPE_DISPLAY_SOURCE.PICTURE_STRING
     12963**DCL     12966--REDEF   12967--REDEF   12970--REDEF   12971--REDEF   12974--REDEF
QI_TYPE_DISPLAY_SOURCE.ROUND
     12996**DCL     12997--REDEF   12998--REDEF
QI_TYPE_DISPLAY_SOURCE.SIZE_ERROR
     12982**DCL     12983--REDEF
QI_TYPE_DISPLAY_SOURCE.SRCH_VRFY_ELEMS
     12932**DCL     12935--REDEF
QI_TYPE_DISPLAY_TARGET.CIP
     13061**DCL     13512--REDEF
QI_TYPE_DISPLAY_TARGET.CIP.AUX
     13427**DCL     13498--REDEF
QI_TYPE_DISPLAY_TARGET.CIP.AUX.CA
     13430**DCL     13434--REDEF   13437--REDEF   13440--REDEF
QI_TYPE_DISPLAY_TARGET.CIP.S
     13131**DCL     13202--REDEF
QI_TYPE_DISPLAY_TARGET.CIP.S.CA
     13134**DCL     13138--REDEF   13141--REDEF   13144--REDEF
QI_TYPE_DISPLAY_TARGET.CIP.T
     13279**DCL     13350--REDEF
QI_TYPE_DISPLAY_TARGET.CIP.T.CD
     13324**DCL     13327--REDEF   13331--REDEF   13334--REDEF
QI_TYPE_DISPLAY_TARGET.DATA
     13519**DCL     13523--REDEF
QI_TYPE_DISPLAY_TARGET.DEC
     13587**DCL     13591--REDEF   13592--REDEF   13596--REDEF
QI_TYPE_DISPLAY_TARGET.LEN
     13559**DCL     13563--REDEF   13564--REDEF   13568--REDEF   13569--REDEF   13573--REDEF
QI_TYPE_DISPLAY_TARGET.PICTURE_STRING
     13629**DCL     13632--REDEF   13633--REDEF   13636--REDEF   13637--REDEF   13640--REDEF
PL6.E3A0      #001=QCU$USE File=QCU$USE.:E05TSI                                  WED 07/30/97 05:15 Page:80
QI_TYPE_DISPLAY_TARGET.ROUND
     13662**DCL     13663--REDEF   13664--REDEF
QI_TYPE_DISPLAY_TARGET.SIZE_ERROR
     13648**DCL     13649--REDEF
QI_TYPE_DISPLAY_TARGET.SRCH_VRFY_ELEMS
     13598**DCL     13601--REDEF
QI_VLP_SEGMENT.BASE
     17687**DCL     17687--REDEF
QI_VLP_SEGMENT_BUFFER.BASE
     17785**DCL     17785--REDEF
QI_VLP_SEGMENT_LOAD.BASE
     17883**DCL     17883--REDEF
QI_VLP_TRMCTL.BREAKCOUNT
     18877**DCL     18878--REDEF
QI_VLP_XBREAK.IC
     19067**DCL     19067--REDEF
QI_VLP_XBREAK.OLDIC
     19067**DCL     19068--REDEF   19068--REDEF
QI_ZERO
     11292**DCL     19656>>IF
SET_SPECIAL_REGISTERS
     19665**PROC    19270--CALL    19370--CALL
SO_USE_IT_ALREADY
     19525**LABEL   19272--GOTO
USE_PROCEDURE_TYPE_INDEX
     19098**DCL     19617<<ASSIGN  19626<<ASSIGN  19628>>IF      19633>>IF      19639>>ASSIGN  19640>>ASSIGN
     19644>>ASSIGN

PL6.E3A0      #002=QCU$USE_CALL File=QCU$USE.:E05TSI                             WED 07/30/97 05:18 Page:81
      524        1        /*M* QCU$USE_CALL:  Enter a USE PROCEDURE.  */
      525        2        /*T***********************************************************/
      526        3        /*T*                                                         */
      527        4        /*T* Copyright (c) Bull HN Information Systems Inc., 1997    */
      528        5        /*T*                                                         */
      529        6        /*T***********************************************************/
      530        7        /*X* DMC,PLM = 4,IND=0,DCI=4,CSI=2,IAD=2,DTI=2,AND,ECI=0,DIN=2,STI=2 */
      531        8
      532        9        /*P*  NAME:         QCU$USE_CALL
      533       10              PURPOSE:      To actually begin executing a USE PROCEDURE.
      534       11              DESCRIPTION:  QCU$USE[_whatever] has been called and has set
      535       12                            up a USE PROCEDURE address.  This routine saves
      536       13                            away current QI_1 stuff and executes the code
      537       14                            within the USE PROCEDURE.
      538       15        */
      539       16
      540       17        QCU$USE_CALL: PROC ( QCU@USE );
      541       18
      542       19        /*D*  NAME:         QCU$USE_CALL
      543       20              CALL:         CALL QCU$USE_CALL;
      544       21              PARAMETERS:   None.
      545       22              INTERFACE:    Called by QCU$USE when it's determined that a
      546       23                            USE PROCEDURE for an exceptional condition is
      547       24                            appropriate and must therefore be executed.
      548       25              ENVIRONMENT:  Saves a copy of the current QI_1 for replacement
      549       26                            of whatever QI_1 contains after exit from the
      550       27                            USE PROCEDURE.  Also saves some QI$GZ_FIELD stuff.
      551       28              INPUT:        QI_1, etc.
      552       29              OUTPUT:       QI_1, etc.
      553       30              SCRATCH:      A spare copy of QI_1,
      554       31                            various otter stuff.
      555       32              DESCRIPTION:  Well, this code ain't never been even close to
      556       33                            tested and I'm really not sure what all it's
      557       34                            supposed to take into account.  This is more-or-less
      558       35                            just a translation of unused code from B03 SIL6
      559       36                            to C00 PL6, so that nothin'd get lost through the
      560       37                            ravages of time.  Best o'luck.  JJL, C00.
PL6.E3A0      #002=QCU$USE_CALL File=QCU$USE.:E05TSI                             WED 07/30/97 05:18 Page:82
      561       38        */
      562       39
      563       40          %INCLUDE LCP_6;
      564      231          %FPT_FDS ( FPTN = FPT@FDS,
      565      232                     STCLASS = AUTO );
      566      254          %FPT_GDS ( FPTN = FPT@GDS,
      567      255                     STCLASS = AUTO );
      568      279          %FPT_GDS ( FPTN = FPT_GDS_CONSTANT,
      569      280                     STCLASS = CONSTANT );
      570      304          %VLP_SEGMENT ( FPTN = VLP@SEGMENT,
      571      305                         STCLASS = AUTO );
      572      326          %VLP_SEGMENT ( FPTN = VLP_SEGMENT_CONSTANT,
      573      327                         STCLASS = CONSTANT );
      574      348          %G$EXCFR;
      575      730          %G$TCB;
      576      751    1     DCL G$TCB$ PTR SYMREF;
      577      752
      578      753          %INCLUDE QG_MACRO_M;
      579      890          %INCLUDE QI_EQUATES_E;
      580     1249          %INCLUDE QI_PERR_C;
      581     1417          %INCLUDE QI_MACROS_M;
      582     6475          %QI$ALL;
      583    17588
      584    17589    1     DCL FIELD_INDEX UBIN;
      585    17590    1     DCL FRAME$ PTR;
      586    17591    1     DCL FRAME_INDEX UBIN;
      587    17592    1     DCL FRAME_STATUS$ PTR;
      588    17593    1     DCL GZ_FIELD$ PTR;
      589    17594    1     DCL SAVED_GZ_FIELD$ PTR;
      590    17595    1     DCL TOTAL_FIELD_COUNT UBIN;
      591    17596
      592    17597          %QI_1 ( NAME = QI@1,
      593    17598                  STCLASS = AUTO );
      594    18568
      595    18569    1     DCL QAT$TALLYHO_USE ENTRY;
      596    18570    1     DCL QCE$ERROR ENTRY (4);
      597    18571    1     DCL QCE$ERROR_M$INTERNAL ENTRY (4);
PL6.E3A0      #002=QCU$USE_CALL File=QCU$USE.:E05TSI                             WED 07/30/97 05:18 Page:83
      598    18572
      599    18573          %SET LISTMAC = '1'B;
      600    18574
      601    18575          %INCLUDE QCU_USE_M;
      602    18629          %QCU@USE ( STCLASS = PARAM );
             18630            %BEGIN_MACRO;
             18631            %SET LISTDIR = '0'B;
             18644    1     DCL 1 QCU@USE PARAM ALIGNED,
             18645    1           2 CURR_FRAME$ PTR,
             18646                          /* Pointer to DAD of current frame or ADDR (NIL).  */
             18647    1           2 CURR_NODE$ PTR,
             18648                          /* Pointer to current node or ADDR (NIL).  */
             18649    1           2 USE_DEFAULT_IO UBIN,
             18650                          /* For USE procedures which default applies
             18651                             (see corresponding EQUs).  */
             18652    1           2 IS_TIME_TO_SAVE_AWAY_FIELDS BIT(1) ALIGNED,
             18653                          /* If IS_TIME_TO_SAVE_AWAY_FIELDS, then
             18654                             save the fields within the bounds of
             18655                             FRAME_START_INDEX, FRAME_STOP_INDEX,
             18656                             FIELD_START_INDEX, and FIELD_STOP_INDEX
             18657                             before calling the USE procedure.  */
             18658    1           2 FRAME_START_INDEX UBIN,
             18659                          /* Foist frame of the CURRENT.FORM$
             18660                             involved with the I-O error.  */
             18661    1           2 FRAME_STOP_INDEX UBIN,
             18662                          /* Larst frame of the CURRENT.FORM$
             18663                             involved with the I-O error.  */
             18664    1           2 IS_FIELD_INDEXES_VALID BIT(1) ALIGNED,
             18665                          /* If IS_FIELD_INDEXES_VALID, use them;
             18666                             else use all the fields in the frame.  */
             18667    1           2 FIELD_START_INDEX UBIN,
             18668                          /* Starting index into QI$GZ_FIELD
             18669                             which may have values "pushed".  */
             18670    1           2 FIELD_STOP_INDEX UBIN,
             18671                          /* Stopping index into QI$GZ_FIELD
             18672                             which may have values "pushed".  */
             18673    1           2 IS_CURSOR_POSITION_VALID BIT(1) ALIGNED,
PL6.E3A0      #002=QCU$USE_CALL File=QCU$USE.:E05TSI                             WED 07/30/97 05:18 Page:84
             18674                          /* If IS_CURSOR_POSITION_VALID, use it;
             18675                             else allow cursor to default to upper-left-most field.  */
             18676    1           2 CURSOR_POSITION BIT(16) ALIGNED,
             18677                          /* POSition of the field on which to place the cursor.  */
             18678    1           2 STATUS UBIN;
             18679                          /* Returned action code; see corresponding EQUs.  */
             18686            %ENDIF;
      603    18689
      604    18690          %SET LISTMAC = '0'B;
      605    18691        %EJECT;
PL6.E3A0      #002=QCU$USE_CALL File=QCU$USE.:E05TSI                             WED 07/30/97 05:18 Page:85
      606    18692    1       QI_1.SPECIAL_NAMES.RETRY$ -> QI$UBYTE_A (0) = QI_ZERO;
      607    18693
      608    18694    1       IF QI_1.CURRENT.FORM$ -> QI$FILE.WORD0_FLAGS.TYPE = %QI#TYPE_FORM
      609    18695    1         AND QCU@USE.IS_TIME_TO_SAVE_AWAY_FIELDS
      610    18696    1       THEN
      611    18697    1   GOTTA_START_INDEX:
      612    18698    2         DO;
      613    18699
      614    18700    2           TOTAL_FIELD_COUNT = 0;
      615    18701
      616    18702    2   COUNT_THEM_FIELDS:
      617    18703    2           DO FRAME_INDEX =
      618    18704    3             QCU@USE.FRAME_START_INDEX TO QCU@USE.FRAME_STOP_INDEX;
      619    18705
      620    18706                  %PROC_ADDRESS ( THING@P =
             18706                      "QI_1.CURRENT.FORM$ -> QI$FORM_FILE.FRAME_LIST_A@P ( FRAME_INDEX )",
      621    18707                  CHECK_FOR_INDIRECTION = NO,
      622    18708                  RESULT$ = FRAME$ );
      623    18745
      624    18746                  %DATA_ADDRESS ( THING@D = "FRAME$ -> QI$FRAME.STATUS_AREA@D",
      625    18747                  CHECK_FOR_INDIRECTION = NO,
      626    18748                  RESULT$ = FRAME_STATUS$ );
      627    18785
      628    18786    3             IF QCU@USE.IS_FIELD_INDEXES_VALID
      629    18787    3             THEN
      630    18788    4               DO;
      631    18789    4                 QCU@USE.FIELD_START_INDEX = FRAME_STATUS$ -> QI$FRAME_STATUS.GZ.
             18789                          FIELD_START_INDEX;
      632    18790    4                 QCU@USE.FIELD_STOP_INDEX = FRAME_STATUS$ -> QI$FRAME_STATUS.GZ.
             18790                          FIELD_STOP_INDEX;
      633    18791    4               END;
      634    18792
      635    18793    3             TOTAL_FIELD_COUNT = TOTAL_FIELD_COUNT +
      636    18794    3               QCU@USE.FIELD_STOP_INDEX - QCU@USE.FIELD_START_INDEX +
      637    18795    3               1;
      638    18796
      639    18797    3           END COUNT_THEM_FIELDS;
PL6.E3A0      #002=QCU$USE_CALL File=QCU$USE.:E05TSI                             WED 07/30/97 05:18 Page:86
      640    18798
      641    18799        /*  Something like this:  ya know.  */
      642    18800    2           FPT@GDS = FPT_GDS_CONSTANT;
      643    18801    2           VBASE ( FPT@GDS.V_ ) = ADDR ( FPT@GDS.V );
      644    18802    2           FPT@GDS.V.PAGES = ( ( TOTAL_FIELD_COUNT * SIZEW (QI$GZ_FIELD) ) / 256 ) + 1;
      645    18803    2           VLP@SEGMENT = VLP_SEGMENT_CONSTANT;
      646    18804
      647    18805    2           CALL M$GDS ( FPT@GDS )
      648    18806    2           WHENALTRETURN
      649    18807    3             DO;
      650    18808    3               CALL QCE$ERROR ( %E$INSUFFICIENT_MEMORY );
      651    18809    3             END;
      652    18810
      653    18811    2           SAVED_GZ_FIELD$ = VLP@SEGMENT.BASE$;
      654    18812    2           QI_1.PREVIOUS_INTERFACE_START$ = VLP@SEGMENT.BASE$;
      655    18813
      656    18814    2   SAVE_THEM_FRAMES:
      657    18815    2           DO FRAME_INDEX =
      658    18816    3             QCU@USE.FRAME_START_INDEX TO QCU@USE.FRAME_STOP_INDEX;
      659    18817
      660    18818                  %PROC_ADDRESS ( THING@P =
             18818                      "QI_1.CURRENT.FORM$ -> QI$FORM_FILE.FRAME_LIST_A@P ( FRAME_INDEX )",
      661    18819                  CHECK_FOR_INDIRECTION = NO,
      662    18820                  RESULT$ = FRAME$ );
      663    18857
      664    18858                  %DATA_ADDRESS ( THING@D = "FRAME$ -> QI$FRAME.STATUS_AREA@D",
      665    18859                  CHECK_FOR_INDIRECTION = NO,
      666    18860                  RESULT$ = FRAME_STATUS$ );
      667    18897
      668    18898    3             IF QCU@USE.IS_FIELD_INDEXES_VALID
      669    18899    3             THEN
      670    18900    4               DO;
      671    18901    4                 QCU@USE.FIELD_START_INDEX = FRAME_STATUS$ -> QI$FRAME_STATUS.GZ.
             18901                          FIELD_START_INDEX;
      672    18902    4                 QCU@USE.FIELD_STOP_INDEX = FRAME_STATUS$ -> QI$FRAME_STATUS.GZ.
             18902                          FIELD_STOP_INDEX;
      673    18903    4               END;
PL6.E3A0      #002=QCU$USE_CALL File=QCU$USE.:E05TSI                             WED 07/30/97 05:18 Page:87
      674    18904
      675    18905    3             GZ_FIELD$ = PINCRW ( FRAME_STATUS$ -> QI$FRAME_STATUS.GZ.START$,
      676    18906    3               QCU@USE.FIELD_START_INDEX * LENGTHW (QI$GZ_FIELD) );
      677    18907
      678    18908    3   SAVE_THEM_FIELDS:
      679    18909    3             DO FIELD_INDEX =
      680    18910    4               QCU@USE.FIELD_START_INDEX TO QCU@USE.FIELD_STOP_INDEX;
      681    18911
      682    18912        /*  Actually, the B03 code implied that the only stuff that need be
      683    18913            saved away is:  1)  GZ_FIELD.OPERATION.IS_OPERATE
      684    18914                            2)  GZ_FIELD.OPERATION.IS_DONE
      685    18915                            3)  GZ_FIELD.INDICATORS$ -> QI$INDICATORS.ENABLED_FLAGS
      686    18916                            4)  GZ_FIELD.INDICATORS$ -> QI$INDICATORS.IS_ACTIVE
      687    18917                            5)  GZ_FIELD.STATUS.OFFSET
      688    18918                            6)  GZ_FIELD.USE_STUFF
      689    18919                            7)  GZ_FIELD.FPL_ERROR
      690    18920                            8)  GZ_FIELD.STATUS.WAS_IO_EVER_DONE
      691    18921                            9)  GZ_FIELD.INDICATORS$ -> QI$INDICATORS.STATE_FLAGS
      692    18922            Hmmm.
      693    18923        */
      694    18924    4               SAVED_GZ_FIELD$ -> QI$GZ_FIELD =
      695    18925    4                 GZ_FIELD$ -> QI$GZ_FIELD;
      696    18926
      697    18927    4               GZ_FIELD$ -> QI$GZ_FIELD.OPERATION.IS_OPERATE = %NO;
      698    18928    4               GZ_FIELD$ -> QI$GZ_FIELD.OPERATION.IS_DONE = %NO;
      699    18929    4               GZ_FIELD$ -> QI$GZ_FIELD.USE_STUFF = 0;
      700    18930
      701    18931    4               GZ_FIELD$ = PINCRW ( GZ_FIELD$, SIZEW (QI$GZ_FIELD) );
      702    18932    4               SAVED_GZ_FIELD$ = PINCRW ( SAVED_GZ_FIELD$, SIZEW (QI$GZ_FIELD) );
      703    18933
      704    18934    4             END SAVE_THEM_FIELDS;
      705    18935
      706    18936    3           END SAVE_THEM_FRAMES;
      707    18937
      708    18938    2         END GOTTA_START_INDEX;
      709    18939    1       ELSE
      710    18940    1         QI_1.PREVIOUS_INTERFACE_START$ = ADDR (NIL);
PL6.E3A0      #002=QCU$USE_CALL File=QCU$USE.:E05TSI                             WED 07/30/97 05:18 Page:88
      711    18941
      712    18942    1       QI@1 = QI_1;
      713    18943
      714    18944            %PROC_ADDRESS ( THING@P = "QI_1.USE_PROCEDURE@P",
      715    18945            CHECK_FOR_INDIRECTION = NO,
      716    18946            RESULT$ = "QI_1.INSTR$" );
      717    18983
      718    18984    1       CALL QAT$TALLYHO_USE;
      719    18985
      720    18986    1       QI_1 = QI@1;
      721    18987
      722    18988    1       IF QI_1.PREVIOUS_INTERFACE_START$ ~= ADDR (NIL)
      723    18989    1       THEN
      724    18990    2         DO;
      725    18991
      726    18992    2           IF QI_1.CURRENT.FORM_STATUS$ -> QI$FORM_STATUS.CURRENT.USAGE.CLOSED
      727    18993    2           THEN
      728    18994    3             DO;
      729    18995        /*  Don't ask me why it checks USAGE instead of OPEN_FLAGS here...
      730    18996            B03 says:  "HERE => ABORT IT".  */
      731    18997    3               CALL QCE$ERROR ( QI_1.ERROR_STATUS );
      732    18998    3             END;
      733    18999    2           ELSE
      734    19000    3             DO;
      735    19001
      736    19002    3   RESTORE_THEM_FRAMES:
      737    19003    3               DO FRAME_INDEX =
      738    19004    4                 QCU@USE.FRAME_START_INDEX TO QCU@USE.FRAME_STOP_INDEX;
      739    19005
      740    19006                      %PROC_ADDRESS ( THING@P =
             19006                         "QI_1.CURRENT.FORM$ -> QI$FORM_FILE.FRAME_LIST_A@P ( FRAME_INDEX )"
             19006                          ,
      741    19007                      CHECK_FOR_INDIRECTION = NO,
      742    19008                      RESULT$ = FRAME$ );
      743    19045
      744    19046                      %DATA_ADDRESS ( THING@D = "FRAME$ -> QI$FRAME.STATUS_AREA@D",
      745    19047                      CHECK_FOR_INDIRECTION = NO,
PL6.E3A0      #002=QCU$USE_CALL File=QCU$USE.:E05TSI                             WED 07/30/97 05:18 Page:89
      746    19048                      RESULT$ = FRAME_STATUS$ );
      747    19085
      748    19086    4                 IF QCU@USE.IS_FIELD_INDEXES_VALID
      749    19087    4                 THEN
      750    19088    5                   DO;
      751    19089    5                     QCU@USE.FIELD_START_INDEX = FRAME_STATUS$ -> QI$FRAME_STATUS.GZ.
             19089                              FIELD_START_INDEX;
      752    19090    5                     QCU@USE.FIELD_STOP_INDEX = FRAME_STATUS$ -> QI$FRAME_STATUS.GZ.
             19090                              FIELD_STOP_INDEX;
      753    19091    5                   END;
      754    19092
      755    19093    4                 GZ_FIELD$ = PINCRW ( FRAME_STATUS$ -> QI$FRAME_STATUS.GZ.START$,
      756    19094    4                   QCU@USE.FIELD_START_INDEX * LENGTHW (QI$GZ_FIELD) );
      757    19095
      758    19096    4   RESTORE_THEM_FIELDS:
      759    19097    4                 DO FIELD_INDEX =
      760    19098    5                   QCU@USE.FIELD_START_INDEX TO QCU@USE.FIELD_STOP_INDEX;
      761    19099
      762    19100    5                   IF GZ_FIELD$ -> QI$GZ_FIELD.INDICATORS$ -> QI$INDICATORS.IS_ACTIVE
      763    19101    5                     AND NOT GZ_FIELD$ -> QI$GZ_FIELD.STATUS.WAS_IO_EVER_DONE
      764    19102    5                   THEN
      765    19103    5                     GZ_FIELD$ -> QI$GZ_FIELD =
      766    19104    5                       SAVED_GZ_FIELD$ -> QI$GZ_FIELD;
      767    19105
      768    19106    5                   GZ_FIELD$ = PINCRW ( GZ_FIELD$, SIZEW (QI$GZ_FIELD) );
      769    19107    5                   SAVED_GZ_FIELD$ = PINCRW ( SAVED_GZ_FIELD$, SIZEW (QI$GZ_FIELD) );
      770    19108
      771    19109    5                 END RESTORE_THEM_FIELDS;
      772    19110
      773    19111    4               END RESTORE_THEM_FRAMES;
      774    19112
      775    19113    3               FPT@FDS = FPT@GDS; /* whatever.... */
      776    19114
      777    19115    3               CALL M$FDS ( FPT@FDS )
      778    19116    3               WHENALTRETURN
      779    19117    4                 DO;
      780    19118    4                   CALL QCE$ERROR_M$INTERNAL ( %E$UNEXPECTED_ALTRET );
PL6.E3A0      #002=QCU$USE_CALL File=QCU$USE.:E05TSI                             WED 07/30/97 05:18 Page:90
      781    19119    4                 END;
      782    19120
      783    19121    3               QI_1.PREVIOUS_INTERFACE_START$ = ADDR (NIL);
      784    19122
      785    19123    3             END;
      786    19124
      787    19125    2         END;
      788    19126
      789    19127    1       RETURN;
      790    19128
      791    19129    1   END QCU$USE_CALL;

PL6.E3A0      #002=QCU$USE_CALL File=QCU$USE.:E05TSI                             WED 07/30/97 05:18 Page:91
--  Include file information  --

   QCU_USE_M.:E05TOU  is referenced.
   QI_MACROS_M.:E05TOU  is referenced.
   QI_PERR_C.:E05TOU  is referenced.
   QI_EQUATES_E.:E05TOU  is referenced.
   QG_MACRO_M.:E05TOU  is referenced.
   LCP_6.:E05TOU  cannot be made into a system file and is referenced.
   G_LCP6_E.:E05TOU  was found in the system file and is referenced.
   GT_LCP6_M.:E05TOU  was found in the system file and is referenced.
   KI_CP6.:E05TOU  was found in the system file and is referenced.
   GF_LCP6_M.:E05TOU  was found in the system file and is referenced.
   GM_LCP6_M.:E05TOU  was found in the system file and is referenced.
   GU_LCP6_M.:E05TOU  was found in the system file and is referenced.
   GJ_LCP6_M.:E05TOU  was found in the system file and is referenced.
   GH_LCP6_M.:E05TOU  was found in the system file and is referenced.
      No diagnostics issued in procedure QCU$USE_CALL.

   Procedure QCU$USE_CALL requires 490 words for executable code.
   Procedure QCU$USE_CALL requires 200 words of local(AUTO) storage.

    No errors detected in file QCU$USE.:E05TSI    .

PL6.E3A0      #002=QCU$USE_CALL File=QCU$USE.:E05TSI                             WED 07/30/97 05:18 Page:92

 Object Unit name= QCU$USE_CALL                               File name= QCU$USE.:E05TOU
 UTS= JUL 30 '97 05:18:13.92 WED                              Compiler= PL-6/E31         Sev=      00
 SharedLib= :SHARED_LCP6_SYSTEM                               Alt SharedLib=


    ****  Control sections  ****

 Sect   Type Bound  Init  Size HexSiz  Section name
    0  RoData even  UTS     11      B  QCU$USE_CALL
    1   Proc  even  none   490    1EA  QCU$USE_CALL
    2  RoData even  none    10      A  QCU$USE_CALL

    ****  Entry defs  ****

                              Check   Calling
                             calling  sequence
  Sect HexLoc Primary Altret sequence   type   Parms  Name
     1      0   yes            yes      Std        1  QCU$USE_CALL

  ****  Entry refs  ****

         Check        Calling
        calling       sequence
Altret sequence SRef   type   Args  Name
         yes           Std       4 QCE$ERROR_M$INTERNAL
         yes           Std       4 QCE$ERROR
         yes           Std       0 QAT$TALLYHO_USE
                       nStd      0 X6A_AUTO_1
                       nStd      0 X6D_MID
                       nStd      0 X6A_ARET
PL6.E3A0      #002=QCU$USE_CALL File=QCU$USE.:E05TSI                             WED 07/30/97 05:18 Page:93

  ****  Data refs  ****

  Flags:  r = read only, s = secondary
Flgs Name                             Flgs Name                             Flgs Name
     QI_1                                  QI_ZERO                               QI_4_CHAR_ALPHANUMERIC
     QI_31_DIGIT_SLS_DISPLAY               QI_16_BIT_BINARY                      QI_32_BIT_BINARY
     QI_31_DIGIT_ST_PACKED                 QI_PICTURE_STRING                r    G$ROS$
PL6.E3A0      #002=QCU$USE_CALL File=QCU$USE.:E05TSI                             WED 07/30/97 05:18 Page:94


      524        1        /*M* QCU$USE_CALL:  Enter a USE PROCEDURE.  */
      525        2        /*T***********************************************************/
      526        3        /*T*                                                         */
      527        4        /*T* Copyright (c) Bull HN Information Systems Inc., 1997    */
      528        5        /*T*                                                         */
      529        6        /*T***********************************************************/
      530        7        /*X* DMC,PLM = 4,IND=0,DCI=4,CSI=2,IAD=2,DTI=2,AND,ECI=0,DIN=2,STI=2 */
      531        8
      532        9        /*P*  NAME:         QCU$USE_CALL
      533       10              PURPOSE:      To actually begin executing a USE PROCEDURE.
      534       11              DESCRIPTION:  QCU$USE[_whatever] has been called and has set
      535       12                            up a USE PROCEDURE address.  This routine saves
      536       13                            away current QI_1 stuff and executes the code
      537       14                            within the USE PROCEDURE.
      538       15        */
      539       16
      540       17        QCU$USE_CALL: PROC ( QCU@USE );

     17   1 000000  D380 0000 0000  xent QCU$USE_CALL    LNJ,B5   X6A_AUTO_1
          1 000003       00C8 0001                       DC       200,1

      541       18
      542       19        /*D*  NAME:         QCU$USE_CALL
      543       20              CALL:         CALL QCU$USE_CALL;
      544       21              PARAMETERS:   None.
      545       22              INTERFACE:    Called by QCU$USE when it's determined that a
      546       23                            USE PROCEDURE for an exceptional condition is
      547       24                            appropriate and must therefore be executed.
      548       25              ENVIRONMENT:  Saves a copy of the current QI_1 for replacement
      549       26                            of whatever QI_1 contains after exit from the
      550       27                            USE PROCEDURE.  Also saves some QI$GZ_FIELD stuff.
      551       28              INPUT:        QI_1, etc.
      552       29              OUTPUT:       QI_1, etc.
      553       30              SCRATCH:      A spare copy of QI_1,
      554       31                            various otter stuff.
      555       32              DESCRIPTION:  Well, this code ain't never been even close to
PL6.E3A0      #002=QCU$USE_CALL File=QCU$USE.:E05TSI                             WED 07/30/97 05:18 Page:95
      556       33                            tested and I'm really not sure what all it's
      557       34                            supposed to take into account.  This is more-or-less
      558       35                            just a translation of unused code from B03 SIL6
      559       36                            to C00 PL6, so that nothin'd get lost through the
      560       37                            ravages of time.  Best o'luck.  JJL, C00.
      561       38        */
      562       39
      563       40          %INCLUDE LCP_6;
      564      231          %FPT_FDS ( FPTN = FPT@FDS,
      565      232                     STCLASS = AUTO );
      566      254          %FPT_GDS ( FPTN = FPT@GDS,
      567      255                     STCLASS = AUTO );
      568      279          %FPT_GDS ( FPTN = FPT_GDS_CONSTANT,
      569      280                     STCLASS = CONSTANT );
      570      304          %VLP_SEGMENT ( FPTN = VLP@SEGMENT,
      571      305                         STCLASS = AUTO );
      572      326          %VLP_SEGMENT ( FPTN = VLP_SEGMENT_CONSTANT,
      573      327                         STCLASS = CONSTANT );
      574      348          %G$EXCFR;
      575      730          %G$TCB;
      576      751    1     DCL G$TCB$ PTR SYMREF;
      577      752
      578      753          %INCLUDE QG_MACRO_M;
      579      890          %INCLUDE QI_EQUATES_E;
      580     1249          %INCLUDE QI_PERR_C;
      581     1417          %INCLUDE QI_MACROS_M;
      582     6475          %QI$ALL;
      583    17588
      584    17589    1     DCL FIELD_INDEX UBIN;
      585    17590    1     DCL FRAME$ PTR;
      586    17591    1     DCL FRAME_INDEX UBIN;
      587    17592    1     DCL FRAME_STATUS$ PTR;
      588    17593    1     DCL GZ_FIELD$ PTR;
      589    17594    1     DCL SAVED_GZ_FIELD$ PTR;
      590    17595    1     DCL TOTAL_FIELD_COUNT UBIN;
      591    17596
      592    17597          %QI_1 ( NAME = QI@1,
PL6.E3A0      #002=QCU$USE_CALL File=QCU$USE.:E05TSI                             WED 07/30/97 05:18 Page:96
      593    17598                  STCLASS = AUTO );
      594    18568
      595    18569    1     DCL QAT$TALLYHO_USE ENTRY;
      596    18570    1     DCL QCE$ERROR ENTRY (4);
      597    18571    1     DCL QCE$ERROR_M$INTERNAL ENTRY (4);
      598    18572
      599    18573          %SET LISTMAC = '1'B;
      600    18574
      601    18575          %INCLUDE QCU_USE_M;
      602    18629          %QCU@USE ( STCLASS = PARAM );
             18630            %BEGIN_MACRO;
             18631            %SET LISTDIR = '0'B;
             18644    1     DCL 1 QCU@USE PARAM ALIGNED,
             18645    1           2 CURR_FRAME$ PTR,
             18646                          /* Pointer to DAD of current frame or ADDR (NIL).  */
             18647    1           2 CURR_NODE$ PTR,
             18648                          /* Pointer to current node or ADDR (NIL).  */
             18649    1           2 USE_DEFAULT_IO UBIN,
             18650                          /* For USE procedures which default applies
             18651                             (see corresponding EQUs).  */
             18652    1           2 IS_TIME_TO_SAVE_AWAY_FIELDS BIT(1) ALIGNED,
             18653                          /* If IS_TIME_TO_SAVE_AWAY_FIELDS, then
             18654                             save the fields within the bounds of
             18655                             FRAME_START_INDEX, FRAME_STOP_INDEX,
             18656                             FIELD_START_INDEX, and FIELD_STOP_INDEX
             18657                             before calling the USE procedure.  */
             18658    1           2 FRAME_START_INDEX UBIN,
             18659                          /* Foist frame of the CURRENT.FORM$
             18660                             involved with the I-O error.  */
             18661    1           2 FRAME_STOP_INDEX UBIN,
             18662                          /* Larst frame of the CURRENT.FORM$
             18663                             involved with the I-O error.  */
             18664    1           2 IS_FIELD_INDEXES_VALID BIT(1) ALIGNED,
             18665                          /* If IS_FIELD_INDEXES_VALID, use them;
             18666                             else use all the fields in the frame.  */
             18667    1           2 FIELD_START_INDEX UBIN,
             18668                          /* Starting index into QI$GZ_FIELD
PL6.E3A0      #002=QCU$USE_CALL File=QCU$USE.:E05TSI                             WED 07/30/97 05:18 Page:97
             18669                             which may have values "pushed".  */
             18670    1           2 FIELD_STOP_INDEX UBIN,
             18671                          /* Stopping index into QI$GZ_FIELD
             18672                             which may have values "pushed".  */
             18673    1           2 IS_CURSOR_POSITION_VALID BIT(1) ALIGNED,
             18674                          /* If IS_CURSOR_POSITION_VALID, use it;
             18675                             else allow cursor to default to upper-left-most field.  */
             18676    1           2 CURSOR_POSITION BIT(16) ALIGNED,
             18677                          /* POSition of the field on which to place the cursor.  */
             18678    1           2 STATUS UBIN;
             18679                          /* Returned action code; see corresponding EQUs.  */
             18686            %ENDIF;
      603    18689
      604    18690          %SET LISTMAC = '0'B;
      605    18691        %EJECT;
PL6.E3A0      #002=QCU$USE_CALL File=QCU$USE.:E05TSI                             WED 07/30/97 05:18 Page:98
      606    18692    1       QI_1.SPECIAL_NAMES.RETRY$ -> QI$UBYTE_A (0) = QI_ZERO;

  18692   1 000005  E280 0000 0000  xsym                 LLH,R6   QI_ZERO
          1 000008  EC80 0000 008A  xsym                 LDB,B6   QI_1+138
          1 00000B  E786                                 STH,R6   ,B6

      607    18693
      608    18694    1       IF QI_1.CURRENT.FORM$ -> QI$FILE.WORD0_FLAGS.TYPE = %QI#TYPE_FORM

  18694   1 00000C  EC80 0000 0076  xsym                 LDB,B6   QI_1+118
          1 00000F  E806                                 LDR,R6   ,B6
          1 000010  E570 000F                            AND,R6   15,IMO
          1 000012  6D0B                                 CMV,R6   11
          1 000013  0981 00FA                            BNE      s:18940,PREL
          1 000015  DCC7 0004                            LDB,B5   @QCU@USE,AUTO
          1 000017  89C5 0005                            CMZ      5,B5
          1 000019  0881 00F4                            BAGE     s:18940,PREL

      609    18695    1         AND QCU@USE.IS_TIME_TO_SAVE_AWAY_FIELDS
      610    18696    1       THEN
      611    18697    1   GOTTA_START_INDEX:
      612    18698    2         DO;

  18698   1                              GOTTA_START_IND*null
      613    18699
      614    18700    2           TOTAL_FIELD_COUNT = 0;

  18700   1 00001B  8747 0023            GOTTA_START_IND*CL       TOTAL_FIELD_COUNT,AUTO

      615    18701
      616    18702    2   COUNT_THEM_FIELDS:
      617    18703    2           DO FRAME_INDEX =
      618    18704    3             QCU@USE.FRAME_START_INDEX TO QCU@USE.FRAME_STOP_INDEX;

  18704   1 00001D  D845 0006            COUNT_THEM_FIEL*LDR,R5   6,B5
          1 00001F  DF47 001C                            STR,R5   FRAME_INDEX,AUTO
          1 000021  0F81 0034                            B        s:18797+2,PREL
PL6.E3A0      #002=QCU$USE_CALL File=QCU$USE.:E05TSI                             WED 07/30/97 05:18 Page:99

      619    18705
      620    18706                  %PROC_ADDRESS ( THING@P =
             18706                      "QI_1.CURRENT.FORM$ -> QI$FORM_FILE.FRAME_LIST_A@P ( FRAME_INDEX )",
      621    18707                  CHECK_FOR_INDIRECTION = NO,
      622    18708                  RESULT$ = FRAME$ );

  18726   1 000023  EC80 0000 0076  xsym                 LDB,B6   QI_1+118
          1 000026  B847 001C                            LDR,R3   FRAME_INDEX,AUTO
          1 000028  3E0B                                 ADV,R3   11
          1 000029  A836                                 LDR,R2   ,B6,R3
          1 00002A  F852                                 LDR,R7   R2
          1 00002B  6C00                                 LDV,R6   0
          1 00002C  8400 0000 0002  xsym                 AID      QI_1+2
          1 00002F  8D47 001A                            SDI      FRAME$,AUTO

      623    18745
      624    18746                  %DATA_ADDRESS ( THING@D = "FRAME$ -> QI$FRAME.STATUS_AREA@D",
      625    18747                  CHECK_FOR_INDIRECTION = NO,
      626    18748                  RESULT$ = FRAME_STATUS$ );

  18766   1 000031  DCC7 001A                            LDB,B5   FRAME$,AUTO
          1 000033  9845 0006                            LDR,R1   6,B5
          1 000035  F851                                 LDR,R7   R1
          1 000036  6C00                                 LDV,R6   0
          1 000037  8400 0000 0000  xsym                 AID      QI_1
          1 00003A  8D47 001D                            SDI      FRAME_STATUS$,AUTO

      627    18785
      628    18786    3             IF QCU@USE.IS_FIELD_INDEXES_VALID

  18786   1 00003C  CCC7 0004                            LDB,B4   @QCU@USE,AUTO
          1 00003E  89C4 0008                            CMZ      8,B4
          1 000040  0881 000A                            BAGE     s:18793,PREL

      629    18787    3             THEN
      630    18788    4               DO;
PL6.E3A0      #002=QCU$USE_CALL File=QCU$USE.:E05TSI                             WED 07/30/97 05:18 Page:100

      631    18789    4                 QCU@USE.FIELD_START_INDEX = FRAME_STATUS$ -> QI$FRAME_STATUS.GZ.
             18789                          FIELD_START_INDEX;

  18789   1 000042  BCC7 001D                            LDB,B3   FRAME_STATUS$,AUTO
          1 000044  D803                                 LDR,R5   ,B3
          1 000045  DF44 0009                            STR,R5   9,B4

      632    18790    4                 QCU@USE.FIELD_STOP_INDEX = FRAME_STATUS$ -> QI$FRAME_STATUS.GZ.
             18790                          FIELD_STOP_INDEX;

  18790   1 000047  C843 0001                            LDR,R4   1,B3
          1 000049  CF44 000A                            STR,R4   10,B4

      633    18791    4               END;

      634    18792
      635    18793    3             TOTAL_FIELD_COUNT = TOTAL_FIELD_COUNT +

  18793   1 00004B  D847 0023                            LDR,R5   TOTAL_FIELD_COUNT,AUTO
          1 00004D  DA44 000A                            ADD,R5   10,B4
          1 00004F  D244 0009                            SUB,R5   9,B4
          1 000051  5E01                                 ADV,R5   1
          1 000052  DF47 0023                            STR,R5   TOTAL_FIELD_COUNT,AUTO

      636    18794    3               QCU@USE.FIELD_STOP_INDEX - QCU@USE.FIELD_START_INDEX +
      637    18795    3               1;
      638    18796
      639    18797    3           END COUNT_THEM_FIELDS;

  18797   1 000054  8AC7 001C                            INC      FRAME_INDEX,AUTO
          1 000056  ECC7 0004                            LDB,B6   @QCU@USE,AUTO
          1 000058  E847 001C                            LDR,R6   FRAME_INDEX,AUTO
          1 00005A  E946 0007                            CMR,R6   7,B6
          1 00005C  03C7                                 BLE      s:18726,SPREL

      640    18798
PL6.E3A0      #002=QCU$USE_CALL File=QCU$USE.:E05TSI                             WED 07/30/97 05:18 Page:101
      641    18799        /*  Something like this:  ya know.  */
      642    18800    2           FPT@GDS = FPT_GDS_CONSTANT;

  18800   1 00005D  AB80 0000 0000  00                   LAB,B2   FPT_GDS_CONSTANT
          1 000060  2C00                                 LDV,R2   0
          1 000061  6C10                                 LDV,R6   16
          1 000062  BB87                                 LAB,B3   ,AUTO
          1 000063  3C1C                                 LDV,R3   28
          1 000064  0008                                 MMM

      643    18801    2           VBASE ( FPT@GDS.V_ ) = ADDR ( FPT@GDS.V );

  18801   1 000065  DBC7 0014                            LAB,B5   FPT@GDS+6,AUTO
          1 000067  DFC7 000F                            STB,B5   FPT@GDS+1,AUTO

      644    18802    2          FPT@GDS.V.PAGES = ( ( TOTAL_FIELD_COUNT * SIZEW (QI$GZ_FIELD) ) / 256 ) + 1;

  18802   1 000069  E847 0023                            LDR,R6   TOTAL_FIELD_COUNT,AUTO
          1 00006B  6F0C                                 MLV,R6   12
          1 00006C  6048                                 SOR,R6   8
          1 00006D  6E01                                 ADV,R6   1
          1 00006E  EF47 0014                            STR,R6   FPT@GDS+6,AUTO

      645    18803    2           VLP@SEGMENT = VLP_SEGMENT_CONSTANT;

  18803   1 000070  AB80 0000 0000  00                   LAB,B2   FPT_GDS_CONSTANT
          1 000073  2C10                                 LDV,R2   16
          1 000074  6C06                                 LDV,R6   6
          1 000075  BB87                                 LAB,B3   ,AUTO
          1 000076  3C2C                                 LDV,R3   44
          1 000077  0008                                 MMM

      646    18804
      647    18805    2           CALL M$GDS ( FPT@GDS )

  18805   1 000078  BBC7 000E                            LAB,B3   FPT@GDS,AUTO
          1 00007A  B870 0902                            LDR,R3   2306,IMO
PL6.E3A0      #002=QCU$USE_CALL File=QCU$USE.:E05TSI                             WED 07/30/97 05:18 Page:102
          1 00007C  0001                                 MCL
          1 00007D       0003                            DC       s:18808,PREL
          1 00007E  0F81 000A                            B        s:18811,PREL

      648    18806    2           WHENALTRETURN
      649    18807    3             DO;

      650    18808    3               CALL QCE$ERROR ( %E$INSUFFICIENT_MEMORY );

  18808   1 000080  BB80 0000 0001  02                   LAB,B3   +1
          1 000083  CBF0 0100                            LAB,B4   256,IMO
          1 000085  E380 0000 0000  xent                 LNJ,B6   QCE$ERROR
          1 000088       0001                            DC       s:18811,PREL

      651    18809    3             END;

      652    18810
      653    18811    2           SAVED_GZ_FIELD$ = VLP@SEGMENT.BASE$;

  18811   1 000089  ECC7 0016                            LDB,B6   VLP@SEGMENT,AUTO
          1 00008B  EFC7 0021                            STB,B6   SAVED_GZ_FIELD$,AUTO

      654    18812    2           QI_1.PREVIOUS_INTERFACE_START$ = VLP@SEGMENT.BASE$;

  18812   1 00008D  EF80 0000 0093  xsym                 STB,B6   QI_1+147

      655    18813
      656    18814    2   SAVE_THEM_FRAMES:
      657    18815    2           DO FRAME_INDEX =
      658    18816    3             QCU@USE.FRAME_START_INDEX TO QCU@USE.FRAME_STOP_INDEX;

  18816   1 000090  DCC7 0004            SAVE_THEM_FRAMESLDB,B5   @QCU@USE,AUTO
          1 000092  E845 0006                            LDR,R6   6,B5
          1 000094  EF47 001C                            STR,R6   FRAME_INDEX,AUTO
          1 000096  0F81 006D                            B        s:18936+2,PREL

      659    18817
PL6.E3A0      #002=QCU$USE_CALL File=QCU$USE.:E05TSI                             WED 07/30/97 05:18 Page:103
      660    18818                  %PROC_ADDRESS ( THING@P =
             18818                      "QI_1.CURRENT.FORM$ -> QI$FORM_FILE.FRAME_LIST_A@P ( FRAME_INDEX )",
      661    18819                  CHECK_FOR_INDIRECTION = NO,
      662    18820                  RESULT$ = FRAME$ );

  18838   1 000098  EC80 0000 0076  xsym                 LDB,B6   QI_1+118
          1 00009B  B847 001C                            LDR,R3   FRAME_INDEX,AUTO
          1 00009D  3E0B                                 ADV,R3   11
          1 00009E  A836                                 LDR,R2   ,B6,R3
          1 00009F  F852                                 LDR,R7   R2
          1 0000A0  6C00                                 LDV,R6   0
          1 0000A1  8400 0000 0002  xsym                 AID      QI_1+2
          1 0000A4  8D47 001A                            SDI      FRAME$,AUTO

      663    18857
      664    18858                  %DATA_ADDRESS ( THING@D = "FRAME$ -> QI$FRAME.STATUS_AREA@D",
      665    18859                  CHECK_FOR_INDIRECTION = NO,
      666    18860                  RESULT$ = FRAME_STATUS$ );

  18878   1 0000A6  DCC7 001A                            LDB,B5   FRAME$,AUTO
          1 0000A8  9845 0006                            LDR,R1   6,B5
          1 0000AA  F851                                 LDR,R7   R1
          1 0000AB  6C00                                 LDV,R6   0
          1 0000AC  8400 0000 0000  xsym                 AID      QI_1
          1 0000AF  8D47 001D                            SDI      FRAME_STATUS$,AUTO

      667    18897
      668    18898    3             IF QCU@USE.IS_FIELD_INDEXES_VALID

  18898   1 0000B1  CCC7 0004                            LDB,B4   @QCU@USE,AUTO
          1 0000B3  89C4 0008                            CMZ      8,B4
          1 0000B5  0881 000A                            BAGE     s:18905,PREL

      669    18899    3             THEN
      670    18900    4               DO;

      671    18901    4                 QCU@USE.FIELD_START_INDEX = FRAME_STATUS$ -> QI$FRAME_STATUS.GZ.
PL6.E3A0      #002=QCU$USE_CALL File=QCU$USE.:E05TSI                             WED 07/30/97 05:18 Page:104
             18901                          FIELD_START_INDEX;

  18901   1 0000B7  BCC7 001D                            LDB,B3   FRAME_STATUS$,AUTO
          1 0000B9  D803                                 LDR,R5   ,B3
          1 0000BA  DF44 0009                            STR,R5   9,B4

      672    18902    4                 QCU@USE.FIELD_STOP_INDEX = FRAME_STATUS$ -> QI$FRAME_STATUS.GZ.
             18902                          FIELD_STOP_INDEX;

  18902   1 0000BC  C843 0001                            LDR,R4   1,B3
          1 0000BE  CF44 000A                            STR,R4   10,B4

      673    18903    4               END;

      674    18904
      675    18905    3             GZ_FIELD$ = PINCRW ( FRAME_STATUS$ -> QI$FRAME_STATUS.GZ.START$,

  18905   1 0000C0  B844 0009                            LDR,R3   9,B4
          1 0000C2  ECC7 001D                            LDB,B6   FRAME_STATUS$,AUTO
          1 0000C4  BCC6 0006                            LDB,B3   6,B6
          1 0000C6  BFC7 00C6                            STB,B3   QI@1+162,AUTO
          1 0000C8  F853                                 LDR,R7   R3
          1 0000C9  6C00                                 LDV,R6   0
          1 0000CA  9B80 0000 0003  02                   LAB,B1   +3
          1 0000CD  D380 0000 0000  xent                 LNJ,B5   X6D_MID
          1 0000D0  8447 00C6                            AID      QI@1+162,AUTO
          1 0000D2  8D47 001F                            SDI      GZ_FIELD$,AUTO

      676    18906    3               QCU@USE.FIELD_START_INDEX * LENGTHW (QI$GZ_FIELD) );
      677    18907
      678    18908    3   SAVE_THEM_FIELDS:
      679    18909    3             DO FIELD_INDEX =
      680    18910    4               QCU@USE.FIELD_START_INDEX TO QCU@USE.FIELD_STOP_INDEX;

  18910   1 0000D4  ECC7 0004            SAVE_THEM_FIELDSLDB,B6   @QCU@USE,AUTO
          1 0000D6  D846 0009                            LDR,R5   9,B6
          1 0000D8  DF47 0019                            STR,R5   FIELD_INDEX,AUTO
PL6.E3A0      #002=QCU$USE_CALL File=QCU$USE.:E05TSI                             WED 07/30/97 05:18 Page:105
          1 0000DA  0F81 0020                            B        s:18934+2,PREL

      681    18911
      682    18912        /*  Actually, the B03 code implied that the only stuff that need be
      683    18913            saved away is:  1)  GZ_FIELD.OPERATION.IS_OPERATE
      684    18914                            2)  GZ_FIELD.OPERATION.IS_DONE
      685    18915                            3)  GZ_FIELD.INDICATORS$ -> QI$INDICATORS.ENABLED_FLAGS
      686    18916                            4)  GZ_FIELD.INDICATORS$ -> QI$INDICATORS.IS_ACTIVE
      687    18917                            5)  GZ_FIELD.STATUS.OFFSET
      688    18918                            6)  GZ_FIELD.USE_STUFF
      689    18919                            7)  GZ_FIELD.FPL_ERROR
      690    18920                            8)  GZ_FIELD.STATUS.WAS_IO_EVER_DONE
      691    18921                            9)  GZ_FIELD.INDICATORS$ -> QI$INDICATORS.STATE_FLAGS
      692    18922            Hmmm.
      693    18923        */
      694    18924    4               SAVED_GZ_FIELD$ -> QI$GZ_FIELD =

  18924   1 0000DC  ACC7 001F                            LDB,B2   GZ_FIELD$,AUTO
          1 0000DE  2C00                                 LDV,R2   0
          1 0000DF  6C17                                 LDV,R6   23
          1 0000E0  BCC7 0021                            LDB,B3   SAVED_GZ_FIELD$,AUTO
          1 0000E2  3C00                                 LDV,R3   0
          1 0000E3  0008                                 MMM

      695    18925    4                 GZ_FIELD$ -> QI$GZ_FIELD;
      696    18926
      697    18927    4               GZ_FIELD$ -> QI$GZ_FIELD.OPERATION.IS_OPERATE = %NO;

  18927   1 0000E4  ECC7 001F                            LDB,B6   GZ_FIELD$,AUTO
          1 0000E6  8846 000B                            LBF,'8000'X       11,B6
          1 0000E8       8000

      698    18928    4               GZ_FIELD$ -> QI$GZ_FIELD.OPERATION.IS_DONE = %NO;

  18928   1 0000E9  8846 000B                            LBF,'2000'X       11,B6
  18928   1 0000EB       2000

PL6.E3A0      #002=QCU$USE_CALL File=QCU$USE.:E05TSI                             WED 07/30/97 05:18 Page:106
      699    18929    4               GZ_FIELD$ -> QI$GZ_FIELD.USE_STUFF = 0;

  18929   1 0000EC  8846 000B                            LBF,'0F00'X       11,B6
  18929   1 0000EE       0F00

      700    18930
      701    18931    4               GZ_FIELD$ = PINCRW ( GZ_FIELD$, SIZEW (QI$GZ_FIELD) );

  18931   1 0000EF  DBC6 000C                            LAB,B5   12,B6
          1 0000F1  DFC7 001F                            STB,B5   GZ_FIELD$,AUTO

      702    18932    4               SAVED_GZ_FIELD$ = PINCRW ( SAVED_GZ_FIELD$, SIZEW (QI$GZ_FIELD) );

  18932   1 0000F3  ECC7 0021                            LDB,B6   SAVED_GZ_FIELD$,AUTO
          1 0000F5  CBC6 000C                            LAB,B4   12,B6
          1 0000F7  CFC7 0021                            STB,B4   SAVED_GZ_FIELD$,AUTO

      703    18933
      704    18934    4             END SAVE_THEM_FIELDS;

  18934   1 0000F9  8AC7 0019                            INC      FIELD_INDEX,AUTO
          1 0000FB  ECC7 0004                            LDB,B6   @QCU@USE,AUTO
          1 0000FD  E847 0019                            LDR,R6   FIELD_INDEX,AUTO
          1 0000FF  E946 000A                            CMR,R6   10,B6
          1 000101  03DB                                 BLE      s:18924,SPREL

      705    18935
      706    18936    3           END SAVE_THEM_FRAMES;

  18936   1 000102  8AC7 001C                            INC      FRAME_INDEX,AUTO
          1 000104  ECC7 0004                            LDB,B6   @QCU@USE,AUTO
          1 000106  E847 001C                            LDR,R6   FRAME_INDEX,AUTO
          1 000108  E946 0007                            CMR,R6   7,B6
          1 00010A  0381 FF8D                            BLE      s:18838,PREL

      707    18937
      708    18938    2         END GOTTA_START_INDEX;
PL6.E3A0      #002=QCU$USE_CALL File=QCU$USE.:E05TSI                             WED 07/30/97 05:18 Page:107

  18938   1 00010C  0F81 0007                            B        s:18942,PREL

      709    18939    1       ELSE
      710    18940    1         QI_1.PREVIOUS_INTERFACE_START$ = ADDR (NIL);

  18940   1 00010E  DB80 0000 0000                       LAB,B5   0
          1 000111  DF80 0000 0093  xsym                 STB,B5   QI_1+147

      711    18941
      712    18942    1       QI@1 = QI_1;

  18942   1 000114  AB80 0000 0000  xsym                 LAB,B2   QI_1
          1 000117  2C00                                 LDV,R2   0
          1 000118  E870 0142                            LDR,R6   322,IMO
          1 00011A  BB87                                 LAB,B3   ,AUTO
          1 00011B  3C48                                 LDV,R3   72
          1 00011C  0008                                 MMM

      713    18943
      714    18944            %PROC_ADDRESS ( THING@P = "QI_1.USE_PROCEDURE@P",
      715    18945            CHECK_FOR_INDIRECTION = NO,
      716    18946            RESULT$ = "QI_1.INSTR$" );

  18964   1 00011D  F800 0000 0092  xsym                 LDR,R7   QI_1+146
          1 000120  6C00                                 LDV,R6   0
          1 000121  8400 0000 0002  xsym                 AID      QI_1+2
          1 000124  8D00 0000 0006  xsym                 SDI      QI_1+6

      717    18983
      718    18984    1       CALL QAT$TALLYHO_USE;

  18984   1 000127  CBF0 0000                            LAB,B4   0,IMO
          1 000129  E380 0000 0000  xent                 LNJ,B6   QAT$TALLYHO_USE
          1 00012C       0001                            DC       s:18986,PREL

      719    18985
PL6.E3A0      #002=QCU$USE_CALL File=QCU$USE.:E05TSI                             WED 07/30/97 05:18 Page:108
      720    18986    1       QI_1 = QI@1;

  18986   1 00012D  AB87                                 LAB,B2   ,AUTO
          1 00012E  2C48                                 LDV,R2   72
          1 00012F  E870 0142                            LDR,R6   322,IMO
          1 000131  BB80 0000 0000  xsym                 LAB,B3   QI_1
          1 000134  3C00                                 LDV,R3   0
          1 000135  0008                                 MMM

      721    18987
      722    18988    1       IF QI_1.PREVIOUS_INTERFACE_START$ ~= ADDR (NIL)

  18988   1 000136  8D80 0000 0093  xsym                 CMN      QI_1+147
          1 000139  0901 00AD                            BE       s:19127,PREL

      723    18989    1       THEN
      724    18990    2         DO;

      725    18991
      726    18992    2           IF QI_1.CURRENT.FORM_STATUS$ -> QI$FORM_STATUS.CURRENT.USAGE.CLOSED

  18992   1 00013B  EC80 0000 0078  xsym                 LDB,B6   QI_1+120
          1 00013E  8286                                 LB,'0200'X        ,B6
          1 00013F       0200
          1 000140  0581 000C                            BBF      s:19000,PREL

      727    18993    2           THEN
      728    18994    3             DO;

      729    18995        /*  Don't ask me why it checks USAGE instead of OPEN_FLAGS here...
      730    18996            B03 says:  "HERE => ABORT IT".  */
      731    18997    3               CALL QCE$ERROR ( QI_1.ERROR_STATUS );

  18997   1 000142  BB80 0000 0005  02                   LAB,B3   +5
          1 000145  CBF0 0100                            LAB,B4   256,IMO
          1 000147  E380 0000 0000  xent                 LNJ,B6   QCE$ERROR
          1 00014A       0001                            DC       s:18998,PREL
PL6.E3A0      #002=QCU$USE_CALL File=QCU$USE.:E05TSI                             WED 07/30/97 05:18 Page:109

      732    18998    3             END;

  18998   1 00014B  0F81 009B                            B        s:19127,PREL

      733    18999    2           ELSE
      734    19000    3             DO;

      735    19001
      736    19002    3   RESTORE_THEM_FRAMES:
      737    19003    3               DO FRAME_INDEX =
      738    19004    4                 QCU@USE.FRAME_START_INDEX TO QCU@USE.FRAME_STOP_INDEX;

  19004   1 00014D  DCC7 0004            RESTORE_THEM_FR*LDB,B5   @QCU@USE,AUTO
          1 00014F  E845 0006                            LDR,R6   6,B5
          1 000151  EF47 001C                            STR,R6   FRAME_INDEX,AUTO
          1 000153  0F81 006E                            B        s:19111+2,PREL

      739    19005
      740    19006                      %PROC_ADDRESS ( THING@P =
             19006                        "QI_1.CURRENT.FORM$ -> QI$FORM_FILE.FRAME_LIST_A@P ( FRAME_INDEX )"
             19006                          ,
      741    19007                      CHECK_FOR_INDIRECTION = NO,
      742    19008                      RESULT$ = FRAME$ );

  19026   1 000155  EC80 0000 0076  xsym                 LDB,B6   QI_1+118
          1 000158  B847 001C                            LDR,R3   FRAME_INDEX,AUTO
          1 00015A  3E0B                                 ADV,R3   11
          1 00015B  A836                                 LDR,R2   ,B6,R3
          1 00015C  F852                                 LDR,R7   R2
          1 00015D  6C00                                 LDV,R6   0
          1 00015E  8400 0000 0002  xsym                 AID      QI_1+2
          1 000161  8D47 001A                            SDI      FRAME$,AUTO

      743    19045
      744    19046                      %DATA_ADDRESS ( THING@D = "FRAME$ -> QI$FRAME.STATUS_AREA@D",
      745    19047                      CHECK_FOR_INDIRECTION = NO,
PL6.E3A0      #002=QCU$USE_CALL File=QCU$USE.:E05TSI                             WED 07/30/97 05:18 Page:110
      746    19048                      RESULT$ = FRAME_STATUS$ );

  19066   1 000163  DCC7 001A                            LDB,B5   FRAME$,AUTO
          1 000165  9845 0006                            LDR,R1   6,B5
          1 000167  F851                                 LDR,R7   R1
          1 000168  6C00                                 LDV,R6   0
          1 000169  8400 0000 0000  xsym                 AID      QI_1
          1 00016C  8D47 001D                            SDI      FRAME_STATUS$,AUTO

      747    19085
      748    19086    4                 IF QCU@USE.IS_FIELD_INDEXES_VALID

  19086   1 00016E  CCC7 0004                            LDB,B4   @QCU@USE,AUTO
          1 000170  89C4 0008                            CMZ      8,B4
          1 000172  0881 000A                            BAGE     s:19093,PREL

      749    19087    4                 THEN
      750    19088    5                   DO;

      751    19089    5                     QCU@USE.FIELD_START_INDEX = FRAME_STATUS$ -> QI$FRAME_STATUS.GZ.
             19089                              FIELD_START_INDEX;

  19089   1 000174  BCC7 001D                            LDB,B3   FRAME_STATUS$,AUTO
          1 000176  D803                                 LDR,R5   ,B3
          1 000177  DF44 0009                            STR,R5   9,B4

      752    19090    5                     QCU@USE.FIELD_STOP_INDEX = FRAME_STATUS$ -> QI$FRAME_STATUS.GZ.
             19090                              FIELD_STOP_INDEX;

  19090   1 000179  C843 0001                            LDR,R4   1,B3
          1 00017B  CF44 000A                            STR,R4   10,B4

      753    19091    5                   END;

      754    19092
      755    19093    4                 GZ_FIELD$ = PINCRW ( FRAME_STATUS$ -> QI$FRAME_STATUS.GZ.START$,

PL6.E3A0      #002=QCU$USE_CALL File=QCU$USE.:E05TSI                             WED 07/30/97 05:18 Page:111
  19093   1 00017D  B844 0009                            LDR,R3   9,B4
          1 00017F  ECC7 001D                            LDB,B6   FRAME_STATUS$,AUTO
          1 000181  BCC6 0006                            LDB,B3   6,B6
          1 000183  BFC7 00C6                            STB,B3   QI@1+162,AUTO
          1 000185  F853                                 LDR,R7   R3
          1 000186  6C00                                 LDV,R6   0
          1 000187  9B80 0000 0003  02                   LAB,B1   +3
          1 00018A  D380 0000 0000  xent                 LNJ,B5   X6D_MID
          1 00018D  8447 00C6                            AID      QI@1+162,AUTO
          1 00018F  8D47 001F                            SDI      GZ_FIELD$,AUTO

      756    19094    4                   QCU@USE.FIELD_START_INDEX * LENGTHW (QI$GZ_FIELD) );
      757    19095
      758    19096    4   RESTORE_THEM_FIELDS:
      759    19097    4                 DO FIELD_INDEX =
      760    19098    5                   QCU@USE.FIELD_START_INDEX TO QCU@USE.FIELD_STOP_INDEX;

  19098   1 000191  ECC7 0004            RESTORE_THEM_FI*LDB,B6   @QCU@USE,AUTO
          1 000193  D846 0009                            LDR,R5   9,B6
          1 000195  DF47 0019                            STR,R5   FIELD_INDEX,AUTO
          1 000197  0F81 0021                            B        s:19109+2,PREL

      761    19099
      762    19100    5                   IF GZ_FIELD$ -> QI$GZ_FIELD.INDICATORS$ -> QI$INDICATORS.IS_ACTIVE

  19100   1 000199  ECC7 001F                            LDB,B6   GZ_FIELD$,AUTO
          1 00019B  DC86                                 LDB,B5   ,B6
          1 00019C  8985                                 CMZ      ,B5
          1 00019D  0881 000D                            BAGE     s:19106,PREL
          1 00019F  82C6 0006                            LB,'1000'X        6,B6
          1 0001A1       1000
          1 0001A2  0501 0008                            BBT      s:19106,PREL

      763    19101    5                     AND NOT GZ_FIELD$ -> QI$GZ_FIELD.STATUS.WAS_IO_EVER_DONE
      764    19102    5                   THEN
      765    19103    5                     GZ_FIELD$ -> QI$GZ_FIELD =

PL6.E3A0      #002=QCU$USE_CALL File=QCU$USE.:E05TSI                             WED 07/30/97 05:18 Page:112
  19103   1 0001A4  ACC7 0021                            LDB,B2   SAVED_GZ_FIELD$,AUTO
          1 0001A6  2C00                                 LDV,R2   0
          1 0001A7  6C17                                 LDV,R6   23
          1 0001A8  BB86                                 LAB,B3   ,B6
          1 0001A9  3C00                                 LDV,R3   0
          1 0001AA  0008                                 MMM

      766    19104    5                       SAVED_GZ_FIELD$ -> QI$GZ_FIELD;
      767    19105
      768    19106    5                   GZ_FIELD$ = PINCRW ( GZ_FIELD$, SIZEW (QI$GZ_FIELD) );

  19106   1 0001AB  ECC7 001F                            LDB,B6   GZ_FIELD$,AUTO
          1 0001AD  DBC6 000C                            LAB,B5   12,B6
          1 0001AF  DFC7 001F                            STB,B5   GZ_FIELD$,AUTO

      769    19107    5                   SAVED_GZ_FIELD$ = PINCRW ( SAVED_GZ_FIELD$, SIZEW (QI$GZ_FIELD) );

  19107   1 0001B1  ECC7 0021                            LDB,B6   SAVED_GZ_FIELD$,AUTO
          1 0001B3  CBC6 000C                            LAB,B4   12,B6
          1 0001B5  CFC7 0021                            STB,B4   SAVED_GZ_FIELD$,AUTO

      770    19108
      771    19109    5                 END RESTORE_THEM_FIELDS;

  19109   1 0001B7  8AC7 0019                            INC      FIELD_INDEX,AUTO
          1 0001B9  ECC7 0004                            LDB,B6   @QCU@USE,AUTO
          1 0001BB  E847 0019                            LDR,R6   FIELD_INDEX,AUTO
          1 0001BD  E946 000A                            CMR,R6   10,B6
          1 0001BF  03DA                                 BLE      s:19100,SPREL

      772    19110
      773    19111    4               END RESTORE_THEM_FRAMES;

  19111   1 0001C0  8AC7 001C                            INC      FRAME_INDEX,AUTO
          1 0001C2  ECC7 0004                            LDB,B6   @QCU@USE,AUTO
          1 0001C4  E847 001C                            LDR,R6   FRAME_INDEX,AUTO
          1 0001C6  E946 0007                            CMR,R6   7,B6
PL6.E3A0      #002=QCU$USE_CALL File=QCU$USE.:E05TSI                             WED 07/30/97 05:18 Page:113
          1 0001C8  0381 FF8C                            BLE      s:19026,PREL

      774    19112
      775    19113    3               FPT@FDS = FPT@GDS; /* whatever.... */

  19113   1 0001CA  AB87                                 LAB,B2   ,AUTO
          1 0001CB  2C1C                                 LDV,R2   28
          1 0001CC  6C10                                 LDV,R6   16
          1 0001CD  BB87                                 LAB,B3   ,AUTO
          1 0001CE  3C0C                                 LDV,R3   12
          1 0001CF  0008                                 MMM

      776    19114
      777    19115    3               CALL M$FDS ( FPT@FDS )

  19115   1 0001D0  BBC7 0006                            LAB,B3   FPT@FDS,AUTO
          1 0001D2  B870 0903                            LDR,R3   2307,IMO
          1 0001D4  0001                                 MCL
          1 0001D5       0003                            DC       s:19118,PREL
          1 0001D6  0F81 000A                            B        s:19121,PREL

      778    19116    3               WHENALTRETURN
      779    19117    4                 DO;

      780    19118    4                   CALL QCE$ERROR_M$INTERNAL ( %E$UNEXPECTED_ALTRET );

  19118   1 0001D8  BB80 0000 0008  02                   LAB,B3   +8
          1 0001DB  CBF0 0100                            LAB,B4   256,IMO
          1 0001DD  E380 0000 0000  xent                 LNJ,B6   QCE$ERROR_M$INTERNAL
          1 0001E0       0001                            DC       s:19121,PREL

      781    19119    4                 END;

      782    19120
      783    19121    3               QI_1.PREVIOUS_INTERFACE_START$ = ADDR (NIL);

  19121   1 0001E1  EB80 0000 0000                       LAB,B6   0
PL6.E3A0      #002=QCU$USE_CALL File=QCU$USE.:E05TSI                             WED 07/30/97 05:18 Page:114
          1 0001E4  EF80 0000 0093  xsym                 STB,B6   QI_1+147

      784    19122
      785    19123    3             END;

      786    19124
      787    19125    2         END;

      788    19126
      789    19127    1       RETURN;

  19127   1 0001E7  C380 0000 0000  xent                 LNJ,B4   X6A_ARET
      790    19128
      791    19129    1   END QCU$USE_CALL;

PL6.E3A0      #002=QCU$USE_CALL File=QCU$USE.:E05TSI                             WED 07/30/97 05:18 Page:115
--  Include file information  --

   QCU_USE_M.:E05TOU  is referenced.
   QI_MACROS_M.:E05TOU  is referenced.
   QI_PERR_C.:E05TOU  is referenced.
   QI_EQUATES_E.:E05TOU  is referenced.
   QG_MACRO_M.:E05TOU  is referenced.
   LCP_6.:E05TOU  cannot be made into a system file and is referenced.
   G_LCP6_E.:E05TOU  was found in the system file and is referenced.
   GT_LCP6_M.:E05TOU  was found in the system file and is referenced.
   KI_CP6.:E05TOU  was found in the system file and is referenced.
   GF_LCP6_M.:E05TOU  was found in the system file and is referenced.
   GM_LCP6_M.:E05TOU  was found in the system file and is referenced.
   GU_LCP6_M.:E05TOU  was found in the system file and is referenced.
   GJ_LCP6_M.:E05TOU  was found in the system file and is referenced.
   GH_LCP6_M.:E05TOU  was found in the system file and is referenced.
      No diagnostics issued in procedure QCU$USE_CALL.
PL6.E3A0      #002=QCU$USE_CALL File=QCU$USE.:E05TSI                             WED 07/30/97 05:18 Page:116

 **** Variables and constants ****

  ****  Section 000 RoData QCU$USE_CALL

  ****  Scalars and arrays  ****
HexLoc.c.b A Datatyp(siz) R M Lvl/name                 HexLoc.c.b A Datatyp(siz) R M Lvl/name

     0-0-0/w STRC(128)   r     1 FPT_GDS_CONSTANT           8-0-0/w STRC(48)    r     1 VLP_SEGMENT_CONSTANT

  ****  Auto variables  ****

  ****  Scalars and arrays  ****
HexLoc.c.b A Datatyp(siz) R M Lvl/name                 HexLoc.c.b A Datatyp(siz) R M Lvl/name

     4-0-0/w PTR         r     1 @QCU@USE                  19-0-0/w UBIN(16)    r     1 FIELD_INDEX
     6-0-0/w STRC(128)   r     1 FPT@FDS                    E-0-0/w STRC(128)   r     1 FPT@GDS
    1A-0-0/w PTR         r     1 FRAME$                    1C-0-0/w UBIN(16)    r     1 FRAME_INDEX
    1D-0-0/w PTR         r     1 FRAME_STATUS$             1F-0-0/w PTR         r     1 GZ_FIELD$
    *0-0-0/w STRC(224)   r     1 QCU@USE                   24-0-0/d STRC(2576)  r     1 QI@1
    21-0-0/w PTR         r     1 SAVED_GZ_FIELD$           23-0-0/w UBIN(16)    r     1 TOTAL_FIELD_COUNT
    16-0-0/w STRC(48)    r     1 VLP@SEGMENT

  ****  SYMREF variables  ****

  ****  Scalars and arrays  ****
HexLoc.c.b A Datatyp(siz) R M Lvl/name                 HexLoc.c.b A Datatyp(siz) R M Lvl/name

     0-0-0/d STRC(2576)  r     1 QI_1                       0-0-0/w UBIN(8)     r     1 QI_ZERO

  ****  BASED and DCB variables  ****

  ****  Scalars and arrays  ****
HexLoc.c.b A Datatyp(siz) R M Lvl/name                 HexLoc.c.b A Datatyp(siz) R M Lvl/name

     0-0-0/w STRC(176)   r     1 QI$FILE                    0-0-0/w STRC(192)   r     1 QI$FORM_FILE
     0-0-0/w STRC(144)   r     1 QI$FORM_STATUS             0-0-0/w STRC(128)   r     1 QI$FRAME
     0-0-0/w STRC(208)   r     1 QI$FRAME_STATUS            0-0-0/w STRC(184)   r     1 QI$GZ_FIELD
PL6.E3A0      #002=QCU$USE_CALL File=QCU$USE.:E05TSI                             WED 07/30/97 05:18 Page:117
     0-0-0/w STRC(16)    r     1 QI$INDICATORS
     0-0-0/c UBIN(8)     r     1 QI$UBYTE_A(0:0)
     0-0-0/c ASTR(8)     r     1 QI$VARIABLE_IDENTIFIER


   Procedure QCU$USE_CALL requires 490 words for executable code.
   Procedure QCU$USE_CALL requires 200 words of local(AUTO) storage.

    No errors detected in file QCU$USE.:E05TSI    .
PL6.E3A0      #002=QCU$USE_CALL File=QCU$USE.:E05TSI                             WED 07/30/97 05:18 Page:118
          *** CROSS REFERENCE LISTING ***
**     DENOTES     IDENTIFIER DEFINITION
<<                 IDENTIFIER'S VALUE SET
>>                 IDENTIFIER'S VALUE USED
<>                 IDENTIFIER SET AND/OR USED
--                 IDENTIFIER REFERENCED
PL6.E3A0      #002=QCU$USE_CALL File=QCU$USE.:E05TSI                             WED 07/30/97 05:18 Page:119
          MINI XREF LISTING

FIELD_INDEX
     17589**DCL     18910<<DOINDEX 19098<<DOINDEX
FPT@FDS
       245**DCL     19113<<ASSIGN  19115<>CALL
FPT@GDS
       268**DCL     18800<<ASSIGN  18805<>CALL    19113>>ASSIGN
FPT@GDS.V
       271**DCL     18801--ASSIGN
FPT@GDS.V.PAGES
       275**DCL     18802<<ASSIGN
FPT@GDS.V_
       271**DCL     18801<<ASSIGN
FPT_GDS_CONSTANT
       293**DCL     18800>>ASSIGN
FPT_GDS_CONSTANT.V
       296**DCL       296--DCLINIT
FRAME$
     17590**DCL     18726<<ASSIGN  18766>>ASSIGN  18838<<ASSIGN  18878>>ASSIGN  19026<<ASSIGN  19066>>ASSIGN
FRAME_INDEX
     17591**DCL     18704<<DOINDEX 18726>>ASSIGN  18816<<DOINDEX 18838>>ASSIGN  19004<<DOINDEX 19026>>ASSIGN
FRAME_STATUS$
     17592**DCL     18766<<ASSIGN  18789>>ASSIGN  18790>>ASSIGN  18878<<ASSIGN  18901>>ASSIGN  18902>>ASSIGN
     18905>>ASSIGN  19066<<ASSIGN  19089>>ASSIGN  19090>>ASSIGN  19093>>ASSIGN
G$EXCFR.P$$
       417**DCL       417--REDEF     417--REDEF
G$EXCFR.PREVSZ
       367**DCL       367--REDEF
G$EXCFR.TRLR.EVID
       654**DCL       672--REDEF     680--REDEF     680--REDEF
G$EXCFR.TRLR.SUBC
       631**DCL       631--REDEF     649--REDEF     653--REDEF     653--REDEF
GZ_FIELD$
PL6.E3A0      #002=QCU$USE_CALL File=QCU$USE.:E05TSI                             WED 07/30/97 05:18 Page:120
     17593**DCL     18905<<ASSIGN  18924>>ASSIGN  18927>>ASSIGN  18928>>ASSIGN  18929>>ASSIGN  18931<<ASSIGN
     18931>>ASSIGN  19093<<ASSIGN  19100>>IF      19100>>IF      19103>>ASSIGN  19106<<ASSIGN  19106>>ASSIGN
M$FDS
       207**DCL-ENT 19115--CALL
M$GDS
       207**DCL-ENT 18805--CALL
QAT$TALLYHO_USE
     18569**DCL-ENT 18984--CALL
QCE$ERROR
     18570**DCL-ENT 18808--CALL    18997--CALL
QCE$ERROR_M$INTERNAL
     18571**DCL-ENT 19118--CALL
QCU@USE
     18644**DCL        17--PROC
QCU@USE.FIELD_START_INDEX
     18667**DCL     18789<<ASSIGN  18793>>ASSIGN  18901<<ASSIGN  18905>>ASSIGN  18910>>DOINDEX 19089<<ASSIGN
     19093>>ASSIGN  19098>>DOINDEX
QCU@USE.FIELD_STOP_INDEX
     18670**DCL     18790<<ASSIGN  18793>>ASSIGN  18902<<ASSIGN  18910>>DOINDEX 19090<<ASSIGN  19098>>DOINDEX
QCU@USE.FRAME_START_INDEX
     18658**DCL     18704>>DOINDEX 18816>>DOINDEX 19004>>DOINDEX
QCU@USE.FRAME_STOP_INDEX
     18661**DCL     18704>>DOINDEX 18816>>DOINDEX 19004>>DOINDEX
QCU@USE.IS_FIELD_INDEXES_VALID
     18664**DCL     18786>>IF      18898>>IF      19086>>IF
QCU@USE.IS_TIME_TO_SAVE_AWAY_FIELDS
     18652**DCL     18694>>IF
QGB_PARAM.DVE.DVBYTE.VFC
     12072**DCL     12073--REDEF
QGB_PARAM.DVE.EOMCHAR
     12084**DCL     12085--REDEF
QGB_PARAM.MSG$
     12066**DCL     12067--REDEF
QGB_PARAM.UHDR$
     12091**DCL     12092--REDEF
QI$ACTIVATION_STATUS
PL6.E3A0      #002=QCU$USE_CALL File=QCU$USE.:E05TSI                             WED 07/30/97 05:18 Page:121
      9830**DCL      9836--REDEF
QI$CIP
      8671**DCL      8741--REDEF
QI$CIP.CA
      8676**DCL      8680--REDEF    8683--REDEF    8686--REDEF
QI$COBOL_DAD.PSEUDO_CIP
      8915**DCL      8940--REDEF
QI$COBOL_DAD.PSEUDO_CIP.ALPHANUMERIC
      8917**DCL      8922--REDEF
QI$COBOL_DAD.PSEUDO_CIP.NUMERIC.CB
      8923**DCL      8926--REDEF    8929--REDEF
QI$COBOL_DAD.VARIABLE_LENGTH_ITEMS
      8951**DCL      8967--REDEF    8975--REDEF    8983--REDEF
QI$COBOL_DAD.VARIABLE_LENGTH_ITEMS.LEVEL_MULTIPLIERS
      8952**DCL      8962--REDEF    8965--REDEF
QI$COBOL_DAD.WORD0
      8879**DCL      8880--REDEF    8894--REDEF
QI$COBOL_DAD_P_BITS.P
      9019**DCL      9025--REDEF
QI$CONDITION_CONTROL_BLOCK.LIST_A@P
      8505**DCL      8506--REDEF
QI$CONDITION_CONTROL_BLOCK.WORD0_FLAGS
      8501**DCL      8504--REDEF
QI$CONDITION_LEGAL_BLOCK.ARRAY@P
      8538**DCL      8539--REDEF    8540--REDEF
QI$DAD.PSEUDO_CIP
      8818**DCL      8843--REDEF
QI$DAD.PSEUDO_CIP.ALPHANUMERIC
      8820**DCL      8825--REDEF
QI$DAD.PSEUDO_CIP.NUMERIC.CB
      8826**DCL      8829--REDEF    8832--REDEF
QI$DAD.WORD0
      8787**DCL      8788--REDEF
QI$ERROR_MESSAGE_LINE
     12179**DCL     12181--REDEF
QI$ERROR_STATUS
PL6.E3A0      #002=QCU$USE_CALL File=QCU$USE.:E05TSI                             WED 07/30/97 05:18 Page:122
     12176**DCL     12178--REDEF
QI$FIELD_DAD.ELEMENTARY_ITEM.P
      9233**DCL      9240--REDEF
QI$FIELD_DAD.ONE_DIMENSIONAL_ITEM.P
      9253**DCL      9260--REDEF
QI$FIELD_DAD.PSEUDO_CIP
      9160**DCL      9185--REDEF
QI$FIELD_DAD.PSEUDO_CIP.ALPHANUMERIC
      9162**DCL      9167--REDEF
QI$FIELD_DAD.PSEUDO_CIP.NUMERIC.CB
      9168**DCL      9171--REDEF    9174--REDEF
QI$FIELD_DAD.TWO_DIMENSIONAL_ITEM.P
      9273**DCL      9280--REDEF
QI$FIELD_DAD.VARIABLE_LENGTH_ITEMS
      9216**DCL      9232--REDEF    9250--REDEF    9268--REDEF
QI$FIELD_DAD.VARIABLE_LENGTH_ITEMS.LEVEL_MULTIPLIERS
      9217**DCL      9227--REDEF    9230--REDEF
QI$FIELD_DAD.WORD0
      9112**DCL      9113--REDEF
QI$FIELD_DAD.WORD0_FLAGS.IO_FLAGS
      9116**DCL      9121--REDEF
QI$FIELD_DAD_P.P
      9314**DCL      9321--REDEF
QI$FIELD_STATUS.INDICATORS
      9980**DCL     10012--REDEF
QI$FIELD_STATUS.INDICATORS.ENABLED_FLAGS
      9984**DCL      9989--REDEF
QI$FIELD_STATUS.INDICATORS.OPEN_FLAGS
      9996**DCL     10003--REDEF
QI$FIELD_STATUS.INDICATORS.STATE_FLAGS
      9990**DCL      9995--REDEF
QI$FILE.WORD0
      9436**DCL      9437--REDEF
QI$FILE.WORD0_FLAGS.TYPE
      9445**DCL     18694>>IF
QI$FILE_STATUS.INDICATORS
PL6.E3A0      #002=QCU$USE_CALL File=QCU$USE.:E05TSI                             WED 07/30/97 05:18 Page:123
     10273**DCL     10305--REDEF
QI$FILE_STATUS.INDICATORS.ENABLED_FLAGS
     10277**DCL     10282--REDEF
QI$FILE_STATUS.INDICATORS.OPEN_FLAGS
     10289**DCL     10296--REDEF
QI$FILE_STATUS.INDICATORS.STATE_FLAGS
     10283**DCL     10288--REDEF
QI$FORM_FILE.FRAME_LIST_A@P
      9544**DCL     18726>>ASSIGN  18838>>ASSIGN  19026>>ASSIGN
QI$FORM_FILE.USE_PROCEDURE
      9536**DCL      9543--REDEF
QI$FORM_FILE.WORD0
      9490**DCL      9491--REDEF
QI$FORM_STATUS.CURRENT.USAGE.CLOSED
     10350**DCL     18992>>IF
QI$FORM_STATUS.INDICATORS
     10394**DCL     10426--REDEF
QI$FORM_STATUS.INDICATORS.ENABLED_FLAGS
     10398**DCL     10403--REDEF
QI$FORM_STATUS.INDICATORS.OPEN_FLAGS
     10410**DCL     10417--REDEF
QI$FORM_STATUS.INDICATORS.STATE_FLAGS
     10404**DCL     10409--REDEF
QI$FRAME.STATUS_AREA@D
      9667**DCL     18766>>ASSIGN  18878>>ASSIGN  19066>>ASSIGN
QI$FRAME.WORD0
      9651**DCL      9652--REDEF
QI$FRAME_STATUS.GZ.FIELD_START_INDEX
     10576**DCL     18789>>ASSIGN  18901>>ASSIGN  19089>>ASSIGN
QI$FRAME_STATUS.GZ.FIELD_STOP_INDEX
     10578**DCL     18790>>ASSIGN  18902>>ASSIGN  19090>>ASSIGN
QI$FRAME_STATUS.GZ.START$
     10586**DCL     18905>>ASSIGN  19093>>ASSIGN
QI$FRAME_STATUS.INDICATORS
     10623**DCL     10655--REDEF
QI$FRAME_STATUS.INDICATORS.ENABLED_FLAGS
PL6.E3A0      #002=QCU$USE_CALL File=QCU$USE.:E05TSI                             WED 07/30/97 05:18 Page:124
     10627**DCL     10632--REDEF
QI$FRAME_STATUS.INDICATORS.OPEN_FLAGS
     10639**DCL     10646--REDEF
QI$FRAME_STATUS.INDICATORS.STATE_FLAGS
     10633**DCL     10638--REDEF
QI$GZ_FIELD
     17502**DCL     18802--ASSIGN  18905--ASSIGN  18924<<ASSIGN  18924>>ASSIGN  18931--ASSIGN  18932--ASSIGN
     19093--ASSIGN  19103<<ASSIGN  19103>>ASSIGN  19106--ASSIGN  19107--ASSIGN
QI$GZ_FIELD.DESCRIPTION.IO_FLAGS
     17505**DCL     17510--REDEF
QI$GZ_FIELD.INDICATORS$
     17503**DCL     19100>>IF
QI$GZ_FIELD.OPERATION.IS_DONE
     17554**DCL     18928<<ASSIGN
QI$GZ_FIELD.OPERATION.IS_OPERATE
     17549**DCL     18927<<ASSIGN
QI$GZ_FIELD.STATUS.WAS_IO_EVER_DONE
     17537**DCL     19100>>IF
QI$GZ_FIELD.USE_STUFF
     17558**DCL     18929<<ASSIGN
QI$IDENTIFIER
     12182**DCL     12184--REDEF
QI$INDICATORS
      9894**DCL      9924--REDEF
QI$INDICATORS.ENABLED_FLAGS
      9900**DCL      9905--REDEF
QI$INDICATORS.IS_ACTIVE
      9898**DCL     19100>>IF
QI$INDICATORS.OPEN_FLAGS
      9912**DCL      9919--REDEF
QI$INDICATORS.STATE_FLAGS
      9906**DCL      9911--REDEF
QI$MAJOR_NODE.WORD0
      9350**DCL      9351--REDEF
QI$MAJOR_STATUS.INDICATORS
     10073**DCL     10105--REDEF
PL6.E3A0      #002=QCU$USE_CALL File=QCU$USE.:E05TSI                             WED 07/30/97 05:18 Page:125
QI$MAJOR_STATUS.INDICATORS.ENABLED_FLAGS
     10077**DCL     10082--REDEF
QI$MAJOR_STATUS.INDICATORS.OPEN_FLAGS
     10089**DCL     10096--REDEF
QI$MAJOR_STATUS.INDICATORS.STATE_FLAGS
     10083**DCL     10088--REDEF
QI$MESSAGE_TYPE
     12173**DCL     12175--REDEF
QI$MINOR_NODE.WORD0
      9393**DCL      9394--REDEF
QI$MINOR_STATUS.INDICATORS
     10166**DCL     10198--REDEF
QI$MINOR_STATUS.INDICATORS.ENABLED_FLAGS
     10170**DCL     10175--REDEF
QI$MINOR_STATUS.INDICATORS.OPEN_FLAGS
     10182**DCL     10189--REDEF
QI$MINOR_STATUS.INDICATORS.STATE_FLAGS
     10176**DCL     10181--REDEF
QI$OP_ACCEPT.DATANAME@P
      6581**DCL      6582--REDEF
QI$OP_CALL.EPTR$
      6753**DCL      6754--REDEF
QI$OP_CLEAR.IO_FLAGS
      6786**DCL      6789--REDEF
QI$OP_DISPLAY.FIELD_A@P
      7053**DCL      7054--REDEF
QI$OP_ENABLE.IO_FLAGS
      7140**DCL      7143--REDEF
QI$OP_IFCLS.ATTRIBUTE.TYPE
      7233**DCL      7238--REDEF
QI$OP_INSPECT.TALLYING_FOR_ITEM@P
      7467**DCL      7468--REDEF
QI$OP_INSPECT.TALLYING_INITIAL_ITEM@P
      7469**DCL      7470--REDEF
QI$OP_INSPECT.TALLYING_ITEM@P
      7465**DCL      7466--REDEF
PL6.E3A0      #002=QCU$USE_CALL File=QCU$USE.:E05TSI                             WED 07/30/97 05:18 Page:126
QI$OP_OPEN.IO_FLAGS
      8027**DCL      8030--REDEF
QI$OP_PERFM.BINARY_ITERATION_COUNT@P
      8065**DCL      8066--REDEF
QI$PSEUDO_CIP
      8566**DCL      8590--REDEF
QI$PSEUDO_CIP.ALPHANUMERIC
      8570**DCL      8575--REDEF
QI$PSEUDO_CIP.NUMERIC.CB
      8576**DCL      8579--REDEF    8582--REDEF
QI$TERMINAL_ATTRIBUTES
      9787**DCL      9800--REDEF
QI$TRAN_FILE.WORD0
      9572**DCL      9573--REDEF
QI$TRAN_STATUS.INDICATORS
     10507**DCL     10539--REDEF
QI$TRAN_STATUS.INDICATORS.ENABLED_FLAGS
     10511**DCL     10516--REDEF
QI$TRAN_STATUS.INDICATORS.OPEN_FLAGS
     10523**DCL     10530--REDEF
QI$TRAN_STATUS.INDICATORS.STATE_FLAGS
     10517**DCL     10522--REDEF
QI$UBYTE_A
     12167**DCL     18692<<ASSIGN
QI$VARIABLE_IDENTIFIER.LENGTH
     12186**DCL     12187--IMP-SIZ
QI@1
     17613**DCL     18942<<ASSIGN  18986>>ASSIGN
QI@1.BASE
     17614**DCL     17621--REDEF
QI@1.CURRENT.FILE$
     18505**DCL     18507--REDEF   18509--REDEF
QI@1.CURRENT.FILE_STATUS$
     18511**DCL     18513--REDEF   18515--REDEF
QI@1.DAD
     18309**DCL     18314--REDEF
PL6.E3A0      #002=QCU$USE_CALL File=QCU$USE.:E05TSI                             WED 07/30/97 05:18 Page:127
QI@1.FILE_HEAD
     18492**DCL     18499--REDEF
QI@1.IS_ALL_LIT
     18315**DCL     18320--REDEF
QI@1.IS_FORM_VARIABLE
     18321**DCL     18326--REDEF
QI@1.IS_TEMP
     18327**DCL     18332--REDEF
QI@1.MESSAGE_LINE_DAD.PSEUDO_CIP
     18425**DCL     18450--REDEF
QI@1.MESSAGE_LINE_DAD.PSEUDO_CIP.ALPHANUMERIC
     18427**DCL     18432--REDEF
QI@1.MESSAGE_LINE_DAD.PSEUDO_CIP.NUMERIC.CB
     18433**DCL     18436--REDEF   18439--REDEF
QI@1.MESSAGE_LINE_DAD.WORD0
     18394**DCL     18395--REDEF
QI@1.OFFSET
     18333**DCL     18338--REDEF
QI@1.OP.CIP
     17694**DCL     18145--REDEF
QI@1.OP.CIP.AUX
     18060**DCL     18131--REDEF
QI@1.OP.CIP.AUX.CD
     18105**DCL     18108--REDEF   18112--REDEF   18115--REDEF
QI@1.OP.CIP.S
     17764**DCL     17835--REDEF
QI@1.OP.CIP.S.CD
     17809**DCL     17812--REDEF   17816--REDEF   17819--REDEF
QI@1.OP.CIP.T
     17912**DCL     17983--REDEF
QI@1.OP.CIP.T.CD
     17957**DCL     17960--REDEF   17964--REDEF   17967--REDEF
QI@1.OP.DATA
     18152**DCL     18156--REDEF
QI@1.OP.FILL_CHAR
     18276**DCL     18279--REDEF
PL6.E3A0      #002=QCU$USE_CALL File=QCU$USE.:E05TSI                             WED 07/30/97 05:18 Page:128
QI@1.OP.INX
     18209**DCL     18213--REDEF   18214--REDEF   18218--REDEF
QI@1.OP.LEN
     18192**DCL     18196--REDEF   18197--REDEF   18201--REDEF   18202--REDEF   18206--REDEF
QI@1.OP.PICTURE_STRING
     18262**DCL     18265--REDEF   18266--REDEF   18269--REDEF   18270--REDEF   18273--REDEF
QI@1.OP.ROUND
     18295**DCL     18296--REDEF   18297--REDEF
QI@1.OP.SRCH_VRFY_ELEMS
     18231**DCL     18234--REDEF
QI@1.OPENED_COUNT
     18500**DCL     18503--REDEF
QI@1.OTTER_SPACE
     18339**DCL     18344--REDEF
QI@1.PICTURE_STRING
     18345**DCL     18350--REDEF
QI@1.SPECIAL_NAMES
     18528**DCL     18537--REDEF
QI@1.TYPE
     18351**DCL     18356--REDEF
QI_1
     10714**DCL     18942>>ASSIGN  18986<<ASSIGN
QI_1.BASE
     10715**DCL     10722--REDEF
QI_1.BASE.DATA$
     10716**DCL     18766>>ASSIGN  18878>>ASSIGN  19066>>ASSIGN
QI_1.BASE.PROC$
     10718**DCL     18726>>ASSIGN  18838>>ASSIGN  18964>>ASSIGN  19026>>ASSIGN
QI_1.CURRENT.FILE$
     11606**DCL     11608--REDEF   11610--REDEF
QI_1.CURRENT.FILE_STATUS$
     11612**DCL     11614--REDEF   11616--REDEF
QI_1.CURRENT.FORM$
     11608**DCL     18694>>IF      18726>>ASSIGN  18838>>ASSIGN  19026>>ASSIGN
QI_1.CURRENT.FORM_STATUS$
     11614**DCL     18992>>IF
PL6.E3A0      #002=QCU$USE_CALL File=QCU$USE.:E05TSI                             WED 07/30/97 05:18 Page:129
QI_1.DAD
     11410**DCL     11415--REDEF
QI_1.ERROR_STATUS
     11640**DCL     18997<>CALL
QI_1.FILE_HEAD
     11593**DCL     11600--REDEF
QI_1.INSTR$
     10723**DCL     18964<<ASSIGN
QI_1.IS_ALL_LIT
     11416**DCL     11421--REDEF
QI_1.IS_FORM_VARIABLE
     11422**DCL     11427--REDEF
QI_1.IS_TEMP
     11428**DCL     11433--REDEF
QI_1.MESSAGE_LINE_DAD.PSEUDO_CIP
     11526**DCL     11551--REDEF
QI_1.MESSAGE_LINE_DAD.PSEUDO_CIP.ALPHANUMERIC
     11528**DCL     11533--REDEF
QI_1.MESSAGE_LINE_DAD.PSEUDO_CIP.NUMERIC.CB
     11534**DCL     11537--REDEF   11540--REDEF
QI_1.MESSAGE_LINE_DAD.WORD0
     11495**DCL     11496--REDEF
QI_1.OFFSET
     11434**DCL     11439--REDEF
QI_1.OP.CIP
     10795**DCL     11246--REDEF
QI_1.OP.CIP.AUX
     11161**DCL     11232--REDEF
QI_1.OP.CIP.AUX.CD
     11206**DCL     11209--REDEF   11213--REDEF   11216--REDEF
QI_1.OP.CIP.S
     10865**DCL     10936--REDEF
QI_1.OP.CIP.S.CD
     10910**DCL     10913--REDEF   10917--REDEF   10920--REDEF
QI_1.OP.CIP.T
     11013**DCL     11084--REDEF
PL6.E3A0      #002=QCU$USE_CALL File=QCU$USE.:E05TSI                             WED 07/30/97 05:18 Page:130
QI_1.OP.CIP.T.CD
     11058**DCL     11061--REDEF   11065--REDEF   11068--REDEF
QI_1.OP.DATA
     11253**DCL     11257--REDEF
QI_1.OP.FILL_CHAR
     11377**DCL     11380--REDEF
QI_1.OP.INX
     11310**DCL     11314--REDEF   11315--REDEF   11319--REDEF
QI_1.OP.LEN
     11293**DCL     11297--REDEF   11298--REDEF   11302--REDEF   11303--REDEF   11307--REDEF
QI_1.OP.LEN.AUX
     11296**DCL     12197--IMP-SIZ
QI_1.OP.LEN.S
     11294**DCL     12193--IMP-SIZ
QI_1.OP.LEN.T
     11295**DCL     12195--IMP-SIZ
QI_1.OP.PICTURE_STRING
     11363**DCL     11366--REDEF   11367--REDEF   11370--REDEF   11371--REDEF   11374--REDEF
QI_1.OP.ROUND
     11396**DCL     11397--REDEF   11398--REDEF
QI_1.OP.SRCH_VRFY_ELEMS
     11332**DCL     11335--REDEF
QI_1.OPENED_COUNT
     11601**DCL     11604--REDEF
QI_1.OTTER_SPACE
     11440**DCL     11445--REDEF
QI_1.PICTURE_STRING
     11446**DCL     11451--REDEF
QI_1.PREVIOUS_INTERFACE_START$
     11652**DCL     18812<<ASSIGN  18940<<ASSIGN  18988>>IF      19121<<ASSIGN
QI_1.SPECIAL_NAMES
     11629**DCL     11638--REDEF
QI_1.SPECIAL_NAMES.RETRY$
     11636**DCL     18692>>ASSIGN
QI_1.TYPE
     11452**DCL     11457--REDEF
PL6.E3A0      #002=QCU$USE_CALL File=QCU$USE.:E05TSI                             WED 07/30/97 05:18 Page:131
QI_1.USE_PROCEDURE@P
     11649**DCL     18964>>ASSIGN
QI_16_BIT_BINARY
     16642**DCL     16712--REDEF
QI_16_BIT_BINARY.CB
     16661**DCL     16664--REDEF   16668--REDEF   16671--REDEF
QI_31_DIGIT_SLS_DISPLAY
     16475**DCL     16545--REDEF
QI_31_DIGIT_SLS_DISPLAY.CD
     16522**DCL     16525--REDEF   16529--REDEF   16532--REDEF
QI_31_DIGIT_ST_PACKED
     16977**DCL     17047--REDEF
QI_31_DIGIT_ST_PACKED.CP
     17010**DCL     17013--REDEF   17017--REDEF   17020--REDEF
QI_32_BIT_BINARY
     16809**DCL     16879--REDEF
QI_32_BIT_BINARY.CB
     16828**DCL     16831--REDEF   16835--REDEF   16838--REDEF
QI_4_CHAR_ALPHANUMERIC
     16307**DCL     16377--REDEF
QI_4_CHAR_ALPHANUMERIC.CA
     16312**DCL     16316--REDEF   16319--REDEF   16322--REDEF
QI_ACCUMULATOR_DAD.CIP
     17320**DCL     17391--REDEF
QI_ACCUMULATOR_DAD.CIP.CP
     17351**DCL     17354--REDEF   17358--REDEF   17361--REDEF
QI_ALR.CIP
     12272**DCL     12723--REDEF
QI_ALR.CIP.AUX
     12638**DCL     12709--REDEF
QI_ALR.CIP.AUX.CA
     12641**DCL     12645--REDEF   12648--REDEF   12651--REDEF
QI_ALR.CIP.S
     12342**DCL     12413--REDEF
QI_ALR.CIP.S.CA
     12345**DCL     12349--REDEF   12352--REDEF   12355--REDEF
PL6.E3A0      #002=QCU$USE_CALL File=QCU$USE.:E05TSI                             WED 07/30/97 05:18 Page:132
QI_ALR.CIP.T
     12490**DCL     12561--REDEF
QI_ALR.CIP.T.CA
     12493**DCL     12497--REDEF   12500--REDEF   12503--REDEF
QI_ALR.DATA
     12730**DCL     12734--REDEF
QI_ALR.FILL_CHAR
     12854**DCL     12857--REDEF
QI_ALR.INX
     12787**DCL     12791--REDEF   12792--REDEF   12796--REDEF
QI_ALR.LEN
     12770**DCL     12774--REDEF   12775--REDEF   12779--REDEF   12780--REDEF   12784--REDEF
QI_ALR.PICTURE_STRING
     12840**DCL     12843--REDEF   12844--REDEF   12847--REDEF   12848--REDEF   12851--REDEF
QI_ALR.ROUND
     12873**DCL     12874--REDEF   12875--REDEF
QI_ALR.SRCH_VRFY_ELEMS
     12809**DCL     12812--REDEF
QI_MAT.CIP
     15611**DCL     16062--REDEF
QI_MAT.CIP.AUX
     15977**DCL     16048--REDEF
QI_MAT.CIP.AUX.CA
     15980**DCL     15984--REDEF   15987--REDEF   15990--REDEF
QI_MAT.CIP.S
     15681**DCL     15752--REDEF
QI_MAT.CIP.S.CA
     15684**DCL     15688--REDEF   15691--REDEF   15694--REDEF
QI_MAT.CIP.T
     15829**DCL     15900--REDEF
QI_MAT.CIP.T.CA
     15832**DCL     15836--REDEF   15839--REDEF   15842--REDEF
QI_MAT.DATA
     16069**DCL     16073--REDEF
QI_MAT.DEC
     16137**DCL     16141--REDEF   16142--REDEF   16146--REDEF
PL6.E3A0      #002=QCU$USE_CALL File=QCU$USE.:E05TSI                             WED 07/30/97 05:18 Page:133
QI_MAT.FILL_CHAR
     16193**DCL     16196--REDEF
QI_MAT.LEN
     16109**DCL     16113--REDEF   16114--REDEF   16118--REDEF   16119--REDEF   16123--REDEF
QI_MAT.PICTURE_STRING
     16179**DCL     16182--REDEF   16183--REDEF   16186--REDEF   16187--REDEF   16190--REDEF
QI_MAT.ROUND
     16212**DCL     16213--REDEF   16214--REDEF
QI_MAT.SRCH_VRFY_ELEMS
     16148**DCL     16151--REDEF
QI_PICTURE_STRING
     17145**DCL     17215--REDEF
QI_PICTURE_STRING.CA
     17150**DCL     17154--REDEF   17157--REDEF   17160--REDEF
QI_SRCH_VRFY.CIP
     14942**DCL     15393--REDEF
QI_SRCH_VRFY.CIP.AUX
     15308**DCL     15379--REDEF
QI_SRCH_VRFY.CIP.AUX.CA
     15311**DCL     15315--REDEF   15318--REDEF   15321--REDEF
QI_SRCH_VRFY.CIP.S
     15012**DCL     15083--REDEF
QI_SRCH_VRFY.CIP.S.CA
     15015**DCL     15019--REDEF   15022--REDEF   15025--REDEF
QI_SRCH_VRFY.CIP.T
     15160**DCL     15231--REDEF
QI_SRCH_VRFY.CIP.T.CA
     15163**DCL     15167--REDEF   15170--REDEF   15173--REDEF
QI_SRCH_VRFY.DATA
     15400**DCL     15404--REDEF
QI_SRCH_VRFY.DEC
     15468**DCL     15472--REDEF   15473--REDEF   15477--REDEF
QI_SRCH_VRFY.FILL_CHAR
     15524**DCL     15527--REDEF
QI_SRCH_VRFY.ROUND
     15543**DCL     15544--REDEF   15545--REDEF
PL6.E3A0      #002=QCU$USE_CALL File=QCU$USE.:E05TSI                             WED 07/30/97 05:18 Page:134
QI_SRCH_VRFY.SRCH_RESULT
     15484**DCL     15487--REDEF   15488--REDEF   15491--REDEF   15492--REDEF   15495--REDEF
QI_SRCH_VRFY.SRCH_VRFY_ARGS
     15408**DCL     15412--REDEF   15413--REDEF   15417--REDEF   15418--REDEF   15422--REDEF
QI_SRCH_VRFY.SRCH_VRFY_ELEMS
     15479**DCL     15482--REDEF
QI_TYPE_BINARY_TARGET.CIP
     14269**DCL     14720--REDEF
QI_TYPE_BINARY_TARGET.CIP.AUX
     14635**DCL     14706--REDEF
QI_TYPE_BINARY_TARGET.CIP.AUX.CA
     14638**DCL     14642--REDEF   14645--REDEF   14648--REDEF
QI_TYPE_BINARY_TARGET.CIP.S
     14339**DCL     14410--REDEF
QI_TYPE_BINARY_TARGET.CIP.S.CA
     14342**DCL     14346--REDEF   14349--REDEF   14352--REDEF
QI_TYPE_BINARY_TARGET.CIP.T
     14487**DCL     14558--REDEF
QI_TYPE_BINARY_TARGET.CIP.T.CB
     14504**DCL     14507--REDEF   14511--REDEF   14514--REDEF
QI_TYPE_BINARY_TARGET.DATA
     14727**DCL     14731--REDEF
QI_TYPE_BINARY_TARGET.DEC
     14795**DCL     14799--REDEF   14800--REDEF   14804--REDEF
QI_TYPE_BINARY_TARGET.LEN
     14767**DCL     14771--REDEF   14772--REDEF   14776--REDEF   14777--REDEF   14781--REDEF
QI_TYPE_BINARY_TARGET.PICTURE_STRING
     14837**DCL     14840--REDEF   14841--REDEF   14844--REDEF   14845--REDEF   14848--REDEF
QI_TYPE_BINARY_TARGET.ROUND
     14870**DCL     14871--REDEF   14872--REDEF
QI_TYPE_BINARY_TARGET.SIZE_ERROR
     14856**DCL     14857--REDEF
QI_TYPE_BINARY_TARGET.SRCH_VRFY_ELEMS
     14806**DCL     14809--REDEF
QI_TYPE_DISPLAY_SOURCE.CIP
     12937**DCL     13388--REDEF
PL6.E3A0      #002=QCU$USE_CALL File=QCU$USE.:E05TSI                             WED 07/30/97 05:18 Page:135
QI_TYPE_DISPLAY_SOURCE.CIP.AUX
     13303**DCL     13374--REDEF
QI_TYPE_DISPLAY_SOURCE.CIP.AUX.CA
     13306**DCL     13310--REDEF   13313--REDEF   13316--REDEF
QI_TYPE_DISPLAY_SOURCE.CIP.S
     13007**DCL     13078--REDEF
QI_TYPE_DISPLAY_SOURCE.CIP.S.CD
     13052**DCL     13055--REDEF   13059--REDEF   13062--REDEF
QI_TYPE_DISPLAY_SOURCE.CIP.T
     13155**DCL     13226--REDEF
QI_TYPE_DISPLAY_SOURCE.CIP.T.CA
     13158**DCL     13162--REDEF   13165--REDEF   13168--REDEF
QI_TYPE_DISPLAY_SOURCE.DATA
     13395**DCL     13399--REDEF
QI_TYPE_DISPLAY_SOURCE.DEC
     13463**DCL     13467--REDEF   13468--REDEF   13472--REDEF
QI_TYPE_DISPLAY_SOURCE.LEN
     13435**DCL     13439--REDEF   13440--REDEF   13444--REDEF   13445--REDEF   13449--REDEF
QI_TYPE_DISPLAY_SOURCE.PICTURE_STRING
     13505**DCL     13508--REDEF   13509--REDEF   13512--REDEF   13513--REDEF   13516--REDEF
QI_TYPE_DISPLAY_SOURCE.ROUND
     13538**DCL     13539--REDEF   13540--REDEF
QI_TYPE_DISPLAY_SOURCE.SIZE_ERROR
     13524**DCL     13525--REDEF
QI_TYPE_DISPLAY_SOURCE.SRCH_VRFY_ELEMS
     13474**DCL     13477--REDEF
QI_TYPE_DISPLAY_TARGET.CIP
     13603**DCL     14054--REDEF
QI_TYPE_DISPLAY_TARGET.CIP.AUX
     13969**DCL     14040--REDEF
QI_TYPE_DISPLAY_TARGET.CIP.AUX.CA
     13972**DCL     13976--REDEF   13979--REDEF   13982--REDEF
QI_TYPE_DISPLAY_TARGET.CIP.S
     13673**DCL     13744--REDEF
QI_TYPE_DISPLAY_TARGET.CIP.S.CA
     13676**DCL     13680--REDEF   13683--REDEF   13686--REDEF
PL6.E3A0      #002=QCU$USE_CALL File=QCU$USE.:E05TSI                             WED 07/30/97 05:18 Page:136
QI_TYPE_DISPLAY_TARGET.CIP.T
     13821**DCL     13892--REDEF
QI_TYPE_DISPLAY_TARGET.CIP.T.CD
     13866**DCL     13869--REDEF   13873--REDEF   13876--REDEF
QI_TYPE_DISPLAY_TARGET.DATA
     14061**DCL     14065--REDEF
QI_TYPE_DISPLAY_TARGET.DEC
     14129**DCL     14133--REDEF   14134--REDEF   14138--REDEF
QI_TYPE_DISPLAY_TARGET.LEN
     14101**DCL     14105--REDEF   14106--REDEF   14110--REDEF   14111--REDEF   14115--REDEF
QI_TYPE_DISPLAY_TARGET.PICTURE_STRING
     14171**DCL     14174--REDEF   14175--REDEF   14178--REDEF   14179--REDEF   14182--REDEF
QI_TYPE_DISPLAY_TARGET.ROUND
     14204**DCL     14205--REDEF   14206--REDEF
QI_TYPE_DISPLAY_TARGET.SIZE_ERROR
     14190**DCL     14191--REDEF
QI_TYPE_DISPLAY_TARGET.SRCH_VRFY_ELEMS
     14140**DCL     14143--REDEF
QI_ZERO
     11834**DCL     18692>>ASSIGN
SAVED_GZ_FIELD$
     17594**DCL     18811<<ASSIGN  18924>>ASSIGN  18932<<ASSIGN  18932>>ASSIGN  19103>>ASSIGN  19107<<ASSIGN
     19107>>ASSIGN
TOTAL_FIELD_COUNT
     17595**DCL     18700<<ASSIGN  18793<<ASSIGN  18793>>ASSIGN  18802>>ASSIGN
VLP@SEGMENT
       319**DCL     18803<<ASSIGN
VLP@SEGMENT.BASE
       323**DCL       323--REDEF
VLP@SEGMENT.BASE$
       323**DCL     18811>>ASSIGN  18812>>ASSIGN
VLP_SEGMENT_CONSTANT
       341**DCL     18803>>ASSIGN
VLP_SEGMENT_CONSTANT.BASE
       345**DCL       345--REDEF
