VERSION E05

PL6.E3A0      #001=QCW$WRITE File=QCW$WRITE.:E05TSI                              WED 07/30/97 05:17 Page:1
        1        1        /*M* QCW$WRITE:  Screen WRITE or DISPLAY pre-processing.  */
        2        2        /*T***********************************************************/
        3        3        /*T*                                                         */
        4        4        /*T* Copyright (c) Bull HN Information Systems Inc., 1997    */
        5        5        /*T*                                                         */
        6        6        /*T***********************************************************/
        7        7        /*X* DMC,PLM=4,IND=0,DCI=4,CSI=2,IAD=2,DTI=2,AND,ECI=0,DIN=2,STI=2 */
        8        8
        9        9        /*P*  NAME:         QCW$WRITE
       10       10              PURPOSE:      Do pre-M$WRITE processing of fields.
       11       11              DESCRIPTION:  Edits the contents of fields, then calls QCI$IO_WRITE
       12       12                            before returning to higher-level callers.
       13       13        */
       14       14
       15       15        QCW$WRITE: PROC ( QCW@WRITE );
       16       16
       17       17        /*D*  NAME:         QCW$WRITE
       18       18              CALL:         CALL QCW$WRITE ( QCW@WRITE );
       19       19              PARAMETERS:   QCW@WRITE is a structure which contains information
       20       20                            concerning the fields to be edited and written; it's
       21       21                            generated by invoking the QCW@WRITE %MACRO within the
       22       22                            QCW_WRITE_M %INCLUDE file (see commentary within
       23       23                            that file).
       24       24              INTERFACE:    Called by routines wishing to perform perform
       25       25                            non-message-line terminal M$WRITEs, and further
       26       26                            wishing the output to be edited before the write in
       27       27                            typical FPL fashion (QBD$DISPLAY, QBW$WRITE_FORM).
       28       28              ENVIRONMENT:  Nothing unusual.
       29       29              INPUT:        QI_1, etc.
       30       30              OUTPUT:       QI_1, etc.
       31       31              SCRATCH:      Various otter stuff.
       32       32              DESCRIPTION:  The calling routine (DISPLAY, or WRITE_FORM)
       33       33                            sets up the starting and stopping indices for fields
       34       34                            within the form to be written.
       35       35                            The editing includes:
       36       36                            1)  filling the fields with any applicable
       37       37                                FILL CHARACTERS.
PL6.E3A0      #001=QCW$WRITE File=QCW$WRITE.:E05TSI                              WED 07/30/97 05:17 Page:2
       38       38                            QCI$IO_WRITE is then called to do the actual I-O.
       39       39                              (This module may seem like a waste, since only FILL
       40       40                            CHARACTER filling is done, but it makes the terminal
       41       41                            read and write paths even.  JJL, C00.)
       42       42        */
       43       43
       44       44          %INCLUDE LCP_6;
       45      235
       46      236          %INCLUDE QG_MACRO_M;
       47      373          %INCLUDE QI_EQUATES_E;
       48      732          %INCLUDE QI_PERR_C;
       49      900          %INCLUDE QI_MACROS_M;
       50     5958          %QI$ALL;
       51    17071
       52    17072    1     DCL FILL_INCREMENT SBIN;
       53    17073    1     DCL FILL_INDEX SBIN;
       54    17074    1     DCL FILL_INDEX_STOP SBIN;
       55    17075    1     DCL FIELD_DAD$ PTR;
       56    17076    1     DCL FIELD_DAD_P$ PTR;
       57    17077    1     DCL FIELD_INDEX UBIN;
       58    17078    1     DCL FILL_CHARACTER UBIN;
       59    17079    1     DCL 1 FILL_CHARACTER_MINIMUM_SIZE REDEF FILL_CHARACTER,
       60    17080    1           2 FILL_CHARACTER UBIN(8) UNAL,
       61    17081    1           2 MINIMUM_SIZE UBIN(8) UNAL;
       62    17082    1     DCL GZ_FIELD$ PTR;
       63    17083
       64    17084          %SET LISTMAC = '1'B;
       65    17085
       66    17086          %INCLUDE QCI_IO_WRITE_M;
       67    17121          %QCI@IO_WRITE;
             17122            %BEGIN_MACRO ( STCLASS = STCLASS );
             17123            %SET LISTDIR = '0'B;
             17136    1     DCL 1 QCI@IO_WRITE ALIGNED,
             17137    1           2 FRAME_START_INDEX UBIN,
             17138                          /* Starting index into QI$FORM_FILE.FRAME_LIST_A@P.  */
             17139    1           2 FRAME_STOP_INDEX UBIN,
             17140                          /* Stopping index into QI$FORM_FILE.FRAME_LIST_A@P.  */
PL6.E3A0      #001=QCW$WRITE File=QCW$WRITE.:E05TSI                              WED 07/30/97 05:17 Page:3
             17141    1           2 IS_FIELD_INDEXES_VALID BIT(1) ALIGNED,
             17142                          /* If IS_FIELD_INDEXES_VALID, use them;
             17143                             else use all the fields in the frame.  */
             17144    1           2 FIELD_START_INDEX UBIN,
             17145                          /* Starting index into QI$GZ_FIELD table.  */
             17146    1           2 FIELD_STOP_INDEX UBIN,
             17147                          /* Stopping index into QI$GZ_FIELD table.  */
             17148    1           2 STATUS UBIN,
             17149                          /* Returned status code:  0 -> Immediate return to level 0;
             17150                                                   >0 -> Status is ok.  */
             17151    1           2 FIELD_ERROR_STOP_INDEX UBIN;
             17152                          /* Passed index for QCG$GET_FIELD processing.  */
             17159            %ENDIF;
       68    17162
       69    17163          %INCLUDE QCW_WRITE_M;
       70    17198          %QCW@WRITE;
             17199            %BEGIN_MACRO ( STCLASS = STCLASS );
             17200            %SET LISTDIR = '0'B;
             17213    1     DCL 1 QCW@WRITE ALIGNED,
             17214    1           2 FRAME_START_INDEX UBIN,
             17215                          /* Starting index into QI$FORM_FILE.FRAME_LIST_A@P.  */
             17216    1           2 FRAME_STOP_INDEX UBIN,
             17217                          /* Stopping index into QI$FORM_FILE.FRAME_LIST_A@P.  */
             17218    1           2 IS_FIELD_INDEXES_VALID BIT(1) ALIGNED,
             17219                          /* If IS_FIELD_INDEXES_VALID, use them;
             17220                             else use all the fields in the frame.  */
             17221    1           2 FIELD_START_INDEX UBIN,
             17222                          /* Starting index into QI$GZ_FIELD table.  */
             17223    1           2 FIELD_STOP_INDEX UBIN,
             17224                          /* Stopping index into QI$GZ_FIELD table.  */
             17225    1           2 STATUS UBIN,
             17226                          /* Returned status code:  0 -> Immediate return to level 0;
             17227                                                   >0 -> Status is ok.  */
             17228    1           2 FIELD_ERROR_STOP_INDEX UBIN;
             17229                          /* Passed index for QCG$GET_FIELD processing.  */
             17236            %ENDIF;
       71    17239
PL6.E3A0      #001=QCW$WRITE File=QCW$WRITE.:E05TSI                              WED 07/30/97 05:17 Page:4
       72    17240          %SET LISTMAC = '0'B;
       73    17241
       74    17242    1     DCL QCE$ERROR_INTERNAL ENTRY (4);
       75    17243    1     DCL QCI$IO_WRITE ENTRY (1);
       76    17244
       77    17245        %EJECT;
PL6.E3A0      #001=QCW$WRITE File=QCW$WRITE.:E05TSI                              WED 07/30/97 05:17 Page:5
       78    17246
       79    17247            %IF QI#DEBUG;
       80    17248
       81    17249    1       IF QCW@WRITE.FIELD_START_INDEX >
       82    17250    1         QI_1.CURRENT.FRAME_STATUS$ -> QI$FRAME_STATUS.GZ.FIELD_STOP_INDEX
       83    17251    1       THEN
       84    17252    1         CALL QCE$ERROR_INTERNAL ( %E$INTERNAL_INTERPRETER_ERROR );
       85    17253
       86    17254            %ENDIF;
       87    17255
       88    17256    1       GZ_FIELD$ = PINCRW (
       89    17257    1         QI_1.CURRENT.FRAME_STATUS$ -> QI$FRAME_STATUS.GZ.START$,
       90    17258    1         QCW@WRITE.FIELD_START_INDEX * SIZEW (QI$GZ_FIELD)
       91    17259    1         );
       92    17260
       93    17261    1   PRE_EDIT_THEM_FIELDS:
       94    17262    2       DO FIELD_INDEX = QCW@WRITE.FIELD_START_INDEX TO QCW@WRITE.FIELD_STOP_INDEX;
       95    17263
       96    17264    2   RETRY_FIELD_PRE_EDITING:
       97    17265    2         FIELD_DAD$ = GZ_FIELD$ -> QI$GZ_FIELD.DESCRIPTION.FIELD_DAD$;
       98    17266              /*  Increment past any level_multipliers to get to the
       99    17267                  P_ITEM_A stuff.  */
      100    17268    2         FIELD_DAD_P$ = ADDR (
      101    17269    2           FIELD_DAD$ -> QI$FIELD_DAD.VARIABLE_LENGTH_ITEMS.LEVEL_MULTIPLIER_A
      102    17270    2           ( FIELD_DAD$ -> QI$FIELD_DAD.WORD0_FLAGS.DIMENSION_COUNT )
      103    17271    2           );
      104    17272
      105    17273    2         IF FIELD_DAD_P$ -> QI$FIELD_DAD_P.P.FILL_CHARACTER_MINIMUM_SIZE
      106    17274    2         THEN
      107    17275    2   WE_GOTTA_FILL_CHARACTER:
      108    17276    3           DO;
      109    17277    3             FILL_CHARACTER = FIELD_DAD_P$ -> QI$FIELD_DAD_P.P_ITEM_A (%
             17277                      QI#P_FILL_SIZE_INDEX);
      110    17278    3             IF FILL_CHARACTER_MINIMUM_SIZE.FILL_CHARACTER ~= %QI#BLANK
      111    17279    3             THEN
      112    17280    3   WE_GOTTA_REAL_FILL_CHARACTER:
      113    17281    4               DO;
PL6.E3A0      #001=QCW$WRITE File=QCW$WRITE.:E05TSI                              WED 07/30/97 05:17 Page:6
      114    17282                      /*  Do real different stuff according to
      115    17283                          rightwing-leftwing justification.  */
      116    17284    4                 IF FIELD_DAD$ -> QI$FIELD_DAD.WORD0_FLAGS.IS_JUSTIFIED_RIGHT
      117    17285    4                 THEN
      118    17286    5                   DO;
      119    17287    5                     FILL_INDEX = GZ_FIELD$ -> QI$GZ_FIELD.STATUS.OFFSET;
      120    17288    5                     FILL_INDEX_STOP = GZ_FIELD$ -> QI$GZ_FIELD.DESCRIPTION.LENGTH
      121    17289    5                       + GZ_FIELD$ -> QI$GZ_FIELD.STATUS.OFFSET
      122    17290    5                       - 1;
      123    17291    5                     FILL_INCREMENT = 1;
      124    17292    5                   END;
      125    17293    4                 ELSE
      126    17294    5                   DO;
      127    17295    5                     FILL_INDEX = GZ_FIELD$ -> QI$GZ_FIELD.DESCRIPTION.LENGTH
      128    17296    5                       + GZ_FIELD$ -> QI$GZ_FIELD.STATUS.OFFSET
      129    17297    5                       - 1;
      130    17298    5                     FILL_INDEX_STOP = GZ_FIELD$ -> QI$GZ_FIELD.STATUS.OFFSET;
      131    17299    5                     FILL_INCREMENT = -1;
      132    17300    5                   END;
      133    17301
      134    17302                      /*  This is kind of embarrassing.
      135    17303                          First, there was B03 and previous, in which the output
      136    17304                          side of FILL CHARACTERing was forgotten completely.
      137    17305                          No module equivalent to QCW$WRITE even existed, and this
      138    17306                          FILL stuff on output was patched in.
      139    17307                          Then, there came C00/C01, in which the implementor was
      140    17308                          overly concerned about using CIP routines, since COBOL
      141    17309                          variables can legally be up to 16K characters long.
      142    17310                          The problem is that, in this case, we're working with a
      143    17311                          FRAME SECTION variable, which will be at most 256 characters
      144    17312                          long, practically less than 80, and almost always about 10.
      145    17313                          I apologize for my previous hubris in this area.  After
      146    17314                          whipping up a worst-case testcase (20 fields, 80 characters
      147    17315                          apiece, all to be FILLed completely, alternating LEFT and
      148    17316                          RIGHT JUSTIFIED:  1 PRESENT, 5000 WRITEs, 1 CLEAR so as to
      149    17317                          avoid actually updating the screen), the following loop
      150    17318                          runs in about 1/3 the time the old CIP stuff (which was
PL6.E3A0      #001=QCW$WRITE File=QCW$WRITE.:E05TSI                              WED 07/30/97 05:17 Page:7
      151    17319                          about 3 times as big, too) took.  JJL, D00.  */
      152    17320    4   FILL_LOOP:
      153    17321    5                 DO WHILE (
      154    17322    5                   ( FIELD_DAD$ -> QI$FIELD_DAD.WORD0_FLAGS.IS_JUSTIFIED_RIGHT
      155    17323    5                   AND FILL_INDEX <= FILL_INDEX_STOP )
      156    17324    5                   OR
      157    17325    5                   ( NOT FIELD_DAD$ -> QI$FIELD_DAD.WORD0_FLAGS.IS_JUSTIFIED_RIGHT
      158    17326    5                   AND FILL_INDEX >= FILL_INDEX_STOP ) );
      159    17327
      160    17328    5                   IF GZ_FIELD$ -> QI$GZ_FIELD.STATUS.DATA$ -> QI$UBYTE_A ( FILL_INDEX
             17328                            )
      161    17329    5                     = %QI#BLANK
      162    17330    5                   THEN
      163    17331    5                     GZ_FIELD$ -> QI$GZ_FIELD.STATUS.DATA$ -> QI$UBYTE_A ( FILL_INDEX )
      164    17332    5                       = FILL_CHARACTER_MINIMUM_SIZE.FILL_CHARACTER;
      165    17333    5                   ELSE
      166    17334    5                     EXIT FILL_LOOP;
      167    17335    5                   FILL_INDEX = FILL_INDEX + FILL_INCREMENT;
      168    17336
      169    17337    5                 END FILL_LOOP;
      170    17338    4               END WE_GOTTA_REAL_FILL_CHARACTER;
      171    17339    3           END WE_GOTTA_FILL_CHARACTER;
      172    17340
      173    17341    2   NEXT_FIELD_PLEASE:
      174    17342    2         GZ_FIELD$ = PINCRW ( GZ_FIELD$, SIZEW (QI$GZ_FIELD) );
      175    17343
      176    17344    2       END PRE_EDIT_THEM_FIELDS;
      177    17345
      178    17346    1       QCI@IO_WRITE = QCW@WRITE;
      179    17347
      180    17348    1       CALL QCI$IO_WRITE ( QCI@IO_WRITE );
      181    17349
      182    17350    1       QCW@WRITE.STATUS = QCI@IO_WRITE.STATUS;
      183    17351
      184    17352        /*  IF QCI@IO_WRITE.STATUS = %QI#USE_INVALID_RETURN
      185    17353            THEN
      186    17354              RETURN;  */
PL6.E3A0      #001=QCW$WRITE File=QCW$WRITE.:E05TSI                              WED 07/30/97 05:17 Page:8
      187    17355
      188    17356    1       RETURN;
      189    17357
      190    17358    1   END QCW$WRITE;

PL6.E3A0      #001=QCW$WRITE File=QCW$WRITE.:E05TSI                              WED 07/30/97 05:17 Page:9
--  Include file information  --

   QCW_WRITE_M.:E05TOU  is referenced.
   QCI_IO_WRITE_M.:E05TOU  is referenced.
   QI_MACROS_M.:E05TOU  is referenced.
   QI_PERR_C.:E05TOU  is referenced.
   QI_EQUATES_E.:E05TOU  is referenced.
   QG_MACRO_M.:E05TOU  is referenced.
   LCP_6.:E05TOU  cannot be made into a system file and is referenced.
   G_LCP6_E.:E05TOU  was found in the system file and is referenced.
   GT_LCP6_M.:E05TOU  was found in the system file and is referenced.
   KI_CP6.:E05TOU  was found in the system file and is referenced.
   GF_LCP6_M.:E05TOU  was found in the system file and is referenced.
   GM_LCP6_M.:E05TOU  was found in the system file and is referenced.
   GU_LCP6_M.:E05TOU  was found in the system file and is referenced.
   GJ_LCP6_M.:E05TOU  was found in the system file and is referenced.
   GH_LCP6_M.:E05TOU  was found in the system file and is referenced.
      No diagnostics issued in procedure QCW$WRITE.

   Procedure QCW$WRITE requires 201 words for executable code.
   Procedure QCW$WRITE requires 26 words of local(AUTO) storage.

    No errors detected in file QCW$WRITE.:E05TSI    .

PL6.E3A0      #001=QCW$WRITE File=QCW$WRITE.:E05TSI                              WED 07/30/97 05:17 Page:10

 Object Unit name= QCW$WRITE                                  File name= QCW$WRITE.:E05TOU
 UTS= JUL 30 '97 05:17:59.48 WED                              Compiler= PL-6/E31         Sev=      00
 SharedLib= :SHARED_LCP6_SYSTEM                               Alt SharedLib=


    ****  Control sections  ****

 Sect   Type Bound  Init  Size HexSiz  Section name
    0   Proc  even  none   201     C9  QCW$WRITE
    1  RoData even  none     5      5  QCW$WRITE

    ****  Entry defs  ****

                              Check   Calling
                             calling  sequence
  Sect HexLoc Primary Altret sequence   type   Parms  Name
     0      0   yes            yes      Std        1  QCW$WRITE

  ****  Entry refs  ****

         Check        Calling
        calling       sequence
Altret sequence SRef   type   Args  Name
         yes           Std       4 QCE$ERROR_INTERNAL
         yes           Std       1 QCI$IO_WRITE
                       nStd      0 X6A_AUTO_1
                       nStd      0 X6D_MID
                       nStd      0 X6A_ARET

  ****  Data refs  ****

  Flags:  r = read only, s = secondary
Flgs Name                             Flgs Name                             Flgs Name
     QI_1                                  QI_4_CHAR_ALPHANUMERIC                QI_31_DIGIT_SLS_DISPLAY
     QI_16_BIT_BINARY                      QI_32_BIT_BINARY                      QI_31_DIGIT_ST_PACKED
     QI_PICTURE_STRING                r    G$ROS$
PL6.E3A0      #001=QCW$WRITE File=QCW$WRITE.:E05TSI                              WED 07/30/97 05:17 Page:11


        1        1        /*M* QCW$WRITE:  Screen WRITE or DISPLAY pre-processing.  */
        2        2        /*T***********************************************************/
        3        3        /*T*                                                         */
        4        4        /*T* Copyright (c) Bull HN Information Systems Inc., 1997    */
        5        5        /*T*                                                         */
        6        6        /*T***********************************************************/
        7        7        /*X* DMC,PLM=4,IND=0,DCI=4,CSI=2,IAD=2,DTI=2,AND,ECI=0,DIN=2,STI=2 */
        8        8
        9        9        /*P*  NAME:         QCW$WRITE
       10       10              PURPOSE:      Do pre-M$WRITE processing of fields.
       11       11              DESCRIPTION:  Edits the contents of fields, then calls QCI$IO_WRITE
       12       12                            before returning to higher-level callers.
       13       13        */
       14       14
       15       15        QCW$WRITE: PROC ( QCW@WRITE );

     15   0 000000  D380 0000 0000  xent QCW$WRITE       LNJ,B5   X6A_AUTO_1
          0 000003       001A 0001                       DC       26,1

       16       16
       17       17        /*D*  NAME:         QCW$WRITE
       18       18              CALL:         CALL QCW$WRITE ( QCW@WRITE );
       19       19              PARAMETERS:   QCW@WRITE is a structure which contains information
       20       20                            concerning the fields to be edited and written; it's
       21       21                            generated by invoking the QCW@WRITE %MACRO within the
       22       22                            QCW_WRITE_M %INCLUDE file (see commentary within
       23       23                            that file).
       24       24              INTERFACE:    Called by routines wishing to perform perform
       25       25                            non-message-line terminal M$WRITEs, and further
       26       26                            wishing the output to be edited before the write in
       27       27                            typical FPL fashion (QBD$DISPLAY, QBW$WRITE_FORM).
       28       28              ENVIRONMENT:  Nothing unusual.
       29       29              INPUT:        QI_1, etc.
       30       30              OUTPUT:       QI_1, etc.
       31       31              SCRATCH:      Various otter stuff.
       32       32              DESCRIPTION:  The calling routine (DISPLAY, or WRITE_FORM)
PL6.E3A0      #001=QCW$WRITE File=QCW$WRITE.:E05TSI                              WED 07/30/97 05:17 Page:12
       33       33                            sets up the starting and stopping indices for fields
       34       34                            within the form to be written.
       35       35                            The editing includes:
       36       36                            1)  filling the fields with any applicable
       37       37                                FILL CHARACTERS.
       38       38                            QCI$IO_WRITE is then called to do the actual I-O.
       39       39                              (This module may seem like a waste, since only FILL
       40       40                            CHARACTER filling is done, but it makes the terminal
       41       41                            read and write paths even.  JJL, C00.)
       42       42        */
       43       43
       44       44          %INCLUDE LCP_6;
       45      235
       46      236          %INCLUDE QG_MACRO_M;
       47      373          %INCLUDE QI_EQUATES_E;
       48      732          %INCLUDE QI_PERR_C;
       49      900          %INCLUDE QI_MACROS_M;
       50     5958          %QI$ALL;
       51    17071
       52    17072    1     DCL FILL_INCREMENT SBIN;
       53    17073    1     DCL FILL_INDEX SBIN;
       54    17074    1     DCL FILL_INDEX_STOP SBIN;
       55    17075    1     DCL FIELD_DAD$ PTR;
       56    17076    1     DCL FIELD_DAD_P$ PTR;
       57    17077    1     DCL FIELD_INDEX UBIN;
       58    17078    1     DCL FILL_CHARACTER UBIN;
       59    17079    1     DCL 1 FILL_CHARACTER_MINIMUM_SIZE REDEF FILL_CHARACTER,
       60    17080    1           2 FILL_CHARACTER UBIN(8) UNAL,
       61    17081    1           2 MINIMUM_SIZE UBIN(8) UNAL;
       62    17082    1     DCL GZ_FIELD$ PTR;
       63    17083
       64    17084          %SET LISTMAC = '1'B;
       65    17085
       66    17086          %INCLUDE QCI_IO_WRITE_M;
       67    17121          %QCI@IO_WRITE;
             17122            %BEGIN_MACRO ( STCLASS = STCLASS );
             17123            %SET LISTDIR = '0'B;
PL6.E3A0      #001=QCW$WRITE File=QCW$WRITE.:E05TSI                              WED 07/30/97 05:17 Page:13
             17136    1     DCL 1 QCI@IO_WRITE ALIGNED,
             17137    1           2 FRAME_START_INDEX UBIN,
             17138                          /* Starting index into QI$FORM_FILE.FRAME_LIST_A@P.  */
             17139    1           2 FRAME_STOP_INDEX UBIN,
             17140                          /* Stopping index into QI$FORM_FILE.FRAME_LIST_A@P.  */
             17141    1           2 IS_FIELD_INDEXES_VALID BIT(1) ALIGNED,
             17142                          /* If IS_FIELD_INDEXES_VALID, use them;
             17143                             else use all the fields in the frame.  */
             17144    1           2 FIELD_START_INDEX UBIN,
             17145                          /* Starting index into QI$GZ_FIELD table.  */
             17146    1           2 FIELD_STOP_INDEX UBIN,
             17147                          /* Stopping index into QI$GZ_FIELD table.  */
             17148    1           2 STATUS UBIN,
             17149                          /* Returned status code:  0 -> Immediate return to level 0;
             17150                                                   >0 -> Status is ok.  */
             17151    1           2 FIELD_ERROR_STOP_INDEX UBIN;
             17152                          /* Passed index for QCG$GET_FIELD processing.  */
             17159            %ENDIF;
       68    17162
       69    17163          %INCLUDE QCW_WRITE_M;
       70    17198          %QCW@WRITE;
             17199            %BEGIN_MACRO ( STCLASS = STCLASS );
             17200            %SET LISTDIR = '0'B;
             17213    1     DCL 1 QCW@WRITE ALIGNED,
             17214    1           2 FRAME_START_INDEX UBIN,
             17215                          /* Starting index into QI$FORM_FILE.FRAME_LIST_A@P.  */
             17216    1           2 FRAME_STOP_INDEX UBIN,
             17217                          /* Stopping index into QI$FORM_FILE.FRAME_LIST_A@P.  */
             17218    1           2 IS_FIELD_INDEXES_VALID BIT(1) ALIGNED,
             17219                          /* If IS_FIELD_INDEXES_VALID, use them;
             17220                             else use all the fields in the frame.  */
             17221    1           2 FIELD_START_INDEX UBIN,
             17222                          /* Starting index into QI$GZ_FIELD table.  */
             17223    1           2 FIELD_STOP_INDEX UBIN,
             17224                          /* Stopping index into QI$GZ_FIELD table.  */
             17225    1           2 STATUS UBIN,
             17226                          /* Returned status code:  0 -> Immediate return to level 0;
PL6.E3A0      #001=QCW$WRITE File=QCW$WRITE.:E05TSI                              WED 07/30/97 05:17 Page:14
             17227                                                   >0 -> Status is ok.  */
             17228    1           2 FIELD_ERROR_STOP_INDEX UBIN;
             17229                          /* Passed index for QCG$GET_FIELD processing.  */
             17236            %ENDIF;
       71    17239
       72    17240          %SET LISTMAC = '0'B;
       73    17241
       74    17242    1     DCL QCE$ERROR_INTERNAL ENTRY (4);
       75    17243    1     DCL QCI$IO_WRITE ENTRY (1);
       76    17244
       77    17245        %EJECT;
PL6.E3A0      #001=QCW$WRITE File=QCW$WRITE.:E05TSI                              WED 07/30/97 05:17 Page:15
       78    17246
       79    17247            %IF QI#DEBUG;
       80    17248
       81    17249    1       IF QCW@WRITE.FIELD_START_INDEX >

  17249   0 000005  ECC7 0004                            LDB,B6   @QCW@WRITE,AUTO
          0 000007  DC80 0000 007C  xsym                 LDB,B5   QI_1+124
          0 00000A  E846 0003                            LDR,R6   3,B6
          0 00000C  E945 0001                            CMR,R6   1,B5
          0 00000E  0381 000A                            BLE      s:17256,PREL

       82    17250    1         QI_1.CURRENT.FRAME_STATUS$ -> QI$FRAME_STATUS.GZ.FIELD_STOP_INDEX
       83    17251    1       THEN
       84    17252    1         CALL QCE$ERROR_INTERNAL ( %E$INTERNAL_INTERPRETER_ERROR );

  17252   0 000010  BB80 0000 0001  01                   LAB,B3   +1
          0 000013  CBF0 0100                            LAB,B4   256,IMO
          0 000015  E380 0000 0000  xent                 LNJ,B6   QCE$ERROR_INTERNAL
          0 000018       0001                            DC       s:17256,PREL

       85    17253
       86    17254            %ENDIF;
       87    17255
       88    17256    1       GZ_FIELD$ = PINCRW (

  17256   0 000019  ECC7 0004                            LDB,B6   @QCW@WRITE,AUTO
          0 00001B  B846 0003                            LDR,R3   3,B6
          0 00001D  DC80 0000 007C  xsym                 LDB,B5   QI_1+124
          0 000020  CCC5 0006                            LDB,B4   6,B5
          0 000022  CFC7 0018                            STB,B4   QCI@IO_WRITE+7,AUTO
          0 000024  F853                                 LDR,R7   R3
          0 000025  6C00                                 LDV,R6   0
          0 000026  9B80 0000 0003  01                   LAB,B1   +3
          0 000029  D380 0000 0000  xent                 LNJ,B5   X6D_MID
          0 00002C  8447 0018                            AID      QCI@IO_WRITE+7,AUTO
          0 00002E  8D47 000F                            SDI      GZ_FIELD$,AUTO

PL6.E3A0      #001=QCW$WRITE File=QCW$WRITE.:E05TSI                              WED 07/30/97 05:17 Page:16
       89    17257    1         QI_1.CURRENT.FRAME_STATUS$ -> QI$FRAME_STATUS.GZ.START$,
       90    17258    1         QCW@WRITE.FIELD_START_INDEX * SIZEW (QI$GZ_FIELD)
       91    17259    1         );
       92    17260
       93    17261    1   PRE_EDIT_THEM_FIELDS:
       94    17262    2       DO FIELD_INDEX = QCW@WRITE.FIELD_START_INDEX TO QCW@WRITE.FIELD_STOP_INDEX;

  17262   0 000030  ECC7 0004            PRE_EDIT_THEM_F*LDB,B6   @QCW@WRITE,AUTO
          0 000032  D846 0003                            LDR,R5   3,B6
          0 000034  DF47 000D                            STR,R5   FIELD_INDEX,AUTO
          0 000036  0F81 006F                            B        s:17344+2,PREL

       95    17263
       96    17264    2   RETRY_FIELD_PRE_EDITING:
       97    17265    2         FIELD_DAD$ = GZ_FIELD$ -> QI$GZ_FIELD.DESCRIPTION.FIELD_DAD$;

  17265   0 000038  ECC7 000F            RETRY_FIELD_PRE*LDB,B6   GZ_FIELD$,AUTO
          0 00003A  DCC6 0004                            LDB,B5   4,B6
          0 00003C  DFC7 0009                            STB,B5   FIELD_DAD$,AUTO

       98    17266              /*  Increment past any level_multipliers to get to the
       99    17267                  P_ITEM_A stuff.  */
      100    17268    2         FIELD_DAD_P$ = ADDR (

  17268   0 00003E  B805                                 LDR,R3   ,B5
          0 00003F  3044                                 SOR,R3   4
          0 000040  B570 0003                            AND,R3   3,IMO
          0 000042  3001                                 SOL,R3   1
          0 000043  3E0B                                 ADV,R3   11
          0 000044  CBB5                                 LAB,B4   ,B5,R3
          0 000045  CFC7 000B                            STB,B4   FIELD_DAD_P$,AUTO

      101    17269    2           FIELD_DAD$ -> QI$FIELD_DAD.VARIABLE_LENGTH_ITEMS.LEVEL_MULTIPLIER_A
      102    17270    2           ( FIELD_DAD$ -> QI$FIELD_DAD.WORD0_FLAGS.DIMENSION_COUNT )
      103    17271    2           );
      104    17272
      105    17273    2         IF FIELD_DAD_P$ -> QI$FIELD_DAD_P.P.FILL_CHARACTER_MINIMUM_SIZE
PL6.E3A0      #001=QCW$WRITE File=QCW$WRITE.:E05TSI                              WED 07/30/97 05:17 Page:17

  17273   0 000047  8984                                 CMZ      ,B4
          0 000048  0881 0057                            BAGE     s:17339,PREL

      106    17274    2         THEN
      107    17275    2   WE_GOTTA_FILL_CHARACTER:
      108    17276    3           DO;

  17276   0                              WE_GOTTA_FILL_C*null
      109    17277    3             FILL_CHARACTER = FIELD_DAD_P$ -> QI$FIELD_DAD_P.P_ITEM_A (%
             17277                      QI#P_FILL_SIZE_INDEX);

  17277   0 00004A  E844 0001            WE_GOTTA_FILL_C*LDR,R6   1,B4
          0 00004C  EF47 000E                            STR,R6   FILL_CHARACTER,AUTO

      110    17278    3             IF FILL_CHARACTER_MINIMUM_SIZE.FILL_CHARACTER ~= %QI#BLANK

  17278   0 00004E  D2C7 000E                            LLH,R5   FILL_CHARACTER,AUTO
          0 000050  5D20                                 CMV,R5   32
          0 000051  0901 004E                            BE       s:17339,PREL

      111    17279    3             THEN
      112    17280    3   WE_GOTTA_REAL_FILL_CHARACTER:
      113    17281    4               DO;

  17281   0                              WE_GOTTA_REAL_F*null
      114    17282                      /*  Do real different stuff according to
      115    17283                          rightwing-leftwing justification.  */
      116    17284    4                 IF FIELD_DAD$ -> QI$FIELD_DAD.WORD0_FLAGS.IS_JUSTIFIED_RIGHT

  17284   0 000053  8285                 WE_GOTTA_REAL_F*LB,'0400'X        ,B5
  17284   0 000054       0400
          0 000055  0581 0013                            BBF      s:17295,PREL

      117    17285    4                 THEN
      118    17286    5                   DO;

PL6.E3A0      #001=QCW$WRITE File=QCW$WRITE.:E05TSI                              WED 07/30/97 05:17 Page:18
      119    17287    5                     FILL_INDEX = GZ_FIELD$ -> QI$GZ_FIELD.STATUS.OFFSET;

  17287   0 000057  C846 0006                            LDR,R4   6,B6
          0 000059  404F                                 SOR,R4   15
          0 00005A  CF47 0007                            STR,R4   FILL_INDEX,AUTO

      120    17288    5                     FILL_INDEX_STOP = GZ_FIELD$ -> QI$GZ_FIELD.DESCRIPTION.LENGTH

  17288   0 00005C  B846 0002                            LDR,R3   2,B6
          0 00005E  B570 00FF                            AND,R3   255,IMO
          0 000060  BA54                                 ADD,R3   R4
          0 000061  3EFF                                 ADV,R3   -1
          0 000062  BF47 0008                            STR,R3   FILL_INDEX_STOP,AUTO

      121    17289    5                       + GZ_FIELD$ -> QI$GZ_FIELD.STATUS.OFFSET
      122    17290    5                       - 1;
      123    17291    5                     FILL_INCREMENT = 1;

  17291   0 000064  2C01                                 LDV,R2   1
          0 000065  AF47 0006                            STR,R2   FILL_INCREMENT,AUTO

      124    17292    5                   END;

  17292   0 000067  0F81 0011                            B        s:17300,PREL

      125    17293    4                 ELSE
      126    17294    5                   DO;

      127    17295    5                     FILL_INDEX = GZ_FIELD$ -> QI$GZ_FIELD.DESCRIPTION.LENGTH

  17295   0 000069  C846 0002                            LDR,R4   2,B6
          0 00006B  C570 00FF                            AND,R4   255,IMO
          0 00006D  B846 0006                            LDR,R3   6,B6
          0 00006F  304F                                 SOR,R3   15
          0 000070  CA53                                 ADD,R4   R3
          0 000071  4EFF                                 ADV,R4   -1
          0 000072  CF47 0007                            STR,R4   FILL_INDEX,AUTO
PL6.E3A0      #001=QCW$WRITE File=QCW$WRITE.:E05TSI                              WED 07/30/97 05:17 Page:19

      128    17296    5                       + GZ_FIELD$ -> QI$GZ_FIELD.STATUS.OFFSET
      129    17297    5                       - 1;
      130    17298    5                     FILL_INDEX_STOP = GZ_FIELD$ -> QI$GZ_FIELD.STATUS.OFFSET;

  17298   0 000074  BF47 0008                            STR,R3   FILL_INDEX_STOP,AUTO

      131    17299    5                     FILL_INCREMENT = -1;

  17299   0 000076  8947 0006                            LBT,'FFFF'X       FILL_INCREMENT,AUTO
  17299   0 000078       FFFF

      132    17300    5                   END;

      133    17301
      134    17302                      /*  This is kind of embarrassing.
      135    17303                          First, there was B03 and previous, in which the output
      136    17304                          side of FILL CHARACTERing was forgotten completely.
      137    17305                          No module equivalent to QCW$WRITE even existed, and this
      138    17306                          FILL stuff on output was patched in.
      139    17307                          Then, there came C00/C01, in which the implementor was
      140    17308                          overly concerned about using CIP routines, since COBOL
      141    17309                          variables can legally be up to 16K characters long.
      142    17310                          The problem is that, in this case, we're working with a
      143    17311                          FRAME SECTION variable, which will be at most 256 characters
      144    17312                          long, practically less than 80, and almost always about 10.
      145    17313                          I apologize for my previous hubris in this area.  After
      146    17314                          whipping up a worst-case testcase (20 fields, 80 characters
      147    17315                          apiece, all to be FILLed completely, alternating LEFT and
      148    17316                          RIGHT JUSTIFIED:  1 PRESENT, 5000 WRITEs, 1 CLEAR so as to
      149    17317                          avoid actually updating the screen), the following loop
      150    17318                          runs in about 1/3 the time the old CIP stuff (which was
      151    17319                          about 3 times as big, too) took.  JJL, D00.  */
      152    17320    4   FILL_LOOP:
      153    17321    5                 DO WHILE (

  17321   0 000079  0F81 0014            FILL_LOOP       B        s:17337,PREL
PL6.E3A0      #001=QCW$WRITE File=QCW$WRITE.:E05TSI                              WED 07/30/97 05:17 Page:20

      154    17322    5                   ( FIELD_DAD$ -> QI$FIELD_DAD.WORD0_FLAGS.IS_JUSTIFIED_RIGHT
      155    17323    5                   AND FILL_INDEX <= FILL_INDEX_STOP )
      156    17324    5                   OR
      157    17325    5                   ( NOT FIELD_DAD$ -> QI$FIELD_DAD.WORD0_FLAGS.IS_JUSTIFIED_RIGHT
      158    17326    5                   AND FILL_INDEX >= FILL_INDEX_STOP ) );
      159    17327
      160    17328    5                   IF GZ_FIELD$ -> QI$GZ_FIELD.STATUS.DATA$ -> QI$UBYTE_A ( FILL_INDEX
             17328                            )

  17328   0 00007B  ECC7 000F                            LDB,B6   GZ_FIELD$,AUTO
          0 00007D  DCC6 0009                            LDB,B5   9,B6
          0 00007F  B847 0007                            LDR,R3   FILL_INDEX,AUTO
          0 000081  E2B5                                 LLH,R6   ,B5,R3
          0 000082  6D20                                 CMV,R6   32
          0 000083  0981 001C                            BNE      s:17339,PREL

      161    17329    5                     = %QI#BLANK
      162    17330    5                   THEN
      163    17331    5                    GZ_FIELD$ -> QI$GZ_FIELD.STATUS.DATA$ -> QI$UBYTE_A ( FILL_INDEX )

  17331   0 000085  D2C7 000E                            LLH,R5   FILL_CHARACTER,AUTO
          0 000087  D7B5                                 STH,R5   ,B5,R3
          0 000088  0F81 0001                            B        s:17335,PREL

      164    17332    5                       = FILL_CHARACTER_MINIMUM_SIZE.FILL_CHARACTER;
      165    17333    5                   ELSE
      166    17334    5                     EXIT FILL_LOOP;
      167    17335    5                   FILL_INDEX = FILL_INDEX + FILL_INCREMENT;

  17335   0 00008A  BA47 0006                            ADD,R3   FILL_INCREMENT,AUTO
          0 00008C  BF47 0007                            STR,R3   FILL_INDEX,AUTO

      168    17336
      169    17337    5                 END FILL_LOOP;

  17337   0 00008E  DCC7 0009                            LDB,B5   FIELD_DAD$,AUTO
PL6.E3A0      #001=QCW$WRITE File=QCW$WRITE.:E05TSI                              WED 07/30/97 05:17 Page:21
          0 000090  8285                                 LB,'0400'X        ,B5
          0 000091       0400
          0 000092  0581 0006                            BBF      s:17337+11,PREL
          0 000094  E847 0007                            LDR,R6   FILL_INDEX,AUTO
          0 000096  E947 0008                            CMR,R6   FILL_INDEX_STOP,AUTO
          0 000098  0AE3                                 BALE     s:17328,SPREL
          0 000099  0501 0006                            BBT      s:17339,PREL
          0 00009B  E847 0007                            LDR,R6   FILL_INDEX,AUTO
          0 00009D  E947 0008                            CMR,R6   FILL_INDEX_STOP,AUTO
          0 00009F  08DC                                 BAGE     s:17328,SPREL

      170    17338    4               END WE_GOTTA_REAL_FILL_CHARACTER;

      171    17339    3           END WE_GOTTA_FILL_CHARACTER;

      172    17340
      173    17341    2   NEXT_FIELD_PLEASE:
      174    17342    2         GZ_FIELD$ = PINCRW ( GZ_FIELD$, SIZEW (QI$GZ_FIELD) );

  17342   0 0000A0  DBC6 000C            NEXT_FIELD_PLEA*LAB,B5   12,B6
          0 0000A2  DFC7 000F                            STB,B5   GZ_FIELD$,AUTO

      175    17343
      176    17344    2       END PRE_EDIT_THEM_FIELDS;

  17344   0 0000A4  8AC7 000D                            INC      FIELD_INDEX,AUTO
          0 0000A6  ECC7 0004                            LDB,B6   @QCW@WRITE,AUTO
          0 0000A8  E847 000D                            LDR,R6   FIELD_INDEX,AUTO
          0 0000AA  E946 0004                            CMR,R6   4,B6
          0 0000AC  0381 FF8B                            BLE      s:17265,PREL

      177    17345
      178    17346    1       QCI@IO_WRITE = QCW@WRITE;

  17346   0 0000AE  AB86                                 LAB,B2   ,B6
          0 0000AF  2C00                                 LDV,R2   0
          0 0000B0  6C0E                                 LDV,R6   14
PL6.E3A0      #001=QCW$WRITE File=QCW$WRITE.:E05TSI                              WED 07/30/97 05:17 Page:22
          0 0000B1  BB87                                 LAB,B3   ,AUTO
          0 0000B2  3C22                                 LDV,R3   34
          0 0000B3  0008                                 MMM

      179    17347
      180    17348    1       CALL QCI$IO_WRITE ( QCI@IO_WRITE );

  17348   0 0000B4  DBC7 0011                            LAB,B5   QCI@IO_WRITE,AUTO
          0 0000B6  DFC7 0018                            STB,B5   QCI@IO_WRITE+7,AUTO
          0 0000B8  BBC7 0018                            LAB,B3   QCI@IO_WRITE+7,AUTO
          0 0000BA  CBF0 0100                            LAB,B4   256,IMO
          0 0000BC  E380 0000 0000  xent                 LNJ,B6   QCI$IO_WRITE
          0 0000BF       0001                            DC       s:17350,PREL

      181    17349
      182    17350    1       QCW@WRITE.STATUS = QCI@IO_WRITE.STATUS;

  17350   0 0000C0  ECC7 0004                            LDB,B6   @QCW@WRITE,AUTO
          0 0000C2  E847 0016                            LDR,R6   QCI@IO_WRITE+5,AUTO
          0 0000C4  EF46 0005                            STR,R6   5,B6

      183    17351
      184    17352        /*  IF QCI@IO_WRITE.STATUS = %QI#USE_INVALID_RETURN
      185    17353            THEN
      186    17354              RETURN;  */
      187    17355
      188    17356    1       RETURN;

  17356   0 0000C6  C380 0000 0000  xent                 LNJ,B4   X6A_ARET
      189    17357
      190    17358    1   END QCW$WRITE;

PL6.E3A0      #001=QCW$WRITE File=QCW$WRITE.:E05TSI                              WED 07/30/97 05:17 Page:23
--  Include file information  --

   QCW_WRITE_M.:E05TOU  is referenced.
   QCI_IO_WRITE_M.:E05TOU  is referenced.
   QI_MACROS_M.:E05TOU  is referenced.
   QI_PERR_C.:E05TOU  is referenced.
   QI_EQUATES_E.:E05TOU  is referenced.
   QG_MACRO_M.:E05TOU  is referenced.
   LCP_6.:E05TOU  cannot be made into a system file and is referenced.
   G_LCP6_E.:E05TOU  was found in the system file and is referenced.
   GT_LCP6_M.:E05TOU  was found in the system file and is referenced.
   KI_CP6.:E05TOU  was found in the system file and is referenced.
   GF_LCP6_M.:E05TOU  was found in the system file and is referenced.
   GM_LCP6_M.:E05TOU  was found in the system file and is referenced.
   GU_LCP6_M.:E05TOU  was found in the system file and is referenced.
   GJ_LCP6_M.:E05TOU  was found in the system file and is referenced.
   GH_LCP6_M.:E05TOU  was found in the system file and is referenced.
      No diagnostics issued in procedure QCW$WRITE.
PL6.E3A0      #001=QCW$WRITE File=QCW$WRITE.:E05TSI                              WED 07/30/97 05:17 Page:24

 **** Variables and constants ****

  ****  Auto variables  ****

  ****  Scalars and arrays  ****
HexLoc.c.b A Datatyp(siz) R M Lvl/name                 HexLoc.c.b A Datatyp(siz) R M Lvl/name

     4-0-0/w PTR         r     1 @QCW@WRITE                 9-0-0/w PTR         r     1 FIELD_DAD$
     B-0-0/w PTR         r     1 FIELD_DAD_P$               D-0-0/w UBIN(16)    r     1 FIELD_INDEX
     E-0-0/w UBIN(16)    r     1 FILL_CHARACTER
     E-0-0/w STRC(16)    r     1 FILL_CHARACTER_MINIMUM_SIZE
     6-0-0/w SBIN(16)    r     1 FILL_INCREMENT             7-0-0/w SBIN(16)    r     1 FILL_INDEX
     8-0-0/w SBIN(16)    r     1 FILL_INDEX_STOP            F-0-0/w PTR         r     1 GZ_FIELD$
    11-0-0/w STRC(112)   r     1 QCI@IO_WRITE              *0-0-0/w STRC(112)   r     1 QCW@WRITE

  ****  SYMREF variables  ****

  ****  Scalars and arrays  ****
HexLoc.c.b A Datatyp(siz) R M Lvl/name                 HexLoc.c.b A Datatyp(siz) R M Lvl/name

     0-0-0/d STRC(2576)  r     1 QI_1

  ****  BASED and DCB variables  ****

  ****  Scalars and arrays  ****
HexLoc.c.b A Datatyp(siz) R M Lvl/name                 HexLoc.c.b A Datatyp(siz) R M Lvl/name

     0-0-0/w STRC(384)   r     1 QI$FIELD_DAD               0-0-0/w STRC(112)   r     1 QI$FIELD_DAD_P
     0-0-0/w STRC(208)   r     1 QI$FRAME_STATUS            0-0-0/w STRC(184)   r     1 QI$GZ_FIELD
     0-0-0/c UBIN(8)     r     1 QI$UBYTE_A(0:0)
     0-0-0/c ASTR(8)     r     1 QI$VARIABLE_IDENTIFIER


   Procedure QCW$WRITE requires 201 words for executable code.
   Procedure QCW$WRITE requires 26 words of local(AUTO) storage.
PL6.E3A0      #001=QCW$WRITE File=QCW$WRITE.:E05TSI                              WED 07/30/97 05:17 Page:25

    No errors detected in file QCW$WRITE.:E05TSI    .
PL6.E3A0      #001=QCW$WRITE File=QCW$WRITE.:E05TSI                              WED 07/30/97 05:17 Page:26
          *** CROSS REFERENCE LISTING ***
**     DENOTES     IDENTIFIER DEFINITION
<<                 IDENTIFIER'S VALUE SET
>>                 IDENTIFIER'S VALUE USED
<>                 IDENTIFIER SET AND/OR USED
--                 IDENTIFIER REFERENCED
PL6.E3A0      #001=QCW$WRITE File=QCW$WRITE.:E05TSI                              WED 07/30/97 05:17 Page:27
          MINI XREF LISTING

FIELD_DAD$
     17075**DCL     17265<<ASSIGN  17268>>ASSIGN  17268>>ASSIGN  17284>>IF      17321>>DOWHILE 17321>>DOWHILE
FIELD_DAD_P$
     17076**DCL     17268<<ASSIGN  17273>>IF      17277>>ASSIGN
FIELD_INDEX
     17077**DCL     17262<<DOINDEX
FILL_CHARACTER
     17078**DCL     17079--REDEF   17277<<ASSIGN
FILL_CHARACTER_MINIMUM_SIZE.FILL_CHARACTER
     17080**DCL     17278>>IF      17331>>ASSIGN
FILL_INCREMENT
     17072**DCL     17291<<ASSIGN  17299<<ASSIGN  17335>>ASSIGN
FILL_INDEX
     17073**DCL     17287<<ASSIGN  17295<<ASSIGN  17321>>DOWHILE 17321>>DOWHILE 17328>>IF      17331>>ASSIGN
     17335<<ASSIGN  17335>>ASSIGN
FILL_INDEX_STOP
     17074**DCL     17288<<ASSIGN  17298<<ASSIGN  17321>>DOWHILE 17321>>DOWHILE
FILL_LOOP
     17321**LABEL   17334--EXIT
GZ_FIELD$
     17082**DCL     17256<<ASSIGN  17265>>ASSIGN  17287>>ASSIGN  17288>>ASSIGN  17288>>ASSIGN  17295>>ASSIGN
     17295>>ASSIGN  17298>>ASSIGN  17328>>IF      17331>>ASSIGN  17342<<ASSIGN  17342>>ASSIGN
QCE$ERROR_INTERNAL
     17242**DCL-ENT 17252--CALL
QCI$IO_WRITE
     17243**DCL-ENT 17348--CALL
QCI@IO_WRITE
     17136**DCL     17346<<ASSIGN  17348<>CALL
QCI@IO_WRITE.STATUS
     17148**DCL     17350>>ASSIGN
QCW@WRITE
     17213**DCL        15--PROC    17346>>ASSIGN
PL6.E3A0      #001=QCW$WRITE File=QCW$WRITE.:E05TSI                              WED 07/30/97 05:17 Page:28
QCW@WRITE.FIELD_START_INDEX
     17221**DCL     17249>>IF      17256>>ASSIGN  17262>>DOINDEX
QCW@WRITE.FIELD_STOP_INDEX
     17223**DCL     17262>>DOINDEX
QCW@WRITE.STATUS
     17225**DCL     17350<<ASSIGN
QGB_PARAM.DVE.DVBYTE.VFC
     11555**DCL     11556--REDEF
QGB_PARAM.DVE.EOMCHAR
     11567**DCL     11568--REDEF
QGB_PARAM.MSG$
     11549**DCL     11550--REDEF
QGB_PARAM.UHDR$
     11574**DCL     11575--REDEF
QI$ACTIVATION_STATUS
      9313**DCL      9319--REDEF
QI$CIP
      8154**DCL      8224--REDEF
QI$CIP.CA
      8159**DCL      8163--REDEF    8166--REDEF    8169--REDEF
QI$COBOL_DAD.PSEUDO_CIP
      8398**DCL      8423--REDEF
QI$COBOL_DAD.PSEUDO_CIP.ALPHANUMERIC
      8400**DCL      8405--REDEF
QI$COBOL_DAD.PSEUDO_CIP.NUMERIC.CB
      8406**DCL      8409--REDEF    8412--REDEF
QI$COBOL_DAD.VARIABLE_LENGTH_ITEMS
      8434**DCL      8450--REDEF    8458--REDEF    8466--REDEF
QI$COBOL_DAD.VARIABLE_LENGTH_ITEMS.LEVEL_MULTIPLIERS
      8435**DCL      8445--REDEF    8448--REDEF
QI$COBOL_DAD.WORD0
      8362**DCL      8363--REDEF    8377--REDEF
QI$COBOL_DAD_P_BITS.P
      8502**DCL      8508--REDEF
QI$CONDITION_CONTROL_BLOCK.LIST_A@P
      7988**DCL      7989--REDEF
PL6.E3A0      #001=QCW$WRITE File=QCW$WRITE.:E05TSI                              WED 07/30/97 05:17 Page:29
QI$CONDITION_CONTROL_BLOCK.WORD0_FLAGS
      7984**DCL      7987--REDEF
QI$CONDITION_LEGAL_BLOCK.ARRAY@P
      8021**DCL      8022--REDEF    8023--REDEF
QI$DAD.PSEUDO_CIP
      8301**DCL      8326--REDEF
QI$DAD.PSEUDO_CIP.ALPHANUMERIC
      8303**DCL      8308--REDEF
QI$DAD.PSEUDO_CIP.NUMERIC.CB
      8309**DCL      8312--REDEF    8315--REDEF
QI$DAD.WORD0
      8270**DCL      8271--REDEF
QI$ERROR_MESSAGE_LINE
     11662**DCL     11664--REDEF
QI$ERROR_STATUS
     11659**DCL     11661--REDEF
QI$FIELD_DAD.ELEMENTARY_ITEM.P
      8716**DCL      8723--REDEF
QI$FIELD_DAD.ONE_DIMENSIONAL_ITEM.P
      8736**DCL      8743--REDEF
QI$FIELD_DAD.PSEUDO_CIP
      8643**DCL      8668--REDEF
QI$FIELD_DAD.PSEUDO_CIP.ALPHANUMERIC
      8645**DCL      8650--REDEF
QI$FIELD_DAD.PSEUDO_CIP.NUMERIC.CB
      8651**DCL      8654--REDEF    8657--REDEF
QI$FIELD_DAD.TWO_DIMENSIONAL_ITEM.P
      8756**DCL      8763--REDEF
QI$FIELD_DAD.VARIABLE_LENGTH_ITEMS
      8699**DCL      8715--REDEF    8733--REDEF    8751--REDEF
QI$FIELD_DAD.VARIABLE_LENGTH_ITEMS.LEVEL_MULTIPLIERS
      8700**DCL      8710--REDEF    8713--REDEF
QI$FIELD_DAD.VARIABLE_LENGTH_ITEMS.LEVEL_MULTIPLIER_A
      8710**DCL     17268--ASSIGN
QI$FIELD_DAD.WORD0
      8595**DCL      8596--REDEF
PL6.E3A0      #001=QCW$WRITE File=QCW$WRITE.:E05TSI                              WED 07/30/97 05:17 Page:30
QI$FIELD_DAD.WORD0_FLAGS.DIMENSION_COUNT
      8619**DCL     17268>>ASSIGN
QI$FIELD_DAD.WORD0_FLAGS.IO_FLAGS
      8599**DCL      8604--REDEF
QI$FIELD_DAD.WORD0_FLAGS.IS_JUSTIFIED_RIGHT
      8610**DCL     17284>>IF      17321>>DOWHILE 17321>>DOWHILE
QI$FIELD_DAD_P.P
      8797**DCL      8804--REDEF
QI$FIELD_DAD_P.P.FILL_CHARACTER_MINIMUM_SIZE
      8798**DCL     17273>>IF
QI$FIELD_DAD_P.P_ITEM_A
      8807**DCL     17277>>ASSIGN
QI$FIELD_STATUS.INDICATORS
      9463**DCL      9495--REDEF
QI$FIELD_STATUS.INDICATORS.ENABLED_FLAGS
      9467**DCL      9472--REDEF
QI$FIELD_STATUS.INDICATORS.OPEN_FLAGS
      9479**DCL      9486--REDEF
QI$FIELD_STATUS.INDICATORS.STATE_FLAGS
      9473**DCL      9478--REDEF
QI$FILE.WORD0
      8919**DCL      8920--REDEF
QI$FILE_STATUS.INDICATORS
      9756**DCL      9788--REDEF
QI$FILE_STATUS.INDICATORS.ENABLED_FLAGS
      9760**DCL      9765--REDEF
QI$FILE_STATUS.INDICATORS.OPEN_FLAGS
      9772**DCL      9779--REDEF
QI$FILE_STATUS.INDICATORS.STATE_FLAGS
      9766**DCL      9771--REDEF
QI$FORM_FILE.USE_PROCEDURE
      9019**DCL      9026--REDEF
QI$FORM_FILE.WORD0
      8973**DCL      8974--REDEF
QI$FORM_STATUS.INDICATORS
      9877**DCL      9909--REDEF
PL6.E3A0      #001=QCW$WRITE File=QCW$WRITE.:E05TSI                              WED 07/30/97 05:17 Page:31
QI$FORM_STATUS.INDICATORS.ENABLED_FLAGS
      9881**DCL      9886--REDEF
QI$FORM_STATUS.INDICATORS.OPEN_FLAGS
      9893**DCL      9900--REDEF
QI$FORM_STATUS.INDICATORS.STATE_FLAGS
      9887**DCL      9892--REDEF
QI$FRAME.WORD0
      9134**DCL      9135--REDEF
QI$FRAME_STATUS.GZ.FIELD_STOP_INDEX
     10061**DCL     17249>>IF
QI$FRAME_STATUS.GZ.START$
     10069**DCL     17256>>ASSIGN
QI$FRAME_STATUS.INDICATORS
     10106**DCL     10138--REDEF
QI$FRAME_STATUS.INDICATORS.ENABLED_FLAGS
     10110**DCL     10115--REDEF
QI$FRAME_STATUS.INDICATORS.OPEN_FLAGS
     10122**DCL     10129--REDEF
QI$FRAME_STATUS.INDICATORS.STATE_FLAGS
     10116**DCL     10121--REDEF
QI$GZ_FIELD
     16985**DCL     17256--ASSIGN  17342--ASSIGN
QI$GZ_FIELD.DESCRIPTION.FIELD_DAD$
     17009**DCL     17265>>ASSIGN
QI$GZ_FIELD.DESCRIPTION.IO_FLAGS
     16988**DCL     16993--REDEF
QI$GZ_FIELD.DESCRIPTION.LENGTH
     17002**DCL     17288>>ASSIGN  17295>>ASSIGN
QI$GZ_FIELD.STATUS.DATA$
     17029**DCL     17328>>IF      17331>>ASSIGN
QI$GZ_FIELD.STATUS.OFFSET
     17012**DCL     17287>>ASSIGN  17288>>ASSIGN  17295>>ASSIGN  17298>>ASSIGN
QI$IDENTIFIER
     11665**DCL     11667--REDEF
QI$INDICATORS
      9377**DCL      9407--REDEF
PL6.E3A0      #001=QCW$WRITE File=QCW$WRITE.:E05TSI                              WED 07/30/97 05:17 Page:32
QI$INDICATORS.ENABLED_FLAGS
      9383**DCL      9388--REDEF
QI$INDICATORS.OPEN_FLAGS
      9395**DCL      9402--REDEF
QI$INDICATORS.STATE_FLAGS
      9389**DCL      9394--REDEF
QI$MAJOR_NODE.WORD0
      8833**DCL      8834--REDEF
QI$MAJOR_STATUS.INDICATORS
      9556**DCL      9588--REDEF
QI$MAJOR_STATUS.INDICATORS.ENABLED_FLAGS
      9560**DCL      9565--REDEF
QI$MAJOR_STATUS.INDICATORS.OPEN_FLAGS
      9572**DCL      9579--REDEF
QI$MAJOR_STATUS.INDICATORS.STATE_FLAGS
      9566**DCL      9571--REDEF
QI$MESSAGE_TYPE
     11656**DCL     11658--REDEF
QI$MINOR_NODE.WORD0
      8876**DCL      8877--REDEF
QI$MINOR_STATUS.INDICATORS
      9649**DCL      9681--REDEF
QI$MINOR_STATUS.INDICATORS.ENABLED_FLAGS
      9653**DCL      9658--REDEF
QI$MINOR_STATUS.INDICATORS.OPEN_FLAGS
      9665**DCL      9672--REDEF
QI$MINOR_STATUS.INDICATORS.STATE_FLAGS
      9659**DCL      9664--REDEF
QI$OP_ACCEPT.DATANAME@P
      6064**DCL      6065--REDEF
QI$OP_CALL.EPTR$
      6236**DCL      6237--REDEF
QI$OP_CLEAR.IO_FLAGS
      6269**DCL      6272--REDEF
QI$OP_DISPLAY.FIELD_A@P
      6536**DCL      6537--REDEF
PL6.E3A0      #001=QCW$WRITE File=QCW$WRITE.:E05TSI                              WED 07/30/97 05:17 Page:33
QI$OP_ENABLE.IO_FLAGS
      6623**DCL      6626--REDEF
QI$OP_IFCLS.ATTRIBUTE.TYPE
      6716**DCL      6721--REDEF
QI$OP_INSPECT.TALLYING_FOR_ITEM@P
      6950**DCL      6951--REDEF
QI$OP_INSPECT.TALLYING_INITIAL_ITEM@P
      6952**DCL      6953--REDEF
QI$OP_INSPECT.TALLYING_ITEM@P
      6948**DCL      6949--REDEF
QI$OP_OPEN.IO_FLAGS
      7510**DCL      7513--REDEF
QI$OP_PERFM.BINARY_ITERATION_COUNT@P
      7548**DCL      7549--REDEF
QI$PSEUDO_CIP
      8049**DCL      8073--REDEF
QI$PSEUDO_CIP.ALPHANUMERIC
      8053**DCL      8058--REDEF
QI$PSEUDO_CIP.NUMERIC.CB
      8059**DCL      8062--REDEF    8065--REDEF
QI$TERMINAL_ATTRIBUTES
      9270**DCL      9283--REDEF
QI$TRAN_FILE.WORD0
      9055**DCL      9056--REDEF
QI$TRAN_STATUS.INDICATORS
      9990**DCL     10022--REDEF
QI$TRAN_STATUS.INDICATORS.ENABLED_FLAGS
      9994**DCL      9999--REDEF
QI$TRAN_STATUS.INDICATORS.OPEN_FLAGS
     10006**DCL     10013--REDEF
QI$TRAN_STATUS.INDICATORS.STATE_FLAGS
     10000**DCL     10005--REDEF
QI$UBYTE_A
     11650**DCL     17328>>IF      17331<<ASSIGN
QI$VARIABLE_IDENTIFIER.LENGTH
     11669**DCL     11670--IMP-SIZ
PL6.E3A0      #001=QCW$WRITE File=QCW$WRITE.:E05TSI                              WED 07/30/97 05:17 Page:34
QI_1.BASE
     10198**DCL     10205--REDEF
QI_1.CURRENT.FILE$
     11089**DCL     11091--REDEF   11093--REDEF
QI_1.CURRENT.FILE_STATUS$
     11095**DCL     11097--REDEF   11099--REDEF
QI_1.CURRENT.FRAME_STATUS$
     11103**DCL     17249>>IF      17256>>ASSIGN
QI_1.DAD
     10893**DCL     10898--REDEF
QI_1.FILE_HEAD
     11076**DCL     11083--REDEF
QI_1.IS_ALL_LIT
     10899**DCL     10904--REDEF
QI_1.IS_FORM_VARIABLE
     10905**DCL     10910--REDEF
QI_1.IS_TEMP
     10911**DCL     10916--REDEF
QI_1.MESSAGE_LINE_DAD.PSEUDO_CIP
     11009**DCL     11034--REDEF
QI_1.MESSAGE_LINE_DAD.PSEUDO_CIP.ALPHANUMERIC
     11011**DCL     11016--REDEF
QI_1.MESSAGE_LINE_DAD.PSEUDO_CIP.NUMERIC.CB
     11017**DCL     11020--REDEF   11023--REDEF
QI_1.MESSAGE_LINE_DAD.WORD0
     10978**DCL     10979--REDEF
QI_1.OFFSET
     10917**DCL     10922--REDEF
QI_1.OP.CIP
     10278**DCL     10729--REDEF
QI_1.OP.CIP.AUX
     10644**DCL     10715--REDEF
QI_1.OP.CIP.AUX.CD
     10689**DCL     10692--REDEF   10696--REDEF   10699--REDEF
QI_1.OP.CIP.S
     10348**DCL     10419--REDEF
PL6.E3A0      #001=QCW$WRITE File=QCW$WRITE.:E05TSI                              WED 07/30/97 05:17 Page:35
QI_1.OP.CIP.S.CD
     10393**DCL     10396--REDEF   10400--REDEF   10403--REDEF
QI_1.OP.CIP.T
     10496**DCL     10567--REDEF
QI_1.OP.CIP.T.CD
     10541**DCL     10544--REDEF   10548--REDEF   10551--REDEF
QI_1.OP.DATA
     10736**DCL     10740--REDEF
QI_1.OP.FILL_CHAR
     10860**DCL     10863--REDEF
QI_1.OP.INX
     10793**DCL     10797--REDEF   10798--REDEF   10802--REDEF
QI_1.OP.LEN
     10776**DCL     10780--REDEF   10781--REDEF   10785--REDEF   10786--REDEF   10790--REDEF
QI_1.OP.LEN.AUX
     10779**DCL     11680--IMP-SIZ
QI_1.OP.LEN.S
     10777**DCL     11676--IMP-SIZ
QI_1.OP.LEN.T
     10778**DCL     11678--IMP-SIZ
QI_1.OP.PICTURE_STRING
     10846**DCL     10849--REDEF   10850--REDEF   10853--REDEF   10854--REDEF   10857--REDEF
QI_1.OP.ROUND
     10879**DCL     10880--REDEF   10881--REDEF
QI_1.OP.SRCH_VRFY_ELEMS
     10815**DCL     10818--REDEF
QI_1.OPENED_COUNT
     11084**DCL     11087--REDEF
QI_1.OTTER_SPACE
     10923**DCL     10928--REDEF
QI_1.PICTURE_STRING
     10929**DCL     10934--REDEF
QI_1.SPECIAL_NAMES
     11112**DCL     11121--REDEF
QI_1.TYPE
     10935**DCL     10940--REDEF
PL6.E3A0      #001=QCW$WRITE File=QCW$WRITE.:E05TSI                              WED 07/30/97 05:17 Page:36
QI_16_BIT_BINARY
     16125**DCL     16195--REDEF
QI_16_BIT_BINARY.CB
     16144**DCL     16147--REDEF   16151--REDEF   16154--REDEF
QI_31_DIGIT_SLS_DISPLAY
     15958**DCL     16028--REDEF
QI_31_DIGIT_SLS_DISPLAY.CD
     16005**DCL     16008--REDEF   16012--REDEF   16015--REDEF
QI_31_DIGIT_ST_PACKED
     16460**DCL     16530--REDEF
QI_31_DIGIT_ST_PACKED.CP
     16493**DCL     16496--REDEF   16500--REDEF   16503--REDEF
QI_32_BIT_BINARY
     16292**DCL     16362--REDEF
QI_32_BIT_BINARY.CB
     16311**DCL     16314--REDEF   16318--REDEF   16321--REDEF
QI_4_CHAR_ALPHANUMERIC
     15790**DCL     15860--REDEF
QI_4_CHAR_ALPHANUMERIC.CA
     15795**DCL     15799--REDEF   15802--REDEF   15805--REDEF
QI_ACCUMULATOR_DAD.CIP
     16803**DCL     16874--REDEF
QI_ACCUMULATOR_DAD.CIP.CP
     16834**DCL     16837--REDEF   16841--REDEF   16844--REDEF
QI_ALR.CIP
     11755**DCL     12206--REDEF
QI_ALR.CIP.AUX
     12121**DCL     12192--REDEF
QI_ALR.CIP.AUX.CA
     12124**DCL     12128--REDEF   12131--REDEF   12134--REDEF
QI_ALR.CIP.S
     11825**DCL     11896--REDEF
QI_ALR.CIP.S.CA
     11828**DCL     11832--REDEF   11835--REDEF   11838--REDEF
QI_ALR.CIP.T
     11973**DCL     12044--REDEF
PL6.E3A0      #001=QCW$WRITE File=QCW$WRITE.:E05TSI                              WED 07/30/97 05:17 Page:37
QI_ALR.CIP.T.CA
     11976**DCL     11980--REDEF   11983--REDEF   11986--REDEF
QI_ALR.DATA
     12213**DCL     12217--REDEF
QI_ALR.FILL_CHAR
     12337**DCL     12340--REDEF
QI_ALR.INX
     12270**DCL     12274--REDEF   12275--REDEF   12279--REDEF
QI_ALR.LEN
     12253**DCL     12257--REDEF   12258--REDEF   12262--REDEF   12263--REDEF   12267--REDEF
QI_ALR.PICTURE_STRING
     12323**DCL     12326--REDEF   12327--REDEF   12330--REDEF   12331--REDEF   12334--REDEF
QI_ALR.ROUND
     12356**DCL     12357--REDEF   12358--REDEF
QI_ALR.SRCH_VRFY_ELEMS
     12292**DCL     12295--REDEF
QI_MAT.CIP
     15094**DCL     15545--REDEF
QI_MAT.CIP.AUX
     15460**DCL     15531--REDEF
QI_MAT.CIP.AUX.CA
     15463**DCL     15467--REDEF   15470--REDEF   15473--REDEF
QI_MAT.CIP.S
     15164**DCL     15235--REDEF
QI_MAT.CIP.S.CA
     15167**DCL     15171--REDEF   15174--REDEF   15177--REDEF
QI_MAT.CIP.T
     15312**DCL     15383--REDEF
QI_MAT.CIP.T.CA
     15315**DCL     15319--REDEF   15322--REDEF   15325--REDEF
QI_MAT.DATA
     15552**DCL     15556--REDEF
QI_MAT.DEC
     15620**DCL     15624--REDEF   15625--REDEF   15629--REDEF
QI_MAT.FILL_CHAR
     15676**DCL     15679--REDEF
PL6.E3A0      #001=QCW$WRITE File=QCW$WRITE.:E05TSI                              WED 07/30/97 05:17 Page:38
QI_MAT.LEN
     15592**DCL     15596--REDEF   15597--REDEF   15601--REDEF   15602--REDEF   15606--REDEF
QI_MAT.PICTURE_STRING
     15662**DCL     15665--REDEF   15666--REDEF   15669--REDEF   15670--REDEF   15673--REDEF
QI_MAT.ROUND
     15695**DCL     15696--REDEF   15697--REDEF
QI_MAT.SRCH_VRFY_ELEMS
     15631**DCL     15634--REDEF
QI_PICTURE_STRING
     16628**DCL     16698--REDEF
QI_PICTURE_STRING.CA
     16633**DCL     16637--REDEF   16640--REDEF   16643--REDEF
QI_SRCH_VRFY.CIP
     14425**DCL     14876--REDEF
QI_SRCH_VRFY.CIP.AUX
     14791**DCL     14862--REDEF
QI_SRCH_VRFY.CIP.AUX.CA
     14794**DCL     14798--REDEF   14801--REDEF   14804--REDEF
QI_SRCH_VRFY.CIP.S
     14495**DCL     14566--REDEF
QI_SRCH_VRFY.CIP.S.CA
     14498**DCL     14502--REDEF   14505--REDEF   14508--REDEF
QI_SRCH_VRFY.CIP.T
     14643**DCL     14714--REDEF
QI_SRCH_VRFY.CIP.T.CA
     14646**DCL     14650--REDEF   14653--REDEF   14656--REDEF
QI_SRCH_VRFY.DATA
     14883**DCL     14887--REDEF
QI_SRCH_VRFY.DEC
     14951**DCL     14955--REDEF   14956--REDEF   14960--REDEF
QI_SRCH_VRFY.FILL_CHAR
     15007**DCL     15010--REDEF
QI_SRCH_VRFY.ROUND
     15026**DCL     15027--REDEF   15028--REDEF
QI_SRCH_VRFY.SRCH_RESULT
     14967**DCL     14970--REDEF   14971--REDEF   14974--REDEF   14975--REDEF   14978--REDEF
PL6.E3A0      #001=QCW$WRITE File=QCW$WRITE.:E05TSI                              WED 07/30/97 05:17 Page:39
QI_SRCH_VRFY.SRCH_VRFY_ARGS
     14891**DCL     14895--REDEF   14896--REDEF   14900--REDEF   14901--REDEF   14905--REDEF
QI_SRCH_VRFY.SRCH_VRFY_ELEMS
     14962**DCL     14965--REDEF
QI_TYPE_BINARY_TARGET.CIP
     13752**DCL     14203--REDEF
QI_TYPE_BINARY_TARGET.CIP.AUX
     14118**DCL     14189--REDEF
QI_TYPE_BINARY_TARGET.CIP.AUX.CA
     14121**DCL     14125--REDEF   14128--REDEF   14131--REDEF
QI_TYPE_BINARY_TARGET.CIP.S
     13822**DCL     13893--REDEF
QI_TYPE_BINARY_TARGET.CIP.S.CA
     13825**DCL     13829--REDEF   13832--REDEF   13835--REDEF
QI_TYPE_BINARY_TARGET.CIP.T
     13970**DCL     14041--REDEF
QI_TYPE_BINARY_TARGET.CIP.T.CB
     13987**DCL     13990--REDEF   13994--REDEF   13997--REDEF
QI_TYPE_BINARY_TARGET.DATA
     14210**DCL     14214--REDEF
QI_TYPE_BINARY_TARGET.DEC
     14278**DCL     14282--REDEF   14283--REDEF   14287--REDEF
QI_TYPE_BINARY_TARGET.LEN
     14250**DCL     14254--REDEF   14255--REDEF   14259--REDEF   14260--REDEF   14264--REDEF
QI_TYPE_BINARY_TARGET.PICTURE_STRING
     14320**DCL     14323--REDEF   14324--REDEF   14327--REDEF   14328--REDEF   14331--REDEF
QI_TYPE_BINARY_TARGET.ROUND
     14353**DCL     14354--REDEF   14355--REDEF
QI_TYPE_BINARY_TARGET.SIZE_ERROR
     14339**DCL     14340--REDEF
QI_TYPE_BINARY_TARGET.SRCH_VRFY_ELEMS
     14289**DCL     14292--REDEF
QI_TYPE_DISPLAY_SOURCE.CIP
     12420**DCL     12871--REDEF
QI_TYPE_DISPLAY_SOURCE.CIP.AUX
     12786**DCL     12857--REDEF
PL6.E3A0      #001=QCW$WRITE File=QCW$WRITE.:E05TSI                              WED 07/30/97 05:17 Page:40
QI_TYPE_DISPLAY_SOURCE.CIP.AUX.CA
     12789**DCL     12793--REDEF   12796--REDEF   12799--REDEF
QI_TYPE_DISPLAY_SOURCE.CIP.S
     12490**DCL     12561--REDEF
QI_TYPE_DISPLAY_SOURCE.CIP.S.CD
     12535**DCL     12538--REDEF   12542--REDEF   12545--REDEF
QI_TYPE_DISPLAY_SOURCE.CIP.T
     12638**DCL     12709--REDEF
QI_TYPE_DISPLAY_SOURCE.CIP.T.CA
     12641**DCL     12645--REDEF   12648--REDEF   12651--REDEF
QI_TYPE_DISPLAY_SOURCE.DATA
     12878**DCL     12882--REDEF
QI_TYPE_DISPLAY_SOURCE.DEC
     12946**DCL     12950--REDEF   12951--REDEF   12955--REDEF
QI_TYPE_DISPLAY_SOURCE.LEN
     12918**DCL     12922--REDEF   12923--REDEF   12927--REDEF   12928--REDEF   12932--REDEF
QI_TYPE_DISPLAY_SOURCE.PICTURE_STRING
     12988**DCL     12991--REDEF   12992--REDEF   12995--REDEF   12996--REDEF   12999--REDEF
QI_TYPE_DISPLAY_SOURCE.ROUND
     13021**DCL     13022--REDEF   13023--REDEF
QI_TYPE_DISPLAY_SOURCE.SIZE_ERROR
     13007**DCL     13008--REDEF
QI_TYPE_DISPLAY_SOURCE.SRCH_VRFY_ELEMS
     12957**DCL     12960--REDEF
QI_TYPE_DISPLAY_TARGET.CIP
     13086**DCL     13537--REDEF
QI_TYPE_DISPLAY_TARGET.CIP.AUX
     13452**DCL     13523--REDEF
QI_TYPE_DISPLAY_TARGET.CIP.AUX.CA
     13455**DCL     13459--REDEF   13462--REDEF   13465--REDEF
QI_TYPE_DISPLAY_TARGET.CIP.S
     13156**DCL     13227--REDEF
QI_TYPE_DISPLAY_TARGET.CIP.S.CA
     13159**DCL     13163--REDEF   13166--REDEF   13169--REDEF
QI_TYPE_DISPLAY_TARGET.CIP.T
     13304**DCL     13375--REDEF
PL6.E3A0      #001=QCW$WRITE File=QCW$WRITE.:E05TSI                              WED 07/30/97 05:17 Page:41
QI_TYPE_DISPLAY_TARGET.CIP.T.CD
     13349**DCL     13352--REDEF   13356--REDEF   13359--REDEF
QI_TYPE_DISPLAY_TARGET.DATA
     13544**DCL     13548--REDEF
QI_TYPE_DISPLAY_TARGET.DEC
     13612**DCL     13616--REDEF   13617--REDEF   13621--REDEF
QI_TYPE_DISPLAY_TARGET.LEN
     13584**DCL     13588--REDEF   13589--REDEF   13593--REDEF   13594--REDEF   13598--REDEF
QI_TYPE_DISPLAY_TARGET.PICTURE_STRING
     13654**DCL     13657--REDEF   13658--REDEF   13661--REDEF   13662--REDEF   13665--REDEF
QI_TYPE_DISPLAY_TARGET.ROUND
     13687**DCL     13688--REDEF   13689--REDEF
QI_TYPE_DISPLAY_TARGET.SIZE_ERROR
     13673**DCL     13674--REDEF
QI_TYPE_DISPLAY_TARGET.SRCH_VRFY_ELEMS
     13623**DCL     13626--REDEF
