VERSION E05

PL6.E3A0      #001=QIE$ERROR_MESS File=QIE$ERROR_MESS.:E05TSI                    WED 07/30/97 05:19 Page:1
        1        1        /*M* QIE$ERROR_MESS:  EXTRACTable error messages.  */
        2        2        /*T***********************************************************/
        3        3        /*T*                                                         */
        4        4        /*T* Copyright (c) Bull HN Information Systems Inc., 1997    */
        5        5        /*T*                                                         */
        6        6        /*T***********************************************************/
        7        7        /*X* DMC,PLM=4,IND=0,DCI=4,CSI=2,IAD=2,DTI=2,AND,ECI=0,DIN=2,STI=2 */
        8        8
        9        9        QIE$ERROR_MESS: PROC;
       10       10
       11       11          %INCLUDE QI_PERR_C;
       12      179
       13      180        /*P*  NAME:         QIE$ERROR_MESS
       14      181              PURPOSE:      To provide a home for the FPL interpreter's
       15      182                            messages to the outside world.
       16      183              DESCRIPTION:  There are two different types of error conditions
       17      184                            encountered by the FPL interpreter:
       18      185                            1)  An illegal entry was made by an end-user.
       19      186                                In this case, the first set of error messages
       20      187                                below are used to communicate the error to
       21      188                                the end-user.  For messages with substitution,
       22      189                                %Uns are used.  Messages may be changed and/or
       23      190                                translated, but the FPL interpreter will only
       24      191                                substitute %Un values for those messages in
       25      192                                the standard English version of this file.
       26      193                            2)  The forms program is aborting.
       27      194                                In this case, the FPL interpreter packages
       28      195                                up from one to three error codes and %Un
       29      196                                substitutions into a Q_FPABT structure (see
       30      197                                Q_MACRO_C) and writes to the host.  The
       31      198                                reader may then translate the errors by
       32      199                                calling M$ERRMSG in the host.
       33      200        */
       34      201        /*E*  ERROR:    QBV-E$ILLEGAL_VALUE
       35      202              MESSAGE:  Illegal value.
       36      203        */
       37      204        /*E*  ERROR:    QCR-E$EMBEDDED_BLANKS
PL6.E3A0      #001=QIE$ERROR_MESS File=QIE$ERROR_MESS.:E05TSI                    WED 07/30/97 05:19 Page:2
       38      205              MESSAGE:  Embedded blank(s) in numeric input.
       39      206        */
       40      207        /*E*  ERROR:    QCR_E$SIGN_ONLY
       41      208              MESSAGE:  No numeric value entered.
       42      209        */
       43      210        /*E*  ERROR:    QCR-E$NON_NUMERICAL
       44      211              MESSAGE:  Illegal numeric character:  "%U1".
       45      212        */
       46      213        /*E*  ERROR:    QCR-E$ILLEGAL_CHARACTER
       47      214              MESSAGE:  Illegal character:  "%U1".
       48      215        */
       49      216        /*E*  ERROR:    QCR-E$MINIMUM_SIZE
       50      217              MESSAGE:  Length of data must be at least %U1.
       51      218        */
       52      219        /*E*  ERROR:    QCR-E$MINIMUM_SIZE_LEADING_SIGN
       53      220         MESSAGE:  Length of data must be at least %U1 digits with an optional leading sign.
       54      221        */
       55      222        /*E*  ERROR:    QCR-E$MINIMUM_SIZE_TRAILING_SIGN
       56      223        MESSAGE:  Length of data must be at least %U1 digits with an optional trailing sign.
       57      224        */
       58      225        /*E*  ERROR:    QCR-E$MAXIMUM_SIZE_LEADING_SIGN
       59      226           MESSAGE:  Length of data may be at most %U1 digits with an optional leading sign.
       60      227        */
       61      228        /*E*  ERROR:    QCR-E$MAXIMUM_SIZE_TRAILING_SIGN
       62      229          MESSAGE:  Length of data may be at most %U1 digits with an optional trailing sign.
       63      230        */
       64      231        /*E*  ERROR:    QCR_E$ILLEGAL_INPUT
       65      232              MESSAGE:  Data entered is badly formed.
       66      233        */
       67      234        /*E*  ERROR:    QCR-E$ENTRY_REQUIRED
       68      235              MESSAGE:  Entry required.
       69      236        */
       70      237        /*E*  ERROR:    QCR-E$FULLA_FILL
       71      238              MESSAGE:  Data entry of only fill characters with class check is illegal.
       72      239        */
       73      240
       74      241        /*  Abort reasons.  */
PL6.E3A0      #001=QIE$ERROR_MESS File=QIE$ERROR_MESS.:E05TSI                    WED 07/30/97 05:19 Page:3
       75      242        /*E*  ERROR:    QB-E$FILE_NOT_OPEN
       76      243              MESSAGE:  File %U1 is not open.
       77      244        */
       78      245        /*E*  ERROR:    QBO-E$FILE_ALREADY_OPEN
       79      246              MESSAGE:  File %U1 is already open.
       80      247        */
       81      248        /*E*  ERROR:    QBC-E$FILE_ALREADY_CLOSED
       82      249              MESSAGE:  File %U1 is already closed.
       83      250        */
       84      251        /*E*  ERROR:    QB-E$FILE_NOT_OPEN_INPUT
       85      252              MESSAGE:  An input operation was attempted on file %U1,
       86      253                        which is not open for INPUT or I-O.
       87      254        */
       88      255        /*E*  ERROR:    QB-E$FILE_NOT_OPEN_OUTPUT
       89      256              MESSAGE:  An output operation was attempted on file %U1,
       90      257                        which is not open for OUTPUT or I-O.
       91      258        */
       92      259        /*E*  ERROR:    QB-E$FRAME_NOT_ACTIVE
       93      260              MESSAGE:  Frame %U1 involved in the current operation
       94      261                        is not ACTIVATEd.
       95      262        */
       96      263        /*E*  ERROR:    QBA-E$FRAME_ALREADY_ACTIVATED
       97      264              MESSAGE:  Frame %U1 is already ACTIVATEd.
       98      265        */
       99      266        /*E*  ERROR:    QBA-E$FRAME_ALREADY_DEACTIVATED
      100      267              MESSAGE:  Frame %U1 is already DEACTIVATEd.
      101      268        */
      102      269        /*E*  ERROR:    QBV-E$VERIFY_GET_FIELD_DISABLED
      103      270              MESSAGE:  Field %U1 was found illegal by VERIFY,
      104      271                        but cannot be reread as it is DISABLED for INPUT.
      105      272        */
      106      273        /*E*  ERROR:    QBV-E$VERIFY_ILLEGAL_DEFAULT
      107      274              MESSAGE:  Field %U1 was found illegal by VERIFY,
      108      275                        but its illegal value is the DEFAULT value.
      109      276        */
      110      277        /*E*  ERROR:    QCR-E$POSTREAD_ILLEGAL_DEFAULT
      111      278              MESSAGE:  Field %U1 was found illegal by post-read validation,
PL6.E3A0      #001=QIE$ERROR_MESS File=QIE$ERROR_MESS.:E05TSI                    WED 07/30/97 05:19 Page:4
      112      279                        but its illegal value is the DEFAULT value.
      113      280        */
      114      281        /*E*  ERROR:    QBV-E$RETRY_COUNT_EXHAUSTED
      115      282              MESSAGE:  The RETRY count has been exhausted.
      116      283        */
      117      284        /*E*  ERROR:    QBA-E$FIELD_OVERLAPS
      118      285              MESSAGE:  Field %U1 overlaps field %U2.
      119      286        */
      120      287        /*E*  ERROR:    QBA-E$FIELD_SPACE_CADET
      121      288              MESSAGE:  Field %U1 has a POSition clause which places it
      122      289                        off the current device.
      123      290        */
      124      291        /*E*  ERROR:    QCI-E$FORM_READ_ERROR
      125      292              MESSAGE:  A FORM I-O error occurred while reading through
      126      293                        file %U1.
      127      294        */
      128      295        /*E*  ERROR:    QCI-E$FORM_WRITE_ERROR
      129      296              MESSAGE:  A FORM I-O error occurred while writing through
      130      297                        file %U1.
      131      298        */
      132      299        /*E*  ERROR:    QBR-E$TRANSACTION_TYPE_STAR
      133      300              MESSAGE:  The unauthorized use of a STARed (*) TRANSACTION TYPE
      134      301                        was attempted on file %U1.
      135      302        */
      136      303        /*E*  ERROR:    QB-E$TRANSACTION_TYPE_ILLEGAL
      137      304              MESSAGE:  The use of an illegal TRANSACTION TYPE was attempted
      138      305                        on file %U1.
      139      306        */
      140      307        /*E*  ERROR:    QBW-E$TRANSACTION_TYPE_WILD
      141      308              MESSAGE:  A WRITE of a wildcarded TRANSACTION TYPE was attempted
      142      309                        on file %U1.
      143      310        */
      144      311        /*E*  ERROR:    QB-E$TPAP_ABORT
      145      312              MESSAGE:  Your Transaction Processing Applications Program aborted.
      146      313        */
      147      314        /*E*  ERROR:    QBR-E$TRANSACTION_READ_ERROR
      148      315              MESSAGE:  A TRANSACTION I-O error occurred while reading through
PL6.E3A0      #001=QIE$ERROR_MESS File=QIE$ERROR_MESS.:E05TSI                    WED 07/30/97 05:19 Page:5
      149      316                        file %U1.
      150      317        */
      151      318        /*E*  ERROR:    QBW-E$TRANSACTION_WRITE_ERROR
      152      319              MESSAGE:  A TRANSACTION I-O error occurred while writing through
      153      320                        file %U1.
      154      321        */
      155      322        /*E*  ERROR:    QBW-E$TRANSACTION_RRR_ERROR
      156      323              MESSAGE:  A TRANSACTION I-O error occurred while reporting an RRR
      157      324                        event through file %U1.
      158      325        */
      159      326        /*E*  ERROR:    QB-E$TRANSACTION_LOST_DATA
      160      327              MESSAGE:  A TRANSACTION lost data error occurred on file %U1.
      161      328        */
      162      329        /*E*  ERROR:    QI-E$BINARY_OVERFLOW
      163      330              MESSAGE:  A binary conversion during the current operation
      164      331                        has resulted in an overflow.
      165      332        */
      166      333        /*E*  ERROR:    QBS-E$SUBSCRIPT_OUT_OF_RANGE
      167      334              MESSAGE:  A subscript within the current operation reached
      168      335                        a value of %U1, whereas its maximum is %U2.
      169      336        */
      170      337        /*E*  ERROR:    QBS-E$SUBSCRIPT_OUT_OF_SIGHT
      171      338              MESSAGE:  A subscript within the current operation reached a value
      172      339                        greater than X'FFFF', which is extremely illegal.
      173      340        */
      174      341        /*E*  ERROR:    QBS-E$SUBSCRIPT_ZERO
      175      342              MESSAGE:  A subscript within the current operation reached a value
      176      343                        of zero (0), which is less than the minimum of one (1).
      177      344        */
      178      345        /*E*  ERROR:    QBL-E$LOAD_ILLEGAL_FID
      179      346              MESSAGE:  An attempt was made to LOAD the illegal FID
      180      347                        "%U1".
      181      348        */
      182      349        /*E*  ERROR:    QBL-E$LOAD_ERROR
      183      350              MESSAGE:  The following error occurred while attempting to LOAD
      184      351                        "%U1":
      185      352        */
PL6.E3A0      #001=QIE$ERROR_MESS File=QIE$ERROR_MESS.:E05TSI                    WED 07/30/97 05:19 Page:6
      186      353        /*E*  ERROR:    QBL-E$NO_LOADER_INFORMATION
      187      354              MESSAGE:  An attempt was made to "ACCEPT identifier FROM LOADER",
      188      355                        but the current program was not LOADed with the USING clause.
      189      356        */
      190      357        /*E*  ERROR:    QBA-E$ABORT_EXECUTED
      191      358              MESSAGE:  Your FPL program has executed an ABORT statement.
      192      359        */
      193      360        /*E*  ERROR:    QBM-E$DE_EDIT_ILLEGAL_SOURCE
      194      361              MESSAGE:  The numeric edited source of a de-editing MOVE
      195      362                        operation did not match its PICture string.
      196      363        */
      197      364        /*E*  ERROR:    QBC-E$CALL_UNSATISFIED_REFERENCE
      198      365              MESSAGE:  An attempt was made to CALL an unsatisfied reference
      199      366                        (ENTADDR(NIL)).
      200      367        */
      201      368        /*E*  ERROR:    QI-E$COMMERCIAL_ILLEGAL_CHARACTER
      202      369              MESSAGE:  A numeric operation was attempted on data which contained
      203      370                        an illegal decimal digit or sign digit.
      204      371        */
      205      372        /*E*  ERROR:    QI-E$COMMERCIAL_DIVIDE_BY_ZERO
      206      373              MESSAGE:  A division operation was attempted with a divisor
      207      374                        whose value was zero.
      208      375        */
      209      376
      210      377        /*  Internal errors.  */
      211      378        /*E*  ERROR:    QI-E$INTERNAL_COMPILER_ERROR
      212      379              MESSAGE:  The FPL interpreter has detected an internal compiler error.
      213      380                        Please report this in STARLOG.
      214      381        */
      215      382        /*E*  ERROR:    QI-E$INTERNAL_INTERPRETER_ERROR
      216      383              MESSAGE:  The FPL interpreter has detected an internal error.
      217      384                        Please report this in STARLOG.
      218      385        */
      219      386        /*E*  ERROR:    QI-E$UNEXPECTED_QCC_ALTRET
      220      387              MESSAGE:  The FPL interpreter has received an unexpected ALTRET
      221      388                        from a QCC-module CALL (internal error).
      222      389                        Please report this in STARLOG.
PL6.E3A0      #001=QIE$ERROR_MESS File=QIE$ERROR_MESS.:E05TSI                    WED 07/30/97 05:19 Page:7
      223      390        */
      224      391
      225      392        /*  Internal errors (from the outside-in).  */
      226      393        /*E*  ERROR:    QI-E$INTERPRETER_TRAP
      227      394              MESSAGE:  The FPL interpreter appears to be under the impression
      228      395                        that it has trapped @.%U1.
      229      396                        Please report this in STARLOG.
      230      397        */
      231      398        /*E*  ERROR:    QI-E$UNEXPECTED_ALTRET
      232      399              MESSAGE:  The FPL interpreter has received an unexpected ALTRET
      233      400                        from a monitor service CALL @.%U1.
      234      401                        Please report this in STARLOG.
      235      402        */
      236      403
      237      404        /*  Other strange errors.  */
      238      405        /*E*  ERROR:    QI-E$INCOMPATIBLE_VERSION
      239      406              MESSAGE:  The FPL compiler version used to create this rununit
      240      407                        is incompatible with the current FPL interpreter:
      241      408                        please recompile your program.
      242      409        */
      243      410        /*E*  ERROR:    QI-E$INSUFFICIENT_MEMORY
      244      411              MESSAGE:  The FPL program you are trying to run requires more
      245      412                        memory than is currently available within your FEP:
      246      413                        you may try again later.
      247      414        */
      248      415
      249      416
      250      417
      251      418
      252      419        /*  "I'm aborting" errors:  QIO-type (O for Opcode).  */
      253      420        /*E*  ERROR:    QIO-QI#OP_ACCEPT
      254      421              MESSAGE:  FPL abort @.%U1; opcode = ACCEPT.
      255      422        */
      256      423        /*E*  ERROR:    QIO-QI#OP_ADD
      257      424              MESSAGE:  FPL abort @.%U1; opcode = ADD.
      258      425        */
      259      426        /*E*  ERROR:    QIO-QI#OP_ADDX
PL6.E3A0      #001=QIE$ERROR_MESS File=QIE$ERROR_MESS.:E05TSI                    WED 07/30/97 05:19 Page:8
      260      427              MESSAGE:  FPL abort @.%U1; opcode = ADD (result in accumulator).
      261      428        */
      262      429        /*E*  ERROR:    QIO-QI#OP_CALL
      263      430              MESSAGE:  FPL abort @.%U1; opcode = CALL.
      264      431        */
      265      432        /*E*  ERROR:    QIO-QI#OP_DIV
      266      433              MESSAGE:  FPL abort @.%U1; opcode = DIVIDE.
      267      434        */
      268      435        /*E*  ERROR:    QIO-QI#OP_DIVX
      269      436              MESSAGE:  FPL abort @.%U1; opcode = DIVIDE (result in accumulator).
      270      437        */
      271      438        /*E*  ERROR:    QIO-QI#OP_GOTO
      272      439              MESSAGE:  FPL abort @.%U1; opcode = GO TO.
      273      440        */
      274      441        /*E*  ERROR:    QIO-QI#OP_GOTODP
      275      442              MESSAGE:  FPL abort @.%U1; opcode = GO TO...DEPENDING ON.
      276      443        */
      277      444        /*E*  ERROR:    QIO-QI#OP_IFRELN
      278      445              MESSAGE:  FPL abort @.%U1; opcode = IF relational numeric.
      279      446        */
      280      447        /*E*  ERROR:    QIO-QI#OP_IFRELA
      281      448              MESSAGE:  FPL abort @.%U1; opcode = IF relational alphanumeric.
      282      449        */
      283      450        /*E*  ERROR:    QIO-QI#OP_IFCLS
      284      451              MESSAGE:  FPL abort @.%U1; opcode = IF class.
      285      452        */
      286      453        /*E*  ERROR:    QIO-QI#OP_IFCNDN
      287      454              MESSAGE:  FPL abort @.%U1; opcode = IF conditional numeric (88 level).
      288      455        */
      289      456        /*E*  ERROR:    QIO-QI#OP_IFCNDA
      290      457              MESSAGE:  FPL abort @.%U1; opcode = IF conditional alphanumeric (88 level).
      291      458        */
      292      459        /*E*  ERROR:    QIO-QI#OP_IFIDX
      293      460              MESSAGE:  FPL abort @.%U1; opcode = IF index.
      294      461        */
      295      462        /*E*  ERROR:    QIO-QI#OP_INSPECT
      296      463              MESSAGE:  FPL abort @.%U1; opcode = INSPECT.
PL6.E3A0      #001=QIE$ERROR_MESS File=QIE$ERROR_MESS.:E05TSI                    WED 07/30/97 05:19 Page:9
      297      464        */
      298      465        /*E*  ERROR:    QIO-QI#OP_MOVG
      299      466              MESSAGE:  FPL abort @.%U1; opcode = MOVE group.
      300      467        */
      301      468        /*E*  ERROR:    QIO-QI#OP_MOVA
      302      469              MESSAGE:  FPL abort @.%U1; opcode = MOVE alphanumeric.
      303      470        */
      304      471        /*E*  ERROR:    QIO-QI#OP_MOVN
      305      472              MESSAGE:  FPL abort @.%U1; opcode = MOVE numeric.
      306      473        */
      307      474        /*E*  ERROR:    QIO-QI#OP_MOVP
      308      475              MESSAGE:  FPL abort @.%U1; opcode = MOVE packed.
      309      476        */
      310      477        /*E*  ERROR:    QIO-QI#OP_MOVB
      311      478              MESSAGE:  FPL abort @.%U1; opcode = MOVE binary.
      312      479        */
      313      480        /*E*  ERROR:    QIO-QI#OP_MOVAJ
      314      481              MESSAGE:  FPL abort @.%U1; opcode = MOVE alphanumeric justified right.
      315      482        */
      316      483        /*E*  ERROR:    QIO-QI#OP_MOVAE
      317      484              MESSAGE:  FPL abort @.%U1; opcode = MOVE alphanumeric edited.
      318      485        */
      319      486        /*E*  ERROR:    QIO-QI#OP_MOVNE
      320      487              MESSAGE:  FPL abort @.%U1; opcode = MOVE numeric edited.
      321      488        */
      322      489        /*E*  ERROR:    QIO-QI#OP_MOVDE
      323      490              MESSAGE:  FPL abort @.%U1; opcode = MOVE numeric de-edited.
      324      491        */
      325      492        /*E*  ERROR:    QIO-QI#OP_PERFM
      326      493              MESSAGE:  FPL abort @.%U1; opcode = PERFORM.
      327      494        */
      328      495        /*E*  ERROR:    QIO-QI#OP_PERFMT
      329      496              MESSAGE:  FPL abort @.%U1; opcode = EXIT from PERFORM.
      330      497        */
      331      498        /*E*  ERROR:    QIO-QI#OP_SET
      332      499              MESSAGE:  FPL abort @.%U1; opcode = SET.
      333      500        */
PL6.E3A0      #001=QIE$ERROR_MESS File=QIE$ERROR_MESS.:E05TSI                    WED 07/30/97 05:19 Page:10
      334      501        /*E*  ERROR:    QIO-QI#OP_SETD
      335      502              MESSAGE:  FPL abort @.%U1; opcode = SETD.
      336      503        */
      337      504        /*E*  ERROR:    QIO-QI#OP_SETX
      338      505              MESSAGE:  FPL abort @.%U1; opcode = SETX.
      339      506        */
      340      507        /*E*  ERROR:    QIO-QI#OP_SETXUD
      341      508              MESSAGE:  FPL abort @.%U1; opcode = SETXUD.
      342      509        */
      343      510        /*E*  ERROR:    QIO-QI#OP_CNVBNX
      344      511              MESSAGE:  FPL abort @.%U1; opcode = Convert binary to numeric.
      345      512        */
      346      513        /*E*  ERROR:    QIO-QI#OP_CNVBPX
      347      514              MESSAGE:  FPL abort @.%U1; opcode = Convert binary to packed.
      348      515        */
      349      516        /*E*  ERROR:    QIO-QI#OP_CNVBBX
      350      517              MESSAGE:  FPL abort @.%U1; opcode = Convert binary to binary.
      351      518        */
      352      519        /*E*  ERROR:    QIO-QI#OP_STOP_RUN
      353      520              MESSAGE:  FPL abort @.%U1; opcode = STOP RUN.
      354      521        */
      355      522        /*E*  ERROR:    QIO-QI#OP_STOP_1
      356      523              MESSAGE:  FPL abort @.%U1; opcode = STOP pause.
      357      524        */
      358      525        /*E*  ERROR:    QIO-QI#OP_SUB
      359      526              MESSAGE:  FPL abort @.%U1; opcode = SUBTRACT.
      360      527        */
      361      528        /*E*  ERROR:    QIO-QI#OP_SUBX
      362      529              MESSAGE:  FPL abort @.%U1; opcode = SUBTRACT (result in accumulator).
      363      530        */
      364      531        /*E*  ERROR:    QIO-QI#OP_ROUND
      365      532              MESSAGE:  FPL abort @.%U1; opcode = ROUND (accumulator).
      366      533        */
      367      534        /*E*  ERROR:    QIO-QI#OP_CLOSE
      368      535              MESSAGE:  FPL abort @.%U1; opcode = CLOSE.
      369      536        */
      370      537        /*E*  ERROR:    QIO-QI#OP_ACTIVATE
PL6.E3A0      #001=QIE$ERROR_MESS File=QIE$ERROR_MESS.:E05TSI                    WED 07/30/97 05:19 Page:11
      371      538              MESSAGE:  FPL abort @.%U1; opcode = ACTIVATE.
      372      539        */
      373      540        /*E*  ERROR:    QIO-QI#OP_DEACTIVATE
      374      541              MESSAGE:  FPL abort @.%U1; opcode = DEACTIVATE.
      375      542        */
      376      543        /*E*  ERROR:    QIO-QI#OP_LOAD
      377      544              MESSAGE:  FPL abort @.%U1; opcode = LOAD.
      378      545        */
      379      546        /*E*  ERROR:    QIO-QI#OP_ENABLE
      380      547              MESSAGE:  FPL abort @.%U1; opcode = ENABLE.
      381      548        */
      382      549        /*E*  ERROR:    QIO-QI#OP_DISABLE
      383      550              MESSAGE:  FPL abort @.%U1; opcode = DISABLE.
      384      551        */
      385      552        /*E*  ERROR:    QIO-QI#OP_OPEN
      386      553              MESSAGE:  FPL abort @.%U1; opcode = OPEN.
      387      554        */
      388      555        /*E*  ERROR:    QIO-QI#OP_READ_TRAN
      389      556              MESSAGE:  FPL abort @.%U1; opcode = READ transaction.
      390      557        */
      391      558        /*E*  ERROR:    QIO-QI#OP_READ_FORM
      392      559              MESSAGE:  FPL abort @.%U1; opcode = READ form.
      393      560        */
      394      561        /*E*  ERROR:    QIO-QI#OP_MULT
      395      562              MESSAGE:  FPL abort @.%U1; opcode = MULTIPLY.
      396      563        */
      397      564        /*E*  ERROR:    QIO-QI#OP_MULTX
      398      565              MESSAGE:  FPL abort @.%U1; opcode = MULTIPLY (result in accumulator).
      399      566        */
      400      567        /*E*  ERROR:    QIO-QI#OP_ALL_LITERAL
      401      568              MESSAGE:  FPL abort @.%U1; opcode = ALL "literal" expansion.
      402      569        */
      403      570        /*E*  ERROR:    QIO-QI#OP_APPLY
      404      571              MESSAGE:  FPL abort @.%U1; opcode = APPLY.
      405      572        */
      406      573        /*E*  ERROR:    QIO-QI#OP_IFINDR
      407      574              MESSAGE:  FPL abort @.%U1; opcode = IF status.
PL6.E3A0      #001=QIE$ERROR_MESS File=QIE$ERROR_MESS.:E05TSI                    WED 07/30/97 05:19 Page:12
      408      575        */
      409      576        /*E*  ERROR:    QIO-QI#OP_WRITE_TRAN
      410      577              MESSAGE:  FPL abort @.%U1; opcode = WRITE transaction.
      411      578        */
      412      579        /*E*  ERROR:    QIO-QI#OP_WRITE_FORM
      413      580              MESSAGE:  FPL abort @.%U1; opcode = WRITE form.
      414      581        */
      415      582        /*E*  ERROR:    QIO-QI#OP_PRESENT
      416      583              MESSAGE:  FPL abort @.%U1; opcode = PRESENT.
      417      584        */
      418      585        /*E*  ERROR:    QIO-QI#OP_VERIFY
      419      586              MESSAGE:  FPL abort @.%U1; opcode = VERIFY.
      420      587        */
      421      588        /*E*  ERROR:    QIO-QI#OP_CLEAR
      422      589              MESSAGE:  FPL abort @.%U1; opcode = CLEAR.
      423      590        */
      424      591        /*E*  ERROR:    QIO-QI#OP_DISPLAY
      425      592              MESSAGE:  FPL abort @.%U1; opcode = DISPLAY.
      426      593        */
      427      594        /*E*  ERROR:    QIO-QI#OP_EXIT
      428      595              MESSAGE:  FPL abort @.%U1; opcode = EXIT.
      429      596        */
      430      597        /*E*  ERROR:    QIO-QI#OP_SUBSCR
      431      598              MESSAGE:  FPL abort @.%U1; opcode = Subscript calculation.
      432      599        */
      433      600        /*E*  ERROR:    QIO-QI#OP_CNVPN
      434      601              MESSAGE:  FPL abort @.%U1; opcode = Convert packed to numeric.
      435      602        */
      436      603        /*E*  ERROR:    QIO-QI#OP_CNVBN
      437      604              MESSAGE:  FPL abort @.%U1; opcode = Convert binary to numeric.
      438      605        */
      439      606        /*E*  ERROR:    QIO-QI#OP_MOVNA
      440      607              MESSAGE:  FPL abort @.%U1; opcode = MOVE numeric (from accumulator).
      441      608        */
      442      609        /*E*  ERROR:    QIO-QI#OP_MOVPA
      443      610              MESSAGE:  FPL abort @.%U1; opcode = MOVE packed (from accumulator).
      444      611        */
PL6.E3A0      #001=QIE$ERROR_MESS File=QIE$ERROR_MESS.:E05TSI                    WED 07/30/97 05:19 Page:13
      445      612        /*E*  ERROR:    QIO-QI#OP_MOVBA
      446      613              MESSAGE:  FPL abort @.%U1; opcode = MOVE binary (from accumulator).
      447      614        */
      448      615        /*E*  ERROR:    QIO-QI#OP_MOVNEA
      449      616              MESSAGE:  FPL abort @.%U1; opcode = MOVE numeric edited (from accumulator).
      450      617        */
      451      618        /*E*  ERROR:    QIO-QI#OP_CNVNBT
      452      619              MESSAGE:  FPL abort @.%U1; opcode = Convert numeric to binary temp.
      453      620        */
      454      621        /*E*  ERROR:    QIO-QI#OP_CNVPBT
      455      622              MESSAGE:  FPL abort @.%U1; opcode = Convert packed to binary temp.
      456      623        */
      457      624        /*E*  ERROR:    QIO-QI#OP_INIT
      458      625              MESSAGE:  FPL abort @.%U1; opcode = Initialization op-code.
      459      626        */
      460      627        /*E*  ERROR:    QIO-QI#OP_IFRELG
      461      628              MESSAGE:  FPL abort @.%U1; opcode = IF relational group.
      462      629        */
      463      630        /*E*  ERROR:    QIO-QI#OP_JAZ
      464      631              MESSAGE:  FPL abort @.%U1; opcode = Jump if A-register is zero.
      465      632        */
      466      633        /*E*  ERROR:    QIO-QI#OP_ZACCEPT
      467      634              MESSAGE:  FPL abort @.%U1; opcode = ZACCEPT.
      468      635        */
      469      636        /*E*  ERROR:    QIO-QI#OP_ZDISPLAY
      470      637              MESSAGE:  FPL abort @.%U1; opcode = ZDISPLAY.
      471      638        */
      472      639        /*E*  ERROR:    QIO-QI#OP_JND
      473      640              MESSAGE:  FPL abort @.%U1; opcode = Jump if not NO DATA flag.
      474      641        */
      475      642        /*E*  ERROR:    QIO-QI#OP_ABORT
      476      643              MESSAGE:  FPL abort @.%U1; opcode = ABORT.
      477      644        */
      478      645        /*E*  ERROR:    QIO-QI#OP_SEARCH
      479      646              MESSAGE:  FPL abort @.%U1; opcode = SEARCH.
      480      647        */
      481      648        /*E*  ERROR:    QIO-QI#OP_INDEX
PL6.E3A0      #001=QIE$ERROR_MESS File=QIE$ERROR_MESS.:E05TSI                    WED 07/30/97 05:19 Page:14
      482      649              MESSAGE:  FPL abort @.%U1; opcode = INDEX.
      483      650        */
      484      651        /*E*  ERROR:    QIO-QI#OP_FORM_START
      485      652              MESSAGE:  FPL abort @.%U1; opcode = FORM START.
      486      653        */
      487      654
      488      655    1   END QIE$ERROR_MESS;

PL6.E3A0      #001=QIE$ERROR_MESS File=QIE$ERROR_MESS.:E05TSI                    WED 07/30/97 05:19 Page:15
--  Include file information  --

   QI_PERR_C.:E05TOU  is referenced.
   G_LCP6_E.:E05TOU  was found in the system file and is never referenced.
   GT_LCP6_M.:E05TOU  was found in the system file and is never referenced.
   KI_CP6.:E05TOU  was found in the system file and is never referenced.
   GF_LCP6_M.:E05TOU  was found in the system file and is never referenced.
   GM_LCP6_M.:E05TOU  was found in the system file and is never referenced.
   GU_LCP6_M.:E05TOU  was found in the system file and is never referenced.
   GJ_LCP6_M.:E05TOU  was found in the system file and is never referenced.
   GH_LCP6_M.:E05TOU  was found in the system file and is never referenced.
      No diagnostics issued in procedure QIE$ERROR_MESS.

   No code generated for procedure QIE$ERROR_MESS .
   Procedure QIE$ERROR_MESS requires 4 words of local(AUTO) storage.

    No errors detected in file QIE$ERROR_MESS.:E05TSI    .

PL6.E3A0      #001=QIE$ERROR_MESS File=QIE$ERROR_MESS.:E05TSI                    WED 07/30/97 05:19 Page:16

 Object Unit name= QIE$ERROR_MESS                             File name= QIE$ERROR_MESS.:E05TOU
 UTS= JUL 30 '97 05:19:35.40 WED                              Compiler= PL-6/E31         Sev=      00
 SharedLib= :SHARED_LCP6_SYSTEM                               Alt SharedLib=


    ****  Control sections  ****

 Sect   Type Bound  Init  Size HexSiz  Section name
    0   Proc  even  none     0      0  QIE$ERROR_MESS

    ****  Entry defs  ****

                              Check   Calling
                             calling  sequence
  Sect HexLoc Primary Altret sequence   type   Parms  Name
     0      0   yes            yes     ~proc       0  QIE$ERROR_MESS

  ****  Data refs  ****

  Flags:  r = read only, s = secondary
Flgs Name                             Flgs Name                             Flgs Name
r    G$ROS$
PL6.E3A0      #001=QIE$ERROR_MESS File=QIE$ERROR_MESS.:E05TSI                    WED 07/30/97 05:19 Page:17

        1        1        /*M* QIE$ERROR_MESS:  EXTRACTable error messages.  */
        2        2        /*T***********************************************************/
        3        3        /*T*                                                         */
        4        4        /*T* Copyright (c) Bull HN Information Systems Inc., 1997    */
        5        5        /*T*                                                         */
        6        6        /*T***********************************************************/
        7        7        /*X* DMC,PLM=4,IND=0,DCI=4,CSI=2,IAD=2,DTI=2,AND,ECI=0,DIN=2,STI=2 */
        8        8
        9        9        QIE$ERROR_MESS: PROC;
       10       10
       11       11          %INCLUDE QI_PERR_C;
       12      179
       13      180        /*P*  NAME:         QIE$ERROR_MESS
       14      181              PURPOSE:      To provide a home for the FPL interpreter's
       15      182                            messages to the outside world.
       16      183              DESCRIPTION:  There are two different types of error conditions
       17      184                            encountered by the FPL interpreter:
       18      185                            1)  An illegal entry was made by an end-user.
       19      186                                In this case, the first set of error messages
       20      187                                below are used to communicate the error to
       21      188                                the end-user.  For messages with substitution,
       22      189                                %Uns are used.  Messages may be changed and/or
       23      190                                translated, but the FPL interpreter will only
       24      191                                substitute %Un values for those messages in
       25      192                                the standard English version of this file.
       26      193                            2)  The forms program is aborting.
       27      194                                In this case, the FPL interpreter packages
       28      195                                up from one to three error codes and %Un
       29      196                                substitutions into a Q_FPABT structure (see
       30      197                                Q_MACRO_C) and writes to the host.  The
       31      198                                reader may then translate the errors by
       32      199                                calling M$ERRMSG in the host.
       33      200        */
       34      201        /*E*  ERROR:    QBV-E$ILLEGAL_VALUE
       35      202              MESSAGE:  Illegal value.
       36      203        */
       37      204        /*E*  ERROR:    QCR-E$EMBEDDED_BLANKS
PL6.E3A0      #001=QIE$ERROR_MESS File=QIE$ERROR_MESS.:E05TSI                    WED 07/30/97 05:19 Page:18
       38      205              MESSAGE:  Embedded blank(s) in numeric input.
       39      206        */
       40      207        /*E*  ERROR:    QCR_E$SIGN_ONLY
       41      208              MESSAGE:  No numeric value entered.
       42      209        */
       43      210        /*E*  ERROR:    QCR-E$NON_NUMERICAL
       44      211              MESSAGE:  Illegal numeric character:  "%U1".
       45      212        */
       46      213        /*E*  ERROR:    QCR-E$ILLEGAL_CHARACTER
       47      214              MESSAGE:  Illegal character:  "%U1".
       48      215        */
       49      216        /*E*  ERROR:    QCR-E$MINIMUM_SIZE
       50      217              MESSAGE:  Length of data must be at least %U1.
       51      218        */
       52      219        /*E*  ERROR:    QCR-E$MINIMUM_SIZE_LEADING_SIGN
       53      220         MESSAGE: Length of data must be at least %U1 digits with an optional leading sign.
       54      221        */
       55      222        /*E*  ERROR:    QCR-E$MINIMUM_SIZE_TRAILING_SIGN
       56      223        MESSAGE: Length of data must be at least %U1 digits with an optional trailing sign.
       57      224        */
       58      225        /*E*  ERROR:    QCR-E$MAXIMUM_SIZE_LEADING_SIGN
       59      226           MESSAGE: Length of data may be at most %U1 digits with an optional leading sign.
       60      227        */
       61      228        /*E*  ERROR:    QCR-E$MAXIMUM_SIZE_TRAILING_SIGN
       62      229          MESSAGE: Length of data may be at most %U1 digits with an optional trailing sign.
       63      230        */
       64      231        /*E*  ERROR:    QCR_E$ILLEGAL_INPUT
       65      232              MESSAGE:  Data entered is badly formed.
       66      233        */
       67      234        /*E*  ERROR:    QCR-E$ENTRY_REQUIRED
       68      235              MESSAGE:  Entry required.
       69      236        */
       70      237        /*E*  ERROR:    QCR-E$FULLA_FILL
       71      238              MESSAGE:  Data entry of only fill characters with class check is illegal.
       72      239        */
       73      240
       74      241        /*  Abort reasons.  */
PL6.E3A0      #001=QIE$ERROR_MESS File=QIE$ERROR_MESS.:E05TSI                    WED 07/30/97 05:19 Page:19
       75      242        /*E*  ERROR:    QB-E$FILE_NOT_OPEN
       76      243              MESSAGE:  File %U1 is not open.
       77      244        */
       78      245        /*E*  ERROR:    QBO-E$FILE_ALREADY_OPEN
       79      246              MESSAGE:  File %U1 is already open.
       80      247        */
       81      248        /*E*  ERROR:    QBC-E$FILE_ALREADY_CLOSED
       82      249              MESSAGE:  File %U1 is already closed.
       83      250        */
       84      251        /*E*  ERROR:    QB-E$FILE_NOT_OPEN_INPUT
       85      252              MESSAGE:  An input operation was attempted on file %U1,
       86      253                        which is not open for INPUT or I-O.
       87      254        */
       88      255        /*E*  ERROR:    QB-E$FILE_NOT_OPEN_OUTPUT
       89      256              MESSAGE:  An output operation was attempted on file %U1,
       90      257                        which is not open for OUTPUT or I-O.
       91      258        */
       92      259        /*E*  ERROR:    QB-E$FRAME_NOT_ACTIVE
       93      260              MESSAGE:  Frame %U1 involved in the current operation
       94      261                        is not ACTIVATEd.
       95      262        */
       96      263        /*E*  ERROR:    QBA-E$FRAME_ALREADY_ACTIVATED
       97      264              MESSAGE:  Frame %U1 is already ACTIVATEd.
       98      265        */
       99      266        /*E*  ERROR:    QBA-E$FRAME_ALREADY_DEACTIVATED
      100      267              MESSAGE:  Frame %U1 is already DEACTIVATEd.
      101      268        */
      102      269        /*E*  ERROR:    QBV-E$VERIFY_GET_FIELD_DISABLED
      103      270              MESSAGE:  Field %U1 was found illegal by VERIFY,
      104      271                        but cannot be reread as it is DISABLED for INPUT.
      105      272        */
      106      273        /*E*  ERROR:    QBV-E$VERIFY_ILLEGAL_DEFAULT
      107      274              MESSAGE:  Field %U1 was found illegal by VERIFY,
      108      275                        but its illegal value is the DEFAULT value.
      109      276        */
      110      277        /*E*  ERROR:    QCR-E$POSTREAD_ILLEGAL_DEFAULT
      111      278              MESSAGE:  Field %U1 was found illegal by post-read validation,
PL6.E3A0      #001=QIE$ERROR_MESS File=QIE$ERROR_MESS.:E05TSI                    WED 07/30/97 05:19 Page:20
      112      279                        but its illegal value is the DEFAULT value.
      113      280        */
      114      281        /*E*  ERROR:    QBV-E$RETRY_COUNT_EXHAUSTED
      115      282              MESSAGE:  The RETRY count has been exhausted.
      116      283        */
      117      284        /*E*  ERROR:    QBA-E$FIELD_OVERLAPS
      118      285              MESSAGE:  Field %U1 overlaps field %U2.
      119      286        */
      120      287        /*E*  ERROR:    QBA-E$FIELD_SPACE_CADET
      121      288              MESSAGE:  Field %U1 has a POSition clause which places it
      122      289                        off the current device.
      123      290        */
      124      291        /*E*  ERROR:    QCI-E$FORM_READ_ERROR
      125      292              MESSAGE:  A FORM I-O error occurred while reading through
      126      293                        file %U1.
      127      294        */
      128      295        /*E*  ERROR:    QCI-E$FORM_WRITE_ERROR
      129      296              MESSAGE:  A FORM I-O error occurred while writing through
      130      297                        file %U1.
      131      298        */
      132      299        /*E*  ERROR:    QBR-E$TRANSACTION_TYPE_STAR
      133      300              MESSAGE:  The unauthorized use of a STARed (*) TRANSACTION TYPE
      134      301                        was attempted on file %U1.
      135      302        */
      136      303        /*E*  ERROR:    QB-E$TRANSACTION_TYPE_ILLEGAL
      137      304              MESSAGE:  The use of an illegal TRANSACTION TYPE was attempted
      138      305                        on file %U1.
      139      306        */
      140      307        /*E*  ERROR:    QBW-E$TRANSACTION_TYPE_WILD
      141      308              MESSAGE:  A WRITE of a wildcarded TRANSACTION TYPE was attempted
      142      309                        on file %U1.
      143      310        */
      144      311        /*E*  ERROR:    QB-E$TPAP_ABORT
      145      312              MESSAGE:  Your Transaction Processing Applications Program aborted.
      146      313        */
      147      314        /*E*  ERROR:    QBR-E$TRANSACTION_READ_ERROR
      148      315              MESSAGE:  A TRANSACTION I-O error occurred while reading through
PL6.E3A0      #001=QIE$ERROR_MESS File=QIE$ERROR_MESS.:E05TSI                    WED 07/30/97 05:19 Page:21
      149      316                        file %U1.
      150      317        */
      151      318        /*E*  ERROR:    QBW-E$TRANSACTION_WRITE_ERROR
      152      319              MESSAGE:  A TRANSACTION I-O error occurred while writing through
      153      320                        file %U1.
      154      321        */
      155      322        /*E*  ERROR:    QBW-E$TRANSACTION_RRR_ERROR
      156      323              MESSAGE:  A TRANSACTION I-O error occurred while reporting an RRR
      157      324                        event through file %U1.
      158      325        */
      159      326        /*E*  ERROR:    QB-E$TRANSACTION_LOST_DATA
      160      327              MESSAGE:  A TRANSACTION lost data error occurred on file %U1.
      161      328        */
      162      329        /*E*  ERROR:    QI-E$BINARY_OVERFLOW
      163      330              MESSAGE:  A binary conversion during the current operation
      164      331                        has resulted in an overflow.
      165      332        */
      166      333        /*E*  ERROR:    QBS-E$SUBSCRIPT_OUT_OF_RANGE
      167      334              MESSAGE:  A subscript within the current operation reached
      168      335                        a value of %U1, whereas its maximum is %U2.
      169      336        */
      170      337        /*E*  ERROR:    QBS-E$SUBSCRIPT_OUT_OF_SIGHT
      171      338              MESSAGE:  A subscript within the current operation reached a value
      172      339                        greater than X'FFFF', which is extremely illegal.
      173      340        */
      174      341        /*E*  ERROR:    QBS-E$SUBSCRIPT_ZERO
      175      342              MESSAGE:  A subscript within the current operation reached a value
      176      343                        of zero (0), which is less than the minimum of one (1).
      177      344        */
      178      345        /*E*  ERROR:    QBL-E$LOAD_ILLEGAL_FID
      179      346              MESSAGE:  An attempt was made to LOAD the illegal FID
      180      347                        "%U1".
      181      348        */
      182      349        /*E*  ERROR:    QBL-E$LOAD_ERROR
      183      350              MESSAGE:  The following error occurred while attempting to LOAD
      184      351                        "%U1":
      185      352        */
PL6.E3A0      #001=QIE$ERROR_MESS File=QIE$ERROR_MESS.:E05TSI                    WED 07/30/97 05:19 Page:22
      186      353        /*E*  ERROR:    QBL-E$NO_LOADER_INFORMATION
      187      354              MESSAGE:  An attempt was made to "ACCEPT identifier FROM LOADER",
      188      355                        but the current program was not LOADed with the USING clause.
      189      356        */
      190      357        /*E*  ERROR:    QBA-E$ABORT_EXECUTED
      191      358              MESSAGE:  Your FPL program has executed an ABORT statement.
      192      359        */
      193      360        /*E*  ERROR:    QBM-E$DE_EDIT_ILLEGAL_SOURCE
      194      361              MESSAGE:  The numeric edited source of a de-editing MOVE
      195      362                        operation did not match its PICture string.
      196      363        */
      197      364        /*E*  ERROR:    QBC-E$CALL_UNSATISFIED_REFERENCE
      198      365              MESSAGE:  An attempt was made to CALL an unsatisfied reference
      199      366                        (ENTADDR(NIL)).
      200      367        */
      201      368        /*E*  ERROR:    QI-E$COMMERCIAL_ILLEGAL_CHARACTER
      202      369              MESSAGE:  A numeric operation was attempted on data which contained
      203      370                        an illegal decimal digit or sign digit.
      204      371        */
      205      372        /*E*  ERROR:    QI-E$COMMERCIAL_DIVIDE_BY_ZERO
      206      373              MESSAGE:  A division operation was attempted with a divisor
      207      374                        whose value was zero.
      208      375        */
      209      376
      210      377        /*  Internal errors.  */
      211      378        /*E*  ERROR:    QI-E$INTERNAL_COMPILER_ERROR
      212      379              MESSAGE:  The FPL interpreter has detected an internal compiler error.
      213      380                        Please report this in STARLOG.
      214      381        */
      215      382        /*E*  ERROR:    QI-E$INTERNAL_INTERPRETER_ERROR
      216      383              MESSAGE:  The FPL interpreter has detected an internal error.
      217      384                        Please report this in STARLOG.
      218      385        */
      219      386        /*E*  ERROR:    QI-E$UNEXPECTED_QCC_ALTRET
      220      387              MESSAGE:  The FPL interpreter has received an unexpected ALTRET
      221      388                        from a QCC-module CALL (internal error).
      222      389                        Please report this in STARLOG.
PL6.E3A0      #001=QIE$ERROR_MESS File=QIE$ERROR_MESS.:E05TSI                    WED 07/30/97 05:19 Page:23
      223      390        */
      224      391
      225      392        /*  Internal errors (from the outside-in).  */
      226      393        /*E*  ERROR:    QI-E$INTERPRETER_TRAP
      227      394              MESSAGE:  The FPL interpreter appears to be under the impression
      228      395                        that it has trapped @.%U1.
      229      396                        Please report this in STARLOG.
      230      397        */
      231      398        /*E*  ERROR:    QI-E$UNEXPECTED_ALTRET
      232      399              MESSAGE:  The FPL interpreter has received an unexpected ALTRET
      233      400                        from a monitor service CALL @.%U1.
      234      401                        Please report this in STARLOG.
      235      402        */
      236      403
      237      404        /*  Other strange errors.  */
      238      405        /*E*  ERROR:    QI-E$INCOMPATIBLE_VERSION
      239      406              MESSAGE:  The FPL compiler version used to create this rununit
      240      407                        is incompatible with the current FPL interpreter:
      241      408                        please recompile your program.
      242      409        */
      243      410        /*E*  ERROR:    QI-E$INSUFFICIENT_MEMORY
      244      411              MESSAGE:  The FPL program you are trying to run requires more
      245      412                        memory than is currently available within your FEP:
      246      413                        you may try again later.
      247      414        */
      248      415
      249      416
      250      417
      251      418
      252      419        /*  "I'm aborting" errors:  QIO-type (O for Opcode).  */
      253      420        /*E*  ERROR:    QIO-QI#OP_ACCEPT
      254      421              MESSAGE:  FPL abort @.%U1; opcode = ACCEPT.
      255      422        */
      256      423        /*E*  ERROR:    QIO-QI#OP_ADD
      257      424              MESSAGE:  FPL abort @.%U1; opcode = ADD.
      258      425        */
      259      426        /*E*  ERROR:    QIO-QI#OP_ADDX
PL6.E3A0      #001=QIE$ERROR_MESS File=QIE$ERROR_MESS.:E05TSI                    WED 07/30/97 05:19 Page:24
      260      427              MESSAGE:  FPL abort @.%U1; opcode = ADD (result in accumulator).
      261      428        */
      262      429        /*E*  ERROR:    QIO-QI#OP_CALL
      263      430              MESSAGE:  FPL abort @.%U1; opcode = CALL.
      264      431        */
      265      432        /*E*  ERROR:    QIO-QI#OP_DIV
      266      433              MESSAGE:  FPL abort @.%U1; opcode = DIVIDE.
      267      434        */
      268      435        /*E*  ERROR:    QIO-QI#OP_DIVX
      269      436              MESSAGE:  FPL abort @.%U1; opcode = DIVIDE (result in accumulator).
      270      437        */
      271      438        /*E*  ERROR:    QIO-QI#OP_GOTO
      272      439              MESSAGE:  FPL abort @.%U1; opcode = GO TO.
      273      440        */
      274      441        /*E*  ERROR:    QIO-QI#OP_GOTODP
      275      442              MESSAGE:  FPL abort @.%U1; opcode = GO TO...DEPENDING ON.
      276      443        */
      277      444        /*E*  ERROR:    QIO-QI#OP_IFRELN
      278      445              MESSAGE:  FPL abort @.%U1; opcode = IF relational numeric.
      279      446        */
      280      447        /*E*  ERROR:    QIO-QI#OP_IFRELA
      281      448              MESSAGE:  FPL abort @.%U1; opcode = IF relational alphanumeric.
      282      449        */
      283      450        /*E*  ERROR:    QIO-QI#OP_IFCLS
      284      451              MESSAGE:  FPL abort @.%U1; opcode = IF class.
      285      452        */
      286      453        /*E*  ERROR:    QIO-QI#OP_IFCNDN
      287      454              MESSAGE:  FPL abort @.%U1; opcode = IF conditional numeric (88 level).
      288      455        */
      289      456        /*E*  ERROR:    QIO-QI#OP_IFCNDA
      290      457              MESSAGE:  FPL abort @.%U1; opcode = IF conditional alphanumeric (88 level).
      291      458        */
      292      459        /*E*  ERROR:    QIO-QI#OP_IFIDX
      293      460              MESSAGE:  FPL abort @.%U1; opcode = IF index.
      294      461        */
      295      462        /*E*  ERROR:    QIO-QI#OP_INSPECT
      296      463              MESSAGE:  FPL abort @.%U1; opcode = INSPECT.
PL6.E3A0      #001=QIE$ERROR_MESS File=QIE$ERROR_MESS.:E05TSI                    WED 07/30/97 05:19 Page:25
      297      464        */
      298      465        /*E*  ERROR:    QIO-QI#OP_MOVG
      299      466              MESSAGE:  FPL abort @.%U1; opcode = MOVE group.
      300      467        */
      301      468        /*E*  ERROR:    QIO-QI#OP_MOVA
      302      469              MESSAGE:  FPL abort @.%U1; opcode = MOVE alphanumeric.
      303      470        */
      304      471        /*E*  ERROR:    QIO-QI#OP_MOVN
      305      472              MESSAGE:  FPL abort @.%U1; opcode = MOVE numeric.
      306      473        */
      307      474        /*E*  ERROR:    QIO-QI#OP_MOVP
      308      475              MESSAGE:  FPL abort @.%U1; opcode = MOVE packed.
      309      476        */
      310      477        /*E*  ERROR:    QIO-QI#OP_MOVB
      311      478              MESSAGE:  FPL abort @.%U1; opcode = MOVE binary.
      312      479        */
      313      480        /*E*  ERROR:    QIO-QI#OP_MOVAJ
      314      481              MESSAGE:  FPL abort @.%U1; opcode = MOVE alphanumeric justified right.
      315      482        */
      316      483        /*E*  ERROR:    QIO-QI#OP_MOVAE
      317      484              MESSAGE:  FPL abort @.%U1; opcode = MOVE alphanumeric edited.
      318      485        */
      319      486        /*E*  ERROR:    QIO-QI#OP_MOVNE
      320      487              MESSAGE:  FPL abort @.%U1; opcode = MOVE numeric edited.
      321      488        */
      322      489        /*E*  ERROR:    QIO-QI#OP_MOVDE
      323      490              MESSAGE:  FPL abort @.%U1; opcode = MOVE numeric de-edited.
      324      491        */
      325      492        /*E*  ERROR:    QIO-QI#OP_PERFM
      326      493              MESSAGE:  FPL abort @.%U1; opcode = PERFORM.
      327      494        */
      328      495        /*E*  ERROR:    QIO-QI#OP_PERFMT
      329      496              MESSAGE:  FPL abort @.%U1; opcode = EXIT from PERFORM.
      330      497        */
      331      498        /*E*  ERROR:    QIO-QI#OP_SET
      332      499              MESSAGE:  FPL abort @.%U1; opcode = SET.
      333      500        */
PL6.E3A0      #001=QIE$ERROR_MESS File=QIE$ERROR_MESS.:E05TSI                    WED 07/30/97 05:19 Page:26
      334      501        /*E*  ERROR:    QIO-QI#OP_SETD
      335      502              MESSAGE:  FPL abort @.%U1; opcode = SETD.
      336      503        */
      337      504        /*E*  ERROR:    QIO-QI#OP_SETX
      338      505              MESSAGE:  FPL abort @.%U1; opcode = SETX.
      339      506        */
      340      507        /*E*  ERROR:    QIO-QI#OP_SETXUD
      341      508              MESSAGE:  FPL abort @.%U1; opcode = SETXUD.
      342      509        */
      343      510        /*E*  ERROR:    QIO-QI#OP_CNVBNX
      344      511              MESSAGE:  FPL abort @.%U1; opcode = Convert binary to numeric.
      345      512        */
      346      513        /*E*  ERROR:    QIO-QI#OP_CNVBPX
      347      514              MESSAGE:  FPL abort @.%U1; opcode = Convert binary to packed.
      348      515        */
      349      516        /*E*  ERROR:    QIO-QI#OP_CNVBBX
      350      517              MESSAGE:  FPL abort @.%U1; opcode = Convert binary to binary.
      351      518        */
      352      519        /*E*  ERROR:    QIO-QI#OP_STOP_RUN
      353      520              MESSAGE:  FPL abort @.%U1; opcode = STOP RUN.
      354      521        */
      355      522        /*E*  ERROR:    QIO-QI#OP_STOP_1
      356      523              MESSAGE:  FPL abort @.%U1; opcode = STOP pause.
      357      524        */
      358      525        /*E*  ERROR:    QIO-QI#OP_SUB
      359      526              MESSAGE:  FPL abort @.%U1; opcode = SUBTRACT.
      360      527        */
      361      528        /*E*  ERROR:    QIO-QI#OP_SUBX
      362      529              MESSAGE:  FPL abort @.%U1; opcode = SUBTRACT (result in accumulator).
      363      530        */
      364      531        /*E*  ERROR:    QIO-QI#OP_ROUND
      365      532              MESSAGE:  FPL abort @.%U1; opcode = ROUND (accumulator).
      366      533        */
      367      534        /*E*  ERROR:    QIO-QI#OP_CLOSE
      368      535              MESSAGE:  FPL abort @.%U1; opcode = CLOSE.
      369      536        */
      370      537        /*E*  ERROR:    QIO-QI#OP_ACTIVATE
PL6.E3A0      #001=QIE$ERROR_MESS File=QIE$ERROR_MESS.:E05TSI                    WED 07/30/97 05:19 Page:27
      371      538              MESSAGE:  FPL abort @.%U1; opcode = ACTIVATE.
      372      539        */
      373      540        /*E*  ERROR:    QIO-QI#OP_DEACTIVATE
      374      541              MESSAGE:  FPL abort @.%U1; opcode = DEACTIVATE.
      375      542        */
      376      543        /*E*  ERROR:    QIO-QI#OP_LOAD
      377      544              MESSAGE:  FPL abort @.%U1; opcode = LOAD.
      378      545        */
      379      546        /*E*  ERROR:    QIO-QI#OP_ENABLE
      380      547              MESSAGE:  FPL abort @.%U1; opcode = ENABLE.
      381      548        */
      382      549        /*E*  ERROR:    QIO-QI#OP_DISABLE
      383      550              MESSAGE:  FPL abort @.%U1; opcode = DISABLE.
      384      551        */
      385      552        /*E*  ERROR:    QIO-QI#OP_OPEN
      386      553              MESSAGE:  FPL abort @.%U1; opcode = OPEN.
      387      554        */
      388      555        /*E*  ERROR:    QIO-QI#OP_READ_TRAN
      389      556              MESSAGE:  FPL abort @.%U1; opcode = READ transaction.
      390      557        */
      391      558        /*E*  ERROR:    QIO-QI#OP_READ_FORM
      392      559              MESSAGE:  FPL abort @.%U1; opcode = READ form.
      393      560        */
      394      561        /*E*  ERROR:    QIO-QI#OP_MULT
      395      562              MESSAGE:  FPL abort @.%U1; opcode = MULTIPLY.
      396      563        */
      397      564        /*E*  ERROR:    QIO-QI#OP_MULTX
      398      565              MESSAGE:  FPL abort @.%U1; opcode = MULTIPLY (result in accumulator).
      399      566        */
      400      567        /*E*  ERROR:    QIO-QI#OP_ALL_LITERAL
      401      568              MESSAGE:  FPL abort @.%U1; opcode = ALL "literal" expansion.
      402      569        */
      403      570        /*E*  ERROR:    QIO-QI#OP_APPLY
      404      571              MESSAGE:  FPL abort @.%U1; opcode = APPLY.
      405      572        */
      406      573        /*E*  ERROR:    QIO-QI#OP_IFINDR
      407      574              MESSAGE:  FPL abort @.%U1; opcode = IF status.
PL6.E3A0      #001=QIE$ERROR_MESS File=QIE$ERROR_MESS.:E05TSI                    WED 07/30/97 05:19 Page:28
      408      575        */
      409      576        /*E*  ERROR:    QIO-QI#OP_WRITE_TRAN
      410      577              MESSAGE:  FPL abort @.%U1; opcode = WRITE transaction.
      411      578        */
      412      579        /*E*  ERROR:    QIO-QI#OP_WRITE_FORM
      413      580              MESSAGE:  FPL abort @.%U1; opcode = WRITE form.
      414      581        */
      415      582        /*E*  ERROR:    QIO-QI#OP_PRESENT
      416      583              MESSAGE:  FPL abort @.%U1; opcode = PRESENT.
      417      584        */
      418      585        /*E*  ERROR:    QIO-QI#OP_VERIFY
      419      586              MESSAGE:  FPL abort @.%U1; opcode = VERIFY.
      420      587        */
      421      588        /*E*  ERROR:    QIO-QI#OP_CLEAR
      422      589              MESSAGE:  FPL abort @.%U1; opcode = CLEAR.
      423      590        */
      424      591        /*E*  ERROR:    QIO-QI#OP_DISPLAY
      425      592              MESSAGE:  FPL abort @.%U1; opcode = DISPLAY.
      426      593        */
      427      594        /*E*  ERROR:    QIO-QI#OP_EXIT
      428      595              MESSAGE:  FPL abort @.%U1; opcode = EXIT.
      429      596        */
      430      597        /*E*  ERROR:    QIO-QI#OP_SUBSCR
      431      598              MESSAGE:  FPL abort @.%U1; opcode = Subscript calculation.
      432      599        */
      433      600        /*E*  ERROR:    QIO-QI#OP_CNVPN
      434      601              MESSAGE:  FPL abort @.%U1; opcode = Convert packed to numeric.
      435      602        */
      436      603        /*E*  ERROR:    QIO-QI#OP_CNVBN
      437      604              MESSAGE:  FPL abort @.%U1; opcode = Convert binary to numeric.
      438      605        */
      439      606        /*E*  ERROR:    QIO-QI#OP_MOVNA
      440      607              MESSAGE:  FPL abort @.%U1; opcode = MOVE numeric (from accumulator).
      441      608        */
      442      609        /*E*  ERROR:    QIO-QI#OP_MOVPA
      443      610              MESSAGE:  FPL abort @.%U1; opcode = MOVE packed (from accumulator).
      444      611        */
PL6.E3A0      #001=QIE$ERROR_MESS File=QIE$ERROR_MESS.:E05TSI                    WED 07/30/97 05:19 Page:29
      445      612        /*E*  ERROR:    QIO-QI#OP_MOVBA
      446      613              MESSAGE:  FPL abort @.%U1; opcode = MOVE binary (from accumulator).
      447      614        */
      448      615        /*E*  ERROR:    QIO-QI#OP_MOVNEA
      449      616              MESSAGE:  FPL abort @.%U1; opcode = MOVE numeric edited (from accumulator).
      450      617        */
      451      618        /*E*  ERROR:    QIO-QI#OP_CNVNBT
      452      619              MESSAGE:  FPL abort @.%U1; opcode = Convert numeric to binary temp.
      453      620        */
      454      621        /*E*  ERROR:    QIO-QI#OP_CNVPBT
      455      622              MESSAGE:  FPL abort @.%U1; opcode = Convert packed to binary temp.
      456      623        */
      457      624        /*E*  ERROR:    QIO-QI#OP_INIT
      458      625              MESSAGE:  FPL abort @.%U1; opcode = Initialization op-code.
      459      626        */
      460      627        /*E*  ERROR:    QIO-QI#OP_IFRELG
      461      628              MESSAGE:  FPL abort @.%U1; opcode = IF relational group.
      462      629        */
      463      630        /*E*  ERROR:    QIO-QI#OP_JAZ
      464      631              MESSAGE:  FPL abort @.%U1; opcode = Jump if A-register is zero.
      465      632        */
      466      633        /*E*  ERROR:    QIO-QI#OP_ZACCEPT
      467      634              MESSAGE:  FPL abort @.%U1; opcode = ZACCEPT.
      468      635        */
      469      636        /*E*  ERROR:    QIO-QI#OP_ZDISPLAY
      470      637              MESSAGE:  FPL abort @.%U1; opcode = ZDISPLAY.
      471      638        */
      472      639        /*E*  ERROR:    QIO-QI#OP_JND
      473      640              MESSAGE:  FPL abort @.%U1; opcode = Jump if not NO DATA flag.
      474      641        */
      475      642        /*E*  ERROR:    QIO-QI#OP_ABORT
      476      643              MESSAGE:  FPL abort @.%U1; opcode = ABORT.
      477      644        */
      478      645        /*E*  ERROR:    QIO-QI#OP_SEARCH
      479      646              MESSAGE:  FPL abort @.%U1; opcode = SEARCH.
      480      647        */
      481      648        /*E*  ERROR:    QIO-QI#OP_INDEX
PL6.E3A0      #001=QIE$ERROR_MESS File=QIE$ERROR_MESS.:E05TSI                    WED 07/30/97 05:19 Page:30
      482      649              MESSAGE:  FPL abort @.%U1; opcode = INDEX.
      483      650        */
      484      651        /*E*  ERROR:    QIO-QI#OP_FORM_START
      485      652              MESSAGE:  FPL abort @.%U1; opcode = FORM START.
      486      653        */
      487      654
      488      655    1   END QIE$ERROR_MESS;

PL6.E3A0      #001=QIE$ERROR_MESS File=QIE$ERROR_MESS.:E05TSI                    WED 07/30/97 05:19 Page:31
--  Include file information  --

   QI_PERR_C.:E05TOU  is referenced.
   G_LCP6_E.:E05TOU  was found in the system file and is never referenced.
   GT_LCP6_M.:E05TOU  was found in the system file and is never referenced.
   KI_CP6.:E05TOU  was found in the system file and is never referenced.
   GF_LCP6_M.:E05TOU  was found in the system file and is never referenced.
   GM_LCP6_M.:E05TOU  was found in the system file and is never referenced.
   GU_LCP6_M.:E05TOU  was found in the system file and is never referenced.
   GJ_LCP6_M.:E05TOU  was found in the system file and is never referenced.
   GH_LCP6_M.:E05TOU  was found in the system file and is never referenced.
      No diagnostics issued in procedure QIE$ERROR_MESS.
PL6.E3A0      #001=QIE$ERROR_MESS File=QIE$ERROR_MESS.:E05TSI                    WED 07/30/97 05:19 Page:32

 **** Variables and constants ****


   No code generated for procedure QIE$ERROR_MESS .
   Procedure QIE$ERROR_MESS requires 4 words of local(AUTO) storage.

    No errors detected in file QIE$ERROR_MESS.:E05TSI    .
PL6.E3A0      #001=QIE$ERROR_MESS File=QIE$ERROR_MESS.:E05TSI                    WED 07/30/97 05:19 Page:33
          *** CROSS REFERENCE LISTING ***
**     DENOTES     IDENTIFIER DEFINITION
<<                 IDENTIFIER'S VALUE SET
>>                 IDENTIFIER'S VALUE USED
<>                 IDENTIFIER SET AND/OR USED
--                 IDENTIFIER REFERENCED
PL6.E3A0      #001=QIE$ERROR_MESS File=QIE$ERROR_MESS.:E05TSI                    WED 07/30/97 05:19 Page:34
          MINI XREF LISTING

