PL6.E3A0      #001=QI_DATA_D File=QI_DATA_D.:E05TSI                              WED 07/30/97 05:20 Page:489
              9795    1           2 TEMP_BINARY_SOURCE@P UBIN,
              9796    1           2 DISPLAY_TARGET@P UBIN,
              9797    1           2 NEXT_CODE@P UBIN;
              9822    1     DCL 1 QI$OP_CNVBPX BASED ALIGNED,
              9823    1           2 CODE UBIN,
              9824    1           2 TEMP_BINARY_SOURCE@P UBIN,
              9825    1           2 PACKED_TARGET@P UBIN,
              9826    1           2 NEXT_CODE@P UBIN;
              9851    1     DCL 1 QI$OP_CNVNBT BASED ALIGNED,
              9852    1           2 CODE UBIN,
              9853    1           2 DISPLAY_SOURCE@P UBIN,
              9854    1           2 TEMP_BINARY_TARGET@P UBIN,
              9855    1           2 NEXT_CODE@P UBIN;
              9880    1     DCL 1 QI$OP_CNVPBT BASED ALIGNED,
              9881    1           2 CODE UBIN,
              9882    1           2 PACKED_SOURCE@P UBIN,
              9883    1           2 TEMP_BINARY_TARGET@P UBIN,
              9884    1           2 NEXT_CODE@P UBIN;
              9909    1     DCL 1 QI$OP_CNVPN BASED ALIGNED,
              9910    1           2 CODE UBIN,
              9911    1           2 PACKED_SOURCE@P UBIN,
              9912    1           2 TEMP_DISPLAY_TARGET@P UBIN,
              9913    1           2 NEXT_CODE@P UBIN;
              9938    1     DCL 1 QI$OP_DISPLAY BASED ALIGNED,
              9939    1           2 CODE UBIN,
              9940    1           2 TYPE UBIN(3) UNAL,
              9941    1           2 FIELD_COUNT UBIN(13) UNAL,
              9942    1           2 FIELD_A@P(0:0) UBIN,
              9943    1           2 NEXT_CODE@P REDEF FIELD_A@P UBIN;
              9968    1     DCL 1 QI$OP_DIV BASED ALIGNED,
              9969    1           2 CODE UBIN,
              9970    1           2 DIVISOR@P UBIN,
              9971    1           2 DIVIDEND_AND_QUOTIENT@P UBIN,
              9972    1           2 NEXT_CODE@P UBIN;
              9997    1     DCL 1 QI$OP_DIVX BASED ALIGNED,
              9998    1           2 CODE UBIN,
              9999    1           2 DIVISOR@P UBIN,
PL6.E3A0      #001=QI_DATA_D File=QI_DATA_D.:E05TSI                              WED 07/30/97 05:20 Page:490
             10000    1           2 DIVIDEND@P UBIN,
             10001    1           2 NEXT_CODE@P UBIN;
             10026    1     DCL 1 QI$OP_ENABLE BASED ALIGNED,
             10027    1           2 CODE UBIN,
             10028    1           2 * UBIN(1) UNAL,
             10029    1           2 IO_FLAGS,
             10030    1             3 IS_OUTPUT BIT(1) UNAL,
             10031    1             3 IS_INPUT BIT(1) UNAL,
             10032    1           2 IO_VALUE REDEF IO_FLAGS UBIN(2) UNAL,
             10033    1           2 OPERAND_COUNT UBIN(13) UNAL,
             10034    1           2 OPERAND_A@P(0:0) UBIN;
             10059    1     DCL 1 QI$OP_GOTO BASED ALIGNED,
             10060    1           2 CODE UBIN,
             10061    1           2 GOTO@P UBIN,
             10062    1           2 NEXT_CODE@P UBIN;
             10087    1     DCL 1 QI$OP_GOTODP BASED ALIGNED,
             10088    1           2 CODE UBIN,
             10089    1           2 GOTO_INDEX@P UBIN,
             10090    1           2 PROCEDURE_NAME_COUNT UBIN,
             10091    1           2 PROCEDURE_NAME_A@P(0:0) UBIN;
             10116    1     DCL 1 QI$OP_IFCLS BASED ALIGNED,
             10117    1           2 CODE UBIN,
             10118    1           2 SOURCE@P UBIN,
             10119    1           2 ATTRIBUTE,
             10120    1             3 * UBIN(11) UNAL,
             10121    1             3 IS_NOT BIT(1) UNAL,
             10122    1             3 TYPE,
             10123    1               4 IS_ALPHA BIT(1) UNAL,
             10124    1               4 IS_NUMERIC BIT(1) UNAL,
             10125    1               4 IS_DIGITS BIT(1) UNAL,
             10126    1               4 * UBIN(1) UNAL,
             10127    1             3 TYPES REDEF TYPE UBIN(4) UNAL,
             10128    1           2 FALSE_CONDITION@P UBIN,
             10129    1           2 NEXT_CODE@P UBIN;
             10154    1     DCL 1 QI$OP_IFCNDA BASED ALIGNED,
             10155    1           2 CODE UBIN,
             10156    1           2 ALPHANUMERIC_SOURCE@P UBIN,
PL6.E3A0      #001=QI_DATA_D File=QI_DATA_D.:E05TSI                              WED 07/30/97 05:20 Page:491
             10157    1           2 CONDITION_CONTROL_BLOCK@P UBIN,
             10158    1           2 ATTRIBUTE,
             10159    1             3 * UBIN(11) UNAL,
             10160    1             3 IS_NOT BIT(1) UNAL,
             10161    1             3 * UBIN(4) UNAL,
             10162    1           2 FALSE_CONDITION@P UBIN,
             10163    1           2 NEXT_CODE@P UBIN;
             10188    1     DCL 1 QI$OP_IFCNDN BASED ALIGNED,
             10189    1           2 CODE UBIN,
             10190    1           2 NUMERIC_SOURCE@P UBIN,
             10191    1           2 CONDITION_CONTROL_BLOCK@P UBIN,
             10192    1           2 ATTRIBUTE,
             10193    1             3 * UBIN(11) UNAL,
             10194    1             3 IS_NOT BIT(1) UNAL,
             10195    1             3 * UBIN(4) UNAL,
             10196    1           2 FALSE_CONDITION@P UBIN,
             10197    1           2 NEXT_CODE@P UBIN;
             10222    1     DCL 1 QI$OP_IFINDR BASED ALIGNED,
             10223    1           2 CODE UBIN,
             10224    1           2 FRAME_OR_FIELD@P UBIN,
             10225    1           2 ATTRIBUTE,
             10226    1             3 * UBIN(11) UNAL,
             10227    1             3 IS_NOT BIT(1) UNAL,
             10228    1             3 STATUS_TYPE UBIN(4) UNAL,
             10229    1           2 FALSE_CONDITION@P UBIN,
             10230    1           2 NEXT_CODE@P UBIN;
             10255    1     DCL 1 QI$OP_IFRELA BASED ALIGNED,
             10256    1           2 CODE UBIN,
             10257    1           2 ALPHANUMERIC_SOURCE@P UBIN,
             10258    1           2 ALPHANUMERIC_TARGET@P UBIN,
             10259    1           2 RELATIONAL_ATTRIBUTE UBIN,
             10260    1           2 FALSE_CONDITION@P UBIN,
             10261    1           2 NEXT_CODE@P UBIN;
             10286    1     DCL 1 QI$OP_IFRELG BASED ALIGNED,
             10287    1           2 CODE UBIN,
             10288    1           2 IS_SOURCE_GROUP BIT(1) UNAL,
             10289    1           2 * UBIN(1) UNAL,
PL6.E3A0      #001=QI_DATA_D File=QI_DATA_D.:E05TSI                              WED 07/30/97 05:20 Page:492
             10290    1           2 ANTI_GROUP_LENGTH UBIN(14) UNAL,
             10291    1           2 SOURCE@P UBIN,
             10292    1           2 TARGET@P UBIN,
             10293    1           2 RELATIONAL_ATTRIBUTE UBIN,
             10294    1           2 FALSE_CONDITION@P UBIN,
             10295    1           2 NEXT_CODE@P UBIN;
             10320    1     DCL 1 QI$OP_IFRELN BASED ALIGNED,
             10321    1           2 CODE UBIN,
             10322    1           2 NUMERIC_SOURCE@P UBIN,
             10323    1           2 NUMERIC_TARGET@P UBIN,
             10324    1           2 RELATIONAL_ATTRIBUTE UBIN,
             10325    1           2 FALSE_CONDITION@P UBIN,
             10326    1           2 NEXT_CODE@P UBIN;
             10351    1     DCL 1 QI$OP_INSPECT BASED ALIGNED,
             10352    1           2 CODE UBIN,
             10353    1           2 SOURCE@P UBIN,
             10354    1           2 TALLYING_ITEM@P UBIN,
             10355    1           2 REPLACING_OLD_ITEM@P REDEF TALLYING_ITEM@P UBIN,
             10356    1           2 TALLYING_FOR_ITEM@P UBIN,
             10357    1           2 REPLACING_NEW_ITEM@P REDEF TALLYING_FOR_ITEM@P UBIN,
             10358    1           2 TALLYING_INITIAL_ITEM@P UBIN,
             10359    1           2 REPLACING_INITIAL_ITEM@P REDEF TALLYING_INITIAL_ITEM@P UBIN,
             10360    1           2 ATTRIBUTE,
             10361    1             3 * UBIN(10) UNAL,
             10362    1             3 IS_REPLACING BIT(1) UNAL,
             10363    1             3 BEFORE_AFTER UBIN(2) UNAL,
             10364    1             3 WHICH_CHARS UBIN(3) UNAL,
             10365    1           2 NEXT_CODE@P UBIN;
             10390    1     DCL 1 QI$OP_JAZ BASED ALIGNED,
             10391    1           2 CODE UBIN,
             10392    1           2 EVERYTHINGS_PEACHY@P UBIN,
             10393    1           2 NEXT_CODE@P UBIN;
             10418    1     DCL 1 QI$OP_JND BASED ALIGNED,
             10419    1           2 CODE UBIN,
             10420    1           2 EVERYTHINGS_PEACHY@P UBIN,
             10421    1           2 NEXT_CODE@P UBIN;
             10446    1     DCL 1 QI$OP_LOAD BASED ALIGNED,
PL6.E3A0      #001=QI_DATA_D File=QI_DATA_D.:E05TSI                              WED 07/30/97 05:20 Page:493
             10447    1           2 CODE UBIN,
             10448    1           2 IS_ARGUMENT_PASSED BIT(1) UNAL,
             10449    1           2 * UBIN(1) UNAL,
             10450    1           2 IS_BY_NAME BIT(1) UNAL,
             10451    1           2 * UBIN(13) UNAL,
             10452    1           2 NAME_OR_TYPE@P UBIN,
             10453    1           2 ARGUMENT@P UBIN,
             10454    1           2 NEXT_CODE@P UBIN;
             10479    1     DCL 1 QI$OP_MOVA BASED ALIGNED,
             10480    1           2 CODE UBIN,
             10481    1           2 SOURCE@P UBIN,
             10482    1           2 ALPHANUMERIC_TARGET@P UBIN,
             10483    1           2 NEXT_CODE@P UBIN;
             10508    1     DCL 1 QI$OP_MOVAE BASED ALIGNED,
             10509    1           2 CODE UBIN,
             10510    1           2 SOURCE@P UBIN,
             10511    1           2 ALPHANUMERIC_EDITED_TARGET@P UBIN,
             10512    1           2 NEXT_CODE@P UBIN;
             10537    1     DCL 1 QI$OP_MOVAJ BASED ALIGNED,
             10538    1           2 CODE UBIN,
             10539    1           2 SOURCE@P UBIN,
             10540    1           2 RJ_ALPHANUMERIC_TARGET@P UBIN,
             10541    1           2 NEXT_CODE@P UBIN;
             10566    1     DCL 1 QI$OP_MOVB BASED ALIGNED,
             10567    1           2 CODE UBIN,
             10568    1           2 SOURCE@P UBIN,
             10569    1           2 BINARY_TARGET@P UBIN,
             10570    1           2 NEXT_CODE@P UBIN;
             10595    1     DCL 1 QI$OP_MOVBA BASED ALIGNED,
             10596    1           2 CODE UBIN,
             10597    1           2 BINARY_TARGET@P UBIN,
             10598    1           2 NEXT_CODE@P UBIN;
             10623    1     DCL 1 QI$OP_MOVDE BASED ALIGNED,
             10624    1           2 CODE UBIN,
             10625    1           2 NUMERIC_EDITED_SOURCE@P UBIN,
             10626    1           2 NUMERIC_TARGET@P UBIN,
             10627    1           2 NEXT_CODE@P UBIN;
PL6.E3A0      #001=QI_DATA_D File=QI_DATA_D.:E05TSI                              WED 07/30/97 05:20 Page:494
             10652    1     DCL 1 QI$OP_MOVG BASED ALIGNED,
             10653    1           2 CODE UBIN,
             10654    1           2 SOURCE@P UBIN,
             10655    1           2 TARGET@P UBIN,
             10656    1           2 IS_SOURCE_GROUP BIT(1) UNAL,
             10657    1           2 * UBIN(1) UNAL,
             10658    1           2 ANTI_GROUP_LENGTH UBIN(14) UNAL,
             10659    1           2 NEXT_CODE@P UBIN;
             10684    1     DCL 1 QI$OP_MOVN BASED ALIGNED,
             10685    1           2 CODE UBIN,
             10686    1           2 SOURCE@P UBIN,
             10687    1           2 DISPLAY_TARGET@P UBIN,
             10688    1           2 NEXT_CODE@P UBIN;
             10713    1     DCL 1 QI$OP_MOVNA BASED ALIGNED,
             10714    1           2 CODE UBIN,
             10715    1           2 DISPLAY_TARGET@P UBIN,
             10716    1           2 NEXT_CODE@P UBIN;
             10741    1     DCL 1 QI$OP_MOVNE BASED ALIGNED,
             10742    1           2 CODE UBIN,
             10743    1           2 SOURCE@P UBIN,
             10744    1           2 NUMERIC_EDITED_TARGET@P UBIN,
             10745    1           2 NEXT_CODE@P UBIN;
             10770    1     DCL 1 QI$OP_MOVNEA BASED ALIGNED,
             10771    1           2 CODE UBIN,
             10772    1           2 NUMERIC_EDITED_TARGET@P UBIN,
             10773    1           2 NEXT_CODE@P UBIN;
             10798    1     DCL 1 QI$OP_MOVP BASED ALIGNED,
             10799    1           2 CODE UBIN,
             10800    1           2 SOURCE@P UBIN,
             10801    1           2 PACKED_TARGET@P UBIN,
             10802    1           2 NEXT_CODE@P UBIN;
             10827    1     DCL 1 QI$OP_MOVPA BASED ALIGNED,
             10828    1           2 CODE UBIN,
             10829    1           2 PACKED_TARGET@P UBIN,
             10830    1           2 NEXT_CODE@P UBIN;
             10855    1     DCL 1 QI$OP_MULT BASED ALIGNED,
             10856    1           2 CODE UBIN,
PL6.E3A0      #001=QI_DATA_D File=QI_DATA_D.:E05TSI                              WED 07/30/97 05:20 Page:495
             10857    1           2 NUMERIC_SOURCE@P UBIN,
             10858    1           2 TARGET_AND_RESULT@P UBIN,
             10859    1           2 NEXT_CODE@P UBIN;
             10884    1     DCL 1 QI$OP_MULTX BASED ALIGNED,
             10885    1           2 CODE UBIN,
             10886    1           2 NUMERIC_SOURCE@P UBIN,
             10887    1           2 NUMERIC_TARGET@P UBIN,
             10888    1           2 NEXT_CODE@P UBIN;
             10913    1     DCL 1 QI$OP_OPEN BASED ALIGNED,
             10914    1           2 CODE UBIN,
             10915    1           2 * BIT(1) UNAL,
             10916    1           2 IO_FLAGS,
             10917    1             3 IS_OUTPUT BIT(1) UNAL,
             10918    1             3 IS_INPUT BIT(1) UNAL,
             10919    1           2 IO_VALUE REDEF IO_FLAGS UBIN(2) UNAL,
             10920    1           2 FILE_COUNT UBIN(13) UNAL,
             10921    1           2 FILE_A@P(0:0) UBIN;
             10946    1     DCL 1 QI$OP_PERFM BASED ALIGNED,
             10947    1           2 CODE UBIN,
             10948    1           2 FROM@P UBIN,
             10949    1           2 PERFORM_BLOCK@D UBIN,
             10950    1           2 ATTRIBUTE,
             10951    1             3 PARAGRAPH_SECTION BIT (1) UNAL,
             10952    1             3 * BIT (11) UNAL,
             10953    1             3 ITERATION_FIELD UBIN (4) UNAL,
             10954    1           2 BINARY_ITERATION_COUNT@P UBIN,
             10955    1           2 SINGLE_ITERATION_NEXT_CODE@P REDEF BINARY_ITERATION_COUNT@P UBIN,
             10956    1           2 MULTIPLE_ITERATION_NEXT_CODE@P UBIN;
             10981    1     DCL 1 QI$OP_PERFMT BASED ALIGNED,
             10982    1           2 CODE UBIN,
             10983    1           2 PERFORM_BLOCK@D UBIN,
             10984    1           2 NEXT_CODE@P UBIN;
             11009    1     DCL 1 QI$OP_READ_FORM BASED ALIGNED,
             11010    1           2 CODE UBIN,
             11011    1           2 FORM_FILE@P UBIN,
             11012    1           2 IS_POSITIONING_CURSOR BIT(1) UNAL,
             11013    1           2 * BIT(15) UNAL,
PL6.E3A0      #001=QI_DATA_D File=QI_DATA_D.:E05TSI                              WED 07/30/97 05:20 Page:496
             11014    1           2 CURSOR_FIELD@P UBIN,
             11015    1           2 NEXT_CODE@P UBIN;
             11040    1     DCL 1 QI$OP_READ_TRAN BASED ALIGNED,
             11041    1           2 CODE UBIN,
             11042    1           2 TRAN_FILE@P UBIN,
             11043    1           2 * UBIN(15) UNAL,
             11044    1           2 NO_DATA BIT(1) UNAL,
             11045    1           2 NEXT_CODE@P UBIN;
             11070    1     DCL 1 QI$OP_ROUND BASED ALIGNED,
             11071    1           2 CODE UBIN,
             11072    1           2 DECIMAL_PLACES UBIN,
             11073    1           2 NEXT_CODE@P UBIN;
             11098    1     DCL 1 QI$OP_STOP_PAUSE BASED ALIGNED,
             11099    1           2 CODE UBIN,
             11100    1           2 * UBIN(13) UNAL,
             11101    1           2 IS_IMPLICIT_POSTING BIT(1) UNAL,
             11102    1           2 IS_EXPLICIT_POSTING BIT(1) UNAL,
             11103    1           2 IS_PAUSING BIT(1) UNAL,
             11104    1           2 PAUSING_OPERAND@P UBIN,
             11105    1           2 POSTING_OPERAND@P UBIN,
             11106    1           2 NEXT_CODE@P UBIN;
             11131    1     DCL 1 QI$OP_STOP_RUN BASED ALIGNED,
             11132    1           2 CODE UBIN,
             11133    1           2 NEXT_CODE@P UBIN;
             11158    1     DCL 1 QI$OP_SUB BASED ALIGNED,
             11159    1           2 CODE UBIN,
             11160    1           2 NUMERIC_SOURCE@P UBIN,
             11161    1           2 NUMERIC_TARGET@P UBIN,
             11162    1           2 NEXT_CODE@P UBIN;
             11187    1     DCL 1 QI$OP_SUBSCR BASED ALIGNED,
             11188    1           2 CODE UBIN,
             11189    1           2 ARRAY_SOURCE@P UBIN,
             11190    1           2 SUBSCRIPT_A@P(0:0) UBIN,
             11191                          /* SUBSCRIPT_A@P is one or two entries long
             11192                             depending on the dimension_count of
             11193                             ARRAY_SOURCE@P.  */
             11194    1           2 DUMMY_RESULT@P UBIN,
PL6.E3A0      #001=QI_DATA_D File=QI_DATA_D.:E05TSI                              WED 07/30/97 05:20 Page:497
             11195    1           2 NEXT_CODE UBIN;
             11220    1     DCL 1 QI$OP_SUBX BASED ALIGNED,
             11221    1           2 CODE UBIN,
             11222    1           2 ARGUMENT_COUNT UBIN,
             11223    1           2 ARGUMENT_A@P(0:0) UBIN;
             11248    1     DCL 1 QI$OP_VERI_PRES BASED ALIGNED,
             11249    1           2 CODE UBIN,
             11250    1           2 DAD_PAIR_COUNT UBIN,
             11251    1           2 DAD_PAIR_A(0:0),
             11252    1             3 SOURCE@P UBIN,
             11253    1             3 TARGET@P UBIN;
             11278    1     DCL 1 QI$OP_WRITE_FORM BASED ALIGNED,
             11279    1           2 CODE UBIN,
             11280    1           2 IS_WRITE_PAGE BIT(1) UNAL,
             11281    1           2 * BIT(15) UNAL,
             11282    1           2 FORM_RECORD@P UBIN,
             11283    1           2 NEXT_CODE@P UBIN;
             11308    1     DCL 1 QI$OP_WRITE_TRAN BASED ALIGNED,
             11309    1           2 CODE UBIN,
             11310    1           2 TRAN_RECORD@P UBIN,
             11311    1           2 DATA_SIZE UBIN,
             11312    1           2 NEXT_CODE@P UBIN;
             11337        /*
             11338           This INITIALIZATION_BLOCK is used by QAT$TALLYHO
             11339           during startup to, well, initialize.
             11340        */
             11341    1     DCL 1 QI$INITIALIZATION_BLOCK BASED ALIGNED,
             11342    1           2 DATA_START$ PTR,
             11343    1           2 PROC_START$ PTR,
             11344    1           2 EXPECTED_ARGUMENT_COUNT UBIN,
             11345    1           2 CURRENT_FORM@P UBIN,
             11346    1           2 CURRENT_FRAME@P UBIN,
             11347    1           2 CURRENT_FIELD@P UBIN,
             11348    1           2 RETRY@P UBIN,
             11349    1           2 VERIFY_BUFFER_1@P UBIN,
             11350    1           2 VERIFY_BUFFER_2@P UBIN,
             11351    1           2 VERIFY_BUFFER_3@P UBIN,
PL6.E3A0      #001=QI_DATA_D File=QI_DATA_D.:E05TSI                              WED 07/30/97 05:20 Page:498
             11352    1           2 VERIFY_BUFFER_4@P UBIN,
             11353    1           2 COMPILER_VERSION CHAR(4),
             11354    1           2 OUTPUT_OR_IO_USE_PROCEDURE@P UBIN,
             11355    1           2 INPUT_OR_IO_USE_PROCEDURE@P UBIN,
             11356    1           2 VERIFICATION_USE_PROCEDURE@P UBIN,
             11357    1           2 MESSAGE_LINE_DCB# UBIN,
             11358    1           2 VANILLA_HOST_DCB# UBIN,
             11359    1           2 IS_THIS_A_SUBROUTINE BIT(1) UNAL,
             11360    1           2 * UBIN(15) UNAL;
             11385        /*
             11386           CONDITION CONTROL BLOCK used to refer to target data on conditional
             11387           IFs (i.e. IFCNDA, and IFCNDN).
             11388        */
             11389    1     DCL 1 QI$CONDITION_CONTROL_BLOCK BASED ALIGNED,
             11390    1           2 WORD0_FLAGS,
             11391    1             3 IS_THROUGH BIT(1) UNAL,
             11392    1             3 * UBIN(15) UNAL,
             11393    1           2 LIST_LENGTH REDEF WORD0_FLAGS UBIN,
             11394    1           2 LIST_A@P(0:0) UBIN,
             11395    1           2 RANGE_A@P(0:0) REDEF LIST_A@P UBIN;
             11420        /*
             11421           CONDITION BLOCK used for holding information about the LEGAL
             11422           list/range/array for a COBOL-like data item.
             11423        */
             11424    1     DCL 1 QI$CONDITION_LEGAL_BLOCK BASED ALIGNED,
             11425    1           2 TYPE UBIN(2) UNAL,
             11426    1           2 LIST_LENGTH UBIN(14) UNAL,
             11427    1           2 ARRAY@P UBIN,
             11428    1           2 LIST_A@P(0:0) REDEF ARRAY@P UBIN,
             11429    1           2 RANGE_A@P(0:0) REDEF ARRAY@P UBIN;
             11455    1     DCL 1 QI$PSEUDO_CIP BASED ALIGNED,        /* CIP descriptor */
             11459    1           2 ALPHANUMERIC,
             11460    1             3 CA,                  /* Control bits for ALPHANUMERIC */
             11461    1               4 OFFSET UBIN(1) UNAL,
             11462    1             3 * UBIN(1) UNAL,
             11463    1             3 LEN UBIN(14) UNAL,
             11464    1           2 NUMERIC REDEF ALPHANUMERIC,
PL6.E3A0      #001=QI_DATA_D File=QI_DATA_D.:E05TSI                              WED 07/30/97 05:20 Page:499
             11465    1             3 CB,                  /* Control bits for BINARY */
             11466    1               4 OFFSET UBIN(1) UNAL,
             11467    1               4 MBZ UBIN(2) UNAL,
             11468    1             3 CD REDEF CB,         /* Control bits for DISPLAY */
             11469    1               4 OFFSET UBIN(1) UNAL,
             11470    1               4 SIGN UBIN(2) UNAL,
             11471    1             3 CP REDEF CB,         /* Control bits for PACKED */
             11472    1               4 OFFSET UBIN(2) UNAL,
             11473    1               4 SIGN UBIN(1) UNAL,
             11474    1             3 LEN UBIN(5) UNAL,
             11475    1             3 * UBIN(2) UNAL,
             11476    1             3 DEC SBIN(6) UNAL,
             11478    1           2 DATA@ UBIN;
             11479    1     DCL 1 QI$PSEUDO_CIP_A (0:1) REDEF QI$PSEUDO_CIP UBIN;
             11560    1           DCL 1 QI$CIP BASED DALIGNED,        /* CIP descriptor */
             11565    1                 2 CA,                  /* Control bits for ALPHANUMERIC */
             11566    1                   3 OFFSET UBIN(1) UNAL /* Was INIT'ed to:  (0)/**/,
             11567    1                   3 FILL UBIN(1) UNAL /* Was INIT'ed to:  (1)/**/,
             11568    1                   3 MBZ UBIN(1) UNAL /* Was INIT'ed to:  (0)/**/,
             11569    1                 2 CB REDEF CA,         /* Control bits for BINARY */
             11570    1                   3 OFFSET UBIN(1) UNAL,
             11571    1                   3 MBZ UBIN(2) UNAL,  /* not used:  MBZ */
             11572    1                 2 CD REDEF CA,         /* Control bits for DISPLAY */
             11573    1                   3 OFFSET UBIN(1) UNAL,
             11574    1                   3 SIGN UBIN(2) UNAL,
             11575    1                 2 CP REDEF CA,         /* Control bits for PACKED */
             11576    1                   3 OFFSET UBIN(2) UNAL,
             11577    1                   3 SIGN UBIN(1) UNAL,
             11621    1                 2 LEN UBIN(5) UNAL /* Was INIT'ed to:  (0)/**/,
             11625    1                 2 T UBIN(1) UNAL /* Was INIT'ed to:  (0)/**/,
             11627    1                 2 AS UBIN(7) UNAL /* Was INIT'ed to:  (BITBIN('B'X))/**/,
             11629    1                 2 DISP UBIN /* Was INIT'ed to:  (6)/**/;
             11630    1           DCL 1 QI$CIP_A (0:1) REDEF QI$CIP UBIN;
             11672    1     DCL 1 QI$DAD BASED ALIGNED,
             11676    1           2 WORD0 SBIN,
             11677    1           2 WORD0_FLAGS REDEF WORD0,
             11678    1             3 INDIRECT BIT(1) UNAL,          /* on for indirect reference */
PL6.E3A0      #001=QI_DATA_D File=QI_DATA_D.:E05TSI                              WED 07/30/97 05:20 Page:500
             11679    1             3 * UBIN(4) UNAL,
             11680    1             3 IS_JUSTIFIED_RIGHT BIT(1) UNAL,
             11681    1             3 * UBIN(2) UNAL,
             11682    1             3 IS_FORM_VARIABLE BIT(1) UNAL,  /* on for FORM variable */
             11683    1             3 IS_CONSTANT BIT(1) UNAL,       /* on if CONSTANT */
             11684    1             3 DIMENSION_COUNT UBIN(2) UNAL,  /* # of dimensions */
             11685    1             3 TYPE UBIN(4) UNAL,             /* variable TYPE */
             11707    1         2 PSEUDO_CIP ALIGNED,           /* CIP descriptor */
             11709    1           3 ALPHANUMERIC,
             11710    1             4 CA,                  /* Control bits for ALPHANUMERIC */
             11711    1               5 OFFSET UBIN(1) UNAL,
             11712    1             4 * UBIN(1) UNAL,
             11713    1             4 LEN UBIN(14) UNAL,
             11714    1           3 NUMERIC REDEF ALPHANUMERIC,
             11715    1             4 CB,                  /* Control bits for BINARY */
             11716    1               5 OFFSET UBIN(1) UNAL,
             11717    1               5 MBZ UBIN(2) UNAL,
             11718    1             4 CD REDEF CB,         /* Control bits for DISPLAY */
             11719    1               5 OFFSET UBIN(1) UNAL,
             11720    1               5 SIGN UBIN(2) UNAL,
             11721    1             4 CP REDEF CB,         /* Control bits for PACKED */
             11722    1               5 OFFSET UBIN(2) UNAL,
             11723    1               5 SIGN UBIN(1) UNAL,
             11724    1             4 LEN UBIN(5) UNAL,
             11725    1             4 * UBIN(2) UNAL,
             11726    1             4 DEC SBIN(6) UNAL,
             11731    1           3 DATA@ UBIN,
             11732    1         2 PSEUDO_CIP_A (0:1) REDEF PSEUDO_CIP UBIN ;
             11767    1     DCL 1 QI$COBOL_DAD BASED ALIGNED,
             11768    1           2 WORD0 SBIN,
             11769    1           2 WORD0_FLAGS REDEF WORD0,
             11770    1             3 INDIRECT BIT(1) UNAL,
             11771    1             3 P,
             11772    1               4 PICTURE BIT(1) UNAL,
             11773    1               4 VALID BIT(1) UNAL,
             11774    1               4 ERROR_MESSAGE BIT(1) UNAL,
             11775    1             3 IS_LINKAGE_ARGUMENT BIT(1) UNAL,/* on if in LINKAGE SECTION */
PL6.E3A0      #001=QI_DATA_D File=QI_DATA_D.:E05TSI                              WED 07/30/97 05:20 Page:501
             11776    1             3 IS_JUSTIFIED_RIGHT BIT(1) UNAL,/* on if JUSTIFIED RIGHT */
             11777    1             3 IS_TEMP BIT(1) UNAL,           /* on if this is a temp */
             11778    1             3 IS_ALL_LIT BIT(1) UNAL,        /* on if this is an ALL "literal" */
             11779    1             3 IS_FORM_VARIABLE BIT(1) UNAL,  /* on if a FORM variable */
             11780    1             3 IS_CONSTANT BIT(1) UNAL,       /* on if CONSTANT */
             11781    1             3 DIMENSION_COUNT UBIN(2) UNAL,  /* # of dimensions */
             11782    1             3 TYPE UBIN(4) UNAL,
             11783    1           2 P_A(0:15) REDEF WORD0 BIT(1) UNAL,
             11804    1         2 PSEUDO_CIP ALIGNED,           /* CIP descriptor */
             11806    1           3 ALPHANUMERIC,
             11807    1             4 CA,                  /* Control bits for ALPHANUMERIC */
             11808    1               5 OFFSET UBIN(1) UNAL,
             11809    1             4 * UBIN(1) UNAL,
             11810    1             4 LEN UBIN(14) UNAL,
             11811    1           3 NUMERIC REDEF ALPHANUMERIC,
             11812    1             4 CB,                  /* Control bits for BINARY */
             11813    1               5 OFFSET UBIN(1) UNAL,
             11814    1               5 MBZ UBIN(2) UNAL,
             11815    1             4 CD REDEF CB,         /* Control bits for DISPLAY */
             11816    1               5 OFFSET UBIN(1) UNAL,
             11817    1               5 SIGN UBIN(2) UNAL,
             11818    1             4 CP REDEF CB,         /* Control bits for PACKED */
             11819    1               5 OFFSET UBIN(2) UNAL,
             11820    1               5 SIGN UBIN(1) UNAL,
             11821    1             4 LEN UBIN(5) UNAL,
             11822    1             4 * UBIN(2) UNAL,
             11823    1             4 DEC SBIN(6) UNAL,
             11828    1           3 DATA@ UBIN,
             11829    1         2 PSEUDO_CIP_A (0:1) REDEF PSEUDO_CIP UBIN ,
             11840    1           2 VARIABLE_LENGTH_ITEMS,
             11841    1             3 LEVEL_MULTIPLIERS,
             11842    1               4 ONE_DIMENSIONAL,
             11843    1                 5 ELEMENT_COUNT UBIN,
             11844    1                 5 ELEMENT_LENGTH UBIN,
             11845    1               4 TWO_DIMENSIONAL,
             11846    1                 5 ELEMENT_COUNT UBIN,
             11847    1                 5 ELEMENT_LENGTH UBIN,
PL6.E3A0      #001=QI_DATA_D File=QI_DATA_D.:E05TSI                              WED 07/30/97 05:20 Page:502
             11848    1               4 THREE_DIMENSIONAL,
             11849    1                 5 ELEMENT_COUNT UBIN,
             11850    1                 5 ELEMENT_LENGTH UBIN,
             11851    1             3 LEVEL_MULTIPLIER_A(0:2) REDEF LEVEL_MULTIPLIERS,
             11852    1               4 ELEMENT_COUNT UBIN,
             11853    1               4 ELEMENT_LENGTH UBIN,
             11854    1             3 P_ITEM_A(0:5) REDEF LEVEL_MULTIPLIERS UBIN,
             11855    1             3 *(0:2) UBIN,
             11856    1           2 ELEMENTARY_ITEM REDEF VARIABLE_LENGTH_ITEMS,
             11857    1             3 P_ITEM_A(0:2) UBIN,
             11858    1             3 * UBIN,
             11859    1             3 * UBIN,
             11860    1             3 * UBIN,
             11861    1             3 * UBIN,
             11862    1             3 * UBIN,
             11863    1             3 * UBIN,
             11864    1           2 ONE_DIMENSIONAL_ITEM REDEF VARIABLE_LENGTH_ITEMS,
             11865    1             3 * UBIN,
             11866    1             3 * UBIN,
             11867    1             3 P_ITEM_A(0:2) UBIN,
             11868    1             3 * UBIN,
             11869    1             3 * UBIN,
             11870    1             3 * UBIN,
             11871    1             3 * UBIN,
             11872    1           2 TWO_DIMENSIONAL_ITEM REDEF VARIABLE_LENGTH_ITEMS,
             11873    1             3 * UBIN,
             11874    1             3 * UBIN,
             11875    1             3 * UBIN,
             11876    1             3 * UBIN,
             11877    1             3 P_ITEM_A(0:2) UBIN,
             11878    1             3 * UBIN,
             11879    1             3 * UBIN;
             11904        /*
             11905                 Presence bits for COBOL-type DADs.
             11906        */
             11907    1     DCL 1 QI$COBOL_DAD_P_BITS BASED ALIGNED,
             11908    1           2 P,
PL6.E3A0      #001=QI_DATA_D File=QI_DATA_D.:E05TSI                              WED 07/30/97 05:20 Page:503
             11909    1             3 * BIT(1) UNAL,
             11910    1             3 PICTURE BIT(1) UNAL,
             11911    1             3 VALID BIT(1) UNAL,
             11912    1             3 ERROR_MESSAGE BIT(1) UNAL,
             11913    1             3 USE_PROCEDURE BIT(1) UNAL,
             11914    1           2 P_A(0:4) REDEF P BIT(1) UNAL;
             11939        /*
             11940                 Presence item array for COBOL-type DADs.
             11941        */
             11942    1     DCL 1 QI$COBOL_DAD_P_ITEMS BASED ALIGNED,
             11943    1           2 P_ITEM_A(0:2) UBIN;
             11968    1     DCL 1 QI$LINKAGE_ARGUMENT_DESCRIPTOR BASED ALIGNED,
             11969    1           2 ARGUMENT_NUMBER UBIN,
             11970                          /* argument "number" from
             11971                             PROCEDURE DIVISION USING P1, P2, P3,....
             11972                             E.g., 0 for P1, 1 for P2, 2 for P3,.... */
             11973    1           2 WORD_OFFSET_FROM_01_ITEM UBIN;
             11974                          /* word offset from the nearest 01-level item
             11975                             above to the current item. */
             12000    1     DCL 1 QI$FIELD_DAD BASED ALIGNED,
             12001    1           2 WORD0 SBIN,
             12002    1           2 WORD0_FLAGS REDEF WORD0,
             12003    1             3 INDIRECT BIT(1) UNAL,
             12004                                           /* on if an indirect reference */
             12005    1             3 IO_FLAGS,
             12006    1               4 IS_OUTPUT BIT(1) UNAL,
             12007                                           /* on if this FIELD is OUTPUT or I-O */
             12008    1               4 IS_INPUT BIT(1) UNAL,
             12009                                           /* on if this FIELD is INPUT or I-O */
             12010    1             3 IO_VALUE REDEF IO_FLAGS UBIN(2) UNAL,
             12011                                           /* all 1's if this field is I-O */
             12012    1             3 IS_ENTRY_REQUIRED BIT(1) UNAL,
             12013                                           /* on if INPUT-REQUIRED */
             12014    1             3 IS_OUTPUT_CONSTANT BIT(1) UNAL,
             12015                                           /* on if CONSTANT OUTPUT */
             12016    1             3 IS_JUSTIFIED_RIGHT BIT(1) UNAL,
             12017                                           /* on if right justification is in effect */
PL6.E3A0      #001=QI_DATA_D File=QI_DATA_D.:E05TSI                              WED 07/30/97 05:20 Page:504
             12018    1             3 IS_AOIM BIT(1) UNAL,
             12019                                           /* on if A-O-I-M */
             12020    1             3 * BIT(1) UNAL,
             12021    1             3 IS_FORM_VARIABLE BIT(1) UNAL,
             12022                                           /* on if a FORM var */
             12023    1             3 IS_CONSTANT BIT(1) UNAL,
             12024                                           /* on if CONSTANT */
             12025    1             3 DIMENSION_COUNT UBIN(2) UNAL,
             12026                                           /* # of dimensions */
             12027    1             3 TYPE UBIN(4) UNAL,
             12028                                           /* TYPE of variable */
             12049    1         2 PSEUDO_CIP ALIGNED,           /* CIP descriptor */
             12051    1           3 ALPHANUMERIC,
             12052    1             4 CA,                  /* Control bits for ALPHANUMERIC */
             12053    1               5 OFFSET UBIN(1) UNAL,
             12054    1             4 * UBIN(1) UNAL,
             12055    1             4 LEN UBIN(14) UNAL,
             12056    1           3 NUMERIC REDEF ALPHANUMERIC,
             12057    1             4 CB,                  /* Control bits for BINARY */
             12058    1               5 OFFSET UBIN(1) UNAL,
             12059    1               5 MBZ UBIN(2) UNAL,
             12060    1             4 CD REDEF CB,         /* Control bits for DISPLAY */
             12061    1               5 OFFSET UBIN(1) UNAL,
             12062    1               5 SIGN UBIN(2) UNAL,
             12063    1             4 CP REDEF CB,         /* Control bits for PACKED */
             12064    1               5 OFFSET UBIN(2) UNAL,
             12065    1               5 SIGN UBIN(1) UNAL,
             12066    1             4 LEN UBIN(5) UNAL,
             12067    1             4 * UBIN(2) UNAL,
             12068    1             4 DEC SBIN(6) UNAL,
             12073    1           3 DATA@ UBIN,
             12074    1         2 PSEUDO_CIP_A (0:1) REDEF PSEUDO_CIP UBIN ,
             12085    1           2 PICTURE_STRING@P UBIN,
             12086                                           /* ADDR (PROC) disp to PICTURE string */
             12087    1           2 BROTHER@P UBIN,
             12088                                           /* ADDR disp to DAD of brother/sister */
             12089    1           2 FATHER@P UBIN,
PL6.E3A0      #001=QI_DATA_D File=QI_DATA_D.:E05TSI                              WED 07/30/97 05:20 Page:505
             12090                                           /* ADDR disp to DAD of father */
             12091    1           2 STATUS_AREA@D UBIN,
             12092                                           /* ADDR (DATA) disp to scratch area */
             12093    1           2 IDENTIFIER@P UBIN,
             12094                                           /* ADDR (PROC) disp to identifier */
             12095    1           2 POSITION,
             12096    1             3 LINE UBIN,
             12097                                           /* LINE integer or ADDR disp to
             12098                                              DAD of LINE variable         */
             12099    1             3 COLUMN UBIN,
             12100                                           /* COLUMN integer or ADDR disp to
             12101                                              DAD of COLUMN variable         */
             12102    1           2 * UBIN BYTE UNAL,
             12103    1           2 VISUAL_ATTRIBUTE UBIN BYTE UNAL,
             12104                                           /* VISUAL-ATTRIBUTE code byte */
             12105    1           2 VARIABLE_LENGTH_ITEMS,
             12106    1             3 LEVEL_MULTIPLIERS,
             12107    1               4 ONE_DIMENSIONAL,
             12108    1                 5 ELEMENT_COUNT UBIN,
             12109    1                 5 ELEMENT_LENGTH UBIN,
             12110    1               4 TWO_DIMENSIONAL,
             12111    1                 5 ELEMENT_COUNT UBIN,
             12112    1                 5 ELEMENT_LENGTH UBIN,
             12113    1               4 THREE_DIMENSIONAL,
             12114    1                 5 ELEMENT_COUNT UBIN,
             12115    1                 5 ELEMENT_LENGTH UBIN,
             12116    1             3 LEVEL_MULTIPLIER_A(0:2) REDEF LEVEL_MULTIPLIERS,
             12117    1               4 ELEMENT_COUNT UBIN,
             12118    1               4 ELEMENT_LENGTH UBIN,
             12119    1             3 P_ITEM_A(0:5) REDEF LEVEL_MULTIPLIERS UBIN,
             12120    1             3 *(0:6) UBIN,
             12121    1           2 ELEMENTARY_ITEM REDEF VARIABLE_LENGTH_ITEMS,
             12122    1             3 P,
             12123    1               4 FILL_CHARACTER_MINIMUM_SIZE BIT(1) UNAL,
             12124    1               4 CLASS_ALPHABET BIT(1) UNAL,
             12125    1               4 DEFAULT BIT(1) UNAL,
             12126    1               4 PROMPT BIT(1) UNAL,
PL6.E3A0      #001=QI_DATA_D File=QI_DATA_D.:E05TSI                              WED 07/30/97 05:20 Page:506
             12127    1               4 REPEATS BIT(1) UNAL,
             12128    1               4 SEPARATED BIT(1) UNAL,
             12129    1             3 P_A(0:5) REDEF P BIT(1) UNAL,
             12130    1             3 * UBIN(7) UNAL,
             12131    1             3 CLASS_TYPE UBIN(3) UNAL,
             12132    1             3 P_ITEM_A(0:5) UBIN,
             12133    1             3 * UBIN,
             12134    1             3 * UBIN,
             12135    1             3 * UBIN,
             12136    1             3 * UBIN,
             12137    1             3 * UBIN,
             12138    1             3 * UBIN,
             12139    1           2 ONE_DIMENSIONAL_ITEM REDEF VARIABLE_LENGTH_ITEMS,
             12140    1             3 * UBIN,
             12141    1             3 * UBIN,
             12142    1             3 P,
             12143    1               4 FILL_CHARACTER_MINIMUM_SIZE BIT(1) UNAL,
             12144    1               4 CLASS_ALPHABET BIT(1) UNAL,
             12145    1               4 DEFAULT BIT(1) UNAL,
             12146    1               4 PROMPT BIT(1) UNAL,
             12147    1               4 REPEATS BIT(1) UNAL,
             12148    1               4 SEPARATED BIT(1) UNAL,
             12149    1             3 P_A(0:5) REDEF P BIT(1) UNAL,
             12150    1             3 * UBIN(7) UNAL,
             12151    1             3 CLASS_TYPE UBIN(3) UNAL,
             12152    1             3 P_ITEM_A(0:5) UBIN,
             12153    1             3 * UBIN,
             12154    1             3 * UBIN,
             12155    1             3 * UBIN,
             12156    1             3 * UBIN,
             12157    1           2 TWO_DIMENSIONAL_ITEM REDEF VARIABLE_LENGTH_ITEMS,
             12158    1             3 * UBIN,
             12159    1             3 * UBIN,
             12160    1             3 * UBIN,
             12161    1             3 * UBIN,
             12162    1             3 P,
             12163    1               4 FILL_CHARACTER_MINIMUM_SIZE BIT(1) UNAL,
PL6.E3A0      #001=QI_DATA_D File=QI_DATA_D.:E05TSI                              WED 07/30/97 05:20 Page:507
             12164    1               4 CLASS_ALPHABET BIT(1) UNAL,
             12165    1               4 DEFAULT BIT(1) UNAL,
             12166    1               4 PROMPT BIT(1) UNAL,
             12167    1               4 REPEATS BIT(1) UNAL,
             12168    1               4 SEPARATED BIT(1) UNAL,
             12169    1             3 P_A(0:5) REDEF P BIT(1) UNAL,
             12170    1             3 * UBIN(7) UNAL,
             12171    1             3 CLASS_TYPE UBIN(3) UNAL,
             12172    1             3 P_ITEM_A(0:5) UBIN,
             12173    1             3 * UBIN,
             12174    1             3 * UBIN;
             12199        /*
             12200            Presence bits for FIELD-type DADs.
             12201        */
             12202    1     DCL 1 QI$FIELD_DAD_P BASED ALIGNED,
             12203    1           2 P,
             12204    1             3 FILL_CHARACTER_MINIMUM_SIZE BIT(1) UNAL,
             12205    1             3 CLASS_ALPHABET BIT(1) UNAL,
             12206    1             3 DEFAULT BIT(1) UNAL,
             12207    1             3 PROMPT BIT(1) UNAL,
             12208    1             3 REPEATS BIT(1) UNAL,
             12209    1             3 SEPARATED BIT(1) UNAL,
             12210    1           2 P_A(0:5) REDEF P BIT(1) UNAL,
             12211    1           2 * UBIN(7) UNAL,
             12212    1           2 CLASS_TYPE UBIN(3) UNAL,
             12213    1           2 P_ITEM_A(0:5) UBIN;
             12238    1     DCL 1 QI$MAJOR_NODE BASED ALIGNED,
             12239    1           2 WORD0 SBIN,
             12240    1           2 WORD0_FLAGS REDEF WORD0,
             12241    1             3 INDIRECT BIT(1) UNAL,
             12242    1             3 IS_ANY_DESCENDANT_OUTPUT BIT(1) UNAL,
             12243    1             3 IS_ANY_DESCENDANT_INPUT BIT(1) UNAL,
             12244    1             3 * UBIN(5) UNAL,
             12245    1             3 IS_FORM_VARIABLE BIT(1) UNAL,
             12246    1             3 IS_CONSTANT BIT(1) UNAL,
             12247    1             3 * UBIN(2) UNAL,
             12248    1             3 TYPE UBIN(4) UNAL,
PL6.E3A0      #001=QI_DATA_D File=QI_DATA_D.:E05TSI                              WED 07/30/97 05:20 Page:508
             12249    1           2 * UBIN,
             12250    1           2 * UBIN,
             12251    1           2 SON@P UBIN,
             12252    1           2 BROTHER@P UBIN,
             12253    1           2 FATHER@P UBIN,
             12254                          /* chauvanists. */
             12255    1           2 STATUS_AREA@D UBIN,
             12256    1           2 IDENTIFIER@P UBIN;
             12281    1     DCL 1 QI$MINOR_NODE BASED ALIGNED,
             12282    1           2 WORD0 SBIN,
             12283    1           2 WORD0_FLAGS REDEF WORD0,
             12284    1             3 INDIRECT BIT(1) UNAL,
             12285    1             3 IS_ANY_DESCENDANT_OUTPUT BIT(1) UNAL,
             12286    1             3 IS_ANY_DESCENDANT_INPUT BIT(1) UNAL,
             12287    1             3 * UBIN(5) UNAL,
             12288    1             3 IS_FORM_VARIABLE BIT(1) UNAL,
             12289    1             3 IS_CONSTANT BIT(1) UNAL,
             12290    1             3 * UBIN(2) UNAL,
             12291    1             3 TYPE UBIN(4) UNAL,
             12292    1           2 REPEATS UBIN,
             12293    1           2 SEPARATED UBIN,
             12294    1           2 SON@P UBIN,
             12295    1           2 BROTHER@P UBIN,
             12296    1           2 FATHER@P UBIN,
             12297                          /* chauvanists. */
             12298    1           2 STATUS_AREA@D UBIN,
             12299    1           2 IDENTIFIER@P UBIN;
             12324    1     DCL 1 QI$FILE BASED ALIGNED,
             12325    1           2 WORD0 SBIN,
             12326    1           2 WORD0_FLAGS REDEF WORD0,
             12327    1             3 INDIRECT BIT(1) UNAL,
             12328                          /* If indirect, this is a pointer to the real DAD,
             12329                             which lives in user data. */
             12330    1             3 IS_ERROR_STATUS_VALID BIT(1) UNAL,
             12331                          /* If error_status_valid, there is a DAD pointer
             12332                             to an ERROR STATUS variable below. */
             12333    1             3 * UBIN(10) UNAL,
PL6.E3A0      #001=QI_DATA_D File=QI_DATA_D.:E05TSI                              WED 07/30/97 05:20 Page:509
             12334    1             3 TYPE UBIN(4) UNAL,
             12335                          /* Type of file:  transaction or form. */
             12336    1           2 * UBIN,
             12337    1           2 * UBIN,
             12338    1           2 ERROR_STATUS@D UBIN,
             12339                          /* Offset (in data) of the 8-word space reserved
             12340                             for the ERROR STATUS variable. */
             12341    1           2 * UBIN,
             12342    1           2 * UBIN,
             12343    1           2 STATUS_AREA@D UBIN,
             12344                          /* Offset (in data) of the QI$FILE_STATUS
             12345                             status area for this file FD. */
             12346    1           2 IDENTIFIER@P UBIN,
             12347                          /* Offset (in procedure) of the ATEXTC
             12348                             of the file name. */
             12349    1           2 DCB# UBIN,
             12350                          /* SYMREFed DCBNUM for this file. */
             12351    1           2 USE_PROCEDURE@P UBIN,
             12352                          /* Offset (in procedure) of the USE procedure. */
             12353    1           2 * UBIN;
             12378    1     DCL 1 QI$FORM_FILE BASED ALIGNED,
             12379    1           2 WORD0 SBIN,
             12380    1           2 WORD0_FLAGS REDEF WORD0,
             12381    1             3 INDIRECT BIT(1) UNAL,
             12382                          /* If indirect, this is a pointer to the read DAD,
             12383                             which lives in user data. */
             12384    1             3 IS_ERROR_STATUS_VALID BIT(1) UNAL,
             12385                          /* If error_status_valid, there is a DAD pointer
             12386                             to an ERROR STATUS variable below. */
             12387    1             3 IS_MESSAGE_LINE_VALID BIT(1) UNAL,
             12388                          /* if message_line_valid, there is a DAD pointer
             12389                             to a MESSAGE LINE variable below. */
             12390    1             3 IS_ACTIVATION_STATUS_VALID BIT(1) UNAL,
             12391                          /* if activation_status_valid, there is a DAD pointer
             12392                             to an ACTIVATION STATUS variable below. */
             12393    1             3 * UBIN(4) UNAL,
             12394    1             3 IS_FORM_VARIABLE BIT(1) UNAL,
PL6.E3A0      #001=QI_DATA_D File=QI_DATA_D.:E05TSI                              WED 07/30/97 05:20 Page:510
             12395                          /* if form_variable, then this thing was defined
             12396                             within the FRAME SECTION. */
             12397    1             3 IS_CONSTANT BIT(1) UNAL,
             12398                          /* If constant, this item is located in user
             12399                             procedure. */
             12400    1             3 * UBIN(2) UNAL,
             12401    1             3 TYPE UBIN(4) UNAL,
             12402                          /* For form DADs, type is
             12403                             always 11 ('B'X). */
             12404    1           2 FRAME_COUNT UBIN,
             12405                          /* Number of elements in FRAME_LIST_A below. */
             12406    1           2 ACTIVATION_STATUS@P UBIN,
             12407                          /* Offset (in procedure) of the user-supplied
             12408                             ACTIVATION STATUS variable. */
             12409    1           2 ERROR_STATUS@D UBIN,
             12410                          /* Offset (in data) of the 8-word space reserved
             12411                             for the ERROR STATUS variable. */
             12412    1           2 MESSAGE_LINE UBIN,
             12413                          /* Integer value of the ERROR MESSAGE
             12414                             line number. */
             12415    1           2 RETRY_COUNT UBIN,
             12416                          /* Integer value of the retry count. */
             12417    1           2 STATUS_AREA@D UBIN,
             12418                          /* Offset (in data) of the QI$FORM_STATUS
             12419                             status area for this form FD. */
             12420    1           2 IDENTIFIER@P UBIN,
             12421                          /* Offset (in procedure) of the ATEXTC
             12422                             of the file name. */
             12423    1           2 DCB# UBIN,
             12424                          /* SYMREFed DCBNUM for this FORM_FILE. */
             12425    1           2 USE_PROCEDURE,
             12426    1             3 STANDARD,
             12427    1               4 WHERE@P UBIN,
             12428                          /* Offset (in procedure) of the USE procedure. */
             12429    1             3 VERIFY,
             12430    1               4 WHERE@P UBIN,
             12431                          /* Offset (in procedure) of the USE procedure. */
PL6.E3A0      #001=QI_DATA_D File=QI_DATA_D.:E05TSI                              WED 07/30/97 05:20 Page:511
             12432    1           2 USE_PROCEDURE_A@P(0:1) REDEF USE_PROCEDURE UBIN,
             12433    1           2 FRAME_LIST_A@P(0:0) UBIN;
             12434                          /* List of offsets of FRAMES specified in the
             12435                             FRAMES ARE clause. */
             12460    1     DCL 1 QI$TRAN_FILE BASED ALIGNED,
             12461    1           2 WORD0 SBIN,
             12462    1           2 WORD0_FLAGS REDEF WORD0,
             12463    1             3 INDIRECT BIT(1) UNAL,
             12464                          /* If indirect, this is a pointer to the read DAD,
             12465                             which lives in user data. */
             12466    1             3 IS_ERROR_STATUS_VALID BIT(1) UNAL,
             12467                          /* If error_status_valid, there is a DAD pointer
             12468                             to an ERROR STATUS variable below. */
             12469    1             3 IS_RELATIVE_KEY_VALID BIT(1) UNAL,
             12470                          /* If relative_key_valid, there is a DAD pointer
             12471                             to a RELATIVE KEY variable below. */
             12472    1             3 IS_ID_VALID BIT(1) UNAL,
             12473                          /* If id_valid, there is a DAD pointer to an
             12474                             ID variable below. */
             12475    1             3 * UBIN(3) UNAL,
             12476    1             3 INPUT_CLASS BIT(1) UNAL,
             12477                          /* Input_class is:  0 for response
             12478                                              1 for report. */
             12479    1             3 ACCESS UBIN(2) UNAL,
             12480                          /* Access is:  0 for sequential
             12481                                         1 for dynamic
             12482                                         2 for random.
             12483                                         (Not currently used.) */
             12484    1             3 * UBIN(2) UNAL,
             12485    1             3 TYPE UBIN(4) UNAL,
             12486                          /* For transaction DADs, file_type is
             12487                             always 12 ('C'X). */
             12488    1           2 MAX_RECORD_SIZE UBIN,
             12489                          /* Size of the largest record in this FD (bytes). */
             12490    1           2 BUFFER@D UBIN,
             12491                          /* Offset (in data) of the buffer to be written. */
             12492    1           2 ERROR_STATUS@D UBIN,
PL6.E3A0      #001=QI_DATA_D File=QI_DATA_D.:E05TSI                              WED 07/30/97 05:20 Page:512
             12493                          /* Offset (in data) of the 8-word space reserved
             12494                             for the ERROR STATUS variable. */
             12495    1           2 RELATIVE_KEY@ UBIN,
             12496                          /* Offset of the DAD describing the
             12497                             RELATIVE KEY variable.  (Unimplemented).  */
             12498    1           2 ID@P UBIN,
             12499                          /* Offset of the DAD describing the
             12500                             ID variable. */
             12501    1           2 STATUS_AREA@D UBIN,
             12502                          /* Offset (in data) of the QI$TRAN_STATUS
             12503                             status area for this transaction FD. */
             12504    1           2 IDENTIFIER@P UBIN,
             12505                          /* Offset (in procedure) of the ATEXTC
             12506                             of the file name. */
             12507    1           2 DCB# UBIN,
             12508                          /* SYMREFed DCBNUM for this TRAN_FILE. */
             12509    1           2 USE_PROCEDURE@P UBIN,
             12510                          /* Offset (in procedure) of the USE procedure. */
             12511    1           2 * UBIN,
             12512    1           2 TYPE@P UBIN;
             12513                          /* Offset of the DAD describing the
             12514                             TYPE variable. */
             12539    1     DCL 1 QI$FRAME BASED ALIGNED,
             12540    1           2 WORD0 SBIN,
             12541    1           2 WORD0_FLAGS REDEF WORD0,
             12542    1             3 INDIRECT BIT(1) UNAL,
             12543    1             3 * UBIN(5) UNAL,
             12544    1             3 IS_LINE_ORIGIN_VARIABLE BIT(1) UNAL,
             12545    1             3 IS_COLUMN_ORIGIN_VARIABLE BIT(1) UNAL,
             12546    1             3 IS_FORM_VARIABLE BIT(1) UNAL,
             12547    1             3 IS_CONSTANT BIT(1) UNAL,
             12548    1             3 * UBIN(2) UNAL,
             12549    1             3 TYPE UBIN(4) UNAL,
             12550    1           2 LINE_ORIGIN UBIN,
             12551    1           2 COLUMN_ORIGIN UBIN,
             12552    1           2 SON@P UBIN,
             12553    1           2 BROTHER@P UBIN,
PL6.E3A0      #001=QI_DATA_D File=QI_DATA_D.:E05TSI                              WED 07/30/97 05:20 Page:513
             12554    1           2 FATHER@P UBIN,
             12555                          /* chauvanists. */
             12556    1           2 STATUS_AREA@D UBIN,
             12557    1           2 IDENTIFIER@P UBIN;
             12582    1     DCL 1 QI$PICTURE_STRING BASED ALIGNED,
             12583    1           2 TYPE UBIN(3) UNAL,
             12584    1           2 * UBIN(13) UNAL,
             12585    1           2 OTHER_STUFF_A(0:0) UBIN;
             12610    1     DCL 1 QI$NUMERIC_PICTURE_STRING BASED ALIGNED,
             12611    1           2 TYPE UBIN(3) UNAL,
             12612    1           2 MAX_DIGIT_COUNT UBIN(5) UNAL,
             12613    1           2 * UBIN(2) UNAL,
             12614    1           2 DECIMAL_SCALING UBIN(6) UNAL,
             12615    1           2 MOP_STRING_COUNT UBIN BYTE UNAL,
             12616    1           2 MOP_STRING_A(0:0) UBIN BYTE UNAL;
             12641    1     DCL 1 QI$ALPHANUMERIC_PICTURE_STRING BASED ALIGNED,
             12642    1           2 TYPE UBIN(3) UNAL,
             12643    1           2 EDIT_STRING_COUNT UBIN(13) UNAL,
             12644    1           2 EDIT_STRING_A(0:0),
             12645    1             3 FUNCTION UBIN(2) UNAL,
             12646    1             3 LENGTH UBIN(14) UNAL;
             12671        /*    Although the compiler never explicitly generates this,
             12672              it's implicitly the largest possible *thing* to say
             12673              ACCEPT *thing* FROM TERMINAL-ATTRIBUTES
             12674              about.  See the FPL manual under the ACCEPT verb.
             12675        */
             12676    1     DCL 1 QI$TERMINAL_ATTRIBUTES BASED CALIGNED,
             12677    1           2 STATION_NAME CHAR(8) CALIGNED,
             12678    1           2 CURRENT_DEVICE_PROFILE CHAR(12) CALIGNED,
             12679    1           2 NUMBER_OF_LINES CHAR(4) CALIGNED,
             12680    1           2 NUMBER_OF_COLUMNS CHAR(4) CALIGNED,
             12681    1           2 DEVICE_I_O_CAPABILITY CHAR(1) CALIGNED,
             12682    1           2 CONNECTION_TYPE CHAR(1) CALIGNED,
             12683    1           2 CP_6_NODE CHAR(4) CALIGNED,
             12684    1           2 CP_6_PORT CHAR(4) CALIGNED,
             12685    1           2 PROGRAM_EXECUTION CHAR(1) CALIGNED,
             12686    1           2 DEVICE_TYPE CHAR(1) CALIGNED,
PL6.E3A0      #001=QI_DATA_D File=QI_DATA_D.:E05TSI                              WED 07/30/97 05:20 Page:514
             12687    1           2 CP_6_CONTROLLER CHAR(4) CALIGNED,
             12688    1           2 CP_6_DEVICE CHAR(4) CALIGNED;
             12689    1     DCL 1 QI$TERMINAL_ATTRIBUTES_TEXT REDEF QI$TERMINAL_ATTRIBUTES CHAR(48);
             12714        /*    Although the compiler never explicitly generates this,
             12715              it's implicitly the largest possible *thing* to say
             12716              ACTIVATION STATUS IS *thing*
             12717              about.  See the FPL manual under the SELECT clause.
             12718        */
             12719    1     DCL 1 QI$ACTIVATION_STATUS BASED CALIGNED,
             12720    1           2 ACTIVATION_CHARACTER CHAR(1) CALIGNED,
             12721    1           2 ACTIVATION_POSITION CHAR(3) CALIGNED,
             12722    1           2 ACTIVATION_LINE CHAR(3) CALIGNED,
             12723    1           2 ACTIVATION_COLUMN CHAR(3) CALIGNED,
             12724    1           2 ACTIVATION_FIELD CHAR(30) CALIGNED;
             12725    1     DCL 1 QI$ACTIVATION_STATUS_TEXT REDEF QI$ACTIVATION_STATUS CHAR(40);
             12750        /*
             12751          This structure is used by PERFM and PERFMT routines to refer
             12752          to iteration data.
             12753        */
             12754    1     DCL 1 QI$PERFORM_BLOCK BASED ALIGNED,
             12755    1           2 FROM@P UBIN,
             12756    1           2 RETURN$ PTR,
             12757    1           2 ITERATION UBIN;
             12783    1     DCL 1 QI$INDICATORS BASED ALIGNED,
             12787    1           2 IS_ACTIVE BIT(1) UNAL,
             12788                                           /* Is (or is in) an ACTIVATEd frame */
             12789    1           2 ENABLED_FLAGS,
             12790    1             3 IS_OUTPUT BIT(1) UNAL,
             12791                                           /* ENABLEd for OUTPUT */
             12792    1             3 IS_INPUT BIT(1) UNAL,
             12793                                           /* ENABLEd for INPUT */
             12794    1           2 ENABLED_VALUE REDEF ENABLED_FLAGS UBIN(2) UNAL,
             12795    1           2 STATE_FLAGS,
             12796    1             3 IS_AVAILABLE BIT(1) UNAL,
             12797                                           /* Last operation was a READ or ACCEPT */
             12798    1             3 IS_PRESENTED BIT(1) UNAL,
             12799                                           /* Last operation was a PRESENT */
PL6.E3A0      #001=QI_DATA_D File=QI_DATA_D.:E05TSI                              WED 07/30/97 05:20 Page:515
             12800    1           2 STATE_VALUE REDEF STATE_FLAGS UBIN(2) UNAL,
             12801    1           2 OPEN_FLAGS,
             12802    1             3 IS_OUTPUT BIT(1) UNAL,
             12803                                           /* Is (or is in) an FD opened
             12804                                              for INPUT or I-O */
             12805    1             3 IS_INPUT BIT(1) UNAL,
             12806                                           /* Is (or is in) an FD opened
             12807                                              for OUTPUT or I-O */
             12808    1           2 OPEN_VALUE REDEF OPEN_FLAGS UBIN(2) UNAL,
             12809    1           2 * UBIN(5) UNAL,
             12811    1           2 TYPE UBIN(4) UNAL;
             12812                                           /* Type is form, frame, or field */
             12813    1     DCL 1 QI$INDICATORS_A(0:0) REDEF QI$INDICATORS UBIN ALIGNED;
             12843    1     DCL 1 QI$FIELD_STATUS BASED ALIGNED,
             12844    1           2 GZ,
             12845    1             3 FIELD_START_INDEX UBIN,
             12846                                           /* starting index into interface table */
             12847    1             3 FIELD_STOP_INDEX UBIN,
             12848                                           /* ending index into interface table */
             12869    1         2 INDICATORS ALIGNED,
             12871    1           3 IS_ACTIVE BIT(1) UNAL,
             12872                                           /* Is (or is in) an ACTIVATEd frame */
             12873    1           3 ENABLED_FLAGS,
             12874    1             4 IS_OUTPUT BIT(1) UNAL,
             12875                                           /* ENABLEd for OUTPUT */
             12876    1             4 IS_INPUT BIT(1) UNAL,
             12877                                           /* ENABLEd for INPUT */
             12878    1           3 ENABLED_VALUE REDEF ENABLED_FLAGS UBIN(2) UNAL,
             12879    1           3 STATE_FLAGS,
             12880    1             4 IS_AVAILABLE BIT(1) UNAL,
             12881                                           /* Last operation was a READ or ACCEPT */
             12882    1             4 IS_PRESENTED BIT(1) UNAL,
             12883                                           /* Last operation was a PRESENT */
             12884    1           3 STATE_VALUE REDEF STATE_FLAGS UBIN(2) UNAL,
             12885    1           3 OPEN_FLAGS,
             12886    1             4 IS_OUTPUT BIT(1) UNAL,
             12887                                           /* Is (or is in) an FD opened
PL6.E3A0      #001=QI_DATA_D File=QI_DATA_D.:E05TSI                              WED 07/30/97 05:20 Page:516
             12888                                              for INPUT or I-O */
             12889    1             4 IS_INPUT BIT(1) UNAL,
             12890                                           /* Is (or is in) an FD opened
             12891                                              for OUTPUT or I-O */
             12892    1           3 OPEN_VALUE REDEF OPEN_FLAGS UBIN(2) UNAL,
             12893    1           3 * UBIN(5) UNAL,
             12899    1           3 TYPE UBIN(4) UNAL,
             12900                                           /* Type is form, frame, or field */
             12901    1         2 INDICATORS_A(0:0) REDEF INDICATORS UBIN ALIGNED ;
             12936    1     DCL 1 QI$MAJOR_STATUS BASED ALIGNED,
             12937    1           2 GZ,
             12938    1             3 FIELD_START_INDEX UBIN,
             12939                                           /* starting index into interface table */
             12940    1             3 FIELD_STOP_INDEX UBIN,
             12941                                           /* ending index into interface table */
             12962    1         2 INDICATORS ALIGNED,
             12964    1           3 IS_ACTIVE BIT(1) UNAL,
             12965                                           /* Is (or is in) an ACTIVATEd frame */
             12966    1           3 ENABLED_FLAGS,
             12967    1             4 IS_OUTPUT BIT(1) UNAL,
             12968                                           /* ENABLEd for OUTPUT */
             12969    1             4 IS_INPUT BIT(1) UNAL,
             12970                                           /* ENABLEd for INPUT */
             12971    1           3 ENABLED_VALUE REDEF ENABLED_FLAGS UBIN(2) UNAL,
             12972    1           3 STATE_FLAGS,
             12973    1             4 IS_AVAILABLE BIT(1) UNAL,
             12974                                           /* Last operation was a READ or ACCEPT */
             12975    1             4 IS_PRESENTED BIT(1) UNAL,
             12976                                           /* Last operation was a PRESENT */
             12977    1           3 STATE_VALUE REDEF STATE_FLAGS UBIN(2) UNAL,
             12978    1           3 OPEN_FLAGS,
             12979    1             4 IS_OUTPUT BIT(1) UNAL,
             12980                                           /* Is (or is in) an FD opened
             12981                                              for INPUT or I-O */
             12982    1             4 IS_INPUT BIT(1) UNAL,
             12983                                           /* Is (or is in) an FD opened
             12984                                              for OUTPUT or I-O */
PL6.E3A0      #001=QI_DATA_D File=QI_DATA_D.:E05TSI                              WED 07/30/97 05:20 Page:517
             12985    1           3 OPEN_VALUE REDEF OPEN_FLAGS UBIN(2) UNAL,
             12986    1           3 * UBIN(5) UNAL,
             12992    1           3 TYPE UBIN(4) UNAL,
             12993                                           /* Type is form, frame, or field */
             12994    1         2 INDICATORS_A(0:0) REDEF INDICATORS UBIN ALIGNED ;
             13029    1     DCL 1 QI$MINOR_STATUS BASED ALIGNED,
             13030    1           2 GZ,
             13031    1             3 FIELD_START_INDEX UBIN,
             13032                                           /* starting index into interface table */
             13033    1             3 FIELD_STOP_INDEX UBIN,
             13034                                           /* ending index into interface table */
             13055    1         2 INDICATORS ALIGNED,
             13057    1           3 IS_ACTIVE BIT(1) UNAL,
             13058                                           /* Is (or is in) an ACTIVATEd frame */
             13059    1           3 ENABLED_FLAGS,
             13060    1             4 IS_OUTPUT BIT(1) UNAL,
             13061                                           /* ENABLEd for OUTPUT */
             13062    1             4 IS_INPUT BIT(1) UNAL,
             13063                                           /* ENABLEd for INPUT */
             13064    1           3 ENABLED_VALUE REDEF ENABLED_FLAGS UBIN(2) UNAL,
             13065    1           3 STATE_FLAGS,
             13066    1             4 IS_AVAILABLE BIT(1) UNAL,
             13067                                           /* Last operation was a READ or ACCEPT */
             13068    1             4 IS_PRESENTED BIT(1) UNAL,
             13069                                           /* Last operation was a PRESENT */
             13070    1           3 STATE_VALUE REDEF STATE_FLAGS UBIN(2) UNAL,
             13071    1           3 OPEN_FLAGS,
             13072    1             4 IS_OUTPUT BIT(1) UNAL,
             13073                                           /* Is (or is in) an FD opened
             13074                                              for INPUT or I-O */
             13075    1             4 IS_INPUT BIT(1) UNAL,
             13076                                           /* Is (or is in) an FD opened
             13077                                              for OUTPUT or I-O */
             13078    1           3 OPEN_VALUE REDEF OPEN_FLAGS UBIN(2) UNAL,
             13079    1           3 * UBIN(5) UNAL,
             13085    1           3 TYPE UBIN(4) UNAL,
             13086                                           /* Type is form, frame, or field */
PL6.E3A0      #001=QI_DATA_D File=QI_DATA_D.:E05TSI                              WED 07/30/97 05:20 Page:518
             13087    1         2 INDICATORS_A(0:0) REDEF INDICATORS UBIN ALIGNED ;
             13122    1     DCL 1 QI$FILE_STATUS BASED ALIGNED,
             13123    1           2 CURRENT,
             13124    1             3 * BIT(5) UNAL,
             13125    1             3 USAGE,
             13126    1               4 OPENED BIT(1) UNAL,
             13127                          /* Opened is:  0 for never opened
             13128                                         1 for opened at least once. */
             13129    1               4 CLOSED BIT(1) UNAL,
             13130                          /* Closed is:  0 for never closed
             13131                                         1 for closed at least once. */
             13132    1             3 * UBIN(9) UNAL,
             13133    1           2 BACK_LINK@P UBIN,
             13134                          /* Back_link to the file FD
             13135                             (in procedure). */
             13136    1           2 FLINK$ PTR,
             13137                          /* Pointer to next opened FD of this type. */
             13138    1           2 * UBIN,
             13139    1           2 * UBIN,
             13140    1           2 * UBIN,
             13141    1           2 * UBIN,
             13162    1         2 INDICATORS ALIGNED,
             13164    1           3 IS_ACTIVE BIT(1) UNAL,
             13165                                           /* Is (or is in) an ACTIVATEd frame */
             13166    1           3 ENABLED_FLAGS,
             13167    1             4 IS_OUTPUT BIT(1) UNAL,
             13168                                           /* ENABLEd for OUTPUT */
             13169    1             4 IS_INPUT BIT(1) UNAL,
             13170                                           /* ENABLEd for INPUT */
             13171    1           3 ENABLED_VALUE REDEF ENABLED_FLAGS UBIN(2) UNAL,
             13172    1           3 STATE_FLAGS,
             13173    1             4 IS_AVAILABLE BIT(1) UNAL,
             13174                                           /* Last operation was a READ or ACCEPT */
             13175    1             4 IS_PRESENTED BIT(1) UNAL,
             13176                                           /* Last operation was a PRESENT */
             13177    1           3 STATE_VALUE REDEF STATE_FLAGS UBIN(2) UNAL,
             13178    1           3 OPEN_FLAGS,
PL6.E3A0      #001=QI_DATA_D File=QI_DATA_D.:E05TSI                              WED 07/30/97 05:20 Page:519
             13179    1             4 IS_OUTPUT BIT(1) UNAL,
             13180                                           /* Is (or is in) an FD opened
             13181                                              for INPUT or I-O */
             13182    1             4 IS_INPUT BIT(1) UNAL,
             13183                                           /* Is (or is in) an FD opened
             13184                                              for OUTPUT or I-O */
             13185    1           3 OPEN_VALUE REDEF OPEN_FLAGS UBIN(2) UNAL,
             13186    1           3 * UBIN(5) UNAL,
             13192    1           3 TYPE UBIN(4) UNAL,
             13193                                           /* Type is form, frame, or field */
             13194    1         2 INDICATORS_A(0:0) REDEF INDICATORS UBIN ALIGNED ;
             13229    1     DCL 1 QI$FORM_STATUS BASED ALIGNED,
             13230    1           2 CURRENT,
             13231    1             3 * BIT(3) UNAL,
             13232    1             3 IS_USE_PROCEDURE_ACTIVE,
             13233    1               4 STANDARD BIT(1) UNAL,
             13234    1               4 VERIFY BIT(1) UNAL,
             13235    1             3 USAGE,
             13236    1               4 OPENED BIT(1) UNAL,
             13237                          /* Opened is:  0 for never opened
             13238                                         1 for opened at least once. */
             13239    1               4 CLOSED BIT(1) UNAL,
             13240                          /* Closed is:  0 for never closed
             13241                                         1 for closed at least once. */
             13242    1             3 IS_MESSAGE_LINE_NON_BLANK BIT(1) UNAL,
             13243                          /* Set if the screen is currently displaying
             13244                             a non-blank MESSAGE LINE. */
             13245    1             3 IS_UPDATED BIT(1) UNAL,
             13246                          /* Set if the screen has been updated with
             13247                             a DISPLAY, WRITE or CLEAR and must be
             13248                             M$DEVICEd before a STOP "literal" or
             13249                             a host read. */
             13250    1             3 * UBIN(7) UNAL,
             13251    1           2 BACK_LINK@P UBIN,
             13252                          /* Back_link to the form FD
             13253                             (in procedure). */
             13254    1           2 FLINK$ PTR,
PL6.E3A0      #001=QI_DATA_D File=QI_DATA_D.:E05TSI                              WED 07/30/97 05:20 Page:520
             13255                          /* Pointer to next opened screen FD. */
             13256    1           2 GZ,
             13257    1             3 NEXT_AVAILABLE_FLDID UBIN,
             13258                          /* Next VDH FLDID to use for activating frames
             13259                             within this form. */
             13260    1           2 * UBIN,
             13261    1           2 * UBIN,
             13262    1           2 * UBIN,
             13283    1         2 INDICATORS ALIGNED,
             13285    1           3 IS_ACTIVE BIT(1) UNAL,
             13286                                           /* Is (or is in) an ACTIVATEd frame */
             13287    1           3 ENABLED_FLAGS,
             13288    1             4 IS_OUTPUT BIT(1) UNAL,
             13289                                           /* ENABLEd for OUTPUT */
             13290    1             4 IS_INPUT BIT(1) UNAL,
             13291                                           /* ENABLEd for INPUT */
             13292    1           3 ENABLED_VALUE REDEF ENABLED_FLAGS UBIN(2) UNAL,
             13293    1           3 STATE_FLAGS,
             13294    1             4 IS_AVAILABLE BIT(1) UNAL,
             13295                                           /* Last operation was a READ or ACCEPT */
             13296    1             4 IS_PRESENTED BIT(1) UNAL,
             13297                                           /* Last operation was a PRESENT */
             13298    1           3 STATE_VALUE REDEF STATE_FLAGS UBIN(2) UNAL,
             13299    1           3 OPEN_FLAGS,
             13300    1             4 IS_OUTPUT BIT(1) UNAL,
             13301                                           /* Is (or is in) an FD opened
             13302                                              for INPUT or I-O */
             13303    1             4 IS_INPUT BIT(1) UNAL,
             13304                                           /* Is (or is in) an FD opened
             13305                                              for OUTPUT or I-O */
             13306    1           3 OPEN_VALUE REDEF OPEN_FLAGS UBIN(2) UNAL,
             13307    1           3 * UBIN(5) UNAL,
             13313    1           3 TYPE UBIN(4) UNAL,
             13314                                           /* Type is form, frame, or field */
             13315    1         2 INDICATORS_A(0:0) REDEF INDICATORS UBIN ALIGNED ;
             13350    1     DCL 1 QI$TRAN_STATUS BASED ALIGNED,
             13351    1           2 CURRENT,
PL6.E3A0      #001=QI_DATA_D File=QI_DATA_D.:E05TSI                              WED 07/30/97 05:20 Page:521
             13352    1             3 * BIT(3) UNAL,
             13353    1             3 IS_RRR_ID_VALID BIT(1) UNAL,
             13354                          /* If is_rrr_id_valid, rrr_id is real and we
             13355                             should M$REP_OTP_COMP. */
             13356    1             3 * BIT(1) UNAL,
             13357    1             3 USAGE,
             13358    1               4 OPENED BIT(1) UNAL,
             13359                          /* Opened is:  0 for never opened
             13360                                         1 for opened at least once. */
             13361    1               4 CLOSED BIT(1) UNAL,
             13362                          /* Closed is:  0 for never closed
             13363                                         1 for closed at least once. */
             13364    1             3 * UBIN(9) UNAL,
             13365    1           2 BACK_LINK@P UBIN,
             13366                          /* Back_link to the transaction FD
             13367                             (in procedure). */
             13368    1           2 FLINK$ PTR,
             13369                          /* Pointer to next opened transaction FD. */
             13370    1           2 LAST_ID UBIN(32),
             13371                          /* Last transaction id produced by a
             13372                             WRITE to this FD. */
             13373    1           2 RRR_ID UBIN(32),
             13374                          /* RRR id of the last record READ,
             13375                             if it was WRITtEn secure. */
             13396    1         2 INDICATORS ALIGNED,
             13398    1           3 IS_ACTIVE BIT(1) UNAL,
             13399                                           /* Is (or is in) an ACTIVATEd frame */
             13400    1           3 ENABLED_FLAGS,
             13401    1             4 IS_OUTPUT BIT(1) UNAL,
             13402                                           /* ENABLEd for OUTPUT */
             13403    1             4 IS_INPUT BIT(1) UNAL,
             13404                                           /* ENABLEd for INPUT */
             13405    1           3 ENABLED_VALUE REDEF ENABLED_FLAGS UBIN(2) UNAL,
             13406    1           3 STATE_FLAGS,
             13407    1             4 IS_AVAILABLE BIT(1) UNAL,
             13408                                           /* Last operation was a READ or ACCEPT */
             13409    1             4 IS_PRESENTED BIT(1) UNAL,
PL6.E3A0      #001=QI_DATA_D File=QI_DATA_D.:E05TSI                              WED 07/30/97 05:20 Page:522
             13410                                           /* Last operation was a PRESENT */
             13411    1           3 STATE_VALUE REDEF STATE_FLAGS UBIN(2) UNAL,
             13412    1           3 OPEN_FLAGS,
             13413    1             4 IS_OUTPUT BIT(1) UNAL,
             13414                                           /* Is (or is in) an FD opened
             13415                                              for INPUT or I-O */
             13416    1             4 IS_INPUT BIT(1) UNAL,
             13417                                           /* Is (or is in) an FD opened
             13418                                              for OUTPUT or I-O */
             13419    1           3 OPEN_VALUE REDEF OPEN_FLAGS UBIN(2) UNAL,
             13420    1           3 * UBIN(5) UNAL,
             13426    1           3 TYPE UBIN(4) UNAL,
             13427                                           /* Type is form, frame, or field */
             13428    1         2 INDICATORS_A(0:0) REDEF INDICATORS UBIN ALIGNED ;
             13463    1     DCL 1 QI$FRAME_STATUS BASED ALIGNED,
             13464    1           2 GZ,
             13465    1             3 FIELD_START_INDEX UBIN,
             13466                                           /* Starting index into interface table. */
             13467    1             3 FIELD_STOP_INDEX UBIN,
             13468                                           /* Ending index into interface table. */
             13469    1             3 FLDID_START UBIN,
             13470                                           /* First VDH FLDID for this frame. */
             13471    1             3 FLDID_STOP UBIN,
             13472                                           /* Last VDH FLDID for this frame. */
             13473    1             3 HEADER$ PTR,
             13474                                           /* Pointer to interface header area */
             13475    1             3 START$ PTR,
             13476                                           /* Pointer to start of interface array */
             13477    1             3 STOP$ PTR,
             13478                                           /* Pointer to end of interface array */
             13479    1           2 CURRENT,
             13480    1             3 * BIT(5) UNAL,
             13481    1             3 USAGE,
             13482    1               4 ACTIVATED BIT(1) UNAL,
             13483                          /* Activated is:  0 for never activated
             13484                                            1 for activated at least once.  */
             13485    1               4 DEACTIVATED BIT(1) UNAL,
PL6.E3A0      #001=QI_DATA_D File=QI_DATA_D.:E05TSI                              WED 07/30/97 05:20 Page:523
             13486                          /* Deactivated is:  0 for never deactivated
             13487                                              1 for deactivated at least once.  */
             13488    1             3 * UBIN(9) UNAL,
             13489    1           2 FORM_BACK_LINK@P UBIN,
             13490                                           /* Back_link to the form FD
             13491                                              (in procedure). */
             13512    1         2 INDICATORS ALIGNED,
             13514    1           3 IS_ACTIVE BIT(1) UNAL,
             13515                                           /* Is (or is in) an ACTIVATEd frame */
             13516    1           3 ENABLED_FLAGS,
             13517    1             4 IS_OUTPUT BIT(1) UNAL,
             13518                                           /* ENABLEd for OUTPUT */
             13519    1             4 IS_INPUT BIT(1) UNAL,
             13520                                           /* ENABLEd for INPUT */
             13521    1           3 ENABLED_VALUE REDEF ENABLED_FLAGS UBIN(2) UNAL,
             13522    1           3 STATE_FLAGS,
             13523    1             4 IS_AVAILABLE BIT(1) UNAL,
             13524                                           /* Last operation was a READ or ACCEPT */
             13525    1             4 IS_PRESENTED BIT(1) UNAL,
             13526                                           /* Last operation was a PRESENT */
             13527    1           3 STATE_VALUE REDEF STATE_FLAGS UBIN(2) UNAL,
             13528    1           3 OPEN_FLAGS,
             13529    1             4 IS_OUTPUT BIT(1) UNAL,
             13530                                           /* Is (or is in) an FD opened
             13531                                              for INPUT or I-O */
             13532    1             4 IS_INPUT BIT(1) UNAL,
             13533                                           /* Is (or is in) an FD opened
             13534                                              for OUTPUT or I-O */
             13535    1           3 OPEN_VALUE REDEF OPEN_FLAGS UBIN(2) UNAL,
             13536    1           3 * UBIN(5) UNAL,
             13542    1           3 TYPE UBIN(4) UNAL,
             13543                                           /* Type is form, frame, or field */
             13544    1         2 INDICATORS_A(0:0) REDEF INDICATORS UBIN ALIGNED ;
             13570            %ENDIF;
       81    13573
       82    13574        /*
       83    13575           BASED general-purpose stuff.
PL6.E3A0      #001=QI_DATA_D File=QI_DATA_D.:E05TSI                              WED 07/30/97 05:20 Page:524
       84    13576        */
       85    13577          %QI$GENERAL;
             13578            %BEGIN_MACRO ( STCLASS = STCLASS );
             13579            %SET LISTDIR = '0'B;
             13607        /*
             13608            some useful stuff...
             13609        */
             13610    1     DCL QI$PROC_A@P(0:0) UBIN BASED;
             13611    1     DCL QI$DATA_A@D(0:0) UBIN BASED;
             13612    1     DCL QI$AREA_A@(0:0) UBIN BASED;
             13613    1     DCL 1 QI$BITS ALIGNED BASED,
             13614    1           2 BIT_A(0:0) BIT(1) UNAL;
             13615    1     DCL QI$CHAR_A(0:0) CHAR(1) CALIGNED BASED;
             13616    1     DCL QI$UBYTE_A(0:0) UBIN BYTE CALIGNED BASED;
             13617    1     DCL QI$SBYTE_A(0:0) SBIN BYTE CALIGNED BASED;
             13618    1     DCL QI$UWORD_A(0:0) UBIN BASED;
             13619    1     DCL QI$SWORD_A(0:0) SBIN BASED;
             13620    1     DCL QI$DWORD_A(0:0) BIT(32) ALIGNED BASED;
             13621    1     DCL QI$PTR_A$(0:0) PTR BASED;
             13622    1     DCL 1 QI$MESSAGE_TYPE CALIGNED BASED,
             13623    1           2 TEXT CHAR(8) UNAL;
             13624    1     DCL QI$MESSAGE_TYPE_A(0:7) REDEF QI$MESSAGE_TYPE UBIN BYTE CALIGNED;
             13625    1     DCL 1 QI$ERROR_STATUS CALIGNED BASED,
             13626    1           2 TEXT CHAR(8) UNAL;
             13627    1     DCL QI$ERROR_STATUS_A(0:7) REDEF QI$ERROR_STATUS UBIN BYTE CALIGNED;
             13628    1     DCL 1 QI$ERROR_MESSAGE_LINE CALIGNED BASED,
             13629    1           2 TEXT CHAR(72) UNAL;
             13630    1     DCL QI$ERROR_MESSAGE_LINE_A(0:71) REDEF QI$ERROR_MESSAGE_LINE UBIN BYTE CALIGNED;
             13631    1     DCL 1 QI$IDENTIFIER CALIGNED BASED,
             13632    1           2 TEXT CHAR(30) UNAL;
             13633    1     DCL QI$IDENTIFIER_A(0:29) REDEF QI$IDENTIFIER UBIN BYTE CALIGNED;
             13634    1     DCL 1 QI$VARIABLE_IDENTIFIER CALIGNED BASED,
             13635    1           2 LENGTH UBIN BYTE UNAL,
             13636    1           2 TEXT CHAR(QI$VARIABLE_IDENTIFIER.LENGTH) UNAL;
             13637        /*
             13638            note that the following require the QI_CONTEXT macro to be
             13639            invoked along with the QI$GENERAL one.
PL6.E3A0      #001=QI_DATA_D File=QI_DATA_D.:E05TSI                              WED 07/30/97 05:20 Page:525
             13640        */
             13641    1     DCL 1 QI$VARIABLE_STRING_SOURCE CALIGNED BASED,
             13642    1           2 TEXT CHAR(QI_1.OP.LEN.S) UNAL;
             13643    1     DCL 1 QI$VARIABLE_STRING_TARGET CALIGNED BASED,
             13644    1           2 TEXT CHAR(QI_1.OP.LEN.T) UNAL;
             13645    1     DCL 1 QI$VARIABLE_STRING_AUX CALIGNED BASED,
             13646    1           2 TEXT CHAR(QI_1.OP.LEN.AUX) UNAL;
             13662            %ENDIF;
       86    13665
       87    13666        /*
       88    13667           CONSTANT QI@CIP_OPERATION and QI_CIP_DESCRIPTOR stuff.
       89    13668        */
       90    13669          %QI_GENERAL_CIPS ( STCLASS = "CONSTANT SYMDEF" );
             13670            %BEGIN_MACRO ( STCLASS = STCLASS );
             13671            %SET LISTDIR = '0'B;
             13684            /* QI@CIP_OPERATION stuff.... */
             13721    1     DCL 1 QI_ALR CONSTANT SYMDEF DALIGNED,
             13725    1           2 CIP,
             13795    1               3 S DALIGNED,           /* CIP descriptor */
             13798    1                 4 CA,                  /* Control bits for ALPHANUMERIC */
             13799    1                   5 OFFSET UBIN(1) UNAL INIT(0)/**/,
             13800    1                   5 FILL UBIN(1) UNAL INIT(1)/**/,
             13801    1                   5 MBZ UBIN(1) UNAL INIT(0)/**/,
             13802    1                 4 CB REDEF CA,         /* Control bits for BINARY */
             13803    1                   5 OFFSET UBIN(1) UNAL,
             13804    1                   5 MBZ UBIN(2) UNAL,  /* not used:  MBZ */
             13805    1                 4 CD REDEF CA,         /* Control bits for DISPLAY */
             13806    1                   5 OFFSET UBIN(1) UNAL,
             13807    1                   5 SIGN UBIN(2) UNAL,
             13808    1                 4 CP REDEF CA,         /* Control bits for PACKED */
             13809    1                   5 OFFSET UBIN(2) UNAL,
             13810    1                   5 SIGN UBIN(1) UNAL,
             13854    1                 4 LEN UBIN(5) UNAL INIT(0)/**/,
             13858    1                 4 T UBIN(1) UNAL INIT(0)/**/,
             13860    1                 4 AS UBIN(7) UNAL INIT(BITBIN('B'X))/**/,
             13865    1                 4 DISP UBIN INIT(6)/**/,
             13866    1               3 S_A (0:1) REDEF S UBIN ,
PL6.E3A0      #001=QI_DATA_D File=QI_DATA_D.:E05TSI                              WED 07/30/97 05:20 Page:526
             13943    1               3 T DALIGNED,           /* CIP descriptor */
             13946    1                 4 CA,                  /* Control bits for ALPHANUMERIC */
             13947    1                   5 OFFSET UBIN(1) UNAL INIT(0)/**/,
             13948    1                   5 FILL UBIN(1) UNAL INIT(1)/**/,
             13949    1                   5 MBZ UBIN(1) UNAL INIT(0)/**/,
             13950    1                 4 CB REDEF CA,         /* Control bits for BINARY */
             13951    1                   5 OFFSET UBIN(1) UNAL,
             13952    1                   5 MBZ UBIN(2) UNAL,  /* not used:  MBZ */
             13953    1                 4 CD REDEF CA,         /* Control bits for DISPLAY */
             13954    1                   5 OFFSET UBIN(1) UNAL,
             13955    1                   5 SIGN UBIN(2) UNAL,
             13956    1                 4 CP REDEF CA,         /* Control bits for PACKED */
             13957    1                   5 OFFSET UBIN(2) UNAL,
             13958    1                   5 SIGN UBIN(1) UNAL,
             14002    1                 4 LEN UBIN(5) UNAL INIT(0)/**/,
             14006    1                 4 T UBIN(1) UNAL INIT(0)/**/,
             14008    1                 4 AS UBIN(7) UNAL INIT(BITBIN('B'X))/**/,
             14013    1                 4 DISP UBIN INIT(8)/**/,
             14014    1               3 T_A (0:1) REDEF T UBIN ,
             14091    1               3 AUX DALIGNED,           /* CIP descriptor */
             14094    1                 4 CA,                  /* Control bits for ALPHANUMERIC */
             14095    1                   5 OFFSET UBIN(1) UNAL INIT(0)/**/,
             14096    1                   5 FILL UBIN(1) UNAL INIT(1)/**/,
             14097    1                   5 MBZ UBIN(1) UNAL INIT(0)/**/,
             14098    1                 4 CB REDEF CA,         /* Control bits for BINARY */
             14099    1                   5 OFFSET UBIN(1) UNAL,
             14100    1                   5 MBZ UBIN(2) UNAL,  /* not used:  MBZ */
             14101    1                 4 CD REDEF CA,         /* Control bits for DISPLAY */
             14102    1                   5 OFFSET UBIN(1) UNAL,
             14103    1                   5 SIGN UBIN(2) UNAL,
             14104    1                 4 CP REDEF CA,         /* Control bits for PACKED */
             14105    1                   5 OFFSET UBIN(2) UNAL,
             14106    1                   5 SIGN UBIN(1) UNAL,
             14150    1                 4 LEN UBIN(5) UNAL INIT(0)/**/,
             14154    1                 4 T UBIN(1) UNAL INIT(0)/**/,
             14156    1                 4 AS UBIN(7) UNAL INIT(BITBIN('B'X))/**/,
             14161    1                 4 DISP UBIN INIT(10)/**/,
PL6.E3A0      #001=QI_DATA_D File=QI_DATA_D.:E05TSI                              WED 07/30/97 05:20 Page:527
             14162    1               3 AUX_A (0:1) REDEF AUX UBIN ,
             14176    1           2 CIP_A (0:2) REDEF CIP UBIN(32),
             14183    1           2 DATA DALIGNED,
             14184    1             3 S$ PTR INIT(ADDR(NIL))/**/,
             14185    1             3 T$ PTR INIT(ADDR(NIL))/**/,
             14186    1             3 AUX$ PTR INIT(ADDR(NIL))/**/,
             14187    1           2 DATA_A$ (0:2) REDEF DATA PTR,
             14223    1           2 LEN,
             14224    1             3 S UBIN INIT(1)/**/,
             14225    1             3 T UBIN INIT(0)/**/,
             14226    1             3 AUX UBIN INIT(0)/**/,
             14227    1           2 LEN_A (0:2) REDEF LEN UBIN,
             14228    1           2 SRCH_VRFY_ARGS REDEF LEN,
             14229    1             3 LEN UBIN,
             14230    1             3 LIST_LEN UBIN,
             14231    1             3 * UBIN,
             14232    1           2 SRCH_VRFY_ARGS_A (0:2) REDEF LEN UBIN,
             14233    1           2 SHIFT_COUNT REDEF LEN,
             14234    1             3 S UBIN,
             14235    1             3 T UBIN,
             14236    1             3 AUX UBIN,
             14237    1           2 SHIFT_COUNT_A (0:2) REDEF LEN UBIN,
             14240    1           2 INX,
             14241    1             3 S UBIN INIT(0)/**/,
             14242    1             3 T UBIN INIT(0)/**/,
             14243    1             3 AUX UBIN INIT(0)/**/,
             14244    1           2 INX_A (0:2) REDEF INX UBIN,
             14245    1           2 DEC REDEF INX,
             14246    1             3 S SBIN,
             14247    1             3 T SBIN,
             14248    1             3 AUX SBIN,
             14249    1           2 DEC_A (0:2) REDEF INX SBIN,
             14262    1           2 SRCH_VRFY_ELEMS,
             14263    1             3 LEN UBIN INIT(0)/**/,
             14264    1             3 LIST_LEN UBIN INIT(0)/**/,
             14265    1           2 SRCH_VRFY_ELEMS_A (0:1) REDEF SRCH_VRFY_ELEMS UBIN,
             14293    1           2 PICTURE_STRING,
PL6.E3A0      #001=QI_DATA_D File=QI_DATA_D.:E05TSI                              WED 07/30/97 05:20 Page:528
             14294    1             3 INTERMEDIATE_RESULT_LEN UBIN INIT(0)/**/,
             14295    1             3 DEC UBIN INIT(0)/**/,
             14296    1           2 PICTURE_STRING_A (0:1) REDEF PICTURE_STRING UBIN,
             14297    1           2 SRCH_RESULT REDEF PICTURE_STRING,
             14298    1             3 ARG_NUMBER UBIN,
             14299    1             3 DISP UBIN,
             14300    1           2 SRCH_RESULT_A (0:1) REDEF PICTURE_STRING UBIN,
             14301    1           2 VRFY_RESULT REDEF PICTURE_STRING,
             14302    1             3 DISP UBIN,
             14303    1             3 * UBIN,
             14304    1           2 VRFY_RESULT_A (0:1) REDEF PICTURE_STRING UBIN,
             14307    1           2 FILL_CHAR,
             14308    1             3 TEXT UBIN BYTE UNAL INIT(32)/**/,
             14309    1             3 * UBIN BYTE UNAL INIT(0)/**/,
             14310    1           2 SIZE_ERROR REDEF FILL_CHAR UBIN,
             14326    1           2 ROUND UBIN INIT(0)/**/,
             14327    1           2 COMP_RESULT REDEF ROUND UBIN,
             14328    1           2 TARGET_SIZE REDEF ROUND UBIN ;
             14386    1     DCL 1 QI_TYPE_DISPLAY_SOURCE CONSTANT SYMDEF DALIGNED,
             14390    1           2 CIP,
             14460    1               3 S DALIGNED,           /* CIP descriptor */
             14505    1                 4 CD,                  /* Control bits for DISPLAY */
             14506    1                   5 OFFSET UBIN(1) UNAL INIT(0)/**/,
             14507    1                   5 SIGN UBIN(2) UNAL INIT(0)/**/,
             14508    1                 4 CA REDEF CD,         /* Control bits for ALPHANUMERIC */
             14509    1                   5 OFFSET UBIN(1) UNAL,
             14510    1                   5 FILL UBIN(1) UNAL,
             14511    1                   5 MBZ UBIN(1) UNAL,  /* not used:  MBZ */
             14512    1                 4 CB REDEF CD,         /* Control bits for BINARY */
             14513    1                   5 OFFSET UBIN(1) UNAL,
             14514    1                   5 MBZ UBIN(2) UNAL,  /* not used:  MBZ */
             14515    1                 4 CP REDEF CD,         /* Control bits for PACKED */
             14516    1                   5 OFFSET UBIN(2) UNAL,
             14517    1                   5 SIGN UBIN(1) UNAL,
             14519    1                 4 LEN UBIN(5) UNAL INIT(15 /* %QI#MAX_DISPLAY */)/**/,
             14523    1                 4 T UBIN(1) UNAL INIT(0)/**/,
             14525    1                 4 AS UBIN(7) UNAL INIT(BITBIN('B'X))/**/,
PL6.E3A0      #001=QI_DATA_D File=QI_DATA_D.:E05TSI                              WED 07/30/97 05:20 Page:529
             14530    1                 4 DISP UBIN INIT(6)/**/,
             14531    1               3 S_A (0:1) REDEF S UBIN ,
             14608    1               3 T DALIGNED,           /* CIP descriptor */
             14611    1                 4 CA,                  /* Control bits for ALPHANUMERIC */
             14612    1                   5 OFFSET UBIN(1) UNAL INIT(0)/**/,
             14613    1                   5 FILL UBIN(1) UNAL INIT(1)/**/,
             14614    1                   5 MBZ UBIN(1) UNAL INIT(0)/**/,
             14615    1                 4 CB REDEF CA,         /* Control bits for BINARY */
             14616    1                   5 OFFSET UBIN(1) UNAL,
             14617    1                   5 MBZ UBIN(2) UNAL,  /* not used:  MBZ */
             14618    1                 4 CD REDEF CA,         /* Control bits for DISPLAY */
             14619    1                   5 OFFSET UBIN(1) UNAL,
             14620    1                   5 SIGN UBIN(2) UNAL,
             14621    1                 4 CP REDEF CA,         /* Control bits for PACKED */
             14622    1                   5 OFFSET UBIN(2) UNAL,
             14623    1                   5 SIGN UBIN(1) UNAL,
             14667    1                 4 LEN UBIN(5) UNAL INIT(0)/**/,
             14671    1                 4 T UBIN(1) UNAL INIT(0)/**/,
             14673    1                 4 AS UBIN(7) UNAL INIT(BITBIN('B'X))/**/,
             14678    1                 4 DISP UBIN INIT(8)/**/,
             14679    1               3 T_A (0:1) REDEF T UBIN ,
             14756    1               3 AUX DALIGNED,           /* CIP descriptor */
             14759    1                 4 CA,                  /* Control bits for ALPHANUMERIC */
             14760    1                   5 OFFSET UBIN(1) UNAL INIT(0)/**/,
             14761    1                   5 FILL UBIN(1) UNAL INIT(1)/**/,
             14762    1                   5 MBZ UBIN(1) UNAL INIT(0)/**/,
             14763    1                 4 CB REDEF CA,         /* Control bits for BINARY */
             14764    1                   5 OFFSET UBIN(1) UNAL,
             14765    1                   5 MBZ UBIN(2) UNAL,  /* not used:  MBZ */
             14766    1                 4 CD REDEF CA,         /* Control bits for DISPLAY */
             14767    1                   5 OFFSET UBIN(1) UNAL,
             14768    1                   5 SIGN UBIN(2) UNAL,
             14769    1                 4 CP REDEF CA,         /* Control bits for PACKED */
             14770    1                   5 OFFSET UBIN(2) UNAL,
             14771    1                   5 SIGN UBIN(1) UNAL,
             14815    1                 4 LEN UBIN(5) UNAL INIT(0)/**/,
             14819    1                 4 T UBIN(1) UNAL INIT(0)/**/,
PL6.E3A0      #001=QI_DATA_D File=QI_DATA_D.:E05TSI                              WED 07/30/97 05:20 Page:530
             14821    1                 4 AS UBIN(7) UNAL INIT(BITBIN('B'X))/**/,
             14826    1                 4 DISP UBIN INIT(10)/**/,
             14827    1               3 AUX_A (0:1) REDEF AUX UBIN ,
             14841    1           2 CIP_A (0:2) REDEF CIP UBIN(32),
             14848    1           2 DATA DALIGNED,
             14849    1             3 S$ PTR INIT(ADDR(NIL))/**/,
             14850    1             3 T$ PTR INIT(ADDR(NIL))/**/,
             14851    1             3 AUX$ PTR INIT(ADDR(NIL))/**/,
             14852    1           2 DATA_A$ (0:2) REDEF DATA PTR,
             14888    1           2 LEN,
             14889    1             3 S UBIN INIT(0)/**/,
             14890    1             3 T UBIN INIT(0)/**/,
             14891    1             3 AUX UBIN INIT(0)/**/,
             14892    1           2 LEN_A (0:2) REDEF LEN UBIN,
             14893    1           2 SRCH_VRFY_ARGS REDEF LEN,
             14894    1             3 LEN UBIN,
             14895    1             3 LIST_LEN UBIN,
             14896    1             3 * UBIN,
             14897    1           2 SRCH_VRFY_ARGS_A (0:2) REDEF LEN UBIN,
             14898    1           2 SHIFT_COUNT REDEF LEN,
             14899    1             3 S UBIN,
             14900    1             3 T UBIN,
             14901    1             3 AUX UBIN,
             14902    1           2 SHIFT_COUNT_A (0:2) REDEF LEN UBIN,
             14916    1           2 DEC,
             14917    1             3 S SBIN INIT(0)/**/,
             14918    1             3 T SBIN INIT(0)/**/,
             14919    1             3 AUX SBIN INIT(0)/**/,
             14920    1           2 DEC_A (0:2) REDEF DEC SBIN,
             14921    1           2 INX REDEF DEC,
             14922    1             3 S UBIN,
             14923    1             3 T UBIN,
             14924    1             3 AUX UBIN,
             14925    1           2 INX_A (0:2) REDEF DEC UBIN,
             14927    1           2 SRCH_VRFY_ELEMS,
             14928    1             3 LEN UBIN INIT(0)/**/,
             14929    1             3 LIST_LEN UBIN INIT(0)/**/,
PL6.E3A0      #001=QI_DATA_D File=QI_DATA_D.:E05TSI                              WED 07/30/97 05:20 Page:531
             14930    1           2 SRCH_VRFY_ELEMS_A (0:1) REDEF SRCH_VRFY_ELEMS UBIN,
             14958    1           2 PICTURE_STRING,
             14959    1             3 INTERMEDIATE_RESULT_LEN UBIN INIT(0)/**/,
             14960    1             3 DEC UBIN INIT(0)/**/,
             14961    1           2 PICTURE_STRING_A (0:1) REDEF PICTURE_STRING UBIN,
             14962    1           2 SRCH_RESULT REDEF PICTURE_STRING,
             14963    1             3 ARG_NUMBER UBIN,
             14964    1             3 DISP UBIN,
             14965    1           2 SRCH_RESULT_A (0:1) REDEF PICTURE_STRING UBIN,
             14966    1           2 VRFY_RESULT REDEF PICTURE_STRING,
             14967    1             3 DISP UBIN,
             14968    1             3 * UBIN,
             14969    1           2 VRFY_RESULT_A (0:1) REDEF PICTURE_STRING UBIN,
             14977    1           2 SIZE_ERROR UBIN INIT(0)/**/,
             14978    1           2 FILL_CHAR REDEF SIZE_ERROR,
             14979    1             3 TEXT UBIN BYTE UNAL,
             14980    1             3 * UBIN BYTE UNAL,
             14991    1           2 ROUND UBIN INIT(0)/**/,
             14992    1           2 COMP_RESULT REDEF ROUND UBIN,
             14993    1           2 TARGET_SIZE REDEF ROUND UBIN ;
             15052    1     DCL 1 QI_TYPE_DISPLAY_TARGET CONSTANT SYMDEF DALIGNED,
             15056    1           2 CIP,
             15126    1               3 S DALIGNED,           /* CIP descriptor */
             15129    1                 4 CA,                  /* Control bits for ALPHANUMERIC */
             15130    1                   5 OFFSET UBIN(1) UNAL INIT(0)/**/,
             15131    1                   5 FILL UBIN(1) UNAL INIT(1)/**/,
             15132    1                   5 MBZ UBIN(1) UNAL INIT(0)/**/,
             15133    1                 4 CB REDEF CA,         /* Control bits for BINARY */
             15134    1                   5 OFFSET UBIN(1) UNAL,
             15135    1                   5 MBZ UBIN(2) UNAL,  /* not used:  MBZ */
             15136    1                 4 CD REDEF CA,         /* Control bits for DISPLAY */
             15137    1                   5 OFFSET UBIN(1) UNAL,
             15138    1                   5 SIGN UBIN(2) UNAL,
             15139    1                 4 CP REDEF CA,         /* Control bits for PACKED */
             15140    1                   5 OFFSET UBIN(2) UNAL,
             15141    1                   5 SIGN UBIN(1) UNAL,
             15185    1                 4 LEN UBIN(5) UNAL INIT(0)/**/,
PL6.E3A0      #001=QI_DATA_D File=QI_DATA_D.:E05TSI                              WED 07/30/97 05:20 Page:532
             15189    1                 4 T UBIN(1) UNAL INIT(0)/**/,
             15191    1                 4 AS UBIN(7) UNAL INIT(BITBIN('B'X))/**/,
             15196    1                 4 DISP UBIN INIT(6)/**/,
             15197    1               3 S_A (0:1) REDEF S UBIN ,
             15274    1               3 T DALIGNED,           /* CIP descriptor */
             15319    1                 4 CD,                  /* Control bits for DISPLAY */
             15320    1                   5 OFFSET UBIN(1) UNAL INIT(0)/**/,
             15321    1                   5 SIGN UBIN(2) UNAL INIT(0)/**/,
             15322    1                 4 CA REDEF CD,         /* Control bits for ALPHANUMERIC */
             15323    1                   5 OFFSET UBIN(1) UNAL,
             15324    1                   5 FILL UBIN(1) UNAL,
             15325    1                   5 MBZ UBIN(1) UNAL,  /* not used:  MBZ */
             15326    1                 4 CB REDEF CD,         /* Control bits for BINARY */
             15327    1                   5 OFFSET UBIN(1) UNAL,
             15328    1                   5 MBZ UBIN(2) UNAL,  /* not used:  MBZ */
             15329    1                 4 CP REDEF CD,         /* Control bits for PACKED */
             15330    1                   5 OFFSET UBIN(2) UNAL,
             15331    1                   5 SIGN UBIN(1) UNAL,
             15333    1                 4 LEN UBIN(5) UNAL INIT(15 /* %QI#MAX_DISPLAY */)/**/,
             15337    1                 4 T UBIN(1) UNAL INIT(0)/**/,
             15339    1                 4 AS UBIN(7) UNAL INIT(BITBIN('B'X))/**/,
             15344    1                 4 DISP UBIN INIT(8)/**/,
             15345    1               3 T_A (0:1) REDEF T UBIN ,
             15422    1               3 AUX DALIGNED,           /* CIP descriptor */
             15425    1                 4 CA,                  /* Control bits for ALPHANUMERIC */
             15426    1                   5 OFFSET UBIN(1) UNAL INIT(0)/**/,
             15427    1                   5 FILL UBIN(1) UNAL INIT(1)/**/,
             15428    1                   5 MBZ UBIN(1) UNAL INIT(0)/**/,
             15429    1                 4 CB REDEF CA,         /* Control bits for BINARY */
             15430    1                   5 OFFSET UBIN(1) UNAL,
             15431    1                   5 MBZ UBIN(2) UNAL,  /* not used:  MBZ */
             15432    1                 4 CD REDEF CA,         /* Control bits for DISPLAY */
             15433    1                   5 OFFSET UBIN(1) UNAL,
             15434    1                   5 SIGN UBIN(2) UNAL,
             15435    1                 4 CP REDEF CA,         /* Control bits for PACKED */
             15436    1                   5 OFFSET UBIN(2) UNAL,
             15437    1                   5 SIGN UBIN(1) UNAL,
PL6.E3A0      #001=QI_DATA_D File=QI_DATA_D.:E05TSI                              WED 07/30/97 05:20 Page:533
             15481    1                 4 LEN UBIN(5) UNAL INIT(0)/**/,
             15485    1                 4 T UBIN(1) UNAL INIT(0)/**/,
             15487    1                 4 AS UBIN(7) UNAL INIT(BITBIN('B'X))/**/,
             15492    1                 4 DISP UBIN INIT(10)/**/,
             15493    1               3 AUX_A (0:1) REDEF AUX UBIN ,
             15507    1           2 CIP_A (0:2) REDEF CIP UBIN(32),
             15514    1           2 DATA DALIGNED,
             15515    1             3 S$ PTR INIT(ADDR(NIL))/**/,
             15516    1             3 T$ PTR INIT(ADDR(NIL))/**/,
             15517    1             3 AUX$ PTR INIT(ADDR(NIL))/**/,
             15518    1           2 DATA_A$ (0:2) REDEF DATA PTR,
             15554    1           2 LEN,
             15555    1             3 S UBIN INIT(0)/**/,
             15556    1             3 T UBIN INIT(0)/**/,
             15557    1             3 AUX UBIN INIT(0)/**/,
             15558    1           2 LEN_A (0:2) REDEF LEN UBIN,
             15559    1           2 SRCH_VRFY_ARGS REDEF LEN,
             15560    1             3 LEN UBIN,
             15561    1             3 LIST_LEN UBIN,
             15562    1             3 * UBIN,
             15563    1           2 SRCH_VRFY_ARGS_A (0:2) REDEF LEN UBIN,
             15564    1           2 SHIFT_COUNT REDEF LEN,
             15565    1             3 S UBIN,
             15566    1             3 T UBIN,
             15567    1             3 AUX UBIN,
             15568    1           2 SHIFT_COUNT_A (0:2) REDEF LEN UBIN,
             15582    1           2 DEC,
             15583    1             3 S SBIN INIT(0)/**/,
             15584    1             3 T SBIN INIT(0)/**/,
             15585    1             3 AUX SBIN INIT(0)/**/,
             15586    1           2 DEC_A (0:2) REDEF DEC SBIN,
             15587    1           2 INX REDEF DEC,
             15588    1             3 S UBIN,
             15589    1             3 T UBIN,
             15590    1             3 AUX UBIN,
             15591    1           2 INX_A (0:2) REDEF DEC UBIN,
             15593    1           2 SRCH_VRFY_ELEMS,
PL6.E3A0      #001=QI_DATA_D File=QI_DATA_D.:E05TSI                              WED 07/30/97 05:20 Page:534
             15594    1             3 LEN UBIN INIT(0)/**/,
             15595    1             3 LIST_LEN UBIN INIT(0)/**/,
             15596    1           2 SRCH_VRFY_ELEMS_A (0:1) REDEF SRCH_VRFY_ELEMS UBIN,
             15624    1           2 PICTURE_STRING,
             15625    1             3 INTERMEDIATE_RESULT_LEN UBIN INIT(0)/**/,
             15626    1             3 DEC UBIN INIT(0)/**/,
             15627    1           2 PICTURE_STRING_A (0:1) REDEF PICTURE_STRING UBIN,
             15628    1           2 SRCH_RESULT REDEF PICTURE_STRING,
             15629    1             3 ARG_NUMBER UBIN,
             15630    1             3 DISP UBIN,
             15631    1           2 SRCH_RESULT_A (0:1) REDEF PICTURE_STRING UBIN,
             15632    1           2 VRFY_RESULT REDEF PICTURE_STRING,
             15633    1             3 DISP UBIN,
             15634    1             3 * UBIN,
             15635    1           2 VRFY_RESULT_A (0:1) REDEF PICTURE_STRING UBIN,
             15643    1           2 SIZE_ERROR UBIN INIT(0)/**/,
             15644    1           2 FILL_CHAR REDEF SIZE_ERROR,
             15645    1             3 TEXT UBIN BYTE UNAL,
             15646    1             3 * UBIN BYTE UNAL,
             15657    1           2 ROUND UBIN INIT(0)/**/,
             15658    1           2 COMP_RESULT REDEF ROUND UBIN,
             15659    1           2 TARGET_SIZE REDEF ROUND UBIN ;
             15718    1     DCL 1 QI_TYPE_BINARY_TARGET CONSTANT SYMDEF DALIGNED,
             15722    1           2 CIP,
             15792    1               3 S DALIGNED,           /* CIP descriptor */
             15795    1                 4 CA,                  /* Control bits for ALPHANUMERIC */
             15796    1                   5 OFFSET UBIN(1) UNAL INIT(0)/**/,
             15797    1                   5 FILL UBIN(1) UNAL INIT(1)/**/,
             15798    1                   5 MBZ UBIN(1) UNAL INIT(0)/**/,
             15799    1                 4 CB REDEF CA,         /* Control bits for BINARY */
             15800    1                   5 OFFSET UBIN(1) UNAL,
             15801    1                   5 MBZ UBIN(2) UNAL,  /* not used:  MBZ */
             15802    1                 4 CD REDEF CA,         /* Control bits for DISPLAY */
             15803    1                   5 OFFSET UBIN(1) UNAL,
             15804    1                   5 SIGN UBIN(2) UNAL,
             15805    1                 4 CP REDEF CA,         /* Control bits for PACKED */
             15806    1                   5 OFFSET UBIN(2) UNAL,
PL6.E3A0      #001=QI_DATA_D File=QI_DATA_D.:E05TSI                              WED 07/30/97 05:20 Page:535
             15807    1                   5 SIGN UBIN(1) UNAL,
             15851    1                 4 LEN UBIN(5) UNAL INIT(0)/**/,
             15855    1                 4 T UBIN(1) UNAL INIT(0)/**/,
             15857    1                 4 AS UBIN(7) UNAL INIT(BITBIN('B'X))/**/,
             15862    1                 4 DISP UBIN INIT(6)/**/,
             15863    1               3 S_A (0:1) REDEF S UBIN ,
             15940    1               3 T DALIGNED,           /* CIP descriptor */
             15957    1                 4 CB,                  /* Control bits for BINARY */
             15958    1                   5 OFFSET UBIN(1) UNAL INIT(0)/**/,
             15959    1                   5 MBZ UBIN(2) UNAL INIT(0)/**/,
             15960    1                 4 CA REDEF CB,         /* Control bits for ALPHANUMERIC */
             15961    1                   5 OFFSET UBIN(1) UNAL,
             15962    1                   5 FILL UBIN(1) UNAL,
             15963    1                   5 MBZ UBIN(1) UNAL,  /* not used:  MBZ */
             15964    1                 4 CD REDEF CB,         /* Control bits for DISPLAY */
             15965    1                   5 OFFSET UBIN(1) UNAL,
             15966    1                   5 SIGN UBIN(2) UNAL,
             15967    1                 4 CP REDEF CB,         /* Control bits for PACKED */
             15968    1                   5 OFFSET UBIN(2) UNAL,
             15969    1                   5 SIGN UBIN(1) UNAL,
             15999    1                 4 LEN UBIN(5) UNAL INIT(2 /* %QI#MIN_BINARY_LENGTH */)/**/,
             16003    1                 4 T UBIN(1) UNAL INIT(0)/**/,
             16005    1                 4 AS UBIN(7) UNAL INIT(BITBIN('B'X))/**/,
             16010    1                 4 DISP UBIN INIT(8)/**/,
             16011    1               3 T_A (0:1) REDEF T UBIN ,
             16088    1               3 AUX DALIGNED,           /* CIP descriptor */
             16091    1                 4 CA,                  /* Control bits for ALPHANUMERIC */
             16092    1                   5 OFFSET UBIN(1) UNAL INIT(0)/**/,
             16093    1                   5 FILL UBIN(1) UNAL INIT(1)/**/,
             16094    1                   5 MBZ UBIN(1) UNAL INIT(0)/**/,
             16095    1                 4 CB REDEF CA,         /* Control bits for BINARY */
             16096    1                   5 OFFSET UBIN(1) UNAL,
             16097    1                   5 MBZ UBIN(2) UNAL,  /* not used:  MBZ */
             16098    1                 4 CD REDEF CA,         /* Control bits for DISPLAY */
             16099    1                   5 OFFSET UBIN(1) UNAL,
             16100    1                   5 SIGN UBIN(2) UNAL,
             16101    1                 4 CP REDEF CA,         /* Control bits for PACKED */
PL6.E3A0      #001=QI_DATA_D File=QI_DATA_D.:E05TSI                              WED 07/30/97 05:20 Page:536
             16102    1                   5 OFFSET UBIN(2) UNAL,
             16103    1                   5 SIGN UBIN(1) UNAL,
             16147    1                 4 LEN UBIN(5) UNAL INIT(0)/**/,
             16151    1                 4 T UBIN(1) UNAL INIT(0)/**/,
             16153    1                 4 AS UBIN(7) UNAL INIT(BITBIN('B'X))/**/,
             16158    1                 4 DISP UBIN INIT(10)/**/,
             16159    1               3 AUX_A (0:1) REDEF AUX UBIN ,
             16173    1           2 CIP_A (0:2) REDEF CIP UBIN(32),
             16180    1           2 DATA DALIGNED,
             16181    1             3 S$ PTR INIT(ADDR(NIL))/**/,
             16182    1             3 T$ PTR INIT(ADDR(NIL))/**/,
             16183    1             3 AUX$ PTR INIT(ADDR(NIL))/**/,
             16184    1           2 DATA_A$ (0:2) REDEF DATA PTR,
             16220    1           2 LEN,
             16221    1             3 S UBIN INIT(0)/**/,
             16222    1             3 T UBIN INIT(0)/**/,
             16223    1             3 AUX UBIN INIT(0)/**/,
             16224    1           2 LEN_A (0:2) REDEF LEN UBIN,
             16225    1           2 SRCH_VRFY_ARGS REDEF LEN,
             16226    1             3 LEN UBIN,
             16227    1             3 LIST_LEN UBIN,
             16228    1             3 * UBIN,
             16229    1           2 SRCH_VRFY_ARGS_A (0:2) REDEF LEN UBIN,
             16230    1           2 SHIFT_COUNT REDEF LEN,
             16231    1             3 S UBIN,
             16232    1             3 T UBIN,
             16233    1             3 AUX UBIN,
             16234    1           2 SHIFT_COUNT_A (0:2) REDEF LEN UBIN,
             16248    1           2 DEC,
             16249    1             3 S SBIN INIT(0)/**/,
             16250    1             3 T SBIN INIT(0)/**/,
             16251    1             3 AUX SBIN INIT(0)/**/,
             16252    1           2 DEC_A (0:2) REDEF DEC SBIN,
             16253    1           2 INX REDEF DEC,
             16254    1             3 S UBIN,
             16255    1             3 T UBIN,
             16256    1             3 AUX UBIN,
PL6.E3A0      #001=QI_DATA_D File=QI_DATA_D.:E05TSI                              WED 07/30/97 05:20 Page:537
             16257    1           2 INX_A (0:2) REDEF DEC UBIN,
             16259    1           2 SRCH_VRFY_ELEMS,
             16260    1             3 LEN UBIN INIT(0)/**/,
             16261    1             3 LIST_LEN UBIN INIT(0)/**/,
             16262    1           2 SRCH_VRFY_ELEMS_A (0:1) REDEF SRCH_VRFY_ELEMS UBIN,
             16290    1           2 PICTURE_STRING,
             16291    1             3 INTERMEDIATE_RESULT_LEN UBIN INIT(0)/**/,
             16292    1             3 DEC UBIN INIT(0)/**/,
             16293    1           2 PICTURE_STRING_A (0:1) REDEF PICTURE_STRING UBIN,
             16294    1           2 SRCH_RESULT REDEF PICTURE_STRING,
             16295    1             3 ARG_NUMBER UBIN,
             16296    1             3 DISP UBIN,
             16297    1           2 SRCH_RESULT_A (0:1) REDEF PICTURE_STRING UBIN,
             16298    1           2 VRFY_RESULT REDEF PICTURE_STRING,
             16299    1             3 DISP UBIN,
             16300    1             3 * UBIN,
             16301    1           2 VRFY_RESULT_A (0:1) REDEF PICTURE_STRING UBIN,
             16309    1           2 SIZE_ERROR UBIN INIT(0)/**/,
             16310    1           2 FILL_CHAR REDEF SIZE_ERROR,
             16311    1             3 TEXT UBIN BYTE UNAL,
             16312    1             3 * UBIN BYTE UNAL,
             16323    1           2 ROUND UBIN INIT(0)/**/,
             16324    1           2 COMP_RESULT REDEF ROUND UBIN,
             16325    1           2 TARGET_SIZE REDEF ROUND UBIN ;
             16391    1     DCL 1 QI_SRCH_VRFY CONSTANT SYMDEF DALIGNED,
             16395    1           2 CIP,
             16465    1               3 S DALIGNED,           /* CIP descriptor */
             16468    1                 4 CA,                  /* Control bits for ALPHANUMERIC */
             16469    1                   5 OFFSET UBIN(1) UNAL INIT(0)/**/,
             16470    1                   5 FILL UBIN(1) UNAL INIT(0)/**/,
             16471    1                   5 MBZ UBIN(1) UNAL INIT(0)/**/,
             16472    1                 4 CB REDEF CA,         /* Control bits for BINARY */
             16473    1                   5 OFFSET UBIN(1) UNAL,
             16474    1                   5 MBZ UBIN(2) UNAL,  /* not used:  MBZ */
             16475    1                 4 CD REDEF CA,         /* Control bits for DISPLAY */
             16476    1                   5 OFFSET UBIN(1) UNAL,
             16477    1                   5 SIGN UBIN(2) UNAL,
PL6.E3A0      #001=QI_DATA_D File=QI_DATA_D.:E05TSI                              WED 07/30/97 05:20 Page:538
             16478    1                 4 CP REDEF CA,         /* Control bits for PACKED */
             16479    1                   5 OFFSET UBIN(2) UNAL,
             16480    1                   5 SIGN UBIN(1) UNAL,
             16524    1                 4 LEN UBIN(5) UNAL INIT(0)/**/,
             16528    1                 4 T UBIN(1) UNAL INIT(0)/**/,
             16530    1                 4 AS UBIN(7) UNAL INIT(BITBIN('1B'X))/**/,
             16535    1                 4 DISP UBIN INIT(6)/**/,
             16536    1               3 S_A (0:1) REDEF S UBIN ,
             16613    1               3 T DALIGNED,           /* CIP descriptor */
             16616    1                 4 CA,                  /* Control bits for ALPHANUMERIC */
             16617    1                   5 OFFSET UBIN(1) UNAL INIT(0)/**/,
             16618    1                   5 FILL UBIN(1) UNAL INIT(0)/**/,
             16619    1                   5 MBZ UBIN(1) UNAL INIT(0)/**/,
             16620    1                 4 CB REDEF CA,         /* Control bits for BINARY */
             16621    1                   5 OFFSET UBIN(1) UNAL,
             16622    1                   5 MBZ UBIN(2) UNAL,  /* not used:  MBZ */
             16623    1                 4 CD REDEF CA,         /* Control bits for DISPLAY */
             16624    1                   5 OFFSET UBIN(1) UNAL,
             16625    1                   5 SIGN UBIN(2) UNAL,
             16626    1                 4 CP REDEF CA,         /* Control bits for PACKED */
             16627    1                   5 OFFSET UBIN(2) UNAL,
             16628    1                   5 SIGN UBIN(1) UNAL,
             16672    1                 4 LEN UBIN(5) UNAL INIT(4)/**/,
             16676    1                 4 T UBIN(1) UNAL INIT(0)/**/,
             16678    1                 4 AS UBIN(7) UNAL INIT(BITBIN('B'X))/**/,
             16683    1                 4 DISP UBIN INIT(8)/**/,
             16684    1               3 T_A (0:1) REDEF T UBIN ,
             16761    1               3 AUX DALIGNED,           /* CIP descriptor */
             16764    1                 4 CA,                  /* Control bits for ALPHANUMERIC */
             16765    1                   5 OFFSET UBIN(1) UNAL INIT(0)/**/,
             16766    1                   5 FILL UBIN(1) UNAL INIT(0)/**/,
             16767    1                   5 MBZ UBIN(1) UNAL INIT(0)/**/,
             16768    1                 4 CB REDEF CA,         /* Control bits for BINARY */
             16769    1                   5 OFFSET UBIN(1) UNAL,
             16770    1                   5 MBZ UBIN(2) UNAL,  /* not used:  MBZ */
             16771    1                 4 CD REDEF CA,         /* Control bits for DISPLAY */
             16772    1                   5 OFFSET UBIN(1) UNAL,
PL6.E3A0      #001=QI_DATA_D File=QI_DATA_D.:E05TSI                              WED 07/30/97 05:20 Page:539
             16773    1                   5 SIGN UBIN(2) UNAL,
             16774    1                 4 CP REDEF CA,         /* Control bits for PACKED */
             16775    1                   5 OFFSET UBIN(2) UNAL,
             16776    1                   5 SIGN UBIN(1) UNAL,
             16820    1                 4 LEN UBIN(5) UNAL INIT(0)/**/,
             16824    1                 4 T UBIN(1) UNAL INIT(0)/**/,
             16826    1                 4 AS UBIN(7) UNAL INIT(BITBIN('3B'X))/**/,
             16831    1                 4 DISP UBIN INIT(10)/**/,
             16832    1               3 AUX_A (0:1) REDEF AUX UBIN ,
             16846    1           2 CIP_A (0:2) REDEF CIP UBIN(32),
             16853    1           2 DATA DALIGNED,
             16854    1             3 S$ PTR INIT(ADDR(NIL))/**/,
             16855    1             3 T$ PTR INIT(ADDR(NIL))/**/,
             16856    1             3 AUX$ PTR INIT(ADDR(NIL))/**/,
             16857    1           2 DATA_A$ (0:2) REDEF DATA PTR,
             16861    1           2 SRCH_VRFY_ARGS,
             16862    1             3 LEN UBIN INIT(1)/**/,
             16863    1             3 LIST_LEN UBIN INIT(1)/**/,
             16864    1             3 * UBIN,
             16865    1           2 SRCH_VRFY_ARGS_A (0:2) REDEF SRCH_VRFY_ARGS UBIN,
             16866    1           2 SHIFT_COUNT REDEF SRCH_VRFY_ARGS,
             16867    1             3 S UBIN,
             16868    1             3 T UBIN,
             16869    1             3 AUX UBIN,
             16870    1           2 SHIFT_COUNT_A (0:2) REDEF SRCH_VRFY_ARGS UBIN,
             16871    1           2 LEN REDEF SRCH_VRFY_ARGS,
             16872    1             3 S UBIN,
             16873    1             3 T UBIN,
             16874    1             3 AUX UBIN,
             16875    1           2 LEN_A (0:2) REDEF SRCH_VRFY_ARGS UBIN,
             16921    1           2 DEC,
             16922    1             3 S SBIN INIT(0)/**/,
             16923    1             3 T SBIN INIT(0)/**/,
             16924    1             3 AUX SBIN INIT(0)/**/,
             16925    1           2 DEC_A (0:2) REDEF DEC SBIN,
             16926    1           2 INX REDEF DEC,
             16927    1             3 S UBIN,
PL6.E3A0      #001=QI_DATA_D File=QI_DATA_D.:E05TSI                              WED 07/30/97 05:20 Page:540
             16928    1             3 T UBIN,
             16929    1             3 AUX UBIN,
             16930    1           2 INX_A (0:2) REDEF DEC UBIN,
             16932    1           2 SRCH_VRFY_ELEMS,
             16933    1             3 LEN UBIN INIT(1)/**/,
             16934    1             3 LIST_LEN UBIN INIT(1)/**/,
             16935    1           2 SRCH_VRFY_ELEMS_A (0:1) REDEF SRCH_VRFY_ELEMS UBIN,
             16937    1           2 SRCH_RESULT,
             16938    1             3 ARG_NUMBER UBIN INIT(0)/**/,
             16939    1             3 DISP UBIN INIT(0)/**/,
             16940    1           2 SRCH_RESULT_A (0:1) REDEF SRCH_RESULT UBIN,
             16941    1           2 VRFY_RESULT REDEF SRCH_RESULT,
             16942    1             3 DISP UBIN,
             16943    1             3 * UBIN,
             16944    1           2 VRFY_RESULT_A (0:1) REDEF SRCH_RESULT UBIN,
             16945    1           2 PICTURE_STRING REDEF SRCH_RESULT,
             16946    1             3 INTERMEDIATE_RESULT_LEN UBIN,
             16947    1             3 DEC UBIN,
             16948    1           2 PICTURE_STRING_A (0:1) REDEF SRCH_RESULT UBIN,
             16977    1           2 FILL_CHAR,
             16978    1             3 TEXT UBIN BYTE UNAL INIT(32)/**/,
             16979    1             3 * UBIN BYTE UNAL INIT(0)/**/,
             16980    1           2 SIZE_ERROR REDEF FILL_CHAR UBIN,
             16996    1           2 ROUND UBIN INIT(0)/**/,
             16997    1           2 COMP_RESULT REDEF ROUND UBIN,
             16998    1           2 TARGET_SIZE REDEF ROUND UBIN ;
             17060    1     DCL 1 QI_MAT CONSTANT SYMDEF DALIGNED,
             17064    1           2 CIP,
             17134    1               3 S DALIGNED,           /* CIP descriptor */
             17137    1                 4 CA,                  /* Control bits for ALPHANUMERIC */
             17138    1                   5 OFFSET UBIN(1) UNAL INIT(0)/**/,
             17139    1                   5 FILL UBIN(1) UNAL INIT(0)/**/,
             17140    1                   5 MBZ UBIN(1) UNAL INIT(0)/**/,
             17141    1                 4 CB REDEF CA,         /* Control bits for BINARY */
             17142    1                   5 OFFSET UBIN(1) UNAL,
             17143    1                   5 MBZ UBIN(2) UNAL,  /* not used:  MBZ */
             17144    1                 4 CD REDEF CA,         /* Control bits for DISPLAY */
PL6.E3A0      #001=QI_DATA_D File=QI_DATA_D.:E05TSI                              WED 07/30/97 05:20 Page:541
             17145    1                   5 OFFSET UBIN(1) UNAL,
             17146    1                   5 SIGN UBIN(2) UNAL,
             17147    1                 4 CP REDEF CA,         /* Control bits for PACKED */
             17148    1                   5 OFFSET UBIN(2) UNAL,
             17149    1                   5 SIGN UBIN(1) UNAL,
             17193    1                 4 LEN UBIN(5) UNAL INIT(0)/**/,
             17197    1                 4 T UBIN(1) UNAL INIT(0)/**/,
             17199    1                 4 AS UBIN(7) UNAL INIT(BITBIN('1B'X))/**/,
             17204    1                 4 DISP UBIN INIT(6)/**/,
             17205    1               3 S_A (0:1) REDEF S UBIN ,
             17282    1               3 T DALIGNED,           /* CIP descriptor */
             17285    1                 4 CA,                  /* Control bits for ALPHANUMERIC */
             17286    1                   5 OFFSET UBIN(1) UNAL INIT(0)/**/,
             17287    1                   5 FILL UBIN(1) UNAL INIT(1)/**/,
             17288    1                   5 MBZ UBIN(1) UNAL INIT(0)/**/,
             17289    1                 4 CB REDEF CA,         /* Control bits for BINARY */
             17290    1                   5 OFFSET UBIN(1) UNAL,
             17291    1                   5 MBZ UBIN(2) UNAL,  /* not used:  MBZ */
             17292    1                 4 CD REDEF CA,         /* Control bits for DISPLAY */
             17293    1                   5 OFFSET UBIN(1) UNAL,
             17294    1                   5 SIGN UBIN(2) UNAL,
             17295    1                 4 CP REDEF CA,         /* Control bits for PACKED */
             17296    1                   5 OFFSET UBIN(2) UNAL,
             17297    1                   5 SIGN UBIN(1) UNAL,
             17341    1                 4 LEN UBIN(5) UNAL INIT(0)/**/,
             17345    1                 4 T UBIN(1) UNAL INIT(0)/**/,
             17347    1                 4 AS UBIN(7) UNAL INIT(BITBIN('2B'X))/**/,
             17352    1                 4 DISP UBIN INIT(8)/**/,
             17353    1               3 T_A (0:1) REDEF T UBIN ,
             17430    1               3 AUX DALIGNED,           /* CIP descriptor */
             17433    1                 4 CA,                  /* Control bits for ALPHANUMERIC */
             17434    1                   5 OFFSET UBIN(1) UNAL INIT(0)/**/,
             17435    1                   5 FILL UBIN(1) UNAL INIT(0)/**/,
             17436    1                   5 MBZ UBIN(1) UNAL INIT(0)/**/,
             17437    1                 4 CB REDEF CA,         /* Control bits for BINARY */
             17438    1                   5 OFFSET UBIN(1) UNAL,
             17439    1                   5 MBZ UBIN(2) UNAL,  /* not used:  MBZ */
PL6.E3A0      #001=QI_DATA_D File=QI_DATA_D.:E05TSI                              WED 07/30/97 05:20 Page:542
             17440    1                 4 CD REDEF CA,         /* Control bits for DISPLAY */
             17441    1                   5 OFFSET UBIN(1) UNAL,
             17442    1                   5 SIGN UBIN(2) UNAL,
             17443    1                 4 CP REDEF CA,         /* Control bits for PACKED */
             17444    1                   5 OFFSET UBIN(2) UNAL,
             17445    1                   5 SIGN UBIN(1) UNAL,
             17489    1                 4 LEN UBIN(5) UNAL INIT(0)/**/,
             17493    1                 4 T UBIN(1) UNAL INIT(0)/**/,
             17495    1                 4 AS UBIN(7) UNAL INIT(BITBIN('B'X))/**/,
             17500    1                 4 DISP UBIN INIT(10)/**/,
             17501    1               3 AUX_A (0:1) REDEF AUX UBIN ,
             17515    1           2 CIP_A (0:2) REDEF CIP UBIN(32),
             17522    1           2 DATA DALIGNED,
             17523    1             3 S$ PTR INIT(ADDR(NIL))/**/,
             17524    1             3 T$ PTR INIT(ADDR(NIL))/**/,
             17525    1             3 AUX$ PTR INIT(ADDR(NIL))/**/,
             17526    1           2 DATA_A$ (0:2) REDEF DATA PTR,
             17562    1           2 LEN,
             17563    1             3 S UBIN INIT(0)/**/,
             17564    1             3 T UBIN INIT(0)/**/,
             17565    1             3 AUX UBIN INIT(256)/**/,
             17566    1           2 LEN_A (0:2) REDEF LEN UBIN,
             17567    1           2 SRCH_VRFY_ARGS REDEF LEN,
             17568    1             3 LEN UBIN,
             17569    1             3 LIST_LEN UBIN,
             17570    1             3 * UBIN,
             17571    1           2 SRCH_VRFY_ARGS_A (0:2) REDEF LEN UBIN,
             17572    1           2 SHIFT_COUNT REDEF LEN,
             17573    1             3 S UBIN,
             17574    1             3 T UBIN,
             17575    1             3 AUX UBIN,
             17576    1           2 SHIFT_COUNT_A (0:2) REDEF LEN UBIN,
             17590    1           2 DEC,
             17591    1             3 S SBIN INIT(0)/**/,
             17592    1             3 T SBIN INIT(0)/**/,
             17593    1             3 AUX SBIN INIT(0)/**/,
             17594    1           2 DEC_A (0:2) REDEF DEC SBIN,
PL6.E3A0      #001=QI_DATA_D File=QI_DATA_D.:E05TSI                              WED 07/30/97 05:20 Page:543
             17595    1           2 INX REDEF DEC,
             17596    1             3 S UBIN,
             17597    1             3 T UBIN,
             17598    1             3 AUX UBIN,
             17599    1           2 INX_A (0:2) REDEF DEC UBIN,
             17601    1           2 SRCH_VRFY_ELEMS,
             17602    1             3 LEN UBIN INIT(0)/**/,
             17603    1             3 LIST_LEN UBIN INIT(0)/**/,
             17604    1           2 SRCH_VRFY_ELEMS_A (0:1) REDEF SRCH_VRFY_ELEMS UBIN,
             17632    1           2 PICTURE_STRING,
             17633    1             3 INTERMEDIATE_RESULT_LEN UBIN INIT(0)/**/,
             17634    1             3 DEC UBIN INIT(0)/**/,
             17635    1           2 PICTURE_STRING_A (0:1) REDEF PICTURE_STRING UBIN,
             17636    1           2 SRCH_RESULT REDEF PICTURE_STRING,
             17637    1             3 ARG_NUMBER UBIN,
             17638    1             3 DISP UBIN,
             17639    1           2 SRCH_RESULT_A (0:1) REDEF PICTURE_STRING UBIN,
             17640    1           2 VRFY_RESULT REDEF PICTURE_STRING,
             17641    1             3 DISP UBIN,
             17642    1             3 * UBIN,
             17643    1           2 VRFY_RESULT_A (0:1) REDEF PICTURE_STRING UBIN,
             17646    1           2 FILL_CHAR,
             17647    1             3 TEXT UBIN BYTE UNAL INIT(01 /* QI_MAT_MATCH */)/**/,
             17648    1             3 * UBIN BYTE UNAL INIT(0)/**/,
             17649    1           2 SIZE_ERROR REDEF FILL_CHAR UBIN,
             17665    1           2 ROUND UBIN INIT(0)/**/,
             17666    1           2 COMP_RESULT REDEF ROUND UBIN,
             17667    1           2 TARGET_SIZE REDEF ROUND UBIN ;
             17688            /* QI_CIP_DESCRIPTOR stuff.... */
             17760    1           DCL 1 QI_4_CHAR_ALPHANUMERIC CONSTANT SYMDEF DALIGNED, /* CIP descriptor */
             17765    1                 2 CA,                  /* Control bits for ALPHANUMERIC */
             17766    1                   3 OFFSET UBIN(1) UNAL INIT(0)/**/,
             17767    1                   3 FILL UBIN(1) UNAL INIT(1)/**/,
             17768    1                   3 MBZ UBIN(1) UNAL INIT(0)/**/,
             17769    1                 2 CB REDEF CA,         /* Control bits for BINARY */
             17770    1                   3 OFFSET UBIN(1) UNAL,
             17771    1                   3 MBZ UBIN(2) UNAL,  /* not used:  MBZ */
PL6.E3A0      #001=QI_DATA_D File=QI_DATA_D.:E05TSI                              WED 07/30/97 05:20 Page:544
             17772    1                 2 CD REDEF CA,         /* Control bits for DISPLAY */
             17773    1                   3 OFFSET UBIN(1) UNAL,
             17774    1                   3 SIGN UBIN(2) UNAL,
             17775    1                 2 CP REDEF CA,         /* Control bits for PACKED */
             17776    1                   3 OFFSET UBIN(2) UNAL,
             17777    1                   3 SIGN UBIN(1) UNAL,
             17821    1                 2 LEN UBIN(5) UNAL INIT(4)/**/,
             17825    1                 2 T UBIN(1) UNAL INIT(0)/**/,
             17827    1                 2 AS UBIN(7) UNAL INIT(BITBIN('B'X))/**/,
             17829    1                 2 DISP UBIN INIT(6)/**/;
             17830    1           DCL 1 QI_4_CHAR_ALPHANUMERIC_A (0:1) REDEF QI_4_CHAR_ALPHANUMERIC UBIN;
             17928    1          DCL 1 QI_31_DIGIT_SLS_DISPLAY CONSTANT SYMDEF DALIGNED, /* CIP descriptor */
             17975    1                 2 CD,                  /* Control bits for DISPLAY */
             17976    1                   3 OFFSET UBIN(1) UNAL INIT(0)/**/,
             17977    1                   3 SIGN UBIN(2) UNAL INIT(2)/**/,
             17978    1                 2 CA REDEF CD,         /* Control bits for ALPHANUMERIC */
             17979    1                   3 OFFSET UBIN(1) UNAL,
             17980    1                   3 FILL UBIN(1) UNAL,
             17981    1                   3 MBZ UBIN(1) UNAL,  /* not used:  MBZ */
             17982    1                 2 CB REDEF CD,         /* Control bits for BINARY */
             17983    1                   3 OFFSET UBIN(1) UNAL,
             17984    1                   3 MBZ UBIN(2) UNAL,  /* not used:  MBZ */
             17985    1                 2 CP REDEF CD,         /* Control bits for PACKED */
             17986    1                   3 OFFSET UBIN(2) UNAL,
             17987    1                   3 SIGN UBIN(1) UNAL,
             17989    1                 2 LEN UBIN(5) UNAL INIT(31)/**/,
             17993    1                 2 T UBIN(1) UNAL INIT(0)/**/,
             17995    1                 2 AS UBIN(7) UNAL INIT(BITBIN('B'X))/**/,
             17997    1                 2 DISP UBIN INIT(6)/**/;
             17998    1           DCL 1 QI_31_DIGIT_SLS_DISPLAY_A (0:1) REDEF QI_31_DIGIT_SLS_DISPLAY UBIN;
             18095    1           DCL 1 QI_16_BIT_BINARY CONSTANT SYMDEF DALIGNED,       /* CIP descriptor */
             18114    1                 2 CB,                  /* Control bits for BINARY */
             18115    1                   3 OFFSET UBIN(1) UNAL INIT(0)/**/,
             18116    1                   3 MBZ UBIN(2) UNAL INIT(0)/**/,
             18117    1                 2 CA REDEF CB,         /* Control bits for ALPHANUMERIC */
             18118    1                   3 OFFSET UBIN(1) UNAL,
             18119    1                   3 FILL UBIN(1) UNAL,
PL6.E3A0      #001=QI_DATA_D File=QI_DATA_D.:E05TSI                              WED 07/30/97 05:20 Page:545
             18120    1                   3 MBZ UBIN(1) UNAL,  /* not used:  MBZ */
             18121    1                 2 CD REDEF CB,         /* Control bits for DISPLAY */
             18122    1                   3 OFFSET UBIN(1) UNAL,
             18123    1                   3 SIGN UBIN(2) UNAL,
             18124    1                 2 CP REDEF CB,         /* Control bits for PACKED */
             18125    1                   3 OFFSET UBIN(2) UNAL,
             18126    1                   3 SIGN UBIN(1) UNAL,
             18156    1                 2 LEN UBIN(5) UNAL INIT(2)/**/,
             18160    1                 2 T UBIN(1) UNAL INIT(0)/**/,
             18162    1                 2 AS UBIN(7) UNAL INIT(BITBIN('B'X))/**/,
             18164    1                 2 DISP UBIN INIT(6)/**/;
             18165    1           DCL 1 QI_16_BIT_BINARY_A (0:1) REDEF QI_16_BIT_BINARY UBIN;
             18262    1           DCL 1 QI_32_BIT_BINARY CONSTANT SYMDEF DALIGNED,       /* CIP descriptor */
             18281    1                 2 CB,                  /* Control bits for BINARY */
             18282    1                   3 OFFSET UBIN(1) UNAL INIT(0)/**/,
             18283    1                   3 MBZ UBIN(2) UNAL INIT(0)/**/,
             18284    1                 2 CA REDEF CB,         /* Control bits for ALPHANUMERIC */
             18285    1                   3 OFFSET UBIN(1) UNAL,
             18286    1                   3 FILL UBIN(1) UNAL,
             18287    1                   3 MBZ UBIN(1) UNAL,  /* not used:  MBZ */
             18288    1                 2 CD REDEF CB,         /* Control bits for DISPLAY */
             18289    1                   3 OFFSET UBIN(1) UNAL,
             18290    1                   3 SIGN UBIN(2) UNAL,
             18291    1                 2 CP REDEF CB,         /* Control bits for PACKED */
             18292    1                   3 OFFSET UBIN(2) UNAL,
             18293    1                   3 SIGN UBIN(1) UNAL,
             18323    1                 2 LEN UBIN(5) UNAL INIT(4)/**/,
             18327    1                 2 T UBIN(1) UNAL INIT(0)/**/,
             18329    1                 2 AS UBIN(7) UNAL INIT(BITBIN('B'X))/**/,
             18331    1                 2 DISP UBIN INIT(6)/**/;
             18332    1           DCL 1 QI_32_BIT_BINARY_A (0:1) REDEF QI_32_BIT_BINARY UBIN;
             18430    1           DCL 1 QI_31_DIGIT_ST_PACKED CONSTANT SYMDEF DALIGNED,  /* CIP descriptor */
             18463    1                 2 CP,                  /* Control bits for PACKED */
             18464    1                   3 OFFSET UBIN(2) UNAL INIT(0)/**/,
             18465    1                   3 SIGN UBIN(1) UNAL INIT(1)/**/,
             18466    1                 2 CA REDEF CP,         /* Control bits for ALPHANUMERIC */
             18467    1                   3 OFFSET UBIN(1) UNAL,
PL6.E3A0      #001=QI_DATA_D File=QI_DATA_D.:E05TSI                              WED 07/30/97 05:20 Page:546
             18468    1                   3 FILL UBIN(1) UNAL,
             18469    1                   3 MBZ UBIN(1) UNAL,  /* not used:  MBZ */
             18470    1                 2 CB REDEF CP,         /* Control bits for BINARY */
             18471    1                   3 OFFSET UBIN(1) UNAL,
             18472    1                   3 MBZ UBIN(2) UNAL,  /* not used:  MBZ */
             18473    1                 2 CD REDEF CP,         /* Control bits for DISPLAY */
             18474    1                   3 OFFSET UBIN(1) UNAL,
             18475    1                   3 SIGN UBIN(2) UNAL,
             18491    1                 2 LEN UBIN(5) UNAL INIT(31)/**/,
             18493    1                 2 T UBIN(1) UNAL INIT(1)/**/,
             18497    1                 2 AS UBIN(7) UNAL INIT(BITBIN('B'X))/**/,
             18499    1                 2 DISP UBIN INIT(6)/**/;
             18500    1           DCL 1 QI_31_DIGIT_ST_PACKED_A (0:1) REDEF QI_31_DIGIT_ST_PACKED UBIN;
             18598    1           DCL 1 QI_PICTURE_STRING CONSTANT SYMDEF DALIGNED,      /* CIP descriptor */
             18603    1                 2 CA,                  /* Control bits for ALPHANUMERIC */
             18604    1                   3 OFFSET UBIN(1) UNAL INIT(1)/**/,
             18605    1                   3 FILL UBIN(1) UNAL INIT(1)/**/,
             18606    1                   3 MBZ UBIN(1) UNAL INIT(0)/**/,
             18607    1                 2 CB REDEF CA,         /* Control bits for BINARY */
             18608    1                   3 OFFSET UBIN(1) UNAL,
             18609    1                   3 MBZ UBIN(2) UNAL,  /* not used:  MBZ */
             18610    1                 2 CD REDEF CA,         /* Control bits for DISPLAY */
             18611    1                   3 OFFSET UBIN(1) UNAL,
             18612    1                   3 SIGN UBIN(2) UNAL,
             18613    1                 2 CP REDEF CA,         /* Control bits for PACKED */
             18614    1                   3 OFFSET UBIN(2) UNAL,
             18615    1                   3 SIGN UBIN(1) UNAL,
             18659    1                 2 LEN UBIN(5) UNAL INIT(0)/**/,
             18663    1                 2 T UBIN(1) UNAL INIT(0)/**/,
             18665    1                 2 AS UBIN(7) UNAL INIT(BITBIN('B'X))/**/,
             18667    1                 2 DISP UBIN INIT(10)/**/;
             18668    1           DCL 1 QI_PICTURE_STRING_A (0:1) REDEF QI_PICTURE_STRING UBIN;
             18710    1     DCL 1 QI_ACCUMULATOR_DAD CONSTANT SYMDEF ALIGNED,
             18711                          /* CONSTANT "DAD" describing QI_1.ACCUM. */
             18712    1           2 * UBIN(12) UNAL /* Was INIT'ed to:  (0)/**/,
             18713    1           2 TYPE UBIN(4) UNAL /* Was INIT'ed to:  (1)/**/,
             18773    1               2 CIP DALIGNED,           /* CIP descriptor */
PL6.E3A0      #001=QI_DATA_D File=QI_DATA_D.:E05TSI                              WED 07/30/97 05:20 Page:547
             18804    1                 3 CP,                  /* Control bits for PACKED */
             18805    1                   4 OFFSET UBIN(2) UNAL INIT(0)/**/,
             18806    1                   4 SIGN UBIN(1) UNAL INIT(1)/**/,
             18807    1                 3 CA REDEF CP,         /* Control bits for ALPHANUMERIC */
             18808    1                   4 OFFSET UBIN(1) UNAL,
             18809    1                   4 FILL UBIN(1) UNAL,
             18810    1                   4 MBZ UBIN(1) UNAL,  /* not used:  MBZ */
             18811    1                 3 CB REDEF CP,         /* Control bits for BINARY */
             18812    1                   4 OFFSET UBIN(1) UNAL,
             18813    1                   4 MBZ UBIN(2) UNAL,  /* not used:  MBZ */
             18814    1                 3 CD REDEF CP,         /* Control bits for DISPLAY */
             18815    1                   4 OFFSET UBIN(1) UNAL,
             18816    1                   4 SIGN UBIN(2) UNAL,
             18832    1                 3 LEN UBIN(5) UNAL INIT(31)/**/,
             18834    1                 3 T UBIN(1) UNAL INIT(1)/**/,
             18838    1                 3 AS UBIN(7) UNAL INIT(BITBIN('B'X))/**/,
             18843    1                 3 DISP UBIN INIT(6)/**/,
             18844    1               2 CIP_A (0:1) REDEF CIP UBIN ;
             18873            %ENDIF;
       91    18876
       92    18877        /*
       93    18878            Dynamic stuff.
       94    18879        */
       95    18880          %QI$DYNAMIC;
             18881            %BEGIN_MACRO ( STCLASS = STCLASS );
             18882            %SET LISTDIR = '0'B;
             18910    1     DCL 1 QI$GZ_HEADER BASED ALIGNED,
             18911    1           2 IS_ACTIVE BIT(1) ALIGNED,
             18912                                           /* "Does this QI$GZ_HEADER represent an
             18913                                              ACTIVE something-or-other?" indicator */
             18914    1           2 BACK_LINK$ PTR,
             18915                                           /* Back_link to last QI$GZ_HEADER */
             18916    1           2 DCB# UBIN,
             18917                                           /* DCB# for this header */
             18918    1           2 FIELD_COUNT UBIN,
             18919                                           /* number of fields following this header */
             18920    1           2 FRAME_DAD$ PTR,
PL6.E3A0      #001=QI_DATA_D File=QI_DATA_D.:E05TSI                              WED 07/30/97 05:20 Page:548
             18921                                           /* ptr to frame DAD for this header */
             18922    1           2 OPERATION,
             18923    1             3 START_INDEX UBIN,
             18924                                           /* starting index into the field array
             18925                                              following this header */
             18926    1             3 STOP_INDEX UBIN,
             18927                                           /* stopping index into the field array
             18928                                              following this header */
             18929    1             3 DONE_INDEX UBIN,
             18930                                           /* index into the field array
             18931                                              following this header of
             18932                                              the last field actually operated on */
             18933    1           2 STATUS UBIN;
             18934                                           /* returned status */
             18959    1     DCL 1 QI$GZ_FIELD BASED ALIGNED,
             18960    1           2 INDICATORS$ PTR,
             18961    1           2 DESCRIPTION,
             18962    1             3 IO_FLAGS,
             18963    1               4 IS_OUTPUT BIT(1) UNAL,
             18964                                           /* on if this FIELD is OUTPUT or I-O */
             18965    1               4 IS_INPUT BIT(1) UNAL,
             18966                                           /* on if this FIELD is INPUT or I-O */
             18967    1             3 IO_VALUE REDEF IO_FLAGS UBIN(2) UNAL,
             18968                                           /* all 1's if this field is I-O */
             18969    1             3 IS_ENTRY_REQUIRED BIT(1) UNAL,
             18970                                           /* on if ENTRY-REQUIRED */
             18971    1             3 IS_OUTPUT_CONSTANT BIT(1) UNAL,
             18972                                           /* on if OUTPUT CONSTANT */
             18973    1             3 IS_AOIM BIT(1) UNAL,
             18974                                           /* on if A-O-I-M */
             18975    1             3 * UBIN(3) UNAL,
             18976    1             3 LENGTH UBIN BYTE CALIGNED,
             18977                                           /* field length */
             18978    1             3 POSITION,
             18979    1               4 LINE UBIN BYTE CALIGNED,
             18980                                           /* LINE whatever */
             18981    1               4 COLUMN UBIN BYTE CALIGNED,
PL6.E3A0      #001=QI_DATA_D File=QI_DATA_D.:E05TSI                              WED 07/30/97 05:20 Page:549
             18982                                           /* COLUMN whatever */
             18983    1             3 FIELD_DAD$ PTR,
             18984                                           /* ptr back to the original field DAD */
             18985    1           2 STATUS,
             18986    1             3 OFFSET UBIN(1) UNAL,
             18987                                           /* byte offset from DATA$ of the real data */
             18988    1             3 IS_AOIM_MODIFIED BIT(1) UNAL,
             18989                                           /* on if this A-O-I-M field was modified,
             18990                                              off if this A-O-I-M field hasn't changed */
             18991    1             3 IS_VALUE_DEFAULT BIT(1) UNAL,
             18992                                           /* on if data came from a DEFAULT clause,
             18993                                              off if data came from a terminal */
             18994    1             3 WAS_IO_EVER_DONE BIT(1) UNAL,
             18995                                           /* reset by USE prep code */
             18996    1             3 LENGTH UBIN BYTE CALIGNED,
             18997                                           /* length of data returned */
             18998    1             3 VISUAL_ATTRIBUTE UBIN BYTE CALIGNED,
             18999                                           /* ABStractGRPhicRNDition goop */
             19000    1             3 FLDID UBIN,
             19001                                           /* VDH FLDID for this elementary
             19002                                              field */
             19003    1             3 DATA$ PTR,
             19004                                           /* ptr to the real data */
             19005    1           2 OPERATION,
             19006    1             3 IS_OPERATE BIT(1) UNAL,
             19007                                           /* do something */
             19008    1             3 IS_VISUAL_ATTRIBUTE_CHANGE BIT(1) UNAL,
             19009                                           /* change the VISUAL-ATTRIBUTE
             19010                                              while yer at it */
             19011    1             3 IS_DONE BIT(1) UNAL,
             19012                                           /* did something */
             19013    1           2 FPL_ERROR BIT(1) UNAL,
             19014                                           /* internally detected oops */
             19015    1           2 USE_STUFF UBIN(4) UNAL;
             19016                                           /* cleared field for
             19017                                              USE prep code */
             19033            %ENDIF;
PL6.E3A0      #001=QI_DATA_D File=QI_DATA_D.:E05TSI                              WED 07/30/97 05:20 Page:550
       96    19036
       97    19037    1   END QI_DATA_D;

PL6.E3A0      #001=QI_DATA_D File=QI_DATA_D.:E05TSI                              WED 07/30/97 05:20 Page:551
--  Include file information  --

   QI_MACROS_M.:E05TOU  is referenced.
   QI_PERR_C.:E05TOU  is referenced.
   QI_EQUATES_E.:E05TOU  is referenced.
   QG_MACRO_M.:E05TOU  is referenced.
   LCP_6.:E05TOU  cannot be made into a system file and is referenced.
   G_LCP6_E.:E05TOU  was found in the system file and is referenced.
   GT_LCP6_M.:E05TOU  was found in the system file and is referenced.
   KI_CP6.:E05TOU  was found in the system file and is referenced.
   GF_LCP6_M.:E05TOU  was found in the system file and is referenced.
   GM_LCP6_M.:E05TOU  was found in the system file and is referenced.
   GU_LCP6_M.:E05TOU  was found in the system file and is referenced.
   GJ_LCP6_M.:E05TOU  was found in the system file and is referenced.
   GH_LCP6_M.:E05TOU  was found in the system file and is referenced.
      No diagnostics issued in procedure QI_DATA_D.
PL6.E3A0      #001=QI_DATA_D File=QI_DATA_D.:E05TSI                              WED 07/30/97 05:20 Page:552

 **** Variables and constants ****

  ****  Section 000  Data  QI_DATA_D

  ****  Scalars and arrays  ****
HexLoc.c.b A Datatyp(siz) R M Lvl/name                 HexLoc.c.b A Datatyp(siz) R M Lvl/name

     0-0-0/d STRC(2576)  r     1 QI_1                      CD-0-0/w STRC(48)    r     1 QI_VLP_SEGMENT
    D0-0-0/w STRC(48)    r     1 QI_VLP_SEGMENT_BUFFER
    D3-0-0/w STRC(48)    r     1 QI_VLP_SEGMENT_LOAD       D6-0-0/w STRC(112)   r     1 QI_VLP_XBREAK

  ****  Section 001 RoData QI_DATA_D

  ****  Scalars and arrays  ****
HexLoc.c.b A Datatyp(siz) R M Lvl/name                 HexLoc.c.b A Datatyp(siz) R M Lvl/name

   118-0-0/w STRC(256)   r     1 QI_FPT_CLOSE             128-0-0/w STRC(128)   r     1 QI_FPT_DBCONTROL
   130-0-0/w STRC(224)   r     1 QI_FPT_DCLFLD            141-0-0/w STRC(240)   r     1 QI_FPT_DEVICE
   150-0-0/w STRC(144)   r     1 QI_FPT_ERASE             159-0-0/w STRC(560)   r     1 QI_FPT_ERRMSG
   17C-0-0/w STRC(128)   r     1 QI_FPT_EXIT              184-0-0/w STRC(128)   r     1 QI_FPT_FDS
   18C-0-0/w STRC(128)   r     1 QI_FPT_FDS_LOAD          194-0-0/w STRC(128)   r     1 QI_FPT_GDS
   19C-0-0/w STRC(128)   r     1 QI_FPT_GDS_BUFFER        1A4-0-0/w STRC(128)   r     1 QI_FPT_GDS_LOAD
   1AC-0-0/w STRC(112)   r     1 QI_FPT_GLINEATTR         1B3-0-0/w STRC(128)   r     1 QI_FPT_INT
   1BB-0-0/w STRC(320)   r     1 QI_FPT_LDTRC             1CF-0-0/w STRC(240)   r     1 QI_FPT_MDFFLD
   1DE-0-0/w STRC(752)   r     1 QI_FPT_OPEN              20D-0-0/w STRC(128)   r     1 QI_FPT_PROMPT
   215-0-0/w STRC(288)   r     1 QI_FPT_READ              233-0-0/w STRC(128)   r     1 QI_FPT_RLSFLD
   23B-0-0/w STRC(128)   r     1 QI_FPT_SLCFLD            243-0-0/w STRC(256)   r     1 QI_FPT_TIME
   265-0-0/w STRC(112)   r     1 QI_FPT_TRMATTR           26C-0-0/w STRC(128)   r     1 QI_FPT_TRMCTL
   27C-0-0/w STRC(160)   r     1 QI_FPT_WAIT              286-0-0/w STRC(288)   r     1 QI_FPT_WRITE
   259-0-0/w STRC(192)   r     1 QI_VLP_TRAP_CONDITIONS

  ****  BASED and DCB variables  ****

  ****  Scalars and arrays  ****
HexLoc.c.b A Datatyp(siz) R M Lvl/name                 HexLoc.c.b A Datatyp(siz) R M Lvl/name

     0-0-0/c ASTR(8)     r     1 QI$VARIABLE_IDENTIFIER
PL6.E3A0      #001=QI_DATA_D File=QI_DATA_D.:E05TSI                              WED 07/30/97 05:20 Page:553


   No code generated for procedure QI_DATA_D .
   Procedure QI_DATA_D requires 4 words of local(AUTO) storage.

    No errors detected in file QI_DATA_D.:E05TSI    .
PL6.E3A0      #001=QI_DATA_D File=QI_DATA_D.:E05TSI                              WED 07/30/97 05:20 Page:554
          *** CROSS REFERENCE LISTING ***
**     DENOTES     IDENTIFIER DEFINITION
<<                 IDENTIFIER'S VALUE SET
>>                 IDENTIFIER'S VALUE USED
<>                 IDENTIFIER SET AND/OR USED
--                 IDENTIFIER REFERENCED
PL6.E3A0      #001=QI_DATA_D File=QI_DATA_D.:E05TSI                              WED 07/30/97 05:20 Page:555
          MINI XREF LISTING

QGB_PARAM.DVE.DVBYTE.VFC
      7305**DCL      7306--REDEF
QGB_PARAM.DVE.EOMCHAR
      7317**DCL      7318--REDEF
QGB_PARAM.MSG$
      7299**DCL      7300--REDEF
QGB_PARAM.UHDR$
      7324**DCL      7325--REDEF
QI$ACTIVATION_STATUS
     12719**DCL     12725--REDEF
QI$CIP
     11560**DCL     11630--REDEF
QI$CIP.CA
     11565**DCL     11569--REDEF   11572--REDEF   11575--REDEF
QI$COBOL_DAD.PSEUDO_CIP
     11804**DCL     11829--REDEF
QI$COBOL_DAD.PSEUDO_CIP.ALPHANUMERIC
     11806**DCL     11811--REDEF
QI$COBOL_DAD.PSEUDO_CIP.NUMERIC.CB
     11812**DCL     11815--REDEF   11818--REDEF
QI$COBOL_DAD.VARIABLE_LENGTH_ITEMS
     11840**DCL     11856--REDEF   11864--REDEF   11872--REDEF
QI$COBOL_DAD.VARIABLE_LENGTH_ITEMS.LEVEL_MULTIPLIERS
     11841**DCL     11851--REDEF   11854--REDEF
QI$COBOL_DAD.WORD0
     11768**DCL     11769--REDEF   11783--REDEF
QI$COBOL_DAD_P_BITS.P
     11908**DCL     11914--REDEF
QI$CONDITION_CONTROL_BLOCK.LIST_A@P
     11394**DCL     11395--REDEF
QI$CONDITION_CONTROL_BLOCK.WORD0_FLAGS
     11390**DCL     11393--REDEF
PL6.E3A0      #001=QI_DATA_D File=QI_DATA_D.:E05TSI                              WED 07/30/97 05:20 Page:556
QI$CONDITION_LEGAL_BLOCK.ARRAY@P
     11427**DCL     11428--REDEF   11429--REDEF
QI$DAD.PSEUDO_CIP
     11707**DCL     11732--REDEF
QI$DAD.PSEUDO_CIP.ALPHANUMERIC
     11709**DCL     11714--REDEF
QI$DAD.PSEUDO_CIP.NUMERIC.CB
     11715**DCL     11718--REDEF   11721--REDEF
QI$DAD.WORD0
     11676**DCL     11677--REDEF
QI$ERROR_MESSAGE_LINE
     13628**DCL     13630--REDEF
QI$ERROR_STATUS
     13625**DCL     13627--REDEF
QI$FIELD_DAD.ELEMENTARY_ITEM.P
     12122**DCL     12129--REDEF
QI$FIELD_DAD.ONE_DIMENSIONAL_ITEM.P
     12142**DCL     12149--REDEF
QI$FIELD_DAD.PSEUDO_CIP
     12049**DCL     12074--REDEF
QI$FIELD_DAD.PSEUDO_CIP.ALPHANUMERIC
     12051**DCL     12056--REDEF
QI$FIELD_DAD.PSEUDO_CIP.NUMERIC.CB
     12057**DCL     12060--REDEF   12063--REDEF
QI$FIELD_DAD.TWO_DIMENSIONAL_ITEM.P
     12162**DCL     12169--REDEF
QI$FIELD_DAD.VARIABLE_LENGTH_ITEMS
     12105**DCL     12121--REDEF   12139--REDEF   12157--REDEF
QI$FIELD_DAD.VARIABLE_LENGTH_ITEMS.LEVEL_MULTIPLIERS
     12106**DCL     12116--REDEF   12119--REDEF
QI$FIELD_DAD.WORD0
     12001**DCL     12002--REDEF
QI$FIELD_DAD.WORD0_FLAGS.IO_FLAGS
     12005**DCL     12010--REDEF
QI$FIELD_DAD_P.P
     12203**DCL     12210--REDEF
PL6.E3A0      #001=QI_DATA_D File=QI_DATA_D.:E05TSI                              WED 07/30/97 05:20 Page:557
QI$FIELD_STATUS.INDICATORS
     12869**DCL     12901--REDEF
QI$FIELD_STATUS.INDICATORS.ENABLED_FLAGS
     12873**DCL     12878--REDEF
QI$FIELD_STATUS.INDICATORS.OPEN_FLAGS
     12885**DCL     12892--REDEF
QI$FIELD_STATUS.INDICATORS.STATE_FLAGS
     12879**DCL     12884--REDEF
QI$FILE.WORD0
     12325**DCL     12326--REDEF
QI$FILE_STATUS.INDICATORS
     13162**DCL     13194--REDEF
QI$FILE_STATUS.INDICATORS.ENABLED_FLAGS
     13166**DCL     13171--REDEF
QI$FILE_STATUS.INDICATORS.OPEN_FLAGS
     13178**DCL     13185--REDEF
QI$FILE_STATUS.INDICATORS.STATE_FLAGS
     13172**DCL     13177--REDEF
QI$FORM_FILE.USE_PROCEDURE
     12425**DCL     12432--REDEF
QI$FORM_FILE.WORD0
     12379**DCL     12380--REDEF
QI$FORM_STATUS.INDICATORS
     13283**DCL     13315--REDEF
QI$FORM_STATUS.INDICATORS.ENABLED_FLAGS
     13287**DCL     13292--REDEF
QI$FORM_STATUS.INDICATORS.OPEN_FLAGS
     13299**DCL     13306--REDEF
QI$FORM_STATUS.INDICATORS.STATE_FLAGS
     13293**DCL     13298--REDEF
QI$FRAME.WORD0
     12540**DCL     12541--REDEF
QI$FRAME_STATUS.INDICATORS
     13512**DCL     13544--REDEF
QI$FRAME_STATUS.INDICATORS.ENABLED_FLAGS
     13516**DCL     13521--REDEF
PL6.E3A0      #001=QI_DATA_D File=QI_DATA_D.:E05TSI                              WED 07/30/97 05:20 Page:558
QI$FRAME_STATUS.INDICATORS.OPEN_FLAGS
     13528**DCL     13535--REDEF
QI$FRAME_STATUS.INDICATORS.STATE_FLAGS
     13522**DCL     13527--REDEF
QI$GZ_FIELD.DESCRIPTION.IO_FLAGS
     18962**DCL     18967--REDEF
QI$IDENTIFIER
     13631**DCL     13633--REDEF
QI$INDICATORS
     12783**DCL     12813--REDEF
QI$INDICATORS.ENABLED_FLAGS
     12789**DCL     12794--REDEF
QI$INDICATORS.OPEN_FLAGS
     12801**DCL     12808--REDEF
QI$INDICATORS.STATE_FLAGS
     12795**DCL     12800--REDEF
QI$MAJOR_NODE.WORD0
     12239**DCL     12240--REDEF
QI$MAJOR_STATUS.INDICATORS
     12962**DCL     12994--REDEF
QI$MAJOR_STATUS.INDICATORS.ENABLED_FLAGS
     12966**DCL     12971--REDEF
QI$MAJOR_STATUS.INDICATORS.OPEN_FLAGS
     12978**DCL     12985--REDEF
QI$MAJOR_STATUS.INDICATORS.STATE_FLAGS
     12972**DCL     12977--REDEF
QI$MESSAGE_TYPE
     13622**DCL     13624--REDEF
QI$MINOR_NODE.WORD0
     12282**DCL     12283--REDEF
QI$MINOR_STATUS.INDICATORS
     13055**DCL     13087--REDEF
QI$MINOR_STATUS.INDICATORS.ENABLED_FLAGS
     13059**DCL     13064--REDEF
QI$MINOR_STATUS.INDICATORS.OPEN_FLAGS
     13071**DCL     13078--REDEF
PL6.E3A0      #001=QI_DATA_D File=QI_DATA_D.:E05TSI                              WED 07/30/97 05:20 Page:559
QI$MINOR_STATUS.INDICATORS.STATE_FLAGS
     13065**DCL     13070--REDEF
QI$OP_ACCEPT.DATANAME@P
      9470**DCL      9471--REDEF
QI$OP_CALL.EPTR$
      9642**DCL      9643--REDEF
QI$OP_CLEAR.IO_FLAGS
      9675**DCL      9678--REDEF
QI$OP_DISPLAY.FIELD_A@P
      9942**DCL      9943--REDEF
QI$OP_ENABLE.IO_FLAGS
     10029**DCL     10032--REDEF
QI$OP_IFCLS.ATTRIBUTE.TYPE
     10122**DCL     10127--REDEF
QI$OP_INSPECT.TALLYING_FOR_ITEM@P
     10356**DCL     10357--REDEF
QI$OP_INSPECT.TALLYING_INITIAL_ITEM@P
     10358**DCL     10359--REDEF
QI$OP_INSPECT.TALLYING_ITEM@P
     10354**DCL     10355--REDEF
QI$OP_OPEN.IO_FLAGS
     10916**DCL     10919--REDEF
QI$OP_PERFM.BINARY_ITERATION_COUNT@P
     10954**DCL     10955--REDEF
QI$PSEUDO_CIP
     11455**DCL     11479--REDEF
QI$PSEUDO_CIP.ALPHANUMERIC
     11459**DCL     11464--REDEF
QI$PSEUDO_CIP.NUMERIC.CB
     11465**DCL     11468--REDEF   11471--REDEF
QI$TERMINAL_ATTRIBUTES
     12676**DCL     12689--REDEF
QI$TRAN_FILE.WORD0
     12461**DCL     12462--REDEF
QI$TRAN_STATUS.INDICATORS
     13396**DCL     13428--REDEF
PL6.E3A0      #001=QI_DATA_D File=QI_DATA_D.:E05TSI                              WED 07/30/97 05:20 Page:560
QI$TRAN_STATUS.INDICATORS.ENABLED_FLAGS
     13400**DCL     13405--REDEF
QI$TRAN_STATUS.INDICATORS.OPEN_FLAGS
     13412**DCL     13419--REDEF
QI$TRAN_STATUS.INDICATORS.STATE_FLAGS
     13406**DCL     13411--REDEF
QI$VARIABLE_IDENTIFIER.LENGTH
     13635**DCL     13636--IMP-SIZ
QI_1.BASE
      5948**DCL      5955--REDEF
QI_1.CURRENT.FILE$
      6839**DCL      6841--REDEF    6843--REDEF
QI_1.CURRENT.FILE_STATUS$
      6845**DCL      6847--REDEF    6849--REDEF
QI_1.DAD
      6643**DCL      6648--REDEF
QI_1.FILE_HEAD
      6826**DCL      6833--REDEF
QI_1.IS_ALL_LIT
      6649**DCL      6654--REDEF
QI_1.IS_FORM_VARIABLE
      6655**DCL      6660--REDEF
QI_1.IS_TEMP
      6661**DCL      6666--REDEF
QI_1.MESSAGE_LINE_DAD.PSEUDO_CIP
      6759**DCL      6784--REDEF
QI_1.MESSAGE_LINE_DAD.PSEUDO_CIP.ALPHANUMERIC
      6761**DCL      6766--REDEF
QI_1.MESSAGE_LINE_DAD.PSEUDO_CIP.NUMERIC.CB
      6767**DCL      6770--REDEF    6773--REDEF
QI_1.MESSAGE_LINE_DAD.WORD0
      6728**DCL      6729--REDEF
QI_1.OFFSET
      6667**DCL      6672--REDEF
QI_1.OP.CIP
      6028**DCL      6479--REDEF
PL6.E3A0      #001=QI_DATA_D File=QI_DATA_D.:E05TSI                              WED 07/30/97 05:20 Page:561
QI_1.OP.CIP.AUX
      6394**DCL      6465--REDEF
QI_1.OP.CIP.AUX.CD
      6439**DCL      6442--REDEF    6446--REDEF    6449--REDEF
QI_1.OP.CIP.S
      6098**DCL      6169--REDEF
QI_1.OP.CIP.S.CD
      6143**DCL      6146--REDEF    6150--REDEF    6153--REDEF
QI_1.OP.CIP.T
      6246**DCL      6317--REDEF
QI_1.OP.CIP.T.CD
      6291**DCL      6294--REDEF    6298--REDEF    6301--REDEF
QI_1.OP.DATA
      6486**DCL      6490--REDEF
QI_1.OP.FILL_CHAR
      6610**DCL      6613--REDEF
QI_1.OP.INX
      6543**DCL      6547--REDEF    6548--REDEF    6552--REDEF
QI_1.OP.LEN
      6526**DCL      6530--REDEF    6531--REDEF    6535--REDEF    6536--REDEF    6540--REDEF
QI_1.OP.LEN.AUX
      6529**DCL     13646--IMP-SIZ
QI_1.OP.LEN.S
      6527**DCL     13642--IMP-SIZ
QI_1.OP.LEN.T
      6528**DCL     13644--IMP-SIZ
QI_1.OP.PICTURE_STRING
      6596**DCL      6599--REDEF    6600--REDEF    6603--REDEF    6604--REDEF    6607--REDEF
QI_1.OP.ROUND
      6629**DCL      6630--REDEF    6631--REDEF
QI_1.OP.SRCH_VRFY_ELEMS
      6565**DCL      6568--REDEF
QI_1.OPENED_COUNT
      6834**DCL      6837--REDEF
QI_1.OTTER_SPACE
      6673**DCL      6678--REDEF
PL6.E3A0      #001=QI_DATA_D File=QI_DATA_D.:E05TSI                              WED 07/30/97 05:20 Page:562
QI_1.PICTURE_STRING
      6679**DCL      6684--REDEF
QI_1.SPECIAL_NAMES
      6862**DCL      6871--REDEF
QI_1.TYPE
      6685**DCL      6690--REDEF
QI_16_BIT_BINARY
     18095**DCL     18165--REDEF
QI_16_BIT_BINARY.CB
     18114**DCL     18117--REDEF   18121--REDEF   18124--REDEF
QI_31_DIGIT_SLS_DISPLAY
     17928**DCL     17998--REDEF
QI_31_DIGIT_SLS_DISPLAY.CD
     17975**DCL     17978--REDEF   17982--REDEF   17985--REDEF
QI_31_DIGIT_ST_PACKED
     18430**DCL     18500--REDEF
QI_31_DIGIT_ST_PACKED.CP
     18463**DCL     18466--REDEF   18470--REDEF   18473--REDEF
QI_32_BIT_BINARY
     18262**DCL     18332--REDEF
QI_32_BIT_BINARY.CB
     18281**DCL     18284--REDEF   18288--REDEF   18291--REDEF
QI_4_CHAR_ALPHANUMERIC
     17760**DCL     17830--REDEF
QI_4_CHAR_ALPHANUMERIC.CA
     17765**DCL     17769--REDEF   17772--REDEF   17775--REDEF
QI_ACCUMULATOR_DAD.CIP
     18773**DCL     18844--REDEF
QI_ACCUMULATOR_DAD.CIP.CP
     18804**DCL     18807--REDEF   18811--REDEF   18814--REDEF
QI_ALR.CIP
     13725**DCL     14176--REDEF
QI_ALR.CIP.AUX
     14091**DCL     14162--REDEF
QI_ALR.CIP.AUX.CA
     14094**DCL     14098--REDEF   14101--REDEF   14104--REDEF
PL6.E3A0      #001=QI_DATA_D File=QI_DATA_D.:E05TSI                              WED 07/30/97 05:20 Page:563
QI_ALR.CIP.S
     13795**DCL     13866--REDEF
QI_ALR.CIP.S.CA
     13798**DCL     13802--REDEF   13805--REDEF   13808--REDEF
QI_ALR.CIP.T
     13943**DCL     14014--REDEF
QI_ALR.CIP.T.CA
     13946**DCL     13950--REDEF   13953--REDEF   13956--REDEF
QI_ALR.DATA
     14183**DCL     14187--REDEF
QI_ALR.FILL_CHAR
     14307**DCL     14310--REDEF
QI_ALR.INX
     14240**DCL     14244--REDEF   14245--REDEF   14249--REDEF
QI_ALR.LEN
     14223**DCL     14227--REDEF   14228--REDEF   14232--REDEF   14233--REDEF   14237--REDEF
QI_ALR.PICTURE_STRING
     14293**DCL     14296--REDEF   14297--REDEF   14300--REDEF   14301--REDEF   14304--REDEF
QI_ALR.ROUND
     14326**DCL     14327--REDEF   14328--REDEF
QI_ALR.SRCH_VRFY_ELEMS
     14262**DCL     14265--REDEF
QI_FPT_CLOSE.V
      7389**DCL      7386--DCLINIT
QI_FPT_DBCONTROL.V
      7451**DCL      7442--DCLINIT
QI_FPT_DBCONTROL.V_
      7442**DCL      7442--REDEF
QI_FPT_DCLFLD.V
      7506**DCL      7500--DCLINIT
QI_FPT_DEVICE.V
      7619**DCL      7617--DCLINIT
QI_FPT_ERASE.V
      7677**DCL      7671--DCLINIT
QI_FPT_ERRMSG.V
      7731**DCL      7728--DCLINIT
PL6.E3A0      #001=QI_DATA_D File=QI_DATA_D.:E05TSI                              WED 07/30/97 05:20 Page:564
QI_FPT_EXIT.V
      7781**DCL      7781--DCLINIT
QI_FPT_FDS.V
      7830**DCL      7830--DCLINIT
QI_FPT_FDS_LOAD.V
      7878**DCL      7878--DCLINIT
QI_FPT_GDS.V
      7928**DCL      7928--DCLINIT
QI_FPT_GDS_BUFFER.V
      8026**DCL      8026--DCLINIT
QI_FPT_GDS_LOAD.V
      8124**DCL      8124--DCLINIT
QI_FPT_GLINEATTR.V
      8227**DCL      8221--DCLINIT
QI_FPT_INT.V
      8289**DCL      8280--DCLINIT
QI_FPT_INT.V_
      8280**DCL      8280--REDEF
QI_FPT_LDTRC.V
      8336**DCL      8336--DCLINIT
QI_FPT_MDFFLD.V
      8395**DCL      8389--DCLINIT
QI_FPT_OPEN.V
      8453**DCL      8447--DCLINIT
QI_FPT_PROMPT.V
      8511**DCL      8505--DCLINIT
QI_FPT_READ.V
      8559**DCL      8556--DCLINIT
QI_FPT_RLSFLD.V
      8662**DCL      8656--DCLINIT
QI_FPT_SLCFLD.V
      8720**DCL      8714--DCLINIT
QI_FPT_TIME.V
      8772**DCL      8771--DCLINIT
QI_FPT_TRMATTR.V
      9061**DCL      9055--DCLINIT
PL6.E3A0      #001=QI_DATA_D File=QI_DATA_D.:E05TSI                              WED 07/30/97 05:20 Page:565
QI_FPT_TRMCTL.V
      9113**DCL      9107--DCLINIT
QI_FPT_WAIT.V
      9223**DCL      9222--DCLINIT
QI_FPT_WRITE.V
      9274**DCL      9271--DCLINIT
QI_MAT.CIP
     17064**DCL     17515--REDEF
QI_MAT.CIP.AUX
     17430**DCL     17501--REDEF
QI_MAT.CIP.AUX.CA
     17433**DCL     17437--REDEF   17440--REDEF   17443--REDEF
QI_MAT.CIP.S
     17134**DCL     17205--REDEF
QI_MAT.CIP.S.CA
     17137**DCL     17141--REDEF   17144--REDEF   17147--REDEF
QI_MAT.CIP.T
     17282**DCL     17353--REDEF
QI_MAT.CIP.T.CA
     17285**DCL     17289--REDEF   17292--REDEF   17295--REDEF
QI_MAT.DATA
     17522**DCL     17526--REDEF
QI_MAT.DEC
     17590**DCL     17594--REDEF   17595--REDEF   17599--REDEF
QI_MAT.FILL_CHAR
     17646**DCL     17649--REDEF
QI_MAT.LEN
     17562**DCL     17566--REDEF   17567--REDEF   17571--REDEF   17572--REDEF   17576--REDEF
QI_MAT.PICTURE_STRING
     17632**DCL     17635--REDEF   17636--REDEF   17639--REDEF   17640--REDEF   17643--REDEF
QI_MAT.ROUND
     17665**DCL     17666--REDEF   17667--REDEF
QI_MAT.SRCH_VRFY_ELEMS
     17601**DCL     17604--REDEF
QI_PICTURE_STRING
     18598**DCL     18668--REDEF
PL6.E3A0      #001=QI_DATA_D File=QI_DATA_D.:E05TSI                              WED 07/30/97 05:20 Page:566
QI_PICTURE_STRING.CA
     18603**DCL     18607--REDEF   18610--REDEF   18613--REDEF
QI_SRCH_VRFY.CIP
     16395**DCL     16846--REDEF
QI_SRCH_VRFY.CIP.AUX
     16761**DCL     16832--REDEF
QI_SRCH_VRFY.CIP.AUX.CA
     16764**DCL     16768--REDEF   16771--REDEF   16774--REDEF
QI_SRCH_VRFY.CIP.S
     16465**DCL     16536--REDEF
QI_SRCH_VRFY.CIP.S.CA
     16468**DCL     16472--REDEF   16475--REDEF   16478--REDEF
QI_SRCH_VRFY.CIP.T
     16613**DCL     16684--REDEF
QI_SRCH_VRFY.CIP.T.CA
     16616**DCL     16620--REDEF   16623--REDEF   16626--REDEF
QI_SRCH_VRFY.DATA
     16853**DCL     16857--REDEF
QI_SRCH_VRFY.DEC
     16921**DCL     16925--REDEF   16926--REDEF   16930--REDEF
QI_SRCH_VRFY.FILL_CHAR
     16977**DCL     16980--REDEF
QI_SRCH_VRFY.ROUND
     16996**DCL     16997--REDEF   16998--REDEF
QI_SRCH_VRFY.SRCH_RESULT
     16937**DCL     16940--REDEF   16941--REDEF   16944--REDEF   16945--REDEF   16948--REDEF
QI_SRCH_VRFY.SRCH_VRFY_ARGS
     16861**DCL     16865--REDEF   16866--REDEF   16870--REDEF   16871--REDEF   16875--REDEF
QI_SRCH_VRFY.SRCH_VRFY_ELEMS
     16932**DCL     16935--REDEF
QI_TYPE_BINARY_TARGET.CIP
     15722**DCL     16173--REDEF
QI_TYPE_BINARY_TARGET.CIP.AUX
     16088**DCL     16159--REDEF
QI_TYPE_BINARY_TARGET.CIP.AUX.CA
     16091**DCL     16095--REDEF   16098--REDEF   16101--REDEF
PL6.E3A0      #001=QI_DATA_D File=QI_DATA_D.:E05TSI                              WED 07/30/97 05:20 Page:567
QI_TYPE_BINARY_TARGET.CIP.S
     15792**DCL     15863--REDEF
QI_TYPE_BINARY_TARGET.CIP.S.CA
     15795**DCL     15799--REDEF   15802--REDEF   15805--REDEF
QI_TYPE_BINARY_TARGET.CIP.T
     15940**DCL     16011--REDEF
QI_TYPE_BINARY_TARGET.CIP.T.CB
     15957**DCL     15960--REDEF   15964--REDEF   15967--REDEF
QI_TYPE_BINARY_TARGET.DATA
     16180**DCL     16184--REDEF
QI_TYPE_BINARY_TARGET.DEC
     16248**DCL     16252--REDEF   16253--REDEF   16257--REDEF
QI_TYPE_BINARY_TARGET.LEN
     16220**DCL     16224--REDEF   16225--REDEF   16229--REDEF   16230--REDEF   16234--REDEF
QI_TYPE_BINARY_TARGET.PICTURE_STRING
     16290**DCL     16293--REDEF   16294--REDEF   16297--REDEF   16298--REDEF   16301--REDEF
QI_TYPE_BINARY_TARGET.ROUND
     16323**DCL     16324--REDEF   16325--REDEF
QI_TYPE_BINARY_TARGET.SIZE_ERROR
     16309**DCL     16310--REDEF
QI_TYPE_BINARY_TARGET.SRCH_VRFY_ELEMS
     16259**DCL     16262--REDEF
QI_TYPE_DISPLAY_SOURCE.CIP
     14390**DCL     14841--REDEF
QI_TYPE_DISPLAY_SOURCE.CIP.AUX
     14756**DCL     14827--REDEF
QI_TYPE_DISPLAY_SOURCE.CIP.AUX.CA
     14759**DCL     14763--REDEF   14766--REDEF   14769--REDEF
QI_TYPE_DISPLAY_SOURCE.CIP.S
     14460**DCL     14531--REDEF
QI_TYPE_DISPLAY_SOURCE.CIP.S.CD
     14505**DCL     14508--REDEF   14512--REDEF   14515--REDEF
QI_TYPE_DISPLAY_SOURCE.CIP.T
     14608**DCL     14679--REDEF
QI_TYPE_DISPLAY_SOURCE.CIP.T.CA
     14611**DCL     14615--REDEF   14618--REDEF   14621--REDEF
PL6.E3A0      #001=QI_DATA_D File=QI_DATA_D.:E05TSI                              WED 07/30/97 05:20 Page:568
QI_TYPE_DISPLAY_SOURCE.DATA
     14848**DCL     14852--REDEF
QI_TYPE_DISPLAY_SOURCE.DEC
     14916**DCL     14920--REDEF   14921--REDEF   14925--REDEF
QI_TYPE_DISPLAY_SOURCE.LEN
     14888**DCL     14892--REDEF   14893--REDEF   14897--REDEF   14898--REDEF   14902--REDEF
QI_TYPE_DISPLAY_SOURCE.PICTURE_STRING
     14958**DCL     14961--REDEF   14962--REDEF   14965--REDEF   14966--REDEF   14969--REDEF
QI_TYPE_DISPLAY_SOURCE.ROUND
     14991**DCL     14992--REDEF   14993--REDEF
QI_TYPE_DISPLAY_SOURCE.SIZE_ERROR
     14977**DCL     14978--REDEF
QI_TYPE_DISPLAY_SOURCE.SRCH_VRFY_ELEMS
     14927**DCL     14930--REDEF
QI_TYPE_DISPLAY_TARGET.CIP
     15056**DCL     15507--REDEF
QI_TYPE_DISPLAY_TARGET.CIP.AUX
     15422**DCL     15493--REDEF
QI_TYPE_DISPLAY_TARGET.CIP.AUX.CA
     15425**DCL     15429--REDEF   15432--REDEF   15435--REDEF
QI_TYPE_DISPLAY_TARGET.CIP.S
     15126**DCL     15197--REDEF
QI_TYPE_DISPLAY_TARGET.CIP.S.CA
     15129**DCL     15133--REDEF   15136--REDEF   15139--REDEF
QI_TYPE_DISPLAY_TARGET.CIP.T
     15274**DCL     15345--REDEF
QI_TYPE_DISPLAY_TARGET.CIP.T.CD
     15319**DCL     15322--REDEF   15326--REDEF   15329--REDEF
QI_TYPE_DISPLAY_TARGET.DATA
     15514**DCL     15518--REDEF
QI_TYPE_DISPLAY_TARGET.DEC
     15582**DCL     15586--REDEF   15587--REDEF   15591--REDEF
QI_TYPE_DISPLAY_TARGET.LEN
     15554**DCL     15558--REDEF   15559--REDEF   15563--REDEF   15564--REDEF   15568--REDEF
QI_TYPE_DISPLAY_TARGET.PICTURE_STRING
     15624**DCL     15627--REDEF   15628--REDEF   15631--REDEF   15632--REDEF   15635--REDEF
PL6.E3A0      #001=QI_DATA_D File=QI_DATA_D.:E05TSI                              WED 07/30/97 05:20 Page:569
QI_TYPE_DISPLAY_TARGET.ROUND
     15657**DCL     15658--REDEF   15659--REDEF
QI_TYPE_DISPLAY_TARGET.SIZE_ERROR
     15643**DCL     15644--REDEF
QI_TYPE_DISPLAY_TARGET.SRCH_VRFY_ELEMS
     15593**DCL     15596--REDEF
QI_VLP_SEGMENT
      7975**DCL      7830--DCLINIT  7928--DCLINIT
QI_VLP_SEGMENT.BASE
      7979**DCL      7979--REDEF
QI_VLP_SEGMENT_BUFFER
      8073**DCL      8026--DCLINIT
QI_VLP_SEGMENT_BUFFER.BASE
      8077**DCL      8077--REDEF
QI_VLP_SEGMENT_LOAD
      8171**DCL      7878--DCLINIT  8124--DCLINIT
QI_VLP_SEGMENT_LOAD.BASE
      8175**DCL      8175--REDEF
QI_VLP_TRAP_CONDITIONS
      8869**DCL      8818--DCLINIT
QI_VLP_TRMCTL.BREAKCOUNT
      9169**DCL      9170--REDEF
QI_VLP_XBREAK
      9359**DCL      9319--DCLINIT
QI_VLP_XBREAK.IC
      9359**DCL      9359--REDEF
QI_VLP_XBREAK.OLDIC
      9359**DCL      9360--REDEF    9360--REDEF
