VERSION E05

PL6.E3A0      #001=QQA$CGWARN File=QQA$CGWARN.:E05TSI                            WED 07/30/97 05:21 Page:1
        1        1        /*M* QQA$CGWARN - Process CGWARN messages */
        2        2        /*T***********************************************************/
        3        3        /*T*                                                         */
        4        4        /*T* Copyright (c) Bull HN Information Systems Inc., 1997    */
        5        5        /*T*                                                         */
        6        6        /*T***********************************************************/
        7        7        /*X* IND=2, DCI=4, CSU=2, ECU=4, DTI=2, CTI=4, AND */
        8        8        QQA$CGWARN:
        9        9                PROC;
       10       10
       11       11        %INCLUDE Q_PAGE_C;
       12       43        %SET LISTEXP = '1'B;
       13       44        %PAGE(ARG="Includes");

                61        /***************************************************************************
                62         *                                                                         *
                63         *                                  Includes                               *
                64         *                                                                         *
                65         ***************************************************************************/

       14       69        %INCLUDE CP_6;
       15      150        %INCLUDE B_ERRORS_C;
       16     1277        %INCLUDE QQ_SUPER_C;
       17     1332        %INCLUDE QQ_MACROS_C;
       18     1757        %INCLUDE QQ_DATA_R;
       19     2003        %INCLUDE QQ_SUBS_C;
       20     2195        %INCLUDE QQ_PERR_C;
       21     2356        %INCLUDE Q_ERRCODE_C;
       22     2379        %INCLUDE PC_MACRO_C;
       23     2405        %PC$INSTANCE(STCLASS="BASED(QQ_GLOBAL.PC$INSTANCE$)");
       24     2455        %PAGE(ARG="Externally defined routines");

              2472    1   /***************************************************************************
              2473    1    *                                                                         *
              2474    1    *                        Externally defined routines                      *
              2475    1    *                                                                         *
              2476    1    ***************************************************************************/
PL6.E3A0      #001=QQA$CGWARN File=QQA$CGWARN.:E05TSI                            WED 07/30/97 05:21 Page:2

       25     2480    1   DCL QQC$SCREECH ENTRY;
       26     2481    1   DCL QQC$BLDMSG_ERRBLK ENTRY(1);
       27     2482    1   DCL QQC$BLDMSG ENTRY(1);
       28     2483    1   DCL QQC$STOPTP ENTRY(1);
       29     2484        %PAGE(ARG="EQUs");

              2501    1   /***************************************************************************
              2502    1    *                                                                         *
              2503    1    *                                    EQUs                                 *
              2504    1    *                                                                         *
              2505    1    ***************************************************************************/

       30     2509        %EQU_CG;
       31     2557        %PAGE(ARG="Symrefs");

              2574    1   /***************************************************************************
              2575    1    *                                                                         *
              2576    1    *                                  Symrefs                                *
              2577    1    *                                                                         *
              2578    1    ***************************************************************************/

       32     2582    1   DCL B$TCB$ PTR SYMREF;
       33     2583        %PAGE(ARG="DCBs");

              2600    1   /***************************************************************************
              2601    1    *                                                                         *
              2602    1    *                                    DCBs                                 *
              2603    1    *                                                                         *
              2604    1    ***************************************************************************/

       34     2608    1   DCL M$CG DCB;
       35     2609        %PAGE(ARG="Based");

              2626    1   /***************************************************************************
              2627    1    *                                                                         *
              2628    1    *                                   Based                                 *
PL6.E3A0      #001=QQA$CGWARN File=QQA$CGWARN.:E05TSI                            WED 07/30/97 05:21 Page:3
              2629    1    *                                                                         *
              2630    1    ***************************************************************************/

       36     2634        %B$CGAURD(FPTN=B$CGAURD, STCLASS="BASED(QQ_GLOBAL.CMDBUF$)", LAST=", ");
       37     2653        %B$CGAUCI(LVL=2, LAST=", ");
       38     2675        %QQ$LOGON(LVL=2);
       39     2711        %B$TCB;
       40     2714        %B$ALT;
       41     2722        %PAGE(ARG="auto");

              2739    1   /***************************************************************************
              2740    1    *                                                                         *
              2741    1    *                                    auto                                 *
              2742    1    *                                                                         *
              2743    1    ***************************************************************************/

       42     2747        %PAGE(ARG="FPTs", PAGE=YES);

PL6.E3A0      #001=QQA$CGWARN File=QQA$CGWARN.:E05TSI                            WED 07/30/97 05:21 Page:4
              2764    1   /***************************************************************************
              2765    1    *                                                                         *
              2766    1    *                                    FPTs                                 *
              2767    1    *                                                                         *
              2768    1    ***************************************************************************/

       43     2772        %MSGBLK;
       44     2862        %FPT_CGINFO(DCB=M$CG, CGCP=VLP_CGCP);
       45     2882
       46     2883        %FPT_CGCTL(DCB=M$CG, CGCP=VLP_CGCP);
       47     2906
       48     2907        %FPT_EXTEND(DCB=M$CG);
       49     2921        %PAGE(ARG="VLPs");

              2938    1   /***************************************************************************
              2939    1    *                                                                         *
              2940    1    *                                    VLPs                                 *
              2941    1    *                                                                         *
              2942    1    ***************************************************************************/

       50     2946        %VLP_CGCP;
       51     2989        %PAGE(ARG="Error codes");

              3006    1   /***************************************************************************
              3007    1    *                                                                         *
              3008    1    *                                Error codes                              *
              3009    1    *                                                                         *
              3010    1    ***************************************************************************/

       52     3014        %ERRCODE(NAME=CODE_CGDISK, CODE#=%E$CGDISK, FCG#=%FCG_QQ, MID#=%MID_A);
       53     3021
       54     3022        /*E*       ERROR: QQA-E$CGDISK-C
       55     3023
       56     3024                 MESSAGE: Warning:  the comgroup disk space is being extended.
       57     3025             DESCRIPTION: When the comgroup runs low on disk space, we get
       58     3026                          a warning, so we can extend the comgroup disk space.
       59     3027                          We let the administrator know this.  It is possible
PL6.E3A0      #001=QQA$CGWARN File=QQA$CGWARN.:E05TSI                            WED 07/30/97 05:21 Page:5
       60     3028                          to run out of disk space altogether.
       61     3029        */
       62     3030        %PAGE(ARG="QQA$CGWARN", PAGE=YES);

PL6.E3A0      #001=QQA$CGWARN File=QQA$CGWARN.:E05TSI                            WED 07/30/97 05:21 Page:6
              3047    1   /***************************************************************************
              3048    1    *                                                                         *
              3049    1    *                                 QQA$CGWARN                              *
              3050    1    *                                                                         *
              3051    1    ***************************************************************************/

       63     3055    2           DO CASE(B$CGAURD.INFO);
       64     3056    2             CASE(2 /* CG_WARN_DISK# */);
       65     3057    2               FPT_EXTEND.V.SIZ# = QQ_GLOBAL.XTNSIZE;
       66     3058    2               CALL M$EXTEND(FPT_EXTEND) ALTRET(EXTEND_ERR);
       67     3059    2               CALL QQC$BLDMSG_ERRBLK(MSGBLK);
       68     3060    2               MSGBLK.ERRINFO.ERR(0)=CODE_CGDISK;
       69     3061    2               QQ_GLOBAL.ERROR_CNT=QQ_GLOBAL.ERROR_CNT-1;
       70     3062    2               CALL QQC$BLDMSG(MSGBLK);
       71     3063
       72     3064    3               DO WHILE ('0'B);
       73     3065    3   EXTEND_ERR:
       74     3066    3                 IF B$TCB$ -> B$TCB.ALT$ -> B$ALT.ERR.CODE ~= 142 /* E$ACGRANS */ THEN
       75     3067    3                   GOTO MON_ERR;
       76     3068    3                 QQ_GLOBAL.ERR = B$TCB$ -> B$TCB.ALT$ -> B$ALT.ERR;
       77     3069    3                 CALL QQC$STOPTP ('1'B);
       78     3070    3                 PC$INSTANCE.FLAGS.ACTIVE = '0'B;
       79     3071    3               END /* NEVER */;
       80     3072
       81     3073    2               QQ_GLOBAL.XTEND_CNT = QQ_GLOBAL.XTEND_CNT + 1;
       82     3074
       83     3075    2             CASE(1 /* CG_WARN_MEM# */);
       84     3076    2               CALL M$CGINFO(FPT_CGINFO) ALTRET(MON_ERR);
       85     3077    2               VLP_CGCP.MAXPG# = VLP_CGCP.MAXPG# + QQ_GLOBAL.CGPGXTNSIZE;
       86     3078    2               CALL M$CGCTL(FPT_CGCTL) ALTRET(MON_ERR);
       87     3079    2               QQ_GLOBAL.CGPGXTEND_CNT = QQ_GLOBAL.CGPGXTEND_CNT + 1;
       88     3080
       89     3081    2           END /* CASE */;
       90     3082
       91     3083    1           RETURN;
       92     3084
       93     3085    1   MON_ERR:
PL6.E3A0      #001=QQA$CGWARN File=QQA$CGWARN.:E05TSI                            WED 07/30/97 05:21 Page:7
       94     3086    1           QQ_GLOBAL.ERR = B$TCB$ -> B$TCB.ALT$ -> B$ALT.ERR;
       95     3087    1           CALL QQC$SCREECH;
       96     3088
       97     3089    1   END QQA$CGWARN;

PL6.E3A0      #001=QQA$CGWARN File=QQA$CGWARN.:E05TSI                            WED 07/30/97 05:21 Page:8
--  Include file information  --

   PC_MACRO_C.:E05TOU  is referenced.
   Q_ERRCODE_C.:E05TOU  is referenced.
   QQ_PERR_C.:E05TOU  is referenced.
   QQ_SUBS_C.:E05TOU  is referenced.
   QQ_DATA_R.:E05TOU  cannot be made into a system file and is referenced.
   QQ_MACROS_C.:E05TOU  is referenced.
   QQ_SUPER_C.:E05TOU  is referenced.
   B_ERRORS_C.:E05TOU  is referenced.
   CP_6.:E05TOU  cannot be made into a system file and is referenced.
   Q_PAGE_C.:E05TOU  is referenced.
   B$JIT_C.:E05TOU  was found in the system file and is never referenced.
   CP_6_C.:E05TOU  was found in the system file and is referenced.
      No diagnostics issued in procedure QQA$CGWARN.

   Procedure QQA$CGWARN requires 78 words for executable code.
   Procedure QQA$CGWARN requires 26 words of local(AUTO) storage.

    No errors detected in file QQA$CGWARN.:E05TSI    .

PL6.E3A0      #001=QQA$CGWARN File=QQA$CGWARN.:E05TSI                            WED 07/30/97 05:21 Page:9

 Object Unit name= QQA$CGWARN                                 File name= QQA$CGWARN.:E05TOU
 UTS= JUL 30 '97 05:21:01.80 WED                              Compiler= PL-6/E31         Sev=      00
 SharedLib= :SHARED_SYSTEM                                    Alt SharedLib=


    ****  Control sections  ****

 Sect   Type Bound  Init  Size OctSiz  Section name(segment info)
    0   DCB   even  none     0      0  M$UC
    1   DCB   even  none     0      0  M$CG
    2   Data  even  none   126    176  QQA$CGWARN
    3  RoData even  UTS      1      1  QQA$CGWARN
    4   Proc  even  none    78    116  QQA$CGWARN
    5  RoData even  none     1      1  QQA$CGWARN

    ****  Entry defs  ****

                              Check   Calling
                             calling  sequence
  Sect OctLoc Primary Altret sequence   type   Parms  Name
     4      0   yes            yes      Std        0  QQA$CGWARN

  ****  Entry refs  ****

         Check        Calling
        calling       sequence
Altret sequence SRef   type   Args  Name
         yes           Std       1 QQC$BLDMSG_ERRBLK
         yes           Std       1 QQC$BLDMSG
         yes           Std       0 QQC$SCREECH
         yes           Std       1 QQC$STOPTP
                       nStd      0 X66_AUTO_0
                       Std       0 B_CONSPOOL_D
                       nStd      0 X66_ARET
PL6.E3A0      #001=QQA$CGWARN File=QQA$CGWARN.:E05TSI                            WED 07/30/97 05:21 Page:10

  ****  Data refs  ****

  Flags:  r = read only, s = secondary
Flgs Name                             Flgs Name                             Flgs Name
     M$UC                                  QQ_GLOBAL                             B$TCB$
     M$CG                                  B_VECTNIL

  ****  Segment refs  ****

  Flags:  r = read only, s = secondary
Flgs Name                             Flgs Name                             Flgs Name
     ISSID                                 NULLSID
PL6.E3A0      #001=QQA$CGWARN File=QQA$CGWARN.:E05TSI                            WED 07/30/97 05:21 Page:11


        1        1        /*M* QQA$CGWARN - Process CGWARN messages */
        2        2        /*T***********************************************************/
        3        3        /*T*                                                         */
        4        4        /*T* Copyright (c) Bull HN Information Systems Inc., 1997    */
        5        5        /*T*                                                         */
        6        6        /*T***********************************************************/
        7        7        /*X* IND=2, DCI=4, CSU=2, ECU=4, DTI=2, CTI=4, AND */
        8        8        QQA$CGWARN:
        9        9                PROC;

      9  4 000000   000000 700200 xent  QQA$CGWARN   TSX0  ! X66_AUTO_0
         4 000001   000032 000000                    ZERO    26,0

       10       10
       11       11        %INCLUDE Q_PAGE_C;
       12       43        %SET LISTEXP = '1'B;
       13       44        %PAGE(ARG="Includes");

                61        /***************************************************************************
                62         *                                                                         *
                63         *                                  Includes                               *
                64         *                                                                         *
                65         ***************************************************************************/

       14       69        %INCLUDE CP_6;
       15      150        %INCLUDE B_ERRORS_C;
       16     1277        %INCLUDE QQ_SUPER_C;
       17     1332        %INCLUDE QQ_MACROS_C;
       18     1757        %INCLUDE QQ_DATA_R;
       19     2003        %INCLUDE QQ_SUBS_C;
       20     2195        %INCLUDE QQ_PERR_C;
       21     2356        %INCLUDE Q_ERRCODE_C;
       22     2379        %INCLUDE PC_MACRO_C;
       23     2405        %PC$INSTANCE(STCLASS="BASED(QQ_GLOBAL.PC$INSTANCE$)");
       24     2455        %PAGE(ARG="Externally defined routines");

PL6.E3A0      #001=QQA$CGWARN File=QQA$CGWARN.:E05TSI                            WED 07/30/97 05:21 Page:12
              2472    1   /***************************************************************************
              2473    1    *                                                                         *
              2474    1    *                        Externally defined routines                      *
              2475    1    *                                                                         *
              2476    1    ***************************************************************************/

       25     2480    1   DCL QQC$SCREECH ENTRY;
       26     2481    1   DCL QQC$BLDMSG_ERRBLK ENTRY(1);
       27     2482    1   DCL QQC$BLDMSG ENTRY(1);
       28     2483    1   DCL QQC$STOPTP ENTRY(1);
       29     2484        %PAGE(ARG="EQUs");

              2501    1   /***************************************************************************
              2502    1    *                                                                         *
              2503    1    *                                    EQUs                                 *
              2504    1    *                                                                         *
              2505    1    ***************************************************************************/

       30     2509        %EQU_CG;
       31     2557        %PAGE(ARG="Symrefs");

              2574    1   /***************************************************************************
              2575    1    *                                                                         *
              2576    1    *                                  Symrefs                                *
              2577    1    *                                                                         *
              2578    1    ***************************************************************************/

       32     2582    1   DCL B$TCB$ PTR SYMREF;
       33     2583        %PAGE(ARG="DCBs");

              2600    1   /***************************************************************************
              2601    1    *                                                                         *
              2602    1    *                                    DCBs                                 *
              2603    1    *                                                                         *
              2604    1    ***************************************************************************/

       34     2608    1   DCL M$CG DCB;
PL6.E3A0      #001=QQA$CGWARN File=QQA$CGWARN.:E05TSI                            WED 07/30/97 05:21 Page:13
       35     2609        %PAGE(ARG="Based");

              2626    1   /***************************************************************************
              2627    1    *                                                                         *
              2628    1    *                                   Based                                 *
              2629    1    *                                                                         *
              2630    1    ***************************************************************************/

       36     2634        %B$CGAURD(FPTN=B$CGAURD, STCLASS="BASED(QQ_GLOBAL.CMDBUF$)", LAST=", ");
       37     2653        %B$CGAUCI(LVL=2, LAST=", ");
       38     2675        %QQ$LOGON(LVL=2);
       39     2711        %B$TCB;
       40     2714        %B$ALT;
       41     2722        %PAGE(ARG="auto");

              2739    1   /***************************************************************************
              2740    1    *                                                                         *
              2741    1    *                                    auto                                 *
              2742    1    *                                                                         *
              2743    1    ***************************************************************************/

       42     2747        %PAGE(ARG="FPTs", PAGE=YES);

PL6.E3A0      #001=QQA$CGWARN File=QQA$CGWARN.:E05TSI                            WED 07/30/97 05:21 Page:14
              2764    1   /***************************************************************************
              2765    1    *                                                                         *
              2766    1    *                                    FPTs                                 *
              2767    1    *                                                                         *
              2768    1    ***************************************************************************/

       43     2772        %MSGBLK;
       44     2862        %FPT_CGINFO(DCB=M$CG, CGCP=VLP_CGCP);
       45     2882
       46     2883        %FPT_CGCTL(DCB=M$CG, CGCP=VLP_CGCP);
       47     2906
       48     2907        %FPT_EXTEND(DCB=M$CG);
       49     2921        %PAGE(ARG="VLPs");

              2938    1   /***************************************************************************
              2939    1    *                                                                         *
              2940    1    *                                    VLPs                                 *
              2941    1    *                                                                         *
              2942    1    ***************************************************************************/

       50     2946        %VLP_CGCP;
       51     2989        %PAGE(ARG="Error codes");

              3006    1   /***************************************************************************
              3007    1    *                                                                         *
              3008    1    *                                Error codes                              *
              3009    1    *                                                                         *
              3010    1    ***************************************************************************/

       52     3014        %ERRCODE(NAME=CODE_CGDISK, CODE#=%E$CGDISK, FCG#=%FCG_QQ, MID#=%MID_A);
       53     3021
       54     3022        /*E*       ERROR: QQA-E$CGDISK-C
       55     3023
       56     3024                 MESSAGE: Warning:  the comgroup disk space is being extended.
       57     3025             DESCRIPTION: When the comgroup runs low on disk space, we get
       58     3026                          a warning, so we can extend the comgroup disk space.
       59     3027                          We let the administrator know this.  It is possible
PL6.E3A0      #001=QQA$CGWARN File=QQA$CGWARN.:E05TSI                            WED 07/30/97 05:21 Page:15
       60     3028                          to run out of disk space altogether.
       61     3029        */
       62     3030        %PAGE(ARG="QQA$CGWARN", PAGE=YES);

PL6.E3A0      #001=QQA$CGWARN File=QQA$CGWARN.:E05TSI                            WED 07/30/97 05:21 Page:16
              3047    1   /***************************************************************************
              3048    1    *                                                                         *
              3049    1    *                                 QQA$CGWARN                              *
              3050    1    *                                                                         *
              3051    1    ***************************************************************************/

       63     3055    2           DO CASE(B$CGAURD.INFO);

   3055  4 000002   000052 470400 xsym               LDP0    QQ_GLOBAL+42
         4 000003   000003 235100                    LDA     3,,PR0
         4 000004   000003 115007                    CMPA    3,DL
         4 000005   000007 602005 4                  TNC     s:3055+5,AL
         4 000006   000105 710000 4                  TRA     s:3083
         4 000007   000105 710000 4                  TRA     s:3083
         4 000010   000065 710000 4                  TRA     s:3076
         4 000011   000012 710000 4                  TRA     s:3057

       64     3056    2             CASE(2 /* CG_WARN_DISK# */);

       65     3057    2               FPT_EXTEND.V.SIZ# = QQ_GLOBAL.XTNSIZE;

   3057  4 000012   000062 720000 xsym               LXL0    QQ_GLOBAL+50
         4 000013   000150 440000 2                  SXL0    FPT_EXTEND+2

       66     3058    2               CALL M$EXTEND(FPT_EXTEND) ALTRET(EXTEND_ERR);

   3058  4 000014   000146 630400 2                  EPPR0   FPT_EXTEND
         4 000015   440005 713400                    CLIMB   alt,+16389
         4 000016   400000 401760                    pmme    nvectors=1
         4 000017   000042 702000 4                  TSX2    EXTEND_ERR

       67     3059    2               CALL QQC$BLDMSG_ERRBLK(MSGBLK);

   3059  4 000020   200003 630500                    EPPR0   MSGBLK,,AUTO
         4 000021   200030 450500                    STP0    MSGBLK+21,,AUTO
         4 000022   200030 630500                    EPPR0   MSGBLK+21,,AUTO
         4 000023   000017 631400 xsym               EPPR1   B_VECTNIL+15
PL6.E3A0      #001=QQA$CGWARN File=QQA$CGWARN.:E05TSI                            WED 07/30/97 05:21 Page:17
         4 000024   000000 701000 xent               TSX1    QQC$BLDMSG_ERRBLK
         4 000025   000000 011000                    NOP     0

       68     3060    2               MSGBLK.ERRINFO.ERR(0)=CODE_CGDISK;

   3060  4 000026   000000 236000 3                  LDQ     CODE_CGDISK
         4 000027   200011 756100                    STQ     MSGBLK+6,,AUTO

       69     3061    2               QQ_GLOBAL.ERROR_CNT=QQ_GLOBAL.ERROR_CNT-1;

   3061  4 000030   000040 235000 xsym               LDA     QQ_GLOBAL+32
         4 000031   000001 135007                    SBLA    1,DL
         4 000032   000040 755000 xsym               STA     QQ_GLOBAL+32

       70     3062    2               CALL QQC$BLDMSG(MSGBLK);

   3062  4 000033   200003 630500                    EPPR0   MSGBLK,,AUTO
         4 000034   200030 450500                    STP0    MSGBLK+21,,AUTO
         4 000035   200030 630500                    EPPR0   MSGBLK+21,,AUTO
         4 000036   000017 631400 xsym               EPPR1   B_VECTNIL+15
         4 000037   000000 701000 xent               TSX1    QQC$BLDMSG
         4 000040   000000 011000                    NOP     0

       71     3063
       72     3064    3               DO WHILE ('0'B);

   3064  4 000041   000061 710000 4                  TRA     s:3073

       73     3065    3   EXTEND_ERR:
       74     3066    3                 IF B$TCB$ -> B$TCB.ALT$ -> B$ALT.ERR.CODE ~= 142 /* E$ACGRANS */ THEN

   3066  4 000042   000000 470400 xsym  EXTEND_ERR   LDP0    B$TCB$
         4 000043   000000 471500                    LDP1    0,,PR0
         4 000044   100102 236100                    LDQ     66,,PR1
         4 000045   377770 376007                    ANQ     131064,DL
         4 000046   002160 116007                    CMPQ    1136,DL
         4 000047   000106 601000 4                  TNZ     MON_ERR
PL6.E3A0      #001=QQA$CGWARN File=QQA$CGWARN.:E05TSI                            WED 07/30/97 05:21 Page:18

       75     3067    3                   GOTO MON_ERR;
       76     3068    3                 QQ_GLOBAL.ERR = B$TCB$ -> B$TCB.ALT$ -> B$ALT.ERR;

   3068  4 000050   100102 236100                    LDQ     66,,PR1
         4 000051   000000 756000 xsym               STQ     QQ_GLOBAL

       77     3069    3                 CALL QQC$STOPTP ('1'B);

   3069  4 000052   000000 630400 5                  EPPR0   0
         4 000053   000017 631400 xsym               EPPR1   B_VECTNIL+15
         4 000054   000000 701000 xent               TSX1    QQC$STOPTP
         4 000055   000000 011000                    NOP     0

       78     3070    3                 PC$INSTANCE.FLAGS.ACTIVE = '0'B;

   3070  4 000056   000154 470400 xsym               LDP0    QQ_GLOBAL+108
         4 000057   000031 236000 xsym               LDQ     B_VECTNIL+25
         4 000060   000003 356100                    ANSQ    3,,PR0

       79     3071    3               END /* NEVER */;

       80     3072
       81     3073    2               QQ_GLOBAL.XTEND_CNT = QQ_GLOBAL.XTEND_CNT + 1;

   3073  4 000061   000034 235000 xsym               LDA     QQ_GLOBAL+28
         4 000062   000001 035007                    ADLA    1,DL
         4 000063   000034 755000 xsym               STA     QQ_GLOBAL+28
         4 000064   000105 710000 4                  TRA     s:3083

       82     3074
       83     3075    2             CASE(1 /* CG_WARN_MEM# */);

       84     3076    2               CALL M$CGINFO(FPT_CGINFO) ALTRET(MON_ERR);

   3076  4 000065   000000 630400 2                  EPPR0   FPT_CGINFO
         4 000066   500004 713400                    CLIMB   alt,+32772
PL6.E3A0      #001=QQA$CGWARN File=QQA$CGWARN.:E05TSI                            WED 07/30/97 05:21 Page:19
         4 000067   411400 401760                    pmme    nvectors=20
         4 000070   000106 702000 4                  TSX2    MON_ERR

       85     3077    2               VLP_CGCP.MAXPG# = VLP_CGCP.MAXPG# + QQ_GLOBAL.CGPGXTNSIZE;

   3077  4 000071   000160 236000 2                  LDQ     VLP_CGCP+6
         4 000072   000022 772000                    QRL     18
         4 000073   000063 036000 xsym               ADLQ    QQ_GLOBAL+51
         4 000074   000000 620006                    EAX0    0,QL
         4 000075   000160 740000 2                  STX0    VLP_CGCP+6

       86     3078    2               CALL M$CGCTL(FPT_CGCTL) ALTRET(MON_ERR);

   3078  4 000076   000062 630400 2                  EPPR0   FPT_CGCTL
         4 000077   500003 713400                    CLIMB   alt,+32771
         4 000100   411400 401760                    pmme    nvectors=20
         4 000101   000106 702000 4                  TSX2    MON_ERR

       87     3079    2               QQ_GLOBAL.CGPGXTEND_CNT = QQ_GLOBAL.CGPGXTEND_CNT + 1;

   3079  4 000102   000035 235000 xsym               LDA     QQ_GLOBAL+29
         4 000103   000001 035007                    ADLA    1,DL
         4 000104   000035 755000 xsym               STA     QQ_GLOBAL+29

       88     3080
       89     3081    2           END /* CASE */;

       90     3082
       91     3083    1           RETURN;

   3083  4 000105   000000 702200 xent               TSX2  ! X66_ARET

       92     3084
       93     3085    1   MON_ERR:
       94     3086    1           QQ_GLOBAL.ERR = B$TCB$ -> B$TCB.ALT$ -> B$ALT.ERR;

   3086  4 000106   000000 470400 xsym  MON_ERR      LDP0    B$TCB$
PL6.E3A0      #001=QQA$CGWARN File=QQA$CGWARN.:E05TSI                            WED 07/30/97 05:21 Page:20
         4 000107   000000 471500                    LDP1    0,,PR0
         4 000110   100102 236100                    LDQ     66,,PR1
         4 000111   000000 756000 xsym               STQ     QQ_GLOBAL

       95     3087    1           CALL QQC$SCREECH;

   3087  4 000112   000002 631400 xsym               EPPR1   B_VECTNIL+2
         4 000113   000000 701000 xent               TSX1    QQC$SCREECH
         4 000114   000000 011000                    NOP     0

       96     3088
       97     3089    1   END QQA$CGWARN;

   3089  4 000115   000000 702200 xent               TSX2  ! X66_ARET

PL6.E3A0      #001=QQA$CGWARN File=QQA$CGWARN.:E05TSI                            WED 07/30/97 05:21 Page:21
--  Include file information  --

   PC_MACRO_C.:E05TOU  is referenced.
   Q_ERRCODE_C.:E05TOU  is referenced.
   QQ_PERR_C.:E05TOU  is referenced.
   QQ_SUBS_C.:E05TOU  is referenced.
   QQ_DATA_R.:E05TOU  cannot be made into a system file and is referenced.
   QQ_MACROS_C.:E05TOU  is referenced.
   QQ_SUPER_C.:E05TOU  is referenced.
   B_ERRORS_C.:E05TOU  is referenced.
   CP_6.:E05TOU  cannot be made into a system file and is referenced.
   Q_PAGE_C.:E05TOU  is referenced.
   B$JIT_C.:E05TOU  was found in the system file and is never referenced.
   CP_6_C.:E05TOU  was found in the system file and is referenced.
      No diagnostics issued in procedure QQA$CGWARN.
PL6.E3A0      #001=QQA$CGWARN File=QQA$CGWARN.:E05TSI                            WED 07/30/97 05:21 Page:22

 **** Variables and constants ****

  ****  Section 002  Data  QQA$CGWARN

  ****  Scalars and arrays  ****
OctLoc.c.b A Datatyp(siz) R M Lvl/name                 OctLoc.c.b A Datatyp(siz) R M Lvl/name

    62-0-0/d STRC(1872)  r     1 FPT_CGCTL                  0-0-0/d STRC(1800)  r     1 FPT_CGINFO
   146-0-0/d STRC(144)   r     1 FPT_EXTEND               152-0-0/d STRC(720)   r     1 VLP_CGCP

  ****  Section 003 RoData QQA$CGWARN

  ****  Scalars and arrays  ****
OctLoc.c.b A Datatyp(siz) R M Lvl/name                 OctLoc.c.b A Datatyp(siz) R M Lvl/name

     0-0-0/b STRC        r     1 CODE_CGDISK

  ****  Auto variables  ****

  ****  Scalars and arrays  ****
OctLoc.c.b A Datatyp(siz) R M Lvl/name                 OctLoc.c.b A Datatyp(siz) R M Lvl/name

     3-0-0/w STRC(738)   r     1 MSGBLK

  ****  SYMREF variables  ****

  ****  Scalars and arrays  ****
OctLoc.c.b A Datatyp(siz) R M Lvl/name                 OctLoc.c.b A Datatyp(siz) R M Lvl/name

     0-0-0/w PTR         r     1 B$TCB$                     0-0-0/d STRC(9090)  r     1 QQ_GLOBAL

  ****  BASED and DCB variables  ****

  ****  Scalars and arrays  ****
OctLoc.c.b A Datatyp(siz) R M Lvl/name                 OctLoc.c.b A Datatyp(siz) R M Lvl/name

     0-0-0/w STRC(2448)  r     1 B$ALT                      0-0-0/w STRC(1548)  r     1 B$CGAURD
PL6.E3A0      #001=QQA$CGWARN File=QQA$CGWARN.:E05TSI                            WED 07/30/97 05:21 Page:23
     0-0-0/w STRC(144)   r     1 B$TCB                      0-0-0N  NULL        r     1 M$CG
     0-0-0/w STRC(2700)  r     1 PC$INSTANCE


   Procedure QQA$CGWARN requires 78 words for executable code.
   Procedure QQA$CGWARN requires 26 words of local(AUTO) storage.

    No errors detected in file QQA$CGWARN.:E05TSI    .
PL6.E3A0      #001=QQA$CGWARN File=QQA$CGWARN.:E05TSI                            WED 07/30/97 05:21 Page:24
          *** CROSS REFERENCE LISTING ***
**     DENOTES     IDENTIFIER DEFINITION
<<                 IDENTIFIER'S VALUE SET
>>                 IDENTIFIER'S VALUE USED
<>                 IDENTIFIER SET AND/OR USED
--                 IDENTIFIER REFERENCED
PL6.E3A0      #001=QQA$CGWARN File=QQA$CGWARN.:E05TSI                            WED 07/30/97 05:21 Page:25
          MINI XREF LISTING

B$ALT.CODE
      2716**DCL      2716--REDEF    2717--REDEF    2717--REDEF
B$ALT.ERR
      2717**DCL      3068>>ASSIGN   3086>>ASSIGN
B$ALT.ERR.CODE
      2718**DCL      3066>>IF
B$ALT.ERR.ERR#
      2718**DCL      2718--REDEF
B$ALT.EVID
      2717**DCL      2717--REDEF    2717--REDEF
B$CGAURD.B$CGAUCI.ATTR
      2672**DCL      2672--REDEF
B$CGAURD.INFO
      2651**DCL      3055>>DOCASE
B$CGAURD.STATION
      2650**DCL      2650--REDEF
B$TCB.ALT$
      2712**DCL      3066>>IF       3068>>ASSIGN   3086>>ASSIGN
B$TCB$
      2582**DCL      3066>>IF       3068>>ASSIGN   3086>>ASSIGN
CODE_CGDISK
      3015**DCL      3060>>ASSIGN
EXTEND_ERR
      3066**LABEL    3058--CALLALT
FPT_CGCTL
      2894**DCL      3078<>CALL
FPT_CGCTL.V
      2899**DCL      2894--DCLINIT
FPT_CGINFO
      2873**DCL      3076<>CALL
FPT_CGINFO.V
      2878**DCL      2873--DCLINIT
PL6.E3A0      #001=QQA$CGWARN File=QQA$CGWARN.:E05TSI                            WED 07/30/97 05:21 Page:26
FPT_EXTEND
      2918**DCL      3058<>CALL
FPT_EXTEND.V
      2918**DCL      2918--DCLINIT
FPT_EXTEND.V.SIZ#
      2919**DCL      3057<<ASSIGN
M$CGCTL
        99**DCL-ENT  3078--CALL
M$CGINFO
        99**DCL-ENT  3076--CALL
M$EXTEND
        82**DCL-ENT  3058--CALL
MON_ERR
      3086**LABEL    3067--GOTO     3076--CALLALT  3078--CALLALT
MSGBLK
      2773**DCL      3059<>CALL     3062<>CALL
MSGBLK.ERRINFO.ERR
      2851**DCL      3060<<ASSIGN
PC$INSTANCE.FLAGS.ACTIVE
      2410**DCL      3070<<ASSIGN
QQC$BLDMSG
      2482**DCL-ENT  3062--CALL
QQC$BLDMSG_ERRBLK
      2481**DCL-ENT  3059--CALL
QQC$SCREECH
      2480**DCL-ENT  3087--CALL
QQC$STOPTP
      2483**DCL-ENT  3069--CALL
QQ_GLOBAL.CGPGXTEND_CNT
      1772**DCL      3079<<ASSIGN   3079>>ASSIGN
QQ_GLOBAL.CGPGXTNSIZE
      1776**DCL      3077>>ASSIGN
QQ_GLOBAL.CMDBUF$
      1774**DCL      2646--IMP-PTR  3055>>DOCASE
QQ_GLOBAL.DS1$_BITS
      1777**DCL      1777--REDEF
PL6.E3A0      #001=QQA$CGWARN File=QQA$CGWARN.:E05TSI                            WED 07/30/97 05:21 Page:27
QQ_GLOBAL.DS2$_BITS
      1777**DCL      1778--REDEF
QQ_GLOBAL.DS3$_BITS
      1778**DCL      1778--REDEF
QQ_GLOBAL.DS4$_BITS
      1778**DCL      1779--REDEF
QQ_GLOBAL.ERR
      1767**DCL      3068<<ASSIGN   3086<<ASSIGN
QQ_GLOBAL.ERROR_CNT
      1773**DCL      3061<<ASSIGN   3061>>ASSIGN
QQ_GLOBAL.PC$INSTANCE$
      1779**DCL      2406--IMP-PTR  3070>>ASSIGN
QQ_GLOBAL.XTEND_CNT
      1772**DCL      3073<<ASSIGN   3073>>ASSIGN
QQ_GLOBAL.XTNSIZE
      1776**DCL      3057>>ASSIGN
VLP_CGCP
      2958**DCL      2874--DCLINIT  2895--DCLINIT
VLP_CGCP.DVBYTE.REREAD#
      2972**DCL      2973--REDEF
VLP_CGCP.MAXPG#
      2964**DCL      3077<<ASSIGN   3077>>ASSIGN
