VERSION E05

PL6.E3A0      #001=QQA$EVENT File=QQA$EVENT.:E05TSI                              WED 07/30/97 05:22 Page:1
        1        1        /*M* QQA$EVENT - TPA event receiver */
        2        2        /*T***********************************************************/
        3        3        /*T*                                                         */
        4        4        /*T* Copyright (c) Bull HN Information Systems Inc., 1997    */
        5        5        /*T*                                                         */
        6        6        /*T***********************************************************/
        7        7        /*X* IND=2, DCI=4, CSU=2, ECU=4, DTI=2, CTI=4, AND */
        8        8        QQA$EVENT:
        9        9                PROC ASYNC NOAUTO;
       10       10
       11       11        %INCLUDE Q_PAGE_C;
       12       43        %SET LISTEXP = '1'B;
       13       44        %PAGE(ARG="Includes");

                61        /***************************************************************************
                62         *                                                                         *
                63         *                                  Includes                               *
                64         *                                                                         *
                65         ***************************************************************************/

       14       69        %INCLUDE CP_6;
       15      150        %INCLUDE OC_SUBS_C;
       16      881        %INCLUDE QQ_MACROS_C;
       17     1306        %INCLUDE QQ_PERR_C;
       18     1467        %INCLUDE Q_ERRCODE_C;
       19     1490        %INCLUDE QQ_DATA_R;
       20     1736        %PAGE(ARG="Externally defined routines");

              1753    1   /***************************************************************************
              1754    1    *                                                                         *
              1755    1    *                        Externally defined routines                      *
              1756    1    *                                                                         *
              1757    1    ***************************************************************************/

       21     1761    1   DCL QQC$GET_BLK ENTRY(3) ALTRET;
       22     1762    1   DCL QQC$SCREECH ENTRY;
       23     1763        %PAGE(ARG="Symrefs");
PL6.E3A0      #001=QQA$EVENT File=QQA$EVENT.:E05TSI                              WED 07/30/97 05:22 Page:2

              1780    1   /***************************************************************************
              1781    1    *                                                                         *
              1782    1    *                                  Symrefs                                *
              1783    1    *                                                                         *
              1784    1    ***************************************************************************/

       24     1788    1   DCL B$TCB$ PTR SYMREF;
       25     1789        %PAGE(ARG="Based");

              1806    1   /***************************************************************************
              1807    1    *                                                                         *
              1808    1    *                                   Based                                 *
              1809    1    *                                                                         *
              1810    1    ***************************************************************************/

       26     1814        %B$TCB;
       27     1817        %B$NWIO(NAME=B$NWIO, STCLASS=BASED, PARONLY=0);
       28     1902        %TP$EVENT;
       29     1971
       30     1972    1   DCL CHAR$STRING CHAR(CHAR_STRING_SIZE) BASED;
       31     1973        %PAGE(ARG="Static");

              1990    1   /***************************************************************************
              1991    1    *                                                                         *
              1992    1    *                                   Static                                *
              1993    1    *                                                                         *
              1994    1    ***************************************************************************/

       32     1998    1   DCL P$ PTR STATIC;
       33     1999    1   DCL STK$ PTR STATIC;
       34     2000    1   DCL NEW$ PTR STATIC;
       35     2001    1   DCL TAIL$ PTR STATIC;
       36     2002
       37     2003    1   DCL CHAR_STRING_SIZE UBIN WORD STATIC;
       38     2004
       39     2005        %MSGBLK(STCLASS=STATIC);
PL6.E3A0      #001=QQA$EVENT File=QQA$EVENT.:E05TSI                              WED 07/30/97 05:22 Page:3
       40     2095        %PAGE(ARG="Error codes", PAGE=YES);

PL6.E3A0      #001=QQA$EVENT File=QQA$EVENT.:E05TSI                              WED 07/30/97 05:22 Page:4
              2112    1   /***************************************************************************
              2113    1    *                                                                         *
              2114    1    *                                Error codes                              *
              2115    1    *                                                                         *
              2116    1    ***************************************************************************/

       41     2120        %ERRCODE(NAME=CODE_NO_POOLMEM, CODE#=%E$NO_POOLMEM, FCG#=%FCG_QQ, MID#=%MID_A);
       42     2127        %PAGE(ARG="QQA$EVENT", PAGE=YES);

PL6.E3A0      #001=QQA$EVENT File=QQA$EVENT.:E05TSI                              WED 07/30/97 05:22 Page:5
              2144    1   /***************************************************************************
              2145    1    *                                                                         *
              2146    1    *                                 QQA$EVENT                               *
              2147    1    *                                                                         *
              2148    1    ***************************************************************************/

       43     2152    2           DO INHIBIT;
       44     2153    2             CALL QQC$GET_BLK(QQ_GLOBAL.POOL$, SIZEW(TP$EVENT), NEW$) ALTRET(NO_MEM);
       45     2154    2             TAIL$ = QQ_GLOBAL.EVENT$ -> TP$EVENT.BLINK$;
       46     2155    2             NEW$ -> TP$EVENT.FLINK$ = TAIL$;
       47     2156    2             NEW$ -> TP$EVENT.BLINK$ = TAIL$ -> TP$EVENT.BLINK$;
       48     2157    2             TAIL$ -> TP$EVENT.BLINK$ -> TP$EVENT.FLINK$ = NEW$;
       49     2158    2             TAIL$ -> TP$EVENT.BLINK$ = NEW$;
       50     2159    2             QQ_GLOBAL.EVENT_DEPTH = QQ_GLOBAL.EVENT_DEPTH + 1;
       51     2160    2             STK$ = B$TCB$ -> B$TCB.STK$;
       52     2161    3             DO CASE(STK$ -> B$NWIO.EVID);
       53     2162    3               CASE(1 /* CG_READ */, 2 /* CSCG_READ */, 3 /* DEBUGCMD_READ */);
       54     2163    3                 P$ = PINCRW(STK$, SIZEW(B$NWIO.SSFRAME));
       55     2164    3                 CHAR_STRING_SIZE = SIZEC(TP$EVENT) - 8;
       56     2165    3                 PINCRW(NEW$, 2) -> CHAR$STRING = P$ -> CHAR$STRING;
       57     2166    3             END /* CASE */;
       58     2167    2           END /* INHIBIT */;
       59     2168    1           RETURN;
       60     2169
       61     2170    1   NO_MEM:
       62     2171    1           QQ_GLOBAL.ERR = CODE_NO_POOLMEM;
       63     2172    1           CALL QQC$SCREECH;
       64     2173    1   END QQA$EVENT;

PL6.E3A0      #001=QQA$EVENT File=QQA$EVENT.:E05TSI                              WED 07/30/97 05:22 Page:6
--  Include file information  --

   QQ_DATA_R.:E05TOU  cannot be made into a system file and is referenced.
   Q_ERRCODE_C.:E05TOU  is referenced.
   QQ_PERR_C.:E05TOU  is referenced.
   QQ_MACROS_C.:E05TOU  is referenced.
   OC_SUBS_C.:E05TOU  is referenced.
   CP_6.:E05TOU  cannot be made into a system file and is referenced.
   Q_PAGE_C.:E05TOU  is referenced.
   B$JIT_C.:E05TOU  was found in the system file and is never referenced.
   CP_6_C.:E05TOU  was found in the system file and is referenced.
      No diagnostics issued in procedure QQA$EVENT.

   Procedure QQA$EVENT requires 53 words for executable code.
   Procedure QQA$EVENT is declared NOAUTO and requires 28 words of local(STATIC) storage.

    No errors detected in file QQA$EVENT.:E05TSI    .

PL6.E3A0      #001=QQA$EVENT File=QQA$EVENT.:E05TSI                              WED 07/30/97 05:22 Page:7

 Object Unit name= QQA$EVENT                                  File name= QQA$EVENT.:E05TOU
 UTS= JUL 30 '97 05:22:53.76 WED                              Compiler= PL-6/E31         Sev=      00
 SharedLib= :SHARED_SYSTEM                                    Alt SharedLib=


    ****  Control sections  ****

 Sect   Type Bound  Init  Size OctSiz  Section name(segment info)
    0   Data  even  none    28     34  QQA$EVENT
    1   DCB   even  none     0      0  M$UC
    2  RoData even  UTS      1      1  QQA$EVENT
    3   Proc  even  none    53     65  QQA$EVENT
    4  RoData even  none     4      4  QQA$EVENT

    ****  Entry defs  ****

                              Check   Calling
                             calling  sequence
  Sect OctLoc Primary Altret sequence   type   Parms  Name
     3      0   yes            yes     Async       0  QQA$EVENT

  ****  Entry refs  ****

         Check        Calling
        calling       sequence
Altret sequence SRef   type   Args  Name
 yes     yes           Std       3 QQC$GET_BLK
         yes           Std       0 QQC$SCREECH
                       nStd      0 X66_ASTATIC
                       Std       0 B_CONSPOOL_D
                       nStd      0 X66_ASRET
PL6.E3A0      #001=QQA$EVENT File=QQA$EVENT.:E05TSI                              WED 07/30/97 05:22 Page:8

  ****  Data refs  ****

  Flags:  r = read only, s = secondary
Flgs Name                             Flgs Name                             Flgs Name
     M$UC                                  QQ_GLOBAL                             B$TCB$
     B_VECTNIL

  ****  Segment refs  ****

  Flags:  r = read only, s = secondary
Flgs Name                             Flgs Name                             Flgs Name
     ISSID
PL6.E3A0      #001=QQA$EVENT File=QQA$EVENT.:E05TSI                              WED 07/30/97 05:22 Page:9


        1        1        /*M* QQA$EVENT - TPA event receiver */
        2        2        /*T***********************************************************/
        3        3        /*T*                                                         */
        4        4        /*T* Copyright (c) Bull HN Information Systems Inc., 1997    */
        5        5        /*T*                                                         */
        6        6        /*T***********************************************************/
        7        7        /*X* IND=2, DCI=4, CSU=2, ECU=4, DTI=2, CTI=4, AND */
        8        8        QQA$EVENT:
        9        9                PROC ASYNC NOAUTO;

      9  3 000000   000000 700200 xent  QQA$EVENT    TSX0  ! X66_ASTATIC
         3 000001   000000 000000 0                  ZERO    0,0

       10       10
       11       11        %INCLUDE Q_PAGE_C;
       12       43        %SET LISTEXP = '1'B;
       13       44        %PAGE(ARG="Includes");

                61        /***************************************************************************
                62         *                                                                         *
                63         *                                  Includes                               *
                64         *                                                                         *
                65         ***************************************************************************/

       14       69        %INCLUDE CP_6;
       15      150        %INCLUDE OC_SUBS_C;
       16      881        %INCLUDE QQ_MACROS_C;
       17     1306        %INCLUDE QQ_PERR_C;
       18     1467        %INCLUDE Q_ERRCODE_C;
       19     1490        %INCLUDE QQ_DATA_R;
       20     1736        %PAGE(ARG="Externally defined routines");

              1753    1   /***************************************************************************
              1754    1    *                                                                         *
              1755    1    *                        Externally defined routines                      *
              1756    1    *                                                                         *
PL6.E3A0      #001=QQA$EVENT File=QQA$EVENT.:E05TSI                              WED 07/30/97 05:22 Page:10
              1757    1    ***************************************************************************/

       21     1761    1   DCL QQC$GET_BLK ENTRY(3) ALTRET;
       22     1762    1   DCL QQC$SCREECH ENTRY;
       23     1763        %PAGE(ARG="Symrefs");

              1780    1   /***************************************************************************
              1781    1    *                                                                         *
              1782    1    *                                  Symrefs                                *
              1783    1    *                                                                         *
              1784    1    ***************************************************************************/

       24     1788    1   DCL B$TCB$ PTR SYMREF;
       25     1789        %PAGE(ARG="Based");

              1806    1   /***************************************************************************
              1807    1    *                                                                         *
              1808    1    *                                   Based                                 *
              1809    1    *                                                                         *
              1810    1    ***************************************************************************/

       26     1814        %B$TCB;
       27     1817        %B$NWIO(NAME=B$NWIO, STCLASS=BASED, PARONLY=0);
       28     1902        %TP$EVENT;
       29     1971
       30     1972    1   DCL CHAR$STRING CHAR(CHAR_STRING_SIZE) BASED;
       31     1973        %PAGE(ARG="Static");

              1990    1   /***************************************************************************
              1991    1    *                                                                         *
              1992    1    *                                   Static                                *
              1993    1    *                                                                         *
              1994    1    ***************************************************************************/

       32     1998    1   DCL P$ PTR STATIC;
       33     1999    1   DCL STK$ PTR STATIC;
       34     2000    1   DCL NEW$ PTR STATIC;
PL6.E3A0      #001=QQA$EVENT File=QQA$EVENT.:E05TSI                              WED 07/30/97 05:22 Page:11
       35     2001    1   DCL TAIL$ PTR STATIC;
       36     2002
       37     2003    1   DCL CHAR_STRING_SIZE UBIN WORD STATIC;
       38     2004
       39     2005        %MSGBLK(STCLASS=STATIC);
       40     2095        %PAGE(ARG="Error codes", PAGE=YES);

PL6.E3A0      #001=QQA$EVENT File=QQA$EVENT.:E05TSI                              WED 07/30/97 05:22 Page:12
              2112    1   /***************************************************************************
              2113    1    *                                                                         *
              2114    1    *                                Error codes                              *
              2115    1    *                                                                         *
              2116    1    ***************************************************************************/

       41     2120        %ERRCODE(NAME=CODE_NO_POOLMEM, CODE#=%E$NO_POOLMEM, FCG#=%FCG_QQ, MID#=%MID_A);
       42     2127        %PAGE(ARG="QQA$EVENT", PAGE=YES);

PL6.E3A0      #001=QQA$EVENT File=QQA$EVENT.:E05TSI                              WED 07/30/97 05:22 Page:13
              2144    1   /***************************************************************************
              2145    1    *                                                                         *
              2146    1    *                                 QQA$EVENT                               *
              2147    1    *                                                                         *
              2148    1    ***************************************************************************/

       43     2152    2           DO INHIBIT;

       44     2153    2             CALL QQC$GET_BLK(QQ_GLOBAL.POOL$, SIZEW(TP$EVENT), NEW$) ALTRET(NO_MEM);

   2153  3 000002   000001 630600 4                  EPPR0 ! 1
         3 000003   000021 631600 xsym               EPPR1 ! B_VECTNIL+17
         3 000004   000000 701200 xent               TSX1  ! QQC$GET_BLK
         3 000005   000057 702200 3                  TSX2  ! NO_MEM

       45     2154    2             TAIL$ = QQ_GLOBAL.EVENT$ -> TP$EVENT.BLINK$;

   2154  3 000006   000051 470600 xsym               LDP0  ! QQ_GLOBAL+41
         3 000007   000000 236300                    LDQ   ! 0,,PR0
         3 000010   000004 756200 0                  STQ   ! TAIL$

       46     2155    2             NEW$ -> TP$EVENT.FLINK$ = TAIL$;

   2155  3 000011   000003 471600 0                  LDP1  ! NEW$
         3 000012   100001 756300                    STQ   ! 1,,PR1

       47     2156    2             NEW$ -> TP$EVENT.BLINK$ = TAIL$ -> TP$EVENT.BLINK$;

   2156  3 000013   000004 470600 0                  LDP0  ! TAIL$
         3 000014   000000 236300                    LDQ   ! 0,,PR0
         3 000015   000003 471600 0                  LDP1  ! NEW$
         3 000016   100000 756300                    STQ   ! 0,,PR1

       48     2157    2             TAIL$ -> TP$EVENT.BLINK$ -> TP$EVENT.FLINK$ = NEW$;

   2157  3 000017   000000 471700                    LDP1  ! 0,,PR0
         3 000020   000003 236200 0                  LDQ   ! NEW$
PL6.E3A0      #001=QQA$EVENT File=QQA$EVENT.:E05TSI                              WED 07/30/97 05:22 Page:14
         3 000021   100001 756300                    STQ   ! 1,,PR1

       49     2158    2             TAIL$ -> TP$EVENT.BLINK$ = NEW$;

   2158  3 000022   000003 236200 0                  LDQ   ! NEW$
         3 000023   000000 756300                    STQ   ! 0,,PR0

       50     2159    2             QQ_GLOBAL.EVENT_DEPTH = QQ_GLOBAL.EVENT_DEPTH + 1;

   2159  3 000024   000056 235200 xsym               LDA   ! QQ_GLOBAL+46
         3 000025   000001 035207                    ADLA  ! 1,DL
         3 000026   000056 755200 xsym               STA   ! QQ_GLOBAL+46

       51     2160    2             STK$ = B$TCB$ -> B$TCB.STK$;

   2160  3 000027   000000 471600 xsym               LDP1  ! B$TCB$
         3 000030   100001 236300                    LDQ   ! 1,,PR1
         3 000031   000002 756200 0                  STQ   ! STK$

       52     2161    3             DO CASE(STK$ -> B$NWIO.EVID);

   2161  3 000032   000002 473600 0                  LDP3  ! STK$
         3 000033   300101 235300                    LDA   ! 65,,PR3
         3 000034   000004 115207                    CMPA  ! 4,DL
         3 000035   000037 602205 3                  TNC   ! s:2161+5,AL
         3 000036   000056 710200 3                  TRA   ! s:2168
         3 000037   000056 710200 3                  TRA   ! s:2168
         3 000040   000043 710200 3                  TRA   ! s:2163
         3 000041   000043 710200 3                  TRA   ! s:2163
         3 000042   000043 710200 3                  TRA   ! s:2163

       53     2162    3               CASE(1 /* CG_READ */, 2 /* CSCG_READ */, 3 /* DEBUGCMD_READ */);

       54     2163    3                 P$ = PINCRW(STK$, SIZEW(B$NWIO.SSFRAME));

   2163  3 000043   000100 036203                    ADLQ  ! 64,DU
         3 000044   000001 756200 0                  STQ   ! P$
PL6.E3A0      #001=QQA$EVENT File=QQA$EVENT.:E05TSI                              WED 07/30/97 05:22 Page:15

       55     2164    3                 CHAR_STRING_SIZE = SIZEC(TP$EVENT) - 8;

   2164  3 000045   000074 235207                    LDA   ! 60,DL
         3 000046   000005 755200 0                  STA   ! CHAR_STRING_SIZE

       56     2165    3                 PINCRW(NEW$, 2) -> CHAR$STRING = P$ -> CHAR$STRING;

   2165  3 000047   000001 474600 0                  LDP4  ! P$
         3 000050   000000 620205                    EAX0  ! 0,AL
         3 000051   000003 475600 0                  LDP5  ! NEW$
         3 000052   000005 721200 0                  LXL1  ! CHAR_STRING_SIZE
         3 000053   040140 100740                    MLR   ! fill='040'O
         3 000054   400000 000010                    ADSC9   0,,PR4                   cn=0,n=*X0
         3 000055   500002 000011                    ADSC9   2,,PR5                   cn=0,n=*X1

       57     2166    3             END /* CASE */;

       58     2167    2           END /* INHIBIT */;

       59     2168    1           RETURN;

   2168  3 000056   000000 702200 xent               TSX2  ! X66_ASRET

       60     2169
       61     2170    1   NO_MEM:
       62     2171    1           QQ_GLOBAL.ERR = CODE_NO_POOLMEM;

   2171  3 000057   000000 236000 2     NO_MEM       LDQ     CODE_NO_POOLMEM
         3 000060   000000 756000 xsym               STQ     QQ_GLOBAL

       63     2172    1           CALL QQC$SCREECH;

   2172  3 000061   000002 631400 xsym               EPPR1   B_VECTNIL+2
         3 000062   000000 701000 xent               TSX1    QQC$SCREECH
         3 000063   000000 011000                    NOP     0

PL6.E3A0      #001=QQA$EVENT File=QQA$EVENT.:E05TSI                              WED 07/30/97 05:22 Page:16
       64     2173    1   END QQA$EVENT;

   2173  3 000064   000000 702200 xent               TSX2  ! X66_ASRET

PL6.E3A0      #001=QQA$EVENT File=QQA$EVENT.:E05TSI                              WED 07/30/97 05:22 Page:17
--  Include file information  --

   QQ_DATA_R.:E05TOU  cannot be made into a system file and is referenced.
   Q_ERRCODE_C.:E05TOU  is referenced.
   QQ_PERR_C.:E05TOU  is referenced.
   QQ_MACROS_C.:E05TOU  is referenced.
   OC_SUBS_C.:E05TOU  is referenced.
   CP_6.:E05TOU  cannot be made into a system file and is referenced.
   Q_PAGE_C.:E05TOU  is referenced.
   B$JIT_C.:E05TOU  was found in the system file and is never referenced.
   CP_6_C.:E05TOU  was found in the system file and is referenced.
      No diagnostics issued in procedure QQA$EVENT.
PL6.E3A0      #001=QQA$EVENT File=QQA$EVENT.:E05TSI                              WED 07/30/97 05:22 Page:18

 **** Variables and constants ****

  ****  Section 000  Data  QQA$EVENT

  ****  Scalars and arrays  ****
OctLoc.c.b A Datatyp(siz) R M Lvl/name                 OctLoc.c.b A Datatyp(siz) R M Lvl/name

     5-0-0/w UBIN        r     1 CHAR_STRING_SIZE           3-0-0/w PTR         r     1 NEW$
     1-0-0/w PTR         r     1 P$                         2-0-0/w PTR         r     1 STK$
     4-0-0/w PTR         r     1 TAIL$

  ****  Section 002 RoData QQA$EVENT

  ****  Scalars and arrays  ****
OctLoc.c.b A Datatyp(siz) R M Lvl/name                 OctLoc.c.b A Datatyp(siz) R M Lvl/name

     0-0-0/b STRC        r     1 CODE_NO_POOLMEM

  ****  SYMREF variables  ****

  ****  Scalars and arrays  ****
OctLoc.c.b A Datatyp(siz) R M Lvl/name                 OctLoc.c.b A Datatyp(siz) R M Lvl/name

     0-0-0/w PTR         r     1 B$TCB$                     0-0-0/d STRC(9090)  r     1 QQ_GLOBAL

  ****  BASED and DCB variables  ****

  ****  Scalars and arrays  ****
OctLoc.c.b A Datatyp(siz) R M Lvl/name                 OctLoc.c.b A Datatyp(siz) R M Lvl/name

     0-0-0/w STRC(2880)  r     1 B$NWIO                     0-0-0/w STRC(144)   r     1 B$TCB
     0-0-0/c ACHR        r     1 CHAR$STRING                0-0-0/w STRC(612)   r     1 TP$EVENT


   Procedure QQA$EVENT requires 53 words for executable code.
   Procedure QQA$EVENT is declared NOAUTO and requires 28 words of local(STATIC) storage.
PL6.E3A0      #001=QQA$EVENT File=QQA$EVENT.:E05TSI                              WED 07/30/97 05:22 Page:19

    No errors detected in file QQA$EVENT.:E05TSI    .
PL6.E3A0      #001=QQA$EVENT File=QQA$EVENT.:E05TSI                              WED 07/30/97 05:22 Page:20
          *** CROSS REFERENCE LISTING ***
**     DENOTES     IDENTIFIER DEFINITION
<<                 IDENTIFIER'S VALUE SET
>>                 IDENTIFIER'S VALUE USED
<>                 IDENTIFIER SET AND/OR USED
--                 IDENTIFIER REFERENCED
PL6.E3A0      #001=QQA$EVENT File=QQA$EVENT.:E05TSI                              WED 07/30/97 05:22 Page:21
          MINI XREF LISTING

B$NWIO.CGPARM.MSGIDXT
      1851**DCL      1854--REDEF
B$NWIO.CODE
      1820**DCL      1820--REDEF    1821--REDEF    1821--REDEF
B$NWIO.ERR.ERR#
      1822**DCL      1822--REDEF
B$NWIO.EVID
      1821**DCL      1821--REDEF    1821--REDEF    2161>>DOCASE
B$NWIO.SSFRAME
      1820**DCL      2163--ASSIGN
B$TCB.STK$
      1815**DCL      2160>>ASSIGN
B$TCB$
      1788**DCL      2160>>ASSIGN
CHAR$STRING
      1972**DCL      2165<<ASSIGN   2165>>ASSIGN
CHAR_STRING_SIZE
      2003**DCL      1972--IMP-SIZ  2164<<ASSIGN   2165>>ASSIGN   2165>>ASSIGN
CODE_NO_POOLMEM
      2121**DCL      2171>>ASSIGN
NEW$
      2000**DCL      2153<>CALL     2155>>ASSIGN   2156>>ASSIGN   2157>>ASSIGN   2158>>ASSIGN   2165>>ASSIGN
NO_MEM
      2171**LABEL    2153--CALLALT
P$
      1998**DCL      2163<<ASSIGN   2165>>ASSIGN
QQC$GET_BLK
      1761**DCL-ENT  2153--CALL
QQC$SCREECH
      1762**DCL-ENT  2172--CALL
QQ_GLOBAL.DS1$_BITS
      1510**DCL      1510--REDEF
PL6.E3A0      #001=QQA$EVENT File=QQA$EVENT.:E05TSI                              WED 07/30/97 05:22 Page:22
QQ_GLOBAL.DS2$_BITS
      1510**DCL      1511--REDEF
QQ_GLOBAL.DS3$_BITS
      1511**DCL      1511--REDEF
QQ_GLOBAL.DS4$_BITS
      1511**DCL      1512--REDEF
QQ_GLOBAL.ERR
      1500**DCL      2171<<ASSIGN
QQ_GLOBAL.EVENT$
      1507**DCL      2154>>ASSIGN
QQ_GLOBAL.EVENT_DEPTH
      1508**DCL      2159<<ASSIGN   2159>>ASSIGN
QQ_GLOBAL.POOL$
      1511**DCL      2153<>CALL
STK$
      1999**DCL      2160<<ASSIGN   2161>>DOCASE   2163>>ASSIGN
TAIL$
      2001**DCL      2154<<ASSIGN   2155>>ASSIGN   2156>>ASSIGN   2157>>ASSIGN   2158>>ASSIGN
TP$EVENT
      1903**DCL      2153--CALL     2164--ASSIGN
TP$EVENT.BLINK$
      1904**DCL      2154>>ASSIGN   2156<<ASSIGN   2156>>ASSIGN   2157>>ASSIGN   2158<<ASSIGN
TP$EVENT.FLINK$
      1906**DCL      2155<<ASSIGN   2157<<ASSIGN
TP$EVENT.VLP_STATION.MSGIDXT
      1964**DCL      1967--REDEF
