VERSION E05

PL6.E3A0      #001=QQA$FPRQ File=QQA$FPRQ.:E05TSI                                WED 07/30/97 05:23 Page:1
        1        1        /*M* QQA$FPRQ - Process *FPRQ (FPL LOAD-BY-TYPE) messages */
        2        2        /*T***********************************************************/
        3        3        /*T*                                                         */
        4        4        /*T* Copyright (c) Bull HN Information Systems Inc., 1997    */
        5        5        /*T*                                                         */
        6        6        /*T***********************************************************/
        7        7        /*X* IND=2, DCI=4, CSU=2, ECU=4, DTI=2, CTI=4, AND */
        8        8        /*P* NAME:        QQA$FPRQ
        9        9             PURPOSE:     To process *FPRQ (FPL LOAD-BY-TYPE request) messages
       10       10        */
       11       11        /*D* NAME:        QQA$FPRQ
       12       12             CALL:        CALL QQA$FPRQ(TP_EVENT);
       13       13             INPUT:       TP_EVENT - Structure describing the TPA event
       14       14                          o Contents of the *FPRQ message as a Q_LDBYTYP structure
       15       15             OUTPUT:      A *FPRQRSP-type message of structure Q_LDBYTYPRSP
       16       16             DESCRIPTION: QQA$FPRQ takes the message type passed in via the
       17       17                          Q_LDBYTYP message and calls QQA$BYTYPE to convert
       18       18                          it into fid information for a rununit to start.
       19       19                          These fid parts (or an error if QQA$BYTYPE ALTRETs)
       20       20                          are stuffed into a Q_LDBYTYPRSP message which is
       21       21                          written back to the origin station. The origin
       22       22                          station is supposedly following the protocol of
       23       23                          reading for this Q_LDBYTYPRSP message of type
       24       24                          *FPRQRSP and, upon receipt of this message,
       25       25                          issuing an M$LDTRC with the passed info or
       26       26                          "ALTRETing" the LOAD-BY-TYPE command.
       27       27        */
       28       28
       29       29        QQA$FPRQ: PROC(TP_EVENT);
       30       30        %INCLUDE Q_PAGE_C;
       31       62        %SET LISTEXP = '1'B;
       32       63        %PAGE(ARG="Includes");

                80        /***************************************************************************
                81         *                                                                         *
                82         *                                  Includes                               *
                83         *                                                                         *
PL6.E3A0      #001=QQA$FPRQ File=QQA$FPRQ.:E05TSI                                WED 07/30/97 05:23 Page:2
                84         ***************************************************************************/

       33       88        %INCLUDE B_ERRORS_C;
       34     1215        %INCLUDE CP_6;
       35     1296        %INCLUDE QQ_MACROS_C;
       36     1721        %INCLUDE QQ_DATA_R;
       37     1967        %INCLUDE QT_MACROS_C;
       38     2125        %INCLUDE Q_MACRO_C;
       39     2471        %INCLUDE XUG_ENTRY;
       40     2502        %PAGE(ARG="Parameters");

              2519    1   /***************************************************************************
              2520    1    *                                                                         *
              2521    1    *                                 Parameters                              *
              2522    1    *                                                                         *
              2523    1    ***************************************************************************/

       41     2527        %TP$EVENT(FPTN=TP_EVENT,STCLASS=PARAM);
       42     2596        %PAGE(ARG="Externally defined routines");

              2613    1   /***************************************************************************
              2614    1    *                                                                         *
              2615    1    *                        Externally defined routines                      *
              2616    1    *                                                                         *
              2617    1    ***************************************************************************/

       43     2621    1   DCL QQA$BYTYPE ENTRY(4) ALTRET;
       44     2622    1   DCL QQC$FINDSTA ENTRY(3);
       45     2623    1   DCL QQC$SCREECH ENTRY;
       46     2624        %PAGE(ARG="Symrefs");

              2641    1   /***************************************************************************
              2642    1    *                                                                         *
              2643    1    *                                  Symrefs                                *
              2644    1    *                                                                         *
              2645    1    ***************************************************************************/

PL6.E3A0      #001=QQA$FPRQ File=QQA$FPRQ.:E05TSI                                WED 07/30/97 05:23 Page:3
       47     2649    1   DCL B$TCB$ PTR SYMREF;
       48     2650        %PAGE(ARG="VLPs");

              2667    1   /***************************************************************************
              2668    1    *                                                                         *
              2669    1    *                                    VLPs                                 *
              2670    1    *                                                                         *
              2671    1    ***************************************************************************/

       49     2675        %VLP_STATION(MSGTYP='*FPRQRSP');
       50     2702        %PAGE(ARG="DCBs");

              2719    1   /***************************************************************************
              2720    1    *                                                                         *
              2721    1    *                                    DCBs                                 *
              2722    1    *                                                                         *
              2723    1    ***************************************************************************/

       51     2727    1   DCL M$CG DCB;
       52     2728        %PAGE(ARG="Based");

              2745    1   /***************************************************************************
              2746    1    *                                                                         *
              2747    1    *                                   Based                                 *
              2748    1    *                                                                         *
              2749    1    ***************************************************************************/

       53     2753        %Q_LDBYTYP(STCLASS="BASED(QQ_GLOBAL.CMDBUF$)");
       54     2774        %B$TCB;
       55     2777        %B$ALT;
       56     2785        %TP$STATION;
       57     2858        %PAGE(ARG="Auto");

              2875    1   /***************************************************************************
              2876    1    *                                                                         *
              2877    1    *                                    Auto                                 *
              2878    1    *                                                                         *
PL6.E3A0      #001=QQA$FPRQ File=QQA$FPRQ.:E05TSI                                WED 07/30/97 05:23 Page:4
              2879    1    ***************************************************************************/

       58     2883        %Q_LDBYTYPRSP(STCLASS=AUTO);
       59     2976        %QT$FORM(FPTN=QT_FORM,STCLASS=AUTO);
       60     3015    1   DCL FOUND_FLAG BIT(1) ALIGNED;
       61     3016    1   DCL ERR UBIN;
       62     3017    1   DCL FP  CHAR(8);
       63     3018        %PAGE(ARG="EQUs");

              3035    1   /***************************************************************************
              3036    1    *                                                                         *
              3037    1    *                                    EQUs                                 *
              3038    1    *                                                                         *
              3039    1    ***************************************************************************/

       64     3043        %EQU_CG;
       65     3091        %FPERR;
       66     3097        %PAGE(ARG="FPTs");

              3114    1   /***************************************************************************
              3115    1    *                                                                         *
              3116    1    *                                    FPTs                                 *
              3117    1    *                                                                         *
              3118    1    ***************************************************************************/

       67     3122        %FPT_WRITE(DCB=M$CG,STATION=VLP_STATION);
       68     3153        %PAGE(ARG="QQA$FPRQ");

              3170    1   /***************************************************************************
              3171    1    *                                                                         *
              3172    1    *                                  QQA$FPRQ                               *
              3173    1    *                                                                         *
              3174    1    ***************************************************************************/

       69     3178    1           VLP_STATION.STATION# = TP_EVENT.VLP_STATION.STATION#;
       70     3179    1           CALL QQC$FINDSTA(VLP_STATION.STATION#, S$, FOUND_FLAG);
       71     3180    1           FP = SUBSTR(Q_LDBYTYP.TYPE#,0,TP_EVENT.ARS);
PL6.E3A0      #001=QQA$FPRQ File=QQA$FPRQ.:E05TSI                                WED 07/30/97 05:23 Page:5
       72     3181    1           CALL QQA$BYTYPE(S$,QT_FORM,FP,ERR)
       73     3182    2           WHENRETURN DO;
       74     3183    2               Q_LDBYTYPRSP.PSN#=QT_FORM.FP.SN;
       75     3184    2               Q_LDBYTYPRSP.NAME=QT_FORM.FP.NAME;
       76     3185    2               Q_LDBYTYPRSP.ACCT#=QT_FORM.FP.ACCT;
       77     3186    2               Q_LDBYTYPRSP.PASS#=QT_FORM.FP.PASS;
       78     3187    2               Q_LDBYTYPRSP.ERR='0'B;
       79     3188    2             END;
       80     3189    2           WHENALTRETURN DO;
       81     3190    2               CALL XUG$ERRTOLCP6(Q_LDBYTYPRSP.ERR,ERR);
       82     3191    2             END;
       83     3192    1           FPT_WRITE.BUF_=VECTOR(Q_LDBYTYPRSP);
       84     3193    2           CALL M$WRITE(FPT_WRITE) WHENALTRETURN DO;
       85     3194    2               IF B$TCB$->B$TCB.ALT$->B$ALT.ERR.CODE~=12
       86     3195    3               THEN DO;
       87     3196    3                   QQ_GLOBAL.ERR = B$TCB$->B$TCB.ALT$->B$ALT.ERR;
       88     3197    3                   CALL QQC$SCREECH;
       89     3198    3                 END;
       90     3199    2             END;
       91     3200    1           RETURN;
       92     3201    1   END QQA$FPRQ;

PL6.E3A0      #001=QQA$FPRQ File=QQA$FPRQ.:E05TSI                                WED 07/30/97 05:23 Page:6
--  Include file information  --

   XUG_ENTRY.:E05TOU  cannot be made into a system file and is referenced.
   Q_MACRO_C.:E05TOU  is referenced.
   QT_MACROS_C.:E05TOU  is referenced.
   QQ_DATA_R.:E05TOU  cannot be made into a system file and is referenced.
   QQ_MACROS_C.:E05TOU  is referenced.
   CP_6.:E05TOU  cannot be made into a system file and is referenced.
   B_ERRORS_C.:E05TOU  is referenced.
   Q_PAGE_C.:E05TOU  is referenced.
   B$JIT_C.:E05TOU  was found in the system file and is never referenced.
   CP_6_C.:E05TOU  was found in the system file and is referenced.
      No diagnostics issued in procedure QQA$FPRQ.

   Procedure QQA$FPRQ requires 78 words for executable code.
   Procedure QQA$FPRQ requires 52 words of local(AUTO) storage.

    No errors detected in file QQA$FPRQ.:E05TSI    .

PL6.E3A0      #001=QQA$FPRQ File=QQA$FPRQ.:E05TSI                                WED 07/30/97 05:23 Page:7

 Object Unit name= QQA$FPRQ                                   File name= QQA$FPRQ.:E05TOU
 UTS= JUL 30 '97 05:23:50.92 WED                              Compiler= PL-6/E31         Sev=      00
 SharedLib= :SHARED_SYSTEM                                    Alt SharedLib=


    ****  Control sections  ****

 Sect   Type Bound  Init  Size OctSiz  Section name(segment info)
    0   DCB   even  none     0      0  M$UC
    1   Data  even  none    20     24  QQA$FPRQ
    2   DCB   even  none     0      0  M$CG
    3   Proc  even  none    78    116  QQA$FPRQ
    4  RoData even  none     2      2  QQA$FPRQ

    ****  Entry defs  ****

                              Check   Calling
                             calling  sequence
  Sect OctLoc Primary Altret sequence   type   Parms  Name
     3      0   yes            yes      Std        1  QQA$FPRQ

  ****  Entry refs  ****

         Check        Calling
        calling       sequence
Altret sequence SRef   type   Args  Name
         yes           Std       3 QQC$FINDSTA
         yes           Std       2 XUG$ERRTOLCP6
         yes           Std       0 QQC$SCREECH
 yes     yes           Std       4 QQA$BYTYPE
                       nStd      0 X66_AUTO_1
                       Std       0 B_CONSPOOL_D
                       nStd      0 X66_ARET
PL6.E3A0      #001=QQA$FPRQ File=QQA$FPRQ.:E05TSI                                WED 07/30/97 05:23 Page:8

  ****  Data refs  ****

  Flags:  r = read only, s = secondary
Flgs Name                             Flgs Name                             Flgs Name
     M$UC                                  QQ_GLOBAL                             B$TCB$
     M$CG                                  B_VECTNIL

  ****  Segment refs  ****

  Flags:  r = read only, s = secondary
Flgs Name                             Flgs Name                             Flgs Name
     ISSID                                 NULLSID
PL6.E3A0      #001=QQA$FPRQ File=QQA$FPRQ.:E05TSI                                WED 07/30/97 05:23 Page:9


        1        1        /*M* QQA$FPRQ - Process *FPRQ (FPL LOAD-BY-TYPE) messages */
        2        2        /*T***********************************************************/
        3        3        /*T*                                                         */
        4        4        /*T* Copyright (c) Bull HN Information Systems Inc., 1997    */
        5        5        /*T*                                                         */
        6        6        /*T***********************************************************/
        7        7        /*X* IND=2, DCI=4, CSU=2, ECU=4, DTI=2, CTI=4, AND */
        8        8        /*P* NAME:        QQA$FPRQ
        9        9             PURPOSE:     To process *FPRQ (FPL LOAD-BY-TYPE request) messages
       10       10        */
       11       11        /*D* NAME:        QQA$FPRQ
       12       12             CALL:        CALL QQA$FPRQ(TP_EVENT);
       13       13             INPUT:       TP_EVENT - Structure describing the TPA event
       14       14                          o Contents of the *FPRQ message as a Q_LDBYTYP structure
       15       15             OUTPUT:      A *FPRQRSP-type message of structure Q_LDBYTYPRSP
       16       16             DESCRIPTION: QQA$FPRQ takes the message type passed in via the
       17       17                          Q_LDBYTYP message and calls QQA$BYTYPE to convert
       18       18                          it into fid information for a rununit to start.
       19       19                          These fid parts (or an error if QQA$BYTYPE ALTRETs)
       20       20                          are stuffed into a Q_LDBYTYPRSP message which is
       21       21                          written back to the origin station. The origin
       22       22                          station is supposedly following the protocol of
       23       23                          reading for this Q_LDBYTYPRSP message of type
       24       24                          *FPRQRSP and, upon receipt of this message,
       25       25                          issuing an M$LDTRC with the passed info or
       26       26                          "ALTRETing" the LOAD-BY-TYPE command.
       27       27        */
       28       28
       29       29        QQA$FPRQ: PROC(TP_EVENT);

     29  3 000000   000000 700200 xent  QQA$FPRQ     TSX0  ! X66_AUTO_1
         3 000001   000064 000001                    ZERO    52,1

       30       30        %INCLUDE Q_PAGE_C;
       31       62        %SET LISTEXP = '1'B;
       32       63        %PAGE(ARG="Includes");
PL6.E3A0      #001=QQA$FPRQ File=QQA$FPRQ.:E05TSI                                WED 07/30/97 05:23 Page:10

                80        /***************************************************************************
                81         *                                                                         *
                82         *                                  Includes                               *
                83         *                                                                         *
                84         ***************************************************************************/

       33       88        %INCLUDE B_ERRORS_C;
       34     1215        %INCLUDE CP_6;
       35     1296        %INCLUDE QQ_MACROS_C;
       36     1721        %INCLUDE QQ_DATA_R;
       37     1967        %INCLUDE QT_MACROS_C;
       38     2125        %INCLUDE Q_MACRO_C;
       39     2471        %INCLUDE XUG_ENTRY;
       40     2502        %PAGE(ARG="Parameters");

              2519    1   /***************************************************************************
              2520    1    *                                                                         *
              2521    1    *                                 Parameters                              *
              2522    1    *                                                                         *
              2523    1    ***************************************************************************/

       41     2527        %TP$EVENT(FPTN=TP_EVENT,STCLASS=PARAM);
       42     2596        %PAGE(ARG="Externally defined routines");

              2613    1   /***************************************************************************
              2614    1    *                                                                         *
              2615    1    *                        Externally defined routines                      *
              2616    1    *                                                                         *
              2617    1    ***************************************************************************/

       43     2621    1   DCL QQA$BYTYPE ENTRY(4) ALTRET;
       44     2622    1   DCL QQC$FINDSTA ENTRY(3);
       45     2623    1   DCL QQC$SCREECH ENTRY;
       46     2624        %PAGE(ARG="Symrefs");

              2641    1   /***************************************************************************
PL6.E3A0      #001=QQA$FPRQ File=QQA$FPRQ.:E05TSI                                WED 07/30/97 05:23 Page:11
              2642    1    *                                                                         *
              2643    1    *                                  Symrefs                                *
              2644    1    *                                                                         *
              2645    1    ***************************************************************************/

       47     2649    1   DCL B$TCB$ PTR SYMREF;
       48     2650        %PAGE(ARG="VLPs");

              2667    1   /***************************************************************************
              2668    1    *                                                                         *
              2669    1    *                                    VLPs                                 *
              2670    1    *                                                                         *
              2671    1    ***************************************************************************/

       49     2675        %VLP_STATION(MSGTYP='*FPRQRSP');
       50     2702        %PAGE(ARG="DCBs");

              2719    1   /***************************************************************************
              2720    1    *                                                                         *
              2721    1    *                                    DCBs                                 *
              2722    1    *                                                                         *
              2723    1    ***************************************************************************/

       51     2727    1   DCL M$CG DCB;
       52     2728        %PAGE(ARG="Based");

              2745    1   /***************************************************************************
              2746    1    *                                                                         *
              2747    1    *                                   Based                                 *
              2748    1    *                                                                         *
              2749    1    ***************************************************************************/

       53     2753        %Q_LDBYTYP(STCLASS="BASED(QQ_GLOBAL.CMDBUF$)");
       54     2774        %B$TCB;
       55     2777        %B$ALT;
       56     2785        %TP$STATION;
       57     2858        %PAGE(ARG="Auto");
PL6.E3A0      #001=QQA$FPRQ File=QQA$FPRQ.:E05TSI                                WED 07/30/97 05:23 Page:12

              2875    1   /***************************************************************************
              2876    1    *                                                                         *
              2877    1    *                                    Auto                                 *
              2878    1    *                                                                         *
              2879    1    ***************************************************************************/

       58     2883        %Q_LDBYTYPRSP(STCLASS=AUTO);
       59     2976        %QT$FORM(FPTN=QT_FORM,STCLASS=AUTO);
       60     3015    1   DCL FOUND_FLAG BIT(1) ALIGNED;
       61     3016    1   DCL ERR UBIN;
       62     3017    1   DCL FP  CHAR(8);
       63     3018        %PAGE(ARG="EQUs");

              3035    1   /***************************************************************************
              3036    1    *                                                                         *
              3037    1    *                                    EQUs                                 *
              3038    1    *                                                                         *
              3039    1    ***************************************************************************/

       64     3043        %EQU_CG;
       65     3091        %FPERR;
       66     3097        %PAGE(ARG="FPTs");

              3114    1   /***************************************************************************
              3115    1    *                                                                         *
              3116    1    *                                    FPTs                                 *
              3117    1    *                                                                         *
              3118    1    ***************************************************************************/

       67     3122        %FPT_WRITE(DCB=M$CG,STATION=VLP_STATION);
       68     3153        %PAGE(ARG="QQA$FPRQ");

              3170    1   /***************************************************************************
              3171    1    *                                                                         *
              3172    1    *                                  QQA$FPRQ                               *
              3173    1    *                                                                         *
PL6.E3A0      #001=QQA$FPRQ File=QQA$FPRQ.:E05TSI                                WED 07/30/97 05:23 Page:13
              3174    1    ***************************************************************************/

       69     3178    1           VLP_STATION.STATION# = TP_EVENT.VLP_STATION.STATION#;

   3178  3 000002   200003 470500                    LDP0    @TP_EVENT,,AUTO
         3 000003   040000 100500                    MLR     fill='040'O
         3 000004   000011 000010                    ADSC9   9,,PR0                   cn=0,n=8
         3 000005   000000 000010 1                  ADSC9   VLP_STATION              cn=0,n=8

       70     3179    1           CALL QQC$FINDSTA(VLP_STATION.STATION#, S$, FOUND_FLAG);

   3179  3 000006   200053 631500                    EPPR1   FOUND_FLAG,,AUTO
         3 000007   200062 451500                    STP1    FP+5,,AUTO
         3 000010   200004 633500                    EPPR3   S$,,AUTO
         3 000011   200061 453500                    STP3    FP+4,,AUTO
         3 000012   000000 236000 4                  LDQ     0
         3 000013   200060 756100                    STQ     FP+3,,AUTO
         3 000014   200060 630500                    EPPR0   FP+3,,AUTO
         3 000015   000021 631400 xsym               EPPR1   B_VECTNIL+17
         3 000016   000000 701000 xent               TSX1    QQC$FINDSTA
         3 000017   000000 011000                    NOP     0

       71     3180    1           FP = SUBSTR(Q_LDBYTYP.TYPE#,0,TP_EVENT.ARS);

   3180  3 000020   200003 470500                    LDP0    @TP_EVENT,,AUTO
         3 000021   000007 720100                    LXL0    7,,PR0
         3 000022   000052 471400 xsym               LDP1    QQ_GLOBAL+42
         3 000023   040100 100540                    MLR     fill='040'O
         3 000024   100000 000010                    ADSC9   0,,PR1                   cn=0,n=*X0
         3 000025   200055 000010                    ADSC9   FP,,AUTO                 cn=0,n=8

       72     3181    1           CALL QQA$BYTYPE(S$,QT_FORM,FP,ERR)

   3181  3 000026   200054 633500                    EPPR3   ERR,,AUTO
         3 000027   200063 453500                    STP3    FP+6,,AUTO
         3 000030   200055 634500                    EPPR4   FP,,AUTO
         3 000031   200062 454500                    STP4    FP+5,,AUTO
PL6.E3A0      #001=QQA$FPRQ File=QQA$FPRQ.:E05TSI                                WED 07/30/97 05:23 Page:14
         3 000032   200024 635500                    EPPR5   QT_FORM,,AUTO
         3 000033   200061 455500                    STP5    FP+4,,AUTO
         3 000034   200004 636500                    EPPR6   S$,,AUTO
         3 000035   200060 456500                    STP6    FP+3,,AUTO
         3 000036   200060 630500                    EPPR0   FP+3,,AUTO
         3 000037   000022 631400 xsym               EPPR1   B_VECTNIL+18
         3 000040   000000 701000 xent               TSX1    QQA$BYTYPE
         3 000041   000060 702000 3                  TSX2    s:3190

       73     3182    2           WHENRETURN DO;

       74     3183    2               Q_LDBYTYPRSP.PSN#=QT_FORM.FP.SN;

   3183  3 000042   040100 100500                    MLR     fill='040'O
         3 000043   200042 000006                    ADSC9   QT_FORM+14,,AUTO         cn=0,n=6
         3 000044   200006 000006                    ADSC9   Q_LDBYTYPRSP+1,,AUTO     cn=0,n=6

       75     3184    2               Q_LDBYTYPRSP.NAME=QT_FORM.FP.NAME;

   3184  3 000045   000100 100500                    MLR     fill='000'O
         3 000046   200026 000040                    ADSC9   QT_FORM+2,,AUTO          cn=0,n=32
         3 000047   200007 400040                    ADSC9   Q_LDBYTYPRSP+2,,AUTO     cn=2,n=32

       76     3185    2               Q_LDBYTYPRSP.ACCT#=QT_FORM.FP.ACCT;

   3185  3 000050   040100 100500                    MLR     fill='040'O
         3 000051   200036 000010                    ADSC9   QT_FORM+10,,AUTO         cn=0,n=8
         3 000052   200017 400010                    ADSC9   Q_LDBYTYPRSP+10,,AUTO    cn=2,n=8

       77     3186    2               Q_LDBYTYPRSP.PASS#=QT_FORM.FP.PASS;

   3186  3 000053   040100 100500                    MLR     fill='040'O
         3 000054   200040 000010                    ADSC9   QT_FORM+12,,AUTO         cn=0,n=8
         3 000055   200021 400010                    ADSC9   Q_LDBYTYPRSP+12,,AUTO    cn=2,n=8

       78     3187    2               Q_LDBYTYPRSP.ERR='0'B;

PL6.E3A0      #001=QQA$FPRQ File=QQA$FPRQ.:E05TSI                                WED 07/30/97 05:23 Page:15
   3187  3 000056   200005 450100                    STZ     Q_LDBYTYPRSP,,AUTO

       79     3188    2             END;

   3188  3 000057   000070 710000 3                  TRA     s:3192

       80     3189    2           WHENALTRETURN DO;

       81     3190    2               CALL XUG$ERRTOLCP6(Q_LDBYTYPRSP.ERR,ERR);

   3190  3 000060   200054 630500                    EPPR0   ERR,,AUTO
         3 000061   200061 450500                    STP0    FP+4,,AUTO
         3 000062   200005 631500                    EPPR1   Q_LDBYTYPRSP,,AUTO
         3 000063   200060 451500                    STP1    FP+3,,AUTO
         3 000064   200060 630500                    EPPR0   FP+3,,AUTO
         3 000065   000020 631400 xsym               EPPR1   B_VECTNIL+16
         3 000066   000000 701000 xent               TSX1    XUG$ERRTOLCP6
         3 000067   000000 011000                    NOP     0

       82     3191    2             END;

       83     3192    1           FPT_WRITE.BUF_=VECTOR(Q_LDBYTYPRSP);

   3192  3 000070   000001 235000 4                  LDA     1
         3 000071   200060 452500                    STP2    FP+3,,AUTO
         3 000072   200060 236100                    LDQ     FP+3,,AUTO
         3 000073   000005 036003                    ADLQ    5,DU
         3 000074   000014 757000 1                  STAQ    FPT_WRITE+4

       84     3193    2           CALL M$WRITE(FPT_WRITE) WHENALTRETURN DO;

   3193  3 000075   000010 630400 1                  EPPR0   FPT_WRITE
         3 000076   440001 713400                    CLIMB   alt,write
         3 000077   401400 401760                    pmme    nvectors=4
         3 000100   000102 702000 3                  TSX2    s:3194
         3 000101   000115 710000 3                  TRA     s:3200

PL6.E3A0      #001=QQA$FPRQ File=QQA$FPRQ.:E05TSI                                WED 07/30/97 05:23 Page:16
       85     3194    2               IF B$TCB$->B$TCB.ALT$->B$ALT.ERR.CODE~=12

   3194  3 000102   000000 470400 xsym               LDP0    B$TCB$
         3 000103   000000 471500                    LDP1    0,,PR0
         3 000104   100102 236100                    LDQ     66,,PR1
         3 000105   377770 376007                    ANQ     131064,DL
         3 000106   000140 116007                    CMPQ    96,DL
         3 000107   000115 600000 3                  TZE     s:3200

       86     3195    3               THEN DO;

       87     3196    3                   QQ_GLOBAL.ERR = B$TCB$->B$TCB.ALT$->B$ALT.ERR;

   3196  3 000110   100102 236100                    LDQ     66,,PR1
         3 000111   000000 756000 xsym               STQ     QQ_GLOBAL

       88     3197    3                   CALL QQC$SCREECH;

   3197  3 000112   000002 631400 xsym               EPPR1   B_VECTNIL+2
         3 000113   000000 701000 xent               TSX1    QQC$SCREECH
         3 000114   000000 011000                    NOP     0

       89     3198    3                 END;

       90     3199    2             END;

       91     3200    1           RETURN;

   3200  3 000115   000000 702200 xent               TSX2  ! X66_ARET
       92     3201    1   END QQA$FPRQ;

PL6.E3A0      #001=QQA$FPRQ File=QQA$FPRQ.:E05TSI                                WED 07/30/97 05:23 Page:17
--  Include file information  --

   XUG_ENTRY.:E05TOU  cannot be made into a system file and is referenced.
   Q_MACRO_C.:E05TOU  is referenced.
   QT_MACROS_C.:E05TOU  is referenced.
   QQ_DATA_R.:E05TOU  cannot be made into a system file and is referenced.
   QQ_MACROS_C.:E05TOU  is referenced.
   CP_6.:E05TOU  cannot be made into a system file and is referenced.
   B_ERRORS_C.:E05TOU  is referenced.
   Q_PAGE_C.:E05TOU  is referenced.
   B$JIT_C.:E05TOU  was found in the system file and is never referenced.
   CP_6_C.:E05TOU  was found in the system file and is referenced.
      No diagnostics issued in procedure QQA$FPRQ.
PL6.E3A0      #001=QQA$FPRQ File=QQA$FPRQ.:E05TSI                                WED 07/30/97 05:23 Page:18

 **** Variables and constants ****

  ****  Section 001  Data  QQA$FPRQ

  ****  Scalars and arrays  ****
OctLoc.c.b A Datatyp(siz) R M Lvl/name                 OctLoc.c.b A Datatyp(siz) R M Lvl/name

    10-0-0/d STRC(432)   r     1 FPT_WRITE                  0-0-0/w STRC(288)   r     1 VLP_STATION

  ****  Auto variables  ****

  ****  Scalars and arrays  ****
OctLoc.c.b A Datatyp(siz) R M Lvl/name                 OctLoc.c.b A Datatyp(siz) R M Lvl/name

     3-0-0/w PTR         r     1 @TP_EVENT                 54-0-0/w UBIN        r     1 ERR
    53-0-0/w BIT         r     1 FOUND_FLAG                55-0-0/c CHAR(8)     r     1 FP
    24-0-0/w STRC(828)   r     1 QT_FORM                    5-0-0/c STRC(522)   r     1 Q_LDBYTYPRSP
     4-0-0/w PTR         r     1 S$                        *0-0-0/w STRC(612)   r     1 TP_EVENT

  ****  SYMREF variables  ****

  ****  Scalars and arrays  ****
OctLoc.c.b A Datatyp(siz) R M Lvl/name                 OctLoc.c.b A Datatyp(siz) R M Lvl/name

     0-0-0/w PTR         r     1 B$TCB$                     0-0-0/d STRC(9090)  r     1 QQ_GLOBAL

  ****  BASED and DCB variables  ****

  ****  Scalars and arrays  ****
OctLoc.c.b A Datatyp(siz) R M Lvl/name                 OctLoc.c.b A Datatyp(siz) R M Lvl/name

     0-0-0/w STRC(2448)  r     1 B$ALT                      0-0-0/w STRC(144)   r     1 B$TCB
     0-0-0N  NULL        r     1 M$CG                       0-0-0/c STRC(72)    r     1 Q_LDBYTYP


   Procedure QQA$FPRQ requires 78 words for executable code.
PL6.E3A0      #001=QQA$FPRQ File=QQA$FPRQ.:E05TSI                                WED 07/30/97 05:23 Page:19
   Procedure QQA$FPRQ requires 52 words of local(AUTO) storage.

    No errors detected in file QQA$FPRQ.:E05TSI    .
PL6.E3A0      #001=QQA$FPRQ File=QQA$FPRQ.:E05TSI                                WED 07/30/97 05:23 Page:20
          *** CROSS REFERENCE LISTING ***
**     DENOTES     IDENTIFIER DEFINITION
<<                 IDENTIFIER'S VALUE SET
>>                 IDENTIFIER'S VALUE USED
<>                 IDENTIFIER SET AND/OR USED
--                 IDENTIFIER REFERENCED
PL6.E3A0      #001=QQA$FPRQ File=QQA$FPRQ.:E05TSI                                WED 07/30/97 05:23 Page:21
          MINI XREF LISTING

B$ALT.CODE
      2779**DCL      2779--REDEF    2780--REDEF    2780--REDEF
B$ALT.ERR
      2780**DCL      3196>>ASSIGN
B$ALT.ERR.CODE
      2781**DCL      3194>>IF
B$ALT.ERR.ERR#
      2781**DCL      2781--REDEF
B$ALT.EVID
      2780**DCL      2780--REDEF    2780--REDEF
B$TCB.ALT$
      2775**DCL      3194>>IF       3196>>ASSIGN
B$TCB$
      2649**DCL      3194>>IF       3196>>ASSIGN
ERR
      3016**DCL      3181<>CALL     3190<>CALL
FOUND_FLAG
      3015**DCL      3179<>CALL
FP
      3017**DCL      3180<<ASSIGN   3181<>CALL
FPT_WRITE
      3139**DCL      3193<>CALL
FPT_WRITE.BUF_
      3139**DCL      3192<<ASSIGN
FPT_WRITE.STATION_
      3141**DCL      3141--REDEF
FPT_WRITE.V
      3142**DCL      3139--DCLINIT
FPT_WRITE.V.DVBYTE.VFC#
      3148**DCL      3148--REDEF
M$WRITE
      1225**DCL-ENT  3193--CALL
PL6.E3A0      #001=QQA$FPRQ File=QQA$FPRQ.:E05TSI                                WED 07/30/97 05:23 Page:22
QQA$BYTYPE
      2621**DCL-ENT  3181--CALL
QQC$FINDSTA
      2622**DCL-ENT  3179--CALL
QQC$SCREECH
      2623**DCL-ENT  3197--CALL
QQ_GLOBAL.CMDBUF$
      1738**DCL      2768--IMP-PTR  3180>>ASSIGN
QQ_GLOBAL.DS1$_BITS
      1741**DCL      1741--REDEF
QQ_GLOBAL.DS2$_BITS
      1741**DCL      1742--REDEF
QQ_GLOBAL.DS3$_BITS
      1742**DCL      1742--REDEF
QQ_GLOBAL.DS4$_BITS
      1742**DCL      1743--REDEF
QQ_GLOBAL.ERR
      1731**DCL      3196<<ASSIGN
QT_FORM
      2987**DCL      3181<>CALL
QT_FORM.FP.ACCT
      3004**DCL      3185>>ASSIGN
QT_FORM.FP.NAME
      3000**DCL      3184>>ASSIGN
QT_FORM.FP.PASS
      3006**DCL      3186>>ASSIGN
QT_FORM.FP.SN
      3008**DCL      3183>>ASSIGN
Q_LDBYTYP.TYPE#
      2769**DCL      3180>>ASSIGN
Q_LDBYTYPRSP
      2898**DCL      3192--ASSIGN
Q_LDBYTYPRSP.ACCT#
      2965**DCL      3185<<ASSIGN
Q_LDBYTYPRSP.ERR
      2913**DCL      3187<<ASSIGN   3190<>CALL
PL6.E3A0      #001=QQA$FPRQ File=QQA$FPRQ.:E05TSI                                WED 07/30/97 05:23 Page:23
Q_LDBYTYPRSP.NAME
      2958**DCL      3184<<ASSIGN
Q_LDBYTYPRSP.PASS#
      2970**DCL      3186<<ASSIGN
Q_LDBYTYPRSP.PSN#
      2953**DCL      3183<<ASSIGN
S$
      2797**DCL      2799--IMP-PTR  3179<>CALL     3181<>CALL
TP_EVENT
      2528**DCL        29--PROC
TP_EVENT.ARS
      2545**DCL      3180>>ASSIGN
TP_EVENT.VLP_STATION.MSGIDXT
      2589**DCL      2592--REDEF
TP_EVENT.VLP_STATION.STATION#
      2583**DCL      3178>>ASSIGN
VLP_STATION
      2687**DCL      3141--DCLINIT
VLP_STATION.MSGIDXT
      2697**DCL      2700--REDEF
VLP_STATION.STATION#
      2691**DCL      3178<<ASSIGN   3179<>CALL
XUG$ERRTOLCP6
      2501**DCL-ENT  3190--CALL
