VERSION E05

PL6.E3A0      #001=QQA$KEYIN File=QQA$KEYIN.:E05TSI                              WED 07/30/97 05:24 Page:1
        1        1        /*M* QQA$KEYIN - Process operator KEYINS to TP */
        2        2        /*T***********************************************************/
        3        3        /*T*                                                         */
        4        4        /*T* Copyright (c) Bull HN Information Systems Inc., 1997    */
        5        5        /*T*                                                         */
        6        6        /*T***********************************************************/
        7        7        /*X* IND=2, DCI=4, CSU=2, ECU=4, DTI=2, CTI=4, AND */
        8        8        QQA$KEYIN:
        9        9                PROC;
       10       10
       11       11        %INCLUDE Q_PAGE_C;
       12       43        %SET LISTEXP = '1'B;
       13       44        %PAGE(ARG="Includes");

                61        /***************************************************************************
                62         *                                                                         *
                63         *                                  Includes                               *
                64         *                                                                         *
                65         ***************************************************************************/

       14       69        %INCLUDE CP_6;
       15      150        %INCLUDE OC_SUBS_C;
       16      881        %INCLUDE QQ_MACROS_C;
       17     1306        %INCLUDE QQ_DATA_R;
       18     1552        %INCLUDE QQ_SUBS_C;
       19     1744        %PAGE(ARG="Externally defined routines");

              1761    1   /***************************************************************************
              1762    1    *                                                                         *
              1763    1    *                        Externally defined routines                      *
              1764    1    *                                                                         *
              1765    1    ***************************************************************************/

       20     1769    1   DCL QQA$CMD ENTRY;
       21     1770    1   DCL QQC$STOPTP ENTRY(1);
       22     1771        %PAGE(ARG="Based");

PL6.E3A0      #001=QQA$KEYIN File=QQA$KEYIN.:E05TSI                              WED 07/30/97 05:24 Page:2
              1788    1   /***************************************************************************
              1789    1    *                                                                         *
              1790    1    *                                   Based                                 *
              1791    1    *                                                                         *
              1792    1    ***************************************************************************/

       23     1796    1   DCL 1 KEYIN$INPUT BASED(QQ_GLOBAL.KEYINBUF$),
       24     1797    1         2 MSG# UBIN(18) UNAL,
       25     1798    1         2 CADDR BIT(18) UNAL,
       26     1799    1         2 COUNT UBIN(9) UNAL,
       27     1800    1         2 TEXT CHAR(1);
       28     1801        %PAGE(ARG="QQA$KEYIN", PAGE=YES);

PL6.E3A0      #001=QQA$KEYIN File=QQA$KEYIN.:E05TSI                              WED 07/30/97 05:24 Page:3
              1818    1   /***************************************************************************
              1819    1    *                                                                         *
              1820    1    *                                 QQA$KEYIN                               *
              1821    1    *                                                                         *
              1822    1    ***************************************************************************/

       29     1826    2           DO CASE(KEYIN$INPUT.MSG#);
       30     1827
       31     1828    2             CASE(KEY_STOPTP#);
       32     1829    2               CALL QQC$STOPTP('0'B);
       33     1830
       34     1831    2             CASE(KEY_TPSEND#);
       35     1832    2               QQ_CMDBLK.ORIGIN = 3 /* ORIGIN_CSCG */;
       36     1833    2               QQ_CMDBLK.CADDR = KEYIN$INPUT.CADDR;
       37     1834    2               QQ_CMDBLK.S$ = ADDR(QQ_TP$STATION_CONSOLE);
       38     1835    2               QQ_CMDBLK.TEXT$ = ADDR(KEYIN$INPUT.TEXT);
       39     1836    2               QQ_CMDBLK.ARS = KEYIN$INPUT.COUNT;
       40     1837    2               CALL QQA$CMD;
       41     1838
       42     1839    2           END /* CASE */;
       43     1840
       44     1841    1   END QQA$KEYIN;

PL6.E3A0      #001=QQA$KEYIN File=QQA$KEYIN.:E05TSI                              WED 07/30/97 05:24 Page:4
--  Include file information  --

   QQ_SUBS_C.:E05TOU  is referenced.
   QQ_DATA_R.:E05TOU  cannot be made into a system file and is referenced.
   QQ_MACROS_C.:E05TOU  is referenced.
   OC_SUBS_C.:E05TOU  is referenced.
   CP_6.:E05TOU  cannot be made into a system file and is referenced.
   Q_PAGE_C.:E05TOU  is referenced.
   B$JIT_C.:E05TOU  was found in the system file and is never referenced.
   CP_6_C.:E05TOU  was found in the system file and is referenced.
      No diagnostics issued in procedure QQA$KEYIN.

   Procedure QQA$KEYIN requires 35 words for executable code.
   Procedure QQA$KEYIN requires 6 words of local(AUTO) storage.

    No errors detected in file QQA$KEYIN.:E05TSI    .

PL6.E3A0      #001=QQA$KEYIN File=QQA$KEYIN.:E05TSI                              WED 07/30/97 05:24 Page:5

 Object Unit name= QQA$KEYIN                                  File name= QQA$KEYIN.:E05TOU
 UTS= JUL 30 '97 05:24:42.76 WED                              Compiler= PL-6/E31         Sev=      00
 SharedLib= :SHARED_SYSTEM                                    Alt SharedLib=


    ****  Control sections  ****

 Sect   Type Bound  Init  Size OctSiz  Section name(segment info)
    0   DCB   even  none     0      0  M$UC
    1   Proc  even  none    35     43  QQA$KEYIN
    2  RoData even  none     3      3  QQA$KEYIN

    ****  Entry defs  ****

                              Check   Calling
                             calling  sequence
  Sect OctLoc Primary Altret sequence   type   Parms  Name
     1      0   yes            yes      Std        0  QQA$KEYIN

  ****  Entry refs  ****

         Check        Calling
        calling       sequence
Altret sequence SRef   type   Args  Name
         yes           Std       1 QQC$STOPTP
         yes           Std       0 QQA$CMD
                       nStd      0 X66_AUTO_0
                       Std       0 B_CONSPOOL_D
                       nStd      0 X66_ARET

  ****  Data refs  ****

  Flags:  r = read only, s = secondary
Flgs Name                             Flgs Name                             Flgs Name
     M$UC                                  QQ_CMDBLK                             QQ_GLOBAL
     QQ_TP$STATION_CONSOLE                 B_VECTNIL
PL6.E3A0      #001=QQA$KEYIN File=QQA$KEYIN.:E05TSI                              WED 07/30/97 05:24 Page:6

  ****  Segment refs  ****

  Flags:  r = read only, s = secondary
Flgs Name                             Flgs Name                             Flgs Name
     ISSID
PL6.E3A0      #001=QQA$KEYIN File=QQA$KEYIN.:E05TSI                              WED 07/30/97 05:24 Page:7


        1        1        /*M* QQA$KEYIN - Process operator KEYINS to TP */
        2        2        /*T***********************************************************/
        3        3        /*T*                                                         */
        4        4        /*T* Copyright (c) Bull HN Information Systems Inc., 1997    */
        5        5        /*T*                                                         */
        6        6        /*T***********************************************************/
        7        7        /*X* IND=2, DCI=4, CSU=2, ECU=4, DTI=2, CTI=4, AND */
        8        8        QQA$KEYIN:
        9        9                PROC;

      9  1 000000   000000 700200 xent  QQA$KEYIN    TSX0  ! X66_AUTO_0
         1 000001   000006 000000                    ZERO    6,0

       10       10
       11       11        %INCLUDE Q_PAGE_C;
       12       43        %SET LISTEXP = '1'B;
       13       44        %PAGE(ARG="Includes");

                61        /***************************************************************************
                62         *                                                                         *
                63         *                                  Includes                               *
                64         *                                                                         *
                65         ***************************************************************************/

       14       69        %INCLUDE CP_6;
       15      150        %INCLUDE OC_SUBS_C;
       16      881        %INCLUDE QQ_MACROS_C;
       17     1306        %INCLUDE QQ_DATA_R;
       18     1552        %INCLUDE QQ_SUBS_C;
       19     1744        %PAGE(ARG="Externally defined routines");

              1761    1   /***************************************************************************
              1762    1    *                                                                         *
              1763    1    *                        Externally defined routines                      *
              1764    1    *                                                                         *
              1765    1    ***************************************************************************/
PL6.E3A0      #001=QQA$KEYIN File=QQA$KEYIN.:E05TSI                              WED 07/30/97 05:24 Page:8

       20     1769    1   DCL QQA$CMD ENTRY;
       21     1770    1   DCL QQC$STOPTP ENTRY(1);
       22     1771        %PAGE(ARG="Based");

              1788    1   /***************************************************************************
              1789    1    *                                                                         *
              1790    1    *                                   Based                                 *
              1791    1    *                                                                         *
              1792    1    ***************************************************************************/

       23     1796    1   DCL 1 KEYIN$INPUT BASED(QQ_GLOBAL.KEYINBUF$),
       24     1797    1         2 MSG# UBIN(18) UNAL,
       25     1798    1         2 CADDR BIT(18) UNAL,
       26     1799    1         2 COUNT UBIN(9) UNAL,
       27     1800    1         2 TEXT CHAR(1);
       28     1801        %PAGE(ARG="QQA$KEYIN", PAGE=YES);

PL6.E3A0      #001=QQA$KEYIN File=QQA$KEYIN.:E05TSI                              WED 07/30/97 05:24 Page:9
              1818    1   /***************************************************************************
              1819    1    *                                                                         *
              1820    1    *                                 QQA$KEYIN                               *
              1821    1    *                                                                         *
              1822    1    ***************************************************************************/

       29     1826    2           DO CASE(KEYIN$INPUT.MSG#);

   1826  1 000002   000053 470400 xsym               LDP0    QQ_GLOBAL+43
         1 000003   000100 100500                    MLR     fill='000'O
         1 000004   000000 000002                    ADSC9   0,,PR0                   cn=0,n=2
         1 000005   200004 000004                    ADSC9   4,,AUTO                  cn=0,n=4
         1 000006   200004 220100                    LDX0    4,,AUTO
         1 000007   000003 100003                    CMPX0   3,DU
         1 000010   000012 602010 1                  TNC     s:1826+8,X0
         1 000011   000042 710000 1                  TRA     s:1841
         1 000012   000042 710000 1                  TRA     s:1841
         1 000013   000015 710000 1                  TRA     s:1829
         1 000014   000022 710000 1                  TRA     s:1832

       30     1827
       31     1828    2             CASE(KEY_STOPTP#);

       32     1829    2               CALL QQC$STOPTP('0'B);

   1829  1 000015   000000 630400 2                  EPPR0   0
         1 000016   000017 631400 xsym               EPPR1   B_VECTNIL+15
         1 000017   000000 701000 xent               TSX1    QQC$STOPTP
         1 000020   000000 011000                    NOP     0
         1 000021   000042 710000 1                  TRA     s:1841

       33     1830
       34     1831    2             CASE(KEY_TPSEND#);

       35     1832    2               QQ_CMDBLK.ORIGIN = 3 /* ORIGIN_CSCG */;

   1832  1 000022   000003 221003                    LDX1    3,DU
PL6.E3A0      #001=QQA$KEYIN File=QQA$KEYIN.:E05TSI                              WED 07/30/97 05:24 Page:10
         1 000023   000007 741000 xsym               STX1    QQ_CMDBLK+7

       36     1833    2               QQ_CMDBLK.CADDR = KEYIN$INPUT.CADDR;

   1833  1 000024   000000 100500                    MLR     fill='000'O
         1 000025   000000 400002                    ADSC9   0,,PR0                   cn=2,n=2
         1 000026   000010 000002 xsym               ADSC9   QQ_CMDBLK+8              cn=0,n=2

       37     1834    2               QQ_CMDBLK.S$ = ADDR(QQ_TP$STATION_CONSOLE);

   1834  1 000027   000001 236000 2                  LDQ     1
         1 000030   000004 756000 xsym               STQ     QQ_CMDBLK+4

       38     1835    2               QQ_CMDBLK.TEXT$ = ADDR(KEYIN$INPUT.TEXT);

   1835  1 000031   000053 236000 xsym               LDQ     QQ_GLOBAL+43
         1 000032   000002 036000 2                  ADLQ    2
         1 000033   000003 756000 xsym               STQ     QQ_CMDBLK+3

       39     1836    2               QQ_CMDBLK.ARS = KEYIN$INPUT.COUNT;

   1836  1 000034   000000 101500                    MRL     fill='000'O
         1 000035   000001 000001                    ADSC9   1,,PR0                   cn=0,n=1
         1 000036   000007 400002 xsym               ADSC9   QQ_CMDBLK+7              cn=2,n=2

       40     1837    2               CALL QQA$CMD;

   1837  1 000037   000002 631400 xsym               EPPR1   B_VECTNIL+2
         1 000040   000000 701000 xent               TSX1    QQA$CMD
         1 000041   000000 011000                    NOP     0

       41     1838
       42     1839    2           END /* CASE */;

       43     1840
       44     1841    1   END QQA$KEYIN;

PL6.E3A0      #001=QQA$KEYIN File=QQA$KEYIN.:E05TSI                              WED 07/30/97 05:24 Page:11
   1841  1 000042   000000 702200 xent               TSX2  ! X66_ARET

PL6.E3A0      #001=QQA$KEYIN File=QQA$KEYIN.:E05TSI                              WED 07/30/97 05:24 Page:12
--  Include file information  --

   QQ_SUBS_C.:E05TOU  is referenced.
   QQ_DATA_R.:E05TOU  cannot be made into a system file and is referenced.
   QQ_MACROS_C.:E05TOU  is referenced.
   OC_SUBS_C.:E05TOU  is referenced.
   CP_6.:E05TOU  cannot be made into a system file and is referenced.
   Q_PAGE_C.:E05TOU  is referenced.
   B$JIT_C.:E05TOU  was found in the system file and is never referenced.
   CP_6_C.:E05TOU  was found in the system file and is referenced.
      No diagnostics issued in procedure QQA$KEYIN.
PL6.E3A0      #001=QQA$KEYIN File=QQA$KEYIN.:E05TSI                              WED 07/30/97 05:24 Page:13

 **** Variables and constants ****

  ****  SYMREF variables  ****

  ****  Scalars and arrays  ****
OctLoc.c.b A Datatyp(siz) R M Lvl/name                 OctLoc.c.b A Datatyp(siz) R M Lvl/name

     0-0-0/w STRC(315)   r     1 QQ_CMDBLK                  0-0-0/d STRC(9090)  r     1 QQ_GLOBAL
     0-0-0/w STRC(909)   r     1 QQ_TP$STATION_CONSOLE

  ****  BASED and DCB variables  ****

  ****  Scalars and arrays  ****
OctLoc.c.b A Datatyp(siz) R M Lvl/name                 OctLoc.c.b A Datatyp(siz) R M Lvl/name

     0-0-0/c STRC(54)    r     1 KEYIN$INPUT


   Procedure QQA$KEYIN requires 35 words for executable code.
   Procedure QQA$KEYIN requires 6 words of local(AUTO) storage.

    No errors detected in file QQA$KEYIN.:E05TSI    .
PL6.E3A0      #001=QQA$KEYIN File=QQA$KEYIN.:E05TSI                              WED 07/30/97 05:24 Page:14
          *** CROSS REFERENCE LISTING ***
**     DENOTES     IDENTIFIER DEFINITION
<<                 IDENTIFIER'S VALUE SET
>>                 IDENTIFIER'S VALUE USED
<>                 IDENTIFIER SET AND/OR USED
--                 IDENTIFIER REFERENCED
PL6.E3A0      #001=QQA$KEYIN File=QQA$KEYIN.:E05TSI                              WED 07/30/97 05:24 Page:15
          MINI XREF LISTING

KEYIN$INPUT.CADDR
      1798**DCL      1833>>ASSIGN
KEYIN$INPUT.COUNT
      1799**DCL      1836>>ASSIGN
KEYIN$INPUT.MSG#
      1797**DCL      1826>>DOCASE
KEYIN$INPUT.TEXT
      1800**DCL      1835--ASSIGN
QQA$CMD
      1769**DCL-ENT  1837--CALL
QQC$STOPTP
      1770**DCL-ENT  1829--CALL
QQ_CMDBLK.ARS
      1315**DCL      1836<<ASSIGN
QQ_CMDBLK.CADDR
      1316**DCL      1833<<ASSIGN
QQ_CMDBLK.ORIGIN
      1315**DCL      1832<<ASSIGN
QQ_CMDBLK.S$
      1315**DCL      1834<<ASSIGN
QQ_CMDBLK.TEXT$
      1315**DCL      1835<<ASSIGN
QQ_GLOBAL.DS1$_BITS
      1326**DCL      1326--REDEF
QQ_GLOBAL.DS2$_BITS
      1326**DCL      1327--REDEF
QQ_GLOBAL.DS3$_BITS
      1327**DCL      1327--REDEF
QQ_GLOBAL.DS4$_BITS
      1327**DCL      1328--REDEF
QQ_GLOBAL.KEYINBUF$
      1324**DCL      1796--IMP-PTR  1826>>DOCASE   1833>>ASSIGN   1835>>ASSIGN   1836>>ASSIGN
PL6.E3A0      #001=QQA$KEYIN File=QQA$KEYIN.:E05TSI                              WED 07/30/97 05:24 Page:16
QQ_TP$STATION_CONSOLE
      1492**DCL      1834--ASSIGN
