VERSION E05

PL6.E3A0      #001=QQA$SCHEDULE File=QQA$SCHEDULE.:E05TSI                        WED 07/30/97 05:25 Page:1
        1        1        /*M* QQA$SCHEDULE - Perform TPU scheduling */
        2        2        /*T***********************************************************/
        3        3        /*T*                                                         */
        4        4        /*T* Copyright (c) Bull HN Information Systems Inc., 1997    */
        5        5        /*T*                                                         */
        6        6        /*T***********************************************************/
        7        7        /*X* IND=2, DCI=4, CSU=2, ECU=4, DTI=2, CTI=4, AND */
        8        8        QQA$SCHEDULE:
        9        9                PROC;
       10       10
       11       11        %INCLUDE Q_PAGE_C;
       12       43        %SET LISTEXP = '1'B;
       13       44        %PAGE(ARG="Includes");

                61        /***************************************************************************
                62         *                                                                         *
                63         *                                  Includes                               *
                64         *                                                                         *
                65         ***************************************************************************/

       14       69        %INCLUDE CP_6;
       15      150        %INCLUDE QQ_MACROS_C;
       16      575        %INCLUDE QQ_DATA_R;
       17      821        %INCLUDE PC_MACRO_C;
       18      847        %PAGE(ARG="Externally defined routines");

               864    1   /***************************************************************************
               865    1    *                                                                         *
               866    1    *                        Externally defined routines                      *
               867    1    *                                                                         *
               868    1    ***************************************************************************/

       19      872    1   DCL QQC$SCREECH ENTRY;
       20      873    1   DCL QQD$FS ENTRY(3);
       21      874        %PAGE(ARG="Symrefs");

               891    1   /***************************************************************************
PL6.E3A0      #001=QQA$SCHEDULE File=QQA$SCHEDULE.:E05TSI                        WED 07/30/97 05:25 Page:2
               892    1    *                                                                         *
               893    1    *                                  Symrefs                                *
               894    1    *                                                                         *
               895    1    ***************************************************************************/

       22      899    1   DCL B$TCB$ PTR SYMREF;
       23      900        %PAGE(ARG="DCBs");

               917    1   /***************************************************************************
               918    1    *                                                                         *
               919    1    *                                    DCBs                                 *
               920    1    *                                                                         *
               921    1    ***************************************************************************/

       24      925    1   DCL M$CG DCB;
       25      926        %PAGE(ARG="Based");

               943    1   /***************************************************************************
               944    1    *                                                                         *
               945    1    *                                   Based                                 *
               946    1    *                                                                         *
               947    1    ***************************************************************************/

       26      951        %PC$INSTANCE(STCLASS="BASED(QQ_GLOBAL.PC$INSTANCE$)");
       27     1001        %B$TCB;
       28     1004        %B$ALT;
       29     1012        %PAGE(ARG="FPTs", PAGE=YES);

PL6.E3A0      #001=QQA$SCHEDULE File=QQA$SCHEDULE.:E05TSI                        WED 07/30/97 05:25 Page:3
              1029    1   /***************************************************************************
              1030    1    *                                                                         *
              1031    1    *                                    FPTs                                 *
              1032    1    *                                                                         *
              1033    1    ***************************************************************************/

       30     1037        %FPT_TIME(SOURCE=CLOCK, TSTAMP=QQ_GLOBAL.STIMER_UTS);
       31     1056
       32     1057        %FPT_CGINFO(DCB=M$CG, STATS=VLR_CGSTATS);
       33     1077        %PAGE(ARG="VLRs");

              1094    1   /***************************************************************************
              1095    1    *                                                                         *
              1096    1    *                                    VLRs                                 *
              1097    1    *                                                                         *
              1098    1    ***************************************************************************/

       34     1102        %VLR_CGSTATS;
       35     1126        %PAGE(ARG="QQA$SCHEDULE", PAGE=YES);

PL6.E3A0      #001=QQA$SCHEDULE File=QQA$SCHEDULE.:E05TSI                        WED 07/30/97 05:25 Page:4
              1143    1   /***************************************************************************
              1144    1    *                                                                         *
              1145    1    *                                QQA$SCHEDULE                             *
              1146    1    *                                                                         *
              1147    1    ***************************************************************************/

       36     1151    1           CALL M$CGINFO(FPT_CGINFO) ALTRET(MON_ERR);
       37     1152
       38     1153    1           QQ_GLOBAL.OLD_STATS = PC$INSTANCE.STATS;
       39     1154    1           PC$INSTANCE.STATS = VLR_CGSTATS;
       40     1155    1           PC$INSTANCE.STATS.FPREQ = QQ_GLOBAL.FPREQ_CNT;
       41     1156    1           PC$INSTANCE.STATS.TPU = QQ_GLOBAL.TPU_CNT;
       42     1157    1           PC$INSTANCE.STATS.EVENT = QQ_GLOBAL.EVENT_CNT;
       43     1158    1           PC$INSTANCE.STATS.CMD = QQ_GLOBAL.CMD_CNT;
       44     1159
       45     1160    1           IF QQ_GLOBAL.STATS_CNT ~= 0 THEN
       46     1161    2             DO;
       47     1162    2               PC$INSTANCE.STATS.EVENT = PC$INSTANCE.STATS.EVENT -
       48     1163    2                   QQ_GLOBAL.STATS_CNT * 1;
       49     1164    2               PC$INSTANCE.STATS.CMD = PC$INSTANCE.STATS.CMD -
       50     1165    2                   QQ_GLOBAL.STATS_CNT * 1;
       51     1166    2               PC$INSTANCE.STATS.READS = PC$INSTANCE.STATS.READS -
       52     1167    2                   QQ_GLOBAL.STATS_CNT * 1;
       53     1168    2               PC$INSTANCE.STATS.WRITES = PC$INSTANCE.STATS.WRITES -
       54     1169    2                   QQ_GLOBAL.STATS_CNT * 10;
       55     1170    2               PC$INSTANCE.STATS.GETS = PC$INSTANCE.STATS.GETS -
       56     1171    2                   QQ_GLOBAL.STATS_CNT * 12;
       57     1172    2               PC$INSTANCE.STATS.PUTS = PC$INSTANCE.STATS.PUTS -
       58     1173    2                   QQ_GLOBAL.STATS_CNT * 1;
       59     1174    2             END;
       60     1175    1           QQ_GLOBAL.DELTA_STATS.READS = PC$INSTANCE.STATS.READS - QQ_GLOBAL.OLD_STATS.
              1175                    READS;
       61     1176    1           QQ_GLOBAL.DELTA_STATS.WRITES = PC$INSTANCE.STATS.WRITES - QQ_GLOBAL.
              1176                    OLD_STATS.WRITES;
       62     1177    1           QQ_GLOBAL.DELTA_STATS.GETS = PC$INSTANCE.STATS.GETS - QQ_GLOBAL.OLD_STATS.
              1177                    GETS;
       63     1178    1           QQ_GLOBAL.DELTA_STATS.PUTS = PC$INSTANCE.STATS.PUTS - QQ_GLOBAL.OLD_STATS.
PL6.E3A0      #001=QQA$SCHEDULE File=QQA$SCHEDULE.:E05TSI                        WED 07/30/97 05:25 Page:5
              1178                    PUTS;
       64     1179    1           QQ_GLOBAL.DELTA_STATS.CCMQ = PC$INSTANCE.STATS.CCMQ - QQ_GLOBAL.OLD_STATS.
              1179                    CCMQ;
       65     1180    1           QQ_GLOBAL.DELTA_STATS.CCMS = PC$INSTANCE.STATS.CCMS - QQ_GLOBAL.OLD_STATS.
              1180                    CCMS;
       66     1181    1           QQ_GLOBAL.DELTA_STATS.NUMDCBS = PC$INSTANCE.STATS.NUMDCBS - QQ_GLOBAL.
              1181                    OLD_STATS.NUMDCBS;
       67     1182    1           QQ_GLOBAL.DELTA_STATS.NUMTERMS = PC$INSTANCE.STATS.NUMTERMS - QQ_GLOBAL.
              1182                    OLD_STATS.NUMTERMS;
       68     1183    1           QQ_GLOBAL.DELTA_STATS.DISCRDS = PC$INSTANCE.STATS.DISCRDS - QQ_GLOBAL.
              1183                    OLD_STATS.DISCRDS;
       69     1184    1           QQ_GLOBAL.DELTA_STATS.DISCWRS = PC$INSTANCE.STATS.DISCWRS - QQ_GLOBAL.
              1184                    OLD_STATS.DISCWRS;
       70     1185    1           CALL QQD$FS(PC$INSTANCE.STATS.PGSI, QQ_GLOBAL.OLD_STATS.PGSI, QQ_GLOBAL.
              1185                    DELTA_STATS.PGSI);
       71     1186    1           QQ_GLOBAL.DELTA_STATS.GARBCOLLS = PC$INSTANCE.STATS.GARBCOLLS - QQ_GLOBAL.
              1186                    OLD_STATS.GARBCOLLS;
       72     1187    1           QQ_GLOBAL.DELTA_STATS.FPREQ = PC$INSTANCE.STATS.FPREQ - QQ_GLOBAL.OLD_STATS.
              1187                    FPREQ;
       73     1188    1           QQ_GLOBAL.DELTA_STATS.TPU = PC$INSTANCE.STATS.TPU - QQ_GLOBAL.OLD_STATS.TPU;
       74     1189    1           QQ_GLOBAL.DELTA_STATS.EVENT = PC$INSTANCE.STATS.EVENT - QQ_GLOBAL.OLD_STATS.
              1189                    EVENT;
       75     1190    1           QQ_GLOBAL.DELTA_STATS.CMD = PC$INSTANCE.STATS.CMD - QQ_GLOBAL.OLD_STATS.CMD;
       76     1191
       77     1192    1           CALL M$TIME(FPT_TIME);
       78     1193    1           RETURN;
       79     1194
       80     1195    1   MON_ERR:
       81     1196    1           QQ_GLOBAL.ERR = B$TCB$ -> B$TCB.ALT$ -> B$ALT.ERR;
       82     1197    1           CALL QQC$SCREECH;
       83     1198    1   END QQA$SCHEDULE;

PL6.E3A0      #001=QQA$SCHEDULE File=QQA$SCHEDULE.:E05TSI                        WED 07/30/97 05:25 Page:6
--  Include file information  --

   PC_MACRO_C.:E05TOU  is referenced.
   QQ_DATA_R.:E05TOU  cannot be made into a system file and is referenced.
   QQ_MACROS_C.:E05TOU  is referenced.
   CP_6.:E05TOU  cannot be made into a system file and is referenced.
   Q_PAGE_C.:E05TOU  is referenced.
   B$JIT_C.:E05TOU  was found in the system file and is never referenced.
   CP_6_C.:E05TOU  was found in the system file and is referenced.
      No diagnostics issued in procedure QQA$SCHEDULE.

   Procedure QQA$SCHEDULE requires 125 words for executable code.
   Procedure QQA$SCHEDULE requires 8 words of local(AUTO) storage.

    No errors detected in file QQA$SCHEDULE.:E05TSI    .

PL6.E3A0      #001=QQA$SCHEDULE File=QQA$SCHEDULE.:E05TSI                        WED 07/30/97 05:25 Page:7

 Object Unit name= QQA$SCHEDULE                               File name= QQA$SCHEDULE.:E05TOU
 UTS= JUL 30 '97 05:25:33.08 WED                              Compiler= PL-6/E31         Sev=      00
 SharedLib= :SHARED_SYSTEM                                    Alt SharedLib=


    ****  Control sections  ****

 Sect   Type Bound  Init  Size OctSiz  Section name(segment info)
    0   DCB   even  none     0      0  M$UC
    1   DCB   even  none     0      0  M$CG
    2   Data  even  none    80    120  QQA$SCHEDULE
    3   Proc  even  none   125    175  QQA$SCHEDULE
    4  RoData even  none     2      2  QQA$SCHEDULE

    ****  Entry defs  ****

                              Check   Calling
                             calling  sequence
  Sect OctLoc Primary Altret sequence   type   Parms  Name
     3      0   yes            yes      Std        0  QQA$SCHEDULE

  ****  Entry refs  ****

         Check        Calling
        calling       sequence
Altret sequence SRef   type   Args  Name
         yes           Std       3 QQD$FS
         yes           Std       0 QQC$SCREECH
                       nStd      0 X66_AUTO_0
                       Std       0 B_CONSPOOL_D
                       nStd      0 X66_ARET
PL6.E3A0      #001=QQA$SCHEDULE File=QQA$SCHEDULE.:E05TSI                        WED 07/30/97 05:25 Page:8

  ****  Data refs  ****

  Flags:  r = read only, s = secondary
Flgs Name                             Flgs Name                             Flgs Name
     M$UC                                  QQ_GLOBAL                             B$TCB$
     M$CG                                  B_VECTNIL

  ****  Segment refs  ****

  Flags:  r = read only, s = secondary
Flgs Name                             Flgs Name                             Flgs Name
     ISSID                                 NULLSID
PL6.E3A0      #001=QQA$SCHEDULE File=QQA$SCHEDULE.:E05TSI                        WED 07/30/97 05:25 Page:9


        1        1        /*M* QQA$SCHEDULE - Perform TPU scheduling */
        2        2        /*T***********************************************************/
        3        3        /*T*                                                         */
        4        4        /*T* Copyright (c) Bull HN Information Systems Inc., 1997    */
        5        5        /*T*                                                         */
        6        6        /*T***********************************************************/
        7        7        /*X* IND=2, DCI=4, CSU=2, ECU=4, DTI=2, CTI=4, AND */
        8        8        QQA$SCHEDULE:
        9        9                PROC;

      9  3 000000   000000 700200 xent  QQA$SCHEDULE TSX0  ! X66_AUTO_0
         3 000001   000010 000000                    ZERO    8,0

       10       10
       11       11        %INCLUDE Q_PAGE_C;
       12       43        %SET LISTEXP = '1'B;
       13       44        %PAGE(ARG="Includes");

                61        /***************************************************************************
                62         *                                                                         *
                63         *                                  Includes                               *
                64         *                                                                         *
                65         ***************************************************************************/

       14       69        %INCLUDE CP_6;
       15      150        %INCLUDE QQ_MACROS_C;
       16      575        %INCLUDE QQ_DATA_R;
       17      821        %INCLUDE PC_MACRO_C;
       18      847        %PAGE(ARG="Externally defined routines");

               864    1   /***************************************************************************
               865    1    *                                                                         *
               866    1    *                        Externally defined routines                      *
               867    1    *                                                                         *
               868    1    ***************************************************************************/

PL6.E3A0      #001=QQA$SCHEDULE File=QQA$SCHEDULE.:E05TSI                        WED 07/30/97 05:25 Page:10
       19      872    1   DCL QQC$SCREECH ENTRY;
       20      873    1   DCL QQD$FS ENTRY(3);
       21      874        %PAGE(ARG="Symrefs");

               891    1   /***************************************************************************
               892    1    *                                                                         *
               893    1    *                                  Symrefs                                *
               894    1    *                                                                         *
               895    1    ***************************************************************************/

       22      899    1   DCL B$TCB$ PTR SYMREF;
       23      900        %PAGE(ARG="DCBs");

               917    1   /***************************************************************************
               918    1    *                                                                         *
               919    1    *                                    DCBs                                 *
               920    1    *                                                                         *
               921    1    ***************************************************************************/

       24      925    1   DCL M$CG DCB;
       25      926        %PAGE(ARG="Based");

               943    1   /***************************************************************************
               944    1    *                                                                         *
               945    1    *                                   Based                                 *
               946    1    *                                                                         *
               947    1    ***************************************************************************/

       26      951        %PC$INSTANCE(STCLASS="BASED(QQ_GLOBAL.PC$INSTANCE$)");
       27     1001        %B$TCB;
       28     1004        %B$ALT;
       29     1012        %PAGE(ARG="FPTs", PAGE=YES);

PL6.E3A0      #001=QQA$SCHEDULE File=QQA$SCHEDULE.:E05TSI                        WED 07/30/97 05:25 Page:11
              1029    1   /***************************************************************************
              1030    1    *                                                                         *
              1031    1    *                                    FPTs                                 *
              1032    1    *                                                                         *
              1033    1    ***************************************************************************/

       30     1037        %FPT_TIME(SOURCE=CLOCK, TSTAMP=QQ_GLOBAL.STIMER_UTS);
       31     1056
       32     1057        %FPT_CGINFO(DCB=M$CG, STATS=VLR_CGSTATS);
       33     1077        %PAGE(ARG="VLRs");

              1094    1   /***************************************************************************
              1095    1    *                                                                         *
              1096    1    *                                    VLRs                                 *
              1097    1    *                                                                         *
              1098    1    ***************************************************************************/

       34     1102        %VLR_CGSTATS;
       35     1126        %PAGE(ARG="QQA$SCHEDULE", PAGE=YES);

PL6.E3A0      #001=QQA$SCHEDULE File=QQA$SCHEDULE.:E05TSI                        WED 07/30/97 05:25 Page:12
              1143    1   /***************************************************************************
              1144    1    *                                                                         *
              1145    1    *                                QQA$SCHEDULE                             *
              1146    1    *                                                                         *
              1147    1    ***************************************************************************/

       36     1151    1           CALL M$CGINFO(FPT_CGINFO) ALTRET(MON_ERR);

   1151  3 000002   000014 630400 2                  EPPR0   FPT_CGINFO
         3 000003   500004 713400                    CLIMB   alt,+32772
         3 000004   411400 401760                    pmme    nvectors=20
         3 000005   000165 702000 3                  TSX2    MON_ERR

       37     1152
       38     1153    1           QQ_GLOBAL.OLD_STATS = PC$INSTANCE.STATS;

   1153  3 000006   000154 470400 xsym               LDP0    QQ_GLOBAL+108
         3 000007   000000 100500                    MLR     fill='000'O
         3 000010   000031 000310                    ADSC9   25,,PR0                  cn=0,n=200
         3 000011   000157 000310 xsym               ADSC9   QQ_GLOBAL+111            cn=0,n=200

       39     1154    1           PC$INSTANCE.STATS = VLR_CGSTATS;

   1154  3 000012   000100 100400                    MLR     fill='000'O
         3 000013   000076 000110 2                  ADSC9   VLR_CGSTATS              cn=0,n=72
         3 000014   000031 000310                    ADSC9   25,,PR0                  cn=0,n=200

       40     1155    1           PC$INSTANCE.STATS.FPREQ = QQ_GLOBAL.FPREQ_CNT;

   1155  3 000015   000041 235000 xsym               LDA     QQ_GLOBAL+33
         3 000016   000154 470400 xsym               LDP0    QQ_GLOBAL+108
         3 000017   000053 755100                    STA     43,,PR0

       41     1156    1           PC$INSTANCE.STATS.TPU = QQ_GLOBAL.TPU_CNT;

   1156  3 000020   000036 236000 xsym               LDQ     QQ_GLOBAL+30
         3 000021   000154 470400 xsym               LDP0    QQ_GLOBAL+108
PL6.E3A0      #001=QQA$SCHEDULE File=QQA$SCHEDULE.:E05TSI                        WED 07/30/97 05:25 Page:13
         3 000022   000054 756100                    STQ     44,,PR0

       42     1157    1           PC$INSTANCE.STATS.EVENT = QQ_GLOBAL.EVENT_CNT;

   1157  3 000023   000042 235000 xsym               LDA     QQ_GLOBAL+34
         3 000024   000154 470400 xsym               LDP0    QQ_GLOBAL+108
         3 000025   000055 755100                    STA     45,,PR0

       43     1158    1           PC$INSTANCE.STATS.CMD = QQ_GLOBAL.CMD_CNT;

   1158  3 000026   000037 235000 xsym               LDA     QQ_GLOBAL+31
         3 000027   000154 470400 xsym               LDP0    QQ_GLOBAL+108
         3 000030   000056 755100                    STA     46,,PR0

       44     1159
       45     1160    1           IF QQ_GLOBAL.STATS_CNT ~= 0 THEN

   1160  3 000031   000071 235000 xsym               LDA     QQ_GLOBAL+57
         3 000032   000067 600000 3                  TZE     s:1175

       46     1161    2             DO;

       47     1162    2               PC$INSTANCE.STATS.EVENT = PC$INSTANCE.STATS.EVENT -

   1162  3 000033   000154 470400 xsym               LDP0    QQ_GLOBAL+108
         3 000034   000055 236100                    LDQ     45,,PR0
         3 000035   000071 136000 xsym               SBLQ    QQ_GLOBAL+57
         3 000036   000055 756100                    STQ     45,,PR0

       48     1163    2                   QQ_GLOBAL.STATS_CNT * 1;
       49     1164    2               PC$INSTANCE.STATS.CMD = PC$INSTANCE.STATS.CMD -

   1164  3 000037   000154 470400 xsym               LDP0    QQ_GLOBAL+108
         3 000040   000056 236100                    LDQ     46,,PR0
         3 000041   000071 136000 xsym               SBLQ    QQ_GLOBAL+57
         3 000042   000056 756100                    STQ     46,,PR0

PL6.E3A0      #001=QQA$SCHEDULE File=QQA$SCHEDULE.:E05TSI                        WED 07/30/97 05:25 Page:14
       50     1165    2                   QQ_GLOBAL.STATS_CNT * 1;
       51     1166    2               PC$INSTANCE.STATS.READS = PC$INSTANCE.STATS.READS -

   1166  3 000043   000154 470400 xsym               LDP0    QQ_GLOBAL+108
         3 000044   000031 236100                    LDQ     25,,PR0
         3 000045   000071 136000 xsym               SBLQ    QQ_GLOBAL+57
         3 000046   000031 756100                    STQ     25,,PR0

       52     1167    2                   QQ_GLOBAL.STATS_CNT * 1;
       53     1168    2               PC$INSTANCE.STATS.WRITES = PC$INSTANCE.STATS.WRITES -

   1168  3 000047   000154 470400 xsym               LDP0    QQ_GLOBAL+108
         3 000050   000000 236003                    LDQ     0,DU
         3 000051   000071 136000 xsym               SBLQ    QQ_GLOBAL+57
         3 000052   000012 402007                    MPY     10,DL
         3 000053   000032 036100                    ADLQ    26,,PR0
         3 000054   000032 756100                    STQ     26,,PR0

       54     1169    2                   QQ_GLOBAL.STATS_CNT * 10;
       55     1170    2               PC$INSTANCE.STATS.GETS = PC$INSTANCE.STATS.GETS -

   1170  3 000055   000154 470400 xsym               LDP0    QQ_GLOBAL+108
         3 000056   000000 236003                    LDQ     0,DU
         3 000057   000071 136000 xsym               SBLQ    QQ_GLOBAL+57
         3 000060   000014 402007                    MPY     12,DL
         3 000061   000033 036100                    ADLQ    27,,PR0
         3 000062   000033 756100                    STQ     27,,PR0

       56     1171    2                   QQ_GLOBAL.STATS_CNT * 12;
       57     1172    2               PC$INSTANCE.STATS.PUTS = PC$INSTANCE.STATS.PUTS -

   1172  3 000063   000154 470400 xsym               LDP0    QQ_GLOBAL+108
         3 000064   000034 236100                    LDQ     28,,PR0
         3 000065   000071 136000 xsym               SBLQ    QQ_GLOBAL+57
         3 000066   000034 756100                    STQ     28,,PR0

       58     1173    2                   QQ_GLOBAL.STATS_CNT * 1;
PL6.E3A0      #001=QQA$SCHEDULE File=QQA$SCHEDULE.:E05TSI                        WED 07/30/97 05:25 Page:15
       59     1174    2             END;

       60     1175    1          QQ_GLOBAL.DELTA_STATS.READS = PC$INSTANCE.STATS.READS - QQ_GLOBAL.OLD_STATS.
              1175                    READS;

   1175  3 000067   000154 470400 xsym               LDP0    QQ_GLOBAL+108
         3 000070   000031 236100                    LDQ     25,,PR0
         3 000071   000157 136000 xsym               SBLQ    QQ_GLOBAL+111
         3 000072   000241 756000 xsym               STQ     QQ_GLOBAL+161

       61     1176    1           QQ_GLOBAL.DELTA_STATS.WRITES = PC$INSTANCE.STATS.WRITES - QQ_GLOBAL.
              1176                    OLD_STATS.WRITES;

   1176  3 000073   000032 236100                    LDQ     26,,PR0
         3 000074   000160 136000 xsym               SBLQ    QQ_GLOBAL+112
         3 000075   000242 756000 xsym               STQ     QQ_GLOBAL+162

       62     1177    1           QQ_GLOBAL.DELTA_STATS.GETS = PC$INSTANCE.STATS.GETS - QQ_GLOBAL.OLD_STATS.
              1177                    GETS;

   1177  3 000076   000033 236100                    LDQ     27,,PR0
         3 000077   000161 136000 xsym               SBLQ    QQ_GLOBAL+113
         3 000100   000243 756000 xsym               STQ     QQ_GLOBAL+163

       63     1178    1           QQ_GLOBAL.DELTA_STATS.PUTS = PC$INSTANCE.STATS.PUTS - QQ_GLOBAL.OLD_STATS.
              1178                    PUTS;

   1178  3 000101   000034 236100                    LDQ     28,,PR0
         3 000102   000162 136000 xsym               SBLQ    QQ_GLOBAL+114
         3 000103   000244 756000 xsym               STQ     QQ_GLOBAL+164

       64     1179    1           QQ_GLOBAL.DELTA_STATS.CCMQ = PC$INSTANCE.STATS.CCMQ - QQ_GLOBAL.OLD_STATS.
              1179                    CCMQ;

   1179  3 000104   000035 236100                    LDQ     29,,PR0
         3 000105   000163 136000 xsym               SBLQ    QQ_GLOBAL+115
         3 000106   000245 756000 xsym               STQ     QQ_GLOBAL+165
PL6.E3A0      #001=QQA$SCHEDULE File=QQA$SCHEDULE.:E05TSI                        WED 07/30/97 05:25 Page:16

       65     1180    1           QQ_GLOBAL.DELTA_STATS.CCMS = PC$INSTANCE.STATS.CCMS - QQ_GLOBAL.OLD_STATS.
              1180                    CCMS;

   1180  3 000107   000036 236100                    LDQ     30,,PR0
         3 000110   000164 136000 xsym               SBLQ    QQ_GLOBAL+116
         3 000111   000246 756000 xsym               STQ     QQ_GLOBAL+166

       66     1181    1           QQ_GLOBAL.DELTA_STATS.NUMDCBS = PC$INSTANCE.STATS.NUMDCBS - QQ_GLOBAL.
              1181                    OLD_STATS.NUMDCBS;

   1181  3 000112   000037 236100                    LDQ     31,,PR0
         3 000113   000165 136000 xsym               SBLQ    QQ_GLOBAL+117
         3 000114   000247 756000 xsym               STQ     QQ_GLOBAL+167

       67     1182    1           QQ_GLOBAL.DELTA_STATS.NUMTERMS = PC$INSTANCE.STATS.NUMTERMS - QQ_GLOBAL.
              1182                    OLD_STATS.NUMTERMS;

   1182  3 000115   000040 236100                    LDQ     32,,PR0
         3 000116   000166 136000 xsym               SBLQ    QQ_GLOBAL+118
         3 000117   000250 756000 xsym               STQ     QQ_GLOBAL+168

       68     1183    1           QQ_GLOBAL.DELTA_STATS.DISCRDS = PC$INSTANCE.STATS.DISCRDS - QQ_GLOBAL.
              1183                    OLD_STATS.DISCRDS;

   1183  3 000120   000041 236100                    LDQ     33,,PR0
         3 000121   000167 136000 xsym               SBLQ    QQ_GLOBAL+119
         3 000122   000251 756000 xsym               STQ     QQ_GLOBAL+169

       69     1184    1           QQ_GLOBAL.DELTA_STATS.DISCWRS = PC$INSTANCE.STATS.DISCWRS - QQ_GLOBAL.
              1184                    OLD_STATS.DISCWRS;

   1184  3 000123   000042 236100                    LDQ     34,,PR0
         3 000124   000170 136000 xsym               SBLQ    QQ_GLOBAL+120
         3 000125   000252 756000 xsym               STQ     QQ_GLOBAL+170

       70     1185    1           CALL QQD$FS(PC$INSTANCE.STATS.PGSI, QQ_GLOBAL.OLD_STATS.PGSI, QQ_GLOBAL.
PL6.E3A0      #001=QQA$SCHEDULE File=QQA$SCHEDULE.:E05TSI                        WED 07/30/97 05:25 Page:17
              1185                    DELTA_STATS.PGSI);

   1185  3 000126   000000 236000 4                  LDQ     0
         3 000127   200006 756100                    STQ     6,,AUTO
         3 000130   000001 236000 4                  LDQ     1
         3 000131   200005 756100                    STQ     5,,AUTO
         3 000132   000154 236000 xsym               LDQ     QQ_GLOBAL+108
         3 000133   000043 036003                    ADLQ    35,DU
         3 000134   200004 756100                    STQ     4,,AUTO
         3 000135   200004 630500                    EPPR0   4,,AUTO
         3 000136   000021 631400 xsym               EPPR1   B_VECTNIL+17
         3 000137   000000 701000 xent               TSX1    QQD$FS
         3 000140   000000 011000                    NOP     0

       71     1186    1           QQ_GLOBAL.DELTA_STATS.GARBCOLLS = PC$INSTANCE.STATS.GARBCOLLS - QQ_GLOBAL.
              1186                    OLD_STATS.GARBCOLLS;

   1186  3 000141   000154 470400 xsym               LDP0    QQ_GLOBAL+108
         3 000142   000044 236100                    LDQ     36,,PR0
         3 000143   000172 136000 xsym               SBLQ    QQ_GLOBAL+122
         3 000144   000254 756000 xsym               STQ     QQ_GLOBAL+172

       72     1187    1          QQ_GLOBAL.DELTA_STATS.FPREQ = PC$INSTANCE.STATS.FPREQ - QQ_GLOBAL.OLD_STATS.
              1187                    FPREQ;

   1187  3 000145   000053 236100                    LDQ     43,,PR0
         3 000146   000201 136000 xsym               SBLQ    QQ_GLOBAL+129
         3 000147   000263 756000 xsym               STQ     QQ_GLOBAL+179

       73     1188    1          QQ_GLOBAL.DELTA_STATS.TPU = PC$INSTANCE.STATS.TPU - QQ_GLOBAL.OLD_STATS.TPU;

   1188  3 000150   000054 236100                    LDQ     44,,PR0
         3 000151   000202 136000 xsym               SBLQ    QQ_GLOBAL+130
         3 000152   000264 756000 xsym               STQ     QQ_GLOBAL+180

       74     1189    1          QQ_GLOBAL.DELTA_STATS.EVENT = PC$INSTANCE.STATS.EVENT - QQ_GLOBAL.OLD_STATS.
              1189                    EVENT;
PL6.E3A0      #001=QQA$SCHEDULE File=QQA$SCHEDULE.:E05TSI                        WED 07/30/97 05:25 Page:18

   1189  3 000153   000055 236100                    LDQ     45,,PR0
         3 000154   000203 136000 xsym               SBLQ    QQ_GLOBAL+131
         3 000155   000265 756000 xsym               STQ     QQ_GLOBAL+181

       75     1190    1          QQ_GLOBAL.DELTA_STATS.CMD = PC$INSTANCE.STATS.CMD - QQ_GLOBAL.OLD_STATS.CMD;

   1190  3 000156   000056 236100                    LDQ     46,,PR0
         3 000157   000204 136000 xsym               SBLQ    QQ_GLOBAL+132
         3 000160   000266 756000 xsym               STQ     QQ_GLOBAL+182

       76     1191
       77     1192    1           CALL M$TIME(FPT_TIME);

   1192  3 000161   000000 630400 2                  EPPR0   FPT_TIME
         3 000162   020004 713400                    CLIMB   8196
         3 000163   402000 401760                    pmme    nvectors=5

       78     1193    1           RETURN;

   1193  3 000164   000000 702200 xent               TSX2  ! X66_ARET

       79     1194
       80     1195    1   MON_ERR:
       81     1196    1           QQ_GLOBAL.ERR = B$TCB$ -> B$TCB.ALT$ -> B$ALT.ERR;

   1196  3 000165   000000 470400 xsym  MON_ERR      LDP0    B$TCB$
         3 000166   000000 471500                    LDP1    0,,PR0
         3 000167   100102 236100                    LDQ     66,,PR1
         3 000170   000000 756000 xsym               STQ     QQ_GLOBAL

       82     1197    1           CALL QQC$SCREECH;

   1197  3 000171   000002 631400 xsym               EPPR1   B_VECTNIL+2
         3 000172   000000 701000 xent               TSX1    QQC$SCREECH
         3 000173   000000 011000                    NOP     0

PL6.E3A0      #001=QQA$SCHEDULE File=QQA$SCHEDULE.:E05TSI                        WED 07/30/97 05:25 Page:19
       83     1198    1   END QQA$SCHEDULE;

   1198  3 000174   000000 702200 xent               TSX2  ! X66_ARET

PL6.E3A0      #001=QQA$SCHEDULE File=QQA$SCHEDULE.:E05TSI                        WED 07/30/97 05:25 Page:20
--  Include file information  --

   PC_MACRO_C.:E05TOU  is referenced.
   QQ_DATA_R.:E05TOU  cannot be made into a system file and is referenced.
   QQ_MACROS_C.:E05TOU  is referenced.
   CP_6.:E05TOU  cannot be made into a system file and is referenced.
   Q_PAGE_C.:E05TOU  is referenced.
   B$JIT_C.:E05TOU  was found in the system file and is never referenced.
   CP_6_C.:E05TOU  was found in the system file and is referenced.
      No diagnostics issued in procedure QQA$SCHEDULE.
PL6.E3A0      #001=QQA$SCHEDULE File=QQA$SCHEDULE.:E05TSI                        WED 07/30/97 05:25 Page:21

 **** Variables and constants ****

  ****  Section 002  Data  QQA$SCHEDULE

  ****  Scalars and arrays  ****
OctLoc.c.b A Datatyp(siz) R M Lvl/name                 OctLoc.c.b A Datatyp(siz) R M Lvl/name

    14-0-0/d STRC(1800)  r     1 FPT_CGINFO                 0-0-0/d STRC(432)   r     1 FPT_TIME
    76-0-0/d STRC(648)   r     1 VLR_CGSTATS

  ****  SYMREF variables  ****

  ****  Scalars and arrays  ****
OctLoc.c.b A Datatyp(siz) R M Lvl/name                 OctLoc.c.b A Datatyp(siz) R M Lvl/name

     0-0-0/w PTR         r     1 B$TCB$                     0-0-0/d STRC(9090)  r     1 QQ_GLOBAL

  ****  BASED and DCB variables  ****

  ****  Scalars and arrays  ****
OctLoc.c.b A Datatyp(siz) R M Lvl/name                 OctLoc.c.b A Datatyp(siz) R M Lvl/name

     0-0-0/w STRC(2448)  r     1 B$ALT                      0-0-0/w STRC(144)   r     1 B$TCB
     0-0-0N  NULL        r     1 M$CG                       0-0-0/w STRC(2700)  r     1 PC$INSTANCE


   Procedure QQA$SCHEDULE requires 125 words for executable code.
   Procedure QQA$SCHEDULE requires 8 words of local(AUTO) storage.

    No errors detected in file QQA$SCHEDULE.:E05TSI    .
PL6.E3A0      #001=QQA$SCHEDULE File=QQA$SCHEDULE.:E05TSI                        WED 07/30/97 05:25 Page:22
          *** CROSS REFERENCE LISTING ***
**     DENOTES     IDENTIFIER DEFINITION
<<                 IDENTIFIER'S VALUE SET
>>                 IDENTIFIER'S VALUE USED
<>                 IDENTIFIER SET AND/OR USED
--                 IDENTIFIER REFERENCED
PL6.E3A0      #001=QQA$SCHEDULE File=QQA$SCHEDULE.:E05TSI                        WED 07/30/97 05:25 Page:23
          MINI XREF LISTING

B$ALT.CODE
      1006**DCL      1006--REDEF    1007--REDEF    1007--REDEF
B$ALT.ERR
      1007**DCL      1196>>ASSIGN
B$ALT.ERR.ERR#
      1008**DCL      1008--REDEF
B$ALT.EVID
      1007**DCL      1007--REDEF    1007--REDEF
B$TCB.ALT$
      1002**DCL      1196>>ASSIGN
B$TCB$
       899**DCL      1196>>ASSIGN
FPT_CGINFO
      1068**DCL      1151<>CALL
FPT_CGINFO.V
      1073**DCL      1068--DCLINIT
FPT_TIME
      1048**DCL      1192<>CALL
FPT_TIME.V
      1052**DCL      1048--DCLINIT
M$CGINFO
        99**DCL-ENT  1151--CALL
M$TIME
       145**DCL-ENT  1192--CALL
MON_ERR
      1196**LABEL    1151--CALLALT
PC$INSTANCE.STATS
       978**DCL      1153>>ASSIGN   1154<<ASSIGN
PC$INSTANCE.STATS.CCMQ
       981**DCL      1179>>ASSIGN
PC$INSTANCE.STATS.CCMS
       981**DCL      1180>>ASSIGN
PL6.E3A0      #001=QQA$SCHEDULE File=QQA$SCHEDULE.:E05TSI                        WED 07/30/97 05:25 Page:24
PC$INSTANCE.STATS.CMD
       995**DCL      1158<<ASSIGN   1164<<ASSIGN   1164>>ASSIGN   1190>>ASSIGN
PC$INSTANCE.STATS.DISCRDS
       983**DCL      1183>>ASSIGN
PC$INSTANCE.STATS.DISCWRS
       983**DCL      1184>>ASSIGN
PC$INSTANCE.STATS.EVENT
       993**DCL      1157<<ASSIGN   1162<<ASSIGN   1162>>ASSIGN   1189>>ASSIGN
PC$INSTANCE.STATS.FPREQ
       989**DCL      1155<<ASSIGN   1187>>ASSIGN
PC$INSTANCE.STATS.GARBCOLLS
       984**DCL      1186>>ASSIGN
PC$INSTANCE.STATS.GETS
       980**DCL      1170<<ASSIGN   1170>>ASSIGN   1177>>ASSIGN
PC$INSTANCE.STATS.NUMDCBS
       982**DCL      1181>>ASSIGN
PC$INSTANCE.STATS.NUMTERMS
       982**DCL      1182>>ASSIGN
PC$INSTANCE.STATS.PGSI
       983**DCL      1185<>CALL
PC$INSTANCE.STATS.PUTS
       981**DCL      1172<<ASSIGN   1172>>ASSIGN   1178>>ASSIGN
PC$INSTANCE.STATS.READS
       980**DCL      1166<<ASSIGN   1166>>ASSIGN   1175>>ASSIGN
PC$INSTANCE.STATS.TPU
       991**DCL      1156<<ASSIGN   1188>>ASSIGN
PC$INSTANCE.STATS.WRITES
       980**DCL      1168<<ASSIGN   1168>>ASSIGN   1176>>ASSIGN
QQC$SCREECH
       872**DCL-ENT  1197--CALL
QQD$FS
       873**DCL-ENT  1185--CALL
QQ_GLOBAL.CMD_CNT
       591**DCL      1158>>ASSIGN
QQ_GLOBAL.DELTA_STATS.CCMQ
       653**DCL      1179<<ASSIGN
PL6.E3A0      #001=QQA$SCHEDULE File=QQA$SCHEDULE.:E05TSI                        WED 07/30/97 05:25 Page:25
QQ_GLOBAL.DELTA_STATS.CCMS
       653**DCL      1180<<ASSIGN
QQ_GLOBAL.DELTA_STATS.CMD
       667**DCL      1190<<ASSIGN
QQ_GLOBAL.DELTA_STATS.DISCRDS
       655**DCL      1183<<ASSIGN
QQ_GLOBAL.DELTA_STATS.DISCWRS
       655**DCL      1184<<ASSIGN
QQ_GLOBAL.DELTA_STATS.EVENT
       665**DCL      1189<<ASSIGN
QQ_GLOBAL.DELTA_STATS.FPREQ
       661**DCL      1187<<ASSIGN
QQ_GLOBAL.DELTA_STATS.GARBCOLLS
       656**DCL      1186<<ASSIGN
QQ_GLOBAL.DELTA_STATS.GETS
       652**DCL      1177<<ASSIGN
QQ_GLOBAL.DELTA_STATS.NUMDCBS
       654**DCL      1181<<ASSIGN
QQ_GLOBAL.DELTA_STATS.NUMTERMS
       654**DCL      1182<<ASSIGN
QQ_GLOBAL.DELTA_STATS.PGSI
       655**DCL      1185<>CALL
QQ_GLOBAL.DELTA_STATS.PUTS
       653**DCL      1178<<ASSIGN
QQ_GLOBAL.DELTA_STATS.READS
       652**DCL      1175<<ASSIGN
QQ_GLOBAL.DELTA_STATS.TPU
       663**DCL      1188<<ASSIGN
QQ_GLOBAL.DELTA_STATS.WRITES
       652**DCL      1176<<ASSIGN
QQ_GLOBAL.DS1$_BITS
       595**DCL       595--REDEF
QQ_GLOBAL.DS2$_BITS
       595**DCL       596--REDEF
QQ_GLOBAL.DS3$_BITS
       596**DCL       596--REDEF
PL6.E3A0      #001=QQA$SCHEDULE File=QQA$SCHEDULE.:E05TSI                        WED 07/30/97 05:25 Page:26
QQ_GLOBAL.DS4$_BITS
       596**DCL       597--REDEF
QQ_GLOBAL.ERR
       585**DCL      1196<<ASSIGN
QQ_GLOBAL.EVENT_CNT
       591**DCL      1157>>ASSIGN
QQ_GLOBAL.FPREQ_CNT
       591**DCL      1155>>ASSIGN
QQ_GLOBAL.OLD_STATS
       613**DCL      1153<<ASSIGN
QQ_GLOBAL.OLD_STATS.CCMQ
       616**DCL      1179>>ASSIGN
QQ_GLOBAL.OLD_STATS.CCMS
       616**DCL      1180>>ASSIGN
QQ_GLOBAL.OLD_STATS.CMD
       630**DCL      1190>>ASSIGN
QQ_GLOBAL.OLD_STATS.DISCRDS
       618**DCL      1183>>ASSIGN
QQ_GLOBAL.OLD_STATS.DISCWRS
       618**DCL      1184>>ASSIGN
QQ_GLOBAL.OLD_STATS.EVENT
       628**DCL      1189>>ASSIGN
QQ_GLOBAL.OLD_STATS.FPREQ
       624**DCL      1187>>ASSIGN
QQ_GLOBAL.OLD_STATS.GARBCOLLS
       619**DCL      1186>>ASSIGN
QQ_GLOBAL.OLD_STATS.GETS
       615**DCL      1177>>ASSIGN
QQ_GLOBAL.OLD_STATS.NUMDCBS
       617**DCL      1181>>ASSIGN
QQ_GLOBAL.OLD_STATS.NUMTERMS
       617**DCL      1182>>ASSIGN
QQ_GLOBAL.OLD_STATS.PGSI
       618**DCL      1185<>CALL
QQ_GLOBAL.OLD_STATS.PUTS
       616**DCL      1178>>ASSIGN
PL6.E3A0      #001=QQA$SCHEDULE File=QQA$SCHEDULE.:E05TSI                        WED 07/30/97 05:25 Page:27
QQ_GLOBAL.OLD_STATS.READS
       615**DCL      1175>>ASSIGN
QQ_GLOBAL.OLD_STATS.TPU
       626**DCL      1188>>ASSIGN
QQ_GLOBAL.OLD_STATS.WRITES
       615**DCL      1176>>ASSIGN
QQ_GLOBAL.PC$INSTANCE$
       597**DCL       952--IMP-PTR  1153>>ASSIGN   1154>>ASSIGN   1155>>ASSIGN   1156>>ASSIGN   1157>>ASSIGN
      1158>>ASSIGN   1162>>ASSIGN   1162>>ASSIGN   1164>>ASSIGN   1164>>ASSIGN   1166>>ASSIGN   1166>>ASSIGN
      1168>>ASSIGN   1168>>ASSIGN   1170>>ASSIGN   1170>>ASSIGN   1172>>ASSIGN   1172>>ASSIGN   1175>>ASSIGN
      1176>>ASSIGN   1177>>ASSIGN   1178>>ASSIGN   1179>>ASSIGN   1180>>ASSIGN   1181>>ASSIGN   1182>>ASSIGN
      1183>>ASSIGN   1184>>ASSIGN   1185>>CALL     1186>>ASSIGN   1187>>ASSIGN   1188>>ASSIGN   1189>>ASSIGN
      1190>>ASSIGN
QQ_GLOBAL.STATS_CNT
       595**DCL      1160>>IF       1162>>ASSIGN   1164>>ASSIGN   1166>>ASSIGN   1168>>ASSIGN   1170>>ASSIGN
      1172>>ASSIGN
QQ_GLOBAL.STIMER_UTS
       592**DCL      1052--DCLINIT
QQ_GLOBAL.TPU_CNT
       590**DCL      1156>>ASSIGN
VLR_CGSTATS
      1114**DCL      1070--DCLINIT  1154>>ASSIGN
