VERSION E05

PL6.E3A0      #001=QQA$STA_DIS File=QQA$STA_DIS.:E05TSI                          WED 07/30/97 05:27 Page:1
        1        1        /*M* QQA$STA_DIS - Process station disconnect events */
        2        2        /*T***********************************************************/
        3        3        /*T*                                                         */
        4        4        /*T* Copyright (c) Bull HN Information Systems Inc., 1997    */
        5        5        /*T*                                                         */
        6        6        /*T***********************************************************/
        7        7        /*X* IND=2, DCI=4, CSU=2, ECU=4, DTI=2, CTI=4, AND */
        8        8        /*P* NAME:        QQA$STA_DIS
        9        9
       10       10             PURPOSE:     To process *AUEV messages indicating that a
       11       11                          TP station has disconnected from the comgroup
       12       12        */
       13       13        /*D* NAME:        QQA$STA_DIS
       14       14
       15       15             CALL:        CALL QQA$STA_DIS
       16       16
       17       17             INPUT:       The contents of the *AUEV disconnect message
       18       18
       19       19             OUTPUT:      None
       20       20
       21       21             DESCRIPTION: If the station is currently connected we find
       22       22                          its context and delete it.  To delete the
       23       23                          context we squish down the context of all the
       24       24                          remaining stations to fill in the gap for the
       25       25                          station that is disconnecting.
       26       26
       27       27                          If we are not expecting the station to
       28       28                          disconnect at this time we print a message to the
       29       29                          MCT.  By not expecting it to disconnect we mean
       30       30                          that the station has not typed OFF, BYE or been
       31       31                          KILLED. Also, we must M$DEACTIVATE the station
       32       32                          in order to remove the remaining FPRG user since
       33       33                          the disconnect applied only to the device, not
       34       34                          the user.
       35       35        */
       36       36        %EJECT;
PL6.E3A0      #001=QQA$STA_DIS File=QQA$STA_DIS.:E05TSI                          WED 07/30/97 05:27 Page:2
       37       37        QQA$STA_DIS:
       38       38                PROC;
       39       39
       40       40        %INCLUDE Q_PAGE_C;
       41       72        %SET LISTEXP = '1'B;
       42       73        %PAGE(ARG="Includes");

                90        /***************************************************************************
                91         *                                                                         *
                92         *                                  Includes                               *
                93         *                                                                         *
                94         ***************************************************************************/

       43       98        %INCLUDE QQ_SUPER_C;
       44      153        %INCLUDE QQ_MACROS_C;
       45      578        %INCLUDE QQ_SUBS_C;
       46      770        %INCLUDE CP_6;
       47      851        %INCLUDE QQ_DATA_R;
       48     1097        %INCLUDE QQ_PERR_C;
       49     1258        %INCLUDE Q_ERRCODE_C;
       50     1281        %PAGE(ARG="Externally defined routines");

              1298    1   /***************************************************************************
              1299    1    *                                                                         *
              1300    1    *                        Externally defined routines                      *
              1301    1    *                                                                         *
              1302    1    ***************************************************************************/

       51     1306    1   DCL QQC$FINDSTA ENTRY(3);
       52     1307    1   DCL QQC$BLDMSG_ERRBLK ENTRY(1);
       53     1308    1   DCL QQC$BLDMSG ENTRY(1);
       54     1309    1   DCL QQC$RLS_BLK ENTRY(2);
       55     1310    1   DCL QQC$SCREECH ENTRY;
       56     1311        %PAGE(ARG="DCBs");

              1328    1   /***************************************************************************
              1329    1    *                                                                         *
PL6.E3A0      #001=QQA$STA_DIS File=QQA$STA_DIS.:E05TSI                          WED 07/30/97 05:27 Page:3
              1330    1    *                                    DCBs                                 *
              1331    1    *                                                                         *
              1332    1    ***************************************************************************/

       57     1336    1   DCL M$CG DCB;
       58     1337        %PAGE(ARG="Symrefs");

              1354    1   /***************************************************************************
              1355    1    *                                                                         *
              1356    1    *                                  Symrefs                                *
              1357    1    *                                                                         *
              1358    1    ***************************************************************************/

       59     1362    1   DCL B$TCB$ PTR SYMREF;
       60     1363        %PAGE(ARG="Based");

              1380    1   /***************************************************************************
              1381    1    *                                                                         *
              1382    1    *                                   Based                                 *
              1383    1    *                                                                         *
              1384    1    ***************************************************************************/

       61     1388        %B$TCB;
       62     1391        %B$ALT;
       63     1399        %B$CGAURD(STCLASS="BASED(QQ_GLOBAL.CMDBUF$)", LAST=", ");
       64     1418        %B$CGAUCI(LVL=2, LAST=", ");
       65     1440        %QQ$LOGON(LVL=2);
       66     1476        %TP$STATION;
       67     1549    1   DCL CHAR$STRING CHAR(CHAR_STRING_SIZE) BASED;
       68     1550        %PAGE(ARG="Static");

              1567    1   /***************************************************************************
              1568    1    *                                                                         *
              1569    1    *                                   Static                                *
              1570    1    *                                                                         *
              1571    1    ***************************************************************************/

PL6.E3A0      #001=QQA$STA_DIS File=QQA$STA_DIS.:E05TSI                          WED 07/30/97 05:27 Page:4
       69     1575    1   DCL STATION CHAR(8) STATIC;
       70     1576        %PAGE(ARG="Auto");

              1593    1   /***************************************************************************
              1594    1    *                                                                         *
              1595    1    *                                    Auto                                 *
              1596    1    *                                                                         *
              1597    1    ***************************************************************************/

       71     1601    1   DCL P$ PTR;
       72     1602    1   DCL TEMP_PTR$ PTR;
       73     1603
       74     1604    1   DCL FOUND_FLAG BIT(1) ALIGNED;
       75     1605
       76     1606    1   DCL CHAR_STRING_SIZE SBIN WORD;
       77     1607    1   DCL SLOTS_PER_PAGE SBIN WORD;
       78     1608
       79     1609        %MSGBLK;
       80     1699        %VLP_NAME(FPTN=TEXTC_STATION, STCLASS=AUTO, LEN=8);
       81     1726        %VLP_NAME(FPTN=TEXTC_LINE, STCLASS=AUTO, LEN=20);
       82     1753        %PAGE(ARG="Error codes", PAGE=YES);

PL6.E3A0      #001=QQA$STA_DIS File=QQA$STA_DIS.:E05TSI                          WED 07/30/97 05:27 Page:5
              1770    1   /***************************************************************************
              1771    1    *                                                                         *
              1772    1    *                                Error codes                              *
              1773    1    *                                                                         *
              1774    1    ***************************************************************************/

       83     1778        %ERRCODE(NAME=CODE_UDOS, CODE#=%E$UDOS, FCG#=%FCG_QQ, MID#=%MID_A);
       84     1785        /*E* ERROR:       QQA-E$UDOS-C
       85     1786
       86     1787             MESSAGE:     Unexpected disconnect of STATION %U1 %(%U2)%
       87     1788             DESCRIPTION: A STATION has disconnected (vanished) for
       88     1789                          an unknown reason. E.G., he did not type OFF
       89     1790        */
       90     1791        %PAGE(ARG="FPTs", PAGE=YES);

PL6.E3A0      #001=QQA$STA_DIS File=QQA$STA_DIS.:E05TSI                          WED 07/30/97 05:27 Page:6
              1808    1   /***************************************************************************
              1809    1    *                                                                         *
              1810    1    *                                    FPTs                                 *
              1811    1    *                                                                         *
              1812    1    ***************************************************************************/

       91     1816        %FPT_ACTIVATE(FPTN=FPT_DEACTIVATE,DCB=M$CG,STATION=STATION);
       92     1839        %FPT_FDS(RESULTS=VLP_VECTOR, SEGSIZE=1024);
       93     1854        %PAGE(ARG="VLPs");

              1871    1   /***************************************************************************
              1872    1    *                                                                         *
              1873    1    *                                    VLPs                                 *
              1874    1    *                                                                         *
              1875    1    ***************************************************************************/

       94     1879        %VLP_VECTOR;
       95     1894        %PAGE(ARG="QQA$STA_DIS", PAGE=YES);

PL6.E3A0      #001=QQA$STA_DIS File=QQA$STA_DIS.:E05TSI                          WED 07/30/97 05:27 Page:7
              1911    1   /***************************************************************************
              1912    1    *                                                                         *
              1913    1    *                                QQA$STA_DIS                              *
              1914    1    *                                                                         *
              1915    1    ***************************************************************************/

       96     1919    1           STATION = B$CGAURD.STATION;
       97     1920    1           CALL QQC$FINDSTA(STATION, S$, FOUND_FLAG);
       98     1921
       99     1922    1           IF FOUND_FLAG THEN
      100     1923    2             DO;
      101     1924    2               IF QQ_GLOBAL.HELP_S$ = S$ THEN
      102     1925    2                 QQ_GLOBAL.HELP_S$ = ADDR(NIL);
      103     1926    2               IF TP$STATION.FIRST_CMD$ ~= ADDR(NIL) THEN
      104     1927    3                 DO;
      105     1928    3                   CALL QQC$RLS_BLK(QQ_GLOBAL.POOL$, TP$STATION.FIRST_CMD$);
      106     1929    3                 END;
      107     1930
      108     1931
      109     1932    2               IF TP$STATION.FPLDTRC$ ~= ADDR(NIL) THEN
      110     1933    3                 DO;
      111     1934    3                   CALL QQC$RLS_BLK(QQ_GLOBAL.POOL$, TP$STATION.FPLDTRC$);
      112     1935    3                 END;
      113     1936
      114     1937    2               IF TP$STATION.QT$FORM$ ~= ADDR(NIL) THEN
      115     1938    3                 DO;
      116     1939    3                   CALL QQC$RLS_BLK(QQ_GLOBAL.POOL$, TP$STATION.QT$FORM$);
      117     1940    3                 END;
      118     1941
      119     1942    2               IF NOT TP$STATION.FLAGS.DISCONNECT THEN
      120     1943    3                 DO;
      121     1944                                           /* Don't send a msg to me if I'm an MCT    */
      122     1945    3                   CALL M$DEACTIVATE(FPT_DEACTIVATE) ALTRET(IGNOR1);
      123     1946    3   IGNOR1:         ;
      124     1947    3                   TP$STATION.FLAGS.MCT = '0'B;
      125     1948    3                   CALL QQC$BLDMSG_ERRBLK(MSGBLK);
      126     1949    3                   MSGBLK.ERRINFO.ERR(0) = CODE_UDOS;
PL6.E3A0      #001=QQA$STA_DIS File=QQA$STA_DIS.:E05TSI                          WED 07/30/97 05:27 Page:8
      127     1950    3                   TEXTC_STATION.NAME# = TP$STATION.ID;
      128     1951    3                   TEXTC_STATION.L# = 8;
      129     1952    3                   MSGBLK.ERRINFO.FIELD1(0) = VECTOR(TEXTC_STATION);
      130     1953    3                   TEXTC_LINE.NAME# = TP$STATION.LINE_INFO;
      131     1954    3                   CALL INDEX (CHAR_STRING_SIZE, ' ', TP$STATION.LINE_INFO);
      132     1955    3                   TEXTC_LINE.L# = CHAR_STRING_SIZE;
      133     1956    3                   MSGBLK.ERRINFO.FIELD2(0) = VECTOR(TEXTC_LINE);
      134     1957    3                   CALL QQC$BLDMSG(MSGBLK);
      135     1958    3                 END;
      136     1959
      137     1960    2               P$ = PINCRW(QQ_GLOBAL.STATION$, QQ_GLOBAL.STATION_CNT * SIZEW(TP$STATION
              1960                        ));
      138     1961    2               TEMP_PTR$ = PINCRW(S$, SIZEW(TP$STATION));
      139     1962    2               CHAR_STRING_SIZE = POFFC(P$, TEMP_PTR$);
      140     1963    2               S$ -> CHAR$STRING = TEMP_PTR$ -> CHAR$STRING;
      141     1964    2               QQ_GLOBAL.STATION_CNT = QQ_GLOBAL.STATION_CNT - 1;
      142     1965    2               QQ_GLOBAL.STATIONSLOTS = QQ_GLOBAL.STATIONSLOTS + 1;
      143     1966
      144     1967    2               SLOTS_PER_PAGE = 1024 / SIZEW(TP$STATION);
      145     1968    2               IF QQ_GLOBAL.STATIONSLOTS - SLOTS_PER_PAGE > 5 THEN
      146     1969    3                 DO;
      147     1970    3                   VLP_VECTOR.PTR$ = QQ_GLOBAL.STATION$;
      148     1971    3                   CALL M$FDS(FPT_FDS) ALTRET(MON_ERR);
      149     1972    3                   QQ_GLOBAL.STATIONSLOTS = QQ_GLOBAL.STATIONSLOTS - SLOTS_PER_PAGE;
      150     1973    3                 END;
      151     1974    2             END;
      152     1975
      153     1976    1           RETURN;
      154     1977
      155     1978    1   MON_ERR:
      156     1979    1           QQ_GLOBAL.ERR = B$TCB$ -> B$TCB.ALT$ -> B$ALT.ERR;
      157     1980    1           CALL QQC$SCREECH;
      158     1981    1   END QQA$STA_DIS;

PL6.E3A0      #001=QQA$STA_DIS File=QQA$STA_DIS.:E05TSI                          WED 07/30/97 05:27 Page:9
--  Include file information  --

   Q_ERRCODE_C.:E05TOU  is referenced.
   QQ_PERR_C.:E05TOU  is referenced.
   QQ_DATA_R.:E05TOU  cannot be made into a system file and is referenced.
   CP_6.:E05TOU  cannot be made into a system file and is referenced.
   QQ_SUBS_C.:E05TOU  is referenced.
   QQ_MACROS_C.:E05TOU  is referenced.
   QQ_SUPER_C.:E05TOU  is referenced.
   Q_PAGE_C.:E05TOU  is referenced.
   B$JIT_C.:E05TOU  was found in the system file and is never referenced.
   CP_6_C.:E05TOU  was found in the system file and is referenced.
      No diagnostics issued in procedure QQA$STA_DIS.

   Procedure QQA$STA_DIS requires 166 words for executable code.
   Procedure QQA$STA_DIS requires 44 words of local(AUTO) storage.

    No errors detected in file QQA$STA_DIS.:E05TSI    .

PL6.E3A0      #001=QQA$STA_DIS File=QQA$STA_DIS.:E05TSI                          WED 07/30/97 05:27 Page:10

 Object Unit name= QQA$STA_DIS                                File name= QQA$STA_DIS.:E05TOU
 UTS= JUL 30 '97 05:27:10.88 WED                              Compiler= PL-6/E31         Sev=      00
 SharedLib= :SHARED_SYSTEM                                    Alt SharedLib=


    ****  Control sections  ****

 Sect   Type Bound  Init  Size OctSiz  Section name(segment info)
    0   DCB   even  none     0      0  M$UC
    1   DCB   even  none     0      0  M$CG
    2   Data  even  none    26     32  QQA$STA_DIS
    3  RoData even  UTS      1      1  QQA$STA_DIS
    4   Proc  even  none   166    246  QQA$STA_DIS
    5  RoData even  none     5      5  QQA$STA_DIS

    ****  Entry defs  ****

                              Check   Calling
                             calling  sequence
  Sect OctLoc Primary Altret sequence   type   Parms  Name
     4      0   yes            yes      Std        0  QQA$STA_DIS

  ****  Entry refs  ****

         Check        Calling
        calling       sequence
Altret sequence SRef   type   Args  Name
         yes           Std       3 QQC$FINDSTA
         yes           Std       2 QQC$RLS_BLK
         yes           Std       0 QQC$SCREECH
         yes           Std       1 QQC$BLDMSG
         yes           Std       1 QQC$BLDMSG_ERRBLK
                       nStd      0 X66_AUTO_0
                       Std       0 B_CONSPOOL_D
                       nStd      0 X66_ARET
PL6.E3A0      #001=QQA$STA_DIS File=QQA$STA_DIS.:E05TSI                          WED 07/30/97 05:27 Page:11

  ****  Data refs  ****

  Flags:  r = read only, s = secondary
Flgs Name                             Flgs Name                             Flgs Name
     M$UC                                  QQ_GLOBAL                             M$CG
     B$TCB$                                B_VECTNIL

  ****  Segment refs  ****

  Flags:  r = read only, s = secondary
Flgs Name                             Flgs Name                             Flgs Name
     ISSID                                 NULLSID
PL6.E3A0      #001=QQA$STA_DIS File=QQA$STA_DIS.:E05TSI                          WED 07/30/97 05:27 Page:12


        1        1        /*M* QQA$STA_DIS - Process station disconnect events */
        2        2        /*T***********************************************************/
        3        3        /*T*                                                         */
        4        4        /*T* Copyright (c) Bull HN Information Systems Inc., 1997    */
        5        5        /*T*                                                         */
        6        6        /*T***********************************************************/
        7        7        /*X* IND=2, DCI=4, CSU=2, ECU=4, DTI=2, CTI=4, AND */
        8        8        /*P* NAME:        QQA$STA_DIS
        9        9
       10       10             PURPOSE:     To process *AUEV messages indicating that a
       11       11                          TP station has disconnected from the comgroup
       12       12        */
       13       13        /*D* NAME:        QQA$STA_DIS
       14       14
       15       15             CALL:        CALL QQA$STA_DIS
       16       16
       17       17             INPUT:       The contents of the *AUEV disconnect message
       18       18
       19       19             OUTPUT:      None
       20       20
       21       21             DESCRIPTION: If the station is currently connected we find
       22       22                          its context and delete it.  To delete the
       23       23                          context we squish down the context of all the
       24       24                          remaining stations to fill in the gap for the
       25       25                          station that is disconnecting.
       26       26
       27       27                          If we are not expecting the station to
       28       28                          disconnect at this time we print a message to the
       29       29                          MCT.  By not expecting it to disconnect we mean
       30       30                          that the station has not typed OFF, BYE or been
       31       31                          KILLED. Also, we must M$DEACTIVATE the station
       32       32                          in order to remove the remaining FPRG user since
       33       33                          the disconnect applied only to the device, not
       34       34                          the user.
       35       35        */
       36       36        %EJECT;
PL6.E3A0      #001=QQA$STA_DIS File=QQA$STA_DIS.:E05TSI                          WED 07/30/97 05:27 Page:13
       37       37        QQA$STA_DIS:
       38       38                PROC;

     38  4 000000   000000 700200 xent  QQA$STA_DIS  TSX0  ! X66_AUTO_0
         4 000001   000054 000000                    ZERO    44,0

       39       39
       40       40        %INCLUDE Q_PAGE_C;
       41       72        %SET LISTEXP = '1'B;
       42       73        %PAGE(ARG="Includes");

                90        /***************************************************************************
                91         *                                                                         *
                92         *                                  Includes                               *
                93         *                                                                         *
                94         ***************************************************************************/

       43       98        %INCLUDE QQ_SUPER_C;
       44      153        %INCLUDE QQ_MACROS_C;
       45      578        %INCLUDE QQ_SUBS_C;
       46      770        %INCLUDE CP_6;
       47      851        %INCLUDE QQ_DATA_R;
       48     1097        %INCLUDE QQ_PERR_C;
       49     1258        %INCLUDE Q_ERRCODE_C;
       50     1281        %PAGE(ARG="Externally defined routines");

              1298    1   /***************************************************************************
              1299    1    *                                                                         *
              1300    1    *                        Externally defined routines                      *
              1301    1    *                                                                         *
              1302    1    ***************************************************************************/

       51     1306    1   DCL QQC$FINDSTA ENTRY(3);
       52     1307    1   DCL QQC$BLDMSG_ERRBLK ENTRY(1);
       53     1308    1   DCL QQC$BLDMSG ENTRY(1);
       54     1309    1   DCL QQC$RLS_BLK ENTRY(2);
       55     1310    1   DCL QQC$SCREECH ENTRY;
PL6.E3A0      #001=QQA$STA_DIS File=QQA$STA_DIS.:E05TSI                          WED 07/30/97 05:27 Page:14
       56     1311        %PAGE(ARG="DCBs");

              1328    1   /***************************************************************************
              1329    1    *                                                                         *
              1330    1    *                                    DCBs                                 *
              1331    1    *                                                                         *
              1332    1    ***************************************************************************/

       57     1336    1   DCL M$CG DCB;
       58     1337        %PAGE(ARG="Symrefs");

              1354    1   /***************************************************************************
              1355    1    *                                                                         *
              1356    1    *                                  Symrefs                                *
              1357    1    *                                                                         *
              1358    1    ***************************************************************************/

       59     1362    1   DCL B$TCB$ PTR SYMREF;
       60     1363        %PAGE(ARG="Based");

              1380    1   /***************************************************************************
              1381    1    *                                                                         *
              1382    1    *                                   Based                                 *
              1383    1    *                                                                         *
              1384    1    ***************************************************************************/

       61     1388        %B$TCB;
       62     1391        %B$ALT;
       63     1399        %B$CGAURD(STCLASS="BASED(QQ_GLOBAL.CMDBUF$)", LAST=", ");
       64     1418        %B$CGAUCI(LVL=2, LAST=", ");
       65     1440        %QQ$LOGON(LVL=2);
       66     1476        %TP$STATION;
       67     1549    1   DCL CHAR$STRING CHAR(CHAR_STRING_SIZE) BASED;
       68     1550        %PAGE(ARG="Static");

              1567    1   /***************************************************************************
              1568    1    *                                                                         *
PL6.E3A0      #001=QQA$STA_DIS File=QQA$STA_DIS.:E05TSI                          WED 07/30/97 05:27 Page:15
              1569    1    *                                   Static                                *
              1570    1    *                                                                         *
              1571    1    ***************************************************************************/

       69     1575    1   DCL STATION CHAR(8) STATIC;
       70     1576        %PAGE(ARG="Auto");

              1593    1   /***************************************************************************
              1594    1    *                                                                         *
              1595    1    *                                    Auto                                 *
              1596    1    *                                                                         *
              1597    1    ***************************************************************************/

       71     1601    1   DCL P$ PTR;
       72     1602    1   DCL TEMP_PTR$ PTR;
       73     1603
       74     1604    1   DCL FOUND_FLAG BIT(1) ALIGNED;
       75     1605
       76     1606    1   DCL CHAR_STRING_SIZE SBIN WORD;
       77     1607    1   DCL SLOTS_PER_PAGE SBIN WORD;
       78     1608
       79     1609        %MSGBLK;
       80     1699        %VLP_NAME(FPTN=TEXTC_STATION, STCLASS=AUTO, LEN=8);
       81     1726        %VLP_NAME(FPTN=TEXTC_LINE, STCLASS=AUTO, LEN=20);
       82     1753        %PAGE(ARG="Error codes", PAGE=YES);

PL6.E3A0      #001=QQA$STA_DIS File=QQA$STA_DIS.:E05TSI                          WED 07/30/97 05:27 Page:16
              1770    1   /***************************************************************************
              1771    1    *                                                                         *
              1772    1    *                                Error codes                              *
              1773    1    *                                                                         *
              1774    1    ***************************************************************************/

       83     1778        %ERRCODE(NAME=CODE_UDOS, CODE#=%E$UDOS, FCG#=%FCG_QQ, MID#=%MID_A);
       84     1785        /*E* ERROR:       QQA-E$UDOS-C
       85     1786
       86     1787             MESSAGE:     Unexpected disconnect of STATION %U1 %(%U2)%
       87     1788             DESCRIPTION: A STATION has disconnected (vanished) for
       88     1789                          an unknown reason. E.G., he did not type OFF
       89     1790        */
       90     1791        %PAGE(ARG="FPTs", PAGE=YES);

PL6.E3A0      #001=QQA$STA_DIS File=QQA$STA_DIS.:E05TSI                          WED 07/30/97 05:27 Page:17
              1808    1   /***************************************************************************
              1809    1    *                                                                         *
              1810    1    *                                    FPTs                                 *
              1811    1    *                                                                         *
              1812    1    ***************************************************************************/

       91     1816        %FPT_ACTIVATE(FPTN=FPT_DEACTIVATE,DCB=M$CG,STATION=STATION);
       92     1839        %FPT_FDS(RESULTS=VLP_VECTOR, SEGSIZE=1024);
       93     1854        %PAGE(ARG="VLPs");

              1871    1   /***************************************************************************
              1872    1    *                                                                         *
              1873    1    *                                    VLPs                                 *
              1874    1    *                                                                         *
              1875    1    ***************************************************************************/

       94     1879        %VLP_VECTOR;
       95     1894        %PAGE(ARG="QQA$STA_DIS", PAGE=YES);

PL6.E3A0      #001=QQA$STA_DIS File=QQA$STA_DIS.:E05TSI                          WED 07/30/97 05:27 Page:18
              1911    1   /***************************************************************************
              1912    1    *                                                                         *
              1913    1    *                                QQA$STA_DIS                              *
              1914    1    *                                                                         *
              1915    1    ***************************************************************************/

       96     1919    1           STATION = B$CGAURD.STATION;

   1919  4 000002   000052 470400 xsym               LDP0    QQ_GLOBAL+42
         4 000003   040000 100500                    MLR     fill='040'O
         4 000004   000001 000010                    ADSC9   1,,PR0                   cn=0,n=8
         4 000005   000000 000010 2                  ADSC9   STATION                  cn=0,n=8

       97     1920    1           CALL QQC$FINDSTA(STATION, S$, FOUND_FLAG);

   1920  4 000006   200006 631500                    EPPR1   FOUND_FLAG,,AUTO
         4 000007   200052 451500                    STP1    TEXTC_LINE+9,,AUTO
         4 000010   200003 633500                    EPPR3   S$,,AUTO
         4 000011   200051 453500                    STP3    TEXTC_LINE+8,,AUTO
         4 000012   000000 236000 5                  LDQ     0
         4 000013   200050 756100                    STQ     TEXTC_LINE+7,,AUTO
         4 000014   200050 630500                    EPPR0   TEXTC_LINE+7,,AUTO
         4 000015   000021 631400 xsym               EPPR1   B_VECTNIL+17
         4 000016   000000 701000 xent               TSX1    QQC$FINDSTA
         4 000017   000000 011000                    NOP     0

       98     1921
       99     1922    1           IF FOUND_FLAG THEN

   1922  4 000020   200006 234100                    SZN     FOUND_FLAG,,AUTO
         4 000021   000235 605000 4                  TPL     s:1976

      100     1923    2             DO;

      101     1924    2               IF QQ_GLOBAL.HELP_S$ = S$ THEN

   1924  4 000022   000070 236000 xsym               LDQ     QQ_GLOBAL+56
PL6.E3A0      #001=QQA$STA_DIS File=QQA$STA_DIS.:E05TSI                          WED 07/30/97 05:27 Page:19
         4 000023   200003 116100                    CMPQ    S$,,AUTO
         4 000024   000027 601000 4                  TNZ     s:1926

      102     1925    2                 QQ_GLOBAL.HELP_S$ = ADDR(NIL);

   1925  4 000025   000001 236000 xsym               LDQ     B_VECTNIL+1
         4 000026   000070 756000 xsym               STQ     QQ_GLOBAL+56

      103     1926    2               IF TP$STATION.FIRST_CMD$ ~= ADDR(NIL) THEN

   1926  4 000027   200003 470500                    LDP0    S$,,AUTO
         4 000030   000016 236100                    LDQ     14,,PR0
         4 000031   000001 116000 xsym               CMPQ    B_VECTNIL+1
         4 000032   000043 600000 4                  TZE     s:1932

      104     1927    3                 DO;

      105     1928    3                   CALL QQC$RLS_BLK(QQ_GLOBAL.POOL$, TP$STATION.FIRST_CMD$);

   1928  4 000033   200003 236100                    LDQ     S$,,AUTO
         4 000034   000016 036003                    ADLQ    14,DU
         4 000035   000001 235000 5                  LDA     1
         4 000036   200050 757100                    STAQ    TEXTC_LINE+7,,AUTO
         4 000037   200050 630500                    EPPR0   TEXTC_LINE+7,,AUTO
         4 000040   000020 631400 xsym               EPPR1   B_VECTNIL+16
         4 000041   000000 701000 xent               TSX1    QQC$RLS_BLK
         4 000042   000000 011000                    NOP     0

      106     1929    3                 END;

      107     1930
      108     1931
      109     1932    2               IF TP$STATION.FPLDTRC$ ~= ADDR(NIL) THEN

   1932  4 000043   200003 470500                    LDP0    S$,,AUTO
         4 000044   000017 236100                    LDQ     15,,PR0
         4 000045   000001 116000 xsym               CMPQ    B_VECTNIL+1
PL6.E3A0      #001=QQA$STA_DIS File=QQA$STA_DIS.:E05TSI                          WED 07/30/97 05:27 Page:20
         4 000046   000057 600000 4                  TZE     s:1937

      110     1933    3                 DO;

      111     1934    3                   CALL QQC$RLS_BLK(QQ_GLOBAL.POOL$, TP$STATION.FPLDTRC$);

   1934  4 000047   200003 236100                    LDQ     S$,,AUTO
         4 000050   000017 036003                    ADLQ    15,DU
         4 000051   000001 235000 5                  LDA     1
         4 000052   200050 757100                    STAQ    TEXTC_LINE+7,,AUTO
         4 000053   200050 630500                    EPPR0   TEXTC_LINE+7,,AUTO
         4 000054   000020 631400 xsym               EPPR1   B_VECTNIL+16
         4 000055   000000 701000 xent               TSX1    QQC$RLS_BLK
         4 000056   000000 011000                    NOP     0

      112     1935    3                 END;

      113     1936
      114     1937    2               IF TP$STATION.QT$FORM$ ~= ADDR(NIL) THEN

   1937  4 000057   200003 470500                    LDP0    S$,,AUTO
         4 000060   000015 236100                    LDQ     13,,PR0
         4 000061   000001 116000 xsym               CMPQ    B_VECTNIL+1
         4 000062   000073 600000 4                  TZE     s:1942

      115     1938    3                 DO;

      116     1939    3                   CALL QQC$RLS_BLK(QQ_GLOBAL.POOL$, TP$STATION.QT$FORM$);

   1939  4 000063   200003 236100                    LDQ     S$,,AUTO
         4 000064   000015 036003                    ADLQ    13,DU
         4 000065   000001 235000 5                  LDA     1
         4 000066   200050 757100                    STAQ    TEXTC_LINE+7,,AUTO
         4 000067   200050 630500                    EPPR0   TEXTC_LINE+7,,AUTO
         4 000070   000020 631400 xsym               EPPR1   B_VECTNIL+16
         4 000071   000000 701000 xent               TSX1    QQC$RLS_BLK
         4 000072   000000 011000                    NOP     0
PL6.E3A0      #001=QQA$STA_DIS File=QQA$STA_DIS.:E05TSI                          WED 07/30/97 05:27 Page:21

      117     1940    3                 END;

      118     1941
      119     1942    2               IF NOT TP$STATION.FLAGS.DISCONNECT THEN

   1942  4 000073   200003 470500                    LDP0    S$,,AUTO
         4 000074   000022 236100                    LDQ     18,,PR0
         4 000075   020000 316003                    CANQ    8192,DU
         4 000076   000164 601000 4                  TNZ     s:1960

      120     1943    3                 DO;

      121     1944                                           /* Don't send a msg to me if I'm an MCT    */
      122     1945    3                   CALL M$DEACTIVATE(FPT_DEACTIVATE) ALTRET(IGNOR1);

   1945  4 000077   000002 630400 2                  EPPR0   FPT_DEACTIVATE
         4 000100   500001 713400                    CLIMB   alt,+32769
         4 000101   401400 401760                    pmme    nvectors=4
         4 000102   000103 702000 4                  TSX2    IGNOR1

   1945  4 000103                       IGNOR1       null
      123     1946    3   IGNOR1:         ;
      124     1947    3                   TP$STATION.FLAGS.MCT = '0'B;

   1947  4 000103   200003 470500                    LDP0    S$,,AUTO
         4 000104   000002 236000 5                  LDQ     2
         4 000105   000022 356100                    ANSQ    18,,PR0

      125     1948    3                   CALL QQC$BLDMSG_ERRBLK(MSGBLK);

   1948  4 000106   200011 631500                    EPPR1   MSGBLK,,AUTO
         4 000107   200050 451500                    STP1    TEXTC_LINE+7,,AUTO
         4 000110   200050 630500                    EPPR0   TEXTC_LINE+7,,AUTO
         4 000111   000017 631400 xsym               EPPR1   B_VECTNIL+15
         4 000112   000000 701000 xent               TSX1    QQC$BLDMSG_ERRBLK
         4 000113   000000 011000                    NOP     0
PL6.E3A0      #001=QQA$STA_DIS File=QQA$STA_DIS.:E05TSI                          WED 07/30/97 05:27 Page:22

      126     1949    3                   MSGBLK.ERRINFO.ERR(0) = CODE_UDOS;

   1949  4 000114   000000 236000 3                  LDQ     CODE_UDOS
         4 000115   200017 756100                    STQ     MSGBLK+6,,AUTO

      127     1950    3                   TEXTC_STATION.NAME# = TP$STATION.ID;

   1950  4 000116   200003 470500                    LDP0    S$,,AUTO
         4 000117   040100 100500                    MLR     fill='040'O
         4 000120   000000 000010                    ADSC9   0,,PR0                   cn=0,n=8
         4 000121   200036 200010                    ADSC9   TEXTC_STATION,,AUTO      cn=1,n=8

      128     1951    3                   TEXTC_STATION.L# = 8;

   1951  4 000122   010000 236003                    LDQ     4096,DU
         4 000123   200036 552140                    STBQ    TEXTC_STATION,'40'O,AUTO

      129     1952    3                   MSGBLK.ERRINFO.FIELD1(0) = VECTOR(TEXTC_STATION);

   1952  4 000124   000003 235000 5                  LDA     3
         4 000125   200050 452500                    STP2    TEXTC_LINE+7,,AUTO
         4 000126   200050 236100                    LDQ     TEXTC_LINE+7,,AUTO
         4 000127   000036 036003                    ADLQ    30,DU
         4 000130   200052 757100                    STAQ    TEXTC_LINE+9,,AUTO
         4 000131   000100 100500                    MLR     fill='000'O
         4 000132   200052 000010                    ADSC9   TEXTC_LINE+9,,AUTO       cn=0,n=8
         4 000133   200020 200010                    ADSC9   MSGBLK+7,,AUTO           cn=1,n=8

      130     1953    3                   TEXTC_LINE.NAME# = TP$STATION.LINE_INFO;

   1953  4 000134   040100 100500                    MLR     fill='040'O
         4 000135   000024 200024                    ADSC9   20,,PR0                  cn=1,n=20
         4 000136   200041 200024                    ADSC9   TEXTC_LINE,,AUTO         cn=1,n=20

      131     1954    3                   CALL INDEX (CHAR_STRING_SIZE, ' ', TP$STATION.LINE_INFO);

PL6.E3A0      #001=QQA$STA_DIS File=QQA$STA_DIS.:E05TSI                          WED 07/30/97 05:27 Page:23
   1954  4 000137   000000 124500                    SCM     mask='000'O
         4 000140   000024 200024                    ADSC9   20,,PR0                  cn=1,n=20
         4 000141   000035 000001 xsym               ADSC9   B_VECTNIL+29             cn=0,n=1
         4 000142   200007 000100                    ARG     CHAR_STRING_SIZE,,AUTO

      132     1955    3                   TEXTC_LINE.L# = CHAR_STRING_SIZE;

   1955  4 000143   200007 236100                    LDQ     CHAR_STRING_SIZE,,AUTO
         4 000144   000033 736000                    QLS     27
         4 000145   200041 552140                    STBQ    TEXTC_LINE,'40'O,AUTO

      133     1956    3                   MSGBLK.ERRINFO.FIELD2(0) = VECTOR(TEXTC_LINE);

   1956  4 000146   000004 235000 5                  LDA     4
         4 000147   200050 452500                    STP2    TEXTC_LINE+7,,AUTO
         4 000150   200050 236100                    LDQ     TEXTC_LINE+7,,AUTO
         4 000151   000041 036003                    ADLQ    33,DU
         4 000152   200052 757100                    STAQ    TEXTC_LINE+9,,AUTO
         4 000153   000100 100500                    MLR     fill='000'O
         4 000154   200052 000010                    ADSC9   TEXTC_LINE+9,,AUTO       cn=0,n=8
         4 000155   200022 200010                    ADSC9   MSGBLK+9,,AUTO           cn=1,n=8

      134     1957    3                   CALL QQC$BLDMSG(MSGBLK);

   1957  4 000156   200011 631500                    EPPR1   MSGBLK,,AUTO
         4 000157   200050 451500                    STP1    TEXTC_LINE+7,,AUTO
         4 000160   200050 630500                    EPPR0   TEXTC_LINE+7,,AUTO
         4 000161   000017 631400 xsym               EPPR1   B_VECTNIL+15
         4 000162   000000 701000 xent               TSX1    QQC$BLDMSG
         4 000163   000000 011000                    NOP     0

      135     1958    3                 END;

      136     1959
      137     1960    2              P$ = PINCRW(QQ_GLOBAL.STATION$, QQ_GLOBAL.STATION_CNT * SIZEW(TP$STATION
              1960                        ));

PL6.E3A0      #001=QQA$STA_DIS File=QQA$STA_DIS.:E05TSI                          WED 07/30/97 05:27 Page:24
   1960  4 000164   000032 236000 xsym               LDQ     QQ_GLOBAL+26
         4 000165   000032 402003                    MPY     26,DU
         4 000166   000151 036000 xsym               ADLQ    QQ_GLOBAL+105
         4 000167   200004 756100                    STQ     P$,,AUTO

      138     1961    2               TEMP_PTR$ = PINCRW(S$, SIZEW(TP$STATION));

   1961  4 000170   200003 236100                    LDQ     S$,,AUTO
         4 000171   000032 036003                    ADLQ    26,DU
         4 000172   200005 756100                    STQ     TEMP_PTR$,,AUTO

      139     1962    2               CHAR_STRING_SIZE = POFFC(P$, TEMP_PTR$);

   1962  4 000173   200005 236100                    LDQ     TEMP_PTR$,,AUTO
         4 000174   000020 772000                    QRL     16
         4 000175   200050 756100                    STQ     TEXTC_LINE+7,,AUTO
         4 000176   200004 236100                    LDQ     P$,,AUTO
         4 000177   000020 772000                    QRL     16
         4 000200   200050 136100                    SBLQ    TEXTC_LINE+7,,AUTO
         4 000201   200007 756100                    STQ     CHAR_STRING_SIZE,,AUTO

      140     1963    2               S$ -> CHAR$STRING = TEMP_PTR$ -> CHAR$STRING;

   1963  4 000202   200005 470500                    LDP0    TEMP_PTR$,,AUTO
         4 000203   000000 620006                    EAX0    0,QL
         4 000204   200003 471500                    LDP1    S$,,AUTO
         4 000205   200007 721100                    LXL1    CHAR_STRING_SIZE,,AUTO
         4 000206   040140 100540                    MLR     fill='040'O
         4 000207   000000 000010                    ADSC9   0,,PR0                   cn=0,n=*X0
         4 000210   100000 000011                    ADSC9   0,,PR1                   cn=0,n=*X1

      141     1964    2               QQ_GLOBAL.STATION_CNT = QQ_GLOBAL.STATION_CNT - 1;

   1964  4 000211   000032 235000 xsym               LDA     QQ_GLOBAL+26
         4 000212   000001 135007                    SBLA    1,DL
         4 000213   000032 755000 xsym               STA     QQ_GLOBAL+26

PL6.E3A0      #001=QQA$STA_DIS File=QQA$STA_DIS.:E05TSI                          WED 07/30/97 05:27 Page:25
      142     1965    2               QQ_GLOBAL.STATIONSLOTS = QQ_GLOBAL.STATIONSLOTS + 1;

   1965  4 000214   000044 236000 xsym               LDQ     QQ_GLOBAL+36
         4 000215   000001 036007                    ADLQ    1,DL
         4 000216   000044 756000 xsym               STQ     QQ_GLOBAL+36

      143     1966
      144     1967    2               SLOTS_PER_PAGE = 1024 / SIZEW(TP$STATION);

   1967  4 000217   000047 235007                    LDA     39,DL
         4 000220   200010 755100                    STA     SLOTS_PER_PAGE,,AUTO

      145     1968    2               IF QQ_GLOBAL.STATIONSLOTS - SLOTS_PER_PAGE > 5 THEN

   1968  4 000221   200010 136100                    SBLQ    SLOTS_PER_PAGE,,AUTO
         4 000222   000005 116007                    CMPQ    5,DL
         4 000223   000235 604400 4                  TMOZ    s:1976

      146     1969    3                 DO;

      147     1970    3                   VLP_VECTOR.PTR$ = QQ_GLOBAL.STATION$;

   1970  4 000224   000151 236000 xsym               LDQ     QQ_GLOBAL+105
         4 000225   000031 756000 2                  STQ     VLP_VECTOR+1

      148     1971    3                   CALL M$FDS(FPT_FDS) ALTRET(MON_ERR);

   1971  4 000226   000022 630400 2                  EPPR0   FPT_FDS
         4 000227   430002 713400                    CLIMB   alt,fds
         4 000230   400400 401760                    pmme    nvectors=2
         4 000231   000236 702000 4                  TSX2    MON_ERR

      149     1972    3                   QQ_GLOBAL.STATIONSLOTS = QQ_GLOBAL.STATIONSLOTS - SLOTS_PER_PAGE;

   1972  4 000232   000044 236000 xsym               LDQ     QQ_GLOBAL+36
         4 000233   200010 136100                    SBLQ    SLOTS_PER_PAGE,,AUTO
         4 000234   000044 756000 xsym               STQ     QQ_GLOBAL+36
PL6.E3A0      #001=QQA$STA_DIS File=QQA$STA_DIS.:E05TSI                          WED 07/30/97 05:27 Page:26

      150     1973    3                 END;

      151     1974    2             END;

      152     1975
      153     1976    1           RETURN;

   1976  4 000235   000000 702200 xent               TSX2  ! X66_ARET

      154     1977
      155     1978    1   MON_ERR:
      156     1979    1           QQ_GLOBAL.ERR = B$TCB$ -> B$TCB.ALT$ -> B$ALT.ERR;

   1979  4 000236   000000 470400 xsym  MON_ERR      LDP0    B$TCB$
         4 000237   000000 471500                    LDP1    0,,PR0
         4 000240   100102 236100                    LDQ     66,,PR1
         4 000241   000000 756000 xsym               STQ     QQ_GLOBAL

      157     1980    1           CALL QQC$SCREECH;

   1980  4 000242   000002 631400 xsym               EPPR1   B_VECTNIL+2
         4 000243   000000 701000 xent               TSX1    QQC$SCREECH
         4 000244   000000 011000                    NOP     0

      158     1981    1   END QQA$STA_DIS;

   1981  4 000245   000000 702200 xent               TSX2  ! X66_ARET

PL6.E3A0      #001=QQA$STA_DIS File=QQA$STA_DIS.:E05TSI                          WED 07/30/97 05:27 Page:27
--  Include file information  --

   Q_ERRCODE_C.:E05TOU  is referenced.
   QQ_PERR_C.:E05TOU  is referenced.
   QQ_DATA_R.:E05TOU  cannot be made into a system file and is referenced.
   CP_6.:E05TOU  cannot be made into a system file and is referenced.
   QQ_SUBS_C.:E05TOU  is referenced.
   QQ_MACROS_C.:E05TOU  is referenced.
   QQ_SUPER_C.:E05TOU  is referenced.
   Q_PAGE_C.:E05TOU  is referenced.
   B$JIT_C.:E05TOU  was found in the system file and is never referenced.
   CP_6_C.:E05TOU  was found in the system file and is referenced.
      No diagnostics issued in procedure QQA$STA_DIS.
PL6.E3A0      #001=QQA$STA_DIS File=QQA$STA_DIS.:E05TSI                          WED 07/30/97 05:27 Page:28

 **** Variables and constants ****

  ****  Section 002  Data  QQA$STA_DIS

  ****  Scalars and arrays  ****
OctLoc.c.b A Datatyp(siz) R M Lvl/name                 OctLoc.c.b A Datatyp(siz) R M Lvl/name

     2-0-0/d STRC(576)   r     1 FPT_DEACTIVATE            22-0-0/d STRC(216)   r     1 FPT_FDS
     0-0-0/c CHAR(8)     r     1 STATION                   30-0-0/d STRC(72)    r     1 VLP_VECTOR

  ****  Section 003 RoData QQA$STA_DIS

  ****  Scalars and arrays  ****
OctLoc.c.b A Datatyp(siz) R M Lvl/name                 OctLoc.c.b A Datatyp(siz) R M Lvl/name

     0-0-0/b STRC        r     1 CODE_UDOS

  ****  Auto variables  ****

  ****  Scalars and arrays  ****
OctLoc.c.b A Datatyp(siz) R M Lvl/name                 OctLoc.c.b A Datatyp(siz) R M Lvl/name

     7-0-0/w SBIN        r     1 CHAR_STRING_SIZE           6-0-0/w BIT         r     1 FOUND_FLAG
    11-0-0/w STRC(738)   r     1 MSGBLK                     4-0-0/w PTR         r     1 P$
     3-0-0/w PTR         r     1 S$                        10-0-0/w SBIN        r     1 SLOTS_PER_PAGE
     5-0-0/w PTR         r     1 TEMP_PTR$                 41-0-0/c STRC(189)   r     1 TEXTC_LINE
    36-0-0/c STRC(81)    r     1 TEXTC_STATION

  ****  SYMREF variables  ****

  ****  Scalars and arrays  ****
OctLoc.c.b A Datatyp(siz) R M Lvl/name                 OctLoc.c.b A Datatyp(siz) R M Lvl/name

     0-0-0/w PTR         r     1 B$TCB$                     0-0-0/d STRC(9090)  r     1 QQ_GLOBAL

  ****  BASED and DCB variables  ****

PL6.E3A0      #001=QQA$STA_DIS File=QQA$STA_DIS.:E05TSI                          WED 07/30/97 05:27 Page:29
  ****  Scalars and arrays  ****
OctLoc.c.b A Datatyp(siz) R M Lvl/name                 OctLoc.c.b A Datatyp(siz) R M Lvl/name

     0-0-0/w STRC(2448)  r     1 B$ALT                      0-0-0/w STRC(1548)  r     1 B$CGAURD
     0-0-0/w STRC(144)   r     1 B$TCB                      0-0-0/c ACHR        r     1 CHAR$STRING
     0-0-0N  NULL        r     1 M$CG                       0-0-0/w STRC(909)   r     1 TP$STATION


   Procedure QQA$STA_DIS requires 166 words for executable code.
   Procedure QQA$STA_DIS requires 44 words of local(AUTO) storage.

    No errors detected in file QQA$STA_DIS.:E05TSI    .
PL6.E3A0      #001=QQA$STA_DIS File=QQA$STA_DIS.:E05TSI                          WED 07/30/97 05:27 Page:30
          *** CROSS REFERENCE LISTING ***
**     DENOTES     IDENTIFIER DEFINITION
<<                 IDENTIFIER'S VALUE SET
>>                 IDENTIFIER'S VALUE USED
<>                 IDENTIFIER SET AND/OR USED
--                 IDENTIFIER REFERENCED
PL6.E3A0      #001=QQA$STA_DIS File=QQA$STA_DIS.:E05TSI                          WED 07/30/97 05:27 Page:31
          MINI XREF LISTING

B$ALT.CODE
      1393**DCL      1393--REDEF    1394--REDEF    1394--REDEF
B$ALT.ERR
      1394**DCL      1979>>ASSIGN
B$ALT.ERR.ERR#
      1395**DCL      1395--REDEF
B$ALT.EVID
      1394**DCL      1394--REDEF    1394--REDEF
B$CGAURD.B$CGAUCI.ATTR
      1437**DCL      1437--REDEF
B$CGAURD.STATION
      1415**DCL      1415--REDEF    1919>>ASSIGN
B$TCB.ALT$
      1389**DCL      1979>>ASSIGN
B$TCB$
      1362**DCL      1979>>ASSIGN
CHAR$STRING
      1549**DCL      1963<<ASSIGN   1963>>ASSIGN
CHAR_STRING_SIZE
      1606**DCL      1549--IMP-SIZ  1954<<CALLBLT  1955>>ASSIGN   1962<<ASSIGN   1963>>ASSIGN   1963>>ASSIGN
CODE_UDOS
      1779**DCL      1949>>ASSIGN
FOUND_FLAG
      1604**DCL      1920<>CALL     1922>>IF
FPT_DEACTIVATE
      1827**DCL      1945<>CALL
FPT_DEACTIVATE.V
      1828**DCL      1827--DCLINIT
FPT_DEACTIVATE.V.DVBYTE.REREAD#
      1830**DCL      1830--REDEF
FPT_FDS
      1850**DCL      1971<>CALL
PL6.E3A0      #001=QQA$STA_DIS File=QQA$STA_DIS.:E05TSI                          WED 07/30/97 05:27 Page:32
FPT_FDS.V
      1850**DCL      1850--DCLINIT
IGNOR1
      1945**LABEL    1945--CALLALT
M$DEACTIVATE
       799**DCL-ENT  1945--CALL
M$FDS
       814**DCL-ENT  1971--CALL
MON_ERR
      1979**LABEL    1971--CALLALT
MSGBLK
      1610**DCL      1948<>CALL     1957<>CALL
MSGBLK.ERRINFO.ERR
      1688**DCL      1949<<ASSIGN
MSGBLK.ERRINFO.FIELD1
      1692**DCL      1952<<ASSIGN
MSGBLK.ERRINFO.FIELD2
      1694**DCL      1956<<ASSIGN
P$
      1601**DCL      1960<<ASSIGN   1962>>ASSIGN
QQC$BLDMSG
      1308**DCL-ENT  1957--CALL
QQC$BLDMSG_ERRBLK
      1307**DCL-ENT  1948--CALL
QQC$FINDSTA
      1306**DCL-ENT  1920--CALL
QQC$RLS_BLK
      1309**DCL-ENT  1928--CALL     1934--CALL     1939--CALL
QQC$SCREECH
      1310**DCL-ENT  1980--CALL
QQ_GLOBAL.CMDBUF$
       868**DCL      1411--IMP-PTR  1919>>ASSIGN
QQ_GLOBAL.DS1$_BITS
       871**DCL       871--REDEF
QQ_GLOBAL.DS2$_BITS
       871**DCL       872--REDEF
PL6.E3A0      #001=QQA$STA_DIS File=QQA$STA_DIS.:E05TSI                          WED 07/30/97 05:27 Page:33
QQ_GLOBAL.DS3$_BITS
       872**DCL       872--REDEF
QQ_GLOBAL.DS4$_BITS
       872**DCL       873--REDEF
QQ_GLOBAL.ERR
       861**DCL      1979<<ASSIGN
QQ_GLOBAL.HELP_S$
       870**DCL      1924>>IF       1925<<ASSIGN
QQ_GLOBAL.POOL$
       872**DCL      1928<>CALL     1934<>CALL     1939<>CALL
QQ_GLOBAL.STATION$
       872**DCL      1960>>ASSIGN   1970>>ASSIGN
QQ_GLOBAL.STATIONSLOTS
       867**DCL      1965<<ASSIGN   1965>>ASSIGN   1968>>IF       1972<<ASSIGN   1972>>ASSIGN
QQ_GLOBAL.STATION_CNT
       866**DCL      1960>>ASSIGN   1964<<ASSIGN   1964>>ASSIGN
S$
      1488**DCL      1490--IMP-PTR  1920<>CALL     1924>>IF       1926>>IF       1928>>CALL     1932>>IF
      1934>>CALL     1937>>IF       1939>>CALL     1942>>IF       1947>>ASSIGN   1950>>ASSIGN   1953>>ASSIGN
      1954>>CALLBLT  1961>>ASSIGN   1963>>ASSIGN
SLOTS_PER_PAGE
      1607**DCL      1967<<ASSIGN   1968>>IF       1972>>ASSIGN
STATION
      1575**DCL      1827--DCLINIT  1919<<ASSIGN   1920<>CALL
TEMP_PTR$
      1602**DCL      1961<<ASSIGN   1962>>ASSIGN   1963>>ASSIGN
TEXTC_LINE
      1751**DCL      1956--ASSIGN
TEXTC_LINE.L#
      1751**DCL      1955<<ASSIGN
TEXTC_LINE.NAME#
      1751**DCL      1953<<ASSIGN
TEXTC_STATION
      1724**DCL      1952--ASSIGN
TEXTC_STATION.L#
      1724**DCL      1951<<ASSIGN
PL6.E3A0      #001=QQA$STA_DIS File=QQA$STA_DIS.:E05TSI                          WED 07/30/97 05:27 Page:34
TEXTC_STATION.NAME#
      1724**DCL      1950<<ASSIGN
TP$STATION
      1490**DCL      1960--ASSIGN   1961--ASSIGN   1967--ASSIGN
TP$STATION.FIRST_CMD$
      1508**DCL      1926>>IF       1928<>CALL
TP$STATION.FLAGS.DISCONNECT
      1526**DCL      1942>>IF
TP$STATION.FLAGS.MCT
      1520**DCL      1947<<ASSIGN
TP$STATION.FPLDTRC$
      1510**DCL      1932>>IF       1934<>CALL
TP$STATION.ID
      1491**DCL      1950>>ASSIGN
TP$STATION.LINE_INFO
      1546**DCL      1953>>ASSIGN   1954>>CALLBLT
TP$STATION.QT$FORM$
      1506**DCL      1937>>IF       1939<>CALL
VLP_VECTOR
      1890**DCL      1850--DCLINIT
VLP_VECTOR.PTR$
      1892**DCL      1970<<ASSIGN
VLP_VECTOR.W2
      1891**DCL      1892--REDEF
