VERSION E05

PL6.E3A0      #001=QQA$TPA File=QQA$TPA.:E05TSI                                  WED 07/30/97 05:27 Page:1
        1        1        /*M* QQA$TPA - TPA main program and entry point */
        2        2        /*T***********************************************************/
        3        3        /*T*                                                         */
        4        4        /*T* Copyright (c) Bull HN Information Systems Inc., 1997    */
        5        5        /*T*                                                         */
        6        6        /*T***********************************************************/
        7        7        /*X* IND=2, DCI=4, CSU=2, ECU=4, DTI=2, CTI=4, AND */
        8        8        QQA$TPA:
        9        9                PROC MAIN;
       10       10
       11       11        %INCLUDE Q_PAGE_C;
       12       43        %SET LISTEXP = '1'B;
       13       44        %PAGE(ARG="Includes");

                61        /***************************************************************************
                62         *                                                                         *
                63         *                                  Includes                               *
                64         *                                                                         *
                65         ***************************************************************************/

       14       69        %INCLUDE CP_6;
       15      150        %INCLUDE QQ_MACROS_C;
       16      575        %INCLUDE QQ_DATA_R;
       17      821        %PAGE(ARG="Externally defined routines");

               838    1   /***************************************************************************
               839    1    *                                                                         *
               840    1    *                        Externally defined routines                      *
               841    1    *                                                                         *
               842    1    ***************************************************************************/

       18      846    1   DCL QQA$PROCESS ENTRY;
       19      847    1   DCL QQA$INIT ENTRY;
       20      848        %PAGE(ARG="FPTs", PAGE=YES);

PL6.E3A0      #001=QQA$TPA File=QQA$TPA.:E05TSI                                  WED 07/30/97 05:27 Page:2
               865    1   /***************************************************************************
               866    1    *                                                                         *
               867    1    *                                    FPTs                                 *
               868    1    *                                                                         *
               869    1    ***************************************************************************/

       21      873        %FPT_WAIT(UETIME="QQ_GLOBAL.UETIME");
       22      887        %PAGE(ARG="QQA$TPA", PAGE=YES);

PL6.E3A0      #001=QQA$TPA File=QQA$TPA.:E05TSI                                  WED 07/30/97 05:27 Page:3
               904    1   /***************************************************************************
               905    1    *                                                                         *
               906    1    *                                  QQA$TPA                                *
               907    1    *                                                                         *
               908    1    ***************************************************************************/

       23      912    1           CALL QQA$INIT;
       24      913
       25      914    1           QQ_GLOBAL.INSTANCE_UP = '1'B;
       26      915
       27      916    1           REMEMBER IDLE_LOOP IN QQ_GLOBAL.IDLE_LOOP; /* Used by QQC$SCREECH */;
       28      917
       29      918    2           DO WHILE('1'B);
       30      919    3             DO INHIBIT;
       31      920
       32      921    3   IDLE_LOOP:
       33      922    3               CALL QQA$PROCESS;
       34      923    3               FPT_WAIT.V.UNITS# = QQ_GLOBAL.SLEEP_SECS;
       35      924    3               CALL M$WAIT(FPT_WAIT);
       36      925    3             END;
       37      926    2           END;
       38      927
       39      928    1   END QQA$TPA;

PL6.E3A0      #001=QQA$TPA File=QQA$TPA.:E05TSI                                  WED 07/30/97 05:27 Page:4
--  Include file information  --

   QQ_DATA_R.:E05TOU  cannot be made into a system file and is referenced.
   QQ_MACROS_C.:E05TOU  is referenced.
   CP_6.:E05TOU  cannot be made into a system file and is referenced.
   Q_PAGE_C.:E05TOU  is referenced.
   B$JIT_C.:E05TOU  was found in the system file and is never referenced.
   CP_6_C.:E05TOU  was found in the system file and is referenced.
      No diagnostics issued in procedure QQA$TPA.

   Procedure QQA$TPA requires 19 words for executable code.
   Procedure QQA$TPA requires 4 words of local(AUTO) storage.

    No errors detected in file QQA$TPA.:E05TSI    .

PL6.E3A0      #001=QQA$TPA File=QQA$TPA.:E05TSI                                  WED 07/30/97 05:27 Page:5

 Object Unit name= QQA$TPA                                    File name= QQA$TPA.:E05TOU
 UTS= JUL 30 '97 05:27:52.32 WED                              Compiler= PL-6/E31         Sev=      00
 SharedLib= :SHARED_SYSTEM                                    Alt SharedLib=


    ****  Control sections  ****

 Sect   Type Bound  Init  Size OctSiz  Section name(segment info)
    0   DCB   even  none     0      0  M$UC
    1   Data  even  none     6      6  QQA$TPA
    2   Proc  even  none    19     23  QQA$TPA

    ****  Entry defs  ****

                              Check   Calling
                             calling  sequence
  Sect OctLoc Primary Altret sequence   type   Parms  Name
     2      0   yes            yes      Main       0  QQA$TPA

  ****  Entry refs  ****

         Check        Calling
        calling       sequence
Altret sequence SRef   type   Args  Name
         yes           Std       0 QQA$INIT
         yes           Std       0 QQA$PROCESS
                       nStd      0 X66_MAUTO
                       Std       0 B_CONSPOOL_D

  ****  Data refs  ****

  Flags:  r = read only, s = secondary
Flgs Name                             Flgs Name                             Flgs Name
     M$UC                                  QQ_GLOBAL                             B_VECTNIL
PL6.E3A0      #001=QQA$TPA File=QQA$TPA.:E05TSI                                  WED 07/30/97 05:27 Page:6

  ****  Segment refs  ****

  Flags:  r = read only, s = secondary
Flgs Name                             Flgs Name                             Flgs Name
     ISSID
PL6.E3A0      #001=QQA$TPA File=QQA$TPA.:E05TSI                                  WED 07/30/97 05:27 Page:7


        1        1        /*M* QQA$TPA - TPA main program and entry point */
        2        2        /*T***********************************************************/
        3        3        /*T*                                                         */
        4        4        /*T* Copyright (c) Bull HN Information Systems Inc., 1997    */
        5        5        /*T*                                                         */
        6        6        /*T***********************************************************/
        7        7        /*X* IND=2, DCI=4, CSU=2, ECU=4, DTI=2, CTI=4, AND */
        8        8        QQA$TPA:
        9        9                PROC MAIN;

      9  2 000000   000000 700200 xent  QQA$TPA      TSX0  ! X66_MAUTO
         2 000001   000004 000000                    ZERO    4,0

       10       10
       11       11        %INCLUDE Q_PAGE_C;
       12       43        %SET LISTEXP = '1'B;
       13       44        %PAGE(ARG="Includes");

                61        /***************************************************************************
                62         *                                                                         *
                63         *                                  Includes                               *
                64         *                                                                         *
                65         ***************************************************************************/

       14       69        %INCLUDE CP_6;
       15      150        %INCLUDE QQ_MACROS_C;
       16      575        %INCLUDE QQ_DATA_R;
       17      821        %PAGE(ARG="Externally defined routines");

               838    1   /***************************************************************************
               839    1    *                                                                         *
               840    1    *                        Externally defined routines                      *
               841    1    *                                                                         *
               842    1    ***************************************************************************/

       18      846    1   DCL QQA$PROCESS ENTRY;
PL6.E3A0      #001=QQA$TPA File=QQA$TPA.:E05TSI                                  WED 07/30/97 05:27 Page:8
       19      847    1   DCL QQA$INIT ENTRY;
       20      848        %PAGE(ARG="FPTs", PAGE=YES);

PL6.E3A0      #001=QQA$TPA File=QQA$TPA.:E05TSI                                  WED 07/30/97 05:27 Page:9
               865    1   /***************************************************************************
               866    1    *                                                                         *
               867    1    *                                    FPTs                                 *
               868    1    *                                                                         *
               869    1    ***************************************************************************/

       21      873        %FPT_WAIT(UETIME="QQ_GLOBAL.UETIME");
       22      887        %PAGE(ARG="QQA$TPA", PAGE=YES);

PL6.E3A0      #001=QQA$TPA File=QQA$TPA.:E05TSI                                  WED 07/30/97 05:27 Page:10
               904    1   /***************************************************************************
               905    1    *                                                                         *
               906    1    *                                  QQA$TPA                                *
               907    1    *                                                                         *
               908    1    ***************************************************************************/

       23      912    1           CALL QQA$INIT;

    912  2 000002   000002 631400 xsym               EPPR1   B_VECTNIL+2
         2 000003   000000 701000 xent               TSX1    QQA$INIT
         2 000004   000000 011000                    NOP     0

       24      913
       25      914    1           QQ_GLOBAL.INSTANCE_UP = '1'B;

    914  2 000005   400000 236003                    LDQ     -131072,DU
         2 000006   000013 756000 xsym               STQ     QQ_GLOBAL+11

       26      915
       27      916    1           REMEMBER IDLE_LOOP IN QQ_GLOBAL.IDLE_LOOP; /* Used by QQC$SCREECH */;

    916  2 000007   000012 635000 2                  EAA     IDLE_LOOP
         2 000010   000064 452400 xsym               STP2    QQ_GLOBAL+52
         2 000011   000065 755000 xsym               STA     QQ_GLOBAL+53

       28      917
       29      918    2           DO WHILE('1'B);

       30      919    3             DO INHIBIT;

       31      920
       32      921    3   IDLE_LOOP:
       33      922    3               CALL QQA$PROCESS;

    922  2 000012   000002 631600 xsym  IDLE_LOOP    EPPR1 ! B_VECTNIL+2
         2 000013   000000 701200 xent               TSX1  ! QQA$PROCESS
         2 000014   000000 011200                    NOP   ! 0
PL6.E3A0      #001=QQA$TPA File=QQA$TPA.:E05TSI                                  WED 07/30/97 05:27 Page:11

       34      923    3               FPT_WAIT.V.UNITS# = QQ_GLOBAL.SLEEP_SECS;

    923  2 000015   000047 235200 xsym               LDA   ! QQ_GLOBAL+39
         2 000016   000004 755200 1                  STA   ! FPT_WAIT+4

       35      924    3               CALL M$WAIT(FPT_WAIT);

    924  2 000017   000000 630600 1                  EPPR0 ! FPT_WAIT
         2 000020   020006 713600                    CLIMB ! 8198
         2 000021   400400 401760                    pmme    nvectors=2

       36      925    3             END;

       37      926    2           END;

    926  2 000022   000012 710000 2                  TRA     IDLE_LOOP
       38      927
       39      928    1   END QQA$TPA;

PL6.E3A0      #001=QQA$TPA File=QQA$TPA.:E05TSI                                  WED 07/30/97 05:27 Page:12
--  Include file information  --

   QQ_DATA_R.:E05TOU  cannot be made into a system file and is referenced.
   QQ_MACROS_C.:E05TOU  is referenced.
   CP_6.:E05TOU  cannot be made into a system file and is referenced.
   Q_PAGE_C.:E05TOU  is referenced.
   B$JIT_C.:E05TOU  was found in the system file and is never referenced.
   CP_6_C.:E05TOU  was found in the system file and is referenced.
      No diagnostics issued in procedure QQA$TPA.
PL6.E3A0      #001=QQA$TPA File=QQA$TPA.:E05TSI                                  WED 07/30/97 05:27 Page:13

 **** Variables and constants ****

  ****  Section 001  Data  QQA$TPA

  ****  Scalars and arrays  ****
OctLoc.c.b A Datatyp(siz) R M Lvl/name                 OctLoc.c.b A Datatyp(siz) R M Lvl/name

     0-0-0/d STRC(216)   r     1 FPT_WAIT

  ****  SYMREF variables  ****

  ****  Scalars and arrays  ****
OctLoc.c.b A Datatyp(siz) R M Lvl/name                 OctLoc.c.b A Datatyp(siz) R M Lvl/name

     0-0-0/d STRC(9090)  r     1 QQ_GLOBAL


   Procedure QQA$TPA requires 19 words for executable code.
   Procedure QQA$TPA requires 4 words of local(AUTO) storage.

    No errors detected in file QQA$TPA.:E05TSI    .
PL6.E3A0      #001=QQA$TPA File=QQA$TPA.:E05TSI                                  WED 07/30/97 05:27 Page:14
          *** CROSS REFERENCE LISTING ***
**     DENOTES     IDENTIFIER DEFINITION
<<                 IDENTIFIER'S VALUE SET
>>                 IDENTIFIER'S VALUE USED
<>                 IDENTIFIER SET AND/OR USED
--                 IDENTIFIER REFERENCED
PL6.E3A0      #001=QQA$TPA File=QQA$TPA.:E05TSI                                  WED 07/30/97 05:27 Page:15
          MINI XREF LISTING

FPT_WAIT
       884**DCL       924<>CALL
FPT_WAIT.V
       885**DCL       884--DCLINIT
FPT_WAIT.V.UNITS#
       885**DCL       923<<ASSIGN
IDLE_LOOP
       922**LABEL     916--REMEMBR
M$WAIT
       136**DCL-ENT   924--CALL
QQA$INIT
       847**DCL-ENT   912--CALL
QQA$PROCESS
       846**DCL-ENT   922--CALL
QQ_GLOBAL.DS1$_BITS
       595**DCL       595--REDEF
QQ_GLOBAL.DS2$_BITS
       595**DCL       596--REDEF
QQ_GLOBAL.DS3$_BITS
       596**DCL       596--REDEF
QQ_GLOBAL.DS4$_BITS
       596**DCL       597--REDEF
QQ_GLOBAL.IDLE_LOOP
       594**DCL       916<<REMEMBR
QQ_GLOBAL.INSTANCE_UP
       587**DCL       914<<ASSIGN
QQ_GLOBAL.SLEEP_SECS
       592**DCL       923>>ASSIGN
QQ_GLOBAL.UETIME
       594**DCL       884--DCLINIT
