VERSION E05

PL6.E3A0      #001=QQA$XCON File=QQA$XCON.:E05TSI                                WED 07/30/97 05:28 Page:1
        1        1        /*M* QQA$XCON - TPA XCON processing */
        2        2        /*T***********************************************************/
        3        3        /*T*                                                         */
        4        4        /*T* Copyright (c) Bull HN Information Systems Inc., 1997    */
        5        5        /*T*                                                         */
        6        6        /*T***********************************************************/
        7        7        /*X* IND=2, DCI=4, CSU=2, ECU=4, DTI=2, CTI=4, AND */
        8        8        QQA$XCON:
        9        9                PROC ASYNC;
       10       10
       11       11        %INCLUDE Q_PAGE_C;
       12       43        %SET LISTEXP = '1'B;
       13       44        %PAGE(ARG="Includes");

                61        /***************************************************************************
                62         *                                                                         *
                63         *                                  Includes                               *
                64         *                                                                         *
                65         ***************************************************************************/

       14       69        %INCLUDE CP_6;
       15      150        %INCLUDE QQ_MACROS_C;
       16      575        %INCLUDE QQ_DATA_R;
       17      821        %INCLUDE PC_MACRO_C;
       18      847        %PC$INSTANCE(STCLASS="BASED(QQ_GLOBAL.PC$INSTANCE$)");
       19      897        %PAGE(ARG="Subs");

               914    1   /***************************************************************************
               915    1    *                                                                         *
               916    1    *                                    Subs                                 *
               917    1    *                                                                         *
               918    1    ***************************************************************************/

       20      922        %SUB_EXC;
       21      969        %PAGE(ARG="Externally defined routines");

               986    1   /***************************************************************************
PL6.E3A0      #001=QQA$XCON File=QQA$XCON.:E05TSI                                WED 07/30/97 05:28 Page:2
               987    1    *                                                                         *
               988    1    *                        Externally defined routines                      *
               989    1    *                                                                         *
               990    1    ***************************************************************************/

       22      994    1   DCL QQC$SCREECH ENTRY;
       23      995        %PAGE(ARG="Symrefs");

              1012    1   /***************************************************************************
              1013    1    *                                                                         *
              1014    1    *                                  Symrefs                                *
              1015    1    *                                                                         *
              1016    1    ***************************************************************************/

       24     1020    1   DCL B$TCB$ PTR SYMREF;
       25     1021        %PAGE(ARG="Dcbs");

              1038    1   /***************************************************************************
              1039    1    *                                                                         *
              1040    1    *                                    Dcbs                                 *
              1041    1    *                                                                         *
              1042    1    ***************************************************************************/

       26     1046    1   DCL M$SI DCB;
       27     1047        %PAGE(ARG="Based");

              1064    1   /***************************************************************************
              1065    1    *                                                                         *
              1066    1    *                                   Based                                 *
              1067    1    *                                                                         *
              1068    1    ***************************************************************************/

       28     1072        %B$TCB;
       29     1075        %B$EXCFR;
       30     1093        %B$XCON;
       31     1103        %PAGE(ARG="Auto");

PL6.E3A0      #001=QQA$XCON File=QQA$XCON.:E05TSI                                WED 07/30/97 05:28 Page:3
              1120    1   /***************************************************************************
              1121    1    *                                                                         *
              1122    1    *                                    Auto                                 *
              1123    1    *                                                                         *
              1124    1    ***************************************************************************/

       32     1128    1   DCL P$ PTR;
       33     1129        %PAGE(ARG="FPTs", PAGE=YES);

PL6.E3A0      #001=QQA$XCON File=QQA$XCON.:E05TSI                                WED 07/30/97 05:28 Page:4
              1146    1   /***************************************************************************
              1147    1    *                                                                         *
              1148    1    *                                    FPTs                                 *
              1149    1    *                                                                         *
              1150    1    ***************************************************************************/

       34     1154        %FPT_READ(DCB=M$SI, WAIT=NO, EVENT=3);
       35     1193        %PAGE(ARG="QQA$XCON", PAGE=YES);

PL6.E3A0      #001=QQA$XCON File=QQA$XCON.:E05TSI                                WED 07/30/97 05:28 Page:5
              1210    1   /***************************************************************************
              1211    1    *                                                                         *
              1212    1    *                                  QQA$XCON                               *
              1213    1    *                                                                         *
              1214    1    ***************************************************************************/

       36     1218    2           DO INHIBIT;
       37     1219    2             P$ = B$TCB$ -> B$TCB.STK$;
       38     1220    2             IF QQ_GLOBAL.INSTANCE_UP THEN
       39     1221    2               PC$INSTANCE.FLAGS.ACTIVE = '0'B;
       40     1222    3             DO CASE(P$ -> B$EXCFR.ECC);
       41     1223
       42     1224    3               CASE(2 /* ECC_INT# */);
       43     1225    3                 IF QQ_GLOBAL.SCREECH THEN
       44     1226    4                   DO;
       45     1227    4                     QQ_GLOBAL.BREAK = '1'B;
       46     1228    4                   END;
       47     1229    3                 ELSE
       48     1230    4                   DO;
       49     1231    4                     FPT_READ.BUF_.BUF$ = QQ_GLOBAL.DEBUGCMD$;
       50     1232    4                     FPT_READ.BUF_.BOUND = 79;
       51     1233    4                     CALL M$READ(FPT_READ) ALTRET(ERR);
       52     1234    4                   END;
       53     1235
       54     1236    3                 GOTO RET;
       55     1237
       56     1238    3               CASE(3 /* ECC_XCON# */);
       57     1239
       58     1240    3                 IF P$ -> B$XCON.RNST.OPERR THEN
       59     1241    4                   DO;
       60     1242    4                     GOTO EXITT;
       61     1243    4                   END;
       62     1244
       63     1245    3                 IF P$ -> B$XCON.RNST.ERR THEN
       64     1246    4                   DO;
       65     1247    4                     GOTO ERR;
       66     1248    4                   END;
PL6.E3A0      #001=QQA$XCON File=QQA$XCON.:E05TSI                                WED 07/30/97 05:28 Page:6
       67     1249
       68     1250    3                 IF P$ -> B$XCON.RNST.MABRT THEN
       69     1251    4                   DO;
       70     1252    4                     QQ_GLOBAL.ERR = P$ -> B$XCON.ERR;
       71     1253    4                     CALL QQC$SCREECH;
       72     1254    4                   END;
       73     1255
       74     1256    3             END /* CASE */;
       75     1257
       76     1258    2   EXITT:
       77     1259    2             CALL M$EXIT;
       78     1260
       79     1261    2   ERR:
       80     1262    2             CALL M$ERR;
       81     1263
       82     1264    2   RET:
       83     1265    2             RETURN;
       84     1266
       85     1267    2           END /* INHIBIT */;
       86     1268    1   END QQA$XCON;

PL6.E3A0      #001=QQA$XCON File=QQA$XCON.:E05TSI                                WED 07/30/97 05:28 Page:7
--  Include file information  --

   PC_MACRO_C.:E05TOU  is referenced.
   QQ_DATA_R.:E05TOU  cannot be made into a system file and is referenced.
   QQ_MACROS_C.:E05TOU  is referenced.
   CP_6.:E05TOU  cannot be made into a system file and is referenced.
   Q_PAGE_C.:E05TOU  is referenced.
   B$JIT_C.:E05TOU  was found in the system file and is never referenced.
   CP_6_C.:E05TOU  was found in the system file and is referenced.
      No diagnostics issued in procedure QQA$XCON.

   Procedure QQA$XCON requires 55 words for executable code.
   Procedure QQA$XCON requires 4 words of local(AUTO) storage.

    No errors detected in file QQA$XCON.:E05TSI    .

PL6.E3A0      #001=QQA$XCON File=QQA$XCON.:E05TSI                                WED 07/30/97 05:28 Page:8

 Object Unit name= QQA$XCON                                   File name= QQA$XCON.:E05TOU
 UTS= JUL 30 '97 05:28:08.84 WED                              Compiler= PL-6/E31         Sev=      00
 SharedLib= :SHARED_SYSTEM                                    Alt SharedLib=


    ****  Control sections  ****

 Sect   Type Bound  Init  Size OctSiz  Section name(segment info)
    0   DCB   even  none     0      0  M$UC
    1   DCB   even  none     0      0  M$SI
    2   Data  even  none    14     16  QQA$XCON
    3   Proc  even  none    55     67  QQA$XCON
    4  RoData even  none     1      1  QQA$XCON

    ****  Entry defs  ****

                              Check   Calling
                             calling  sequence
  Sect OctLoc Primary Altret sequence   type   Parms  Name
     3      0   yes            yes     Async       0  QQA$XCON

  ****  Entry refs  ****

         Check        Calling
        calling       sequence
Altret sequence SRef   type   Args  Name
         yes           Std       0 QQC$SCREECH
                       nStd      0 X66_AAUTO
                       Std       0 B_CONSPOOL_D
                       nStd      0 X66_AARET
PL6.E3A0      #001=QQA$XCON File=QQA$XCON.:E05TSI                                WED 07/30/97 05:28 Page:9

  ****  Data refs  ****

  Flags:  r = read only, s = secondary
Flgs Name                             Flgs Name                             Flgs Name
     M$UC                                  QQ_GLOBAL                             B$TCB$
     M$SI                                  B_VECTNIL

  ****  Segment refs  ****

  Flags:  r = read only, s = secondary
Flgs Name                             Flgs Name                             Flgs Name
     ISSID                                 NULLSID
PL6.E3A0      #001=QQA$XCON File=QQA$XCON.:E05TSI                                WED 07/30/97 05:28 Page:10


        1        1        /*M* QQA$XCON - TPA XCON processing */
        2        2        /*T***********************************************************/
        3        3        /*T*                                                         */
        4        4        /*T* Copyright (c) Bull HN Information Systems Inc., 1997    */
        5        5        /*T*                                                         */
        6        6        /*T***********************************************************/
        7        7        /*X* IND=2, DCI=4, CSU=2, ECU=4, DTI=2, CTI=4, AND */
        8        8        QQA$XCON:
        9        9                PROC ASYNC;

      9  3 000000   000000 700200 xent  QQA$XCON     TSX0  ! X66_AAUTO
         3 000001   000004 000000                    ZERO    4,0

       10       10
       11       11        %INCLUDE Q_PAGE_C;
       12       43        %SET LISTEXP = '1'B;
       13       44        %PAGE(ARG="Includes");

                61        /***************************************************************************
                62         *                                                                         *
                63         *                                  Includes                               *
                64         *                                                                         *
                65         ***************************************************************************/

       14       69        %INCLUDE CP_6;
       15      150        %INCLUDE QQ_MACROS_C;
       16      575        %INCLUDE QQ_DATA_R;
       17      821        %INCLUDE PC_MACRO_C;
       18      847        %PC$INSTANCE(STCLASS="BASED(QQ_GLOBAL.PC$INSTANCE$)");
       19      897        %PAGE(ARG="Subs");

               914    1   /***************************************************************************
               915    1    *                                                                         *
               916    1    *                                    Subs                                 *
               917    1    *                                                                         *
               918    1    ***************************************************************************/
PL6.E3A0      #001=QQA$XCON File=QQA$XCON.:E05TSI                                WED 07/30/97 05:28 Page:11

       20      922        %SUB_EXC;
       21      969        %PAGE(ARG="Externally defined routines");

               986    1   /***************************************************************************
               987    1    *                                                                         *
               988    1    *                        Externally defined routines                      *
               989    1    *                                                                         *
               990    1    ***************************************************************************/

       22      994    1   DCL QQC$SCREECH ENTRY;
       23      995        %PAGE(ARG="Symrefs");

              1012    1   /***************************************************************************
              1013    1    *                                                                         *
              1014    1    *                                  Symrefs                                *
              1015    1    *                                                                         *
              1016    1    ***************************************************************************/

       24     1020    1   DCL B$TCB$ PTR SYMREF;
       25     1021        %PAGE(ARG="Dcbs");

              1038    1   /***************************************************************************
              1039    1    *                                                                         *
              1040    1    *                                    Dcbs                                 *
              1041    1    *                                                                         *
              1042    1    ***************************************************************************/

       26     1046    1   DCL M$SI DCB;
       27     1047        %PAGE(ARG="Based");

              1064    1   /***************************************************************************
              1065    1    *                                                                         *
              1066    1    *                                   Based                                 *
              1067    1    *                                                                         *
              1068    1    ***************************************************************************/

PL6.E3A0      #001=QQA$XCON File=QQA$XCON.:E05TSI                                WED 07/30/97 05:28 Page:12
       28     1072        %B$TCB;
       29     1075        %B$EXCFR;
       30     1093        %B$XCON;
       31     1103        %PAGE(ARG="Auto");

              1120    1   /***************************************************************************
              1121    1    *                                                                         *
              1122    1    *                                    Auto                                 *
              1123    1    *                                                                         *
              1124    1    ***************************************************************************/

       32     1128    1   DCL P$ PTR;
       33     1129        %PAGE(ARG="FPTs", PAGE=YES);

PL6.E3A0      #001=QQA$XCON File=QQA$XCON.:E05TSI                                WED 07/30/97 05:28 Page:13
              1146    1   /***************************************************************************
              1147    1    *                                                                         *
              1148    1    *                                    FPTs                                 *
              1149    1    *                                                                         *
              1150    1    ***************************************************************************/

       34     1154        %FPT_READ(DCB=M$SI, WAIT=NO, EVENT=3);
       35     1193        %PAGE(ARG="QQA$XCON", PAGE=YES);

PL6.E3A0      #001=QQA$XCON File=QQA$XCON.:E05TSI                                WED 07/30/97 05:28 Page:14
              1210    1   /***************************************************************************
              1211    1    *                                                                         *
              1212    1    *                                  QQA$XCON                               *
              1213    1    *                                                                         *
              1214    1    ***************************************************************************/

       36     1218    2           DO INHIBIT;

       37     1219    2             P$ = B$TCB$ -> B$TCB.STK$;

   1219  3 000002   000000 470600 xsym               LDP0  ! B$TCB$
         3 000003   000001 236300                    LDQ   ! 1,,PR0
         3 000004   200003 756300                    STQ   ! P$,,AUTO

       38     1220    2             IF QQ_GLOBAL.INSTANCE_UP THEN

   1220  3 000005   000013 234200 xsym               SZN   ! QQ_GLOBAL+11
         3 000006   000012 605200 3                  TPL   ! s:1222

       39     1221    2               PC$INSTANCE.FLAGS.ACTIVE = '0'B;

   1221  3 000007   000154 471600 xsym               LDP1  ! QQ_GLOBAL+108
         3 000010   000031 236200 xsym               LDQ   ! B_VECTNIL+25
         3 000011   100003 356300                    ANSQ  ! 3,,PR1

       40     1222    3             DO CASE(P$ -> B$EXCFR.ECC);

   1222  3 000012   200003 471700                    LDP1  ! P$,,AUTO
         3 000013   100000 720300                    LXL0  ! 0,,PR1
         3 000014   000004 100203                    CMPX0 ! 4,DU
         3 000015   000017 602210 3                  TNC   ! s:1222+5,X0
         3 000016   000061 710200 3                  TRA   ! EXITT
         3 000017   000061 710200 3                  TRA   ! EXITT
         3 000020   000061 710200 3                  TRA   ! EXITT
         3 000021   000023 710200 3                  TRA   ! s:1225
         3 000022   000043 710200 3                  TRA   ! s:1240

PL6.E3A0      #001=QQA$XCON File=QQA$XCON.:E05TSI                                WED 07/30/97 05:28 Page:15
       41     1223
       42     1224    3               CASE(2 /* ECC_INT# */);

       43     1225    3                 IF QQ_GLOBAL.SCREECH THEN

   1225  3 000023   000001 234200 xsym               SZN   ! QQ_GLOBAL+1
         3 000024   000030 605200 3                  TPL   ! s:1231

       44     1226    4                   DO;

       45     1227    4                     QQ_GLOBAL.BREAK = '1'B;

   1227  3 000025   400000 236203                    LDQ   ! -131072,DU
         3 000026   000007 756200 xsym               STQ   ! QQ_GLOBAL+7

       46     1228    4                   END;

   1228  3 000027   000042 710200 3                  TRA   ! s:1236

       47     1229    3                 ELSE
       48     1230    4                   DO;

       49     1231    4                     FPT_READ.BUF_.BUF$ = QQ_GLOBAL.DEBUGCMD$;

   1231  3 000030   000054 236200 xsym               LDQ   ! QQ_GLOBAL+44
         3 000031   000005 756200 2                  STQ   ! FPT_READ+5

       50     1232    4                     FPT_READ.BUF_.BOUND = 79;

   1232  3 000032   000004 236200 2                  LDQ   ! FPT_READ+4
         3 000033   177777 376207                    ANQ   ! 65535,DL
         3 000034   000000 276200 4                  ORQ   ! 0
         3 000035   000004 756200 2                  STQ   ! FPT_READ+4

       51     1233    4                     CALL M$READ(FPT_READ) ALTRET(ERR);

   1233  3 000036   000000 630600 2                  EPPR0 ! FPT_READ
PL6.E3A0      #001=QQA$XCON File=QQA$XCON.:E05TSI                                WED 07/30/97 05:28 Page:16
         3 000037   440000 713600                    CLIMB ! alt,read
         3 000040   401400 401760                    pmme    nvectors=4
         3 000041   000063 702200 3                  TSX2  ! ERR

       52     1234    4                   END;

       53     1235
       54     1236    3                 GOTO RET;

   1236  3 000042   000065 710200 3                  TRA   ! RET

       55     1237
       56     1238    3               CASE(3 /* ECC_XCON# */);

       57     1239
       58     1240    3                 IF P$ -> B$XCON.RNST.OPERR THEN

   1240  3 000043   100101 236300                    LDQ   ! 65,,PR1
         3 000044   020000 316203                    CANQ  ! 8192,DU
         3 000045   000047 600200 3                  TZE   ! s:1245

       59     1241    4                   DO;

       60     1242    4                     GOTO EXITT;

   1242  3 000046   000061 710200 3                  TRA   ! EXITT

       61     1243    4                   END;
       62     1244
       63     1245    3                 IF P$ -> B$XCON.RNST.ERR THEN

   1245  3 000047   100101 430300                    FSZN  ! 65,,PR1
         3 000050   000052 605200 3                  TPL   ! s:1250

       64     1246    4                   DO;

       65     1247    4                     GOTO ERR;
PL6.E3A0      #001=QQA$XCON File=QQA$XCON.:E05TSI                                WED 07/30/97 05:28 Page:17

   1247  3 000051   000063 710200 3                  TRA   ! ERR

       66     1248    4                   END;
       67     1249
       68     1250    3                 IF P$ -> B$XCON.RNST.MABRT THEN

   1250  3 000052   010000 316203                    CANQ  ! 4096,DU
         3 000053   000061 600200 3                  TZE   ! EXITT

       69     1251    4                   DO;

       70     1252    4                     QQ_GLOBAL.ERR = P$ -> B$XCON.ERR;

   1252  3 000054   100102 236300                    LDQ   ! 66,,PR1
         3 000055   000000 756200 xsym               STQ   ! QQ_GLOBAL

       71     1253    4                     CALL QQC$SCREECH;

   1253  3 000056   000002 631600 xsym               EPPR1 ! B_VECTNIL+2
         3 000057   000000 701200 xent               TSX1  ! QQC$SCREECH
         3 000060   000000 011200                    NOP   ! 0

       72     1254    4                   END;

       73     1255
       74     1256    3             END /* CASE */;

       75     1257
       76     1258    2   EXITT:
       77     1259    2             CALL M$EXIT;

   1259  3 000061   000001 713600       EXITT        CLIMB ! exit
         3 000062   000000 401760                    pmme    nvectors=0

       78     1260
       79     1261    2   ERR:
PL6.E3A0      #001=QQA$XCON File=QQA$XCON.:E05TSI                                WED 07/30/97 05:28 Page:18
       80     1262    2             CALL M$ERR;

   1262  3 000063   000002 713600       ERR          CLIMB ! err
         3 000064   000000 401760                    pmme    nvectors=0

       81     1263
       82     1264    2   RET:
       83     1265    2             RETURN;

   1265  3 000065   000000 702200 xent  RET          TSX2  ! X66_AARET

       84     1266
       85     1267    2           END /* INHIBIT */;

       86     1268    1   END QQA$XCON;

   1268  3 000066   000000 702200 xent               TSX2  ! X66_AARET

PL6.E3A0      #001=QQA$XCON File=QQA$XCON.:E05TSI                                WED 07/30/97 05:28 Page:19
--  Include file information  --

   PC_MACRO_C.:E05TOU  is referenced.
   QQ_DATA_R.:E05TOU  cannot be made into a system file and is referenced.
   QQ_MACROS_C.:E05TOU  is referenced.
   CP_6.:E05TOU  cannot be made into a system file and is referenced.
   Q_PAGE_C.:E05TOU  is referenced.
   B$JIT_C.:E05TOU  was found in the system file and is never referenced.
   CP_6_C.:E05TOU  was found in the system file and is referenced.
      No diagnostics issued in procedure QQA$XCON.
PL6.E3A0      #001=QQA$XCON File=QQA$XCON.:E05TSI                                WED 07/30/97 05:28 Page:20

 **** Variables and constants ****

  ****  Section 002  Data  QQA$XCON

  ****  Scalars and arrays  ****
OctLoc.c.b A Datatyp(siz) R M Lvl/name                 OctLoc.c.b A Datatyp(siz) R M Lvl/name

     0-0-0/d STRC(504)   r     1 FPT_READ

  ****  Auto variables  ****

  ****  Scalars and arrays  ****
OctLoc.c.b A Datatyp(siz) R M Lvl/name                 OctLoc.c.b A Datatyp(siz) R M Lvl/name

     3-0-0/w PTR         r     1 P$

  ****  SYMREF variables  ****

  ****  Scalars and arrays  ****
OctLoc.c.b A Datatyp(siz) R M Lvl/name                 OctLoc.c.b A Datatyp(siz) R M Lvl/name

     0-0-0/w PTR         r     1 B$TCB$                     0-0-0/d STRC(9090)  r     1 QQ_GLOBAL

  ****  BASED and DCB variables  ****

  ****  Scalars and arrays  ****
OctLoc.c.b A Datatyp(siz) R M Lvl/name                 OctLoc.c.b A Datatyp(siz) R M Lvl/name

     0-0-0/w STRC(2448)  r     1 B$EXCFR                    0-0-0/w STRC(144)   r     1 B$TCB
     0-0-0/w STRC(2448)  r     1 B$XCON                     0-0-0N  NULL        r     1 M$SI
     0-0-0/w STRC(2700)  r     1 PC$INSTANCE


   Procedure QQA$XCON requires 55 words for executable code.
   Procedure QQA$XCON requires 4 words of local(AUTO) storage.
PL6.E3A0      #001=QQA$XCON File=QQA$XCON.:E05TSI                                WED 07/30/97 05:28 Page:21

    No errors detected in file QQA$XCON.:E05TSI    .
PL6.E3A0      #001=QQA$XCON File=QQA$XCON.:E05TSI                                WED 07/30/97 05:28 Page:22
          *** CROSS REFERENCE LISTING ***
**     DENOTES     IDENTIFIER DEFINITION
<<                 IDENTIFIER'S VALUE SET
>>                 IDENTIFIER'S VALUE USED
<>                 IDENTIFIER SET AND/OR USED
--                 IDENTIFIER REFERENCED
PL6.E3A0      #001=QQA$XCON File=QQA$XCON.:E05TSI                                WED 07/30/97 05:28 Page:23
          MINI XREF LISTING

B$EXCFR.ASL
      1076**DCL      1076--REDEF
B$EXCFR.ECC
      1076**DCL      1222>>DOCASE
B$EXCFR.ERR.ERR#
      1090**DCL      1090--REDEF
B$EXCFR.EVID
      1089**DCL      1089--REDEF    1090--REDEF
B$EXCFR.IR
      1077**DCL      1077--REDEF
B$EXCFR.PREVSZ
      1076**DCL      1076--REDEF
B$EXCFR.SUBC
      1088**DCL      1088--REDEF    1089--REDEF    1089--REDEF
B$TCB.STK$
      1073**DCL      1219>>ASSIGN
B$TCB$
      1020**DCL      1219>>ASSIGN
B$XCON.ERR
      1100**DCL      1252>>ASSIGN
B$XCON.ERR.ERR#
      1100**DCL      1100--REDEF
B$XCON.LIMIT.MEM
      1098**DCL      1098--REDEF
B$XCON.RNST.ERR
      1096**DCL      1245>>IF
B$XCON.RNST.MABRT
      1096**DCL      1250>>IF
B$XCON.RNST.OPERR
      1096**DCL      1240>>IF
ERR
      1262**LABEL    1233--CALLALT  1247--GOTO
PL6.E3A0      #001=QQA$XCON File=QQA$XCON.:E05TSI                                WED 07/30/97 05:28 Page:24
EXITT
      1259**LABEL    1242--GOTO
FPT_READ
      1171**DCL      1233<>CALL
FPT_READ.BUF_.BOUND
      1173**DCL      1232<<ASSIGN
FPT_READ.BUF_.BUF$
      1174**DCL      1231<<ASSIGN
FPT_READ.STATION_
      1174**DCL      1175--REDEF
FPT_READ.V
      1175**DCL      1171--DCLINIT
FPT_READ.V.DVBYTE.REREAD#
      1186**DCL      1186--REDEF
FPT_READ.V.INDX#
      1184**DCL      1184--REDEF
M$ERR
        90**DCL-ENT  1262--CALL
M$EXIT
        90**DCL-ENT  1259--CALL
M$READ
        79**DCL-ENT  1233--CALL
P$
      1128**DCL      1219<<ASSIGN   1222>>DOCASE   1240>>IF       1245>>IF       1250>>IF       1252>>ASSIGN
PC$INSTANCE.FLAGS.ACTIVE
       852**DCL      1221<<ASSIGN
QQC$SCREECH
       994**DCL-ENT  1253--CALL
QQ_GLOBAL.BREAK
       586**DCL      1227<<ASSIGN
QQ_GLOBAL.DEBUGCMD$
       593**DCL      1231>>ASSIGN
QQ_GLOBAL.DS1$_BITS
       595**DCL       595--REDEF
QQ_GLOBAL.DS2$_BITS
       595**DCL       596--REDEF
PL6.E3A0      #001=QQA$XCON File=QQA$XCON.:E05TSI                                WED 07/30/97 05:28 Page:25
QQ_GLOBAL.DS3$_BITS
       596**DCL       596--REDEF
QQ_GLOBAL.DS4$_BITS
       596**DCL       597--REDEF
QQ_GLOBAL.ERR
       585**DCL      1252<<ASSIGN
QQ_GLOBAL.INSTANCE_UP
       587**DCL      1220>>IF
QQ_GLOBAL.PC$INSTANCE$
       597**DCL       848--IMP-PTR  1221>>ASSIGN
QQ_GLOBAL.SCREECH
       585**DCL      1225>>IF
RET
      1265**LABEL    1236--GOTO
