VERSION E05

PL6.E3A0      #001=QQB$ASSIST File=QQB$ASSIST.:E05TSI                            WED 07/30/97 05:28 Page:1
        1        1        /*M* QQB$ASSIST - Perform  ASSIST  command */
        2        2        /*T***********************************************************/
        3        3        /*T*                                                         */
        4        4        /*T* Copyright (c) Bull HN Information Systems Inc., 1997    */
        5        5        /*T*                                                         */
        6        6        /*T***********************************************************/
        7        7        /*X* IND=2, DCI=4, CSU=2, ECU=4, DTI=2, CTI=4, AND */
        8        8        QQB$ASSIST:
        9        9                PROC;
       10       10
       11       11        %INCLUDE Q_PAGE_C;
       12       43        %SET LISTEXP = '1'B;
       13       44        %PAGE(ARG="Includes");

                61        /***************************************************************************
                62         *                                                                         *
                63         *                                  Includes                               *
                64         *                                                                         *
                65         ***************************************************************************/

       14       69        %INCLUDE QQ_SUBS_C;
       15      261        %INCLUDE CP_6;
       16      342        %INCLUDE QQ_MACROS_C;
       17      767        %INCLUDE QQ_DATA_R;
       18     1013        %INCLUDE XU_MACRO_C;
       19     4119        %PAGE(ARG="Based");

              4136    1   /***************************************************************************
              4137    1    *                                                                         *
              4138    1    *                                   Based                                 *
              4139    1    *                                                                         *
              4140    1    ***************************************************************************/

       20     4144        %PARSE$OUT(STCLASS=BASED);
       21     4189        %PARSE$SYM(STCLASS=BASED);
       22     4227        %TP$STATION;
       23     4300        %PAGE(ARG="Auto");
PL6.E3A0      #001=QQB$ASSIST File=QQB$ASSIST.:E05TSI                            WED 07/30/97 05:28 Page:2

              4317    1   /***************************************************************************
              4318    1    *                                                                         *
              4319    1    *                                    Auto                                 *
              4320    1    *                                                                         *
              4321    1    ***************************************************************************/

       24     4325    1   DCL SUBLK$ PTR;
       25     4326        %PAGE(ARG="QQB$ASSIST", PAGE=YES);

PL6.E3A0      #001=QQB$ASSIST File=QQB$ASSIST.:E05TSI                            WED 07/30/97 05:28 Page:3
              4343    1   /***************************************************************************
              4344    1    *                                                                         *
              4345    1    *                                 QQB$ASSIST                              *
              4346    1    *                                                                         *
              4347    1    ***************************************************************************/

       26     4351    1           SUBLK$ = QQ_CMDBLK.OUT$ -> OUT$BLK.SUBLK$(0);
       27     4352
       28     4353    1           IF SUBLK$ -> OUT$SYM.CODE = 1 /* NO */ THEN
       29     4354    2             DO;
       30     4355    2               QQ_CMDBLK.S$ -> TP$STATION.FLAGS.ASSIST = '0'B;
       31     4356    2             END;
       32     4357    1           ELSE
       33     4358    2             DO;
       34     4359    2               QQ_CMDBLK.S$ -> TP$STATION.FLAGS.ASSIST = '1'B;
       35     4360    2             END;
       36     4361
       37     4362    1   END QQB$ASSIST;

PL6.E3A0      #001=QQB$ASSIST File=QQB$ASSIST.:E05TSI                            WED 07/30/97 05:28 Page:4
--  Include file information  --

   XU_MACRO_C.:E05TOU  is referenced.
   QQ_DATA_R.:E05TOU  cannot be made into a system file and is referenced.
   QQ_MACROS_C.:E05TOU  is referenced.
   CP_6.:E05TOU  cannot be made into a system file and is referenced.
   QQ_SUBS_C.:E05TOU  is referenced.
   Q_PAGE_C.:E05TOU  is referenced.
   B$JIT_C.:E05TOU  was found in the system file and is never referenced.
   CP_6_C.:E05TOU  was found in the system file and is referenced.
      No diagnostics issued in procedure QQB$ASSIST.

   Procedure QQB$ASSIST requires 17 words for executable code.
   Procedure QQB$ASSIST requires 6 words of local(AUTO) storage.

    No errors detected in file QQB$ASSIST.:E05TSI    .

PL6.E3A0      #001=QQB$ASSIST File=QQB$ASSIST.:E05TSI                            WED 07/30/97 05:28 Page:5

 Object Unit name= QQB$ASSIST                                 File name= QQB$ASSIST.:E05TOU
 UTS= JUL 30 '97 05:28:18.60 WED                              Compiler= PL-6/E31         Sev=      00
 SharedLib= :SHARED_SYSTEM                                    Alt SharedLib=


    ****  Control sections  ****

 Sect   Type Bound  Init  Size OctSiz  Section name(segment info)
    0   DCB   even  none     0      0  M$UC
    1   Proc  even  none    17     21  QQB$ASSIST
    2  RoData even  none     1      1  QQB$ASSIST

    ****  Entry defs  ****

                              Check   Calling
                             calling  sequence
  Sect OctLoc Primary Altret sequence   type   Parms  Name
     1      0   yes            yes      Std        0  QQB$ASSIST

  ****  Entry refs  ****

         Check        Calling
        calling       sequence
Altret sequence SRef   type   Args  Name
                       nStd      0 X66_AUTO_0
                       nStd      0 X66_ARET

  ****  Data refs  ****

  Flags:  r = read only, s = secondary
Flgs Name                             Flgs Name                             Flgs Name
     M$UC                                  QQ_CMDBLK
PL6.E3A0      #001=QQB$ASSIST File=QQB$ASSIST.:E05TSI                            WED 07/30/97 05:28 Page:6


        1        1        /*M* QQB$ASSIST - Perform  ASSIST  command */
        2        2        /*T***********************************************************/
        3        3        /*T*                                                         */
        4        4        /*T* Copyright (c) Bull HN Information Systems Inc., 1997    */
        5        5        /*T*                                                         */
        6        6        /*T***********************************************************/
        7        7        /*X* IND=2, DCI=4, CSU=2, ECU=4, DTI=2, CTI=4, AND */
        8        8        QQB$ASSIST:
        9        9                PROC;

      9  1 000000   000000 700200 xent  QQB$ASSIST   TSX0  ! X66_AUTO_0
         1 000001   000006 000000                    ZERO    6,0

       10       10
       11       11        %INCLUDE Q_PAGE_C;
       12       43        %SET LISTEXP = '1'B;
       13       44        %PAGE(ARG="Includes");

                61        /***************************************************************************
                62         *                                                                         *
                63         *                                  Includes                               *
                64         *                                                                         *
                65         ***************************************************************************/

       14       69        %INCLUDE QQ_SUBS_C;
       15      261        %INCLUDE CP_6;
       16      342        %INCLUDE QQ_MACROS_C;
       17      767        %INCLUDE QQ_DATA_R;
       18     1013        %INCLUDE XU_MACRO_C;
       19     4119        %PAGE(ARG="Based");

              4136    1   /***************************************************************************
              4137    1    *                                                                         *
              4138    1    *                                   Based                                 *
              4139    1    *                                                                         *
              4140    1    ***************************************************************************/
PL6.E3A0      #001=QQB$ASSIST File=QQB$ASSIST.:E05TSI                            WED 07/30/97 05:28 Page:7

       20     4144        %PARSE$OUT(STCLASS=BASED);
       21     4189        %PARSE$SYM(STCLASS=BASED);
       22     4227        %TP$STATION;
       23     4300        %PAGE(ARG="Auto");

              4317    1   /***************************************************************************
              4318    1    *                                                                         *
              4319    1    *                                    Auto                                 *
              4320    1    *                                                                         *
              4321    1    ***************************************************************************/

       24     4325    1   DCL SUBLK$ PTR;
       25     4326        %PAGE(ARG="QQB$ASSIST", PAGE=YES);

PL6.E3A0      #001=QQB$ASSIST File=QQB$ASSIST.:E05TSI                            WED 07/30/97 05:28 Page:8
              4343    1   /***************************************************************************
              4344    1    *                                                                         *
              4345    1    *                                 QQB$ASSIST                              *
              4346    1    *                                                                         *
              4347    1    ***************************************************************************/

       26     4351    1           SUBLK$ = QQ_CMDBLK.OUT$ -> OUT$BLK.SUBLK$(0);

   4351  1 000002   000005 470400 xsym               LDP0    QQ_CMDBLK+5
         1 000003   000003 236100                    LDQ     3,,PR0
         1 000004   200004 756100                    STQ     SUBLK$,,AUTO

       27     4352
       28     4353    1           IF SUBLK$ -> OUT$SYM.CODE = 1 /* NO */ THEN

   4353  1 000005   200004 471500                    LDP1    SUBLK$,,AUTO
         1 000006   100000 720100                    LXL0    0,,PR1
         1 000007   000001 100003                    CMPX0   1,DU
         1 000010   000015 601000 1                  TNZ     s:4359

       29     4354    2             DO;

       30     4355    2               QQ_CMDBLK.S$ -> TP$STATION.FLAGS.ASSIST = '0'B;

   4355  1 000011   000004 473400 xsym               LDP3    QQ_CMDBLK+4
         1 000012   000000 236000 2                  LDQ     0
         1 000013   300022 356100                    ANSQ    18,,PR3

       31     4356    2             END;

   4356  1 000014   000020 710000 1                  TRA     s:4362

       32     4357    1           ELSE
       33     4358    2             DO;

       34     4359    2               QQ_CMDBLK.S$ -> TP$STATION.FLAGS.ASSIST = '1'B;

PL6.E3A0      #001=QQB$ASSIST File=QQB$ASSIST.:E05TSI                            WED 07/30/97 05:28 Page:9
   4359  1 000015   000004 473400 xsym               LDP3    QQ_CMDBLK+4
         1 000016   040000 236003                    LDQ     16384,DU
         1 000017   300022 256100                    ORSQ    18,,PR3

       35     4360    2             END;

       36     4361
       37     4362    1   END QQB$ASSIST;

   4362  1 000020   000000 702200 xent               TSX2  ! X66_ARET

PL6.E3A0      #001=QQB$ASSIST File=QQB$ASSIST.:E05TSI                            WED 07/30/97 05:28 Page:10
--  Include file information  --

   XU_MACRO_C.:E05TOU  is referenced.
   QQ_DATA_R.:E05TOU  cannot be made into a system file and is referenced.
   QQ_MACROS_C.:E05TOU  is referenced.
   CP_6.:E05TOU  cannot be made into a system file and is referenced.
   QQ_SUBS_C.:E05TOU  is referenced.
   Q_PAGE_C.:E05TOU  is referenced.
   B$JIT_C.:E05TOU  was found in the system file and is never referenced.
   CP_6_C.:E05TOU  was found in the system file and is referenced.
      No diagnostics issued in procedure QQB$ASSIST.
PL6.E3A0      #001=QQB$ASSIST File=QQB$ASSIST.:E05TSI                            WED 07/30/97 05:28 Page:11

 **** Variables and constants ****

  ****  Auto variables  ****

  ****  Scalars and arrays  ****
OctLoc.c.b A Datatyp(siz) R M Lvl/name                 OctLoc.c.b A Datatyp(siz) R M Lvl/name

     3-0-0/w PTR         r     1 S$                         4-0-0/w PTR         r     1 SUBLK$

  ****  SYMREF variables  ****

  ****  Scalars and arrays  ****
OctLoc.c.b A Datatyp(siz) R M Lvl/name                 OctLoc.c.b A Datatyp(siz) R M Lvl/name

     0-0-0/w STRC(315)   r     1 QQ_CMDBLK

  ****  BASED and DCB variables  ****

  ****  Scalars and arrays  ****
OctLoc.c.b A Datatyp(siz) R M Lvl/name                 OctLoc.c.b A Datatyp(siz) R M Lvl/name

     0-0-0/w STRC(144)   r     1 OUT$BLK                    0-0-0/w ASTR(153)   r     1 OUT$SYM
     0-0-0/w STRC(909)   r     1 TP$STATION


   Procedure QQB$ASSIST requires 17 words for executable code.
   Procedure QQB$ASSIST requires 6 words of local(AUTO) storage.

    No errors detected in file QQB$ASSIST.:E05TSI    .
PL6.E3A0      #001=QQB$ASSIST File=QQB$ASSIST.:E05TSI                            WED 07/30/97 05:28 Page:12
          *** CROSS REFERENCE LISTING ***
**     DENOTES     IDENTIFIER DEFINITION
<<                 IDENTIFIER'S VALUE SET
>>                 IDENTIFIER'S VALUE USED
<>                 IDENTIFIER SET AND/OR USED
--                 IDENTIFIER REFERENCED
PL6.E3A0      #001=QQB$ASSIST File=QQB$ASSIST.:E05TSI                            WED 07/30/97 05:28 Page:13
          MINI XREF LISTING

OUT$BLK.SUBLK$
      4183**DCL      4351>>ASSIGN
OUT$SYM.CODE
      4202**DCL      4353>>IF
OUT$SYM.COUNT
      4219**DCL      4222--IMP-SIZ
QQ_CMDBLK.OUT$
       776**DCL      4351>>ASSIGN
QQ_CMDBLK.S$
       776**DCL      4355>>ASSIGN   4359>>ASSIGN
QQ_GLOBAL.DS1$_BITS
       787**DCL       787--REDEF
QQ_GLOBAL.DS2$_BITS
       787**DCL       788--REDEF
QQ_GLOBAL.DS3$_BITS
       788**DCL       788--REDEF
QQ_GLOBAL.DS4$_BITS
       788**DCL       789--REDEF
S$
      4239**DCL      4241--IMP-PTR
SUBLK$
      4325**DCL      4351<<ASSIGN   4353>>IF
TP$STATION.FLAGS.ASSIST
      4275**DCL      4355<<ASSIGN   4359<<ASSIGN
