VERSION E05

PL6.E3A0      #001=QQB$CANCEL File=QQB$CANCEL.:E05TSI                            WED 07/30/97 05:28 Page:1
        1        1        /*M* QQB$CANCEL - Process   CANCEL / ERASE commands */
        2        2        /*T***********************************************************/
        3        3        /*T*                                                         */
        4        4        /*T* Copyright (c) Bull HN Information Systems Inc., 1997    */
        5        5        /*T*                                                         */
        6        6        /*T***********************************************************/
        7        7        /*X* IND=2, DCI=4, CSU=2, ECU=4, DTI=2, CTI=4, AND */
        8        8        QQB$CANCEL:
        9        9                PROC;
       10       10
       11       11        %INCLUDE Q_PAGE_C;
       12       43        %SET LISTEXP = '1'B;
       13       44        %PAGE(ARG="Includes");

                61        /***************************************************************************
                62         *                                                                         *
                63         *                                  Includes                               *
                64         *                                                                         *
                65         ***************************************************************************/

       14       69        %INCLUDE CP_6;
       15      150        %INCLUDE B_ERRORS_C;
       16     1277        %INCLUDE QQ_MACROS_C;
       17     1702        %INCLUDE QQ_DATA_R;
       18     1948        %INCLUDE XU_MACRO_C;
       19     5054        %INCLUDE QQ_PERR_C;
       20     5215        %INCLUDE Q_ERRCODE_C;
       21     5238        %INCLUDE QQ_SUBS_C;
       22     5430        %PAGE(ARG="Externally defined routines");

              5447    1   /***************************************************************************
              5448    1    *                                                                         *
              5449    1    *                        Externally defined routines                      *
              5450    1    *                                                                         *
              5451    1    ***************************************************************************/

       23     5455    1   DCL QQC$BLDMSG_BLK ENTRY(1);
PL6.E3A0      #001=QQB$CANCEL File=QQB$CANCEL.:E05TSI                            WED 07/30/97 05:28 Page:2
       24     5456    1   DCL QQC$BLDMSG ENTRY(1);
       25     5457    1   DCL QQC$EX_SPEC ENTRY(3) ALTRET;
       26     5458    1   DCL QQC$CONVERT_NUM ENTRY(3);
       27     5459    1   DCL QQC$SCREECH ENTRY;
       28     5460        %PAGE(ARG="EQUs");

              5477    1   /***************************************************************************
              5478    1    *                                                                         *
              5479    1    *                                    EQUs                                 *
              5480    1    *                                                                         *
              5481    1    ***************************************************************************/

       29     5485        %EQU_CG;
       30     5533        %PAGE(ARG="Symrefs");

              5550    1   /***************************************************************************
              5551    1    *                                                                         *
              5552    1    *                                  Symrefs                                *
              5553    1    *                                                                         *
              5554    1    ***************************************************************************/

       31     5558    1   DCL B$TCB$ PTR SYMREF;
       32     5559        %PAGE(ARG="DCBs");

              5576    1   /***************************************************************************
              5577    1    *                                                                         *
              5578    1    *                                    DCBs                                 *
              5579    1    *                                                                         *
              5580    1    ***************************************************************************/

       33     5584    1   DCL M$CG DCB;
       34     5585        %PAGE(ARG="Based");

              5602    1   /***************************************************************************
              5603    1    *                                                                         *
              5604    1    *                                   Based                                 *
              5605    1    *                                                                         *
PL6.E3A0      #001=QQB$CANCEL File=QQB$CANCEL.:E05TSI                            WED 07/30/97 05:28 Page:3
              5606    1    ***************************************************************************/

       35     5610        %PARSE$OUT(STCLASS=BASED);
       36     5655        %B$TCB;
       37     5658        %B$ALT;
       38     5666        %TP$STATION;
       39     5739        %PAGE(ARG="Constants");

              5756    1   /***************************************************************************
              5757    1    *                                                                         *
              5758    1    *                                 Constants                               *
              5759    1    *                                                                         *
              5760    1    ***************************************************************************/

       40     5764        %VLP_CGMA(FPTN=VLP_CGMA_C, STCLASS=CONSTANT);
       41     5791        %VLP_SCGMA(FPTN=VLP_SCGMA_C, STCLASS=CONSTANT, MSGTYP=YES);
       42     5808        %PAGE(ARG="Auto");

              5825    1   /***************************************************************************
              5826    1    *                                                                         *
              5827    1    *                                    Auto                                 *
              5828    1    *                                                                         *
              5829    1    ***************************************************************************/

       43     5833    1   DCL SIZE UBIN WORD;
       44     5834    1   DCL RESULT UBIN WORD;
       45     5835
       46     5836    1   DCL SPECIFIER$ PTR;
       47     5837    1   DCL OPT$ PTR;
       48     5838
       49     5839        %VLP_NAME(FPTN=TEXTC_NUM, LEN=10, NAME=' ');
       50     5866        %MSGBLK;
       51     5956        %PAGE(ARG="Error codes", PAGE=YES);

PL6.E3A0      #001=QQB$CANCEL File=QQB$CANCEL.:E05TSI                            WED 07/30/97 05:28 Page:4
              5973    1   /***************************************************************************
              5974    1    *                                                                         *
              5975    1    *                                Error codes                              *
              5976    1    *                                                                         *
              5977    1    ***************************************************************************/

       52     5981        %ERRCODE(NAME=CODE_NME, CODE#=%E$NME, FCG#=%FCG_QQ, MID#=%MID_B);
       53     5988        %ERRCODE(NAME=CODE_NMC, CODE#=%E$NMC, FCG#=%FCG_QQ, MID#=%MID_B);
       54     5995        %ERRCODE(NAME=CODE_NMHC, CODE#=%E$NMHC, FCG#=%FCG_QQ, MID#=%MID_B);
       55     6002        /*E*       ERROR: QQB-E$NME-C
       56     6003
       57     6004                 MESSAGE: %U1 report(s) erased
       58     6005             DESCRIPTION: The number of messages deleted by a CANCEL command
       59     6006        */
       60     6007        /*E*       ERROR: QQB-E$NMC-C
       61     6008
       62     6009                 MESSAGE: %U1 transaction(s) cancelled
       63     6010             DESCRIPTION: The number of messages deleted by a CANCEL command
       64     6011        */
       65     6012        /*E*       ERROR: QQB-E$NMHC-C
       66     6013
       67     6014                 MESSAGE: %U1 held transaction(s) cancelled
       68     6015             DESCRIPTION: The number of messages deleted by a CANCEL command
       69     6016        */
       70     6017        %PAGE(ARG="FPTs", PAGE=YES);

PL6.E3A0      #001=QQB$CANCEL File=QQB$CANCEL.:E05TSI                            WED 07/30/97 05:28 Page:5
              6034    1   /***************************************************************************
              6035    1    *                                                                         *
              6036    1    *                                    FPTs                                 *
              6037    1    *                                                                         *
              6038    1    ***************************************************************************/

       71     6042        %FPT_FWCG(DCB=M$CG, DELETE=YES, CRITERIA=VLP_CGMA, SCA=VLP_SCGMA,
       72     6043        RESULTS=VLR_FWCG);
       73     6062        %PAGE(ARG="VLPs");

              6079    1   /***************************************************************************
              6080    1    *                                                                         *
              6081    1    *                                    VLPs                                 *
              6082    1    *                                                                         *
              6083    1    ***************************************************************************/

       74     6087        %VLP_CGMA;
       75     6114        %VLP_SCGMA;
       76     6131        %PAGE(ARG="VLRs");

              6148    1   /***************************************************************************
              6149    1    *                                                                         *
              6150    1    *                                    VLRs                                 *
              6151    1    *                                                                         *
              6152    1    ***************************************************************************/

       77     6156        %VLR_FWCG;
       78     6170        %PAGE(ARG="QQB$CANCEL", PAGE=YES);

PL6.E3A0      #001=QQB$CANCEL File=QQB$CANCEL.:E05TSI                            WED 07/30/97 05:28 Page:6
              6187    1   /***************************************************************************
              6188    1    *                                                                         *
              6189    1    *                                 QQB$CANCEL                              *
              6190    1    *                                                                         *
              6191    1    ***************************************************************************/

       79     6195    1           OPT$ = QQ_CMDBLK.OUT$ -> OUT$BLK.SUBLK$(0);
       80     6196    1           VLP_CGMA = VLP_CGMA_C;
       81     6197    1           VLP_SCGMA = VLP_SCGMA_C;
       82     6198    1           VLP_CGMA.ORIGIN# = QQ_CMDBLK.S$ -> TP$STATION.ID;
       83     6199
       84     6200    1           IF QQ_CMDBLK.OUT$ -> OUT$BLK.NSUBLKS > 1 THEN
       85     6201    2             DO;
       86     6202    2               SPECIFIER$ = QQ_CMDBLK.OUT$ -> OUT$BLK.SUBLK$(1);
       87     6203    2               IF QQ_CMDBLK.OUT$ -> OUT$BLK.NSUBLKS > 2 THEN
       88     6204    3                 DO;
       89     6205    3                   SPECIFIER$ = QQ_CMDBLK.OUT$ -> OUT$BLK.SUBLK$(2);
       90     6206    3                 END;
       91     6207    2               IF QQ_CMDBLK.OUT$ -> OUT$BLK.NSUBLKS = 2 AND
       92     6208    2                   OPT$ -> OUT$BLK.CODE = 3 /* OPT_HELD */ AND
       93     6209    2                   SPECIFIER$ -> OUT$BLK.CODE = 2 /* OPT_TRANSACTIONS */ THEN
       94     6210    3                 DO;
       95     6211    3                   GOTO CANCEL_REP;
       96     6212    3                 END;
       97     6213    2               CALL QQC$EX_SPEC(SPECIFIER$, VLP_SCGMA, VLP_CGMA) ALTRET(RET);
       98     6214    2             END;
       99     6215
      100     6216    1           IF OPT$ -> OUT$BLK.CODE = 2 /* OPT_TRANSACTIONS */ THEN
      101     6217    2             DO;
      102     6218    2               VLP_SCGMA.ORIGIN# = '1'B;
      103     6219    2               FPT_FWCG.V.QSELECT# = 3 /* CG_QSELECT_ANONYMOUS# */;
      104     6220    2               QQ_CMDBLK.MINOR_ERR = CODE_NMC;
      105     6221    2             END;
      106     6222    1           ELSE                            /* CANCEL REPORTS or HELD             */
      107     6223    1   CANCEL_REP:
      108     6224    2             DO;
      109     6225    2               VLP_SCGMA.DEST# = '1'B;
PL6.E3A0      #001=QQB$CANCEL File=QQB$CANCEL.:E05TSI                            WED 07/30/97 05:28 Page:7
      110     6226    2               VLP_CGMA.DEST# = VLP_CGMA.ORIGIN#;
      111     6227    2               FPT_FWCG.V.QSELECT# = 2 /* CG_QSELECT_DIRECT# */;
      112     6228    2               QQ_CMDBLK.MINOR_ERR = CODE_NME;
      113     6229    2               IF OPT$ -> OUT$BLK.CODE = 3 /* OPT_HELD */ THEN
      114     6230    3                 DO;
      115     6231    3                   VLP_CGMA.ORIGIN# = 'HOLDSTA';
      116     6232    3                   VLP_CGMA.DEST# = VLP_CGMA.ORIGIN#;
      117     6233    3                   QQ_CMDBLK.MINOR_ERR = CODE_NMHC;
      118     6234    3                 END;
      119     6235    2               ELSE IF ((VLP_CGMA.MSGTYP# = '?       ') OR
      120     6236    2                     (VLP_CGMA.MSGTYP# = '*?      '))
      121     6237    2                 THEN VLP_SCGMA.EXMPTSTAR# = '1'B;
      122     6238    2             END;
      123     6239
      124     6240    1           CALL M$FWCG(FPT_FWCG) ALTRET(FWCG_ERR);
      125     6241    1           RESULT = VLR_FWCG.FOUND#;
      126     6242    1           IF (VLP_SCGMA.EXMPTSTAR#) THEN
      127     6243    2             DO;
      128     6244    2               VLP_SCGMA.EXMPTSTAR# = '0'B;
      129     6245    2               VLP_CGMA.MSGTYP# ='*RESP   ';
      130     6246    2               CALL M$FWCG(FPT_FWCG) ALTRET(FWCG_ERR);
      131     6247    2               VLR_FWCG.FOUND# = RESULT + VLR_FWCG.FOUND#;
      132     6248    2             END;
      133     6249
      134     6250    2           DO WHILE('0'B);
      135     6251
      136     6252    2   FWCG_ERR:
      137     6253    2             IF B$TCB$ -> B$TCB.ALT$ -> B$ALT.ERR.CODE ~= 1170 /* E$FWCG_NONE */ THEN
      138     6254    3               DO;
      139     6255    3                 GOTO MON_ERR;
      140     6256    3               END;
      141     6257    2           END /* NEVER */;
      142     6258
      143     6259    1           CALL QQC$CONVERT_NUM(VLR_FWCG.FOUND#, SIZE, ADDR(TEXTC_NUM.NAME#));
      144     6260    1           CALL QQC$BLDMSG_BLK(MSGBLK);
      145     6261    1           MSGBLK.ERRINFO.FIELD1(0) = VECTOR(TEXTC_NUM);
      146     6262    1           TEXTC_NUM.L# = SIZE;
PL6.E3A0      #001=QQB$CANCEL File=QQB$CANCEL.:E05TSI                            WED 07/30/97 05:28 Page:8
      147     6263    1           CALL QQC$BLDMSG(MSGBLK);
      148     6264
      149     6265    1   RET:
      150     6266    1           RETURN;
      151     6267
      152     6268    1   MON_ERR:
      153     6269    1           QQ_GLOBAL.ERR = B$TCB$ -> B$TCB.ALT$ -> B$ALT.ERR;
      154     6270    1           CALL QQC$SCREECH;
      155     6271
      156     6272    1   END QQB$CANCEL;

PL6.E3A0      #001=QQB$CANCEL File=QQB$CANCEL.:E05TSI                            WED 07/30/97 05:28 Page:9
--  Include file information  --

   QQ_SUBS_C.:E05TOU  is referenced.
   Q_ERRCODE_C.:E05TOU  is referenced.
   QQ_PERR_C.:E05TOU  is referenced.
   XU_MACRO_C.:E05TOU  is referenced.
   QQ_DATA_R.:E05TOU  cannot be made into a system file and is referenced.
   QQ_MACROS_C.:E05TOU  is referenced.
   B_ERRORS_C.:E05TOU  is referenced.
   CP_6.:E05TOU  cannot be made into a system file and is referenced.
   Q_PAGE_C.:E05TOU  is referenced.
   B$JIT_C.:E05TOU  was found in the system file and is never referenced.
   CP_6_C.:E05TOU  was found in the system file and is referenced.
      No diagnostics issued in procedure QQB$CANCEL.

   Procedure QQB$CANCEL requires 159 words for executable code.
   Procedure QQB$CANCEL requires 34 words of local(AUTO) storage.

    No errors detected in file QQB$CANCEL.:E05TSI    .

PL6.E3A0      #001=QQB$CANCEL File=QQB$CANCEL.:E05TSI                            WED 07/30/97 05:28 Page:10

 Object Unit name= QQB$CANCEL                                 File name= QQB$CANCEL.:E05TOU
 UTS= JUL 30 '97 05:28:49.04 WED                              Compiler= PL-6/E31         Sev=      00
 SharedLib= :SHARED_SYSTEM                                    Alt SharedLib=


    ****  Control sections  ****

 Sect   Type Bound  Init  Size OctSiz  Section name(segment info)
    0   DCB   even  none     0      0  M$UC
    1   DCB   even  none     0      0  M$CG
    2  RoData even  UTS     29     35  QQB$CANCEL
    3   Data  even  none    74    112  QQB$CANCEL
    4   Proc  even  none   159    237  QQB$CANCEL
    5  RoData even  none     8     10  QQB$CANCEL

    ****  Entry defs  ****

                              Check   Calling
                             calling  sequence
  Sect OctLoc Primary Altret sequence   type   Parms  Name
     4      0   yes            yes      Std        0  QQB$CANCEL

  ****  Entry refs  ****

         Check        Calling
        calling       sequence
Altret sequence SRef   type   Args  Name
 yes     yes           Std       3 QQC$EX_SPEC
         yes           Std       1 QQC$BLDMSG_BLK
         yes           Std       1 QQC$BLDMSG
         yes           Std       0 QQC$SCREECH
         yes           Std       3 QQC$CONVERT_NUM
                       nStd      0 X66_AUTO_0
                       Std       0 B_CONSPOOL_D
                       nStd      0 X66_ARET
PL6.E3A0      #001=QQB$CANCEL File=QQB$CANCEL.:E05TSI                            WED 07/30/97 05:28 Page:11

  ****  Data refs  ****

  Flags:  r = read only, s = secondary
Flgs Name                             Flgs Name                             Flgs Name
     M$UC                                  QQ_CMDBLK                             QQ_GLOBAL
     B$TCB$                                M$CG                                  B_VECTNIL

  ****  Segment refs  ****

  Flags:  r = read only, s = secondary
Flgs Name                             Flgs Name                             Flgs Name
     ISSID                                 NULLSID
PL6.E3A0      #001=QQB$CANCEL File=QQB$CANCEL.:E05TSI                            WED 07/30/97 05:28 Page:12


        1        1        /*M* QQB$CANCEL - Process   CANCEL / ERASE commands */
        2        2        /*T***********************************************************/
        3        3        /*T*                                                         */
        4        4        /*T* Copyright (c) Bull HN Information Systems Inc., 1997    */
        5        5        /*T*                                                         */
        6        6        /*T***********************************************************/
        7        7        /*X* IND=2, DCI=4, CSU=2, ECU=4, DTI=2, CTI=4, AND */
        8        8        QQB$CANCEL:
        9        9                PROC;

      9  4 000000   000000 700200 xent  QQB$CANCEL   TSX0  ! X66_AUTO_0
         4 000001   000042 000000                    ZERO    34,0

       10       10
       11       11        %INCLUDE Q_PAGE_C;
       12       43        %SET LISTEXP = '1'B;
       13       44        %PAGE(ARG="Includes");

                61        /***************************************************************************
                62         *                                                                         *
                63         *                                  Includes                               *
                64         *                                                                         *
                65         ***************************************************************************/

       14       69        %INCLUDE CP_6;
       15      150        %INCLUDE B_ERRORS_C;
       16     1277        %INCLUDE QQ_MACROS_C;
       17     1702        %INCLUDE QQ_DATA_R;
       18     1948        %INCLUDE XU_MACRO_C;
       19     5054        %INCLUDE QQ_PERR_C;
       20     5215        %INCLUDE Q_ERRCODE_C;
       21     5238        %INCLUDE QQ_SUBS_C;
       22     5430        %PAGE(ARG="Externally defined routines");

              5447    1   /***************************************************************************
              5448    1    *                                                                         *
PL6.E3A0      #001=QQB$CANCEL File=QQB$CANCEL.:E05TSI                            WED 07/30/97 05:28 Page:13
              5449    1    *                        Externally defined routines                      *
              5450    1    *                                                                         *
              5451    1    ***************************************************************************/

       23     5455    1   DCL QQC$BLDMSG_BLK ENTRY(1);
       24     5456    1   DCL QQC$BLDMSG ENTRY(1);
       25     5457    1   DCL QQC$EX_SPEC ENTRY(3) ALTRET;
       26     5458    1   DCL QQC$CONVERT_NUM ENTRY(3);
       27     5459    1   DCL QQC$SCREECH ENTRY;
       28     5460        %PAGE(ARG="EQUs");

              5477    1   /***************************************************************************
              5478    1    *                                                                         *
              5479    1    *                                    EQUs                                 *
              5480    1    *                                                                         *
              5481    1    ***************************************************************************/

       29     5485        %EQU_CG;
       30     5533        %PAGE(ARG="Symrefs");

              5550    1   /***************************************************************************
              5551    1    *                                                                         *
              5552    1    *                                  Symrefs                                *
              5553    1    *                                                                         *
              5554    1    ***************************************************************************/

       31     5558    1   DCL B$TCB$ PTR SYMREF;
       32     5559        %PAGE(ARG="DCBs");

              5576    1   /***************************************************************************
              5577    1    *                                                                         *
              5578    1    *                                    DCBs                                 *
              5579    1    *                                                                         *
              5580    1    ***************************************************************************/

       33     5584    1   DCL M$CG DCB;
       34     5585        %PAGE(ARG="Based");
PL6.E3A0      #001=QQB$CANCEL File=QQB$CANCEL.:E05TSI                            WED 07/30/97 05:28 Page:14

              5602    1   /***************************************************************************
              5603    1    *                                                                         *
              5604    1    *                                   Based                                 *
              5605    1    *                                                                         *
              5606    1    ***************************************************************************/

       35     5610        %PARSE$OUT(STCLASS=BASED);
       36     5655        %B$TCB;
       37     5658        %B$ALT;
       38     5666        %TP$STATION;
       39     5739        %PAGE(ARG="Constants");

              5756    1   /***************************************************************************
              5757    1    *                                                                         *
              5758    1    *                                 Constants                               *
              5759    1    *                                                                         *
              5760    1    ***************************************************************************/

       40     5764        %VLP_CGMA(FPTN=VLP_CGMA_C, STCLASS=CONSTANT);
       41     5791        %VLP_SCGMA(FPTN=VLP_SCGMA_C, STCLASS=CONSTANT, MSGTYP=YES);
       42     5808        %PAGE(ARG="Auto");

              5825    1   /***************************************************************************
              5826    1    *                                                                         *
              5827    1    *                                    Auto                                 *
              5828    1    *                                                                         *
              5829    1    ***************************************************************************/

       43     5833    1   DCL SIZE UBIN WORD;
       44     5834    1   DCL RESULT UBIN WORD;
       45     5835
       46     5836    1   DCL SPECIFIER$ PTR;
       47     5837    1   DCL OPT$ PTR;
       48     5838
       49     5839        %VLP_NAME(FPTN=TEXTC_NUM, LEN=10, NAME=' ');
       50     5866        %MSGBLK;
PL6.E3A0      #001=QQB$CANCEL File=QQB$CANCEL.:E05TSI                            WED 07/30/97 05:28 Page:15
       51     5956        %PAGE(ARG="Error codes", PAGE=YES);

PL6.E3A0      #001=QQB$CANCEL File=QQB$CANCEL.:E05TSI                            WED 07/30/97 05:28 Page:16
              5973    1   /***************************************************************************
              5974    1    *                                                                         *
              5975    1    *                                Error codes                              *
              5976    1    *                                                                         *
              5977    1    ***************************************************************************/

       52     5981        %ERRCODE(NAME=CODE_NME, CODE#=%E$NME, FCG#=%FCG_QQ, MID#=%MID_B);
       53     5988        %ERRCODE(NAME=CODE_NMC, CODE#=%E$NMC, FCG#=%FCG_QQ, MID#=%MID_B);
       54     5995        %ERRCODE(NAME=CODE_NMHC, CODE#=%E$NMHC, FCG#=%FCG_QQ, MID#=%MID_B);
       55     6002        /*E*       ERROR: QQB-E$NME-C
       56     6003
       57     6004                 MESSAGE: %U1 report(s) erased
       58     6005             DESCRIPTION: The number of messages deleted by a CANCEL command
       59     6006        */
       60     6007        /*E*       ERROR: QQB-E$NMC-C
       61     6008
       62     6009                 MESSAGE: %U1 transaction(s) cancelled
       63     6010             DESCRIPTION: The number of messages deleted by a CANCEL command
       64     6011        */
       65     6012        /*E*       ERROR: QQB-E$NMHC-C
       66     6013
       67     6014                 MESSAGE: %U1 held transaction(s) cancelled
       68     6015             DESCRIPTION: The number of messages deleted by a CANCEL command
       69     6016        */
       70     6017        %PAGE(ARG="FPTs", PAGE=YES);

PL6.E3A0      #001=QQB$CANCEL File=QQB$CANCEL.:E05TSI                            WED 07/30/97 05:28 Page:17
              6034    1   /***************************************************************************
              6035    1    *                                                                         *
              6036    1    *                                    FPTs                                 *
              6037    1    *                                                                         *
              6038    1    ***************************************************************************/

       71     6042        %FPT_FWCG(DCB=M$CG, DELETE=YES, CRITERIA=VLP_CGMA, SCA=VLP_SCGMA,
       72     6043        RESULTS=VLR_FWCG);
       73     6062        %PAGE(ARG="VLPs");

              6079    1   /***************************************************************************
              6080    1    *                                                                         *
              6081    1    *                                    VLPs                                 *
              6082    1    *                                                                         *
              6083    1    ***************************************************************************/

       74     6087        %VLP_CGMA;
       75     6114        %VLP_SCGMA;
       76     6131        %PAGE(ARG="VLRs");

              6148    1   /***************************************************************************
              6149    1    *                                                                         *
              6150    1    *                                    VLRs                                 *
              6151    1    *                                                                         *
              6152    1    ***************************************************************************/

       77     6156        %VLR_FWCG;
       78     6170        %PAGE(ARG="QQB$CANCEL", PAGE=YES);

PL6.E3A0      #001=QQB$CANCEL File=QQB$CANCEL.:E05TSI                            WED 07/30/97 05:28 Page:18
              6187    1   /***************************************************************************
              6188    1    *                                                                         *
              6189    1    *                                 QQB$CANCEL                              *
              6190    1    *                                                                         *
              6191    1    ***************************************************************************/

       79     6195    1           OPT$ = QQ_CMDBLK.OUT$ -> OUT$BLK.SUBLK$(0);

   6195  4 000002   000005 470400 xsym               LDP0    QQ_CMDBLK+5
         4 000003   000003 236100                    LDQ     3,,PR0
         4 000004   200007 756100                    STQ     OPT$,,AUTO

       80     6196    1           VLP_CGMA = VLP_CGMA_C;

   6196  4 000005   000000 100400                    MLR     fill='000'O
         4 000006   000000 000100 2                  ADSC9   VLP_CGMA_C               cn=0,n=64
         4 000007   000056 000100 3                  ADSC9   VLP_CGMA                 cn=0,n=64

       81     6197    1           VLP_SCGMA = VLP_SCGMA_C;

   6197  4 000010   000020 237000 2                  LDAQ    VLP_SCGMA_C
         4 000011   000076 757000 3                  STAQ    VLP_SCGMA

       82     6198    1           VLP_CGMA.ORIGIN# = QQ_CMDBLK.S$ -> TP$STATION.ID;

   6198  4 000012   000004 471400 xsym               LDP1    QQ_CMDBLK+4
         4 000013   040000 100500                    MLR     fill='040'O
         4 000014   100000 000010                    ADSC9   0,,PR1                   cn=0,n=8
         4 000015   000062 000010 3                  ADSC9   VLP_CGMA+4               cn=0,n=8

       83     6199
       84     6200    1           IF QQ_CMDBLK.OUT$ -> OUT$BLK.NSUBLKS > 1 THEN

   6200  4 000016   000001 220100                    LDX0    1,,PR0
         4 000017   000002 100003                    CMPX0   2,DU
         4 000020   000056 602000 4                  TNC     s:6216

PL6.E3A0      #001=QQB$CANCEL File=QQB$CANCEL.:E05TSI                            WED 07/30/97 05:28 Page:19
       85     6201    2             DO;

       86     6202    2               SPECIFIER$ = QQ_CMDBLK.OUT$ -> OUT$BLK.SUBLK$(1);

   6202  4 000021   000004 236100                    LDQ     4,,PR0
         4 000022   200006 756100                    STQ     SPECIFIER$,,AUTO

       87     6203    2               IF QQ_CMDBLK.OUT$ -> OUT$BLK.NSUBLKS > 2 THEN

   6203  4 000023   000001 220100                    LDX0    1,,PR0
         4 000024   000003 100003                    CMPX0   3,DU
         4 000025   000030 602000 4                  TNC     s:6207

       88     6204    3                 DO;

       89     6205    3                   SPECIFIER$ = QQ_CMDBLK.OUT$ -> OUT$BLK.SUBLK$(2);

   6205  4 000026   000005 236100                    LDQ     5,,PR0
         4 000027   200006 756100                    STQ     SPECIFIER$,,AUTO

       90     6206    3                 END;

       91     6207    2               IF QQ_CMDBLK.OUT$ -> OUT$BLK.NSUBLKS = 2 AND

   6207  4 000030   000001 220100                    LDX0    1,,PR0
         4 000031   000002 100003                    CMPX0   2,DU
         4 000032   000044 601000 4                  TNZ     s:6213
         4 000033   200007 473500                    LDP3    OPT$,,AUTO
         4 000034   300000 721100                    LXL1    0,,PR3
         4 000035   000003 101003                    CMPX1   3,DU
         4 000036   000044 601000 4                  TNZ     s:6213
         4 000037   200006 474500                    LDP4    SPECIFIER$,,AUTO
         4 000040   400000 722100                    LXL2    0,,PR4
         4 000041   000002 102003                    CMPX2   2,DU
         4 000042   000044 601000 4                  TNZ     s:6213

       92     6208    2                   OPT$ -> OUT$BLK.CODE = 3 /* OPT_HELD */ AND
PL6.E3A0      #001=QQB$CANCEL File=QQB$CANCEL.:E05TSI                            WED 07/30/97 05:28 Page:20
       93     6209    2                   SPECIFIER$ -> OUT$BLK.CODE = 2 /* OPT_TRANSACTIONS */ THEN
       94     6210    3                 DO;

       95     6211    3                   GOTO CANCEL_REP;

   6211  4 000043   000073 710000 4                  TRA     CANCEL_REP

       96     6212    3                 END;
       97     6213    2               CALL QQC$EX_SPEC(SPECIFIER$, VLP_SCGMA, VLP_CGMA) ALTRET(RET);

   6213  4 000044   000000 236000 5                  LDQ     0
         4 000045   200040 756100                    STQ     MSGBLK+24,,AUTO
         4 000046   000001 236000 5                  LDQ     1
         4 000047   200037 756100                    STQ     MSGBLK+23,,AUTO
         4 000050   200006 633500                    EPPR3   SPECIFIER$,,AUTO
         4 000051   200036 453500                    STP3    MSGBLK+22,,AUTO
         4 000052   200036 630500                    EPPR0   MSGBLK+22,,AUTO
         4 000053   000021 631400 xsym               EPPR1   B_VECTNIL+17
         4 000054   000000 701000 xent               TSX1    QQC$EX_SPEC
         4 000055   000230 702000 4                  TSX2    RET

       98     6214    2             END;

       99     6215
      100     6216    1           IF OPT$ -> OUT$BLK.CODE = 2 /* OPT_TRANSACTIONS */ THEN

   6216  4 000056   200007 470500                    LDP0    OPT$,,AUTO
         4 000057   000000 720100                    LXL0    0,,PR0
         4 000060   000002 100003                    CMPX0   2,DU
         4 000061   000073 601000 4                  TNZ     CANCEL_REP

      101     6217    2             DO;

      102     6218    2               VLP_SCGMA.ORIGIN# = '1'B;

   6218  4 000062   200000 236003                    LDQ     65536,DU
         4 000063   000076 256000 3                  ORSQ    VLP_SCGMA
PL6.E3A0      #001=QQB$CANCEL File=QQB$CANCEL.:E05TSI                            WED 07/30/97 05:28 Page:21

      103     6219    2               FPT_FWCG.V.QSELECT# = 3 /* CG_QSELECT_ANONYMOUS# */;

   6219  4 000064   000041 236000 3                  LDQ     FPT_FWCG+29
         4 000065   000002 376000 5                  ANQ     2
         4 000066   060000 276003                    ORQ     24576,DU
         4 000067   000041 756000 3                  STQ     FPT_FWCG+29

      104     6220    2               QQ_CMDBLK.MINOR_ERR = CODE_NMC;

   6220  4 000070   000023 236000 2                  LDQ     CODE_NMC
         4 000071   000001 756000 xsym               STQ     QQ_CMDBLK+1

      105     6221    2             END;

   6221  4 000072   000135 710000 4                  TRA     s:6240

      106     6222    1           ELSE                            /* CANCEL REPORTS or HELD             */
      107     6223    1   CANCEL_REP:
      108     6224    2             DO;

   6224  4 000073                       CANCEL_REP   null
      109     6225    2               VLP_SCGMA.DEST# = '1'B;

   6225  4 000073   100000 236003                    LDQ     32768,DU
         4 000074   000076 256000 3                  ORSQ    VLP_SCGMA

      110     6226    2               VLP_CGMA.DEST# = VLP_CGMA.ORIGIN#;

   6226  4 000075   000062 237000 3                  LDAQ    VLP_CGMA+4
         4 000076   000067 755000 3                  STA     VLP_CGMA+9
         4 000077   000070 756000 3                  STQ     VLP_CGMA+10

      111     6227    2               FPT_FWCG.V.QSELECT# = 2 /* CG_QSELECT_DIRECT# */;

   6227  4 000100   000041 236000 3                  LDQ     FPT_FWCG+29
         4 000101   000002 376000 5                  ANQ     2
PL6.E3A0      #001=QQB$CANCEL File=QQB$CANCEL.:E05TSI                            WED 07/30/97 05:28 Page:22
         4 000102   040000 276003                    ORQ     16384,DU
         4 000103   000041 756000 3                  STQ     FPT_FWCG+29

      112     6228    2               QQ_CMDBLK.MINOR_ERR = CODE_NME;

   6228  4 000104   000022 236000 2                  LDQ     CODE_NME
         4 000105   000001 756000 xsym               STQ     QQ_CMDBLK+1

      113     6229    2               IF OPT$ -> OUT$BLK.CODE = 3 /* OPT_HELD */ THEN

   6229  4 000106   200007 470500                    LDP0    OPT$,,AUTO
         4 000107   000000 720100                    LXL0    0,,PR0
         4 000110   000003 100003                    CMPX0   3,DU
         4 000111   000123 601000 4                  TNZ     s:6235

      114     6230    3                 DO;

      115     6231    3                   VLP_CGMA.ORIGIN# = 'HOLDSTA';

   6231  4 000112   040000 100400                    MLR     fill='040'O
         4 000113   000025 000007 2                  ADSC9   CODE_NMHC+1              cn=0,n=7
         4 000114   000062 000010 3                  ADSC9   VLP_CGMA+4               cn=0,n=8

      116     6232    3                   VLP_CGMA.DEST# = VLP_CGMA.ORIGIN#;

   6232  4 000115   000062 237000 3                  LDAQ    VLP_CGMA+4
         4 000116   000067 755000 3                  STA     VLP_CGMA+9
         4 000117   000070 756000 3                  STQ     VLP_CGMA+10

      117     6233    3                   QQ_CMDBLK.MINOR_ERR = CODE_NMHC;

   6233  4 000120   000024 236000 2                  LDQ     CODE_NMHC
         4 000121   000001 756000 xsym               STQ     QQ_CMDBLK+1

      118     6234    3                 END;

   6234  4 000122   000135 710000 4                  TRA     s:6240
PL6.E3A0      #001=QQB$CANCEL File=QQB$CANCEL.:E05TSI                            WED 07/30/97 05:28 Page:23

      119     6235    2               ELSE IF ((VLP_CGMA.MSGTYP# = '?       ') OR

   6235  4 000123   040000 106400                    CMPC    fill='040'O
         4 000124   000060 000010 3                  ADSC9   VLP_CGMA+2               cn=0,n=8
         4 000125   000027 000010 2                  ADSC9   CODE_NMHC+3              cn=0,n=8
         4 000126   000133 600000 4                  TZE     s:6237
         4 000127   040000 106400                    CMPC    fill='040'O
         4 000130   000060 000010 3                  ADSC9   VLP_CGMA+2               cn=0,n=8
         4 000131   000031 000010 2                  ADSC9   CODE_NMHC+5              cn=0,n=8
         4 000132   000135 601000 4                  TNZ     s:6240

      120     6236    2                     (VLP_CGMA.MSGTYP# = '*?      '))
      121     6237    2                 THEN VLP_SCGMA.EXMPTSTAR# = '1'B;

   6237  4 000133   400000 236007                    LDQ     -131072,DL
         4 000134   000076 256000 3                  ORSQ    VLP_SCGMA

      122     6238    2             END;

      123     6239
      124     6240    1           CALL M$FWCG(FPT_FWCG) ALTRET(FWCG_ERR);

   6240  4 000135   000004 630400 3                  EPPR0   FPT_FWCG
         4 000136   500005 713400                    CLIMB   alt,+32773
         4 000137   406400 401760                    pmme    nvectors=14
         4 000140   000163 702000 4                  TSX2    FWCG_ERR

      125     6241    1           RESULT = VLR_FWCG.FOUND#;

   6241  4 000141   000100 235000 3                  LDA     VLR_FWCG
         4 000142   200005 755100                    STA     RESULT,,AUTO

      126     6242    1           IF (VLP_SCGMA.EXMPTSTAR#) THEN

   6242  4 000143   000076 236000 3                  LDQ     VLP_SCGMA
         4 000144   400000 316007                    CANQ    -131072,DL
PL6.E3A0      #001=QQB$CANCEL File=QQB$CANCEL.:E05TSI                            WED 07/30/97 05:28 Page:24
         4 000145   000162 600000 4                  TZE     s:6250

      127     6243    2             DO;

      128     6244    2               VLP_SCGMA.EXMPTSTAR# = '0'B;

   6244  4 000146   000003 236000 5                  LDQ     3
         4 000147   000076 356000 3                  ANSQ    VLP_SCGMA

      129     6245    2               VLP_CGMA.MSGTYP# ='*RESP   ';

   6245  4 000150   040000 100400                    MLR     fill='040'O
         4 000151   000033 000010 2                  ADSC9   CODE_NMHC+7              cn=0,n=8
         4 000152   000060 000010 3                  ADSC9   VLP_CGMA+2               cn=0,n=8

      130     6246    2               CALL M$FWCG(FPT_FWCG) ALTRET(FWCG_ERR);

   6246  4 000153   000004 630400 3                  EPPR0   FPT_FWCG
         4 000154   500005 713400                    CLIMB   alt,+32773
         4 000155   406400 401760                    pmme    nvectors=14
         4 000156   000163 702000 4                  TSX2    FWCG_ERR

      131     6247    2               VLR_FWCG.FOUND# = RESULT + VLR_FWCG.FOUND#;

   6247  4 000157   200005 236100                    LDQ     RESULT,,AUTO
         4 000160   000100 036000 3                  ADLQ    VLR_FWCG
         4 000161   000100 756000 3                  STQ     VLR_FWCG

      132     6248    2             END;

      133     6249
      134     6250    2           DO WHILE('0'B);

   6250  4 000162   000172 710000 4                  TRA     s:6259

      135     6251
      136     6252    2   FWCG_ERR:
PL6.E3A0      #001=QQB$CANCEL File=QQB$CANCEL.:E05TSI                            WED 07/30/97 05:28 Page:25
      137     6253    2             IF B$TCB$ -> B$TCB.ALT$ -> B$ALT.ERR.CODE ~= 1170 /* E$FWCG_NONE */ THEN

   6253  4 000163   000000 470400 xsym  FWCG_ERR     LDP0    B$TCB$
         4 000164   000000 471500                    LDP1    0,,PR0
         4 000165   100102 236100                    LDQ     66,,PR1
         4 000166   377770 376007                    ANQ     131064,DL
         4 000167   022220 116007                    CMPQ    9360,DL
         4 000170   000172 600000 4                  TZE     s:6259

      138     6254    3               DO;

      139     6255    3                 GOTO MON_ERR;

   6255  4 000171   000231 710000 4                  TRA     MON_ERR

      140     6256    3               END;
      141     6257    2           END /* NEVER */;

      142     6258
      143     6259    1           CALL QQC$CONVERT_NUM(VLR_FWCG.FOUND#, SIZE, ADDR(TEXTC_NUM.NAME#));

   6259  4 000172   000004 236000 5                  LDQ     4
         4 000173   200036 756100                    STQ     MSGBLK+22,,AUTO
         4 000174   200036 630500                    EPPR0   MSGBLK+22,,AUTO
         4 000175   200041 450500                    STP0    MSGBLK+25,,AUTO
         4 000176   200004 631500                    EPPR1   SIZE,,AUTO
         4 000177   200040 451500                    STP1    MSGBLK+24,,AUTO
         4 000200   000005 236000 5                  LDQ     5
         4 000201   200037 756100                    STQ     MSGBLK+23,,AUTO
         4 000202   200037 630500                    EPPR0   MSGBLK+23,,AUTO
         4 000203   000021 631400 xsym               EPPR1   B_VECTNIL+17
         4 000204   000000 701000 xent               TSX1    QQC$CONVERT_NUM
         4 000205   000000 011000                    NOP     0

      144     6260    1           CALL QQC$BLDMSG_BLK(MSGBLK);

   6260  4 000206   200010 630500                    EPPR0   MSGBLK,,AUTO
PL6.E3A0      #001=QQB$CANCEL File=QQB$CANCEL.:E05TSI                            WED 07/30/97 05:28 Page:26
         4 000207   200036 450500                    STP0    MSGBLK+22,,AUTO
         4 000210   200036 630500                    EPPR0   MSGBLK+22,,AUTO
         4 000211   000017 631400 xsym               EPPR1   B_VECTNIL+15
         4 000212   000000 701000 xent               TSX1    QQC$BLDMSG_BLK
         4 000213   000000 011000                    NOP     0

      145     6261    1           MSGBLK.ERRINFO.FIELD1(0) = VECTOR(TEXTC_NUM);

   6261  4 000214   000100 100400                    MLR     fill='000'O
         4 000215   000006 000010 5                  ADSC9   6                        cn=0,n=8
         4 000216   200017 200010                    ADSC9   MSGBLK+7,,AUTO           cn=1,n=8

      146     6262    1           TEXTC_NUM.L# = SIZE;

   6262  4 000217   200004 236100                    LDQ     SIZE,,AUTO
         4 000220   000033 736000                    QLS     27
         4 000221   000000 552040 3                  STBQ    TEXTC_NUM,'40'O

      147     6263    1           CALL QQC$BLDMSG(MSGBLK);

   6263  4 000222   200010 630500                    EPPR0   MSGBLK,,AUTO
         4 000223   200036 450500                    STP0    MSGBLK+22,,AUTO
         4 000224   200036 630500                    EPPR0   MSGBLK+22,,AUTO
         4 000225   000017 631400 xsym               EPPR1   B_VECTNIL+15
         4 000226   000000 701000 xent               TSX1    QQC$BLDMSG
         4 000227   000000 011000                    NOP     0

      148     6264
      149     6265    1   RET:
      150     6266    1           RETURN;

   6266  4 000230   000000 702200 xent  RET          TSX2  ! X66_ARET

      151     6267
      152     6268    1   MON_ERR:
      153     6269    1           QQ_GLOBAL.ERR = B$TCB$ -> B$TCB.ALT$ -> B$ALT.ERR;

PL6.E3A0      #001=QQB$CANCEL File=QQB$CANCEL.:E05TSI                            WED 07/30/97 05:28 Page:27
   6269  4 000231   100102 236100       MON_ERR      LDQ     66,,PR1
         4 000232   000000 756000 xsym               STQ     QQ_GLOBAL

      154     6270    1           CALL QQC$SCREECH;

   6270  4 000233   000002 631400 xsym               EPPR1   B_VECTNIL+2
         4 000234   000000 701000 xent               TSX1    QQC$SCREECH
         4 000235   000000 011000                    NOP     0

      155     6271
      156     6272    1   END QQB$CANCEL;

   6272  4 000236   000000 702200 xent               TSX2  ! X66_ARET

PL6.E3A0      #001=QQB$CANCEL File=QQB$CANCEL.:E05TSI                            WED 07/30/97 05:28 Page:28
--  Include file information  --

   QQ_SUBS_C.:E05TOU  is referenced.
   Q_ERRCODE_C.:E05TOU  is referenced.
   QQ_PERR_C.:E05TOU  is referenced.
   XU_MACRO_C.:E05TOU  is referenced.
   QQ_DATA_R.:E05TOU  cannot be made into a system file and is referenced.
   QQ_MACROS_C.:E05TOU  is referenced.
   B_ERRORS_C.:E05TOU  is referenced.
   CP_6.:E05TOU  cannot be made into a system file and is referenced.
   Q_PAGE_C.:E05TOU  is referenced.
   B$JIT_C.:E05TOU  was found in the system file and is never referenced.
   CP_6_C.:E05TOU  was found in the system file and is referenced.
      No diagnostics issued in procedure QQB$CANCEL.
PL6.E3A0      #001=QQB$CANCEL File=QQB$CANCEL.:E05TSI                            WED 07/30/97 05:28 Page:29

 **** Variables and constants ****

  ****  Section 002 RoData QQB$CANCEL

  ****  Scalars and arrays  ****
OctLoc.c.b A Datatyp(siz) R M Lvl/name                 OctLoc.c.b A Datatyp(siz) R M Lvl/name

    23-0-0/b STRC        r     1 CODE_NMC                  22-0-0/b STRC        r     1 CODE_NME
    24-0-0/b STRC        r     1 CODE_NMHC                  0-0-0/w STRC(576)   r     1 VLP_CGMA_C
    20-0-0/d STRC(72)    r     1 VLP_SCGMA_C

  ****  Section 003  Data  QQB$CANCEL

  ****  Scalars and arrays  ****
OctLoc.c.b A Datatyp(siz) R M Lvl/name                 OctLoc.c.b A Datatyp(siz) R M Lvl/name

     4-0-0/d STRC(1512)  r     1 FPT_FWCG                   0-0-0/c STRC(99)    r     1 TEXTC_NUM
    56-0-0/w STRC(576)   r     1 VLP_CGMA                  76-0-0/d STRC(72)    r     1 VLP_SCGMA
   100-0-0/d STRC(360)   r     1 VLR_FWCG

  ****  Auto variables  ****

  ****  Scalars and arrays  ****
OctLoc.c.b A Datatyp(siz) R M Lvl/name                 OctLoc.c.b A Datatyp(siz) R M Lvl/name

    10-0-0/w STRC(738)   r     1 MSGBLK                     7-0-0/w PTR         r     1 OPT$
     5-0-0/w UBIN        r     1 RESULT                     3-0-0/w PTR         r     1 S$
     4-0-0/w UBIN        r     1 SIZE                       6-0-0/w PTR         r     1 SPECIFIER$

  ****  SYMREF variables  ****

  ****  Scalars and arrays  ****
OctLoc.c.b A Datatyp(siz) R M Lvl/name                 OctLoc.c.b A Datatyp(siz) R M Lvl/name

     0-0-0/w PTR         r     1 B$TCB$                     0-0-0/w STRC(315)   r     1 QQ_CMDBLK
     0-0-0/d STRC(9090)  r     1 QQ_GLOBAL

PL6.E3A0      #001=QQB$CANCEL File=QQB$CANCEL.:E05TSI                            WED 07/30/97 05:28 Page:30
  ****  BASED and DCB variables  ****

  ****  Scalars and arrays  ****
OctLoc.c.b A Datatyp(siz) R M Lvl/name                 OctLoc.c.b A Datatyp(siz) R M Lvl/name

     0-0-0/w STRC(2448)  r     1 B$ALT                      0-0-0/w STRC(144)   r     1 B$TCB
     0-0-0N  NULL        r     1 M$CG                       0-0-0/w STRC(144)   r     1 OUT$BLK
     0-0-0/w STRC(909)   r     1 TP$STATION


   Procedure QQB$CANCEL requires 159 words for executable code.
   Procedure QQB$CANCEL requires 34 words of local(AUTO) storage.

    No errors detected in file QQB$CANCEL.:E05TSI    .
PL6.E3A0      #001=QQB$CANCEL File=QQB$CANCEL.:E05TSI                            WED 07/30/97 05:28 Page:31
          *** CROSS REFERENCE LISTING ***
**     DENOTES     IDENTIFIER DEFINITION
<<                 IDENTIFIER'S VALUE SET
>>                 IDENTIFIER'S VALUE USED
<>                 IDENTIFIER SET AND/OR USED
--                 IDENTIFIER REFERENCED
PL6.E3A0      #001=QQB$CANCEL File=QQB$CANCEL.:E05TSI                            WED 07/30/97 05:28 Page:32
          MINI XREF LISTING

B$ALT.CODE
      5660**DCL      5660--REDEF    5661--REDEF    5661--REDEF
B$ALT.ERR
      5661**DCL      6269>>ASSIGN
B$ALT.ERR.CODE
      5662**DCL      6253>>IF
B$ALT.ERR.ERR#
      5662**DCL      5662--REDEF
B$ALT.EVID
      5661**DCL      5661--REDEF    5661--REDEF
B$TCB.ALT$
      5656**DCL      6253>>IF       6269>>ASSIGN
B$TCB$
      5558**DCL      6253>>IF       6269>>ASSIGN
CANCEL_REP
      6224**LABEL    6211--GOTO
CODE_NMC
      5989**DCL      6220>>ASSIGN
CODE_NME
      5982**DCL      6228>>ASSIGN
CODE_NMHC
      5996**DCL      6233>>ASSIGN
FPT_FWCG
      6054**DCL      6240<>CALL     6246<>CALL
FPT_FWCG.V
      6057**DCL      6054--DCLINIT
FPT_FWCG.V.QSELECT#
      6059**DCL      6219<<ASSIGN   6227<<ASSIGN
FWCG_ERR
      6253**LABEL    6240--CALLALT  6246--CALLALT
M$FWCG
        99**DCL-ENT  6240--CALL     6246--CALL
PL6.E3A0      #001=QQB$CANCEL File=QQB$CANCEL.:E05TSI                            WED 07/30/97 05:28 Page:33
MON_ERR
      6269**LABEL    6255--GOTO
MSGBLK
      5867**DCL      6260<>CALL     6263<>CALL
MSGBLK.ERRINFO.FIELD1
      5949**DCL      6261<<ASSIGN
OPT$
      5837**DCL      6195<<ASSIGN   6207>>IF       6216>>IF       6229>>IF
OUT$BLK.CODE
      5624**DCL      6207>>IF       6207>>IF       6216>>IF       6229>>IF
OUT$BLK.NSUBLKS
      5628**DCL      6200>>IF       6203>>IF       6207>>IF
OUT$BLK.SUBLK$
      5649**DCL      6195>>ASSIGN   6202>>ASSIGN   6205>>ASSIGN
QQC$BLDMSG
      5456**DCL-ENT  6263--CALL
QQC$BLDMSG_BLK
      5455**DCL-ENT  6260--CALL
QQC$CONVERT_NUM
      5458**DCL-ENT  6259--CALL
QQC$EX_SPEC
      5457**DCL-ENT  6213--CALL
QQC$SCREECH
      5459**DCL-ENT  6270--CALL
QQ_CMDBLK.MINOR_ERR
      1711**DCL      6220<<ASSIGN   6228<<ASSIGN   6233<<ASSIGN
QQ_CMDBLK.OUT$
      1711**DCL      6195>>ASSIGN   6200>>IF       6202>>ASSIGN   6203>>IF       6205>>ASSIGN   6207>>IF
QQ_CMDBLK.S$
      1711**DCL      6198>>ASSIGN
QQ_GLOBAL.DS1$_BITS
      1722**DCL      1722--REDEF
QQ_GLOBAL.DS2$_BITS
      1722**DCL      1723--REDEF
QQ_GLOBAL.DS3$_BITS
      1723**DCL      1723--REDEF
PL6.E3A0      #001=QQB$CANCEL File=QQB$CANCEL.:E05TSI                            WED 07/30/97 05:28 Page:34
QQ_GLOBAL.DS4$_BITS
      1723**DCL      1724--REDEF
QQ_GLOBAL.ERR
      1712**DCL      6269<<ASSIGN
RESULT
      5834**DCL      6241<<ASSIGN   6247>>ASSIGN
RET
      6266**LABEL    6213--CALLALT
S$
      5678**DCL      5680--IMP-PTR
SIZE
      5833**DCL      6259<>CALL     6262>>ASSIGN
SPECIFIER$
      5836**DCL      6202<<ASSIGN   6205<<ASSIGN   6207>>IF       6213<>CALL
TEXTC_NUM
      5864**DCL      6261--ASSIGN
TEXTC_NUM.L#
      5864**DCL      6262<<ASSIGN
TEXTC_NUM.NAME#
      5864**DCL      6259--CALL
TP$STATION.ID
      5681**DCL      6198>>ASSIGN
VLP_CGMA
      6099**DCL      6054--DCLINIT  6196<<ASSIGN   6213<>CALL
VLP_CGMA.DEST#
      6107**DCL      6226<<ASSIGN   6232<<ASSIGN
VLP_CGMA.MSGIDXT
      6108**DCL      6111--REDEF
VLP_CGMA.MSGTYP#
      6104**DCL      6235>>IF       6235>>IF       6245<<ASSIGN
VLP_CGMA.ORIGIN#
      6104**DCL      6198<<ASSIGN   6226>>ASSIGN   6231<<ASSIGN   6232>>ASSIGN
VLP_CGMA_C
      5776**DCL      6196>>ASSIGN
VLP_CGMA_C.MSGIDXT
      5785**DCL      5788--REDEF
PL6.E3A0      #001=QQB$CANCEL File=QQB$CANCEL.:E05TSI                            WED 07/30/97 05:28 Page:35
VLP_SCGMA
      6125**DCL      6055--DCLINIT  6197<<ASSIGN   6213<>CALL
VLP_SCGMA.DEST#
      6125**DCL      6225<<ASSIGN
VLP_SCGMA.EXMPTSTAR#
      6128**DCL      6237<<ASSIGN   6242>>IF       6244<<ASSIGN
VLP_SCGMA.ORIGIN#
      6125**DCL      6218<<ASSIGN
VLP_SCGMA_C
      5802**DCL      6197>>ASSIGN
VLR_FWCG
      6167**DCL      6056--DCLINIT
VLR_FWCG.FOUND#
      6167**DCL      6241>>ASSIGN   6247<<ASSIGN   6247>>ASSIGN   6259<>CALL
