VERSION E05

PL6.E3A0      #001=QQB$DELIVER File=QQB$DELIVER.:E05TSI                          WED 07/30/97 05:29 Page:1
        1        1        /*M* QQB$DELIVER - Process   SWITCH   command */
        2        2        /*T***********************************************************/
        3        3        /*T*                                                         */
        4        4        /*T* Copyright (c) Bull HN Information Systems Inc., 1997    */
        5        5        /*T*                                                         */
        6        6        /*T***********************************************************/
        7        7        /*X* IND=2, DCI=4, CSU=2, ECU=4, DTI=2, CTI=4, AND */
        8        8        QQB$DELIVER:
        9        9                PROC;
       10       10
       11       11        %INCLUDE Q_PAGE_C;
       12       43        %SET LISTEXP = '1'B;
       13       44        %PAGE(ARG="Includes");

                61        /***************************************************************************
                62         *                                                                         *
                63         *                                  Includes                               *
                64         *                                                                         *
                65         ***************************************************************************/

       14       69        %INCLUDE CP_6;
       15      150        %INCLUDE B_ERRORS_C;
       16     1277        %INCLUDE QQ_MACROS_C;
       17     1702        %INCLUDE QQ_DATA_R;
       18     1948        %INCLUDE XU_MACRO_C;
       19     5054        %INCLUDE QQ_PERR_C;
       20     5215        %INCLUDE Q_ERRCODE_C;
       21     5238        %INCLUDE QQ_SUBS_C;
       22     5430        %PAGE(ARG="Externally defined routines");

              5447    1   /***************************************************************************
              5448    1    *                                                                         *
              5449    1    *                        Externally defined routines                      *
              5450    1    *                                                                         *
              5451    1    ***************************************************************************/

       23     5455    1   DCL QQC$BLDMSG_BLK ENTRY(1);
PL6.E3A0      #001=QQB$DELIVER File=QQB$DELIVER.:E05TSI                          WED 07/30/97 05:29 Page:2
       24     5456    1   DCL QQC$BLDMSG ENTRY(1);
       25     5457    1   DCL QQC$EX_SPEC ENTRY(3) ALTRET;
       26     5458    1   DCL QQC$CONVERT_NUM ENTRY(3);
       27     5459    1   DCL QQC$SCREECH ENTRY;
       28     5460        %PAGE(ARG="EQUs");

              5477    1   /***************************************************************************
              5478    1    *                                                                         *
              5479    1    *                                    EQUs                                 *
              5480    1    *                                                                         *
              5481    1    ***************************************************************************/

       29     5485        %EQU_CG;
       30     5533        %PAGE(ARG="Symrefs");

              5550    1   /***************************************************************************
              5551    1    *                                                                         *
              5552    1    *                                  Symrefs                                *
              5553    1    *                                                                         *
              5554    1    ***************************************************************************/

       31     5558    1   DCL B$TCB$ PTR SYMREF;
       32     5559        %PAGE(ARG="DCBs");

              5576    1   /***************************************************************************
              5577    1    *                                                                         *
              5578    1    *                                    DCBs                                 *
              5579    1    *                                                                         *
              5580    1    ***************************************************************************/

       33     5584    1   DCL M$CG DCB;
       34     5585        %PAGE(ARG="Based");

              5602    1   /***************************************************************************
              5603    1    *                                                                         *
              5604    1    *                                   Based                                 *
              5605    1    *                                                                         *
PL6.E3A0      #001=QQB$DELIVER File=QQB$DELIVER.:E05TSI                          WED 07/30/97 05:29 Page:3
              5606    1    ***************************************************************************/

       35     5610        %PARSE$OUT(STCLASS=BASED);
       36     5655        %PARSE$SYM(STCLASS=BASED);
       37     5693        %B$TCB;
       38     5696        %B$ALT;
       39     5704        %PAGE(ARG="Auto");

              5721    1   /***************************************************************************
              5722    1    *                                                                         *
              5723    1    *                                    Auto                                 *
              5724    1    *                                                                         *
              5725    1    ***************************************************************************/

       40     5729    1   DCL SIZE UBIN WORD;
       41     5730    1   DCL POS UBIN WORD;
       42     5731
       43     5732    1   DCL SPECIFIER$ PTR;
       44     5733    1   DCL PLACE$ PTR;
       45     5734
       46     5735        %VLP_NAME(FPTN=TEXTC_NUM, LEN=10, NAME=' ');
       47     5762        %MSGBLK;
       48     5852        %PAGE(ARG="Error codes", PAGE=YES);

PL6.E3A0      #001=QQB$DELIVER File=QQB$DELIVER.:E05TSI                          WED 07/30/97 05:29 Page:4
              5869    1   /***************************************************************************
              5870    1    *                                                                         *
              5871    1    *                                Error codes                              *
              5872    1    *                                                                         *
              5873    1    ***************************************************************************/

       49     5877        %ERRCODE(NAME=CODE_NMD, CODE#=%E$NMD, FCG#=%FCG_QQ, MID#=%MID_B);
       50     5884        %ERRCODE(NAME=CODE_NWIP, CODE#=%E$NWIP, FCG#=%FCG_QQ, MID#=%MID_B);
       51     5891        /*E*       ERROR: QQB-E$NMD-C
       52     5892
       53     5893                 MESSAGE: %U1 report(s) delivered
       54     5894             DESCRIPTION: The number of messages delivered by a SWITCH command
       55     5895        */
       56     5896        /*E*       ERROR: QQB-E$NWIP-C
       57     5897
       58     5898                 MESSAGE: Wildcarding not permitted in destination of SWITCH
       59     5899             DESCRIPTION: You must deliver a report to a specific place
       60     5900                          and not a group of places.
       61     5901        */
       62     5902        %PAGE(ARG="FPTs", PAGE=YES);

PL6.E3A0      #001=QQB$DELIVER File=QQB$DELIVER.:E05TSI                          WED 07/30/97 05:29 Page:5
              5919    1   /***************************************************************************
              5920    1    *                                                                         *
              5921    1    *                                    FPTs                                 *
              5922    1    *                                                                         *
              5923    1    ***************************************************************************/

       63     5927        %FPT_FWCG(DCB=M$CG, CRITERIA=VLP_CGMA, REATTR=VLP_CGMA_REATTR,
       64     5928        SCA=VLP_SCGMA, SRA=VLP_SCGMA_REATTR, RESULTS=VLR_FWCG,
       65     5929        QSELECT=DIRECT);
       66     5948        %PAGE(ARG="VLPs");

              5965    1   /***************************************************************************
              5966    1    *                                                                         *
              5967    1    *                                    VLPs                                 *
              5968    1    *                                                                         *
              5969    1    ***************************************************************************/

       67     5973        %VLP_CGMA;
       68     6000        %VLP_SCGMA;
       69     6017        %VLP_CGMA(FPTN=VLP_CGMA_REATTR);
       70     6044        %VLP_SCGMA(FPTN=VLP_SCGMA_REATTR, DEST=YES);
       71     6061        %PAGE(ARG="VLRs");

              6078    1   /***************************************************************************
              6079    1    *                                                                         *
              6080    1    *                                    VLRs                                 *
              6081    1    *                                                                         *
              6082    1    ***************************************************************************/

       72     6086        %VLR_FWCG;
       73     6100        %PAGE(ARG="QQB$DELIVER", PAGE=YES);

PL6.E3A0      #001=QQB$DELIVER File=QQB$DELIVER.:E05TSI                          WED 07/30/97 05:29 Page:6
              6117    1   /***************************************************************************
              6118    1    *                                                                         *
              6119    1    *                                QQB$DELIVER                              *
              6120    1    *                                                                         *
              6121    1    ***************************************************************************/

       74     6125    1           SPECIFIER$ = QQ_CMDBLK.OUT$ -> OUT$BLK.SUBLK$(0);
       75     6126
       76     6127    1           CALL QQC$EX_SPEC(SPECIFIER$, VLP_SCGMA, VLP_CGMA) ALTRET(RET);
       77     6128
       78     6129    1           VLP_SCGMA.DEST# = '1'B;
       79     6130    1           VLP_CGMA.DEST# = VLP_CGMA.ORIGIN#;
       80     6131
       81     6132    1           PLACE$ = QQ_CMDBLK.OUT$ -> OUT$BLK.SUBLK$(1);
       82     6133    1           CALL INDEX(POS, '?', PLACE$ -> OUT$SYM.TEXT) ALTRET(NO_Q);
       83     6134
       84     6135    1           QQ_CMDBLK.MINOR_ERR = CODE_NWIP;
       85     6136    1           CALL QQC$BLDMSG_BLK(MSGBLK);
       86     6137    1           CALL QQC$BLDMSG(MSGBLK);
       87     6138    1           GOTO RET;
       88     6139
       89     6140    1   NO_Q:
       90     6141    1           VLP_CGMA_REATTR.DEST# = PLACE$ -> OUT$SYM.TEXT;
       91     6142
       92     6143    1           CALL M$FWCG(FPT_FWCG) ALTRET(FWCG_ERR);
       93     6144
       94     6145    2           DO WHILE('0'B);
       95     6146
       96     6147    2   FWCG_ERR:
       97     6148    2             IF B$TCB$ -> B$TCB.ALT$ -> B$ALT.ERR.CODE ~= 1170 /* E$FWCG_NONE */ THEN
       98     6149    3               DO;
       99     6150    3                 GOTO MON_ERR;
      100     6151    3               END;
      101     6152    2           END /* NEVER */;
      102     6153
      103     6154    1           CALL QQC$CONVERT_NUM(VLR_FWCG.FOUND#, SIZE, ADDR(TEXTC_NUM.NAME#));
      104     6155    1           QQ_CMDBLK.MINOR_ERR = CODE_NMD;
PL6.E3A0      #001=QQB$DELIVER File=QQB$DELIVER.:E05TSI                          WED 07/30/97 05:29 Page:7
      105     6156    1           CALL QQC$BLDMSG_BLK(MSGBLK);
      106     6157    1           MSGBLK.ERRINFO.FIELD1(0) = VECTOR(TEXTC_NUM);
      107     6158    1           TEXTC_NUM.L# = SIZE;
      108     6159    1           CALL QQC$BLDMSG(MSGBLK);
      109     6160
      110     6161    1   RET:
      111     6162    1           RETURN;
      112     6163
      113     6164    1   MON_ERR:
      114     6165    1           QQ_GLOBAL.ERR = B$TCB$ -> B$TCB.ALT$ -> B$ALT.ERR;
      115     6166    1           CALL QQC$SCREECH;
      116     6167
      117     6168    1   END QQB$DELIVER;

PL6.E3A0      #001=QQB$DELIVER File=QQB$DELIVER.:E05TSI                          WED 07/30/97 05:29 Page:8
--  Include file information  --

   QQ_SUBS_C.:E05TOU  is referenced.
   Q_ERRCODE_C.:E05TOU  is referenced.
   QQ_PERR_C.:E05TOU  is referenced.
   XU_MACRO_C.:E05TOU  is referenced.
   QQ_DATA_R.:E05TOU  cannot be made into a system file and is referenced.
   QQ_MACROS_C.:E05TOU  is referenced.
   B_ERRORS_C.:E05TOU  is referenced.
   CP_6.:E05TOU  cannot be made into a system file and is referenced.
   Q_PAGE_C.:E05TOU  is referenced.
   B$JIT_C.:E05TOU  was found in the system file and is never referenced.
   CP_6_C.:E05TOU  was found in the system file and is referenced.
      No diagnostics issued in procedure QQB$DELIVER.

   Procedure QQB$DELIVER requires 105 words for executable code.
   Procedure QQB$DELIVER requires 32 words of local(AUTO) storage.

    No errors detected in file QQB$DELIVER.:E05TSI    .

PL6.E3A0      #001=QQB$DELIVER File=QQB$DELIVER.:E05TSI                          WED 07/30/97 05:29 Page:9

 Object Unit name= QQB$DELIVER                                File name= QQB$DELIVER.:E05TOU
 UTS= JUL 30 '97 05:29:09.00 WED                              Compiler= PL-6/E31         Sev=      00
 SharedLib= :SHARED_SYSTEM                                    Alt SharedLib=


    ****  Control sections  ****

 Sect   Type Bound  Init  Size OctSiz  Section name(segment info)
    0   DCB   even  none     0      0  M$UC
    1   DCB   even  none     0      0  M$CG
    2   Data  even  none    92    134  QQB$DELIVER
    3  RoData even  UTS      2      2  QQB$DELIVER
    4   Proc  even  none   105    151  QQB$DELIVER
    5  RoData even  none     8     10  QQB$DELIVER

    ****  Entry defs  ****

                              Check   Calling
                             calling  sequence
  Sect OctLoc Primary Altret sequence   type   Parms  Name
     4      0   yes            yes      Std        0  QQB$DELIVER

  ****  Entry refs  ****

         Check        Calling
        calling       sequence
Altret sequence SRef   type   Args  Name
 yes     yes           Std       3 QQC$EX_SPEC
         yes           Std       1 QQC$BLDMSG_BLK
         yes           Std       1 QQC$BLDMSG
         yes           Std       0 QQC$SCREECH
         yes           Std       3 QQC$CONVERT_NUM
                       nStd      0 X66_AUTO_0
                       Std       0 B_CONSPOOL_D
                       nStd      0 X66_ARET
PL6.E3A0      #001=QQB$DELIVER File=QQB$DELIVER.:E05TSI                          WED 07/30/97 05:29 Page:10

  ****  Data refs  ****

  Flags:  r = read only, s = secondary
Flgs Name                             Flgs Name                             Flgs Name
     M$UC                                  QQ_CMDBLK                             QQ_GLOBAL
     B$TCB$                                M$CG                                  B_VECTNIL

  ****  Segment refs  ****

  Flags:  r = read only, s = secondary
Flgs Name                             Flgs Name                             Flgs Name
     ISSID                                 NULLSID
PL6.E3A0      #001=QQB$DELIVER File=QQB$DELIVER.:E05TSI                          WED 07/30/97 05:29 Page:11


        1        1        /*M* QQB$DELIVER - Process   SWITCH   command */
        2        2        /*T***********************************************************/
        3        3        /*T*                                                         */
        4        4        /*T* Copyright (c) Bull HN Information Systems Inc., 1997    */
        5        5        /*T*                                                         */
        6        6        /*T***********************************************************/
        7        7        /*X* IND=2, DCI=4, CSU=2, ECU=4, DTI=2, CTI=4, AND */
        8        8        QQB$DELIVER:
        9        9                PROC;

      9  4 000000   000000 700200 xent  QQB$DELIVER  TSX0  ! X66_AUTO_0
         4 000001   000040 000000                    ZERO    32,0

       10       10
       11       11        %INCLUDE Q_PAGE_C;
       12       43        %SET LISTEXP = '1'B;
       13       44        %PAGE(ARG="Includes");

                61        /***************************************************************************
                62         *                                                                         *
                63         *                                  Includes                               *
                64         *                                                                         *
                65         ***************************************************************************/

       14       69        %INCLUDE CP_6;
       15      150        %INCLUDE B_ERRORS_C;
       16     1277        %INCLUDE QQ_MACROS_C;
       17     1702        %INCLUDE QQ_DATA_R;
       18     1948        %INCLUDE XU_MACRO_C;
       19     5054        %INCLUDE QQ_PERR_C;
       20     5215        %INCLUDE Q_ERRCODE_C;
       21     5238        %INCLUDE QQ_SUBS_C;
       22     5430        %PAGE(ARG="Externally defined routines");

              5447    1   /***************************************************************************
              5448    1    *                                                                         *
PL6.E3A0      #001=QQB$DELIVER File=QQB$DELIVER.:E05TSI                          WED 07/30/97 05:29 Page:12
              5449    1    *                        Externally defined routines                      *
              5450    1    *                                                                         *
              5451    1    ***************************************************************************/

       23     5455    1   DCL QQC$BLDMSG_BLK ENTRY(1);
       24     5456    1   DCL QQC$BLDMSG ENTRY(1);
       25     5457    1   DCL QQC$EX_SPEC ENTRY(3) ALTRET;
       26     5458    1   DCL QQC$CONVERT_NUM ENTRY(3);
       27     5459    1   DCL QQC$SCREECH ENTRY;
       28     5460        %PAGE(ARG="EQUs");

              5477    1   /***************************************************************************
              5478    1    *                                                                         *
              5479    1    *                                    EQUs                                 *
              5480    1    *                                                                         *
              5481    1    ***************************************************************************/

       29     5485        %EQU_CG;
       30     5533        %PAGE(ARG="Symrefs");

              5550    1   /***************************************************************************
              5551    1    *                                                                         *
              5552    1    *                                  Symrefs                                *
              5553    1    *                                                                         *
              5554    1    ***************************************************************************/

       31     5558    1   DCL B$TCB$ PTR SYMREF;
       32     5559        %PAGE(ARG="DCBs");

              5576    1   /***************************************************************************
              5577    1    *                                                                         *
              5578    1    *                                    DCBs                                 *
              5579    1    *                                                                         *
              5580    1    ***************************************************************************/

       33     5584    1   DCL M$CG DCB;
       34     5585        %PAGE(ARG="Based");
PL6.E3A0      #001=QQB$DELIVER File=QQB$DELIVER.:E05TSI                          WED 07/30/97 05:29 Page:13

              5602    1   /***************************************************************************
              5603    1    *                                                                         *
              5604    1    *                                   Based                                 *
              5605    1    *                                                                         *
              5606    1    ***************************************************************************/

       35     5610        %PARSE$OUT(STCLASS=BASED);
       36     5655        %PARSE$SYM(STCLASS=BASED);
       37     5693        %B$TCB;
       38     5696        %B$ALT;
       39     5704        %PAGE(ARG="Auto");

              5721    1   /***************************************************************************
              5722    1    *                                                                         *
              5723    1    *                                    Auto                                 *
              5724    1    *                                                                         *
              5725    1    ***************************************************************************/

       40     5729    1   DCL SIZE UBIN WORD;
       41     5730    1   DCL POS UBIN WORD;
       42     5731
       43     5732    1   DCL SPECIFIER$ PTR;
       44     5733    1   DCL PLACE$ PTR;
       45     5734
       46     5735        %VLP_NAME(FPTN=TEXTC_NUM, LEN=10, NAME=' ');
       47     5762        %MSGBLK;
       48     5852        %PAGE(ARG="Error codes", PAGE=YES);

PL6.E3A0      #001=QQB$DELIVER File=QQB$DELIVER.:E05TSI                          WED 07/30/97 05:29 Page:14
              5869    1   /***************************************************************************
              5870    1    *                                                                         *
              5871    1    *                                Error codes                              *
              5872    1    *                                                                         *
              5873    1    ***************************************************************************/

       49     5877        %ERRCODE(NAME=CODE_NMD, CODE#=%E$NMD, FCG#=%FCG_QQ, MID#=%MID_B);
       50     5884        %ERRCODE(NAME=CODE_NWIP, CODE#=%E$NWIP, FCG#=%FCG_QQ, MID#=%MID_B);
       51     5891        /*E*       ERROR: QQB-E$NMD-C
       52     5892
       53     5893                 MESSAGE: %U1 report(s) delivered
       54     5894             DESCRIPTION: The number of messages delivered by a SWITCH command
       55     5895        */
       56     5896        /*E*       ERROR: QQB-E$NWIP-C
       57     5897
       58     5898                 MESSAGE: Wildcarding not permitted in destination of SWITCH
       59     5899             DESCRIPTION: You must deliver a report to a specific place
       60     5900                          and not a group of places.
       61     5901        */
       62     5902        %PAGE(ARG="FPTs", PAGE=YES);

PL6.E3A0      #001=QQB$DELIVER File=QQB$DELIVER.:E05TSI                          WED 07/30/97 05:29 Page:15
              5919    1   /***************************************************************************
              5920    1    *                                                                         *
              5921    1    *                                    FPTs                                 *
              5922    1    *                                                                         *
              5923    1    ***************************************************************************/

       63     5927        %FPT_FWCG(DCB=M$CG, CRITERIA=VLP_CGMA, REATTR=VLP_CGMA_REATTR,
       64     5928        SCA=VLP_SCGMA, SRA=VLP_SCGMA_REATTR, RESULTS=VLR_FWCG,
       65     5929        QSELECT=DIRECT);
       66     5948        %PAGE(ARG="VLPs");

              5965    1   /***************************************************************************
              5966    1    *                                                                         *
              5967    1    *                                    VLPs                                 *
              5968    1    *                                                                         *
              5969    1    ***************************************************************************/

       67     5973        %VLP_CGMA;
       68     6000        %VLP_SCGMA;
       69     6017        %VLP_CGMA(FPTN=VLP_CGMA_REATTR);
       70     6044        %VLP_SCGMA(FPTN=VLP_SCGMA_REATTR, DEST=YES);
       71     6061        %PAGE(ARG="VLRs");

              6078    1   /***************************************************************************
              6079    1    *                                                                         *
              6080    1    *                                    VLRs                                 *
              6081    1    *                                                                         *
              6082    1    ***************************************************************************/

       72     6086        %VLR_FWCG;
       73     6100        %PAGE(ARG="QQB$DELIVER", PAGE=YES);

PL6.E3A0      #001=QQB$DELIVER File=QQB$DELIVER.:E05TSI                          WED 07/30/97 05:29 Page:16
              6117    1   /***************************************************************************
              6118    1    *                                                                         *
              6119    1    *                                QQB$DELIVER                              *
              6120    1    *                                                                         *
              6121    1    ***************************************************************************/

       74     6125    1           SPECIFIER$ = QQ_CMDBLK.OUT$ -> OUT$BLK.SUBLK$(0);

   6125  4 000002   000005 470400 xsym               LDP0    QQ_CMDBLK+5
         4 000003   000003 236100                    LDQ     3,,PR0
         4 000004   200005 756100                    STQ     SPECIFIER$,,AUTO

       75     6126
       76     6127    1           CALL QQC$EX_SPEC(SPECIFIER$, VLP_SCGMA, VLP_CGMA) ALTRET(RET);

   6127  4 000005   000000 236000 5                  LDQ     0
         4 000006   200036 756100                    STQ     MSGBLK+23,,AUTO
         4 000007   000001 236000 5                  LDQ     1
         4 000010   200035 756100                    STQ     MSGBLK+22,,AUTO
         4 000011   200005 631500                    EPPR1   SPECIFIER$,,AUTO
         4 000012   200034 451500                    STP1    MSGBLK+21,,AUTO
         4 000013   200034 630500                    EPPR0   MSGBLK+21,,AUTO
         4 000014   000021 631400 xsym               EPPR1   B_VECTNIL+17
         4 000015   000000 701000 xent               TSX1    QQC$EX_SPEC
         4 000016   000142 702000 4                  TSX2    RET

       77     6128
       78     6129    1           VLP_SCGMA.DEST# = '1'B;

   6129  4 000017   100000 236003                    LDQ     32768,DU
         4 000020   000076 256000 2                  ORSQ    VLP_SCGMA

       79     6130    1           VLP_CGMA.DEST# = VLP_CGMA.ORIGIN#;

   6130  4 000021   000062 237000 2                  LDAQ    VLP_CGMA+4
         4 000022   000067 755000 2                  STA     VLP_CGMA+9
         4 000023   000070 756000 2                  STQ     VLP_CGMA+10
PL6.E3A0      #001=QQB$DELIVER File=QQB$DELIVER.:E05TSI                          WED 07/30/97 05:29 Page:17

       80     6131
       81     6132    1           PLACE$ = QQ_CMDBLK.OUT$ -> OUT$BLK.SUBLK$(1);

   6132  4 000024   000005 470400 xsym               LDP0    QQ_CMDBLK+5
         4 000025   000004 236100                    LDQ     4,,PR0
         4 000026   200006 756100                    STQ     PLACE$,,AUTO

       82     6133    1           CALL INDEX(POS, '?', PLACE$ -> OUT$SYM.TEXT) ALTRET(NO_Q);

   6133  4 000027   200006 471500                    LDP1    PLACE$,,AUTO
         4 000030   100004 236100                    LDQ     4,,PR1
         4 000031   000033 772000                    QRL     27
         4 000032   000000 620006                    EAX0    0,QL
         4 000033   000000 124540                    SCM     mask='000'O
         4 000034   100004 200010                    ADSC9   4,,PR1                   cn=1,n=*X0
         4 000035   000002 000001 5                  ADSC9   2                        cn=0,n=1
         4 000036   200004 000100                    ARG     POS,,AUTO
         4 000037   000057 606400 4                  TTN     NO_Q

       83     6134
       84     6135    1           QQ_CMDBLK.MINOR_ERR = CODE_NWIP;

   6135  4 000040   000001 236000 3                  LDQ     CODE_NWIP
         4 000041   000001 756000 xsym               STQ     QQ_CMDBLK+1

       85     6136    1           CALL QQC$BLDMSG_BLK(MSGBLK);

   6136  4 000042   200007 633500                    EPPR3   MSGBLK,,AUTO
         4 000043   200034 453500                    STP3    MSGBLK+21,,AUTO
         4 000044   200034 630500                    EPPR0   MSGBLK+21,,AUTO
         4 000045   000017 631400 xsym               EPPR1   B_VECTNIL+15
         4 000046   000000 701000 xent               TSX1    QQC$BLDMSG_BLK
         4 000047   000000 011000                    NOP     0

       86     6137    1           CALL QQC$BLDMSG(MSGBLK);

PL6.E3A0      #001=QQB$DELIVER File=QQB$DELIVER.:E05TSI                          WED 07/30/97 05:29 Page:18
   6137  4 000050   200007 630500                    EPPR0   MSGBLK,,AUTO
         4 000051   200034 450500                    STP0    MSGBLK+21,,AUTO
         4 000052   200034 630500                    EPPR0   MSGBLK+21,,AUTO
         4 000053   000017 631400 xsym               EPPR1   B_VECTNIL+15
         4 000054   000000 701000 xent               TSX1    QQC$BLDMSG
         4 000055   000000 011000                    NOP     0

       87     6138    1           GOTO RET;

   6138  4 000056   000142 710000 4                  TRA     RET

       88     6139
       89     6140    1   NO_Q:
       90     6141    1           VLP_CGMA_REATTR.DEST# = PLACE$ -> OUT$SYM.TEXT;

   6141  4 000057   200006 470500       NO_Q         LDP0    PLACE$,,AUTO
         4 000060   000004 236100                    LDQ     4,,PR0
         4 000061   000033 772000                    QRL     27
         4 000062   000000 620006                    EAX0    0,QL
         4 000063   040000 100540                    MLR     fill='040'O
         4 000064   000004 200010                    ADSC9   4,,PR0                   cn=1,n=*X0
         4 000065   000111 000010 2                  ADSC9   VLP_CGMA_REATTR+9        cn=0,n=8

       91     6142
       92     6143    1           CALL M$FWCG(FPT_FWCG) ALTRET(FWCG_ERR);

   6143  4 000066   000004 630400 2                  EPPR0   FPT_FWCG
         4 000067   500005 713400                    CLIMB   alt,+32773
         4 000070   406400 401760                    pmme    nvectors=14
         4 000071   000073 702000 4                  TSX2    FWCG_ERR

       93     6144
       94     6145    2           DO WHILE('0'B);

   6145  4 000072   000102 710000 4                  TRA     s:6154

       95     6146
PL6.E3A0      #001=QQB$DELIVER File=QQB$DELIVER.:E05TSI                          WED 07/30/97 05:29 Page:19
       96     6147    2   FWCG_ERR:
       97     6148    2             IF B$TCB$ -> B$TCB.ALT$ -> B$ALT.ERR.CODE ~= 1170 /* E$FWCG_NONE */ THEN

   6148  4 000073   000000 470400 xsym  FWCG_ERR     LDP0    B$TCB$
         4 000074   000000 471500                    LDP1    0,,PR0
         4 000075   100102 236100                    LDQ     66,,PR1
         4 000076   377770 376007                    ANQ     131064,DL
         4 000077   022220 116007                    CMPQ    9360,DL
         4 000100   000102 600000 4                  TZE     s:6154

       98     6149    3               DO;

       99     6150    3                 GOTO MON_ERR;

   6150  4 000101   000143 710000 4                  TRA     MON_ERR

      100     6151    3               END;
      101     6152    2           END /* NEVER */;

      102     6153
      103     6154    1           CALL QQC$CONVERT_NUM(VLR_FWCG.FOUND#, SIZE, ADDR(TEXTC_NUM.NAME#));

   6154  4 000102   000003 236000 5                  LDQ     3
         4 000103   200034 756100                    STQ     MSGBLK+21,,AUTO
         4 000104   200034 630500                    EPPR0   MSGBLK+21,,AUTO
         4 000105   200037 450500                    STP0    MSGBLK+24,,AUTO
         4 000106   200003 631500                    EPPR1   SIZE,,AUTO
         4 000107   200036 451500                    STP1    MSGBLK+23,,AUTO
         4 000110   000004 236000 5                  LDQ     4
         4 000111   200035 756100                    STQ     MSGBLK+22,,AUTO
         4 000112   200035 630500                    EPPR0   MSGBLK+22,,AUTO
         4 000113   000021 631400 xsym               EPPR1   B_VECTNIL+17
         4 000114   000000 701000 xent               TSX1    QQC$CONVERT_NUM
         4 000115   000000 011000                    NOP     0

      104     6155    1           QQ_CMDBLK.MINOR_ERR = CODE_NMD;

PL6.E3A0      #001=QQB$DELIVER File=QQB$DELIVER.:E05TSI                          WED 07/30/97 05:29 Page:20
   6155  4 000116   000000 236000 3                  LDQ     CODE_NMD
         4 000117   000001 756000 xsym               STQ     QQ_CMDBLK+1

      105     6156    1           CALL QQC$BLDMSG_BLK(MSGBLK);

   6156  4 000120   200007 630500                    EPPR0   MSGBLK,,AUTO
         4 000121   200034 450500                    STP0    MSGBLK+21,,AUTO
         4 000122   200034 630500                    EPPR0   MSGBLK+21,,AUTO
         4 000123   000017 631400 xsym               EPPR1   B_VECTNIL+15
         4 000124   000000 701000 xent               TSX1    QQC$BLDMSG_BLK
         4 000125   000000 011000                    NOP     0

      106     6157    1           MSGBLK.ERRINFO.FIELD1(0) = VECTOR(TEXTC_NUM);

   6157  4 000126   000100 100400                    MLR     fill='000'O
         4 000127   000006 000010 5                  ADSC9   6                        cn=0,n=8
         4 000130   200016 200010                    ADSC9   MSGBLK+7,,AUTO           cn=1,n=8

      107     6158    1           TEXTC_NUM.L# = SIZE;

   6158  4 000131   200003 236100                    LDQ     SIZE,,AUTO
         4 000132   000033 736000                    QLS     27
         4 000133   000000 552040 2                  STBQ    TEXTC_NUM,'40'O

      108     6159    1           CALL QQC$BLDMSG(MSGBLK);

   6159  4 000134   200007 630500                    EPPR0   MSGBLK,,AUTO
         4 000135   200034 450500                    STP0    MSGBLK+21,,AUTO
         4 000136   200034 630500                    EPPR0   MSGBLK+21,,AUTO
         4 000137   000017 631400 xsym               EPPR1   B_VECTNIL+15
         4 000140   000000 701000 xent               TSX1    QQC$BLDMSG
         4 000141   000000 011000                    NOP     0

      109     6160
      110     6161    1   RET:
      111     6162    1           RETURN;

PL6.E3A0      #001=QQB$DELIVER File=QQB$DELIVER.:E05TSI                          WED 07/30/97 05:29 Page:21
   6162  4 000142   000000 702200 xent  RET          TSX2  ! X66_ARET

      112     6163
      113     6164    1   MON_ERR:
      114     6165    1           QQ_GLOBAL.ERR = B$TCB$ -> B$TCB.ALT$ -> B$ALT.ERR;

   6165  4 000143   100102 236100       MON_ERR      LDQ     66,,PR1
         4 000144   000000 756000 xsym               STQ     QQ_GLOBAL

      115     6166    1           CALL QQC$SCREECH;

   6166  4 000145   000002 631400 xsym               EPPR1   B_VECTNIL+2
         4 000146   000000 701000 xent               TSX1    QQC$SCREECH
         4 000147   000000 011000                    NOP     0

      116     6167
      117     6168    1   END QQB$DELIVER;

   6168  4 000150   000000 702200 xent               TSX2  ! X66_ARET

PL6.E3A0      #001=QQB$DELIVER File=QQB$DELIVER.:E05TSI                          WED 07/30/97 05:29 Page:22
--  Include file information  --

   QQ_SUBS_C.:E05TOU  is referenced.
   Q_ERRCODE_C.:E05TOU  is referenced.
   QQ_PERR_C.:E05TOU  is referenced.
   XU_MACRO_C.:E05TOU  is referenced.
   QQ_DATA_R.:E05TOU  cannot be made into a system file and is referenced.
   QQ_MACROS_C.:E05TOU  is referenced.
   B_ERRORS_C.:E05TOU  is referenced.
   CP_6.:E05TOU  cannot be made into a system file and is referenced.
   Q_PAGE_C.:E05TOU  is referenced.
   B$JIT_C.:E05TOU  was found in the system file and is never referenced.
   CP_6_C.:E05TOU  was found in the system file and is referenced.
      No diagnostics issued in procedure QQB$DELIVER.
PL6.E3A0      #001=QQB$DELIVER File=QQB$DELIVER.:E05TSI                          WED 07/30/97 05:29 Page:23

 **** Variables and constants ****

  ****  Section 002  Data  QQB$DELIVER

  ****  Scalars and arrays  ****
OctLoc.c.b A Datatyp(siz) R M Lvl/name                 OctLoc.c.b A Datatyp(siz) R M Lvl/name

     4-0-0/d STRC(1512)  r     1 FPT_FWCG                   0-0-0/c STRC(99)    r     1 TEXTC_NUM
    56-0-0/w STRC(576)   r     1 VLP_CGMA                 100-0-0/w STRC(576)   r     1 VLP_CGMA_REATTR
    76-0-0/d STRC(72)    r     1 VLP_SCGMA                120-0-0/d STRC(72)    r     1 VLP_SCGMA_REATTR
   122-0-0/d STRC(360)   r     1 VLR_FWCG

  ****  Section 003 RoData QQB$DELIVER

  ****  Scalars and arrays  ****
OctLoc.c.b A Datatyp(siz) R M Lvl/name                 OctLoc.c.b A Datatyp(siz) R M Lvl/name

     0-0-0/b STRC        r     1 CODE_NMD                   1-0-0/b STRC        r     1 CODE_NWIP

  ****  Auto variables  ****

  ****  Scalars and arrays  ****
OctLoc.c.b A Datatyp(siz) R M Lvl/name                 OctLoc.c.b A Datatyp(siz) R M Lvl/name

     7-0-0/w STRC(738)   r     1 MSGBLK                     6-0-0/w PTR         r     1 PLACE$
     4-0-0/w UBIN        r     1 POS                        3-0-0/w UBIN        r     1 SIZE
     5-0-0/w PTR         r     1 SPECIFIER$

  ****  SYMREF variables  ****

  ****  Scalars and arrays  ****
OctLoc.c.b A Datatyp(siz) R M Lvl/name                 OctLoc.c.b A Datatyp(siz) R M Lvl/name

     0-0-0/w PTR         r     1 B$TCB$                     0-0-0/w STRC(315)   r     1 QQ_CMDBLK
     0-0-0/d STRC(9090)  r     1 QQ_GLOBAL

  ****  BASED and DCB variables  ****
PL6.E3A0      #001=QQB$DELIVER File=QQB$DELIVER.:E05TSI                          WED 07/30/97 05:29 Page:24

  ****  Scalars and arrays  ****
OctLoc.c.b A Datatyp(siz) R M Lvl/name                 OctLoc.c.b A Datatyp(siz) R M Lvl/name

     0-0-0/w STRC(2448)  r     1 B$ALT                      0-0-0/w STRC(144)   r     1 B$TCB
     0-0-0N  NULL        r     1 M$CG                       0-0-0/w STRC(144)   r     1 OUT$BLK
     0-0-0/w ASTR(153)   r     1 OUT$SYM


   Procedure QQB$DELIVER requires 105 words for executable code.
   Procedure QQB$DELIVER requires 32 words of local(AUTO) storage.

    No errors detected in file QQB$DELIVER.:E05TSI    .
PL6.E3A0      #001=QQB$DELIVER File=QQB$DELIVER.:E05TSI                          WED 07/30/97 05:29 Page:25
          *** CROSS REFERENCE LISTING ***
**     DENOTES     IDENTIFIER DEFINITION
<<                 IDENTIFIER'S VALUE SET
>>                 IDENTIFIER'S VALUE USED
<>                 IDENTIFIER SET AND/OR USED
--                 IDENTIFIER REFERENCED
PL6.E3A0      #001=QQB$DELIVER File=QQB$DELIVER.:E05TSI                          WED 07/30/97 05:29 Page:26
          MINI XREF LISTING

B$ALT.CODE
      5698**DCL      5698--REDEF    5699--REDEF    5699--REDEF
B$ALT.ERR
      5699**DCL      6165>>ASSIGN
B$ALT.ERR.CODE
      5700**DCL      6148>>IF
B$ALT.ERR.ERR#
      5700**DCL      5700--REDEF
B$ALT.EVID
      5699**DCL      5699--REDEF    5699--REDEF
B$TCB.ALT$
      5694**DCL      6148>>IF       6165>>ASSIGN
B$TCB$
      5558**DCL      6148>>IF       6165>>ASSIGN
CODE_NMD
      5878**DCL      6155>>ASSIGN
CODE_NWIP
      5885**DCL      6135>>ASSIGN
FPT_FWCG
      5940**DCL      6143<>CALL
FPT_FWCG.V
      5943**DCL      5940--DCLINIT
FWCG_ERR
      6148**LABEL    6143--CALLALT
M$FWCG
        99**DCL-ENT  6143--CALL
MON_ERR
      6165**LABEL    6150--GOTO
MSGBLK
      5763**DCL      6136<>CALL     6137<>CALL     6156<>CALL     6159<>CALL
MSGBLK.ERRINFO.FIELD1
      5845**DCL      6157<<ASSIGN
PL6.E3A0      #001=QQB$DELIVER File=QQB$DELIVER.:E05TSI                          WED 07/30/97 05:29 Page:27
NO_Q
      6141**LABEL    6133--CALLALT
OUT$BLK.SUBLK$
      5649**DCL      6125>>ASSIGN   6132>>ASSIGN
OUT$SYM.COUNT
      5685**DCL      5688--IMP-SIZ  6133>>CALLBLT  6141>>ASSIGN
OUT$SYM.TEXT
      5688**DCL      6133>>CALLBLT  6141>>ASSIGN
PLACE$
      5733**DCL      6132<<ASSIGN   6133>>CALLBLT  6133>>CALLBLT  6141>>ASSIGN   6141>>ASSIGN
POS
      5730**DCL      6133<<CALLBLT
QQC$BLDMSG
      5456**DCL-ENT  6137--CALL     6159--CALL
QQC$BLDMSG_BLK
      5455**DCL-ENT  6136--CALL     6156--CALL
QQC$CONVERT_NUM
      5458**DCL-ENT  6154--CALL
QQC$EX_SPEC
      5457**DCL-ENT  6127--CALL
QQC$SCREECH
      5459**DCL-ENT  6166--CALL
QQ_CMDBLK.MINOR_ERR
      1711**DCL      6135<<ASSIGN   6155<<ASSIGN
QQ_CMDBLK.OUT$
      1711**DCL      6125>>ASSIGN   6132>>ASSIGN
QQ_GLOBAL.DS1$_BITS
      1722**DCL      1722--REDEF
QQ_GLOBAL.DS2$_BITS
      1722**DCL      1723--REDEF
QQ_GLOBAL.DS3$_BITS
      1723**DCL      1723--REDEF
QQ_GLOBAL.DS4$_BITS
      1723**DCL      1724--REDEF
QQ_GLOBAL.ERR
      1712**DCL      6165<<ASSIGN
PL6.E3A0      #001=QQB$DELIVER File=QQB$DELIVER.:E05TSI                          WED 07/30/97 05:29 Page:28
RET
      6162**LABEL    6127--CALLALT  6138--GOTO
SIZE
      5729**DCL      6154<>CALL     6158>>ASSIGN
SPECIFIER$
      5732**DCL      6125<<ASSIGN   6127<>CALL
TEXTC_NUM
      5760**DCL      6157--ASSIGN
TEXTC_NUM.L#
      5760**DCL      6158<<ASSIGN
TEXTC_NUM.NAME#
      5760**DCL      6154--CALL
VLP_CGMA
      5985**DCL      5940--DCLINIT  6127<>CALL
VLP_CGMA.DEST#
      5993**DCL      6130<<ASSIGN
VLP_CGMA.MSGIDXT
      5994**DCL      5997--REDEF
VLP_CGMA.ORIGIN#
      5990**DCL      6130>>ASSIGN
VLP_CGMA_REATTR
      6029**DCL      5941--DCLINIT
VLP_CGMA_REATTR.DEST#
      6037**DCL      6141<<ASSIGN
VLP_CGMA_REATTR.MSGIDXT
      6038**DCL      6041--REDEF
VLP_SCGMA
      6011**DCL      5941--DCLINIT  6127<>CALL
VLP_SCGMA.DEST#
      6011**DCL      6129<<ASSIGN
VLP_SCGMA_REATTR
      6055**DCL      5942--DCLINIT
VLR_FWCG
      6097**DCL      5942--DCLINIT
VLR_FWCG.FOUND#
      6097**DCL      6154<>CALL
