VERSION E05

PL6.E3A0      #001=QQB$ERSEND File=QQB$ERSEND.:E05TSI                            WED 07/30/97 05:30 Page:1
        1        1        /*M* QQB$ERSEND - ERSEND Command */
        2        2        /*T***********************************************************/
        3        3        /*T*                                                         */
        4        4        /*T* Copyright (c) Bull HN Information Systems Inc., 1997    */
        5        5        /*T*                                                         */
        6        6        /*T***********************************************************/
        7        7        /*X* IND=2, DCI=4, CSU=2, ECU=4, DTI=2, CTI=4, AND */
        8        8        /*P*     NAME:QQB$ERSEND
        9        9                 PURPOSE: QQB$ERSEND processes the ERSEND command. */
       10       10        QQB$ERSEND:
       11       11                PROC;
       12       12        /*P*     NAME:  QQB$ERSEND
       13       13                 PURPOSE: To handle the ERSEND commands.
       14       14                 DESCRIPTION:
       15       15                 REFERENCE: See the TP ADMINISTRATOR GUIDE for a description
       16       16                            of the command. */
       17       17        %INCLUDE Q_PAGE_C;
       18       49        %SET LISTEXP = '1'B;
       19       50        %PAGE(ARG="Includes");

                67        /***************************************************************************
                68         *                                                                         *
                69         *                                  Includes                               *
                70         *                                                                         *
                71         ***************************************************************************/

       20       75        %INCLUDE XU_MACRO_C;
       21     3181        %INCLUDE QQ_SUBS_C;
       22     3373        %INCLUDE CP_6;
       23     3454        %INCLUDE QQ_MACROS_C;
       24     3879        %INCLUDE QQ_DATA_R;
       25     4125        %INCLUDE Q_ERRCODE_C;
       26     4148        %INCLUDE QQ_PERR_C;
       27     4309        %PAGE(ARG="Externally defined routines");

              4326    1   /***************************************************************************
              4327    1    *                                                                         *
PL6.E3A0      #001=QQB$ERSEND File=QQB$ERSEND.:E05TSI                            WED 07/30/97 05:30 Page:2
              4328    1    *                        Externally defined routines                      *
              4329    1    *                                                                         *
              4330    1    ***************************************************************************/

       28     4334    1   DCL QQC$BLDMSG_ERRBLK ENTRY(1);
       29     4335    1   DCL QQC$BLDMSG ENTRY(1);
       30     4336        %PARSE$SYM(STCLASS=BASED);
       31     4374        %PARSE$OUT(STCLASS=BASED);
       32     4419    1   DCL CHAR$STRING CHAR(CHAR_STRING_SIZE) BASED;
       33     4420        %PAGE(ARG="Static");

              4437    1   /***************************************************************************
              4438    1    *                                                                         *
              4439    1    *                                   Static                                *
              4440    1    *                                                                         *
              4441    1    ***************************************************************************/

       34     4445        %PAGE(ARG="Auto");

              4462    1   /***************************************************************************
              4463    1    *                                                                         *
              4464    1    *                                    Auto                                 *
              4465    1    *                                                                         *
              4466    1    ***************************************************************************/

       35     4470    1   DCL SUBLK$ PTR;
       36     4471    1   DCL TEXT$ PTR;
       37     4472
       38     4473    1   DCL CHAR_STRING_SIZE UBIN WORD;
       39     4474    1   DCL MSG CHAR(100);
       40     4475    1   DCL POS UBIN;
       41     4476        %MSGBLK;
       42     4566        %PAGE(ARG="Error codes", PAGE=YES);

PL6.E3A0      #001=QQB$ERSEND File=QQB$ERSEND.:E05TSI                            WED 07/30/97 05:30 Page:3
              4583    1   /***************************************************************************
              4584    1    *                                                                         *
              4585    1    *                                Error codes                              *
              4586    1    *                                                                         *
              4587    1    ***************************************************************************/

       43     4591        %PAGE(ARG="QQB$ERSEND", PAGE=YES);

PL6.E3A0      #001=QQB$ERSEND File=QQB$ERSEND.:E05TSI                            WED 07/30/97 05:30 Page:4
              4608    1   /***************************************************************************
              4609    1    *                                                                         *
              4610    1    *                                 QQB$ERSEND                              *
              4611    1    *                                                                         *
              4612    1    ***************************************************************************/

       44     4616
       45     4617
       46     4618    1           SUBLK$ = QQ_CMDBLK.OUT$ -> OUT$BLK.SUBLK$(0);
       47     4619    1           CHAR_STRING_SIZE = SUBLK$->OUT$SYM.COUNT;
       48     4620    1           TEXT$ = ADDR(SUBLK$->OUT$SYM.TEXT);
       49     4621    1           CALL QQC$BLDMSG_ERRBLK(MSGBLK);
       50     4622    1           MSGBLK.TEXT$ = ADDR(MSG);
       51     4623    1           MSG = 'ERSEND:';
       52     4624    1           MSGBLK.ARS =  8;
       53     4625    2           IF CHAR_STRING_SIZE ~= 0 THEN DO;
       54     4626    2               PINCRC(ADDR(MSG),8)->CHAR$STRING = TEXT$->CHAR$STRING;
       55     4627    2               MSGBLK.ARS = MSGBLK.ARS + CHAR_STRING_SIZE;
       56     4628    2             END;
       57     4629    1           MSGBLK.ERRINFO.ERR(0) = '0'B;
       58     4630    1           MSGBLK.FLAGS.DEST.DODCB = '1'B;
       59     4631    1           MSGBLK.FLAGS.DEST.MCT = '0'B;
       60     4632    1           MSGBLK.FLAGS.DEST.STATION = '0'B;
       61     4633    1           CALL QQC$BLDMSG(MSGBLK);
       62     4634    1           RETURN;
       63     4635
       64     4636    1   END QQB$ERSEND;

PL6.E3A0      #001=QQB$ERSEND File=QQB$ERSEND.:E05TSI                            WED 07/30/97 05:30 Page:5
--  Include file information  --

   QQ_PERR_C.:E05TOU  is referenced.
   Q_ERRCODE_C.:E05TOU  is referenced.
   QQ_DATA_R.:E05TOU  cannot be made into a system file and is referenced.
   QQ_MACROS_C.:E05TOU  is referenced.
   CP_6.:E05TOU  cannot be made into a system file and is referenced.
   QQ_SUBS_C.:E05TOU  is referenced.
   XU_MACRO_C.:E05TOU  is referenced.
   Q_PAGE_C.:E05TOU  is referenced.
   B$JIT_C.:E05TOU  was found in the system file and is never referenced.
   CP_6_C.:E05TOU  was found in the system file and is referenced.
      No diagnostics issued in procedure QQB$ERSEND.

   Procedure QQB$ERSEND requires 52 words for executable code.
   Procedure QQB$ERSEND requires 56 words of local(AUTO) storage.

    No errors detected in file QQB$ERSEND.:E05TSI    .

PL6.E3A0      #001=QQB$ERSEND File=QQB$ERSEND.:E05TSI                            WED 07/30/97 05:30 Page:6

 Object Unit name= QQB$ERSEND                                 File name= QQB$ERSEND.:E05TOU
 UTS= JUL 30 '97 05:30:23.12 WED                              Compiler= PL-6/E31         Sev=      00
 SharedLib= :SHARED_SYSTEM                                    Alt SharedLib=


    ****  Control sections  ****

 Sect   Type Bound  Init  Size OctSiz  Section name(segment info)
    0   DCB   even  none     0      0  M$UC
    1  RoData even  UTS      2      2  QQB$ERSEND
    2   Proc  even  none    52     64  QQB$ERSEND
    3  RoData even  none     3      3  QQB$ERSEND

    ****  Entry defs  ****

                              Check   Calling
                             calling  sequence
  Sect OctLoc Primary Altret sequence   type   Parms  Name
     2      0   yes            yes      Std        0  QQB$ERSEND

  ****  Entry refs  ****

         Check        Calling
        calling       sequence
Altret sequence SRef   type   Args  Name
         yes           Std       1 QQC$BLDMSG_ERRBLK
         yes           Std       1 QQC$BLDMSG
                       nStd      0 X66_AUTO_0
                       Std       0 B_CONSPOOL_D
                       nStd      0 X66_ARET

  ****  Data refs  ****

  Flags:  r = read only, s = secondary
Flgs Name                             Flgs Name                             Flgs Name
     M$UC                                  QQ_CMDBLK                             B_VECTNIL
PL6.E3A0      #001=QQB$ERSEND File=QQB$ERSEND.:E05TSI                            WED 07/30/97 05:30 Page:7


        1        1        /*M* QQB$ERSEND - ERSEND Command */
        2        2        /*T***********************************************************/
        3        3        /*T*                                                         */
        4        4        /*T* Copyright (c) Bull HN Information Systems Inc., 1997    */
        5        5        /*T*                                                         */
        6        6        /*T***********************************************************/
        7        7        /*X* IND=2, DCI=4, CSU=2, ECU=4, DTI=2, CTI=4, AND */
        8        8        /*P*     NAME:QQB$ERSEND
        9        9                 PURPOSE: QQB$ERSEND processes the ERSEND command. */
       10       10        QQB$ERSEND:
       11       11                PROC;

     11  2 000000   000000 700200 xent  QQB$ERSEND   TSX0  ! X66_AUTO_0
         2 000001   000070 000000                    ZERO    56,0

       12       12        /*P*     NAME:  QQB$ERSEND
       13       13                 PURPOSE: To handle the ERSEND commands.
       14       14                 DESCRIPTION:
       15       15                 REFERENCE: See the TP ADMINISTRATOR GUIDE for a description
       16       16                            of the command. */
       17       17        %INCLUDE Q_PAGE_C;
       18       49        %SET LISTEXP = '1'B;
       19       50        %PAGE(ARG="Includes");

                67        /***************************************************************************
                68         *                                                                         *
                69         *                                  Includes                               *
                70         *                                                                         *
                71         ***************************************************************************/

       20       75        %INCLUDE XU_MACRO_C;
       21     3181        %INCLUDE QQ_SUBS_C;
       22     3373        %INCLUDE CP_6;
       23     3454        %INCLUDE QQ_MACROS_C;
       24     3879        %INCLUDE QQ_DATA_R;
       25     4125        %INCLUDE Q_ERRCODE_C;
PL6.E3A0      #001=QQB$ERSEND File=QQB$ERSEND.:E05TSI                            WED 07/30/97 05:30 Page:8
       26     4148        %INCLUDE QQ_PERR_C;
       27     4309        %PAGE(ARG="Externally defined routines");

              4326    1   /***************************************************************************
              4327    1    *                                                                         *
              4328    1    *                        Externally defined routines                      *
              4329    1    *                                                                         *
              4330    1    ***************************************************************************/

       28     4334    1   DCL QQC$BLDMSG_ERRBLK ENTRY(1);
       29     4335    1   DCL QQC$BLDMSG ENTRY(1);
       30     4336        %PARSE$SYM(STCLASS=BASED);
       31     4374        %PARSE$OUT(STCLASS=BASED);
       32     4419    1   DCL CHAR$STRING CHAR(CHAR_STRING_SIZE) BASED;
       33     4420        %PAGE(ARG="Static");

              4437    1   /***************************************************************************
              4438    1    *                                                                         *
              4439    1    *                                   Static                                *
              4440    1    *                                                                         *
              4441    1    ***************************************************************************/

       34     4445        %PAGE(ARG="Auto");

              4462    1   /***************************************************************************
              4463    1    *                                                                         *
              4464    1    *                                    Auto                                 *
              4465    1    *                                                                         *
              4466    1    ***************************************************************************/

       35     4470    1   DCL SUBLK$ PTR;
       36     4471    1   DCL TEXT$ PTR;
       37     4472
       38     4473    1   DCL CHAR_STRING_SIZE UBIN WORD;
       39     4474    1   DCL MSG CHAR(100);
       40     4475    1   DCL POS UBIN;
       41     4476        %MSGBLK;
PL6.E3A0      #001=QQB$ERSEND File=QQB$ERSEND.:E05TSI                            WED 07/30/97 05:30 Page:9
       42     4566        %PAGE(ARG="Error codes", PAGE=YES);

PL6.E3A0      #001=QQB$ERSEND File=QQB$ERSEND.:E05TSI                            WED 07/30/97 05:30 Page:10
              4583    1   /***************************************************************************
              4584    1    *                                                                         *
              4585    1    *                                Error codes                              *
              4586    1    *                                                                         *
              4587    1    ***************************************************************************/

       43     4591        %PAGE(ARG="QQB$ERSEND", PAGE=YES);

PL6.E3A0      #001=QQB$ERSEND File=QQB$ERSEND.:E05TSI                            WED 07/30/97 05:30 Page:11
              4608    1   /***************************************************************************
              4609    1    *                                                                         *
              4610    1    *                                 QQB$ERSEND                              *
              4611    1    *                                                                         *
              4612    1    ***************************************************************************/

       44     4616
       45     4617
       46     4618    1           SUBLK$ = QQ_CMDBLK.OUT$ -> OUT$BLK.SUBLK$(0);

   4618  2 000002   000005 470400 xsym               LDP0    QQ_CMDBLK+5
         2 000003   000003 236100                    LDQ     3,,PR0
         2 000004   200003 756100                    STQ     SUBLK$,,AUTO

       47     4619    1           CHAR_STRING_SIZE = SUBLK$->OUT$SYM.COUNT;

   4619  2 000005   200003 471500                    LDP1    SUBLK$,,AUTO
         2 000006   100004 236100                    LDQ     4,,PR1
         2 000007   000033 772000                    QRL     27
         2 000010   200005 756100                    STQ     CHAR_STRING_SIZE,,AUTO

       48     4620    1           TEXT$ = ADDR(SUBLK$->OUT$SYM.TEXT);

   4620  2 000011   200003 236100                    LDQ     SUBLK$,,AUTO
         2 000012   000000 036000 3                  ADLQ    0
         2 000013   200004 756100                    STQ     TEXT$,,AUTO

       49     4621    1           CALL QQC$BLDMSG_ERRBLK(MSGBLK);

   4621  2 000014   200040 633500                    EPPR3   MSGBLK,,AUTO
         2 000015   200066 453500                    STP3    MSGBLK+22,,AUTO
         2 000016   200066 630500                    EPPR0   MSGBLK+22,,AUTO
         2 000017   000017 631400 xsym               EPPR1   B_VECTNIL+15
         2 000020   000000 701000 xent               TSX1    QQC$BLDMSG_ERRBLK
         2 000021   000000 011000                    NOP     0

       50     4622    1           MSGBLK.TEXT$ = ADDR(MSG);
PL6.E3A0      #001=QQB$ERSEND File=QQB$ERSEND.:E05TSI                            WED 07/30/97 05:30 Page:12

   4622  2 000022   200006 630500                    EPPR0   MSG,,AUTO
         2 000023   200045 450500                    STP0    MSGBLK+5,,AUTO

       51     4623    1           MSG = 'ERSEND:';

   4623  2 000024   040100 100400                    MLR     fill='040'O
         2 000025   000000 000007 1                  ADSC9   0                        cn=0,n=7
         2 000026   200006 000144                    ADSC9   MSG,,AUTO                cn=0,n=100

       52     4624    1           MSGBLK.ARS =  8;

   4624  2 000027   000010 220003                    LDX0    8,DU
         2 000030   200043 740100                    STX0    MSGBLK+3,,AUTO

       53     4625    2           IF CHAR_STRING_SIZE ~= 0 THEN DO;

   4625  2 000031   200005 235100                    LDA     CHAR_STRING_SIZE,,AUTO
         2 000032   000046 600000 2                  TZE     s:4629

       54     4626    2               PINCRC(ADDR(MSG),8)->CHAR$STRING = TEXT$->CHAR$STRING;

   4626  2 000033   200004 471500                    LDP1    TEXT$,,AUTO
         2 000034   000000 621005                    EAX1    0,AL
         2 000035   200005 722100                    LXL2    CHAR_STRING_SIZE,,AUTO
         2 000036   040140 100540                    MLR     fill='040'O
         2 000037   100000 000011                    ADSC9   0,,PR1                   cn=0,n=*X1
         2 000040   200010 000012                    ADSC9   MSG+2,,AUTO              cn=0,n=*X2

       55     4627    2               MSGBLK.ARS = MSGBLK.ARS + CHAR_STRING_SIZE;

   4627  2 000041   200043 236100                    LDQ     MSGBLK+3,,AUTO
         2 000042   000022 772000                    QRL     18
         2 000043   200005 036100                    ADLQ    CHAR_STRING_SIZE,,AUTO
         2 000044   000000 621006                    EAX1    0,QL
         2 000045   200043 741100                    STX1    MSGBLK+3,,AUTO

PL6.E3A0      #001=QQB$ERSEND File=QQB$ERSEND.:E05TSI                            WED 07/30/97 05:30 Page:13
       56     4628    2             END;

       57     4629    1           MSGBLK.ERRINFO.ERR(0) = '0'B;

   4629  2 000046   200046 450100                    STZ     MSGBLK+6,,AUTO

       58     4630    1           MSGBLK.FLAGS.DEST.DODCB = '1'B;

   4630  2 000047   000010 236003                    LDQ     8,DU
         2 000050   200042 256100                    ORSQ    MSGBLK+2,,AUTO

       59     4631    1           MSGBLK.FLAGS.DEST.MCT = '0'B;

   4631  2 000051   000001 236000 3                  LDQ     1
         2 000052   200042 356100                    ANSQ    MSGBLK+2,,AUTO

       60     4632    1           MSGBLK.FLAGS.DEST.STATION = '0'B;

   4632  2 000053   000002 236000 3                  LDQ     2
         2 000054   200042 356100                    ANSQ    MSGBLK+2,,AUTO

       61     4633    1           CALL QQC$BLDMSG(MSGBLK);

   4633  2 000055   200040 630500                    EPPR0   MSGBLK,,AUTO
         2 000056   200066 450500                    STP0    MSGBLK+22,,AUTO
         2 000057   200066 630500                    EPPR0   MSGBLK+22,,AUTO
         2 000060   000017 631400 xsym               EPPR1   B_VECTNIL+15
         2 000061   000000 701000 xent               TSX1    QQC$BLDMSG
         2 000062   000000 011000                    NOP     0

       62     4634    1           RETURN;

   4634  2 000063   000000 702200 xent               TSX2  ! X66_ARET
       63     4635
       64     4636    1   END QQB$ERSEND;

PL6.E3A0      #001=QQB$ERSEND File=QQB$ERSEND.:E05TSI                            WED 07/30/97 05:30 Page:14
--  Include file information  --

   QQ_PERR_C.:E05TOU  is referenced.
   Q_ERRCODE_C.:E05TOU  is referenced.
   QQ_DATA_R.:E05TOU  cannot be made into a system file and is referenced.
   QQ_MACROS_C.:E05TOU  is referenced.
   CP_6.:E05TOU  cannot be made into a system file and is referenced.
   QQ_SUBS_C.:E05TOU  is referenced.
   XU_MACRO_C.:E05TOU  is referenced.
   Q_PAGE_C.:E05TOU  is referenced.
   B$JIT_C.:E05TOU  was found in the system file and is never referenced.
   CP_6_C.:E05TOU  was found in the system file and is referenced.
      No diagnostics issued in procedure QQB$ERSEND.
PL6.E3A0      #001=QQB$ERSEND File=QQB$ERSEND.:E05TSI                            WED 07/30/97 05:30 Page:15

 **** Variables and constants ****

  ****  Auto variables  ****

  ****  Scalars and arrays  ****
OctLoc.c.b A Datatyp(siz) R M Lvl/name                 OctLoc.c.b A Datatyp(siz) R M Lvl/name

     5-0-0/w UBIN        r     1 CHAR_STRING_SIZE           6-0-0/c CHAR(100)   r     1 MSG
    40-0-0/w STRC(738)   r     1 MSGBLK                     3-0-0/w PTR         r     1 SUBLK$
     4-0-0/w PTR         r     1 TEXT$

  ****  SYMREF variables  ****

  ****  Scalars and arrays  ****
OctLoc.c.b A Datatyp(siz) R M Lvl/name                 OctLoc.c.b A Datatyp(siz) R M Lvl/name

     0-0-0/w STRC(315)   r     1 QQ_CMDBLK

  ****  BASED and DCB variables  ****

  ****  Scalars and arrays  ****
OctLoc.c.b A Datatyp(siz) R M Lvl/name                 OctLoc.c.b A Datatyp(siz) R M Lvl/name

     0-0-0/c ACHR        r     1 CHAR$STRING                0-0-0/w STRC(144)   r     1 OUT$BLK
     0-0-0/w ASTR(153)   r     1 OUT$SYM


   Procedure QQB$ERSEND requires 52 words for executable code.
   Procedure QQB$ERSEND requires 56 words of local(AUTO) storage.

    No errors detected in file QQB$ERSEND.:E05TSI    .
PL6.E3A0      #001=QQB$ERSEND File=QQB$ERSEND.:E05TSI                            WED 07/30/97 05:30 Page:16
          *** CROSS REFERENCE LISTING ***
**     DENOTES     IDENTIFIER DEFINITION
<<                 IDENTIFIER'S VALUE SET
>>                 IDENTIFIER'S VALUE USED
<>                 IDENTIFIER SET AND/OR USED
--                 IDENTIFIER REFERENCED
PL6.E3A0      #001=QQB$ERSEND File=QQB$ERSEND.:E05TSI                            WED 07/30/97 05:30 Page:17
          MINI XREF LISTING

CHAR$STRING
      4419**DCL      4626<<ASSIGN   4626>>ASSIGN
CHAR_STRING_SIZE
      4473**DCL      4419--IMP-SIZ  4619<<ASSIGN   4625>>IF       4626>>ASSIGN   4626>>ASSIGN   4627>>ASSIGN
MSG
      4474**DCL      4622--ASSIGN   4623<<ASSIGN   4626--ASSIGN
MSGBLK
      4477**DCL      4621<>CALL     4633<>CALL
MSGBLK.ARS
      4544**DCL      4624<<ASSIGN   4627<<ASSIGN   4627>>ASSIGN
MSGBLK.ERRINFO.ERR
      4555**DCL      4629<<ASSIGN
MSGBLK.FLAGS.DEST.DODCB
      4525**DCL      4630<<ASSIGN
MSGBLK.FLAGS.DEST.MCT
      4523**DCL      4631<<ASSIGN
MSGBLK.FLAGS.DEST.STATION
      4519**DCL      4632<<ASSIGN
MSGBLK.TEXT$
      4551**DCL      4622<<ASSIGN
OUT$BLK.SUBLK$
      4413**DCL      4618>>ASSIGN
OUT$SYM.COUNT
      4366**DCL      4369--IMP-SIZ  4619>>ASSIGN
OUT$SYM.TEXT
      4369**DCL      4620--ASSIGN
QQC$BLDMSG
      4335**DCL-ENT  4633--CALL
QQC$BLDMSG_ERRBLK
      4334**DCL-ENT  4621--CALL
QQ_CMDBLK.OUT$
      3888**DCL      4618>>ASSIGN
PL6.E3A0      #001=QQB$ERSEND File=QQB$ERSEND.:E05TSI                            WED 07/30/97 05:30 Page:18
QQ_GLOBAL.DS1$_BITS
      3899**DCL      3899--REDEF
QQ_GLOBAL.DS2$_BITS
      3899**DCL      3900--REDEF
QQ_GLOBAL.DS3$_BITS
      3900**DCL      3900--REDEF
QQ_GLOBAL.DS4$_BITS
      3900**DCL      3901--REDEF
SUBLK$
      4470**DCL      4618<<ASSIGN   4619>>ASSIGN   4620>>ASSIGN
TEXT$
      4471**DCL      4620<<ASSIGN   4626>>ASSIGN
