VERSION E05

PL6.E3A0      #001=QQB$HELP File=QQB$HELP.:E05TSI                                WED 07/30/97 05:30 Page:1
        1        1        /*M* QQB$HELP - Perform  HELP ? ??  commands */
        2        2        /*T***********************************************************/
        3        3        /*T*                                                         */
        4        4        /*T* Copyright (c) Bull HN Information Systems Inc., 1997    */
        5        5        /*T*                                                         */
        6        6        /*T***********************************************************/
        7        7        /*X* IND=2, DCI=4, CSU=2, ECU=4, DTI=2, CTI=4, AND */
        8        8        QQB$HELP:
        9        9                PROC;
       10       10
       11       11        %INCLUDE Q_PAGE_C;
       12       43        %SET LISTEXP = '1'B;
       13       44        %PAGE(ARG="Includes");

                61        /***************************************************************************
                62         *                                                                         *
                63         *                                  Includes                               *
                64         *                                                                         *
                65         ***************************************************************************/

       14       69        %INCLUDE B_ERRORS_C;
       15     1196        %INCLUDE B$JIT;
       16     1486        %INCLUDE B_MACROS_C;
       17     1597        %INCLUDE CP_6;
       18     1678        %INCLUDE CP_6_SUBS;
       19     2218        %INCLUDE Q_ERRCODE_C;
       20     2241        %INCLUDE QQ_PERR_C;
       21     2402        %INCLUDE QQ_MACROS_C;
       22     2827        %INCLUDE QQ_DATA_R;
       23     3073        %INCLUDE QQ_SUBS_C;
       24     3265        %INCLUDE XUH_MACRO_C;
       25     3349        %INCLUDE XU_MACRO_C;
       26     6455        %INCLUDE XU_FORMAT_C;
       27     6617        %INCLUDE XUH_PERR_C;
       28     6631        %PAGE(ARG="Externally defined routines",PAGE=YES);

PL6.E3A0      #001=QQB$HELP File=QQB$HELP.:E05TSI                                WED 07/30/97 05:30 Page:2
              6648    1   /***************************************************************************
              6649    1    *                                                                         *
              6650    1    *                        Externally defined routines                      *
              6651    1    *                                                                         *
              6652    1    ***************************************************************************/

       29     6656    1   DCL QQC$BLDMSG ENTRY(1);
       30     6657    1   DCL QQC$BLDMSG_BLK ENTRY(1);
       31     6658    1   DCL X$FORMAT ENTRY(1);
       32     6659    1   DCL QQC$PRINT_FMT ENTRY(2) ALTRET;
       33     6660        %PAGE(ARG="FPTs");

              6677    1   /***************************************************************************
              6678    1    *                                                                         *
              6679    1    *                                    FPTs                                 *
              6680    1    *                                                                         *
              6681    1    ***************************************************************************/

       34     6685        %FPT_OPEN (FPTN=FPT_OPEN,STCLASS=CONSTANT,ACS=DIRECT,ASN=FILE,
       35     6686                        DISP=SCRATCH,DCB=M$THLP,FUN=CREATE,ORG=KEYED);
       36     6795        %FPT_READ (FPTN=FPT_READ,STCLASS=CONSTANT,DCB=M$THLP,BUF=HELP_DATA,
       37     6796                       KEYS=YES,KEY=HELP_STATION);
       38     6835        %FPT_WRITE (FPTN=FPT_WRITE,STCLASS=CONSTANT,DCB=M$THLP,BUF=HELP_DATA,
       39     6836                       NEWKEY=YES,KEY=HELP_STATION,ONEWKEY=YES);
       40     6867        %FPT_FID (FPTN=FPT_FID,STCLASS=AUTO);
       41     6890        %FPT_FID (FPTN=CFPT_FID,STCLASS=CONSTANT);
       42     6913        %FPT_HELP (FPTN=FPT_HELP,STCLASS=AUTO);
       43     6934        %FPT_HELP (FPTN=CFPT_HELP,STCLASS=CONSTANT);
       44     6955        %PAGE(ARG="VLPs",PAGE=YES);

PL6.E3A0      #001=QQB$HELP File=QQB$HELP.:E05TSI                                WED 07/30/97 05:30 Page:3
              6972    1   /***************************************************************************
              6973    1    *                                                                         *
              6974    1    *                                    VLPs                                 *
              6975    1    *                                                                         *
              6976    1    ***************************************************************************/

       45     6980        %VLP_NAME (FPTN=FID_NAME,LEN=31,STCLASS=AUTO);
       46     7007        %VLP_ACCT (FPTN=FID_ACCT,STCLASS=AUTO);
       47     7020        %VLP_PASS (FPTN=FID_PASS,STCLASS=AUTO);
       48     7033        %VLP_WSN (FPTN=FID_WSN,STCLASS=AUTO);
       49     7046        %VLP_SN (FPTN=FID_SN,N=3,STCLASS=AUTO);
       50     7059        %VLP_NAME (FPTN=KEYWORD1,LEN=31,STCLASS=AUTO);
       51     7086        %VLP_NAME (FPTN=KEYWORD2,LEN=31,STCLASS=AUTO);
       52     7113
       53     7114        %VLP_NAME (FPTN=VLP$NAME,LEN=31,STCLASS=BASED);
       54     7141        %VLP_ACCT (FPTN=VLP$ACCT,STCLASS=BASED);
       55     7154        %VLP_PASS (FPTN=VLP$PASS,STCLASS=BASED);
       56     7167        %PAGE(ARG="VLRs");

              7184    1   /***************************************************************************
              7185    1    *                                                                         *
              7186    1    *                                    VLRs                                 *
              7187    1    *                                                                         *
              7188    1    ***************************************************************************/

       57     7192        %VLR_FID (FPTN=FID_RESULTS,STCLASS=AUTO);
       58     7211        %VLR_HELP (FPTN=HELP_RESULTS,STCLASS=AUTO);
       59     7240        %PAGE(ARG="Static");

              7257    1   /***************************************************************************
              7258    1    *                                                                         *
              7259    1    *                                   Static                                *
              7260    1    *                                                                         *
              7261    1    ***************************************************************************/

       60     7265        %F_FDS(FMT=FORMAT, OUTPUT=QQC$PRINT_FMT, DVFC=' ');
       61     7378        %XUH_PARAM;
PL6.E3A0      #001=QQB$HELP File=QQB$HELP.:E05TSI                                WED 07/30/97 05:30 Page:4
       62     7439    1   DCL NOMSG BIT(1) STATIC ALIGNED INIT('0'B); /*  QUEST after no such topic     */
       63     7440    1   DCL 1 HELP_STATION STATIC              ,/*  Current help station              */
       64     7441    1         2 * UBIN BYTE UNAL INIT(8),
       65     7442    1         2 NAME# CHAR(8) INIT(' ');
       66     7443    1   DCL  HELP_DATA CHAR(233) STATIC ;       /* temporary help area                */
       67     7444    1   DCL 1 HELP_DATA_R REDEF HELP_DATA,
       68     7445    1         2 XUH_DATA CHAR(232),
       69     7446    1         2 NOMSG_DATA CALIGNED,
       70     7447    1           3 NOMSG_VALUE BIT(1) UNAL,
       71     7448    1           3 * BIT(8) UNAL;
       72     7449        %PAGE(ARG="Auto");

              7466    1   /***************************************************************************
              7467    1    *                                                                         *
              7468    1    *                                    Auto                                 *
              7469    1    *                                                                         *
              7470    1    ***************************************************************************/

       73     7474    1   DCL BUF CHAR(80);
       74     7475    1   DCL BUFFER (0:200) CHAR(79) AUTO;
       75     7476
       76     7477    1   DCL INDX SBIN WORD AUTO;
       77     7478    1   DCL FID_ASN UBIN(9) AUTO;
       78     7479    1   DCL FID_RES CHAR(4) AUTO;
       79     7480
       80     7481    1   DCL P$ PTR AUTO;
       81     7482
       82     7483    1   DCL 1  DATA_VECTORS ALIGNED AUTO,
       83     7484    1         2  JUNK UBIN WORD,
       84     7485    1         2  PTR$ PTR;
       85     7486        %MSGBLK;
       86     7576        %PAGE(ARG="Based");

              7593    1   /***************************************************************************
              7594    1    *                                                                         *
              7595    1    *                                   Based                                 *
              7596    1    *                                                                         *
PL6.E3A0      #001=QQB$HELP File=QQB$HELP.:E05TSI                                WED 07/30/97 05:30 Page:5
              7597    1    ***************************************************************************/

       87     7601        %PARSE$OUT (STCLASS=BASED);
       88     7646        %PARSE$SYM (STCLASS=BASED);
       89     7684        %B$TCB (STCLASS="BASED(B$TCB$)");
       90     7687        %F$DCB;
       91     7744        %B$ALT;
       92     7752        %TEXTC (NAME=X$STRING,STCLASS=BASED);
       93     7757        %TP$STATION;
       94     7830        %PAGE(ARG="Constants",PAGE=YES);

PL6.E3A0      #001=QQB$HELP File=QQB$HELP.:E05TSI                                WED 07/30/97 05:30 Page:6
              7847    1   /***************************************************************************
              7848    1    *                                                                         *
              7849    1    *                                 Constants                               *
              7850    1    *                                                                         *
              7851    1    ***************************************************************************/

       95     7855    1   DCL 1 FORMAT CHAR(0) CONSTANT INIT('%A');
       96     7856        %XUH_PARAM (NAME=CXUH_PARAM,STCLASS=CONSTANT);
       97     7917        %PAGE(ARG="Symrefs");

              7934    1   /***************************************************************************
              7935    1    *                                                                         *
              7936    1    *                                  Symrefs                                *
              7937    1    *                                                                         *
              7938    1    ***************************************************************************/

       98     7942    1   DCL B$JIT$ PTR SYMREF READONLY;
       99     7943    1   DCL B$TCB$ PTR SYMREF READONLY;
      100     7944        %PAGE(ARG="Error codes",PAGE=YES);

PL6.E3A0      #001=QQB$HELP File=QQB$HELP.:E05TSI                                WED 07/30/97 05:30 Page:7
              7961    1   /***************************************************************************
              7962    1    *                                                                         *
              7963    1    *                                Error codes                              *
              7964    1    *                                                                         *
              7965    1    ***************************************************************************/

      101     7969        %PAGE(ARG="DCBs",PAGE=YES);

PL6.E3A0      #001=QQB$HELP File=QQB$HELP.:E05TSI                                WED 07/30/97 05:30 Page:8
              7986    1   /***************************************************************************
              7987    1    *                                                                         *
              7988    1    *                                    DCBs                                 *
              7989    1    *                                                                         *
              7990    1    ***************************************************************************/

      102     7994    1   DCL M$THLP DCB;
      103     7995        %ERRCODE(NAME=CODE_NOMORE, CODE#=%E$NOMORE, FCG#=%FCG_QQ, MID#=%MID_B);
      104     8002        %ERRCODE(NAME=CODE_BAD_FID,CODE#=%E$BAD_FID, FCG#=%FCG_QQ, MID#=%MID_B);
      105     8009        %ERRCODE(NAME=CODE_NOHELP, CODE#=%E$NOHELP, FCG#=%FCG_QQ, MID#=%MID_B);
      106     8016        %ERRCODE(NAME=CODE_UNKNOWN,CODE#=%E$UNKNOWN, FCG#=%FCG_QQ, MID#=%MID_B);
      107     8023        %ERRCODE(NAME=CODE_NOHTOPIC,CODE#=%E$NOHTOPIC, FCG#=%FCG_QQ, MID#=%MID_B);
      108     8030        %ERRCODE(NAME=CODE_BADCOMMAND,CODE#=%E$BADCOMMAND, FCG#=%FCG_QQ, MID#=%MID_B);
      109     8037        %ERRCODE(NAME=CODE_HELP_POST,CODE#=%E$HELP_POST, FCG#=%FCG_QQ, MID#=%MID_B);
      110     8044        /*E*       ERROR: QQB-E$NOMORE-C
      111     8045
      112     8046                 MESSAGE: End of topic.
      113     8047             DESCRIPTION: There is no more information on that topic
      114     8048                          available.
      115     8049        */
      116     8050        /*E*       ERROR: QQB-E$BAD_FID-C
      117     8051
      118     8052                 MESSAGE: It is not a valid Fid.
      119     8053             DESCRIPTION: It is not a valid Fid.
      120     8054        */
      121     8055        /*E*       ERROR: QQB-E$NOHELP-C
      122     8056
      123     8057                 MESSAGE: No help is available for that processor.
      124     8058             DESCRIPTION: No help is available for that processor.
      125     8059        */
      126     8060        /*E*       ERROR: QQB-E$UNKNOWN-C
      127     8061
      128     8062                 MESSAGE: It is an unknown topic.
      129     8063             DESCRIPTION: It is an unknown topic.
      130     8064        */
      131     8065        /*E*       ERROR: QQB-E$NOHTOPIC-C
      132     8066
PL6.E3A0      #001=QQB$HELP File=QQB$HELP.:E05TSI                                WED 07/30/97 05:30 Page:9
      133     8067                 MESSAGE: No such topic...
      134     8068                          Type ? for list of available topics.
      135     8069             DESCRIPTION: It is an unknown topic.
      136     8070        */
      137     8071        /*E*       ERROR: QQB-E$BADCOMMAND-C
      138     8072
      139     8073                 MESSAGE: No such command.
      140     8074                          Type HELP for help syntax.
      141     8075             DESCRIPTION: It is an unknown command.
      142     8076        */
      143     8077        /*E*       ERROR: QQB-E$HELP_POST-C
      144     8078
      145     8079                 MESSAGE: No help context for station.
      146     8080                          Re-issue help command.
      147     8081             DESCRIPTION: Problems accessing the temporary
      148     8082                          help file.
      149     8083        */
      150     8084        %PAGE(ARG="QQB$HELP",PAGE=YES);

PL6.E3A0      #001=QQB$HELP File=QQB$HELP.:E05TSI                                WED 07/30/97 05:30 Page:10
              8101    1   /***************************************************************************
              8102    1    *                                                                         *
              8103    1    *                                  QQB$HELP                               *
              8104    1    *                                                                         *
              8105    1    ***************************************************************************/

      151     8109    1           FPT_HELP = CFPT_HELP;
      152     8110    1           FPT_HELP.V_ = VECTOR(FPT_HELP.V);
      153     8111    1           FPT_HELP.BUF_ = VECTOR(BUFFER);
      154     8112    1           FPT_HELP.RESULTS_ = VECTOR(HELP_RESULTS);
      155     8113    1           FPT_HELP.V.OUTDCB1# = XUH_PARAM.OUTDCB1#;
      156     8114    1           FPT_HELP.V.OUTDCB2# = XUH_PARAM.OUTDCB2#;
      157     8115
      158     8116    1           HELP_RESULTS = '0'B;
      159     8117    1           KEYWORD1.L# = 0;
      160     8118    1           KEYWORD1.NAME# = ' ';
      161     8119    1           KEYWORD2.L# = 0;
      162     8120    1           KEYWORD2.NAME# = ' ';
      163     8121
      164     8122    1           IF QQ_GLOBAL.HELP_S$ = ADDR(NIL) THEN
      165     8123    2             DO;
      166     8124    2               XUH_PARAM = CXUH_PARAM;
      167     8125    2               QQ_GLOBAL.HELP_S$ = QQ_CMDBLK.S$;
      168     8126    2               HELP_STATION.NAME# = QQ_GLOBAL.HELP_S$->TP$STATION.ID;
      169     8127    2             END;
      170     8128    1           ELSE
      171     8129    1             IF QQ_CMDBLK.S$ ~= QQ_GLOBAL.HELP_S$ THEN
      172     8130    2               CALL GET_XUH_PARAM WHENALTRETURN DO;
      173     8131    2                   RETURN;
      174     8132    2                 END;
      175     8133    2           DO CASE(QQ_CMDBLK.CODE);
      176     8134
      177     8135        /* NOTE:RU is included here because "?" parse as a RU rather than a
      178     8136                QUEST                                                      */
      179     8137    2             CASE(52 /* QUEST ?*/, 53 /* DBL_QUEST ??*/, 57 /* RU CMD */);
      180     8138    2               IF XUH_PARAM.HELP_CODE#.PNAME.TEXT = ' ' THEN
      181     8139    3                 DO;
PL6.E3A0      #001=QQB$HELP File=QQB$HELP.:E05TSI                                WED 07/30/97 05:30 Page:11
      182     8140    3                   QQ_CMDBLK.MINOR_ERR = CODE_BADCOMMAND;
      183     8141    3                   CALL QQC$BLDMSG_BLK(MSGBLK);
      184     8142    3                   CALL QQC$BLDMSG(MSGBLK);
      185     8143    3                   RETURN;
      186     8144    3                 END;
      187     8145
      188     8146    2               HELP_RESULTS.CODEUSED.LEN = XUH_PARAM.HELP_CODE#.LEN;
      189     8147    2               HELP_RESULTS.CODEUSED.TEXT = XUH_PARAM.HELP_CODE#.TEXT;
      190     8148
      191     8149    2               IF QQ_CMDBLK.CODE = 52 /* QUEST ?*/ AND NOMSG THEN
      192     8150    2                 FPT_HELP.V.LIST# = '1'B;
      193     8151    2               ELSE IF QQ_CMDBLK.CODE = 53 /* DBL_QUEST ??*/ THEN
      194     8152    2                   FPT_HELP.V.ALL# = '1'B;
      195     8153    2                 ELSE
      196     8154    2                   FPT_HELP.V.MORE# = '1'B;
      197     8155
      198     8156    2             CASE(15 /* HELP */);
      199     8157    2               XUH_PARAM.HELP_CODE#.PACCT = ' ';
      200     8158    2               QQ_GLOBAL.HELP_S$ = QQ_CMDBLK.S$;
      201     8159
      202     8160    3               DO INDX = 0 TO QQ_CMDBLK.OUT$ -> OUT$BLK.NSUBLKS - 1;
      203     8161    3                 P$ = QQ_CMDBLK.OUT$ -> OUT$BLK.SUBLK$(INDX);
      204     8162    4                 DO CASE (P$ -> OUT$BLK.CODE);
      205     8163    4                   CASE (1 /* OPT_FID */);
      206     8164    4                     FPT_FID = CFPT_FID;
      207     8165    4                     FPT_FID.TEXTFID_ =
      208     8166    4                         VECTOR(P$ -> OUT$BLK.SUBLK$(0) -> OUT$SYM.TEXT);
      209     8167    4                     FPT_FID.NAME_ = VECTOR(FID_NAME);
      210     8168    4                     FPT_FID.ACCT_ = VECTOR(FID_ACCT);
      211     8169    4                     FPT_FID.PASS_ = VECTOR(FID_PASS);
      212     8170    4                     FPT_FID.SN_ = VECTOR(FID_SN);
      213     8171    4                     FPT_FID.WSN_ = VECTOR(FID_WSN);
      214     8172    4                     FPT_FID.ASN_ = VECTOR(FID_ASN);
      215     8173    4                     FPT_FID.RES_ = VECTOR(FID_RES);
      216     8174    4                     FPT_FID.RESULTS_ = VECTOR(FID_RESULTS);
      217     8175    4                     CALL M$FID (FPT_FID) ALTRET(FID_ERR);
      218     8176
PL6.E3A0      #001=QQB$HELP File=QQB$HELP.:E05TSI                                WED 07/30/97 05:30 Page:12
      219     8177    4                     IF FID_RESULTS.SN
      220     8178    4                         OR FID_RESULTS.WSN
      221     8179    4                         OR FID_RESULTS.RES
      222     8180    4                         OR (FID_RESULTS.ASN AND FID_ASN ~= 1) THEN
      223     8181    5                       DO;
      224     8182    5                         QQ_CMDBLK.MINOR_ERR = CODE_BAD_FID;
      225     8183    5                         CALL QQC$BLDMSG_BLK(MSGBLK);
      226     8184    5                         CALL QQC$BLDMSG(MSGBLK);
      227     8185    5                         RETURN;
      228     8186    5                       END;
      229     8187
      230     8188    4                     IF FID_RESULTS.NAME THEN
      231     8189    5                       DO;
      232     8190    5                         IF FID_NAME.L# = 1 AND FID_NAME.NAME# = '?' THEN
      233     8191    6                           DO;
      234     8192    6                             XUH_PARAM.HELP_CODE#.PNAME.LEN = 1;
      235     8193    6                             XUH_PARAM.HELP_CODE#.PNAME.TEXT = ' ';
      236     8194    6                             FPT_HELP.V.LIST# = '1'B;
      237     8195    6                           END;
      238     8196    5                         ELSE              /* Processor name specified           */
      239     8197    6                           DO;
      240     8198    6                             XUH_PARAM.HELP_CODE#.PNAME = FID_NAME;
      241     8199    6                           END;
      242     8200    5                       END;
      243     8201    4                     ELSE                  /* Get a list of TOPICS               */
      244     8202    5                       DO;
      245     8203    5                         FPT_HELP.V.LIST# = '1'B;
      246     8204    5                       END;
      247     8205
      248     8206    4                     IF FID_RESULTS.ACCT THEN
      249     8207    5                       DO;
      250     8208    5                         IF FID_ACCT.ACCT# = ' ' THEN
      251     8209    5                           XUH_PARAM.HELP_CODE#.PACCT = B$JIT.FACCN;
      252     8210    5                         ELSE              /* Use specified acct                 */
      253     8211    5                           XUH_PARAM.HELP_CODE#.PACCT = FID_ACCT.ACCT#;
      254     8212    5                       END;
      255     8213    4                     ELSE                  /* Default is :SYS                    */
PL6.E3A0      #001=QQB$HELP File=QQB$HELP.:E05TSI                                WED 07/30/97 05:30 Page:13
      256     8214    5                       DO;
      257     8215    5                         XUH_PARAM.HELP_CODE#.PACCT = ':SYS';
      258     8216    5                       END;
      259     8217
      260     8218    4                     IF FID_RESULTS.PASS THEN
      261     8219    5                       DO;
      262     8220    5                         XUH_PARAM.HELP_CODE#.PPASS = FID_PASS.PASS#;
      263     8221    5                       END;
      264     8222
      265     8223    4                   CASE (2 /* OPT_TOPIC */);
      266     8224    4                     FPT_HELP.V.LIST# = '1'B;
      267     8225
      268     8226    4                   CASE (4 /* OPT_RANGE */);
      269     8227    4                     FPT_HELP.V.RANGE# = '1'B;
      270     8228
      271     8229    4                   CASE (5 /* KEYWORD1 */);
      272     8230    4                     IF P$ -> OUT$SYM.COUNT ~= 0 THEN
      273     8231    5                       DO;
      274     8232    5                         KEYWORD1.L# = P$ -> OUT$SYM.COUNT;
      275     8233    5                         KEYWORD1.NAME# = P$ -> OUT$SYM.TEXT;
      276     8234    5                         FPT_HELP.KEY1_ = VECTOR(KEYWORD1);
      277     8235    5                       END;
      278     8236
      279     8237    4                   CASE (6 /* KEYWORD2 */);
      280     8238    4                     IF P$ -> OUT$SYM.COUNT ~= 0 THEN
      281     8239    5                       DO;
      282     8240    5                         KEYWORD2.L# = P$ -> OUT$SYM.COUNT;
      283     8241    5                         KEYWORD2.NAME# = P$ -> OUT$SYM.TEXT;
      284     8242    5                         FPT_HELP.KEY2_ = VECTOR(KEYWORD2);
      285     8243    5                       END;
      286     8244    4                 END;                      /* Do case ... end                    */
      287     8245    3               END;                        /* Do indx ... end                    */
      288     8246
      289     8247    2               IF XUH_PARAM.HELP_CODE#.PACCT = ' ' THEN
      290     8248    3                 DO;
      291     8249    3                   XUH_PARAM.HELP_CODE#.PNAME.LEN = 3;
      292     8250    3                   XUH_PARAM.HELP_CODE#.PNAME.TEXT = 'TPA';
PL6.E3A0      #001=QQB$HELP File=QQB$HELP.:E05TSI                                WED 07/30/97 05:30 Page:14
      293     8251    3                   XUH_PARAM.HELP_CODE#.PACCT = ':SYS';
      294     8252    3                 END;
      295     8253
      296     8254    2           END;                            /* of outer Do case                   */
      297     8255
      298     8256    1   GET_HFILE:
      299     8257    1           FPT_HELP.PROCNAME_ = VECTOR(XUH_PARAM.HELP_CODE#.PNAME);
      300     8258    1           FPT_HELP.PROCACCT_ = VECTOR(XUH_PARAM.HELP_CODE#.PACCT);
      301     8259    1           FPT_HELP.PROCPASS_ = VECTOR(XUH_PARAM.HELP_CODE#.PPASS);
      302     8260
      303     8261    1           CALL M$HELP (FPT_HELP) ALTRET(MON_ERR);
      304     8262    1           IF NOT FPT_HELP.V.LIST# THEN
      305     8263    2             DO;
      306     8264    2               XUH_PARAM.HELP_CODE#.LEN = HELP_RESULTS.CODEUSED.LEN;
      307     8265    2               XUH_PARAM.HELP_CODE#.TEXT = HELP_RESULTS.CODEUSED.TEXT;
      308     8266    2             END;
      309     8267
      310     8268    1           NOMSG = HELP_RESULTS.NOMSG;
      311     8269    1           F_FDS.BUF_ = VECTOR(BUF);
      312     8270    1           F_FDS.VECTR$ = ADDR(DATA_VECTORS);
      313     8271    1           F_FDS.NVECS# = 1;
      314     8272    1           F_FDS.FMT_ = VECTOR(FORMAT);
      315     8273
      316     8274    2           DO INDX = 0 TO HELP_RESULTS.RECCNT - 1;
      317     8275    2             DATA_VECTORS = VECTOR(BUFFER(INDX));
      318     8276    2             CALL X$FORMAT(F_FDS);
      319     8277    2           END;                            /* of DO loop                         */
      320     8278
      321     8279    1           RETURN;
      322     8280
      323     8281    1   MON_ERR:
      324     8282    1           IF HELP_RESULTS.NNATIVE OR
      325     8283    1               B$TCB.ALT$ -> B$ALT.ERR.CODE = 840 THEN /* No help file    */
      326     8284    2             DO;
      327     8285    2               IF KEYWORD1.NAME# = ' ' THEN
      328     8286    3                 DO;
      329     8287    3                   QQ_CMDBLK.MINOR_ERR = CODE_NOHELP;
PL6.E3A0      #001=QQB$HELP File=QQB$HELP.:E05TSI                                WED 07/30/97 05:30 Page:15
      330     8288    3                   GOTO MSG_PRINT;
      331     8289    3                 END;
      332     8290
      333     8291    2               GOTO BAD_TOPIC;
      334     8292    2             END;
      335     8293
      336     8294    1           IF B$TCB.ALT$ -> B$ALT.ERR.CODE = 841 OR /* Bad topic          */
      337     8295    1               B$TCB.ALT$ -> B$ALT.ERR.CODE = 844 OR /* No topic          */
      338     8296    1               B$TCB.ALT$ -> B$ALT.ERR.CODE = 301 THEN /* No such topic   */
      339     8297    2             DO;
      340     8298    2   BAD_TOPIC:
      341     8299    2               NOMSG = HELP_RESULTS.NOMSG;
      342     8300    2               QQ_CMDBLK.MINOR_ERR = CODE_NOHTOPIC;
      343     8301    2               GOTO MSG_PRINT;
      344     8302    2             END;
      345     8303
      346     8304    1           IF B$TCB.ALT$ -> B$ALT.ERR.CODE = 842 THEN /* No more       */
      347     8305    2             DO;
      348     8306    2               QQ_CMDBLK.MINOR_ERR = CODE_NOMORE;
      349     8307    2             END;
      350     8308    1           ELSE
      351     8309    1   FID_ERR:
      352     8310    2             DO;
      353     8311    2               QQ_CMDBLK.MINOR_ERR = CODE_UNKNOWN;
      354     8312    2             END;
      355     8313
      356     8314    1   MSG_PRINT:
      357     8315    1           CALL QQC$BLDMSG_BLK(MSGBLK);
      358     8316    1           CALL QQC$BLDMSG(MSGBLK);
      359     8317
      360     8318    1           RETURN;
      361     8319        %PAGE(ARG="GET_XUH_PARAM",PAGE=YES);

PL6.E3A0      #001=QQB$HELP File=QQB$HELP.:E05TSI                                WED 07/30/97 05:30 Page:16
              8336    1   /***************************************************************************
              8337    1    *                                                                         *
              8338    1    *                               GET_XUH_PARAM                             *
              8339    1    *                                                                         *
              8340    1    ***************************************************************************/

      362     8344    1   GET_XUH_PARAM:
      363     8345    1           PROC ALTRET;
      364     8346
      365     8347    2           IF DCBADDR(DCBNUM(M$THLP))->F$DCB.FCD# = '0'B THEN
      366     8348    3             DO;
      367     8349    3               CALL M$OPEN(FPT_OPEN) WHENALTRETURN
      368     8350    4                 DO;
      369     8351    4                   QQ_CMDBLK.MINOR_ERR = CODE_HELP_POST;
      370     8352    4                   CALL QQC$BLDMSG_BLK(MSGBLK);
      371     8353    4                   CALL QQC$BLDMSG(MSGBLK);
      372     8354    4                   ALTRETURN;
      373     8355    4                 END;
      374     8356    3             END;
      375     8357    2           HELP_DATA_R = XUH_PARAM;
      376     8358    2           HELP_DATA_R.NOMSG_DATA.NOMSG_VALUE = NOMSG;
      377     8359    2           HELP_STATION.NAME# = QQ_GLOBAL.HELP_S$->TP$STATION.ID;
      378     8360    2           CALL M$WRITE(FPT_WRITE) ALTRET(SET_STATION);
      379     8361    2   SET_STATION:
      380     8362    2           HELP_STATION.NAME# = QQ_CMDBLK.S$->TP$STATION.ID;
      381     8363    2           QQ_GLOBAL.HELP_S$ = QQ_CMDBLK.S$;
      382     8364    2           IF QQ_CMDBLK.CODE = 15 /* HELP */ THEN
      383     8365    3             DO;
      384     8366    3               XUH_PARAM = CXUH_PARAM;
      385     8367    3               RETURN;
      386     8368    3             END;
      387     8369    2           CALL M$READ(FPT_READ) WHENALTRETURN
      388     8370    3             DO;
      389     8371    3               IF B$TCB.ALT$->B$ALT.ERR.CODE = 66 THEN /* No key for station*/
      390     8372    4                 DO;
      391     8373    4                   XUH_PARAM = CXUH_PARAM;
      392     8374    4                   RETURN;
PL6.E3A0      #001=QQB$HELP File=QQB$HELP.:E05TSI                                WED 07/30/97 05:30 Page:17
      393     8375    4                 END;
      394     8376    3               QQ_CMDBLK.MINOR_ERR = CODE_HELP_POST;
      395     8377    3               CALL QQC$BLDMSG_BLK(MSGBLK);
      396     8378    3               CALL QQC$BLDMSG(MSGBLK);
      397     8379    3               ALTRETURN;
      398     8380    3             END;
      399     8381    2           XUH_PARAM = HELP_DATA_R;
      400     8382    2           NOMSG = HELP_DATA_R.NOMSG_DATA.NOMSG_VALUE;
      401     8383    2           RETURN;
      402     8384    2   END GET_XUH_PARAM;
      403     8385    1   END QQB$HELP;

PL6.E3A0      #001=QQB$HELP File=QQB$HELP.:E05TSI                                WED 07/30/97 05:30 Page:18
--  Include file information  --

   XUH_PERR_C.:E05TOU  is referenced.
   XU_FORMAT_C.:E05TOU  is referenced.
   XU_MACRO_C.:E05TOU  is referenced.
   XUH_MACRO_C.:E05TOU  is referenced.
   QQ_SUBS_C.:E05TOU  is referenced.
   QQ_DATA_R.:E05TOU  cannot be made into a system file and is referenced.
   QQ_MACROS_C.:E05TOU  is referenced.
   QQ_PERR_C.:E05TOU  is referenced.
   Q_ERRCODE_C.:E05TOU  is referenced.
   CP_6_SUBS.:E05TOU  is referenced.
   CP_6.:E05TOU  cannot be made into a system file and is referenced.
   B_MACROS_C.:E05TOU  is referenced.
   B$JIT.:E05TOU  cannot be made into a system file and is referenced.
   B_ERRORS_C.:E05TOU  is referenced.
   Q_PAGE_C.:E05TOU  is referenced.
   B$JIT_C.:E05TOU  was found in the system file and is referenced.
   CP_6_C.:E05TOU  was found in the system file and is referenced.
      No diagnostics issued in procedure QQB$HELP.

   Procedure QQB$HELP requires 557 words for executable code.
   Procedure QQB$HELP requires 4132 words of local(AUTO) storage.

    No errors detected in file QQB$HELP.:E05TSI    .

PL6.E3A0      #001=QQB$HELP File=QQB$HELP.:E05TSI                                WED 07/30/97 05:30 Page:19

 Object Unit name= QQB$HELP                                   File name= QQB$HELP.:E05TOU
 UTS= JUL 30 '97 05:30:39.08 WED                              Compiler= PL-6/E31         Sev=      00
 SharedLib= :SHARED_SYSTEM                                    Alt SharedLib=


    ****  Control sections  ****

 Sect   Type Bound  Init  Size OctSiz  Section name(segment info)
    0   DCB   even  none     0      0  M$UC
    1  RoData even  UTS    199    307  QQB$HELP
    2   Data  even  none   151    227  QQB$HELP
    3   DCB   even  none     0      0  M$THLP
    4   Proc  even  none   557   1055  QQB$HELP
    5  RoData even  none    24     30  QQB$HELP

    ****  Entry defs  ****

                              Check   Calling
                             calling  sequence
  Sect OctLoc Primary Altret sequence   type   Parms  Name
     4      0   yes            yes      Std        0  QQB$HELP

  ****  Entry refs  ****

         Check        Calling
        calling       sequence
Altret sequence SRef   type   Args  Name
 yes     yes           Std       2 QQC$PRINT_FMT
         yes           Std       1 QQC$BLDMSG_BLK
         yes           Std       1 QQC$BLDMSG
         yes           Std       1 X$FORMAT
                       nStd      0 X66_AUTO_0
                       Std       0 B_CONSPOOL_D
                       nStd      0 X66_ARET
PL6.E3A0      #001=QQB$HELP File=QQB$HELP.:E05TSI                                WED 07/30/97 05:30 Page:20

  ****  Data refs  ****

  Flags:  r = read only, s = secondary
Flgs Name                             Flgs Name                             Flgs Name
     M$UC                                  QQ_CMDBLK                             QQ_GLOBAL
r    B$JIT$                           r    B$TCB$                                M$THLP
     B_VECTNIL

  ****  Segment refs  ****

  Flags:  r = read only, s = secondary
Flgs Name                             Flgs Name                             Flgs Name
     ISSID                                 NULLSID                               ROSID
PL6.E3A0      #001=QQB$HELP File=QQB$HELP.:E05TSI                                WED 07/30/97 05:30 Page:21


        1        1        /*M* QQB$HELP - Perform  HELP ? ??  commands */
        2        2        /*T***********************************************************/
        3        3        /*T*                                                         */
        4        4        /*T* Copyright (c) Bull HN Information Systems Inc., 1997    */
        5        5        /*T*                                                         */
        6        6        /*T***********************************************************/
        7        7        /*X* IND=2, DCI=4, CSU=2, ECU=4, DTI=2, CTI=4, AND */
        8        8        QQB$HELP:
        9        9                PROC;

      9  4 000000   000000 700200 xent  QQB$HELP     TSX0  ! X66_AUTO_0
         4 000001   010044 000000                    ZERO    4132,0

       10       10
       11       11        %INCLUDE Q_PAGE_C;
       12       43        %SET LISTEXP = '1'B;
       13       44        %PAGE(ARG="Includes");

                61        /***************************************************************************
                62         *                                                                         *
                63         *                                  Includes                               *
                64         *                                                                         *
                65         ***************************************************************************/

       14       69        %INCLUDE B_ERRORS_C;
       15     1196        %INCLUDE B$JIT;
       16     1486        %INCLUDE B_MACROS_C;
       17     1597        %INCLUDE CP_6;
       18     1678        %INCLUDE CP_6_SUBS;
       19     2218        %INCLUDE Q_ERRCODE_C;
       20     2241        %INCLUDE QQ_PERR_C;
       21     2402        %INCLUDE QQ_MACROS_C;
       22     2827        %INCLUDE QQ_DATA_R;
       23     3073        %INCLUDE QQ_SUBS_C;
       24     3265        %INCLUDE XUH_MACRO_C;
       25     3349        %INCLUDE XU_MACRO_C;
PL6.E3A0      #001=QQB$HELP File=QQB$HELP.:E05TSI                                WED 07/30/97 05:30 Page:22
       26     6455        %INCLUDE XU_FORMAT_C;
       27     6617        %INCLUDE XUH_PERR_C;
       28     6631        %PAGE(ARG="Externally defined routines",PAGE=YES);

PL6.E3A0      #001=QQB$HELP File=QQB$HELP.:E05TSI                                WED 07/30/97 05:30 Page:23
              6648    1   /***************************************************************************
              6649    1    *                                                                         *
              6650    1    *                        Externally defined routines                      *
              6651    1    *                                                                         *
              6652    1    ***************************************************************************/

       29     6656    1   DCL QQC$BLDMSG ENTRY(1);
       30     6657    1   DCL QQC$BLDMSG_BLK ENTRY(1);
       31     6658    1   DCL X$FORMAT ENTRY(1);
       32     6659    1   DCL QQC$PRINT_FMT ENTRY(2) ALTRET;
       33     6660        %PAGE(ARG="FPTs");

              6677    1   /***************************************************************************
              6678    1    *                                                                         *
              6679    1    *                                    FPTs                                 *
              6680    1    *                                                                         *
              6681    1    ***************************************************************************/

       34     6685        %FPT_OPEN (FPTN=FPT_OPEN,STCLASS=CONSTANT,ACS=DIRECT,ASN=FILE,
       35     6686                        DISP=SCRATCH,DCB=M$THLP,FUN=CREATE,ORG=KEYED);
       36     6795        %FPT_READ (FPTN=FPT_READ,STCLASS=CONSTANT,DCB=M$THLP,BUF=HELP_DATA,
       37     6796                       KEYS=YES,KEY=HELP_STATION);
       38     6835        %FPT_WRITE (FPTN=FPT_WRITE,STCLASS=CONSTANT,DCB=M$THLP,BUF=HELP_DATA,
       39     6836                       NEWKEY=YES,KEY=HELP_STATION,ONEWKEY=YES);
       40     6867        %FPT_FID (FPTN=FPT_FID,STCLASS=AUTO);
       41     6890        %FPT_FID (FPTN=CFPT_FID,STCLASS=CONSTANT);
       42     6913        %FPT_HELP (FPTN=FPT_HELP,STCLASS=AUTO);
       43     6934        %FPT_HELP (FPTN=CFPT_HELP,STCLASS=CONSTANT);
       44     6955        %PAGE(ARG="VLPs",PAGE=YES);

PL6.E3A0      #001=QQB$HELP File=QQB$HELP.:E05TSI                                WED 07/30/97 05:30 Page:24
              6972    1   /***************************************************************************
              6973    1    *                                                                         *
              6974    1    *                                    VLPs                                 *
              6975    1    *                                                                         *
              6976    1    ***************************************************************************/

       45     6980        %VLP_NAME (FPTN=FID_NAME,LEN=31,STCLASS=AUTO);
       46     7007        %VLP_ACCT (FPTN=FID_ACCT,STCLASS=AUTO);
       47     7020        %VLP_PASS (FPTN=FID_PASS,STCLASS=AUTO);
       48     7033        %VLP_WSN (FPTN=FID_WSN,STCLASS=AUTO);
       49     7046        %VLP_SN (FPTN=FID_SN,N=3,STCLASS=AUTO);
       50     7059        %VLP_NAME (FPTN=KEYWORD1,LEN=31,STCLASS=AUTO);
       51     7086        %VLP_NAME (FPTN=KEYWORD2,LEN=31,STCLASS=AUTO);
       52     7113
       53     7114        %VLP_NAME (FPTN=VLP$NAME,LEN=31,STCLASS=BASED);
       54     7141        %VLP_ACCT (FPTN=VLP$ACCT,STCLASS=BASED);
       55     7154        %VLP_PASS (FPTN=VLP$PASS,STCLASS=BASED);
       56     7167        %PAGE(ARG="VLRs");

              7184    1   /***************************************************************************
              7185    1    *                                                                         *
              7186    1    *                                    VLRs                                 *
              7187    1    *                                                                         *
              7188    1    ***************************************************************************/

       57     7192        %VLR_FID (FPTN=FID_RESULTS,STCLASS=AUTO);
       58     7211        %VLR_HELP (FPTN=HELP_RESULTS,STCLASS=AUTO);
       59     7240        %PAGE(ARG="Static");

              7257    1   /***************************************************************************
              7258    1    *                                                                         *
              7259    1    *                                   Static                                *
              7260    1    *                                                                         *
              7261    1    ***************************************************************************/

       60     7265        %F_FDS(FMT=FORMAT, OUTPUT=QQC$PRINT_FMT, DVFC=' ');
       61     7378        %XUH_PARAM;
PL6.E3A0      #001=QQB$HELP File=QQB$HELP.:E05TSI                                WED 07/30/97 05:30 Page:25
       62     7439    1   DCL NOMSG BIT(1) STATIC ALIGNED INIT('0'B); /*  QUEST after no such topic     */
       63     7440    1   DCL 1 HELP_STATION STATIC              ,/*  Current help station              */
       64     7441    1         2 * UBIN BYTE UNAL INIT(8),
       65     7442    1         2 NAME# CHAR(8) INIT(' ');
       66     7443    1   DCL  HELP_DATA CHAR(233) STATIC ;       /* temporary help area                */
       67     7444    1   DCL 1 HELP_DATA_R REDEF HELP_DATA,
       68     7445    1         2 XUH_DATA CHAR(232),
       69     7446    1         2 NOMSG_DATA CALIGNED,
       70     7447    1           3 NOMSG_VALUE BIT(1) UNAL,
       71     7448    1           3 * BIT(8) UNAL;
       72     7449        %PAGE(ARG="Auto");

              7466    1   /***************************************************************************
              7467    1    *                                                                         *
              7468    1    *                                    Auto                                 *
              7469    1    *                                                                         *
              7470    1    ***************************************************************************/

       73     7474    1   DCL BUF CHAR(80);
       74     7475    1   DCL BUFFER (0:200) CHAR(79) AUTO;
       75     7476
       76     7477    1   DCL INDX SBIN WORD AUTO;
       77     7478    1   DCL FID_ASN UBIN(9) AUTO;
       78     7479    1   DCL FID_RES CHAR(4) AUTO;
       79     7480
       80     7481    1   DCL P$ PTR AUTO;
       81     7482
       82     7483    1   DCL 1  DATA_VECTORS ALIGNED AUTO,
       83     7484    1         2  JUNK UBIN WORD,
       84     7485    1         2  PTR$ PTR;
       85     7486        %MSGBLK;
       86     7576        %PAGE(ARG="Based");

              7593    1   /***************************************************************************
              7594    1    *                                                                         *
              7595    1    *                                   Based                                 *
              7596    1    *                                                                         *
PL6.E3A0      #001=QQB$HELP File=QQB$HELP.:E05TSI                                WED 07/30/97 05:30 Page:26
              7597    1    ***************************************************************************/

       87     7601        %PARSE$OUT (STCLASS=BASED);
       88     7646        %PARSE$SYM (STCLASS=BASED);
       89     7684        %B$TCB (STCLASS="BASED(B$TCB$)");
       90     7687        %F$DCB;
       91     7744        %B$ALT;
       92     7752        %TEXTC (NAME=X$STRING,STCLASS=BASED);
       93     7757        %TP$STATION;
       94     7830        %PAGE(ARG="Constants",PAGE=YES);

PL6.E3A0      #001=QQB$HELP File=QQB$HELP.:E05TSI                                WED 07/30/97 05:30 Page:27
              7847    1   /***************************************************************************
              7848    1    *                                                                         *
              7849    1    *                                 Constants                               *
              7850    1    *                                                                         *
              7851    1    ***************************************************************************/

       95     7855    1   DCL 1 FORMAT CHAR(0) CONSTANT INIT('%A');
       96     7856        %XUH_PARAM (NAME=CXUH_PARAM,STCLASS=CONSTANT);
       97     7917        %PAGE(ARG="Symrefs");

              7934    1   /***************************************************************************
              7935    1    *                                                                         *
              7936    1    *                                  Symrefs                                *
              7937    1    *                                                                         *
              7938    1    ***************************************************************************/

       98     7942    1   DCL B$JIT$ PTR SYMREF READONLY;
       99     7943    1   DCL B$TCB$ PTR SYMREF READONLY;
      100     7944        %PAGE(ARG="Error codes",PAGE=YES);

PL6.E3A0      #001=QQB$HELP File=QQB$HELP.:E05TSI                                WED 07/30/97 05:30 Page:28
              7961    1   /***************************************************************************
              7962    1    *                                                                         *
              7963    1    *                                Error codes                              *
              7964    1    *                                                                         *
              7965    1    ***************************************************************************/

      101     7969        %PAGE(ARG="DCBs",PAGE=YES);

PL6.E3A0      #001=QQB$HELP File=QQB$HELP.:E05TSI                                WED 07/30/97 05:30 Page:29
              7986    1   /***************************************************************************
              7987    1    *                                                                         *
              7988    1    *                                    DCBs                                 *
              7989    1    *                                                                         *
              7990    1    ***************************************************************************/

      102     7994    1   DCL M$THLP DCB;
      103     7995        %ERRCODE(NAME=CODE_NOMORE, CODE#=%E$NOMORE, FCG#=%FCG_QQ, MID#=%MID_B);
      104     8002        %ERRCODE(NAME=CODE_BAD_FID,CODE#=%E$BAD_FID, FCG#=%FCG_QQ, MID#=%MID_B);
      105     8009        %ERRCODE(NAME=CODE_NOHELP, CODE#=%E$NOHELP, FCG#=%FCG_QQ, MID#=%MID_B);
      106     8016        %ERRCODE(NAME=CODE_UNKNOWN,CODE#=%E$UNKNOWN, FCG#=%FCG_QQ, MID#=%MID_B);
      107     8023        %ERRCODE(NAME=CODE_NOHTOPIC,CODE#=%E$NOHTOPIC, FCG#=%FCG_QQ, MID#=%MID_B);
      108     8030        %ERRCODE(NAME=CODE_BADCOMMAND,CODE#=%E$BADCOMMAND, FCG#=%FCG_QQ, MID#=%MID_B);
      109     8037        %ERRCODE(NAME=CODE_HELP_POST,CODE#=%E$HELP_POST, FCG#=%FCG_QQ, MID#=%MID_B);
      110     8044        /*E*       ERROR: QQB-E$NOMORE-C
      111     8045
      112     8046                 MESSAGE: End of topic.
      113     8047             DESCRIPTION: There is no more information on that topic
      114     8048                          available.
      115     8049        */
      116     8050        /*E*       ERROR: QQB-E$BAD_FID-C
      117     8051
      118     8052                 MESSAGE: It is not a valid Fid.
      119     8053             DESCRIPTION: It is not a valid Fid.
      120     8054        */
      121     8055        /*E*       ERROR: QQB-E$NOHELP-C
      122     8056
      123     8057                 MESSAGE: No help is available for that processor.
      124     8058             DESCRIPTION: No help is available for that processor.
      125     8059        */
      126     8060        /*E*       ERROR: QQB-E$UNKNOWN-C
      127     8061
      128     8062                 MESSAGE: It is an unknown topic.
      129     8063             DESCRIPTION: It is an unknown topic.
      130     8064        */
      131     8065        /*E*       ERROR: QQB-E$NOHTOPIC-C
      132     8066
PL6.E3A0      #001=QQB$HELP File=QQB$HELP.:E05TSI                                WED 07/30/97 05:30 Page:30
      133     8067                 MESSAGE: No such topic...
      134     8068                          Type ? for list of available topics.
      135     8069             DESCRIPTION: It is an unknown topic.
      136     8070        */
      137     8071        /*E*       ERROR: QQB-E$BADCOMMAND-C
      138     8072
      139     8073                 MESSAGE: No such command.
      140     8074                          Type HELP for help syntax.
      141     8075             DESCRIPTION: It is an unknown command.
      142     8076        */
      143     8077        /*E*       ERROR: QQB-E$HELP_POST-C
      144     8078
      145     8079                 MESSAGE: No help context for station.
      146     8080                          Re-issue help command.
      147     8081             DESCRIPTION: Problems accessing the temporary
      148     8082                          help file.
      149     8083        */
      150     8084        %PAGE(ARG="QQB$HELP",PAGE=YES);

PL6.E3A0      #001=QQB$HELP File=QQB$HELP.:E05TSI                                WED 07/30/97 05:30 Page:31
              8101    1   /***************************************************************************
              8102    1    *                                                                         *
              8103    1    *                                  QQB$HELP                               *
              8104    1    *                                                                         *
              8105    1    ***************************************************************************/

      151     8109    1           FPT_HELP = CFPT_HELP;

   8109  4 000002   000100 100400                    MLR     fill='000'O
         4 000003   000154 000130 1                  ADSC9   CFPT_HELP                cn=0,n=88
         4 000004   200034 000130                    ADSC9   FPT_HELP,,AUTO           cn=0,n=88

      152     8110    1           FPT_HELP.V_ = VECTOR(FPT_HELP.V);

   8110  4 000005   000000 235000 5                  LDA     0
         4 000006   210042 452500                    STP2    S$+3,,AUTO
         4 000007   210042 236100                    LDQ     S$+3,,AUTO
         4 000010   000056 036003                    ADLQ    46,DU
         4 000011   200034 757100                    STAQ    FPT_HELP,,AUTO

      153     8111    1           FPT_HELP.BUF_ = VECTOR(BUFFER);

   8111  4 000012   000001 235000 5                  LDA     1
         4 000013   210042 452500                    STP2    S$+3,,AUTO
         4 000014   210042 236100                    LDQ     S$+3,,AUTO
         4 000015   000202 036003                    ADLQ    130,DU
         4 000016   200042 757100                    STAQ    FPT_HELP+6,,AUTO

      154     8112    1           FPT_HELP.RESULTS_ = VECTOR(HELP_RESULTS);

   8112  4 000017   000002 235000 5                  LDA     2
         4 000020   210042 452500                    STP2    S$+3,,AUTO
         4 000021   210042 236100                    LDQ     S$+3,,AUTO
         4 000022   000140 036003                    ADLQ    96,DU
         4 000023   200052 757100                    STAQ    FPT_HELP+14,,AUTO

      155     8113    1           FPT_HELP.V.OUTDCB1# = XUH_PARAM.OUTDCB1#;
PL6.E3A0      #001=QQB$HELP File=QQB$HELP.:E05TSI                                WED 07/30/97 05:30 Page:32

   8113  4 000024   000046 220000 2                  LDX0    XUH_PARAM+8
         4 000025   200056 740100                    STX0    FPT_HELP+18,,AUTO

      156     8114    1           FPT_HELP.V.OUTDCB2# = XUH_PARAM.OUTDCB2#;

   8114  4 000026   000046 721000 2                  LXL1    XUH_PARAM+8
         4 000027   200056 441100                    SXL1    FPT_HELP+18,,AUTO

      157     8115
      158     8116    1           HELP_RESULTS = '0'B;

   8116  4 000030   000100 100400                    MLR     fill='000'O
         4 000031   000002 000001 xsym               ADSC9   B_VECTNIL+2              cn=0,n=1
         4 000032   200140 000070                    ADSC9   HELP_RESULTS,,AUTO       cn=0,n=56

      159     8117    1           KEYWORD1.L# = 0;

   8117  4 000033   000000 236003                    LDQ     0,DU
         4 000034   200106 552140                    STBQ    KEYWORD1,'40'O,AUTO

      160     8118    1           KEYWORD1.NAME# = ' ';

   8118  4 000035   040100 100400                    MLR     fill='040'O
         4 000036   000035 000001 xsym               ADSC9   B_VECTNIL+29             cn=0,n=1
         4 000037   200106 200037                    ADSC9   KEYWORD1,,AUTO           cn=1,n=31

      161     8119    1           KEYWORD2.L# = 0;

   8119  4 000040   200116 552140                    STBQ    KEYWORD2,'40'O,AUTO

      162     8120    1           KEYWORD2.NAME# = ' ';

   8120  4 000041   040100 100400                    MLR     fill='040'O
         4 000042   000035 000001 xsym               ADSC9   B_VECTNIL+29             cn=0,n=1
         4 000043   200116 200037                    ADSC9   KEYWORD2,,AUTO           cn=1,n=31

PL6.E3A0      #001=QQB$HELP File=QQB$HELP.:E05TSI                                WED 07/30/97 05:30 Page:33
      163     8121
      164     8122    1           IF QQ_GLOBAL.HELP_S$ = ADDR(NIL) THEN

   8122  4 000044   000070 236000 xsym               LDQ     QQ_GLOBAL+56
         4 000045   000001 116000 xsym               CMPQ    B_VECTNIL+1
         4 000046   000061 601000 4                  TNZ     s:8129

      165     8123    2             DO;

      166     8124    2               XUH_PARAM = CXUH_PARAM;

   8124  4 000047   000000 100400                    MLR     fill='000'O
         4 000050   000204 000344 1                  ADSC9   CXUH_PARAM               cn=0,n=228
         4 000051   000036 000344 2                  ADSC9   XUH_PARAM                cn=0,n=228

      167     8125    2               QQ_GLOBAL.HELP_S$ = QQ_CMDBLK.S$;

   8125  4 000052   000004 236000 xsym               LDQ     QQ_CMDBLK+4
         4 000053   000070 756000 xsym               STQ     QQ_GLOBAL+56

      168     8126    2               HELP_STATION.NAME# = QQ_GLOBAL.HELP_S$->TP$STATION.ID;

   8126  4 000054   000070 470400 xsym               LDP0    QQ_GLOBAL+56
         4 000055   040000 100500                    MLR     fill='040'O
         4 000056   000000 000010                    ADSC9   0,,PR0                   cn=0,n=8
         4 000057   000131 200010 2                  ADSC9   HELP_STATION             cn=1,n=8

      169     8127    2             END;

   8127  4 000060   000067 710000 4                  TRA     s:8133

      170     8128    1           ELSE
      171     8129    1             IF QQ_CMDBLK.S$ ~= QQ_GLOBAL.HELP_S$ THEN

   8129  4 000061   000004 116000 xsym               CMPQ    QQ_CMDBLK+4
         4 000062   000067 600000 4                  TZE     s:8133

PL6.E3A0      #001=QQB$HELP File=QQB$HELP.:E05TSI                                WED 07/30/97 05:30 Page:34
      172     8130    2               CALL GET_XUH_PARAM WHENALTRETURN DO;

   8130  4 000063   000713 701000 4                  TSX1    GET_XUH_PARAM
         4 000064   000066 702000 4                  TSX2    s:8131
         4 000065   000067 710000 4                  TRA     s:8133

      173     8131    2                   RETURN;

   8131  4 000066   000000 702200 xent               TSX2  ! X66_ARET

      174     8132    2                 END;
      175     8133    2           DO CASE(QQ_CMDBLK.CODE);

   8133  4 000067   000006 235000 xsym               LDA     QQ_CMDBLK+6
         4 000070   000017 135007                    SBLA    15,DL
         4 000071   000053 115007                    CMPA    43,DL
         4 000072   000074 602005 4                  TNC     s:8133+5,AL
         4 000073   000542 710000 4                  TRA     GET_HFILE
         4 000074   000217 710000 4                  TRA     s:8157
         4 000075   000542 710000 4                  TRA     GET_HFILE
         4 000076   000542 710000 4                  TRA     GET_HFILE
         4 000077   000542 710000 4                  TRA     GET_HFILE
         4 000100   000542 710000 4                  TRA     GET_HFILE
         4 000101   000542 710000 4                  TRA     GET_HFILE
         4 000102   000542 710000 4                  TRA     GET_HFILE
         4 000103   000542 710000 4                  TRA     GET_HFILE
         4 000104   000542 710000 4                  TRA     GET_HFILE
         4 000105   000542 710000 4                  TRA     GET_HFILE
         4 000106   000542 710000 4                  TRA     GET_HFILE
         4 000107   000542 710000 4                  TRA     GET_HFILE
         4 000110   000542 710000 4                  TRA     GET_HFILE
         4 000111   000542 710000 4                  TRA     GET_HFILE
         4 000112   000542 710000 4                  TRA     GET_HFILE
         4 000113   000542 710000 4                  TRA     GET_HFILE
         4 000114   000542 710000 4                  TRA     GET_HFILE
         4 000115   000542 710000 4                  TRA     GET_HFILE
         4 000116   000542 710000 4                  TRA     GET_HFILE
PL6.E3A0      #001=QQB$HELP File=QQB$HELP.:E05TSI                                WED 07/30/97 05:30 Page:35
         4 000117   000542 710000 4                  TRA     GET_HFILE
         4 000120   000542 710000 4                  TRA     GET_HFILE
         4 000121   000542 710000 4                  TRA     GET_HFILE
         4 000122   000542 710000 4                  TRA     GET_HFILE
         4 000123   000542 710000 4                  TRA     GET_HFILE
         4 000124   000542 710000 4                  TRA     GET_HFILE
         4 000125   000542 710000 4                  TRA     GET_HFILE
         4 000126   000542 710000 4                  TRA     GET_HFILE
         4 000127   000542 710000 4                  TRA     GET_HFILE
         4 000130   000542 710000 4                  TRA     GET_HFILE
         4 000131   000542 710000 4                  TRA     GET_HFILE
         4 000132   000542 710000 4                  TRA     GET_HFILE
         4 000133   000542 710000 4                  TRA     GET_HFILE
         4 000134   000542 710000 4                  TRA     GET_HFILE
         4 000135   000542 710000 4                  TRA     GET_HFILE
         4 000136   000542 710000 4                  TRA     GET_HFILE
         4 000137   000542 710000 4                  TRA     GET_HFILE
         4 000140   000542 710000 4                  TRA     GET_HFILE
         4 000141   000147 710000 4                  TRA     s:8138
         4 000142   000147 710000 4                  TRA     s:8138
         4 000143   000542 710000 4                  TRA     GET_HFILE
         4 000144   000542 710000 4                  TRA     GET_HFILE
         4 000145   000542 710000 4                  TRA     GET_HFILE
         4 000146   000147 710000 4                  TRA     s:8138

      176     8134
      177     8135        /* NOTE:RU is included here because "?" parse as a RU rather than a
      178     8136                QUEST                                                      */
      179     8137    2             CASE(52 /* QUEST ?*/, 53 /* DBL_QUEST ??*/, 57 /* RU CMD */);

      180     8138    2               IF XUH_PARAM.HELP_CODE#.PNAME.TEXT = ' ' THEN

   8138  4 000147   040000 106400                    CMPC    fill='040'O
         4 000150   000065 000037 2                  ADSC9   XUH_PARAM+23             cn=0,n=31
         4 000151   000035 000001 xsym               ADSC9   B_VECTNIL+29             cn=0,n=1
         4 000152   000172 601000 4                  TNZ     s:8146

PL6.E3A0      #001=QQB$HELP File=QQB$HELP.:E05TSI                                WED 07/30/97 05:30 Page:36
      181     8139    3                 DO;

      182     8140    3                   QQ_CMDBLK.MINOR_ERR = CODE_BADCOMMAND;

   8140  4 000153   000303 236000 1                  LDQ     CODE_BADCOMMAND
         4 000154   000001 756000 xsym               STQ     QQ_CMDBLK+1

      183     8141    3                   CALL QQC$BLDMSG_BLK(MSGBLK);

   8141  4 000155   210012 630500                    EPPR0   MSGBLK,,AUTO
         4 000156   210042 450500                    STP0    S$+3,,AUTO
         4 000157   210042 630500                    EPPR0   S$+3,,AUTO
         4 000160   000017 631400 xsym               EPPR1   B_VECTNIL+15
         4 000161   000000 701000 xent               TSX1    QQC$BLDMSG_BLK
         4 000162   000000 011000                    NOP     0

      184     8142    3                   CALL QQC$BLDMSG(MSGBLK);

   8142  4 000163   210012 630500                    EPPR0   MSGBLK,,AUTO
         4 000164   210042 450500                    STP0    S$+3,,AUTO
         4 000165   210042 630500                    EPPR0   S$+3,,AUTO
         4 000166   000017 631400 xsym               EPPR1   B_VECTNIL+15
         4 000167   000000 701000 xent               TSX1    QQC$BLDMSG
         4 000170   000000 011000                    NOP     0

      185     8143    3                   RETURN;

   8143  4 000171   000000 702200 xent               TSX2  ! X66_ARET

      186     8144    3                 END;
      187     8145
      188     8146    2               HELP_RESULTS.CODEUSED.LEN = XUH_PARAM.HELP_CODE#.LEN;

   8146  4 000172   000054 236000 2                  LDQ     XUH_PARAM+14
         4 000173   200144 552140                    STBQ    HELP_RESULTS+4,'40'O,AUTO

      189     8147    2               HELP_RESULTS.CODEUSED.TEXT = XUH_PARAM.HELP_CODE#.TEXT;
PL6.E3A0      #001=QQB$HELP File=QQB$HELP.:E05TSI                                WED 07/30/97 05:30 Page:37

   8147  4 000174   040100 100400                    MLR     fill='040'O
         4 000175   000054 200042 2                  ADSC9   XUH_PARAM+14             cn=1,n=34
         4 000176   200144 200042                    ADSC9   HELP_RESULTS+4,,AUTO     cn=1,n=34

      190     8148
      191     8149    2               IF QQ_CMDBLK.CODE = 52 /* QUEST ?*/ AND NOMSG THEN

   8149  4 000177   000006 235000 xsym               LDA     QQ_CMDBLK+6
         4 000200   000064 115007                    CMPA    52,DL
         4 000201   000207 601000 4                  TNZ     s:8151
         4 000202   000130 234000 2                  SZN     NOMSG
         4 000203   000207 605000 4                  TPL     s:8151

      192     8150    2                 FPT_HELP.V.LIST# = '1'B;

   8150  4 000204   000010 236007                    LDQ     8,DL
         4 000205   200057 256100                    ORSQ    FPT_HELP+19,,AUTO
         4 000206   000542 710000 4                  TRA     GET_HFILE

      193     8151    2               ELSE IF QQ_CMDBLK.CODE = 53 /* DBL_QUEST ??*/ THEN

   8151  4 000207   000065 115007                    CMPA    53,DL
         4 000210   000214 601000 4                  TNZ     s:8154

      194     8152    2                   FPT_HELP.V.ALL# = '1'B;

   8152  4 000211   000004 236007                    LDQ     4,DL
         4 000212   200057 256100                    ORSQ    FPT_HELP+19,,AUTO
         4 000213   000542 710000 4                  TRA     GET_HFILE

      195     8153    2                 ELSE
      196     8154    2                   FPT_HELP.V.MORE# = '1'B;

   8154  4 000214   000002 236007                    LDQ     2,DL
         4 000215   200057 256100                    ORSQ    FPT_HELP+19,,AUTO
         4 000216   000542 710000 4                  TRA     GET_HFILE
PL6.E3A0      #001=QQB$HELP File=QQB$HELP.:E05TSI                                WED 07/30/97 05:30 Page:38

      197     8155
      198     8156    2             CASE(15 /* HELP */);

      199     8157    2               XUH_PARAM.HELP_CODE#.PACCT = ' ';

   8157  4 000217   040000 100400                    MLR     fill='040'O
         4 000220   000035 000001 xsym               ADSC9   B_VECTNIL+29             cn=0,n=1
         4 000221   000074 600010 2                  ADSC9   XUH_PARAM+30             cn=3,n=8

      200     8158    2               QQ_GLOBAL.HELP_S$ = QQ_CMDBLK.S$;

   8158  4 000222   000004 236000 xsym               LDQ     QQ_CMDBLK+4
         4 000223   000070 756000 xsym               STQ     QQ_GLOBAL+56

      201     8159
      202     8160    3               DO INDX = 0 TO QQ_CMDBLK.OUT$ -> OUT$BLK.NSUBLKS - 1;

   8160  4 000224   210004 450100                    STZ     INDX,,AUTO
         4 000225   000521 710000 4                  TRA     s:8245+1

      203     8161    3                 P$ = QQ_CMDBLK.OUT$ -> OUT$BLK.SUBLK$(INDX);

   8161  4 000226   000005 470400 xsym               LDP0    QQ_CMDBLK+5
         4 000227   210004 720100                    LXL0    INDX,,AUTO
         4 000230   000003 236110                    LDQ     3,X0,PR0
         4 000231   210007 756100                    STQ     P$,,AUTO

      204     8162    4                 DO CASE (P$ -> OUT$BLK.CODE);

   8162  4 000232   210007 471500                    LDP1    P$,,AUTO
         4 000233   100000 721100                    LXL1    0,,PR1
         4 000234   000007 101003                    CMPX1   7,DU
         4 000235   000237 602011 4                  TNC     s:8162+5,X1
         4 000236   000520 710000 4                  TRA     s:8245
         4 000237   000520 710000 4                  TRA     s:8245
         4 000240   000246 710000 4                  TRA     s:8164
PL6.E3A0      #001=QQB$HELP File=QQB$HELP.:E05TSI                                WED 07/30/97 05:30 Page:39
         4 000241   000453 710000 4                  TRA     s:8224
         4 000242   000520 710000 4                  TRA     s:8245
         4 000243   000456 710000 4                  TRA     s:8227
         4 000244   000461 710000 4                  TRA     s:8230
         4 000245   000501 710000 4                  TRA     s:8238

      205     8163    4                   CASE (1 /* OPT_FID */);

      206     8164    4                     FPT_FID = CFPT_FID;

   8164  4 000246   000100 100400                    MLR     fill='000'O
         4 000247   000124 000140 1                  ADSC9   CFPT_FID                 cn=0,n=96
         4 000250   200004 000140                    ADSC9   FPT_FID,,AUTO            cn=0,n=96

      207     8165    4                     FPT_FID.TEXTFID_ =

   8165  4 000251   100003 473500                    LDP3    3,,PR1
         4 000252   300004 236100                    LDQ     4,,PR3
         4 000253   000033 772000                    QRL     27
         4 000254   000064 737000                    LLS     52
         4 000255   000140 135007                    SBLA    96,DL
         4 000256   210042 453500                    STP3    S$+3,,AUTO
         4 000257   210042 236100                    LDQ     S$+3,,AUTO
         4 000260   000003 036000 5                  ADLQ    3
         4 000261   200006 757100                    STAQ    FPT_FID+2,,AUTO

      208     8166    4                         VECTOR(P$ -> OUT$BLK.SUBLK$(0) -> OUT$SYM.TEXT);
      209     8167    4                     FPT_FID.NAME_ = VECTOR(FID_NAME);

   8167  4 000262   000004 235000 5                  LDA     4
         4 000263   210042 452500                    STP2    S$+3,,AUTO
         4 000264   210042 236100                    LDQ     S$+3,,AUTO
         4 000265   000062 036003                    ADLQ    50,DU
         4 000266   200010 757100                    STAQ    FPT_FID+4,,AUTO

      210     8168    4                     FPT_FID.ACCT_ = VECTOR(FID_ACCT);

PL6.E3A0      #001=QQB$HELP File=QQB$HELP.:E05TSI                                WED 07/30/97 05:30 Page:40
   8168  4 000267   000005 235000 5                  LDA     5
         4 000270   210042 452500                    STP2    S$+3,,AUTO
         4 000271   210042 236100                    LDQ     S$+3,,AUTO
         4 000272   000072 036003                    ADLQ    58,DU
         4 000273   200012 757100                    STAQ    FPT_FID+6,,AUTO

      211     8169    4                     FPT_FID.PASS_ = VECTOR(FID_PASS);

   8169  4 000274   000005 235000 5                  LDA     5
         4 000275   210042 452500                    STP2    S$+3,,AUTO
         4 000276   210042 236100                    LDQ     S$+3,,AUTO
         4 000277   000074 036003                    ADLQ    60,DU
         4 000300   200014 757100                    STAQ    FPT_FID+8,,AUTO

      212     8170    4                     FPT_FID.SN_ = VECTOR(FID_SN);

   8170  4 000301   000006 235000 5                  LDA     6
         4 000302   210042 452500                    STP2    S$+3,,AUTO
         4 000303   210042 236100                    LDQ     S$+3,,AUTO
         4 000304   000100 036003                    ADLQ    64,DU
         4 000305   200016 757100                    STAQ    FPT_FID+10,,AUTO

      213     8171    4                     FPT_FID.WSN_ = VECTOR(FID_WSN);

   8171  4 000306   000005 235000 5                  LDA     5
         4 000307   210042 452500                    STP2    S$+3,,AUTO
         4 000310   210042 236100                    LDQ     S$+3,,AUTO
         4 000311   000076 036003                    ADLQ    62,DU
         4 000312   200020 757100                    STAQ    FPT_FID+12,,AUTO

      214     8172    4                     FPT_FID.ASN_ = VECTOR(FID_ASN);

   8172  4 000313   777640 235007                    LDA     -96,DL
         4 000314   210042 452500                    STP2    S$+3,,AUTO
         4 000315   210042 236100                    LDQ     S$+3,,AUTO
         4 000316   010005 036003                    ADLQ    4101,DU
         4 000317   200022 757100                    STAQ    FPT_FID+14,,AUTO
PL6.E3A0      #001=QQB$HELP File=QQB$HELP.:E05TSI                                WED 07/30/97 05:30 Page:41

      215     8173    4                     FPT_FID.RES_ = VECTOR(FID_RES);

   8173  4 000320   777640 235007                    LDA     -96,DL
         4 000321   210042 452500                    STP2    S$+3,,AUTO
         4 000322   210042 236100                    LDQ     S$+3,,AUTO
         4 000323   010006 036003                    ADLQ    4102,DU
         4 000324   200024 757100                    STAQ    FPT_FID+16,,AUTO

      216     8174    4                     FPT_FID.RESULTS_ = VECTOR(FID_RESULTS);

   8174  4 000325   000007 235000 5                  LDA     7
         4 000326   210042 452500                    STP2    S$+3,,AUTO
         4 000327   210042 236100                    LDQ     S$+3,,AUTO
         4 000330   000126 036003                    ADLQ    86,DU
         4 000331   200026 757100                    STAQ    FPT_FID+18,,AUTO

      217     8175    4                     CALL M$FID (FPT_FID) ALTRET(FID_ERR);

   8175  4 000332   200004 630500                    EPPR0   FPT_FID,,AUTO
         4 000333   420001 713400                    CLIMB   alt,+8193
         4 000334   404400 401760                    pmme    nvectors=10
         4 000335   000674 702000 4                  TSX2    FID_ERR

      218     8176
      219     8177    4                     IF FID_RESULTS.SN

   8177  4 000336   200126 236100                    LDQ     FID_RESULTS,,AUTO
         4 000337   040000 316003                    CANQ    16384,DU
         4 000340   000353 601000 4                  TNZ     s:8182
         4 000341   020000 316003                    CANQ    8192,DU
         4 000342   000353 601000 4                  TNZ     s:8182
         4 000343   004000 316003                    CANQ    2048,DU
         4 000344   000353 601000 4                  TNZ     s:8182
         4 000345   010000 316003                    CANQ    4096,DU
         4 000346   000372 600000 4                  TZE     s:8188
         4 000347   210005 236100                    LDQ     FID_ASN,,AUTO
PL6.E3A0      #001=QQB$HELP File=QQB$HELP.:E05TSI                                WED 07/30/97 05:30 Page:42
         4 000350   777000 376003                    ANQ     -512,DU
         4 000351   001000 116003                    CMPQ    512,DU
         4 000352   000372 600000 4                  TZE     s:8188

      220     8178    4                         OR FID_RESULTS.WSN
      221     8179    4                         OR FID_RESULTS.RES
      222     8180    4                         OR (FID_RESULTS.ASN AND FID_ASN ~= 1) THEN
      223     8181    5                       DO;

      224     8182    5                         QQ_CMDBLK.MINOR_ERR = CODE_BAD_FID;

   8182  4 000353   000277 236000 1                  LDQ     CODE_BAD_FID
         4 000354   000001 756000 xsym               STQ     QQ_CMDBLK+1

      225     8183    5                         CALL QQC$BLDMSG_BLK(MSGBLK);

   8183  4 000355   210012 630500                    EPPR0   MSGBLK,,AUTO
         4 000356   210042 450500                    STP0    S$+3,,AUTO
         4 000357   210042 630500                    EPPR0   S$+3,,AUTO
         4 000360   000017 631400 xsym               EPPR1   B_VECTNIL+15
         4 000361   000000 701000 xent               TSX1    QQC$BLDMSG_BLK
         4 000362   000000 011000                    NOP     0

      226     8184    5                         CALL QQC$BLDMSG(MSGBLK);

   8184  4 000363   210012 630500                    EPPR0   MSGBLK,,AUTO
         4 000364   210042 450500                    STP0    S$+3,,AUTO
         4 000365   210042 630500                    EPPR0   S$+3,,AUTO
         4 000366   000017 631400 xsym               EPPR1   B_VECTNIL+15
         4 000367   000000 701000 xent               TSX1    QQC$BLDMSG
         4 000370   000000 011000                    NOP     0

      227     8185    5                         RETURN;

   8185  4 000371   000000 702200 xent               TSX2  ! X66_ARET

      228     8186    5                       END;
PL6.E3A0      #001=QQB$HELP File=QQB$HELP.:E05TSI                                WED 07/30/97 05:30 Page:43
      229     8187
      230     8188    4                     IF FID_RESULTS.NAME THEN

   8188  4 000372   200126 234100                    SZN     FID_RESULTS,,AUTO
         4 000373   000420 605000 4                  TPL     s:8203

      231     8189    5                       DO;

      232     8190    5                         IF FID_NAME.L# = 1 AND FID_NAME.NAME# = '?' THEN

   8190  4 000374   200062 236100                    LDQ     FID_NAME,,AUTO
         4 000375   777000 376003                    ANQ     -512,DU
         4 000376   001000 116003                    CMPQ    512,DU
         4 000377   000414 601000 4                  TNZ     s:8198
         4 000400   040000 106500                    CMPC    fill='040'O
         4 000401   200062 200037                    ADSC9   FID_NAME,,AUTO           cn=1,n=31
         4 000402   000010 000001 5                  ADSC9   8                        cn=0,n=1
         4 000403   000414 601000 4                  TNZ     s:8198

      233     8191    6                           DO;

      234     8192    6                             XUH_PARAM.HELP_CODE#.PNAME.LEN = 1;

   8192  4 000404   000001 236007                    LDQ     1,DL
         4 000405   000064 552004 2                  STBQ    XUH_PARAM+22,'04'O

      235     8193    6                             XUH_PARAM.HELP_CODE#.PNAME.TEXT = ' ';

   8193  4 000406   040000 100400                    MLR     fill='040'O
         4 000407   000035 000001 xsym               ADSC9   B_VECTNIL+29             cn=0,n=1
         4 000410   000065 000037 2                  ADSC9   XUH_PARAM+23             cn=0,n=31

      236     8194    6                             FPT_HELP.V.LIST# = '1'B;

   8194  4 000411   000010 236007                    LDQ     8,DL
         4 000412   200057 256100                    ORSQ    FPT_HELP+19,,AUTO

PL6.E3A0      #001=QQB$HELP File=QQB$HELP.:E05TSI                                WED 07/30/97 05:30 Page:44
      237     8195    6                           END;

   8195  4 000413   000422 710000 4                  TRA     s:8206

      238     8196    5                         ELSE              /* Processor name specified           */
      239     8197    6                           DO;

      240     8198    6                             XUH_PARAM.HELP_CODE#.PNAME = FID_NAME;

   8198  4 000414   000000 100500                    MLR     fill='000'O
         4 000415   200062 000040                    ADSC9   FID_NAME,,AUTO           cn=0,n=32
         4 000416   000064 600040 2                  ADSC9   XUH_PARAM+22             cn=3,n=32

      241     8199    6                           END;

      242     8200    5                       END;

   8200  4 000417   000422 710000 4                  TRA     s:8206

      243     8201    4                     ELSE                  /* Get a list of TOPICS               */
      244     8202    5                       DO;

      245     8203    5                         FPT_HELP.V.LIST# = '1'B;

   8203  4 000420   000010 236007                    LDQ     8,DL
         4 000421   200057 256100                    ORSQ    FPT_HELP+19,,AUTO

      246     8204    5                       END;

      247     8205
      248     8206    4                     IF FID_RESULTS.ACCT THEN

   8206  4 000422   200126 236100                    LDQ     FID_RESULTS,,AUTO
         4 000423   200000 316003                    CANQ    65536,DU
         4 000424   000441 600000 4                  TZE     s:8215

      249     8207    5                       DO;
PL6.E3A0      #001=QQB$HELP File=QQB$HELP.:E05TSI                                WED 07/30/97 05:30 Page:45

      250     8208    5                         IF FID_ACCT.ACCT# = ' ' THEN

   8208  4 000425   200072 237100                    LDAQ    FID_ACCT,,AUTO
         4 000426   000012 117000 5                  CMPAQ   10
         4 000427   000435 601000 4                  TNZ     s:8211

      251     8209    5                           XUH_PARAM.HELP_CODE#.PACCT = B$JIT.FACCN;

   8209  4 000430   000000 470400 xsym               LDP0    B$JIT$
         4 000431   040000 100500                    MLR     fill='040'O
         4 000432   000006 000010                    ADSC9   6,,PR0                   cn=0,n=8
         4 000433   000074 600010 2                  ADSC9   XUH_PARAM+30             cn=3,n=8
         4 000434   000444 710000 4                  TRA     s:8218

      252     8210    5                         ELSE              /* Use specified acct                 */
      253     8211    5                           XUH_PARAM.HELP_CODE#.PACCT = FID_ACCT.ACCT#;

   8211  4 000435   040000 100500                    MLR     fill='040'O
         4 000436   200072 000010                    ADSC9   FID_ACCT,,AUTO           cn=0,n=8
         4 000437   000074 600010 2                  ADSC9   XUH_PARAM+30             cn=3,n=8

      254     8212    5                       END;

   8212  4 000440   000444 710000 4                  TRA     s:8218

      255     8213    4                     ELSE                  /* Default is :SYS                    */
      256     8214    5                       DO;

      257     8215    5                         XUH_PARAM.HELP_CODE#.PACCT = ':SYS';

   8215  4 000441   040000 100400                    MLR     fill='040'O
         4 000442   000305 000004 1                  ADSC9   CODE_HELP_POST+1         cn=0,n=4
         4 000443   000074 600010 2                  ADSC9   XUH_PARAM+30             cn=3,n=8

      258     8216    5                       END;

PL6.E3A0      #001=QQB$HELP File=QQB$HELP.:E05TSI                                WED 07/30/97 05:30 Page:46
      259     8217
      260     8218    4                     IF FID_RESULTS.PASS THEN

   8218  4 000444   200126 236100                    LDQ     FID_RESULTS,,AUTO
         4 000445   100000 316003                    CANQ    32768,DU
         4 000446   000520 600000 4                  TZE     s:8245

      261     8219    5                       DO;

      262     8220    5                         XUH_PARAM.HELP_CODE#.PPASS = FID_PASS.PASS#;

   8220  4 000447   040000 100500                    MLR     fill='040'O
         4 000450   200074 000010                    ADSC9   FID_PASS,,AUTO           cn=0,n=8
         4 000451   000076 600010 2                  ADSC9   XUH_PARAM+32             cn=3,n=8

      263     8221    5                       END;

   8221  4 000452   000520 710000 4                  TRA     s:8245

      264     8222
      265     8223    4                   CASE (2 /* OPT_TOPIC */);

      266     8224    4                     FPT_HELP.V.LIST# = '1'B;

   8224  4 000453   000010 236007                    LDQ     8,DL
         4 000454   200057 256100                    ORSQ    FPT_HELP+19,,AUTO
         4 000455   000520 710000 4                  TRA     s:8245

      267     8225
      268     8226    4                   CASE (4 /* OPT_RANGE */);

      269     8227    4                     FPT_HELP.V.RANGE# = '1'B;

   8227  4 000456   000001 236007                    LDQ     1,DL
         4 000457   200057 256100                    ORSQ    FPT_HELP+19,,AUTO
         4 000460   000520 710000 4                  TRA     s:8245

PL6.E3A0      #001=QQB$HELP File=QQB$HELP.:E05TSI                                WED 07/30/97 05:30 Page:47
      270     8228
      271     8229    4                   CASE (5 /* KEYWORD1 */);

      272     8230    4                     IF P$ -> OUT$SYM.COUNT ~= 0 THEN

   8230  4 000461   100004 236100                    LDQ     4,,PR1
         4 000462   777000 316003                    CANQ    -512,DU
         4 000463   000520 600000 4                  TZE     s:8245

      273     8231    5                       DO;

      274     8232    5                         KEYWORD1.L# = P$ -> OUT$SYM.COUNT;

   8232  4 000464   200106 552140                    STBQ    KEYWORD1,'40'O,AUTO

      275     8233    5                         KEYWORD1.NAME# = P$ -> OUT$SYM.TEXT;

   8233  4 000465   100004 236100                    LDQ     4,,PR1
         4 000466   000033 772000                    QRL     27
         4 000467   000000 621006                    EAX1    0,QL
         4 000470   040100 100540                    MLR     fill='040'O
         4 000471   100004 200011                    ADSC9   4,,PR1                   cn=1,n=*X1
         4 000472   200106 200037                    ADSC9   KEYWORD1,,AUTO           cn=1,n=31

      276     8234    5                         FPT_HELP.KEY1_ = VECTOR(KEYWORD1);

   8234  4 000473   000004 235000 5                  LDA     4
         4 000474   210042 452500                    STP2    S$+3,,AUTO
         4 000475   210042 236100                    LDQ     S$+3,,AUTO
         4 000476   000106 036003                    ADLQ    70,DU
         4 000477   200036 757100                    STAQ    FPT_HELP+2,,AUTO

      277     8235    5                       END;

   8235  4 000500   000520 710000 4                  TRA     s:8245

      278     8236
PL6.E3A0      #001=QQB$HELP File=QQB$HELP.:E05TSI                                WED 07/30/97 05:30 Page:48
      279     8237    4                   CASE (6 /* KEYWORD2 */);

      280     8238    4                     IF P$ -> OUT$SYM.COUNT ~= 0 THEN

   8238  4 000501   100004 236100                    LDQ     4,,PR1
         4 000502   777000 316003                    CANQ    -512,DU
         4 000503   000520 600000 4                  TZE     s:8245

      281     8239    5                       DO;

      282     8240    5                         KEYWORD2.L# = P$ -> OUT$SYM.COUNT;

   8240  4 000504   200116 552140                    STBQ    KEYWORD2,'40'O,AUTO

      283     8241    5                         KEYWORD2.NAME# = P$ -> OUT$SYM.TEXT;

   8241  4 000505   100004 236100                    LDQ     4,,PR1
         4 000506   000033 772000                    QRL     27
         4 000507   000000 621006                    EAX1    0,QL
         4 000510   040100 100540                    MLR     fill='040'O
         4 000511   100004 200011                    ADSC9   4,,PR1                   cn=1,n=*X1
         4 000512   200116 200037                    ADSC9   KEYWORD2,,AUTO           cn=1,n=31

      284     8242    5                         FPT_HELP.KEY2_ = VECTOR(KEYWORD2);

   8242  4 000513   000004 235000 5                  LDA     4
         4 000514   210042 452500                    STP2    S$+3,,AUTO
         4 000515   210042 236100                    LDQ     S$+3,,AUTO
         4 000516   000116 036003                    ADLQ    78,DU
         4 000517   200040 757100                    STAQ    FPT_HELP+4,,AUTO

      285     8243    5                       END;

      286     8244    4                 END;                      /* Do case ... end                    */

      287     8245    3               END;                        /* Do indx ... end                    */

PL6.E3A0      #001=QQB$HELP File=QQB$HELP.:E05TSI                                WED 07/30/97 05:30 Page:49
   8245  4 000520   210004 054100                    AOS     INDX,,AUTO
         4 000521   000005 470400 xsym               LDP0    QQ_CMDBLK+5
         4 000522   000001 236100                    LDQ     1,,PR0
         4 000523   000022 772000                    QRL     18
         4 000524   210004 116100                    CMPQ    INDX,,AUTO
         4 000525   000226 605400 4                  TPNZ    s:8161

      288     8246
      289     8247    2               IF XUH_PARAM.HELP_CODE#.PACCT = ' ' THEN

   8247  4 000526   040000 106400                    CMPC    fill='040'O
         4 000527   000074 600010 2                  ADSC9   XUH_PARAM+30             cn=3,n=8
         4 000530   000035 000001 xsym               ADSC9   B_VECTNIL+29             cn=0,n=1
         4 000531   000542 601000 4                  TNZ     GET_HFILE

      290     8248    3                 DO;

      291     8249    3                   XUH_PARAM.HELP_CODE#.PNAME.LEN = 3;

   8249  4 000532   000003 236007                    LDQ     3,DL
         4 000533   000064 552004 2                  STBQ    XUH_PARAM+22,'04'O

      292     8250    3                   XUH_PARAM.HELP_CODE#.PNAME.TEXT = 'TPA';

   8250  4 000534   040000 100400                    MLR     fill='040'O
         4 000535   000306 000003 1                  ADSC9   CODE_HELP_POST+2         cn=0,n=3
         4 000536   000065 000037 2                  ADSC9   XUH_PARAM+23             cn=0,n=31

      293     8251    3                   XUH_PARAM.HELP_CODE#.PACCT = ':SYS';

   8251  4 000537   040000 100400                    MLR     fill='040'O
         4 000540   000305 000004 1                  ADSC9   CODE_HELP_POST+1         cn=0,n=4
         4 000541   000074 600010 2                  ADSC9   XUH_PARAM+30             cn=3,n=8

      294     8252    3                 END;

      295     8253
PL6.E3A0      #001=QQB$HELP File=QQB$HELP.:E05TSI                                WED 07/30/97 05:30 Page:50
      296     8254    2           END;                            /* of outer Do case                   */

      297     8255
      298     8256    1   GET_HFILE:
      299     8257    1           FPT_HELP.PROCNAME_ = VECTOR(XUH_PARAM.HELP_CODE#.PNAME);

   8257  4 000542   000014 237000 5     GET_HFILE    LDAQ    12
         4 000543   200044 757100                    STAQ    FPT_HELP+8,,AUTO

      300     8258    1           FPT_HELP.PROCACCT_ = VECTOR(XUH_PARAM.HELP_CODE#.PACCT);

   8258  4 000544   000016 237000 5                  LDAQ    14
         4 000545   200046 757100                    STAQ    FPT_HELP+10,,AUTO

      301     8259    1           FPT_HELP.PROCPASS_ = VECTOR(XUH_PARAM.HELP_CODE#.PPASS);

   8259  4 000546   000020 237000 5                  LDAQ    16
         4 000547   200050 757100                    STAQ    FPT_HELP+12,,AUTO

      302     8260
      303     8261    1           CALL M$HELP (FPT_HELP) ALTRET(MON_ERR);

   8261  4 000550   200034 630500                    EPPR0   FPT_HELP,,AUTO
         4 000551   420024 713400                    CLIMB   alt,+8212
         4 000552   404000 401760                    pmme    nvectors=9
         4 000553   000631 702000 4                  TSX2    MON_ERR

      304     8262    1           IF NOT FPT_HELP.V.LIST# THEN

   8262  4 000554   200057 236100                    LDQ     FPT_HELP+19,,AUTO
         4 000555   000010 316007                    CANQ    8,DL
         4 000556   000564 601000 4                  TNZ     s:8268

      305     8263    2             DO;

      306     8264    2               XUH_PARAM.HELP_CODE#.LEN = HELP_RESULTS.CODEUSED.LEN;

PL6.E3A0      #001=QQB$HELP File=QQB$HELP.:E05TSI                                WED 07/30/97 05:30 Page:51
   8264  4 000557   200144 236100                    LDQ     HELP_RESULTS+4,,AUTO
         4 000560   000054 552040 2                  STBQ    XUH_PARAM+14,'40'O

      307     8265    2               XUH_PARAM.HELP_CODE#.TEXT = HELP_RESULTS.CODEUSED.TEXT;

   8265  4 000561   040000 100500                    MLR     fill='040'O
         4 000562   200144 200042                    ADSC9   HELP_RESULTS+4,,AUTO     cn=1,n=34
         4 000563   000054 200042 2                  ADSC9   XUH_PARAM+14             cn=1,n=34

      308     8266    2             END;

      309     8267
      310     8268    1           NOMSG = HELP_RESULTS.NOMSG;

   8268  4 000564   200140 236100                    LDQ     HELP_RESULTS,,AUTO
         4 000565   000002 736000                    QLS     2
         4 000566   400000 376003                    ANQ     -131072,DU
         4 000567   000130 756000 2                  STQ     NOMSG

      311     8269    1           F_FDS.BUF_ = VECTOR(BUF);

   8269  4 000570   000011 235000 5                  LDA     9
         4 000571   210042 452500                    STP2    S$+3,,AUTO
         4 000572   210042 236100                    LDQ     S$+3,,AUTO
         4 000573   000156 036003                    ADLQ    110,DU
         4 000574   000005 755000 2                  STA     F_FDS+5
         4 000575   000006 756000 2                  STQ     F_FDS+6

      312     8270    1           F_FDS.VECTR$ = ADDR(DATA_VECTORS);

   8270  4 000576   210010 630500                    EPPR0   DATA_VECTORS,,AUTO
         4 000577   000012 450400 2                  STP0    F_FDS+10

      313     8271    1           F_FDS.NVECS# = 1;

   8271  4 000600   000001 235007                    LDA     1,DL
         4 000601   000011 755000 2                  STA     F_FDS+9
PL6.E3A0      #001=QQB$HELP File=QQB$HELP.:E05TSI                                WED 07/30/97 05:30 Page:52

      314     8272    1           F_FDS.FMT_ = VECTOR(FORMAT);

   8272  4 000602   000022 237000 5                  LDAQ    18
         4 000603   000000 757000 2                  STAQ    F_FDS

      315     8273
      316     8274    2           DO INDX = 0 TO HELP_RESULTS.RECCNT - 1;

   8274  4 000604   210004 450100                    STZ     INDX,,AUTO
         4 000605   000624 710000 4                  TRA     s:8277+1

      317     8275    2             DATA_VECTORS = VECTOR(BUFFER(INDX));

   8275  4 000606   000024 235000 5                  LDA     20
         4 000607   210042 452500                    STP2    S$+3,,AUTO
         4 000610   210004 236100                    LDQ     INDX,,AUTO
         4 000611   210043 755100                    STA     S$+4,,AUTO
         4 000612   000025 402000 5                  MPY     21
         4 000613   000202 036003                    ADLQ    130,DU
         4 000614   210042 036100                    ADLQ    S$+3,,AUTO
         4 000615   210043 235100                    LDA     S$+4,,AUTO
         4 000616   210010 757100                    STAQ    DATA_VECTORS,,AUTO

      318     8276    2             CALL X$FORMAT(F_FDS);

   8276  4 000617   000026 630400 5                  EPPR0   22
         4 000620   000017 631400 xsym               EPPR1   B_VECTNIL+15
         4 000621   000000 701000 xent               TSX1    X$FORMAT
         4 000622   000000 011000                    NOP     0

      319     8277    2           END;                            /* of DO loop                         */

   8277  4 000623   210004 054100                    AOS     INDX,,AUTO
         4 000624   200141 236100                    LDQ     HELP_RESULTS+1,,AUTO
         4 000625   777777 376007                    ANQ     -1,DL
         4 000626   210004 116100                    CMPQ    INDX,,AUTO
PL6.E3A0      #001=QQB$HELP File=QQB$HELP.:E05TSI                                WED 07/30/97 05:30 Page:53
         4 000627   000606 605400 4                  TPNZ    s:8275

      320     8278
      321     8279    1           RETURN;

   8279  4 000630   000000 702200 xent               TSX2  ! X66_ARET

      322     8280
      323     8281    1   MON_ERR:
      324     8282    1           IF HELP_RESULTS.NNATIVE OR

   8282  4 000631   200140 236100       MON_ERR      LDQ     HELP_RESULTS,,AUTO
         4 000632   002000 316003                    CANQ    1024,DU
         4 000633   000642 601000 4                  TNZ     s:8285
         4 000634   000000 470400 xsym               LDP0    B$TCB$
         4 000635   000000 471500                    LDP1    0,,PR0
         4 000636   100102 236100                    LDQ     66,,PR1
         4 000637   377770 376007                    ANQ     131064,DL
         4 000640   015100 116007                    CMPQ    6720,DL
         4 000641   000652 601000 4                  TNZ     s:8294

      325     8283    1               B$TCB.ALT$ -> B$ALT.ERR.CODE = 840 THEN /* No help file    */
      326     8284    2             DO;

      327     8285    2               IF KEYWORD1.NAME# = ' ' THEN

   8285  4 000642   040000 106500                    CMPC    fill='040'O
         4 000643   200106 200037                    ADSC9   KEYWORD1,,AUTO           cn=1,n=31
         4 000644   000035 000001 xsym               ADSC9   B_VECTNIL+29             cn=0,n=1
         4 000645   000651 601000 4                  TNZ     s:8291

      328     8286    3                 DO;

      329     8287    3                   QQ_CMDBLK.MINOR_ERR = CODE_NOHELP;

   8287  4 000646   000300 236000 1                  LDQ     CODE_NOHELP
         4 000647   000001 756000 xsym               STQ     QQ_CMDBLK+1
PL6.E3A0      #001=QQB$HELP File=QQB$HELP.:E05TSI                                WED 07/30/97 05:30 Page:54

      330     8288    3                   GOTO MSG_PRINT;

   8288  4 000650   000676 710000 4                  TRA     MSG_PRINT

      331     8289    3                 END;
      332     8290
      333     8291    2               GOTO BAD_TOPIC;

   8291  4 000651   000660 710000 4                  TRA     BAD_TOPIC

      334     8292    2             END;
      335     8293
      336     8294    1           IF B$TCB.ALT$ -> B$ALT.ERR.CODE = 841 OR /* Bad topic          */

   8294  4 000652   015110 116007                    CMPQ    6728,DL
         4 000653   000660 600000 4                  TZE     BAD_TOPIC
         4 000654   015140 116007                    CMPQ    6752,DL
         4 000655   000660 600000 4                  TZE     BAD_TOPIC
         4 000656   004550 116007                    CMPQ    2408,DL
         4 000657   000667 601000 4                  TNZ     s:8304

      337     8295    1               B$TCB.ALT$ -> B$ALT.ERR.CODE = 844 OR /* No topic          */
      338     8296    1               B$TCB.ALT$ -> B$ALT.ERR.CODE = 301 THEN /* No such topic   */
      339     8297    2             DO;

      340     8298    2   BAD_TOPIC:
      341     8299    2               NOMSG = HELP_RESULTS.NOMSG;

   8299  4 000660   200140 236100       BAD_TOPIC    LDQ     HELP_RESULTS,,AUTO
         4 000661   000002 736000                    QLS     2
         4 000662   400000 376003                    ANQ     -131072,DU
         4 000663   000130 756000 2                  STQ     NOMSG

      342     8300    2               QQ_CMDBLK.MINOR_ERR = CODE_NOHTOPIC;

   8300  4 000664   000302 236000 1                  LDQ     CODE_NOHTOPIC
PL6.E3A0      #001=QQB$HELP File=QQB$HELP.:E05TSI                                WED 07/30/97 05:30 Page:55
         4 000665   000001 756000 xsym               STQ     QQ_CMDBLK+1

      343     8301    2               GOTO MSG_PRINT;

   8301  4 000666   000676 710000 4                  TRA     MSG_PRINT

      344     8302    2             END;
      345     8303
      346     8304    1           IF B$TCB.ALT$ -> B$ALT.ERR.CODE = 842 THEN /* No more       */

   8304  4 000667   015120 116007                    CMPQ    6736,DL
         4 000670   000674 601000 4                  TNZ     FID_ERR

      347     8305    2             DO;

      348     8306    2               QQ_CMDBLK.MINOR_ERR = CODE_NOMORE;

   8306  4 000671   000276 236000 1                  LDQ     CODE_NOMORE
         4 000672   000001 756000 xsym               STQ     QQ_CMDBLK+1

      349     8307    2             END;

   8307  4 000673   000676 710000 4                  TRA     MSG_PRINT

      350     8308    1           ELSE
      351     8309    1   FID_ERR:
      352     8310    2             DO;

   8310  4 000674                       FID_ERR      null
      353     8311    2               QQ_CMDBLK.MINOR_ERR = CODE_UNKNOWN;

   8311  4 000674   000301 236000 1                  LDQ     CODE_UNKNOWN
         4 000675   000001 756000 xsym               STQ     QQ_CMDBLK+1

      354     8312    2             END;

      355     8313
PL6.E3A0      #001=QQB$HELP File=QQB$HELP.:E05TSI                                WED 07/30/97 05:30 Page:56
      356     8314    1   MSG_PRINT:
      357     8315    1           CALL QQC$BLDMSG_BLK(MSGBLK);

   8315  4 000676   210012 630500       MSG_PRINT    EPPR0   MSGBLK,,AUTO
         4 000677   210042 450500                    STP0    S$+3,,AUTO
         4 000700   210042 630500                    EPPR0   S$+3,,AUTO
         4 000701   000017 631400 xsym               EPPR1   B_VECTNIL+15
         4 000702   000000 701000 xent               TSX1    QQC$BLDMSG_BLK
         4 000703   000000 011000                    NOP     0

      358     8316    1           CALL QQC$BLDMSG(MSGBLK);

   8316  4 000704   210012 630500                    EPPR0   MSGBLK,,AUTO
         4 000705   210042 450500                    STP0    S$+3,,AUTO
         4 000706   210042 630500                    EPPR0   S$+3,,AUTO
         4 000707   000017 631400 xsym               EPPR1   B_VECTNIL+15
         4 000710   000000 701000 xent               TSX1    QQC$BLDMSG
         4 000711   000000 011000                    NOP     0

      359     8317
      360     8318    1           RETURN;

   8318  4 000712   000000 702200 xent               TSX2  ! X66_ARET

      361     8319        %PAGE(ARG="GET_XUH_PARAM",PAGE=YES);

PL6.E3A0      #001=QQB$HELP File=QQB$HELP.:E05TSI                                WED 07/30/97 05:30 Page:57
              8336    1   /***************************************************************************
              8337    1    *                                                                         *
              8338    1    *                               GET_XUH_PARAM                             *
              8339    1    *                                                                         *
              8340    1    ***************************************************************************/

      362     8344    1   GET_XUH_PARAM:

   8344  4 000713   210040 741300       GET_XUH_PAR* STX1  ! S$+1,,AUTO

      363     8345    1           PROC ALTRET;
      364     8346
      365     8347    2           IF DCBADDR(DCBNUM(M$THLP))->F$DCB.FCD# = '0'B THEN

   8347  4 000714   000000 236007 xsym               LDQ     M$THLP,DL
         4 000715   000027 470400 5                  LDP0    23
         4 000716   000000 471500                    LDP1    0,,PR0
         4 000717   100000 473506                    LDP3    0,QL,PR1
         4 000720   300031 236100                    LDQ     25,,PR3
         4 000721   020000 316007                    CANQ    8192,DL
         4 000722   000750 601000 4                  TNZ     s:8357

      366     8348    3             DO;

      367     8349    3               CALL M$OPEN(FPT_OPEN) WHENALTRETURN

   8349  4 000723   000000 630400 1                  EPPR0   FPT_OPEN
         4 000724   450000 713400                    CLIMB   alt,open
         4 000725   410400 401760                    pmme    nvectors=18
         4 000726   000730 702000 4                  TSX2    s:8351
         4 000727   000750 710000 4                  TRA     s:8357

      368     8350    4                 DO;

      369     8351    4                   QQ_CMDBLK.MINOR_ERR = CODE_HELP_POST;

   8351  4 000730   000304 236000 1                  LDQ     CODE_HELP_POST
PL6.E3A0      #001=QQB$HELP File=QQB$HELP.:E05TSI                                WED 07/30/97 05:30 Page:58
         4 000731   000001 756000 xsym               STQ     QQ_CMDBLK+1

      370     8352    4                   CALL QQC$BLDMSG_BLK(MSGBLK);

   8352  4 000732   210012 630500                    EPPR0   MSGBLK,,AUTO
         4 000733   210042 450500                    STP0    S$+3,,AUTO
         4 000734   210042 630500                    EPPR0   S$+3,,AUTO
         4 000735   000017 631400 xsym               EPPR1   B_VECTNIL+15
         4 000736   000000 701000 xent               TSX1    QQC$BLDMSG_BLK
         4 000737   000000 011000                    NOP     0

      371     8353    4                   CALL QQC$BLDMSG(MSGBLK);

   8353  4 000740   210012 630500                    EPPR0   MSGBLK,,AUTO
         4 000741   210042 450500                    STP0    S$+3,,AUTO
         4 000742   210042 630500                    EPPR0   S$+3,,AUTO
         4 000743   000017 631400 xsym               EPPR1   B_VECTNIL+15
         4 000744   000000 701000 xent               TSX1    QQC$BLDMSG
         4 000745   000000 011000                    NOP     0

      372     8354    4                   ALTRETURN;

   8354  4 000746   210040 221300                    LDX1  ! S$+1,,AUTO
         4 000747   000000 702211                    TSX2  ! 0,X1

      373     8355    4                 END;
      374     8356    3             END;

      375     8357    2           HELP_DATA_R = XUH_PARAM;

   8357  4 000750   000000 100400                    MLR     fill='000'O
         4 000751   000036 000344 2                  ADSC9   XUH_PARAM                cn=0,n=228
         4 000752   000134 000351 2                  ADSC9   HELP_DATA                cn=0,n=233

      376     8358    2           HELP_DATA_R.NOMSG_DATA.NOMSG_VALUE = NOMSG;

   8358  4 000753   000130 236000 2                  LDQ     NOMSG
PL6.E3A0      #001=QQB$HELP File=QQB$HELP.:E05TSI                                WED 07/30/97 05:30 Page:59
         4 000754   000226 676000 2                  ERQ     HELP_DATA+58
         4 000755   400000 376003                    ANQ     -131072,DU
         4 000756   000226 656000 2                  ERSQ    HELP_DATA+58

      377     8359    2           HELP_STATION.NAME# = QQ_GLOBAL.HELP_S$->TP$STATION.ID;

   8359  4 000757   000070 470400 xsym               LDP0    QQ_GLOBAL+56
         4 000760   040000 100500                    MLR     fill='040'O
         4 000761   000000 000010                    ADSC9   0,,PR0                   cn=0,n=8
         4 000762   000131 200010 2                  ADSC9   HELP_STATION             cn=1,n=8

      378     8360    2           CALL M$WRITE(FPT_WRITE) ALTRET(SET_STATION);

   8360  4 000763   000110 630400 1                  EPPR0   FPT_WRITE
         4 000764   440001 713400                    CLIMB   alt,write
         4 000765   401400 401760                    pmme    nvectors=4
         4 000766   000767 702000 4                  TSX2    SET_STATION

      379     8361    2   SET_STATION:
      380     8362    2           HELP_STATION.NAME# = QQ_CMDBLK.S$->TP$STATION.ID;

   8362  4 000767   000004 470400 xsym  SET_STATION  LDP0    QQ_CMDBLK+4
         4 000770   040000 100500                    MLR     fill='040'O
         4 000771   000000 000010                    ADSC9   0,,PR0                   cn=0,n=8
         4 000772   000131 200010 2                  ADSC9   HELP_STATION             cn=1,n=8

      381     8363    2           QQ_GLOBAL.HELP_S$ = QQ_CMDBLK.S$;

   8363  4 000773   000004 236000 xsym               LDQ     QQ_CMDBLK+4
         4 000774   000070 756000 xsym               STQ     QQ_GLOBAL+56

      382     8364    2           IF QQ_CMDBLK.CODE = 15 /* HELP */ THEN

   8364  4 000775   000006 235000 xsym               LDA     QQ_CMDBLK+6
         4 000776   000017 115007                    CMPA    15,DL
         4 000777   001005 601000 4                  TNZ     s:8369

PL6.E3A0      #001=QQB$HELP File=QQB$HELP.:E05TSI                                WED 07/30/97 05:30 Page:60
      383     8365    3             DO;

      384     8366    3               XUH_PARAM = CXUH_PARAM;

   8366  4 001000   000000 100400                    MLR     fill='000'O
         4 001001   000204 000344 1                  ADSC9   CXUH_PARAM               cn=0,n=228
         4 001002   000036 000344 2                  ADSC9   XUH_PARAM                cn=0,n=228

      385     8367    3               RETURN;

   8367  4 001003   210040 221300                    LDX1  ! S$+1,,AUTO
         4 001004   000001 702211                    TSX2  ! 1,X1

      386     8368    3             END;
      387     8369    2           CALL M$READ(FPT_READ) WHENALTRETURN

   8369  4 001005   000072 630400 1                  EPPR0   FPT_READ
         4 001006   440000 713400                    CLIMB   alt,read
         4 001007   401400 401760                    pmme    nvectors=4
         4 001010   001012 702000 4                  TSX2    s:8371
         4 001011   001045 710000 4                  TRA     s:8381

      388     8370    3             DO;

      389     8371    3               IF B$TCB.ALT$->B$ALT.ERR.CODE = 66 THEN /* No key for station*/

   8371  4 001012   000000 470400 xsym               LDP0    B$TCB$
         4 001013   000000 471500                    LDP1    0,,PR0
         4 001014   100102 236100                    LDQ     66,,PR1
         4 001015   377770 376007                    ANQ     131064,DL
         4 001016   001020 116007                    CMPQ    528,DL
         4 001017   001025 601000 4                  TNZ     s:8376

      390     8372    4                 DO;

      391     8373    4                   XUH_PARAM = CXUH_PARAM;

PL6.E3A0      #001=QQB$HELP File=QQB$HELP.:E05TSI                                WED 07/30/97 05:30 Page:61
   8373  4 001020   000000 100400                    MLR     fill='000'O
         4 001021   000204 000344 1                  ADSC9   CXUH_PARAM               cn=0,n=228
         4 001022   000036 000344 2                  ADSC9   XUH_PARAM                cn=0,n=228

      392     8374    4                   RETURN;

   8374  4 001023   210040 221300                    LDX1  ! S$+1,,AUTO
         4 001024   000001 702211                    TSX2  ! 1,X1

      393     8375    4                 END;
      394     8376    3               QQ_CMDBLK.MINOR_ERR = CODE_HELP_POST;

   8376  4 001025   000304 236000 1                  LDQ     CODE_HELP_POST
         4 001026   000001 756000 xsym               STQ     QQ_CMDBLK+1

      395     8377    3               CALL QQC$BLDMSG_BLK(MSGBLK);

   8377  4 001027   210012 631500                    EPPR1   MSGBLK,,AUTO
         4 001030   210042 451500                    STP1    S$+3,,AUTO
         4 001031   210042 630500                    EPPR0   S$+3,,AUTO
         4 001032   000017 631400 xsym               EPPR1   B_VECTNIL+15
         4 001033   000000 701000 xent               TSX1    QQC$BLDMSG_BLK
         4 001034   000000 011000                    NOP     0

      396     8378    3               CALL QQC$BLDMSG(MSGBLK);

   8378  4 001035   210012 630500                    EPPR0   MSGBLK,,AUTO
         4 001036   210042 450500                    STP0    S$+3,,AUTO
         4 001037   210042 630500                    EPPR0   S$+3,,AUTO
         4 001040   000017 631400 xsym               EPPR1   B_VECTNIL+15
         4 001041   000000 701000 xent               TSX1    QQC$BLDMSG
         4 001042   000000 011000                    NOP     0

      397     8379    3               ALTRETURN;

   8379  4 001043   210040 221300                    LDX1  ! S$+1,,AUTO
         4 001044   000000 702211                    TSX2  ! 0,X1
PL6.E3A0      #001=QQB$HELP File=QQB$HELP.:E05TSI                                WED 07/30/97 05:30 Page:62

      398     8380    3             END;
      399     8381    2           XUH_PARAM = HELP_DATA_R;

   8381  4 001045   000000 100400                    MLR     fill='000'O
         4 001046   000134 000344 2                  ADSC9   HELP_DATA                cn=0,n=228
         4 001047   000036 000344 2                  ADSC9   XUH_PARAM                cn=0,n=228

      400     8382    2           NOMSG = HELP_DATA_R.NOMSG_DATA.NOMSG_VALUE;

   8382  4 001050   000226 236000 2                  LDQ     HELP_DATA+58
         4 001051   400000 376003                    ANQ     -131072,DU
         4 001052   000130 756000 2                  STQ     NOMSG

      401     8383    2           RETURN;

   8383  4 001053   210040 221300                    LDX1  ! S$+1,,AUTO
         4 001054   000001 702211                    TSX2  ! 1,X1
      402     8384    2   END GET_XUH_PARAM;
      403     8385    1   END QQB$HELP;

PL6.E3A0      #001=QQB$HELP File=QQB$HELP.:E05TSI                                WED 07/30/97 05:30 Page:63
--  Include file information  --

   XUH_PERR_C.:E05TOU  is referenced.
   XU_FORMAT_C.:E05TOU  is referenced.
   XU_MACRO_C.:E05TOU  is referenced.
   XUH_MACRO_C.:E05TOU  is referenced.
   QQ_SUBS_C.:E05TOU  is referenced.
   QQ_DATA_R.:E05TOU  cannot be made into a system file and is referenced.
   QQ_MACROS_C.:E05TOU  is referenced.
   QQ_PERR_C.:E05TOU  is referenced.
   Q_ERRCODE_C.:E05TOU  is referenced.
   CP_6_SUBS.:E05TOU  is referenced.
   CP_6.:E05TOU  cannot be made into a system file and is referenced.
   B_MACROS_C.:E05TOU  is referenced.
   B$JIT.:E05TOU  cannot be made into a system file and is referenced.
   B_ERRORS_C.:E05TOU  is referenced.
   Q_PAGE_C.:E05TOU  is referenced.
   B$JIT_C.:E05TOU  was found in the system file and is referenced.
   CP_6_C.:E05TOU  was found in the system file and is referenced.
      No diagnostics issued in procedure QQB$HELP.
PL6.E3A0      #001=QQB$HELP File=QQB$HELP.:E05TSI                                WED 07/30/97 05:30 Page:64

 **** Variables and constants ****

  ****  Section 001 RoData QQB$HELP

  ****  Scalars and arrays  ****
OctLoc.c.b A Datatyp(siz) R M Lvl/name                 OctLoc.c.b A Datatyp(siz) R M Lvl/name

   124-0-0/d STRC(864)   r     1 CFPT_FID                 154-0-0/d STRC(792)   r     1 CFPT_HELP
   303-0-0/b STRC        r     1 CODE_BADCOMMAND          277-0-0/b STRC        r     1 CODE_BAD_FID
   304-0-0/b STRC        r     1 CODE_HELP_POST           300-0-0/b STRC        r     1 CODE_NOHELP
   302-0-0/b STRC        r     1 CODE_NOHTOPIC            276-0-0/b STRC        r     1 CODE_NOMORE
   301-0-0/b STRC        r     1 CODE_UNKNOWN             204-0-0/d STRC(2052)  r     1 CXUH_PARAM
   202-0-0/c CHAR(2)     r     1 FORMAT                     0-0-0/d STRC(2088)  r     1 FPT_OPEN
    72-0-0/d STRC(504)   r     1 FPT_READ                 110-0-0/d STRC(432)   r     1 FPT_WRITE

  ****  Section 002  Data  QQB$HELP

  ****  Scalars and arrays  ****
OctLoc.c.b A Datatyp(siz) R M Lvl/name                 OctLoc.c.b A Datatyp(siz) R M Lvl/name

     0-0-0/w STRC(1080)  r     1 F_FDS                    134-0-0/c CHAR(233)   r     1 HELP_DATA
   134-0-0/c STRC(2097)  r     1 HELP_DATA_R              131-0-0/c STRC(81)    r     1 HELP_STATION
   130-0-0/w BIT         r     1 NOMSG                     36-0-0/d STRC(2052)  r     1 XUH_PARAM

  ****  Auto variables  ****

  ****  Scalars and arrays  ****
OctLoc.c.b A Datatyp(siz) R M Lvl/name                 OctLoc.c.b A Datatyp(siz) R M Lvl/name

   156-0-0/c CHAR(80)    r     1 BUF                      202-0-0/c CHAR(79)    r     1 BUFFER(0:200)
 10010-0-0/w STRC(72)    r     1 DATA_VECTORS              72-0-0/c STRC(72)    r     1 FID_ACCT
 10005-0-0/w UBIN(9)     r     1 FID_ASN                   62-0-0/c STRC(288)   r     1 FID_NAME
    74-0-0/c STRC(72)    r     1 FID_PASS               10006-0-0/c CHAR(4)     r     1 FID_RES
   126-0-0/d STRC(324)   r     1 FID_RESULTS              100-0-0/d STRC(198)   r     1 FID_SN
    76-0-0/c STRC(72)    r     1 FID_WSN                    4-0-0/d STRC(864)   r     1 FPT_FID
    34-0-0/d STRC(792)   r     1 FPT_HELP                 140-0-0/d STRC(504)   r     1 HELP_RESULTS
 10004-0-0/w SBIN        r     1 INDX                     106-0-0/c STRC(288)   r     1 KEYWORD1
PL6.E3A0      #001=QQB$HELP File=QQB$HELP.:E05TSI                                WED 07/30/97 05:30 Page:65
   116-0-0/c STRC(288)   r     1 KEYWORD2               10012-0-0/w STRC(738)   r     1 MSGBLK
 10007-0-0/w PTR         r     1 P$                     10037-0-0/w PTR         r     1 S$

  ****  SYMREF variables  ****

  ****  Scalars and arrays  ****
OctLoc.c.b A Datatyp(siz) R M Lvl/name                 OctLoc.c.b A Datatyp(siz) R M Lvl/name

     0-0-0/w PTR         r     1 B$JIT$                     0-0-0/w PTR         r     1 B$TCB$
     0-0-0/w STRC(315)   r     1 QQ_CMDBLK                  0-0-0/d STRC(9090)  r     1 QQ_GLOBAL

  ****  BASED and DCB variables  ****

  ****  Scalars and arrays  ****
OctLoc.c.b A Datatyp(siz) R M Lvl/name                 OctLoc.c.b A Datatyp(siz) R M Lvl/name

     0-0-0/w STRC(2448)  r     1 B$ALT                      0-0-0/d STRC(8856)  r     1 B$JIT
     0-0-0/w STRC(144)   r     1 B$TCB                      0-0-0/d ASTR(3528)  r     1 F$DCB
     0-0-0N  NULL        r     1 M$THLP                     0-0-0/w STRC(144)   r     1 OUT$BLK
     0-0-0/w ASTR(153)   r     1 OUT$SYM                    0-0-0/w STRC(909)   r     1 TP$STATION
     0-0-0/c ASTR(9)     r     1 X$STRING


   Procedure QQB$HELP requires 557 words for executable code.
   Procedure QQB$HELP requires 4132 words of local(AUTO) storage.

    No errors detected in file QQB$HELP.:E05TSI    .
PL6.E3A0      #001=QQB$HELP File=QQB$HELP.:E05TSI                                WED 07/30/97 05:30 Page:66
          *** CROSS REFERENCE LISTING ***
**     DENOTES     IDENTIFIER DEFINITION
<<                 IDENTIFIER'S VALUE SET
>>                 IDENTIFIER'S VALUE USED
<>                 IDENTIFIER SET AND/OR USED
--                 IDENTIFIER REFERENCED
PL6.E3A0      #001=QQB$HELP File=QQB$HELP.:E05TSI                                WED 07/30/97 05:30 Page:67
          MINI XREF LISTING

B$ALT.CODE
      7746**DCL      7746--REDEF    7747--REDEF    7747--REDEF
B$ALT.ERR.CODE
      7748**DCL      8282>>IF       8294>>IF       8294>>IF       8294>>IF       8304>>IF       8371>>IF
B$ALT.ERR.ERR#
      7748**DCL      7748--REDEF
B$ALT.EVID
      7747**DCL      7747--REDEF    7747--REDEF
B$JIT.CPFLAGS1.SLEAZE
      1304**DCL      1304--REDEF
B$JIT.ERR.MID
      1211**DCL      1211--REDEF
B$JIT.FACCN
      1210**DCL      8209>>ASSIGN
B$JIT.JRESPEAK
      1372**DCL      1373--REDEF
B$JIT.ORIGINATOR_PORT.FROM_CR
      1481**DCL      1481--REDEF    1482--REDEF
B$JIT.PNR
      1385**DCL      1385--REDEF
B$JIT.TSLINE
      1479**DCL      1480--REDEF
B$JIT$
      7942**DCL      1205--IMP-PTR  8209>>ASSIGN
B$TCB.ALT$
      7685**DCL      8282>>IF       8294>>IF       8294>>IF       8294>>IF       8304>>IF       8371>>IF
B$TCB$
      7943**DCL      7685--IMP-PTR  8282>>IF       8294>>IF       8294>>IF       8294>>IF       8304>>IF
      8371>>IF
BAD_TOPIC
      8299**LABEL    8291--GOTO
BUF
PL6.E3A0      #001=QQB$HELP File=QQB$HELP.:E05TSI                                WED 07/30/97 05:30 Page:68
      7474**DCL      8269--ASSIGN
BUFFER
      7475**DCL      8111--ASSIGN   8275--ASSIGN
CFPT_FID
      6901**DCL      8164>>ASSIGN
CFPT_FID.V
      6905**DCL      6901--DCLINIT
CFPT_HELP
      6945**DCL      8109>>ASSIGN
CFPT_HELP.V
      6949**DCL      6945--DCLINIT
CODE_BADCOMMAND
      8031**DCL      8140>>ASSIGN
CODE_BAD_FID
      8003**DCL      8182>>ASSIGN
CODE_HELP_POST
      8038**DCL      8351>>ASSIGN   8376>>ASSIGN
CODE_NOHELP
      8010**DCL      8287>>ASSIGN
CODE_NOHTOPIC
      8024**DCL      8300>>ASSIGN
CODE_NOMORE
      7996**DCL      8306>>ASSIGN
CODE_UNKNOWN
      8017**DCL      8311>>ASSIGN
CXUH_PARAM
      7876**DCL      8124>>ASSIGN   8366>>ASSIGN   8373>>ASSIGN
DATA_VECTORS
      7483**DCL      8270--ASSIGN   8275<<ASSIGN
F$DCB.ACTPOS
      7720**DCL      7720--REDEF
F$DCB.ARS#
      7694**DCL      7694--REDEF
F$DCB.ATTR
      7713**DCL      7714--REDEF
F$DCB.BORROW
PL6.E3A0      #001=QQB$HELP File=QQB$HELP.:E05TSI                                WED 07/30/97 05:30 Page:69
      7728**DCL      7728--REDEF    7728--REDEF    7728--REDEF
F$DCB.DCBNAME.L
      7742**DCL      7742--IMP-SIZ
F$DCB.EOMCHAR#
      7698**DCL      7698--REDEF
F$DCB.FCD#
      7707**DCL      8347>>IF
F$DCB.FLDID
      7723**DCL      7723--REDEF
F$DCB.FORM$
      7717**DCL      7717--REDEF
F$DCB.FSECT
      7733**DCL      7733--REDEF
F$DCB.FSN#
      7710**DCL      7710--REDEF    7710--REDEF    7711--REDEF
F$DCB.HEADER$
      7716**DCL      7716--REDEF
F$DCB.IXTNSIZE#
      7714**DCL      7714--REDEF
F$DCB.LASTSTA$
      7703**DCL      7703--REDEF
F$DCB.LVL
      7729**DCL      7729--REDEF
F$DCB.NAME#.C
      7704**DCL      7704--REDEF
F$DCB.NOEOF
      7726**DCL      7726--REDEF
F$DCB.NRECS#
      7715**DCL      7715--REDEF
F$DCB.NRECX
      7734**DCL      7734--REDEF
F$DCB.OHDR
      7726**DCL      7726--REDEF
F$DCB.ORG#
      7709**DCL      7709--REDEF
F$DCB.PRECNO
PL6.E3A0      #001=QQB$HELP File=QQB$HELP.:E05TSI                                WED 07/30/97 05:30 Page:70
      7732**DCL      7732--REDEF
F$DCB.RCSZ
      7738**DCL      7738--REDEF
F$DCB.RES#
      7705**DCL      7705--REDEF
F$DCB.SETX
      7717**DCL      7717--REDEF
F$DCB.TAB$
      7717**DCL      7717--REDEF
F$DCB.TDA
      7731**DCL      7732--REDEF
F$DCB.WSN#
      7705**DCL      7705--REDEF
FID_ACCT
      7018**DCL      8168--ASSIGN
FID_ACCT.ACCT#
      7018**DCL      8208>>IF       8211>>ASSIGN
FID_ASN
      7478**DCL      8172--ASSIGN   8177>>IF
FID_ERR
      8310**LABEL    8175--CALLALT
FID_NAME
      7005**DCL      8167--ASSIGN   8198>>ASSIGN
FID_NAME.L#
      7005**DCL      8190>>IF
FID_NAME.NAME#
      7005**DCL      8190>>IF
FID_PASS
      7031**DCL      8169--ASSIGN
FID_PASS.PASS#
      7031**DCL      8220>>ASSIGN
FID_RES
      7479**DCL      8173--ASSIGN
FID_RESULTS
      7203**DCL      8174--ASSIGN
FID_RESULTS.ACCT
PL6.E3A0      #001=QQB$HELP File=QQB$HELP.:E05TSI                                WED 07/30/97 05:30 Page:71
      7203**DCL      8206>>IF
FID_RESULTS.ASN
      7203**DCL      8177>>IF
FID_RESULTS.NAME
      7203**DCL      8188>>IF
FID_RESULTS.PASS
      7203**DCL      8218>>IF
FID_RESULTS.RES
      7203**DCL      8177>>IF
FID_RESULTS.SN
      7203**DCL      8177>>IF
FID_RESULTS.WSN
      7203**DCL      8177>>IF
FID_SN
      7057**DCL      8170--ASSIGN
FID_WSN
      7044**DCL      8171--ASSIGN
FORMAT
      7855**DCL      7284--DCLINIT  7286--DCLINIT  8272--ASSIGN
FPT_FID
      6878**DCL      8164<<ASSIGN   8175<>CALL
FPT_FID.ACCT_
      6879**DCL      8168<<ASSIGN
FPT_FID.ASN_
      6881**DCL      8172<<ASSIGN
FPT_FID.NAME_
      6879**DCL      8167<<ASSIGN
FPT_FID.PASS_
      6879**DCL      8169<<ASSIGN
FPT_FID.RESULTS_
      6881**DCL      8174<<ASSIGN
FPT_FID.RES_
      6881**DCL      8173<<ASSIGN
FPT_FID.SN_
      6880**DCL      8170<<ASSIGN
FPT_FID.TEXTFID_
PL6.E3A0      #001=QQB$HELP File=QQB$HELP.:E05TSI                                WED 07/30/97 05:30 Page:72
      6878**DCL      8165<<ASSIGN
FPT_FID.WSN_
      6880**DCL      8171<<ASSIGN
FPT_HELP
      6924**DCL      8109<<ASSIGN   8261<>CALL
FPT_HELP.BUF_
      6925**DCL      8111<<ASSIGN
FPT_HELP.KEY1_
      6924**DCL      8234<<ASSIGN
FPT_HELP.KEY2_
      6924**DCL      8242<<ASSIGN
FPT_HELP.PROCACCT_
      6926**DCL      8258<<ASSIGN
FPT_HELP.PROCNAME_
      6925**DCL      8257<<ASSIGN
FPT_HELP.PROCPASS_
      6926**DCL      8259<<ASSIGN
FPT_HELP.RESULTS_
      6927**DCL      8112<<ASSIGN
FPT_HELP.V
      6928**DCL      8110--ASSIGN
FPT_HELP.V.ALL#
      6930**DCL      8152<<ASSIGN
FPT_HELP.V.LIST#
      6930**DCL      8150<<ASSIGN   8194<<ASSIGN   8203<<ASSIGN   8224<<ASSIGN   8262>>IF
FPT_HELP.V.MORE#
      6931**DCL      8154<<ASSIGN
FPT_HELP.V.OUTDCB1#
      6928**DCL      8113<<ASSIGN
FPT_HELP.V.OUTDCB2#
      6928**DCL      8114<<ASSIGN
FPT_HELP.V.RANGE#
      6931**DCL      8227<<ASSIGN
FPT_HELP.V_
      6924**DCL      8110<<ASSIGN
FPT_OPEN
PL6.E3A0      #001=QQB$HELP File=QQB$HELP.:E05TSI                                WED 07/30/97 05:30 Page:73
      6751**DCL      8349<>CALL
FPT_OPEN.ACSVEH_
      6753**DCL      6754--REDEF
FPT_OPEN.ALTKEYS_
      6759**DCL      6760--REDEF    6760--REDEF
FPT_OPEN.HDR_
      6758**DCL      6759--REDEF
FPT_OPEN.TAB_
      6757**DCL      6758--REDEF
FPT_OPEN.UHL_
      6751**DCL      6752--REDEF    6752--REDEF
FPT_OPEN.V
      6760**DCL      6751--DCLINIT
FPT_OPEN.V.FSN#
      6791**DCL      6791--REDEF    6791--REDEF
FPT_OPEN.WSN_
      6757**DCL      6757--REDEF
FPT_READ
      6813**DCL      8369<>CALL
FPT_READ.STATION_
      6816**DCL      6817--REDEF
FPT_READ.V
      6817**DCL      6813--DCLINIT
FPT_READ.V.DVBYTE.REREAD#
      6828**DCL      6828--REDEF
FPT_READ.V.INDX#
      6826**DCL      6826--REDEF
FPT_WRITE
      6853**DCL      8360<>CALL
FPT_WRITE.STATION_
      6855**DCL      6855--REDEF
FPT_WRITE.V
      6856**DCL      6853--DCLINIT
FPT_WRITE.V.DVBYTE.VFC#
      6862**DCL      6862--REDEF
F_FDS
PL6.E3A0      #001=QQB$HELP File=QQB$HELP.:E05TSI                                WED 07/30/97 05:30 Page:74
      7279**DCL      8276<>CALL
F_FDS.BUF_
      7296**DCL      8269<<ASSIGN
F_FDS.FMT_
      7283**DCL      8272<<ASSIGN
F_FDS.NVECS#
      7307**DCL      8271<<ASSIGN
F_FDS.VECTR$
      7309**DCL      8270<<ASSIGN
GET_XUH_PARAM
      8345**PROC     8130--CALL
HELP_DATA
      7443**DCL      6815--DCLINIT  6816--DCLINIT  6854--DCLINIT  6855--DCLINIT  7444--REDEF
HELP_DATA_R
      7444**DCL      8357<<ASSIGN   8381>>ASSIGN
HELP_DATA_R.NOMSG_DATA.NOMSG_VALUE
      7447**DCL      8358<<ASSIGN   8382>>ASSIGN
HELP_RESULTS
      7223**DCL      8112--ASSIGN   8116<<ASSIGN
HELP_RESULTS.CODEUSED.LEN
      7236**DCL      8146<<ASSIGN   8264>>ASSIGN
HELP_RESULTS.CODEUSED.TEXT
      7237**DCL      8147<<ASSIGN   8265>>ASSIGN
HELP_RESULTS.NNATIVE
      7229**DCL      8282>>IF
HELP_RESULTS.NOMSG
      7227**DCL      8268>>ASSIGN   8299>>ASSIGN
HELP_RESULTS.RECCNT
      7231**DCL      8274>>DOINDEX
HELP_STATION
      7440**DCL      6813--DCLINIT  6814--DCLINIT  6853--DCLINIT
HELP_STATION.NAME#
      7442**DCL      8126<<ASSIGN   8359<<ASSIGN   8362<<ASSIGN
INDX
      7477**DCL      8160<<DOINDEX  8161>>ASSIGN   8274<<DOINDEX  8275>>ASSIGN
KEYWORD1
PL6.E3A0      #001=QQB$HELP File=QQB$HELP.:E05TSI                                WED 07/30/97 05:30 Page:75
      7084**DCL      8234--ASSIGN
KEYWORD1.L#
      7084**DCL      8117<<ASSIGN   8232<<ASSIGN
KEYWORD1.NAME#
      7084**DCL      8118<<ASSIGN   8233<<ASSIGN   8285>>IF
KEYWORD2
      7111**DCL      8242--ASSIGN
KEYWORD2.L#
      7111**DCL      8119<<ASSIGN   8240<<ASSIGN
KEYWORD2.NAME#
      7111**DCL      8120<<ASSIGN   8241<<ASSIGN
M$FID
      1669**DCL-ENT  8175--CALL
M$HELP
      1669**DCL-ENT  8261--CALL
M$OPEN
      1606**DCL-ENT  8349--CALL
M$READ
      1607**DCL-ENT  8369--CALL
M$THLP
      7994**DCL      8347--IF
M$WRITE
      1607**DCL-ENT  8360--CALL
MON_ERR
      8282**LABEL    8261--CALLALT
MSGBLK
      7487**DCL      8141<>CALL     8142<>CALL     8183<>CALL     8184<>CALL     8315<>CALL     8316<>CALL
      8352<>CALL     8353<>CALL     8377<>CALL     8378<>CALL
MSG_PRINT
      8315**LABEL    8288--GOTO     8301--GOTO
NOMSG
      7439**DCL      8149>>IF       8268<<ASSIGN   8299<<ASSIGN   8358>>ASSIGN   8382<<ASSIGN
OUT$BLK.CODE
      7615**DCL      8162>>DOCASE
OUT$BLK.NSUBLKS
      7619**DCL      8160>>DOINDEX
PL6.E3A0      #001=QQB$HELP File=QQB$HELP.:E05TSI                                WED 07/30/97 05:30 Page:76
OUT$BLK.SUBLK$
      7640**DCL      8161>>ASSIGN   8165>>ASSIGN   8165>>ASSIGN
OUT$SYM.COUNT
      7676**DCL      7679--IMP-SIZ  8165>>ASSIGN   8230>>IF       8232>>ASSIGN   8233>>ASSIGN   8238>>IF
      8240>>ASSIGN   8241>>ASSIGN
OUT$SYM.TEXT
      7679**DCL      8165--ASSIGN   8233>>ASSIGN   8241>>ASSIGN
P$
      7481**DCL      8161<<ASSIGN   8162>>DOCASE   8165>>ASSIGN   8165>>ASSIGN   8230>>IF       8232>>ASSIGN
      8233>>ASSIGN   8233>>ASSIGN   8238>>IF       8240>>ASSIGN   8241>>ASSIGN   8241>>ASSIGN
QQC$BLDMSG
      6656**DCL-ENT  8142--CALL     8184--CALL     8316--CALL     8353--CALL     8378--CALL
QQC$BLDMSG_BLK
      6657**DCL-ENT  8141--CALL     8183--CALL     8315--CALL     8352--CALL     8377--CALL
QQC$PRINT_FMT
      6659**DCL-ENT  7333--DCLINIT
QQ_CMDBLK.CODE
      2836**DCL      8133>>DOCASE   8149>>IF       8151>>IF       8364>>IF
QQ_CMDBLK.MINOR_ERR
      2836**DCL      8140<<ASSIGN   8182<<ASSIGN   8287<<ASSIGN   8300<<ASSIGN   8306<<ASSIGN   8311<<ASSIGN
      8351<<ASSIGN   8376<<ASSIGN
QQ_CMDBLK.OUT$
      2836**DCL      8160>>DOINDEX  8161>>ASSIGN
QQ_CMDBLK.S$
      2836**DCL      8125>>ASSIGN   8129>>IF       8158>>ASSIGN   8362>>ASSIGN   8363>>ASSIGN
QQ_GLOBAL.DS1$_BITS
      2847**DCL      2847--REDEF
QQ_GLOBAL.DS2$_BITS
      2847**DCL      2848--REDEF
QQ_GLOBAL.DS3$_BITS
      2848**DCL      2848--REDEF
QQ_GLOBAL.DS4$_BITS
      2848**DCL      2849--REDEF
QQ_GLOBAL.HELP_S$
      2846**DCL      8122>>IF       8125<<ASSIGN   8126>>ASSIGN   8129>>IF       8158<<ASSIGN   8359>>ASSIGN
      8363<<ASSIGN
PL6.E3A0      #001=QQB$HELP File=QQB$HELP.:E05TSI                                WED 07/30/97 05:30 Page:77
S$
      7769**DCL      7771--IMP-PTR
SET_STATION IN PROCEDURE GET_XUH_PARAM
      8362**LABEL    8360--CALLALT
TP$STATION.ID
      7772**DCL      8126>>ASSIGN   8359>>ASSIGN   8362>>ASSIGN
X$FORMAT
      6658**DCL-ENT  8276--CALL
X$STRING.SIZ
      7754**DCL      7755--IMP-SIZ
XUH_PARAM
      7398**DCL      8124<<ASSIGN   8357>>ASSIGN   8366<<ASSIGN   8373<<ASSIGN   8381<<ASSIGN
XUH_PARAM.HELP_CODE#.LEN
      7424**DCL      8146>>ASSIGN   8264<<ASSIGN
XUH_PARAM.HELP_CODE#.PACCT
      7429**DCL      8157<<ASSIGN   8209<<ASSIGN   8211<<ASSIGN   8215<<ASSIGN   8247>>IF       8251<<ASSIGN
      8258--ASSIGN
XUH_PARAM.HELP_CODE#.PNAME
      7426**DCL      8198<<ASSIGN   8257--ASSIGN
XUH_PARAM.HELP_CODE#.PNAME.LEN
      7427**DCL      8192<<ASSIGN   8249<<ASSIGN
XUH_PARAM.HELP_CODE#.PNAME.TEXT
      7428**DCL      8138>>IF       8193<<ASSIGN   8250<<ASSIGN
XUH_PARAM.HELP_CODE#.PPASS
      7430**DCL      8220<<ASSIGN   8259--ASSIGN
XUH_PARAM.HELP_CODE#.TEXT
      7425**DCL      8147>>ASSIGN   8265<<ASSIGN
XUH_PARAM.OUTDCB1#
      7406**DCL      8113>>ASSIGN
XUH_PARAM.OUTDCB2#
      7407**DCL      8114>>ASSIGN
