VERSION E05

PL6.E3A0      #001=QQB$HOLD File=QQB$HOLD.:E05TSI                                WED 07/30/97 05:31 Page:1
        1        1        /*M* QQB$HOLD - Process   HOLD / RELEASE commands */
        2        2        /*T***********************************************************/
        3        3        /*T*                                                         */
        4        4        /*T* Copyright (c) Bull HN Information Systems Inc., 1997    */
        5        5        /*T*                                                         */
        6        6        /*T***********************************************************/
        7        7        /*X* IND=2, DCI=4, CSU=2, ECU=4, DTI=2, CTI=4, AND */
        8        8        QQB$HOLD:
        9        9                PROC;
       10       10
       11       11        %INCLUDE Q_PAGE_C;
       12       43        %SET LISTEXP = '1'B;
       13       44        %PAGE(ARG="Includes");

                61        /***************************************************************************
                62         *                                                                         *
                63         *                                  Includes                               *
                64         *                                                                         *
                65         ***************************************************************************/

       14       69        %INCLUDE CP_6;
       15      150        %INCLUDE B_ERRORS_C;
       16     1277        %INCLUDE QQ_MACROS_C;
       17     1702        %INCLUDE QQ_DATA_R;
       18     1948        %INCLUDE XU_MACRO_C;
       19     5054        %INCLUDE QQ_PERR_C;
       20     5215        %INCLUDE Q_ERRCODE_C;
       21     5238        %INCLUDE QQ_SUBS_C;
       22     5430        %PAGE(ARG="Externally defined routines");

              5447    1   /***************************************************************************
              5448    1    *                                                                         *
              5449    1    *                        Externally defined routines                      *
              5450    1    *                                                                         *
              5451    1    ***************************************************************************/

       23     5455    1   DCL QQC$BLDMSG_BLK ENTRY(1);
PL6.E3A0      #001=QQB$HOLD File=QQB$HOLD.:E05TSI                                WED 07/30/97 05:31 Page:2
       24     5456    1   DCL QQC$BLDMSG ENTRY(1);
       25     5457    1   DCL QQC$EX_SPEC ENTRY(3) ALTRET;
       26     5458    1   DCL QQC$CONVERT_NUM ENTRY(3);
       27     5459    1   DCL QQC$SCREECH ENTRY;
       28     5460        %PAGE(ARG="EQUs");

              5477    1   /***************************************************************************
              5478    1    *                                                                         *
              5479    1    *                                    EQUs                                 *
              5480    1    *                                                                         *
              5481    1    ***************************************************************************/

       29     5485        %EQU_CG;
       30     5533        %PAGE(ARG="Symrefs");

              5550    1   /***************************************************************************
              5551    1    *                                                                         *
              5552    1    *                                  Symrefs                                *
              5553    1    *                                                                         *
              5554    1    ***************************************************************************/

       31     5558    1   DCL B$TCB$ PTR SYMREF;
       32     5559        %PAGE(ARG="DCBs");

              5576    1   /***************************************************************************
              5577    1    *                                                                         *
              5578    1    *                                    DCBs                                 *
              5579    1    *                                                                         *
              5580    1    ***************************************************************************/

       33     5584    1   DCL M$CG DCB;
       34     5585        %PAGE(ARG="Based");

              5602    1   /***************************************************************************
              5603    1    *                                                                         *
              5604    1    *                                   Based                                 *
              5605    1    *                                                                         *
PL6.E3A0      #001=QQB$HOLD File=QQB$HOLD.:E05TSI                                WED 07/30/97 05:31 Page:3
              5606    1    ***************************************************************************/

       35     5610        %PARSE$OUT(STCLASS=BASED);
       36     5655        %B$TCB;
       37     5658        %B$ALT;
       38     5666        %PAGE(ARG="Auto");

              5683    1   /***************************************************************************
              5684    1    *                                                                         *
              5685    1    *                                    Auto                                 *
              5686    1    *                                                                         *
              5687    1    ***************************************************************************/

       39     5691    1   DCL SIZE UBIN WORD;
       40     5692
       41     5693    1   DCL SPECIFIER$ PTR;
       42     5694
       43     5695        %VLP_NAME(FPTN=TEXTC_NUM, LEN=10, NAME=' ');
       44     5722        %MSGBLK;
       45     5812        %PAGE(ARG="Error codes", PAGE=YES);

PL6.E3A0      #001=QQB$HOLD File=QQB$HOLD.:E05TSI                                WED 07/30/97 05:31 Page:4
              5829    1   /***************************************************************************
              5830    1    *                                                                         *
              5831    1    *                                Error codes                              *
              5832    1    *                                                                         *
              5833    1    ***************************************************************************/

       46     5837        %ERRCODE(NAME=CODE_NMH, CODE#=%E$NMH, FCG#=%FCG_QQ, MID#=%MID_B);
       47     5844        %ERRCODE(NAME=CODE_NMR, CODE#=%E$NMR, FCG#=%FCG_QQ, MID#=%MID_B);
       48     5851        /*E*       ERROR: QQB-E$NMH-C
       49     5852
       50     5853                 MESSAGE: %U1 transaction(s) held
       51     5854             DESCRIPTION: The number of messages held by a HOLD command
       52     5855        */
       53     5856        /*E*       ERROR: QQB-E$NMR-C
       54     5857
       55     5858                 MESSAGE: %U1 transaction(s) released
       56     5859             DESCRIPTION: The number of messages released by a RELEASE command
       57     5860        */
       58     5861        %PAGE(ARG="FPTs", PAGE=YES);

PL6.E3A0      #001=QQB$HOLD File=QQB$HOLD.:E05TSI                                WED 07/30/97 05:31 Page:5
              5878    1   /***************************************************************************
              5879    1    *                                                                         *
              5880    1    *                                    FPTs                                 *
              5881    1    *                                                                         *
              5882    1    ***************************************************************************/

       59     5886        %FPT_FWCG(DCB=M$CG, CRITERIA=VLP_CGMA, REATTR=VLP_CGMA_REATTR,
       60     5887        SCA=VLP_SCGMA, SRA=VLP_SCGMA_REATTR, RESULTS=VLR_FWCG);
       61     5906        %PAGE(ARG="VLPs");

              5923    1   /***************************************************************************
              5924    1    *                                                                         *
              5925    1    *                                    VLPs                                 *
              5926    1    *                                                                         *
              5927    1    ***************************************************************************/

       62     5931        %VLP_CGMA;
       63     5958        %VLP_SCGMA;
       64     5975        %VLP_CGMA(FPTN=VLP_CGMA_REATTR);
       65     6002        %VLP_SCGMA(FPTN=VLP_SCGMA_REATTR, DEST=YES);
       66     6019        %PAGE(ARG="VLRs");

              6036    1   /***************************************************************************
              6037    1    *                                                                         *
              6038    1    *                                    VLRs                                 *
              6039    1    *                                                                         *
              6040    1    ***************************************************************************/

       67     6044        %VLR_FWCG;
       68     6058        %PAGE(ARG="QQB$HOLD", PAGE=YES);

PL6.E3A0      #001=QQB$HOLD File=QQB$HOLD.:E05TSI                                WED 07/30/97 05:31 Page:6
              6075    1   /***************************************************************************
              6076    1    *                                                                         *
              6077    1    *                                  QQB$HOLD                               *
              6078    1    *                                                                         *
              6079    1    ***************************************************************************/

       69     6083    1           SPECIFIER$ = QQ_CMDBLK.OUT$ -> OUT$BLK.SUBLK$(0);
       70     6084
       71     6085    1           CALL QQC$EX_SPEC(SPECIFIER$, VLP_SCGMA, VLP_CGMA) ALTRET(RET);
       72     6086    1           VLP_SCGMA.ORIGIN# = '1'B;
       73     6087
       74     6088    1           IF QQ_CMDBLK.CODE = 13 /* HOLD */ THEN
       75     6089    2             DO;
       76     6090    2               FPT_FWCG.V.QSELECT# = 3 /* CG_QSELECT_ANONYMOUS# */;
       77     6091    2               VLP_CGMA_REATTR.DEST# = 'HOLDSTA';
       78     6092    2               QQ_CMDBLK.MINOR_ERR = CODE_NMH;
       79     6093    2             END;
       80     6094    1           ELSE                            /* RELEASE command                    */
       81     6095    2             DO;
       82     6096    2               VLP_SCGMA.DEST# = '1'B;
       83     6097    2               VLP_CGMA.DEST# = 'HOLDSTA';
       84     6098    2               FPT_FWCG.V.QSELECT# = 2 /* CG_QSELECT_DIRECT# */;
       85     6099    2               VLP_CGMA_REATTR.DEST# = ' ';
       86     6100    2               QQ_CMDBLK.MINOR_ERR = CODE_NMR;
       87     6101    2             END;
       88     6102
       89     6103    1           CALL M$FWCG(FPT_FWCG) ALTRET(FWCG_ERR);
       90     6104
       91     6105    2           DO WHILE('0'B);
       92     6106
       93     6107    2   FWCG_ERR:
       94     6108    2             IF B$TCB$ -> B$TCB.ALT$ -> B$ALT.ERR.CODE ~= 1170 /* E$FWCG_NONE */ THEN
       95     6109    3               DO;
       96     6110    3                 GOTO MON_ERR;
       97     6111    3               END;
       98     6112    2           END /* NEVER */;
       99     6113
PL6.E3A0      #001=QQB$HOLD File=QQB$HOLD.:E05TSI                                WED 07/30/97 05:31 Page:7
      100     6114    1           CALL QQC$CONVERT_NUM(VLR_FWCG.FOUND#, SIZE, ADDR(TEXTC_NUM.NAME#));
      101     6115    1           CALL QQC$BLDMSG_BLK(MSGBLK);
      102     6116    1           MSGBLK.ERRINFO.FIELD1(0) = VECTOR(TEXTC_NUM);
      103     6117    1           TEXTC_NUM.L# = SIZE;
      104     6118    1           CALL QQC$BLDMSG(MSGBLK);
      105     6119
      106     6120    1   RET:
      107     6121    1           RETURN;
      108     6122
      109     6123    1   MON_ERR:
      110     6124    1           QQ_GLOBAL.ERR = B$TCB$ -> B$TCB.ALT$ -> B$ALT.ERR;
      111     6125    1           CALL QQC$SCREECH;
      112     6126
      113     6127    1   END QQB$HOLD;

PL6.E3A0      #001=QQB$HOLD File=QQB$HOLD.:E05TSI                                WED 07/30/97 05:31 Page:8
--  Include file information  --

   QQ_SUBS_C.:E05TOU  is referenced.
   Q_ERRCODE_C.:E05TOU  is referenced.
   QQ_PERR_C.:E05TOU  is referenced.
   XU_MACRO_C.:E05TOU  is referenced.
   QQ_DATA_R.:E05TOU  cannot be made into a system file and is referenced.
   QQ_MACROS_C.:E05TOU  is referenced.
   B_ERRORS_C.:E05TOU  is referenced.
   CP_6.:E05TOU  cannot be made into a system file and is referenced.
   Q_PAGE_C.:E05TOU  is referenced.
   B$JIT_C.:E05TOU  was found in the system file and is never referenced.
   CP_6_C.:E05TOU  was found in the system file and is referenced.
      No diagnostics issued in procedure QQB$HOLD.

   Procedure QQB$HOLD requires 94 words for executable code.
   Procedure QQB$HOLD requires 30 words of local(AUTO) storage.

    No errors detected in file QQB$HOLD.:E05TSI    .

PL6.E3A0      #001=QQB$HOLD File=QQB$HOLD.:E05TSI                                WED 07/30/97 05:31 Page:9

 Object Unit name= QQB$HOLD                                   File name= QQB$HOLD.:E05TOU
 UTS= JUL 30 '97 05:31:17.76 WED                              Compiler= PL-6/E31         Sev=      00
 SharedLib= :SHARED_SYSTEM                                    Alt SharedLib=


    ****  Control sections  ****

 Sect   Type Bound  Init  Size OctSiz  Section name(segment info)
    0   DCB   even  none     0      0  M$UC
    1   DCB   even  none     0      0  M$CG
    2   Data  even  none    92    134  QQB$HOLD
    3  RoData even  UTS      4      4  QQB$HOLD
    4   Proc  even  none    94    136  QQB$HOLD
    5  RoData even  none     8     10  QQB$HOLD

    ****  Entry defs  ****

                              Check   Calling
                             calling  sequence
  Sect OctLoc Primary Altret sequence   type   Parms  Name
     4      0   yes            yes      Std        0  QQB$HOLD

  ****  Entry refs  ****

         Check        Calling
        calling       sequence
Altret sequence SRef   type   Args  Name
 yes     yes           Std       3 QQC$EX_SPEC
         yes           Std       1 QQC$BLDMSG_BLK
         yes           Std       1 QQC$BLDMSG
         yes           Std       0 QQC$SCREECH
         yes           Std       3 QQC$CONVERT_NUM
                       nStd      0 X66_AUTO_0
                       Std       0 B_CONSPOOL_D
                       nStd      0 X66_ARET
PL6.E3A0      #001=QQB$HOLD File=QQB$HOLD.:E05TSI                                WED 07/30/97 05:31 Page:10

  ****  Data refs  ****

  Flags:  r = read only, s = secondary
Flgs Name                             Flgs Name                             Flgs Name
     M$UC                                  QQ_CMDBLK                             QQ_GLOBAL
     B$TCB$                                M$CG                                  B_VECTNIL

  ****  Segment refs  ****

  Flags:  r = read only, s = secondary
Flgs Name                             Flgs Name                             Flgs Name
     ISSID                                 NULLSID
PL6.E3A0      #001=QQB$HOLD File=QQB$HOLD.:E05TSI                                WED 07/30/97 05:31 Page:11


        1        1        /*M* QQB$HOLD - Process   HOLD / RELEASE commands */
        2        2        /*T***********************************************************/
        3        3        /*T*                                                         */
        4        4        /*T* Copyright (c) Bull HN Information Systems Inc., 1997    */
        5        5        /*T*                                                         */
        6        6        /*T***********************************************************/
        7        7        /*X* IND=2, DCI=4, CSU=2, ECU=4, DTI=2, CTI=4, AND */
        8        8        QQB$HOLD:
        9        9                PROC;

      9  4 000000   000000 700200 xent  QQB$HOLD     TSX0  ! X66_AUTO_0
         4 000001   000036 000000                    ZERO    30,0

       10       10
       11       11        %INCLUDE Q_PAGE_C;
       12       43        %SET LISTEXP = '1'B;
       13       44        %PAGE(ARG="Includes");

                61        /***************************************************************************
                62         *                                                                         *
                63         *                                  Includes                               *
                64         *                                                                         *
                65         ***************************************************************************/

       14       69        %INCLUDE CP_6;
       15      150        %INCLUDE B_ERRORS_C;
       16     1277        %INCLUDE QQ_MACROS_C;
       17     1702        %INCLUDE QQ_DATA_R;
       18     1948        %INCLUDE XU_MACRO_C;
       19     5054        %INCLUDE QQ_PERR_C;
       20     5215        %INCLUDE Q_ERRCODE_C;
       21     5238        %INCLUDE QQ_SUBS_C;
       22     5430        %PAGE(ARG="Externally defined routines");

              5447    1   /***************************************************************************
              5448    1    *                                                                         *
PL6.E3A0      #001=QQB$HOLD File=QQB$HOLD.:E05TSI                                WED 07/30/97 05:31 Page:12
              5449    1    *                        Externally defined routines                      *
              5450    1    *                                                                         *
              5451    1    ***************************************************************************/

       23     5455    1   DCL QQC$BLDMSG_BLK ENTRY(1);
       24     5456    1   DCL QQC$BLDMSG ENTRY(1);
       25     5457    1   DCL QQC$EX_SPEC ENTRY(3) ALTRET;
       26     5458    1   DCL QQC$CONVERT_NUM ENTRY(3);
       27     5459    1   DCL QQC$SCREECH ENTRY;
       28     5460        %PAGE(ARG="EQUs");

              5477    1   /***************************************************************************
              5478    1    *                                                                         *
              5479    1    *                                    EQUs                                 *
              5480    1    *                                                                         *
              5481    1    ***************************************************************************/

       29     5485        %EQU_CG;
       30     5533        %PAGE(ARG="Symrefs");

              5550    1   /***************************************************************************
              5551    1    *                                                                         *
              5552    1    *                                  Symrefs                                *
              5553    1    *                                                                         *
              5554    1    ***************************************************************************/

       31     5558    1   DCL B$TCB$ PTR SYMREF;
       32     5559        %PAGE(ARG="DCBs");

              5576    1   /***************************************************************************
              5577    1    *                                                                         *
              5578    1    *                                    DCBs                                 *
              5579    1    *                                                                         *
              5580    1    ***************************************************************************/

       33     5584    1   DCL M$CG DCB;
       34     5585        %PAGE(ARG="Based");
PL6.E3A0      #001=QQB$HOLD File=QQB$HOLD.:E05TSI                                WED 07/30/97 05:31 Page:13

              5602    1   /***************************************************************************
              5603    1    *                                                                         *
              5604    1    *                                   Based                                 *
              5605    1    *                                                                         *
              5606    1    ***************************************************************************/

       35     5610        %PARSE$OUT(STCLASS=BASED);
       36     5655        %B$TCB;
       37     5658        %B$ALT;
       38     5666        %PAGE(ARG="Auto");

              5683    1   /***************************************************************************
              5684    1    *                                                                         *
              5685    1    *                                    Auto                                 *
              5686    1    *                                                                         *
              5687    1    ***************************************************************************/

       39     5691    1   DCL SIZE UBIN WORD;
       40     5692
       41     5693    1   DCL SPECIFIER$ PTR;
       42     5694
       43     5695        %VLP_NAME(FPTN=TEXTC_NUM, LEN=10, NAME=' ');
       44     5722        %MSGBLK;
       45     5812        %PAGE(ARG="Error codes", PAGE=YES);

PL6.E3A0      #001=QQB$HOLD File=QQB$HOLD.:E05TSI                                WED 07/30/97 05:31 Page:14
              5829    1   /***************************************************************************
              5830    1    *                                                                         *
              5831    1    *                                Error codes                              *
              5832    1    *                                                                         *
              5833    1    ***************************************************************************/

       46     5837        %ERRCODE(NAME=CODE_NMH, CODE#=%E$NMH, FCG#=%FCG_QQ, MID#=%MID_B);
       47     5844        %ERRCODE(NAME=CODE_NMR, CODE#=%E$NMR, FCG#=%FCG_QQ, MID#=%MID_B);
       48     5851        /*E*       ERROR: QQB-E$NMH-C
       49     5852
       50     5853                 MESSAGE: %U1 transaction(s) held
       51     5854             DESCRIPTION: The number of messages held by a HOLD command
       52     5855        */
       53     5856        /*E*       ERROR: QQB-E$NMR-C
       54     5857
       55     5858                 MESSAGE: %U1 transaction(s) released
       56     5859             DESCRIPTION: The number of messages released by a RELEASE command
       57     5860        */
       58     5861        %PAGE(ARG="FPTs", PAGE=YES);

PL6.E3A0      #001=QQB$HOLD File=QQB$HOLD.:E05TSI                                WED 07/30/97 05:31 Page:15
              5878    1   /***************************************************************************
              5879    1    *                                                                         *
              5880    1    *                                    FPTs                                 *
              5881    1    *                                                                         *
              5882    1    ***************************************************************************/

       59     5886        %FPT_FWCG(DCB=M$CG, CRITERIA=VLP_CGMA, REATTR=VLP_CGMA_REATTR,
       60     5887        SCA=VLP_SCGMA, SRA=VLP_SCGMA_REATTR, RESULTS=VLR_FWCG);
       61     5906        %PAGE(ARG="VLPs");

              5923    1   /***************************************************************************
              5924    1    *                                                                         *
              5925    1    *                                    VLPs                                 *
              5926    1    *                                                                         *
              5927    1    ***************************************************************************/

       62     5931        %VLP_CGMA;
       63     5958        %VLP_SCGMA;
       64     5975        %VLP_CGMA(FPTN=VLP_CGMA_REATTR);
       65     6002        %VLP_SCGMA(FPTN=VLP_SCGMA_REATTR, DEST=YES);
       66     6019        %PAGE(ARG="VLRs");

              6036    1   /***************************************************************************
              6037    1    *                                                                         *
              6038    1    *                                    VLRs                                 *
              6039    1    *                                                                         *
              6040    1    ***************************************************************************/

       67     6044        %VLR_FWCG;
       68     6058        %PAGE(ARG="QQB$HOLD", PAGE=YES);

PL6.E3A0      #001=QQB$HOLD File=QQB$HOLD.:E05TSI                                WED 07/30/97 05:31 Page:16
              6075    1   /***************************************************************************
              6076    1    *                                                                         *
              6077    1    *                                  QQB$HOLD                               *
              6078    1    *                                                                         *
              6079    1    ***************************************************************************/

       69     6083    1           SPECIFIER$ = QQ_CMDBLK.OUT$ -> OUT$BLK.SUBLK$(0);

   6083  4 000002   000005 470400 xsym               LDP0    QQ_CMDBLK+5
         4 000003   000003 236100                    LDQ     3,,PR0
         4 000004   200004 756100                    STQ     SPECIFIER$,,AUTO

       70     6084
       71     6085    1           CALL QQC$EX_SPEC(SPECIFIER$, VLP_SCGMA, VLP_CGMA) ALTRET(RET);

   6085  4 000005   000000 236000 5                  LDQ     0
         4 000006   200034 756100                    STQ     MSGBLK+23,,AUTO
         4 000007   000001 236000 5                  LDQ     1
         4 000010   200033 756100                    STQ     MSGBLK+22,,AUTO
         4 000011   200004 631500                    EPPR1   SPECIFIER$,,AUTO
         4 000012   200032 451500                    STP1    MSGBLK+21,,AUTO
         4 000013   200032 630500                    EPPR0   MSGBLK+21,,AUTO
         4 000014   000021 631400 xsym               EPPR1   B_VECTNIL+17
         4 000015   000000 701000 xent               TSX1    QQC$EX_SPEC
         4 000016   000127 702000 4                  TSX2    RET

       72     6086    1           VLP_SCGMA.ORIGIN# = '1'B;

   6086  4 000017   200000 236003                    LDQ     65536,DU
         4 000020   000076 256000 2                  ORSQ    VLP_SCGMA

       73     6087
       74     6088    1           IF QQ_CMDBLK.CODE = 13 /* HOLD */ THEN

   6088  4 000021   000006 235000 xsym               LDA     QQ_CMDBLK+6
         4 000022   000015 115007                    CMPA    13,DL
         4 000023   000036 601000 4                  TNZ     s:6096
PL6.E3A0      #001=QQB$HOLD File=QQB$HOLD.:E05TSI                                WED 07/30/97 05:31 Page:17

       75     6089    2             DO;

       76     6090    2               FPT_FWCG.V.QSELECT# = 3 /* CG_QSELECT_ANONYMOUS# */;

   6090  4 000024   000041 236000 2                  LDQ     FPT_FWCG+29
         4 000025   000002 376000 5                  ANQ     2
         4 000026   060000 276003                    ORQ     24576,DU
         4 000027   000041 756000 2                  STQ     FPT_FWCG+29

       77     6091    2               VLP_CGMA_REATTR.DEST# = 'HOLDSTA';

   6091  4 000030   040000 100400                    MLR     fill='040'O
         4 000031   000002 000007 3                  ADSC9   CODE_NMR+1               cn=0,n=7
         4 000032   000111 000010 2                  ADSC9   VLP_CGMA_REATTR+9        cn=0,n=8

       78     6092    2               QQ_CMDBLK.MINOR_ERR = CODE_NMH;

   6092  4 000033   000000 236000 3                  LDQ     CODE_NMH
         4 000034   000001 756000 xsym               STQ     QQ_CMDBLK+1

       79     6093    2             END;

   6093  4 000035   000055 710000 4                  TRA     s:6103

       80     6094    1           ELSE                            /* RELEASE command                    */
       81     6095    2             DO;

       82     6096    2               VLP_SCGMA.DEST# = '1'B;

   6096  4 000036   100000 236003                    LDQ     32768,DU
         4 000037   000076 256000 2                  ORSQ    VLP_SCGMA

       83     6097    2               VLP_CGMA.DEST# = 'HOLDSTA';

   6097  4 000040   040000 100400                    MLR     fill='040'O
         4 000041   000002 000007 3                  ADSC9   CODE_NMR+1               cn=0,n=7
PL6.E3A0      #001=QQB$HOLD File=QQB$HOLD.:E05TSI                                WED 07/30/97 05:31 Page:18
         4 000042   000067 000010 2                  ADSC9   VLP_CGMA+9               cn=0,n=8

       84     6098    2               FPT_FWCG.V.QSELECT# = 2 /* CG_QSELECT_DIRECT# */;

   6098  4 000043   000041 236000 2                  LDQ     FPT_FWCG+29
         4 000044   000002 376000 5                  ANQ     2
         4 000045   040000 276003                    ORQ     16384,DU
         4 000046   000041 756000 2                  STQ     FPT_FWCG+29

       85     6099    2               VLP_CGMA_REATTR.DEST# = ' ';

   6099  4 000047   000035 235000 xsym               LDA     B_VECTNIL+29
         4 000050   000035 236000 xsym               LDQ     B_VECTNIL+29
         4 000051   000111 755000 2                  STA     VLP_CGMA_REATTR+9
         4 000052   000112 756000 2                  STQ     VLP_CGMA_REATTR+10

       86     6100    2               QQ_CMDBLK.MINOR_ERR = CODE_NMR;

   6100  4 000053   000001 236000 3                  LDQ     CODE_NMR
         4 000054   000001 756000 xsym               STQ     QQ_CMDBLK+1

       87     6101    2             END;

       88     6102
       89     6103    1           CALL M$FWCG(FPT_FWCG) ALTRET(FWCG_ERR);

   6103  4 000055   000004 630400 2                  EPPR0   FPT_FWCG
         4 000056   500005 713400                    CLIMB   alt,+32773
         4 000057   406400 401760                    pmme    nvectors=14
         4 000060   000062 702000 4                  TSX2    FWCG_ERR

       90     6104
       91     6105    2           DO WHILE('0'B);

   6105  4 000061   000071 710000 4                  TRA     s:6114

       92     6106
PL6.E3A0      #001=QQB$HOLD File=QQB$HOLD.:E05TSI                                WED 07/30/97 05:31 Page:19
       93     6107    2   FWCG_ERR:
       94     6108    2             IF B$TCB$ -> B$TCB.ALT$ -> B$ALT.ERR.CODE ~= 1170 /* E$FWCG_NONE */ THEN

   6108  4 000062   000000 470400 xsym  FWCG_ERR     LDP0    B$TCB$
         4 000063   000000 471500                    LDP1    0,,PR0
         4 000064   100102 236100                    LDQ     66,,PR1
         4 000065   377770 376007                    ANQ     131064,DL
         4 000066   022220 116007                    CMPQ    9360,DL
         4 000067   000071 600000 4                  TZE     s:6114

       95     6109    3               DO;

       96     6110    3                 GOTO MON_ERR;

   6110  4 000070   000130 710000 4                  TRA     MON_ERR

       97     6111    3               END;
       98     6112    2           END /* NEVER */;

       99     6113
      100     6114    1           CALL QQC$CONVERT_NUM(VLR_FWCG.FOUND#, SIZE, ADDR(TEXTC_NUM.NAME#));

   6114  4 000071   000003 236000 5                  LDQ     3
         4 000072   200032 756100                    STQ     MSGBLK+21,,AUTO
         4 000073   200032 630500                    EPPR0   MSGBLK+21,,AUTO
         4 000074   200035 450500                    STP0    MSGBLK+24,,AUTO
         4 000075   200003 631500                    EPPR1   SIZE,,AUTO
         4 000076   200034 451500                    STP1    MSGBLK+23,,AUTO
         4 000077   000004 236000 5                  LDQ     4
         4 000100   200033 756100                    STQ     MSGBLK+22,,AUTO
         4 000101   200033 630500                    EPPR0   MSGBLK+22,,AUTO
         4 000102   000021 631400 xsym               EPPR1   B_VECTNIL+17
         4 000103   000000 701000 xent               TSX1    QQC$CONVERT_NUM
         4 000104   000000 011000                    NOP     0

      101     6115    1           CALL QQC$BLDMSG_BLK(MSGBLK);

PL6.E3A0      #001=QQB$HOLD File=QQB$HOLD.:E05TSI                                WED 07/30/97 05:31 Page:20
   6115  4 000105   200005 630500                    EPPR0   MSGBLK,,AUTO
         4 000106   200032 450500                    STP0    MSGBLK+21,,AUTO
         4 000107   200032 630500                    EPPR0   MSGBLK+21,,AUTO
         4 000110   000017 631400 xsym               EPPR1   B_VECTNIL+15
         4 000111   000000 701000 xent               TSX1    QQC$BLDMSG_BLK
         4 000112   000000 011000                    NOP     0

      102     6116    1           MSGBLK.ERRINFO.FIELD1(0) = VECTOR(TEXTC_NUM);

   6116  4 000113   000100 100400                    MLR     fill='000'O
         4 000114   000006 000010 5                  ADSC9   6                        cn=0,n=8
         4 000115   200014 200010                    ADSC9   MSGBLK+7,,AUTO           cn=1,n=8

      103     6117    1           TEXTC_NUM.L# = SIZE;

   6117  4 000116   200003 236100                    LDQ     SIZE,,AUTO
         4 000117   000033 736000                    QLS     27
         4 000120   000000 552040 2                  STBQ    TEXTC_NUM,'40'O

      104     6118    1           CALL QQC$BLDMSG(MSGBLK);

   6118  4 000121   200005 630500                    EPPR0   MSGBLK,,AUTO
         4 000122   200032 450500                    STP0    MSGBLK+21,,AUTO
         4 000123   200032 630500                    EPPR0   MSGBLK+21,,AUTO
         4 000124   000017 631400 xsym               EPPR1   B_VECTNIL+15
         4 000125   000000 701000 xent               TSX1    QQC$BLDMSG
         4 000126   000000 011000                    NOP     0

      105     6119
      106     6120    1   RET:
      107     6121    1           RETURN;

   6121  4 000127   000000 702200 xent  RET          TSX2  ! X66_ARET

      108     6122
      109     6123    1   MON_ERR:
      110     6124    1           QQ_GLOBAL.ERR = B$TCB$ -> B$TCB.ALT$ -> B$ALT.ERR;
PL6.E3A0      #001=QQB$HOLD File=QQB$HOLD.:E05TSI                                WED 07/30/97 05:31 Page:21

   6124  4 000130   100102 236100       MON_ERR      LDQ     66,,PR1
         4 000131   000000 756000 xsym               STQ     QQ_GLOBAL

      111     6125    1           CALL QQC$SCREECH;

   6125  4 000132   000002 631400 xsym               EPPR1   B_VECTNIL+2
         4 000133   000000 701000 xent               TSX1    QQC$SCREECH
         4 000134   000000 011000                    NOP     0

      112     6126
      113     6127    1   END QQB$HOLD;

   6127  4 000135   000000 702200 xent               TSX2  ! X66_ARET

PL6.E3A0      #001=QQB$HOLD File=QQB$HOLD.:E05TSI                                WED 07/30/97 05:31 Page:22
--  Include file information  --

   QQ_SUBS_C.:E05TOU  is referenced.
   Q_ERRCODE_C.:E05TOU  is referenced.
   QQ_PERR_C.:E05TOU  is referenced.
   XU_MACRO_C.:E05TOU  is referenced.
   QQ_DATA_R.:E05TOU  cannot be made into a system file and is referenced.
   QQ_MACROS_C.:E05TOU  is referenced.
   B_ERRORS_C.:E05TOU  is referenced.
   CP_6.:E05TOU  cannot be made into a system file and is referenced.
   Q_PAGE_C.:E05TOU  is referenced.
   B$JIT_C.:E05TOU  was found in the system file and is never referenced.
   CP_6_C.:E05TOU  was found in the system file and is referenced.
      No diagnostics issued in procedure QQB$HOLD.
PL6.E3A0      #001=QQB$HOLD File=QQB$HOLD.:E05TSI                                WED 07/30/97 05:31 Page:23

 **** Variables and constants ****

  ****  Section 002  Data  QQB$HOLD

  ****  Scalars and arrays  ****
OctLoc.c.b A Datatyp(siz) R M Lvl/name                 OctLoc.c.b A Datatyp(siz) R M Lvl/name

     4-0-0/d STRC(1512)  r     1 FPT_FWCG                   0-0-0/c STRC(99)    r     1 TEXTC_NUM
    56-0-0/w STRC(576)   r     1 VLP_CGMA                 100-0-0/w STRC(576)   r     1 VLP_CGMA_REATTR
    76-0-0/d STRC(72)    r     1 VLP_SCGMA                120-0-0/d STRC(72)    r     1 VLP_SCGMA_REATTR
   122-0-0/d STRC(360)   r     1 VLR_FWCG

  ****  Section 003 RoData QQB$HOLD

  ****  Scalars and arrays  ****
OctLoc.c.b A Datatyp(siz) R M Lvl/name                 OctLoc.c.b A Datatyp(siz) R M Lvl/name

     0-0-0/b STRC        r     1 CODE_NMH                   1-0-0/b STRC        r     1 CODE_NMR

  ****  Auto variables  ****

  ****  Scalars and arrays  ****
OctLoc.c.b A Datatyp(siz) R M Lvl/name                 OctLoc.c.b A Datatyp(siz) R M Lvl/name

     5-0-0/w STRC(738)   r     1 MSGBLK                     3-0-0/w UBIN        r     1 SIZE
     4-0-0/w PTR         r     1 SPECIFIER$

  ****  SYMREF variables  ****

  ****  Scalars and arrays  ****
OctLoc.c.b A Datatyp(siz) R M Lvl/name                 OctLoc.c.b A Datatyp(siz) R M Lvl/name

     0-0-0/w PTR         r     1 B$TCB$                     0-0-0/w STRC(315)   r     1 QQ_CMDBLK
     0-0-0/d STRC(9090)  r     1 QQ_GLOBAL

  ****  BASED and DCB variables  ****

PL6.E3A0      #001=QQB$HOLD File=QQB$HOLD.:E05TSI                                WED 07/30/97 05:31 Page:24
  ****  Scalars and arrays  ****
OctLoc.c.b A Datatyp(siz) R M Lvl/name                 OctLoc.c.b A Datatyp(siz) R M Lvl/name

     0-0-0/w STRC(2448)  r     1 B$ALT                      0-0-0/w STRC(144)   r     1 B$TCB
     0-0-0N  NULL        r     1 M$CG                       0-0-0/w STRC(144)   r     1 OUT$BLK


   Procedure QQB$HOLD requires 94 words for executable code.
   Procedure QQB$HOLD requires 30 words of local(AUTO) storage.

    No errors detected in file QQB$HOLD.:E05TSI    .
PL6.E3A0      #001=QQB$HOLD File=QQB$HOLD.:E05TSI                                WED 07/30/97 05:31 Page:25
          *** CROSS REFERENCE LISTING ***
**     DENOTES     IDENTIFIER DEFINITION
<<                 IDENTIFIER'S VALUE SET
>>                 IDENTIFIER'S VALUE USED
<>                 IDENTIFIER SET AND/OR USED
--                 IDENTIFIER REFERENCED
PL6.E3A0      #001=QQB$HOLD File=QQB$HOLD.:E05TSI                                WED 07/30/97 05:31 Page:26
          MINI XREF LISTING

B$ALT.CODE
      5660**DCL      5660--REDEF    5661--REDEF    5661--REDEF
B$ALT.ERR
      5661**DCL      6124>>ASSIGN
B$ALT.ERR.CODE
      5662**DCL      6108>>IF
B$ALT.ERR.ERR#
      5662**DCL      5662--REDEF
B$ALT.EVID
      5661**DCL      5661--REDEF    5661--REDEF
B$TCB.ALT$
      5656**DCL      6108>>IF       6124>>ASSIGN
B$TCB$
      5558**DCL      6108>>IF       6124>>ASSIGN
CODE_NMH
      5838**DCL      6092>>ASSIGN
CODE_NMR
      5845**DCL      6100>>ASSIGN
FPT_FWCG
      5898**DCL      6103<>CALL
FPT_FWCG.V
      5901**DCL      5898--DCLINIT
FPT_FWCG.V.QSELECT#
      5903**DCL      6090<<ASSIGN   6098<<ASSIGN
FWCG_ERR
      6108**LABEL    6103--CALLALT
M$FWCG
        99**DCL-ENT  6103--CALL
MON_ERR
      6124**LABEL    6110--GOTO
MSGBLK
      5723**DCL      6115<>CALL     6118<>CALL
PL6.E3A0      #001=QQB$HOLD File=QQB$HOLD.:E05TSI                                WED 07/30/97 05:31 Page:27
MSGBLK.ERRINFO.FIELD1
      5805**DCL      6116<<ASSIGN
OUT$BLK.SUBLK$
      5649**DCL      6083>>ASSIGN
QQC$BLDMSG
      5456**DCL-ENT  6118--CALL
QQC$BLDMSG_BLK
      5455**DCL-ENT  6115--CALL
QQC$CONVERT_NUM
      5458**DCL-ENT  6114--CALL
QQC$EX_SPEC
      5457**DCL-ENT  6085--CALL
QQC$SCREECH
      5459**DCL-ENT  6125--CALL
QQ_CMDBLK.CODE
      1711**DCL      6088>>IF
QQ_CMDBLK.MINOR_ERR
      1711**DCL      6092<<ASSIGN   6100<<ASSIGN
QQ_CMDBLK.OUT$
      1711**DCL      6083>>ASSIGN
QQ_GLOBAL.DS1$_BITS
      1722**DCL      1722--REDEF
QQ_GLOBAL.DS2$_BITS
      1722**DCL      1723--REDEF
QQ_GLOBAL.DS3$_BITS
      1723**DCL      1723--REDEF
QQ_GLOBAL.DS4$_BITS
      1723**DCL      1724--REDEF
QQ_GLOBAL.ERR
      1712**DCL      6124<<ASSIGN
RET
      6121**LABEL    6085--CALLALT
SIZE
      5691**DCL      6114<>CALL     6117>>ASSIGN
SPECIFIER$
      5693**DCL      6083<<ASSIGN   6085<>CALL
PL6.E3A0      #001=QQB$HOLD File=QQB$HOLD.:E05TSI                                WED 07/30/97 05:31 Page:28
TEXTC_NUM
      5720**DCL      6116--ASSIGN
TEXTC_NUM.L#
      5720**DCL      6117<<ASSIGN
TEXTC_NUM.NAME#
      5720**DCL      6114--CALL
VLP_CGMA
      5943**DCL      5898--DCLINIT  6085<>CALL
VLP_CGMA.DEST#
      5951**DCL      6097<<ASSIGN
VLP_CGMA.MSGIDXT
      5952**DCL      5955--REDEF
VLP_CGMA_REATTR
      5987**DCL      5899--DCLINIT
VLP_CGMA_REATTR.DEST#
      5995**DCL      6091<<ASSIGN   6099<<ASSIGN
VLP_CGMA_REATTR.MSGIDXT
      5996**DCL      5999--REDEF
VLP_SCGMA
      5969**DCL      5899--DCLINIT  6085<>CALL
VLP_SCGMA.DEST#
      5969**DCL      6096<<ASSIGN
VLP_SCGMA.ORIGIN#
      5969**DCL      6086<<ASSIGN
VLP_SCGMA_REATTR
      6013**DCL      5900--DCLINIT
VLR_FWCG
      6055**DCL      5900--DCLINIT
VLR_FWCG.FOUND#
      6055**DCL      6114<>CALL
