VERSION E05

PL6.E3A0      #001=QQB$LET File=QQB$LET.:E05TSI                                  WED 07/30/97 05:32 Page:1
        1        1        /*M* QQB$LET - Process LET commands */
        2        2        /*T***********************************************************/
        3        3        /*T*                                                         */
        4        4        /*T* Copyright (c) Bull HN Information Systems Inc., 1997    */
        5        5        /*T*                                                         */
        6        6        /*T***********************************************************/
        7        7        /*X* IND=2, DCI=4, CSU=2, ECU=4, DTI=2, CTI=4, AND */
        8        8        QQB$LET:
        9        9                PROC;
       10       10
       11       11        %INCLUDE Q_PAGE_C;
       12       43        %SET LISTEXP = '1'B;
       13       44        %PAGE(ARG="Includes");

                61        /***************************************************************************
                62         *                                                                         *
                63         *                                  Includes                               *
                64         *                                                                         *
                65         ***************************************************************************/

       14       69        %INCLUDE XU_MACRO_C;
       15     3175        %INCLUDE QQ_SUBS_C;
       16     3367        %INCLUDE QQ_PERR_C;
       17     3528        %INCLUDE Q_ERRCODE_C;
       18     3551        %INCLUDE CP_6;
       19     3632        %INCLUDE CP_6_SUBS;
       20     4172        %INCLUDE PC_MACRO_C;
       21     4198        %INCLUDE QQ_MACROS_C;
       22     4623        %INCLUDE QQ_DATA_R;
       23     4869        %PAGE(ARG="Externally defined routines");

              4886    1   /***************************************************************************
              4887    1    *                                                                         *
              4888    1    *                        Externally defined routines                      *
              4889    1    *                                                                         *
              4890    1    ***************************************************************************/

PL6.E3A0      #001=QQB$LET File=QQB$LET.:E05TSI                                  WED 07/30/97 05:32 Page:2
       24     4894    1   DCL QQC$BLDMSG_BLK ENTRY(1);
       25     4895    1   DCL QQB$SAVCMD ENTRY;
       26     4896    1   DCL QQC$BLDMSG ENTRY(1);
       27     4897    1   DCL QQC$CONVERT_NUM ENTRY(3);
       28     4898        %PAGE(ARG="Based");

              4915    1   /***************************************************************************
              4916    1    *                                                                         *
              4917    1    *                                   Based                                 *
              4918    1    *                                                                         *
              4919    1    ***************************************************************************/

       29     4923        %PARSE$OUT(STCLASS=BASED);
       30     4968        %PARSE$SYM(STCLASS=BASED);
       31     5006        %PC$INSTANCE(STCLASS="BASED(QQ_GLOBAL.PC$INSTANCE$)");
       32     5056        %PAGE(ARG="Auto");

              5073    1   /***************************************************************************
              5074    1    *                                                                         *
              5075    1    *                                    Auto                                 *
              5076    1    *                                                                         *
              5077    1    ***************************************************************************/

       33     5081    1   DCL TEMP SBIN WORD;
       34     5082
       35     5083    1   DCL SUBLK$ PTR;
       36     5084    1   DCL FID CHAR(80) STATIC;
       37     5085        %FPT_OPEN;
       38     5194        %FPT_FID (NAME=VLP_NAME, PASS=VLP_PASS, RESULTS=VLR_FID, ACCT=VLP_ACCT,
       39     5195                 ASN="FPT_OPEN.V.ASN#", SN=VLP_SN, WSN=VLP_WSN,
       40     5196                 RES="FPT_OPEN.V.RES#", TEXTFID=FID);
       41     5219        %VLR_FID;
       42     5238        %VLP_ACCT;
       43     5251        %VLP_NAME;
       44     5278        %VLP_WSN;
       45     5291        %VLP_SN;
       46     5304        %VLP_PASS;
PL6.E3A0      #001=QQB$LET File=QQB$LET.:E05TSI                                  WED 07/30/97 05:32 Page:3
       47     5317        %VLP_NAME(FPTN=TEXTC_NUM, STCLASS=AUTO, LEN=8);
       48     5344    1   DCL NUMBER UBIN;
       49     5345    1   DCL SIZE SBIN;
       50     5346        %MSGBLK;
       51     5436        %PAGE(ARG="Error codes", PAGE=YES);

PL6.E3A0      #001=QQB$LET File=QQB$LET.:E05TSI                                  WED 07/30/97 05:32 Page:4
              5453    1   /***************************************************************************
              5454    1    *                                                                         *
              5455    1    *                                Error codes                              *
              5456    1    *                                                                         *
              5457    1    ***************************************************************************/

       52     5461        %ERRCODE(NAME=CODE_SMALL_CGSIZEMAX, CODE#=%E$SMALL_CGSIZEMAX, FCG#=%FCG_QQ, MID#=
              5461            %MID_B);
       53     5468               %ERRCODE(NAME=CODE_BAD_POOLSIZE, CODE#=%E$BAD_POOLSIZE, FCG#=%FCG_QQ, MID#=
              5468                   %MID_B);
       54     5475               %ERRCODE(NAME=CODE_BAD_IXTNSIZE, CODE#=%E$BAD_IXTNSIZE, FCG#=%FCG_QQ, MID#=
              5475                   %MID_B);
       55     5482               %ERRCODE(NAME=CODE_BAD_CGPAGEMAX, CODE#=%E$BAD_CGPAGEMAX, FCG#=%FCG_QQ, MID#=
              5482                   %MID_B);
       56     5489               %ERRCODE(NAME=CODE_BAD_CGPAGEMIN, CODE#=%E$BAD_CGPAGEMIN, FCG#=%FCG_QQ, MID#=
              5489                   %MID_B);
       57     5496               %ERRCODE(NAME=CODE_BAD_TPUINITIAL, CODE#=%E$BAD_TPUINITIAL, FCG#=%FCG_QQ,
              5496                   MID#=%MID_B);
       58     5503               %ERRCODE(NAME=CODE_BAD_STATIONMAX, CODE#=%E$BAD_STATIONMAX, FCG#=%FCG_QQ,
              5503                   MID#=%MID_B);
       59     5510               %ERRCODE(NAME=CODE_BAD_XTNSIZE, CODE#=%E$BAD_XTNSIZE, FCG#=%FCG_QQ, MID#=
              5510                   %MID_B);
       60     5517               %ERRCODE(NAME=CODE_BAD_CGDISKWARN, CODE#=%E$BAD_CGDISKWARN, FCG#=%FCG_QQ,
              5517                   MID#=%MID_B);
       61     5524               %ERRCODE(NAME=CODE_BAD_CGMEMWARN, CODE#=%E$BAD_CGMEMWARN, FCG#=%FCG_QQ, MID#=
              5524                   %MID_B);
       62     5531        %ERRCODE(NAME=CODE_BAD_CFPRU, CODE#=%E$BAD_CFPRU, FCG#=%FCG_QQ, MID#=%MID_B);
       63     5538
       64     5539        /*E*       ERROR: QQB-E$SMALL_CGSIZEMAX-C
       65     5540
       66     5541                 MESSAGE: The value specified for CGSIZEMAX via the
       67     5542                          LET command must be at least %U1.
       68     5543             DESCRIPTION: The TP system itself makes use of the comgroup.
       69     5544                          A user specified value for CGSIZEMAX was not valid
       70     5545                          for the internal needs of the TP system.
       71     5546        */
       72     5547        /*E*       ERROR: QQB-E$BAD_POOLSIZE-C
PL6.E3A0      #001=QQB$LET File=QQB$LET.:E05TSI                                  WED 07/30/97 05:32 Page:5
       73     5548
       74     5549                 MESSAGE: The value specified for POOLSIZE via the
       75     5550                          LET command must be at least %U1.
       76     5551             DESCRIPTION: The TP system itself makes use of the
       77     5552                          comgroup.  A user specified value for
       78     5553                          POOLSIZE was lower than the internal needs
       79     5554                          of the TP system.
       80     5555        */
       81     5556        /*E*       ERROR: QQB-E$BAD_IXTNSIZE-C
       82     5557
       83     5558                 MESSAGE: The value for IXTNSIZE must be between 100 and 9999.
       84     5559             DESCRIPTION: This insures that the comgroup has enough disk
       85     5560                          space to work with.
       86     5561        */
       87     5562        /*E*       ERROR: QQB-E$BAD_CGPAGEMAX-C
       88     5563
       89     5564                 MESSAGE: The value for CGPAGEMAX must be between 4 and 1000.
       90     5565             DESCRIPTION: The value of CGPAGEMAX was out of range.
       91     5566        */
       92     5567        /*E*       ERROR: QQB-E$BAD_CGPAGEMIN-C
       93     5568
       94     5569                 MESSAGE: The value for CGPAGEMIN must be between 4 and 1000.
       95     5570             DESCRIPTION: The value of CGPAGEMIN was out of range.
       96     5571        */
       97     5572        /*E*       ERROR: QQB-E$BAD_TPUINITIAL-C
       98     5573
       99     5574                 MESSAGE: The value for TPUINITIAL must be between 0 and 9999.
      100     5575             DESCRIPTION: The value of TPUINITIAL was out of range.
      101     5576        */
      102     5577        /*E*       ERROR: QQB-E$BAD_STATIONMAX-C
      103     5578                 MESSAGE: The value for STATIONMAX must be between 0 and 9999.
      104     5579             DESCRIPTION: The value of STATIONMAX was out of range.
      105     5580        */
      106     5581        /*E*       ERROR: QQB-E$BAD_XTNSIZE-C
      107     5582
      108     5583                 MESSAGE: The value for XTNSIZE must be between 50 and 9999.
      109     5584             DESCRIPTION: This insures that the comgroup has enough disk
PL6.E3A0      #001=QQB$LET File=QQB$LET.:E05TSI                                  WED 07/30/97 05:32 Page:6
      110     5585                          space to work with.
      111     5586        */
      112     5587        /*E*       ERROR: QQB-E$BAD_CGDISKWARN-C
      113     5588
      114     5589                 MESSAGE: The value for CGDISKWARN must be between 0 and 1000.
      115     5590             DESCRIPTION: The value of CGDISKWARN was out of range.
      116     5591        */
      117     5592        /*E*       ERROR: QQB-E$BAD_CGMEMWARN-C
      118     5593
      119     5594                 MESSAGE: The value for CGMEMWARN must be between 0 and 1000.
      120     5595             DESCRIPTION: The value of CGMEMWARN was out of range.
      121     5596        */
      122     5597        /*E*       ERROR: QQB-E$BAD_CFPRU-C
      123     5598                 MESSAGE: Command Forms Program must reside on disk.
      124     5599                          COMMAND_FP.:SYS substituted.
      125     5600             DESCRIPTION: The M$FID results should not indicate VLR_FID.WSN,
      126     5601                          VLR_FID.SN, VLR_FID.RES, or FPT_OPEN.V.ASN# ~= %FILE.
      127     5602        */
      128     5603        %PAGE(ARG="QQB$LET", PAGE=YES);

PL6.E3A0      #001=QQB$LET File=QQB$LET.:E05TSI                                  WED 07/30/97 05:32 Page:7
              5620    1   /***************************************************************************
              5621    1    *                                                                         *
              5622    1    *                                  QQB$LET                                *
              5623    1    *                                                                         *
              5624    1    ***************************************************************************/

      129     5628    1           SUBLK$ = QQ_CMDBLK.OUT$ -> OUT$BLK.SUBLK$(0);
      130     5629
      131     5630    2           DO CASE(QQ_CMDBLK.CODE);
      132     5631    2             CASE(18 /* LET_ACCOUNTING */);
      133     5632    2               IF SUBLK$ -> OUT$SYM.CODE = 1 /* NO */ THEN
      134     5633    3                 DO;
      135     5634    3                   QQ_GLOBAL.ACCOUNTING = '0'B;
      136     5635    3                 END;
      137     5636    2               ELSE
      138     5637    3                 DO;
      139     5638    3                   QQ_GLOBAL.ACCOUNTING = '1'B;
      140     5639    3                 END;
      141     5640    2               CALL QQB$SAVCMD;            /*  Accounting keyins are saved       */
      142     5641
      143     5642    2             CASE(19 /* LET_CGPAGEMAX */);
      144     5643    2               CALL CHARBIN(TEMP, SUBLK$ -> OUT$SYM.TEXT);
      145     5644    2               IF TEMP >= 4 AND TEMP <= 1000 THEN
      146     5645    3                 DO;
      147     5646    3                   QQ_GLOBAL.CGPAGEMAX=TEMP;
      148     5647    3                 END;
      149     5648    2               ELSE
      150     5649    3                 DO;
      151     5650    3                   QQ_CMDBLK.MINOR_ERR = CODE_BAD_CGPAGEMAX;
      152     5651    3                   CALL PRINT_ERR;
      153     5652    3                 END;
      154     5653
      155     5654    2             CASE(20 /* LET_CGPAGEMIN */);
      156     5655    2               CALL CHARBIN(TEMP, SUBLK$ -> OUT$SYM.TEXT);
      157     5656    2               IF TEMP >= 4 AND TEMP <= 1000 THEN
      158     5657    3                 DO;
      159     5658    3                   QQ_GLOBAL.CGPAGEMIN=TEMP;
PL6.E3A0      #001=QQB$LET File=QQB$LET.:E05TSI                                  WED 07/30/97 05:32 Page:8
      160     5659    3                 END;
      161     5660    2               ELSE
      162     5661    3                 DO;
      163     5662    3                   QQ_CMDBLK.MINOR_ERR = CODE_BAD_CGPAGEMIN;
      164     5663    3                   CALL PRINT_ERR;
      165     5664    3                 END;
      166     5665
      167     5666    2             CASE(21 /* LET_CGSIZEMAX */);
      168     5667    2               CALL CHARBIN(TEMP, SUBLK$ -> OUT$SYM.TEXT);
      169     5668    2               IF TEMP >= 14 + 640 THEN
      170     5669    3                 DO;
      171     5670    3                   QQ_GLOBAL.CGSIZEMAX = TEMP;
      172     5671    3                 END;
      173     5672    2               ELSE
      174     5673    3                 DO;
      175     5674    3                   QQ_CMDBLK.MINOR_ERR = CODE_SMALL_CGSIZEMAX;
      176     5675    3                   NUMBER=14+640;
      177     5676    3                   CALL PRINT_ERR_NUM;
      178     5677    3                 END;
      179     5678
      180     5679    2             CASE(22 /* LET_DCBCON */);
      181     5680    2               IF SUBLK$ -> OUT$SYM.CODE = 1 /* NO */ THEN
      182     5681    3                 DO;
      183     5682    3                   QQ_GLOBAL.DCBCON = '0'B;
      184     5683    3                 END;
      185     5684    2               ELSE
      186     5685    3                 DO;
      187     5686    3                   QQ_GLOBAL.DCBCON = '1'B;
      188     5687    3                 END;
      189     5688    2               CALL QQB$SAVCMD;            /*  DCBCON commands are saved         */
      190     5689
      191     5690    2             CASE(23 /* LET_HISTORY */);
      192     5691    2               IF SUBLK$ -> OUT$SYM.CODE = 1 /* NO */ THEN
      193     5692    3                 DO;
      194     5693    3                   QQ_GLOBAL.HISTORY = '0'B;
      195     5694    3                 END;
      196     5695    2               ELSE
PL6.E3A0      #001=QQB$LET File=QQB$LET.:E05TSI                                  WED 07/30/97 05:32 Page:9
      197     5696    3                 DO;
      198     5697    3                   QQ_GLOBAL.HISTORY = '1'B;
      199     5698    3                 END;
      200     5699
      201     5700    2             CASE(24 /* LET_IXTNSIZE */);
      202     5701    2               CALL CHARBIN(TEMP, SUBLK$ -> OUT$SYM.TEXT);
      203     5702    2               IF TEMP >= 100 AND TEMP <= 9999 THEN
      204     5703    3                 DO;
      205     5704    3                   QQ_GLOBAL.IXTNSIZE = TEMP;
      206     5705    3                 END;
      207     5706    2               ELSE
      208     5707    3                 DO;
      209     5708    3                   QQ_CMDBLK.MINOR_ERR = CODE_BAD_IXTNSIZE;
      210     5709    3                   CALL PRINT_ERR;
      211     5710    3                 END;
      212     5711
      213     5712    2             CASE(25 /* LET_JOURNAL */);
      214     5713    2               IF SUBLK$ -> OUT$SYM.CODE = 1 /* NO */ THEN
      215     5714    3                 DO;
      216     5715    3                   QQ_GLOBAL.JOURNAL = '0'B;
      217     5716    3                 END;
      218     5717    2               ELSE
      219     5718    3                 DO;
      220     5719    3                   QQ_GLOBAL.JOURNAL = '1'B;
      221     5720    3                 END;
      222     5721
      223     5722    2             CASE(26 /* LET_LOG */);
      224     5723    2               IF SUBLK$ -> OUT$SYM.CODE = 1 /* NO */ THEN
      225     5724    3                 DO;
      226     5725    3                   QQ_GLOBAL.LOG = '0'B;
      227     5726    3                 END;
      228     5727    2               ELSE
      229     5728    3                 DO;
      230     5729    3                   QQ_GLOBAL.LOG = '1'B;
      231     5730    3                 END;
      232     5731
      233     5732    2             CASE(27 /* LET_MCTID */);
PL6.E3A0      #001=QQB$LET File=QQB$LET.:E05TSI                                  WED 07/30/97 05:32 Page:10
      234     5733    2               IF SUBLK$ -> OUT$SYM.COUNT = 0 THEN
      235     5734    3                 DO;
      236     5735    3                   QQ_GLOBAL.MCTID = ' ';
      237     5736    3                 END;
      238     5737    2               ELSE
      239     5738    3                 DO;
      240     5739    3                   QQ_GLOBAL.MCTID = SUBLK$ -> OUT$SYM.TEXT;
      241     5740    3                 END;
      242     5741    2               CALL QQB$SAVCMD;            /*  MCTID commands are saved          */
      243     5742
      244     5743    2             CASE(28 /* LET_NEWCG */);
      245     5744    2               IF SUBLK$ -> OUT$SYM.CODE = 1 /* NO */ THEN
      246     5745    3                 DO;
      247     5746    3                   QQ_GLOBAL.NEWCG = '0'B;
      248     5747    3                 END;
      249     5748    2               ELSE
      250     5749    3                 DO;
      251     5750    3                   QQ_GLOBAL.NEWCG = '1'B;
      252     5751    3                 END;
      253     5752
      254     5753    2             CASE(29 /* LET_POOLSIZE */);
      255     5754    2               CALL CHARBIN(TEMP, SUBLK$ -> OUT$SYM.TEXT);
      256     5755    2               IF TEMP >= 2048 AND TEMP <= 20480 THEN
      257     5756    3                 DO;
      258     5757    3                   QQ_GLOBAL.POOLSIZE = TEMP;
      259     5758    3                 END;
      260     5759    2               ELSE
      261     5760    3                 DO;
      262     5761    3                   QQ_CMDBLK.MINOR_ERR = CODE_BAD_POOLSIZE;
      263     5762    3                   NUMBER = 2048;
      264     5763    3                   CALL PRINT_ERR_NUM;
      265     5764    3                 END;
      266     5765
      267     5766    2               IF SUBLK$ -> OUT$SYM.CODE = 1 /* NO */ THEN
      268     5767    3                 DO;
      269     5768    3                   QQ_GLOBAL.SCHEDULE = '0'B;
      270     5769    3                 END;
PL6.E3A0      #001=QQB$LET File=QQB$LET.:E05TSI                                  WED 07/30/97 05:32 Page:11
      271     5770    2               ELSE
      272     5771    3                 DO;
      273     5772    3                   QQ_GLOBAL.SCHEDULE = '1'B;
      274     5773    3                 END;
      275     5774
      276     5775    2             CASE(30 /* LET_DISKWARN */);
      277     5776    2               CALL CHARBIN(TEMP, SUBLK$ -> OUT$SYM.TEXT);
      278     5777    2               IF TEMP >= 0 AND TEMP <= 1000 THEN
      279     5778    3                 DO;
      280     5779    3                   QQ_GLOBAL.CGDISKWARN=TEMP;
      281     5780    3                 END;
      282     5781    2               ELSE
      283     5782    3                 DO;
      284     5783    3                   QQ_CMDBLK.MINOR_ERR = CODE_BAD_CGDISKWARN;
      285     5784    3                   CALL PRINT_ERR;
      286     5785    3                 END;
      287     5786
      288     5787    2             CASE(31 /* LET_STATIONMAX */);
      289     5788    2               CALL CHARBIN(TEMP, SUBLK$ -> OUT$SYM.TEXT);
      290     5789    2               IF TEMP >= 0 AND TEMP <= 9999 THEN
      291     5790    3                 DO;
      292     5791    3                   QQ_GLOBAL.STATIONMAX = TEMP;
      293     5792    3                 END;
      294     5793    2               ELSE
      295     5794    3                 DO;
      296     5795    3                   QQ_CMDBLK.MINOR_ERR = CODE_BAD_STATIONMAX;
      297     5796    3                   CALL PRINT_ERR;
      298     5797    3                 END;
      299     5798
      300     5799    2               IF SUBLK$ -> OUT$SYM.CODE = 1 /* NO */ THEN
      301     5800    3                 DO;
      302     5801    3                   QQ_GLOBAL.TESTMODE = '0'B;
      303     5802    3                 END;
      304     5803    2               ELSE
      305     5804    3                 DO;
      306     5805    3                   QQ_GLOBAL.TESTMODE = '1'B;
      307     5806    3                 END;
PL6.E3A0      #001=QQB$LET File=QQB$LET.:E05TSI                                  WED 07/30/97 05:32 Page:12
      308     5807    2               CALL QQB$SAVCMD;            /*  STATIONMAX commands are saved     */
      309     5808
      310     5809    2             CASE(32 /* LET_MEMWARN */);
      311     5810    2               CALL CHARBIN(TEMP, SUBLK$ -> OUT$SYM.TEXT);
      312     5811    2               IF TEMP >= 0 AND TEMP <= 1000 THEN
      313     5812    3                 DO;
      314     5813    3                   QQ_GLOBAL.CGMEMWARN=TEMP;
      315     5814    3                 END;
      316     5815    2               ELSE
      317     5816    3                 DO;
      318     5817    3                   QQ_CMDBLK.MINOR_ERR = CODE_BAD_CGMEMWARN;
      319     5818    3                   CALL PRINT_ERR;
      320     5819    3                 END;
      321     5820
      322     5821    2             CASE(33 /* LET_TPCPRU */);
      323     5822    2               QQ_GLOBAL.TPCP_RU.L# = SUBLK$ -> OUT$SYM.COUNT;
      324     5823    2               QQ_GLOBAL.TPCP_RU.NAME# = SUBLK$ -> OUT$SYM.TEXT;
      325     5824
      326     5825    2             CASE(34 /* LET_TPUINITIAL */);
      327     5826    2               CALL CHARBIN(TEMP, SUBLK$ -> OUT$SYM.TEXT);
      328     5827    2               IF TEMP >= 0 AND TEMP <= 9999 THEN
      329     5828    3                 DO;
      330     5829    3                   QQ_GLOBAL.TPUINITIAL=TEMP;
      331     5830    3                 END;
      332     5831    2               ELSE
      333     5832    3                 DO;
      334     5833    3                   QQ_CMDBLK.MINOR_ERR = CODE_BAD_TPUINITIAL;
      335     5834    3                   CALL PRINT_ERR;
      336     5835    3                 END;
      337     5836
      338     5837    2             CASE(35 /* LET_TPUMAX */);
      339     5838    2               CALL CHARBIN(QQ_GLOBAL.TPUMAX, SUBLK$ -> OUT$SYM.TEXT);
      340     5839
      341     5840    2             CASE(36 /* LET_TPUMIN */);
      342     5841    2               CALL CHARBIN(QQ_GLOBAL.TPUMIN, SUBLK$ -> OUT$SYM.TEXT);
      343     5842
      344     5843    2             CASE(37 /* LET_CFPRU */);
PL6.E3A0      #001=QQB$LET File=QQB$LET.:E05TSI                                  WED 07/30/97 05:32 Page:13
      345     5844
      346     5845    2               FID = SUBLK$ -> OUT$SYM.TEXT;
      347     5846    3               CALL M$FID (FPT_FID) WHENRETURN DO;
      348     5847
      349     5848    3                   IF FPT_OPEN.V.ASN# ~= 1 OR
      350     5849    3                       VLR_FID.PASS OR
      351     5850    3                       VLR_FID.SN OR
      352     5851    3                       VLR_FID.WSN OR
      353     5852    3                       VLR_FID.RES THEN
      354     5853    4                     DO;
      355     5854
      356     5855    4                       QQ_CMDBLK.MINOR_ERR = CODE_BAD_CFPRU;
      357     5856    4                       CALL PRINT_ERR;
      358     5857
      359     5858    4                     END;
      360     5859    3                   ELSE
      361     5860    4                     DO;
      362     5861
      363     5862    4                       QQ_GLOBAL.CFP_RU.ACCT = VLP_ACCT.ACCT#;
      364     5863    4                       QQ_GLOBAL.CFP_RU.NAME = VLP_NAME;
      365     5864    4                       QQ_GLOBAL.CFP_RU.PASS = VLP_PASS.PASS#;
      366     5865    4                       QQ_GLOBAL.CFP_RU.PSN = VLP_SN.SN#(0);
      367     5866
      368     5867    4                     END;
      369     5868
      370     5869    3                 END;
      371     5870    3               WHENALTRETURN DO;
      372     5871
      373     5872    3                   QQ_CMDBLK.MINOR_ERR = CODE_BAD_CFPRU;
      374     5873    3                   CALL PRINT_ERR;
      375     5874
      376     5875    3                 END;
      377     5876
      378     5877    2             CASE(38 /* LET_XTNSIZE */);
      379     5878    2               CALL CHARBIN(TEMP, SUBLK$ -> OUT$SYM.TEXT);
      380     5879    2               IF TEMP >= 50 AND TEMP <= 9999 THEN
      381     5880    3                 DO;
PL6.E3A0      #001=QQB$LET File=QQB$LET.:E05TSI                                  WED 07/30/97 05:32 Page:14
      382     5881    3                   QQ_GLOBAL.XTNSIZE = TEMP;
      383     5882    3                 END;
      384     5883    2               ELSE
      385     5884    3                 DO;
      386     5885    3                   QQ_CMDBLK.MINOR_ERR = CODE_BAD_XTNSIZE;
      387     5886    3                   CALL PRINT_ERR;
      388     5887    3                 END;
      389     5888    2               CALL QQB$SAVCMD;            /*  XTNSIZE commands are saved        */
      390     5889
      391     5890    2             CASE(39 /* LET_TPHEAD */);
      392     5891    2               PC$INSTANCE.HDR.CNT = SUBLK$ -> OUT$SYM.COUNT;
      393     5892    2               PC$INSTANCE.HDR.MSG = SUBLK$ -> OUT$SYM.TEXT;
      394     5893    2               PC$INSTANCE.FLAGS.HEADER = (SUBLK$->OUT$SYM.COUNT > 0);
      395     5894
      396     5895    2           END /* CASE */;
      397     5896    1           RETURN;
      398     5897                %PAGE(ARG="PRINT_ERR", PAGE=YES);

PL6.E3A0      #001=QQB$LET File=QQB$LET.:E05TSI                                  WED 07/30/97 05:32 Page:15
              5914    1   /***************************************************************************
              5915    1    *                                                                         *
              5916    1    *                                 PRINT_ERR                               *
              5917    1    *                                                                         *
              5918    1    ***************************************************************************/

      399     5922    1   PRINT_ERR:
      400     5923    1           PROC;
      401     5924
      402     5925    2           CALL QQC$BLDMSG_BLK(MSGBLK);
      403     5926    2           CALL QQC$BLDMSG(MSGBLK);
      404     5927
      405     5928    2           RETURN;
      406     5929
      407     5930    2   END PRINT_ERR;
      408     5931                %PAGE(ARG="PRINT_ERR_NUM", PAGE=YES);

PL6.E3A0      #001=QQB$LET File=QQB$LET.:E05TSI                                  WED 07/30/97 05:32 Page:16
              5948    2   /***************************************************************************
              5949    2    *                                                                         *
              5950    2    *                               PRINT_ERR_NUM                             *
              5951    2    *                                                                         *
              5952    2    ***************************************************************************/

      409     5956    1   PRINT_ERR_NUM: PROC;
      410     5957        /* */
      411     5958    2           CALL QQC$BLDMSG_BLK(MSGBLK);
      412     5959    2           CALL QQC$CONVERT_NUM(NUMBER, SIZE, ADDR(TEXTC_NUM.NAME#));
      413     5960    2           MSGBLK.ERRINFO.FIELD1(0)=VECTOR(TEXTC_NUM);
      414     5961    2           TEXTC_NUM.L# = SIZE;
      415     5962    2           CALL QQC$BLDMSG(MSGBLK);
      416     5963    2           RETURN;
      417     5964    2   END PRINT_ERR_NUM;
      418     5965    1   END QQB$LET;

PL6.E3A0      #001=QQB$LET File=QQB$LET.:E05TSI                                  WED 07/30/97 05:32 Page:17
--  Include file information  --

   QQ_DATA_R.:E05TOU  cannot be made into a system file and is referenced.
   QQ_MACROS_C.:E05TOU  is referenced.
   PC_MACRO_C.:E05TOU  is referenced.
   CP_6_SUBS.:E05TOU  is referenced.
   CP_6.:E05TOU  cannot be made into a system file and is referenced.
   Q_ERRCODE_C.:E05TOU  is referenced.
   QQ_PERR_C.:E05TOU  is referenced.
   QQ_SUBS_C.:E05TOU  is referenced.
   XU_MACRO_C.:E05TOU  is referenced.
   Q_PAGE_C.:E05TOU  is referenced.
   B$JIT_C.:E05TOU  was found in the system file and is never referenced.
   CP_6_C.:E05TOU  was found in the system file and is referenced.
      No diagnostics issued in procedure QQB$LET.

   Procedure QQB$LET requires 476 words for executable code.
   Procedure QQB$LET requires 40 words of local(AUTO) storage.

    No errors detected in file QQB$LET.:E05TSI    .

PL6.E3A0      #001=QQB$LET File=QQB$LET.:E05TSI                                  WED 07/30/97 05:32 Page:18

 Object Unit name= QQB$LET                                    File name= QQB$LET.:E05TOU
 UTS= JUL 30 '97 05:32:40.00 WED                              Compiler= PL-6/E31         Sev=      00
 SharedLib= :SHARED_SYSTEM                                    Alt SharedLib=


    ****  Control sections  ****

 Sect   Type Bound  Init  Size OctSiz  Section name(segment info)
    0   DCB   even  none     0      0  M$UC
    1   Data  even  none   130    202  QQB$LET
    2  RoData even  UTS     11     13  QQB$LET
    3   Proc  even  none   476    734  QQB$LET
    4  RoData even  none     2      2  QQB$LET

    ****  Entry defs  ****

                              Check   Calling
                             calling  sequence
  Sect OctLoc Primary Altret sequence   type   Parms  Name
     3      0   yes            yes      Std        0  QQB$LET

  ****  Entry refs  ****

         Check        Calling
        calling       sequence
Altret sequence SRef   type   Args  Name
         yes           Std       0 QQB$SAVCMD
         yes           Std       1 QQC$BLDMSG_BLK
         yes           Std       1 QQC$BLDMSG
         yes           Std       3 QQC$CONVERT_NUM
                       nStd      0 X66_AUTO_0
                       Std       0 B_CONSPOOL_D
                       nStd      0 X66_ARET
PL6.E3A0      #001=QQB$LET File=QQB$LET.:E05TSI                                  WED 07/30/97 05:32 Page:19

  ****  Data refs  ****

  Flags:  r = read only, s = secondary
Flgs Name                             Flgs Name                             Flgs Name
     M$UC                                  QQ_CMDBLK                             QQ_GLOBAL
     B_VECTNIL

  ****  Segment refs  ****

  Flags:  r = read only, s = secondary
Flgs Name                             Flgs Name                             Flgs Name
     ISSID                                 NULLSID
PL6.E3A0      #001=QQB$LET File=QQB$LET.:E05TSI                                  WED 07/30/97 05:32 Page:20


        1        1        /*M* QQB$LET - Process LET commands */
        2        2        /*T***********************************************************/
        3        3        /*T*                                                         */
        4        4        /*T* Copyright (c) Bull HN Information Systems Inc., 1997    */
        5        5        /*T*                                                         */
        6        6        /*T***********************************************************/
        7        7        /*X* IND=2, DCI=4, CSU=2, ECU=4, DTI=2, CTI=4, AND */
        8        8        QQB$LET:
        9        9                PROC;

      9  3 000000   000000 700200 xent  QQB$LET      TSX0  ! X66_AUTO_0
         3 000001   000050 000000                    ZERO    40,0

       10       10
       11       11        %INCLUDE Q_PAGE_C;
       12       43        %SET LISTEXP = '1'B;
       13       44        %PAGE(ARG="Includes");

                61        /***************************************************************************
                62         *                                                                         *
                63         *                                  Includes                               *
                64         *                                                                         *
                65         ***************************************************************************/

       14       69        %INCLUDE XU_MACRO_C;
       15     3175        %INCLUDE QQ_SUBS_C;
       16     3367        %INCLUDE QQ_PERR_C;
       17     3528        %INCLUDE Q_ERRCODE_C;
       18     3551        %INCLUDE CP_6;
       19     3632        %INCLUDE CP_6_SUBS;
       20     4172        %INCLUDE PC_MACRO_C;
       21     4198        %INCLUDE QQ_MACROS_C;
       22     4623        %INCLUDE QQ_DATA_R;
       23     4869        %PAGE(ARG="Externally defined routines");

              4886    1   /***************************************************************************
PL6.E3A0      #001=QQB$LET File=QQB$LET.:E05TSI                                  WED 07/30/97 05:32 Page:21
              4887    1    *                                                                         *
              4888    1    *                        Externally defined routines                      *
              4889    1    *                                                                         *
              4890    1    ***************************************************************************/

       24     4894    1   DCL QQC$BLDMSG_BLK ENTRY(1);
       25     4895    1   DCL QQB$SAVCMD ENTRY;
       26     4896    1   DCL QQC$BLDMSG ENTRY(1);
       27     4897    1   DCL QQC$CONVERT_NUM ENTRY(3);
       28     4898        %PAGE(ARG="Based");

              4915    1   /***************************************************************************
              4916    1    *                                                                         *
              4917    1    *                                   Based                                 *
              4918    1    *                                                                         *
              4919    1    ***************************************************************************/

       29     4923        %PARSE$OUT(STCLASS=BASED);
       30     4968        %PARSE$SYM(STCLASS=BASED);
       31     5006        %PC$INSTANCE(STCLASS="BASED(QQ_GLOBAL.PC$INSTANCE$)");
       32     5056        %PAGE(ARG="Auto");

              5073    1   /***************************************************************************
              5074    1    *                                                                         *
              5075    1    *                                    Auto                                 *
              5076    1    *                                                                         *
              5077    1    ***************************************************************************/

       33     5081    1   DCL TEMP SBIN WORD;
       34     5082
       35     5083    1   DCL SUBLK$ PTR;
       36     5084    1   DCL FID CHAR(80) STATIC;
       37     5085        %FPT_OPEN;
       38     5194        %FPT_FID (NAME=VLP_NAME, PASS=VLP_PASS, RESULTS=VLR_FID, ACCT=VLP_ACCT,
       39     5195                 ASN="FPT_OPEN.V.ASN#", SN=VLP_SN, WSN=VLP_WSN,
       40     5196                 RES="FPT_OPEN.V.RES#", TEXTFID=FID);
       41     5219        %VLR_FID;
PL6.E3A0      #001=QQB$LET File=QQB$LET.:E05TSI                                  WED 07/30/97 05:32 Page:22
       42     5238        %VLP_ACCT;
       43     5251        %VLP_NAME;
       44     5278        %VLP_WSN;
       45     5291        %VLP_SN;
       46     5304        %VLP_PASS;
       47     5317        %VLP_NAME(FPTN=TEXTC_NUM, STCLASS=AUTO, LEN=8);
       48     5344    1   DCL NUMBER UBIN;
       49     5345    1   DCL SIZE SBIN;
       50     5346        %MSGBLK;
       51     5436        %PAGE(ARG="Error codes", PAGE=YES);

PL6.E3A0      #001=QQB$LET File=QQB$LET.:E05TSI                                  WED 07/30/97 05:32 Page:23
              5453    1   /***************************************************************************
              5454    1    *                                                                         *
              5455    1    *                                Error codes                              *
              5456    1    *                                                                         *
              5457    1    ***************************************************************************/

       52     5461        %ERRCODE(NAME=CODE_SMALL_CGSIZEMAX, CODE#=%E$SMALL_CGSIZEMAX, FCG#=%FCG_QQ, MID#=
              5461            %MID_B);
       53     5468               %ERRCODE(NAME=CODE_BAD_POOLSIZE, CODE#=%E$BAD_POOLSIZE, FCG#=%FCG_QQ, MID#=
              5468                   %MID_B);
       54     5475               %ERRCODE(NAME=CODE_BAD_IXTNSIZE, CODE#=%E$BAD_IXTNSIZE, FCG#=%FCG_QQ, MID#=
              5475                   %MID_B);
       55     5482              %ERRCODE(NAME=CODE_BAD_CGPAGEMAX, CODE#=%E$BAD_CGPAGEMAX, FCG#=%FCG_QQ, MID#=
              5482                   %MID_B);
       56     5489              %ERRCODE(NAME=CODE_BAD_CGPAGEMIN, CODE#=%E$BAD_CGPAGEMIN, FCG#=%FCG_QQ, MID#=
              5489                   %MID_B);
       57     5496               %ERRCODE(NAME=CODE_BAD_TPUINITIAL, CODE#=%E$BAD_TPUINITIAL, FCG#=%FCG_QQ,
              5496                   MID#=%MID_B);
       58     5503               %ERRCODE(NAME=CODE_BAD_STATIONMAX, CODE#=%E$BAD_STATIONMAX, FCG#=%FCG_QQ,
              5503                   MID#=%MID_B);
       59     5510               %ERRCODE(NAME=CODE_BAD_XTNSIZE, CODE#=%E$BAD_XTNSIZE, FCG#=%FCG_QQ, MID#=
              5510                   %MID_B);
       60     5517               %ERRCODE(NAME=CODE_BAD_CGDISKWARN, CODE#=%E$BAD_CGDISKWARN, FCG#=%FCG_QQ,
              5517                   MID#=%MID_B);
       61     5524              %ERRCODE(NAME=CODE_BAD_CGMEMWARN, CODE#=%E$BAD_CGMEMWARN, FCG#=%FCG_QQ, MID#=
              5524                   %MID_B);
       62     5531        %ERRCODE(NAME=CODE_BAD_CFPRU, CODE#=%E$BAD_CFPRU, FCG#=%FCG_QQ, MID#=%MID_B);
       63     5538
       64     5539        /*E*       ERROR: QQB-E$SMALL_CGSIZEMAX-C
       65     5540
       66     5541                 MESSAGE: The value specified for CGSIZEMAX via the
       67     5542                          LET command must be at least %U1.
       68     5543             DESCRIPTION: The TP system itself makes use of the comgroup.
       69     5544                          A user specified value for CGSIZEMAX was not valid
       70     5545                          for the internal needs of the TP system.
       71     5546        */
       72     5547        /*E*       ERROR: QQB-E$BAD_POOLSIZE-C
PL6.E3A0      #001=QQB$LET File=QQB$LET.:E05TSI                                  WED 07/30/97 05:32 Page:24
       73     5548
       74     5549                 MESSAGE: The value specified for POOLSIZE via the
       75     5550                          LET command must be at least %U1.
       76     5551             DESCRIPTION: The TP system itself makes use of the
       77     5552                          comgroup.  A user specified value for
       78     5553                          POOLSIZE was lower than the internal needs
       79     5554                          of the TP system.
       80     5555        */
       81     5556        /*E*       ERROR: QQB-E$BAD_IXTNSIZE-C
       82     5557
       83     5558                 MESSAGE: The value for IXTNSIZE must be between 100 and 9999.
       84     5559             DESCRIPTION: This insures that the comgroup has enough disk
       85     5560                          space to work with.
       86     5561        */
       87     5562        /*E*       ERROR: QQB-E$BAD_CGPAGEMAX-C
       88     5563
       89     5564                 MESSAGE: The value for CGPAGEMAX must be between 4 and 1000.
       90     5565             DESCRIPTION: The value of CGPAGEMAX was out of range.
       91     5566        */
       92     5567        /*E*       ERROR: QQB-E$BAD_CGPAGEMIN-C
       93     5568
       94     5569                 MESSAGE: The value for CGPAGEMIN must be between 4 and 1000.
       95     5570             DESCRIPTION: The value of CGPAGEMIN was out of range.
       96     5571        */
       97     5572        /*E*       ERROR: QQB-E$BAD_TPUINITIAL-C
       98     5573
       99     5574                 MESSAGE: The value for TPUINITIAL must be between 0 and 9999.
      100     5575             DESCRIPTION: The value of TPUINITIAL was out of range.
      101     5576        */
      102     5577        /*E*       ERROR: QQB-E$BAD_STATIONMAX-C
      103     5578                 MESSAGE: The value for STATIONMAX must be between 0 and 9999.
      104     5579             DESCRIPTION: The value of STATIONMAX was out of range.
      105     5580        */
      106     5581        /*E*       ERROR: QQB-E$BAD_XTNSIZE-C
      107     5582
      108     5583                 MESSAGE: The value for XTNSIZE must be between 50 and 9999.
      109     5584             DESCRIPTION: This insures that the comgroup has enough disk
PL6.E3A0      #001=QQB$LET File=QQB$LET.:E05TSI                                  WED 07/30/97 05:32 Page:25
      110     5585                          space to work with.
      111     5586        */
      112     5587        /*E*       ERROR: QQB-E$BAD_CGDISKWARN-C
      113     5588
      114     5589                 MESSAGE: The value for CGDISKWARN must be between 0 and 1000.
      115     5590             DESCRIPTION: The value of CGDISKWARN was out of range.
      116     5591        */
      117     5592        /*E*       ERROR: QQB-E$BAD_CGMEMWARN-C
      118     5593
      119     5594                 MESSAGE: The value for CGMEMWARN must be between 0 and 1000.
      120     5595             DESCRIPTION: The value of CGMEMWARN was out of range.
      121     5596        */
      122     5597        /*E*       ERROR: QQB-E$BAD_CFPRU-C
      123     5598                 MESSAGE: Command Forms Program must reside on disk.
      124     5599                          COMMAND_FP.:SYS substituted.
      125     5600             DESCRIPTION: The M$FID results should not indicate VLR_FID.WSN,
      126     5601                          VLR_FID.SN, VLR_FID.RES, or FPT_OPEN.V.ASN# ~= %FILE.
      127     5602        */
      128     5603        %PAGE(ARG="QQB$LET", PAGE=YES);

PL6.E3A0      #001=QQB$LET File=QQB$LET.:E05TSI                                  WED 07/30/97 05:32 Page:26
              5620    1   /***************************************************************************
              5621    1    *                                                                         *
              5622    1    *                                  QQB$LET                                *
              5623    1    *                                                                         *
              5624    1    ***************************************************************************/

      129     5628    1           SUBLK$ = QQ_CMDBLK.OUT$ -> OUT$BLK.SUBLK$(0);

   5628  3 000002   000005 470400 xsym               LDP0    QQ_CMDBLK+5
         3 000003   000003 236100                    LDQ     3,,PR0
         3 000004   200004 756100                    STQ     SUBLK$,,AUTO

      130     5629
      131     5630    2           DO CASE(QQ_CMDBLK.CODE);

   5630  3 000005   000006 235000 xsym               LDA     QQ_CMDBLK+6
         3 000006   000022 135007                    SBLA    18,DL
         3 000007   000026 115007                    CMPA    22,DL
         3 000010   000012 602005 3                  TNC     s:5630+5,AL
         3 000011   000644 710000 3                  TRA     s:5896
         3 000012   000040 710000 3                  TRA     s:5632
         3 000013   000054 710000 3                  TRA     s:5643
         3 000014   000077 710000 3                  TRA     s:5655
         3 000015   000122 710000 3                  TRA     s:5667
         3 000016   000145 710000 3                  TRA     s:5680
         3 000017   000161 710000 3                  TRA     s:5691
         3 000020   000172 710000 3                  TRA     s:5701
         3 000021   000215 710000 3                  TRA     s:5713
         3 000022   000226 710000 3                  TRA     s:5723
         3 000023   000237 710000 3                  TRA     s:5733
         3 000024   000262 710000 3                  TRA     s:5744
         3 000025   000273 710000 3                  TRA     s:5754
         3 000026   000330 710000 3                  TRA     s:5776
         3 000027   000352 710000 3                  TRA     s:5788
         3 000030   000407 710000 3                  TRA     s:5810
         3 000031   000431 710000 3                  TRA     s:5822
         3 000032   000443 710000 3                  TRA     s:5826
PL6.E3A0      #001=QQB$LET File=QQB$LET.:E05TSI                                  WED 07/30/97 05:32 Page:27
         3 000033   000465 710000 3                  TRA     s:5838
         3 000034   000477 710000 3                  TRA     s:5841
         3 000035   000511 710000 3                  TRA     s:5845
         3 000036   000570 710000 3                  TRA     s:5878
         3 000037   000616 710000 3                  TRA     s:5891

      132     5631    2             CASE(18 /* LET_ACCOUNTING */);

      133     5632    2               IF SUBLK$ -> OUT$SYM.CODE = 1 /* NO */ THEN

   5632  3 000040   200004 471500                    LDP1    SUBLK$,,AUTO
         3 000041   100000 720100                    LXL0    0,,PR1
         3 000042   000001 100003                    CMPX0   1,DU
         3 000043   000046 601000 3                  TNZ     s:5638

      134     5633    3                 DO;

      135     5634    3                   QQ_GLOBAL.ACCOUNTING = '0'B;

   5634  3 000044   000002 450000 xsym               STZ     QQ_GLOBAL+2

      136     5635    3                 END;

   5635  3 000045   000050 710000 3                  TRA     s:5640

      137     5636    2               ELSE
      138     5637    3                 DO;

      139     5638    3                   QQ_GLOBAL.ACCOUNTING = '1'B;

   5638  3 000046   400000 236003                    LDQ     -131072,DU
         3 000047   000002 756000 xsym               STQ     QQ_GLOBAL+2

      140     5639    3                 END;

      141     5640    2               CALL QQB$SAVCMD;            /*  Accounting keyins are saved       */

PL6.E3A0      #001=QQB$LET File=QQB$LET.:E05TSI                                  WED 07/30/97 05:32 Page:28
   5640  3 000050   000002 631400 xsym               EPPR1   B_VECTNIL+2
         3 000051   000000 701000 xent               TSX1    QQB$SAVCMD
         3 000052   000000 011000                    NOP     0
         3 000053   000644 710000 3                  TRA     s:5896

      142     5641
      143     5642    2             CASE(19 /* LET_CGPAGEMAX */);

      144     5643    2               CALL CHARBIN(TEMP, SUBLK$ -> OUT$SYM.TEXT);

   5643  3 000054   200004 471500                    LDP1    SUBLK$,,AUTO
         3 000055   100004 236100                    LDQ     4,,PR1
         3 000056   000033 772000                    QRL     27
         3 000057   000000 620006                    EAX0    0,QL
         3 000060   000100 305540                    DTB
         3 000061   100004 230010                    NDSC9   4,,PR1                   cn=1,s=nosgn,sf=0,n=*X0
         3 000062   200003 000004                    NDSC9   TEMP,,AUTO               cn=0,s=lsgnf,sf=0,n=4

      145     5644    2               IF TEMP >= 4 AND TEMP <= 1000 THEN

   5644  3 000063   200003 235100                    LDA     TEMP,,AUTO
         3 000064   000004 115007                    CMPA    4,DL
         3 000065   000072 604000 3                  TMI     s:5650
         3 000066   001750 115007                    CMPA    1000,DL
         3 000067   000072 605400 3                  TPNZ    s:5650

      146     5645    3                 DO;

      147     5646    3                   QQ_GLOBAL.CGPAGEMAX=TEMP;

   5646  3 000070   000017 755000 xsym               STA     QQ_GLOBAL+15

      148     5647    3                 END;

   5647  3 000071   000644 710000 3                  TRA     s:5896

      149     5648    2               ELSE
PL6.E3A0      #001=QQB$LET File=QQB$LET.:E05TSI                                  WED 07/30/97 05:32 Page:29
      150     5649    3                 DO;

      151     5650    3                   QQ_CMDBLK.MINOR_ERR = CODE_BAD_CGPAGEMAX;

   5650  3 000072   000003 236000 2                  LDQ     CODE_BAD_CGPAGEMAX
         3 000073   000001 756000 xsym               STQ     QQ_CMDBLK+1

      152     5651    3                   CALL PRINT_ERR;

   5651  3 000074   000645 701000 3                  TSX1    PRINT_ERR
         3 000075   000000 011000                    NOP     0

      153     5652    3                 END;

   5652  3 000076   000644 710000 3                  TRA     s:5896

      154     5653
      155     5654    2             CASE(20 /* LET_CGPAGEMIN */);

      156     5655    2               CALL CHARBIN(TEMP, SUBLK$ -> OUT$SYM.TEXT);

   5655  3 000077   200004 471500                    LDP1    SUBLK$,,AUTO
         3 000100   100004 236100                    LDQ     4,,PR1
         3 000101   000033 772000                    QRL     27
         3 000102   000000 620006                    EAX0    0,QL
         3 000103   000100 305540                    DTB
         3 000104   100004 230010                    NDSC9   4,,PR1                   cn=1,s=nosgn,sf=0,n=*X0
         3 000105   200003 000004                    NDSC9   TEMP,,AUTO               cn=0,s=lsgnf,sf=0,n=4

      157     5656    2               IF TEMP >= 4 AND TEMP <= 1000 THEN

   5656  3 000106   200003 235100                    LDA     TEMP,,AUTO
         3 000107   000004 115007                    CMPA    4,DL
         3 000110   000115 604000 3                  TMI     s:5662
         3 000111   001750 115007                    CMPA    1000,DL
         3 000112   000115 605400 3                  TPNZ    s:5662

PL6.E3A0      #001=QQB$LET File=QQB$LET.:E05TSI                                  WED 07/30/97 05:32 Page:30
      158     5657    3                 DO;

      159     5658    3                   QQ_GLOBAL.CGPAGEMIN=TEMP;

   5658  3 000113   000020 755000 xsym               STA     QQ_GLOBAL+16

      160     5659    3                 END;

   5659  3 000114   000644 710000 3                  TRA     s:5896

      161     5660    2               ELSE
      162     5661    3                 DO;

      163     5662    3                   QQ_CMDBLK.MINOR_ERR = CODE_BAD_CGPAGEMIN;

   5662  3 000115   000004 236000 2                  LDQ     CODE_BAD_CGPAGEMIN
         3 000116   000001 756000 xsym               STQ     QQ_CMDBLK+1

      164     5663    3                   CALL PRINT_ERR;

   5663  3 000117   000645 701000 3                  TSX1    PRINT_ERR
         3 000120   000000 011000                    NOP     0

      165     5664    3                 END;

   5664  3 000121   000644 710000 3                  TRA     s:5896

      166     5665
      167     5666    2             CASE(21 /* LET_CGSIZEMAX */);

      168     5667    2               CALL CHARBIN(TEMP, SUBLK$ -> OUT$SYM.TEXT);

   5667  3 000122   200004 471500                    LDP1    SUBLK$,,AUTO
         3 000123   100004 236100                    LDQ     4,,PR1
         3 000124   000033 772000                    QRL     27
         3 000125   000000 620006                    EAX0    0,QL
         3 000126   000100 305540                    DTB
PL6.E3A0      #001=QQB$LET File=QQB$LET.:E05TSI                                  WED 07/30/97 05:32 Page:31
         3 000127   100004 230010                    NDSC9   4,,PR1                   cn=1,s=nosgn,sf=0,n=*X0
         3 000130   200003 000004                    NDSC9   TEMP,,AUTO               cn=0,s=lsgnf,sf=0,n=4

      169     5668    2               IF TEMP >= 14 + 640 THEN

   5668  3 000131   200003 235100                    LDA     TEMP,,AUTO
         3 000132   001216 115007                    CMPA    654,DL
         3 000133   000136 604000 3                  TMI     s:5674

      170     5669    3                 DO;

      171     5670    3                   QQ_GLOBAL.CGSIZEMAX = TEMP;

   5670  3 000134   000021 755000 xsym               STA     QQ_GLOBAL+17

      172     5671    3                 END;

   5671  3 000135   000644 710000 3                  TRA     s:5896

      173     5672    2               ELSE
      174     5673    3                 DO;

      175     5674    3                   QQ_CMDBLK.MINOR_ERR = CODE_SMALL_CGSIZEMAX;

   5674  3 000136   000000 236000 2                  LDQ     CODE_SMALL_CGSIZEMAX
         3 000137   000001 756000 xsym               STQ     QQ_CMDBLK+1

      176     5675    3                   NUMBER=14+640;

   5675  3 000140   001216 235007                    LDA     654,DL
         3 000141   200010 755100                    STA     NUMBER,,AUTO

      177     5676    3                   CALL PRINT_ERR_NUM;

   5676  3 000142   000664 701000 3                  TSX1    PRINT_ERR_NUM
         3 000143   000000 011000                    NOP     0

PL6.E3A0      #001=QQB$LET File=QQB$LET.:E05TSI                                  WED 07/30/97 05:32 Page:32
      178     5677    3                 END;

   5677  3 000144   000644 710000 3                  TRA     s:5896

      179     5678
      180     5679    2             CASE(22 /* LET_DCBCON */);

      181     5680    2               IF SUBLK$ -> OUT$SYM.CODE = 1 /* NO */ THEN

   5680  3 000145   200004 471500                    LDP1    SUBLK$,,AUTO
         3 000146   100000 720100                    LXL0    0,,PR1
         3 000147   000001 100003                    CMPX0   1,DU
         3 000150   000153 601000 3                  TNZ     s:5686

      182     5681    3                 DO;

      183     5682    3                   QQ_GLOBAL.DCBCON = '0'B;

   5682  3 000151   000012 450000 xsym               STZ     QQ_GLOBAL+10

      184     5683    3                 END;

   5683  3 000152   000155 710000 3                  TRA     s:5688

      185     5684    2               ELSE
      186     5685    3                 DO;

      187     5686    3                   QQ_GLOBAL.DCBCON = '1'B;

   5686  3 000153   400000 236003                    LDQ     -131072,DU
         3 000154   000012 756000 xsym               STQ     QQ_GLOBAL+10

      188     5687    3                 END;

      189     5688    2               CALL QQB$SAVCMD;            /*  DCBCON commands are saved         */

   5688  3 000155   000002 631400 xsym               EPPR1   B_VECTNIL+2
PL6.E3A0      #001=QQB$LET File=QQB$LET.:E05TSI                                  WED 07/30/97 05:32 Page:33
         3 000156   000000 701000 xent               TSX1    QQB$SAVCMD
         3 000157   000000 011000                    NOP     0
         3 000160   000644 710000 3                  TRA     s:5896

      190     5689
      191     5690    2             CASE(23 /* LET_HISTORY */);

      192     5691    2               IF SUBLK$ -> OUT$SYM.CODE = 1 /* NO */ THEN

   5691  3 000161   200004 471500                    LDP1    SUBLK$,,AUTO
         3 000162   100000 720100                    LXL0    0,,PR1
         3 000163   000001 100003                    CMPX0   1,DU
         3 000164   000167 601000 3                  TNZ     s:5697

      193     5692    3                 DO;

      194     5693    3                   QQ_GLOBAL.HISTORY = '0'B;

   5693  3 000165   000003 450000 xsym               STZ     QQ_GLOBAL+3

      195     5694    3                 END;

   5694  3 000166   000644 710000 3                  TRA     s:5896

      196     5695    2               ELSE
      197     5696    3                 DO;

      198     5697    3                   QQ_GLOBAL.HISTORY = '1'B;

   5697  3 000167   400000 236003                    LDQ     -131072,DU
         3 000170   000003 756000 xsym               STQ     QQ_GLOBAL+3

      199     5698    3                 END;

   5698  3 000171   000644 710000 3                  TRA     s:5896

      200     5699
PL6.E3A0      #001=QQB$LET File=QQB$LET.:E05TSI                                  WED 07/30/97 05:32 Page:34
      201     5700    2             CASE(24 /* LET_IXTNSIZE */);

      202     5701    2               CALL CHARBIN(TEMP, SUBLK$ -> OUT$SYM.TEXT);

   5701  3 000172   200004 471500                    LDP1    SUBLK$,,AUTO
         3 000173   100004 236100                    LDQ     4,,PR1
         3 000174   000033 772000                    QRL     27
         3 000175   000000 620006                    EAX0    0,QL
         3 000176   000100 305540                    DTB
         3 000177   100004 230010                    NDSC9   4,,PR1                   cn=1,s=nosgn,sf=0,n=*X0
         3 000200   200003 000004                    NDSC9   TEMP,,AUTO               cn=0,s=lsgnf,sf=0,n=4

      203     5702    2               IF TEMP >= 100 AND TEMP <= 9999 THEN

   5702  3 000201   200003 235100                    LDA     TEMP,,AUTO
         3 000202   000144 115007                    CMPA    100,DL
         3 000203   000210 604000 3                  TMI     s:5708
         3 000204   023417 115007                    CMPA    9999,DL
         3 000205   000210 605400 3                  TPNZ    s:5708

      204     5703    3                 DO;

      205     5704    3                   QQ_GLOBAL.IXTNSIZE = TEMP;

   5704  3 000206   000061 755000 xsym               STA     QQ_GLOBAL+49

      206     5705    3                 END;

   5705  3 000207   000644 710000 3                  TRA     s:5896

      207     5706    2               ELSE
      208     5707    3                 DO;

      209     5708    3                   QQ_CMDBLK.MINOR_ERR = CODE_BAD_IXTNSIZE;

   5708  3 000210   000002 236000 2                  LDQ     CODE_BAD_IXTNSIZE
         3 000211   000001 756000 xsym               STQ     QQ_CMDBLK+1
PL6.E3A0      #001=QQB$LET File=QQB$LET.:E05TSI                                  WED 07/30/97 05:32 Page:35

      210     5709    3                   CALL PRINT_ERR;

   5709  3 000212   000645 701000 3                  TSX1    PRINT_ERR
         3 000213   000000 011000                    NOP     0

      211     5710    3                 END;

   5710  3 000214   000644 710000 3                  TRA     s:5896

      212     5711
      213     5712    2             CASE(25 /* LET_JOURNAL */);

      214     5713    2               IF SUBLK$ -> OUT$SYM.CODE = 1 /* NO */ THEN

   5713  3 000215   200004 471500                    LDP1    SUBLK$,,AUTO
         3 000216   100000 720100                    LXL0    0,,PR1
         3 000217   000001 100003                    CMPX0   1,DU
         3 000220   000223 601000 3                  TNZ     s:5719

      215     5714    3                 DO;

      216     5715    3                   QQ_GLOBAL.JOURNAL = '0'B;

   5715  3 000221   000004 450000 xsym               STZ     QQ_GLOBAL+4

      217     5716    3                 END;

   5716  3 000222   000644 710000 3                  TRA     s:5896

      218     5717    2               ELSE
      219     5718    3                 DO;

      220     5719    3                   QQ_GLOBAL.JOURNAL = '1'B;

   5719  3 000223   400000 236003                    LDQ     -131072,DU
         3 000224   000004 756000 xsym               STQ     QQ_GLOBAL+4
PL6.E3A0      #001=QQB$LET File=QQB$LET.:E05TSI                                  WED 07/30/97 05:32 Page:36

      221     5720    3                 END;

   5720  3 000225   000644 710000 3                  TRA     s:5896

      222     5721
      223     5722    2             CASE(26 /* LET_LOG */);

      224     5723    2               IF SUBLK$ -> OUT$SYM.CODE = 1 /* NO */ THEN

   5723  3 000226   200004 471500                    LDP1    SUBLK$,,AUTO
         3 000227   100000 720100                    LXL0    0,,PR1
         3 000230   000001 100003                    CMPX0   1,DU
         3 000231   000234 601000 3                  TNZ     s:5729

      225     5724    3                 DO;

      226     5725    3                   QQ_GLOBAL.LOG = '0'B;

   5725  3 000232   000005 450000 xsym               STZ     QQ_GLOBAL+5

      227     5726    3                 END;

   5726  3 000233   000644 710000 3                  TRA     s:5896

      228     5727    2               ELSE
      229     5728    3                 DO;

      230     5729    3                   QQ_GLOBAL.LOG = '1'B;

   5729  3 000234   400000 236003                    LDQ     -131072,DU
         3 000235   000005 756000 xsym               STQ     QQ_GLOBAL+5

      231     5730    3                 END;

   5730  3 000236   000644 710000 3                  TRA     s:5896

PL6.E3A0      #001=QQB$LET File=QQB$LET.:E05TSI                                  WED 07/30/97 05:32 Page:37
      232     5731
      233     5732    2             CASE(27 /* LET_MCTID */);

      234     5733    2               IF SUBLK$ -> OUT$SYM.COUNT = 0 THEN

   5733  3 000237   200004 471500                    LDP1    SUBLK$,,AUTO
         3 000240   100004 236100                    LDQ     4,,PR1
         3 000241   777000 316003                    CANQ    -512,DU
         3 000242   000250 601000 3                  TNZ     s:5739

      235     5734    3                 DO;

      236     5735    3                   QQ_GLOBAL.MCTID = ' ';

   5735  3 000243   000035 235000 xsym               LDA     B_VECTNIL+29
         3 000244   000035 236000 xsym               LDQ     B_VECTNIL+29
         3 000245   000323 755000 xsym               STA     QQ_GLOBAL+211
         3 000246   000324 756000 xsym               STQ     QQ_GLOBAL+212

      237     5736    3                 END;

   5736  3 000247   000256 710000 3                  TRA     s:5741

      238     5737    2               ELSE
      239     5738    3                 DO;

      240     5739    3                   QQ_GLOBAL.MCTID = SUBLK$ -> OUT$SYM.TEXT;

   5739  3 000250   100004 236100                    LDQ     4,,PR1
         3 000251   000033 772000                    QRL     27
         3 000252   000000 620006                    EAX0    0,QL
         3 000253   040000 100540                    MLR     fill='040'O
         3 000254   100004 200010                    ADSC9   4,,PR1                   cn=1,n=*X0
         3 000255   000323 000010 xsym               ADSC9   QQ_GLOBAL+211            cn=0,n=8

      241     5740    3                 END;

PL6.E3A0      #001=QQB$LET File=QQB$LET.:E05TSI                                  WED 07/30/97 05:32 Page:38
      242     5741    2               CALL QQB$SAVCMD;            /*  MCTID commands are saved          */

   5741  3 000256   000002 631400 xsym               EPPR1   B_VECTNIL+2
         3 000257   000000 701000 xent               TSX1    QQB$SAVCMD
         3 000260   000000 011000                    NOP     0
         3 000261   000644 710000 3                  TRA     s:5896

      243     5742
      244     5743    2             CASE(28 /* LET_NEWCG */);

      245     5744    2               IF SUBLK$ -> OUT$SYM.CODE = 1 /* NO */ THEN

   5744  3 000262   200004 471500                    LDP1    SUBLK$,,AUTO
         3 000263   100000 720100                    LXL0    0,,PR1
         3 000264   000001 100003                    CMPX0   1,DU
         3 000265   000270 601000 3                  TNZ     s:5750

      246     5745    3                 DO;

      247     5746    3                   QQ_GLOBAL.NEWCG = '0'B;

   5746  3 000266   000010 450000 xsym               STZ     QQ_GLOBAL+8

      248     5747    3                 END;

   5747  3 000267   000644 710000 3                  TRA     s:5896

      249     5748    2               ELSE
      250     5749    3                 DO;

      251     5750    3                   QQ_GLOBAL.NEWCG = '1'B;

   5750  3 000270   400000 236003                    LDQ     -131072,DU
         3 000271   000010 756000 xsym               STQ     QQ_GLOBAL+8

      252     5751    3                 END;

PL6.E3A0      #001=QQB$LET File=QQB$LET.:E05TSI                                  WED 07/30/97 05:32 Page:39
   5751  3 000272   000644 710000 3                  TRA     s:5896

      253     5752
      254     5753    2             CASE(29 /* LET_POOLSIZE */);

      255     5754    2               CALL CHARBIN(TEMP, SUBLK$ -> OUT$SYM.TEXT);

   5754  3 000273   200004 471500                    LDP1    SUBLK$,,AUTO
         3 000274   100004 236100                    LDQ     4,,PR1
         3 000275   000033 772000                    QRL     27
         3 000276   000000 620006                    EAX0    0,QL
         3 000277   000100 305540                    DTB
         3 000300   100004 230010                    NDSC9   4,,PR1                   cn=1,s=nosgn,sf=0,n=*X0
         3 000301   200003 000004                    NDSC9   TEMP,,AUTO               cn=0,s=lsgnf,sf=0,n=4

      256     5755    2               IF TEMP >= 2048 AND TEMP <= 20480 THEN

   5755  3 000302   200003 235100                    LDA     TEMP,,AUTO
         3 000303   004000 115007                    CMPA    2048,DL
         3 000304   000311 604000 3                  TMI     s:5761
         3 000305   050000 115007                    CMPA    20480,DL
         3 000306   000311 605400 3                  TPNZ    s:5761

      257     5756    3                 DO;

      258     5757    3                   QQ_GLOBAL.POOLSIZE = TEMP;

   5757  3 000307   000045 755000 xsym               STA     QQ_GLOBAL+37

      259     5758    3                 END;

   5758  3 000310   000317 710000 3                  TRA     s:5766

      260     5759    2               ELSE
      261     5760    3                 DO;

      262     5761    3                   QQ_CMDBLK.MINOR_ERR = CODE_BAD_POOLSIZE;
PL6.E3A0      #001=QQB$LET File=QQB$LET.:E05TSI                                  WED 07/30/97 05:32 Page:40

   5761  3 000311   000001 236000 2                  LDQ     CODE_BAD_POOLSIZE
         3 000312   000001 756000 xsym               STQ     QQ_CMDBLK+1

      263     5762    3                   NUMBER = 2048;

   5762  3 000313   004000 235007                    LDA     2048,DL
         3 000314   200010 755100                    STA     NUMBER,,AUTO

      264     5763    3                   CALL PRINT_ERR_NUM;

   5763  3 000315   000664 701000 3                  TSX1    PRINT_ERR_NUM
         3 000316   000000 011000                    NOP     0

      265     5764    3                 END;

      266     5765
      267     5766    2               IF SUBLK$ -> OUT$SYM.CODE = 1 /* NO */ THEN

   5766  3 000317   200004 470500                    LDP0    SUBLK$,,AUTO
         3 000320   000000 720100                    LXL0    0,,PR0
         3 000321   000001 100003                    CMPX0   1,DU
         3 000322   000325 601000 3                  TNZ     s:5772

      268     5767    3                 DO;

      269     5768    3                   QQ_GLOBAL.SCHEDULE = '0'B;

   5768  3 000323   000014 450000 xsym               STZ     QQ_GLOBAL+12

      270     5769    3                 END;

   5769  3 000324   000644 710000 3                  TRA     s:5896

      271     5770    2               ELSE
      272     5771    3                 DO;

PL6.E3A0      #001=QQB$LET File=QQB$LET.:E05TSI                                  WED 07/30/97 05:32 Page:41
      273     5772    3                   QQ_GLOBAL.SCHEDULE = '1'B;

   5772  3 000325   400000 236003                    LDQ     -131072,DU
         3 000326   000014 756000 xsym               STQ     QQ_GLOBAL+12

      274     5773    3                 END;

   5773  3 000327   000644 710000 3                  TRA     s:5896

      275     5774
      276     5775    2             CASE(30 /* LET_DISKWARN */);

      277     5776    2               CALL CHARBIN(TEMP, SUBLK$ -> OUT$SYM.TEXT);

   5776  3 000330   200004 471500                    LDP1    SUBLK$,,AUTO
         3 000331   100004 236100                    LDQ     4,,PR1
         3 000332   000033 772000                    QRL     27
         3 000333   000000 620006                    EAX0    0,QL
         3 000334   000100 305540                    DTB
         3 000335   100004 230010                    NDSC9   4,,PR1                   cn=1,s=nosgn,sf=0,n=*X0
         3 000336   200003 000004                    NDSC9   TEMP,,AUTO               cn=0,s=lsgnf,sf=0,n=4

      278     5777    2               IF TEMP >= 0 AND TEMP <= 1000 THEN

   5777  3 000337   200003 235100                    LDA     TEMP,,AUTO
         3 000340   000345 604000 3                  TMI     s:5783
         3 000341   001750 115007                    CMPA    1000,DL
         3 000342   000345 605400 3                  TPNZ    s:5783

      279     5778    3                 DO;

      280     5779    3                   QQ_GLOBAL.CGDISKWARN=TEMP;

   5779  3 000343   000022 755000 xsym               STA     QQ_GLOBAL+18

      281     5780    3                 END;

PL6.E3A0      #001=QQB$LET File=QQB$LET.:E05TSI                                  WED 07/30/97 05:32 Page:42
   5780  3 000344   000644 710000 3                  TRA     s:5896

      282     5781    2               ELSE
      283     5782    3                 DO;

      284     5783    3                   QQ_CMDBLK.MINOR_ERR = CODE_BAD_CGDISKWARN;

   5783  3 000345   000010 236000 2                  LDQ     CODE_BAD_CGDISKWARN
         3 000346   000001 756000 xsym               STQ     QQ_CMDBLK+1

      285     5784    3                   CALL PRINT_ERR;

   5784  3 000347   000645 701000 3                  TSX1    PRINT_ERR
         3 000350   000000 011000                    NOP     0

      286     5785    3                 END;

   5785  3 000351   000644 710000 3                  TRA     s:5896

      287     5786
      288     5787    2             CASE(31 /* LET_STATIONMAX */);

      289     5788    2               CALL CHARBIN(TEMP, SUBLK$ -> OUT$SYM.TEXT);

   5788  3 000352   200004 471500                    LDP1    SUBLK$,,AUTO
         3 000353   100004 236100                    LDQ     4,,PR1
         3 000354   000033 772000                    QRL     27
         3 000355   000000 620006                    EAX0    0,QL
         3 000356   000100 305540                    DTB
         3 000357   100004 230010                    NDSC9   4,,PR1                   cn=1,s=nosgn,sf=0,n=*X0
         3 000360   200003 000004                    NDSC9   TEMP,,AUTO               cn=0,s=lsgnf,sf=0,n=4

      290     5789    2               IF TEMP >= 0 AND TEMP <= 9999 THEN

   5789  3 000361   200003 235100                    LDA     TEMP,,AUTO
         3 000362   000367 604000 3                  TMI     s:5795
         3 000363   023417 115007                    CMPA    9999,DL
PL6.E3A0      #001=QQB$LET File=QQB$LET.:E05TSI                                  WED 07/30/97 05:32 Page:43
         3 000364   000367 605400 3                  TPNZ    s:5795

      291     5790    3                 DO;

      292     5791    3                   QQ_GLOBAL.STATIONMAX = TEMP;

   5791  3 000365   000027 755000 xsym               STA     QQ_GLOBAL+23

      293     5792    3                 END;

   5792  3 000366   000373 710000 3                  TRA     s:5799

      294     5793    2               ELSE
      295     5794    3                 DO;

      296     5795    3                   QQ_CMDBLK.MINOR_ERR = CODE_BAD_STATIONMAX;

   5795  3 000367   000006 236000 2                  LDQ     CODE_BAD_STATIONMAX
         3 000370   000001 756000 xsym               STQ     QQ_CMDBLK+1

      297     5796    3                   CALL PRINT_ERR;

   5796  3 000371   000645 701000 3                  TSX1    PRINT_ERR
         3 000372   000000 011000                    NOP     0

      298     5797    3                 END;

      299     5798
      300     5799    2               IF SUBLK$ -> OUT$SYM.CODE = 1 /* NO */ THEN

   5799  3 000373   200004 470500                    LDP0    SUBLK$,,AUTO
         3 000374   000000 720100                    LXL0    0,,PR0
         3 000375   000001 100003                    CMPX0   1,DU
         3 000376   000401 601000 3                  TNZ     s:5805

      301     5800    3                 DO;

PL6.E3A0      #001=QQB$LET File=QQB$LET.:E05TSI                                  WED 07/30/97 05:32 Page:44
      302     5801    3                   QQ_GLOBAL.TESTMODE = '0'B;

   5801  3 000377   000006 450000 xsym               STZ     QQ_GLOBAL+6

      303     5802    3                 END;

   5802  3 000400   000403 710000 3                  TRA     s:5807

      304     5803    2               ELSE
      305     5804    3                 DO;

      306     5805    3                   QQ_GLOBAL.TESTMODE = '1'B;

   5805  3 000401   400000 236003                    LDQ     -131072,DU
         3 000402   000006 756000 xsym               STQ     QQ_GLOBAL+6

      307     5806    3                 END;

      308     5807    2               CALL QQB$SAVCMD;            /*  STATIONMAX commands are saved     */

   5807  3 000403   000002 631400 xsym               EPPR1   B_VECTNIL+2
         3 000404   000000 701000 xent               TSX1    QQB$SAVCMD
         3 000405   000000 011000                    NOP     0
         3 000406   000644 710000 3                  TRA     s:5896

      309     5808
      310     5809    2             CASE(32 /* LET_MEMWARN */);

      311     5810    2               CALL CHARBIN(TEMP, SUBLK$ -> OUT$SYM.TEXT);

   5810  3 000407   200004 471500                    LDP1    SUBLK$,,AUTO
         3 000410   100004 236100                    LDQ     4,,PR1
         3 000411   000033 772000                    QRL     27
         3 000412   000000 620006                    EAX0    0,QL
         3 000413   000100 305540                    DTB
         3 000414   100004 230010                    NDSC9   4,,PR1                   cn=1,s=nosgn,sf=0,n=*X0
         3 000415   200003 000004                    NDSC9   TEMP,,AUTO               cn=0,s=lsgnf,sf=0,n=4
PL6.E3A0      #001=QQB$LET File=QQB$LET.:E05TSI                                  WED 07/30/97 05:32 Page:45

      312     5811    2               IF TEMP >= 0 AND TEMP <= 1000 THEN

   5811  3 000416   200003 235100                    LDA     TEMP,,AUTO
         3 000417   000424 604000 3                  TMI     s:5817
         3 000420   001750 115007                    CMPA    1000,DL
         3 000421   000424 605400 3                  TPNZ    s:5817

      313     5812    3                 DO;

      314     5813    3                   QQ_GLOBAL.CGMEMWARN=TEMP;

   5813  3 000422   000023 755000 xsym               STA     QQ_GLOBAL+19

      315     5814    3                 END;

   5814  3 000423   000644 710000 3                  TRA     s:5896

      316     5815    2               ELSE
      317     5816    3                 DO;

      318     5817    3                   QQ_CMDBLK.MINOR_ERR = CODE_BAD_CGMEMWARN;

   5817  3 000424   000011 236000 2                  LDQ     CODE_BAD_CGMEMWARN
         3 000425   000001 756000 xsym               STQ     QQ_CMDBLK+1

      319     5818    3                   CALL PRINT_ERR;

   5818  3 000426   000645 701000 3                  TSX1    PRINT_ERR
         3 000427   000000 011000                    NOP     0

      320     5819    3                 END;

   5819  3 000430   000644 710000 3                  TRA     s:5896

      321     5820
      322     5821    2             CASE(33 /* LET_TPCPRU */);
PL6.E3A0      #001=QQB$LET File=QQB$LET.:E05TSI                                  WED 07/30/97 05:32 Page:46

      323     5822    2               QQ_GLOBAL.TPCP_RU.L# = SUBLK$ -> OUT$SYM.COUNT;

   5822  3 000431   200004 471500                    LDP1    SUBLK$,,AUTO
         3 000432   100004 236100                    LDQ     4,,PR1
         3 000433   000354 552040 xsym               STBQ    QQ_GLOBAL+236,'40'O

      324     5823    2               QQ_GLOBAL.TPCP_RU.NAME# = SUBLK$ -> OUT$SYM.TEXT;

   5823  3 000434   100004 236100                    LDQ     4,,PR1
         3 000435   000033 772000                    QRL     27
         3 000436   000000 620006                    EAX0    0,QL
         3 000437   040000 100540                    MLR     fill='040'O
         3 000440   100004 200010                    ADSC9   4,,PR1                   cn=1,n=*X0
         3 000441   000354 200013 xsym               ADSC9   QQ_GLOBAL+236            cn=1,n=11
         3 000442   000644 710000 3                  TRA     s:5896

      325     5824
      326     5825    2             CASE(34 /* LET_TPUINITIAL */);

      327     5826    2               CALL CHARBIN(TEMP, SUBLK$ -> OUT$SYM.TEXT);

   5826  3 000443   200004 471500                    LDP1    SUBLK$,,AUTO
         3 000444   100004 236100                    LDQ     4,,PR1
         3 000445   000033 772000                    QRL     27
         3 000446   000000 620006                    EAX0    0,QL
         3 000447   000100 305540                    DTB
         3 000450   100004 230010                    NDSC9   4,,PR1                   cn=1,s=nosgn,sf=0,n=*X0
         3 000451   200003 000004                    NDSC9   TEMP,,AUTO               cn=0,s=lsgnf,sf=0,n=4

      328     5827    2               IF TEMP >= 0 AND TEMP <= 9999 THEN

   5827  3 000452   200003 235100                    LDA     TEMP,,AUTO
         3 000453   000460 604000 3                  TMI     s:5833
         3 000454   023417 115007                    CMPA    9999,DL
         3 000455   000460 605400 3                  TPNZ    s:5833

PL6.E3A0      #001=QQB$LET File=QQB$LET.:E05TSI                                  WED 07/30/97 05:32 Page:47
      329     5828    3                 DO;

      330     5829    3                   QQ_GLOBAL.TPUINITIAL=TEMP;

   5829  3 000456   000016 755000 xsym               STA     QQ_GLOBAL+14

      331     5830    3                 END;

   5830  3 000457   000644 710000 3                  TRA     s:5896

      332     5831    2               ELSE
      333     5832    3                 DO;

      334     5833    3                   QQ_CMDBLK.MINOR_ERR = CODE_BAD_TPUINITIAL;

   5833  3 000460   000005 236000 2                  LDQ     CODE_BAD_TPUINITIAL
         3 000461   000001 756000 xsym               STQ     QQ_CMDBLK+1

      335     5834    3                   CALL PRINT_ERR;

   5834  3 000462   000645 701000 3                  TSX1    PRINT_ERR
         3 000463   000000 011000                    NOP     0

      336     5835    3                 END;

   5835  3 000464   000644 710000 3                  TRA     s:5896

      337     5836
      338     5837    2             CASE(35 /* LET_TPUMAX */);

      339     5838    2               CALL CHARBIN(QQ_GLOBAL.TPUMAX, SUBLK$ -> OUT$SYM.TEXT);

   5838  3 000465   200004 471500                    LDP1    SUBLK$,,AUTO
         3 000466   100004 236100                    LDQ     4,,PR1
         3 000467   000033 772000                    QRL     27
         3 000470   000000 620006                    EAX0    0,QL
         3 000471   000100 305540                    DTB
PL6.E3A0      #001=QQB$LET File=QQB$LET.:E05TSI                                  WED 07/30/97 05:32 Page:48
         3 000472   100004 230010                    NDSC9   4,,PR1                   cn=1,s=nosgn,sf=0,n=*X0
         3 000473   200042 000010                    NDSC9   MSGBLK+24,,AUTO          cn=0,s=lsgnf,sf=0,n=8
         3 000474   200043 236100                    LDQ     MSGBLK+25,,AUTO
         3 000475   000026 756000 xsym               STQ     QQ_GLOBAL+22
         3 000476   000644 710000 3                  TRA     s:5896

      340     5839
      341     5840    2             CASE(36 /* LET_TPUMIN */);

      342     5841    2               CALL CHARBIN(QQ_GLOBAL.TPUMIN, SUBLK$ -> OUT$SYM.TEXT);

   5841  3 000477   200004 471500                    LDP1    SUBLK$,,AUTO
         3 000500   100004 236100                    LDQ     4,,PR1
         3 000501   000033 772000                    QRL     27
         3 000502   000000 620006                    EAX0    0,QL
         3 000503   000100 305540                    DTB
         3 000504   100004 230010                    NDSC9   4,,PR1                   cn=1,s=nosgn,sf=0,n=*X0
         3 000505   200042 000010                    NDSC9   MSGBLK+24,,AUTO          cn=0,s=lsgnf,sf=0,n=8
         3 000506   200043 236100                    LDQ     MSGBLK+25,,AUTO
         3 000507   000025 756000 xsym               STQ     QQ_GLOBAL+21
         3 000510   000644 710000 3                  TRA     s:5896

      343     5842
      344     5843    2             CASE(37 /* LET_CFPRU */);

      345     5844
      346     5845    2               FID = SUBLK$ -> OUT$SYM.TEXT;

   5845  3 000511   200004 471500                    LDP1    SUBLK$,,AUTO
         3 000512   100004 236100                    LDQ     4,,PR1
         3 000513   000033 772000                    QRL     27
         3 000514   000000 620006                    EAX0    0,QL
         3 000515   040000 100540                    MLR     fill='040'O
         3 000516   100004 200010                    ADSC9   4,,PR1                   cn=1,n=*X0
         3 000517   000000 000120 1                  ADSC9   FID                      cn=0,n=80

      347     5846    3               CALL M$FID (FPT_FID) WHENRETURN DO;
PL6.E3A0      #001=QQB$LET File=QQB$LET.:E05TSI                                  WED 07/30/97 05:32 Page:49

   5846  3 000520   000116 630400 1                  EPPR0   FPT_FID
         3 000521   420001 713400                    CLIMB   alt,+8193
         3 000522   404400 401760                    pmme    nvectors=10
         3 000523   000563 702000 3                  TSX2    s:5872

      348     5847
      349     5848    3                   IF FPT_OPEN.V.ASN# ~= 1 OR

   5848  3 000524   000071 236000 1                  LDQ     FPT_OPEN+37
         3 000525   000777 376007                    ANQ     511,DL
         3 000526   000001 116007                    CMPQ    1,DL
         3 000527   000541 601000 3                  TNZ     s:5855
         3 000530   000146 236000 1                  LDQ     VLR_FID
         3 000531   100000 316003                    CANQ    32768,DU
         3 000532   000541 601000 3                  TNZ     s:5855
         3 000533   040000 316003                    CANQ    16384,DU
         3 000534   000541 601000 3                  TNZ     s:5855
         3 000535   020000 316003                    CANQ    8192,DU
         3 000536   000541 601000 3                  TNZ     s:5855
         3 000537   004000 316003                    CANQ    2048,DU
         3 000540   000546 600000 3                  TZE     s:5862

      350     5849    3                       VLR_FID.PASS OR
      351     5850    3                       VLR_FID.SN OR
      352     5851    3                       VLR_FID.WSN OR
      353     5852    3                       VLR_FID.RES THEN
      354     5853    4                     DO;

      355     5854
      356     5855    4                       QQ_CMDBLK.MINOR_ERR = CODE_BAD_CFPRU;

   5855  3 000541   000012 236000 2                  LDQ     CODE_BAD_CFPRU
         3 000542   000001 756000 xsym               STQ     QQ_CMDBLK+1

      357     5856    4                       CALL PRINT_ERR;

PL6.E3A0      #001=QQB$LET File=QQB$LET.:E05TSI                                  WED 07/30/97 05:32 Page:50
   5856  3 000543   000645 701000 3                  TSX1    PRINT_ERR
         3 000544   000000 011000                    NOP     0

      358     5857
      359     5858    4                     END;

   5858  3 000545   000562 710000 3                  TRA     s:5869

      360     5859    3                   ELSE
      361     5860    4                     DO;

      362     5861
      363     5862    4                       QQ_GLOBAL.CFP_RU.ACCT = VLP_ACCT.ACCT#;

   5862  3 000546   000160 237000 1                  LDAQ    VLP_ACCT
         3 000547   000367 755000 xsym               STA     QQ_GLOBAL+247
         3 000550   000370 756000 xsym               STQ     QQ_GLOBAL+248

      364     5863    4                       QQ_GLOBAL.CFP_RU.NAME = VLP_NAME;

   5863  3 000551   000000 100400                    MLR     fill='000'O
         3 000552   000162 000040 1                  ADSC9   VLP_NAME                 cn=0,n=32
         3 000553   000357 000040 xsym               ADSC9   QQ_GLOBAL+239            cn=0,n=32

      365     5864    4                       QQ_GLOBAL.CFP_RU.PASS = VLP_PASS.PASS#;

   5864  3 000554   000200 237000 1                  LDAQ    VLP_PASS
         3 000555   000371 755000 xsym               STA     QQ_GLOBAL+249
         3 000556   000372 756000 xsym               STQ     QQ_GLOBAL+250

      366     5865    4                       QQ_GLOBAL.CFP_RU.PSN = VLP_SN.SN#(0);

   5865  3 000557   040000 100400                    MLR     fill='040'O
         3 000560   000175 000006 1                  ADSC9   VLP_SN+1                 cn=0,n=6
         3 000561   000373 000006 xsym               ADSC9   QQ_GLOBAL+251            cn=0,n=6

      367     5866
PL6.E3A0      #001=QQB$LET File=QQB$LET.:E05TSI                                  WED 07/30/97 05:32 Page:51
      368     5867    4                     END;

      369     5868
      370     5869    3                 END;

   5869  3 000562   000567 710000 3                  TRA     s:5875

      371     5870    3               WHENALTRETURN DO;

      372     5871
      373     5872    3                   QQ_CMDBLK.MINOR_ERR = CODE_BAD_CFPRU;

   5872  3 000563   000012 236000 2                  LDQ     CODE_BAD_CFPRU
         3 000564   000001 756000 xsym               STQ     QQ_CMDBLK+1

      374     5873    3                   CALL PRINT_ERR;

   5873  3 000565   000645 701000 3                  TSX1    PRINT_ERR
         3 000566   000000 011000                    NOP     0

      375     5874
      376     5875    3                 END;

   5875  3 000567   000644 710000 3                  TRA     s:5896

      377     5876
      378     5877    2             CASE(38 /* LET_XTNSIZE */);

      379     5878    2               CALL CHARBIN(TEMP, SUBLK$ -> OUT$SYM.TEXT);

   5878  3 000570   200004 471500                    LDP1    SUBLK$,,AUTO
         3 000571   100004 236100                    LDQ     4,,PR1
         3 000572   000033 772000                    QRL     27
         3 000573   000000 620006                    EAX0    0,QL
         3 000574   000100 305540                    DTB
         3 000575   100004 230010                    NDSC9   4,,PR1                   cn=1,s=nosgn,sf=0,n=*X0
         3 000576   200003 000004                    NDSC9   TEMP,,AUTO               cn=0,s=lsgnf,sf=0,n=4
PL6.E3A0      #001=QQB$LET File=QQB$LET.:E05TSI                                  WED 07/30/97 05:32 Page:52

      380     5879    2               IF TEMP >= 50 AND TEMP <= 9999 THEN

   5879  3 000577   200003 235100                    LDA     TEMP,,AUTO
         3 000600   000062 115007                    CMPA    50,DL
         3 000601   000606 604000 3                  TMI     s:5885
         3 000602   023417 115007                    CMPA    9999,DL
         3 000603   000606 605400 3                  TPNZ    s:5885

      381     5880    3                 DO;

      382     5881    3                   QQ_GLOBAL.XTNSIZE = TEMP;

   5881  3 000604   000062 755000 xsym               STA     QQ_GLOBAL+50

      383     5882    3                 END;

   5882  3 000605   000612 710000 3                  TRA     s:5888

      384     5883    2               ELSE
      385     5884    3                 DO;

      386     5885    3                   QQ_CMDBLK.MINOR_ERR = CODE_BAD_XTNSIZE;

   5885  3 000606   000007 236000 2                  LDQ     CODE_BAD_XTNSIZE
         3 000607   000001 756000 xsym               STQ     QQ_CMDBLK+1

      387     5886    3                   CALL PRINT_ERR;

   5886  3 000610   000645 701000 3                  TSX1    PRINT_ERR
         3 000611   000000 011000                    NOP     0

      388     5887    3                 END;

      389     5888    2               CALL QQB$SAVCMD;            /*  XTNSIZE commands are saved        */

   5888  3 000612   000002 631400 xsym               EPPR1   B_VECTNIL+2
PL6.E3A0      #001=QQB$LET File=QQB$LET.:E05TSI                                  WED 07/30/97 05:32 Page:53
         3 000613   000000 701000 xent               TSX1    QQB$SAVCMD
         3 000614   000000 011000                    NOP     0
         3 000615   000644 710000 3                  TRA     s:5896

      390     5889
      391     5890    2             CASE(39 /* LET_TPHEAD */);

      392     5891    2               PC$INSTANCE.HDR.CNT = SUBLK$ -> OUT$SYM.COUNT;

   5891  3 000616   200004 471500                    LDP1    SUBLK$,,AUTO
         3 000617   000154 473400 xsym               LDP3    QQ_GLOBAL+108
         3 000620   100004 236100                    LDQ     4,,PR1
         3 000621   300004 552140                    STBQ    4,'40'O,PR3

      393     5892    2               PC$INSTANCE.HDR.MSG = SUBLK$ -> OUT$SYM.TEXT;

   5892  3 000622   100004 236100                    LDQ     4,,PR1
         3 000623   000033 772000                    QRL     27
         3 000624   000000 620006                    EAX0    0,QL
         3 000625   000154 470400 xsym               LDP0    QQ_GLOBAL+108
         3 000626   040100 100540                    MLR     fill='040'O
         3 000627   100004 200010                    ADSC9   4,,PR1                   cn=1,n=*X0
         3 000630   000004 200120                    ADSC9   4,,PR0                   cn=1,n=80

      394     5893    2               PC$INSTANCE.FLAGS.HEADER = (SUBLK$->OUT$SYM.COUNT > 0);

   5893  3 000631   400000 220003                    LDX0    -131072,DU
         3 000632   100004 236100                    LDQ     4,,PR1
         3 000633   777000 316003                    CANQ    -512,DU
         3 000634   000636 601000 3                  TNZ     s:5893+5
         3 000635   000000 220003                    LDX0    0,DU
         3 000636   000154 470400 xsym               LDP0    QQ_GLOBAL+108
         3 000637   000000 636010                    EAQ     0,X0
         3 000640   000002 772000                    QRL     2
         3 000641   000003 676100                    ERQ     3,,PR0
         3 000642   100000 376003                    ANQ     32768,DU
         3 000643   000003 656100                    ERSQ    3,,PR0
PL6.E3A0      #001=QQB$LET File=QQB$LET.:E05TSI                                  WED 07/30/97 05:32 Page:54

      395     5894
      396     5895    2           END /* CASE */;

      397     5896    1           RETURN;

   5896  3 000644   000000 702200 xent               TSX2  ! X66_ARET

      398     5897                %PAGE(ARG="PRINT_ERR", PAGE=YES);

PL6.E3A0      #001=QQB$LET File=QQB$LET.:E05TSI                                  WED 07/30/97 05:32 Page:55
              5914    1   /***************************************************************************
              5915    1    *                                                                         *
              5916    1    *                                 PRINT_ERR                               *
              5917    1    *                                                                         *
              5918    1    ***************************************************************************/

      399     5922    1   PRINT_ERR:

   5922  3 000645   200040 741300       PRINT_ERR    STX1  ! MSGBLK+22,,AUTO

      400     5923    1           PROC;
      401     5924
      402     5925    2           CALL QQC$BLDMSG_BLK(MSGBLK);

   5925  3 000646   200012 630500                    EPPR0   MSGBLK,,AUTO
         3 000647   200042 450500                    STP0    MSGBLK+24,,AUTO
         3 000650   200042 630500                    EPPR0   MSGBLK+24,,AUTO
         3 000651   000017 631400 xsym               EPPR1   B_VECTNIL+15
         3 000652   000000 701000 xent               TSX1    QQC$BLDMSG_BLK
         3 000653   000000 011000                    NOP     0

      403     5926    2           CALL QQC$BLDMSG(MSGBLK);

   5926  3 000654   200012 630500                    EPPR0   MSGBLK,,AUTO
         3 000655   200042 450500                    STP0    MSGBLK+24,,AUTO
         3 000656   200042 630500                    EPPR0   MSGBLK+24,,AUTO
         3 000657   000017 631400 xsym               EPPR1   B_VECTNIL+15
         3 000660   000000 701000 xent               TSX1    QQC$BLDMSG
         3 000661   000000 011000                    NOP     0

      404     5927
      405     5928    2           RETURN;

   5928  3 000662   200040 221300                    LDX1  ! MSGBLK+22,,AUTO
         3 000663   000001 702211                    TSX2  ! 1,X1

      406     5929
PL6.E3A0      #001=QQB$LET File=QQB$LET.:E05TSI                                  WED 07/30/97 05:32 Page:56
      407     5930    2   END PRINT_ERR;
      408     5931                %PAGE(ARG="PRINT_ERR_NUM", PAGE=YES);

PL6.E3A0      #001=QQB$LET File=QQB$LET.:E05TSI                                  WED 07/30/97 05:32 Page:57
              5948    2   /***************************************************************************
              5949    2    *                                                                         *
              5950    2    *                               PRINT_ERR_NUM                             *
              5951    2    *                                                                         *
              5952    2    ***************************************************************************/

      409     5956    1   PRINT_ERR_NUM: PROC;

   5956  3 000664   200040 741300       PRINT_ERR_N* STX1  ! MSGBLK+22,,AUTO

      410     5957        /* */
      411     5958    2           CALL QQC$BLDMSG_BLK(MSGBLK);

   5958  3 000665   200012 630500                    EPPR0   MSGBLK,,AUTO
         3 000666   200042 450500                    STP0    MSGBLK+24,,AUTO
         3 000667   200042 630500                    EPPR0   MSGBLK+24,,AUTO
         3 000670   000017 631400 xsym               EPPR1   B_VECTNIL+15
         3 000671   000000 701000 xent               TSX1    QQC$BLDMSG_BLK
         3 000672   000000 011000                    NOP     0

      412     5959    2           CALL QQC$CONVERT_NUM(NUMBER, SIZE, ADDR(TEXTC_NUM.NAME#));

   5959  3 000673   200043 452500                    STP2    MSGBLK+25,,AUTO
         3 000674   200043 236100                    LDQ     MSGBLK+25,,AUTO
         3 000675   000000 036000 4                  ADLQ    0
         3 000676   200042 756100                    STQ     MSGBLK+24,,AUTO
         3 000677   200042 630500                    EPPR0   MSGBLK+24,,AUTO
         3 000700   200046 450500                    STP0    MSGBLK+28,,AUTO
         3 000701   200011 631500                    EPPR1   SIZE,,AUTO
         3 000702   200045 451500                    STP1    MSGBLK+27,,AUTO
         3 000703   200010 633500                    EPPR3   NUMBER,,AUTO
         3 000704   200044 453500                    STP3    MSGBLK+26,,AUTO
         3 000705   200044 630500                    EPPR0   MSGBLK+26,,AUTO
         3 000706   000021 631400 xsym               EPPR1   B_VECTNIL+17
         3 000707   000000 701000 xent               TSX1    QQC$CONVERT_NUM
         3 000710   000000 011000                    NOP     0

PL6.E3A0      #001=QQB$LET File=QQB$LET.:E05TSI                                  WED 07/30/97 05:32 Page:58
      413     5960    2           MSGBLK.ERRINFO.FIELD1(0)=VECTOR(TEXTC_NUM);

   5960  3 000711   000001 235000 4                  LDA     1
         3 000712   200042 452500                    STP2    MSGBLK+24,,AUTO
         3 000713   200042 236100                    LDQ     MSGBLK+24,,AUTO
         3 000714   000005 036003                    ADLQ    5,DU
         3 000715   200044 757100                    STAQ    MSGBLK+26,,AUTO
         3 000716   000100 100500                    MLR     fill='000'O
         3 000717   200044 000010                    ADSC9   MSGBLK+26,,AUTO          cn=0,n=8
         3 000720   200021 200010                    ADSC9   MSGBLK+7,,AUTO           cn=1,n=8

      414     5961    2           TEXTC_NUM.L# = SIZE;

   5961  3 000721   200011 236100                    LDQ     SIZE,,AUTO
         3 000722   000033 736000                    QLS     27
         3 000723   200005 552140                    STBQ    TEXTC_NUM,'40'O,AUTO

      415     5962    2           CALL QQC$BLDMSG(MSGBLK);

   5962  3 000724   200012 630500                    EPPR0   MSGBLK,,AUTO
         3 000725   200042 450500                    STP0    MSGBLK+24,,AUTO
         3 000726   200042 630500                    EPPR0   MSGBLK+24,,AUTO
         3 000727   000017 631400 xsym               EPPR1   B_VECTNIL+15
         3 000730   000000 701000 xent               TSX1    QQC$BLDMSG
         3 000731   000000 011000                    NOP     0

      416     5963    2           RETURN;

   5963  3 000732   200040 221300                    LDX1  ! MSGBLK+22,,AUTO
         3 000733   000001 702211                    TSX2  ! 1,X1
      417     5964    2   END PRINT_ERR_NUM;
      418     5965    1   END QQB$LET;

PL6.E3A0      #001=QQB$LET File=QQB$LET.:E05TSI                                  WED 07/30/97 05:32 Page:59
--  Include file information  --

   QQ_DATA_R.:E05TOU  cannot be made into a system file and is referenced.
   QQ_MACROS_C.:E05TOU  is referenced.
   PC_MACRO_C.:E05TOU  is referenced.
   CP_6_SUBS.:E05TOU  is referenced.
   CP_6.:E05TOU  cannot be made into a system file and is referenced.
   Q_ERRCODE_C.:E05TOU  is referenced.
   QQ_PERR_C.:E05TOU  is referenced.
   QQ_SUBS_C.:E05TOU  is referenced.
   XU_MACRO_C.:E05TOU  is referenced.
   Q_PAGE_C.:E05TOU  is referenced.
   B$JIT_C.:E05TOU  was found in the system file and is never referenced.
   CP_6_C.:E05TOU  was found in the system file and is referenced.
      No diagnostics issued in procedure QQB$LET.
PL6.E3A0      #001=QQB$LET File=QQB$LET.:E05TSI                                  WED 07/30/97 05:32 Page:60

 **** Variables and constants ****

  ****  Section 001  Data  QQB$LET

  ****  Scalars and arrays  ****
OctLoc.c.b A Datatyp(siz) R M Lvl/name                 OctLoc.c.b A Datatyp(siz) R M Lvl/name

     0-0-0/c CHAR(80)    r     1 FID                      116-0-0/d STRC(864)   r     1 FPT_FID
    24-0-0/d STRC(2088)  r     1 FPT_OPEN                 160-0-0/c STRC(72)    r     1 VLP_ACCT
   162-0-0/c STRC(288)   r     1 VLP_NAME                 200-0-0/c STRC(72)    r     1 VLP_PASS
   174-0-0/d STRC(90)    r     1 VLP_SN                   172-0-0/c STRC(72)    r     1 VLP_WSN
   146-0-0/d STRC(324)   r     1 VLR_FID

  ****  Section 002 RoData QQB$LET

  ****  Scalars and arrays  ****
OctLoc.c.b A Datatyp(siz) R M Lvl/name                 OctLoc.c.b A Datatyp(siz) R M Lvl/name

    12-0-0/b STRC        r     1 CODE_BAD_CFPRU            10-0-0/b STRC        r     1 CODE_BAD_CGDISKWARN
    11-0-0/b STRC        r     1 CODE_BAD_CGMEMWARN         3-0-0/b STRC        r     1 CODE_BAD_CGPAGEMAX
     4-0-0/b STRC        r     1 CODE_BAD_CGPAGEMIN         2-0-0/b STRC        r     1 CODE_BAD_IXTNSIZE
     1-0-0/b STRC        r     1 CODE_BAD_POOLSIZE          6-0-0/b STRC        r     1 CODE_BAD_STATIONMAX
     5-0-0/b STRC        r     1 CODE_BAD_TPUINITIAL        7-0-0/b STRC        r     1 CODE_BAD_XTNSIZE
     0-0-0/b STRC        r     1 CODE_SMALL_CGSIZEMAX

  ****  Auto variables  ****

  ****  Scalars and arrays  ****
OctLoc.c.b A Datatyp(siz) R M Lvl/name                 OctLoc.c.b A Datatyp(siz) R M Lvl/name

    12-0-0/w STRC(738)   r     1 MSGBLK                    10-0-0/w UBIN        r     1 NUMBER
    11-0-0/w SBIN        r     1 SIZE                       4-0-0/w PTR         r     1 SUBLK$
     3-0-0/w SBIN        r     1 TEMP                       5-0-0/c STRC(81)    r     1 TEXTC_NUM

  ****  SYMREF variables  ****

  ****  Scalars and arrays  ****
PL6.E3A0      #001=QQB$LET File=QQB$LET.:E05TSI                                  WED 07/30/97 05:32 Page:61
OctLoc.c.b A Datatyp(siz) R M Lvl/name                 OctLoc.c.b A Datatyp(siz) R M Lvl/name

     0-0-0/w STRC(315)   r     1 QQ_CMDBLK                  0-0-0/d STRC(9090)  r     1 QQ_GLOBAL

  ****  BASED and DCB variables  ****

  ****  Scalars and arrays  ****
OctLoc.c.b A Datatyp(siz) R M Lvl/name                 OctLoc.c.b A Datatyp(siz) R M Lvl/name

     0-0-0/w STRC(144)   r     1 OUT$BLK                    0-0-0/w ASTR(153)   r     1 OUT$SYM
     0-0-0/w STRC(2700)  r     1 PC$INSTANCE


   Procedure QQB$LET requires 476 words for executable code.
   Procedure QQB$LET requires 40 words of local(AUTO) storage.

    No errors detected in file QQB$LET.:E05TSI    .
PL6.E3A0      #001=QQB$LET File=QQB$LET.:E05TSI                                  WED 07/30/97 05:32 Page:62
          *** CROSS REFERENCE LISTING ***
**     DENOTES     IDENTIFIER DEFINITION
<<                 IDENTIFIER'S VALUE SET
>>                 IDENTIFIER'S VALUE USED
<>                 IDENTIFIER SET AND/OR USED
--                 IDENTIFIER REFERENCED
PL6.E3A0      #001=QQB$LET File=QQB$LET.:E05TSI                                  WED 07/30/97 05:32 Page:63
          MINI XREF LISTING

CODE_BAD_CFPRU
      5532**DCL      5855>>ASSIGN   5872>>ASSIGN
CODE_BAD_CGDISKWARN
      5518**DCL      5783>>ASSIGN
CODE_BAD_CGMEMWARN
      5525**DCL      5817>>ASSIGN
CODE_BAD_CGPAGEMAX
      5483**DCL      5650>>ASSIGN
CODE_BAD_CGPAGEMIN
      5490**DCL      5662>>ASSIGN
CODE_BAD_IXTNSIZE
      5476**DCL      5708>>ASSIGN
CODE_BAD_POOLSIZE
      5469**DCL      5761>>ASSIGN
CODE_BAD_STATIONMAX
      5504**DCL      5795>>ASSIGN
CODE_BAD_TPUINITIAL
      5497**DCL      5833>>ASSIGN
CODE_BAD_XTNSIZE
      5511**DCL      5885>>ASSIGN
CODE_SMALL_CGSIZEMAX
      5462**DCL      5674>>ASSIGN
FID
      5084**DCL      5207--DCLINIT  5845<<ASSIGN
FPT_FID
      5207**DCL      5846<>CALL
FPT_FID.V
      5211**DCL      5207--DCLINIT
FPT_OPEN.ACSVEH_
      5152**DCL      5153--REDEF
FPT_OPEN.ALTKEYS_
      5158**DCL      5159--REDEF    5159--REDEF
PL6.E3A0      #001=QQB$LET File=QQB$LET.:E05TSI                                  WED 07/30/97 05:32 Page:64
FPT_OPEN.HDR_
      5157**DCL      5158--REDEF
FPT_OPEN.TAB_
      5156**DCL      5157--REDEF
FPT_OPEN.UHL_
      5150**DCL      5151--REDEF    5151--REDEF
FPT_OPEN.V
      5159**DCL      5150--DCLINIT
FPT_OPEN.V.ASN#
      5169**DCL      5210--DCLINIT  5848>>IF
FPT_OPEN.V.FSN#
      5190**DCL      5190--REDEF    5190--REDEF
FPT_OPEN.V.RES#
      5174**DCL      5210--DCLINIT
FPT_OPEN.WSN_
      5156**DCL      5156--REDEF
M$FID
      3623**DCL-ENT  5846--CALL
MSGBLK
      5347**DCL      5925<>CALL     5926<>CALL     5958<>CALL     5962<>CALL
MSGBLK.ERRINFO.FIELD1
      5429**DCL      5960<<ASSIGN
NUMBER
      5344**DCL      5675<<ASSIGN   5762<<ASSIGN   5959<>CALL
OUT$BLK.SUBLK$
      4962**DCL      5628>>ASSIGN
OUT$SYM.CODE
      4981**DCL      5632>>IF       5680>>IF       5691>>IF       5713>>IF       5723>>IF       5744>>IF
      5766>>IF       5799>>IF
OUT$SYM.COUNT
      4998**DCL      5001--IMP-SIZ  5643>>CALLBLT  5655>>CALLBLT  5667>>CALLBLT  5701>>CALLBLT  5733>>IF
      5739>>ASSIGN   5754>>CALLBLT  5776>>CALLBLT  5788>>CALLBLT  5810>>CALLBLT  5822>>ASSIGN   5823>>ASSIGN
      5826>>CALLBLT  5838>>CALLBLT  5841>>CALLBLT  5845>>ASSIGN   5878>>CALLBLT  5891>>ASSIGN   5892>>ASSIGN
      5893>>ASSIGN
OUT$SYM.TEXT
      5001**DCL      5643>>CALLBLT  5655>>CALLBLT  5667>>CALLBLT  5701>>CALLBLT  5739>>ASSIGN   5754>>CALLBLT
PL6.E3A0      #001=QQB$LET File=QQB$LET.:E05TSI                                  WED 07/30/97 05:32 Page:65
      5776>>CALLBLT  5788>>CALLBLT  5810>>CALLBLT  5823>>ASSIGN   5826>>CALLBLT  5838>>CALLBLT  5841>>CALLBLT
      5845>>ASSIGN   5878>>CALLBLT  5892>>ASSIGN
PC$INSTANCE.FLAGS.HEADER
      5013**DCL      5893<<ASSIGN
PC$INSTANCE.HDR.CNT
      5016**DCL      5891<<ASSIGN
PC$INSTANCE.HDR.MSG
      5017**DCL      5892<<ASSIGN
PRINT_ERR
      5923**PROC     5651--CALL     5663--CALL     5709--CALL     5784--CALL     5796--CALL     5818--CALL
      5834--CALL     5856--CALL     5873--CALL     5886--CALL
PRINT_ERR_NUM
      5956**PROC     5676--CALL     5763--CALL
QQB$SAVCMD
      4895**DCL-ENT  5640--CALL     5688--CALL     5741--CALL     5807--CALL     5888--CALL
QQC$BLDMSG
      4896**DCL-ENT  5926--CALL     5962--CALL
QQC$BLDMSG_BLK
      4894**DCL-ENT  5925--CALL     5958--CALL
QQC$CONVERT_NUM
      4897**DCL-ENT  5959--CALL
QQ_CMDBLK.CODE
      4632**DCL      5630>>DOCASE
QQ_CMDBLK.MINOR_ERR
      4632**DCL      5650<<ASSIGN   5662<<ASSIGN   5674<<ASSIGN   5708<<ASSIGN   5761<<ASSIGN   5783<<ASSIGN
      5795<<ASSIGN   5817<<ASSIGN   5833<<ASSIGN   5855<<ASSIGN   5872<<ASSIGN   5885<<ASSIGN
QQ_CMDBLK.OUT$
      4632**DCL      5628>>ASSIGN
QQ_GLOBAL.ACCOUNTING
      4633**DCL      5634<<ASSIGN   5638<<ASSIGN
QQ_GLOBAL.CFP_RU.ACCT
      4721**DCL      5862<<ASSIGN
QQ_GLOBAL.CFP_RU.NAME
      4721**DCL      5863<<ASSIGN
QQ_GLOBAL.CFP_RU.PASS
      4721**DCL      5864<<ASSIGN
PL6.E3A0      #001=QQB$LET File=QQB$LET.:E05TSI                                  WED 07/30/97 05:32 Page:66
QQ_GLOBAL.CFP_RU.PSN
      4721**DCL      5865<<ASSIGN
QQ_GLOBAL.CGDISKWARN
      4636**DCL      5779<<ASSIGN
QQ_GLOBAL.CGMEMWARN
      4637**DCL      5813<<ASSIGN
QQ_GLOBAL.CGPAGEMAX
      4636**DCL      5646<<ASSIGN
QQ_GLOBAL.CGPAGEMIN
      4636**DCL      5658<<ASSIGN
QQ_GLOBAL.CGSIZEMAX
      4636**DCL      5670<<ASSIGN
QQ_GLOBAL.DCBCON
      4635**DCL      5682<<ASSIGN   5686<<ASSIGN
QQ_GLOBAL.DS1$_BITS
      4643**DCL      4643--REDEF
QQ_GLOBAL.DS2$_BITS
      4643**DCL      4644--REDEF
QQ_GLOBAL.DS3$_BITS
      4644**DCL      4644--REDEF
QQ_GLOBAL.DS4$_BITS
      4644**DCL      4645--REDEF
QQ_GLOBAL.HISTORY
      4634**DCL      5693<<ASSIGN   5697<<ASSIGN
QQ_GLOBAL.IXTNSIZE
      4641**DCL      5704<<ASSIGN
QQ_GLOBAL.JOURNAL
      4634**DCL      5715<<ASSIGN   5719<<ASSIGN
QQ_GLOBAL.LOG
      4634**DCL      5725<<ASSIGN   5729<<ASSIGN
QQ_GLOBAL.MCTID
      4720**DCL      5735<<ASSIGN   5739<<ASSIGN
QQ_GLOBAL.NEWCG
      4635**DCL      5746<<ASSIGN   5750<<ASSIGN
QQ_GLOBAL.PC$INSTANCE$
      4645**DCL      5007--IMP-PTR  5891>>ASSIGN   5892>>ASSIGN   5893>>ASSIGN
PL6.E3A0      #001=QQB$LET File=QQB$LET.:E05TSI                                  WED 07/30/97 05:32 Page:67
QQ_GLOBAL.POOLSIZE
      4640**DCL      5757<<ASSIGN
QQ_GLOBAL.SCHEDULE
      4635**DCL      5768<<ASSIGN   5772<<ASSIGN
QQ_GLOBAL.STATIONMAX
      4637**DCL      5791<<ASSIGN
QQ_GLOBAL.TESTMODE
      4634**DCL      5801<<ASSIGN   5805<<ASSIGN
QQ_GLOBAL.TPCP_RU.L#
      4720**DCL      5822<<ASSIGN
QQ_GLOBAL.TPCP_RU.NAME#
      4720**DCL      5823<<ASSIGN
QQ_GLOBAL.TPUINITIAL
      4636**DCL      5829<<ASSIGN
QQ_GLOBAL.TPUMAX
      4637**DCL      5838<<CALLBLT
QQ_GLOBAL.TPUMIN
      4637**DCL      5841<<CALLBLT
QQ_GLOBAL.XTNSIZE
      4642**DCL      5881<<ASSIGN
SIZE
      5345**DCL      5959<>CALL     5961>>ASSIGN
SUBLK$
      5083**DCL      5628<<ASSIGN   5632>>IF       5643>>CALLBLT  5643>>CALLBLT  5655>>CALLBLT  5655>>CALLBLT
      5667>>CALLBLT  5667>>CALLBLT  5680>>IF       5691>>IF       5701>>CALLBLT  5701>>CALLBLT  5713>>IF
      5723>>IF       5733>>IF       5739>>ASSIGN   5739>>ASSIGN   5744>>IF       5754>>CALLBLT  5754>>CALLBLT
      5766>>IF       5776>>CALLBLT  5776>>CALLBLT  5788>>CALLBLT  5788>>CALLBLT  5799>>IF       5810>>CALLBLT
      5810>>CALLBLT  5822>>ASSIGN   5823>>ASSIGN   5823>>ASSIGN   5826>>CALLBLT  5826>>CALLBLT  5838>>CALLBLT
      5838>>CALLBLT  5841>>CALLBLT  5841>>CALLBLT  5845>>ASSIGN   5845>>ASSIGN   5878>>CALLBLT  5878>>CALLBLT
      5891>>ASSIGN   5892>>ASSIGN   5892>>ASSIGN   5893>>ASSIGN
TEMP
      5081**DCL      5643<<CALLBLT  5644>>IF       5644>>IF       5646>>ASSIGN   5655<<CALLBLT  5656>>IF
      5656>>IF       5658>>ASSIGN   5667<<CALLBLT  5668>>IF       5670>>ASSIGN   5701<<CALLBLT  5702>>IF
      5702>>IF       5704>>ASSIGN   5754<<CALLBLT  5755>>IF       5755>>IF       5757>>ASSIGN   5776<<CALLBLT
      5777>>IF       5777>>IF       5779>>ASSIGN   5788<<CALLBLT  5789>>IF       5789>>IF       5791>>ASSIGN
      5810<<CALLBLT  5811>>IF       5811>>IF       5813>>ASSIGN   5826<<CALLBLT  5827>>IF       5827>>IF
PL6.E3A0      #001=QQB$LET File=QQB$LET.:E05TSI                                  WED 07/30/97 05:32 Page:68
      5829>>ASSIGN   5878<<CALLBLT  5879>>IF       5879>>IF       5881>>ASSIGN
TEXTC_NUM
      5342**DCL      5960--ASSIGN
TEXTC_NUM.L#
      5342**DCL      5961<<ASSIGN
TEXTC_NUM.NAME#
      5342**DCL      5959--CALL
VLP_ACCT
      5249**DCL      5208--DCLINIT
VLP_ACCT.ACCT#
      5249**DCL      5862>>ASSIGN
VLP_NAME
      5276**DCL      5208--DCLINIT  5863>>ASSIGN
VLP_PASS
      5315**DCL      5209--DCLINIT
VLP_PASS.PASS#
      5315**DCL      5864>>ASSIGN
VLP_SN
      5302**DCL      5209--DCLINIT
VLP_SN.SN#
      5302**DCL      5865>>ASSIGN
VLP_WSN
      5289**DCL      5209--DCLINIT
VLR_FID
      5230**DCL      5211--DCLINIT
VLR_FID.PASS
      5230**DCL      5848>>IF
VLR_FID.RES
      5230**DCL      5848>>IF
VLR_FID.SN
      5230**DCL      5848>>IF
VLR_FID.WSN
      5230**DCL      5848>>IF
