VERSION E05

PL6.E3A0      #001=QQB$MESSAGE File=QQB$MESSAGE.:E05TSI                          WED 07/30/97 05:33 Page:1
        1        1        /*M* QQB$MESSAGE - Perform  MESSAGE  command */
        2        2        /*T***********************************************************/
        3        3        /*T*                                                         */
        4        4        /*T* Copyright (c) Bull HN Information Systems Inc., 1997    */
        5        5        /*T*                                                         */
        6        6        /*T***********************************************************/
        7        7        /*X* IND=2, DCI=4, CSU=2, ECU=4, DTI=2, CTI=4, AND */
        8        8        QQB$MESSAGE:
        9        9                PROC;
       10       10
       11       11        %INCLUDE Q_PAGE_C;
       12       43        %SET LISTEXP = '1'B;
       13       44        %PAGE(ARG="Includes");

                61        /***************************************************************************
                62         *                                                                         *
                63         *                                  Includes                               *
                64         *                                                                         *
                65         ***************************************************************************/

       14       69        %INCLUDE XU_MACRO_C;
       15     3175        %INCLUDE QQ_SUBS_C;
       16     3367        %INCLUDE CP_6;
       17     3448        %INCLUDE QQ_MACROS_C;
       18     3873        %INCLUDE QQ_DATA_R;
       19     4119        %INCLUDE Q_ERRCODE_C;
       20     4142        %INCLUDE QQ_PERR_C;
       21     4303        %INCLUDE OC_MESSHD_C;
       22     4356        %INCLUDE OC_SUBS_C;
       23     5087        %PAGE(ARG="Externally defined routines");

              5104    1   /***************************************************************************
              5105    1    *                                                                         *
              5106    1    *                        Externally defined routines                      *
              5107    1    *                                                                         *
              5108    1    ***************************************************************************/

PL6.E3A0      #001=QQB$MESSAGE File=QQB$MESSAGE.:E05TSI                          WED 07/30/97 05:33 Page:2
       24     5112    1   DCL QQC$SNDMSG ENTRY(1);
       25     5113    1   DCL QQC$BLDMSG ENTRY(1);
       26     5114    1   DCL QQC$BLDMSG_BLK ENTRY(1);
       27     5115        %TP$STATION;
       28     5188        %PARSE$SYM(STCLASS=BASED);
       29     5226        %PARSE$OUT(STCLASS=BASED);
       30     5271    1   DCL CHAR$STRING CHAR(CHAR_STRING_SIZE) BASED;
       31     5272        %PAGE(ARG="Static");

              5289    1   /***************************************************************************
              5290    1    *                                                                         *
              5291    1    *                                   Static                                *
              5292    1    *                                                                         *
              5293    1    ***************************************************************************/

       32     5297        %OC_MESSHD_D(NAME=OC_MESSAGE, STCLASS=STATIC, ATR=%M_SYS,
       33     5298        MSG=TP_TXT_MSG#, NPARMS=2);
       34     5311    1           2 LEN(0:1) UBIN(9) UNAL INIT(8, 100),
       35     5312    1               2 INSTANCE CHAR(8),
       36     5313    1               2 TEXT CHAR(100);
       37     5314        %PAGE(ARG="Auto");

              5331    1   /***************************************************************************
              5332    1    *                                                                         *
              5333    1    *                                    Auto                                 *
              5334    1    *                                                                         *
              5335    1    ***************************************************************************/

       38     5339    1   DCL SUBLK$ PTR;
       39     5340    1   DCL TO$ PTR;
       40     5341    1   DCL TEXT$ PTR;
       41     5342
       42     5343    1   DCL CHAR_STRING_SIZE UBIN WORD;
       43     5344    1   DCL POS UBIN WORD;
       44     5345
       45     5346    1   DCL MSG CHAR(100);
       46     5347
PL6.E3A0      #001=QQB$MESSAGE File=QQB$MESSAGE.:E05TSI                          WED 07/30/97 05:33 Page:3
       47     5348        %MSGBLK;
       48     5438        %PAGE(ARG="Error codes", PAGE=YES);

PL6.E3A0      #001=QQB$MESSAGE File=QQB$MESSAGE.:E05TSI                          WED 07/30/97 05:33 Page:4
              5455    1   /***************************************************************************
              5456    1    *                                                                         *
              5457    1    *                                Error codes                              *
              5458    1    *                                                                         *
              5459    1    ***************************************************************************/

       49     5463        %ERRCODE(NAME=CODE_NGM, CODE#=%E$NGM, FCG#=%FCG_QQ, MID#=%MID_B);
       50     5470        %ERRCODE(NAME=CODE_MNS, CODE#=%E$MNS, FCG#=%FCG_QQ, MID#=%MID_B);
       51     5477        /*E*       ERROR: QQB-E$NGM-C
       52     5478
       53     5479                 MESSAGE: You are not permitted to send to a wildcarded
       54     5480                          station name.
       55     5481             DESCRIPTION: Only privileged stations may send a message
       56     5482                          to a group of stations.
       57     5483        */
       58     5484        /*E*       ERROR: QQB-E$MNS-C
       59     5485
       60     5486                 MESSAGE: This station is not logged on.
       61     5487             DESCRIPTION: The station to which a message was sent is not
       62     5488                          currently logged on.
       63     5489        */
       64     5490        %PAGE(ARG="QQB$MESSAGE", PAGE=YES);

PL6.E3A0      #001=QQB$MESSAGE File=QQB$MESSAGE.:E05TSI                          WED 07/30/97 05:33 Page:5
              5507    1   /***************************************************************************
              5508    1    *                                                                         *
              5509    1    *                                QQB$MESSAGE                              *
              5510    1    *                                                                         *
              5511    1    ***************************************************************************/

       65     5515    1           CALL QQC$BLDMSG_BLK(MSGBLK);
       66     5516    1           MSGBLK.FLAGS.DEST = '0'B;
       67     5517    1           MSGBLK.FLAGS.REPORT = '1'B;
       68     5518
       69     5519    1           SUBLK$ = QQ_CMDBLK.OUT$ -> OUT$BLK.SUBLK$(0);
       70     5520
       71     5521    1           IF SUBLK$ -> OUT$SYM.CODE = 2 /* Simple M text */ THEN
       72     5522    2             DO;
       73     5523    2               TEXT$ = SUBLK$ -> OUT$BLK.SUBLK$(0);
       74     5524    2               MSGBLK.FLAGS.DEST.MCT = '1'B;
       75     5525    2               MSGBLK.FLAGS.INHIB_CSCG = '1'B;
       76     5526    2             END;
       77     5527    1           ELSE
       78     5528    2             DO;
       79     5529    2               TO$ = SUBLK$ -> OUT$BLK.SUBLK$(0);
       80     5530    2               TEXT$ = SUBLK$ -> OUT$BLK.SUBLK$(1);
       81     5531
       82     5532    3               DO CASE(TO$ -> OUT$SYM.CODE);
       83     5533
       84     5534    3                 CASE(1 /* OPT_STATION */);
       85     5535    3                   MSGBLK.FLAGS.DEST.STATION = '1'B;
       86     5536    3                   MSGBLK.ID = TO$ -> OUT$BLK.SUBLK$(0) -> OUT$SYM.TEXT;
       87     5537
       88     5538    3                   CALL INDEX(POS, '?', MSGBLK.ID) ALTRET(NO_Q);
       89     5539
       90     5540    3                   IF NOT QQ_CMDBLK.S$ -> TP$STATION.FLAGS.PRIV THEN
       91     5541    4                     DO;
       92     5542    4                       QQ_CMDBLK.MINOR_ERR = CODE_NGM;
       93     5543    4                       GOTO PRINT_ERR;
       94     5544    4                     END;
       95     5545
PL6.E3A0      #001=QQB$MESSAGE File=QQB$MESSAGE.:E05TSI                          WED 07/30/97 05:33 Page:6
       96     5546    3   NO_Q:           ;
       97     5547
       98     5548    3                 CASE(2 /* OPT_MASTER */);
       99     5549    3                   MSGBLK.FLAGS.DEST.MCT = '1'B;
      100     5550    3                   MSGBLK.FLAGS.INHIB_CSCG = '1'B;
      101     5551
      102     5552    3                 CASE(3 /* OPT_SYSTEM */);
      103     5553    3                   MSGBLK.FLAGS.DEST.CSCG = '1'B;
      104     5554
      105     5555    3                 CASE(4 /* OPT_ADMINISTRATIVE */);
      106     5556    3                   MSGBLK.FLAGS.DEST.CSCG = '1'B;
      107     5557    3                   OC_MESSAGE.CADDR = '040000'O;
      108     5558
      109     5559    3                 CASE(5 /* OPT_COMMUNICATION */);
      110     5560    3                   MSGBLK.FLAGS.DEST.CSCG = '1'B;
      111     5561    3                   OC_MESSAGE.CADDR = '004000'O;
      112     5562
      113     5563    3                 CASE(6 /* OPT_DEVICE */);
      114     5564    3                   MSGBLK.FLAGS.DEST.CSCG = '1'B;
      115     5565    3                   OC_MESSAGE.CADDR = '100000'O;
      116     5566
      117     5567    3                 CASE(7 /* OPT_TP */);
      118     5568    3                   MSGBLK.FLAGS.DEST.CSCG = '1'B;
      119     5569    3                   OC_MESSAGE.CADDR = '001000'O;
      120     5570
      121     5571    3               END /* CASE */;
      122     5572    2             END;
      123     5573
      124     5574    1           MSGBLK.TEXT$ = ADDR(TEXT$ -> OUT$SYM.TEXT);
      125     5575    1           MSGBLK.ARS = TEXT$ -> OUT$SYM.COUNT;
      126     5576
      127     5577    1           MSG = QQ_CMDBLK.S$ -> TP$STATION.ID;
      128     5578    1           CHAR_STRING_SIZE = 5;
      129     5579    1           CALL INDEX(POS, ' ', TP$STATION.ID);
      130     5580    1           POS = POS + 1;
      131     5581    1           PINCRC(ADDR(MSG), POS) -> CHAR$STRING = '*MSG*';
      132     5582    1           CHAR_STRING_SIZE = MSGBLK.ARS;
PL6.E3A0      #001=QQB$MESSAGE File=QQB$MESSAGE.:E05TSI                          WED 07/30/97 05:33 Page:7
      133     5583    1           POS = POS + 6;
      134     5584    1           PINCRC(ADDR(MSG), POS) -> CHAR$STRING =
      135     5585    1               MSGBLK.TEXT$ -> CHAR$STRING;
      136     5586    1           MSGBLK.ARS = MSGBLK.ARS + POS;
      137     5587    1           MSGBLK.TEXT$ = ADDR(MSG);
      138     5588
      139     5589    1           IF MSGBLK.FLAGS.DEST.CSCG THEN
      140     5590    2             DO;
      141     5591    2               OC_MESSAGE.INSTANCE = QQ_GLOBAL.INSTANCE_NAME;
      142     5592    2               OC_MESSAGE.LEN(1) = MSGBLK.ARS;
      143     5593    2               OC_MESSAGE.TEXT = MSG;
      144     5594    2               MSGBLK.ARS = SIZEC(OC_MESSAGE);
      145     5595    2               MSGBLK.TEXT$ = ADDR(OC_MESSAGE);
      146     5596    2             END;
      147     5597
      148     5598    1           CALL QQC$SNDMSG(MSGBLK);
      149     5599
      150     5600    1           IF NOT MSGBLK.FLAGS.MSG_SENT THEN
      151     5601    2             DO;
      152     5602    2               QQ_CMDBLK.MINOR_ERR = CODE_MNS;
      153     5603    2               GOTO PRINT_ERR;
      154     5604    2             END;
      155     5605
      156     5606
      157     5607    1           GOTO RET;
      158     5608
      159     5609    1   PRINT_ERR:
      160     5610    1           CALL QQC$BLDMSG_BLK(MSGBLK);
      161     5611    1           CALL QQC$BLDMSG(MSGBLK);
      162     5612
      163     5613    1   RET:
      164     5614    1           RETURN;
      165     5615
      166     5616    1   END QQB$MESSAGE;

PL6.E3A0      #001=QQB$MESSAGE File=QQB$MESSAGE.:E05TSI                          WED 07/30/97 05:33 Page:8
--  Include file information  --

   OC_SUBS_C.:E05TOU  is referenced.
   OC_MESSHD_C.:E05TOU  is referenced.
   QQ_PERR_C.:E05TOU  is referenced.
   Q_ERRCODE_C.:E05TOU  is referenced.
   QQ_DATA_R.:E05TOU  cannot be made into a system file and is referenced.
   QQ_MACROS_C.:E05TOU  is referenced.
   CP_6.:E05TOU  cannot be made into a system file and is referenced.
   QQ_SUBS_C.:E05TOU  is referenced.
   XU_MACRO_C.:E05TOU  is referenced.
   Q_PAGE_C.:E05TOU  is referenced.
   B$JIT_C.:E05TOU  was found in the system file and is never referenced.
   CP_6_C.:E05TOU  was found in the system file and is referenced.
      No diagnostics issued in procedure QQB$MESSAGE.

   Procedure QQB$MESSAGE requires 176 words for executable code.
   Procedure QQB$MESSAGE requires 58 words of local(AUTO) storage.

    No errors detected in file QQB$MESSAGE.:E05TSI    .

PL6.E3A0      #001=QQB$MESSAGE File=QQB$MESSAGE.:E05TSI                          WED 07/30/97 05:33 Page:9

 Object Unit name= QQB$MESSAGE                                File name= QQB$MESSAGE.:E05TOU
 UTS= JUL 30 '97 05:33:07.48 WED                              Compiler= PL-6/E31         Sev=      00
 SharedLib= :SHARED_SYSTEM                                    Alt SharedLib=


    ****  Control sections  ****

 Sect   Type Bound  Init  Size OctSiz  Section name(segment info)
    0   DCB   even  none     0      0  M$UC
    1   Data  even  none    33     41  QQB$MESSAGE
    2  RoData even  UTS      4      4  QQB$MESSAGE
    3   Proc  even  none   176    260  QQB$MESSAGE
    4  RoData even  none     4      4  QQB$MESSAGE

    ****  Entry defs  ****

                              Check   Calling
                             calling  sequence
  Sect OctLoc Primary Altret sequence   type   Parms  Name
     3      0   yes            yes      Std        0  QQB$MESSAGE

  ****  Entry refs  ****

         Check        Calling
        calling       sequence
Altret sequence SRef   type   Args  Name
         yes           Std       1 QQC$BLDMSG_BLK
         yes           Std       1 QQC$SNDMSG
         yes           Std       1 QQC$BLDMSG
                       nStd      0 X66_AUTO_0
                       Std       0 B_CONSPOOL_D
                       nStd      0 X66_ARET
PL6.E3A0      #001=QQB$MESSAGE File=QQB$MESSAGE.:E05TSI                          WED 07/30/97 05:33 Page:10

  ****  Data refs  ****

  Flags:  r = read only, s = secondary
Flgs Name                             Flgs Name                             Flgs Name
     M$UC                                  QQ_CMDBLK                             QQ_GLOBAL
     B_VECTNIL

  ****  Segment refs  ****

  Flags:  r = read only, s = secondary
Flgs Name                             Flgs Name                             Flgs Name
     ISSID
PL6.E3A0      #001=QQB$MESSAGE File=QQB$MESSAGE.:E05TSI                          WED 07/30/97 05:33 Page:11


        1        1        /*M* QQB$MESSAGE - Perform  MESSAGE  command */
        2        2        /*T***********************************************************/
        3        3        /*T*                                                         */
        4        4        /*T* Copyright (c) Bull HN Information Systems Inc., 1997    */
        5        5        /*T*                                                         */
        6        6        /*T***********************************************************/
        7        7        /*X* IND=2, DCI=4, CSU=2, ECU=4, DTI=2, CTI=4, AND */
        8        8        QQB$MESSAGE:
        9        9                PROC;

      9  3 000000   000000 700200 xent  QQB$MESSAGE  TSX0  ! X66_AUTO_0
         3 000001   000072 000000                    ZERO    58,0

       10       10
       11       11        %INCLUDE Q_PAGE_C;
       12       43        %SET LISTEXP = '1'B;
       13       44        %PAGE(ARG="Includes");

                61        /***************************************************************************
                62         *                                                                         *
                63         *                                  Includes                               *
                64         *                                                                         *
                65         ***************************************************************************/

       14       69        %INCLUDE XU_MACRO_C;
       15     3175        %INCLUDE QQ_SUBS_C;
       16     3367        %INCLUDE CP_6;
       17     3448        %INCLUDE QQ_MACROS_C;
       18     3873        %INCLUDE QQ_DATA_R;
       19     4119        %INCLUDE Q_ERRCODE_C;
       20     4142        %INCLUDE QQ_PERR_C;
       21     4303        %INCLUDE OC_MESSHD_C;
       22     4356        %INCLUDE OC_SUBS_C;
       23     5087        %PAGE(ARG="Externally defined routines");

              5104    1   /***************************************************************************
PL6.E3A0      #001=QQB$MESSAGE File=QQB$MESSAGE.:E05TSI                          WED 07/30/97 05:33 Page:12
              5105    1    *                                                                         *
              5106    1    *                        Externally defined routines                      *
              5107    1    *                                                                         *
              5108    1    ***************************************************************************/

       24     5112    1   DCL QQC$SNDMSG ENTRY(1);
       25     5113    1   DCL QQC$BLDMSG ENTRY(1);
       26     5114    1   DCL QQC$BLDMSG_BLK ENTRY(1);
       27     5115        %TP$STATION;
       28     5188        %PARSE$SYM(STCLASS=BASED);
       29     5226        %PARSE$OUT(STCLASS=BASED);
       30     5271    1   DCL CHAR$STRING CHAR(CHAR_STRING_SIZE) BASED;
       31     5272        %PAGE(ARG="Static");

              5289    1   /***************************************************************************
              5290    1    *                                                                         *
              5291    1    *                                   Static                                *
              5292    1    *                                                                         *
              5293    1    ***************************************************************************/

       32     5297        %OC_MESSHD_D(NAME=OC_MESSAGE, STCLASS=STATIC, ATR=%M_SYS,
       33     5298        MSG=TP_TXT_MSG#, NPARMS=2);
       34     5311    1           2 LEN(0:1) UBIN(9) UNAL INIT(8, 100),
       35     5312    1               2 INSTANCE CHAR(8),
       36     5313    1               2 TEXT CHAR(100);
       37     5314        %PAGE(ARG="Auto");

              5331    1   /***************************************************************************
              5332    1    *                                                                         *
              5333    1    *                                    Auto                                 *
              5334    1    *                                                                         *
              5335    1    ***************************************************************************/

       38     5339    1   DCL SUBLK$ PTR;
       39     5340    1   DCL TO$ PTR;
       40     5341    1   DCL TEXT$ PTR;
       41     5342
PL6.E3A0      #001=QQB$MESSAGE File=QQB$MESSAGE.:E05TSI                          WED 07/30/97 05:33 Page:13
       42     5343    1   DCL CHAR_STRING_SIZE UBIN WORD;
       43     5344    1   DCL POS UBIN WORD;
       44     5345
       45     5346    1   DCL MSG CHAR(100);
       46     5347
       47     5348        %MSGBLK;
       48     5438        %PAGE(ARG="Error codes", PAGE=YES);

PL6.E3A0      #001=QQB$MESSAGE File=QQB$MESSAGE.:E05TSI                          WED 07/30/97 05:33 Page:14
              5455    1   /***************************************************************************
              5456    1    *                                                                         *
              5457    1    *                                Error codes                              *
              5458    1    *                                                                         *
              5459    1    ***************************************************************************/

       49     5463        %ERRCODE(NAME=CODE_NGM, CODE#=%E$NGM, FCG#=%FCG_QQ, MID#=%MID_B);
       50     5470        %ERRCODE(NAME=CODE_MNS, CODE#=%E$MNS, FCG#=%FCG_QQ, MID#=%MID_B);
       51     5477        /*E*       ERROR: QQB-E$NGM-C
       52     5478
       53     5479                 MESSAGE: You are not permitted to send to a wildcarded
       54     5480                          station name.
       55     5481             DESCRIPTION: Only privileged stations may send a message
       56     5482                          to a group of stations.
       57     5483        */
       58     5484        /*E*       ERROR: QQB-E$MNS-C
       59     5485
       60     5486                 MESSAGE: This station is not logged on.
       61     5487             DESCRIPTION: The station to which a message was sent is not
       62     5488                          currently logged on.
       63     5489        */
       64     5490        %PAGE(ARG="QQB$MESSAGE", PAGE=YES);

PL6.E3A0      #001=QQB$MESSAGE File=QQB$MESSAGE.:E05TSI                          WED 07/30/97 05:33 Page:15
              5507    1   /***************************************************************************
              5508    1    *                                                                         *
              5509    1    *                                QQB$MESSAGE                              *
              5510    1    *                                                                         *
              5511    1    ***************************************************************************/

       65     5515    1           CALL QQC$BLDMSG_BLK(MSGBLK);

   5515  3 000002   200042 630500                    EPPR0   MSGBLK,,AUTO
         3 000003   200070 450500                    STP0    MSGBLK+22,,AUTO
         3 000004   200070 630500                    EPPR0   MSGBLK+22,,AUTO
         3 000005   000017 631400 xsym               EPPR1   B_VECTNIL+15
         3 000006   000000 701000 xent               TSX1    QQC$BLDMSG_BLK
         3 000007   000000 011000                    NOP     0

       66     5516    1           MSGBLK.FLAGS.DEST = '0'B;

   5516  3 000010   000000 236000 4                  LDQ     0
         3 000011   200044 356100                    ANSQ    MSGBLK+2,,AUTO

       67     5517    1           MSGBLK.FLAGS.REPORT = '1'B;

   5517  3 000012   100000 236007                    LDQ     32768,DL
         3 000013   200044 256100                    ORSQ    MSGBLK+2,,AUTO

       68     5518
       69     5519    1           SUBLK$ = QQ_CMDBLK.OUT$ -> OUT$BLK.SUBLK$(0);

   5519  3 000014   000005 470400 xsym               LDP0    QQ_CMDBLK+5
         3 000015   000003 236100                    LDQ     3,,PR0
         3 000016   200004 756100                    STQ     SUBLK$,,AUTO

       70     5520
       71     5521    1           IF SUBLK$ -> OUT$SYM.CODE = 2 /* Simple M text */ THEN

   5521  3 000017   200004 471500                    LDP1    SUBLK$,,AUTO
         3 000020   100000 720100                    LXL0    0,,PR1
PL6.E3A0      #001=QQB$MESSAGE File=QQB$MESSAGE.:E05TSI                          WED 07/30/97 05:33 Page:16
         3 000021   000002 100003                    CMPX0   2,DU
         3 000022   000032 601000 3                  TNZ     s:5529

       72     5522    2             DO;

       73     5523    2               TEXT$ = SUBLK$ -> OUT$BLK.SUBLK$(0);

   5523  3 000023   100003 236100                    LDQ     3,,PR1
         3 000024   200006 756100                    STQ     TEXT$,,AUTO

       74     5524    2               MSGBLK.FLAGS.DEST.MCT = '1'B;

   5524  3 000025   000020 236003                    LDQ     16,DU
         3 000026   200044 256100                    ORSQ    MSGBLK+2,,AUTO

       75     5525    2               MSGBLK.FLAGS.INHIB_CSCG = '1'B;

   5525  3 000027   020000 236007                    LDQ     8192,DL
         3 000030   200044 256100                    ORSQ    MSGBLK+2,,AUTO

       76     5526    2             END;

   5526  3 000031   000133 710000 3                  TRA     s:5574

       77     5527    1           ELSE
       78     5528    2             DO;

       79     5529    2               TO$ = SUBLK$ -> OUT$BLK.SUBLK$(0);

   5529  3 000032   100003 236100                    LDQ     3,,PR1
         3 000033   200005 756100                    STQ     TO$,,AUTO

       80     5530    2               TEXT$ = SUBLK$ -> OUT$BLK.SUBLK$(1);

   5530  3 000034   100004 236100                    LDQ     4,,PR1
         3 000035   200006 756100                    STQ     TEXT$,,AUTO

PL6.E3A0      #001=QQB$MESSAGE File=QQB$MESSAGE.:E05TSI                          WED 07/30/97 05:33 Page:17
       81     5531
       82     5532    3               DO CASE(TO$ -> OUT$SYM.CODE);

   5532  3 000036   200005 473500                    LDP3    TO$,,AUTO
         3 000037   300000 721100                    LXL1    0,,PR3
         3 000040   000010 101003                    CMPX1   8,DU
         3 000041   000043 602011 3                  TNC     s:5532+5,X1
         3 000042   000133 710000 3                  TRA     s:5574
         3 000043   000133 710000 3                  TRA     s:5574
         3 000044   000053 710000 3                  TRA     s:5535
         3 000045   000100 710000 3                  TRA     s:5549
         3 000046   000105 710000 3                  TRA     s:5553
         3 000047   000110 710000 3                  TRA     s:5556
         3 000050   000115 710000 3                  TRA     s:5560
         3 000051   000122 710000 3                  TRA     s:5564
         3 000052   000127 710000 3                  TRA     s:5568

       83     5533
       84     5534    3                 CASE(1 /* OPT_STATION */);

       85     5535    3                   MSGBLK.FLAGS.DEST.STATION = '1'B;

   5535  3 000053   000100 236003                    LDQ     64,DU
         3 000054   200044 256100                    ORSQ    MSGBLK+2,,AUTO

       86     5536    3                   MSGBLK.ID = TO$ -> OUT$BLK.SUBLK$(0) -> OUT$SYM.TEXT;

   5536  3 000055   300003 474500                    LDP4    3,,PR3
         3 000056   400004 236100                    LDQ     4,,PR4
         3 000057   000033 772000                    QRL     27
         3 000060   000000 620006                    EAX0    0,QL
         3 000061   040100 100540                    MLR     fill='040'O
         3 000062   400004 200010                    ADSC9   4,,PR4                   cn=1,n=*X0
         3 000063   200042 000010                    ADSC9   MSGBLK,,AUTO             cn=0,n=8

       87     5537
       88     5538    3                   CALL INDEX(POS, '?', MSGBLK.ID) ALTRET(NO_Q);
PL6.E3A0      #001=QQB$MESSAGE File=QQB$MESSAGE.:E05TSI                          WED 07/30/97 05:33 Page:18

   5538  3 000064   000000 124500                    SCM     mask='000'O
         3 000065   200042 000010                    ADSC9   MSGBLK,,AUTO             cn=0,n=8
         3 000066   000001 000001 4                  ADSC9   1                        cn=0,n=1
         3 000067   200010 000100                    ARG     POS,,AUTO
         3 000070   000077 606400 3                  TTN     NO_Q

       89     5539
       90     5540    3                   IF NOT QQ_CMDBLK.S$ -> TP$STATION.FLAGS.PRIV THEN

   5540  3 000071   000004 474400 xsym               LDP4    QQ_CMDBLK+4
         3 000072   400022 234100                    SZN     18,,PR4
         3 000073   000077 604000 3                  TMI     NO_Q

       91     5541    4                     DO;

       92     5542    4                       QQ_CMDBLK.MINOR_ERR = CODE_NGM;

   5542  3 000074   000000 236000 2                  LDQ     CODE_NGM
         3 000075   000001 756000 xsym               STQ     QQ_CMDBLK+1

       93     5543    4                       GOTO PRINT_ERR;

   5543  3 000076   000243 710000 3                  TRA     PRINT_ERR

   5540  3 000077   000133 710000 3     NO_Q         TRA     s:5574

       94     5544    4                     END;
       95     5545
       96     5546    3   NO_Q:           ;
       97     5547
       98     5548    3                 CASE(2 /* OPT_MASTER */);

       99     5549    3                   MSGBLK.FLAGS.DEST.MCT = '1'B;

   5549  3 000100   000020 236003                    LDQ     16,DU
         3 000101   200044 256100                    ORSQ    MSGBLK+2,,AUTO
PL6.E3A0      #001=QQB$MESSAGE File=QQB$MESSAGE.:E05TSI                          WED 07/30/97 05:33 Page:19

      100     5550    3                   MSGBLK.FLAGS.INHIB_CSCG = '1'B;

   5550  3 000102   020000 236007                    LDQ     8192,DL
         3 000103   200044 256100                    ORSQ    MSGBLK+2,,AUTO
         3 000104   000133 710000 3                  TRA     s:5574

      101     5551
      102     5552    3                 CASE(3 /* OPT_SYSTEM */);

      103     5553    3                   MSGBLK.FLAGS.DEST.CSCG = '1'B;

   5553  3 000105   000040 236003                    LDQ     32,DU
         3 000106   200044 256100                    ORSQ    MSGBLK+2,,AUTO
         3 000107   000133 710000 3                  TRA     s:5574

      104     5554
      105     5555    3                 CASE(4 /* OPT_ADMINISTRATIVE */);

      106     5556    3                   MSGBLK.FLAGS.DEST.CSCG = '1'B;

   5556  3 000110   000040 236003                    LDQ     32,DU
         3 000111   200044 256100                    ORSQ    MSGBLK+2,,AUTO

      107     5557    3                   OC_MESSAGE.CADDR = '040000'O;

   5557  3 000112   040000 220003                    LDX0    16384,DU
         3 000113   000000 740000 1                  STX0    OC_MESSAGE
         3 000114   000133 710000 3                  TRA     s:5574

      108     5558
      109     5559    3                 CASE(5 /* OPT_COMMUNICATION */);

      110     5560    3                   MSGBLK.FLAGS.DEST.CSCG = '1'B;

   5560  3 000115   000040 236003                    LDQ     32,DU
         3 000116   200044 256100                    ORSQ    MSGBLK+2,,AUTO
PL6.E3A0      #001=QQB$MESSAGE File=QQB$MESSAGE.:E05TSI                          WED 07/30/97 05:33 Page:20

      111     5561    3                   OC_MESSAGE.CADDR = '004000'O;

   5561  3 000117   004000 220003                    LDX0    2048,DU
         3 000120   000000 740000 1                  STX0    OC_MESSAGE
         3 000121   000133 710000 3                  TRA     s:5574

      112     5562
      113     5563    3                 CASE(6 /* OPT_DEVICE */);

      114     5564    3                   MSGBLK.FLAGS.DEST.CSCG = '1'B;

   5564  3 000122   000040 236003                    LDQ     32,DU
         3 000123   200044 256100                    ORSQ    MSGBLK+2,,AUTO

      115     5565    3                   OC_MESSAGE.CADDR = '100000'O;

   5565  3 000124   100000 220003                    LDX0    32768,DU
         3 000125   000000 740000 1                  STX0    OC_MESSAGE
         3 000126   000133 710000 3                  TRA     s:5574

      116     5566
      117     5567    3                 CASE(7 /* OPT_TP */);

      118     5568    3                   MSGBLK.FLAGS.DEST.CSCG = '1'B;

   5568  3 000127   000040 236003                    LDQ     32,DU
         3 000130   200044 256100                    ORSQ    MSGBLK+2,,AUTO

      119     5569    3                   OC_MESSAGE.CADDR = '001000'O;

   5569  3 000131   001000 220003                    LDX0    512,DU
         3 000132   000000 740000 1                  STX0    OC_MESSAGE

      120     5570
      121     5571    3               END /* CASE */;

PL6.E3A0      #001=QQB$MESSAGE File=QQB$MESSAGE.:E05TSI                          WED 07/30/97 05:33 Page:21
      122     5572    2             END;

      123     5573
      124     5574    1           MSGBLK.TEXT$ = ADDR(TEXT$ -> OUT$SYM.TEXT);

   5574  3 000133   200006 236100                    LDQ     TEXT$,,AUTO
         3 000134   000002 036000 4                  ADLQ    2
         3 000135   200047 756100                    STQ     MSGBLK+5,,AUTO

      125     5575    1           MSGBLK.ARS = TEXT$ -> OUT$SYM.COUNT;

   5575  3 000136   200006 470500                    LDP0    TEXT$,,AUTO
         3 000137   000004 236100                    LDQ     4,,PR0
         3 000140   000033 772000                    QRL     27
         3 000141   000000 620006                    EAX0    0,QL
         3 000142   200045 740100                    STX0    MSGBLK+3,,AUTO

      126     5576
      127     5577    1           MSG = QQ_CMDBLK.S$ -> TP$STATION.ID;

   5577  3 000143   000004 471400 xsym               LDP1    QQ_CMDBLK+4
         3 000144   040100 100500                    MLR     fill='040'O
         3 000145   100000 000010                    ADSC9   0,,PR1                   cn=0,n=8
         3 000146   200011 000144                    ADSC9   MSG,,AUTO                cn=0,n=100

      128     5578    1           CHAR_STRING_SIZE = 5;

   5578  3 000147   000005 235007                    LDA     5,DL
         3 000150   200007 755100                    STA     CHAR_STRING_SIZE,,AUTO

      129     5579    1           CALL INDEX(POS, ' ', TP$STATION.ID);

   5579  3 000151   200003 473500                    LDP3    S$,,AUTO
         3 000152   000000 124500                    SCM     mask='000'O
         3 000153   300000 000010                    ADSC9   0,,PR3                   cn=0,n=8
         3 000154   000035 000001 xsym               ADSC9   B_VECTNIL+29             cn=0,n=1
         3 000155   200010 000100                    ARG     POS,,AUTO
PL6.E3A0      #001=QQB$MESSAGE File=QQB$MESSAGE.:E05TSI                          WED 07/30/97 05:33 Page:22

      130     5580    1           POS = POS + 1;

   5580  3 000156   200010 236100                    LDQ     POS,,AUTO
         3 000157   000001 036007                    ADLQ    1,DL
         3 000160   200010 756100                    STQ     POS,,AUTO

      131     5581    1           PINCRC(ADDR(MSG), POS) -> CHAR$STRING = '*MSG*';

   5581  3 000161   000000 621005                    EAX1    0,AL
         3 000162   040146 100400                    MLR     fill='040'O
         3 000163   000002 000005 2                  ADSC9   CODE_MNS+1               cn=0,n=5
         3 000164   200011 000011                    ADSC9   MSG,Q,AUTO               cn=0,n=*X1

      132     5582    1           CHAR_STRING_SIZE = MSGBLK.ARS;

   5582  3 000165   200045 235100                    LDA     MSGBLK+3,,AUTO
         3 000166   000022 771000                    ARL     18
         3 000167   200007 755100                    STA     CHAR_STRING_SIZE,,AUTO

      133     5583    1           POS = POS + 6;

   5583  3 000170   000006 036007                    ADLQ    6,DL
         3 000171   200010 756100                    STQ     POS,,AUTO

      134     5584    1           PINCRC(ADDR(MSG), POS) -> CHAR$STRING =

   5584  3 000172   200047 474500                    LDP4    MSGBLK+5,,AUTO
         3 000173   000000 620005                    EAX0    0,AL
         3 000174   200007 721100                    LXL1    CHAR_STRING_SIZE,,AUTO
         3 000175   040146 100540                    MLR     fill='040'O
         3 000176   400000 000010                    ADSC9   0,,PR4                   cn=0,n=*X0
         3 000177   200011 000011                    ADSC9   MSG,Q,AUTO               cn=0,n=*X1

      135     5585    1               MSGBLK.TEXT$ -> CHAR$STRING;
      136     5586    1           MSGBLK.ARS = MSGBLK.ARS + POS;

PL6.E3A0      #001=QQB$MESSAGE File=QQB$MESSAGE.:E05TSI                          WED 07/30/97 05:33 Page:23
   5586  3 000200   200045 236100                    LDQ     MSGBLK+3,,AUTO
         3 000201   000022 772000                    QRL     18
         3 000202   200010 036100                    ADLQ    POS,,AUTO
         3 000203   000000 620006                    EAX0    0,QL
         3 000204   200045 740100                    STX0    MSGBLK+3,,AUTO

      137     5587    1           MSGBLK.TEXT$ = ADDR(MSG);

   5587  3 000205   200011 634500                    EPPR4   MSG,,AUTO
         3 000206   200047 454500                    STP4    MSGBLK+5,,AUTO

      138     5588
      139     5589    1           IF MSGBLK.FLAGS.DEST.CSCG THEN

   5589  3 000207   200044 236100                    LDQ     MSGBLK+2,,AUTO
         3 000210   000040 316003                    CANQ    32,DU
         3 000211   000226 600000 3                  TZE     s:5598

      140     5590    2             DO;

      141     5591    2               OC_MESSAGE.INSTANCE = QQ_GLOBAL.INSTANCE_NAME;

   5591  3 000212   040000 100400                    MLR     fill='040'O
         3 000213   000325 000010 xsym               ADSC9   QQ_GLOBAL+213            cn=0,n=8
         3 000214   000005 400010 1                  ADSC9   OC_MESSAGE+5             cn=2,n=8

      142     5592    2               OC_MESSAGE.LEN(1) = MSGBLK.ARS;

   5592  3 000215   200045 236100                    LDQ     MSGBLK+3,,AUTO
         3 000216   000005 552020 1                  STBQ    OC_MESSAGE+5,'20'O

      143     5593    2               OC_MESSAGE.TEXT = MSG;

   5593  3 000217   040000 100500                    MLR     fill='040'O
         3 000220   200011 000144                    ADSC9   MSG,,AUTO                cn=0,n=100
         3 000221   000007 400144 1                  ADSC9   OC_MESSAGE+7             cn=2,n=100

PL6.E3A0      #001=QQB$MESSAGE File=QQB$MESSAGE.:E05TSI                          WED 07/30/97 05:33 Page:24
      144     5594    2               MSGBLK.ARS = SIZEC(OC_MESSAGE);

   5594  3 000222   000202 222003                    LDX2    130,DU
         3 000223   200045 742100                    STX2    MSGBLK+3,,AUTO

      145     5595    2               MSGBLK.TEXT$ = ADDR(OC_MESSAGE);

   5595  3 000224   000003 236000 4                  LDQ     3
         3 000225   200047 756100                    STQ     MSGBLK+5,,AUTO

      146     5596    2             END;

      147     5597
      148     5598    1           CALL QQC$SNDMSG(MSGBLK);

   5598  3 000226   200042 634500                    EPPR4   MSGBLK,,AUTO
         3 000227   200070 454500                    STP4    MSGBLK+22,,AUTO
         3 000230   200070 630500                    EPPR0   MSGBLK+22,,AUTO
         3 000231   000017 631400 xsym               EPPR1   B_VECTNIL+15
         3 000232   000000 701000 xent               TSX1    QQC$SNDMSG
         3 000233   000000 011000                    NOP     0

      149     5599
      150     5600    1           IF NOT MSGBLK.FLAGS.MSG_SENT THEN

   5600  3 000234   200044 236100                    LDQ     MSGBLK+2,,AUTO
         3 000235   040000 316007                    CANQ    16384,DL
         3 000236   000242 601000 3                  TNZ     s:5607

      151     5601    2             DO;

      152     5602    2               QQ_CMDBLK.MINOR_ERR = CODE_MNS;

   5602  3 000237   000001 236000 2                  LDQ     CODE_MNS
         3 000240   000001 756000 xsym               STQ     QQ_CMDBLK+1

      153     5603    2               GOTO PRINT_ERR;
PL6.E3A0      #001=QQB$MESSAGE File=QQB$MESSAGE.:E05TSI                          WED 07/30/97 05:33 Page:25

   5603  3 000241   000243 710000 3                  TRA     PRINT_ERR

      154     5604    2             END;
      155     5605
      156     5606
      157     5607    1           GOTO RET;

   5607  3 000242   000257 710000 3                  TRA     RET

      158     5608
      159     5609    1   PRINT_ERR:
      160     5610    1           CALL QQC$BLDMSG_BLK(MSGBLK);

   5610  3 000243   200042 630500       PRINT_ERR    EPPR0   MSGBLK,,AUTO
         3 000244   200070 450500                    STP0    MSGBLK+22,,AUTO
         3 000245   200070 630500                    EPPR0   MSGBLK+22,,AUTO
         3 000246   000017 631400 xsym               EPPR1   B_VECTNIL+15
         3 000247   000000 701000 xent               TSX1    QQC$BLDMSG_BLK
         3 000250   000000 011000                    NOP     0

      161     5611    1           CALL QQC$BLDMSG(MSGBLK);

   5611  3 000251   200042 630500                    EPPR0   MSGBLK,,AUTO
         3 000252   200070 450500                    STP0    MSGBLK+22,,AUTO
         3 000253   200070 630500                    EPPR0   MSGBLK+22,,AUTO
         3 000254   000017 631400 xsym               EPPR1   B_VECTNIL+15
         3 000255   000000 701000 xent               TSX1    QQC$BLDMSG
         3 000256   000000 011000                    NOP     0

      162     5612
      163     5613    1   RET:
      164     5614    1           RETURN;

   5614  3 000257   000000 702200 xent  RET          TSX2  ! X66_ARET
      165     5615
      166     5616    1   END QQB$MESSAGE;
PL6.E3A0      #001=QQB$MESSAGE File=QQB$MESSAGE.:E05TSI                          WED 07/30/97 05:33 Page:26

PL6.E3A0      #001=QQB$MESSAGE File=QQB$MESSAGE.:E05TSI                          WED 07/30/97 05:33 Page:27
--  Include file information  --

   OC_SUBS_C.:E05TOU  is referenced.
   OC_MESSHD_C.:E05TOU  is referenced.
   QQ_PERR_C.:E05TOU  is referenced.
   Q_ERRCODE_C.:E05TOU  is referenced.
   QQ_DATA_R.:E05TOU  cannot be made into a system file and is referenced.
   QQ_MACROS_C.:E05TOU  is referenced.
   CP_6.:E05TOU  cannot be made into a system file and is referenced.
   QQ_SUBS_C.:E05TOU  is referenced.
   XU_MACRO_C.:E05TOU  is referenced.
   Q_PAGE_C.:E05TOU  is referenced.
   B$JIT_C.:E05TOU  was found in the system file and is never referenced.
   CP_6_C.:E05TOU  was found in the system file and is referenced.
      No diagnostics issued in procedure QQB$MESSAGE.
PL6.E3A0      #001=QQB$MESSAGE File=QQB$MESSAGE.:E05TSI                          WED 07/30/97 05:33 Page:28

 **** Variables and constants ****

  ****  Section 001  Data  QQB$MESSAGE

  ****  Scalars and arrays  ****
OctLoc.c.b A Datatyp(siz) R M Lvl/name                 OctLoc.c.b A Datatyp(siz) R M Lvl/name

     0-0-0/c STRC(1170)  r     1 OC_MESSAGE

  ****  Section 002 RoData QQB$MESSAGE

  ****  Scalars and arrays  ****
OctLoc.c.b A Datatyp(siz) R M Lvl/name                 OctLoc.c.b A Datatyp(siz) R M Lvl/name

     1-0-0/b STRC        r     1 CODE_MNS                   0-0-0/b STRC        r     1 CODE_NGM

  ****  Auto variables  ****

  ****  Scalars and arrays  ****
OctLoc.c.b A Datatyp(siz) R M Lvl/name                 OctLoc.c.b A Datatyp(siz) R M Lvl/name

     7-0-0/w UBIN        r     1 CHAR_STRING_SIZE          11-0-0/c CHAR(100)   r     1 MSG
    42-0-0/w STRC(738)   r     1 MSGBLK                    10-0-0/w UBIN        r     1 POS
     3-0-0/w PTR         r     1 S$                         4-0-0/w PTR         r     1 SUBLK$
     6-0-0/w PTR         r     1 TEXT$                      5-0-0/w PTR         r     1 TO$

  ****  SYMREF variables  ****

  ****  Scalars and arrays  ****
OctLoc.c.b A Datatyp(siz) R M Lvl/name                 OctLoc.c.b A Datatyp(siz) R M Lvl/name

     0-0-0/w STRC(315)   r     1 QQ_CMDBLK                  0-0-0/d STRC(9090)  r     1 QQ_GLOBAL

  ****  BASED and DCB variables  ****

  ****  Scalars and arrays  ****
OctLoc.c.b A Datatyp(siz) R M Lvl/name                 OctLoc.c.b A Datatyp(siz) R M Lvl/name
PL6.E3A0      #001=QQB$MESSAGE File=QQB$MESSAGE.:E05TSI                          WED 07/30/97 05:33 Page:29

     0-0-0/c ACHR        r     1 CHAR$STRING                0-0-0/w STRC(144)   r     1 OUT$BLK
     0-0-0/w ASTR(153)   r     1 OUT$SYM                    0-0-0/w STRC(909)   r     1 TP$STATION


   Procedure QQB$MESSAGE requires 176 words for executable code.
   Procedure QQB$MESSAGE requires 58 words of local(AUTO) storage.

    No errors detected in file QQB$MESSAGE.:E05TSI    .
PL6.E3A0      #001=QQB$MESSAGE File=QQB$MESSAGE.:E05TSI                          WED 07/30/97 05:33 Page:30
          *** CROSS REFERENCE LISTING ***
**     DENOTES     IDENTIFIER DEFINITION
<<                 IDENTIFIER'S VALUE SET
>>                 IDENTIFIER'S VALUE USED
<>                 IDENTIFIER SET AND/OR USED
--                 IDENTIFIER REFERENCED
PL6.E3A0      #001=QQB$MESSAGE File=QQB$MESSAGE.:E05TSI                          WED 07/30/97 05:33 Page:31
          MINI XREF LISTING

CHAR$STRING
      5271**DCL      5581<<ASSIGN   5584<<ASSIGN   5584>>ASSIGN
CHAR_STRING_SIZE
      5343**DCL      5271--IMP-SIZ  5578<<ASSIGN   5581>>ASSIGN   5582<<ASSIGN   5584>>ASSIGN   5584>>ASSIGN
CODE_MNS
      5471**DCL      5602>>ASSIGN
CODE_NGM
      5464**DCL      5542>>ASSIGN
MSG
      5346**DCL      5577<<ASSIGN   5581--ASSIGN   5584--ASSIGN   5587--ASSIGN   5593>>ASSIGN
MSGBLK
      5349**DCL      5515<>CALL     5598<>CALL     5610<>CALL     5611<>CALL
MSGBLK.ARS
      5416**DCL      5575<<ASSIGN   5582>>ASSIGN   5586<<ASSIGN   5586>>ASSIGN   5592>>ASSIGN   5594<<ASSIGN
MSGBLK.FLAGS.DEST
      5389**DCL      5516<<ASSIGN
MSGBLK.FLAGS.DEST.CSCG
      5393**DCL      5553<<ASSIGN   5556<<ASSIGN   5560<<ASSIGN   5564<<ASSIGN   5568<<ASSIGN   5589>>IF
MSGBLK.FLAGS.DEST.MCT
      5395**DCL      5524<<ASSIGN   5549<<ASSIGN
MSGBLK.FLAGS.DEST.STATION
      5391**DCL      5535<<ASSIGN
MSGBLK.FLAGS.INHIB_CSCG
      5413**DCL      5525<<ASSIGN   5550<<ASSIGN
MSGBLK.FLAGS.MSG_SENT
      5411**DCL      5600>>IF
MSGBLK.FLAGS.REPORT
      5409**DCL      5517<<ASSIGN
MSGBLK.ID
      5350**DCL      5536<<ASSIGN   5538>>CALLBLT
MSGBLK.TEXT$
      5423**DCL      5574<<ASSIGN   5584>>ASSIGN   5587<<ASSIGN   5595<<ASSIGN
PL6.E3A0      #001=QQB$MESSAGE File=QQB$MESSAGE.:E05TSI                          WED 07/30/97 05:33 Page:32
NO_Q
      5540**LABEL    5538--CALLALT
OC_MESSAGE
      5299**DCL      5594--ASSIGN   5595--ASSIGN
OC_MESSAGE.CADDR
      5300**DCL      5557<<ASSIGN   5561<<ASSIGN   5565<<ASSIGN   5569<<ASSIGN
OC_MESSAGE.FLAGS
      5306**DCL      5307--REDEF
OC_MESSAGE.INSTANCE
      5312**DCL      5591<<ASSIGN
OC_MESSAGE.LEN
      5311**DCL      5592<<ASSIGN
OC_MESSAGE.MSGID
      5302**DCL      5303--REDEF
OC_MESSAGE.TEXT
      5313**DCL      5593<<ASSIGN
OUT$BLK.SUBLK$
      5265**DCL      5519>>ASSIGN   5523>>ASSIGN   5529>>ASSIGN   5530>>ASSIGN   5536>>ASSIGN   5536>>ASSIGN
OUT$SYM.CODE
      5201**DCL      5521>>IF       5532>>DOCASE
OUT$SYM.COUNT
      5218**DCL      5221--IMP-SIZ  5536>>ASSIGN   5575>>ASSIGN
OUT$SYM.TEXT
      5221**DCL      5536>>ASSIGN   5574--ASSIGN
POS
      5344**DCL      5538<<CALLBLT  5579<<CALLBLT  5580<<ASSIGN   5580>>ASSIGN   5581>>ASSIGN   5583<<ASSIGN
      5583>>ASSIGN   5584>>ASSIGN   5586>>ASSIGN
PRINT_ERR
      5610**LABEL    5543--GOTO     5603--GOTO
QQC$BLDMSG
      5113**DCL-ENT  5611--CALL
QQC$BLDMSG_BLK
      5114**DCL-ENT  5515--CALL     5610--CALL
QQC$SNDMSG
      5112**DCL-ENT  5598--CALL
QQ_CMDBLK.MINOR_ERR
PL6.E3A0      #001=QQB$MESSAGE File=QQB$MESSAGE.:E05TSI                          WED 07/30/97 05:33 Page:33
      3882**DCL      5542<<ASSIGN   5602<<ASSIGN
QQ_CMDBLK.OUT$
      3882**DCL      5519>>ASSIGN
QQ_CMDBLK.S$
      3882**DCL      5540>>IF       5577>>ASSIGN
QQ_GLOBAL.DS1$_BITS
      3893**DCL      3893--REDEF
QQ_GLOBAL.DS2$_BITS
      3893**DCL      3894--REDEF
QQ_GLOBAL.DS3$_BITS
      3894**DCL      3894--REDEF
QQ_GLOBAL.DS4$_BITS
      3894**DCL      3895--REDEF
QQ_GLOBAL.INSTANCE_NAME
      3970**DCL      5591>>ASSIGN
RET
      5614**LABEL    5607--GOTO
S$
      5127**DCL      5129--IMP-PTR  5579>>CALLBLT
SUBLK$
      5339**DCL      5519<<ASSIGN   5521>>IF       5523>>ASSIGN   5529>>ASSIGN   5530>>ASSIGN
TEXT$
      5341**DCL      5523<<ASSIGN   5530<<ASSIGN   5574>>ASSIGN   5575>>ASSIGN
TO$
      5340**DCL      5529<<ASSIGN   5532>>DOCASE   5536>>ASSIGN   5536>>ASSIGN
TP$STATION.FLAGS.PRIV
      5157**DCL      5540>>IF
TP$STATION.ID
      5130**DCL      5577>>ASSIGN   5579>>CALLBLT
