VERSION E05

PL6.E3A0      #001=QQB$OFF File=QQB$OFF.:E05TSI                                  WED 07/30/97 05:33 Page:1
        1        1        /*M* QQB$OFF - Perform  OFF & BYE  commands */
        2        2        /*T***********************************************************/
        3        3        /*T*                                                         */
        4        4        /*T* Copyright (c) Bull HN Information Systems Inc., 1997    */
        5        5        /*T*                                                         */
        6        6        /*T***********************************************************/
        7        7        /*X* IND=2, DCI=4, CSU=2, ECU=4, DTI=2, CTI=4, AND */
        8        8        QQB$OFF:
        9        9                PROC;
       10       10
       11       11        %INCLUDE Q_PAGE_C;
       12       43        %SET LISTEXP = '1'B;
       13       44        %PAGE(ARG="Includes");

                61        /***************************************************************************
                62         *                                                                         *
                63         *                                  Includes                               *
                64         *                                                                         *
                65         ***************************************************************************/

       14       69        %INCLUDE CP_6;
       15      150        %INCLUDE B_ERRORS_C;
       16     1277        %INCLUDE QQ_MACROS_C;
       17     1702        %INCLUDE QQ_DATA_R;
       18     1948        %PAGE(ARG="Externally defined routines");

              1965    1   /***************************************************************************
              1966    1    *                                                                         *
              1967    1    *                        Externally defined routines                      *
              1968    1    *                                                                         *
              1969    1    ***************************************************************************/

       19     1973    1   DCL QQC$SCREECH ENTRY;
       20     1974    1   DCL QQB$EXIT    ENTRY;
       21     1975        %PAGE(ARG="Symrefs");

              1992    1   /***************************************************************************
PL6.E3A0      #001=QQB$OFF File=QQB$OFF.:E05TSI                                  WED 07/30/97 05:33 Page:2
              1993    1    *                                                                         *
              1994    1    *                                  Symrefs                                *
              1995    1    *                                                                         *
              1996    1    ***************************************************************************/

       22     2000    1   DCL B$TCB$ PTR SYMREF;
       23     2001        %PAGE(ARG="DCBs");

              2018    1   /***************************************************************************
              2019    1    *                                                                         *
              2020    1    *                                    DCBs                                 *
              2021    1    *                                                                         *
              2022    1    ***************************************************************************/

       24     2026    1   DCL M$CG DCB;
       25     2027        %PAGE(ARG="Based");

              2044    1   /***************************************************************************
              2045    1    *                                                                         *
              2046    1    *                                   Based                                 *
              2047    1    *                                                                         *
              2048    1    ***************************************************************************/

       26     2052        %TP$STATION;
       27     2125        %B$TCB;
       28     2128        %B$ALT;
       29     2136        %PAGE(ARG="Static");

              2153    1   /***************************************************************************
              2154    1    *                                                                         *
              2155    1    *                                   Static                                *
              2156    1    *                                                                         *
              2157    1    ***************************************************************************/

       30     2161    1   DCL STATION CHAR(8) STATIC;
       31     2162        %PAGE(ARG="FPTs", PAGE=YES);

PL6.E3A0      #001=QQB$OFF File=QQB$OFF.:E05TSI                                  WED 07/30/97 05:33 Page:3
              2179    1   /***************************************************************************
              2180    1    *                                                                         *
              2181    1    *                                    FPTs                                 *
              2182    1    *                                                                         *
              2183    1    ***************************************************************************/

       32     2187        %FPT_ACTIVATE(FPTN=FPT_DEACTIVATE, DCB=M$CG, DISCONNECT=YES, STATION=STATION);
       33     2210        %PAGE(ARG="QQB$OFF", PAGE=YES);

PL6.E3A0      #001=QQB$OFF File=QQB$OFF.:E05TSI                                  WED 07/30/97 05:33 Page:4
              2227    1   /***************************************************************************
              2228    1    *                                                                         *
              2229    1    *                                  QQB$OFF                                *
              2230    1    *                                                                         *
              2231    1    ***************************************************************************/

       34     2235                /*  If Command_FP is not running as the DFLT form then
       35     2236                    tell it to exit back to the Default form.  If it is
       36     2237                    the DeFauLT form, Disconnect this Guy.
       37     2238                */
       38     2239
       39     2240    1           IF QQ_CMDBLK.S$ -> TP$STATION.DFLT_FP ~= '*DFLT' THEN
       40     2241    2             DO;
       41     2242    2               CALL QQB$EXIT;
       42     2243    2               RETURN;
       43     2244    2             END;
       44     2245    1           STATION = QQ_CMDBLK.S$ -> TP$STATION.ID;
       45     2246    1           CALL M$DEACTIVATE(FPT_DEACTIVATE) ALTRET(DEACTIVATE_ERR);
       46     2247    1           QQ_CMDBLK.S$ -> TP$STATION.FLAGS.DISCONNECT = '1'B;
       47     2248
       48     2249    2           DO WHILE('0'B);
       49     2250
       50     2251    2   DEACTIVATE_ERR:
       51     2252    2             IF B$TCB$ -> B$TCB.ALT$ -> B$ALT.ERR.CODE ~= 1154 /* E$CGAFNS */ THEN
       52     2253    3               DO;
       53     2254    3                 GOTO MON_ERR;
       54     2255    3               END;
       55     2256    2           END /* NEVER */;
       56     2257
       57     2258    1           RETURN;
       58     2259
       59     2260    1   MON_ERR:
       60     2261    1           QQ_GLOBAL.ERR = B$TCB$ -> B$TCB.ALT$ -> B$ALT.ERR;
       61     2262    1           CALL QQC$SCREECH;
       62     2263
       63     2264    1   END QQB$OFF;

PL6.E3A0      #001=QQB$OFF File=QQB$OFF.:E05TSI                                  WED 07/30/97 05:33 Page:5
--  Include file information  --

   QQ_DATA_R.:E05TOU  cannot be made into a system file and is referenced.
   QQ_MACROS_C.:E05TOU  is referenced.
   B_ERRORS_C.:E05TOU  is referenced.
   CP_6.:E05TOU  cannot be made into a system file and is referenced.
   Q_PAGE_C.:E05TOU  is referenced.
   B$JIT_C.:E05TOU  was found in the system file and is never referenced.
   CP_6_C.:E05TOU  was found in the system file and is referenced.
      No diagnostics issued in procedure QQB$OFF.

   Procedure QQB$OFF requires 36 words for executable code.
   Procedure QQB$OFF requires 4 words of local(AUTO) storage.

    No errors detected in file QQB$OFF.:E05TSI    .

PL6.E3A0      #001=QQB$OFF File=QQB$OFF.:E05TSI                                  WED 07/30/97 05:33 Page:6

 Object Unit name= QQB$OFF                                    File name= QQB$OFF.:E05TOU
 UTS= JUL 30 '97 05:33:27.36 WED                              Compiler= PL-6/E31         Sev=      00
 SharedLib= :SHARED_SYSTEM                                    Alt SharedLib=


    ****  Control sections  ****

 Sect   Type Bound  Init  Size OctSiz  Section name(segment info)
    0   DCB   even  none     0      0  M$UC
    1   DCB   even  none     0      0  M$CG
    2   Data  even  none    18     22  QQB$OFF
    3  RoData even  UTS      2      2  QQB$OFF
    4   Proc  even  none    36     44  QQB$OFF

    ****  Entry defs  ****

                              Check   Calling
                             calling  sequence
  Sect OctLoc Primary Altret sequence   type   Parms  Name
     4      0   yes            yes      Std        0  QQB$OFF

  ****  Entry refs  ****

         Check        Calling
        calling       sequence
Altret sequence SRef   type   Args  Name
         yes           Std       0 QQB$EXIT
         yes           Std       0 QQC$SCREECH
                       nStd      0 X66_AUTO_0
                       Std       0 B_CONSPOOL_D
                       nStd      0 X66_ARET
PL6.E3A0      #001=QQB$OFF File=QQB$OFF.:E05TSI                                  WED 07/30/97 05:33 Page:7

  ****  Data refs  ****

  Flags:  r = read only, s = secondary
Flgs Name                             Flgs Name                             Flgs Name
     M$UC                                  QQ_CMDBLK                             QQ_GLOBAL
     B$TCB$                                M$CG                                  B_VECTNIL

  ****  Segment refs  ****

  Flags:  r = read only, s = secondary
Flgs Name                             Flgs Name                             Flgs Name
     ISSID                                 NULLSID
PL6.E3A0      #001=QQB$OFF File=QQB$OFF.:E05TSI                                  WED 07/30/97 05:33 Page:8


        1        1        /*M* QQB$OFF - Perform  OFF & BYE  commands */
        2        2        /*T***********************************************************/
        3        3        /*T*                                                         */
        4        4        /*T* Copyright (c) Bull HN Information Systems Inc., 1997    */
        5        5        /*T*                                                         */
        6        6        /*T***********************************************************/
        7        7        /*X* IND=2, DCI=4, CSU=2, ECU=4, DTI=2, CTI=4, AND */
        8        8        QQB$OFF:
        9        9                PROC;

      9  4 000000   000000 700200 xent  QQB$OFF      TSX0  ! X66_AUTO_0
         4 000001   000004 000000                    ZERO    4,0

       10       10
       11       11        %INCLUDE Q_PAGE_C;
       12       43        %SET LISTEXP = '1'B;
       13       44        %PAGE(ARG="Includes");

                61        /***************************************************************************
                62         *                                                                         *
                63         *                                  Includes                               *
                64         *                                                                         *
                65         ***************************************************************************/

       14       69        %INCLUDE CP_6;
       15      150        %INCLUDE B_ERRORS_C;
       16     1277        %INCLUDE QQ_MACROS_C;
       17     1702        %INCLUDE QQ_DATA_R;
       18     1948        %PAGE(ARG="Externally defined routines");

              1965    1   /***************************************************************************
              1966    1    *                                                                         *
              1967    1    *                        Externally defined routines                      *
              1968    1    *                                                                         *
              1969    1    ***************************************************************************/

PL6.E3A0      #001=QQB$OFF File=QQB$OFF.:E05TSI                                  WED 07/30/97 05:33 Page:9
       19     1973    1   DCL QQC$SCREECH ENTRY;
       20     1974    1   DCL QQB$EXIT    ENTRY;
       21     1975        %PAGE(ARG="Symrefs");

              1992    1   /***************************************************************************
              1993    1    *                                                                         *
              1994    1    *                                  Symrefs                                *
              1995    1    *                                                                         *
              1996    1    ***************************************************************************/

       22     2000    1   DCL B$TCB$ PTR SYMREF;
       23     2001        %PAGE(ARG="DCBs");

              2018    1   /***************************************************************************
              2019    1    *                                                                         *
              2020    1    *                                    DCBs                                 *
              2021    1    *                                                                         *
              2022    1    ***************************************************************************/

       24     2026    1   DCL M$CG DCB;
       25     2027        %PAGE(ARG="Based");

              2044    1   /***************************************************************************
              2045    1    *                                                                         *
              2046    1    *                                   Based                                 *
              2047    1    *                                                                         *
              2048    1    ***************************************************************************/

       26     2052        %TP$STATION;
       27     2125        %B$TCB;
       28     2128        %B$ALT;
       29     2136        %PAGE(ARG="Static");

              2153    1   /***************************************************************************
              2154    1    *                                                                         *
              2155    1    *                                   Static                                *
              2156    1    *                                                                         *
PL6.E3A0      #001=QQB$OFF File=QQB$OFF.:E05TSI                                  WED 07/30/97 05:33 Page:10
              2157    1    ***************************************************************************/

       30     2161    1   DCL STATION CHAR(8) STATIC;
       31     2162        %PAGE(ARG="FPTs", PAGE=YES);

PL6.E3A0      #001=QQB$OFF File=QQB$OFF.:E05TSI                                  WED 07/30/97 05:33 Page:11
              2179    1   /***************************************************************************
              2180    1    *                                                                         *
              2181    1    *                                    FPTs                                 *
              2182    1    *                                                                         *
              2183    1    ***************************************************************************/

       32     2187        %FPT_ACTIVATE(FPTN=FPT_DEACTIVATE, DCB=M$CG, DISCONNECT=YES, STATION=STATION);
       33     2210        %PAGE(ARG="QQB$OFF", PAGE=YES);

PL6.E3A0      #001=QQB$OFF File=QQB$OFF.:E05TSI                                  WED 07/30/97 05:33 Page:12
              2227    1   /***************************************************************************
              2228    1    *                                                                         *
              2229    1    *                                  QQB$OFF                                *
              2230    1    *                                                                         *
              2231    1    ***************************************************************************/

       34     2235                /*  If Command_FP is not running as the DFLT form then
       35     2236                    tell it to exit back to the Default form.  If it is
       36     2237                    the DeFauLT form, Disconnect this Guy.
       37     2238                */
       38     2239
       39     2240    1           IF QQ_CMDBLK.S$ -> TP$STATION.DFLT_FP ~= '*DFLT' THEN

   2240  4 000002   000004 470400 xsym               LDP0    QQ_CMDBLK+4
         4 000003   040000 106500                    CMPC    fill='040'O
         4 000004   000004 000010                    ADSC9   4,,PR0                   cn=0,n=8
         4 000005   000000 000005 3                  ADSC9   0                        cn=0,n=5
         4 000006   000013 600000 4                  TZE     s:2245

       40     2241    2             DO;

       41     2242    2               CALL QQB$EXIT;

   2242  4 000007   000002 631400 xsym               EPPR1   B_VECTNIL+2
         4 000010   000000 701000 xent               TSX1    QQB$EXIT
         4 000011   000000 011000                    NOP     0

       42     2243    2               RETURN;

   2243  4 000012   000000 702200 xent               TSX2  ! X66_ARET

       43     2244    2             END;
       44     2245    1           STATION = QQ_CMDBLK.S$ -> TP$STATION.ID;

   2245  4 000013   040000 100500                    MLR     fill='040'O
         4 000014   000000 000010                    ADSC9   0,,PR0                   cn=0,n=8
         4 000015   000000 000010 2                  ADSC9   STATION                  cn=0,n=8
PL6.E3A0      #001=QQB$OFF File=QQB$OFF.:E05TSI                                  WED 07/30/97 05:33 Page:13

       45     2246    1           CALL M$DEACTIVATE(FPT_DEACTIVATE) ALTRET(DEACTIVATE_ERR);

   2246  4 000016   000002 630400 2                  EPPR0   FPT_DEACTIVATE
         4 000017   500001 713400                    CLIMB   alt,+32769
         4 000020   401400 401760                    pmme    nvectors=4
         4 000021   000026 702000 4                  TSX2    DEACTIVATE_ERR

       46     2247    1           QQ_CMDBLK.S$ -> TP$STATION.FLAGS.DISCONNECT = '1'B;

   2247  4 000022   000004 470400 xsym               LDP0    QQ_CMDBLK+4
         4 000023   020000 236003                    LDQ     8192,DU
         4 000024   000022 256100                    ORSQ    18,,PR0

       47     2248
       48     2249    2           DO WHILE('0'B);

   2249  4 000025   000035 710000 4                  TRA     s:2258

       49     2250
       50     2251    2   DEACTIVATE_ERR:
       51     2252    2             IF B$TCB$ -> B$TCB.ALT$ -> B$ALT.ERR.CODE ~= 1154 /* E$CGAFNS */ THEN

   2252  4 000026   000000 470400 xsym  DEACTIVATE_* LDP0    B$TCB$
         4 000027   000000 471500                    LDP1    0,,PR0
         4 000030   100102 236100                    LDQ     66,,PR1
         4 000031   377770 376007                    ANQ     131064,DL
         4 000032   022020 116007                    CMPQ    9232,DL
         4 000033   000035 600000 4                  TZE     s:2258

       52     2253    3               DO;

       53     2254    3                 GOTO MON_ERR;

   2254  4 000034   000036 710000 4                  TRA     MON_ERR

       54     2255    3               END;
PL6.E3A0      #001=QQB$OFF File=QQB$OFF.:E05TSI                                  WED 07/30/97 05:33 Page:14
       55     2256    2           END /* NEVER */;

       56     2257
       57     2258    1           RETURN;

   2258  4 000035   000000 702200 xent               TSX2  ! X66_ARET

       58     2259
       59     2260    1   MON_ERR:
       60     2261    1           QQ_GLOBAL.ERR = B$TCB$ -> B$TCB.ALT$ -> B$ALT.ERR;

   2261  4 000036   100102 236100       MON_ERR      LDQ     66,,PR1
         4 000037   000000 756000 xsym               STQ     QQ_GLOBAL

       61     2262    1           CALL QQC$SCREECH;

   2262  4 000040   000002 631400 xsym               EPPR1   B_VECTNIL+2
         4 000041   000000 701000 xent               TSX1    QQC$SCREECH
         4 000042   000000 011000                    NOP     0

       62     2263
       63     2264    1   END QQB$OFF;

   2264  4 000043   000000 702200 xent               TSX2  ! X66_ARET

PL6.E3A0      #001=QQB$OFF File=QQB$OFF.:E05TSI                                  WED 07/30/97 05:33 Page:15
--  Include file information  --

   QQ_DATA_R.:E05TOU  cannot be made into a system file and is referenced.
   QQ_MACROS_C.:E05TOU  is referenced.
   B_ERRORS_C.:E05TOU  is referenced.
   CP_6.:E05TOU  cannot be made into a system file and is referenced.
   Q_PAGE_C.:E05TOU  is referenced.
   B$JIT_C.:E05TOU  was found in the system file and is never referenced.
   CP_6_C.:E05TOU  was found in the system file and is referenced.
      No diagnostics issued in procedure QQB$OFF.
PL6.E3A0      #001=QQB$OFF File=QQB$OFF.:E05TSI                                  WED 07/30/97 05:33 Page:16

 **** Variables and constants ****

  ****  Section 002  Data  QQB$OFF

  ****  Scalars and arrays  ****
OctLoc.c.b A Datatyp(siz) R M Lvl/name                 OctLoc.c.b A Datatyp(siz) R M Lvl/name

     2-0-0/d STRC(576)   r     1 FPT_DEACTIVATE             0-0-0/c CHAR(8)     r     1 STATION

  ****  Auto variables  ****

  ****  Scalars and arrays  ****
OctLoc.c.b A Datatyp(siz) R M Lvl/name                 OctLoc.c.b A Datatyp(siz) R M Lvl/name

     3-0-0/w PTR         r     1 S$

  ****  SYMREF variables  ****

  ****  Scalars and arrays  ****
OctLoc.c.b A Datatyp(siz) R M Lvl/name                 OctLoc.c.b A Datatyp(siz) R M Lvl/name

     0-0-0/w PTR         r     1 B$TCB$                     0-0-0/w STRC(315)   r     1 QQ_CMDBLK
     0-0-0/d STRC(9090)  r     1 QQ_GLOBAL

  ****  BASED and DCB variables  ****

  ****  Scalars and arrays  ****
OctLoc.c.b A Datatyp(siz) R M Lvl/name                 OctLoc.c.b A Datatyp(siz) R M Lvl/name

     0-0-0/w STRC(2448)  r     1 B$ALT                      0-0-0/w STRC(144)   r     1 B$TCB
     0-0-0N  NULL        r     1 M$CG                       0-0-0/w STRC(909)   r     1 TP$STATION


   Procedure QQB$OFF requires 36 words for executable code.
   Procedure QQB$OFF requires 4 words of local(AUTO) storage.
PL6.E3A0      #001=QQB$OFF File=QQB$OFF.:E05TSI                                  WED 07/30/97 05:33 Page:17

    No errors detected in file QQB$OFF.:E05TSI    .
PL6.E3A0      #001=QQB$OFF File=QQB$OFF.:E05TSI                                  WED 07/30/97 05:33 Page:18
          *** CROSS REFERENCE LISTING ***
**     DENOTES     IDENTIFIER DEFINITION
<<                 IDENTIFIER'S VALUE SET
>>                 IDENTIFIER'S VALUE USED
<>                 IDENTIFIER SET AND/OR USED
--                 IDENTIFIER REFERENCED
PL6.E3A0      #001=QQB$OFF File=QQB$OFF.:E05TSI                                  WED 07/30/97 05:33 Page:19
          MINI XREF LISTING

B$ALT.CODE
      2130**DCL      2130--REDEF    2131--REDEF    2131--REDEF
B$ALT.ERR
      2131**DCL      2261>>ASSIGN
B$ALT.ERR.CODE
      2132**DCL      2252>>IF
B$ALT.ERR.ERR#
      2132**DCL      2132--REDEF
B$ALT.EVID
      2131**DCL      2131--REDEF    2131--REDEF
B$TCB.ALT$
      2126**DCL      2252>>IF       2261>>ASSIGN
B$TCB$
      2000**DCL      2252>>IF       2261>>ASSIGN
DEACTIVATE_ERR
      2252**LABEL    2246--CALLALT
FPT_DEACTIVATE
      2198**DCL      2246<>CALL
FPT_DEACTIVATE.V
      2199**DCL      2198--DCLINIT
FPT_DEACTIVATE.V.DVBYTE.REREAD#
      2201**DCL      2201--REDEF
M$DEACTIVATE
        98**DCL-ENT  2246--CALL
MON_ERR
      2261**LABEL    2254--GOTO
QQB$EXIT
      1974**DCL-ENT  2242--CALL
QQC$SCREECH
      1973**DCL-ENT  2262--CALL
QQ_CMDBLK.S$
      1711**DCL      2240>>IF       2245>>ASSIGN   2247>>ASSIGN
PL6.E3A0      #001=QQB$OFF File=QQB$OFF.:E05TSI                                  WED 07/30/97 05:33 Page:20
QQ_GLOBAL.DS1$_BITS
      1722**DCL      1722--REDEF
QQ_GLOBAL.DS2$_BITS
      1722**DCL      1723--REDEF
QQ_GLOBAL.DS3$_BITS
      1723**DCL      1723--REDEF
QQ_GLOBAL.DS4$_BITS
      1723**DCL      1724--REDEF
QQ_GLOBAL.ERR
      1712**DCL      2261<<ASSIGN
S$
      2064**DCL      2066--IMP-PTR
STATION
      2161**DCL      2198--DCLINIT  2245<<ASSIGN
TP$STATION.DFLT_FP
      2071**DCL      2240>>IF
TP$STATION.FLAGS.DISCONNECT
      2102**DCL      2247<<ASSIGN
TP$STATION.ID
      2067**DCL      2245>>ASSIGN
