VERSION E05

PL6.E3A0      #001=QQB$QUEST File=QQB$QUEST.:E05TSI                              WED 07/30/97 05:35 Page:1
        1        1        /*M* QQB$QUEST - Process the ? command */
        2        2        /*T***********************************************************/
        3        3        /*T*                                                         */
        4        4        /*T* Copyright (c) Bull HN Information Systems Inc., 1997    */
        5        5        /*T*                                                         */
        6        6        /*T***********************************************************/
        7        7        /*X* IND=2, DCI=4, CSU=2, ECU=4, DTI=2, CTI=4, AND */
        8        8        QQB$QUEST:
        9        9                PROC;
       10       10
       11       11        %INCLUDE Q_PAGE_C;
       12       43        %SET LISTEXP = '1'B;
       13       44        %PAGE(ARG="Includes");

                61        /***************************************************************************
                62         *                                                                         *
                63         *                                  Includes                               *
                64         *                                                                         *
                65         ***************************************************************************/

       14       69        %INCLUDE QQ_MACROS_C;
       15      494        %INCLUDE QQ_PERR_C;
       16      655        %INCLUDE Q_ERRCODE_C;
       17      678        %INCLUDE CP_6;
       18      759        %INCLUDE QQ_DATA_R;
       19     1005        %PAGE(ARG="Externally defined routines");

              1022    1   /***************************************************************************
              1023    1    *                                                                         *
              1024    1    *                        Externally defined routines                      *
              1025    1    *                                                                         *
              1026    1    ***************************************************************************/

       20     1030    1   DCL QQC$BLDMSG_BLK ENTRY(1);
       21     1031    1   DCL QQC$BLDMSG ENTRY(1);
       22     1032        %PAGE(ARG="Auto");

PL6.E3A0      #001=QQB$QUEST File=QQB$QUEST.:E05TSI                              WED 07/30/97 05:35 Page:2
              1049    1   /***************************************************************************
              1050    1    *                                                                         *
              1051    1    *                                    Auto                                 *
              1052    1    *                                                                         *
              1053    1    ***************************************************************************/

       23     1057        %MSGBLK;
       24     1147
       25     1148    1   DCL 1 ERR,
       26     1149    1         2 FCG BIT(12) UNAL,
       27     1150    1         2 MID BIT(6) UNAL,
       28     1151    1         2 MON BIT(1) UNAL,
       29     1152    1         2 CODE BIT(14) UNAL,
       30     1153    1         2 SEV UBIN(3) UNAL;
       31     1154        %PAGE(ARG="Error codes", PAGE=YES);

PL6.E3A0      #001=QQB$QUEST File=QQB$QUEST.:E05TSI                              WED 07/30/97 05:35 Page:3
              1171    1   /***************************************************************************
              1172    1    *                                                                         *
              1173    1    *                                Error codes                              *
              1174    1    *                                                                         *
              1175    1    ***************************************************************************/

       32     1179        %ERRCODE(NAME=CODE_NOMORE_INFO, CODE#=%E$NOMORE_INFO, FCG#=%FCG_QQ, MID#=%MID_B);
       33     1186        %ERRCODE(NAME=CODE_NO_MSGS, CODE#=%E$NO_MSGS, FCG#=%FCG_QQ, MID#=%MID_B);
       34     1193
       35     1194        /*E*       ERROR: QQB-E$NOMORE_INFO-C
       36     1195
       37     1196                 MESSAGE: No more information is available.
       38     1197             DESCRIPTION: All of the information about a given subject
       39     1198                          has been given out.
       40     1199        */
       41     1200        /*E*       ERROR: QQB-E$NO_MSGS-C
       42     1201
       43     1202                 MESSAGE: No subject is outstanding for which to give you more
       44     1203                          information.  Type HELP subject if you
       45     1204                          need information.
       46     1205             DESCRIPTION: The requestor type a ? when nothing appeared
       47     1206                          to be happening.
       48     1207        */
       49     1208        %PAGE(ARG="QQB$QUEST", PAGE=YES);

PL6.E3A0      #001=QQB$QUEST File=QQB$QUEST.:E05TSI                              WED 07/30/97 05:35 Page:4
              1225    1   /***************************************************************************
              1226    1    *                                                                         *
              1227    1    *                                 QQB$QUEST                               *
              1228    1    *                                                                         *
              1229    1    ***************************************************************************/

       50     1233    1           CALL QQC$BLDMSG_BLK(MSGBLK);
       51     1234    1           MSGBLK.CODECNT = 1;
       52     1235    1           IF QQ_CMDBLK.MINOR_ERR ~= '0'B THEN
       53     1236    2             DO;
       54     1237    2               ERR = QQ_CMDBLK.MINOR_ERR;
       55     1238    2               IF ERR.SEV < 7 THEN
       56     1239    3                 DO;
       57     1240    3                   ERR.SEV = ERR.SEV + 1;
       58     1241    3                   MSGBLK.ERRINFO.ERR(0) = ERR;
       59     1242    3                   CALL QQC$BLDMSG(MSGBLK);
       60     1243    3                   IF MSGBLK.FLAGS.FOUND THEN
       61     1244    4                     DO;
       62     1245    4                       QQ_CMDBLK.MINOR_ERR = ERR;
       63     1246    4                       QQ_CMDBLK.FLAGS.ERR = '1'B;
       64     1247    4                       GOTO RET;
       65     1248    4                     END;
       66     1249    3                 END;
       67     1250    2               QQ_CMDBLK.MINOR_ERR = '0'B;
       68     1251    2             END;
       69     1252        /* There are no more msgs for this minor_err_code so,
       70     1253           give some of the info for the major_err_code */
       71     1254    1           IF QQ_CMDBLK.MAJOR_ERR = '0'B THEN
       72     1255    2             DO;
       73     1256    2               ERR = CODE_NO_MSGS;
       74     1257    2             END;
       75     1258    1           ELSE
       76     1259    2             DO;
       77     1260    2               ERR = QQ_CMDBLK.MAJOR_ERR;
       78     1261    2               IF NOT QQ_CMDBLK.MAJOR_ERR_USED THEN
       79     1262    3                 DO;
       80     1263    3                   QQ_CMDBLK.MAJOR_ERR_USED = '1'B;
PL6.E3A0      #001=QQB$QUEST File=QQB$QUEST.:E05TSI                              WED 07/30/97 05:35 Page:5
       81     1264    3                   QQ_CMDBLK.FLAGS.ERR = '1'B;
       82     1265    3                 END;
       83     1266    2               ELSE
       84     1267    3                 DO;
       85     1268    3                   IF ERR.SEV < 7 THEN
       86     1269    4                     DO;
       87     1270    4                       ERR.SEV = ERR.SEV + 1;
       88     1271    4                       QQ_CMDBLK.MAJOR_ERR =ERR;
       89     1272    4                       QQ_CMDBLK.FLAGS.ERR = '1'B;
       90     1273    4                     END;
       91     1274    3                   ELSE
       92     1275    4                     DO;
       93     1276    4                       QQ_CMDBLK.MAJOR_ERR = '0'B;
       94     1277    4                       ERR = CODE_NOMORE_INFO;
       95     1278    4                     END;
       96     1279    3                 END;
       97     1280    2             END;
       98     1281    1           MSGBLK.ERRINFO.ERR(0) = ERR;
       99     1282    1           CALL QQC$BLDMSG(MSGBLK);
      100     1283    1           IF NOT MSGBLK.FLAGS.FOUND AND QQ_CMDBLK.MAJOR_ERR ~= '0'B THEN
      101     1284    2             DO;
      102     1285    2               QQ_CMDBLK.FLAGS.ERR = '0'B;
      103     1286    2               MSGBLK.ERRINFO.ERR(0) = CODE_NOMORE_INFO;
      104     1287    2               CALL QQC$BLDMSG(MSGBLK);
      105     1288    2   RET:
      106     1289    2               RETURN;
      107     1290    2             END;
      108     1291    1   END QQB$QUEST;

PL6.E3A0      #001=QQB$QUEST File=QQB$QUEST.:E05TSI                              WED 07/30/97 05:35 Page:6
--  Include file information  --

   QQ_DATA_R.:E05TOU  cannot be made into a system file and is referenced.
   CP_6.:E05TOU  cannot be made into a system file and is referenced.
   Q_ERRCODE_C.:E05TOU  is referenced.
   QQ_PERR_C.:E05TOU  is referenced.
   QQ_MACROS_C.:E05TOU  is referenced.
   Q_PAGE_C.:E05TOU  is referenced.
   B$JIT_C.:E05TOU  was found in the system file and is never referenced.
   CP_6_C.:E05TOU  was found in the system file and is referenced.
      No diagnostics issued in procedure QQB$QUEST.

   Procedure QQB$QUEST requires 94 words for executable code.
   Procedure QQB$QUEST requires 28 words of local(AUTO) storage.

    No errors detected in file QQB$QUEST.:E05TSI    .

PL6.E3A0      #001=QQB$QUEST File=QQB$QUEST.:E05TSI                              WED 07/30/97 05:35 Page:7

 Object Unit name= QQB$QUEST                                  File name= QQB$QUEST.:E05TOU
 UTS= JUL 30 '97 05:35:05.68 WED                              Compiler= PL-6/E31         Sev=      00
 SharedLib= :SHARED_SYSTEM                                    Alt SharedLib=


    ****  Control sections  ****

 Sect   Type Bound  Init  Size OctSiz  Section name(segment info)
    0   DCB   even  none     0      0  M$UC
    1  RoData even  UTS      2      2  QQB$QUEST
    2   Proc  even  none    94    136  QQB$QUEST
    3  RoData even  none     1      1  QQB$QUEST

    ****  Entry defs  ****

                              Check   Calling
                             calling  sequence
  Sect OctLoc Primary Altret sequence   type   Parms  Name
     2      0   yes            yes      Std        0  QQB$QUEST

  ****  Entry refs  ****

         Check        Calling
        calling       sequence
Altret sequence SRef   type   Args  Name
         yes           Std       1 QQC$BLDMSG_BLK
         yes           Std       1 QQC$BLDMSG
                       nStd      0 X66_AUTO_0
                       Std       0 B_CONSPOOL_D
                       nStd      0 X66_ARET

  ****  Data refs  ****

  Flags:  r = read only, s = secondary
Flgs Name                             Flgs Name                             Flgs Name
     M$UC                                  QQ_CMDBLK                             B_VECTNIL
PL6.E3A0      #001=QQB$QUEST File=QQB$QUEST.:E05TSI                              WED 07/30/97 05:35 Page:8


        1        1        /*M* QQB$QUEST - Process the ? command */
        2        2        /*T***********************************************************/
        3        3        /*T*                                                         */
        4        4        /*T* Copyright (c) Bull HN Information Systems Inc., 1997    */
        5        5        /*T*                                                         */
        6        6        /*T***********************************************************/
        7        7        /*X* IND=2, DCI=4, CSU=2, ECU=4, DTI=2, CTI=4, AND */
        8        8        QQB$QUEST:
        9        9                PROC;

      9  2 000000   000000 700200 xent  QQB$QUEST    TSX0  ! X66_AUTO_0
         2 000001   000034 000000                    ZERO    28,0

       10       10
       11       11        %INCLUDE Q_PAGE_C;
       12       43        %SET LISTEXP = '1'B;
       13       44        %PAGE(ARG="Includes");

                61        /***************************************************************************
                62         *                                                                         *
                63         *                                  Includes                               *
                64         *                                                                         *
                65         ***************************************************************************/

       14       69        %INCLUDE QQ_MACROS_C;
       15      494        %INCLUDE QQ_PERR_C;
       16      655        %INCLUDE Q_ERRCODE_C;
       17      678        %INCLUDE CP_6;
       18      759        %INCLUDE QQ_DATA_R;
       19     1005        %PAGE(ARG="Externally defined routines");

              1022    1   /***************************************************************************
              1023    1    *                                                                         *
              1024    1    *                        Externally defined routines                      *
              1025    1    *                                                                         *
              1026    1    ***************************************************************************/
PL6.E3A0      #001=QQB$QUEST File=QQB$QUEST.:E05TSI                              WED 07/30/97 05:35 Page:9

       20     1030    1   DCL QQC$BLDMSG_BLK ENTRY(1);
       21     1031    1   DCL QQC$BLDMSG ENTRY(1);
       22     1032        %PAGE(ARG="Auto");

              1049    1   /***************************************************************************
              1050    1    *                                                                         *
              1051    1    *                                    Auto                                 *
              1052    1    *                                                                         *
              1053    1    ***************************************************************************/

       23     1057        %MSGBLK;
       24     1147
       25     1148    1   DCL 1 ERR,
       26     1149    1         2 FCG BIT(12) UNAL,
       27     1150    1         2 MID BIT(6) UNAL,
       28     1151    1         2 MON BIT(1) UNAL,
       29     1152    1         2 CODE BIT(14) UNAL,
       30     1153    1         2 SEV UBIN(3) UNAL;
       31     1154        %PAGE(ARG="Error codes", PAGE=YES);

PL6.E3A0      #001=QQB$QUEST File=QQB$QUEST.:E05TSI                              WED 07/30/97 05:35 Page:10
              1171    1   /***************************************************************************
              1172    1    *                                                                         *
              1173    1    *                                Error codes                              *
              1174    1    *                                                                         *
              1175    1    ***************************************************************************/

       32     1179        %ERRCODE(NAME=CODE_NOMORE_INFO, CODE#=%E$NOMORE_INFO, FCG#=%FCG_QQ, MID#=%MID_B);
       33     1186        %ERRCODE(NAME=CODE_NO_MSGS, CODE#=%E$NO_MSGS, FCG#=%FCG_QQ, MID#=%MID_B);
       34     1193
       35     1194        /*E*       ERROR: QQB-E$NOMORE_INFO-C
       36     1195
       37     1196                 MESSAGE: No more information is available.
       38     1197             DESCRIPTION: All of the information about a given subject
       39     1198                          has been given out.
       40     1199        */
       41     1200        /*E*       ERROR: QQB-E$NO_MSGS-C
       42     1201
       43     1202                 MESSAGE: No subject is outstanding for which to give you more
       44     1203                          information.  Type HELP subject if you
       45     1204                          need information.
       46     1205             DESCRIPTION: The requestor type a ? when nothing appeared
       47     1206                          to be happening.
       48     1207        */
       49     1208        %PAGE(ARG="QQB$QUEST", PAGE=YES);

PL6.E3A0      #001=QQB$QUEST File=QQB$QUEST.:E05TSI                              WED 07/30/97 05:35 Page:11
              1225    1   /***************************************************************************
              1226    1    *                                                                         *
              1227    1    *                                 QQB$QUEST                               *
              1228    1    *                                                                         *
              1229    1    ***************************************************************************/

       50     1233    1           CALL QQC$BLDMSG_BLK(MSGBLK);

   1233  2 000002   200003 630500                    EPPR0   MSGBLK,,AUTO
         2 000003   200032 450500                    STP0    ERR+2,,AUTO
         2 000004   200032 630500                    EPPR0   ERR+2,,AUTO
         2 000005   000017 631400 xsym               EPPR1   B_VECTNIL+15
         2 000006   000000 701000 xent               TSX1    QQC$BLDMSG_BLK
         2 000007   000000 011000                    NOP     0

       51     1234    1           MSGBLK.CODECNT = 1;

   1234  2 000010   001000 236007                    LDQ     512,DL
         2 000011   200006 552110                    STBQ    MSGBLK+3,'10'O,AUTO

       52     1235    1           IF QQ_CMDBLK.MINOR_ERR ~= '0'B THEN

   1235  2 000012   000001 235000 xsym               LDA     QQ_CMDBLK+1
         2 000013   000047 600000 2                  TZE     s:1254

       53     1236    2             DO;

       54     1237    2               ERR = QQ_CMDBLK.MINOR_ERR;

   1237  2 000014   000001 236000 xsym               LDQ     QQ_CMDBLK+1
         2 000015   200030 756100                    STQ     ERR,,AUTO

       55     1238    2               IF ERR.SEV < 7 THEN

   1238  2 000016   200030 236100                    LDQ     ERR,,AUTO
         2 000017   000007 376007                    ANQ     7,DL
         2 000020   000007 116007                    CMPQ    7,DL
PL6.E3A0      #001=QQB$QUEST File=QQB$QUEST.:E05TSI                              WED 07/30/97 05:35 Page:12
         2 000021   000046 603000 2                  TRC     s:1250

       56     1239    3                 DO;

       57     1240    3                   ERR.SEV = ERR.SEV + 1;

   1240  2 000022   000001 036007                    ADLQ    1,DL
         2 000023   200030 676100                    ERQ     ERR,,AUTO
         2 000024   000007 376007                    ANQ     7,DL
         2 000025   200030 656100                    ERSQ    ERR,,AUTO

       58     1241    3                   MSGBLK.ERRINFO.ERR(0) = ERR;

   1241  2 000026   200030 236100                    LDQ     ERR,,AUTO
         2 000027   200011 756100                    STQ     MSGBLK+6,,AUTO

       59     1242    3                   CALL QQC$BLDMSG(MSGBLK);

   1242  2 000030   200003 630500                    EPPR0   MSGBLK,,AUTO
         2 000031   200032 450500                    STP0    ERR+2,,AUTO
         2 000032   200032 630500                    EPPR0   ERR+2,,AUTO
         2 000033   000017 631400 xsym               EPPR1   B_VECTNIL+15
         2 000034   000000 701000 xent               TSX1    QQC$BLDMSG
         2 000035   000000 011000                    NOP     0

       60     1243    3                   IF MSGBLK.FLAGS.FOUND THEN

   1243  2 000036   200005 236100                    LDQ     MSGBLK+2,,AUTO
         2 000037   400000 316007                    CANQ    -131072,DL
         2 000040   000046 600000 2                  TZE     s:1250

       61     1244    4                     DO;

       62     1245    4                       QQ_CMDBLK.MINOR_ERR = ERR;

   1245  2 000041   200030 236100                    LDQ     ERR,,AUTO
         2 000042   000001 756000 xsym               STQ     QQ_CMDBLK+1
PL6.E3A0      #001=QQB$QUEST File=QQB$QUEST.:E05TSI                              WED 07/30/97 05:35 Page:13

       63     1246    4                       QQ_CMDBLK.FLAGS.ERR = '1'B;

   1246  2 000043   400000 236007                    LDQ     -131072,DL
         2 000044   000010 256000 xsym               ORSQ    QQ_CMDBLK+8

       64     1247    4                       GOTO RET;

   1247  2 000045   000134 710000 2                  TRA     RET

       65     1248    4                     END;
       66     1249    3                 END;
       67     1250    2               QQ_CMDBLK.MINOR_ERR = '0'B;

   1250  2 000046   000001 450000 xsym               STZ     QQ_CMDBLK+1

       68     1251    2             END;

       69     1252        /* There are no more msgs for this minor_err_code so,
       70     1253           give some of the info for the major_err_code */
       71     1254    1           IF QQ_CMDBLK.MAJOR_ERR = '0'B THEN

   1254  2 000047   000000 235000 xsym               LDA     QQ_CMDBLK
         2 000050   000054 601000 2                  TNZ     s:1260

       72     1255    2             DO;

       73     1256    2               ERR = CODE_NO_MSGS;

   1256  2 000051   000001 236000 1                  LDQ     CODE_NO_MSGS
         2 000052   200030 756100                    STQ     ERR,,AUTO

       74     1257    2             END;

   1257  2 000053   000105 710000 2                  TRA     s:1281

       75     1258    1           ELSE
PL6.E3A0      #001=QQB$QUEST File=QQB$QUEST.:E05TSI                              WED 07/30/97 05:35 Page:14
       76     1259    2             DO;

       77     1260    2               ERR = QQ_CMDBLK.MAJOR_ERR;

   1260  2 000054   000000 236000 xsym               LDQ     QQ_CMDBLK
         2 000055   200030 756100                    STQ     ERR,,AUTO

       78     1261    2               IF NOT QQ_CMDBLK.MAJOR_ERR_USED THEN

   1261  2 000056   000002 234000 xsym               SZN     QQ_CMDBLK+2
         2 000057   000065 604000 2                  TMI     s:1268

       79     1262    3                 DO;

       80     1263    3                   QQ_CMDBLK.MAJOR_ERR_USED = '1'B;

   1263  2 000060   400000 236003                    LDQ     -131072,DU
         2 000061   000002 756000 xsym               STQ     QQ_CMDBLK+2

       81     1264    3                   QQ_CMDBLK.FLAGS.ERR = '1'B;

   1264  2 000062   400000 236007                    LDQ     -131072,DL
         2 000063   000010 256000 xsym               ORSQ    QQ_CMDBLK+8

       82     1265    3                 END;

   1265  2 000064   000105 710000 2                  TRA     s:1281

       83     1266    2               ELSE
       84     1267    3                 DO;

       85     1268    3                   IF ERR.SEV < 7 THEN

   1268  2 000065   200030 236100                    LDQ     ERR,,AUTO
         2 000066   000007 376007                    ANQ     7,DL
         2 000067   000007 116007                    CMPQ    7,DL
         2 000070   000102 603000 2                  TRC     s:1276
PL6.E3A0      #001=QQB$QUEST File=QQB$QUEST.:E05TSI                              WED 07/30/97 05:35 Page:15

       86     1269    4                     DO;

       87     1270    4                       ERR.SEV = ERR.SEV + 1;

   1270  2 000071   000001 036007                    ADLQ    1,DL
         2 000072   200030 676100                    ERQ     ERR,,AUTO
         2 000073   000007 376007                    ANQ     7,DL
         2 000074   200030 656100                    ERSQ    ERR,,AUTO

       88     1271    4                       QQ_CMDBLK.MAJOR_ERR =ERR;

   1271  2 000075   200030 236100                    LDQ     ERR,,AUTO
         2 000076   000000 756000 xsym               STQ     QQ_CMDBLK

       89     1272    4                       QQ_CMDBLK.FLAGS.ERR = '1'B;

   1272  2 000077   400000 236007                    LDQ     -131072,DL
         2 000100   000010 256000 xsym               ORSQ    QQ_CMDBLK+8

       90     1273    4                     END;

   1273  2 000101   000105 710000 2                  TRA     s:1281

       91     1274    3                   ELSE
       92     1275    4                     DO;

       93     1276    4                       QQ_CMDBLK.MAJOR_ERR = '0'B;

   1276  2 000102   000000 450000 xsym               STZ     QQ_CMDBLK

       94     1277    4                       ERR = CODE_NOMORE_INFO;

   1277  2 000103   000000 236000 1                  LDQ     CODE_NOMORE_INFO
         2 000104   200030 756100                    STQ     ERR,,AUTO

       95     1278    4                     END;
PL6.E3A0      #001=QQB$QUEST File=QQB$QUEST.:E05TSI                              WED 07/30/97 05:35 Page:16

       96     1279    3                 END;

       97     1280    2             END;

       98     1281    1           MSGBLK.ERRINFO.ERR(0) = ERR;

   1281  2 000105   200030 236100                    LDQ     ERR,,AUTO
         2 000106   200011 756100                    STQ     MSGBLK+6,,AUTO

       99     1282    1           CALL QQC$BLDMSG(MSGBLK);

   1282  2 000107   200003 630500                    EPPR0   MSGBLK,,AUTO
         2 000110   200032 450500                    STP0    ERR+2,,AUTO
         2 000111   200032 630500                    EPPR0   ERR+2,,AUTO
         2 000112   000017 631400 xsym               EPPR1   B_VECTNIL+15
         2 000113   000000 701000 xent               TSX1    QQC$BLDMSG
         2 000114   000000 011000                    NOP     0

      100     1283    1           IF NOT MSGBLK.FLAGS.FOUND AND QQ_CMDBLK.MAJOR_ERR ~= '0'B THEN

   1283  2 000115   200005 236100                    LDQ     MSGBLK+2,,AUTO
         2 000116   400000 316007                    CANQ    -131072,DL
         2 000117   000135 601000 2                  TNZ     s:1291
         2 000120   000000 235000 xsym               LDA     QQ_CMDBLK
         2 000121   000135 600000 2                  TZE     s:1291

      101     1284    2             DO;

      102     1285    2               QQ_CMDBLK.FLAGS.ERR = '0'B;

   1285  2 000122   000000 236000 3                  LDQ     0
         2 000123   000010 356000 xsym               ANSQ    QQ_CMDBLK+8

      103     1286    2               MSGBLK.ERRINFO.ERR(0) = CODE_NOMORE_INFO;

   1286  2 000124   000000 236000 1                  LDQ     CODE_NOMORE_INFO
PL6.E3A0      #001=QQB$QUEST File=QQB$QUEST.:E05TSI                              WED 07/30/97 05:35 Page:17
         2 000125   200011 756100                    STQ     MSGBLK+6,,AUTO

      104     1287    2               CALL QQC$BLDMSG(MSGBLK);

   1287  2 000126   200003 630500                    EPPR0   MSGBLK,,AUTO
         2 000127   200032 450500                    STP0    ERR+2,,AUTO
         2 000130   200032 630500                    EPPR0   ERR+2,,AUTO
         2 000131   000017 631400 xsym               EPPR1   B_VECTNIL+15
         2 000132   000000 701000 xent               TSX1    QQC$BLDMSG
         2 000133   000000 011000                    NOP     0

      105     1288    2   RET:
      106     1289    2               RETURN;

   1289  2 000134   000000 702200 xent  RET          TSX2  ! X66_ARET

      107     1290    2             END;
      108     1291    1   END QQB$QUEST;

   1291  2 000135   000000 702200 xent               TSX2  ! X66_ARET

PL6.E3A0      #001=QQB$QUEST File=QQB$QUEST.:E05TSI                              WED 07/30/97 05:35 Page:18
--  Include file information  --

   QQ_DATA_R.:E05TOU  cannot be made into a system file and is referenced.
   CP_6.:E05TOU  cannot be made into a system file and is referenced.
   Q_ERRCODE_C.:E05TOU  is referenced.
   QQ_PERR_C.:E05TOU  is referenced.
   QQ_MACROS_C.:E05TOU  is referenced.
   Q_PAGE_C.:E05TOU  is referenced.
   B$JIT_C.:E05TOU  was found in the system file and is never referenced.
   CP_6_C.:E05TOU  was found in the system file and is referenced.
      No diagnostics issued in procedure QQB$QUEST.
PL6.E3A0      #001=QQB$QUEST File=QQB$QUEST.:E05TSI                              WED 07/30/97 05:35 Page:19

 **** Variables and constants ****

  ****  Section 001 RoData QQB$QUEST

  ****  Scalars and arrays  ****
OctLoc.c.b A Datatyp(siz) R M Lvl/name                 OctLoc.c.b A Datatyp(siz) R M Lvl/name

     0-0-0/b STRC        r     1 CODE_NOMORE_INFO           1-0-0/b STRC        r     1 CODE_NO_MSGS

  ****  Auto variables  ****

  ****  Scalars and arrays  ****
OctLoc.c.b A Datatyp(siz) R M Lvl/name                 OctLoc.c.b A Datatyp(siz) R M Lvl/name

    30-0-0/b STRC        r     1 ERR                        3-0-0/w STRC(738)   r     1 MSGBLK

  ****  SYMREF variables  ****

  ****  Scalars and arrays  ****
OctLoc.c.b A Datatyp(siz) R M Lvl/name                 OctLoc.c.b A Datatyp(siz) R M Lvl/name

     0-0-0/w STRC(315)   r     1 QQ_CMDBLK


   Procedure QQB$QUEST requires 94 words for executable code.
   Procedure QQB$QUEST requires 28 words of local(AUTO) storage.

    No errors detected in file QQB$QUEST.:E05TSI    .
PL6.E3A0      #001=QQB$QUEST File=QQB$QUEST.:E05TSI                              WED 07/30/97 05:35 Page:20
          *** CROSS REFERENCE LISTING ***
**     DENOTES     IDENTIFIER DEFINITION
<<                 IDENTIFIER'S VALUE SET
>>                 IDENTIFIER'S VALUE USED
<>                 IDENTIFIER SET AND/OR USED
--                 IDENTIFIER REFERENCED
PL6.E3A0      #001=QQB$QUEST File=QQB$QUEST.:E05TSI                              WED 07/30/97 05:35 Page:21
          MINI XREF LISTING

CODE_NOMORE_INFO
      1180**DCL      1277>>ASSIGN   1286>>ASSIGN
CODE_NO_MSGS
      1187**DCL      1256>>ASSIGN
ERR
      1148**DCL      1237<<ASSIGN   1241>>ASSIGN   1245>>ASSIGN   1256<<ASSIGN   1260<<ASSIGN   1271>>ASSIGN
      1277<<ASSIGN   1281>>ASSIGN
ERR.SEV
      1153**DCL      1238>>IF       1240<<ASSIGN   1240>>ASSIGN   1268>>IF       1270<<ASSIGN   1270>>ASSIGN
MSGBLK
      1058**DCL      1233<>CALL     1242<>CALL     1282<>CALL     1287<>CALL
MSGBLK.CODECNT
      1127**DCL      1234<<ASSIGN
MSGBLK.ERRINFO.ERR
      1136**DCL      1241<<ASSIGN   1281<<ASSIGN   1286<<ASSIGN
MSGBLK.FLAGS.FOUND
      1114**DCL      1243>>IF       1283>>IF
QQC$BLDMSG
      1031**DCL-ENT  1242--CALL     1282--CALL     1287--CALL
QQC$BLDMSG_BLK
      1030**DCL-ENT  1233--CALL
QQ_CMDBLK.FLAGS.ERR
       769**DCL      1246<<ASSIGN   1264<<ASSIGN   1272<<ASSIGN   1285<<ASSIGN
QQ_CMDBLK.MAJOR_ERR
       767**DCL      1254>>IF       1260>>ASSIGN   1271<<ASSIGN   1276<<ASSIGN   1283>>IF
QQ_CMDBLK.MAJOR_ERR_USED
       768**DCL      1261>>IF       1263<<ASSIGN
QQ_CMDBLK.MINOR_ERR
       768**DCL      1235>>IF       1237>>ASSIGN   1245<<ASSIGN   1250<<ASSIGN
QQ_GLOBAL.DS1$_BITS
       779**DCL       779--REDEF
QQ_GLOBAL.DS2$_BITS
PL6.E3A0      #001=QQB$QUEST File=QQB$QUEST.:E05TSI                              WED 07/30/97 05:35 Page:22
       779**DCL       780--REDEF
QQ_GLOBAL.DS3$_BITS
       780**DCL       780--REDEF
QQ_GLOBAL.DS4$_BITS
       780**DCL       781--REDEF
RET
      1289**LABEL    1247--GOTO
