VERSION E05

PL6.E3A0      #001=QQB$READ File=QQB$READ.:E05TSI                                WED 07/30/97 05:35 Page:1
        1        1        /*M* QQB$READ - Perform  READ command */
        2        2        /*T***********************************************************/
        3        3        /*T*                                                         */
        4        4        /*T* Copyright (c) Bull HN Information Systems Inc., 1997    */
        5        5        /*T*                                                         */
        6        6        /*T***********************************************************/
        7        7        /*X* IND=2, DCI=4, CSU=2, ECU=4, DTI=2, CTI=4, AND */
        8        8        QQB$READ:
        9        9                PROC;
       10       10
       11       11        %INCLUDE Q_PAGE_C;
       12       43        %SET LISTEXP = '1'B;
       13       44        %PAGE(ARG="Includes");

                61        /***************************************************************************
                62         *                                                                         *
                63         *                                  Includes                               *
                64         *                                                                         *
                65         ***************************************************************************/

       14       69        %INCLUDE CP_6;
       15      150        %INCLUDE CP_6_SUBS;
       16      690        %INCLUDE B_ERRORS_C;
       17     1817        %INCLUDE XU_MACRO_C;
       18     4923        %INCLUDE QQ_MACROS_C;
       19     5348        %INCLUDE QQ_DATA_R;
       20     5594        %INCLUDE QQ_PERR_C;
       21     5755        %INCLUDE Q_ERRCODE_C;
       22     5778        %PAGE(ARG="Externally defined routines");

              5795    1   /***************************************************************************
              5796    1    *                                                                         *
              5797    1    *                        Externally defined routines                      *
              5798    1    *                                                                         *
              5799    1    ***************************************************************************/

       23     5803    1   DCL QQA$CMD ENTRY;
PL6.E3A0      #001=QQB$READ File=QQB$READ.:E05TSI                                WED 07/30/97 05:35 Page:2
       24     5804    1   DCL QQC$BLDMSG_BLK ENTRY(1);
       25     5805    1   DCL QQC$SNDMSG ENTRY(1);
       26     5806    1   DCL QQC$BLDMSG ENTRY(1);
       27     5807    1   DCL QQC$SCREECH ENTRY;
       28     5808        %PAGE(ARG="Symrefs");

              5825    1   /***************************************************************************
              5826    1    *                                                                         *
              5827    1    *                                  Symrefs                                *
              5828    1    *                                                                         *
              5829    1    ***************************************************************************/

       29     5833    1   DCL B$TCB$ PTR SYMREF;
       30     5834        %PAGE(ARG="DCBs");

              5851    1   /***************************************************************************
              5852    1    *                                                                         *
              5853    1    *                                    DCBs                                 *
              5854    1    *                                                                         *
              5855    1    ***************************************************************************/

       31     5859    1   DCL M$CG DCB;
       32     5860    1   DCL M$READ_CMD DCB;
       33     5861        %PAGE(ARG="Based");

              5878    1   /***************************************************************************
              5879    1    *                                                                         *
              5880    1    *                                   Based                                 *
              5881    1    *                                                                         *
              5882    1    ***************************************************************************/

       34     5886        %B$TCB;
       35     5889        %B$ALT;
       36     5897        %TP$STATION;
       37     5970        %F$DCB;
       38     6027        %PARSE$SYM(STCLASS=BASED);
       39     6065        %PARSE$OUT(STCLASS=BASED);
PL6.E3A0      #001=QQB$READ File=QQB$READ.:E05TSI                                WED 07/30/97 05:35 Page:3
       40     6110        %PAGE(ARG="Static");

              6127    1   /***************************************************************************
              6128    1    *                                                                         *
              6129    1    *                                   Static                                *
              6130    1    *                                                                         *
              6131    1    ***************************************************************************/

       41     6135    1   DCL FID CHAR(80) STATIC;
       42     6136    1   DCL CMD REDEF FID CHAR(80);
       43     6137        %PAGE(ARG="Auto");

              6154    1   /***************************************************************************
              6155    1    *                                                                         *
              6156    1    *                                    Auto                                 *
              6157    1    *                                                                         *
              6158    1    ***************************************************************************/

       44     6162    1   DCL M$READ_CMD$ PTR;
       45     6163
       46     6164        %MSGBLK;
       47     6254        %PAGE(ARG="Error codes", PAGE=YES);

PL6.E3A0      #001=QQB$READ File=QQB$READ.:E05TSI                                WED 07/30/97 05:35 Page:4
              6271    1   /***************************************************************************
              6272    1    *                                                                         *
              6273    1    *                                Error codes                              *
              6274    1    *                                                                         *
              6275    1    ***************************************************************************/

       48     6279        %ERRCODE(NAME=CODE_RIP, CODE#=%E$RIP, FCG#=%FCG_QQ, MID#=%MID_B);
       49     6286        %ERRCODE(NAME=CODE_BFFR, CODE#=%E$BFFR, FCG#=%FCG_QQ, MID#=%MID_B);
       50     6293        %ERRCODE(NAME=CODE_RFMBOD, CODE#=%E$RFMBOD, FCG#=%FCG_QQ, MID#=%MID_B);
       51     6300        /*E*       ERROR: QQB-E$RIP-C
       52     6301
       53     6302                 MESSAGE: A READ command must not appear in a file that
       54     6303                          is the subject of a READ command.
       55     6304             DESCRIPTION: A READ command was found in a file of commands
       56     6305                          being read.  Nesting of reads is not permitted.
       57     6306        */
       58     6307        /*E*       ERROR: QQB-E$BFFR-C
       59     6308
       60     6309                 MESSAGE: Invalid FID in this READ command
       61     6310             DESCRIPTION: An invalid Fid was specified on a READ command
       62     6311        */
       63     6312        /*E*       ERROR: QQB-E$RFMBOD-C
       64     6313
       65     6314                 MESSAGE: The file to be read by a READ must be on disk.
       66     6315             DESCRIPTION: The Fid that was specified on a READ
       67     6316                          command did not reside on disk
       68     6317        */
       69     6318        %PAGE(ARG="FPTs", PAGE=YES);

PL6.E3A0      #001=QQB$READ File=QQB$READ.:E05TSI                                WED 07/30/97 05:35 Page:5
              6335    1   /***************************************************************************
              6336    1    *                                                                         *
              6337    1    *                                    FPTs                                 *
              6338    1    *                                                                         *
              6339    1    ***************************************************************************/

       70     6343        %FPT_OPEN(FPTN=FPT_OPEN, DCB=M$READ_CMD, ACCT=VLP_ACCT,
       71     6344        SCRUB=YES, ACS=DIRECT, EXIST=OLDFILE, FUN=IN,
       72     6345        NAME=VLP_NAME, ORG=KEYED, PASS=VLP_PASS, SHARE=ALL, ASN=FILE);
       73     6454
       74     6455        %FPT_FID(NAME=VLP_NAME, PASS=VLP_PASS, RESULTS=VLR_FID,
       75     6456        ACCT=VLP_ACCT, ASN="FPT_OPEN.V.ASN#", SN=VLP_SN,
       76     6457        RES="FPT_OPEN.V.RES#", WSN=VLP_WSN, TEXTFID=FID);
       77     6480
       78     6481        %FPT_CLOSE(FPTN=FPT_CLOSE, DCB=M$READ_CMD, DISP=SAVE);
       79     6523
       80     6524        %FPT_READ(DCB=M$READ_CMD, BUF=CMD);
       81     6563        %PAGE(ARG="VLPs");

              6580    1   /***************************************************************************
              6581    1    *                                                                         *
              6582    1    *                                    VLPs                                 *
              6583    1    *                                                                         *
              6584    1    ***************************************************************************/

       82     6588        %VLP_ACCT;
       83     6601        %VLP_NAME;
       84     6628        %VLP_PASS;
       85     6641        %VLP_SN;
       86     6654        %VLP_WSN;
       87     6667        %PAGE(ARG="VLRs");

              6684    1   /***************************************************************************
              6685    1    *                                                                         *
              6686    1    *                                    VLRs                                 *
              6687    1    *                                                                         *
              6688    1    ***************************************************************************/
PL6.E3A0      #001=QQB$READ File=QQB$READ.:E05TSI                                WED 07/30/97 05:35 Page:6

       88     6692        %VLR_FID;
       89     6711        %PAGE(ARG="QQB$READ", PAGE=YES);

PL6.E3A0      #001=QQB$READ File=QQB$READ.:E05TSI                                WED 07/30/97 05:35 Page:7
              6728    1   /***************************************************************************
              6729    1    *                                                                         *
              6730    1    *                                  QQB$READ                               *
              6731    1    *                                                                         *
              6732    1    ***************************************************************************/

       90     6736    1           M$READ_CMD$ = ADDR(NIL);
       91     6737
       92     6738    1           IF QQ_CMDBLK.S$ -> TP$STATION.FLAGS.READ THEN
       93     6739    2             DO;
       94     6740    2               QQ_CMDBLK.MINOR_ERR = CODE_RIP;
       95     6741    2               GOTO PRINT_ERR;
       96     6742    2             END;
       97     6743
       98     6744    1           FID = QQ_CMDBLK.OUT$ -> OUT$BLK.SUBLK$(0) -> OUT$SYM.TEXT;
       99     6745
      100     6746    1           CALL M$FID(FPT_FID) ALTRET(FID_ERR);
      101     6747
      102     6748    2           DO WHILE('0'B);
      103     6749
      104     6750    2   FID_ERR:
      105     6751    2             QQ_CMDBLK.MINOR_ERR = CODE_BFFR;
      106     6752    2             GOTO PRINT_ERR;
      107     6753    2           END /* NEVER */;
      108     6754
      109     6755    1           IF FPT_OPEN.V.ASN# ~= 1 /* FILE# */ THEN
      110     6756    2             DO;
      111     6757    2               QQ_CMDBLK.MINOR_ERR = CODE_RFMBOD;
      112     6758    2               GOTO PRINT_ERR;
      113     6759    2             END;
      114     6760
      115     6761    1           CALL M$OPEN(FPT_OPEN) ALTRET(OPEN_ERR);
      116     6762    1           QQ_CMDBLK.S$ -> TP$STATION.FLAGS.READ = '1'B;
      117     6763    1           M$READ_CMD$ = DCBADDR(DCBNUM(M$READ_CMD));
      118     6764
      119     6765    2           DO WHILE('0'B);
      120     6766
PL6.E3A0      #001=QQB$READ File=QQB$READ.:E05TSI                                WED 07/30/97 05:35 Page:8
      121     6767    2   OPEN_ERR:
      122     6768    2             CALL QQC$BLDMSG_BLK(MSGBLK);
      123     6769    2             MSGBLK.ERRINFO.ERR(0) = B$TCB$ -> B$TCB.ALT$ -> B$ALT.ERR;
      124     6770    2             MSGBLK.ERRINFO.DCB#(0) =  B$TCB$ -> B$TCB.ALT$ -> B$ALT.DCB#;
      125     6771    2             CALL QQC$BLDMSG(MSGBLK);
      126     6772    2             GOTO RET;
      127     6773    2           END /* NEVER */;
      128     6774
      129     6775    2           DO WHILE('1'B);
      130     6776    2             CALL M$READ(FPT_READ) ALTRET(READ_ERR);
      131     6777
      132     6778    3             DO WHILE('0'B);
      133     6779
      134     6780    3   READ_ERR:
      135     6781    3               IF B$TCB$ -> B$TCB.ALT$ -> B$ALT.ERR.CODE = 6 /* E$EOF */ THEN
      136     6782    4                 DO;
      137     6783    4                   GOTO RET;
      138     6784    4                 END;
      139     6785
      140     6786    3               QQ_CMDBLK.MINOR_ERR = B$TCB$ -> B$TCB.ALT$ -> B$ALT.ERR;
      141     6787    3               GOTO PRINT_ERR;
      142     6788    3             END /* NEVER */;
      143     6789
      144     6790    2             CALL QQC$BLDMSG_BLK(MSGBLK);
      145     6791    2             MSGBLK.TEXT$ = ADDR(CMD);
      146     6792    2             MSGBLK.ARS = M$READ_CMD$ -> F$DCB.ARS#;
      147     6793    2             CALL QQC$SNDMSG(MSGBLK);
      148     6794
      149     6795    2             QQ_CMDBLK.TEXT$ = ADDR(CMD);
      150     6796    2             QQ_CMDBLK.ARS = M$READ_CMD$ -> F$DCB.ARS#;
      151     6797    2             CALL QQA$CMD;
      152     6798
      153     6799    2           END /* WHILE */;
      154     6800
      155     6801    1   PRINT_ERR:
      156     6802    1           CALL QQC$BLDMSG_BLK(MSGBLK);
      157     6803    1           CALL QQC$BLDMSG(MSGBLK);
PL6.E3A0      #001=QQB$READ File=QQB$READ.:E05TSI                                WED 07/30/97 05:35 Page:9
      158     6804
      159     6805    1   RET:
      160     6806    1           IF M$READ_CMD$ ~= ADDR(NIL) THEN
      161     6807    2             DO;
      162     6808    2               CALL M$CLOSE(FPT_CLOSE) ALTRET(MON_ERR);
      163     6809    2               QQ_CMDBLK.S$ -> TP$STATION.FLAGS.READ = '0'B;
      164     6810    2             END;
      165     6811
      166     6812    1           RETURN;
      167     6813
      168     6814    1   MON_ERR:
      169     6815    1           QQ_GLOBAL.ERR = B$TCB$ -> B$TCB.ALT$ -> B$ALT.ERR;
      170     6816    1           CALL QQC$SCREECH;
      171     6817
      172     6818    1   END QQB$READ;

PL6.E3A0      #001=QQB$READ File=QQB$READ.:E05TSI                                WED 07/30/97 05:35 Page:10
--  Include file information  --

   Q_ERRCODE_C.:E05TOU  is referenced.
   QQ_PERR_C.:E05TOU  is referenced.
   QQ_DATA_R.:E05TOU  cannot be made into a system file and is referenced.
   QQ_MACROS_C.:E05TOU  is referenced.
   XU_MACRO_C.:E05TOU  is referenced.
   B_ERRORS_C.:E05TOU  is referenced.
   CP_6_SUBS.:E05TOU  is referenced.
   CP_6.:E05TOU  cannot be made into a system file and is referenced.
   Q_PAGE_C.:E05TOU  is referenced.
   B$JIT_C.:E05TOU  was found in the system file and is never referenced.
   CP_6_C.:E05TOU  was found in the system file and is referenced.
      No diagnostics issued in procedure QQB$READ.

   Procedure QQB$READ requires 140 words for executable code.
   Procedure QQB$READ requires 28 words of local(AUTO) storage.

    No errors detected in file QQB$READ.:E05TSI    .

PL6.E3A0      #001=QQB$READ File=QQB$READ.:E05TSI                                WED 07/30/97 05:35 Page:11

 Object Unit name= QQB$READ                                   File name= QQB$READ.:E05TOU
 UTS= JUL 30 '97 05:35:20.52 WED                              Compiler= PL-6/E31         Sev=      00
 SharedLib= :SHARED_SYSTEM                                    Alt SharedLib=


    ****  Control sections  ****

 Sect   Type Bound  Init  Size OctSiz  Section name(segment info)
    0   DCB   even  none     0      0  M$UC
    1   DCB   even  none     0      0  M$CG
    2   DCB   even  none     0      0  M$READ_CMD
    3   Data  even  none   174    256  QQB$READ
    4  RoData even  UTS      3      3  QQB$READ
    5   Proc  even  none   140    214  QQB$READ
    6  RoData even  none     3      3  QQB$READ

    ****  Entry defs  ****

                              Check   Calling
                             calling  sequence
  Sect OctLoc Primary Altret sequence   type   Parms  Name
     5      0   yes            yes      Std        0  QQB$READ

  ****  Entry refs  ****

         Check        Calling
        calling       sequence
Altret sequence SRef   type   Args  Name
         yes           Std       1 QQC$BLDMSG_BLK
         yes           Std       1 QQC$BLDMSG
         yes           Std       1 QQC$SNDMSG
         yes           Std       0 QQC$SCREECH
         yes           Std       0 QQA$CMD
                       nStd      0 X66_AUTO_0
                       Std       0 B_CONSPOOL_D
                       nStd      0 X66_ARET
PL6.E3A0      #001=QQB$READ File=QQB$READ.:E05TSI                                WED 07/30/97 05:35 Page:12

  ****  Data refs  ****

  Flags:  r = read only, s = secondary
Flgs Name                             Flgs Name                             Flgs Name
     M$UC                                  QQ_CMDBLK                             QQ_GLOBAL
     B$TCB$                                M$CG                                  M$READ_CMD
     B_VECTNIL

  ****  Segment refs  ****

  Flags:  r = read only, s = secondary
Flgs Name                             Flgs Name                             Flgs Name
     ISSID                                 NULLSID                               ROSID
PL6.E3A0      #001=QQB$READ File=QQB$READ.:E05TSI                                WED 07/30/97 05:35 Page:13


        1        1        /*M* QQB$READ - Perform  READ command */
        2        2        /*T***********************************************************/
        3        3        /*T*                                                         */
        4        4        /*T* Copyright (c) Bull HN Information Systems Inc., 1997    */
        5        5        /*T*                                                         */
        6        6        /*T***********************************************************/
        7        7        /*X* IND=2, DCI=4, CSU=2, ECU=4, DTI=2, CTI=4, AND */
        8        8        QQB$READ:
        9        9                PROC;

      9  5 000000   000000 700200 xent  QQB$READ     TSX0  ! X66_AUTO_0
         5 000001   000034 000000                    ZERO    28,0

       10       10
       11       11        %INCLUDE Q_PAGE_C;
       12       43        %SET LISTEXP = '1'B;
       13       44        %PAGE(ARG="Includes");

                61        /***************************************************************************
                62         *                                                                         *
                63         *                                  Includes                               *
                64         *                                                                         *
                65         ***************************************************************************/

       14       69        %INCLUDE CP_6;
       15      150        %INCLUDE CP_6_SUBS;
       16      690        %INCLUDE B_ERRORS_C;
       17     1817        %INCLUDE XU_MACRO_C;
       18     4923        %INCLUDE QQ_MACROS_C;
       19     5348        %INCLUDE QQ_DATA_R;
       20     5594        %INCLUDE QQ_PERR_C;
       21     5755        %INCLUDE Q_ERRCODE_C;
       22     5778        %PAGE(ARG="Externally defined routines");

              5795    1   /***************************************************************************
              5796    1    *                                                                         *
PL6.E3A0      #001=QQB$READ File=QQB$READ.:E05TSI                                WED 07/30/97 05:35 Page:14
              5797    1    *                        Externally defined routines                      *
              5798    1    *                                                                         *
              5799    1    ***************************************************************************/

       23     5803    1   DCL QQA$CMD ENTRY;
       24     5804    1   DCL QQC$BLDMSG_BLK ENTRY(1);
       25     5805    1   DCL QQC$SNDMSG ENTRY(1);
       26     5806    1   DCL QQC$BLDMSG ENTRY(1);
       27     5807    1   DCL QQC$SCREECH ENTRY;
       28     5808        %PAGE(ARG="Symrefs");

              5825    1   /***************************************************************************
              5826    1    *                                                                         *
              5827    1    *                                  Symrefs                                *
              5828    1    *                                                                         *
              5829    1    ***************************************************************************/

       29     5833    1   DCL B$TCB$ PTR SYMREF;
       30     5834        %PAGE(ARG="DCBs");

              5851    1   /***************************************************************************
              5852    1    *                                                                         *
              5853    1    *                                    DCBs                                 *
              5854    1    *                                                                         *
              5855    1    ***************************************************************************/

       31     5859    1   DCL M$CG DCB;
       32     5860    1   DCL M$READ_CMD DCB;
       33     5861        %PAGE(ARG="Based");

              5878    1   /***************************************************************************
              5879    1    *                                                                         *
              5880    1    *                                   Based                                 *
              5881    1    *                                                                         *
              5882    1    ***************************************************************************/

       34     5886        %B$TCB;
PL6.E3A0      #001=QQB$READ File=QQB$READ.:E05TSI                                WED 07/30/97 05:35 Page:15
       35     5889        %B$ALT;
       36     5897        %TP$STATION;
       37     5970        %F$DCB;
       38     6027        %PARSE$SYM(STCLASS=BASED);
       39     6065        %PARSE$OUT(STCLASS=BASED);
       40     6110        %PAGE(ARG="Static");

              6127    1   /***************************************************************************
              6128    1    *                                                                         *
              6129    1    *                                   Static                                *
              6130    1    *                                                                         *
              6131    1    ***************************************************************************/

       41     6135    1   DCL FID CHAR(80) STATIC;
       42     6136    1   DCL CMD REDEF FID CHAR(80);
       43     6137        %PAGE(ARG="Auto");

              6154    1   /***************************************************************************
              6155    1    *                                                                         *
              6156    1    *                                    Auto                                 *
              6157    1    *                                                                         *
              6158    1    ***************************************************************************/

       44     6162    1   DCL M$READ_CMD$ PTR;
       45     6163
       46     6164        %MSGBLK;
       47     6254        %PAGE(ARG="Error codes", PAGE=YES);

PL6.E3A0      #001=QQB$READ File=QQB$READ.:E05TSI                                WED 07/30/97 05:35 Page:16
              6271    1   /***************************************************************************
              6272    1    *                                                                         *
              6273    1    *                                Error codes                              *
              6274    1    *                                                                         *
              6275    1    ***************************************************************************/

       48     6279        %ERRCODE(NAME=CODE_RIP, CODE#=%E$RIP, FCG#=%FCG_QQ, MID#=%MID_B);
       49     6286        %ERRCODE(NAME=CODE_BFFR, CODE#=%E$BFFR, FCG#=%FCG_QQ, MID#=%MID_B);
       50     6293        %ERRCODE(NAME=CODE_RFMBOD, CODE#=%E$RFMBOD, FCG#=%FCG_QQ, MID#=%MID_B);
       51     6300        /*E*       ERROR: QQB-E$RIP-C
       52     6301
       53     6302                 MESSAGE: A READ command must not appear in a file that
       54     6303                          is the subject of a READ command.
       55     6304             DESCRIPTION: A READ command was found in a file of commands
       56     6305                          being read.  Nesting of reads is not permitted.
       57     6306        */
       58     6307        /*E*       ERROR: QQB-E$BFFR-C
       59     6308
       60     6309                 MESSAGE: Invalid FID in this READ command
       61     6310             DESCRIPTION: An invalid Fid was specified on a READ command
       62     6311        */
       63     6312        /*E*       ERROR: QQB-E$RFMBOD-C
       64     6313
       65     6314                 MESSAGE: The file to be read by a READ must be on disk.
       66     6315             DESCRIPTION: The Fid that was specified on a READ
       67     6316                          command did not reside on disk
       68     6317        */
       69     6318        %PAGE(ARG="FPTs", PAGE=YES);

PL6.E3A0      #001=QQB$READ File=QQB$READ.:E05TSI                                WED 07/30/97 05:35 Page:17
              6335    1   /***************************************************************************
              6336    1    *                                                                         *
              6337    1    *                                    FPTs                                 *
              6338    1    *                                                                         *
              6339    1    ***************************************************************************/

       70     6343        %FPT_OPEN(FPTN=FPT_OPEN, DCB=M$READ_CMD, ACCT=VLP_ACCT,
       71     6344        SCRUB=YES, ACS=DIRECT, EXIST=OLDFILE, FUN=IN,
       72     6345        NAME=VLP_NAME, ORG=KEYED, PASS=VLP_PASS, SHARE=ALL, ASN=FILE);
       73     6454
       74     6455        %FPT_FID(NAME=VLP_NAME, PASS=VLP_PASS, RESULTS=VLR_FID,
       75     6456        ACCT=VLP_ACCT, ASN="FPT_OPEN.V.ASN#", SN=VLP_SN,
       76     6457        RES="FPT_OPEN.V.RES#", WSN=VLP_WSN, TEXTFID=FID);
       77     6480
       78     6481        %FPT_CLOSE(FPTN=FPT_CLOSE, DCB=M$READ_CMD, DISP=SAVE);
       79     6523
       80     6524        %FPT_READ(DCB=M$READ_CMD, BUF=CMD);
       81     6563        %PAGE(ARG="VLPs");

              6580    1   /***************************************************************************
              6581    1    *                                                                         *
              6582    1    *                                    VLPs                                 *
              6583    1    *                                                                         *
              6584    1    ***************************************************************************/

       82     6588        %VLP_ACCT;
       83     6601        %VLP_NAME;
       84     6628        %VLP_PASS;
       85     6641        %VLP_SN;
       86     6654        %VLP_WSN;
       87     6667        %PAGE(ARG="VLRs");

              6684    1   /***************************************************************************
              6685    1    *                                                                         *
              6686    1    *                                    VLRs                                 *
              6687    1    *                                                                         *
              6688    1    ***************************************************************************/
PL6.E3A0      #001=QQB$READ File=QQB$READ.:E05TSI                                WED 07/30/97 05:35 Page:18

       88     6692        %VLR_FID;
       89     6711        %PAGE(ARG="QQB$READ", PAGE=YES);

PL6.E3A0      #001=QQB$READ File=QQB$READ.:E05TSI                                WED 07/30/97 05:35 Page:19
              6728    1   /***************************************************************************
              6729    1    *                                                                         *
              6730    1    *                                  QQB$READ                               *
              6731    1    *                                                                         *
              6732    1    ***************************************************************************/

       90     6736    1           M$READ_CMD$ = ADDR(NIL);

   6736  5 000002   000001 236000 xsym               LDQ     B_VECTNIL+1
         5 000003   200004 756100                    STQ     M$READ_CMD$,,AUTO

       91     6737
       92     6738    1           IF QQ_CMDBLK.S$ -> TP$STATION.FLAGS.READ THEN

   6738  5 000004   000004 470400 xsym               LDP0    QQ_CMDBLK+4
         5 000005   000022 236100                    LDQ     18,,PR0
         5 000006   002000 316003                    CANQ    1024,DU
         5 000007   000013 600000 5                  TZE     s:6744

       93     6739    2             DO;

       94     6740    2               QQ_CMDBLK.MINOR_ERR = CODE_RIP;

   6740  5 000010   000000 236000 4                  LDQ     CODE_RIP
         5 000011   000001 756000 xsym               STQ     QQ_CMDBLK+1

       95     6741    2               GOTO PRINT_ERR;

   6741  5 000012   000155 710000 5                  TRA     PRINT_ERR

       96     6742    2             END;
       97     6743
       98     6744    1           FID = QQ_CMDBLK.OUT$ -> OUT$BLK.SUBLK$(0) -> OUT$SYM.TEXT;

   6744  5 000013   000005 471400 xsym               LDP1    QQ_CMDBLK+5
         5 000014   100003 473500                    LDP3    3,,PR1
         5 000015   300004 236100                    LDQ     4,,PR3
PL6.E3A0      #001=QQB$READ File=QQB$READ.:E05TSI                                WED 07/30/97 05:35 Page:20
         5 000016   000033 772000                    QRL     27
         5 000017   000000 620006                    EAX0    0,QL
         5 000020   040000 100540                    MLR     fill='040'O
         5 000021   300004 200010                    ADSC9   4,,PR3                   cn=1,n=*X0
         5 000022   000000 000120 3                  ADSC9   FID                      cn=0,n=80

       99     6745
      100     6746    1           CALL M$FID(FPT_FID) ALTRET(FID_ERR);

   6746  5 000023   000116 630400 3                  EPPR0   FPT_FID
         5 000024   420001 713400                    CLIMB   alt,+8193
         5 000025   404400 401760                    pmme    nvectors=10
         5 000026   000030 702000 5                  TSX2    FID_ERR

      101     6747
      102     6748    2           DO WHILE('0'B);

   6748  5 000027   000033 710000 5                  TRA     s:6755

      103     6749
      104     6750    2   FID_ERR:
      105     6751    2             QQ_CMDBLK.MINOR_ERR = CODE_BFFR;

   6751  5 000030   000001 236000 4     FID_ERR      LDQ     CODE_BFFR
         5 000031   000001 756000 xsym               STQ     QQ_CMDBLK+1

      106     6752    2             GOTO PRINT_ERR;

   6752  5 000032   000155 710000 5                  TRA     PRINT_ERR

      107     6753    2           END /* NEVER */;

      108     6754
      109     6755    1           IF FPT_OPEN.V.ASN# ~= 1 /* FILE# */ THEN

   6755  5 000033   000071 236000 3                  LDQ     FPT_OPEN+37
         5 000034   000777 376007                    ANQ     511,DL
PL6.E3A0      #001=QQB$READ File=QQB$READ.:E05TSI                                WED 07/30/97 05:35 Page:21
         5 000035   000001 116007                    CMPQ    1,DL
         5 000036   000042 600000 5                  TZE     s:6761

      110     6756    2             DO;

      111     6757    2               QQ_CMDBLK.MINOR_ERR = CODE_RFMBOD;

   6757  5 000037   000002 236000 4                  LDQ     CODE_RFMBOD
         5 000040   000001 756000 xsym               STQ     QQ_CMDBLK+1

      112     6758    2               GOTO PRINT_ERR;

   6758  5 000041   000155 710000 5                  TRA     PRINT_ERR

      113     6759    2             END;
      114     6760
      115     6761    1           CALL M$OPEN(FPT_OPEN) ALTRET(OPEN_ERR);

   6761  5 000042   000024 630400 3                  EPPR0   FPT_OPEN
         5 000043   450000 713400                    CLIMB   alt,open
         5 000044   410400 401760                    pmme    nvectors=18
         5 000045   000057 702000 5                  TSX2    OPEN_ERR

      116     6762    1           QQ_CMDBLK.S$ -> TP$STATION.FLAGS.READ = '1'B;

   6762  5 000046   000004 470400 xsym               LDP0    QQ_CMDBLK+4
         5 000047   002000 236003                    LDQ     1024,DU
         5 000050   000022 256100                    ORSQ    18,,PR0

      117     6763    1           M$READ_CMD$ = DCBADDR(DCBNUM(M$READ_CMD));

   6763  5 000051   000000 236007 xsym               LDQ     M$READ_CMD,DL
         5 000052   000000 471400 6                  LDP1    0
         5 000053   100000 473500                    LDP3    0,,PR1
         5 000054   300000 236106                    LDQ     0,QL,PR3
         5 000055   200004 756100                    STQ     M$READ_CMD$,,AUTO

PL6.E3A0      #001=QQB$READ File=QQB$READ.:E05TSI                                WED 07/30/97 05:35 Page:22
      118     6764
      119     6765    2           DO WHILE('0'B);

   6765  5 000056   000104 710000 5                  TRA     s:6776

      120     6766
      121     6767    2   OPEN_ERR:
      122     6768    2             CALL QQC$BLDMSG_BLK(MSGBLK);

   6768  5 000057   200005 630500       OPEN_ERR     EPPR0   MSGBLK,,AUTO
         5 000060   200032 450500                    STP0    MSGBLK+21,,AUTO
         5 000061   200032 630500                    EPPR0   MSGBLK+21,,AUTO
         5 000062   000017 631400 xsym               EPPR1   B_VECTNIL+15
         5 000063   000000 701000 xent               TSX1    QQC$BLDMSG_BLK
         5 000064   000000 011000                    NOP     0

      123     6769    2             MSGBLK.ERRINFO.ERR(0) = B$TCB$ -> B$TCB.ALT$ -> B$ALT.ERR;

   6769  5 000065   000000 470400 xsym               LDP0    B$TCB$
         5 000066   000000 471500                    LDP1    0,,PR0
         5 000067   100102 236100                    LDQ     66,,PR1
         5 000070   200013 756100                    STQ     MSGBLK+6,,AUTO

      124     6770    2             MSGBLK.ERRINFO.DCB#(0) =  B$TCB$ -> B$TCB.ALT$ -> B$ALT.DCB#;

   6770  5 000071   000000 471500                    LDP1    0,,PR0
         5 000072   100101 236100                    LDQ     65,,PR1
         5 000073   000033 736000                    QLS     27
         5 000074   200014 552140                    STBQ    MSGBLK+7,'40'O,AUTO

      125     6771    2             CALL QQC$BLDMSG(MSGBLK);

   6771  5 000075   200005 631500                    EPPR1   MSGBLK,,AUTO
         5 000076   200032 451500                    STP1    MSGBLK+21,,AUTO
         5 000077   200032 630500                    EPPR0   MSGBLK+21,,AUTO
         5 000100   000017 631400 xsym               EPPR1   B_VECTNIL+15
         5 000101   000000 701000 xent               TSX1    QQC$BLDMSG
PL6.E3A0      #001=QQB$READ File=QQB$READ.:E05TSI                                WED 07/30/97 05:35 Page:23
         5 000102   000000 011000                    NOP     0

      126     6772    2             GOTO RET;

   6772  5 000103   000171 710000 5                  TRA     RET

      127     6773    2           END /* NEVER */;

      128     6774
      129     6775    2           DO WHILE('1'B);

      130     6776    2             CALL M$READ(FPT_READ) ALTRET(READ_ERR);

   6776  5 000104   000204 630400 3                  EPPR0   FPT_READ
         5 000105   440000 713400                    CLIMB   alt,read
         5 000106   401400 401760                    pmme    nvectors=4
         5 000107   000111 702000 5                  TSX2    READ_ERR

      131     6777
      132     6778    3             DO WHILE('0'B);

   6778  5 000110   000123 710000 5                  TRA     s:6790

      133     6779
      134     6780    3   READ_ERR:
      135     6781    3               IF B$TCB$ -> B$TCB.ALT$ -> B$ALT.ERR.CODE = 6 /* E$EOF */ THEN

   6781  5 000111   000000 470400 xsym  READ_ERR     LDP0    B$TCB$
         5 000112   000000 471500                    LDP1    0,,PR0
         5 000113   100102 236100                    LDQ     66,,PR1
         5 000114   377770 376007                    ANQ     131064,DL
         5 000115   000060 116007                    CMPQ    48,DL
         5 000116   000120 601000 5                  TNZ     s:6786

      136     6782    4                 DO;

      137     6783    4                   GOTO RET;
PL6.E3A0      #001=QQB$READ File=QQB$READ.:E05TSI                                WED 07/30/97 05:35 Page:24

   6783  5 000117   000171 710000 5                  TRA     RET

      138     6784    4                 END;
      139     6785
      140     6786    3               QQ_CMDBLK.MINOR_ERR = B$TCB$ -> B$TCB.ALT$ -> B$ALT.ERR;

   6786  5 000120   100102 236100                    LDQ     66,,PR1
         5 000121   000001 756000 xsym               STQ     QQ_CMDBLK+1

      141     6787    3               GOTO PRINT_ERR;

   6787  5 000122   000155 710000 5                  TRA     PRINT_ERR

      142     6788    3             END /* NEVER */;

      143     6789
      144     6790    2             CALL QQC$BLDMSG_BLK(MSGBLK);

   6790  5 000123   200005 630500                    EPPR0   MSGBLK,,AUTO
         5 000124   200032 450500                    STP0    MSGBLK+21,,AUTO
         5 000125   200032 630500                    EPPR0   MSGBLK+21,,AUTO
         5 000126   000017 631400 xsym               EPPR1   B_VECTNIL+15
         5 000127   000000 701000 xent               TSX1    QQC$BLDMSG_BLK
         5 000130   000000 011000                    NOP     0

      145     6791    2             MSGBLK.TEXT$ = ADDR(CMD);

   6791  5 000131   000001 236000 6                  LDQ     1
         5 000132   200012 756100                    STQ     MSGBLK+5,,AUTO

      146     6792    2             MSGBLK.ARS = M$READ_CMD$ -> F$DCB.ARS#;

   6792  5 000133   200004 470500                    LDP0    M$READ_CMD$,,AUTO
         5 000134   000000 720100                    LXL0    0,,PR0
         5 000135   200010 740100                    STX0    MSGBLK+3,,AUTO

PL6.E3A0      #001=QQB$READ File=QQB$READ.:E05TSI                                WED 07/30/97 05:35 Page:25
      147     6793    2             CALL QQC$SNDMSG(MSGBLK);

   6793  5 000136   200005 631500                    EPPR1   MSGBLK,,AUTO
         5 000137   200032 451500                    STP1    MSGBLK+21,,AUTO
         5 000140   200032 630500                    EPPR0   MSGBLK+21,,AUTO
         5 000141   000017 631400 xsym               EPPR1   B_VECTNIL+15
         5 000142   000000 701000 xent               TSX1    QQC$SNDMSG
         5 000143   000000 011000                    NOP     0

      148     6794
      149     6795    2             QQ_CMDBLK.TEXT$ = ADDR(CMD);

   6795  5 000144   000001 236000 6                  LDQ     1
         5 000145   000003 756000 xsym               STQ     QQ_CMDBLK+3

      150     6796    2             QQ_CMDBLK.ARS = M$READ_CMD$ -> F$DCB.ARS#;

   6796  5 000146   200004 470500                    LDP0    M$READ_CMD$,,AUTO
         5 000147   000000 720100                    LXL0    0,,PR0
         5 000150   000007 440000 xsym               SXL0    QQ_CMDBLK+7

      151     6797    2             CALL QQA$CMD;

   6797  5 000151   000002 631400 xsym               EPPR1   B_VECTNIL+2
         5 000152   000000 701000 xent               TSX1    QQA$CMD
         5 000153   000000 011000                    NOP     0

      152     6798
      153     6799    2           END /* WHILE */;

   6799  5 000154   000104 710000 5                  TRA     s:6776

      154     6800
      155     6801    1   PRINT_ERR:
      156     6802    1           CALL QQC$BLDMSG_BLK(MSGBLK);

   6802  5 000155   200005 630500       PRINT_ERR    EPPR0   MSGBLK,,AUTO
PL6.E3A0      #001=QQB$READ File=QQB$READ.:E05TSI                                WED 07/30/97 05:35 Page:26
         5 000156   200032 450500                    STP0    MSGBLK+21,,AUTO
         5 000157   200032 630500                    EPPR0   MSGBLK+21,,AUTO
         5 000160   000017 631400 xsym               EPPR1   B_VECTNIL+15
         5 000161   000000 701000 xent               TSX1    QQC$BLDMSG_BLK
         5 000162   000000 011000                    NOP     0

      157     6803    1           CALL QQC$BLDMSG(MSGBLK);

   6803  5 000163   200005 630500                    EPPR0   MSGBLK,,AUTO
         5 000164   200032 450500                    STP0    MSGBLK+21,,AUTO
         5 000165   200032 630500                    EPPR0   MSGBLK+21,,AUTO
         5 000166   000017 631400 xsym               EPPR1   B_VECTNIL+15
         5 000167   000000 701000 xent               TSX1    QQC$BLDMSG
         5 000170   000000 011000                    NOP     0

      158     6804
      159     6805    1   RET:
      160     6806    1           IF M$READ_CMD$ ~= ADDR(NIL) THEN

   6806  5 000171   200004 236100       RET          LDQ     M$READ_CMD$,,AUTO
         5 000172   000001 116000 xsym               CMPQ    B_VECTNIL+1
         5 000173   000203 600000 5                  TZE     s:6812

      161     6807    2             DO;

      162     6808    2               CALL M$CLOSE(FPT_CLOSE) ALTRET(MON_ERR);

   6808  5 000174   000146 630400 3                  EPPR0   FPT_CLOSE
         5 000175   450001 713400                    CLIMB   alt,close
         5 000176   406000 401760                    pmme    nvectors=13
         5 000177   000204 702000 5                  TSX2    MON_ERR

      163     6809    2               QQ_CMDBLK.S$ -> TP$STATION.FLAGS.READ = '0'B;

   6809  5 000200   000004 470400 xsym               LDP0    QQ_CMDBLK+4
         5 000201   000002 236000 6                  LDQ     2
         5 000202   000022 356100                    ANSQ    18,,PR0
PL6.E3A0      #001=QQB$READ File=QQB$READ.:E05TSI                                WED 07/30/97 05:35 Page:27

      164     6810    2             END;

      165     6811
      166     6812    1           RETURN;

   6812  5 000203   000000 702200 xent               TSX2  ! X66_ARET

      167     6813
      168     6814    1   MON_ERR:
      169     6815    1           QQ_GLOBAL.ERR = B$TCB$ -> B$TCB.ALT$ -> B$ALT.ERR;

   6815  5 000204   000000 470400 xsym  MON_ERR      LDP0    B$TCB$
         5 000205   000000 471500                    LDP1    0,,PR0
         5 000206   100102 236100                    LDQ     66,,PR1
         5 000207   000000 756000 xsym               STQ     QQ_GLOBAL

      170     6816    1           CALL QQC$SCREECH;

   6816  5 000210   000002 631400 xsym               EPPR1   B_VECTNIL+2
         5 000211   000000 701000 xent               TSX1    QQC$SCREECH
         5 000212   000000 011000                    NOP     0

      171     6817
      172     6818    1   END QQB$READ;

   6818  5 000213   000000 702200 xent               TSX2  ! X66_ARET

PL6.E3A0      #001=QQB$READ File=QQB$READ.:E05TSI                                WED 07/30/97 05:35 Page:28
--  Include file information  --

   Q_ERRCODE_C.:E05TOU  is referenced.
   QQ_PERR_C.:E05TOU  is referenced.
   QQ_DATA_R.:E05TOU  cannot be made into a system file and is referenced.
   QQ_MACROS_C.:E05TOU  is referenced.
   XU_MACRO_C.:E05TOU  is referenced.
   B_ERRORS_C.:E05TOU  is referenced.
   CP_6_SUBS.:E05TOU  is referenced.
   CP_6.:E05TOU  cannot be made into a system file and is referenced.
   Q_PAGE_C.:E05TOU  is referenced.
   B$JIT_C.:E05TOU  was found in the system file and is never referenced.
   CP_6_C.:E05TOU  was found in the system file and is referenced.
      No diagnostics issued in procedure QQB$READ.
PL6.E3A0      #001=QQB$READ File=QQB$READ.:E05TSI                                WED 07/30/97 05:35 Page:29

 **** Variables and constants ****

  ****  Section 003  Data  QQB$READ

  ****  Scalars and arrays  ****
OctLoc.c.b A Datatyp(siz) R M Lvl/name                 OctLoc.c.b A Datatyp(siz) R M Lvl/name

     0-0-0/c CHAR(80)    r     1 CMD                        0-0-0/c CHAR(80)    r     1 FID
   146-0-0/d STRC(1080)  r     1 FPT_CLOSE                116-0-0/d STRC(864)   r     1 FPT_FID
    24-0-0/d STRC(2088)  r     1 FPT_OPEN                 204-0-0/d STRC(504)   r     1 FPT_READ
   222-0-0/c STRC(72)    r     1 VLP_ACCT                 224-0-0/c STRC(288)   r     1 VLP_NAME
   234-0-0/c STRC(72)    r     1 VLP_PASS                 236-0-0/d STRC(90)    r     1 VLP_SN
   242-0-0/c STRC(72)    r     1 VLP_WSN                  244-0-0/d STRC(324)   r     1 VLR_FID

  ****  Section 004 RoData QQB$READ

  ****  Scalars and arrays  ****
OctLoc.c.b A Datatyp(siz) R M Lvl/name                 OctLoc.c.b A Datatyp(siz) R M Lvl/name

     1-0-0/b STRC        r     1 CODE_BFFR                  2-0-0/b STRC        r     1 CODE_RFMBOD
     0-0-0/b STRC        r     1 CODE_RIP

  ****  Auto variables  ****

  ****  Scalars and arrays  ****
OctLoc.c.b A Datatyp(siz) R M Lvl/name                 OctLoc.c.b A Datatyp(siz) R M Lvl/name

     4-0-0/w PTR         r     1 M$READ_CMD$                5-0-0/w STRC(738)   r     1 MSGBLK
     3-0-0/w PTR         r     1 S$

  ****  SYMREF variables  ****

  ****  Scalars and arrays  ****
OctLoc.c.b A Datatyp(siz) R M Lvl/name                 OctLoc.c.b A Datatyp(siz) R M Lvl/name

     0-0-0/w PTR         r     1 B$TCB$                     0-0-0/w STRC(315)   r     1 QQ_CMDBLK
     0-0-0/d STRC(9090)  r     1 QQ_GLOBAL
PL6.E3A0      #001=QQB$READ File=QQB$READ.:E05TSI                                WED 07/30/97 05:35 Page:30

  ****  BASED and DCB variables  ****

  ****  Scalars and arrays  ****
OctLoc.c.b A Datatyp(siz) R M Lvl/name                 OctLoc.c.b A Datatyp(siz) R M Lvl/name

     0-0-0/w STRC(2448)  r     1 B$ALT                      0-0-0/w STRC(144)   r     1 B$TCB
     0-0-0/d ASTR(3528)  r     1 F$DCB                      0-0-0N  NULL        r     1 M$READ_CMD
     0-0-0/w STRC(144)   r     1 OUT$BLK                    0-0-0/w ASTR(153)   r     1 OUT$SYM
     0-0-0/w STRC(909)   r     1 TP$STATION


   Procedure QQB$READ requires 140 words for executable code.
   Procedure QQB$READ requires 28 words of local(AUTO) storage.

    No errors detected in file QQB$READ.:E05TSI    .
PL6.E3A0      #001=QQB$READ File=QQB$READ.:E05TSI                                WED 07/30/97 05:35 Page:31
          *** CROSS REFERENCE LISTING ***
**     DENOTES     IDENTIFIER DEFINITION
<<                 IDENTIFIER'S VALUE SET
>>                 IDENTIFIER'S VALUE USED
<>                 IDENTIFIER SET AND/OR USED
--                 IDENTIFIER REFERENCED
PL6.E3A0      #001=QQB$READ File=QQB$READ.:E05TSI                                WED 07/30/97 05:35 Page:32
          MINI XREF LISTING

B$ALT.CODE
      5891**DCL      5891--REDEF    5892--REDEF    5892--REDEF
B$ALT.DCB#
      5892**DCL      6770>>ASSIGN
B$ALT.ERR
      5892**DCL      6769>>ASSIGN   6786>>ASSIGN   6815>>ASSIGN
B$ALT.ERR.CODE
      5893**DCL      6781>>IF
B$ALT.ERR.ERR#
      5893**DCL      5893--REDEF
B$ALT.EVID
      5892**DCL      5892--REDEF    5892--REDEF
B$TCB.ALT$
      5887**DCL      6769>>ASSIGN   6770>>ASSIGN   6781>>IF       6786>>ASSIGN   6815>>ASSIGN
B$TCB$
      5833**DCL      6769>>ASSIGN   6770>>ASSIGN   6781>>IF       6786>>ASSIGN   6815>>ASSIGN
CMD
      6136**DCL      6543--DCLINIT  6544--DCLINIT  6791--ASSIGN   6795--ASSIGN
CODE_BFFR
      6287**DCL      6751>>ASSIGN
CODE_RFMBOD
      6294**DCL      6757>>ASSIGN
CODE_RIP
      6280**DCL      6740>>ASSIGN
F$DCB.ACTPOS
      6003**DCL      6003--REDEF
F$DCB.ARS#
      5977**DCL      5977--REDEF    6792>>ASSIGN   6796>>ASSIGN
F$DCB.ATTR
      5996**DCL      5997--REDEF
F$DCB.BORROW
      6011**DCL      6011--REDEF    6011--REDEF    6011--REDEF
PL6.E3A0      #001=QQB$READ File=QQB$READ.:E05TSI                                WED 07/30/97 05:35 Page:33
F$DCB.DCBNAME.L
      6025**DCL      6025--IMP-SIZ
F$DCB.EOMCHAR#
      5981**DCL      5981--REDEF
F$DCB.FLDID
      6006**DCL      6006--REDEF
F$DCB.FORM$
      6000**DCL      6000--REDEF
F$DCB.FSECT
      6016**DCL      6016--REDEF
F$DCB.FSN#
      5993**DCL      5993--REDEF    5993--REDEF    5994--REDEF
F$DCB.HEADER$
      5999**DCL      5999--REDEF
F$DCB.IXTNSIZE#
      5997**DCL      5997--REDEF
F$DCB.LASTSTA$
      5986**DCL      5986--REDEF
F$DCB.LVL
      6012**DCL      6012--REDEF
F$DCB.NAME#.C
      5987**DCL      5987--REDEF
F$DCB.NOEOF
      6009**DCL      6009--REDEF
F$DCB.NRECS#
      5998**DCL      5998--REDEF
F$DCB.NRECX
      6017**DCL      6017--REDEF
F$DCB.OHDR
      6009**DCL      6009--REDEF
F$DCB.ORG#
      5992**DCL      5992--REDEF
F$DCB.PRECNO
      6015**DCL      6015--REDEF
F$DCB.RCSZ
      6021**DCL      6021--REDEF
PL6.E3A0      #001=QQB$READ File=QQB$READ.:E05TSI                                WED 07/30/97 05:35 Page:34
F$DCB.RES#
      5988**DCL      5988--REDEF
F$DCB.SETX
      6000**DCL      6000--REDEF
F$DCB.TAB$
      6000**DCL      6000--REDEF
F$DCB.TDA
      6014**DCL      6015--REDEF
F$DCB.WSN#
      5988**DCL      5988--REDEF
FID
      6135**DCL      6136--REDEF    6468--DCLINIT  6744<<ASSIGN
FID_ERR
      6751**LABEL    6746--CALLALT
FPT_CLOSE
      6504**DCL      6808<>CALL
FPT_CLOSE.SN_
      6504**DCL      6504--REDEF
FPT_CLOSE.UTL_
      6505**DCL      6505--REDEF
FPT_CLOSE.V
      6509**DCL      6504--DCLINIT
FPT_CLOSE.V.EXPIRE#
      6519**DCL      6519--REDEF
FPT_CLOSE.V.TYPE#
      6517**DCL      6517--REDEF
FPT_CLOSE.V.XTNSIZE#
      6514**DCL      6514--REDEF    6516--REDEF
FPT_FID
      6468**DCL      6746<>CALL
FPT_FID.V
      6472**DCL      6468--DCLINIT
FPT_OPEN
      6410**DCL      6761<>CALL
FPT_OPEN.ACSVEH_
      6412**DCL      6413--REDEF
PL6.E3A0      #001=QQB$READ File=QQB$READ.:E05TSI                                WED 07/30/97 05:35 Page:35
FPT_OPEN.ALTKEYS_
      6418**DCL      6419--REDEF    6419--REDEF
FPT_OPEN.HDR_
      6417**DCL      6418--REDEF
FPT_OPEN.TAB_
      6416**DCL      6417--REDEF
FPT_OPEN.UHL_
      6410**DCL      6411--REDEF    6411--REDEF
FPT_OPEN.V
      6419**DCL      6410--DCLINIT
FPT_OPEN.V.ASN#
      6429**DCL      6471--DCLINIT  6755>>IF
FPT_OPEN.V.FSN#
      6450**DCL      6450--REDEF    6450--REDEF
FPT_OPEN.V.RES#
      6434**DCL      6471--DCLINIT
FPT_OPEN.WSN_
      6416**DCL      6416--REDEF
FPT_READ
      6541**DCL      6776<>CALL
FPT_READ.STATION_
      6544**DCL      6545--REDEF
FPT_READ.V
      6545**DCL      6541--DCLINIT
FPT_READ.V.DVBYTE.REREAD#
      6556**DCL      6556--REDEF
FPT_READ.V.INDX#
      6554**DCL      6554--REDEF
M$CLOSE
        78**DCL-ENT  6808--CALL
M$FID
       141**DCL-ENT  6746--CALL
M$OPEN
        78**DCL-ENT  6761--CALL
M$READ
        79**DCL-ENT  6776--CALL
PL6.E3A0      #001=QQB$READ File=QQB$READ.:E05TSI                                WED 07/30/97 05:35 Page:36
M$READ_CMD
      5860**DCL      6763--ASSIGN
M$READ_CMD$
      6162**DCL      6736<<ASSIGN   6763<<ASSIGN   6792>>ASSIGN   6796>>ASSIGN   6806>>IF
MON_ERR
      6815**LABEL    6808--CALLALT
MSGBLK
      6165**DCL      6768<>CALL     6771<>CALL     6790<>CALL     6793<>CALL     6802<>CALL     6803<>CALL
MSGBLK.ARS
      6232**DCL      6792<<ASSIGN
MSGBLK.ERRINFO.DCB#
      6245**DCL      6770<<ASSIGN
MSGBLK.ERRINFO.ERR
      6243**DCL      6769<<ASSIGN
MSGBLK.TEXT$
      6239**DCL      6791<<ASSIGN
OPEN_ERR
      6768**LABEL    6761--CALLALT
OUT$BLK.SUBLK$
      6104**DCL      6744>>ASSIGN   6744>>ASSIGN
OUT$SYM.COUNT
      6057**DCL      6060--IMP-SIZ  6744>>ASSIGN
OUT$SYM.TEXT
      6060**DCL      6744>>ASSIGN
PRINT_ERR
      6802**LABEL    6741--GOTO     6752--GOTO     6758--GOTO     6787--GOTO
QQA$CMD
      5803**DCL-ENT  6797--CALL
QQC$BLDMSG
      5806**DCL-ENT  6771--CALL     6803--CALL
QQC$BLDMSG_BLK
      5804**DCL-ENT  6768--CALL     6790--CALL     6802--CALL
QQC$SCREECH
      5807**DCL-ENT  6816--CALL
QQC$SNDMSG
      5805**DCL-ENT  6793--CALL
PL6.E3A0      #001=QQB$READ File=QQB$READ.:E05TSI                                WED 07/30/97 05:35 Page:37
QQ_CMDBLK.ARS
      5357**DCL      6796<<ASSIGN
QQ_CMDBLK.MINOR_ERR
      5357**DCL      6740<<ASSIGN   6751<<ASSIGN   6757<<ASSIGN   6786<<ASSIGN
QQ_CMDBLK.OUT$
      5357**DCL      6744>>ASSIGN   6744>>ASSIGN
QQ_CMDBLK.S$
      5357**DCL      6738>>IF       6762>>ASSIGN   6809>>ASSIGN
QQ_CMDBLK.TEXT$
      5357**DCL      6795<<ASSIGN
QQ_GLOBAL.DS1$_BITS
      5368**DCL      5368--REDEF
QQ_GLOBAL.DS2$_BITS
      5368**DCL      5369--REDEF
QQ_GLOBAL.DS3$_BITS
      5369**DCL      5369--REDEF
QQ_GLOBAL.DS4$_BITS
      5369**DCL      5370--REDEF
QQ_GLOBAL.ERR
      5358**DCL      6815<<ASSIGN
READ_ERR
      6781**LABEL    6776--CALLALT
RET
      6806**LABEL    6772--GOTO     6783--GOTO
S$
      5909**DCL      5911--IMP-PTR
TP$STATION.FLAGS.READ
      5953**DCL      6738>>IF       6762<<ASSIGN   6809<<ASSIGN
VLP_ACCT
      6599**DCL      6415--DCLINIT  6469--DCLINIT
VLP_NAME
      6626**DCL      6411--DCLINIT  6469--DCLINIT
VLP_PASS
      6639**DCL      6412--DCLINIT  6470--DCLINIT
VLP_SN
      6652**DCL      6470--DCLINIT
PL6.E3A0      #001=QQB$READ File=QQB$READ.:E05TSI                                WED 07/30/97 05:35 Page:38
VLP_WSN
      6665**DCL      6470--DCLINIT
VLR_FID
      6703**DCL      6472--DCLINIT
