VERSION E05

PL6.E3A0      #001=QQB$SPY File=QQB$SPY.:E05TSI                                  WED 07/30/97 05:36 Page:1
        1        1        /*M* QQB$SPY - Perform  SPY command */
        2        2        /*T***********************************************************/
        3        3        /*T*                                                         */
        4        4        /*T* Copyright (c) Bull HN Information Systems Inc., 1997    */
        5        5        /*T*                                                         */
        6        6        /*T***********************************************************/
        7        7        /*X* IND=2, DCI=4, CSU=2, ECU=4, DTI=2, CTI=4, AND */
        8        8        QQB$SPY:
        9        9                PROC;
       10       10
       11       11        %INCLUDE Q_PAGE_C;
       12       43        %SET LISTEXP = '1'B;
       13       44        %PAGE(ARG="Includes");

                61        /***************************************************************************
                62         *                                                                         *
                63         *                                  Includes                               *
                64         *                                                                         *
                65         ***************************************************************************/

       14       69        %INCLUDE CP_6;
       15      150        %INCLUDE XU_MACRO_C;
       16     3256        %INCLUDE XU_FORMAT_C;
       17     3418        %INCLUDE QQ_MACROS_C;
       18     3843        %INCLUDE QQ_DATA_R;
       19     4089        %INCLUDE QQ_PERR_C;
       20     4250        %INCLUDE QQ_SUBS_C;
       21     4442        %INCLUDE Q_ERRCODE_C;
       22     4465        %PAGE(ARG="Externally defined routines");

              4482    1   /***************************************************************************
              4483    1    *                                                                         *
              4484    1    *                        Externally defined routines                      *
              4485    1    *                                                                         *
              4486    1    ***************************************************************************/

       23     4490    1   DCL QQC$BLDMSG ENTRY(1);
PL6.E3A0      #001=QQB$SPY File=QQB$SPY.:E05TSI                                  WED 07/30/97 05:36 Page:2
       24     4491    1   DCL QQC$BLDMSG_BLK ENTRY(1);
       25     4492    1   DCL X$FORMAT ENTRY(1);
       26     4493    1   DCL QQC$PRINT_FMT ENTRY(2) ALTRET;
       27     4494    1   DCL QQC$WILD_COMP ENTRY(2) ALTRET;
       28     4495    1   DCL QQB$DISPLAY ENTRY;
       29     4496        %PAGE(ARG="Based");

              4513    1   /***************************************************************************
              4514    1    *                                                                         *
              4515    1    *                                   Based                                 *
              4516    1    *                                                                         *
              4517    1    ***************************************************************************/

       30     4521        %TP$STATION;
       31     4594        %PARSE$SYM(STCLASS=BASED);
       32     4632        %PARSE$OUT(STCLASS=BASED);
       33     4677    1   DCL 1 VLP$FPRG BASED(P$),
       34     4678    1         2 * BIT(18),
       35     4679    1         2 PSN# CHAR(6) UNAL,
       36     4680    1         2 NAME,
       37     4681    1           3 L# UBIN BYTE UNAL,
       38     4682    1           3 C# CHAR(31),
       39     4683    1         2 ACCT# CHAR(8),
       40     4684    1         2 PASS# CHAR(8);
       41     4685        %PAGE(ARG="Constants");

              4702    1   /***************************************************************************
              4703    1    *                                                                         *
              4704    1    *                                 Constants                               *
              4705    1    *                                                                         *
              4706    1    ***************************************************************************/

       42     4710    1   DCL FORMAT CHAR(0) CONSTANT INIT(' %A %5.36.0U  %A    %A     %3D %A  %A %A');
       43     4711    1   DCL BLANK_YES(0:1) CHAR(3) CONSTANT INIT(' ','YES');
       44     4712        %PAGE(ARG="Static");

              4729    1   /***************************************************************************
PL6.E3A0      #001=QQB$SPY File=QQB$SPY.:E05TSI                                  WED 07/30/97 05:36 Page:3
              4730    1    *                                                                         *
              4731    1    *                                   Static                                *
              4732    1    *                                                                         *
              4733    1    ***************************************************************************/

       45     4737    1   DCL UNFID_SIZE UBIN WORD STATIC;        /* fpt_unfid                          */
       46     4738    1   DCL FID CHAR(100) STATIC;
       47     4739        %F_FDS(FMT=FORMAT, NVECS=8, OUTPUT=QQC$PRINT_FMT, DVFC=' ');
       48     4852        %PAGE(ARG="Auto");

              4869    1   /***************************************************************************
              4870    1    *                                                                         *
              4871    1    *                                    Auto                                 *
              4872    1    *                                                                         *
              4873    1    ***************************************************************************/

       49     4877    1   DCL BUF CHAR(80);
       50     4878    1   DCL STATION CHAR(8);
       51     4879
       52     4880    1   DCL DATA_VECTRS(0:7) BIT(72);
       53     4881        %MSGBLK;
       54     4971
       55     4972    1   DCL I SBIN WORD;
       56     4973    1   DCL P$  PTR;
       57     4974        %PAGE(ARG="Error codes", PAGE=YES);

PL6.E3A0      #001=QQB$SPY File=QQB$SPY.:E05TSI                                  WED 07/30/97 05:36 Page:4
              4991    1   /***************************************************************************
              4992    1    *                                                                         *
              4993    1    *                                Error codes                              *
              4994    1    *                                                                         *
              4995    1    ***************************************************************************/

       58     4999        %ERRCODE(NAME=CODE_SPYTITLE, CODE#=%E$SPYTITLE, FCG#=%FCG_QQ, MID#=%MID_B);
       59     5006        %ERRCODE(NAME=CODE_BLANK, CODE#=%E$BLANK, FCG#=%FCG_QQ, MID#=%MID_B);
       60     5013        %ERRCODE(NAME=CODE_FPNAME, CODE#=%E$FPNAME, FCG#=%FCG_QQ, MID#=%MID_B);
       61     5020        /*E*       ERROR: QQB-E$SPYTITLE-C
       62     5021
       63     5022                 MESSAGE: Station  Logon  Current FP  Default FP  Prio Priv MCT Debug
       64     5023             DESCRIPTION: Title for the SPY display.
       65     5024        */
       66     5025        /*E*       ERROR: QQB-E$BLANK-C
       67     5026
       68     5027                 MESSAGE:
       69     5028             DESCRIPTION: Print a blank line in between two displays SPY TPU
       70     5029                          and SPY DELTA.
       71     5030        */
       72     5031        /*E*       ERROR: QQB-E$FPNAME-C
       73     5032
       74     5033                 MESSAGE: Forms program=%U1
       75     5034             DESCRIPTION: Name of forms program if load by name instruction
       76     5035                          used i.e., Current FP=(name).
       77     5036        */
       78     5037        %PAGE(ARG='FPTs');

              5054    1   /***************************************************************************
              5055    1    *                                                                         *
              5056    1    *                                   'FPTs'                                *
              5057    1    *                                                                         *
              5058    1    ***************************************************************************/

       79     5062        %FPT_OPEN(ASN=FILE);
       80     5171        %FPT_UNFID(TEXTFID=FID,NAME=VLP_NAME,ACCT=VLP_ACCT,PASS=VLP_PASS,
       81     5172        ASN="FPT_OPEN.V.ASN#", SN=VLP_SN, WSN=VLP_WSN,
PL6.E3A0      #001=QQB$SPY File=QQB$SPY.:E05TSI                                  WED 07/30/97 05:36 Page:5
       82     5173        RES="FPT_OPEN.V.RES#", LEN=UNFID_SIZE);
       83     5191        %PAGE(ARG="VLPs");

              5208    1   /***************************************************************************
              5209    1    *                                                                         *
              5210    1    *                                    VLPs                                 *
              5211    1    *                                                                         *
              5212    1    ***************************************************************************/

       84     5216        %VLP_NAME;
       85     5243        %VLP_ACCT;
       86     5256        %VLP_PASS;
       87     5269        %VLP_SN;
       88     5282        %VLP_WSN;
       89     5295        %VLP_NAME(FPTN=TEXTC_FID);
       90     5322        %PAGE(ARG="QQB$SPY", PAGE=YES);

PL6.E3A0      #001=QQB$SPY File=QQB$SPY.:E05TSI                                  WED 07/30/97 05:36 Page:6
              5339    1   /***************************************************************************
              5340    1    *                                                                         *
              5341    1    *                                  QQB$SPY                                *
              5342    1    *                                                                         *
              5343    1    ***************************************************************************/

       91     5347
       92     5348    1           F_FDS.BUF_ = VECTOR(BUF);
       93     5349    1           F_FDS.VECTR$ = ADDR(DATA_VECTRS);
       94     5350
       95     5351    1           IF QQ_CMDBLK.OUT$ -> OUT$BLK.NSUBLKS = 0 THEN
       96     5352    2             DO;
       97     5353    2               STATION = 'BOTH';           /* Default TPU & station are assumed  */
       98     5354    2             END;
       99     5355    1           ELSE
      100     5356    2             DO;
      101     5357    2               STATION = QQ_CMDBLK.OUT$ -> OUT$BLK.SUBLK$(0) -> OUT$SYM.TEXT;
      102     5358    2             END;
      103     5359
      104     5360                /* Check if it is a SPY TPU option, or no option is present.
      105     5361                   If it is, fake it here and call QQB$DISPLAY to do the work */
      106     5362    1           IF STATION = 'TPU' OR STATION = 'BOTH' THEN
      107     5363    2             DO;
      108     5364    2               QQ_CMDBLK.OUT$ -> OUT$BLK.SUBLK$(0) = ADDR(NIL);
      109     5365    2               CALL QQB$DISPLAY;
      110     5366    2               IF STATION = 'TPU'
      111     5367    2               THEN
      112     5368    2                 RETURN;
      113     5369    2               ELSE
      114     5370    3                 DO;
      115     5371    3                   STATION = '?';
      116     5372    3                   QQ_CMDBLK.MINOR_ERR = CODE_BLANK;
      117     5373    3                   CALL QQC$BLDMSG_BLK(MSGBLK);
      118     5374    3                   CALL QQC$BLDMSG(MSGBLK);
      119     5375    3                 END;
      120     5376    2             END;
      121     5377
PL6.E3A0      #001=QQB$SPY File=QQB$SPY.:E05TSI                                  WED 07/30/97 05:36 Page:7
      122     5378    1           QQ_CMDBLK.MINOR_ERR = CODE_SPYTITLE;
      123     5379    1           CALL QQC$BLDMSG_BLK(MSGBLK);
      124     5380    1           CALL QQC$BLDMSG(MSGBLK);
      125     5381    2           DO I = 1 TO QQ_GLOBAL.STATION_CNT;
      126     5382    2             S$ = PINCRW(QQ_GLOBAL.STATION$, (I - 1) * SIZEW(TP$STATION));
      127     5383
      128     5384    2             CALL QQC$WILD_COMP(STATION, TP$STATION.ID) ALTRET(LOOP);
      129     5385
      130     5386    2             DATA_VECTRS(0) = VECTOR(TP$STATION.ID);
      131     5387    2             DATA_VECTRS(1) = VECTOR(TP$STATION.LOGON_UTS);
      132     5388    2             DATA_VECTRS(2) = VECTOR(TP$STATION.FP);
      133     5389    2             DATA_VECTRS(3) = VECTOR(TP$STATION.DFLT_FP);
      134     5390    2             DATA_VECTRS(4) = VECTOR(TP$STATION.CURR_PRIO);
      135     5391    2             DATA_VECTRS(5) = VECTOR(BLANK_YES(BITBIN(TP$STATION.FLAGS.PRIV)));
      136     5392    2             DATA_VECTRS(6) = VECTOR(BLANK_YES(BITBIN(TP$STATION.FLAGS.MCT)));
      137     5393    2             DATA_VECTRS(7) = VECTOR(BLANK_YES(BITBIN(TP$STATION.FLAGS.IS_DEBUGGING)));
      138     5394    2             CALL X$FORMAT(F_FDS);
      139     5395    2             IF (TP$STATION.FP = '(name)') AND (TP$STATION.FPLDTRC$ ~= ADDR(NIL)) THEN
      140     5396    3               DO;
      141     5397    3                 QQ_CMDBLK.MINOR_ERR = CODE_FPNAME;
      142     5398    3                 CALL QQC$BLDMSG_BLK(MSGBLK);
      143     5399    3                 P$ = TP$STATION.FPLDTRC$;
      144     5400    3                 VLP_NAME.L# = VLP$FPRG.NAME.L#;
      145     5401    3                 VLP_NAME.NAME# = VLP$FPRG.NAME.C#;
      146     5402    3                 VLP_ACCT.ACCT# = VLP$FPRG.ACCT#;
      147     5403    3                 VLP_SN.SN#(0) = VLP$FPRG.PSN#;
      148     5404    3                 VLP_PASS.PASS# = ' ';
      149     5405
      150     5406    3                 CALL M$UNFID(FPT_UNFID) ALTRET(LOOP);
      151     5407    3                 MSGBLK.ERRINFO.FIELD1(0) = VECTOR(TEXTC_FID);
      152     5408    3                 TEXTC_FID.L# = UNFID_SIZE;
      153     5409    3                 TEXTC_FID.NAME# = FID;
      154     5410    3                 CALL QQC$BLDMSG(MSGBLK);
      155     5411
      156     5412    3                 QQ_CMDBLK.MINOR_ERR = CODE_BLANK;
      157     5413    3                 CALL QQC$BLDMSG_BLK(MSGBLK);
      158     5414    3                 CALL QQC$BLDMSG(MSGBLK);
PL6.E3A0      #001=QQB$SPY File=QQB$SPY.:E05TSI                                  WED 07/30/97 05:36 Page:8
      159     5415    3               END;
      160     5416
      161     5417
      162     5418    2   LOOP:
      163     5419    2           END;
      164     5420
      165     5421    1           RETURN;
      166     5422
      167     5423    1   END QQB$SPY;

PL6.E3A0      #001=QQB$SPY File=QQB$SPY.:E05TSI                                  WED 07/30/97 05:36 Page:9
--  Include file information  --

   Q_ERRCODE_C.:E05TOU  is referenced.
   QQ_SUBS_C.:E05TOU  is referenced.
   QQ_PERR_C.:E05TOU  is referenced.
   QQ_DATA_R.:E05TOU  cannot be made into a system file and is referenced.
   QQ_MACROS_C.:E05TOU  is referenced.
   XU_FORMAT_C.:E05TOU  is referenced.
   XU_MACRO_C.:E05TOU  is referenced.
   CP_6.:E05TOU  cannot be made into a system file and is referenced.
   Q_PAGE_C.:E05TOU  is referenced.
   B$JIT_C.:E05TOU  was found in the system file and is never referenced.
   CP_6_C.:E05TOU  was found in the system file and is referenced.
      No diagnostics issued in procedure QQB$SPY.

   Procedure QQB$SPY requires 212 words for executable code.
   Procedure QQB$SPY requires 68 words of local(AUTO) storage.

    No errors detected in file QQB$SPY.:E05TSI    .

PL6.E3A0      #001=QQB$SPY File=QQB$SPY.:E05TSI                                  WED 07/30/97 05:36 Page:10

 Object Unit name= QQB$SPY                                    File name= QQB$SPY.:E05TOU
 UTS= JUL 30 '97 05:36:01.96 WED                              Compiler= PL-6/E31         Sev=      00
 SharedLib= :SHARED_SYSTEM                                    Alt SharedLib=


    ****  Control sections  ****

 Sect   Type Bound  Init  Size OctSiz  Section name(segment info)
    0   DCB   even  none     0      0  M$UC
    1  RoData even  UTS     19     23  QQB$SPY
    2   Data  even  none   162    242  QQB$SPY
    3   Proc  even  none   212    324  QQB$SPY
    4  RoData even  none     8     10  QQB$SPY

    ****  Entry defs  ****

                              Check   Calling
                             calling  sequence
  Sect OctLoc Primary Altret sequence   type   Parms  Name
     3      0   yes            yes      Std        0  QQB$SPY

  ****  Entry refs  ****

         Check        Calling
        calling       sequence
Altret sequence SRef   type   Args  Name
 yes     yes           Std       2 QQC$PRINT_FMT
         yes           Std       0 QQB$DISPLAY
         yes           Std       1 QQC$BLDMSG_BLK
         yes           Std       1 QQC$BLDMSG
         yes           Std       1 X$FORMAT
 yes     yes           Std       2 QQC$WILD_COMP
                       nStd      0 X66_AUTO_0
                       Std       0 B_CONSPOOL_D
                       nStd      0 X66_ARET
PL6.E3A0      #001=QQB$SPY File=QQB$SPY.:E05TSI                                  WED 07/30/97 05:36 Page:11

  ****  Data refs  ****

  Flags:  r = read only, s = secondary
Flgs Name                             Flgs Name                             Flgs Name
     M$UC                                  QQ_CMDBLK                             QQ_GLOBAL
     B_VECTNIL

  ****  Segment refs  ****

  Flags:  r = read only, s = secondary
Flgs Name                             Flgs Name                             Flgs Name
     ISSID                                 NULLSID
PL6.E3A0      #001=QQB$SPY File=QQB$SPY.:E05TSI                                  WED 07/30/97 05:36 Page:12


        1        1        /*M* QQB$SPY - Perform  SPY command */
        2        2        /*T***********************************************************/
        3        3        /*T*                                                         */
        4        4        /*T* Copyright (c) Bull HN Information Systems Inc., 1997    */
        5        5        /*T*                                                         */
        6        6        /*T***********************************************************/
        7        7        /*X* IND=2, DCI=4, CSU=2, ECU=4, DTI=2, CTI=4, AND */
        8        8        QQB$SPY:
        9        9                PROC;

      9  3 000000   000000 700200 xent  QQB$SPY      TSX0  ! X66_AUTO_0
         3 000001   000104 000000                    ZERO    68,0

       10       10
       11       11        %INCLUDE Q_PAGE_C;
       12       43        %SET LISTEXP = '1'B;
       13       44        %PAGE(ARG="Includes");

                61        /***************************************************************************
                62         *                                                                         *
                63         *                                  Includes                               *
                64         *                                                                         *
                65         ***************************************************************************/

       14       69        %INCLUDE CP_6;
       15      150        %INCLUDE XU_MACRO_C;
       16     3256        %INCLUDE XU_FORMAT_C;
       17     3418        %INCLUDE QQ_MACROS_C;
       18     3843        %INCLUDE QQ_DATA_R;
       19     4089        %INCLUDE QQ_PERR_C;
       20     4250        %INCLUDE QQ_SUBS_C;
       21     4442        %INCLUDE Q_ERRCODE_C;
       22     4465        %PAGE(ARG="Externally defined routines");

              4482    1   /***************************************************************************
              4483    1    *                                                                         *
PL6.E3A0      #001=QQB$SPY File=QQB$SPY.:E05TSI                                  WED 07/30/97 05:36 Page:13
              4484    1    *                        Externally defined routines                      *
              4485    1    *                                                                         *
              4486    1    ***************************************************************************/

       23     4490    1   DCL QQC$BLDMSG ENTRY(1);
       24     4491    1   DCL QQC$BLDMSG_BLK ENTRY(1);
       25     4492    1   DCL X$FORMAT ENTRY(1);
       26     4493    1   DCL QQC$PRINT_FMT ENTRY(2) ALTRET;
       27     4494    1   DCL QQC$WILD_COMP ENTRY(2) ALTRET;
       28     4495    1   DCL QQB$DISPLAY ENTRY;
       29     4496        %PAGE(ARG="Based");

              4513    1   /***************************************************************************
              4514    1    *                                                                         *
              4515    1    *                                   Based                                 *
              4516    1    *                                                                         *
              4517    1    ***************************************************************************/

       30     4521        %TP$STATION;
       31     4594        %PARSE$SYM(STCLASS=BASED);
       32     4632        %PARSE$OUT(STCLASS=BASED);
       33     4677    1   DCL 1 VLP$FPRG BASED(P$),
       34     4678    1         2 * BIT(18),
       35     4679    1         2 PSN# CHAR(6) UNAL,
       36     4680    1         2 NAME,
       37     4681    1           3 L# UBIN BYTE UNAL,
       38     4682    1           3 C# CHAR(31),
       39     4683    1         2 ACCT# CHAR(8),
       40     4684    1         2 PASS# CHAR(8);
       41     4685        %PAGE(ARG="Constants");

              4702    1   /***************************************************************************
              4703    1    *                                                                         *
              4704    1    *                                 Constants                               *
              4705    1    *                                                                         *
              4706    1    ***************************************************************************/

PL6.E3A0      #001=QQB$SPY File=QQB$SPY.:E05TSI                                  WED 07/30/97 05:36 Page:14
       42     4710    1   DCL FORMAT CHAR(0) CONSTANT INIT(' %A %5.36.0U  %A    %A     %3D %A  %A %A');
       43     4711    1   DCL BLANK_YES(0:1) CHAR(3) CONSTANT INIT(' ','YES');
       44     4712        %PAGE(ARG="Static");

              4729    1   /***************************************************************************
              4730    1    *                                                                         *
              4731    1    *                                   Static                                *
              4732    1    *                                                                         *
              4733    1    ***************************************************************************/

       45     4737    1   DCL UNFID_SIZE UBIN WORD STATIC;        /* fpt_unfid                          */
       46     4738    1   DCL FID CHAR(100) STATIC;
       47     4739        %F_FDS(FMT=FORMAT, NVECS=8, OUTPUT=QQC$PRINT_FMT, DVFC=' ');
       48     4852        %PAGE(ARG="Auto");

              4869    1   /***************************************************************************
              4870    1    *                                                                         *
              4871    1    *                                    Auto                                 *
              4872    1    *                                                                         *
              4873    1    ***************************************************************************/

       49     4877    1   DCL BUF CHAR(80);
       50     4878    1   DCL STATION CHAR(8);
       51     4879
       52     4880    1   DCL DATA_VECTRS(0:7) BIT(72);
       53     4881        %MSGBLK;
       54     4971
       55     4972    1   DCL I SBIN WORD;
       56     4973    1   DCL P$  PTR;
       57     4974        %PAGE(ARG="Error codes", PAGE=YES);

PL6.E3A0      #001=QQB$SPY File=QQB$SPY.:E05TSI                                  WED 07/30/97 05:36 Page:15
              4991    1   /***************************************************************************
              4992    1    *                                                                         *
              4993    1    *                                Error codes                              *
              4994    1    *                                                                         *
              4995    1    ***************************************************************************/

       58     4999        %ERRCODE(NAME=CODE_SPYTITLE, CODE#=%E$SPYTITLE, FCG#=%FCG_QQ, MID#=%MID_B);
       59     5006        %ERRCODE(NAME=CODE_BLANK, CODE#=%E$BLANK, FCG#=%FCG_QQ, MID#=%MID_B);
       60     5013        %ERRCODE(NAME=CODE_FPNAME, CODE#=%E$FPNAME, FCG#=%FCG_QQ, MID#=%MID_B);
       61     5020        /*E*       ERROR: QQB-E$SPYTITLE-C
       62     5021
       63     5022                 MESSAGE: Station  Logon  Current FP  Default FP  Prio Priv MCT Debug
       64     5023             DESCRIPTION: Title for the SPY display.
       65     5024        */
       66     5025        /*E*       ERROR: QQB-E$BLANK-C
       67     5026
       68     5027                 MESSAGE:
       69     5028             DESCRIPTION: Print a blank line in between two displays SPY TPU
       70     5029                          and SPY DELTA.
       71     5030        */
       72     5031        /*E*       ERROR: QQB-E$FPNAME-C
       73     5032
       74     5033                 MESSAGE: Forms program=%U1
       75     5034             DESCRIPTION: Name of forms program if load by name instruction
       76     5035                          used i.e., Current FP=(name).
       77     5036        */
       78     5037        %PAGE(ARG='FPTs');

              5054    1   /***************************************************************************
              5055    1    *                                                                         *
              5056    1    *                                   'FPTs'                                *
              5057    1    *                                                                         *
              5058    1    ***************************************************************************/

       79     5062        %FPT_OPEN(ASN=FILE);
       80     5171        %FPT_UNFID(TEXTFID=FID,NAME=VLP_NAME,ACCT=VLP_ACCT,PASS=VLP_PASS,
       81     5172        ASN="FPT_OPEN.V.ASN#", SN=VLP_SN, WSN=VLP_WSN,
PL6.E3A0      #001=QQB$SPY File=QQB$SPY.:E05TSI                                  WED 07/30/97 05:36 Page:16
       82     5173        RES="FPT_OPEN.V.RES#", LEN=UNFID_SIZE);
       83     5191        %PAGE(ARG="VLPs");

              5208    1   /***************************************************************************
              5209    1    *                                                                         *
              5210    1    *                                    VLPs                                 *
              5211    1    *                                                                         *
              5212    1    ***************************************************************************/

       84     5216        %VLP_NAME;
       85     5243        %VLP_ACCT;
       86     5256        %VLP_PASS;
       87     5269        %VLP_SN;
       88     5282        %VLP_WSN;
       89     5295        %VLP_NAME(FPTN=TEXTC_FID);
       90     5322        %PAGE(ARG="QQB$SPY", PAGE=YES);

PL6.E3A0      #001=QQB$SPY File=QQB$SPY.:E05TSI                                  WED 07/30/97 05:36 Page:17
              5339    1   /***************************************************************************
              5340    1    *                                                                         *
              5341    1    *                                  QQB$SPY                                *
              5342    1    *                                                                         *
              5343    1    ***************************************************************************/

       91     5347
       92     5348    1           F_FDS.BUF_ = VECTOR(BUF);

   5348  3 000002   000000 235000 4                  LDA     0
         3 000003   200102 452500                    STP2    P$+2,,AUTO
         3 000004   200102 236100                    LDQ     P$+2,,AUTO
         3 000005   000004 036003                    ADLQ    4,DU
         3 000006   000037 755000 2                  STA     F_FDS+5
         3 000007   000040 756000 2                  STQ     F_FDS+6

       93     5349    1           F_FDS.VECTR$ = ADDR(DATA_VECTRS);

   5349  3 000010   200032 630500                    EPPR0   DATA_VECTRS,,AUTO
         3 000011   000044 450400 2                  STP0    F_FDS+10

       94     5350
       95     5351    1           IF QQ_CMDBLK.OUT$ -> OUT$BLK.NSUBLKS = 0 THEN

   5351  3 000012   000005 471400 xsym               LDP1    QQ_CMDBLK+5
         3 000013   100001 220100                    LDX0    1,,PR1
         3 000014   000021 601000 3                  TNZ     s:5357

       96     5352    2             DO;

       97     5353    2               STATION = 'BOTH';           /* Default TPU & station are assumed  */

   5353  3 000015   000017 235000 1                  LDA     CODE_FPNAME+1
         3 000016   000035 236000 xsym               LDQ     B_VECTNIL+29
         3 000017   200030 757100                    STAQ    STATION,,AUTO

       98     5354    2             END;
PL6.E3A0      #001=QQB$SPY File=QQB$SPY.:E05TSI                                  WED 07/30/97 05:36 Page:18

   5354  3 000020   000030 710000 3                  TRA     s:5362

       99     5355    1           ELSE
      100     5356    2             DO;

      101     5357    2               STATION = QQ_CMDBLK.OUT$ -> OUT$BLK.SUBLK$(0) -> OUT$SYM.TEXT;

   5357  3 000021   100003 473500                    LDP3    3,,PR1
         3 000022   300004 236100                    LDQ     4,,PR3
         3 000023   000033 772000                    QRL     27
         3 000024   000000 621006                    EAX1    0,QL
         3 000025   040100 100540                    MLR     fill='040'O
         3 000026   300004 200011                    ADSC9   4,,PR3                   cn=1,n=*X1
         3 000027   200030 000010                    ADSC9   STATION,,AUTO            cn=0,n=8

      102     5358    2             END;

      103     5359
      104     5360                /* Check if it is a SPY TPU option, or no option is present.
      105     5361                   If it is, fake it here and call QQB$DISPLAY to do the work */
      106     5362    1           IF STATION = 'TPU' OR STATION = 'BOTH' THEN

   5362  3 000030   040000 106500                    CMPC    fill='040'O
         3 000031   200030 000010                    ADSC9   STATION,,AUTO            cn=0,n=8
         3 000032   000020 000003 1                  ADSC9   CODE_FPNAME+2            cn=0,n=3
         3 000033   000040 600000 3                  TZE     s:5364
         3 000034   040000 106500                    CMPC    fill='040'O
         3 000035   200030 000010                    ADSC9   STATION,,AUTO            cn=0,n=8
         3 000036   000017 000004 1                  ADSC9   CODE_FPNAME+1            cn=0,n=4
         3 000037   000073 601000 3                  TNZ     s:5378

      107     5363    2             DO;

      108     5364    2               QQ_CMDBLK.OUT$ -> OUT$BLK.SUBLK$(0) = ADDR(NIL);

   5364  3 000040   000001 236000 xsym               LDQ     B_VECTNIL+1
PL6.E3A0      #001=QQB$SPY File=QQB$SPY.:E05TSI                                  WED 07/30/97 05:36 Page:19
         3 000041   100003 756100                    STQ     3,,PR1

      109     5365    2               CALL QQB$DISPLAY;

   5365  3 000042   000002 631400 xsym               EPPR1   B_VECTNIL+2
         3 000043   000000 701000 xent               TSX1    QQB$DISPLAY
         3 000044   000000 011000                    NOP     0

      110     5366    2               IF STATION = 'TPU'

   5366  3 000045   040000 106500                    CMPC    fill='040'O
         3 000046   200030 000010                    ADSC9   STATION,,AUTO            cn=0,n=8
         3 000047   000020 000003 1                  ADSC9   CODE_FPNAME+2            cn=0,n=3
         3 000050   000052 601000 3                  TNZ     s:5371

      111     5367    2               THEN
      112     5368    2                 RETURN;

   5368  3 000051   000000 702200 xent               TSX2  ! X66_ARET

      113     5369    2               ELSE
      114     5370    3                 DO;

      115     5371    3                   STATION = '?';

   5371  3 000052   000001 235000 4                  LDA     1
         3 000053   000035 236000 xsym               LDQ     B_VECTNIL+29
         3 000054   200030 757100                    STAQ    STATION,,AUTO

      116     5372    3                   QQ_CMDBLK.MINOR_ERR = CODE_BLANK;

   5372  3 000055   000015 236000 1                  LDQ     CODE_BLANK
         3 000056   000001 756000 xsym               STQ     QQ_CMDBLK+1

      117     5373    3                   CALL QQC$BLDMSG_BLK(MSGBLK);

   5373  3 000057   200052 630500                    EPPR0   MSGBLK,,AUTO
PL6.E3A0      #001=QQB$SPY File=QQB$SPY.:E05TSI                                  WED 07/30/97 05:36 Page:20
         3 000060   200102 450500                    STP0    P$+2,,AUTO
         3 000061   200102 630500                    EPPR0   P$+2,,AUTO
         3 000062   000017 631400 xsym               EPPR1   B_VECTNIL+15
         3 000063   000000 701000 xent               TSX1    QQC$BLDMSG_BLK
         3 000064   000000 011000                    NOP     0

      118     5374    3                   CALL QQC$BLDMSG(MSGBLK);

   5374  3 000065   200052 630500                    EPPR0   MSGBLK,,AUTO
         3 000066   200102 450500                    STP0    P$+2,,AUTO
         3 000067   200102 630500                    EPPR0   P$+2,,AUTO
         3 000070   000017 631400 xsym               EPPR1   B_VECTNIL+15
         3 000071   000000 701000 xent               TSX1    QQC$BLDMSG
         3 000072   000000 011000                    NOP     0

      119     5375    3                 END;

      120     5376    2             END;

      121     5377
      122     5378    1           QQ_CMDBLK.MINOR_ERR = CODE_SPYTITLE;

   5378  3 000073   000014 236000 1                  LDQ     CODE_SPYTITLE
         3 000074   000001 756000 xsym               STQ     QQ_CMDBLK+1

      123     5379    1           CALL QQC$BLDMSG_BLK(MSGBLK);

   5379  3 000075   200052 630500                    EPPR0   MSGBLK,,AUTO
         3 000076   200102 450500                    STP0    P$+2,,AUTO
         3 000077   200102 630500                    EPPR0   P$+2,,AUTO
         3 000100   000017 631400 xsym               EPPR1   B_VECTNIL+15
         3 000101   000000 701000 xent               TSX1    QQC$BLDMSG_BLK
         3 000102   000000 011000                    NOP     0

      124     5380    1           CALL QQC$BLDMSG(MSGBLK);

   5380  3 000103   200052 630500                    EPPR0   MSGBLK,,AUTO
PL6.E3A0      #001=QQB$SPY File=QQB$SPY.:E05TSI                                  WED 07/30/97 05:36 Page:21
         3 000104   200102 450500                    STP0    P$+2,,AUTO
         3 000105   200102 630500                    EPPR0   P$+2,,AUTO
         3 000106   000017 631400 xsym               EPPR1   B_VECTNIL+15
         3 000107   000000 701000 xent               TSX1    QQC$BLDMSG
         3 000110   000000 011000                    NOP     0

      125     5381    2           DO I = 1 TO QQ_GLOBAL.STATION_CNT;

   5381  3 000111   000001 235007                    LDA     1,DL
         3 000112   200077 755100                    STA     I,,AUTO
         3 000113   000317 710000 3                  TRA     LOOP+1

      126     5382    2             S$ = PINCRW(QQ_GLOBAL.STATION$, (I - 1) * SIZEW(TP$STATION));

   5382  3 000114   200077 236100                    LDQ     I,,AUTO
         3 000115   000032 402003                    MPY     26,DU
         3 000116   000032 136003                    SBLQ    26,DU
         3 000117   000151 036000 xsym               ADLQ    QQ_GLOBAL+105
         3 000120   200003 756100                    STQ     S$,,AUTO

      127     5383
      128     5384    2             CALL QQC$WILD_COMP(STATION, TP$STATION.ID) ALTRET(LOOP);

   5384  3 000121   200103 756100                    STQ     P$+3,,AUTO
         3 000122   200030 630500                    EPPR0   STATION,,AUTO
         3 000123   200102 450500                    STP0    P$+2,,AUTO
         3 000124   200102 630500                    EPPR0   P$+2,,AUTO
         3 000125   000020 631400 xsym               EPPR1   B_VECTNIL+16
         3 000126   000000 701000 xent               TSX1    QQC$WILD_COMP
         3 000127   000316 702000 3                  TSX2    LOOP

      129     5385
      130     5386    2             DATA_VECTRS(0) = VECTOR(TP$STATION.ID);

   5386  3 000130   000002 235000 4                  LDA     2
         3 000131   200003 236100                    LDQ     S$,,AUTO
         3 000132   200032 757100                    STAQ    DATA_VECTRS,,AUTO
PL6.E3A0      #001=QQB$SPY File=QQB$SPY.:E05TSI                                  WED 07/30/97 05:36 Page:22

      131     5387    2             DATA_VECTRS(1) = VECTOR(TP$STATION.LOGON_UTS);

   5387  3 000133   777640 235007                    LDA     -96,DL
         3 000134   200003 236100                    LDQ     S$,,AUTO
         3 000135   000010 036003                    ADLQ    8,DU
         3 000136   200034 757100                    STAQ    DATA_VECTRS+2,,AUTO

      132     5388    2             DATA_VECTRS(2) = VECTOR(TP$STATION.FP);

   5388  3 000137   000002 235000 4                  LDA     2
         3 000140   200003 236100                    LDQ     S$,,AUTO
         3 000141   000002 036003                    ADLQ    2,DU
         3 000142   200036 757100                    STAQ    DATA_VECTRS+4,,AUTO

      133     5389    2             DATA_VECTRS(3) = VECTOR(TP$STATION.DFLT_FP);

   5389  3 000143   000002 235000 4                  LDA     2
         3 000144   200003 236100                    LDQ     S$,,AUTO
         3 000145   000004 036003                    ADLQ    4,DU
         3 000146   200040 757100                    STAQ    DATA_VECTRS+6,,AUTO

      134     5390    2             DATA_VECTRS(4) = VECTOR(TP$STATION.CURR_PRIO);

   5390  3 000147   177640 235007                    LDA     65440,DL
         3 000150   200003 236100                    LDQ     S$,,AUTO
         3 000151   000024 036003                    ADLQ    20,DU
         3 000152   200042 757100                    STAQ    DATA_VECTRS+8,,AUTO

      135     5391    2             DATA_VECTRS(5) = VECTOR(BLANK_YES(BITBIN(TP$STATION.FLAGS.PRIV)));

   5391  3 000153   200003 470500                    LDP0    S$,,AUTO
         3 000154   000022 236100                    LDQ     18,,PR0
         3 000155   000043 772000                    QRL     35
         3 000156   577640 235007                    LDA     -65632,DL
         3 000157   200102 755100                    STA     P$+2,,AUTO
         3 000160   600000 402007                    MPY     -65536,DL
PL6.E3A0      #001=QQB$SPY File=QQB$SPY.:E05TSI                                  WED 07/30/97 05:36 Page:23
         3 000161   000003 036000 4                  ADLQ    3
         3 000162   200102 235100                    LDA     P$+2,,AUTO
         3 000163   200044 757100                    STAQ    DATA_VECTRS+10,,AUTO

      136     5392    2             DATA_VECTRS(6) = VECTOR(BLANK_YES(BITBIN(TP$STATION.FLAGS.MCT)));

   5392  3 000164   000022 236100                    LDQ     18,,PR0
         3 000165   000042 772000                    QRL     34
         3 000166   000001 376007                    ANQ     1,DL
         3 000167   577640 235007                    LDA     -65632,DL
         3 000170   200102 755100                    STA     P$+2,,AUTO
         3 000171   600000 402007                    MPY     -65536,DL
         3 000172   000003 036000 4                  ADLQ    3
         3 000173   200102 235100                    LDA     P$+2,,AUTO
         3 000174   200046 757100                    STAQ    DATA_VECTRS+12,,AUTO

      137     5393    2            DATA_VECTRS(7) = VECTOR(BLANK_YES(BITBIN(TP$STATION.FLAGS.IS_DEBUGGING)));

   5393  3 000175   000022 236100                    LDQ     18,,PR0
         3 000176   000035 772000                    QRL     29
         3 000177   000001 376007                    ANQ     1,DL
         3 000200   577640 235007                    LDA     -65632,DL
         3 000201   200102 755100                    STA     P$+2,,AUTO
         3 000202   600000 402007                    MPY     -65536,DL
         3 000203   000003 036000 4                  ADLQ    3
         3 000204   200102 235100                    LDA     P$+2,,AUTO
         3 000205   200050 757100                    STAQ    DATA_VECTRS+14,,AUTO

      138     5394    2             CALL X$FORMAT(F_FDS);

   5394  3 000206   000004 630400 4                  EPPR0   4
         3 000207   000017 631400 xsym               EPPR1   B_VECTNIL+15
         3 000210   000000 701000 xent               TSX1    X$FORMAT
         3 000211   000000 011000                    NOP     0

      139     5395    2             IF (TP$STATION.FP = '(name)') AND (TP$STATION.FPLDTRC$ ~= ADDR(NIL)) THEN

PL6.E3A0      #001=QQB$SPY File=QQB$SPY.:E05TSI                                  WED 07/30/97 05:36 Page:24
   5395  3 000212   200003 470500                    LDP0    S$,,AUTO
         3 000213   040000 106500                    CMPC    fill='040'O
         3 000214   000002 000010                    ADSC9   2,,PR0                   cn=0,n=8
         3 000215   000021 000006 1                  ADSC9   CODE_FPNAME+3            cn=0,n=6
         3 000216   000316 601000 3                  TNZ     LOOP
         3 000217   000017 236100                    LDQ     15,,PR0
         3 000220   000001 116000 xsym               CMPQ    B_VECTNIL+1
         3 000221   000316 600000 3                  TZE     LOOP

      140     5396    3               DO;

      141     5397    3                 QQ_CMDBLK.MINOR_ERR = CODE_FPNAME;

   5397  3 000222   000016 236000 1                  LDQ     CODE_FPNAME
         3 000223   000001 756000 xsym               STQ     QQ_CMDBLK+1

      142     5398    3                 CALL QQC$BLDMSG_BLK(MSGBLK);

   5398  3 000224   200052 631500                    EPPR1   MSGBLK,,AUTO
         3 000225   200102 451500                    STP1    P$+2,,AUTO
         3 000226   200102 630500                    EPPR0   P$+2,,AUTO
         3 000227   000017 631400 xsym               EPPR1   B_VECTNIL+15
         3 000230   000000 701000 xent               TSX1    QQC$BLDMSG_BLK
         3 000231   000000 011000                    NOP     0

      143     5399    3                 P$ = TP$STATION.FPLDTRC$;

   5399  3 000232   200003 470500                    LDP0    S$,,AUTO
         3 000233   000017 236100                    LDQ     15,,PR0
         3 000234   200100 756100                    STQ     P$,,AUTO

      144     5400    3                 VLP_NAME.L# = VLP$FPRG.NAME.L#;

   5400  3 000235   200100 471500                    LDP1    P$,,AUTO
         3 000236   000000 100500                    MLR     fill='000'O
         3 000237   100002 000001                    ADSC9   2,,PR1                   cn=0,n=1
         3 000240   000210 000001 2                  ADSC9   VLP_NAME                 cn=0,n=1
PL6.E3A0      #001=QQB$SPY File=QQB$SPY.:E05TSI                                  WED 07/30/97 05:36 Page:25

      145     5401    3                 VLP_NAME.NAME# = VLP$FPRG.NAME.C#;

   5401  3 000241   040000 100500                    MLR     fill='040'O
         3 000242   100002 200037                    ADSC9   2,,PR1                   cn=1,n=31
         3 000243   000210 200037 2                  ADSC9   VLP_NAME                 cn=1,n=31

      146     5402    3                 VLP_ACCT.ACCT# = VLP$FPRG.ACCT#;

   5402  3 000244   040000 100500                    MLR     fill='040'O
         3 000245   100012 000010                    ADSC9   10,,PR1                  cn=0,n=8
         3 000246   000220 000010 2                  ADSC9   VLP_ACCT                 cn=0,n=8

      147     5403    3                 VLP_SN.SN#(0) = VLP$FPRG.PSN#;

   5403  3 000247   040000 100500                    MLR     fill='040'O
         3 000250   100000 400006                    ADSC9   0,,PR1                   cn=2,n=6
         3 000251   000225 000006 2                  ADSC9   VLP_SN+1                 cn=0,n=6

      148     5404    3                 VLP_PASS.PASS# = ' ';

   5404  3 000252   000035 235000 xsym               LDA     B_VECTNIL+29
         3 000253   000035 236000 xsym               LDQ     B_VECTNIL+29
         3 000254   000222 757000 2                  STAQ    VLP_PASS

      149     5405
      150     5406    3                 CALL M$UNFID(FPT_UNFID) ALTRET(LOOP);

   5406  3 000255   000162 630400 2                  EPPR0   FPT_UNFID
         3 000256   420021 713400                    CLIMB   alt,+8209
         3 000257   404400 401760                    pmme    nvectors=10
         3 000260   000316 702000 3                  TSX2    LOOP

      151     5407    3                 MSGBLK.ERRINFO.FIELD1(0) = VECTOR(TEXTC_FID);

   5407  3 000261   000100 100400                    MLR     fill='000'O
         3 000262   000006 000010 4                  ADSC9   6                        cn=0,n=8
PL6.E3A0      #001=QQB$SPY File=QQB$SPY.:E05TSI                                  WED 07/30/97 05:36 Page:26
         3 000263   200061 200010                    ADSC9   MSGBLK+7,,AUTO           cn=1,n=8

      152     5408    3                 TEXTC_FID.L# = UNFID_SIZE;

   5408  3 000264   000000 236000 2                  LDQ     UNFID_SIZE
         3 000265   000033 736000                    QLS     27
         3 000266   000232 552040 2                  STBQ    TEXTC_FID,'40'O

      153     5409    3                 TEXTC_FID.NAME# = FID;

   5409  3 000267   040000 100400                    MLR     fill='040'O
         3 000270   000001 000037 2                  ADSC9   FID                      cn=0,n=31
         3 000271   000232 200037 2                  ADSC9   TEXTC_FID                cn=1,n=31

      154     5410    3                 CALL QQC$BLDMSG(MSGBLK);

   5410  3 000272   200052 630500                    EPPR0   MSGBLK,,AUTO
         3 000273   200102 450500                    STP0    P$+2,,AUTO
         3 000274   200102 630500                    EPPR0   P$+2,,AUTO
         3 000275   000017 631400 xsym               EPPR1   B_VECTNIL+15
         3 000276   000000 701000 xent               TSX1    QQC$BLDMSG
         3 000277   000000 011000                    NOP     0

      155     5411
      156     5412    3                 QQ_CMDBLK.MINOR_ERR = CODE_BLANK;

   5412  3 000300   000015 236000 1                  LDQ     CODE_BLANK
         3 000301   000001 756000 xsym               STQ     QQ_CMDBLK+1

      157     5413    3                 CALL QQC$BLDMSG_BLK(MSGBLK);

   5413  3 000302   200052 630500                    EPPR0   MSGBLK,,AUTO
         3 000303   200102 450500                    STP0    P$+2,,AUTO
         3 000304   200102 630500                    EPPR0   P$+2,,AUTO
         3 000305   000017 631400 xsym               EPPR1   B_VECTNIL+15
         3 000306   000000 701000 xent               TSX1    QQC$BLDMSG_BLK
         3 000307   000000 011000                    NOP     0
PL6.E3A0      #001=QQB$SPY File=QQB$SPY.:E05TSI                                  WED 07/30/97 05:36 Page:27

      158     5414    3                 CALL QQC$BLDMSG(MSGBLK);

   5414  3 000310   200052 630500                    EPPR0   MSGBLK,,AUTO
         3 000311   200102 450500                    STP0    P$+2,,AUTO
         3 000312   200102 630500                    EPPR0   P$+2,,AUTO
         3 000313   000017 631400 xsym               EPPR1   B_VECTNIL+15
         3 000314   000000 701000 xent               TSX1    QQC$BLDMSG
         3 000315   000000 011000                    NOP     0

      159     5415    3               END;

      160     5416
      161     5417
      162     5418    2   LOOP:
      163     5419    2           END;

   5419  3 000316   200077 054100       LOOP         AOS     I,,AUTO
         3 000317   000032 236000 xsym               LDQ     QQ_GLOBAL+26
         3 000320   000114 604000 3                  TMI     s:5382
         3 000321   200077 116100                    CMPQ    I,,AUTO
         3 000322   000114 605000 3                  TPL     s:5382

      164     5420
      165     5421    1           RETURN;

   5421  3 000323   000000 702200 xent               TSX2  ! X66_ARET
      166     5422
      167     5423    1   END QQB$SPY;

PL6.E3A0      #001=QQB$SPY File=QQB$SPY.:E05TSI                                  WED 07/30/97 05:36 Page:28
--  Include file information  --

   Q_ERRCODE_C.:E05TOU  is referenced.
   QQ_SUBS_C.:E05TOU  is referenced.
   QQ_PERR_C.:E05TOU  is referenced.
   QQ_DATA_R.:E05TOU  cannot be made into a system file and is referenced.
   QQ_MACROS_C.:E05TOU  is referenced.
   XU_FORMAT_C.:E05TOU  is referenced.
   XU_MACRO_C.:E05TOU  is referenced.
   CP_6.:E05TOU  cannot be made into a system file and is referenced.
   Q_PAGE_C.:E05TOU  is referenced.
   B$JIT_C.:E05TOU  was found in the system file and is never referenced.
   CP_6_C.:E05TOU  was found in the system file and is referenced.
      No diagnostics issued in procedure QQB$SPY.
PL6.E3A0      #001=QQB$SPY File=QQB$SPY.:E05TSI                                  WED 07/30/97 05:36 Page:29

 **** Variables and constants ****

  ****  Section 001 RoData QQB$SPY

  ****  Scalars and arrays  ****
OctLoc.c.b A Datatyp(siz) R M Lvl/name                 OctLoc.c.b A Datatyp(siz) R M Lvl/name

    12-0-0/c CHAR(3)     r     1 BLANK_YES(0:1)
    15-0-0/b STRC        r     1 CODE_BLANK                16-0-0/b STRC        r     1 CODE_FPNAME
    14-0-0/b STRC        r     1 CODE_SPYTITLE              0-0-0/c CHAR(40)    r     1 FORMAT

  ****  Section 002  Data  QQB$SPY

  ****  Scalars and arrays  ****
OctLoc.c.b A Datatyp(siz) R M Lvl/name                 OctLoc.c.b A Datatyp(siz) R M Lvl/name

     1-0-0/c CHAR(100)   r     1 FID                       70-0-0/d STRC(2088)  r     1 FPT_OPEN
   162-0-0/d STRC(792)   r     1 FPT_UNFID                 32-0-0/w STRC(1080)  r     1 F_FDS
   232-0-0/c STRC(288)   r     1 TEXTC_FID                  0-0-0/w UBIN        r     1 UNFID_SIZE
   220-0-0/c STRC(72)    r     1 VLP_ACCT                 210-0-0/c STRC(288)   r     1 VLP_NAME
   222-0-0/c STRC(72)    r     1 VLP_PASS                 224-0-0/d STRC(90)    r     1 VLP_SN
   230-0-0/c STRC(72)    r     1 VLP_WSN

  ****  Auto variables  ****

  ****  Scalars and arrays  ****
OctLoc.c.b A Datatyp(siz) R M Lvl/name                 OctLoc.c.b A Datatyp(siz) R M Lvl/name

     4-0-0/c CHAR(80)    r     1 BUF
    32-0-0/b BIT (72)    r     1 DATA_VECTRS(0:7)
    77-0-0/w SBIN        r     1 I                         52-0-0/w STRC(738)   r     1 MSGBLK
   100-0-0/w PTR         r     1 P$                         3-0-0/w PTR         r     1 S$
    30-0-0/c CHAR(8)     r     1 STATION

  ****  SYMREF variables  ****

  ****  Scalars and arrays  ****
PL6.E3A0      #001=QQB$SPY File=QQB$SPY.:E05TSI                                  WED 07/30/97 05:36 Page:30
OctLoc.c.b A Datatyp(siz) R M Lvl/name                 OctLoc.c.b A Datatyp(siz) R M Lvl/name

     0-0-0/w STRC(315)   r     1 QQ_CMDBLK                  0-0-0/d STRC(9090)  r     1 QQ_GLOBAL

  ****  BASED and DCB variables  ****

  ****  Scalars and arrays  ****
OctLoc.c.b A Datatyp(siz) R M Lvl/name                 OctLoc.c.b A Datatyp(siz) R M Lvl/name

     0-0-0/w STRC(144)   r     1 OUT$BLK                    0-0-0/w ASTR(153)   r     1 OUT$SYM
     0-0-0/w STRC(909)   r     1 TP$STATION                 0-0-0/c STRC(504)   r     1 VLP$FPRG


   Procedure QQB$SPY requires 212 words for executable code.
   Procedure QQB$SPY requires 68 words of local(AUTO) storage.

    No errors detected in file QQB$SPY.:E05TSI    .
PL6.E3A0      #001=QQB$SPY File=QQB$SPY.:E05TSI                                  WED 07/30/97 05:36 Page:31
          *** CROSS REFERENCE LISTING ***
**     DENOTES     IDENTIFIER DEFINITION
<<                 IDENTIFIER'S VALUE SET
>>                 IDENTIFIER'S VALUE USED
<>                 IDENTIFIER SET AND/OR USED
--                 IDENTIFIER REFERENCED
PL6.E3A0      #001=QQB$SPY File=QQB$SPY.:E05TSI                                  WED 07/30/97 05:36 Page:32
          MINI XREF LISTING

BLANK_YES
      4711**DCL      5391--ASSIGN   5392--ASSIGN   5393--ASSIGN
BUF
      4877**DCL      5348--ASSIGN
CODE_BLANK
      5007**DCL      5372>>ASSIGN   5412>>ASSIGN
CODE_FPNAME
      5014**DCL      5397>>ASSIGN
CODE_SPYTITLE
      5000**DCL      5378>>ASSIGN
DATA_VECTRS
      4880**DCL      5349--ASSIGN   5386<<ASSIGN   5387<<ASSIGN   5388<<ASSIGN   5389<<ASSIGN   5390<<ASSIGN
      5391<<ASSIGN   5392<<ASSIGN   5393<<ASSIGN
FID
      4738**DCL      5184--DCLINIT  5409>>ASSIGN
FORMAT
      4710**DCL      4758--DCLINIT  4760--DCLINIT
FPT_OPEN.ACSVEH_
      5129**DCL      5130--REDEF
FPT_OPEN.ALTKEYS_
      5135**DCL      5136--REDEF    5136--REDEF
FPT_OPEN.HDR_
      5134**DCL      5135--REDEF
FPT_OPEN.TAB_
      5133**DCL      5134--REDEF
FPT_OPEN.UHL_
      5127**DCL      5128--REDEF    5128--REDEF
FPT_OPEN.V
      5136**DCL      5127--DCLINIT
FPT_OPEN.V.ASN#
      5146**DCL      5187--DCLINIT
FPT_OPEN.V.FSN#
PL6.E3A0      #001=QQB$SPY File=QQB$SPY.:E05TSI                                  WED 07/30/97 05:36 Page:33
      5167**DCL      5167--REDEF    5167--REDEF
FPT_OPEN.V.RES#
      5151**DCL      5187--DCLINIT
FPT_OPEN.WSN_
      5133**DCL      5133--REDEF
FPT_UNFID
      5184**DCL      5406<>CALL
FPT_UNFID.V
      5188**DCL      5184--DCLINIT
F_FDS
      4753**DCL      5394<>CALL
F_FDS.BUF_
      4770**DCL      5348<<ASSIGN
F_FDS.VECTR$
      4783**DCL      5349<<ASSIGN
I
      4972**DCL      5381<<DOINDEX  5382>>ASSIGN
LOOP
      5419**LABEL    5384--CALLALT  5406--CALLALT
M$UNFID
       141**DCL-ENT  5406--CALL
MSGBLK
      4882**DCL      5373<>CALL     5374<>CALL     5379<>CALL     5380<>CALL     5398<>CALL     5410<>CALL
      5413<>CALL     5414<>CALL
MSGBLK.ERRINFO.FIELD1
      4964**DCL      5407<<ASSIGN
OUT$BLK.NSUBLKS
      4650**DCL      5351>>IF
OUT$BLK.SUBLK$
      4671**DCL      5357>>ASSIGN   5357>>ASSIGN   5364<<ASSIGN
OUT$SYM.COUNT
      4624**DCL      4627--IMP-SIZ  5357>>ASSIGN
OUT$SYM.TEXT
      4627**DCL      5357>>ASSIGN
P$
      4973**DCL      4677--IMP-PTR  5399<<ASSIGN   5400>>ASSIGN   5401>>ASSIGN   5402>>ASSIGN   5403>>ASSIGN
PL6.E3A0      #001=QQB$SPY File=QQB$SPY.:E05TSI                                  WED 07/30/97 05:36 Page:34
QQB$DISPLAY
      4495**DCL-ENT  5365--CALL
QQC$BLDMSG
      4490**DCL-ENT  5374--CALL     5380--CALL     5410--CALL     5414--CALL
QQC$BLDMSG_BLK
      4491**DCL-ENT  5373--CALL     5379--CALL     5398--CALL     5413--CALL
QQC$PRINT_FMT
      4493**DCL-ENT  4807--DCLINIT
QQC$WILD_COMP
      4494**DCL-ENT  5384--CALL
QQ_CMDBLK.MINOR_ERR
      3852**DCL      5372<<ASSIGN   5378<<ASSIGN   5397<<ASSIGN   5412<<ASSIGN
QQ_CMDBLK.OUT$
      3852**DCL      5351>>IF       5357>>ASSIGN   5357>>ASSIGN   5364>>ASSIGN
QQ_GLOBAL.DS1$_BITS
      3863**DCL      3863--REDEF
QQ_GLOBAL.DS2$_BITS
      3863**DCL      3864--REDEF
QQ_GLOBAL.DS3$_BITS
      3864**DCL      3864--REDEF
QQ_GLOBAL.DS4$_BITS
      3864**DCL      3865--REDEF
QQ_GLOBAL.STATION$
      3864**DCL      5382>>ASSIGN
QQ_GLOBAL.STATION_CNT
      3858**DCL      5381>>DOINDEX
S$
      4533**DCL      4535--IMP-PTR  5382<<ASSIGN   5384>>CALL     5386>>ASSIGN   5387>>ASSIGN   5388>>ASSIGN
      5389>>ASSIGN   5390>>ASSIGN   5391>>ASSIGN   5392>>ASSIGN   5393>>ASSIGN   5395>>IF       5395>>IF
      5399>>ASSIGN
STATION
      4878**DCL      5353<<ASSIGN   5357<<ASSIGN   5362>>IF       5362>>IF       5366>>IF       5371<<ASSIGN
      5384<>CALL
TEXTC_FID
      5320**DCL      5407--ASSIGN
TEXTC_FID.L#
PL6.E3A0      #001=QQB$SPY File=QQB$SPY.:E05TSI                                  WED 07/30/97 05:36 Page:35
      5320**DCL      5408<<ASSIGN
TEXTC_FID.NAME#
      5320**DCL      5409<<ASSIGN
TP$STATION
      4535**DCL      5382--ASSIGN
TP$STATION.CURR_PRIO
      4589**DCL      5390--ASSIGN
TP$STATION.DFLT_FP
      4540**DCL      5389--ASSIGN
TP$STATION.FLAGS.IS_DEBUGGING
      4575**DCL      5393>>ASSIGN
TP$STATION.FLAGS.MCT
      4565**DCL      5392>>ASSIGN
TP$STATION.FLAGS.PRIV
      4563**DCL      5391>>ASSIGN
TP$STATION.FP
      4538**DCL      5388--ASSIGN   5395>>IF
TP$STATION.FPLDTRC$
      4555**DCL      5395>>IF       5399>>ASSIGN
TP$STATION.ID
      4536**DCL      5384<>CALL     5386--ASSIGN
TP$STATION.LOGON_UTS
      4544**DCL      5387--ASSIGN
UNFID_SIZE
      4737**DCL      5188--DCLINIT  5408>>ASSIGN
VLP$FPRG.ACCT#
      4683**DCL      5402>>ASSIGN
VLP$FPRG.NAME.C#
      4682**DCL      5401>>ASSIGN
VLP$FPRG.NAME.L#
      4681**DCL      5400>>ASSIGN
VLP$FPRG.PSN#
      4679**DCL      5403>>ASSIGN
VLP_ACCT
      5254**DCL      5185--DCLINIT
VLP_ACCT.ACCT#
PL6.E3A0      #001=QQB$SPY File=QQB$SPY.:E05TSI                                  WED 07/30/97 05:36 Page:36
      5254**DCL      5402<<ASSIGN
VLP_NAME
      5241**DCL      5185--DCLINIT
VLP_NAME.L#
      5241**DCL      5400<<ASSIGN
VLP_NAME.NAME#
      5241**DCL      5401<<ASSIGN
VLP_PASS
      5267**DCL      5186--DCLINIT
VLP_PASS.PASS#
      5267**DCL      5404<<ASSIGN
VLP_SN
      5280**DCL      5186--DCLINIT
VLP_SN.SN#
      5280**DCL      5403<<ASSIGN
VLP_WSN
      5293**DCL      5186--DCLINIT
X$FORMAT
      4492**DCL-ENT  5394--CALL
