VERSION E05

PL6.E3A0      #001=QQB$START File=QQB$START.:E05TSI                              WED 07/30/97 05:36 Page:1
        1        1        /*M* QQB$START - Perform  START and DEBUG commands */
        2        2        /*T***********************************************************/
        3        3        /*T*                                                         */
        4        4        /*T* Copyright (c) Bull HN Information Systems Inc., 1997    */
        5        5        /*T*                                                         */
        6        6        /*T***********************************************************/
        7        7        /*X* IND=2, DCI=4, CSU=2, ECU=4, DTI=2, CTI=4, AND */
        8        8        QQB$START: PROC;
        9        9        %INCLUDE Q_PAGE_C;
       10       41        %SET LISTEXP = '1'B;
       11       42        %PAGE(ARG="Includes");

                59        /***************************************************************************
                60         *                                                                         *
                61         *                                  Includes                               *
                62         *                                                                         *
                63         ***************************************************************************/

       12       67        %INCLUDE CP_6;
       13      148        %INCLUDE CP_6_SUBS;
       14      688        %INCLUDE B_ERRORS_C;
       15     1815        %INCLUDE XU_MACRO_C;
       16     4921        %INCLUDE QQ_MACROS_C;
       17     5346        %INCLUDE QQ_DATA_R;
       18     5592        %INCLUDE QT_MACROS_C;
       19     5750        %INCLUDE QQ_SUBS_C;
       20     5942        %INCLUDE QQ_PERR_C;
       21     6103        %INCLUDE Q_ERRCODE_C;
       22     6126        %PAGE(ARG="Externally defined routines");

              6143    1   /***************************************************************************
              6144    1    *                                                                         *
              6145    1    *                        Externally defined routines                      *
              6146    1    *                                                                         *
              6147    1    ***************************************************************************/

       23     6151    1   DCL QQA$BYTYPE ENTRY(4) ALTRET;
PL6.E3A0      #001=QQB$START File=QQB$START.:E05TSI                              WED 07/30/97 05:36 Page:2
       24     6152    1   DCL QQC$SCREECH ENTRY;
       25     6153    1   DCL QQC$BLDMSG_BLK ENTRY(1);
       26     6154    1   DCL QQC$BLDMSG ENTRY(1);
       27     6155    1   DCL QQC$GET_BLK ENTRY(3) ALTRET;
       28     6156    1   DCL QQC$RLS_BLK ENTRY(2);
       29     6157        %PAGE(ARG="Symrefs");

              6174    1   /***************************************************************************
              6175    1    *                                                                         *
              6176    1    *                                  Symrefs                                *
              6177    1    *                                                                         *
              6178    1    ***************************************************************************/

       30     6182    1   DCL B$TCB$ PTR SYMREF;
       31     6183        %PAGE(ARG="DCBs");

              6200    1   /***************************************************************************
              6201    1    *                                                                         *
              6202    1    *                                    DCBs                                 *
              6203    1    *                                                                         *
              6204    1    ***************************************************************************/

       32     6208    1   DCL M$CG DCB;
       33     6209        %PAGE(ARG="Based");

              6226    1   /***************************************************************************
              6227    1    *                                                                         *
              6228    1    *                                   Based                                 *
              6229    1    *                                                                         *
              6230    1    ***************************************************************************/

       34     6234        %TP$STATION;
       35     6307        %TPU$INFO;
       36     6336        %PARSE$OUT(STCLASS=BASED);
       37     6381        %PARSE$SYM(STCLASS=BASED);
       38     6419        %B$ALT;
       39     6427        %B$TCB;
PL6.E3A0      #001=QQB$START File=QQB$START.:E05TSI                              WED 07/30/97 05:36 Page:3
       40     6430        %QT$FORM(STCLASS=BASED);
       41     6469        %PAGE(ARG="Static");

              6486    1   /***************************************************************************
              6487    1    *                                                                         *
              6488    1    *                                   Static                                *
              6489    1    *                                                                         *
              6490    1    ***************************************************************************/

       42     6494    1   DCL FID CHAR(80) STATIC;
       43     6495        %PAGE(ARG="Constant");

              6512    1   /***************************************************************************
              6513    1    *                                                                         *
              6514    1    *                                  Constant                               *
              6515    1    *                                                                         *
              6516    1    ***************************************************************************/

       44     6520    1   DCL EXIT_XACTION CHAR(3) CONSTANT INIT('001');
       45     6521        %PAGE(ARG="Auto");

              6538    1   /***************************************************************************
              6539    1    *                                                                         *
              6540    1    *                                    Auto                                 *
              6541    1    *                                                                         *
              6542    1    ***************************************************************************/

       46     6546    1   DCL FP CHAR(8);
       47     6547    1   DCL ERR UBIN;
       48     6548        %MSGBLK;
       49     6638        %PAGE(ARG="Error codes", PAGE=YES);

PL6.E3A0      #001=QQB$START File=QQB$START.:E05TSI                              WED 07/30/97 05:36 Page:4
              6655    1   /***************************************************************************
              6656    1    *                                                                         *
              6657    1    *                                Error codes                              *
              6658    1    *                                                                         *
              6659    1    ***************************************************************************/

       50     6663        %ERRCODE(NAME=CODE_FPAD, CODE#=%E$FPAD, FCG#=%FCG_QQ, MID#=%MID_B);
       51     6670        %ERRCODE(NAME=CODE_IFP, CODE#=%E$IFP, FCG#=%FCG_QQ, MID#=%MID_B);
       52     6677        %ERRCODE(NAME=CODE_NO_POOLMEM, CODE#=%E$NO_POOLMEM, FCG#=%FCG_QQ, MID#=%MID_A);
       53     6684        %ERRCODE(NAME=CODE_BIP, CODE#=%E$BIP, FCG#=%FCG_QQ, MID#=%MID_B);
       54     6691        %ERRCODE(NAME=CODE_BAD_RU_OPTS, CODE#=%E$BAD_RU_OPTS, FCG#=%FCG_QQ, MID#=%MID_B);
       55     6698        /*E*      ERROR:QQB-E$BAD_RU_OPTS-C
       56     6699                  MESSAGE: Invalid RUNUNIT options
       57     6700                  DESCRIPTION: Options may not be specified in RUNUNIT command
       58     6701                               when it follows an UNDER command
       59     6702        */
       60     6703        %PAGE(ARG="FPTs", PAGE=YES);

PL6.E3A0      #001=QQB$START File=QQB$START.:E05TSI                              WED 07/30/97 05:36 Page:5
              6720    1   /***************************************************************************
              6721    1    *                                                                         *
              6722    1    *                                    FPTs                                 *
              6723    1    *                                                                         *
              6724    1    ***************************************************************************/

       61     6728        %FPT_OPEN;
       62     6837        %FPT_FID(NAME=VLP_NAME, PASS=VLP_PASS, RESULTS=VLR_FID,
       63     6838        ACCT=VLP_ACCT, ASN="FPT_OPEN.V.ASN#", SN=VLP_SN,
       64     6839        RES="FPT_OPEN.V.RES#", WSN=VLP_WSN, TEXTFID=FID);
       65     6862        %FPT_WRITE(DCB=M$CG, STATION=VLP_STATION, BUF=EXIT_XACTION);
       66     6893        %PAGE(ARG="VLPs");

              6910    1   /***************************************************************************
              6911    1    *                                                                         *
              6912    1    *                                    VLPs                                 *
              6913    1    *                                                                         *
              6914    1    ***************************************************************************/

       67     6918        %VLP_ACCT;
       68     6931        %VLP_NAME;
       69     6958        %VLP_PASS;
       70     6971        %VLP_SN;
       71     6984        %VLP_WSN;
       72     6997        %VLP_STATION(LATCH=YES);
       73     7024        %PAGE(ARG="VLRs");

              7041    1   /***************************************************************************
              7042    1    *                                                                         *
              7043    1    *                                    VLRs                                 *
              7044    1    *                                                                         *
              7045    1    ***************************************************************************/

       74     7049        %VLR_FID;
       75     7068        %PAGE(ARG="QQB$START", PAGE=YES);

PL6.E3A0      #001=QQB$START File=QQB$START.:E05TSI                              WED 07/30/97 05:36 Page:6
              7085    1   /***************************************************************************
              7086    1    *                                                                         *
              7087    1    *                                 QQB$START                               *
              7088    1    *                                                                         *
              7089    1    ***************************************************************************/

       76     7093    1           S$ = QQ_CMDBLK.S$;
       77     7094    1           IF TP$STATION.FLAGS.IS_QT$FORM THEN
       78     7095    2             DO;
       79     7096    2               QQ_CMDBLK.MINOR_ERR = CODE_BIP;
       80     7097    2               CALL QQC$BLDMSG_BLK(MSGBLK);
       81     7098    2               CALL QQC$BLDMSG(MSGBLK);
       82     7099    2               RETURN;
       83     7100    2             END;
       84     7101    1           IF QQ_CMDBLK.OUT$ -> OUT$BLK.NSUBLKS > 0 THEN
       85     7102    2             DO;                           /* GET TYPE                           */
       86     7103    2               FID = QQ_CMDBLK.OUT$ -> OUT$BLK.SUBLK$(0) -> OUT$SYM.TEXT;
       87     7104    2               CALL M$FID(FPT_FID) ALTRET(FID_ERR);
       88     7105    2               IF FPT_OPEN.V.ASN# ~= 1 OR
       89     7106    2                   VLP_NAME.L# > 8 OR
       90     7107    2                   VLR_FID.PASS OR
       91     7108    2                   VLR_FID.SN OR
       92     7109    2                   VLR_FID.WSN OR
       93     7110    2                   VLR_FID.RES THEN
       94     7111    3                 DO;
       95     7112    3                   QQ_CMDBLK.MINOR_ERR = CODE_IFP;
       96     7113    3                   CALL PRINT_ERR;
       97     7114    3                   RETURN;
       98     7115    3                 END;
       99     7116    2               FP = VLP_NAME.NAME#;
      100     7117    2             END;
      101     7118    1           ELSE FP = '*DFLT';
      102     7119    1           IF TP$STATION.QT$FORM$ = ADDR(NIL) THEN
      103     7120    1             CALL QQC$GET_BLK(QQ_GLOBAL.POOL$, SIZEW(QT$FORM),
      104     7121    1                 TP$STATION.QT$FORM$) ALTRET(NO_MEM);
      105     7122    1           CALL QQA$BYTYPE(S$,TP$STATION.QT$FORM$->QT$FORM,FP,ERR)
      106     7123    2           WHENALTRETURN DO;
PL6.E3A0      #001=QQB$START File=QQB$START.:E05TSI                              WED 07/30/97 05:36 Page:7
      107     7124    2               CALL QQC$RLS_BLK(QQ_GLOBAL.POOL$, TP$STATION.QT$FORM$);
      108     7125    2               TP$STATION.QT$FORM$ = ADDR(NIL);
      109     7126    2               TP$STATION.FLAGS.IS_QT$FORM = '0'B;
      110     7127    2               RETURN;
      111     7128    2             END;
      112     7129    1           TP$STATION.FLAGS.IS_QT$FORM = '1'B;
      113     7130    1           IF QQ_CMDBLK.OUT$->OUT$BLK.NSUBLKS>0
      114     7131    1               AND TP$STATION.QT$FORM$->QT$FORM.FP.PASS~=VLP_ACCT.ACCT#
      115     7132    2           THEN DO;
      116     7133    2               QQ_CMDBLK.MINOR_ERR = CODE_FPAD;
      117     7134    2               CALL PRINT_ERR;
      118     7135    2               RETURN;
      119     7136    2             END;
      120     7137    2           IF QQ_CMDBLK.OUT$ -> OUT$BLK.NSUBLKS = 2 THEN DO;
      121     7138    3               IF TP$STATION.FLAGS.UNDER_SET THEN DO;
      122     7139    3                   QQ_CMDBLK.MINOR_ERR = CODE_BAD_RU_OPTS;
      123     7140    3                   CALL PRINT_ERR;
      124     7141    3                   RETURN;
      125     7142    3                 END;
      126     7143    2               IF QQ_CMDBLK.OUT$->OUT$BLK.SUBLK$(1)->OUT$BLK.CODE = 1 /* OPT_DFLT */
      127     7144    2               THEN TP$STATION.DFLT_FP = FP; /* BY DEFAULT                       */
      128     7145    2               ELSE QQ_CMDBLK.S$ -> TP$STATION.FLAGS.SET_DEBUG = '1'B;
      129     7146    2             END;
      130     7147    2           ELSE DO;
      131     7148    3               IF TP$STATION.FLAGS.UNDER_SET THEN DO;
      132     7149    3                   TP$STATION.FLAGS.SET_DEBUG = '1'B;
      133     7150    3                   TP$STATION.FLAGS.UNDER_SET = '0'B;
      134     7151    3                 END;
      135     7152    2             END;
      136     7153    1           VLP_STATION.STATION# = QQ_CMDBLK.S$ -> TP$STATION.ID;
      137     7154    1           CALL M$WRITE(FPT_WRITE) ALTRET(MON_ERR);
      138     7155    1           RETURN;
      139     7156    1   QQB$UNDER: ENTRY ;
      140     7157    1           S$ = QQ_CMDBLK.S$;
      141     7158    1           TP$STATION.FLAGS.UNDER_SET = '1'B;
      142     7159    1           RETURN;
      143     7160        /* */
PL6.E3A0      #001=QQB$START File=QQB$START.:E05TSI                              WED 07/30/97 05:36 Page:8
      144     7161    1   FID_ERR: QQ_CMDBLK.MINOR_ERR = CODE_IFP;
      145     7162    1           CALL PRINT_ERR;
      146     7163    1           RETURN;
      147     7164    1   NO_MEM: QQ_GLOBAL.ERR = CODE_NO_POOLMEM;
      148     7165    1           CALL QQC$SCREECH;
      149     7166    1   MON_ERR: QQ_GLOBAL.ERR = B$TCB$ -> B$TCB.ALT$ -> B$ALT.ERR;
      150     7167    1           CALL QQC$SCREECH;
      151     7168                %PAGE(ARG="PRINT_ERR", PAGE=YES);

PL6.E3A0      #001=QQB$START File=QQB$START.:E05TSI                              WED 07/30/97 05:36 Page:9
              7185    1   /***************************************************************************
              7186    1    *                                                                         *
              7187    1    *                                 PRINT_ERR                               *
              7188    1    *                                                                         *
              7189    1    ***************************************************************************/

      152     7193        /* */
      153     7194    1   PRINT_ERR: PROC;
      154     7195    2           CALL QQC$BLDMSG_BLK(MSGBLK);
      155     7196    2           CALL QQC$BLDMSG(MSGBLK);
      156     7197    2           IF TP$STATION.QT$FORM$ ~= ADDR(NIL) THEN
      157     7198    3             DO;
      158     7199    3               CALL QQC$RLS_BLK(QQ_GLOBAL.POOL$, TP$STATION.QT$FORM$);
      159     7200    3               TP$STATION.QT$FORM$ = ADDR(NIL);
      160     7201    3               TP$STATION.FLAGS.IS_QT$FORM = '0'B;
      161     7202    3             END;
      162     7203    2           RETURN;
      163     7204    2   END PRINT_ERR;
      164     7205    1   END QQB$START;

PL6.E3A0      #001=QQB$START File=QQB$START.:E05TSI                              WED 07/30/97 05:36 Page:10
--  Include file information  --

   Q_ERRCODE_C.:E05TOU  is referenced.
   QQ_PERR_C.:E05TOU  is referenced.
   QQ_SUBS_C.:E05TOU  is referenced.
   QT_MACROS_C.:E05TOU  is referenced.
   QQ_DATA_R.:E05TOU  cannot be made into a system file and is referenced.
   QQ_MACROS_C.:E05TOU  is referenced.
   XU_MACRO_C.:E05TOU  is referenced.
   B_ERRORS_C.:E05TOU  is referenced.
   CP_6_SUBS.:E05TOU  is referenced.
   CP_6.:E05TOU  cannot be made into a system file and is referenced.
   Q_PAGE_C.:E05TOU  is referenced.
   B$JIT_C.:E05TOU  was found in the system file and is never referenced.
   CP_6_C.:E05TOU  was found in the system file and is referenced.
      No diagnostics issued in procedure QQB$START.

   Procedure QQB$START requires 217 words for executable code.
   Procedure QQB$START requires 36 words of local(AUTO) storage.

    No errors detected in file QQB$START.:E05TSI    .

PL6.E3A0      #001=QQB$START File=QQB$START.:E05TSI                              WED 07/30/97 05:36 Page:11

 Object Unit name= QQB$START                                  File name= QQB$START.:E05TOU
 UTS= JUL 30 '97 05:36:24.44 WED                              Compiler= PL-6/E31         Sev=      00
 SharedLib= :SHARED_SYSTEM                                    Alt SharedLib=


    ****  Control sections  ****

 Sect   Type Bound  Init  Size OctSiz  Section name(segment info)
    0   DCB   even  none     0      0  M$UC
    1   DCB   even  none     0      0  M$CG
    2   Data  even  none   150    226  QQB$START
    3  RoData even  UTS      8     10  QQB$START
    4   Proc  even  none   217    331  QQB$START
    5  RoData even  none     4      4  QQB$START

    ****  Entry defs  ****

                              Check   Calling
                             calling  sequence
  Sect OctLoc Primary Altret sequence   type   Parms  Name
     4      0   yes            yes      Std        0  QQB$START
     4    236                  yes      Std        0  QQB$UNDER

  ****  Entry refs  ****

         Check        Calling
        calling       sequence
Altret sequence SRef   type   Args  Name
         yes           Std       1 QQC$BLDMSG_BLK
         yes           Std       1 QQC$BLDMSG
         yes           Std       0 QQC$SCREECH
         yes           Std       2 QQC$RLS_BLK
 yes     yes           Std       3 QQC$GET_BLK
 yes     yes           Std       4 QQA$BYTYPE
                       nStd      0 X66_AUTO_0
                       Std       0 B_CONSPOOL_D
                       nStd      0 X66_ARET
PL6.E3A0      #001=QQB$START File=QQB$START.:E05TSI                              WED 07/30/97 05:36 Page:12

  ****  Data refs  ****

  Flags:  r = read only, s = secondary
Flgs Name                             Flgs Name                             Flgs Name
     M$UC                                  QQ_CMDBLK                             QQ_GLOBAL
     B$TCB$                                M$CG                                  B_VECTNIL

  ****  Segment refs  ****

  Flags:  r = read only, s = secondary
Flgs Name                             Flgs Name                             Flgs Name
     ISSID                                 NULLSID
PL6.E3A0      #001=QQB$START File=QQB$START.:E05TSI                              WED 07/30/97 05:36 Page:13


        1        1        /*M* QQB$START - Perform  START and DEBUG commands */
        2        2        /*T***********************************************************/
        3        3        /*T*                                                         */
        4        4        /*T* Copyright (c) Bull HN Information Systems Inc., 1997    */
        5        5        /*T*                                                         */
        6        6        /*T***********************************************************/
        7        7        /*X* IND=2, DCI=4, CSU=2, ECU=4, DTI=2, CTI=4, AND */
        8        8        QQB$START: PROC;

      8  4 000000   000000 700200 xent  QQB$START    TSX0  ! X66_AUTO_0
         4 000001   000044 000000                    ZERO    36,0

        9        9        %INCLUDE Q_PAGE_C;
       10       41        %SET LISTEXP = '1'B;
       11       42        %PAGE(ARG="Includes");

                59        /***************************************************************************
                60         *                                                                         *
                61         *                                  Includes                               *
                62         *                                                                         *
                63         ***************************************************************************/

       12       67        %INCLUDE CP_6;
       13      148        %INCLUDE CP_6_SUBS;
       14      688        %INCLUDE B_ERRORS_C;
       15     1815        %INCLUDE XU_MACRO_C;
       16     4921        %INCLUDE QQ_MACROS_C;
       17     5346        %INCLUDE QQ_DATA_R;
       18     5592        %INCLUDE QT_MACROS_C;
       19     5750        %INCLUDE QQ_SUBS_C;
       20     5942        %INCLUDE QQ_PERR_C;
       21     6103        %INCLUDE Q_ERRCODE_C;
       22     6126        %PAGE(ARG="Externally defined routines");

              6143    1   /***************************************************************************
              6144    1    *                                                                         *
PL6.E3A0      #001=QQB$START File=QQB$START.:E05TSI                              WED 07/30/97 05:36 Page:14
              6145    1    *                        Externally defined routines                      *
              6146    1    *                                                                         *
              6147    1    ***************************************************************************/

       23     6151    1   DCL QQA$BYTYPE ENTRY(4) ALTRET;
       24     6152    1   DCL QQC$SCREECH ENTRY;
       25     6153    1   DCL QQC$BLDMSG_BLK ENTRY(1);
       26     6154    1   DCL QQC$BLDMSG ENTRY(1);
       27     6155    1   DCL QQC$GET_BLK ENTRY(3) ALTRET;
       28     6156    1   DCL QQC$RLS_BLK ENTRY(2);
       29     6157        %PAGE(ARG="Symrefs");

              6174    1   /***************************************************************************
              6175    1    *                                                                         *
              6176    1    *                                  Symrefs                                *
              6177    1    *                                                                         *
              6178    1    ***************************************************************************/

       30     6182    1   DCL B$TCB$ PTR SYMREF;
       31     6183        %PAGE(ARG="DCBs");

              6200    1   /***************************************************************************
              6201    1    *                                                                         *
              6202    1    *                                    DCBs                                 *
              6203    1    *                                                                         *
              6204    1    ***************************************************************************/

       32     6208    1   DCL M$CG DCB;
       33     6209        %PAGE(ARG="Based");

              6226    1   /***************************************************************************
              6227    1    *                                                                         *
              6228    1    *                                   Based                                 *
              6229    1    *                                                                         *
              6230    1    ***************************************************************************/

       34     6234        %TP$STATION;
PL6.E3A0      #001=QQB$START File=QQB$START.:E05TSI                              WED 07/30/97 05:36 Page:15
       35     6307        %TPU$INFO;
       36     6336        %PARSE$OUT(STCLASS=BASED);
       37     6381        %PARSE$SYM(STCLASS=BASED);
       38     6419        %B$ALT;
       39     6427        %B$TCB;
       40     6430        %QT$FORM(STCLASS=BASED);
       41     6469        %PAGE(ARG="Static");

              6486    1   /***************************************************************************
              6487    1    *                                                                         *
              6488    1    *                                   Static                                *
              6489    1    *                                                                         *
              6490    1    ***************************************************************************/

       42     6494    1   DCL FID CHAR(80) STATIC;
       43     6495        %PAGE(ARG="Constant");

              6512    1   /***************************************************************************
              6513    1    *                                                                         *
              6514    1    *                                  Constant                               *
              6515    1    *                                                                         *
              6516    1    ***************************************************************************/

       44     6520    1   DCL EXIT_XACTION CHAR(3) CONSTANT INIT('001');
       45     6521        %PAGE(ARG="Auto");

              6538    1   /***************************************************************************
              6539    1    *                                                                         *
              6540    1    *                                    Auto                                 *
              6541    1    *                                                                         *
              6542    1    ***************************************************************************/

       46     6546    1   DCL FP CHAR(8);
       47     6547    1   DCL ERR UBIN;
       48     6548        %MSGBLK;
       49     6638        %PAGE(ARG="Error codes", PAGE=YES);

PL6.E3A0      #001=QQB$START File=QQB$START.:E05TSI                              WED 07/30/97 05:36 Page:16
              6655    1   /***************************************************************************
              6656    1    *                                                                         *
              6657    1    *                                Error codes                              *
              6658    1    *                                                                         *
              6659    1    ***************************************************************************/

       50     6663        %ERRCODE(NAME=CODE_FPAD, CODE#=%E$FPAD, FCG#=%FCG_QQ, MID#=%MID_B);
       51     6670        %ERRCODE(NAME=CODE_IFP, CODE#=%E$IFP, FCG#=%FCG_QQ, MID#=%MID_B);
       52     6677        %ERRCODE(NAME=CODE_NO_POOLMEM, CODE#=%E$NO_POOLMEM, FCG#=%FCG_QQ, MID#=%MID_A);
       53     6684        %ERRCODE(NAME=CODE_BIP, CODE#=%E$BIP, FCG#=%FCG_QQ, MID#=%MID_B);
       54     6691        %ERRCODE(NAME=CODE_BAD_RU_OPTS, CODE#=%E$BAD_RU_OPTS, FCG#=%FCG_QQ, MID#=%MID_B);
       55     6698        /*E*      ERROR:QQB-E$BAD_RU_OPTS-C
       56     6699                  MESSAGE: Invalid RUNUNIT options
       57     6700                  DESCRIPTION: Options may not be specified in RUNUNIT command
       58     6701                               when it follows an UNDER command
       59     6702        */
       60     6703        %PAGE(ARG="FPTs", PAGE=YES);

PL6.E3A0      #001=QQB$START File=QQB$START.:E05TSI                              WED 07/30/97 05:36 Page:17
              6720    1   /***************************************************************************
              6721    1    *                                                                         *
              6722    1    *                                    FPTs                                 *
              6723    1    *                                                                         *
              6724    1    ***************************************************************************/

       61     6728        %FPT_OPEN;
       62     6837        %FPT_FID(NAME=VLP_NAME, PASS=VLP_PASS, RESULTS=VLR_FID,
       63     6838        ACCT=VLP_ACCT, ASN="FPT_OPEN.V.ASN#", SN=VLP_SN,
       64     6839        RES="FPT_OPEN.V.RES#", WSN=VLP_WSN, TEXTFID=FID);
       65     6862        %FPT_WRITE(DCB=M$CG, STATION=VLP_STATION, BUF=EXIT_XACTION);
       66     6893        %PAGE(ARG="VLPs");

              6910    1   /***************************************************************************
              6911    1    *                                                                         *
              6912    1    *                                    VLPs                                 *
              6913    1    *                                                                         *
              6914    1    ***************************************************************************/

       67     6918        %VLP_ACCT;
       68     6931        %VLP_NAME;
       69     6958        %VLP_PASS;
       70     6971        %VLP_SN;
       71     6984        %VLP_WSN;
       72     6997        %VLP_STATION(LATCH=YES);
       73     7024        %PAGE(ARG="VLRs");

              7041    1   /***************************************************************************
              7042    1    *                                                                         *
              7043    1    *                                    VLRs                                 *
              7044    1    *                                                                         *
              7045    1    ***************************************************************************/

       74     7049        %VLR_FID;
       75     7068        %PAGE(ARG="QQB$START", PAGE=YES);

PL6.E3A0      #001=QQB$START File=QQB$START.:E05TSI                              WED 07/30/97 05:36 Page:18
              7085    1   /***************************************************************************
              7086    1    *                                                                         *
              7087    1    *                                 QQB$START                               *
              7088    1    *                                                                         *
              7089    1    ***************************************************************************/

       76     7093    1           S$ = QQ_CMDBLK.S$;

   7093  4 000002   000004 236000 xsym               LDQ     QQ_CMDBLK+4
         4 000003   200003 756100                    STQ     S$,,AUTO

       77     7094    1           IF TP$STATION.FLAGS.IS_QT$FORM THEN

   7094  4 000004   200003 470500                    LDP0    S$,,AUTO
         4 000005   000022 430100                    FSZN    18,,PR0
         4 000006   000026 605000 4                  TPL     s:7101

       78     7095    2             DO;

       79     7096    2               QQ_CMDBLK.MINOR_ERR = CODE_BIP;

   7096  4 000007   000004 236000 3                  LDQ     CODE_BIP
         4 000010   000001 756000 xsym               STQ     QQ_CMDBLK+1

       80     7097    2               CALL QQC$BLDMSG_BLK(MSGBLK);

   7097  4 000011   200010 631500                    EPPR1   MSGBLK,,AUTO
         4 000012   200040 451500                    STP1    MSGBLK+24,,AUTO
         4 000013   200040 630500                    EPPR0   MSGBLK+24,,AUTO
         4 000014   000017 631400 xsym               EPPR1   B_VECTNIL+15
         4 000015   000000 701000 xent               TSX1    QQC$BLDMSG_BLK
         4 000016   000000 011000                    NOP     0

       81     7098    2               CALL QQC$BLDMSG(MSGBLK);

   7098  4 000017   200010 630500                    EPPR0   MSGBLK,,AUTO
         4 000020   200040 450500                    STP0    MSGBLK+24,,AUTO
PL6.E3A0      #001=QQB$START File=QQB$START.:E05TSI                              WED 07/30/97 05:36 Page:19
         4 000021   200040 630500                    EPPR0   MSGBLK+24,,AUTO
         4 000022   000017 631400 xsym               EPPR1   B_VECTNIL+15
         4 000023   000000 701000 xent               TSX1    QQC$BLDMSG
         4 000024   000000 011000                    NOP     0

       82     7099    2               RETURN;

   7099  4 000025   000000 702200 xent               TSX2  ! X66_ARET

       83     7100    2             END;
       84     7101    1           IF QQ_CMDBLK.OUT$ -> OUT$BLK.NSUBLKS > 0 THEN

   7101  4 000026   000005 471400 xsym               LDP1    QQ_CMDBLK+5
         4 000027   100001 220100                    LDX0    1,,PR1
         4 000030   000076 600000 4                  TZE     s:7118

       85     7102    2             DO;                           /* GET TYPE                           */

       86     7103    2               FID = QQ_CMDBLK.OUT$ -> OUT$BLK.SUBLK$(0) -> OUT$SYM.TEXT;

   7103  4 000031   100003 473500                    LDP3    3,,PR1
         4 000032   300004 236100                    LDQ     4,,PR3
         4 000033   000033 772000                    QRL     27
         4 000034   000000 621006                    EAX1    0,QL
         4 000035   040000 100540                    MLR     fill='040'O
         4 000036   300004 200011                    ADSC9   4,,PR3                   cn=1,n=*X1
         4 000037   000000 000120 2                  ADSC9   FID                      cn=0,n=80

       87     7104    2               CALL M$FID(FPT_FID) ALTRET(FID_ERR);

   7104  4 000040   000116 630400 2                  EPPR0   FPT_FID
         4 000041   420001 713400                    CLIMB   alt,+8193
         4 000042   404400 401760                    pmme    nvectors=10
         4 000043   000246 702000 4                  TSX2    FID_ERR

       88     7105    2               IF FPT_OPEN.V.ASN# ~= 1 OR

PL6.E3A0      #001=QQB$START File=QQB$START.:E05TSI                              WED 07/30/97 05:36 Page:20
   7105  4 000044   000071 236000 2                  LDQ     FPT_OPEN+37
         4 000045   000777 376007                    ANQ     511,DL
         4 000046   000001 116007                    CMPQ    1,DL
         4 000047   000065 601000 4                  TNZ     s:7112
         4 000050   000164 236000 2                  LDQ     VLP_NAME
         4 000051   777000 376003                    ANQ     -512,DU
         4 000052   011000 116003                    CMPQ    4608,DU
         4 000053   000065 603000 4                  TRC     s:7112
         4 000054   000214 236000 2                  LDQ     VLR_FID
         4 000055   100000 316003                    CANQ    32768,DU
         4 000056   000065 601000 4                  TNZ     s:7112
         4 000057   040000 316003                    CANQ    16384,DU
         4 000060   000065 601000 4                  TNZ     s:7112
         4 000061   020000 316003                    CANQ    8192,DU
         4 000062   000065 601000 4                  TNZ     s:7112
         4 000063   004000 316003                    CANQ    2048,DU
         4 000064   000072 600000 4                  TZE     s:7116

       89     7106    2                   VLP_NAME.L# > 8 OR
       90     7107    2                   VLR_FID.PASS OR
       91     7108    2                   VLR_FID.SN OR
       92     7109    2                   VLR_FID.WSN OR
       93     7110    2                   VLR_FID.RES THEN
       94     7111    3                 DO;

       95     7112    3                   QQ_CMDBLK.MINOR_ERR = CODE_IFP;

   7112  4 000065   000002 236000 3                  LDQ     CODE_IFP
         4 000066   000001 756000 xsym               STQ     QQ_CMDBLK+1

       96     7113    3                   CALL PRINT_ERR;

   7113  4 000067   000270 701000 4                  TSX1    PRINT_ERR
         4 000070   000000 011000                    NOP     0

       97     7114    3                   RETURN;

PL6.E3A0      #001=QQB$START File=QQB$START.:E05TSI                              WED 07/30/97 05:36 Page:21
   7114  4 000071   000000 702200 xent               TSX2  ! X66_ARET

       98     7115    3                 END;
       99     7116    2               FP = VLP_NAME.NAME#;

   7116  4 000072   040100 100400                    MLR     fill='040'O
         4 000073   000164 200010 2                  ADSC9   VLP_NAME                 cn=1,n=8
         4 000074   200005 000010                    ADSC9   FP,,AUTO                 cn=0,n=8

      100     7117    2             END;

   7117  4 000075   000101 710000 4                  TRA     s:7119

      101     7118    1           ELSE FP = '*DFLT';

   7118  4 000076   040100 100400                    MLR     fill='040'O
         4 000077   000006 000005 3                  ADSC9   CODE_BAD_RU_OPTS+1       cn=0,n=5
         4 000100   200005 000010                    ADSC9   FP,,AUTO                 cn=0,n=8

      102     7119    1           IF TP$STATION.QT$FORM$ = ADDR(NIL) THEN

   7119  4 000101   200003 470500                    LDP0    S$,,AUTO
         4 000102   000015 236100                    LDQ     13,,PR0
         4 000103   000001 116000 xsym               CMPQ    B_VECTNIL+1
         4 000104   000116 601000 4                  TNZ     s:7122

      103     7120    1             CALL QQC$GET_BLK(QQ_GLOBAL.POOL$, SIZEW(QT$FORM),

   7120  4 000105   200003 236100                    LDQ     S$,,AUTO
         4 000106   000015 036003                    ADLQ    13,DU
         4 000107   200042 756100                    STQ     MSGBLK+26,,AUTO
         4 000110   000002 237000 5                  LDAQ    2
         4 000111   200040 757100                    STAQ    MSGBLK+24,,AUTO
         4 000112   200040 630500                    EPPR0   MSGBLK+24,,AUTO
         4 000113   000021 631400 xsym               EPPR1   B_VECTNIL+17
         4 000114   000000 701000 xent               TSX1    QQC$GET_BLK
         4 000115   000253 702000 4                  TSX2    NO_MEM
PL6.E3A0      #001=QQB$START File=QQB$START.:E05TSI                              WED 07/30/97 05:36 Page:22

      104     7121    1                 TP$STATION.QT$FORM$) ALTRET(NO_MEM);
      105     7122    1           CALL QQA$BYTYPE(S$,TP$STATION.QT$FORM$->QT$FORM,FP,ERR)

   7122  4 000116   200003 470500                    LDP0    S$,,AUTO
         4 000117   000015 471500                    LDP1    13,,PR0
         4 000120   200007 633500                    EPPR3   ERR,,AUTO
         4 000121   200043 453500                    STP3    MSGBLK+27,,AUTO
         4 000122   200005 634500                    EPPR4   FP,,AUTO
         4 000123   200042 454500                    STP4    MSGBLK+26,,AUTO
         4 000124   200041 451500                    STP1    MSGBLK+25,,AUTO
         4 000125   200003 635500                    EPPR5   S$,,AUTO
         4 000126   200040 455500                    STP5    MSGBLK+24,,AUTO
         4 000127   200040 630500                    EPPR0   MSGBLK+24,,AUTO
         4 000130   000022 631400 xsym               EPPR1   B_VECTNIL+18
         4 000131   000000 701000 xent               TSX1    QQA$BYTYPE
         4 000132   000134 702000 4                  TSX2    s:7124
         4 000133   000152 710000 4                  TRA     s:7129

      106     7123    2           WHENALTRETURN DO;

      107     7124    2               CALL QQC$RLS_BLK(QQ_GLOBAL.POOL$, TP$STATION.QT$FORM$);

   7124  4 000134   200003 236100                    LDQ     S$,,AUTO
         4 000135   000015 036003                    ADLQ    13,DU
         4 000136   000002 235000 5                  LDA     2
         4 000137   200040 757100                    STAQ    MSGBLK+24,,AUTO
         4 000140   200040 630500                    EPPR0   MSGBLK+24,,AUTO
         4 000141   000020 631400 xsym               EPPR1   B_VECTNIL+16
         4 000142   000000 701000 xent               TSX1    QQC$RLS_BLK
         4 000143   000000 011000                    NOP     0

      108     7125    2               TP$STATION.QT$FORM$ = ADDR(NIL);

   7125  4 000144   000001 236000 xsym               LDQ     B_VECTNIL+1
         4 000145   200003 470500                    LDP0    S$,,AUTO
         4 000146   000015 756100                    STQ     13,,PR0
PL6.E3A0      #001=QQB$START File=QQB$START.:E05TSI                              WED 07/30/97 05:36 Page:23

      109     7126    2               TP$STATION.FLAGS.IS_QT$FORM = '0'B;

   7126  4 000147   000001 236000 5                  LDQ     1
         4 000150   000022 356100                    ANSQ    18,,PR0

      110     7127    2               RETURN;

   7127  4 000151   000000 702200 xent               TSX2  ! X66_ARET

      111     7128    2             END;
      112     7129    1           TP$STATION.FLAGS.IS_QT$FORM = '1'B;

   7129  4 000152   200003 470500                    LDP0    S$,,AUTO
         4 000153   001000 236003                    LDQ     512,DU
         4 000154   000022 256100                    ORSQ    18,,PR0

      113     7130    1           IF QQ_CMDBLK.OUT$->OUT$BLK.NSUBLKS>0

   7130  4 000155   000005 471400 xsym               LDP1    QQ_CMDBLK+5
         4 000156   100001 220100                    LDX0    1,,PR1
         4 000157   000172 600000 4                  TZE     s:7137
         4 000160   000015 473500                    LDP3    13,,PR0
         4 000161   040000 106500                    CMPC    fill='040'O
         4 000162   300014 000010                    ADSC9   12,,PR3                  cn=0,n=8
         4 000163   000162 000010 2                  ADSC9   VLP_ACCT                 cn=0,n=8
         4 000164   000172 600000 4                  TZE     s:7137

      114     7131    1               AND TP$STATION.QT$FORM$->QT$FORM.FP.PASS~=VLP_ACCT.ACCT#
      115     7132    2           THEN DO;

      116     7133    2               QQ_CMDBLK.MINOR_ERR = CODE_FPAD;

   7133  4 000165   000001 236000 3                  LDQ     CODE_FPAD
         4 000166   000001 756000 xsym               STQ     QQ_CMDBLK+1

      117     7134    2               CALL PRINT_ERR;
PL6.E3A0      #001=QQB$START File=QQB$START.:E05TSI                              WED 07/30/97 05:36 Page:24

   7134  4 000167   000270 701000 4                  TSX1    PRINT_ERR
         4 000170   000000 011000                    NOP     0

      118     7135    2               RETURN;

   7135  4 000171   000000 702200 xent               TSX2  ! X66_ARET

      119     7136    2             END;
      120     7137    2           IF QQ_CMDBLK.OUT$ -> OUT$BLK.NSUBLKS = 2 THEN DO;

   7137  4 000172   000002 100003                    CMPX0   2,DU
         4 000173   000217 601000 4                  TNZ     s:7148

      121     7138    3               IF TP$STATION.FLAGS.UNDER_SET THEN DO;

   7138  4 000174   000023 234100                    SZN     19,,PR0
         4 000175   000203 605000 4                  TPL     s:7143

      122     7139    3                   QQ_CMDBLK.MINOR_ERR = CODE_BAD_RU_OPTS;

   7139  4 000176   000005 236000 3                  LDQ     CODE_BAD_RU_OPTS
         4 000177   000001 756000 xsym               STQ     QQ_CMDBLK+1

      123     7140    3                   CALL PRINT_ERR;

   7140  4 000200   000270 701000 4                  TSX1    PRINT_ERR
         4 000201   000000 011000                    NOP     0

      124     7141    3                   RETURN;

   7141  4 000202   000000 702200 xent               TSX2  ! X66_ARET

      125     7142    3                 END;
      126     7143    2               IF QQ_CMDBLK.OUT$->OUT$BLK.SUBLK$(1)->OUT$BLK.CODE = 1 /* OPT_DFLT */

   7143  4 000203   100004 473500                    LDP3    4,,PR1
PL6.E3A0      #001=QQB$START File=QQB$START.:E05TSI                              WED 07/30/97 05:36 Page:25
         4 000204   300000 721100                    LXL1    0,,PR3
         4 000205   000001 101003                    CMPX1   1,DU
         4 000206   000213 601000 4                  TNZ     s:7145

      127     7144    2               THEN TP$STATION.DFLT_FP = FP; /* BY DEFAULT                       */

   7144  4 000207   040100 100500                    MLR     fill='040'O
         4 000210   200005 000010                    ADSC9   FP,,AUTO                 cn=0,n=8
         4 000211   000004 000010                    ADSC9   4,,PR0                   cn=0,n=8
         4 000212   000225 710000 4                  TRA     s:7153

      128     7145    2               ELSE QQ_CMDBLK.S$ -> TP$STATION.FLAGS.SET_DEBUG = '1'B;

   7145  4 000213   000004 474400 xsym               LDP4    QQ_CMDBLK+4
         4 000214   010000 236003                    LDQ     4096,DU
         4 000215   400022 256100                    ORSQ    18,,PR4

      129     7146    2             END;

   7146  4 000216   000225 710000 4                  TRA     s:7153

      130     7147    2           ELSE DO;

      131     7148    3               IF TP$STATION.FLAGS.UNDER_SET THEN DO;

   7148  4 000217   000023 234100                    SZN     19,,PR0
         4 000220   000225 605000 4                  TPL     s:7153

      132     7149    3                   TP$STATION.FLAGS.SET_DEBUG = '1'B;

   7149  4 000221   010000 236003                    LDQ     4096,DU
         4 000222   000022 256100                    ORSQ    18,,PR0

      133     7150    3                   TP$STATION.FLAGS.UNDER_SET = '0'B;

   7150  4 000223   000031 236000 xsym               LDQ     B_VECTNIL+25
         4 000224   000023 356100                    ANSQ    19,,PR0
PL6.E3A0      #001=QQB$START File=QQB$START.:E05TSI                              WED 07/30/97 05:36 Page:26

      134     7151    3                 END;

      135     7152    2             END;

      136     7153    1           VLP_STATION.STATION# = QQ_CMDBLK.S$ -> TP$STATION.ID;

   7153  4 000225   000004 471400 xsym               LDP1    QQ_CMDBLK+4
         4 000226   040000 100500                    MLR     fill='040'O
         4 000227   100000 000010                    ADSC9   0,,PR1                   cn=0,n=8
         4 000230   000204 000010 2                  ADSC9   VLP_STATION              cn=0,n=8

      137     7154    1           CALL M$WRITE(FPT_WRITE) ALTRET(MON_ERR);

   7154  4 000231   000146 630400 2                  EPPR0   FPT_WRITE
         4 000232   440001 713400                    CLIMB   alt,write
         4 000233   401400 401760                    pmme    nvectors=4
         4 000234   000260 702000 4                  TSX2    MON_ERR

      138     7155    1           RETURN;

   7155  4 000235   000000 702200 xent               TSX2  ! X66_ARET

      139     7156    1   QQB$UNDER: ENTRY ;

   7156  4 000236   000000 700200 xent  QQB$UNDER    TSX0  ! X66_AUTO_0
         4 000237   000044 000000                    ZERO    36,0

      140     7157    1           S$ = QQ_CMDBLK.S$;

   7157  4 000240   000004 236000 xsym               LDQ     QQ_CMDBLK+4
         4 000241   200003 756100                    STQ     S$,,AUTO

      141     7158    1           TP$STATION.FLAGS.UNDER_SET = '1'B;

   7158  4 000242   200003 470500                    LDP0    S$,,AUTO
         4 000243   400000 236003                    LDQ     -131072,DU
PL6.E3A0      #001=QQB$START File=QQB$START.:E05TSI                              WED 07/30/97 05:36 Page:27
         4 000244   000023 256100                    ORSQ    19,,PR0

      142     7159    1           RETURN;

   7159  4 000245   000000 702200 xent               TSX2  ! X66_ARET

      143     7160        /* */
      144     7161    1   FID_ERR: QQ_CMDBLK.MINOR_ERR = CODE_IFP;

   7161  4 000246   000002 236000 3     FID_ERR      LDQ     CODE_IFP
         4 000247   000001 756000 xsym               STQ     QQ_CMDBLK+1

      145     7162    1           CALL PRINT_ERR;

   7162  4 000250   000270 701000 4                  TSX1    PRINT_ERR
         4 000251   000000 011000                    NOP     0

      146     7163    1           RETURN;

   7163  4 000252   000000 702200 xent               TSX2  ! X66_ARET

      147     7164    1   NO_MEM: QQ_GLOBAL.ERR = CODE_NO_POOLMEM;

   7164  4 000253   000003 236000 3     NO_MEM       LDQ     CODE_NO_POOLMEM
         4 000254   000000 756000 xsym               STQ     QQ_GLOBAL

      148     7165    1           CALL QQC$SCREECH;

   7165  4 000255   000002 631400 xsym               EPPR1   B_VECTNIL+2
         4 000256   000000 701000 xent               TSX1    QQC$SCREECH
         4 000257   000000 011000                    NOP     0

      149     7166    1   MON_ERR: QQ_GLOBAL.ERR = B$TCB$ -> B$TCB.ALT$ -> B$ALT.ERR;

   7166  4 000260   000000 470400 xsym  MON_ERR      LDP0    B$TCB$
         4 000261   000000 471500                    LDP1    0,,PR0
         4 000262   100102 236100                    LDQ     66,,PR1
PL6.E3A0      #001=QQB$START File=QQB$START.:E05TSI                              WED 07/30/97 05:36 Page:28
         4 000263   000000 756000 xsym               STQ     QQ_GLOBAL

      150     7167    1           CALL QQC$SCREECH;

   7167  4 000264   000002 631400 xsym               EPPR1   B_VECTNIL+2
         4 000265   000000 701000 xent               TSX1    QQC$SCREECH
         4 000266   000000 011000                    NOP     0
         4 000267   000330 710000 4                  TRA     s:7205

      151     7168                %PAGE(ARG="PRINT_ERR", PAGE=YES);

PL6.E3A0      #001=QQB$START File=QQB$START.:E05TSI                              WED 07/30/97 05:36 Page:29
              7185    1   /***************************************************************************
              7186    1    *                                                                         *
              7187    1    *                                 PRINT_ERR                               *
              7188    1    *                                                                         *
              7189    1    ***************************************************************************/

      152     7193        /* */
      153     7194    1   PRINT_ERR: PROC;

   7194  4 000270   200036 741300       PRINT_ERR    STX1  ! MSGBLK+22,,AUTO

      154     7195    2           CALL QQC$BLDMSG_BLK(MSGBLK);

   7195  4 000271   200010 630500                    EPPR0   MSGBLK,,AUTO
         4 000272   200040 450500                    STP0    MSGBLK+24,,AUTO
         4 000273   200040 630500                    EPPR0   MSGBLK+24,,AUTO
         4 000274   000017 631400 xsym               EPPR1   B_VECTNIL+15
         4 000275   000000 701000 xent               TSX1    QQC$BLDMSG_BLK
         4 000276   000000 011000                    NOP     0

      155     7196    2           CALL QQC$BLDMSG(MSGBLK);

   7196  4 000277   200010 630500                    EPPR0   MSGBLK,,AUTO
         4 000300   200040 450500                    STP0    MSGBLK+24,,AUTO
         4 000301   200040 630500                    EPPR0   MSGBLK+24,,AUTO
         4 000302   000017 631400 xsym               EPPR1   B_VECTNIL+15
         4 000303   000000 701000 xent               TSX1    QQC$BLDMSG
         4 000304   000000 011000                    NOP     0

      156     7197    2           IF TP$STATION.QT$FORM$ ~= ADDR(NIL) THEN

   7197  4 000305   200003 470500                    LDP0    S$,,AUTO
         4 000306   000015 236100                    LDQ     13,,PR0
         4 000307   000001 116000 xsym               CMPQ    B_VECTNIL+1
         4 000310   000326 600000 4                  TZE     s:7203

      157     7198    3             DO;
PL6.E3A0      #001=QQB$START File=QQB$START.:E05TSI                              WED 07/30/97 05:36 Page:30

      158     7199    3               CALL QQC$RLS_BLK(QQ_GLOBAL.POOL$, TP$STATION.QT$FORM$);

   7199  4 000311   200003 236100                    LDQ     S$,,AUTO
         4 000312   000015 036003                    ADLQ    13,DU
         4 000313   000002 235000 5                  LDA     2
         4 000314   200040 757100                    STAQ    MSGBLK+24,,AUTO
         4 000315   200040 630500                    EPPR0   MSGBLK+24,,AUTO
         4 000316   000020 631400 xsym               EPPR1   B_VECTNIL+16
         4 000317   000000 701000 xent               TSX1    QQC$RLS_BLK
         4 000320   000000 011000                    NOP     0

      159     7200    3               TP$STATION.QT$FORM$ = ADDR(NIL);

   7200  4 000321   000001 236000 xsym               LDQ     B_VECTNIL+1
         4 000322   200003 470500                    LDP0    S$,,AUTO
         4 000323   000015 756100                    STQ     13,,PR0

      160     7201    3               TP$STATION.FLAGS.IS_QT$FORM = '0'B;

   7201  4 000324   000001 236000 5                  LDQ     1
         4 000325   000022 356100                    ANSQ    18,,PR0

      161     7202    3             END;

      162     7203    2           RETURN;

   7203  4 000326   200036 221300                    LDX1  ! MSGBLK+22,,AUTO
         4 000327   000001 702211                    TSX2  ! 1,X1

      163     7204    2   END PRINT_ERR;
      164     7205    1   END QQB$START;

   7205  4 000330   000000 702200 xent               TSX2  ! X66_ARET

PL6.E3A0      #001=QQB$START File=QQB$START.:E05TSI                              WED 07/30/97 05:36 Page:31
--  Include file information  --

   Q_ERRCODE_C.:E05TOU  is referenced.
   QQ_PERR_C.:E05TOU  is referenced.
   QQ_SUBS_C.:E05TOU  is referenced.
   QT_MACROS_C.:E05TOU  is referenced.
   QQ_DATA_R.:E05TOU  cannot be made into a system file and is referenced.
   QQ_MACROS_C.:E05TOU  is referenced.
   XU_MACRO_C.:E05TOU  is referenced.
   B_ERRORS_C.:E05TOU  is referenced.
   CP_6_SUBS.:E05TOU  is referenced.
   CP_6.:E05TOU  cannot be made into a system file and is referenced.
   Q_PAGE_C.:E05TOU  is referenced.
   B$JIT_C.:E05TOU  was found in the system file and is never referenced.
   CP_6_C.:E05TOU  was found in the system file and is referenced.
      No diagnostics issued in procedure QQB$START.
PL6.E3A0      #001=QQB$START File=QQB$START.:E05TSI                              WED 07/30/97 05:36 Page:32

 **** Variables and constants ****

  ****  Section 002  Data  QQB$START

  ****  Scalars and arrays  ****
OctLoc.c.b A Datatyp(siz) R M Lvl/name                 OctLoc.c.b A Datatyp(siz) R M Lvl/name

     0-0-0/c CHAR(80)    r     1 FID                      116-0-0/d STRC(864)   r     1 FPT_FID
    24-0-0/d STRC(2088)  r     1 FPT_OPEN                 146-0-0/d STRC(432)   r     1 FPT_WRITE
   162-0-0/c STRC(72)    r     1 VLP_ACCT                 164-0-0/c STRC(288)   r     1 VLP_NAME
   174-0-0/c STRC(72)    r     1 VLP_PASS                 176-0-0/d STRC(90)    r     1 VLP_SN
   204-0-0/w STRC(288)   r     1 VLP_STATION              202-0-0/c STRC(72)    r     1 VLP_WSN
   214-0-0/d STRC(324)   r     1 VLR_FID

  ****  Section 003 RoData QQB$START

  ****  Scalars and arrays  ****
OctLoc.c.b A Datatyp(siz) R M Lvl/name                 OctLoc.c.b A Datatyp(siz) R M Lvl/name

     5-0-0/b STRC        r     1 CODE_BAD_RU_OPTS           4-0-0/b STRC        r     1 CODE_BIP
     1-0-0/b STRC        r     1 CODE_FPAD                  2-0-0/b STRC        r     1 CODE_IFP
     3-0-0/b STRC        r     1 CODE_NO_POOLMEM            0-0-0/c CHAR(3)     r     1 EXIT_XACTION

  ****  Auto variables  ****

  ****  Scalars and arrays  ****
OctLoc.c.b A Datatyp(siz) R M Lvl/name                 OctLoc.c.b A Datatyp(siz) R M Lvl/name

     7-0-0/w UBIN        r     1 ERR                        5-0-0/c CHAR(8)     r     1 FP
    10-0-0/w STRC(738)   r     1 MSGBLK                     3-0-0/w PTR         r     1 S$
     4-0-0/w PTR         r     1 T$

  ****  SYMREF variables  ****

  ****  Scalars and arrays  ****
OctLoc.c.b A Datatyp(siz) R M Lvl/name                 OctLoc.c.b A Datatyp(siz) R M Lvl/name

PL6.E3A0      #001=QQB$START File=QQB$START.:E05TSI                              WED 07/30/97 05:36 Page:33
     0-0-0/w PTR         r     1 B$TCB$                     0-0-0/w STRC(315)   r     1 QQ_CMDBLK
     0-0-0/d STRC(9090)  r     1 QQ_GLOBAL

  ****  BASED and DCB variables  ****

  ****  Scalars and arrays  ****
OctLoc.c.b A Datatyp(siz) R M Lvl/name                 OctLoc.c.b A Datatyp(siz) R M Lvl/name

     0-0-0/w STRC(2448)  r     1 B$ALT                      0-0-0/w STRC(144)   r     1 B$TCB
     0-0-0N  NULL        r     1 M$CG                       0-0-0/w STRC(144)   r     1 OUT$BLK
     0-0-0/w ASTR(153)   r     1 OUT$SYM                    0-0-0/w STRC(828)   r     1 QT$FORM
     0-0-0/w STRC(909)   r     1 TP$STATION


   Procedure QQB$START requires 217 words for executable code.
   Procedure QQB$START requires 36 words of local(AUTO) storage.

    No errors detected in file QQB$START.:E05TSI    .
PL6.E3A0      #001=QQB$START File=QQB$START.:E05TSI                              WED 07/30/97 05:36 Page:34
          *** CROSS REFERENCE LISTING ***
**     DENOTES     IDENTIFIER DEFINITION
<<                 IDENTIFIER'S VALUE SET
>>                 IDENTIFIER'S VALUE USED
<>                 IDENTIFIER SET AND/OR USED
--                 IDENTIFIER REFERENCED
PL6.E3A0      #001=QQB$START File=QQB$START.:E05TSI                              WED 07/30/97 05:36 Page:35
          MINI XREF LISTING

B$ALT.CODE
      6421**DCL      6421--REDEF    6422--REDEF    6422--REDEF
B$ALT.ERR
      6422**DCL      7166>>ASSIGN
B$ALT.ERR.ERR#
      6423**DCL      6423--REDEF
B$ALT.EVID
      6422**DCL      6422--REDEF    6422--REDEF
B$TCB.ALT$
      6428**DCL      7166>>ASSIGN
B$TCB$
      6182**DCL      7166>>ASSIGN
CODE_BAD_RU_OPTS
      6692**DCL      7139>>ASSIGN
CODE_BIP
      6685**DCL      7096>>ASSIGN
CODE_FPAD
      6664**DCL      7133>>ASSIGN
CODE_IFP
      6671**DCL      7112>>ASSIGN   7161>>ASSIGN
CODE_NO_POOLMEM
      6678**DCL      7164>>ASSIGN
ERR
      6547**DCL      7122<>CALL
EXIT_XACTION
      6520**DCL      6880--DCLINIT  6881--DCLINIT
FID
      6494**DCL      6850--DCLINIT  7103<<ASSIGN
FID_ERR
      7161**LABEL    7104--CALLALT
FP
      6546**DCL      7116<<ASSIGN   7118<<ASSIGN   7122<>CALL     7144>>ASSIGN
PL6.E3A0      #001=QQB$START File=QQB$START.:E05TSI                              WED 07/30/97 05:36 Page:36
FPT_FID
      6850**DCL      7104<>CALL
FPT_FID.V
      6854**DCL      6850--DCLINIT
FPT_OPEN.ACSVEH_
      6795**DCL      6796--REDEF
FPT_OPEN.ALTKEYS_
      6801**DCL      6802--REDEF    6802--REDEF
FPT_OPEN.HDR_
      6800**DCL      6801--REDEF
FPT_OPEN.TAB_
      6799**DCL      6800--REDEF
FPT_OPEN.UHL_
      6793**DCL      6794--REDEF    6794--REDEF
FPT_OPEN.V
      6802**DCL      6793--DCLINIT
FPT_OPEN.V.ASN#
      6812**DCL      6853--DCLINIT  7105>>IF
FPT_OPEN.V.FSN#
      6833**DCL      6833--REDEF    6833--REDEF
FPT_OPEN.V.RES#
      6817**DCL      6853--DCLINIT
FPT_OPEN.WSN_
      6799**DCL      6799--REDEF
FPT_WRITE
      6879**DCL      7154<>CALL
FPT_WRITE.STATION_
      6881**DCL      6881--REDEF
FPT_WRITE.V
      6882**DCL      6879--DCLINIT
FPT_WRITE.V.DVBYTE.VFC#
      6888**DCL      6888--REDEF
M$FID
       139**DCL-ENT  7104--CALL
M$WRITE
        77**DCL-ENT  7154--CALL
PL6.E3A0      #001=QQB$START File=QQB$START.:E05TSI                              WED 07/30/97 05:36 Page:37
MON_ERR
      7166**LABEL    7154--CALLALT
MSGBLK
      6549**DCL      7097<>CALL     7098<>CALL     7195<>CALL     7196<>CALL
NO_MEM
      7164**LABEL    7120--CALLALT
OUT$BLK.CODE
      6350**DCL      7143>>IF
OUT$BLK.NSUBLKS
      6354**DCL      7101>>IF       7130>>IF       7137>>IF
OUT$BLK.SUBLK$
      6375**DCL      7103>>ASSIGN   7103>>ASSIGN   7143>>IF
OUT$SYM.COUNT
      6411**DCL      6414--IMP-SIZ  7103>>ASSIGN
OUT$SYM.TEXT
      6414**DCL      7103>>ASSIGN
PRINT_ERR
      7194**PROC     7113--CALL     7134--CALL     7140--CALL     7162--CALL
QQA$BYTYPE
      6151**DCL-ENT  7122--CALL
QQC$BLDMSG
      6154**DCL-ENT  7098--CALL     7196--CALL
QQC$BLDMSG_BLK
      6153**DCL-ENT  7097--CALL     7195--CALL
QQC$GET_BLK
      6155**DCL-ENT  7120--CALL
QQC$RLS_BLK
      6156**DCL-ENT  7124--CALL     7199--CALL
QQC$SCREECH
      6152**DCL-ENT  7165--CALL     7167--CALL
QQ_CMDBLK.MINOR_ERR
      5355**DCL      7096<<ASSIGN   7112<<ASSIGN   7133<<ASSIGN   7139<<ASSIGN   7161<<ASSIGN
QQ_CMDBLK.OUT$
      5355**DCL      7101>>IF       7103>>ASSIGN   7103>>ASSIGN   7130>>IF       7137>>IF       7143>>IF
QQ_CMDBLK.S$
      5355**DCL      7093>>ASSIGN   7145>>ASSIGN   7153>>ASSIGN   7157>>ASSIGN
PL6.E3A0      #001=QQB$START File=QQB$START.:E05TSI                              WED 07/30/97 05:36 Page:38
QQ_GLOBAL.DS1$_BITS
      5366**DCL      5366--REDEF
QQ_GLOBAL.DS2$_BITS
      5366**DCL      5367--REDEF
QQ_GLOBAL.DS3$_BITS
      5367**DCL      5367--REDEF
QQ_GLOBAL.DS4$_BITS
      5367**DCL      5368--REDEF
QQ_GLOBAL.ERR
      5356**DCL      7164<<ASSIGN   7166<<ASSIGN
QQ_GLOBAL.POOL$
      5367**DCL      7120<>CALL     7124<>CALL     7199<>CALL
QT$FORM
      6441**DCL      7120--CALL     7122<>CALL
QT$FORM.FP.PASS
      6460**DCL      7130>>IF
S$
      6246**DCL      6248--IMP-PTR  7093<<ASSIGN   7094>>IF       7119>>IF       7120>>CALL     7122<>CALL
      7122>>CALL     7124>>CALL     7125>>ASSIGN   7126>>ASSIGN   7129>>ASSIGN   7130>>IF       7138>>IF
      7144>>ASSIGN   7148>>IF       7149>>ASSIGN   7150>>ASSIGN   7157<<ASSIGN   7158>>ASSIGN   7197>>IF
      7199>>CALL     7200>>ASSIGN   7201>>ASSIGN
T$
      6308**DCL      6309--IMP-PTR
TP$STATION.DFLT_FP
      6253**DCL      7144<<ASSIGN
TP$STATION.FLAGS.IS_QT$FORM
      6292**DCL      7094>>IF       7126<<ASSIGN   7129<<ASSIGN   7201<<ASSIGN
TP$STATION.FLAGS.SET_DEBUG
      6286**DCL      7145<<ASSIGN   7149<<ASSIGN
TP$STATION.FLAGS.UNDER_SET
      6295**DCL      7138>>IF       7148>>IF       7150<<ASSIGN   7158<<ASSIGN
TP$STATION.ID
      6249**DCL      7153>>ASSIGN
TP$STATION.QT$FORM$
      6264**DCL      7119>>IF       7120<>CALL     7122>>CALL     7124<>CALL     7125<<ASSIGN   7130>>IF
      7197>>IF       7199<>CALL     7200<<ASSIGN
PL6.E3A0      #001=QQB$START File=QQB$START.:E05TSI                              WED 07/30/97 05:36 Page:39
VLP_ACCT
      6929**DCL      6851--DCLINIT
VLP_ACCT.ACCT#
      6929**DCL      7130>>IF
VLP_NAME
      6956**DCL      6851--DCLINIT
VLP_NAME.L#
      6956**DCL      7105>>IF
VLP_NAME.NAME#
      6956**DCL      7116>>ASSIGN
VLP_PASS
      6969**DCL      6852--DCLINIT
VLP_SN
      6982**DCL      6852--DCLINIT
VLP_STATION
      7009**DCL      6881--DCLINIT
VLP_STATION.MSGIDXT
      7019**DCL      7022--REDEF
VLP_STATION.STATION#
      7013**DCL      7153<<ASSIGN
VLP_WSN
      6995**DCL      6852--DCLINIT
VLR_FID
      7060**DCL      6854--DCLINIT
VLR_FID.PASS
      7060**DCL      7105>>IF
VLR_FID.RES
      7060**DCL      7105>>IF
VLR_FID.SN
      7060**DCL      7105>>IF
VLR_FID.WSN
      7060**DCL      7105>>IF
