VERSION E05

PL6.E3A0      #001=QQB$STATS File=QQB$STATS.:E05TSI                              WED 07/30/97 05:36 Page:1
        1        1        /*M* QQB$STATS - Perform  STATS command */
        2        2        /*T***********************************************************/
        3        3        /*T*                                                         */
        4        4        /*T* Copyright (c) Bull HN Information Systems Inc., 1997    */
        5        5        /*T*                                                         */
        6        6        /*T***********************************************************/
        7        7        /*X* IND=2, DCI=4, CSU=2, ECU=4, DTI=2, CTI=4, AND */
        8        8        QQB$STATS:
        9        9                PROC;
       10       10
       11       11        %INCLUDE Q_PAGE_C;
       12       43        %SET LISTEXP = '1'B;
       13       44        %PAGE(ARG="Includes");

                61        /***************************************************************************
                62         *                                                                         *
                63         *                                  Includes                               *
                64         *                                                                         *
                65         ***************************************************************************/

       14       69        %INCLUDE CP_6;
       15      150        %INCLUDE QQ_MACROS_C;
       16      575        %INCLUDE QQ_DATA_R;
       17      821        %INCLUDE PC_MACRO_C;
       18      847        %INCLUDE XU_MACRO_C;
       19     3953        %INCLUDE QQ_SUBS_C;
       20     4145        %INCLUDE QQ_PERR_C;
       21     4306        %INCLUDE Q_ERRCODE_C;
       22     4329        %PAGE(ARG="Externally defined routines");

              4346    1   /***************************************************************************
              4347    1    *                                                                         *
              4348    1    *                        Externally defined routines                      *
              4349    1    *                                                                         *
              4350    1    ***************************************************************************/

       23     4354    1   DCL QQC$BLDMSG_BLK ENTRY(1);
PL6.E3A0      #001=QQB$STATS File=QQB$STATS.:E05TSI                              WED 07/30/97 05:36 Page:2
       24     4355    1   DCL QQC$BLDMSG ENTRY(1);
       25     4356    1   DCL QQC$CONVERT_NUM ENTRY(3);
       26     4357    1   DCL XPN_7RTOLS ENTRY(5) ALTRET;
       27     4358    1   DCL XPN_7FLJ ENTRY(7) ALTRET;
       28     4359    1   DCL XPN_7ELJE1 ENTRY(8) ALTRET;
       29     4360        %PAGE(ARG="Based");

              4377    1   /***************************************************************************
              4378    1    *                                                                         *
              4379    1    *                                   Based                                 *
              4380    1    *                                                                         *
              4381    1    ***************************************************************************/

       30     4385    1   DCL CHAR$STRING CHAR(CHAR_STRING_SIZE) BASED;
       31     4386
       32     4387        %PARSE$OUT(STCLASS=BASED);
       33     4432        %PARSE$SYM(STCLASS=BASED);
       34     4470        %PC$INSTANCE(STCLASS="BASED(QQ_GLOBAL.PC$INSTANCE$)");
       35     4520        %PAGE(ARG="Auto");

              4537    1   /***************************************************************************
              4538    1    *                                                                         *
              4539    1    *                                    Auto                                 *
              4540    1    *                                                                         *
              4541    1    ***************************************************************************/

       36     4545    1   DCL SIZE UBIN WORD;
       37     4546    1   DCL OPT UBIN WORD;
       38     4547    1   DCL POWER SBIN WORD;
       39     4548    1   DCL AN_DIGITS UBIN WORD;
       40     4549    1   DCL NCHARS UBIN WORD;
       41     4550    1   DCL CHAR_STRING_SIZE UBIN WORD;
       42     4551
       43     4552    1   DCL AN CHAR(20);
       44     4553    1   DCL MYBUF CHAR(28);
       45     4554
       46     4555        %QQ_STATS(STCLASS=AUTO, LVL=1, LAST_LAST=";");
PL6.E3A0      #001=QQB$STATS File=QQB$STATS.:E05TSI                              WED 07/30/97 05:36 Page:3
       47     4592        %MSGBLK;
       48     4682        %VLP_NAME(FPTN=TEXTC_NUM1, STCLASS=AUTO, LEN=14);
       49     4709        %VLP_NAME(FPTN=TEXTC_NUM2, STCLASS=AUTO, LEN=14);
       50     4736        %PAGE(ARG="Error codes", PAGE=YES);

PL6.E3A0      #001=QQB$STATS File=QQB$STATS.:E05TSI                              WED 07/30/97 05:36 Page:4
              4753    1   /***************************************************************************
              4754    1    *                                                                         *
              4755    1    *                                Error codes                              *
              4756    1    *                                                                         *
              4757    1    ***************************************************************************/

       51     4761        %ERRCODE(NAME=CODE_SL1, CODE#=%E$SL1, FCG#=%FCG_QQ, MID#=%MID_B);
       52     4768        %ERRCODE(NAME=CODE_SL2, CODE#=%E$SL2, FCG#=%FCG_QQ, MID#=%MID_B);
       53     4775        %ERRCODE(NAME=CODE_SL3, CODE#=%E$SL3, FCG#=%FCG_QQ, MID#=%MID_B);
       54     4782        %ERRCODE(NAME=CODE_SL4, CODE#=%E$SL4, FCG#=%FCG_QQ, MID#=%MID_B);
       55     4789        %ERRCODE(NAME=CODE_SL5, CODE#=%E$SL5, FCG#=%FCG_QQ, MID#=%MID_B);
       56     4796        %ERRCODE(NAME=CODE_SL6, CODE#=%E$SL6, FCG#=%FCG_QQ, MID#=%MID_B);
       57     4803        %ERRCODE(NAME=CODE_SL7, CODE#=%E$SL7, FCG#=%FCG_QQ, MID#=%MID_B);
       58     4810        %ERRCODE(NAME=CODE_SL8, CODE#=%E$SL8, FCG#=%FCG_QQ, MID#=%MID_B);
       59     4817        %ERRCODE(NAME=CODE_SL9, CODE#=%E$SL9, FCG#=%FCG_QQ, MID#=%MID_B);
       60     4824        %ERRCODE(NAME=CODE_SL10, CODE#=%E$SL10, FCG#=%FCG_QQ, MID#=%MID_B);
       61     4831        /*E*       ERROR: QQB-E$SL1-C
       62     4832
       63     4833                 MESSAGE: TPAP reads from CG  %U1     TPAP writes to CG   %U2
       64     4834             DESCRIPTION: Stats line 1
       65     4835        */
       66     4836        /*E*       ERROR: QQB-E$SL2-C
       67     4837
       68     4838                 MESSAGE: FP reads from CG    %U1     FP writes to CG     %U2
       69     4839             DESCRIPTION: Stats line 2
       70     4840        */
       71     4841        /*E*       ERROR: QQB-E$SL3-C
       72     4842
       73     4843                 MESSAGE: Msgs in CG to TPAPs %U1     Msgs in CG to FPs   %U2
       74     4844             DESCRIPTION: Stats line 3
       75     4845        */
       76     4846        /*E*       ERROR: QQB-E$SL4-C
       77     4847
       78     4848                 MESSAGE: DCBs opened to CG   %U1     Terminals on CG     %U2
       79     4849             DESCRIPTION: Stats line 4
       80     4850        */
       81     4851        /*E*       ERROR: QQB-E$SL5-C
PL6.E3A0      #001=QQB$STATS File=QQB$STATS.:E05TSI                              WED 07/30/97 05:36 Page:5
       82     4852
       83     4853                 MESSAGE: CG reads from disk  %U1     CG data write->disk %U2
       84     4854             DESCRIPTION: Stats line 5
       85     4855        */
       86     4856        /*E*       ERROR: QQB-E$SL6-C
       87     4857
       88     4858                 MESSAGE: CG pages * ms       %U1     CG attrib wrt->disk %U2
       89     4859             DESCRIPTION: Stats line 6
       90     4860        */
       91     4861        /*E*       ERROR: QQB-E$SL7-C
       92     4862
       93     4863                 MESSAGE: FP loads            %U1     TPUs active         %U2
       94     4864             DESCRIPTION: Stats line 7
       95     4865        */
       96     4866        /*E*       ERROR: QQB-E$SL8-C
       97     4867
       98     4868                 MESSAGE: TPA events          %U1     TP commands exec'd  %U2
       99     4869             DESCRIPTION: Stats line 8
      100     4870        */
      101     4871        /*E*       ERROR: QQB-E$SL9-C
      102     4872
      103     4873                 MESSAGE: CG memory extended  %U1     CG disk extended    %U2
      104     4874             DESCRIPTION: Stats line 9
      105     4875        */
      106     4876        /*E*       ERROR: QQB-E$SL10-C
      107     4877
      108     4878                 MESSAGE: Words free in CG    %U1     Words in use in CG  %U2
      109     4879             DESCRIPTION: Stats line 10
      110     4880        */
      111     4881        %PAGE(ARG="QQB$STATS", PAGE=YES);

PL6.E3A0      #001=QQB$STATS File=QQB$STATS.:E05TSI                              WED 07/30/97 05:36 Page:6
              4898    1   /***************************************************************************
              4899    1    *                                                                         *
              4900    1    *                                 QQB$STATS                               *
              4901    1    *                                                                         *
              4902    1    ***************************************************************************/

      112     4906    1           IF QQ_CMDBLK.OUT$ -> OUT$BLK.NSUBLKS = 0
      113     4907    1           THEN
      114     4908    1             OPT = 2 /* OPT_SNAP */;           /* Default SNAP is assumed            */
      115     4909    1           ELSE
      116     4910    1             OPT = QQ_CMDBLK.OUT$ -> OUT$BLK.SUBLK$(0) -> OUT$SYM.CODE;
      117     4911
      118     4912    1           IF OPT = 2 /* OPT_SNAP */ THEN
      119     4913    2             DO;
      120     4914    2               STATS = PC$INSTANCE.STATS;
      121     4915    2             END;
      122     4916    1           ELSE
      123     4917    2             DO;
      124     4918    2               STATS = QQ_GLOBAL.DELTA_STATS;
      125     4919    2             END;
      126     4920    1           QQ_GLOBAL.STATS_CNT =
      127     4921    1               QQ_GLOBAL.STATS_CNT + 1;
      128     4922
      129     4923    1           CALL QQC$BLDMSG_BLK(MSGBLK);
      130     4924    1           MSGBLK.ERRINFO.FIELD1(0) = VECTOR(TEXTC_NUM1);
      131     4925    1           MSGBLK.ERRINFO.FIELD2(0) = VECTOR(TEXTC_NUM2);
      132     4926    1           TEXTC_NUM1.L# = 10;
      133     4927    1           TEXTC_NUM2.L# = 10;
      134     4928
      135     4929    1           CALL SET_UP;
      136     4930    1           MSGBLK.ERRINFO.ERR(0) = CODE_SL1;
      137     4931    1           CALL QQC$CONVERT_NUM(STATS.READS, SIZE, ADDR(TEXTC_NUM1.NAME#));
      138     4932    1           CALL QQC$CONVERT_NUM(STATS.WRITES, SIZE, ADDR(TEXTC_NUM2.NAME#));
      139     4933    1           CALL QQC$BLDMSG(MSGBLK);
      140     4934
      141     4935    1           CALL SET_UP;
      142     4936    1           MSGBLK.ERRINFO.ERR(0) = CODE_SL2;
PL6.E3A0      #001=QQB$STATS File=QQB$STATS.:E05TSI                              WED 07/30/97 05:36 Page:7
      143     4937    1           CALL QQC$CONVERT_NUM(STATS.GETS, SIZE, ADDR(TEXTC_NUM1.NAME#));
      144     4938    1           CALL QQC$CONVERT_NUM(STATS.PUTS, SIZE, ADDR(TEXTC_NUM2.NAME#));
      145     4939    1           CALL QQC$BLDMSG(MSGBLK);
      146     4940
      147     4941    1           CALL SET_UP;
      148     4942    1           MSGBLK.ERRINFO.ERR(0) = CODE_SL3;
      149     4943    1           CALL QQC$CONVERT_NUM(STATS.CCMQ, SIZE, ADDR(TEXTC_NUM1.NAME#));
      150     4944    1           CALL QQC$CONVERT_NUM(STATS.CCMS, SIZE, ADDR(TEXTC_NUM2.NAME#));
      151     4945    1           CALL QQC$BLDMSG(MSGBLK);
      152     4946
      153     4947    1           CALL SET_UP;
      154     4948    1           MSGBLK.ERRINFO.ERR(0) = CODE_SL4;
      155     4949    1           CALL QQC$CONVERT_NUM(STATS.NUMDCBS, SIZE, ADDR(TEXTC_NUM1.NAME#));
      156     4950    1           CALL QQC$CONVERT_NUM(STATS.NUMTERMS, SIZE, ADDR(TEXTC_NUM2.NAME#));
      157     4951    1           CALL QQC$BLDMSG(MSGBLK);
      158     4952
      159     4953    1           CALL SET_UP;
      160     4954    1           MSGBLK.ERRINFO.ERR(0) = CODE_SL5;
      161     4955    1           CALL QQC$CONVERT_NUM(STATS.DISCRDS, SIZE, ADDR(TEXTC_NUM1.NAME#));
      162     4956    1           CALL QQC$CONVERT_NUM(STATS.DISCWRS, SIZE, ADDR(TEXTC_NUM2.NAME#));
      163     4957    1           CALL QQC$BLDMSG(MSGBLK);
      164     4958
      165     4959    1           CALL SET_UP;
      166     4960    1           MSGBLK.ERRINFO.ERR(0) = CODE_SL6;
      167     4961    1           CALL XPN_7RTOLS(STATS.PGSI, AN, 7, AN_DIGITS, POWER);
      168     4962    1           IF ((POWER >= 0 ) AND (POWER + AN_DIGITS <= 7)) OR
      169     4963    1               (POWER < 0 AND POWER >= -7) THEN
      170     4964    2             DO;
      171     4965    2               CALL XPN_7FLJ(MYBUF, LENGTHC(MYBUF), AN, AN_DIGITS, POWER, 0, NCHARS);
      172     4966    2             END;
      173     4967    1           ELSE
      174     4968    2             DO;
      175     4969    2               CALL XPN_7ELJE1(MYBUF, LENGTHC(MYBUF), AN, AN_DIGITS, POWER, 0, NCHARS,
              4969                        -2);
      176     4970    2             END;
      177     4971    1           CHAR_STRING_SIZE = NCHARS;
      178     4972    1           TEXTC_NUM1.NAME# = ADDR(MYBUF) -> CHAR$STRING;
PL6.E3A0      #001=QQB$STATS File=QQB$STATS.:E05TSI                              WED 07/30/97 05:36 Page:8
      179     4973    1           CALL QQC$CONVERT_NUM(STATS.GARBCOLLS, SIZE, ADDR(TEXTC_NUM2.NAME#));
      180     4974    1           CALL QQC$BLDMSG(MSGBLK);
      181     4975
      182     4976    1           CALL SET_UP;
      183     4977    1           MSGBLK.ERRINFO.ERR(0) = CODE_SL7;
      184     4978    1           CALL QQC$CONVERT_NUM(STATS.FPREQ, SIZE, ADDR(TEXTC_NUM1.NAME#));
      185     4979    1           CALL QQC$CONVERT_NUM(STATS.TPU, SIZE, ADDR(TEXTC_NUM2.NAME#));
      186     4980    1           CALL QQC$BLDMSG(MSGBLK);
      187     4981
      188     4982    1           CALL SET_UP;
      189     4983    1           MSGBLK.ERRINFO.ERR(0) = CODE_SL8;
      190     4984    1           CALL QQC$CONVERT_NUM(STATS.EVENT, SIZE, ADDR(TEXTC_NUM1.NAME#));
      191     4985    1           CALL QQC$CONVERT_NUM(STATS.CMD, SIZE, ADDR(TEXTC_NUM2.NAME#));
      192     4986    1           CALL QQC$BLDMSG(MSGBLK);
      193     4987
      194     4988    1           CALL SET_UP;
      195     4989    1           MSGBLK.ERRINFO.ERR(0) = CODE_SL9;
      196     4990    1           CALL QQC$CONVERT_NUM(QQ_GLOBAL.CGPGXTEND_CNT,SIZE,ADDR(TEXTC_NUM1.NAME#));
      197     4991    1           CALL QQC$CONVERT_NUM(QQ_GLOBAL.XTEND_CNT,SIZE,ADDR(TEXTC_NUM2.NAME#));
      198     4992    1           CALL QQC$BLDMSG(MSGBLK);
      199     4993
      200     4994    1           CALL SET_UP;
      201     4995    1           MSGBLK.ERRINFO.ERR(0) = CODE_SL10;
      202     4996    1           CALL QQC$CONVERT_NUM(STATS.WRDSFREE, SIZE, ADDR(TEXTC_NUM1.NAME#));
      203     4997    1           CALL QQC$CONVERT_NUM(STATS.WRDSUSED, SIZE, ADDR(TEXTC_NUM2.NAME#));
      204     4998    1           CALL QQC$BLDMSG(MSGBLK);
      205     4999    1           RETURN;
      206     5000                %PAGE(ARG="SET_UP", PAGE=YES);

PL6.E3A0      #001=QQB$STATS File=QQB$STATS.:E05TSI                              WED 07/30/97 05:36 Page:9
              5017    1   /***************************************************************************
              5018    1    *                                                                         *
              5019    1    *                                   SET_UP                                *
              5020    1    *                                                                         *
              5021    1    ***************************************************************************/

      207     5025    1   SET_UP:
      208     5026    1           PROC;
      209     5027
      210     5028    2           MSGBLK.TEXT$ = ADDR(NIL);
      211     5029    2           TEXTC_NUM1.NAME# = ' ';
      212     5030    2           TEXTC_NUM2.NAME# = ' ';
      213     5031
      214     5032    2           RETURN;
      215     5033
      216     5034    2   END SET_UP;
      217     5035    1   END QQB$STATS;

PL6.E3A0      #001=QQB$STATS File=QQB$STATS.:E05TSI                              WED 07/30/97 05:36 Page:10
--  Include file information  --

   Q_ERRCODE_C.:E05TOU  is referenced.
   QQ_PERR_C.:E05TOU  is referenced.
   QQ_SUBS_C.:E05TOU  is referenced.
   XU_MACRO_C.:E05TOU  is referenced.
   PC_MACRO_C.:E05TOU  is referenced.
   QQ_DATA_R.:E05TOU  cannot be made into a system file and is referenced.
   QQ_MACROS_C.:E05TOU  is referenced.
   CP_6.:E05TOU  cannot be made into a system file and is referenced.
   Q_PAGE_C.:E05TOU  is referenced.
   B$JIT_C.:E05TOU  was found in the system file and is never referenced.
   CP_6_C.:E05TOU  was found in the system file and is referenced.
      No diagnostics issued in procedure QQB$STATS.

   Procedure QQB$STATS requires 497 words for executable code.
   Procedure QQB$STATS requires 112 words of local(AUTO) storage.

    No errors detected in file QQB$STATS.:E05TSI    .

PL6.E3A0      #001=QQB$STATS File=QQB$STATS.:E05TSI                              WED 07/30/97 05:36 Page:11

 Object Unit name= QQB$STATS                                  File name= QQB$STATS.:E05TOU
 UTS= JUL 30 '97 05:36:50.64 WED                              Compiler= PL-6/E31         Sev=      00
 SharedLib= :SHARED_SYSTEM                                    Alt SharedLib=


    ****  Control sections  ****

 Sect   Type Bound  Init  Size OctSiz  Section name(segment info)
    0   DCB   even  none     0      0  M$UC
    1  RoData even  UTS     10     12  QQB$STATS
    2   Proc  even  none   497    761  QQB$STATS
    3  RoData even  none    12     14  QQB$STATS

    ****  Entry defs  ****

                              Check   Calling
                             calling  sequence
  Sect OctLoc Primary Altret sequence   type   Parms  Name
     2      0   yes            yes      Std        0  QQB$STATS

  ****  Entry refs  ****

         Check        Calling
        calling       sequence
Altret sequence SRef   type   Args  Name
         yes           Std       1 QQC$BLDMSG_BLK
         yes           Std       3 QQC$CONVERT_NUM
         yes           Std       1 QQC$BLDMSG
 yes     yes           Std       7 XPN_7FLJ
 yes     yes           Std       8 XPN_7ELJE1
 yes     yes           Std       5 XPN_7RTOLS
                       nStd      0 X66_AUTO_0
                       Std       0 B_CONSPOOL_D
                       nStd      0 X66_ARET
PL6.E3A0      #001=QQB$STATS File=QQB$STATS.:E05TSI                              WED 07/30/97 05:36 Page:12

  ****  Data refs  ****

  Flags:  r = read only, s = secondary
Flgs Name                             Flgs Name                             Flgs Name
     M$UC                                  QQ_CMDBLK                             QQ_GLOBAL
     B_VECTNIL

  ****  Segment refs  ****

  Flags:  r = read only, s = secondary
Flgs Name                             Flgs Name                             Flgs Name
     ISSID
PL6.E3A0      #001=QQB$STATS File=QQB$STATS.:E05TSI                              WED 07/30/97 05:36 Page:13


        1        1        /*M* QQB$STATS - Perform  STATS command */
        2        2        /*T***********************************************************/
        3        3        /*T*                                                         */
        4        4        /*T* Copyright (c) Bull HN Information Systems Inc., 1997    */
        5        5        /*T*                                                         */
        6        6        /*T***********************************************************/
        7        7        /*X* IND=2, DCI=4, CSU=2, ECU=4, DTI=2, CTI=4, AND */
        8        8        QQB$STATS:
        9        9                PROC;

      9  2 000000   000000 700200 xent  QQB$STATS    TSX0  ! X66_AUTO_0
         2 000001   000160 000000                    ZERO    112,0

       10       10
       11       11        %INCLUDE Q_PAGE_C;
       12       43        %SET LISTEXP = '1'B;
       13       44        %PAGE(ARG="Includes");

                61        /***************************************************************************
                62         *                                                                         *
                63         *                                  Includes                               *
                64         *                                                                         *
                65         ***************************************************************************/

       14       69        %INCLUDE CP_6;
       15      150        %INCLUDE QQ_MACROS_C;
       16      575        %INCLUDE QQ_DATA_R;
       17      821        %INCLUDE PC_MACRO_C;
       18      847        %INCLUDE XU_MACRO_C;
       19     3953        %INCLUDE QQ_SUBS_C;
       20     4145        %INCLUDE QQ_PERR_C;
       21     4306        %INCLUDE Q_ERRCODE_C;
       22     4329        %PAGE(ARG="Externally defined routines");

              4346    1   /***************************************************************************
              4347    1    *                                                                         *
PL6.E3A0      #001=QQB$STATS File=QQB$STATS.:E05TSI                              WED 07/30/97 05:36 Page:14
              4348    1    *                        Externally defined routines                      *
              4349    1    *                                                                         *
              4350    1    ***************************************************************************/

       23     4354    1   DCL QQC$BLDMSG_BLK ENTRY(1);
       24     4355    1   DCL QQC$BLDMSG ENTRY(1);
       25     4356    1   DCL QQC$CONVERT_NUM ENTRY(3);
       26     4357    1   DCL XPN_7RTOLS ENTRY(5) ALTRET;
       27     4358    1   DCL XPN_7FLJ ENTRY(7) ALTRET;
       28     4359    1   DCL XPN_7ELJE1 ENTRY(8) ALTRET;
       29     4360        %PAGE(ARG="Based");

              4377    1   /***************************************************************************
              4378    1    *                                                                         *
              4379    1    *                                   Based                                 *
              4380    1    *                                                                         *
              4381    1    ***************************************************************************/

       30     4385    1   DCL CHAR$STRING CHAR(CHAR_STRING_SIZE) BASED;
       31     4386
       32     4387        %PARSE$OUT(STCLASS=BASED);
       33     4432        %PARSE$SYM(STCLASS=BASED);
       34     4470        %PC$INSTANCE(STCLASS="BASED(QQ_GLOBAL.PC$INSTANCE$)");
       35     4520        %PAGE(ARG="Auto");

              4537    1   /***************************************************************************
              4538    1    *                                                                         *
              4539    1    *                                    Auto                                 *
              4540    1    *                                                                         *
              4541    1    ***************************************************************************/

       36     4545    1   DCL SIZE UBIN WORD;
       37     4546    1   DCL OPT UBIN WORD;
       38     4547    1   DCL POWER SBIN WORD;
       39     4548    1   DCL AN_DIGITS UBIN WORD;
       40     4549    1   DCL NCHARS UBIN WORD;
       41     4550    1   DCL CHAR_STRING_SIZE UBIN WORD;
PL6.E3A0      #001=QQB$STATS File=QQB$STATS.:E05TSI                              WED 07/30/97 05:36 Page:15
       42     4551
       43     4552    1   DCL AN CHAR(20);
       44     4553    1   DCL MYBUF CHAR(28);
       45     4554
       46     4555        %QQ_STATS(STCLASS=AUTO, LVL=1, LAST_LAST=";");
       47     4592        %MSGBLK;
       48     4682        %VLP_NAME(FPTN=TEXTC_NUM1, STCLASS=AUTO, LEN=14);
       49     4709        %VLP_NAME(FPTN=TEXTC_NUM2, STCLASS=AUTO, LEN=14);
       50     4736        %PAGE(ARG="Error codes", PAGE=YES);

PL6.E3A0      #001=QQB$STATS File=QQB$STATS.:E05TSI                              WED 07/30/97 05:36 Page:16
              4753    1   /***************************************************************************
              4754    1    *                                                                         *
              4755    1    *                                Error codes                              *
              4756    1    *                                                                         *
              4757    1    ***************************************************************************/

       51     4761        %ERRCODE(NAME=CODE_SL1, CODE#=%E$SL1, FCG#=%FCG_QQ, MID#=%MID_B);
       52     4768        %ERRCODE(NAME=CODE_SL2, CODE#=%E$SL2, FCG#=%FCG_QQ, MID#=%MID_B);
       53     4775        %ERRCODE(NAME=CODE_SL3, CODE#=%E$SL3, FCG#=%FCG_QQ, MID#=%MID_B);
       54     4782        %ERRCODE(NAME=CODE_SL4, CODE#=%E$SL4, FCG#=%FCG_QQ, MID#=%MID_B);
       55     4789        %ERRCODE(NAME=CODE_SL5, CODE#=%E$SL5, FCG#=%FCG_QQ, MID#=%MID_B);
       56     4796        %ERRCODE(NAME=CODE_SL6, CODE#=%E$SL6, FCG#=%FCG_QQ, MID#=%MID_B);
       57     4803        %ERRCODE(NAME=CODE_SL7, CODE#=%E$SL7, FCG#=%FCG_QQ, MID#=%MID_B);
       58     4810        %ERRCODE(NAME=CODE_SL8, CODE#=%E$SL8, FCG#=%FCG_QQ, MID#=%MID_B);
       59     4817        %ERRCODE(NAME=CODE_SL9, CODE#=%E$SL9, FCG#=%FCG_QQ, MID#=%MID_B);
       60     4824        %ERRCODE(NAME=CODE_SL10, CODE#=%E$SL10, FCG#=%FCG_QQ, MID#=%MID_B);
       61     4831        /*E*       ERROR: QQB-E$SL1-C
       62     4832
       63     4833                 MESSAGE: TPAP reads from CG  %U1     TPAP writes to CG   %U2
       64     4834             DESCRIPTION: Stats line 1
       65     4835        */
       66     4836        /*E*       ERROR: QQB-E$SL2-C
       67     4837
       68     4838                 MESSAGE: FP reads from CG    %U1     FP writes to CG     %U2
       69     4839             DESCRIPTION: Stats line 2
       70     4840        */
       71     4841        /*E*       ERROR: QQB-E$SL3-C
       72     4842
       73     4843                 MESSAGE: Msgs in CG to TPAPs %U1     Msgs in CG to FPs   %U2
       74     4844             DESCRIPTION: Stats line 3
       75     4845        */
       76     4846        /*E*       ERROR: QQB-E$SL4-C
       77     4847
       78     4848                 MESSAGE: DCBs opened to CG   %U1     Terminals on CG     %U2
       79     4849             DESCRIPTION: Stats line 4
       80     4850        */
       81     4851        /*E*       ERROR: QQB-E$SL5-C
PL6.E3A0      #001=QQB$STATS File=QQB$STATS.:E05TSI                              WED 07/30/97 05:36 Page:17
       82     4852
       83     4853                 MESSAGE: CG reads from disk  %U1     CG data write->disk %U2
       84     4854             DESCRIPTION: Stats line 5
       85     4855        */
       86     4856        /*E*       ERROR: QQB-E$SL6-C
       87     4857
       88     4858                 MESSAGE: CG pages * ms       %U1     CG attrib wrt->disk %U2
       89     4859             DESCRIPTION: Stats line 6
       90     4860        */
       91     4861        /*E*       ERROR: QQB-E$SL7-C
       92     4862
       93     4863                 MESSAGE: FP loads            %U1     TPUs active         %U2
       94     4864             DESCRIPTION: Stats line 7
       95     4865        */
       96     4866        /*E*       ERROR: QQB-E$SL8-C
       97     4867
       98     4868                 MESSAGE: TPA events          %U1     TP commands exec'd  %U2
       99     4869             DESCRIPTION: Stats line 8
      100     4870        */
      101     4871        /*E*       ERROR: QQB-E$SL9-C
      102     4872
      103     4873                 MESSAGE: CG memory extended  %U1     CG disk extended    %U2
      104     4874             DESCRIPTION: Stats line 9
      105     4875        */
      106     4876        /*E*       ERROR: QQB-E$SL10-C
      107     4877
      108     4878                 MESSAGE: Words free in CG    %U1     Words in use in CG  %U2
      109     4879             DESCRIPTION: Stats line 10
      110     4880        */
      111     4881        %PAGE(ARG="QQB$STATS", PAGE=YES);

PL6.E3A0      #001=QQB$STATS File=QQB$STATS.:E05TSI                              WED 07/30/97 05:36 Page:18
              4898    1   /***************************************************************************
              4899    1    *                                                                         *
              4900    1    *                                 QQB$STATS                               *
              4901    1    *                                                                         *
              4902    1    ***************************************************************************/

      112     4906    1           IF QQ_CMDBLK.OUT$ -> OUT$BLK.NSUBLKS = 0

   4906  2 000002   000005 470400 xsym               LDP0    QQ_CMDBLK+5
         2 000003   000001 220100                    LDX0    1,,PR0
         2 000004   000010 601000 2                  TNZ     s:4910

      113     4907    1           THEN
      114     4908    1             OPT = 2 /* OPT_SNAP */;           /* Default SNAP is assumed           */

   4908  2 000005   000002 235007                    LDA     2,DL
         2 000006   200004 755100                    STA     OPT,,AUTO
         2 000007   000014 710000 2                  TRA     s:4912

      115     4909    1           ELSE
      116     4910    1             OPT = QQ_CMDBLK.OUT$ -> OUT$BLK.SUBLK$(0) -> OUT$SYM.CODE;

   4910  2 000010   000003 471500                    LDP1    3,,PR0
         2 000011   100000 236100                    LDQ     0,,PR1
         2 000012   777777 376007                    ANQ     -1,DL
         2 000013   200004 756100                    STQ     OPT,,AUTO

      117     4911
      118     4912    1           IF OPT = 2 /* OPT_SNAP */ THEN

   4912  2 000014   200004 235100                    LDA     OPT,,AUTO
         2 000015   000002 115007                    CMPA    2,DL
         2 000016   000024 601000 2                  TNZ     s:4918

      119     4913    2             DO;

      120     4914    2               STATS = PC$INSTANCE.STATS;
PL6.E3A0      #001=QQB$STATS File=QQB$STATS.:E05TSI                              WED 07/30/97 05:36 Page:19

   4914  2 000017   000154 471400 xsym               LDP1    QQ_GLOBAL+108
         2 000020   000100 100500                    MLR     fill='000'O
         2 000021   100031 000310                    ADSC9   25,,PR1                  cn=0,n=200
         2 000022   200026 000310                    ADSC9   STATS,,AUTO              cn=0,n=200

      121     4915    2             END;

   4915  2 000023   000027 710000 2                  TRA     s:4920

      122     4916    1           ELSE
      123     4917    2             DO;

      124     4918    2               STATS = QQ_GLOBAL.DELTA_STATS;

   4918  2 000024   000100 100400                    MLR     fill='000'O
         2 000025   000241 000310 xsym               ADSC9   QQ_GLOBAL+161            cn=0,n=200
         2 000026   200026 000310                    ADSC9   STATS,,AUTO              cn=0,n=200

      125     4919    2             END;

      126     4920    1           QQ_GLOBAL.STATS_CNT =

   4920  2 000027   000071 236000 xsym               LDQ     QQ_GLOBAL+57
         2 000030   000001 036007                    ADLQ    1,DL
         2 000031   000071 756000 xsym               STQ     QQ_GLOBAL+57

      127     4921    1               QQ_GLOBAL.STATS_CNT + 1;
      128     4922
      129     4923    1           CALL QQC$BLDMSG_BLK(MSGBLK);

   4923  2 000032   200110 631500                    EPPR1   MSGBLK,,AUTO
         2 000033   200150 451500                    STP1    TEXTC_NUM2+7,,AUTO
         2 000034   200150 630500                    EPPR0   TEXTC_NUM2+7,,AUTO
         2 000035   000017 631400 xsym               EPPR1   B_VECTNIL+15
         2 000036   000000 701000 xent               TSX1    QQC$BLDMSG_BLK
         2 000037   000000 011000                    NOP     0
PL6.E3A0      #001=QQB$STATS File=QQB$STATS.:E05TSI                              WED 07/30/97 05:36 Page:20

      130     4924    1           MSGBLK.ERRINFO.FIELD1(0) = VECTOR(TEXTC_NUM1);

   4924  2 000040   000000 235000 3                  LDA     0
         2 000041   200150 452500                    STP2    TEXTC_NUM2+7,,AUTO
         2 000042   200150 236100                    LDQ     TEXTC_NUM2+7,,AUTO
         2 000043   000135 036003                    ADLQ    93,DU
         2 000044   200152 757100                    STAQ    TEXTC_NUM2+9,,AUTO
         2 000045   000100 100500                    MLR     fill='000'O
         2 000046   200152 000010                    ADSC9   TEXTC_NUM2+9,,AUTO       cn=0,n=8
         2 000047   200117 200010                    ADSC9   MSGBLK+7,,AUTO           cn=1,n=8

      131     4925    1           MSGBLK.ERRINFO.FIELD2(0) = VECTOR(TEXTC_NUM2);

   4925  2 000050   000000 235000 3                  LDA     0
         2 000051   200150 452500                    STP2    TEXTC_NUM2+7,,AUTO
         2 000052   200150 236100                    LDQ     TEXTC_NUM2+7,,AUTO
         2 000053   000141 036003                    ADLQ    97,DU
         2 000054   200152 757100                    STAQ    TEXTC_NUM2+9,,AUTO
         2 000055   000100 100500                    MLR     fill='000'O
         2 000056   200152 000010                    ADSC9   TEXTC_NUM2+9,,AUTO       cn=0,n=8
         2 000057   200121 200010                    ADSC9   MSGBLK+9,,AUTO           cn=1,n=8

      132     4926    1           TEXTC_NUM1.L# = 10;

   4926  2 000060   012000 236003                    LDQ     5120,DU
         2 000061   200135 552140                    STBQ    TEXTC_NUM1,'40'O,AUTO

      133     4927    1           TEXTC_NUM2.L# = 10;

   4927  2 000062   200141 552140                    STBQ    TEXTC_NUM2,'40'O,AUTO

      134     4928
      135     4929    1           CALL SET_UP;

   4929  2 000063   000747 701000 2                  TSX1    SET_UP
         2 000064   000000 011000                    NOP     0
PL6.E3A0      #001=QQB$STATS File=QQB$STATS.:E05TSI                              WED 07/30/97 05:36 Page:21

      136     4930    1           MSGBLK.ERRINFO.ERR(0) = CODE_SL1;

   4930  2 000065   000000 236000 1                  LDQ     CODE_SL1
         2 000066   200116 756100                    STQ     MSGBLK+6,,AUTO

      137     4931    1           CALL QQC$CONVERT_NUM(STATS.READS, SIZE, ADDR(TEXTC_NUM1.NAME#));

   4931  2 000067   200151 452500                    STP2    TEXTC_NUM2+8,,AUTO
         2 000070   200151 236100                    LDQ     TEXTC_NUM2+8,,AUTO
         2 000071   000001 036000 3                  ADLQ    1
         2 000072   200150 756100                    STQ     TEXTC_NUM2+7,,AUTO
         2 000073   200150 630500                    EPPR0   TEXTC_NUM2+7,,AUTO
         2 000074   200154 450500                    STP0    TEXTC_NUM2+11,,AUTO
         2 000075   200003 631500                    EPPR1   SIZE,,AUTO
         2 000076   200153 451500                    STP1    TEXTC_NUM2+10,,AUTO
         2 000077   200026 633500                    EPPR3   STATS,,AUTO
         2 000100   200152 453500                    STP3    TEXTC_NUM2+9,,AUTO
         2 000101   200152 630500                    EPPR0   TEXTC_NUM2+9,,AUTO
         2 000102   000021 631400 xsym               EPPR1   B_VECTNIL+17
         2 000103   000000 701000 xent               TSX1    QQC$CONVERT_NUM
         2 000104   000000 011000                    NOP     0

      138     4932    1           CALL QQC$CONVERT_NUM(STATS.WRITES, SIZE, ADDR(TEXTC_NUM2.NAME#));

   4932  2 000105   200151 452500                    STP2    TEXTC_NUM2+8,,AUTO
         2 000106   200151 236100                    LDQ     TEXTC_NUM2+8,,AUTO
         2 000107   000002 036000 3                  ADLQ    2
         2 000110   200150 756100                    STQ     TEXTC_NUM2+7,,AUTO
         2 000111   200150 630500                    EPPR0   TEXTC_NUM2+7,,AUTO
         2 000112   200154 450500                    STP0    TEXTC_NUM2+11,,AUTO
         2 000113   200003 631500                    EPPR1   SIZE,,AUTO
         2 000114   200153 451500                    STP1    TEXTC_NUM2+10,,AUTO
         2 000115   200027 633500                    EPPR3   STATS+1,,AUTO
         2 000116   200152 453500                    STP3    TEXTC_NUM2+9,,AUTO
         2 000117   200152 630500                    EPPR0   TEXTC_NUM2+9,,AUTO
         2 000120   000021 631400 xsym               EPPR1   B_VECTNIL+17
PL6.E3A0      #001=QQB$STATS File=QQB$STATS.:E05TSI                              WED 07/30/97 05:36 Page:22
         2 000121   000000 701000 xent               TSX1    QQC$CONVERT_NUM
         2 000122   000000 011000                    NOP     0

      139     4933    1           CALL QQC$BLDMSG(MSGBLK);

   4933  2 000123   200110 630500                    EPPR0   MSGBLK,,AUTO
         2 000124   200150 450500                    STP0    TEXTC_NUM2+7,,AUTO
         2 000125   200150 630500                    EPPR0   TEXTC_NUM2+7,,AUTO
         2 000126   000017 631400 xsym               EPPR1   B_VECTNIL+15
         2 000127   000000 701000 xent               TSX1    QQC$BLDMSG
         2 000130   000000 011000                    NOP     0

      140     4934
      141     4935    1           CALL SET_UP;

   4935  2 000131   000747 701000 2                  TSX1    SET_UP
         2 000132   000000 011000                    NOP     0

      142     4936    1           MSGBLK.ERRINFO.ERR(0) = CODE_SL2;

   4936  2 000133   000001 236000 1                  LDQ     CODE_SL2
         2 000134   200116 756100                    STQ     MSGBLK+6,,AUTO

      143     4937    1           CALL QQC$CONVERT_NUM(STATS.GETS, SIZE, ADDR(TEXTC_NUM1.NAME#));

   4937  2 000135   200151 452500                    STP2    TEXTC_NUM2+8,,AUTO
         2 000136   200151 236100                    LDQ     TEXTC_NUM2+8,,AUTO
         2 000137   000001 036000 3                  ADLQ    1
         2 000140   200150 756100                    STQ     TEXTC_NUM2+7,,AUTO
         2 000141   200150 630500                    EPPR0   TEXTC_NUM2+7,,AUTO
         2 000142   200154 450500                    STP0    TEXTC_NUM2+11,,AUTO
         2 000143   200003 631500                    EPPR1   SIZE,,AUTO
         2 000144   200153 451500                    STP1    TEXTC_NUM2+10,,AUTO
         2 000145   200030 633500                    EPPR3   STATS+2,,AUTO
         2 000146   200152 453500                    STP3    TEXTC_NUM2+9,,AUTO
         2 000147   200152 630500                    EPPR0   TEXTC_NUM2+9,,AUTO
         2 000150   000021 631400 xsym               EPPR1   B_VECTNIL+17
PL6.E3A0      #001=QQB$STATS File=QQB$STATS.:E05TSI                              WED 07/30/97 05:36 Page:23
         2 000151   000000 701000 xent               TSX1    QQC$CONVERT_NUM
         2 000152   000000 011000                    NOP     0

      144     4938    1           CALL QQC$CONVERT_NUM(STATS.PUTS, SIZE, ADDR(TEXTC_NUM2.NAME#));

   4938  2 000153   200151 452500                    STP2    TEXTC_NUM2+8,,AUTO
         2 000154   200151 236100                    LDQ     TEXTC_NUM2+8,,AUTO
         2 000155   000002 036000 3                  ADLQ    2
         2 000156   200150 756100                    STQ     TEXTC_NUM2+7,,AUTO
         2 000157   200150 630500                    EPPR0   TEXTC_NUM2+7,,AUTO
         2 000160   200154 450500                    STP0    TEXTC_NUM2+11,,AUTO
         2 000161   200003 631500                    EPPR1   SIZE,,AUTO
         2 000162   200153 451500                    STP1    TEXTC_NUM2+10,,AUTO
         2 000163   200031 633500                    EPPR3   STATS+3,,AUTO
         2 000164   200152 453500                    STP3    TEXTC_NUM2+9,,AUTO
         2 000165   200152 630500                    EPPR0   TEXTC_NUM2+9,,AUTO
         2 000166   000021 631400 xsym               EPPR1   B_VECTNIL+17
         2 000167   000000 701000 xent               TSX1    QQC$CONVERT_NUM
         2 000170   000000 011000                    NOP     0

      145     4939    1           CALL QQC$BLDMSG(MSGBLK);

   4939  2 000171   200110 630500                    EPPR0   MSGBLK,,AUTO
         2 000172   200150 450500                    STP0    TEXTC_NUM2+7,,AUTO
         2 000173   200150 630500                    EPPR0   TEXTC_NUM2+7,,AUTO
         2 000174   000017 631400 xsym               EPPR1   B_VECTNIL+15
         2 000175   000000 701000 xent               TSX1    QQC$BLDMSG
         2 000176   000000 011000                    NOP     0

      146     4940
      147     4941    1           CALL SET_UP;

   4941  2 000177   000747 701000 2                  TSX1    SET_UP
         2 000200   000000 011000                    NOP     0

      148     4942    1           MSGBLK.ERRINFO.ERR(0) = CODE_SL3;

PL6.E3A0      #001=QQB$STATS File=QQB$STATS.:E05TSI                              WED 07/30/97 05:36 Page:24
   4942  2 000201   000002 236000 1                  LDQ     CODE_SL3
         2 000202   200116 756100                    STQ     MSGBLK+6,,AUTO

      149     4943    1           CALL QQC$CONVERT_NUM(STATS.CCMQ, SIZE, ADDR(TEXTC_NUM1.NAME#));

   4943  2 000203   200151 452500                    STP2    TEXTC_NUM2+8,,AUTO
         2 000204   200151 236100                    LDQ     TEXTC_NUM2+8,,AUTO
         2 000205   000001 036000 3                  ADLQ    1
         2 000206   200150 756100                    STQ     TEXTC_NUM2+7,,AUTO
         2 000207   200150 630500                    EPPR0   TEXTC_NUM2+7,,AUTO
         2 000210   200154 450500                    STP0    TEXTC_NUM2+11,,AUTO
         2 000211   200003 631500                    EPPR1   SIZE,,AUTO
         2 000212   200153 451500                    STP1    TEXTC_NUM2+10,,AUTO
         2 000213   200032 633500                    EPPR3   STATS+4,,AUTO
         2 000214   200152 453500                    STP3    TEXTC_NUM2+9,,AUTO
         2 000215   200152 630500                    EPPR0   TEXTC_NUM2+9,,AUTO
         2 000216   000021 631400 xsym               EPPR1   B_VECTNIL+17
         2 000217   000000 701000 xent               TSX1    QQC$CONVERT_NUM
         2 000220   000000 011000                    NOP     0

      150     4944    1           CALL QQC$CONVERT_NUM(STATS.CCMS, SIZE, ADDR(TEXTC_NUM2.NAME#));

   4944  2 000221   200151 452500                    STP2    TEXTC_NUM2+8,,AUTO
         2 000222   200151 236100                    LDQ     TEXTC_NUM2+8,,AUTO
         2 000223   000002 036000 3                  ADLQ    2
         2 000224   200150 756100                    STQ     TEXTC_NUM2+7,,AUTO
         2 000225   200150 630500                    EPPR0   TEXTC_NUM2+7,,AUTO
         2 000226   200154 450500                    STP0    TEXTC_NUM2+11,,AUTO
         2 000227   200003 631500                    EPPR1   SIZE,,AUTO
         2 000230   200153 451500                    STP1    TEXTC_NUM2+10,,AUTO
         2 000231   200033 633500                    EPPR3   STATS+5,,AUTO
         2 000232   200152 453500                    STP3    TEXTC_NUM2+9,,AUTO
         2 000233   200152 630500                    EPPR0   TEXTC_NUM2+9,,AUTO
         2 000234   000021 631400 xsym               EPPR1   B_VECTNIL+17
         2 000235   000000 701000 xent               TSX1    QQC$CONVERT_NUM
         2 000236   000000 011000                    NOP     0

PL6.E3A0      #001=QQB$STATS File=QQB$STATS.:E05TSI                              WED 07/30/97 05:36 Page:25
      151     4945    1           CALL QQC$BLDMSG(MSGBLK);

   4945  2 000237   200110 630500                    EPPR0   MSGBLK,,AUTO
         2 000240   200150 450500                    STP0    TEXTC_NUM2+7,,AUTO
         2 000241   200150 630500                    EPPR0   TEXTC_NUM2+7,,AUTO
         2 000242   000017 631400 xsym               EPPR1   B_VECTNIL+15
         2 000243   000000 701000 xent               TSX1    QQC$BLDMSG
         2 000244   000000 011000                    NOP     0

      152     4946
      153     4947    1           CALL SET_UP;

   4947  2 000245   000747 701000 2                  TSX1    SET_UP
         2 000246   000000 011000                    NOP     0

      154     4948    1           MSGBLK.ERRINFO.ERR(0) = CODE_SL4;

   4948  2 000247   000003 236000 1                  LDQ     CODE_SL4
         2 000250   200116 756100                    STQ     MSGBLK+6,,AUTO

      155     4949    1           CALL QQC$CONVERT_NUM(STATS.NUMDCBS, SIZE, ADDR(TEXTC_NUM1.NAME#));

   4949  2 000251   200151 452500                    STP2    TEXTC_NUM2+8,,AUTO
         2 000252   200151 236100                    LDQ     TEXTC_NUM2+8,,AUTO
         2 000253   000001 036000 3                  ADLQ    1
         2 000254   200150 756100                    STQ     TEXTC_NUM2+7,,AUTO
         2 000255   200150 630500                    EPPR0   TEXTC_NUM2+7,,AUTO
         2 000256   200154 450500                    STP0    TEXTC_NUM2+11,,AUTO
         2 000257   200003 631500                    EPPR1   SIZE,,AUTO
         2 000260   200153 451500                    STP1    TEXTC_NUM2+10,,AUTO
         2 000261   200034 633500                    EPPR3   STATS+6,,AUTO
         2 000262   200152 453500                    STP3    TEXTC_NUM2+9,,AUTO
         2 000263   200152 630500                    EPPR0   TEXTC_NUM2+9,,AUTO
         2 000264   000021 631400 xsym               EPPR1   B_VECTNIL+17
         2 000265   000000 701000 xent               TSX1    QQC$CONVERT_NUM
         2 000266   000000 011000                    NOP     0

PL6.E3A0      #001=QQB$STATS File=QQB$STATS.:E05TSI                              WED 07/30/97 05:36 Page:26
      156     4950    1           CALL QQC$CONVERT_NUM(STATS.NUMTERMS, SIZE, ADDR(TEXTC_NUM2.NAME#));

   4950  2 000267   200151 452500                    STP2    TEXTC_NUM2+8,,AUTO
         2 000270   200151 236100                    LDQ     TEXTC_NUM2+8,,AUTO
         2 000271   000002 036000 3                  ADLQ    2
         2 000272   200150 756100                    STQ     TEXTC_NUM2+7,,AUTO
         2 000273   200150 630500                    EPPR0   TEXTC_NUM2+7,,AUTO
         2 000274   200154 450500                    STP0    TEXTC_NUM2+11,,AUTO
         2 000275   200003 631500                    EPPR1   SIZE,,AUTO
         2 000276   200153 451500                    STP1    TEXTC_NUM2+10,,AUTO
         2 000277   200035 633500                    EPPR3   STATS+7,,AUTO
         2 000300   200152 453500                    STP3    TEXTC_NUM2+9,,AUTO
         2 000301   200152 630500                    EPPR0   TEXTC_NUM2+9,,AUTO
         2 000302   000021 631400 xsym               EPPR1   B_VECTNIL+17
         2 000303   000000 701000 xent               TSX1    QQC$CONVERT_NUM
         2 000304   000000 011000                    NOP     0

      157     4951    1           CALL QQC$BLDMSG(MSGBLK);

   4951  2 000305   200110 630500                    EPPR0   MSGBLK,,AUTO
         2 000306   200150 450500                    STP0    TEXTC_NUM2+7,,AUTO
         2 000307   200150 630500                    EPPR0   TEXTC_NUM2+7,,AUTO
         2 000310   000017 631400 xsym               EPPR1   B_VECTNIL+15
         2 000311   000000 701000 xent               TSX1    QQC$BLDMSG
         2 000312   000000 011000                    NOP     0

      158     4952
      159     4953    1           CALL SET_UP;

   4953  2 000313   000747 701000 2                  TSX1    SET_UP
         2 000314   000000 011000                    NOP     0

      160     4954    1           MSGBLK.ERRINFO.ERR(0) = CODE_SL5;

   4954  2 000315   000004 236000 1                  LDQ     CODE_SL5
         2 000316   200116 756100                    STQ     MSGBLK+6,,AUTO

PL6.E3A0      #001=QQB$STATS File=QQB$STATS.:E05TSI                              WED 07/30/97 05:36 Page:27
      161     4955    1           CALL QQC$CONVERT_NUM(STATS.DISCRDS, SIZE, ADDR(TEXTC_NUM1.NAME#));

   4955  2 000317   200151 452500                    STP2    TEXTC_NUM2+8,,AUTO
         2 000320   200151 236100                    LDQ     TEXTC_NUM2+8,,AUTO
         2 000321   000001 036000 3                  ADLQ    1
         2 000322   200150 756100                    STQ     TEXTC_NUM2+7,,AUTO
         2 000323   200150 630500                    EPPR0   TEXTC_NUM2+7,,AUTO
         2 000324   200154 450500                    STP0    TEXTC_NUM2+11,,AUTO
         2 000325   200003 631500                    EPPR1   SIZE,,AUTO
         2 000326   200153 451500                    STP1    TEXTC_NUM2+10,,AUTO
         2 000327   200036 633500                    EPPR3   STATS+8,,AUTO
         2 000330   200152 453500                    STP3    TEXTC_NUM2+9,,AUTO
         2 000331   200152 630500                    EPPR0   TEXTC_NUM2+9,,AUTO
         2 000332   000021 631400 xsym               EPPR1   B_VECTNIL+17
         2 000333   000000 701000 xent               TSX1    QQC$CONVERT_NUM
         2 000334   000000 011000                    NOP     0

      162     4956    1           CALL QQC$CONVERT_NUM(STATS.DISCWRS, SIZE, ADDR(TEXTC_NUM2.NAME#));

   4956  2 000335   200151 452500                    STP2    TEXTC_NUM2+8,,AUTO
         2 000336   200151 236100                    LDQ     TEXTC_NUM2+8,,AUTO
         2 000337   000002 036000 3                  ADLQ    2
         2 000340   200150 756100                    STQ     TEXTC_NUM2+7,,AUTO
         2 000341   200150 630500                    EPPR0   TEXTC_NUM2+7,,AUTO
         2 000342   200154 450500                    STP0    TEXTC_NUM2+11,,AUTO
         2 000343   200003 631500                    EPPR1   SIZE,,AUTO
         2 000344   200153 451500                    STP1    TEXTC_NUM2+10,,AUTO
         2 000345   200037 633500                    EPPR3   STATS+9,,AUTO
         2 000346   200152 453500                    STP3    TEXTC_NUM2+9,,AUTO
         2 000347   200152 630500                    EPPR0   TEXTC_NUM2+9,,AUTO
         2 000350   000021 631400 xsym               EPPR1   B_VECTNIL+17
         2 000351   000000 701000 xent               TSX1    QQC$CONVERT_NUM
         2 000352   000000 011000                    NOP     0

      163     4957    1           CALL QQC$BLDMSG(MSGBLK);

   4957  2 000353   200110 630500                    EPPR0   MSGBLK,,AUTO
PL6.E3A0      #001=QQB$STATS File=QQB$STATS.:E05TSI                              WED 07/30/97 05:36 Page:28
         2 000354   200150 450500                    STP0    TEXTC_NUM2+7,,AUTO
         2 000355   200150 630500                    EPPR0   TEXTC_NUM2+7,,AUTO
         2 000356   000017 631400 xsym               EPPR1   B_VECTNIL+15
         2 000357   000000 701000 xent               TSX1    QQC$BLDMSG
         2 000360   000000 011000                    NOP     0

      164     4958
      165     4959    1           CALL SET_UP;

   4959  2 000361   000747 701000 2                  TSX1    SET_UP
         2 000362   000000 011000                    NOP     0

      166     4960    1           MSGBLK.ERRINFO.ERR(0) = CODE_SL6;

   4960  2 000363   000005 236000 1                  LDQ     CODE_SL6
         2 000364   200116 756100                    STQ     MSGBLK+6,,AUTO

      167     4961    1           CALL XPN_7RTOLS(STATS.PGSI, AN, 7, AN_DIGITS, POWER);

   4961  2 000365   200005 630500                    EPPR0   POWER,,AUTO
         2 000366   200154 450500                    STP0    TEXTC_NUM2+11,,AUTO
         2 000367   200006 631500                    EPPR1   AN_DIGITS,,AUTO
         2 000370   200153 451500                    STP1    TEXTC_NUM2+10,,AUTO
         2 000371   000003 236000 3                  LDQ     3
         2 000372   200152 756100                    STQ     TEXTC_NUM2+9,,AUTO
         2 000373   200011 633500                    EPPR3   AN,,AUTO
         2 000374   200151 453500                    STP3    TEXTC_NUM2+8,,AUTO
         2 000375   200040 634500                    EPPR4   STATS+10,,AUTO
         2 000376   200150 454500                    STP4    TEXTC_NUM2+7,,AUTO
         2 000377   200150 630500                    EPPR0   TEXTC_NUM2+7,,AUTO
         2 000400   000023 631400 xsym               EPPR1   B_VECTNIL+19
         2 000401   000000 701000 xent               TSX1    XPN_7RTOLS
         2 000402   000000 011000                    NOP     0

      168     4962    1           IF ((POWER >= 0 ) AND (POWER + AN_DIGITS <= 7)) OR

   4962  2 000403   200005 235100                    LDA     POWER,,AUTO
PL6.E3A0      #001=QQB$STATS File=QQB$STATS.:E05TSI                              WED 07/30/97 05:36 Page:29
         2 000404   000411 604000 2                  TMI     s:4962+6
         2 000405   200005 236100                    LDQ     POWER,,AUTO
         2 000406   200006 036100                    ADLQ    AN_DIGITS,,AUTO
         2 000407   000007 116007                    CMPQ    7,DL
         2 000410   000415 604400 2                  TMOZ    s:4965
         2 000411   000000 115003                    CMPA    0,DU
         2 000412   000440 605000 2                  TPL     s:4969
         2 000413   000004 115000 3                  CMPA    4
         2 000414   000440 604000 2                  TMI     s:4969

      169     4963    1               (POWER < 0 AND POWER >= -7) THEN
      170     4964    2             DO;

      171     4965    2               CALL XPN_7FLJ(MYBUF, LENGTHC(MYBUF), AN, AN_DIGITS, POWER, 0, NCHARS);

   4965  2 000415   200007 630500                    EPPR0   NCHARS,,AUTO
         2 000416   200156 450500                    STP0    TEXTC_NUM2+13,,AUTO
         2 000417   000006 236000 3                  LDQ     6
         2 000420   200155 756100                    STQ     TEXTC_NUM2+12,,AUTO
         2 000421   200005 631500                    EPPR1   POWER,,AUTO
         2 000422   200154 451500                    STP1    TEXTC_NUM2+11,,AUTO
         2 000423   200006 633500                    EPPR3   AN_DIGITS,,AUTO
         2 000424   200153 453500                    STP3    TEXTC_NUM2+10,,AUTO
         2 000425   200011 634500                    EPPR4   AN,,AUTO
         2 000426   200152 454500                    STP4    TEXTC_NUM2+9,,AUTO
         2 000427   000007 236000 3                  LDQ     7
         2 000430   200151 756100                    STQ     TEXTC_NUM2+8,,AUTO
         2 000431   200016 635500                    EPPR5   MYBUF,,AUTO
         2 000432   200150 455500                    STP5    TEXTC_NUM2+7,,AUTO
         2 000433   200150 630500                    EPPR0   TEXTC_NUM2+7,,AUTO
         2 000434   000025 631400 xsym               EPPR1   B_VECTNIL+21
         2 000435   000000 701000 xent               TSX1    XPN_7FLJ
         2 000436   000000 011000                    NOP     0

      172     4966    2             END;

   4966  2 000437   000464 710000 2                  TRA     s:4971
PL6.E3A0      #001=QQB$STATS File=QQB$STATS.:E05TSI                              WED 07/30/97 05:36 Page:30

      173     4967    1           ELSE
      174     4968    2             DO;

      175     4969    2               CALL XPN_7ELJE1(MYBUF, LENGTHC(MYBUF), AN, AN_DIGITS, POWER, 0, NCHARS,
              4969                        -2);

   4969  2 000440   000011 236000 3                  LDQ     9
         2 000441   200157 756100                    STQ     TEXTC_NUM2+14,,AUTO
         2 000442   200007 630500                    EPPR0   NCHARS,,AUTO
         2 000443   200156 450500                    STP0    TEXTC_NUM2+13,,AUTO
         2 000444   000006 236000 3                  LDQ     6
         2 000445   200155 756100                    STQ     TEXTC_NUM2+12,,AUTO
         2 000446   200005 631500                    EPPR1   POWER,,AUTO
         2 000447   200154 451500                    STP1    TEXTC_NUM2+11,,AUTO
         2 000450   200006 633500                    EPPR3   AN_DIGITS,,AUTO
         2 000451   200153 453500                    STP3    TEXTC_NUM2+10,,AUTO
         2 000452   200011 634500                    EPPR4   AN,,AUTO
         2 000453   200152 454500                    STP4    TEXTC_NUM2+9,,AUTO
         2 000454   000007 236000 3                  LDQ     7
         2 000455   200151 756100                    STQ     TEXTC_NUM2+8,,AUTO
         2 000456   200016 635500                    EPPR5   MYBUF,,AUTO
         2 000457   200150 455500                    STP5    TEXTC_NUM2+7,,AUTO
         2 000460   200150 630500                    EPPR0   TEXTC_NUM2+7,,AUTO
         2 000461   000026 631400 xsym               EPPR1   B_VECTNIL+22
         2 000462   000000 701000 xent               TSX1    XPN_7ELJE1
         2 000463   000000 011000                    NOP     0

      176     4970    2             END;

      177     4971    1           CHAR_STRING_SIZE = NCHARS;

   4971  2 000464   200007 235100                    LDA     NCHARS,,AUTO
         2 000465   200010 755100                    STA     CHAR_STRING_SIZE,,AUTO

      178     4972    1           TEXTC_NUM1.NAME# = ADDR(MYBUF) -> CHAR$STRING;

PL6.E3A0      #001=QQB$STATS File=QQB$STATS.:E05TSI                              WED 07/30/97 05:36 Page:31
   4972  2 000466   000000 620005                    EAX0    0,AL
         2 000467   040100 100540                    MLR     fill='040'O
         2 000470   200016 000010                    ADSC9   MYBUF,,AUTO              cn=0,n=*X0
         2 000471   200135 200016                    ADSC9   TEXTC_NUM1,,AUTO         cn=1,n=14

      179     4973    1           CALL QQC$CONVERT_NUM(STATS.GARBCOLLS, SIZE, ADDR(TEXTC_NUM2.NAME#));

   4973  2 000472   200151 452500                    STP2    TEXTC_NUM2+8,,AUTO
         2 000473   200151 236100                    LDQ     TEXTC_NUM2+8,,AUTO
         2 000474   000002 036000 3                  ADLQ    2
         2 000475   200150 756100                    STQ     TEXTC_NUM2+7,,AUTO
         2 000476   200150 630500                    EPPR0   TEXTC_NUM2+7,,AUTO
         2 000477   200154 450500                    STP0    TEXTC_NUM2+11,,AUTO
         2 000500   200003 631500                    EPPR1   SIZE,,AUTO
         2 000501   200153 451500                    STP1    TEXTC_NUM2+10,,AUTO
         2 000502   200041 633500                    EPPR3   STATS+11,,AUTO
         2 000503   200152 453500                    STP3    TEXTC_NUM2+9,,AUTO
         2 000504   200152 630500                    EPPR0   TEXTC_NUM2+9,,AUTO
         2 000505   000021 631400 xsym               EPPR1   B_VECTNIL+17
         2 000506   000000 701000 xent               TSX1    QQC$CONVERT_NUM
         2 000507   000000 011000                    NOP     0

      180     4974    1           CALL QQC$BLDMSG(MSGBLK);

   4974  2 000510   200110 630500                    EPPR0   MSGBLK,,AUTO
         2 000511   200150 450500                    STP0    TEXTC_NUM2+7,,AUTO
         2 000512   200150 630500                    EPPR0   TEXTC_NUM2+7,,AUTO
         2 000513   000017 631400 xsym               EPPR1   B_VECTNIL+15
         2 000514   000000 701000 xent               TSX1    QQC$BLDMSG
         2 000515   000000 011000                    NOP     0

      181     4975
      182     4976    1           CALL SET_UP;

   4976  2 000516   000747 701000 2                  TSX1    SET_UP
         2 000517   000000 011000                    NOP     0

PL6.E3A0      #001=QQB$STATS File=QQB$STATS.:E05TSI                              WED 07/30/97 05:36 Page:32
      183     4977    1           MSGBLK.ERRINFO.ERR(0) = CODE_SL7;

   4977  2 000520   000006 236000 1                  LDQ     CODE_SL7
         2 000521   200116 756100                    STQ     MSGBLK+6,,AUTO

      184     4978    1           CALL QQC$CONVERT_NUM(STATS.FPREQ, SIZE, ADDR(TEXTC_NUM1.NAME#));

   4978  2 000522   200151 452500                    STP2    TEXTC_NUM2+8,,AUTO
         2 000523   200151 236100                    LDQ     TEXTC_NUM2+8,,AUTO
         2 000524   000001 036000 3                  ADLQ    1
         2 000525   200150 756100                    STQ     TEXTC_NUM2+7,,AUTO
         2 000526   200150 630500                    EPPR0   TEXTC_NUM2+7,,AUTO
         2 000527   200154 450500                    STP0    TEXTC_NUM2+11,,AUTO
         2 000530   200003 631500                    EPPR1   SIZE,,AUTO
         2 000531   200153 451500                    STP1    TEXTC_NUM2+10,,AUTO
         2 000532   200050 633500                    EPPR3   STATS+18,,AUTO
         2 000533   200152 453500                    STP3    TEXTC_NUM2+9,,AUTO
         2 000534   200152 630500                    EPPR0   TEXTC_NUM2+9,,AUTO
         2 000535   000021 631400 xsym               EPPR1   B_VECTNIL+17
         2 000536   000000 701000 xent               TSX1    QQC$CONVERT_NUM
         2 000537   000000 011000                    NOP     0

      185     4979    1           CALL QQC$CONVERT_NUM(STATS.TPU, SIZE, ADDR(TEXTC_NUM2.NAME#));

   4979  2 000540   200151 452500                    STP2    TEXTC_NUM2+8,,AUTO
         2 000541   200151 236100                    LDQ     TEXTC_NUM2+8,,AUTO
         2 000542   000002 036000 3                  ADLQ    2
         2 000543   200150 756100                    STQ     TEXTC_NUM2+7,,AUTO
         2 000544   200150 630500                    EPPR0   TEXTC_NUM2+7,,AUTO
         2 000545   200154 450500                    STP0    TEXTC_NUM2+11,,AUTO
         2 000546   200003 631500                    EPPR1   SIZE,,AUTO
         2 000547   200153 451500                    STP1    TEXTC_NUM2+10,,AUTO
         2 000550   200051 633500                    EPPR3   STATS+19,,AUTO
         2 000551   200152 453500                    STP3    TEXTC_NUM2+9,,AUTO
         2 000552   200152 630500                    EPPR0   TEXTC_NUM2+9,,AUTO
         2 000553   000021 631400 xsym               EPPR1   B_VECTNIL+17
         2 000554   000000 701000 xent               TSX1    QQC$CONVERT_NUM
PL6.E3A0      #001=QQB$STATS File=QQB$STATS.:E05TSI                              WED 07/30/97 05:36 Page:33
         2 000555   000000 011000                    NOP     0

      186     4980    1           CALL QQC$BLDMSG(MSGBLK);

   4980  2 000556   200110 630500                    EPPR0   MSGBLK,,AUTO
         2 000557   200150 450500                    STP0    TEXTC_NUM2+7,,AUTO
         2 000560   200150 630500                    EPPR0   TEXTC_NUM2+7,,AUTO
         2 000561   000017 631400 xsym               EPPR1   B_VECTNIL+15
         2 000562   000000 701000 xent               TSX1    QQC$BLDMSG
         2 000563   000000 011000                    NOP     0

      187     4981
      188     4982    1           CALL SET_UP;

   4982  2 000564   000747 701000 2                  TSX1    SET_UP
         2 000565   000000 011000                    NOP     0

      189     4983    1           MSGBLK.ERRINFO.ERR(0) = CODE_SL8;

   4983  2 000566   000007 236000 1                  LDQ     CODE_SL8
         2 000567   200116 756100                    STQ     MSGBLK+6,,AUTO

      190     4984    1           CALL QQC$CONVERT_NUM(STATS.EVENT, SIZE, ADDR(TEXTC_NUM1.NAME#));

   4984  2 000570   200151 452500                    STP2    TEXTC_NUM2+8,,AUTO
         2 000571   200151 236100                    LDQ     TEXTC_NUM2+8,,AUTO
         2 000572   000001 036000 3                  ADLQ    1
         2 000573   200150 756100                    STQ     TEXTC_NUM2+7,,AUTO
         2 000574   200150 630500                    EPPR0   TEXTC_NUM2+7,,AUTO
         2 000575   200154 450500                    STP0    TEXTC_NUM2+11,,AUTO
         2 000576   200003 631500                    EPPR1   SIZE,,AUTO
         2 000577   200153 451500                    STP1    TEXTC_NUM2+10,,AUTO
         2 000600   200052 633500                    EPPR3   STATS+20,,AUTO
         2 000601   200152 453500                    STP3    TEXTC_NUM2+9,,AUTO
         2 000602   200152 630500                    EPPR0   TEXTC_NUM2+9,,AUTO
         2 000603   000021 631400 xsym               EPPR1   B_VECTNIL+17
         2 000604   000000 701000 xent               TSX1    QQC$CONVERT_NUM
PL6.E3A0      #001=QQB$STATS File=QQB$STATS.:E05TSI                              WED 07/30/97 05:36 Page:34
         2 000605   000000 011000                    NOP     0

      191     4985    1           CALL QQC$CONVERT_NUM(STATS.CMD, SIZE, ADDR(TEXTC_NUM2.NAME#));

   4985  2 000606   200151 452500                    STP2    TEXTC_NUM2+8,,AUTO
         2 000607   200151 236100                    LDQ     TEXTC_NUM2+8,,AUTO
         2 000610   000002 036000 3                  ADLQ    2
         2 000611   200150 756100                    STQ     TEXTC_NUM2+7,,AUTO
         2 000612   200150 630500                    EPPR0   TEXTC_NUM2+7,,AUTO
         2 000613   200154 450500                    STP0    TEXTC_NUM2+11,,AUTO
         2 000614   200003 631500                    EPPR1   SIZE,,AUTO
         2 000615   200153 451500                    STP1    TEXTC_NUM2+10,,AUTO
         2 000616   200053 633500                    EPPR3   STATS+21,,AUTO
         2 000617   200152 453500                    STP3    TEXTC_NUM2+9,,AUTO
         2 000620   200152 630500                    EPPR0   TEXTC_NUM2+9,,AUTO
         2 000621   000021 631400 xsym               EPPR1   B_VECTNIL+17
         2 000622   000000 701000 xent               TSX1    QQC$CONVERT_NUM
         2 000623   000000 011000                    NOP     0

      192     4986    1           CALL QQC$BLDMSG(MSGBLK);

   4986  2 000624   200110 630500                    EPPR0   MSGBLK,,AUTO
         2 000625   200150 450500                    STP0    TEXTC_NUM2+7,,AUTO
         2 000626   200150 630500                    EPPR0   TEXTC_NUM2+7,,AUTO
         2 000627   000017 631400 xsym               EPPR1   B_VECTNIL+15
         2 000630   000000 701000 xent               TSX1    QQC$BLDMSG
         2 000631   000000 011000                    NOP     0

      193     4987
      194     4988    1           CALL SET_UP;

   4988  2 000632   000747 701000 2                  TSX1    SET_UP
         2 000633   000000 011000                    NOP     0

      195     4989    1           MSGBLK.ERRINFO.ERR(0) = CODE_SL9;

   4989  2 000634   000010 236000 1                  LDQ     CODE_SL9
PL6.E3A0      #001=QQB$STATS File=QQB$STATS.:E05TSI                              WED 07/30/97 05:36 Page:35
         2 000635   200116 756100                    STQ     MSGBLK+6,,AUTO

      196     4990    1           CALL QQC$CONVERT_NUM(QQ_GLOBAL.CGPGXTEND_CNT,SIZE,ADDR(TEXTC_NUM1.NAME#));

   4990  2 000636   200151 452500                    STP2    TEXTC_NUM2+8,,AUTO
         2 000637   200151 236100                    LDQ     TEXTC_NUM2+8,,AUTO
         2 000640   000001 036000 3                  ADLQ    1
         2 000641   200150 756100                    STQ     TEXTC_NUM2+7,,AUTO
         2 000642   200150 630500                    EPPR0   TEXTC_NUM2+7,,AUTO
         2 000643   200154 450500                    STP0    TEXTC_NUM2+11,,AUTO
         2 000644   200003 631500                    EPPR1   SIZE,,AUTO
         2 000645   200153 451500                    STP1    TEXTC_NUM2+10,,AUTO
         2 000646   000012 236000 3                  LDQ     10
         2 000647   200152 756100                    STQ     TEXTC_NUM2+9,,AUTO
         2 000650   200152 630500                    EPPR0   TEXTC_NUM2+9,,AUTO
         2 000651   000021 631400 xsym               EPPR1   B_VECTNIL+17
         2 000652   000000 701000 xent               TSX1    QQC$CONVERT_NUM
         2 000653   000000 011000                    NOP     0

      197     4991    1           CALL QQC$CONVERT_NUM(QQ_GLOBAL.XTEND_CNT,SIZE,ADDR(TEXTC_NUM2.NAME#));

   4991  2 000654   200151 452500                    STP2    TEXTC_NUM2+8,,AUTO
         2 000655   200151 236100                    LDQ     TEXTC_NUM2+8,,AUTO
         2 000656   000002 036000 3                  ADLQ    2
         2 000657   200150 756100                    STQ     TEXTC_NUM2+7,,AUTO
         2 000660   200150 630500                    EPPR0   TEXTC_NUM2+7,,AUTO
         2 000661   200154 450500                    STP0    TEXTC_NUM2+11,,AUTO
         2 000662   200003 631500                    EPPR1   SIZE,,AUTO
         2 000663   200153 451500                    STP1    TEXTC_NUM2+10,,AUTO
         2 000664   000013 236000 3                  LDQ     11
         2 000665   200152 756100                    STQ     TEXTC_NUM2+9,,AUTO
         2 000666   200152 630500                    EPPR0   TEXTC_NUM2+9,,AUTO
         2 000667   000021 631400 xsym               EPPR1   B_VECTNIL+17
         2 000670   000000 701000 xent               TSX1    QQC$CONVERT_NUM
         2 000671   000000 011000                    NOP     0

      198     4992    1           CALL QQC$BLDMSG(MSGBLK);
PL6.E3A0      #001=QQB$STATS File=QQB$STATS.:E05TSI                              WED 07/30/97 05:36 Page:36

   4992  2 000672   200110 630500                    EPPR0   MSGBLK,,AUTO
         2 000673   200150 450500                    STP0    TEXTC_NUM2+7,,AUTO
         2 000674   200150 630500                    EPPR0   TEXTC_NUM2+7,,AUTO
         2 000675   000017 631400 xsym               EPPR1   B_VECTNIL+15
         2 000676   000000 701000 xent               TSX1    QQC$BLDMSG
         2 000677   000000 011000                    NOP     0

      199     4993
      200     4994    1           CALL SET_UP;

   4994  2 000700   000747 701000 2                  TSX1    SET_UP
         2 000701   000000 011000                    NOP     0

      201     4995    1           MSGBLK.ERRINFO.ERR(0) = CODE_SL10;

   4995  2 000702   000011 236000 1                  LDQ     CODE_SL10
         2 000703   200116 756100                    STQ     MSGBLK+6,,AUTO

      202     4996    1           CALL QQC$CONVERT_NUM(STATS.WRDSFREE, SIZE, ADDR(TEXTC_NUM1.NAME#));

   4996  2 000704   200151 452500                    STP2    TEXTC_NUM2+8,,AUTO
         2 000705   200151 236100                    LDQ     TEXTC_NUM2+8,,AUTO
         2 000706   000001 036000 3                  ADLQ    1
         2 000707   200150 756100                    STQ     TEXTC_NUM2+7,,AUTO
         2 000710   200150 630500                    EPPR0   TEXTC_NUM2+7,,AUTO
         2 000711   200154 450500                    STP0    TEXTC_NUM2+11,,AUTO
         2 000712   200003 631500                    EPPR1   SIZE,,AUTO
         2 000713   200153 451500                    STP1    TEXTC_NUM2+10,,AUTO
         2 000714   200044 633500                    EPPR3   STATS+14,,AUTO
         2 000715   200152 453500                    STP3    TEXTC_NUM2+9,,AUTO
         2 000716   200152 630500                    EPPR0   TEXTC_NUM2+9,,AUTO
         2 000717   000021 631400 xsym               EPPR1   B_VECTNIL+17
         2 000720   000000 701000 xent               TSX1    QQC$CONVERT_NUM
         2 000721   000000 011000                    NOP     0

      203     4997    1           CALL QQC$CONVERT_NUM(STATS.WRDSUSED, SIZE, ADDR(TEXTC_NUM2.NAME#));
PL6.E3A0      #001=QQB$STATS File=QQB$STATS.:E05TSI                              WED 07/30/97 05:36 Page:37

   4997  2 000722   200151 452500                    STP2    TEXTC_NUM2+8,,AUTO
         2 000723   200151 236100                    LDQ     TEXTC_NUM2+8,,AUTO
         2 000724   000002 036000 3                  ADLQ    2
         2 000725   200150 756100                    STQ     TEXTC_NUM2+7,,AUTO
         2 000726   200150 630500                    EPPR0   TEXTC_NUM2+7,,AUTO
         2 000727   200154 450500                    STP0    TEXTC_NUM2+11,,AUTO
         2 000730   200003 631500                    EPPR1   SIZE,,AUTO
         2 000731   200153 451500                    STP1    TEXTC_NUM2+10,,AUTO
         2 000732   200043 633500                    EPPR3   STATS+13,,AUTO
         2 000733   200152 453500                    STP3    TEXTC_NUM2+9,,AUTO
         2 000734   200152 630500                    EPPR0   TEXTC_NUM2+9,,AUTO
         2 000735   000021 631400 xsym               EPPR1   B_VECTNIL+17
         2 000736   000000 701000 xent               TSX1    QQC$CONVERT_NUM
         2 000737   000000 011000                    NOP     0

      204     4998    1           CALL QQC$BLDMSG(MSGBLK);

   4998  2 000740   200110 630500                    EPPR0   MSGBLK,,AUTO
         2 000741   200150 450500                    STP0    TEXTC_NUM2+7,,AUTO
         2 000742   200150 630500                    EPPR0   TEXTC_NUM2+7,,AUTO
         2 000743   000017 631400 xsym               EPPR1   B_VECTNIL+15
         2 000744   000000 701000 xent               TSX1    QQC$BLDMSG
         2 000745   000000 011000                    NOP     0

      205     4999    1           RETURN;

   4999  2 000746   000000 702200 xent               TSX2  ! X66_ARET

      206     5000                %PAGE(ARG="SET_UP", PAGE=YES);

PL6.E3A0      #001=QQB$STATS File=QQB$STATS.:E05TSI                              WED 07/30/97 05:36 Page:38
              5017    1   /***************************************************************************
              5018    1    *                                                                         *
              5019    1    *                                   SET_UP                                *
              5020    1    *                                                                         *
              5021    1    ***************************************************************************/

      207     5025    1   SET_UP:

   5025  2 000747   200146 741300       SET_UP       STX1  ! TEXTC_NUM2+5,,AUTO

      208     5026    1           PROC;
      209     5027
      210     5028    2           MSGBLK.TEXT$ = ADDR(NIL);

   5028  2 000750   000001 236000 xsym               LDQ     B_VECTNIL+1
         2 000751   200115 756100                    STQ     MSGBLK+5,,AUTO

      211     5029    2           TEXTC_NUM1.NAME# = ' ';

   5029  2 000752   040100 100400                    MLR     fill='040'O
         2 000753   000035 000001 xsym               ADSC9   B_VECTNIL+29             cn=0,n=1
         2 000754   200135 200016                    ADSC9   TEXTC_NUM1,,AUTO         cn=1,n=14

      212     5030    2           TEXTC_NUM2.NAME# = ' ';

   5030  2 000755   040100 100400                    MLR     fill='040'O
         2 000756   000035 000001 xsym               ADSC9   B_VECTNIL+29             cn=0,n=1
         2 000757   200141 200016                    ADSC9   TEXTC_NUM2,,AUTO         cn=1,n=14

      213     5031
      214     5032    2           RETURN;

   5032  2 000760   000001 702211                    TSX2  ! 1,X1
      215     5033
      216     5034    2   END SET_UP;
      217     5035    1   END QQB$STATS;

PL6.E3A0      #001=QQB$STATS File=QQB$STATS.:E05TSI                              WED 07/30/97 05:36 Page:39
--  Include file information  --

   Q_ERRCODE_C.:E05TOU  is referenced.
   QQ_PERR_C.:E05TOU  is referenced.
   QQ_SUBS_C.:E05TOU  is referenced.
   XU_MACRO_C.:E05TOU  is referenced.
   PC_MACRO_C.:E05TOU  is referenced.
   QQ_DATA_R.:E05TOU  cannot be made into a system file and is referenced.
   QQ_MACROS_C.:E05TOU  is referenced.
   CP_6.:E05TOU  cannot be made into a system file and is referenced.
   Q_PAGE_C.:E05TOU  is referenced.
   B$JIT_C.:E05TOU  was found in the system file and is never referenced.
   CP_6_C.:E05TOU  was found in the system file and is referenced.
      No diagnostics issued in procedure QQB$STATS.
PL6.E3A0      #001=QQB$STATS File=QQB$STATS.:E05TSI                              WED 07/30/97 05:36 Page:40

 **** Variables and constants ****

  ****  Section 001 RoData QQB$STATS

  ****  Scalars and arrays  ****
OctLoc.c.b A Datatyp(siz) R M Lvl/name                 OctLoc.c.b A Datatyp(siz) R M Lvl/name

     0-0-0/b STRC        r     1 CODE_SL1                  11-0-0/b STRC        r     1 CODE_SL10
     1-0-0/b STRC        r     1 CODE_SL2                   2-0-0/b STRC        r     1 CODE_SL3
     3-0-0/b STRC        r     1 CODE_SL4                   4-0-0/b STRC        r     1 CODE_SL5
     5-0-0/b STRC        r     1 CODE_SL6                   6-0-0/b STRC        r     1 CODE_SL7
     7-0-0/b STRC        r     1 CODE_SL8                  10-0-0/b STRC        r     1 CODE_SL9

  ****  Auto variables  ****

  ****  Scalars and arrays  ****
OctLoc.c.b A Datatyp(siz) R M Lvl/name                 OctLoc.c.b A Datatyp(siz) R M Lvl/name

    11-0-0/c CHAR(20)    r     1 AN                         6-0-0/w UBIN        r     1 AN_DIGITS
    10-0-0/w UBIN        r     1 CHAR_STRING_SIZE         110-0-0/w STRC(738)   r     1 MSGBLK
    16-0-0/c CHAR(28)    r     1 MYBUF                      7-0-0/w UBIN        r     1 NCHARS
     4-0-0/w UBIN        r     1 OPT                        5-0-0/w SBIN        r     1 POWER
     3-0-0/w UBIN        r     1 SIZE                      26-0-0/d STRC(1800)  r     1 STATS
   135-0-0/c STRC(135)   r     1 TEXTC_NUM1               141-0-0/c STRC(135)   r     1 TEXTC_NUM2

  ****  SYMREF variables  ****

  ****  Scalars and arrays  ****
OctLoc.c.b A Datatyp(siz) R M Lvl/name                 OctLoc.c.b A Datatyp(siz) R M Lvl/name

     0-0-0/w STRC(315)   r     1 QQ_CMDBLK                  0-0-0/d STRC(9090)  r     1 QQ_GLOBAL

  ****  BASED and DCB variables  ****

  ****  Scalars and arrays  ****
OctLoc.c.b A Datatyp(siz) R M Lvl/name                 OctLoc.c.b A Datatyp(siz) R M Lvl/name

PL6.E3A0      #001=QQB$STATS File=QQB$STATS.:E05TSI                              WED 07/30/97 05:36 Page:41
     0-0-0/c ACHR        r     1 CHAR$STRING                0-0-0/w STRC(144)   r     1 OUT$BLK
     0-0-0/w ASTR(153)   r     1 OUT$SYM                    0-0-0/w STRC(2700)  r     1 PC$INSTANCE


   Procedure QQB$STATS requires 497 words for executable code.
   Procedure QQB$STATS requires 112 words of local(AUTO) storage.

    No errors detected in file QQB$STATS.:E05TSI    .
PL6.E3A0      #001=QQB$STATS File=QQB$STATS.:E05TSI                              WED 07/30/97 05:36 Page:42
          *** CROSS REFERENCE LISTING ***
**     DENOTES     IDENTIFIER DEFINITION
<<                 IDENTIFIER'S VALUE SET
>>                 IDENTIFIER'S VALUE USED
<>                 IDENTIFIER SET AND/OR USED
--                 IDENTIFIER REFERENCED
PL6.E3A0      #001=QQB$STATS File=QQB$STATS.:E05TSI                              WED 07/30/97 05:36 Page:43
          MINI XREF LISTING

AN
      4552**DCL      4961<>CALL     4965<>CALL     4969<>CALL
AN_DIGITS
      4548**DCL      4961<>CALL     4962>>IF       4965<>CALL     4969<>CALL
CHAR$STRING
      4385**DCL      4972>>ASSIGN
CHAR_STRING_SIZE
      4550**DCL      4385--IMP-SIZ  4971<<ASSIGN   4972>>ASSIGN
CODE_SL1
      4762**DCL      4930>>ASSIGN
CODE_SL10
      4825**DCL      4995>>ASSIGN
CODE_SL2
      4769**DCL      4936>>ASSIGN
CODE_SL3
      4776**DCL      4942>>ASSIGN
CODE_SL4
      4783**DCL      4948>>ASSIGN
CODE_SL5
      4790**DCL      4954>>ASSIGN
CODE_SL6
      4797**DCL      4960>>ASSIGN
CODE_SL7
      4804**DCL      4977>>ASSIGN
CODE_SL8
      4811**DCL      4983>>ASSIGN
CODE_SL9
      4818**DCL      4989>>ASSIGN
MSGBLK
      4593**DCL      4923<>CALL     4933<>CALL     4939<>CALL     4945<>CALL     4951<>CALL     4957<>CALL
      4974<>CALL     4980<>CALL     4986<>CALL     4992<>CALL     4998<>CALL
MSGBLK.ERRINFO.ERR
PL6.E3A0      #001=QQB$STATS File=QQB$STATS.:E05TSI                              WED 07/30/97 05:36 Page:44
      4671**DCL      4930<<ASSIGN   4936<<ASSIGN   4942<<ASSIGN   4948<<ASSIGN   4954<<ASSIGN   4960<<ASSIGN
      4977<<ASSIGN   4983<<ASSIGN   4989<<ASSIGN   4995<<ASSIGN
MSGBLK.ERRINFO.FIELD1
      4675**DCL      4924<<ASSIGN
MSGBLK.ERRINFO.FIELD2
      4677**DCL      4925<<ASSIGN
MSGBLK.TEXT$
      4667**DCL      5028<<ASSIGN
MYBUF
      4553**DCL      4965<>CALL     4965--CALL     4969<>CALL     4969--CALL     4972--ASSIGN
NCHARS
      4549**DCL      4965<>CALL     4969<>CALL     4971>>ASSIGN
OPT
      4546**DCL      4908<<ASSIGN   4910<<ASSIGN   4912>>IF
OUT$BLK.NSUBLKS
      4405**DCL      4906>>IF
OUT$BLK.SUBLK$
      4426**DCL      4910>>ASSIGN
OUT$SYM.CODE
      4445**DCL      4910>>ASSIGN
OUT$SYM.COUNT
      4462**DCL      4465--IMP-SIZ
PC$INSTANCE.STATS
      4497**DCL      4914>>ASSIGN
POWER
      4547**DCL      4961<>CALL     4962>>IF       4962>>IF       4962>>IF       4962>>IF       4965<>CALL
      4969<>CALL
QQC$BLDMSG
      4355**DCL-ENT  4933--CALL     4939--CALL     4945--CALL     4951--CALL     4957--CALL     4974--CALL
      4980--CALL     4986--CALL     4992--CALL     4998--CALL
QQC$BLDMSG_BLK
      4354**DCL-ENT  4923--CALL
QQC$CONVERT_NUM
      4356**DCL-ENT  4931--CALL     4932--CALL     4937--CALL     4938--CALL     4943--CALL     4944--CALL
      4949--CALL     4950--CALL     4955--CALL     4956--CALL     4973--CALL     4978--CALL     4979--CALL
      4984--CALL     4985--CALL     4990--CALL     4991--CALL     4996--CALL     4997--CALL
PL6.E3A0      #001=QQB$STATS File=QQB$STATS.:E05TSI                              WED 07/30/97 05:36 Page:45
QQ_CMDBLK.OUT$
       584**DCL      4906>>IF       4910>>ASSIGN
QQ_GLOBAL.CGPGXTEND_CNT
       590**DCL      4990<>CALL
QQ_GLOBAL.DELTA_STATS
       650**DCL      4918>>ASSIGN
QQ_GLOBAL.DS1$_BITS
       595**DCL       595--REDEF
QQ_GLOBAL.DS2$_BITS
       595**DCL       596--REDEF
QQ_GLOBAL.DS3$_BITS
       596**DCL       596--REDEF
QQ_GLOBAL.DS4$_BITS
       596**DCL       597--REDEF
QQ_GLOBAL.PC$INSTANCE$
       597**DCL      4471--IMP-PTR  4914>>ASSIGN
QQ_GLOBAL.STATS_CNT
       595**DCL      4920<<ASSIGN   4920>>ASSIGN
QQ_GLOBAL.XTEND_CNT
       590**DCL      4991<>CALL
SET_UP
      5026**PROC     4929--CALL     4935--CALL     4941--CALL     4947--CALL     4953--CALL     4959--CALL
      4976--CALL     4982--CALL     4988--CALL     4994--CALL
SIZE
      4545**DCL      4931<>CALL     4932<>CALL     4937<>CALL     4938<>CALL     4943<>CALL     4944<>CALL
      4949<>CALL     4950<>CALL     4955<>CALL     4956<>CALL     4973<>CALL     4978<>CALL     4979<>CALL
      4984<>CALL     4985<>CALL     4990<>CALL     4991<>CALL     4996<>CALL     4997<>CALL
STATS
      4568**DCL      4914<<ASSIGN   4918<<ASSIGN
STATS.CCMQ
      4573**DCL      4943<>CALL
STATS.CCMS
      4573**DCL      4944<>CALL
STATS.CMD
      4587**DCL      4985<>CALL
STATS.DISCRDS
PL6.E3A0      #001=QQB$STATS File=QQB$STATS.:E05TSI                              WED 07/30/97 05:36 Page:46
      4575**DCL      4955<>CALL
STATS.DISCWRS
      4575**DCL      4956<>CALL
STATS.EVENT
      4585**DCL      4984<>CALL
STATS.FPREQ
      4581**DCL      4978<>CALL
STATS.GARBCOLLS
      4576**DCL      4973<>CALL
STATS.GETS
      4572**DCL      4937<>CALL
STATS.NUMDCBS
      4574**DCL      4949<>CALL
STATS.NUMTERMS
      4574**DCL      4950<>CALL
STATS.PGSI
      4575**DCL      4961<>CALL
STATS.PUTS
      4573**DCL      4938<>CALL
STATS.READS
      4572**DCL      4931<>CALL
STATS.TPU
      4583**DCL      4979<>CALL
STATS.WRDSFREE
      4577**DCL      4996<>CALL
STATS.WRDSUSED
      4577**DCL      4997<>CALL
STATS.WRITES
      4572**DCL      4932<>CALL
TEXTC_NUM1
      4707**DCL      4924--ASSIGN
TEXTC_NUM1.L#
      4707**DCL      4926<<ASSIGN
TEXTC_NUM1.NAME#
      4707**DCL      4931--CALL     4937--CALL     4943--CALL     4949--CALL     4955--CALL     4972<<ASSIGN
      4978--CALL     4984--CALL     4990--CALL     4996--CALL     5029<<ASSIGN
PL6.E3A0      #001=QQB$STATS File=QQB$STATS.:E05TSI                              WED 07/30/97 05:36 Page:47
TEXTC_NUM2
      4734**DCL      4925--ASSIGN
TEXTC_NUM2.L#
      4734**DCL      4927<<ASSIGN
TEXTC_NUM2.NAME#
      4734**DCL      4932--CALL     4938--CALL     4944--CALL     4950--CALL     4956--CALL     4973--CALL
      4979--CALL     4985--CALL     4991--CALL     4997--CALL     5030<<ASSIGN
XPN_7ELJE1
      4359**DCL-ENT  4969--CALL
XPN_7FLJ
      4358**DCL-ENT  4965--CALL
XPN_7RTOLS
      4357**DCL-ENT  4961--CALL
