VERSION E05

PL6.E3A0      #001=QQB$STOPTP File=QQB$STOPTP.:E05TSI                            WED 07/30/97 05:37 Page:1
        1        1        /*M* QQB$STOPTP - Perform  STOPTP  command */
        2        2        /*T***********************************************************/
        3        3        /*T*                                                         */
        4        4        /*T* Copyright (c) Bull HN Information Systems Inc., 1997    */
        5        5        /*T*                                                         */
        6        6        /*T***********************************************************/
        7        7        /*X* IND=2, DCI=4, CSU=2, ECU=4, DTI=2, CTI=4, AND */
        8        8        QQB$STOPTP:
        9        9                PROC;
       10       10
       11       11        %INCLUDE Q_PAGE_C;
       12       43        %SET LISTEXP = '1'B;
       13       44        %PAGE(ARG="Includes");

                61        /***************************************************************************
                62         *                                                                         *
                63         *                                  Includes                               *
                64         *                                                                         *
                65         ***************************************************************************/

       14       69        %INCLUDE CP_6;
       15      150        %INCLUDE QQ_MACROS_C;
       16      575        %INCLUDE QQ_DATA_R;
       17      821        %INCLUDE PC_MACRO_C;
       18      847        %PC$INSTANCE(STCLASS="BASED(QQ_GLOBAL.PC$INSTANCE$)");
       19      897        %INCLUDE XU_MACRO_C;
       20     4003        %PAGE(ARG="Externally defined routines");

              4020    1   /***************************************************************************
              4021    1    *                                                                         *
              4022    1    *                        Externally defined routines                      *
              4023    1    *                                                                         *
              4024    1    ***************************************************************************/

       21     4028    1   DCL QQC$STOPTP ENTRY(1);
       22     4029        %PAGE(ARG="Based");

PL6.E3A0      #001=QQB$STOPTP File=QQB$STOPTP.:E05TSI                            WED 07/30/97 05:37 Page:2
              4046    1   /***************************************************************************
              4047    1    *                                                                         *
              4048    1    *                                   Based                                 *
              4049    1    *                                                                         *
              4050    1    ***************************************************************************/

       23     4054        %PARSE$OUT(STCLASS=BASED);
       24     4099        %PAGE(ARG="Auto");

              4116    1   /***************************************************************************
              4117    1    *                                                                         *
              4118    1    *                                    Auto                                 *
              4119    1    *                                                                         *
              4120    1    ***************************************************************************/

       25     4124    1   DCL NOW_FLAG BIT(1) ALIGNED;
       26     4125        %PAGE(ARG="QQB$STOPTP", PAGE=YES);

PL6.E3A0      #001=QQB$STOPTP File=QQB$STOPTP.:E05TSI                            WED 07/30/97 05:37 Page:3
              4142    1   /***************************************************************************
              4143    1    *                                                                         *
              4144    1    *                                 QQB$STOPTP                              *
              4145    1    *                                                                         *
              4146    1    ***************************************************************************/

       27     4150    1           NOW_FLAG = '0'B;
       28     4151
       29     4152    1           IF QQ_CMDBLK.OUT$ -> OUT$BLK.NSUBLKS = 1 THEN
       30     4153    2             DO;
       31     4154    2               NOW_FLAG = '1'B;
       32     4155    2             END;
       33     4156
       34     4157    1           CALL QQC$STOPTP(NOW_FLAG);
       35     4158
       36     4159    1           PC$INSTANCE.FLAGS.ACTIVE = '0'B;
       37     4160    1           RETURN;
       38     4161
       39     4162    1   END QQB$STOPTP;

PL6.E3A0      #001=QQB$STOPTP File=QQB$STOPTP.:E05TSI                            WED 07/30/97 05:37 Page:4
--  Include file information  --

   XU_MACRO_C.:E05TOU  is referenced.
   PC_MACRO_C.:E05TOU  is referenced.
   QQ_DATA_R.:E05TOU  cannot be made into a system file and is referenced.
   QQ_MACROS_C.:E05TOU  is referenced.
   CP_6.:E05TOU  cannot be made into a system file and is referenced.
   Q_PAGE_C.:E05TOU  is referenced.
   B$JIT_C.:E05TOU  was found in the system file and is never referenced.
   CP_6_C.:E05TOU  was found in the system file and is referenced.
      No diagnostics issued in procedure QQB$STOPTP.

   Procedure QQB$STOPTP requires 19 words for executable code.
   Procedure QQB$STOPTP requires 6 words of local(AUTO) storage.

    No errors detected in file QQB$STOPTP.:E05TSI    .

PL6.E3A0      #001=QQB$STOPTP File=QQB$STOPTP.:E05TSI                            WED 07/30/97 05:37 Page:5

 Object Unit name= QQB$STOPTP                                 File name= QQB$STOPTP.:E05TOU
 UTS= JUL 30 '97 05:37:12.84 WED                              Compiler= PL-6/E31         Sev=      00
 SharedLib= :SHARED_SYSTEM                                    Alt SharedLib=


    ****  Control sections  ****

 Sect   Type Bound  Init  Size OctSiz  Section name(segment info)
    0   DCB   even  none     0      0  M$UC
    1   Proc  even  none    19     23  QQB$STOPTP

    ****  Entry defs  ****

                              Check   Calling
                             calling  sequence
  Sect OctLoc Primary Altret sequence   type   Parms  Name
     1      0   yes            yes      Std        0  QQB$STOPTP

  ****  Entry refs  ****

         Check        Calling
        calling       sequence
Altret sequence SRef   type   Args  Name
         yes           Std       1 QQC$STOPTP
                       nStd      0 X66_AUTO_0
                       Std       0 B_CONSPOOL_D
                       nStd      0 X66_ARET

  ****  Data refs  ****

  Flags:  r = read only, s = secondary
Flgs Name                             Flgs Name                             Flgs Name
     M$UC                                  QQ_CMDBLK                             QQ_GLOBAL
     B_VECTNIL
PL6.E3A0      #001=QQB$STOPTP File=QQB$STOPTP.:E05TSI                            WED 07/30/97 05:37 Page:6


        1        1        /*M* QQB$STOPTP - Perform  STOPTP  command */
        2        2        /*T***********************************************************/
        3        3        /*T*                                                         */
        4        4        /*T* Copyright (c) Bull HN Information Systems Inc., 1997    */
        5        5        /*T*                                                         */
        6        6        /*T***********************************************************/
        7        7        /*X* IND=2, DCI=4, CSU=2, ECU=4, DTI=2, CTI=4, AND */
        8        8        QQB$STOPTP:
        9        9                PROC;

      9  1 000000   000000 700200 xent  QQB$STOPTP   TSX0  ! X66_AUTO_0
         1 000001   000006 000000                    ZERO    6,0

       10       10
       11       11        %INCLUDE Q_PAGE_C;
       12       43        %SET LISTEXP = '1'B;
       13       44        %PAGE(ARG="Includes");

                61        /***************************************************************************
                62         *                                                                         *
                63         *                                  Includes                               *
                64         *                                                                         *
                65         ***************************************************************************/

       14       69        %INCLUDE CP_6;
       15      150        %INCLUDE QQ_MACROS_C;
       16      575        %INCLUDE QQ_DATA_R;
       17      821        %INCLUDE PC_MACRO_C;
       18      847        %PC$INSTANCE(STCLASS="BASED(QQ_GLOBAL.PC$INSTANCE$)");
       19      897        %INCLUDE XU_MACRO_C;
       20     4003        %PAGE(ARG="Externally defined routines");

              4020    1   /***************************************************************************
              4021    1    *                                                                         *
              4022    1    *                        Externally defined routines                      *
              4023    1    *                                                                         *
PL6.E3A0      #001=QQB$STOPTP File=QQB$STOPTP.:E05TSI                            WED 07/30/97 05:37 Page:7
              4024    1    ***************************************************************************/

       21     4028    1   DCL QQC$STOPTP ENTRY(1);
       22     4029        %PAGE(ARG="Based");

              4046    1   /***************************************************************************
              4047    1    *                                                                         *
              4048    1    *                                   Based                                 *
              4049    1    *                                                                         *
              4050    1    ***************************************************************************/

       23     4054        %PARSE$OUT(STCLASS=BASED);
       24     4099        %PAGE(ARG="Auto");

              4116    1   /***************************************************************************
              4117    1    *                                                                         *
              4118    1    *                                    Auto                                 *
              4119    1    *                                                                         *
              4120    1    ***************************************************************************/

       25     4124    1   DCL NOW_FLAG BIT(1) ALIGNED;
       26     4125        %PAGE(ARG="QQB$STOPTP", PAGE=YES);

PL6.E3A0      #001=QQB$STOPTP File=QQB$STOPTP.:E05TSI                            WED 07/30/97 05:37 Page:8
              4142    1   /***************************************************************************
              4143    1    *                                                                         *
              4144    1    *                                 QQB$STOPTP                              *
              4145    1    *                                                                         *
              4146    1    ***************************************************************************/

       27     4150    1           NOW_FLAG = '0'B;

   4150  1 000002   200003 450100                    STZ     NOW_FLAG,,AUTO

       28     4151
       29     4152    1           IF QQ_CMDBLK.OUT$ -> OUT$BLK.NSUBLKS = 1 THEN

   4152  1 000003   000005 470400 xsym               LDP0    QQ_CMDBLK+5
         1 000004   000001 220100                    LDX0    1,,PR0
         1 000005   000001 100003                    CMPX0   1,DU
         1 000006   000011 601000 1                  TNZ     s:4157

       30     4153    2             DO;

       31     4154    2               NOW_FLAG = '1'B;

   4154  1 000007   400000 236003                    LDQ     -131072,DU
         1 000010   200003 756100                    STQ     NOW_FLAG,,AUTO

       32     4155    2             END;

       33     4156
       34     4157    1           CALL QQC$STOPTP(NOW_FLAG);

   4157  1 000011   200003 631500                    EPPR1   NOW_FLAG,,AUTO
         1 000012   200004 451500                    STP1    NOW_FLAG+1,,AUTO
         1 000013   200004 630500                    EPPR0   NOW_FLAG+1,,AUTO
         1 000014   000017 631400 xsym               EPPR1   B_VECTNIL+15
         1 000015   000000 701000 xent               TSX1    QQC$STOPTP
         1 000016   000000 011000                    NOP     0

PL6.E3A0      #001=QQB$STOPTP File=QQB$STOPTP.:E05TSI                            WED 07/30/97 05:37 Page:9
       35     4158
       36     4159    1           PC$INSTANCE.FLAGS.ACTIVE = '0'B;

   4159  1 000017   000154 470400 xsym               LDP0    QQ_GLOBAL+108
         1 000020   000031 236000 xsym               LDQ     B_VECTNIL+25
         1 000021   000003 356100                    ANSQ    3,,PR0

       37     4160    1           RETURN;

   4160  1 000022   000000 702200 xent               TSX2  ! X66_ARET
       38     4161
       39     4162    1   END QQB$STOPTP;

PL6.E3A0      #001=QQB$STOPTP File=QQB$STOPTP.:E05TSI                            WED 07/30/97 05:37 Page:10
--  Include file information  --

   XU_MACRO_C.:E05TOU  is referenced.
   PC_MACRO_C.:E05TOU  is referenced.
   QQ_DATA_R.:E05TOU  cannot be made into a system file and is referenced.
   QQ_MACROS_C.:E05TOU  is referenced.
   CP_6.:E05TOU  cannot be made into a system file and is referenced.
   Q_PAGE_C.:E05TOU  is referenced.
   B$JIT_C.:E05TOU  was found in the system file and is never referenced.
   CP_6_C.:E05TOU  was found in the system file and is referenced.
      No diagnostics issued in procedure QQB$STOPTP.
PL6.E3A0      #001=QQB$STOPTP File=QQB$STOPTP.:E05TSI                            WED 07/30/97 05:37 Page:11

 **** Variables and constants ****

  ****  Auto variables  ****

  ****  Scalars and arrays  ****
OctLoc.c.b A Datatyp(siz) R M Lvl/name                 OctLoc.c.b A Datatyp(siz) R M Lvl/name

     3-0-0/w BIT         r     1 NOW_FLAG

  ****  SYMREF variables  ****

  ****  Scalars and arrays  ****
OctLoc.c.b A Datatyp(siz) R M Lvl/name                 OctLoc.c.b A Datatyp(siz) R M Lvl/name

     0-0-0/w STRC(315)   r     1 QQ_CMDBLK                  0-0-0/d STRC(9090)  r     1 QQ_GLOBAL

  ****  BASED and DCB variables  ****

  ****  Scalars and arrays  ****
OctLoc.c.b A Datatyp(siz) R M Lvl/name                 OctLoc.c.b A Datatyp(siz) R M Lvl/name

     0-0-0/w STRC(144)   r     1 OUT$BLK                    0-0-0/w STRC(2700)  r     1 PC$INSTANCE


   Procedure QQB$STOPTP requires 19 words for executable code.
   Procedure QQB$STOPTP requires 6 words of local(AUTO) storage.

    No errors detected in file QQB$STOPTP.:E05TSI    .
PL6.E3A0      #001=QQB$STOPTP File=QQB$STOPTP.:E05TSI                            WED 07/30/97 05:37 Page:12
          *** CROSS REFERENCE LISTING ***
**     DENOTES     IDENTIFIER DEFINITION
<<                 IDENTIFIER'S VALUE SET
>>                 IDENTIFIER'S VALUE USED
<>                 IDENTIFIER SET AND/OR USED
--                 IDENTIFIER REFERENCED
PL6.E3A0      #001=QQB$STOPTP File=QQB$STOPTP.:E05TSI                            WED 07/30/97 05:37 Page:13
          MINI XREF LISTING

NOW_FLAG
      4124**DCL      4150<<ASSIGN   4154<<ASSIGN   4157<>CALL
OUT$BLK.NSUBLKS
      4072**DCL      4152>>IF
PC$INSTANCE.FLAGS.ACTIVE
       852**DCL      4159<<ASSIGN
QQC$STOPTP
      4028**DCL-ENT  4157--CALL
QQ_CMDBLK.OUT$
       584**DCL      4152>>IF
QQ_GLOBAL.DS1$_BITS
       595**DCL       595--REDEF
QQ_GLOBAL.DS2$_BITS
       595**DCL       596--REDEF
QQ_GLOBAL.DS3$_BITS
       596**DCL       596--REDEF
QQ_GLOBAL.DS4$_BITS
       596**DCL       597--REDEF
QQ_GLOBAL.PC$INSTANCE$
       597**DCL       848--IMP-PTR  4159>>ASSIGN
