VERSION E05

PL6.E3A0      #001=QQB$TIME File=QQB$TIME.:E05TSI                                WED 07/30/97 05:37 Page:1
        1        1        /*M* QQB$TIME - Perform TIME command */
        2        2        /*T***********************************************************/
        3        3        /*T*                                                         */
        4        4        /*T* Copyright (c) Bull HN Information Systems Inc., 1997    */
        5        5        /*T*                                                         */
        6        6        /*T***********************************************************/
        7        7        /*X* IND=2, DCI=4, CSU=2, ECU=4, DTI=2, CTI=4, AND */
        8        8        QQB$TIME:
        9        9                PROC;
       10       10
       11       11        %INCLUDE Q_PAGE_C;
       12       43        %SET LISTEXP = '1'B;
       13       44        %PAGE(ARG="Includes");

                61        /***************************************************************************
                62         *                                                                         *
                63         *                                  Includes                               *
                64         *                                                                         *
                65         ***************************************************************************/

       14       69        %INCLUDE CP_6;
       15      150        %INCLUDE QQ_MACROS_C;
       16      575        %INCLUDE QQ_DATA_R;
       17      821        %INCLUDE QQ_PERR_C;
       18      982        %INCLUDE QQ_SUBS_C;
       19     1174        %PAGE(ARG="Externally defined routines");

              1191    1   /***************************************************************************
              1192    1    *                                                                         *
              1193    1    *                        Externally defined routines                      *
              1194    1    *                                                                         *
              1195    1    ***************************************************************************/

       20     1199    1   DCL QQC$BLDMSG ENTRY(1);
       21     1200    1   DCL QQC$BLDMSG_BLK ENTRY(1);
       22     1201        %PAGE(ARG="Auto");

PL6.E3A0      #001=QQB$TIME File=QQB$TIME.:E05TSI                                WED 07/30/97 05:37 Page:2
              1218    1   /***************************************************************************
              1219    1    *                                                                         *
              1220    1    *                                    Auto                                 *
              1221    1    *                                                                         *
              1222    1    ***************************************************************************/

       23     1226    1   DCL 1 TMDATE,
       24     1227    1         2 * CHAR(3),
       25     1228    1         2 DATE CHAR(10),
       26     1229    1         2 * CHAR(2),
       27     1230    1         2 TIME,
       28     1231    1           3 HR CHAR(3),
       29     1232    1           3 MIN CHAR(2),
       30     1233    1           3 SEC CHAR(3),
       31     1234    1           3 MSEC CHAR(3);
       32     1235    1   DCL TMDATEBUFF REDEF TMDATE CHAR(26);
       33     1236
       34     1237        %MSGBLK;
       35     1327
       36     1328        %PAGE(ARG='FPTs');

              1345    1   /***************************************************************************
              1346    1    *                                                                         *
              1347    1    *                                   'FPTs'                                *
              1348    1    *                                                                         *
              1349    1    ***************************************************************************/

       37     1353        %FPT_TIME (FPTN=FPT_TIME,STCLASS=STATIC);
       38     1372        %PAGE(ARG="QQB$TIME", PAGE=YES);

PL6.E3A0      #001=QQB$TIME File=QQB$TIME.:E05TSI                                WED 07/30/97 05:37 Page:3
              1389    1   /***************************************************************************
              1390    1    *                                                                         *
              1391    1    *                                  QQB$TIME                               *
              1392    1    *                                                                         *
              1393    1    ***************************************************************************/

       39     1397
       40     1398    1           TMDATEBUFF = ' ';               /*Blank out buffer*/
       41     1399    1           FPT_TIME.V_ = VECTOR(FPT_TIME.V);
       42     1400    1           FPT_TIME.DATE_ = VECTOR(TMDATE.DATE);
       43     1401    1           FPT_TIME.TIME_ = VECTOR(TMDATE.TIME);
       44     1402    1           CALL M$TIME(FPT_TIME);
       45     1403    1           TMDATE.TIME.SEC = ' ';          /*Don't print SEC.*/
       46     1404    1           TMDATE.TIME.MSEC = ' ';         /*Don't print msecs*/
       47     1405    1           CALL QQC$BLDMSG_BLK(MSGBLK);
       48     1406    1           MSGBLK.TEXT$ = ADDR(TMDATEBUFF);
       49     1407    1           MSGBLK.ARS = SIZEC(TMDATEBUFF);
       50     1408    1           CALL QQC$BLDMSG(MSGBLK);
       51     1409
       52     1410    1           RETURN;
       53     1411
       54     1412    1   END QQB$TIME;

PL6.E3A0      #001=QQB$TIME File=QQB$TIME.:E05TSI                                WED 07/30/97 05:37 Page:4
--  Include file information  --

   QQ_SUBS_C.:E05TOU  is referenced.
   QQ_PERR_C.:E05TOU  is referenced.
   QQ_DATA_R.:E05TOU  cannot be made into a system file and is referenced.
   QQ_MACROS_C.:E05TOU  is referenced.
   CP_6.:E05TOU  cannot be made into a system file and is referenced.
   Q_PAGE_C.:E05TOU  is referenced.
   B$JIT_C.:E05TOU  was found in the system file and is never referenced.
   CP_6_C.:E05TOU  was found in the system file and is referenced.
      No diagnostics issued in procedure QQB$TIME.

   Procedure QQB$TIME requires 42 words for executable code.
   Procedure QQB$TIME requires 34 words of local(AUTO) storage.

    No errors detected in file QQB$TIME.:E05TSI    .

PL6.E3A0      #001=QQB$TIME File=QQB$TIME.:E05TSI                                WED 07/30/97 05:37 Page:5

 Object Unit name= QQB$TIME                                   File name= QQB$TIME.:E05TOU
 UTS= JUL 30 '97 05:37:28.12 WED                              Compiler= PL-6/E31         Sev=      00
 SharedLib= :SHARED_SYSTEM                                    Alt SharedLib=


    ****  Control sections  ****

 Sect   Type Bound  Init  Size OctSiz  Section name(segment info)
    0   DCB   even  none     0      0  M$UC
    1   Data  even  none    12     14  QQB$TIME
    2   Proc  even  none    42     52  QQB$TIME
    3  RoData even  none     7      7  QQB$TIME

    ****  Entry defs  ****

                              Check   Calling
                             calling  sequence
  Sect OctLoc Primary Altret sequence   type   Parms  Name
     2      0   yes            yes      Std        0  QQB$TIME

  ****  Entry refs  ****

         Check        Calling
        calling       sequence
Altret sequence SRef   type   Args  Name
         yes           Std       1 QQC$BLDMSG_BLK
         yes           Std       1 QQC$BLDMSG
                       nStd      0 X66_AUTO_0
                       Std       0 B_CONSPOOL_D
                       nStd      0 X66_ARET

  ****  Data refs  ****

  Flags:  r = read only, s = secondary
Flgs Name                             Flgs Name                             Flgs Name
     M$UC                                  B_VECTNIL
PL6.E3A0      #001=QQB$TIME File=QQB$TIME.:E05TSI                                WED 07/30/97 05:37 Page:6

  ****  Segment refs  ****

  Flags:  r = read only, s = secondary
Flgs Name                             Flgs Name                             Flgs Name
     ISSID                                 NULLSID
PL6.E3A0      #001=QQB$TIME File=QQB$TIME.:E05TSI                                WED 07/30/97 05:37 Page:7


        1        1        /*M* QQB$TIME - Perform TIME command */
        2        2        /*T***********************************************************/
        3        3        /*T*                                                         */
        4        4        /*T* Copyright (c) Bull HN Information Systems Inc., 1997    */
        5        5        /*T*                                                         */
        6        6        /*T***********************************************************/
        7        7        /*X* IND=2, DCI=4, CSU=2, ECU=4, DTI=2, CTI=4, AND */
        8        8        QQB$TIME:
        9        9                PROC;

      9  2 000000   000000 700200 xent  QQB$TIME     TSX0  ! X66_AUTO_0
         2 000001   000042 000000                    ZERO    34,0

       10       10
       11       11        %INCLUDE Q_PAGE_C;
       12       43        %SET LISTEXP = '1'B;
       13       44        %PAGE(ARG="Includes");

                61        /***************************************************************************
                62         *                                                                         *
                63         *                                  Includes                               *
                64         *                                                                         *
                65         ***************************************************************************/

       14       69        %INCLUDE CP_6;
       15      150        %INCLUDE QQ_MACROS_C;
       16      575        %INCLUDE QQ_DATA_R;
       17      821        %INCLUDE QQ_PERR_C;
       18      982        %INCLUDE QQ_SUBS_C;
       19     1174        %PAGE(ARG="Externally defined routines");

              1191    1   /***************************************************************************
              1192    1    *                                                                         *
              1193    1    *                        Externally defined routines                      *
              1194    1    *                                                                         *
              1195    1    ***************************************************************************/
PL6.E3A0      #001=QQB$TIME File=QQB$TIME.:E05TSI                                WED 07/30/97 05:37 Page:8

       20     1199    1   DCL QQC$BLDMSG ENTRY(1);
       21     1200    1   DCL QQC$BLDMSG_BLK ENTRY(1);
       22     1201        %PAGE(ARG="Auto");

              1218    1   /***************************************************************************
              1219    1    *                                                                         *
              1220    1    *                                    Auto                                 *
              1221    1    *                                                                         *
              1222    1    ***************************************************************************/

       23     1226    1   DCL 1 TMDATE,
       24     1227    1         2 * CHAR(3),
       25     1228    1         2 DATE CHAR(10),
       26     1229    1         2 * CHAR(2),
       27     1230    1         2 TIME,
       28     1231    1           3 HR CHAR(3),
       29     1232    1           3 MIN CHAR(2),
       30     1233    1           3 SEC CHAR(3),
       31     1234    1           3 MSEC CHAR(3);
       32     1235    1   DCL TMDATEBUFF REDEF TMDATE CHAR(26);
       33     1236
       34     1237        %MSGBLK;
       35     1327
       36     1328        %PAGE(ARG='FPTs');

              1345    1   /***************************************************************************
              1346    1    *                                                                         *
              1347    1    *                                   'FPTs'                                *
              1348    1    *                                                                         *
              1349    1    ***************************************************************************/

       37     1353        %FPT_TIME (FPTN=FPT_TIME,STCLASS=STATIC);
       38     1372        %PAGE(ARG="QQB$TIME", PAGE=YES);

PL6.E3A0      #001=QQB$TIME File=QQB$TIME.:E05TSI                                WED 07/30/97 05:37 Page:9
              1389    1   /***************************************************************************
              1390    1    *                                                                         *
              1391    1    *                                  QQB$TIME                               *
              1392    1    *                                                                         *
              1393    1    ***************************************************************************/

       39     1397
       40     1398    1           TMDATEBUFF = ' ';               /*Blank out buffer*/

   1398  2 000002   040100 100400                    MLR     fill='040'O
         2 000003   000035 000001 xsym               ADSC9   B_VECTNIL+29             cn=0,n=1
         2 000004   200003 000032                    ADSC9   TMDATE,,AUTO             cn=0,n=26

       41     1399    1           FPT_TIME.V_ = VECTOR(FPT_TIME.V);

   1399  2 000005   000000 237000 3                  LDAQ    0
         2 000006   000000 757000 1                  STAQ    FPT_TIME

       42     1400    1           FPT_TIME.DATE_ = VECTOR(TMDATE.DATE);

   1400  2 000007   000002 235000 3                  LDA     2
         2 000010   200040 452500                    STP2    MSGBLK+22,,AUTO
         2 000011   200040 236100                    LDQ     MSGBLK+22,,AUTO
         2 000012   000003 036000 3                  ADLQ    3
         2 000013   000002 757000 1                  STAQ    FPT_TIME+2

       43     1401    1           FPT_TIME.TIME_ = VECTOR(TMDATE.TIME);

   1401  2 000014   000004 235000 3                  LDA     4
         2 000015   200040 452500                    STP2    MSGBLK+22,,AUTO
         2 000016   200040 236100                    LDQ     MSGBLK+22,,AUTO
         2 000017   000005 036000 3                  ADLQ    5
         2 000020   000004 757000 1                  STAQ    FPT_TIME+4

       44     1402    1           CALL M$TIME(FPT_TIME);

   1402  2 000021   000000 630400 1                  EPPR0   FPT_TIME
PL6.E3A0      #001=QQB$TIME File=QQB$TIME.:E05TSI                                WED 07/30/97 05:37 Page:10
         2 000022   020004 713400                    CLIMB   8196
         2 000023   402000 401760                    pmme    nvectors=5

       45     1403    1           TMDATE.TIME.SEC = ' ';          /*Don't print SEC.*/

   1403  2 000024   000006 236000 3                  LDQ     6
         2 000025   200010 552170                    STBQ    TMDATE+5,'70'O,AUTO

       46     1404    1           TMDATE.TIME.MSEC = ' ';         /*Don't print msecs*/

   1404  2 000026   040100 100400                    MLR     fill='040'O
         2 000027   000035 000001 xsym               ADSC9   B_VECTNIL+29             cn=0,n=1
         2 000030   200010 600003                    ADSC9   TMDATE+5,,AUTO           cn=3,n=3

       47     1405    1           CALL QQC$BLDMSG_BLK(MSGBLK);

   1405  2 000031   200012 630500                    EPPR0   MSGBLK,,AUTO
         2 000032   200040 450500                    STP0    MSGBLK+22,,AUTO
         2 000033   200040 630500                    EPPR0   MSGBLK+22,,AUTO
         2 000034   000017 631400 xsym               EPPR1   B_VECTNIL+15
         2 000035   000000 701000 xent               TSX1    QQC$BLDMSG_BLK
         2 000036   000000 011000                    NOP     0

       48     1406    1           MSGBLK.TEXT$ = ADDR(TMDATEBUFF);

   1406  2 000037   200003 630500                    EPPR0   TMDATE,,AUTO
         2 000040   200017 450500                    STP0    MSGBLK+5,,AUTO

       49     1407    1           MSGBLK.ARS = SIZEC(TMDATEBUFF);

   1407  2 000041   000032 220003                    LDX0    26,DU
         2 000042   200015 740100                    STX0    MSGBLK+3,,AUTO

       50     1408    1           CALL QQC$BLDMSG(MSGBLK);

   1408  2 000043   200012 631500                    EPPR1   MSGBLK,,AUTO
         2 000044   200040 451500                    STP1    MSGBLK+22,,AUTO
PL6.E3A0      #001=QQB$TIME File=QQB$TIME.:E05TSI                                WED 07/30/97 05:37 Page:11
         2 000045   200040 630500                    EPPR0   MSGBLK+22,,AUTO
         2 000046   000017 631400 xsym               EPPR1   B_VECTNIL+15
         2 000047   000000 701000 xent               TSX1    QQC$BLDMSG
         2 000050   000000 011000                    NOP     0

       51     1409
       52     1410    1           RETURN;

   1410  2 000051   000000 702200 xent               TSX2  ! X66_ARET
       53     1411
       54     1412    1   END QQB$TIME;

PL6.E3A0      #001=QQB$TIME File=QQB$TIME.:E05TSI                                WED 07/30/97 05:37 Page:12
--  Include file information  --

   QQ_SUBS_C.:E05TOU  is referenced.
   QQ_PERR_C.:E05TOU  is referenced.
   QQ_DATA_R.:E05TOU  cannot be made into a system file and is referenced.
   QQ_MACROS_C.:E05TOU  is referenced.
   CP_6.:E05TOU  cannot be made into a system file and is referenced.
   Q_PAGE_C.:E05TOU  is referenced.
   B$JIT_C.:E05TOU  was found in the system file and is never referenced.
   CP_6_C.:E05TOU  was found in the system file and is referenced.
      No diagnostics issued in procedure QQB$TIME.
PL6.E3A0      #001=QQB$TIME File=QQB$TIME.:E05TSI                                WED 07/30/97 05:37 Page:13

 **** Variables and constants ****

  ****  Section 001  Data  QQB$TIME

  ****  Scalars and arrays  ****
OctLoc.c.b A Datatyp(siz) R M Lvl/name                 OctLoc.c.b A Datatyp(siz) R M Lvl/name

     0-0-0/d STRC(432)   r     1 FPT_TIME

  ****  Auto variables  ****

  ****  Scalars and arrays  ****
OctLoc.c.b A Datatyp(siz) R M Lvl/name                 OctLoc.c.b A Datatyp(siz) R M Lvl/name

    12-0-0/w STRC(738)   r     1 MSGBLK                     3-0-0/c STRC(234)   r     1 TMDATE
     3-0-0/c CHAR(26)    r     1 TMDATEBUFF


   Procedure QQB$TIME requires 42 words for executable code.
   Procedure QQB$TIME requires 34 words of local(AUTO) storage.

    No errors detected in file QQB$TIME.:E05TSI    .
PL6.E3A0      #001=QQB$TIME File=QQB$TIME.:E05TSI                                WED 07/30/97 05:37 Page:14
          *** CROSS REFERENCE LISTING ***
**     DENOTES     IDENTIFIER DEFINITION
<<                 IDENTIFIER'S VALUE SET
>>                 IDENTIFIER'S VALUE USED
<>                 IDENTIFIER SET AND/OR USED
--                 IDENTIFIER REFERENCED
PL6.E3A0      #001=QQB$TIME File=QQB$TIME.:E05TSI                                WED 07/30/97 05:37 Page:15
          MINI XREF LISTING

FPT_TIME
      1364**DCL      1402<>CALL
FPT_TIME.DATE_
      1364**DCL      1400<<ASSIGN
FPT_TIME.TIME_
      1366**DCL      1401<<ASSIGN
FPT_TIME.V
      1368**DCL      1364--DCLINIT  1399--ASSIGN
FPT_TIME.V_
      1364**DCL      1399<<ASSIGN
M$TIME
       145**DCL-ENT  1402--CALL
MSGBLK
      1238**DCL      1405<>CALL     1408<>CALL
MSGBLK.ARS
      1305**DCL      1407<<ASSIGN
MSGBLK.TEXT$
      1312**DCL      1406<<ASSIGN
QQC$BLDMSG
      1199**DCL-ENT  1408--CALL
QQC$BLDMSG_BLK
      1200**DCL-ENT  1405--CALL
QQ_GLOBAL.DS1$_BITS
       595**DCL       595--REDEF
QQ_GLOBAL.DS2$_BITS
       595**DCL       596--REDEF
QQ_GLOBAL.DS3$_BITS
       596**DCL       596--REDEF
QQ_GLOBAL.DS4$_BITS
       596**DCL       597--REDEF
TMDATE
      1226**DCL      1235--REDEF
PL6.E3A0      #001=QQB$TIME File=QQB$TIME.:E05TSI                                WED 07/30/97 05:37 Page:16
TMDATE.DATE
      1228**DCL      1400--ASSIGN
TMDATE.TIME
      1230**DCL      1401--ASSIGN
TMDATE.TIME.MSEC
      1234**DCL      1404<<ASSIGN
TMDATE.TIME.SEC
      1233**DCL      1403<<ASSIGN
TMDATEBUFF
      1235**DCL      1398<<ASSIGN   1406--ASSIGN   1407--ASSIGN
