VERSION E05

PL6.E3A0      #001=QQC$BLDMSG_BLK File=QQC$BLDMSG_BLK.:E05TSI                    WED 07/30/97 05:38 Page:1
        1        1        /*M* QQC$BLDMSG_BLK - Initialize a MSGBLK */
        2        2        /*T***********************************************************/
        3        3        /*T*                                                         */
        4        4        /*T* Copyright (c) Bull HN Information Systems Inc., 1997    */
        5        5        /*T*                                                         */
        6        6        /*T***********************************************************/
        7        7        /*X* IND=2, DCI=4, CSU=2, ECU=4, DTI=2, CTI=4, AND */
        8        8        QQC$BLDMSG_BLK:
        9        9                PROC(P_MSGBLK);
       10       10
       11       11        %INCLUDE Q_PAGE_C;
       12       43        %SET LISTEXP = '1'B;
       13       44        %PAGE(ARG="Includes");

                61        /***************************************************************************
                62         *                                                                         *
                63         *                                  Includes                               *
                64         *                                                                         *
                65         ***************************************************************************/

       14       69        %INCLUDE CP_6;
       15      150        %INCLUDE QQ_MACROS_C;
       16      575        %INCLUDE QQ_DATA_R;
       17      821        %INCLUDE QQ_SUBS_C;
       18     1013        %PAGE(ARG="Parameters");

              1030    1   /***************************************************************************
              1031    1    *                                                                         *
              1032    1    *                                 Parameters                              *
              1033    1    *                                                                         *
              1034    1    ***************************************************************************/

       19     1038        %MSGBLK(FPTN=P_MSGBLK);
       20     1128        %PAGE(ARG="Based");

              1145    1   /***************************************************************************
              1146    1    *                                                                         *
PL6.E3A0      #001=QQC$BLDMSG_BLK File=QQC$BLDMSG_BLK.:E05TSI                    WED 07/30/97 05:38 Page:2
              1147    1    *                                   Based                                 *
              1148    1    *                                                                         *
              1149    1    ***************************************************************************/

       21     1153        %TP$STATION;
       22     1226        %PAGE(ARG="QQC$BLDMSG_BLK", PAGE=YES);

PL6.E3A0      #001=QQC$BLDMSG_BLK File=QQC$BLDMSG_BLK.:E05TSI                    WED 07/30/97 05:38 Page:3
              1243    1   /***************************************************************************
              1244    1    *                                                                         *
              1245    1    *                               QQC$BLDMSG_BLK                            *
              1246    1    *                                                                         *
              1247    1    ***************************************************************************/

       23     1251    1           P_MSGBLK = '0'B;
       24     1252    1           P_MSGBLK.TEXT$ = ADDR(NIL);
       25     1253    1           QQ_GLOBAL.ERROR_CNT = QQ_GLOBAL.ERROR_CNT + 1;
       26     1254
       27     1255    2           DO CASE(QQ_CMDBLK.ORIGIN);
       28     1256
       29     1257    2             CASE(1 /* ORIGIN_STATION */);
       30     1258
       31     1259    2               P_MSGBLK.FLAGS.DEST.STATION = '1'B;
       32     1260    2               P_MSGBLK.ID = QQ_CMDBLK.S$ -> TP$STATION.ID;
       33     1261
       34     1262    2             CASE(3 /* ORIGIN_CSCG */);
       35     1263
       36     1264    2               P_MSGBLK.FLAGS.DEST.ONECONSOLE = '1'B;
       37     1265    2               P_MSGBLK.CADDR = QQ_CMDBLK.CADDR;
       38     1266
       39     1267    2             CASE(2 /* ORIGIN_INIT */);
       40     1268
       41     1269    2               P_MSGBLK.FLAGS.DEST.DODCB = '1'B;
       42     1270
       43     1271    2           END /* CASE */;
       44     1272
       45     1273    1           P_MSGBLK.CODECNT = 2;
       46     1274    1           P_MSGBLK.ERRINFO.ERR(0) = QQ_CMDBLK.MINOR_ERR;
       47     1275    1           P_MSGBLK.ERRINFO.FIELD1(0) = VECTOR(NIL);
       48     1276    1           P_MSGBLK.ERRINFO.FIELD1(1) = VECTOR(NIL);
       49     1277    1           P_MSGBLK.ERRINFO.FIELD2(0) = VECTOR(NIL);
       50     1278    1           P_MSGBLK.ERRINFO.FIELD2(1) = VECTOR(NIL);
       51     1279    1           P_MSGBLK.ERRINFO.FIELD3(0) = VECTOR(NIL);
       52     1280    1           P_MSGBLK.ERRINFO.FIELD3(1) = VECTOR(NIL);
       53     1281    1           RETURN;
PL6.E3A0      #001=QQC$BLDMSG_BLK File=QQC$BLDMSG_BLK.:E05TSI                    WED 07/30/97 05:38 Page:4
       54     1282    1   END QQC$BLDMSG_BLK;

PL6.E3A0      #001=QQC$BLDMSG_BLK File=QQC$BLDMSG_BLK.:E05TSI                    WED 07/30/97 05:38 Page:5
--  Include file information  --

   QQ_SUBS_C.:E05TOU  is referenced.
   QQ_DATA_R.:E05TOU  cannot be made into a system file and is referenced.
   QQ_MACROS_C.:E05TOU  is referenced.
   CP_6.:E05TOU  cannot be made into a system file and is referenced.
   Q_PAGE_C.:E05TOU  is referenced.
   B$JIT_C.:E05TOU  was found in the system file and is never referenced.
   CP_6_C.:E05TOU  was found in the system file and is referenced.
      No diagnostics issued in procedure QQC$BLDMSG_BLK.

   Procedure QQC$BLDMSG_BLK requires 57 words for executable code.
   Procedure QQC$BLDMSG_BLK requires 6 words of local(AUTO) storage.

    No errors detected in file QQC$BLDMSG_BLK.:E05TSI    .

PL6.E3A0      #001=QQC$BLDMSG_BLK File=QQC$BLDMSG_BLK.:E05TSI                    WED 07/30/97 05:38 Page:6

 Object Unit name= QQC$BLDMSG_BLK                             File name= QQC$BLDMSG_BLK.:E05TOU
 UTS= JUL 30 '97 05:38:32.52 WED                              Compiler= PL-6/E31         Sev=      00
 SharedLib= :SHARED_SYSTEM                                    Alt SharedLib=


    ****  Control sections  ****

 Sect   Type Bound  Init  Size OctSiz  Section name(segment info)
    0   DCB   even  none     0      0  M$UC
    1   Proc  even  none    57     71  QQC$BLDMSG_BLK
    2  RoData even  none     2      2  QQC$BLDMSG_BLK

    ****  Entry defs  ****

                              Check   Calling
                             calling  sequence
  Sect OctLoc Primary Altret sequence   type   Parms  Name
     1      0   yes            yes      Std        1  QQC$BLDMSG_BLK

  ****  Entry refs  ****

         Check        Calling
        calling       sequence
Altret sequence SRef   type   Args  Name
                       nStd      0 X66_AUTO_1
                       Std       0 B_CONSPOOL_D
                       nStd      0 X66_ARET

  ****  Data refs  ****

  Flags:  r = read only, s = secondary
Flgs Name                             Flgs Name                             Flgs Name
     M$UC                                  QQ_CMDBLK                             QQ_GLOBAL
     B_VECTNIL
PL6.E3A0      #001=QQC$BLDMSG_BLK File=QQC$BLDMSG_BLK.:E05TSI                    WED 07/30/97 05:38 Page:7

  ****  Segment refs  ****

  Flags:  r = read only, s = secondary
Flgs Name                             Flgs Name                             Flgs Name
     NULLSID
PL6.E3A0      #001=QQC$BLDMSG_BLK File=QQC$BLDMSG_BLK.:E05TSI                    WED 07/30/97 05:38 Page:8


        1        1        /*M* QQC$BLDMSG_BLK - Initialize a MSGBLK */
        2        2        /*T***********************************************************/
        3        3        /*T*                                                         */
        4        4        /*T* Copyright (c) Bull HN Information Systems Inc., 1997    */
        5        5        /*T*                                                         */
        6        6        /*T***********************************************************/
        7        7        /*X* IND=2, DCI=4, CSU=2, ECU=4, DTI=2, CTI=4, AND */
        8        8        QQC$BLDMSG_BLK:
        9        9                PROC(P_MSGBLK);

      9  1 000000   000000 700200 xent  QQC$BLDMSG_* TSX0  ! X66_AUTO_1
         1 000001   000006 000001                    ZERO    6,1

       10       10
       11       11        %INCLUDE Q_PAGE_C;
       12       43        %SET LISTEXP = '1'B;
       13       44        %PAGE(ARG="Includes");

                61        /***************************************************************************
                62         *                                                                         *
                63         *                                  Includes                               *
                64         *                                                                         *
                65         ***************************************************************************/

       14       69        %INCLUDE CP_6;
       15      150        %INCLUDE QQ_MACROS_C;
       16      575        %INCLUDE QQ_DATA_R;
       17      821        %INCLUDE QQ_SUBS_C;
       18     1013        %PAGE(ARG="Parameters");

              1030    1   /***************************************************************************
              1031    1    *                                                                         *
              1032    1    *                                 Parameters                              *
              1033    1    *                                                                         *
              1034    1    ***************************************************************************/

PL6.E3A0      #001=QQC$BLDMSG_BLK File=QQC$BLDMSG_BLK.:E05TSI                    WED 07/30/97 05:38 Page:9
       19     1038        %MSGBLK(FPTN=P_MSGBLK);
       20     1128        %PAGE(ARG="Based");

              1145    1   /***************************************************************************
              1146    1    *                                                                         *
              1147    1    *                                   Based                                 *
              1148    1    *                                                                         *
              1149    1    ***************************************************************************/

       21     1153        %TP$STATION;
       22     1226        %PAGE(ARG="QQC$BLDMSG_BLK", PAGE=YES);

PL6.E3A0      #001=QQC$BLDMSG_BLK File=QQC$BLDMSG_BLK.:E05TSI                    WED 07/30/97 05:38 Page:10
              1243    1   /***************************************************************************
              1244    1    *                                                                         *
              1245    1    *                               QQC$BLDMSG_BLK                            *
              1246    1    *                                                                         *
              1247    1    ***************************************************************************/

       23     1251    1           P_MSGBLK = '0'B;

   1251  1 000002   200003 470500                    LDP0    @P_MSGBLK,,AUTO
         1 000003   000100 100400                    MLR     fill='000'O
         1 000004   000002 000001 xsym               ADSC9   B_VECTNIL+2              cn=0,n=1
         1 000005   000000 000122                    ADSC9   0,,PR0                   cn=0,n=82

       24     1252    1           P_MSGBLK.TEXT$ = ADDR(NIL);

   1252  1 000006   000001 236000 xsym               LDQ     B_VECTNIL+1
         1 000007   000005 756100                    STQ     5,,PR0

       25     1253    1           QQ_GLOBAL.ERROR_CNT = QQ_GLOBAL.ERROR_CNT + 1;

   1253  1 000010   000040 235000 xsym               LDA     QQ_GLOBAL+32
         1 000011   000001 035007                    ADLA    1,DL
         1 000012   000040 755000 xsym               STA     QQ_GLOBAL+32

       26     1254
       27     1255    2           DO CASE(QQ_CMDBLK.ORIGIN);

   1255  1 000013   000007 220000 xsym               LDX0    QQ_CMDBLK+7
         1 000014   000004 100003                    CMPX0   4,DU
         1 000015   000017 602010 1                  TNC     s:1255+4,X0
         1 000016   000042 710000 1                  TRA     s:1273
         1 000017   000042 710000 1                  TRA     s:1273
         1 000020   000023 710000 1                  TRA     s:1259
         1 000021   000040 710000 1                  TRA     s:1269
         1 000022   000032 710000 1                  TRA     s:1264

       28     1256
PL6.E3A0      #001=QQC$BLDMSG_BLK File=QQC$BLDMSG_BLK.:E05TSI                    WED 07/30/97 05:38 Page:11
       29     1257    2             CASE(1 /* ORIGIN_STATION */);

       30     1258
       31     1259    2               P_MSGBLK.FLAGS.DEST.STATION = '1'B;

   1259  1 000023   000100 236003                    LDQ     64,DU
         1 000024   000002 256100                    ORSQ    2,,PR0

       32     1260    2               P_MSGBLK.ID = QQ_CMDBLK.S$ -> TP$STATION.ID;

   1260  1 000025   000004 471400 xsym               LDP1    QQ_CMDBLK+4
         1 000026   040100 100500                    MLR     fill='040'O
         1 000027   100000 000010                    ADSC9   0,,PR1                   cn=0,n=8
         1 000030   000000 000010                    ADSC9   0,,PR0                   cn=0,n=8
         1 000031   000042 710000 1                  TRA     s:1273

       33     1261
       34     1262    2             CASE(3 /* ORIGIN_CSCG */);

       35     1263
       36     1264    2               P_MSGBLK.FLAGS.DEST.ONECONSOLE = '1'B;

   1264  1 000032   000002 236003                    LDQ     2,DU
         1 000033   000002 256100                    ORSQ    2,,PR0

       37     1265    2               P_MSGBLK.CADDR = QQ_CMDBLK.CADDR;

   1265  1 000034   000100 100400                    MLR     fill='000'O
         1 000035   000010 000002 xsym               ADSC9   QQ_CMDBLK+8              cn=0,n=2
         1 000036   000003 600002                    ADSC9   3,,PR0                   cn=3,n=2
         1 000037   000042 710000 1                  TRA     s:1273

       38     1266
       39     1267    2             CASE(2 /* ORIGIN_INIT */);

       40     1268
       41     1269    2               P_MSGBLK.FLAGS.DEST.DODCB = '1'B;
PL6.E3A0      #001=QQC$BLDMSG_BLK File=QQC$BLDMSG_BLK.:E05TSI                    WED 07/30/97 05:38 Page:12

   1269  1 000040   000010 236003                    LDQ     8,DU
         1 000041   000002 256100                    ORSQ    2,,PR0

       42     1270
       43     1271    2           END /* CASE */;

       44     1272
       45     1273    1           P_MSGBLK.CODECNT = 2;

   1273  1 000042   002000 236007                    LDQ     1024,DL
         1 000043   000003 552110                    STBQ    3,'10'O,PR0

       46     1274    1           P_MSGBLK.ERRINFO.ERR(0) = QQ_CMDBLK.MINOR_ERR;

   1274  1 000044   000001 236000 xsym               LDQ     QQ_CMDBLK+1
         1 000045   000006 756100                    STQ     6,,PR0

       47     1275    1           P_MSGBLK.ERRINFO.FIELD1(0) = VECTOR(NIL);

   1275  1 000046   000100 100400                    MLR     fill='000'O
         1 000047   000000 000010 2                  ADSC9   0                        cn=0,n=8
         1 000050   000007 200010                    ADSC9   7,,PR0                   cn=1,n=8

       48     1276    1           P_MSGBLK.ERRINFO.FIELD1(1) = VECTOR(NIL);

   1276  1 000051   000100 100400                    MLR     fill='000'O
         1 000052   000000 000010 2                  ADSC9   0                        cn=0,n=8
         1 000053   000016 400010                    ADSC9   14,,PR0                  cn=2,n=8

       49     1277    1           P_MSGBLK.ERRINFO.FIELD2(0) = VECTOR(NIL);

   1277  1 000054   000100 100400                    MLR     fill='000'O
         1 000055   000000 000010 2                  ADSC9   0                        cn=0,n=8
         1 000056   000011 200010                    ADSC9   9,,PR0                   cn=1,n=8

       50     1278    1           P_MSGBLK.ERRINFO.FIELD2(1) = VECTOR(NIL);
PL6.E3A0      #001=QQC$BLDMSG_BLK File=QQC$BLDMSG_BLK.:E05TSI                    WED 07/30/97 05:38 Page:13

   1278  1 000057   000100 100400                    MLR     fill='000'O
         1 000060   000000 000010 2                  ADSC9   0                        cn=0,n=8
         1 000061   000020 400010                    ADSC9   16,,PR0                  cn=2,n=8

       51     1279    1           P_MSGBLK.ERRINFO.FIELD3(0) = VECTOR(NIL);

   1279  1 000062   000100 100400                    MLR     fill='000'O
         1 000063   000000 000010 2                  ADSC9   0                        cn=0,n=8
         1 000064   000013 200010                    ADSC9   11,,PR0                  cn=1,n=8

       52     1280    1           P_MSGBLK.ERRINFO.FIELD3(1) = VECTOR(NIL);

   1280  1 000065   000100 100400                    MLR     fill='000'O
         1 000066   000000 000010 2                  ADSC9   0                        cn=0,n=8
         1 000067   000022 400010                    ADSC9   18,,PR0                  cn=2,n=8

       53     1281    1           RETURN;

   1281  1 000070   000000 702200 xent               TSX2  ! X66_ARET
       54     1282    1   END QQC$BLDMSG_BLK;

PL6.E3A0      #001=QQC$BLDMSG_BLK File=QQC$BLDMSG_BLK.:E05TSI                    WED 07/30/97 05:38 Page:14
--  Include file information  --

   QQ_SUBS_C.:E05TOU  is referenced.
   QQ_DATA_R.:E05TOU  cannot be made into a system file and is referenced.
   QQ_MACROS_C.:E05TOU  is referenced.
   CP_6.:E05TOU  cannot be made into a system file and is referenced.
   Q_PAGE_C.:E05TOU  is referenced.
   B$JIT_C.:E05TOU  was found in the system file and is never referenced.
   CP_6_C.:E05TOU  was found in the system file and is referenced.
      No diagnostics issued in procedure QQC$BLDMSG_BLK.
PL6.E3A0      #001=QQC$BLDMSG_BLK File=QQC$BLDMSG_BLK.:E05TSI                    WED 07/30/97 05:38 Page:15

 **** Variables and constants ****

  ****  Auto variables  ****

  ****  Scalars and arrays  ****
OctLoc.c.b A Datatyp(siz) R M Lvl/name                 OctLoc.c.b A Datatyp(siz) R M Lvl/name

     3-0-0/w PTR         r     1 @P_MSGBLK                 *0-0-0/w STRC(738)   r     1 P_MSGBLK
     4-0-0/w PTR         r     1 S$

  ****  SYMREF variables  ****

  ****  Scalars and arrays  ****
OctLoc.c.b A Datatyp(siz) R M Lvl/name                 OctLoc.c.b A Datatyp(siz) R M Lvl/name

     0-0-0/w STRC(315)   r     1 QQ_CMDBLK                  0-0-0/d STRC(9090)  r     1 QQ_GLOBAL

  ****  BASED and DCB variables  ****

  ****  Scalars and arrays  ****
OctLoc.c.b A Datatyp(siz) R M Lvl/name                 OctLoc.c.b A Datatyp(siz) R M Lvl/name

     0-0-0/w STRC(909)   r     1 TP$STATION


   Procedure QQC$BLDMSG_BLK requires 57 words for executable code.
   Procedure QQC$BLDMSG_BLK requires 6 words of local(AUTO) storage.

    No errors detected in file QQC$BLDMSG_BLK.:E05TSI    .
PL6.E3A0      #001=QQC$BLDMSG_BLK File=QQC$BLDMSG_BLK.:E05TSI                    WED 07/30/97 05:38 Page:16
          *** CROSS REFERENCE LISTING ***
**     DENOTES     IDENTIFIER DEFINITION
<<                 IDENTIFIER'S VALUE SET
>>                 IDENTIFIER'S VALUE USED
<>                 IDENTIFIER SET AND/OR USED
--                 IDENTIFIER REFERENCED
PL6.E3A0      #001=QQC$BLDMSG_BLK File=QQC$BLDMSG_BLK.:E05TSI                    WED 07/30/97 05:38 Page:17
          MINI XREF LISTING

P_MSGBLK
      1039**DCL         8--PROC     1251<<ASSIGN
P_MSGBLK.CADDR
      1110**DCL      1265<<ASSIGN
P_MSGBLK.CODECNT
      1108**DCL      1273<<ASSIGN
P_MSGBLK.ERRINFO.ERR
      1117**DCL      1274<<ASSIGN
P_MSGBLK.ERRINFO.FIELD1
      1121**DCL      1275<<ASSIGN   1276<<ASSIGN
P_MSGBLK.ERRINFO.FIELD2
      1123**DCL      1277<<ASSIGN   1278<<ASSIGN
P_MSGBLK.ERRINFO.FIELD3
      1125**DCL      1279<<ASSIGN   1280<<ASSIGN
P_MSGBLK.FLAGS.DEST.DODCB
      1087**DCL      1269<<ASSIGN
P_MSGBLK.FLAGS.DEST.ONECONSOLE
      1091**DCL      1264<<ASSIGN
P_MSGBLK.FLAGS.DEST.STATION
      1081**DCL      1259<<ASSIGN
P_MSGBLK.ID
      1040**DCL      1260<<ASSIGN
P_MSGBLK.TEXT$
      1113**DCL      1252<<ASSIGN
QQ_CMDBLK.CADDR
       585**DCL      1265>>ASSIGN
QQ_CMDBLK.MINOR_ERR
       584**DCL      1274>>ASSIGN
QQ_CMDBLK.ORIGIN
       584**DCL      1255>>DOCASE
QQ_CMDBLK.S$
       584**DCL      1260>>ASSIGN
PL6.E3A0      #001=QQC$BLDMSG_BLK File=QQC$BLDMSG_BLK.:E05TSI                    WED 07/30/97 05:38 Page:18
QQ_GLOBAL.DS1$_BITS
       595**DCL       595--REDEF
QQ_GLOBAL.DS2$_BITS
       595**DCL       596--REDEF
QQ_GLOBAL.DS3$_BITS
       596**DCL       596--REDEF
QQ_GLOBAL.DS4$_BITS
       596**DCL       597--REDEF
QQ_GLOBAL.ERROR_CNT
       591**DCL      1253<<ASSIGN   1253>>ASSIGN
S$
      1165**DCL      1167--IMP-PTR
TP$STATION.ID
      1168**DCL      1260>>ASSIGN
