VERSION E05

PL6.E3A0      #001=QQC$BLDMSG_ERRBLK File=QQC$BLDMSG_ERRBLK.:E05TSI              WED 07/30/97 05:38 Page:1
        1        1        /*M* QQC$BLDMSG_ERRBLK - Initialize a MSGBLK with info from the ALTRET frame */
        2        2        /*T***********************************************************/
        3        3        /*T*                                                         */
        4        4        /*T* Copyright (c) Bull HN Information Systems Inc., 1997    */
        5        5        /*T*                                                         */
        6        6        /*T***********************************************************/
        7        7        /*X* IND=2, DCI=4, CSU=2, ECU=4, DTI=2, CTI=4, AND */
        8        8        /*P* NAME:        QQC$BLDMSG_ERRBLK
        9        9
       10       10             PURPOSE:     Initialize a MSGBLK so that we can print an error
       11       11                          message.
       12       12        */
       13       13        /*D* NAME:        QQC$BLDMSG_ERRBLK
       14       14
       15       15             CALL:        CALL QQC$BLDMSG_ERRBLK(MSGBLK)
       16       16
       17       17             INPUT:       MSGBLK
       18       18
       19       19             OUTPUT:      MSGBLK
       20       20
       21       21             DESCRIPTION: Initialize all fields of a MSGBLK.  To save code
       22       22                          elsewhere the default values for ERR(0) & DCB#(0)
       23       23                          are taken from the ALTRET frame.
       24       24        */
       25       25        %EJECT;
PL6.E3A0      #001=QQC$BLDMSG_ERRBLK File=QQC$BLDMSG_ERRBLK.:E05TSI              WED 07/30/97 05:38 Page:2
       26       26        QQC$BLDMSG_ERRBLK:
       27       27                PROC(P_MSGBLK);
       28       28
       29       29        %INCLUDE Q_PAGE_C;
       30       61        %SET LISTEXP = '1'B;
       31       62        %PAGE(ARG="Includes");

                79        /***************************************************************************
                80         *                                                                         *
                81         *                                  Includes                               *
                82         *                                                                         *
                83         ***************************************************************************/

       32       87        %INCLUDE CP_6;
       33      168        %INCLUDE QQ_MACROS_C;
       34      593        %INCLUDE QQ_DATA_R;
       35      839        %PAGE(ARG="Symrefs");

               856    1   /***************************************************************************
               857    1    *                                                                         *
               858    1    *                                  Symrefs                                *
               859    1    *                                                                         *
               860    1    ***************************************************************************/

       36      864    1   DCL B$TCB$ PTR SYMREF;
       37      865        %PAGE(ARG="Parameters");

               882    1   /***************************************************************************
               883    1    *                                                                         *
               884    1    *                                 Parameters                              *
               885    1    *                                                                         *
               886    1    ***************************************************************************/

       38      890        %MSGBLK(FPTN=P_MSGBLK);
       39      980        %PAGE(ARG="Based");

               997    1   /***************************************************************************
PL6.E3A0      #001=QQC$BLDMSG_ERRBLK File=QQC$BLDMSG_ERRBLK.:E05TSI              WED 07/30/97 05:38 Page:3
               998    1    *                                                                         *
               999    1    *                                   Based                                 *
              1000    1    *                                                                         *
              1001    1    ***************************************************************************/

       40     1005        %B$TCB;
       41     1008        %B$ALT;
       42     1016        %PAGE(ARG="QQB$BLDMSG_ERRBLK", PAGE=YES);

PL6.E3A0      #001=QQC$BLDMSG_ERRBLK File=QQC$BLDMSG_ERRBLK.:E05TSI              WED 07/30/97 05:38 Page:4
              1033    1   /***************************************************************************
              1034    1    *                                                                         *
              1035    1    *                             QQB$BLDMSG_ERRBLK                           *
              1036    1    *                                                                         *
              1037    1    ***************************************************************************/

       43     1041    1           QQ_GLOBAL.ERROR_CNT = QQ_GLOBAL.ERROR_CNT + 1;
       44     1042    1           P_MSGBLK = '0'B;
       45     1043    1           P_MSGBLK.FLAGS.REPORT = '1'B;
       46     1044    1           P_MSGBLK.TEXT$ = ADDR(NIL);
       47     1045
       48     1046    1           IF QQ_GLOBAL.INSTANCE_UP THEN
       49     1047    2             DO;
       50     1048    2               P_MSGBLK.FLAGS.DEST.MCT = '1'B;
       51     1049    2             END;
       52     1050    1           ELSE
       53     1051    2             DO;
       54     1052    2               P_MSGBLK.FLAGS.DEST.DODCB = '1'B;
       55     1053    2             END;
       56     1054
       57     1055    1           P_MSGBLK.CODECNT = 2;
       58     1056    1           P_MSGBLK.ERRINFO.ERR(0) = B$TCB$ -> B$TCB.ALT$ -> B$ALT.ERR;
       59     1057    1           P_MSGBLK.ERRINFO.ERR(1) = '0'B;
       60     1058    1           P_MSGBLK.ERRINFO.DCB#(0) = B$TCB$ -> B$TCB.ALT$ -> B$ALT.DCB#;
       61     1059    1           P_MSGBLK.ERRINFO.FIELD1(0) = VECTOR(NIL);
       62     1060    1           P_MSGBLK.ERRINFO.FIELD1(1) = VECTOR(NIL);
       63     1061    1           P_MSGBLK.ERRINFO.FIELD2(0) = VECTOR(NIL);
       64     1062    1           P_MSGBLK.ERRINFO.FIELD2(1) = VECTOR(NIL);
       65     1063    1           P_MSGBLK.ERRINFO.FIELD3(0) = VECTOR(NIL);
       66     1064    1           P_MSGBLK.ERRINFO.FIELD3(1) = VECTOR(NIL);
       67     1065    1           RETURN;
       68     1066    1   END QQC$BLDMSG_ERRBLK;

PL6.E3A0      #001=QQC$BLDMSG_ERRBLK File=QQC$BLDMSG_ERRBLK.:E05TSI              WED 07/30/97 05:38 Page:5
--  Include file information  --

   QQ_DATA_R.:E05TOU  cannot be made into a system file and is referenced.
   QQ_MACROS_C.:E05TOU  is referenced.
   CP_6.:E05TOU  cannot be made into a system file and is referenced.
   Q_PAGE_C.:E05TOU  is referenced.
   B$JIT_C.:E05TOU  was found in the system file and is never referenced.
   CP_6_C.:E05TOU  was found in the system file and is referenced.
      No diagnostics issued in procedure QQC$BLDMSG_ERRBLK.

   Procedure QQC$BLDMSG_ERRBLK requires 52 words for executable code.
   Procedure QQC$BLDMSG_ERRBLK requires 4 words of local(AUTO) storage.

    No errors detected in file QQC$BLDMSG_ERRBLK.:E05TSI    .

PL6.E3A0      #001=QQC$BLDMSG_ERRBLK File=QQC$BLDMSG_ERRBLK.:E05TSI              WED 07/30/97 05:38 Page:6

 Object Unit name= QQC$BLDMSG_ERRBLK                          File name= QQC$BLDMSG_ERRBLK.:E05TOU
 UTS= JUL 30 '97 05:38:46.60 WED                              Compiler= PL-6/E31         Sev=      00
 SharedLib= :SHARED_SYSTEM                                    Alt SharedLib=


    ****  Control sections  ****

 Sect   Type Bound  Init  Size OctSiz  Section name(segment info)
    0   DCB   even  none     0      0  M$UC
    1   Proc  even  none    52     64  QQC$BLDMSG_ERRBLK
    2  RoData even  none     2      2  QQC$BLDMSG_ERRBLK

    ****  Entry defs  ****

                              Check   Calling
                             calling  sequence
  Sect OctLoc Primary Altret sequence   type   Parms  Name
     1      0   yes            yes      Std        1  QQC$BLDMSG_ERRBLK

  ****  Entry refs  ****

         Check        Calling
        calling       sequence
Altret sequence SRef   type   Args  Name
                       nStd      0 X66_AUTO_1
                       Std       0 B_CONSPOOL_D
                       nStd      0 X66_ARET

  ****  Data refs  ****

  Flags:  r = read only, s = secondary
Flgs Name                             Flgs Name                             Flgs Name
     M$UC                                  QQ_GLOBAL                             B$TCB$
     B_VECTNIL
PL6.E3A0      #001=QQC$BLDMSG_ERRBLK File=QQC$BLDMSG_ERRBLK.:E05TSI              WED 07/30/97 05:38 Page:7

  ****  Segment refs  ****

  Flags:  r = read only, s = secondary
Flgs Name                             Flgs Name                             Flgs Name
     NULLSID
PL6.E3A0      #001=QQC$BLDMSG_ERRBLK File=QQC$BLDMSG_ERRBLK.:E05TSI              WED 07/30/97 05:38 Page:8


        1        1        /*M* QQC$BLDMSG_ERRBLK - Initialize a MSGBLK with info from the ALTRET frame */
        2        2        /*T***********************************************************/
        3        3        /*T*                                                         */
        4        4        /*T* Copyright (c) Bull HN Information Systems Inc., 1997    */
        5        5        /*T*                                                         */
        6        6        /*T***********************************************************/
        7        7        /*X* IND=2, DCI=4, CSU=2, ECU=4, DTI=2, CTI=4, AND */
        8        8        /*P* NAME:        QQC$BLDMSG_ERRBLK
        9        9
       10       10             PURPOSE:     Initialize a MSGBLK so that we can print an error
       11       11                          message.
       12       12        */
       13       13        /*D* NAME:        QQC$BLDMSG_ERRBLK
       14       14
       15       15             CALL:        CALL QQC$BLDMSG_ERRBLK(MSGBLK)
       16       16
       17       17             INPUT:       MSGBLK
       18       18
       19       19             OUTPUT:      MSGBLK
       20       20
       21       21             DESCRIPTION: Initialize all fields of a MSGBLK.  To save code
       22       22                          elsewhere the default values for ERR(0) & DCB#(0)
       23       23                          are taken from the ALTRET frame.
       24       24        */
       25       25        %EJECT;
PL6.E3A0      #001=QQC$BLDMSG_ERRBLK File=QQC$BLDMSG_ERRBLK.:E05TSI              WED 07/30/97 05:38 Page:9
       26       26        QQC$BLDMSG_ERRBLK:
       27       27                PROC(P_MSGBLK);

     27  1 000000   000000 700200 xent  QQC$BLDMSG_* TSX0  ! X66_AUTO_1
         1 000001   000004 000001                    ZERO    4,1

       28       28
       29       29        %INCLUDE Q_PAGE_C;
       30       61        %SET LISTEXP = '1'B;
       31       62        %PAGE(ARG="Includes");

                79        /***************************************************************************
                80         *                                                                         *
                81         *                                  Includes                               *
                82         *                                                                         *
                83         ***************************************************************************/

       32       87        %INCLUDE CP_6;
       33      168        %INCLUDE QQ_MACROS_C;
       34      593        %INCLUDE QQ_DATA_R;
       35      839        %PAGE(ARG="Symrefs");

               856    1   /***************************************************************************
               857    1    *                                                                         *
               858    1    *                                  Symrefs                                *
               859    1    *                                                                         *
               860    1    ***************************************************************************/

       36      864    1   DCL B$TCB$ PTR SYMREF;
       37      865        %PAGE(ARG="Parameters");

               882    1   /***************************************************************************
               883    1    *                                                                         *
               884    1    *                                 Parameters                              *
               885    1    *                                                                         *
               886    1    ***************************************************************************/

PL6.E3A0      #001=QQC$BLDMSG_ERRBLK File=QQC$BLDMSG_ERRBLK.:E05TSI              WED 07/30/97 05:38 Page:10
       38      890        %MSGBLK(FPTN=P_MSGBLK);
       39      980        %PAGE(ARG="Based");

               997    1   /***************************************************************************
               998    1    *                                                                         *
               999    1    *                                   Based                                 *
              1000    1    *                                                                         *
              1001    1    ***************************************************************************/

       40     1005        %B$TCB;
       41     1008        %B$ALT;
       42     1016        %PAGE(ARG="QQB$BLDMSG_ERRBLK", PAGE=YES);

PL6.E3A0      #001=QQC$BLDMSG_ERRBLK File=QQC$BLDMSG_ERRBLK.:E05TSI              WED 07/30/97 05:38 Page:11
              1033    1   /***************************************************************************
              1034    1    *                                                                         *
              1035    1    *                             QQB$BLDMSG_ERRBLK                           *
              1036    1    *                                                                         *
              1037    1    ***************************************************************************/

       43     1041    1           QQ_GLOBAL.ERROR_CNT = QQ_GLOBAL.ERROR_CNT + 1;

   1041  1 000002   000040 235000 xsym               LDA     QQ_GLOBAL+32
         1 000003   000001 035007                    ADLA    1,DL
         1 000004   000040 755000 xsym               STA     QQ_GLOBAL+32

       44     1042    1           P_MSGBLK = '0'B;

   1042  1 000005   200003 470500                    LDP0    @P_MSGBLK,,AUTO
         1 000006   000100 100400                    MLR     fill='000'O
         1 000007   000002 000001 xsym               ADSC9   B_VECTNIL+2              cn=0,n=1
         1 000010   000000 000122                    ADSC9   0,,PR0                   cn=0,n=82

       45     1043    1           P_MSGBLK.FLAGS.REPORT = '1'B;

   1043  1 000011   100000 236007                    LDQ     32768,DL
         1 000012   000002 256100                    ORSQ    2,,PR0

       46     1044    1           P_MSGBLK.TEXT$ = ADDR(NIL);

   1044  1 000013   000001 236000 xsym               LDQ     B_VECTNIL+1
         1 000014   000005 756100                    STQ     5,,PR0

       47     1045
       48     1046    1           IF QQ_GLOBAL.INSTANCE_UP THEN

   1046  1 000015   000013 234000 xsym               SZN     QQ_GLOBAL+11
         1 000016   000022 605000 1                  TPL     s:1052

       49     1047    2             DO;

PL6.E3A0      #001=QQC$BLDMSG_ERRBLK File=QQC$BLDMSG_ERRBLK.:E05TSI              WED 07/30/97 05:38 Page:12
       50     1048    2               P_MSGBLK.FLAGS.DEST.MCT = '1'B;

   1048  1 000017   000020 236003                    LDQ     16,DU
         1 000020   000002 256100                    ORSQ    2,,PR0

       51     1049    2             END;

   1049  1 000021   000024 710000 1                  TRA     s:1055

       52     1050    1           ELSE
       53     1051    2             DO;

       54     1052    2               P_MSGBLK.FLAGS.DEST.DODCB = '1'B;

   1052  1 000022   000010 236003                    LDQ     8,DU
         1 000023   000002 256100                    ORSQ    2,,PR0

       55     1053    2             END;

       56     1054
       57     1055    1           P_MSGBLK.CODECNT = 2;

   1055  1 000024   002000 236007                    LDQ     1024,DL
         1 000025   000003 552110                    STBQ    3,'10'O,PR0

       58     1056    1           P_MSGBLK.ERRINFO.ERR(0) = B$TCB$ -> B$TCB.ALT$ -> B$ALT.ERR;

   1056  1 000026   000000 471400 xsym               LDP1    B$TCB$
         1 000027   100000 473500                    LDP3    0,,PR1
         1 000030   300102 236100                    LDQ     66,,PR3
         1 000031   000006 756100                    STQ     6,,PR0

       59     1057    1           P_MSGBLK.ERRINFO.ERR(1) = '0'B;

   1057  1 000032   000100 100400                    MLR     fill='000'O
         1 000033   000002 000001 xsym               ADSC9   B_VECTNIL+2              cn=0,n=1
         1 000034   000015 200004                    ADSC9   13,,PR0                  cn=1,n=4
PL6.E3A0      #001=QQC$BLDMSG_ERRBLK File=QQC$BLDMSG_ERRBLK.:E05TSI              WED 07/30/97 05:38 Page:13

       60     1058    1           P_MSGBLK.ERRINFO.DCB#(0) = B$TCB$ -> B$TCB.ALT$ -> B$ALT.DCB#;

   1058  1 000035   100000 473500                    LDP3    0,,PR1
         1 000036   300101 236100                    LDQ     65,,PR3
         1 000037   000033 736000                    QLS     27
         1 000040   000007 552140                    STBQ    7,'40'O,PR0

       61     1059    1           P_MSGBLK.ERRINFO.FIELD1(0) = VECTOR(NIL);

   1059  1 000041   000100 100400                    MLR     fill='000'O
         1 000042   000000 000010 2                  ADSC9   0                        cn=0,n=8
         1 000043   000007 200010                    ADSC9   7,,PR0                   cn=1,n=8

       62     1060    1           P_MSGBLK.ERRINFO.FIELD1(1) = VECTOR(NIL);

   1060  1 000044   000100 100400                    MLR     fill='000'O
         1 000045   000000 000010 2                  ADSC9   0                        cn=0,n=8
         1 000046   000016 400010                    ADSC9   14,,PR0                  cn=2,n=8

       63     1061    1           P_MSGBLK.ERRINFO.FIELD2(0) = VECTOR(NIL);

   1061  1 000047   000100 100400                    MLR     fill='000'O
         1 000050   000000 000010 2                  ADSC9   0                        cn=0,n=8
         1 000051   000011 200010                    ADSC9   9,,PR0                   cn=1,n=8

       64     1062    1           P_MSGBLK.ERRINFO.FIELD2(1) = VECTOR(NIL);

   1062  1 000052   000100 100400                    MLR     fill='000'O
         1 000053   000000 000010 2                  ADSC9   0                        cn=0,n=8
         1 000054   000020 400010                    ADSC9   16,,PR0                  cn=2,n=8

       65     1063    1           P_MSGBLK.ERRINFO.FIELD3(0) = VECTOR(NIL);

   1063  1 000055   000100 100400                    MLR     fill='000'O
         1 000056   000000 000010 2                  ADSC9   0                        cn=0,n=8
         1 000057   000013 200010                    ADSC9   11,,PR0                  cn=1,n=8
PL6.E3A0      #001=QQC$BLDMSG_ERRBLK File=QQC$BLDMSG_ERRBLK.:E05TSI              WED 07/30/97 05:38 Page:14

       66     1064    1           P_MSGBLK.ERRINFO.FIELD3(1) = VECTOR(NIL);

   1064  1 000060   000100 100400                    MLR     fill='000'O
         1 000061   000000 000010 2                  ADSC9   0                        cn=0,n=8
         1 000062   000022 400010                    ADSC9   18,,PR0                  cn=2,n=8

       67     1065    1           RETURN;

   1065  1 000063   000000 702200 xent               TSX2  ! X66_ARET
       68     1066    1   END QQC$BLDMSG_ERRBLK;

PL6.E3A0      #001=QQC$BLDMSG_ERRBLK File=QQC$BLDMSG_ERRBLK.:E05TSI              WED 07/30/97 05:38 Page:15
--  Include file information  --

   QQ_DATA_R.:E05TOU  cannot be made into a system file and is referenced.
   QQ_MACROS_C.:E05TOU  is referenced.
   CP_6.:E05TOU  cannot be made into a system file and is referenced.
   Q_PAGE_C.:E05TOU  is referenced.
   B$JIT_C.:E05TOU  was found in the system file and is never referenced.
   CP_6_C.:E05TOU  was found in the system file and is referenced.
      No diagnostics issued in procedure QQC$BLDMSG_ERRBLK.
PL6.E3A0      #001=QQC$BLDMSG_ERRBLK File=QQC$BLDMSG_ERRBLK.:E05TSI              WED 07/30/97 05:38 Page:16

 **** Variables and constants ****

  ****  Auto variables  ****

  ****  Scalars and arrays  ****
OctLoc.c.b A Datatyp(siz) R M Lvl/name                 OctLoc.c.b A Datatyp(siz) R M Lvl/name

     3-0-0/w PTR         r     1 @P_MSGBLK                 *0-0-0/w STRC(738)   r     1 P_MSGBLK

  ****  SYMREF variables  ****

  ****  Scalars and arrays  ****
OctLoc.c.b A Datatyp(siz) R M Lvl/name                 OctLoc.c.b A Datatyp(siz) R M Lvl/name

     0-0-0/w PTR         r     1 B$TCB$                     0-0-0/d STRC(9090)  r     1 QQ_GLOBAL

  ****  BASED and DCB variables  ****

  ****  Scalars and arrays  ****
OctLoc.c.b A Datatyp(siz) R M Lvl/name                 OctLoc.c.b A Datatyp(siz) R M Lvl/name

     0-0-0/w STRC(2448)  r     1 B$ALT                      0-0-0/w STRC(144)   r     1 B$TCB


   Procedure QQC$BLDMSG_ERRBLK requires 52 words for executable code.
   Procedure QQC$BLDMSG_ERRBLK requires 4 words of local(AUTO) storage.

    No errors detected in file QQC$BLDMSG_ERRBLK.:E05TSI    .
PL6.E3A0      #001=QQC$BLDMSG_ERRBLK File=QQC$BLDMSG_ERRBLK.:E05TSI              WED 07/30/97 05:38 Page:17
          *** CROSS REFERENCE LISTING ***
**     DENOTES     IDENTIFIER DEFINITION
<<                 IDENTIFIER'S VALUE SET
>>                 IDENTIFIER'S VALUE USED
<>                 IDENTIFIER SET AND/OR USED
--                 IDENTIFIER REFERENCED
PL6.E3A0      #001=QQC$BLDMSG_ERRBLK File=QQC$BLDMSG_ERRBLK.:E05TSI              WED 07/30/97 05:38 Page:18
          MINI XREF LISTING

B$ALT.CODE
      1010**DCL      1010--REDEF    1011--REDEF    1011--REDEF
B$ALT.DCB#
      1011**DCL      1058>>ASSIGN
B$ALT.ERR
      1011**DCL      1056>>ASSIGN
B$ALT.ERR.ERR#
      1012**DCL      1012--REDEF
B$ALT.EVID
      1011**DCL      1011--REDEF    1011--REDEF
B$TCB.ALT$
      1006**DCL      1056>>ASSIGN   1058>>ASSIGN
B$TCB$
       864**DCL      1056>>ASSIGN   1058>>ASSIGN
P_MSGBLK
       891**DCL        26--PROC     1042<<ASSIGN
P_MSGBLK.CODECNT
       960**DCL      1055<<ASSIGN
P_MSGBLK.ERRINFO.DCB#
       971**DCL      1058<<ASSIGN
P_MSGBLK.ERRINFO.ERR
       969**DCL      1056<<ASSIGN   1057<<ASSIGN
P_MSGBLK.ERRINFO.FIELD1
       973**DCL      1059<<ASSIGN   1060<<ASSIGN
P_MSGBLK.ERRINFO.FIELD2
       975**DCL      1061<<ASSIGN   1062<<ASSIGN
P_MSGBLK.ERRINFO.FIELD3
       977**DCL      1063<<ASSIGN   1064<<ASSIGN
P_MSGBLK.FLAGS.DEST.DODCB
       939**DCL      1052<<ASSIGN
P_MSGBLK.FLAGS.DEST.MCT
       937**DCL      1048<<ASSIGN
PL6.E3A0      #001=QQC$BLDMSG_ERRBLK File=QQC$BLDMSG_ERRBLK.:E05TSI              WED 07/30/97 05:38 Page:19
P_MSGBLK.FLAGS.REPORT
       951**DCL      1043<<ASSIGN
P_MSGBLK.TEXT$
       965**DCL      1044<<ASSIGN
QQ_GLOBAL.DS1$_BITS
       613**DCL       613--REDEF
QQ_GLOBAL.DS2$_BITS
       613**DCL       614--REDEF
QQ_GLOBAL.DS3$_BITS
       614**DCL       614--REDEF
QQ_GLOBAL.DS4$_BITS
       614**DCL       615--REDEF
QQ_GLOBAL.ERROR_CNT
       609**DCL      1041<<ASSIGN   1041>>ASSIGN
QQ_GLOBAL.INSTANCE_UP
       605**DCL      1046>>IF
