VERSION E05

PL6.E3A0      #001=QQC$CONVERT_NUM File=QQC$CONVERT_NUM.:E05TSI                  WED 07/30/97 05:39 Page:1
        1        1        /*M* QQC$CONVERT_NUM - Utility to convert number to ASCII */
        2        2        /*T***********************************************************/
        3        3        /*T*                                                         */
        4        4        /*T* Copyright (c) Bull HN Information Systems Inc., 1997    */
        5        5        /*T*                                                         */
        6        6        /*T***********************************************************/
        7        7        /*X* IND=2, DCI=4, CSU=2, ECU=4, DTI=2, CTI=4, AND */
        8        8        QQC$CONVERT_NUM:
        9        9                PROC(P_NUM, P_SIZE, P_PTR$);
       10       10
       11       11        %INCLUDE Q_PAGE_C;
       12       43        %SET LISTEXP = '1'B;
       13       44        %PAGE(ARG="Parameters");

                61        /***************************************************************************
                62         *                                                                         *
                63         *                                 Parameters                              *
                64         *                                                                         *
                65         ***************************************************************************/

       14       69    1   DCL P_NUM SBIN WORD;
       15       70    1   DCL P_SIZE UBIN WORD;
       16       71    1   DCL P_PTR$ PTR;
       17       72        %PAGE(ARG="Based");

                89    1   /***************************************************************************
                90    1    *                                                                         *
                91    1    *                                   Based                                 *
                92    1    *                                                                         *
                93    1    ***************************************************************************/

       18       97    1   DCL SIGN CHAR(1) BASED;
       19       98    1   DCL CHAR$STRING CHAR(CHAR_STRING_SIZE) BASED;
       20       99        %PAGE(ARG="Auto");

               116    1   /***************************************************************************
               117    1    *                                                                         *
PL6.E3A0      #001=QQC$CONVERT_NUM File=QQC$CONVERT_NUM.:E05TSI                  WED 07/30/97 05:39 Page:2
               118    1    *                                    Auto                                 *
               119    1    *                                                                         *
               120    1    ***************************************************************************/

       21      124    1   DCL I UBIN WORD;
       22      125    1   DCL START UBIN WORD;
       23      126    1   DCL CHAR_STRING_SIZE UBIN WORD;
       24      127
       25      128    1   DCL TEXT_NUM CHAR(14);
       26      129        %PAGE(ARG="QQC$CONVERT_NUM", PAGE=YES);

PL6.E3A0      #001=QQC$CONVERT_NUM File=QQC$CONVERT_NUM.:E05TSI                  WED 07/30/97 05:39 Page:3
               146    1   /***************************************************************************
               147    1    *                                                                         *
               148    1    *                              QQC$CONVERT_NUM                            *
               149    1    *                                                                         *
               150    1    ***************************************************************************/

       27      154    1           CALL BINCHAR(TEXT_NUM, P_NUM);
       28      155    2           DO I = 0 TO 12;
       29      156    2             CALL INDEX(START, SUBSTR(TEXT_NUM, I, 1), '123456789') ALTRET(LOOP);
       30      157    2             P_SIZE = 14 - I;
       31      158    2             GOTO MOVE;
       32      159    2   LOOP:
       33      160    2           END;
       34      161    1           START = 13;
       35      162    1           P_SIZE = 1;
       36      163
       37      164    1   MOVE:
       38      165    1           CHAR_STRING_SIZE = P_SIZE;
       39      166
       40      167    1           IF P_NUM >= 0 THEN
       41      168    2             DO;
       42      169    2               P_PTR$ -> CHAR$STRING =
       43      170    2                   PINCRC(ADDR(TEXT_NUM), I) -> CHAR$STRING;
       44      171    2             END;
       45      172    1           ELSE
       46      173    2             DO;
       47      174    2               P_PTR$ -> SIGN = '-';
       48      175    2               PINCRC(P_PTR$, 1) -> CHAR$STRING =
       49      176    2                   PINCRC(ADDR(TEXT_NUM), I) -> CHAR$STRING;
       50      177    2               P_SIZE = P_SIZE + 1;
       51      178    2             END;
       52      179
       53      180    1           RETURN;
       54      181    1   END QQC$CONVERT_NUM;

PL6.E3A0      #001=QQC$CONVERT_NUM File=QQC$CONVERT_NUM.:E05TSI                  WED 07/30/97 05:39 Page:4
--  Include file information  --

   Q_PAGE_C.:E05TOU  is referenced.
      No diagnostics issued in procedure QQC$CONVERT_NUM.

   Procedure QQC$CONVERT_NUM requires 55 words for executable code.
   Procedure QQC$CONVERT_NUM requires 14 words of local(AUTO) storage.

    No errors detected in file QQC$CONVERT_NUM.:E05TSI    .

PL6.E3A0      #001=QQC$CONVERT_NUM File=QQC$CONVERT_NUM.:E05TSI                  WED 07/30/97 05:39 Page:5

 Object Unit name= QQC$CONVERT_NUM                            File name= QQC$CONVERT_NUM.:E05TOU
 UTS= JUL 30 '97 05:39:17.60 WED                              Compiler= PL-6/E31         Sev=      00
 SharedLib= :SHARED_SYSTEM                                    Alt SharedLib=


    ****  Control sections  ****

 Sect   Type Bound  Init  Size OctSiz  Section name(segment info)
    0  RoData even  UTS      3      3  QQC$CONVERT_NUM
    1   Proc  even  none    55     67  QQC$CONVERT_NUM
    2  RoData even  none     1      1  QQC$CONVERT_NUM

    ****  Entry defs  ****

                              Check   Calling
                             calling  sequence
  Sect OctLoc Primary Altret sequence   type   Parms  Name
     1      0   yes            yes      Std        3  QQC$CONVERT_NUM

  ****  Entry refs  ****

         Check        Calling
        calling       sequence
Altret sequence SRef   type   Args  Name
                       nStd      0 X66_AUTO_3
                       Std       0 B_CONSPOOL_D
                       nStd      0 X66_ARET

  ****  Data refs  ****

  Flags:  r = read only, s = secondary
Flgs Name                             Flgs Name                             Flgs Name
     B_VECTNIL
PL6.E3A0      #001=QQC$CONVERT_NUM File=QQC$CONVERT_NUM.:E05TSI                  WED 07/30/97 05:39 Page:6


        1        1        /*M* QQC$CONVERT_NUM - Utility to convert number to ASCII */
        2        2        /*T***********************************************************/
        3        3        /*T*                                                         */
        4        4        /*T* Copyright (c) Bull HN Information Systems Inc., 1997    */
        5        5        /*T*                                                         */
        6        6        /*T***********************************************************/
        7        7        /*X* IND=2, DCI=4, CSU=2, ECU=4, DTI=2, CTI=4, AND */
        8        8        QQC$CONVERT_NUM:
        9        9                PROC(P_NUM, P_SIZE, P_PTR$);

      9  1 000000   000000 700200 xent  QQC$CONVERT* TSX0  ! X66_AUTO_3
         1 000001   000016 000003                    ZERO    14,3

       10       10
       11       11        %INCLUDE Q_PAGE_C;
       12       43        %SET LISTEXP = '1'B;
       13       44        %PAGE(ARG="Parameters");

                61        /***************************************************************************
                62         *                                                                         *
                63         *                                 Parameters                              *
                64         *                                                                         *
                65         ***************************************************************************/

       14       69    1   DCL P_NUM SBIN WORD;
       15       70    1   DCL P_SIZE UBIN WORD;
       16       71    1   DCL P_PTR$ PTR;
       17       72        %PAGE(ARG="Based");

                89    1   /***************************************************************************
                90    1    *                                                                         *
                91    1    *                                   Based                                 *
                92    1    *                                                                         *
                93    1    ***************************************************************************/

       18       97    1   DCL SIGN CHAR(1) BASED;
PL6.E3A0      #001=QQC$CONVERT_NUM File=QQC$CONVERT_NUM.:E05TSI                  WED 07/30/97 05:39 Page:7
       19       98    1   DCL CHAR$STRING CHAR(CHAR_STRING_SIZE) BASED;
       20       99        %PAGE(ARG="Auto");

               116    1   /***************************************************************************
               117    1    *                                                                         *
               118    1    *                                    Auto                                 *
               119    1    *                                                                         *
               120    1    ***************************************************************************/

       21      124    1   DCL I UBIN WORD;
       22      125    1   DCL START UBIN WORD;
       23      126    1   DCL CHAR_STRING_SIZE UBIN WORD;
       24      127
       25      128    1   DCL TEXT_NUM CHAR(14);
       26      129        %PAGE(ARG="QQC$CONVERT_NUM", PAGE=YES);

PL6.E3A0      #001=QQC$CONVERT_NUM File=QQC$CONVERT_NUM.:E05TSI                  WED 07/30/97 05:39 Page:8
               146    1   /***************************************************************************
               147    1    *                                                                         *
               148    1    *                              QQC$CONVERT_NUM                            *
               149    1    *                                                                         *
               150    1    ***************************************************************************/

       27      154    1           CALL BINCHAR(TEXT_NUM, P_NUM);

    154  1 000002   200003 470500                    LDP0    @P_NUM,,AUTO
         1 000003   000100 301500                    BTD
         1 000004   000000 000004                    NDSC9   0,,PR0                   cn=0,s=lsgnf,sf=0,n=4
         1 000005   200011 030016                    NDSC9   TEXT_NUM,,AUTO           cn=0,s=nosgn,sf=0,n=14

       28      155    2           DO I = 0 TO 12;

    155  1 000006   200006 450100                    STZ     I,,AUTO

       29      156    2             CALL INDEX(START, SUBSTR(TEXT_NUM, I, 1), '123456789') ALTRET(LOOP);

    156  1 000007   200006 235100                    LDA     I,,AUTO
         1 000010   000105 124400                    SCM     mask='000'O
         1 000011   000000 000011 0                  ADSC9   0                        cn=0,n=9
         1 000012   200011 000001                    ADSC9   TEXT_NUM,A,AUTO          cn=0,n=1
         1 000013   200007 000100                    ARG     START,,AUTO
         1 000014   000022 606400 1                  TTN     LOOP

       30      157    2             P_SIZE = 14 - I;

    157  1 000015   200004 470500                    LDP0    @P_SIZE,,AUTO
         1 000016   000027 675000 xsym               ERA     B_VECTNIL+23
         1 000017   000017 035007                    ADLA    15,DL
         1 000020   000000 755100                    STA     0,,PR0

       31      158    2             GOTO MOVE;

    158  1 000021   000034 710000 1                  TRA     MOVE

PL6.E3A0      #001=QQC$CONVERT_NUM File=QQC$CONVERT_NUM.:E05TSI                  WED 07/30/97 05:39 Page:9
       32      159    2   LOOP:
       33      160    2           END;

    160  1 000022   200006 235100       LOOP         LDA     I,,AUTO
         1 000023   000001 035007                    ADLA    1,DL
         1 000024   200006 755100                    STA     I,,AUTO
         1 000025   000015 115007                    CMPA    13,DL
         1 000026   000007 602000 1                  TNC     s:156

       34      161    1           START = 13;

    161  1 000027   000015 236007                    LDQ     13,DL
         1 000030   200007 756100                    STQ     START,,AUTO

       35      162    1           P_SIZE = 1;

    162  1 000031   000001 235007                    LDA     1,DL
         1 000032   200004 470500                    LDP0    @P_SIZE,,AUTO
         1 000033   000000 755100                    STA     0,,PR0

       36      163
       37      164    1   MOVE:
       38      165    1           CHAR_STRING_SIZE = P_SIZE;

    165  1 000034   200010 755100       MOVE         STA     CHAR_STRING_SIZE,,AUTO

       39      166
       40      167    1           IF P_NUM >= 0 THEN

    167  1 000035   200003 471500                    LDP1    @P_NUM,,AUTO
         1 000036   100000 235100                    LDA     0,,PR1
         1 000037   000050 604000 1                  TMI     s:174

       41      168    2             DO;

       42      169    2               P_PTR$ -> CHAR$STRING =

PL6.E3A0      #001=QQC$CONVERT_NUM File=QQC$CONVERT_NUM.:E05TSI                  WED 07/30/97 05:39 Page:10
    169  1 000040   200005 473500                    LDP3    @P_PTR$,,AUTO
         1 000041   300000 474500                    LDP4    0,,PR3
         1 000042   200010 720100                    LXL0    CHAR_STRING_SIZE,,AUTO
         1 000043   200006 236100                    LDQ     I,,AUTO
         1 000044   040140 100546                    MLR     fill='040'O
         1 000045   200011 000010                    ADSC9   TEXT_NUM,Q,AUTO          cn=0,n=*X0
         1 000046   400000 000010                    ADSC9   0,,PR4                   cn=0,n=*X0

       43      170    2                   PINCRC(ADDR(TEXT_NUM), I) -> CHAR$STRING;
       44      171    2             END;

    171  1 000047   000066 710000 1                  TRA     s:180

       45      172    1           ELSE
       46      173    2             DO;

       47      174    2               P_PTR$ -> SIGN = '-';

    174  1 000050   200005 473500                    LDP3    @P_PTR$,,AUTO
         1 000051   300000 474500                    LDP4    0,,PR3
         1 000052   040100 100400                    MLR     fill='040'O
         1 000053   000000 000001 2                  ADSC9   0                        cn=0,n=1
         1 000054   400000 000001                    ADSC9   0,,PR4                   cn=0,n=1

       48      175    2               PINCRC(P_PTR$, 1) -> CHAR$STRING =

    175  1 000055   300000 474500                    LDP4    0,,PR3
         1 000056   200010 720100                    LXL0    CHAR_STRING_SIZE,,AUTO
         1 000057   200006 235100                    LDA     I,,AUTO
         1 000060   040140 100545                    MLR     fill='040'O
         1 000061   200011 000010                    ADSC9   TEXT_NUM,A,AUTO          cn=0,n=*X0
         1 000062   400000 200010                    ADSC9   0,,PR4                   cn=1,n=*X0

       49      176    2                   PINCRC(ADDR(TEXT_NUM), I) -> CHAR$STRING;
       50      177    2               P_SIZE = P_SIZE + 1;

    177  1 000063   000000 235100                    LDA     0,,PR0
PL6.E3A0      #001=QQC$CONVERT_NUM File=QQC$CONVERT_NUM.:E05TSI                  WED 07/30/97 05:39 Page:11
         1 000064   000001 035007                    ADLA    1,DL
         1 000065   000000 755100                    STA     0,,PR0

       51      178    2             END;

       52      179
       53      180    1           RETURN;

    180  1 000066   000000 702200 xent               TSX2  ! X66_ARET
       54      181    1   END QQC$CONVERT_NUM;

PL6.E3A0      #001=QQC$CONVERT_NUM File=QQC$CONVERT_NUM.:E05TSI                  WED 07/30/97 05:39 Page:12
--  Include file information  --

   Q_PAGE_C.:E05TOU  is referenced.
      No diagnostics issued in procedure QQC$CONVERT_NUM.
PL6.E3A0      #001=QQC$CONVERT_NUM File=QQC$CONVERT_NUM.:E05TSI                  WED 07/30/97 05:39 Page:13

 **** Variables and constants ****

  ****  Auto variables  ****

  ****  Scalars and arrays  ****
OctLoc.c.b A Datatyp(siz) R M Lvl/name                 OctLoc.c.b A Datatyp(siz) R M Lvl/name

     3-0-0/w PTR         r     1 @P_NUM                     5-0-0/w PTR         r     1 @P_PTR$
     4-0-0/w PTR         r     1 @P_SIZE                   10-0-0/w UBIN        r     1 CHAR_STRING_SIZE
     6-0-0/w UBIN        r     1 I                         *0-0-0/w SBIN        r     1 P_NUM
    *0-0-0/w PTR         r     1 P_PTR$                    *0-0-0/w UBIN        r     1 P_SIZE
     7-0-0/w UBIN        r     1 START                     11-0-0/c CHAR(14)    r     1 TEXT_NUM

  ****  BASED and DCB variables  ****

  ****  Scalars and arrays  ****
OctLoc.c.b A Datatyp(siz) R M Lvl/name                 OctLoc.c.b A Datatyp(siz) R M Lvl/name

     0-0-0/c ACHR        r     1 CHAR$STRING                0-0-0/c CHAR        r     1 SIGN


   Procedure QQC$CONVERT_NUM requires 55 words for executable code.
   Procedure QQC$CONVERT_NUM requires 14 words of local(AUTO) storage.

    No errors detected in file QQC$CONVERT_NUM.:E05TSI    .
PL6.E3A0      #001=QQC$CONVERT_NUM File=QQC$CONVERT_NUM.:E05TSI                  WED 07/30/97 05:39 Page:14
          *** CROSS REFERENCE LISTING ***
**     DENOTES     IDENTIFIER DEFINITION
<<                 IDENTIFIER'S VALUE SET
>>                 IDENTIFIER'S VALUE USED
<>                 IDENTIFIER SET AND/OR USED
--                 IDENTIFIER REFERENCED
PL6.E3A0      #001=QQC$CONVERT_NUM File=QQC$CONVERT_NUM.:E05TSI                  WED 07/30/97 05:39 Page:15
          MINI XREF LISTING

CHAR$STRING
        98**DCL       169<<ASSIGN    169>>ASSIGN    175<<ASSIGN    175>>ASSIGN
CHAR_STRING_SIZE
       126**DCL        98--IMP-SIZ   165<<ASSIGN    169>>ASSIGN    169>>ASSIGN    175>>ASSIGN    175>>ASSIGN
I
       124**DCL       155<<DOINDEX   156>>CALLBLT   157>>ASSIGN    169>>ASSIGN    175>>ASSIGN
LOOP
       160**LABEL     156--CALLALT
MOVE
       165**LABEL     158--GOTO
P_NUM
        69**DCL         8--PROC      154>>CALLBLT   167>>IF
P_PTR$
        71**DCL         8--PROC      169>>ASSIGN    174>>ASSIGN    175>>ASSIGN
P_SIZE
        70**DCL         8--PROC      157<<ASSIGN    162<<ASSIGN    165>>ASSIGN    177<<ASSIGN    177>>ASSIGN
SIGN
        97**DCL       174<<ASSIGN
START
       125**DCL       156<<CALLBLT   161<<ASSIGN
TEXT_NUM
       128**DCL       154<<CALLBLT   156>>CALLBLT   169--ASSIGN    175--ASSIGN
