VERSION E05

PL6.E3A0      #001=QQC$CONVERT_XID File=QQC$CONVERT_XID.:E05TSI                  WED 07/30/97 05:39 Page:1
        1        1        /*M* QQC$CONVERT_XID - Utility to convert transaction id to ASCII */
        2        2        /*T***********************************************************/
        3        3        /*T*                                                         */
        4        4        /*T* Copyright (c) Bull HN Information Systems Inc., 1997    */
        5        5        /*T*                                                         */
        6        6        /*T***********************************************************/
        7        7        /*X* IND=2, DCI=4, CSU=2, ECU=4, DTI=2, CTI=4, AND */
        8        8        QQC$CONVERT_XID:
        9        9                PROC(P_SIZE, P_PTR$, P_XID, P_XID_EXT);
       10       10
       11       11        %INCLUDE Q_PAGE_C;
       12       43        %SET LISTEXP = '1'B;
       13       44        %PAGE(ARG="Parameters");

                61        /***************************************************************************
                62         *                                                                         *
                63         *                                 Parameters                              *
                64         *                                                                         *
                65         ***************************************************************************/

       14       69    1   DCL P_SIZE UBIN WORD ALIGNED;
       15       70    1   DCL P_PTR$ PTR ALIGNED;
       16       71    1   DCL P_XID UBIN WORD ALIGNED;
       17       72    1   DCL P_XID_EXT BIT(36) ALIGNED;
       18       73        %PAGE(ARG="Externaly defined routines");

                90    1   /***************************************************************************
                91    1    *                                                                         *
                92    1    *                         Externaly defined routines                      *
                93    1    *                                                                         *
                94    1    ***************************************************************************/

       19       98    1   DCL QQC$CONVERT_NUM ENTRY(3);
       20       99        %PAGE(ARG="Based");

               116    1   /***************************************************************************
               117    1    *                                                                         *
PL6.E3A0      #001=QQC$CONVERT_XID File=QQC$CONVERT_XID.:E05TSI                  WED 07/30/97 05:39 Page:2
               118    1    *                                   Based                                 *
               119    1    *                                                                         *
               120    1    ***************************************************************************/

       21      124    1   DCL CHAR$STRING CHAR(CHAR_STRING_SIZE) BASED;
       22      125        %PAGE(ARG="Auto");

               142    1   /***************************************************************************
               143    1    *                                                                         *
               144    1    *                                    Auto                                 *
               145    1    *                                                                         *
               146    1    ***************************************************************************/

       23      150    1   DCL CHAR_STRING_SIZE UBIN WORD;
       24      151    1   DCL SIZE UBIN WORD;
       25      152    1   DCL TRAN_ID_SIZE UBIN WORD;
       26      153        %PAGE(ARG="QQC$CONVERT_XID", PAGE=YES);

PL6.E3A0      #001=QQC$CONVERT_XID File=QQC$CONVERT_XID.:E05TSI                  WED 07/30/97 05:39 Page:3
               170    1   /***************************************************************************
               171    1    *                                                                         *
               172    1    *                              QQC$CONVERT_XID                            *
               173    1    *                                                                         *
               174    1    ***************************************************************************/

       27      178    1           CALL QQC$CONVERT_NUM(P_XID, TRAN_ID_SIZE, P_PTR$);
       28      179
       29      180    1           IF P_XID_EXT ~= '0'B THEN
       30      181    2             DO;
       31      182    2               CHAR_STRING_SIZE = 1;
       32      183    2               PINCRC(P_PTR$, TRAN_ID_SIZE) -> CHAR$STRING = '-';
       33      184    2               TRAN_ID_SIZE = TRAN_ID_SIZE + 1;
       34      185
       35      186    2               CALL QQC$CONVERT_NUM(P_XID_EXT, SIZE, PINCRC(P_PTR$, TRAN_ID_SIZE));
       36      187    2               TRAN_ID_SIZE = TRAN_ID_SIZE + SIZE;
       37      188    2             END;
       38      189
       39      190    1           P_SIZE = TRAN_ID_SIZE;
       40      191
       41      192    1           RETURN;
       42      193
       43      194    1   END QQC$CONVERT_XID;

PL6.E3A0      #001=QQC$CONVERT_XID File=QQC$CONVERT_XID.:E05TSI                  WED 07/30/97 05:39 Page:4
--  Include file information  --

   Q_PAGE_C.:E05TOU  is referenced.
      No diagnostics issued in procedure QQC$CONVERT_XID.

   Procedure QQC$CONVERT_XID requires 49 words for executable code.
   Procedure QQC$CONVERT_XID requires 14 words of local(AUTO) storage.

    No errors detected in file QQC$CONVERT_XID.:E05TSI    .

PL6.E3A0      #001=QQC$CONVERT_XID File=QQC$CONVERT_XID.:E05TSI                  WED 07/30/97 05:39 Page:5

 Object Unit name= QQC$CONVERT_XID                            File name= QQC$CONVERT_XID.:E05TOU
 UTS= JUL 30 '97 05:39:28.28 WED                              Compiler= PL-6/E31         Sev=      00
 SharedLib= :SHARED_SYSTEM                                    Alt SharedLib=


    ****  Control sections  ****

 Sect   Type Bound  Init  Size OctSiz  Section name(segment info)
    0   Proc  even  none    49     61  QQC$CONVERT_XID
    1  RoData even  none     1      1  QQC$CONVERT_XID

    ****  Entry defs  ****

                              Check   Calling
                             calling  sequence
  Sect OctLoc Primary Altret sequence   type   Parms  Name
     0      0   yes            yes      Std        4  QQC$CONVERT_XID

  ****  Entry refs  ****

         Check        Calling
        calling       sequence
Altret sequence SRef   type   Args  Name
         yes           Std       3 QQC$CONVERT_NUM
                       nStd      0 X66_AUTO_4
                       Std       0 B_CONSPOOL_D
                       nStd      0 X66_ARET

  ****  Data refs  ****

  Flags:  r = read only, s = secondary
Flgs Name                             Flgs Name                             Flgs Name
     B_VECTNIL
PL6.E3A0      #001=QQC$CONVERT_XID File=QQC$CONVERT_XID.:E05TSI                  WED 07/30/97 05:39 Page:6


        1        1        /*M* QQC$CONVERT_XID - Utility to convert transaction id to ASCII */
        2        2        /*T***********************************************************/
        3        3        /*T*                                                         */
        4        4        /*T* Copyright (c) Bull HN Information Systems Inc., 1997    */
        5        5        /*T*                                                         */
        6        6        /*T***********************************************************/
        7        7        /*X* IND=2, DCI=4, CSU=2, ECU=4, DTI=2, CTI=4, AND */
        8        8        QQC$CONVERT_XID:
        9        9                PROC(P_SIZE, P_PTR$, P_XID, P_XID_EXT);

      9  0 000000   000000 700200 xent  QQC$CONVERT* TSX0  ! X66_AUTO_4
         0 000001   000016 000004                    ZERO    14,4

       10       10
       11       11        %INCLUDE Q_PAGE_C;
       12       43        %SET LISTEXP = '1'B;
       13       44        %PAGE(ARG="Parameters");

                61        /***************************************************************************
                62         *                                                                         *
                63         *                                 Parameters                              *
                64         *                                                                         *
                65         ***************************************************************************/

       14       69    1   DCL P_SIZE UBIN WORD ALIGNED;
       15       70    1   DCL P_PTR$ PTR ALIGNED;
       16       71    1   DCL P_XID UBIN WORD ALIGNED;
       17       72    1   DCL P_XID_EXT BIT(36) ALIGNED;
       18       73        %PAGE(ARG="Externaly defined routines");

                90    1   /***************************************************************************
                91    1    *                                                                         *
                92    1    *                         Externaly defined routines                      *
                93    1    *                                                                         *
                94    1    ***************************************************************************/

PL6.E3A0      #001=QQC$CONVERT_XID File=QQC$CONVERT_XID.:E05TSI                  WED 07/30/97 05:39 Page:7
       19       98    1   DCL QQC$CONVERT_NUM ENTRY(3);
       20       99        %PAGE(ARG="Based");

               116    1   /***************************************************************************
               117    1    *                                                                         *
               118    1    *                                   Based                                 *
               119    1    *                                                                         *
               120    1    ***************************************************************************/

       21      124    1   DCL CHAR$STRING CHAR(CHAR_STRING_SIZE) BASED;
       22      125        %PAGE(ARG="Auto");

               142    1   /***************************************************************************
               143    1    *                                                                         *
               144    1    *                                    Auto                                 *
               145    1    *                                                                         *
               146    1    ***************************************************************************/

       23      150    1   DCL CHAR_STRING_SIZE UBIN WORD;
       24      151    1   DCL SIZE UBIN WORD;
       25      152    1   DCL TRAN_ID_SIZE UBIN WORD;
       26      153        %PAGE(ARG="QQC$CONVERT_XID", PAGE=YES);

PL6.E3A0      #001=QQC$CONVERT_XID File=QQC$CONVERT_XID.:E05TSI                  WED 07/30/97 05:39 Page:8
               170    1   /***************************************************************************
               171    1    *                                                                         *
               172    1    *                              QQC$CONVERT_XID                            *
               173    1    *                                                                         *
               174    1    ***************************************************************************/

       27      178    1           CALL QQC$CONVERT_NUM(P_XID, TRAN_ID_SIZE, P_PTR$);

    178  0 000002   200004 236100                    LDQ     @P_PTR$,,AUTO
         0 000003   200014 756100                    STQ     TRAN_ID_SIZE+3,,AUTO
         0 000004   200011 630500                    EPPR0   TRAN_ID_SIZE,,AUTO
         0 000005   200013 450500                    STP0    TRAN_ID_SIZE+2,,AUTO
         0 000006   200005 236100                    LDQ     @P_XID,,AUTO
         0 000007   200012 756100                    STQ     TRAN_ID_SIZE+1,,AUTO
         0 000010   200012 630500                    EPPR0   TRAN_ID_SIZE+1,,AUTO
         0 000011   000021 631400 xsym               EPPR1   B_VECTNIL+17
         0 000012   000000 701000 xent               TSX1    QQC$CONVERT_NUM
         0 000013   000000 011000                    NOP     0

       28      179
       29      180    1           IF P_XID_EXT ~= '0'B THEN

    180  0 000014   200006 470500                    LDP0    @P_XID_EXT,,AUTO
         0 000015   000000 235100                    LDA     0,,PR0
         0 000016   000055 600000 0                  TZE     s:190

       30      181    2             DO;

       31      182    2               CHAR_STRING_SIZE = 1;

    182  0 000017   000001 236007                    LDQ     1,DL
         0 000020   200007 756100                    STQ     CHAR_STRING_SIZE,,AUTO

       32      183    2               PINCRC(P_PTR$, TRAN_ID_SIZE) -> CHAR$STRING = '-';

    183  0 000021   200004 471500                    LDP1    @P_PTR$,,AUTO
         0 000022   100000 473500                    LDP3    0,,PR1
PL6.E3A0      #001=QQC$CONVERT_XID File=QQC$CONVERT_XID.:E05TSI                  WED 07/30/97 05:39 Page:9
         0 000023   000000 620006                    EAX0    0,QL
         0 000024   200011 236100                    LDQ     TRAN_ID_SIZE,,AUTO
         0 000025   040146 100400                    MLR     fill='040'O
         0 000026   000000 000001 1                  ADSC9   0                        cn=0,n=1
         0 000027   300000 000010                    ADSC9   0,Q,PR3                  cn=0,n=*X0

       33      184    2               TRAN_ID_SIZE = TRAN_ID_SIZE + 1;

    184  0 000030   200011 235100                    LDA     TRAN_ID_SIZE,,AUTO
         0 000031   000001 035007                    ADLA    1,DL
         0 000032   200011 755100                    STA     TRAN_ID_SIZE,,AUTO

       34      185
       35      186    2               CALL QQC$CONVERT_NUM(P_XID_EXT, SIZE, PINCRC(P_PTR$, TRAN_ID_SIZE));

    186  0 000033   100000 473500                    LDP3    0,,PR1
         0 000034   200011 236100                    LDQ     TRAN_ID_SIZE,,AUTO
         0 000035   000011 402007                    MPY     9,DL
         0 000036   300000 503506                    ABD     0,QL,PR3
         0 000037   200012 453500                    STP3    TRAN_ID_SIZE+1,,AUTO
         0 000040   200012 634500                    EPPR4   TRAN_ID_SIZE+1,,AUTO
         0 000041   200015 454500                    STP4    TRAN_ID_SIZE+4,,AUTO
         0 000042   200010 635500                    EPPR5   SIZE,,AUTO
         0 000043   200014 455500                    STP5    TRAN_ID_SIZE+3,,AUTO
         0 000044   200006 236100                    LDQ     @P_XID_EXT,,AUTO
         0 000045   200013 756100                    STQ     TRAN_ID_SIZE+2,,AUTO
         0 000046   200013 630500                    EPPR0   TRAN_ID_SIZE+2,,AUTO
         0 000047   000021 631400 xsym               EPPR1   B_VECTNIL+17
         0 000050   000000 701000 xent               TSX1    QQC$CONVERT_NUM
         0 000051   000000 011000                    NOP     0

       36      187    2               TRAN_ID_SIZE = TRAN_ID_SIZE + SIZE;

    187  0 000052   200011 236100                    LDQ     TRAN_ID_SIZE,,AUTO
         0 000053   200010 036100                    ADLQ    SIZE,,AUTO
         0 000054   200011 756100                    STQ     TRAN_ID_SIZE,,AUTO

PL6.E3A0      #001=QQC$CONVERT_XID File=QQC$CONVERT_XID.:E05TSI                  WED 07/30/97 05:39 Page:10
       37      188    2             END;

       38      189
       39      190    1           P_SIZE = TRAN_ID_SIZE;

    190  0 000055   200003 470500                    LDP0    @P_SIZE,,AUTO
         0 000056   200011 235100                    LDA     TRAN_ID_SIZE,,AUTO
         0 000057   000000 755100                    STA     0,,PR0

       40      191
       41      192    1           RETURN;

    192  0 000060   000000 702200 xent               TSX2  ! X66_ARET
       42      193
       43      194    1   END QQC$CONVERT_XID;

PL6.E3A0      #001=QQC$CONVERT_XID File=QQC$CONVERT_XID.:E05TSI                  WED 07/30/97 05:39 Page:11
--  Include file information  --

   Q_PAGE_C.:E05TOU  is referenced.
      No diagnostics issued in procedure QQC$CONVERT_XID.
PL6.E3A0      #001=QQC$CONVERT_XID File=QQC$CONVERT_XID.:E05TSI                  WED 07/30/97 05:39 Page:12

 **** Variables and constants ****

  ****  Auto variables  ****

  ****  Scalars and arrays  ****
OctLoc.c.b A Datatyp(siz) R M Lvl/name                 OctLoc.c.b A Datatyp(siz) R M Lvl/name

     4-0-0/w PTR         r     1 @P_PTR$                    3-0-0/w PTR         r     1 @P_SIZE
     5-0-0/w PTR         r     1 @P_XID                     6-0-0/w PTR         r     1 @P_XID_EXT
     7-0-0/w UBIN        r     1 CHAR_STRING_SIZE          *0-0-0/w PTR         r     1 P_PTR$
    *0-0-0/w UBIN        r     1 P_SIZE                    *0-0-0/w UBIN        r     1 P_XID
    *0-0-0/w BIT         r     1 P_XID_EXT                 10-0-0/w UBIN        r     1 SIZE
    11-0-0/w UBIN        r     1 TRAN_ID_SIZE

  ****  BASED and DCB variables  ****

  ****  Scalars and arrays  ****
OctLoc.c.b A Datatyp(siz) R M Lvl/name                 OctLoc.c.b A Datatyp(siz) R M Lvl/name

     0-0-0/c ACHR        r     1 CHAR$STRING


   Procedure QQC$CONVERT_XID requires 49 words for executable code.
   Procedure QQC$CONVERT_XID requires 14 words of local(AUTO) storage.

    No errors detected in file QQC$CONVERT_XID.:E05TSI    .
PL6.E3A0      #001=QQC$CONVERT_XID File=QQC$CONVERT_XID.:E05TSI                  WED 07/30/97 05:39 Page:13
          *** CROSS REFERENCE LISTING ***
**     DENOTES     IDENTIFIER DEFINITION
<<                 IDENTIFIER'S VALUE SET
>>                 IDENTIFIER'S VALUE USED
<>                 IDENTIFIER SET AND/OR USED
--                 IDENTIFIER REFERENCED
PL6.E3A0      #001=QQC$CONVERT_XID File=QQC$CONVERT_XID.:E05TSI                  WED 07/30/97 05:39 Page:14
          MINI XREF LISTING

CHAR$STRING
       124**DCL       183<<ASSIGN
CHAR_STRING_SIZE
       150**DCL       124--IMP-SIZ   182<<ASSIGN    183>>ASSIGN
P_PTR$
        70**DCL         8--PROC      178<>CALL      183>>ASSIGN    186>>CALL
P_SIZE
        69**DCL         8--PROC      190<<ASSIGN
P_XID
        71**DCL         8--PROC      178<>CALL
P_XID_EXT
        72**DCL         8--PROC      180>>IF        186<>CALL
QQC$CONVERT_NUM
        98**DCL-ENT   178--CALL      186--CALL
SIZE
       151**DCL       186<>CALL      187>>ASSIGN
TRAN_ID_SIZE
       152**DCL       178<>CALL      183>>ASSIGN    184<<ASSIGN    184>>ASSIGN    186>>CALL      187<<ASSIGN
       187>>ASSIGN    190>>ASSIGN
