VERSION E05

PL6.E3A0      #001=QQC$DISAB_CHK File=QQC$DISAB_CHK.:E05TSI                      WED 07/30/97 05:39 Page:1
        1        1        /*M* QQC$DISAB_CHK - Check disabled tables for an item */
        2        2        /*T***********************************************************/
        3        3        /*T*                                                         */
        4        4        /*T* Copyright (c) Bull HN Information Systems Inc., 1997    */
        5        5        /*T*                                                         */
        6        6        /*T***********************************************************/
        7        7        /*X* IND=2, DCI=4, CSU=2, ECU=4, DTI=2, CTI=4, AND */
        8        8        QQC$DISAB_CHK:
        9        9                PROC(P_ITEM, P_TYPE) ALTRET;
       10       10
       11       11        %INCLUDE Q_PAGE_C;
       12       43        %SET LISTEXP = '1'B;
       13       44        %PAGE(ARG="Includes");

                61        /***************************************************************************
                62         *                                                                         *
                63         *                                  Includes                               *
                64         *                                                                         *
                65         ***************************************************************************/

       14       69        %INCLUDE CP_6;
       15      150        %INCLUDE QQ_MACROS_C;
       16      575        %INCLUDE QQ_DATA_R;
       17      821        %PAGE(ARG="Parameters");

               838    1   /***************************************************************************
               839    1    *                                                                         *
               840    1    *                                 Parameters                              *
               841    1    *                                                                         *
               842    1    ***************************************************************************/

       18      846    1   DCL P_ITEM CHAR(8);
       19      847    1   DCL P_TYPE UBIN WORD;
       20      848        %PAGE(ARG="Externally defined routines");

               865    1   /***************************************************************************
               866    1    *                                                                         *
PL6.E3A0      #001=QQC$DISAB_CHK File=QQC$DISAB_CHK.:E05TSI                      WED 07/30/97 05:39 Page:2
               867    1    *                        Externally defined routines                      *
               868    1    *                                                                         *
               869    1    ***************************************************************************/

       21      873    1   DCL QQC$WILD_COMP ENTRY(2) ALTRET;
       22      874        %PAGE(ARG="Based");

               891    1   /***************************************************************************
               892    1    *                                                                         *
               893    1    *                                   Based                                 *
               894    1    *                                                                         *
               895    1    ***************************************************************************/

       23      899        %DISAB$INFO;
       24      915        %PAGE(ARG="Auto");

               932    1   /***************************************************************************
               933    1    *                                                                         *
               934    1    *                                    Auto                                 *
               935    1    *                                                                         *
               936    1    ***************************************************************************/

       25      940    1   DCL NEXT$ PTR;
       26      941        %PAGE(ARG="QQC$DISAB_CHK", PAGE=YES);

PL6.E3A0      #001=QQC$DISAB_CHK File=QQC$DISAB_CHK.:E05TSI                      WED 07/30/97 05:39 Page:3
               958    1   /***************************************************************************
               959    1    *                                                                         *
               960    1    *                               QQC$DISAB_CHK                             *
               961    1    *                                                                         *
               962    1    ***************************************************************************/

       27      966    1           NEXT$ = QQ_GLOBAL.DISAB$;
       28      967
       29      968    2           DO WHILE('1'B);
       30      969    2             NEXT$ = NEXT$ -> DISAB$INFO.FLINK$;
       31      970    2             IF NEXT$ -> DISAB$INFO.FLINK$ = ADDR(NIL) THEN
       32      971    3               DO;
       33      972    3                 GOTO RET;
       34      973    3               END;
       35      974
       36      975    2             IF NEXT$ -> DISAB$INFO.TYPE = P_TYPE THEN
       37      976    3               DO;
       38      977    3                 CALL QQC$WILD_COMP(NEXT$ -> DISAB$INFO.ITEM, P_ITEM) ALTRET(LOOP);
       39      978    3                 GOTO ALT;
       40      979    3               END;
       41      980
       42      981    2   LOOP:
       43      982    2           END;
       44      983
       45      984    1   RET:
       46      985    1           RETURN;
       47      986
       48      987    1   ALT:
       49      988    1           ALTRETURN;
       50      989
       51      990    1   END QQC$DISAB_CHK;

PL6.E3A0      #001=QQC$DISAB_CHK File=QQC$DISAB_CHK.:E05TSI                      WED 07/30/97 05:39 Page:4
--  Include file information  --

   QQ_DATA_R.:E05TOU  cannot be made into a system file and is referenced.
   QQ_MACROS_C.:E05TOU  is referenced.
   CP_6.:E05TOU  cannot be made into a system file and is referenced.
   Q_PAGE_C.:E05TOU  is referenced.
   B$JIT_C.:E05TOU  was found in the system file and is never referenced.
   CP_6_C.:E05TOU  was found in the system file and is referenced.
      No diagnostics issued in procedure QQC$DISAB_CHK.

   Procedure QQC$DISAB_CHK requires 29 words for executable code.
   Procedure QQC$DISAB_CHK requires 10 words of local(AUTO) storage.

    No errors detected in file QQC$DISAB_CHK.:E05TSI    .

PL6.E3A0      #001=QQC$DISAB_CHK File=QQC$DISAB_CHK.:E05TSI                      WED 07/30/97 05:39 Page:5

 Object Unit name= QQC$DISAB_CHK                              File name= QQC$DISAB_CHK.:E05TOU
 UTS= JUL 30 '97 05:39:39.00 WED                              Compiler= PL-6/E31         Sev=      00
 SharedLib= :SHARED_SYSTEM                                    Alt SharedLib=


    ****  Control sections  ****

 Sect   Type Bound  Init  Size OctSiz  Section name(segment info)
    0   DCB   even  none     0      0  M$UC
    1   Proc  even  none    29     35  QQC$DISAB_CHK

    ****  Entry defs  ****

                              Check   Calling
                             calling  sequence
  Sect OctLoc Primary Altret sequence   type   Parms  Name
     1      0   yes    yes     yes      Std        2  QQC$DISAB_CHK

  ****  Entry refs  ****

         Check        Calling
        calling       sequence
Altret sequence SRef   type   Args  Name
 yes     yes           Std       2 QQC$WILD_COMP
                       nStd      0 X66_AUTO_2
                       Std       0 B_CONSPOOL_D
                       nStd      0 X66_ARET
                       nStd      0 X66_AALT

  ****  Data refs  ****

  Flags:  r = read only, s = secondary
Flgs Name                             Flgs Name                             Flgs Name
     M$UC                                  QQ_GLOBAL                             B_VECTNIL
PL6.E3A0      #001=QQC$DISAB_CHK File=QQC$DISAB_CHK.:E05TSI                      WED 07/30/97 05:39 Page:6


        1        1        /*M* QQC$DISAB_CHK - Check disabled tables for an item */
        2        2        /*T***********************************************************/
        3        3        /*T*                                                         */
        4        4        /*T* Copyright (c) Bull HN Information Systems Inc., 1997    */
        5        5        /*T*                                                         */
        6        6        /*T***********************************************************/
        7        7        /*X* IND=2, DCI=4, CSU=2, ECU=4, DTI=2, CTI=4, AND */
        8        8        QQC$DISAB_CHK:
        9        9                PROC(P_ITEM, P_TYPE) ALTRET;

      9  1 000000   000000 700200 xent  QQC$DISAB_C* TSX0  ! X66_AUTO_2
         1 000001   000012 000002                    ZERO    10,2

       10       10
       11       11        %INCLUDE Q_PAGE_C;
       12       43        %SET LISTEXP = '1'B;
       13       44        %PAGE(ARG="Includes");

                61        /***************************************************************************
                62         *                                                                         *
                63         *                                  Includes                               *
                64         *                                                                         *
                65         ***************************************************************************/

       14       69        %INCLUDE CP_6;
       15      150        %INCLUDE QQ_MACROS_C;
       16      575        %INCLUDE QQ_DATA_R;
       17      821        %PAGE(ARG="Parameters");

               838    1   /***************************************************************************
               839    1    *                                                                         *
               840    1    *                                 Parameters                              *
               841    1    *                                                                         *
               842    1    ***************************************************************************/

       18      846    1   DCL P_ITEM CHAR(8);
PL6.E3A0      #001=QQC$DISAB_CHK File=QQC$DISAB_CHK.:E05TSI                      WED 07/30/97 05:39 Page:7
       19      847    1   DCL P_TYPE UBIN WORD;
       20      848        %PAGE(ARG="Externally defined routines");

               865    1   /***************************************************************************
               866    1    *                                                                         *
               867    1    *                        Externally defined routines                      *
               868    1    *                                                                         *
               869    1    ***************************************************************************/

       21      873    1   DCL QQC$WILD_COMP ENTRY(2) ALTRET;
       22      874        %PAGE(ARG="Based");

               891    1   /***************************************************************************
               892    1    *                                                                         *
               893    1    *                                   Based                                 *
               894    1    *                                                                         *
               895    1    ***************************************************************************/

       23      899        %DISAB$INFO;
       24      915        %PAGE(ARG="Auto");

               932    1   /***************************************************************************
               933    1    *                                                                         *
               934    1    *                                    Auto                                 *
               935    1    *                                                                         *
               936    1    ***************************************************************************/

       25      940    1   DCL NEXT$ PTR;
       26      941        %PAGE(ARG="QQC$DISAB_CHK", PAGE=YES);

PL6.E3A0      #001=QQC$DISAB_CHK File=QQC$DISAB_CHK.:E05TSI                      WED 07/30/97 05:39 Page:8
               958    1   /***************************************************************************
               959    1    *                                                                         *
               960    1    *                               QQC$DISAB_CHK                             *
               961    1    *                                                                         *
               962    1    ***************************************************************************/

       27      966    1           NEXT$ = QQ_GLOBAL.DISAB$;

    966  1 000002   000055 236000 xsym               LDQ     QQ_GLOBAL+45
         1 000003   200006 756100                    STQ     NEXT$,,AUTO

       28      967
       29      968    2           DO WHILE('1'B);

       30      969    2             NEXT$ = NEXT$ -> DISAB$INFO.FLINK$;

    969  1 000004   200006 470500                    LDP0    NEXT$,,AUTO
         1 000005   000001 236100                    LDQ     1,,PR0
         1 000006   200006 756100                    STQ     NEXT$,,AUTO

       31      970    2             IF NEXT$ -> DISAB$INFO.FLINK$ = ADDR(NIL) THEN

    970  1 000007   200006 470500                    LDP0    NEXT$,,AUTO
         1 000010   000001 236100                    LDQ     1,,PR0
         1 000011   000001 116000 xsym               CMPQ    B_VECTNIL+1
         1 000012   000014 601000 1                  TNZ     s:975

       32      971    3               DO;

       33      972    3                 GOTO RET;

    972  1 000013   000033 710000 1                  TRA     RET

       34      973    3               END;
       35      974
       36      975    2             IF NEXT$ -> DISAB$INFO.TYPE = P_TYPE THEN

PL6.E3A0      #001=QQC$DISAB_CHK File=QQC$DISAB_CHK.:E05TSI                      WED 07/30/97 05:39 Page:9
    975  1 000014   200004 471500                    LDP1    @P_TYPE,,AUTO
         1 000015   000002 236100                    LDQ     2,,PR0
         1 000016   100000 116100                    CMPQ    0,,PR1
         1 000017   000032 601000 1                  TNZ     LOOP

       37      976    3               DO;

       38      977    3                 CALL QQC$WILD_COMP(NEXT$ -> DISAB$INFO.ITEM, P_ITEM) ALTRET(LOOP);

    977  1 000020   200003 236100                    LDQ     @P_ITEM,,AUTO
         1 000021   200011 756100                    STQ     NEXT$+3,,AUTO
         1 000022   200006 236100                    LDQ     NEXT$,,AUTO
         1 000023   000006 036003                    ADLQ    6,DU
         1 000024   200010 756100                    STQ     NEXT$+2,,AUTO
         1 000025   200010 630500                    EPPR0   NEXT$+2,,AUTO
         1 000026   000020 631400 xsym               EPPR1   B_VECTNIL+16
         1 000027   000000 701000 xent               TSX1    QQC$WILD_COMP
         1 000030   000032 702000 1                  TSX2    LOOP

       39      978    3                 GOTO ALT;

    978  1 000031   000034 710000 1                  TRA     ALT

       40      979    3               END;
       41      980
       42      981    2   LOOP:
       43      982    2           END;

    982  1 000032   000004 710000 1     LOOP         TRA     s:969

       44      983
       45      984    1   RET:
       46      985    1           RETURN;

    985  1 000033   000000 702200 xent  RET          TSX2  ! X66_ARET

       47      986
PL6.E3A0      #001=QQC$DISAB_CHK File=QQC$DISAB_CHK.:E05TSI                      WED 07/30/97 05:39 Page:10
       48      987    1   ALT:
       49      988    1           ALTRETURN;

    988  1 000034   000000 702200 xent  ALT          TSX2  ! X66_AALT
       50      989
       51      990    1   END QQC$DISAB_CHK;

PL6.E3A0      #001=QQC$DISAB_CHK File=QQC$DISAB_CHK.:E05TSI                      WED 07/30/97 05:39 Page:11
--  Include file information  --

   QQ_DATA_R.:E05TOU  cannot be made into a system file and is referenced.
   QQ_MACROS_C.:E05TOU  is referenced.
   CP_6.:E05TOU  cannot be made into a system file and is referenced.
   Q_PAGE_C.:E05TOU  is referenced.
   B$JIT_C.:E05TOU  was found in the system file and is never referenced.
   CP_6_C.:E05TOU  was found in the system file and is referenced.
      No diagnostics issued in procedure QQC$DISAB_CHK.
PL6.E3A0      #001=QQC$DISAB_CHK File=QQC$DISAB_CHK.:E05TSI                      WED 07/30/97 05:39 Page:12

 **** Variables and constants ****

  ****  Auto variables  ****

  ****  Scalars and arrays  ****
OctLoc.c.b A Datatyp(siz) R M Lvl/name                 OctLoc.c.b A Datatyp(siz) R M Lvl/name

     3-0-0/w PTR         r     1 @P_ITEM                    4-0-0/w PTR         r     1 @P_TYPE
     5-0-0/w PTR         r     1 D$                         6-0-0/w PTR         r     1 NEXT$
    *0-0-0/c CHAR(8)     r     1 P_ITEM                    *0-0-0/w UBIN        r     1 P_TYPE

  ****  SYMREF variables  ****

  ****  Scalars and arrays  ****
OctLoc.c.b A Datatyp(siz) R M Lvl/name                 OctLoc.c.b A Datatyp(siz) R M Lvl/name

     0-0-0/d STRC(9090)  r     1 QQ_GLOBAL

  ****  BASED and DCB variables  ****

  ****  Scalars and arrays  ****
OctLoc.c.b A Datatyp(siz) R M Lvl/name                 OctLoc.c.b A Datatyp(siz) R M Lvl/name

     0-0-0/w STRC(288)   r     1 DISAB$INFO


   Procedure QQC$DISAB_CHK requires 29 words for executable code.
   Procedure QQC$DISAB_CHK requires 10 words of local(AUTO) storage.

    No errors detected in file QQC$DISAB_CHK.:E05TSI    .
PL6.E3A0      #001=QQC$DISAB_CHK File=QQC$DISAB_CHK.:E05TSI                      WED 07/30/97 05:39 Page:13
          *** CROSS REFERENCE LISTING ***
**     DENOTES     IDENTIFIER DEFINITION
<<                 IDENTIFIER'S VALUE SET
>>                 IDENTIFIER'S VALUE USED
<>                 IDENTIFIER SET AND/OR USED
--                 IDENTIFIER REFERENCED
PL6.E3A0      #001=QQC$DISAB_CHK File=QQC$DISAB_CHK.:E05TSI                      WED 07/30/97 05:39 Page:14
          MINI XREF LISTING

ALT
       988**LABEL     978--GOTO
D$
       900**DCL       901--IMP-PTR
DISAB$INFO.FLINK$
       904**DCL       969>>ASSIGN    970>>IF
DISAB$INFO.ITEM
       912**DCL       977<>CALL
DISAB$INFO.TYPE
       906**DCL       975>>IF
LOOP
       982**LABEL     977--CALLALT
NEXT$
       940**DCL       966<<ASSIGN    969<<ASSIGN    969>>ASSIGN    970>>IF        975>>IF        977>>CALL
P_ITEM
       846**DCL         8--PROC      977<>CALL
P_TYPE
       847**DCL         8--PROC      975>>IF
QQC$WILD_COMP
       873**DCL-ENT   977--CALL
QQ_GLOBAL.DISAB$
       593**DCL       966>>ASSIGN
QQ_GLOBAL.DS1$_BITS
       595**DCL       595--REDEF
QQ_GLOBAL.DS2$_BITS
       595**DCL       596--REDEF
QQ_GLOBAL.DS3$_BITS
       596**DCL       596--REDEF
QQ_GLOBAL.DS4$_BITS
       596**DCL       597--REDEF
RET
       985**LABEL     972--GOTO
