VERSION E05

PL6.E3A0      #001=QQC$DUMP File=QQC$DUMP.:E05TSI                                WED 07/30/97 05:39 Page:1
        1        1        /*M* QQC$DUMP - Print a dump */
        2        2        /*T***********************************************************/
        3        3        /*T*                                                         */
        4        4        /*T* Copyright (c) Bull HN Information Systems Inc., 1997    */
        5        5        /*T*                                                         */
        6        6        /*T***********************************************************/
        7        7        /*X* IND=2, DCI=4, CSU=2, ECU=4, DTI=2, CTI=4, AND */
        8        8        QQC$DUMP:
        9        9                PROC(P_START$, P_SIZE, P_TITLE) ALTRET;
       10       10
       11       11        %INCLUDE Q_PAGE_C;
       12       43        %SET LISTEXP =  '1'B;
       13       44        %PAGE(ARG="Includes");

                61        /***************************************************************************
                62         *                                                                         *
                63         *                                  Includes                               *
                64         *                                                                         *
                65         ***************************************************************************/

       14       69        %INCLUDE CP_6;
       15      150        %INCLUDE QQ_MACROS_C;
       16      575        %INCLUDE QQ_DATA_R;
       17      821        %PAGE(ARG="Parameters");

               838    1   /***************************************************************************
               839    1    *                                                                         *
               840    1    *                                 Parameters                              *
               841    1    *                                                                         *
               842    1    ***************************************************************************/

       18      846    1   DCL P_START$ PTR;
       19      847    1   DCL P_START(0:11) REDEF P_START$ UBIN(3) UNAL;
       20      848    1   DCL P_SIZE SBIN(36);
       21      849    1   DCL 1 P_TITLE,
       22      850    1         2 COUNT UBIN(9) UNAL,
       23      851    1         2 TEXT CHAR(P_TITLE.COUNT) UNAL;
PL6.E3A0      #001=QQC$DUMP File=QQC$DUMP.:E05TSI                                WED 07/30/97 05:39 Page:2
       24      852        %PAGE(ARG="DCBs");

               869    1   /***************************************************************************
               870    1    *                                                                         *
               871    1    *                                    DCBs                                 *
               872    1    *                                                                         *
               873    1    ***************************************************************************/

       25      877    1   DCL M$DO DCB;
       26      878        %PAGE(ARG="Based");

               895    1   /***************************************************************************
               896    1    *                                                                         *
               897    1    *                                   Based                                 *
               898    1    *                                                                         *
               899    1    ***************************************************************************/

       27      903    1   DCL LINE CHAR(CPL) BASED UNAL;
       28      904    1   DCL ONEWORD BIT(36) ALIGNED BASED;
       29      905        %PAGE(ARG="Static");

               922    1   /***************************************************************************
               923    1    *                                                                         *
               924    1    *                                   Static                                *
               925    1    *                                                                         *
               926    1    ***************************************************************************/

       30      930    1   DCL 1 PRINTBUF STATIC,
       31      931    1         2 BUFFER CHAR(132),
       32      932    1         2 LINE(0:131) REDEF BUFFER CHAR(1),
       33      933    1         2 TITLE REDEF BUFFER,
       34      934    1           3 VFC CHAR(1),
       35      935    1           3 TEXT CHAR(131);
       36      936        %PAGE(ARG="Auto");

               953    1   /***************************************************************************
               954    1    *                                                                         *
PL6.E3A0      #001=QQC$DUMP File=QQC$DUMP.:E05TSI                                WED 07/30/97 05:39 Page:3
               955    1    *                                    Auto                                 *
               956    1    *                                                                         *
               957    1    ***************************************************************************/

       37      961    1   DCL I SBIN;
       38      962    1   DCL J SBIN;
       39      963    1   DCL K SBIN;
       40      964    1   DCL WPL SBIN(36);                       /* Words per line                     */
       41      965    1   DCL WTL UBIN(36);                       /* Words this line                    */
       42      966    1   DCL CPL UBIN(36);                       /* Char per line                      */
       43      967    1   DCL LCNT SBIN;
       44      968    1   DCL POS SBIN;
       45      969    1   DCL RELADR SBIN;
       46      970    1   DCL P$ PTR;
       47      971    1   DCL 1 OCTVAL,
       48      972    1         2 DIGIT(0:11) UBIN(3) UNAL,
       49      973    1         2 CHR(0:3) REDEF DIGIT UBIN(9) UNAL;
       50      974        %PAGE(ARG="FPTs", PAGE=YES);

PL6.E3A0      #001=QQC$DUMP File=QQC$DUMP.:E05TSI                                WED 07/30/97 05:39 Page:4
               991    1   /***************************************************************************
               992    1    *                                                                         *
               993    1    *                                    FPTs                                 *
               994    1    *                                                                         *
               995    1    ***************************************************************************/

       51      999        %FPT_WRITE(DCB=M$DO, BUF=PRINTBUF, VFC=YES);
       52     1030        %PAGE(ARG="QQC$DUMP", PAGE=YES);

PL6.E3A0      #001=QQC$DUMP File=QQC$DUMP.:E05TSI                                WED 07/30/97 05:39 Page:5
              1047    1   /***************************************************************************
              1048    1    *                                                                         *
              1049    1    *                                  QQC$DUMP                               *
              1050    1    *                                                                         *
              1051    1    ***************************************************************************/

       53     1055    1           WPL = 4;
       54     1056    1           CPL = WPL * 4;
       55     1057    1           P$ = P_START$;
       56     1058    1           WTL = WPL;
       57     1059    1           RELADR = 0;
       58     1060    1           LCNT = (P_SIZE + WPL - 1) / WPL;
       59     1061    1           PRINTBUF.TITLE.VFC = '0';
       60     1062    1           PRINTBUF.TITLE.TEXT = P_TITLE.TEXT;
       61     1063    1           CALL M$WRITE(FPT_WRITE) ALTRET(ALT);
       62     1064    1           PRINTBUF.BUFFER = 'B';
       63     1065    1           CALL M$WRITE(FPT_WRITE) ALTRET(ALT);
       64     1066    1           PRINTBUF.BUFFER = 'A pointer address =';
       65     1067    1           POS = 20;
       66     1068    2           DO I = 0 TO 11;
       67     1069    2             PRINTBUF.LINE(POS) = BINASC(P_START(I) + 48);
       68     1070    2             POS = POS + 1;
       69     1071    2           END;
       70     1072    1           CALL M$WRITE(FPT_WRITE) ALTRET(ALT);
       71     1073    1           PRINTBUF.BUFFER = 'A';
       72     1074    2           DO I = 1 TO LCNT;
       73     1075    2             IF QQ_GLOBAL.BREAK THEN
       74     1076    3               DO;
       75     1077    3                 QQ_GLOBAL.BREAK = '0'B;
       76     1078    3                 GOTO RET;
       77     1079    3               END;
       78     1080
       79     1081    2             IF P_SIZE - (I - 1) * WPL <= WPL THEN
       80     1082    3               DO;                         /* Partial (or just) last line        */
       81     1083    3                 WTL = P_SIZE - (I - 1) * WPL;
       82     1084    3                 PRINTBUF.BUFFER = 'A';    /* Clear for partial                  */
       83     1085    3               END;
PL6.E3A0      #001=QQC$DUMP File=QQC$DUMP.:E05TSI                                WED 07/30/97 05:39 Page:6
       84     1086    2             ELSE
       85     1087    2               IF P_SIZE - (I - 1) * WPL >= 2 * WPL THEN /* Enough to compare    */
       86     1088    2                 IF PINCRW(P$, RELADR) -> LINE = PINCRW(P$, RELADR + WPL) -> LINE THEN
       87     1089    2                   IF PRINTBUF.LINE(8) = '*' THEN
       88     1090    2                     GOTO NEXTI;           /* Keep old offset                    */
       89     1091    2                   ELSE
       90     1092    2                     PRINTBUF.LINE(8) = '*';
       91     1093    2                 ELSE
       92     1094    2                   IF PRINTBUF.LINE(8) = '*' THEN
       93     1095    3                     DO;
       94     1096    3                       PRINTBUF.LINE(8) = ' ';
       95     1097    3                       GOTO NEXTI;         /* Dont print if still same           */
       96     1098    3                     END;
       97     1099    2                   ELSE
       98     1100    2                     IF PRINTBUF.LINE(8) = '*' THEN
       99     1101    3                       DO;
      100     1102    3                         PRINTBUF.LINE(8) = ' ';
      101     1103    3                         GOTO NEXTI;       /* Dont print if still same           */
      102     1104    3                       END;
      103     1105    2             OCTVAL = BINBIT(RELADR, 36);
      104     1106    2             POS = 2;
      105     1107    3             DO J = 6 TO 11;               /* Convert rel address                */
      106     1108    3               PRINTBUF.LINE(POS) = BINASC(OCTVAL.DIGIT(J) + 48);
      107     1109    3               POS = POS + 1;
      108     1110    3             END;
      109     1111    2             POS = POS + 2;
      110     1112    3             DO J = 0 TO WTL - 1;          /* Convert actual words               */
      111     1113    3               OCTVAL = PINCRW(P$, RELADR + J) -> ONEWORD;
      112     1114    4               DO K = 0 TO 11;
      113     1115    4                 PRINTBUF.LINE(POS) = BINASC(OCTVAL.DIGIT(K) + 48);
      114     1116    4                 POS = POS + 1;
      115     1117    4               END;
      116     1118    3               POS = POS + 1;
      117     1119    3             END;
      118     1120    2             POS = 10 + 13 * WPL + 2;
      119     1121    2             PRINTBUF.LINE(POS - 1) = '*';
      120     1122    3             DO J = 0 TO WTL - 1;          /* Covert to ascii data               */
PL6.E3A0      #001=QQC$DUMP File=QQC$DUMP.:E05TSI                                WED 07/30/97 05:39 Page:7
      121     1123    3               OCTVAL = PINCRW(P$, RELADR + J) -> ONEWORD;
      122     1124    4               DO K = 0 TO 3;
      123     1125    4                 IF OCTVAL.CHR(K) >= 32 AND OCTVAL.CHR(K) <= 126 THEN
      124     1126    4                   PRINTBUF.LINE(POS) = BINASC(OCTVAL.CHR(K));
      125     1127    4                 ELSE
      126     1128    4                   PRINTBUF.LINE(POS) = '.';
      127     1129    4                 POS = POS + 1;
      128     1130    4               END;
      129     1131    3             END;
      130     1132    2             PRINTBUF.LINE(POS) = '*';
      131     1133    2             CALL M$WRITE(FPT_WRITE) ALTRET(ALT);
      132     1134    2   NEXTI:
      133     1135    2             RELADR = RELADR + WPL;
      134     1136    2           END;
      135     1137    1   RET:
      136     1138    1           RETURN;
      137     1139    1   ALT:
      138     1140    1           ALTRETURN;
      139     1141    1   END QQC$DUMP;

PL6.E3A0      #001=QQC$DUMP File=QQC$DUMP.:E05TSI                                WED 07/30/97 05:39 Page:8
--  Include file information  --

   QQ_DATA_R.:E05TOU  cannot be made into a system file and is referenced.
   QQ_MACROS_C.:E05TOU  is referenced.
   CP_6.:E05TOU  cannot be made into a system file and is referenced.
   Q_PAGE_C.:E05TOU  is referenced.
   B$JIT_C.:E05TOU  was found in the system file and is never referenced.
   CP_6_C.:E05TOU  was found in the system file and is referenced.
      No diagnostics issued in procedure QQC$DUMP.

   Procedure QQC$DUMP requires 282 words for executable code.
   Procedure QQC$DUMP requires 20 words of local(AUTO) storage.

    No errors detected in file QQC$DUMP.:E05TSI    .

PL6.E3A0      #001=QQC$DUMP File=QQC$DUMP.:E05TSI                                WED 07/30/97 05:39 Page:9

 Object Unit name= QQC$DUMP                                   File name= QQC$DUMP.:E05TOU
 UTS= JUL 30 '97 05:39:53.60 WED                              Compiler= PL-6/E31         Sev=      00
 SharedLib= :SHARED_SYSTEM                                    Alt SharedLib=


    ****  Control sections  ****

 Sect   Type Bound  Init  Size OctSiz  Section name(segment info)
    0   DCB   even  none     0      0  M$UC
    1   DCB   even  none     0      0  M$DO
    2   Data  even  none    46     56  QQC$DUMP
    3  RoData even  UTS      5      5  QQC$DUMP
    4   Proc  even  none   282    432  QQC$DUMP
    5  RoData even  none     5      5  QQC$DUMP

    ****  Entry defs  ****

                              Check   Calling
                             calling  sequence
  Sect OctLoc Primary Altret sequence   type   Parms  Name
     4      0   yes    yes     yes      Std        3  QQC$DUMP

  ****  Entry refs  ****

         Check        Calling
        calling       sequence
Altret sequence SRef   type   Args  Name
                       nStd      0 X66_AUTO_3
                       nStd      0 X66_ARET
                       nStd      0 X66_AALT

  ****  Data refs  ****

  Flags:  r = read only, s = secondary
Flgs Name                             Flgs Name                             Flgs Name
     M$UC                                  QQ_GLOBAL                             M$DO
PL6.E3A0      #001=QQC$DUMP File=QQC$DUMP.:E05TSI                                WED 07/30/97 05:39 Page:10

  ****  Segment refs  ****

  Flags:  r = read only, s = secondary
Flgs Name                             Flgs Name                             Flgs Name
     ISSID                                 NULLSID
PL6.E3A0      #001=QQC$DUMP File=QQC$DUMP.:E05TSI                                WED 07/30/97 05:39 Page:11


        1        1        /*M* QQC$DUMP - Print a dump */
        2        2        /*T***********************************************************/
        3        3        /*T*                                                         */
        4        4        /*T* Copyright (c) Bull HN Information Systems Inc., 1997    */
        5        5        /*T*                                                         */
        6        6        /*T***********************************************************/
        7        7        /*X* IND=2, DCI=4, CSU=2, ECU=4, DTI=2, CTI=4, AND */
        8        8        QQC$DUMP:
        9        9                PROC(P_START$, P_SIZE, P_TITLE) ALTRET;

      9  4 000000   000000 700200 xent  QQC$DUMP     TSX0  ! X66_AUTO_3
         4 000001   000024 000003                    ZERO    20,3

       10       10
       11       11        %INCLUDE Q_PAGE_C;
       12       43        %SET LISTEXP =  '1'B;
       13       44        %PAGE(ARG="Includes");

                61        /***************************************************************************
                62         *                                                                         *
                63         *                                  Includes                               *
                64         *                                                                         *
                65         ***************************************************************************/

       14       69        %INCLUDE CP_6;
       15      150        %INCLUDE QQ_MACROS_C;
       16      575        %INCLUDE QQ_DATA_R;
       17      821        %PAGE(ARG="Parameters");

               838    1   /***************************************************************************
               839    1    *                                                                         *
               840    1    *                                 Parameters                              *
               841    1    *                                                                         *
               842    1    ***************************************************************************/

       18      846    1   DCL P_START$ PTR;
PL6.E3A0      #001=QQC$DUMP File=QQC$DUMP.:E05TSI                                WED 07/30/97 05:39 Page:12
       19      847    1   DCL P_START(0:11) REDEF P_START$ UBIN(3) UNAL;
       20      848    1   DCL P_SIZE SBIN(36);
       21      849    1   DCL 1 P_TITLE,
       22      850    1         2 COUNT UBIN(9) UNAL,
       23      851    1         2 TEXT CHAR(P_TITLE.COUNT) UNAL;
       24      852        %PAGE(ARG="DCBs");

               869    1   /***************************************************************************
               870    1    *                                                                         *
               871    1    *                                    DCBs                                 *
               872    1    *                                                                         *
               873    1    ***************************************************************************/

       25      877    1   DCL M$DO DCB;
       26      878        %PAGE(ARG="Based");

               895    1   /***************************************************************************
               896    1    *                                                                         *
               897    1    *                                   Based                                 *
               898    1    *                                                                         *
               899    1    ***************************************************************************/

       27      903    1   DCL LINE CHAR(CPL) BASED UNAL;
       28      904    1   DCL ONEWORD BIT(36) ALIGNED BASED;
       29      905        %PAGE(ARG="Static");

               922    1   /***************************************************************************
               923    1    *                                                                         *
               924    1    *                                   Static                                *
               925    1    *                                                                         *
               926    1    ***************************************************************************/

       30      930    1   DCL 1 PRINTBUF STATIC,
       31      931    1         2 BUFFER CHAR(132),
       32      932    1         2 LINE(0:131) REDEF BUFFER CHAR(1),
       33      933    1         2 TITLE REDEF BUFFER,
       34      934    1           3 VFC CHAR(1),
PL6.E3A0      #001=QQC$DUMP File=QQC$DUMP.:E05TSI                                WED 07/30/97 05:39 Page:13
       35      935    1           3 TEXT CHAR(131);
       36      936        %PAGE(ARG="Auto");

               953    1   /***************************************************************************
               954    1    *                                                                         *
               955    1    *                                    Auto                                 *
               956    1    *                                                                         *
               957    1    ***************************************************************************/

       37      961    1   DCL I SBIN;
       38      962    1   DCL J SBIN;
       39      963    1   DCL K SBIN;
       40      964    1   DCL WPL SBIN(36);                       /* Words per line                     */
       41      965    1   DCL WTL UBIN(36);                       /* Words this line                    */
       42      966    1   DCL CPL UBIN(36);                       /* Char per line                      */
       43      967    1   DCL LCNT SBIN;
       44      968    1   DCL POS SBIN;
       45      969    1   DCL RELADR SBIN;
       46      970    1   DCL P$ PTR;
       47      971    1   DCL 1 OCTVAL,
       48      972    1         2 DIGIT(0:11) UBIN(3) UNAL,
       49      973    1         2 CHR(0:3) REDEF DIGIT UBIN(9) UNAL;
       50      974        %PAGE(ARG="FPTs", PAGE=YES);

PL6.E3A0      #001=QQC$DUMP File=QQC$DUMP.:E05TSI                                WED 07/30/97 05:39 Page:14
               991    1   /***************************************************************************
               992    1    *                                                                         *
               993    1    *                                    FPTs                                 *
               994    1    *                                                                         *
               995    1    ***************************************************************************/

       51      999        %FPT_WRITE(DCB=M$DO, BUF=PRINTBUF, VFC=YES);
       52     1030        %PAGE(ARG="QQC$DUMP", PAGE=YES);

PL6.E3A0      #001=QQC$DUMP File=QQC$DUMP.:E05TSI                                WED 07/30/97 05:39 Page:15
              1047    1   /***************************************************************************
              1048    1    *                                                                         *
              1049    1    *                                  QQC$DUMP                               *
              1050    1    *                                                                         *
              1051    1    ***************************************************************************/

       53     1055    1           WPL = 4;

   1055  4 000002   000004 235007                    LDA     4,DL
         4 000003   200011 755100                    STA     WPL,,AUTO

       54     1056    1           CPL = WPL * 4;

   1056  4 000004   000002 735000                    ALS     2
         4 000005   200013 755100                    STA     CPL,,AUTO

       55     1057    1           P$ = P_START$;

   1057  4 000006   200003 470500                    LDP0    @P_START$,,AUTO
         4 000007   000000 236100                    LDQ     0,,PR0
         4 000010   200017 756100                    STQ     P$,,AUTO

       56     1058    1           WTL = WPL;

   1058  4 000011   200011 235100                    LDA     WPL,,AUTO
         4 000012   200012 755100                    STA     WTL,,AUTO

       57     1059    1           RELADR = 0;

   1059  4 000013   200016 450100                    STZ     RELADR,,AUTO

       58     1060    1           LCNT = (P_SIZE + WPL - 1) / WPL;

   1060  4 000014   200004 471500                    LDP1    @P_SIZE,,AUTO
         4 000015   100000 236100                    LDQ     0,,PR1
         4 000016   200011 036100                    ADLQ    WPL,,AUTO
         4 000017   000001 136007                    SBLQ    1,DL
PL6.E3A0      #001=QQC$DUMP File=QQC$DUMP.:E05TSI                                WED 07/30/97 05:39 Page:16
         4 000020   200011 506100                    DIV     WPL,,AUTO
         4 000021   200014 756100                    STQ     LCNT,,AUTO

       59     1061    1           PRINTBUF.TITLE.VFC = '0';

   1061  4 000022   060000 236003                    LDQ     24576,DU
         4 000023   000000 552040 2                  STBQ    PRINTBUF,'40'O

       60     1062    1           PRINTBUF.TITLE.TEXT = P_TITLE.TEXT;

   1062  4 000024   200005 473500                    LDP3    @P_TITLE,,AUTO
         4 000025   000100 101500                    MRL     fill='000'O
         4 000026   300000 000001                    ADSC9   0,,PR3                   cn=0,n=1
         4 000027   200022 000002                    ADSC9   OCTVAL+2,,AUTO           cn=0,n=2
         4 000030   200022 220100                    LDX0    OCTVAL+2,,AUTO
         4 000031   040000 100540                    MLR     fill='040'O
         4 000032   300000 200010                    ADSC9   0,,PR3                   cn=1,n=*X0
         4 000033   000000 200203 2                  ADSC9   PRINTBUF                 cn=1,n=131

       61     1063    1           CALL M$WRITE(FPT_WRITE) ALTRET(ALT);

   1063  4 000034   000042 630400 2                  EPPR0   FPT_WRITE
         4 000035   440001 713400                    CLIMB   alt,write
         4 000036   401400 401760                    pmme    nvectors=4
         4 000037   000431 702000 4                  TSX2    ALT

       62     1064    1           PRINTBUF.BUFFER = 'B';

   1064  4 000040   040000 100400                    MLR     fill='040'O
         4 000041   000000 000001 5                  ADSC9   0                        cn=0,n=1
         4 000042   000000 000204 2                  ADSC9   PRINTBUF                 cn=0,n=132

       63     1065    1           CALL M$WRITE(FPT_WRITE) ALTRET(ALT);

   1065  4 000043   000042 630400 2                  EPPR0   FPT_WRITE
         4 000044   440001 713400                    CLIMB   alt,write
         4 000045   401400 401760                    pmme    nvectors=4
PL6.E3A0      #001=QQC$DUMP File=QQC$DUMP.:E05TSI                                WED 07/30/97 05:39 Page:17
         4 000046   000431 702000 4                  TSX2    ALT

       64     1066    1           PRINTBUF.BUFFER = 'A pointer address =';

   1066  4 000047   040000 100400                    MLR     fill='040'O
         4 000050   000000 000023 3                  ADSC9   0                        cn=0,n=19
         4 000051   000000 000204 2                  ADSC9   PRINTBUF                 cn=0,n=132

       65     1067    1           POS = 20;

   1067  4 000052   000024 235007                    LDA     20,DL
         4 000053   200015 755100                    STA     POS,,AUTO

       66     1068    2           DO I = 0 TO 11;

   1068  4 000054   200006 450100                    STZ     I,,AUTO

       67     1069    2             PRINTBUF.LINE(POS) = BINASC(P_START(I) + 48);

   1069  4 000055   200006 236100                    LDQ     I,,AUTO
         4 000056   000003 402007                    MPY     3,DL
         4 000057   000000 116003                    CMPQ    0,DU
         4 000060   000062 605000 4                  TPL     s:1069+5
         4 000061   000044 036003                    ADLQ    36,DU
         4 000062   200003 470500                    LDP0    @P_START$,,AUTO
         4 000063   003100 061506                    CSR     bolr='003'O
         4 000064   000000 000003                    BDSC    0,Q,PR0                  by=0,bit=0,n=3
         4 000065   200022 000044                    BDSC    OCTVAL+2,,AUTO           by=0,bit=0,n=36
         4 000066   200022 236100                    LDQ     OCTVAL+2,,AUTO
         4 000067   000060 036007                    ADLQ    48,DL
         4 000070   000033 736000                    QLS     27
         4 000071   000001 276000 5                  ORQ     1
         4 000072   200023 756100                    STQ     OCTVAL+3,,AUTO
         4 000073   200015 235100                    LDA     POS,,AUTO
         4 000074   040005 100500                    MLR     fill='040'O
         4 000075   200023 000004                    ADSC9   OCTVAL+3,,AUTO           cn=0,n=4
         4 000076   000000 000001 2                  ADSC9   PRINTBUF,A               cn=0,n=1
PL6.E3A0      #001=QQC$DUMP File=QQC$DUMP.:E05TSI                                WED 07/30/97 05:39 Page:18

       68     1070    2             POS = POS + 1;

   1070  4 000077   200015 054100                    AOS     POS,,AUTO

       69     1071    2           END;

   1071  4 000100   200006 054100                    AOS     I,,AUTO
         4 000101   200006 235100                    LDA     I,,AUTO
         4 000102   000013 115007                    CMPA    11,DL
         4 000103   000055 604400 4                  TMOZ    s:1069

       70     1072    1           CALL M$WRITE(FPT_WRITE) ALTRET(ALT);

   1072  4 000104   000042 630400 2                  EPPR0   FPT_WRITE
         4 000105   440001 713400                    CLIMB   alt,write
         4 000106   401400 401760                    pmme    nvectors=4
         4 000107   000431 702000 4                  TSX2    ALT

       71     1073    1           PRINTBUF.BUFFER = 'A';

   1073  4 000110   040000 100400                    MLR     fill='040'O
         4 000111   000002 000001 5                  ADSC9   2                        cn=0,n=1
         4 000112   000000 000204 2                  ADSC9   PRINTBUF                 cn=0,n=132

       72     1074    2           DO I = 1 TO LCNT;

   1074  4 000113   000001 235007                    LDA     1,DL
         4 000114   200006 755100                    STA     I,,AUTO
         4 000115   000425 710000 4                  TRA     s:1136+1

       73     1075    2             IF QQ_GLOBAL.BREAK THEN

   1075  4 000116   000007 234000 xsym               SZN     QQ_GLOBAL+7
         4 000117   000122 605000 4                  TPL     s:1081

       74     1076    3               DO;
PL6.E3A0      #001=QQC$DUMP File=QQC$DUMP.:E05TSI                                WED 07/30/97 05:39 Page:19

       75     1077    3                 QQ_GLOBAL.BREAK = '0'B;

   1077  4 000120   000007 450000 xsym               STZ     QQ_GLOBAL+7

       76     1078    3                 GOTO RET;

   1078  4 000121   000430 710000 4                  TRA     RET

       77     1079    3               END;
       78     1080
       79     1081    2             IF P_SIZE - (I - 1) * WPL <= WPL THEN

   1081  4 000122   200006 236100                    LDQ     I,,AUTO
         4 000123   000001 136007                    SBLQ    1,DL
         4 000124   200011 402100                    MPY     WPL,,AUTO
         4 000125   200022 756100                    STQ     OCTVAL+2,,AUTO
         4 000126   200004 470500                    LDP0    @P_SIZE,,AUTO
         4 000127   000000 236100                    LDQ     0,,PR0
         4 000130   200022 136100                    SBLQ    OCTVAL+2,,AUTO
         4 000131   200011 116100                    CMPQ    WPL,,AUTO
         4 000132   000146 605400 4                  TPNZ    s:1087

       80     1082    3               DO;                         /* Partial (or just) last line        */

       81     1083    3                 WTL = P_SIZE - (I - 1) * WPL;

   1083  4 000133   200006 236100                    LDQ     I,,AUTO
         4 000134   000001 136007                    SBLQ    1,DL
         4 000135   200011 402100                    MPY     WPL,,AUTO
         4 000136   200022 756100                    STQ     OCTVAL+2,,AUTO
         4 000137   000000 236100                    LDQ     0,,PR0
         4 000140   200022 136100                    SBLQ    OCTVAL+2,,AUTO
         4 000141   200012 756100                    STQ     WTL,,AUTO

       82     1084    3                 PRINTBUF.BUFFER = 'A';    /* Clear for partial                  */

PL6.E3A0      #001=QQC$DUMP File=QQC$DUMP.:E05TSI                                WED 07/30/97 05:39 Page:20
   1084  4 000142   040000 100400                    MLR     fill='040'O
         4 000143   000002 000001 5                  ADSC9   2                        cn=0,n=1
         4 000144   000000 000204 2                  ADSC9   PRINTBUF                 cn=0,n=132

       83     1085    3               END;

   1085  4 000145   000221 710000 4                  TRA     s:1105

       84     1086    2             ELSE
       85     1087    2               IF P_SIZE - (I - 1) * WPL >= 2 * WPL THEN /* Enough to compare    */

   1087  4 000146   200006 236100                    LDQ     I,,AUTO
         4 000147   000001 136007                    SBLQ    1,DL
         4 000150   200011 402100                    MPY     WPL,,AUTO
         4 000151   200022 756100                    STQ     OCTVAL+2,,AUTO
         4 000152   000000 236100                    LDQ     0,,PR0
         4 000153   200022 136100                    SBLQ    OCTVAL+2,,AUTO
         4 000154   200011 235100                    LDA     WPL,,AUTO
         4 000155   000001 735000                    ALS     1
         4 000156   200023 755100                    STA     OCTVAL+3,,AUTO
         4 000157   200023 116100                    CMPQ    OCTVAL+3,,AUTO
         4 000160   000221 604000 4                  TMI     s:1105

       86     1088    2                 IF PINCRW(P$, RELADR) -> LINE = PINCRW(P$, RELADR + WPL) -> LINE THEN

   1088  4 000161   200016 236100                    LDQ     RELADR,,AUTO
         4 000162   200011 036100                    ADLQ    WPL,,AUTO
         4 000163   200016 235100                    LDA     RELADR,,AUTO
         4 000164   000002 735000                    ALS     2
         4 000165   000002 736000                    QLS     2
         4 000166   200017 471500                    LDP1    P$,,AUTO
         4 000167   200013 720100                    LXL0    CPL,,AUTO
         4 000170   040146 106545                    CMPC    fill='040'O
         4 000171   100000 000010                    ADSC9   0,A,PR1                  cn=0,n=*X0
         4 000172   100000 000010                    ADSC9   0,Q,PR1                  cn=0,n=*X0
         4 000173   000203 601000 4                  TNZ     s:1094

PL6.E3A0      #001=QQC$DUMP File=QQC$DUMP.:E05TSI                                WED 07/30/97 05:39 Page:21
       87     1089    2                   IF PRINTBUF.LINE(8) = '*' THEN

   1089  4 000174   000002 236000 2                  LDQ     PRINTBUF+2
         4 000175   777000 376003                    ANQ     -512,DU
         4 000176   052000 116003                    CMPQ    21504,DU
         4 000177   000421 600000 4                  TZE     NEXTI

       88     1090    2                     GOTO NEXTI;           /* Keep old offset                    */
       89     1091    2                   ELSE
       90     1092    2                     PRINTBUF.LINE(8) = '*';

   1092  4 000200   052000 236003                    LDQ     21504,DU
         4 000201   000002 552040 2                  STBQ    PRINTBUF+2,'40'O
         4 000202   000221 710000 4                  TRA     s:1105

       91     1093    2                 ELSE
       92     1094    2                   IF PRINTBUF.LINE(8) = '*' THEN

   1094  4 000203   000002 236000 2                  LDQ     PRINTBUF+2
         4 000204   777000 376003                    ANQ     -512,DU
         4 000205   052000 116003                    CMPQ    21504,DU
         4 000206   000212 601000 4                  TNZ     s:1100

       93     1095    3                     DO;

       94     1096    3                       PRINTBUF.LINE(8) = ' ';

   1096  4 000207   040000 236003                    LDQ     16384,DU
         4 000210   000002 552040 2                  STBQ    PRINTBUF+2,'40'O

       95     1097    3                       GOTO NEXTI;         /* Dont print if still same           */

   1097  4 000211   000421 710000 4                  TRA     NEXTI

       96     1098    3                     END;
       97     1099    2                   ELSE
       98     1100    2                     IF PRINTBUF.LINE(8) = '*' THEN
PL6.E3A0      #001=QQC$DUMP File=QQC$DUMP.:E05TSI                                WED 07/30/97 05:39 Page:22

   1100  4 000212   000002 236000 2                  LDQ     PRINTBUF+2
         4 000213   777000 376003                    ANQ     -512,DU
         4 000214   052000 116003                    CMPQ    21504,DU
         4 000215   000221 601000 4                  TNZ     s:1105

       99     1101    3                       DO;

      100     1102    3                         PRINTBUF.LINE(8) = ' ';

   1102  4 000216   040000 236003                    LDQ     16384,DU
         4 000217   000002 552040 2                  STBQ    PRINTBUF+2,'40'O

      101     1103    3                         GOTO NEXTI;       /* Dont print if still same           */

   1103  4 000220   000421 710000 4                  TRA     NEXTI

      102     1104    3                       END;
      103     1105    2             OCTVAL = BINBIT(RELADR, 36);

   1105  4 000221   200016 236100                    LDQ     RELADR,,AUTO
         4 000222   200020 756100                    STQ     OCTVAL,,AUTO

      104     1106    2             POS = 2;

   1106  4 000223   000002 235007                    LDA     2,DL
         4 000224   200015 755100                    STA     POS,,AUTO

      105     1107    3             DO J = 6 TO 11;               /* Convert rel address                */

   1107  4 000225   000006 235007                    LDA     6,DL
         4 000226   200007 755100                    STA     J,,AUTO

      106     1108    3               PRINTBUF.LINE(POS) = BINASC(OCTVAL.DIGIT(J) + 48);

   1108  4 000227   200007 236100                    LDQ     J,,AUTO
         4 000230   000003 402007                    MPY     3,DL
PL6.E3A0      #001=QQC$DUMP File=QQC$DUMP.:E05TSI                                WED 07/30/97 05:39 Page:23
         4 000231   000000 116003                    CMPQ    0,DU
         4 000232   000234 605000 4                  TPL     s:1108+5
         4 000233   000044 036003                    ADLQ    36,DU
         4 000234   003100 061506                    CSR     bolr='003'O
         4 000235   200020 000003                    BDSC    OCTVAL,Q,AUTO            by=0,bit=0,n=3
         4 000236   200022 000044                    BDSC    OCTVAL+2,,AUTO           by=0,bit=0,n=36
         4 000237   200022 236100                    LDQ     OCTVAL+2,,AUTO
         4 000240   000060 036007                    ADLQ    48,DL
         4 000241   000033 736000                    QLS     27
         4 000242   000001 276000 5                  ORQ     1
         4 000243   200023 756100                    STQ     OCTVAL+3,,AUTO
         4 000244   200015 235100                    LDA     POS,,AUTO
         4 000245   040005 100500                    MLR     fill='040'O
         4 000246   200023 000004                    ADSC9   OCTVAL+3,,AUTO           cn=0,n=4
         4 000247   000000 000001 2                  ADSC9   PRINTBUF,A               cn=0,n=1

      107     1109    3               POS = POS + 1;

   1109  4 000250   200015 054100                    AOS     POS,,AUTO

      108     1110    3             END;

   1110  4 000251   200007 054100                    AOS     J,,AUTO
         4 000252   200007 235100                    LDA     J,,AUTO
         4 000253   000013 115007                    CMPA    11,DL
         4 000254   000227 604400 4                  TMOZ    s:1108

      109     1111    2             POS = POS + 2;

   1111  4 000255   000002 236007                    LDQ     2,DL
         4 000256   200015 056100                    ASQ     POS,,AUTO

      110     1112    3             DO J = 0 TO WTL - 1;          /* Convert actual words               */

   1112  4 000257   200007 450100                    STZ     J,,AUTO
         4 000260   000317 710000 4                  TRA     s:1119+1

PL6.E3A0      #001=QQC$DUMP File=QQC$DUMP.:E05TSI                                WED 07/30/97 05:39 Page:24
      111     1113    3               OCTVAL = PINCRW(P$, RELADR + J) -> ONEWORD;

   1113  4 000261   200016 236100                    LDQ     RELADR,,AUTO
         4 000262   200007 036100                    ADLQ    J,,AUTO
         4 000263   200017 470500                    LDP0    P$,,AUTO
         4 000264   000000 236106                    LDQ     0,QL,PR0
         4 000265   200020 756100                    STQ     OCTVAL,,AUTO

      112     1114    4               DO K = 0 TO 11;

   1114  4 000266   200010 450100                    STZ     K,,AUTO

      113     1115    4                 PRINTBUF.LINE(POS) = BINASC(OCTVAL.DIGIT(K) + 48);

   1115  4 000267   200010 236100                    LDQ     K,,AUTO
         4 000270   000003 402007                    MPY     3,DL
         4 000271   000000 116003                    CMPQ    0,DU
         4 000272   000274 605000 4                  TPL     s:1115+5
         4 000273   000044 036003                    ADLQ    36,DU
         4 000274   003100 061506                    CSR     bolr='003'O
         4 000275   200020 000003                    BDSC    OCTVAL,Q,AUTO            by=0,bit=0,n=3
         4 000276   200022 000044                    BDSC    OCTVAL+2,,AUTO           by=0,bit=0,n=36
         4 000277   200022 236100                    LDQ     OCTVAL+2,,AUTO
         4 000300   000060 036007                    ADLQ    48,DL
         4 000301   000033 736000                    QLS     27
         4 000302   000001 276000 5                  ORQ     1
         4 000303   200023 756100                    STQ     OCTVAL+3,,AUTO
         4 000304   200015 235100                    LDA     POS,,AUTO
         4 000305   040005 100500                    MLR     fill='040'O
         4 000306   200023 000004                    ADSC9   OCTVAL+3,,AUTO           cn=0,n=4
         4 000307   000000 000001 2                  ADSC9   PRINTBUF,A               cn=0,n=1

      114     1116    4                 POS = POS + 1;

   1116  4 000310   200015 054100                    AOS     POS,,AUTO

      115     1117    4               END;
PL6.E3A0      #001=QQC$DUMP File=QQC$DUMP.:E05TSI                                WED 07/30/97 05:39 Page:25

   1117  4 000311   200010 054100                    AOS     K,,AUTO
         4 000312   200010 235100                    LDA     K,,AUTO
         4 000313   000013 115007                    CMPA    11,DL
         4 000314   000267 604400 4                  TMOZ    s:1115

      116     1118    3               POS = POS + 1;

   1118  4 000315   200015 054100                    AOS     POS,,AUTO

      117     1119    3             END;

   1119  4 000316   200007 054100                    AOS     J,,AUTO
         4 000317   200007 236100                    LDQ     J,,AUTO
         4 000320   000261 604000 4                  TMI     s:1113
         4 000321   200012 116100                    CMPQ    WTL,,AUTO
         4 000322   000261 602000 4                  TNC     s:1113

      118     1120    2             POS = 10 + 13 * WPL + 2;

   1120  4 000323   200011 236100                    LDQ     WPL,,AUTO
         4 000324   000015 402007                    MPY     13,DL
         4 000325   000014 036007                    ADLQ    12,DL
         4 000326   200015 756100                    STQ     POS,,AUTO

      119     1121    2             PRINTBUF.LINE(POS - 1) = '*';

   1121  4 000327   040006 100400                    MLR     fill='040'O
         4 000330   000003 000001 5                  ADSC9   3                        cn=0,n=1
         4 000331   777777 600001 2                  ADSC9   FPT_WRITE-35,Q           cn=3,n=1

      120     1122    3             DO J = 0 TO WTL - 1;          /* Covert to ascii data               */

   1122  4 000332   200007 450100                    STZ     J,,AUTO
         4 000333   000405 710000 4                  TRA     s:1131+1

      121     1123    3               OCTVAL = PINCRW(P$, RELADR + J) -> ONEWORD;
PL6.E3A0      #001=QQC$DUMP File=QQC$DUMP.:E05TSI                                WED 07/30/97 05:39 Page:26

   1123  4 000334   200016 236100                    LDQ     RELADR,,AUTO
         4 000335   200007 036100                    ADLQ    J,,AUTO
         4 000336   200017 470500                    LDP0    P$,,AUTO
         4 000337   000000 236106                    LDQ     0,QL,PR0
         4 000340   200020 756100                    STQ     OCTVAL,,AUTO

      122     1124    4               DO K = 0 TO 3;

   1124  4 000341   200010 450100                    STZ     K,,AUTO

      123     1125    4                 IF OCTVAL.CHR(K) >= 32 AND OCTVAL.CHR(K) <= 126 THEN

   1125  4 000342   200010 235100                    LDA     K,,AUTO
         4 000343   000100 101505                    MRL     fill='000'O
         4 000344   200020 000001                    ADSC9   OCTVAL,A,AUTO            cn=0,n=1
         4 000345   200022 000004                    ADSC9   OCTVAL+2,,AUTO           cn=0,n=4
         4 000346   200022 236100                    LDQ     OCTVAL+2,,AUTO
         4 000347   000040 116007                    CMPQ    32,DL
         4 000350   000373 604000 4                  TMI     s:1128
         4 000351   000100 101505                    MRL     fill='000'O
         4 000352   200020 000001                    ADSC9   OCTVAL,A,AUTO            cn=0,n=1
         4 000353   200023 000004                    ADSC9   OCTVAL+3,,AUTO           cn=0,n=4
         4 000354   200023 236100                    LDQ     OCTVAL+3,,AUTO
         4 000355   000177 116007                    CMPQ    127,DL
         4 000356   000373 605000 4                  TPL     s:1128

      124     1126    4                   PRINTBUF.LINE(POS) = BINASC(OCTVAL.CHR(K));

   1126  4 000357   000100 101505                    MRL     fill='000'O
         4 000360   200020 000001                    ADSC9   OCTVAL,A,AUTO            cn=0,n=1
         4 000361   200022 000004                    ADSC9   OCTVAL+2,,AUTO           cn=0,n=4
         4 000362   200022 236100                    LDQ     OCTVAL+2,,AUTO
         4 000363   000033 736000                    QLS     27
         4 000364   000001 276000 5                  ORQ     1
         4 000365   200023 756100                    STQ     OCTVAL+3,,AUTO
         4 000366   200015 235100                    LDA     POS,,AUTO
PL6.E3A0      #001=QQC$DUMP File=QQC$DUMP.:E05TSI                                WED 07/30/97 05:39 Page:27
         4 000367   040005 100500                    MLR     fill='040'O
         4 000370   200023 000004                    ADSC9   OCTVAL+3,,AUTO           cn=0,n=4
         4 000371   000000 000001 2                  ADSC9   PRINTBUF,A               cn=0,n=1
         4 000372   000377 710000 4                  TRA     s:1129

      125     1127    4                 ELSE
      126     1128    4                   PRINTBUF.LINE(POS) = '.';

   1128  4 000373   200015 236100                    LDQ     POS,,AUTO
         4 000374   040006 100400                    MLR     fill='040'O
         4 000375   000004 000001 5                  ADSC9   4                        cn=0,n=1
         4 000376   000000 000001 2                  ADSC9   PRINTBUF,Q               cn=0,n=1

      127     1129    4                 POS = POS + 1;

   1129  4 000377   200015 054100                    AOS     POS,,AUTO

      128     1130    4               END;

   1130  4 000400   200010 054100                    AOS     K,,AUTO
         4 000401   200010 235100                    LDA     K,,AUTO
         4 000402   000003 115007                    CMPA    3,DL
         4 000403   000342 604400 4                  TMOZ    s:1125

      129     1131    3             END;

   1131  4 000404   200007 054100                    AOS     J,,AUTO
         4 000405   200007 236100                    LDQ     J,,AUTO
         4 000406   000334 604000 4                  TMI     s:1123
         4 000407   200012 116100                    CMPQ    WTL,,AUTO
         4 000410   000334 602000 4                  TNC     s:1123

      130     1132    2             PRINTBUF.LINE(POS) = '*';

   1132  4 000411   200015 235100                    LDA     POS,,AUTO
         4 000412   040005 100400                    MLR     fill='040'O
         4 000413   000003 000001 5                  ADSC9   3                        cn=0,n=1
PL6.E3A0      #001=QQC$DUMP File=QQC$DUMP.:E05TSI                                WED 07/30/97 05:39 Page:28
         4 000414   000000 000001 2                  ADSC9   PRINTBUF,A               cn=0,n=1

      131     1133    2             CALL M$WRITE(FPT_WRITE) ALTRET(ALT);

   1133  4 000415   000042 630400 2                  EPPR0   FPT_WRITE
         4 000416   440001 713400                    CLIMB   alt,write
         4 000417   401400 401760                    pmme    nvectors=4
         4 000420   000431 702000 4                  TSX2    ALT

      132     1134    2   NEXTI:
      133     1135    2             RELADR = RELADR + WPL;

   1135  4 000421   200016 236100       NEXTI        LDQ     RELADR,,AUTO
         4 000422   200011 036100                    ADLQ    WPL,,AUTO
         4 000423   200016 756100                    STQ     RELADR,,AUTO

      134     1136    2           END;

   1136  4 000424   200006 054100                    AOS     I,,AUTO
         4 000425   200006 236100                    LDQ     I,,AUTO
         4 000426   200014 116100                    CMPQ    LCNT,,AUTO
         4 000427   000116 604400 4                  TMOZ    s:1075

      135     1137    1   RET:
      136     1138    1           RETURN;

   1138  4 000430   000000 702200 xent  RET          TSX2  ! X66_ARET

      137     1139    1   ALT:
      138     1140    1           ALTRETURN;

   1140  4 000431   000000 702200 xent  ALT          TSX2  ! X66_AALT
      139     1141    1   END QQC$DUMP;

PL6.E3A0      #001=QQC$DUMP File=QQC$DUMP.:E05TSI                                WED 07/30/97 05:39 Page:29
--  Include file information  --

   QQ_DATA_R.:E05TOU  cannot be made into a system file and is referenced.
   QQ_MACROS_C.:E05TOU  is referenced.
   CP_6.:E05TOU  cannot be made into a system file and is referenced.
   Q_PAGE_C.:E05TOU  is referenced.
   B$JIT_C.:E05TOU  was found in the system file and is never referenced.
   CP_6_C.:E05TOU  was found in the system file and is referenced.
      No diagnostics issued in procedure QQC$DUMP.
PL6.E3A0      #001=QQC$DUMP File=QQC$DUMP.:E05TSI                                WED 07/30/97 05:39 Page:30

 **** Variables and constants ****

  ****  Section 002  Data  QQC$DUMP

  ****  Scalars and arrays  ****
OctLoc.c.b A Datatyp(siz) R M Lvl/name                 OctLoc.c.b A Datatyp(siz) R M Lvl/name

    42-0-0/d STRC(432)   r     1 FPT_WRITE                  0-0-0/c STRC(1188)  r     1 PRINTBUF

  ****  Auto variables  ****

  ****  Scalars and arrays  ****
OctLoc.c.b A Datatyp(siz) R M Lvl/name                 OctLoc.c.b A Datatyp(siz) R M Lvl/name

     4-0-0/w PTR         r     1 @P_SIZE                    3-0-0/w PTR         r     1 @P_START$
     5-0-0/w PTR         r     1 @P_TITLE                  13-0-0/w UBIN        r     1 CPL
     6-0-0/w SBIN        r     1 I                          7-0-0/w SBIN        r     1 J
    10-0-0/w SBIN        r     1 K                         14-0-0/w SBIN        r     1 LCNT
    20-0-0/b STRC        r     1 OCTVAL                    17-0-0/w PTR         r     1 P$
    15-0-0/w SBIN        r     1 POS                       *0-0-0/w SBIN        r     1 P_SIZE
    *0-0-0/w UBIN(3)     r     1 P_START(0:11)             *0-0-0/w PTR         r     1 P_START$
    *0-0-0/c ASTR(9)     r     1 P_TITLE                   16-0-0/w SBIN        r     1 RELADR
    11-0-0/w SBIN        r     1 WPL                       12-0-0/w UBIN        r     1 WTL

  ****  SYMREF variables  ****

  ****  Scalars and arrays  ****
OctLoc.c.b A Datatyp(siz) R M Lvl/name                 OctLoc.c.b A Datatyp(siz) R M Lvl/name

     0-0-0/d STRC(9090)  r     1 QQ_GLOBAL

  ****  BASED and DCB variables  ****

  ****  Scalars and arrays  ****
OctLoc.c.b A Datatyp(siz) R M Lvl/name                 OctLoc.c.b A Datatyp(siz) R M Lvl/name

     0-0-0/c ACHR        r     1 LINE                       0-0-0N  NULL        r     1 M$DO
PL6.E3A0      #001=QQC$DUMP File=QQC$DUMP.:E05TSI                                WED 07/30/97 05:39 Page:31
     0-0-0/w BIT         r     1 ONEWORD


   Procedure QQC$DUMP requires 282 words for executable code.
   Procedure QQC$DUMP requires 20 words of local(AUTO) storage.

    No errors detected in file QQC$DUMP.:E05TSI    .
PL6.E3A0      #001=QQC$DUMP File=QQC$DUMP.:E05TSI                                WED 07/30/97 05:39 Page:32
          *** CROSS REFERENCE LISTING ***
**     DENOTES     IDENTIFIER DEFINITION
<<                 IDENTIFIER'S VALUE SET
>>                 IDENTIFIER'S VALUE USED
<>                 IDENTIFIER SET AND/OR USED
--                 IDENTIFIER REFERENCED
PL6.E3A0      #001=QQC$DUMP File=QQC$DUMP.:E05TSI                                WED 07/30/97 05:39 Page:33
          MINI XREF LISTING

ALT
      1140**LABEL    1063--CALLALT  1065--CALLALT  1072--CALLALT  1133--CALLALT
CPL
       966**DCL       903--IMP-SIZ  1056<<ASSIGN   1088>>IF       1088>>IF
FPT_WRITE
      1016**DCL      1063<>CALL     1065<>CALL     1072<>CALL     1133<>CALL
FPT_WRITE.STATION_
      1018**DCL      1018--REDEF
FPT_WRITE.V
      1019**DCL      1016--DCLINIT
FPT_WRITE.V.DVBYTE.VFC#
      1025**DCL      1025--REDEF
I
       961**DCL      1068<<DOINDEX  1069>>ASSIGN   1074<<DOINDEX  1081>>IF       1083>>ASSIGN   1087>>IF
J
       962**DCL      1107<<DOINDEX  1108>>ASSIGN   1112<<DOINDEX  1113>>ASSIGN   1122<<DOINDEX  1123>>ASSIGN
K
       963**DCL      1114<<DOINDEX  1115>>ASSIGN   1124<<DOINDEX  1125>>IF       1125>>IF       1126>>ASSIGN
LCNT
       967**DCL      1060<<ASSIGN   1074>>DOINDEX
LINE
       903**DCL      1088>>IF       1088>>IF
M$WRITE
        79**DCL-ENT  1063--CALL     1065--CALL     1072--CALL     1133--CALL
NEXTI
      1135**LABEL    1090--GOTO     1097--GOTO     1103--GOTO
OCTVAL
       971**DCL      1105<<ASSIGN   1113<<ASSIGN   1123<<ASSIGN
OCTVAL.CHR
       973**DCL      1125>>IF       1125>>IF       1126>>ASSIGN
OCTVAL.DIGIT
       972**DCL       973--REDEF    1108>>ASSIGN   1115>>ASSIGN
PL6.E3A0      #001=QQC$DUMP File=QQC$DUMP.:E05TSI                                WED 07/30/97 05:39 Page:34
ONEWORD
       904**DCL      1113>>ASSIGN   1123>>ASSIGN
P$
       970**DCL      1057<<ASSIGN   1088>>IF       1088>>IF       1113>>ASSIGN   1123>>ASSIGN
POS
       968**DCL      1067<<ASSIGN   1069>>ASSIGN   1070<<ASSIGN   1070>>ASSIGN   1106<<ASSIGN   1108>>ASSIGN
      1109<<ASSIGN   1109>>ASSIGN   1111<<ASSIGN   1111>>ASSIGN   1115>>ASSIGN   1116<<ASSIGN   1116>>ASSIGN
      1118<<ASSIGN   1118>>ASSIGN   1120<<ASSIGN   1121>>ASSIGN   1126>>ASSIGN   1128>>ASSIGN   1129<<ASSIGN
      1129>>ASSIGN   1132>>ASSIGN
PRINTBUF
       930**DCL      1017--DCLINIT  1018--DCLINIT
PRINTBUF.BUFFER
       931**DCL       932--REDEF     933--REDEF    1064<<ASSIGN   1066<<ASSIGN   1073<<ASSIGN   1084<<ASSIGN
PRINTBUF.LINE
       932**DCL      1069<<ASSIGN   1089>>IF       1092<<ASSIGN   1094>>IF       1096<<ASSIGN   1100>>IF
      1102<<ASSIGN   1108<<ASSIGN   1115<<ASSIGN   1121<<ASSIGN   1126<<ASSIGN   1128<<ASSIGN   1132<<ASSIGN
PRINTBUF.TITLE.TEXT
       935**DCL      1062<<ASSIGN
PRINTBUF.TITLE.VFC
       934**DCL      1061<<ASSIGN
P_SIZE
       848**DCL         8--PROC     1060>>ASSIGN   1081>>IF       1083>>ASSIGN   1087>>IF
P_START
       847**DCL      1069>>ASSIGN
P_START$
       846**DCL         8--PROC      847--REDEF    1057>>ASSIGN
P_TITLE
       849**DCL         8--PROC
P_TITLE.COUNT
       850**DCL       851--IMP-SIZ  1062>>ASSIGN
P_TITLE.TEXT
       851**DCL      1062>>ASSIGN
QQ_GLOBAL.BREAK
       586**DCL      1075>>IF       1077<<ASSIGN
QQ_GLOBAL.DS1$_BITS
       595**DCL       595--REDEF
PL6.E3A0      #001=QQC$DUMP File=QQC$DUMP.:E05TSI                                WED 07/30/97 05:39 Page:35
QQ_GLOBAL.DS2$_BITS
       595**DCL       596--REDEF
QQ_GLOBAL.DS3$_BITS
       596**DCL       596--REDEF
QQ_GLOBAL.DS4$_BITS
       596**DCL       597--REDEF
RELADR
       969**DCL      1059<<ASSIGN   1088>>IF       1088>>IF       1105>>ASSIGN   1113>>ASSIGN   1123>>ASSIGN
      1135<<ASSIGN   1135>>ASSIGN
RET
      1138**LABEL    1078--GOTO
WPL
       964**DCL      1055<<ASSIGN   1056>>ASSIGN   1058>>ASSIGN   1060>>ASSIGN   1060>>ASSIGN   1081>>IF
      1081>>IF       1083>>ASSIGN   1087>>IF       1087>>IF       1088>>IF       1120>>ASSIGN   1135>>ASSIGN
WTL
       965**DCL      1058<<ASSIGN   1083<<ASSIGN   1112>>DOINDEX  1122>>DOINDEX
