VERSION E05

PL6.E3A0      #001=QQC$FINDSTA File=QQC$FINDSTA.:E05TSI                          WED 07/30/97 05:40 Page:1
        1        1        /*M* QQC$FINDSTA - Locate a TP STATION's context area */
        2        2        /*T***********************************************************/
        3        3        /*T*                                                         */
        4        4        /*T* Copyright (c) Bull HN Information Systems Inc., 1997    */
        5        5        /*T*                                                         */
        6        6        /*T***********************************************************/
        7        7        /*X* IND=2,DCI=4,CSU=2,ECU=4,DTI=2,CTI=4,AND */
        8        8        /*P* NAME:        QQC$FINDSTA
        9        9
       10       10             PURPOSE:     To locate a STATION's context area in the
       11       11                          the data segment devoted to context areas.
       12       12        */
       13       13        /*D* NAME:        QQC$FINDSTA
       14       14
       15       15             CALL:        CALL QQC$FINDSTA(STATION_ID, PTR, FLAG)
       16       16
       17       17             INPUT:       STATION_ID - Text name of station to locate
       18       18
       19       19             OUTPUT:      PTR$ - Pointer to the context area
       20       20                          FLAG - '1'B if found else '0'B
       21       21
       22       22             DESCRIPTION: The data segment devoted to STATION contexts
       23       23                          is sorted in ascending order of STATION name.  A
       24       24                          binary search is made of the data segment to locate
       25       25                          the spot where the context should be.  Note that
       26       26                          a value for PTR$ is always returned regardless
       27       27                          of whether or not a context was found that had
       28       28                          a STATION name matching the one passed down.  If
       29       29                          FLAG is '0'B meaning we did not find the context
       30       30                          then PTR$ points to the spot where the context
       31       31                          area would have been had one existed.  Thus,
       32       32                          one should check the value of FLAG if what
       33       33                          they want to know is "is this STATION logged on?".
       34       34        */
       35       35        %EJECT;
PL6.E3A0      #001=QQC$FINDSTA File=QQC$FINDSTA.:E05TSI                          WED 07/30/97 05:40 Page:2
       36       36        QQC$FINDSTA:
       37       37                PROC(P_STATION_ID, P_PTR$, P_FOUND_FLAG);
       38       38
       39       39        %INCLUDE Q_PAGE_C;
       40       71        %SET LISTEXP = '1'B;
       41       72        %PAGE(ARG="Includes");

                89        /***************************************************************************
                90         *                                                                         *
                91         *                                  Includes                               *
                92         *                                                                         *
                93         ***************************************************************************/

       42       97        %INCLUDE CP_6;
       43      178        %INCLUDE QQ_MACROS_C;
       44      603        %INCLUDE QQ_DATA_R;
       45      849        %PAGE(ARG="Parameters");

               866    1   /***************************************************************************
               867    1    *                                                                         *
               868    1    *                                 Parameters                              *
               869    1    *                                                                         *
               870    1    ***************************************************************************/

       46      874    1   DCL P_STATION_ID CHAR(8);
       47      875
       48      876    1   DCL P_PTR$ PTR;
       49      877
       50      878    1   DCL P_FOUND_FLAG BIT(1) ALIGNED;
       51      879        %PAGE(ARG="Based");

               896    1   /***************************************************************************
               897    1    *                                                                         *
               898    1    *                                   Based                                 *
               899    1    *                                                                         *
               900    1    ***************************************************************************/

PL6.E3A0      #001=QQC$FINDSTA File=QQC$FINDSTA.:E05TSI                          WED 07/30/97 05:40 Page:3
       52      904        %TP$STATION;
       53      977        %PAGE(ARG="Auto");

               994    1   /***************************************************************************
               995    1    *                                                                         *
               996    1    *                                    Auto                                 *
               997    1    *                                                                         *
               998    1    ***************************************************************************/

       54     1002    1   DCL LOW SBIN WORD;                      /* low boundry for search             */
       55     1003    1   DCL HIGH SBIN WORD;                     /* high boundry for search            */
       56     1004    1   DCL I UBIN WORD;                        /* temp                               */
       57     1005    1   DCL NEW UBIN WORD;                      /* (low + high) / 2                   */
       58     1006        %PAGE(ARG="QQC$FINDSTA",PAGE=YES);

PL6.E3A0      #001=QQC$FINDSTA File=QQC$FINDSTA.:E05TSI                          WED 07/30/97 05:40 Page:4
              1023    1   /***************************************************************************
              1024    1    *                                                                         *
              1025    1    *                                QQC$FINDSTA                              *
              1026    1    *                                                                         *
              1027    1    ***************************************************************************/

       59     1031    1           P_FOUND_FLAG = '0'B;
       60     1032    1           P_PTR$ = QQ_GLOBAL.STATION$;
       61     1033    1           LOW = 0;
       62     1034    1           HIGH = QQ_GLOBAL.STATION_CNT - 1;
       63     1035
       64     1036    2           DO WHILE(HIGH - LOW > 2);
       65     1037    2             NEW = (LOW + HIGH) / 2;
       66     1038    2             S$ = PINCRW(QQ_GLOBAL.STATION$, NEW * SIZEW(TP$STATION));
       67     1039    2             IF P_STATION_ID < TP$STATION.ID THEN
       68     1040    3               DO;
       69     1041    3                 HIGH = NEW;
       70     1042    3               END;
       71     1043    2             ELSE
       72     1044    3               DO;
       73     1045    3                 LOW = NEW;
       74     1046    3               END;
       75     1047    2           END /* WHILE */;
       76     1048
       77     1049    2           DO I = LOW TO HIGH;
       78     1050    2             S$ = PINCRW(QQ_GLOBAL.STATION$, I * SIZEW(TP$STATION));
       79     1051    2             IF P_STATION_ID = TP$STATION.ID THEN
       80     1052    3               DO;
       81     1053    3                 P_FOUND_FLAG = '1'B;
       82     1054    3                 P_PTR$ = S$;
       83     1055    3                 GOTO RET;
       84     1056    3               END;
       85     1057    2             IF P_STATION_ID > TP$STATION.ID THEN
       86     1058    3               DO;
       87     1059    3                 P_PTR$ = PINCRW(S$, SIZEW(TP$STATION));
       88     1060    3               END;
       89     1061    2           END;
PL6.E3A0      #001=QQC$FINDSTA File=QQC$FINDSTA.:E05TSI                          WED 07/30/97 05:40 Page:5
       90     1062    1   RET:
       91     1063    1           RETURN;
       92     1064    1   END QQC$FINDSTA;

PL6.E3A0      #001=QQC$FINDSTA File=QQC$FINDSTA.:E05TSI                          WED 07/30/97 05:40 Page:6
--  Include file information  --

   QQ_DATA_R.:E05TOU  cannot be made into a system file and is referenced.
   QQ_MACROS_C.:E05TOU  is referenced.
   CP_6.:E05TOU  cannot be made into a system file and is referenced.
   Q_PAGE_C.:E05TOU  is referenced.
   B$JIT_C.:E05TOU  was found in the system file and is never referenced.
   CP_6_C.:E05TOU  was found in the system file and is referenced.
      No diagnostics issued in procedure QQC$FINDSTA.

   Procedure QQC$FINDSTA requires 67 words for executable code.
   Procedure QQC$FINDSTA requires 12 words of local(AUTO) storage.

    No errors detected in file QQC$FINDSTA.:E05TSI    .

PL6.E3A0      #001=QQC$FINDSTA File=QQC$FINDSTA.:E05TSI                          WED 07/30/97 05:40 Page:7

 Object Unit name= QQC$FINDSTA                                File name= QQC$FINDSTA.:E05TOU
 UTS= JUL 30 '97 05:40:36.68 WED                              Compiler= PL-6/E31         Sev=      00
 SharedLib= :SHARED_SYSTEM                                    Alt SharedLib=


    ****  Control sections  ****

 Sect   Type Bound  Init  Size OctSiz  Section name(segment info)
    0   DCB   even  none     0      0  M$UC
    1   Proc  even  none    67    103  QQC$FINDSTA

    ****  Entry defs  ****

                              Check   Calling
                             calling  sequence
  Sect OctLoc Primary Altret sequence   type   Parms  Name
     1      0   yes            yes      Std        3  QQC$FINDSTA

  ****  Entry refs  ****

         Check        Calling
        calling       sequence
Altret sequence SRef   type   Args  Name
                       nStd      0 X66_AUTO_3
                       Std       0 B_CONSPOOL_D
                       nStd      0 X66_ARET

  ****  Data refs  ****

  Flags:  r = read only, s = secondary
Flgs Name                             Flgs Name                             Flgs Name
     M$UC                                  QQ_GLOBAL                             B_VECTNIL
PL6.E3A0      #001=QQC$FINDSTA File=QQC$FINDSTA.:E05TSI                          WED 07/30/97 05:40 Page:8


        1        1        /*M* QQC$FINDSTA - Locate a TP STATION's context area */
        2        2        /*T***********************************************************/
        3        3        /*T*                                                         */
        4        4        /*T* Copyright (c) Bull HN Information Systems Inc., 1997    */
        5        5        /*T*                                                         */
        6        6        /*T***********************************************************/
        7        7        /*X* IND=2,DCI=4,CSU=2,ECU=4,DTI=2,CTI=4,AND */
        8        8        /*P* NAME:        QQC$FINDSTA
        9        9
       10       10             PURPOSE:     To locate a STATION's context area in the
       11       11                          the data segment devoted to context areas.
       12       12        */
       13       13        /*D* NAME:        QQC$FINDSTA
       14       14
       15       15             CALL:        CALL QQC$FINDSTA(STATION_ID, PTR, FLAG)
       16       16
       17       17             INPUT:       STATION_ID - Text name of station to locate
       18       18
       19       19             OUTPUT:      PTR$ - Pointer to the context area
       20       20                          FLAG - '1'B if found else '0'B
       21       21
       22       22             DESCRIPTION: The data segment devoted to STATION contexts
       23       23                          is sorted in ascending order of STATION name.  A
       24       24                          binary search is made of the data segment to locate
       25       25                          the spot where the context should be.  Note that
       26       26                          a value for PTR$ is always returned regardless
       27       27                          of whether or not a context was found that had
       28       28                          a STATION name matching the one passed down.  If
       29       29                          FLAG is '0'B meaning we did not find the context
       30       30                          then PTR$ points to the spot where the context
       31       31                          area would have been had one existed.  Thus,
       32       32                          one should check the value of FLAG if what
       33       33                          they want to know is "is this STATION logged on?".
       34       34        */
       35       35        %EJECT;
PL6.E3A0      #001=QQC$FINDSTA File=QQC$FINDSTA.:E05TSI                          WED 07/30/97 05:40 Page:9
       36       36        QQC$FINDSTA:
       37       37                PROC(P_STATION_ID, P_PTR$, P_FOUND_FLAG);

     37  1 000000   000000 700200 xent  QQC$FINDSTA  TSX0  ! X66_AUTO_3
         1 000001   000014 000003                    ZERO    12,3

       38       38
       39       39        %INCLUDE Q_PAGE_C;
       40       71        %SET LISTEXP = '1'B;
       41       72        %PAGE(ARG="Includes");

                89        /***************************************************************************
                90         *                                                                         *
                91         *                                  Includes                               *
                92         *                                                                         *
                93         ***************************************************************************/

       42       97        %INCLUDE CP_6;
       43      178        %INCLUDE QQ_MACROS_C;
       44      603        %INCLUDE QQ_DATA_R;
       45      849        %PAGE(ARG="Parameters");

               866    1   /***************************************************************************
               867    1    *                                                                         *
               868    1    *                                 Parameters                              *
               869    1    *                                                                         *
               870    1    ***************************************************************************/

       46      874    1   DCL P_STATION_ID CHAR(8);
       47      875
       48      876    1   DCL P_PTR$ PTR;
       49      877
       50      878    1   DCL P_FOUND_FLAG BIT(1) ALIGNED;
       51      879        %PAGE(ARG="Based");

               896    1   /***************************************************************************
               897    1    *                                                                         *
PL6.E3A0      #001=QQC$FINDSTA File=QQC$FINDSTA.:E05TSI                          WED 07/30/97 05:40 Page:10
               898    1    *                                   Based                                 *
               899    1    *                                                                         *
               900    1    ***************************************************************************/

       52      904        %TP$STATION;
       53      977        %PAGE(ARG="Auto");

               994    1   /***************************************************************************
               995    1    *                                                                         *
               996    1    *                                    Auto                                 *
               997    1    *                                                                         *
               998    1    ***************************************************************************/

       54     1002    1   DCL LOW SBIN WORD;                      /* low boundry for search             */
       55     1003    1   DCL HIGH SBIN WORD;                     /* high boundry for search            */
       56     1004    1   DCL I UBIN WORD;                        /* temp                               */
       57     1005    1   DCL NEW UBIN WORD;                      /* (low + high) / 2                   */
       58     1006        %PAGE(ARG="QQC$FINDSTA",PAGE=YES);

PL6.E3A0      #001=QQC$FINDSTA File=QQC$FINDSTA.:E05TSI                          WED 07/30/97 05:40 Page:11
              1023    1   /***************************************************************************
              1024    1    *                                                                         *
              1025    1    *                                QQC$FINDSTA                              *
              1026    1    *                                                                         *
              1027    1    ***************************************************************************/

       59     1031    1           P_FOUND_FLAG = '0'B;

   1031  1 000002   200005 470500                    LDP0    @P_FOUND_FLAG,,AUTO
         1 000003   000000 450100                    STZ     0,,PR0

       60     1032    1           P_PTR$ = QQ_GLOBAL.STATION$;

   1032  1 000004   000151 236000 xsym               LDQ     QQ_GLOBAL+105
         1 000005   200004 471500                    LDP1    @P_PTR$,,AUTO
         1 000006   100000 756100                    STQ     0,,PR1

       61     1033    1           LOW = 0;

   1033  1 000007   200007 450100                    STZ     LOW,,AUTO

       62     1034    1           HIGH = QQ_GLOBAL.STATION_CNT - 1;

   1034  1 000010   000032 235000 xsym               LDA     QQ_GLOBAL+26
         1 000011   000001 135007                    SBLA    1,DL
         1 000012   200010 755100                    STA     HIGH,,AUTO

       63     1035
       64     1036    2           DO WHILE(HIGH - LOW > 2);

   1036  1 000013   000036 710000 1                  TRA     s:1047

       65     1037    2             NEW = (LOW + HIGH) / 2;

   1037  1 000014   200007 236100                    LDQ     LOW,,AUTO
         1 000015   200010 036100                    ADLQ    HIGH,,AUTO
         1 000016   000002 506007                    DIV     2,DL
PL6.E3A0      #001=QQC$FINDSTA File=QQC$FINDSTA.:E05TSI                          WED 07/30/97 05:40 Page:12
         1 000017   200012 756100                    STQ     NEW,,AUTO

       66     1038    2             S$ = PINCRW(QQ_GLOBAL.STATION$, NEW * SIZEW(TP$STATION));

   1038  1 000020   000032 402003                    MPY     26,DU
         1 000021   000151 036000 xsym               ADLQ    QQ_GLOBAL+105
         1 000022   200006 756100                    STQ     S$,,AUTO

       67     1039    2             IF P_STATION_ID < TP$STATION.ID THEN

   1039  1 000023   200003 470500                    LDP0    @P_STATION_ID,,AUTO
         1 000024   200006 471500                    LDP1    S$,,AUTO
         1 000025   040100 106500                    CMPC    fill='040'O
         1 000026   000000 000010                    ADSC9   0,,PR0                   cn=0,n=8
         1 000027   100000 000010                    ADSC9   0,,PR1                   cn=0,n=8
         1 000030   000034 603000 1                  TRC     s:1045

       68     1040    3               DO;

       69     1041    3                 HIGH = NEW;

   1041  1 000031   200012 235100                    LDA     NEW,,AUTO
         1 000032   200010 755100                    STA     HIGH,,AUTO

       70     1042    3               END;

   1042  1 000033   000036 710000 1                  TRA     s:1047

       71     1043    2             ELSE
       72     1044    3               DO;

       73     1045    3                 LOW = NEW;

   1045  1 000034   200012 235100                    LDA     NEW,,AUTO
         1 000035   200007 755100                    STA     LOW,,AUTO

       74     1046    3               END;
PL6.E3A0      #001=QQC$FINDSTA File=QQC$FINDSTA.:E05TSI                          WED 07/30/97 05:40 Page:13

       75     1047    2           END /* WHILE */;

   1047  1 000036   200010 236100                    LDQ     HIGH,,AUTO
         1 000037   200007 136100                    SBLQ    LOW,,AUTO
         1 000040   000002 116007                    CMPQ    2,DL
         1 000041   000014 605400 1                  TPNZ    s:1037

       76     1048
       77     1049    2           DO I = LOW TO HIGH;

   1049  1 000042   200007 235100                    LDA     LOW,,AUTO
         1 000043   200011 755100                    STA     I,,AUTO
         1 000044   000076 710000 1                  TRA     s:1061+3

       78     1050    2             S$ = PINCRW(QQ_GLOBAL.STATION$, I * SIZEW(TP$STATION));

   1050  1 000045   200011 236100                    LDQ     I,,AUTO
         1 000046   000032 402003                    MPY     26,DU
         1 000047   000151 036000 xsym               ADLQ    QQ_GLOBAL+105
         1 000050   200006 756100                    STQ     S$,,AUTO

       79     1051    2             IF P_STATION_ID = TP$STATION.ID THEN

   1051  1 000051   200003 470500                    LDP0    @P_STATION_ID,,AUTO
         1 000052   200006 471500                    LDP1    S$,,AUTO
         1 000053   040100 106500                    CMPC    fill='040'O
         1 000054   000000 000010                    ADSC9   0,,PR0                   cn=0,n=8
         1 000055   100000 000010                    ADSC9   0,,PR1                   cn=0,n=8
         1 000056   000066 601000 1                  TNZ     s:1057

       80     1052    3               DO;

       81     1053    3                 P_FOUND_FLAG = '1'B;

   1053  1 000057   400000 236003                    LDQ     -131072,DU
         1 000060   200005 473500                    LDP3    @P_FOUND_FLAG,,AUTO
PL6.E3A0      #001=QQC$FINDSTA File=QQC$FINDSTA.:E05TSI                          WED 07/30/97 05:40 Page:14
         1 000061   300000 756100                    STQ     0,,PR3

       82     1054    3                 P_PTR$ = S$;

   1054  1 000062   200006 236100                    LDQ     S$,,AUTO
         1 000063   200004 474500                    LDP4    @P_PTR$,,AUTO
         1 000064   400000 756100                    STQ     0,,PR4

       83     1055    3                 GOTO RET;

   1055  1 000065   000102 710000 1                  TRA     RET

       84     1056    3               END;
       85     1057    2             IF P_STATION_ID > TP$STATION.ID THEN

   1057  1 000066   000073 602000 1                  TNC     s:1061
         1 000067   000073 600000 1                  TZE     s:1061

       86     1058    3               DO;

       87     1059    3                 P_PTR$ = PINCRW(S$, SIZEW(TP$STATION));

   1059  1 000070   000032 036003                    ADLQ    26,DU
         1 000071   200004 473500                    LDP3    @P_PTR$,,AUTO
         1 000072   300000 756100                    STQ     0,,PR3

       88     1060    3               END;

       89     1061    2           END;

   1061  1 000073   200011 235100                    LDA     I,,AUTO
         1 000074   000001 035007                    ADLA    1,DL
         1 000075   200011 755100                    STA     I,,AUTO
         1 000076   200011 236100                    LDQ     I,,AUTO
         1 000077   000102 604000 1                  TMI     RET
         1 000100   200010 116100                    CMPQ    HIGH,,AUTO
         1 000101   000045 604400 1                  TMOZ    s:1050
PL6.E3A0      #001=QQC$FINDSTA File=QQC$FINDSTA.:E05TSI                          WED 07/30/97 05:40 Page:15

       90     1062    1   RET:
       91     1063    1           RETURN;

   1063  1 000102   000000 702200 xent  RET          TSX2  ! X66_ARET
       92     1064    1   END QQC$FINDSTA;

PL6.E3A0      #001=QQC$FINDSTA File=QQC$FINDSTA.:E05TSI                          WED 07/30/97 05:40 Page:16
--  Include file information  --

   QQ_DATA_R.:E05TOU  cannot be made into a system file and is referenced.
   QQ_MACROS_C.:E05TOU  is referenced.
   CP_6.:E05TOU  cannot be made into a system file and is referenced.
   Q_PAGE_C.:E05TOU  is referenced.
   B$JIT_C.:E05TOU  was found in the system file and is never referenced.
   CP_6_C.:E05TOU  was found in the system file and is referenced.
      No diagnostics issued in procedure QQC$FINDSTA.
PL6.E3A0      #001=QQC$FINDSTA File=QQC$FINDSTA.:E05TSI                          WED 07/30/97 05:40 Page:17

 **** Variables and constants ****

  ****  Auto variables  ****

  ****  Scalars and arrays  ****
OctLoc.c.b A Datatyp(siz) R M Lvl/name                 OctLoc.c.b A Datatyp(siz) R M Lvl/name

     5-0-0/w PTR         r     1 @P_FOUND_FLAG              4-0-0/w PTR         r     1 @P_PTR$
     3-0-0/w PTR         r     1 @P_STATION_ID             10-0-0/w SBIN        r     1 HIGH
    11-0-0/w UBIN        r     1 I                          7-0-0/w SBIN        r     1 LOW
    12-0-0/w UBIN        r     1 NEW                       *0-0-0/w BIT         r     1 P_FOUND_FLAG
    *0-0-0/w PTR         r     1 P_PTR$                    *0-0-0/c CHAR(8)     r     1 P_STATION_ID
     6-0-0/w PTR         r     1 S$

  ****  SYMREF variables  ****

  ****  Scalars and arrays  ****
OctLoc.c.b A Datatyp(siz) R M Lvl/name                 OctLoc.c.b A Datatyp(siz) R M Lvl/name

     0-0-0/d STRC(9090)  r     1 QQ_GLOBAL

  ****  BASED and DCB variables  ****

  ****  Scalars and arrays  ****
OctLoc.c.b A Datatyp(siz) R M Lvl/name                 OctLoc.c.b A Datatyp(siz) R M Lvl/name

     0-0-0/w STRC(909)   r     1 TP$STATION


   Procedure QQC$FINDSTA requires 67 words for executable code.
   Procedure QQC$FINDSTA requires 12 words of local(AUTO) storage.

    No errors detected in file QQC$FINDSTA.:E05TSI    .
PL6.E3A0      #001=QQC$FINDSTA File=QQC$FINDSTA.:E05TSI                          WED 07/30/97 05:40 Page:18
          *** CROSS REFERENCE LISTING ***
**     DENOTES     IDENTIFIER DEFINITION
<<                 IDENTIFIER'S VALUE SET
>>                 IDENTIFIER'S VALUE USED
<>                 IDENTIFIER SET AND/OR USED
--                 IDENTIFIER REFERENCED
PL6.E3A0      #001=QQC$FINDSTA File=QQC$FINDSTA.:E05TSI                          WED 07/30/97 05:40 Page:19
          MINI XREF LISTING

HIGH
      1003**DCL      1034<<ASSIGN   1036>>DOWHILE  1037>>ASSIGN   1041<<ASSIGN   1049>>DOINDEX
I
      1004**DCL      1049<<DOINDEX  1050>>ASSIGN
LOW
      1002**DCL      1033<<ASSIGN   1036>>DOWHILE  1037>>ASSIGN   1045<<ASSIGN   1049>>DOINDEX
NEW
      1005**DCL      1037<<ASSIGN   1038>>ASSIGN   1041>>ASSIGN   1045>>ASSIGN
P_FOUND_FLAG
       878**DCL        36--PROC     1031<<ASSIGN   1053<<ASSIGN
P_PTR$
       876**DCL        36--PROC     1032<<ASSIGN   1054<<ASSIGN   1059<<ASSIGN
P_STATION_ID
       874**DCL        36--PROC     1039>>IF       1051>>IF       1057>>IF
QQ_GLOBAL.DS1$_BITS
       623**DCL       623--REDEF
QQ_GLOBAL.DS2$_BITS
       623**DCL       624--REDEF
QQ_GLOBAL.DS3$_BITS
       624**DCL       624--REDEF
QQ_GLOBAL.DS4$_BITS
       624**DCL       625--REDEF
QQ_GLOBAL.STATION$
       624**DCL      1032>>ASSIGN   1038>>ASSIGN   1050>>ASSIGN
QQ_GLOBAL.STATION_CNT
       618**DCL      1034>>ASSIGN
RET
      1063**LABEL    1055--GOTO
S$
       916**DCL       918--IMP-PTR  1038<<ASSIGN   1039>>IF       1050<<ASSIGN   1051>>IF       1054>>ASSIGN
      1057>>IF       1059>>ASSIGN
TP$STATION
PL6.E3A0      #001=QQC$FINDSTA File=QQC$FINDSTA.:E05TSI                          WED 07/30/97 05:40 Page:20
       918**DCL      1038--ASSIGN   1050--ASSIGN   1059--ASSIGN
TP$STATION.ID
       919**DCL      1039>>IF       1051>>IF       1057>>IF
