VERSION E05

PL6.E3A0      #001=QQC$PRINT_FMT File=QQC$PRINT_FMT.:E05TSI                      WED 07/30/97 05:40 Page:1
        1        1        /*M* QQC$PRINT_FMT - Print a line formatted by XUF$FORMAT */
        2        2        /*T***********************************************************/
        3        3        /*T*                                                         */
        4        4        /*T* Copyright (c) Bull HN Information Systems Inc., 1997    */
        5        5        /*T*                                                         */
        6        6        /*T***********************************************************/
        7        7        /*X* IND=2, DCI=4, CSU=2, ECU=4, DTI=2, CTI=4, AND */
        8        8        QQC$PRINT_FMT:
        9        9                PROC(P_BUF_, P_FDS) ALTRET;
       10       10
       11       11        %INCLUDE Q_PAGE_C;
       12       43        %SET LISTEXP = '1'B;
       13       44        %PAGE(ARG="Includes");

                61        /***************************************************************************
                62         *                                                                         *
                63         *                                  Includes                               *
                64         *                                                                         *
                65         ***************************************************************************/

       14       69        %INCLUDE CP_6;
       15      150        %INCLUDE XU_FORMAT_C;
       16      312        %INCLUDE QQ_MACROS_C;
       17      737        %INCLUDE QQ_DATA_R;
       18      983        %PAGE(ARG="Parameters");

              1000    1   /***************************************************************************
              1001    1    *                                                                         *
              1002    1    *                                 Parameters                              *
              1003    1    *                                                                         *
              1004    1    ***************************************************************************/

       19     1008        %VLP_VECTOR(FPTN="P_BUF_", STCLASS=);
       20     1023        %F_FDS(NAME="P_FDS", STCLASS=);
       21     1136        %PAGE(ARG="Externally defined routines");

              1153    1   /***************************************************************************
PL6.E3A0      #001=QQC$PRINT_FMT File=QQC$PRINT_FMT.:E05TSI                      WED 07/30/97 05:40 Page:2
              1154    1    *                                                                         *
              1155    1    *                        Externally defined routines                      *
              1156    1    *                                                                         *
              1157    1    ***************************************************************************/

       22     1161    1   DCL QQC$SNDMSG ENTRY(1);
       23     1162    1   DCL QQC$BLDMSG_BLK ENTRY(1);
       24     1163        %PAGE(ARG="Auto");

              1180    1   /***************************************************************************
              1181    1    *                                                                         *
              1182    1    *                                    Auto                                 *
              1183    1    *                                                                         *
              1184    1    ***************************************************************************/

       25     1188        %MSGBLK;
       26     1278        %PAGE(ARG="QQC$PRINT_FMT", PAGE=YES);

PL6.E3A0      #001=QQC$PRINT_FMT File=QQC$PRINT_FMT.:E05TSI                      WED 07/30/97 05:40 Page:3
              1295    1   /***************************************************************************
              1296    1    *                                                                         *
              1297    1    *                               QQC$PRINT_FMT                             *
              1298    1    *                                                                         *
              1299    1    ***************************************************************************/

       27     1303    1           CALL QQC$BLDMSG_BLK(MSGBLK);
       28     1304    1           MSGBLK.TEXT$ = P_BUF_.PTR$;
       29     1305    1           MSGBLK.ARS = P_BUF_.W1.VSIZE# + 1;
       30     1306    1           CALL QQC$SNDMSG(MSGBLK);
       31     1307
       32     1308    1           ALTRETURN;
       33     1309
       34     1310    1   END QQC$PRINT_FMT;
       35     1311        %EOD;

PL6.E3A0      #001=QQC$PRINT_FMT File=QQC$PRINT_FMT.:E05TSI                      WED 07/30/97 05:40 Page:4
--  Include file information  --

   QQ_DATA_R.:E05TOU  cannot be made into a system file and is referenced.
   QQ_MACROS_C.:E05TOU  is referenced.
   XU_FORMAT_C.:E05TOU  is referenced.
   CP_6.:E05TOU  cannot be made into a system file and is referenced.
   Q_PAGE_C.:E05TOU  is referenced.
   B$JIT_C.:E05TOU  was found in the system file and is never referenced.
   CP_6_C.:E05TOU  was found in the system file and is referenced.
      No diagnostics issued in procedure QQC$PRINT_FMT.

   Procedure QQC$PRINT_FMT requires 22 words for executable code.
   Procedure QQC$PRINT_FMT requires 28 words of local(AUTO) storage.

PL6.E3A0      #001=QQC$PRINT_FMT File=QQC$PRINT_FMT.:E05TSI                      WED 07/30/97 05:40 Page:5

 Object Unit name= QQC$PRINT_FMT                              File name= QQC$PRINT_FMT.:E05TOU
 UTS= JUL 30 '97 05:40:52.76 WED                              Compiler= PL-6/E31         Sev=      00
 SharedLib= :SHARED_SYSTEM                                    Alt SharedLib=


    ****  Control sections  ****

 Sect   Type Bound  Init  Size OctSiz  Section name(segment info)
    0   DCB   even  none     0      0  M$UC
    1   Proc  even  none    22     26  QQC$PRINT_FMT

    ****  Entry defs  ****

                              Check   Calling
                             calling  sequence
  Sect OctLoc Primary Altret sequence   type   Parms  Name
     1      0   yes    yes     yes      Std        2  QQC$PRINT_FMT

  ****  Entry refs  ****

         Check        Calling
        calling       sequence
Altret sequence SRef   type   Args  Name
         yes           Std       1 QQC$BLDMSG_BLK
         yes           Std       1 QQC$SNDMSG
                       nStd      0 X66_AUTO_2
                       Std       0 B_CONSPOOL_D
                       nStd      0 X66_AALT

  ****  Data refs  ****

  Flags:  r = read only, s = secondary
Flgs Name                             Flgs Name                             Flgs Name
     M$UC                                  B_VECTNIL
PL6.E3A0      #001=QQC$PRINT_FMT File=QQC$PRINT_FMT.:E05TSI                      WED 07/30/97 05:40 Page:6


        1        1        /*M* QQC$PRINT_FMT - Print a line formatted by XUF$FORMAT */
        2        2        /*T***********************************************************/
        3        3        /*T*                                                         */
        4        4        /*T* Copyright (c) Bull HN Information Systems Inc., 1997    */
        5        5        /*T*                                                         */
        6        6        /*T***********************************************************/
        7        7        /*X* IND=2, DCI=4, CSU=2, ECU=4, DTI=2, CTI=4, AND */
        8        8        QQC$PRINT_FMT:
        9        9                PROC(P_BUF_, P_FDS) ALTRET;

      9  1 000000   000000 700200 xent  QQC$PRINT_F* TSX0  ! X66_AUTO_2
         1 000001   000034 000002                    ZERO    28,2

       10       10
       11       11        %INCLUDE Q_PAGE_C;
       12       43        %SET LISTEXP = '1'B;
       13       44        %PAGE(ARG="Includes");

                61        /***************************************************************************
                62         *                                                                         *
                63         *                                  Includes                               *
                64         *                                                                         *
                65         ***************************************************************************/

       14       69        %INCLUDE CP_6;
       15      150        %INCLUDE XU_FORMAT_C;
       16      312        %INCLUDE QQ_MACROS_C;
       17      737        %INCLUDE QQ_DATA_R;
       18      983        %PAGE(ARG="Parameters");

              1000    1   /***************************************************************************
              1001    1    *                                                                         *
              1002    1    *                                 Parameters                              *
              1003    1    *                                                                         *
              1004    1    ***************************************************************************/

PL6.E3A0      #001=QQC$PRINT_FMT File=QQC$PRINT_FMT.:E05TSI                      WED 07/30/97 05:40 Page:7
       19     1008        %VLP_VECTOR(FPTN="P_BUF_", STCLASS=);
       20     1023        %F_FDS(NAME="P_FDS", STCLASS=);
       21     1136        %PAGE(ARG="Externally defined routines");

              1153    1   /***************************************************************************
              1154    1    *                                                                         *
              1155    1    *                        Externally defined routines                      *
              1156    1    *                                                                         *
              1157    1    ***************************************************************************/

       22     1161    1   DCL QQC$SNDMSG ENTRY(1);
       23     1162    1   DCL QQC$BLDMSG_BLK ENTRY(1);
       24     1163        %PAGE(ARG="Auto");

              1180    1   /***************************************************************************
              1181    1    *                                                                         *
              1182    1    *                                    Auto                                 *
              1183    1    *                                                                         *
              1184    1    ***************************************************************************/

       25     1188        %MSGBLK;
       26     1278        %PAGE(ARG="QQC$PRINT_FMT", PAGE=YES);

PL6.E3A0      #001=QQC$PRINT_FMT File=QQC$PRINT_FMT.:E05TSI                      WED 07/30/97 05:40 Page:8
              1295    1   /***************************************************************************
              1296    1    *                                                                         *
              1297    1    *                               QQC$PRINT_FMT                             *
              1298    1    *                                                                         *
              1299    1    ***************************************************************************/

       27     1303    1           CALL QQC$BLDMSG_BLK(MSGBLK);

   1303  1 000002   200005 630500                    EPPR0   MSGBLK,,AUTO
         1 000003   200032 450500                    STP0    MSGBLK+21,,AUTO
         1 000004   200032 630500                    EPPR0   MSGBLK+21,,AUTO
         1 000005   000017 631400 xsym               EPPR1   B_VECTNIL+15
         1 000006   000000 701000 xent               TSX1    QQC$BLDMSG_BLK
         1 000007   000000 011000                    NOP     0

       28     1304    1           MSGBLK.TEXT$ = P_BUF_.PTR$;

   1304  1 000010   200003 470500                    LDP0    @P_BUF_,,AUTO
         1 000011   000001 236100                    LDQ     1,,PR0
         1 000012   200012 756100                    STQ     MSGBLK+5,,AUTO

       29     1305    1           MSGBLK.ARS = P_BUF_.W1.VSIZE# + 1;

   1305  1 000013   000000 236100                    LDQ     0,,PR0
         1 000014   000020 772000                    QRL     16
         1 000015   000001 620006                    EAX0    1,QL
         1 000016   200010 740100                    STX0    MSGBLK+3,,AUTO

       30     1306    1           CALL QQC$SNDMSG(MSGBLK);

   1306  1 000017   200005 631500                    EPPR1   MSGBLK,,AUTO
         1 000020   200032 451500                    STP1    MSGBLK+21,,AUTO
         1 000021   200032 630500                    EPPR0   MSGBLK+21,,AUTO
         1 000022   000017 631400 xsym               EPPR1   B_VECTNIL+15
         1 000023   000000 701000 xent               TSX1    QQC$SNDMSG
         1 000024   000000 011000                    NOP     0

PL6.E3A0      #001=QQC$PRINT_FMT File=QQC$PRINT_FMT.:E05TSI                      WED 07/30/97 05:40 Page:9
       31     1307
       32     1308    1           ALTRETURN;

   1308  1 000025   000000 702200 xent               TSX2  ! X66_AALT
       33     1309
       34     1310    1   END QQC$PRINT_FMT;
       35     1311        %EOD;

PL6.E3A0      #001=QQC$PRINT_FMT File=QQC$PRINT_FMT.:E05TSI                      WED 07/30/97 05:40 Page:10
--  Include file information  --

   QQ_DATA_R.:E05TOU  cannot be made into a system file and is referenced.
   QQ_MACROS_C.:E05TOU  is referenced.
   XU_FORMAT_C.:E05TOU  is referenced.
   CP_6.:E05TOU  cannot be made into a system file and is referenced.
   Q_PAGE_C.:E05TOU  is referenced.
   B$JIT_C.:E05TOU  was found in the system file and is never referenced.
   CP_6_C.:E05TOU  was found in the system file and is referenced.
      No diagnostics issued in procedure QQC$PRINT_FMT.
PL6.E3A0      #001=QQC$PRINT_FMT File=QQC$PRINT_FMT.:E05TSI                      WED 07/30/97 05:40 Page:11

 **** Variables and constants ****

  ****  Auto variables  ****

  ****  Scalars and arrays  ****
OctLoc.c.b A Datatyp(siz) R M Lvl/name                 OctLoc.c.b A Datatyp(siz) R M Lvl/name

     3-0-0/w PTR         r     1 @P_BUF_                    4-0-0/w PTR         r     1 @P_FDS
     5-0-0/w STRC(738)   r     1 MSGBLK                    *0-0-0/d STRC(72)    r     1 P_BUF_
    *0-0-0/w STRC(1080)  r     1 P_FDS


   Procedure QQC$PRINT_FMT requires 22 words for executable code.
   Procedure QQC$PRINT_FMT requires 28 words of local(AUTO) storage.
PL6.E3A0      #001=QQC$PRINT_FMT File=QQC$PRINT_FMT.:E05TSI                      WED 07/30/97 05:40 Page:12
          *** CROSS REFERENCE LISTING ***
**     DENOTES     IDENTIFIER DEFINITION
<<                 IDENTIFIER'S VALUE SET
>>                 IDENTIFIER'S VALUE USED
<>                 IDENTIFIER SET AND/OR USED
--                 IDENTIFIER REFERENCED
PL6.E3A0      #001=QQC$PRINT_FMT File=QQC$PRINT_FMT.:E05TSI                      WED 07/30/97 05:40 Page:13
          MINI XREF LISTING

MSGBLK
      1189**DCL      1303<>CALL     1306<>CALL
MSGBLK.ARS
      1256**DCL      1305<<ASSIGN
MSGBLK.TEXT$
      1263**DCL      1304<<ASSIGN
P_BUF_
      1019**DCL         8--PROC
P_BUF_.PTR$
      1021**DCL      1304>>ASSIGN
P_BUF_.W1.VSIZE#
      1019**DCL      1305>>ASSIGN
P_BUF_.W2
      1020**DCL      1021--REDEF
P_FDS
      1037**DCL         8--PROC
QQC$BLDMSG_BLK
      1162**DCL-ENT  1303--CALL
QQC$SNDMSG
      1161**DCL-ENT  1306--CALL
QQ_GLOBAL.DS1$_BITS
       757**DCL       757--REDEF
QQ_GLOBAL.DS2$_BITS
       757**DCL       758--REDEF
QQ_GLOBAL.DS3$_BITS
       758**DCL       758--REDEF
QQ_GLOBAL.DS4$_BITS
       758**DCL       759--REDEF

PL6.E3A0      #002=QQC$PRINT_FMTMCT File=QQC$PRINT_FMT.:E05TSI                   WED 07/30/97 05:40 Page:14
       36        1        /*M* QQC$PRINT_FMTMCT - Print a line formatted by XUF$FORMAT to a MCT */
       37        2        /*T***********************************************************/
       38        3        /*T*                                                         */
       39        4        /*T* Copyright (c) Bull HN Information Systems Inc., 1997    */
       40        5        /*T*                                                         */
       41        6        /*T***********************************************************/
       42        7        /*X* IND=2, DCI=4, CSU=2, ECU=4, DTI=2, CTI=4, AND */
       43        8        QQC$PRINT_FMTMCT:
       44        9                PROC(P_BUF_, P_FDS) ALTRET;
       45       10
       46       11        %INCLUDE Q_PAGE_C;
       47       43        %SET LISTEXP = '1'B;
       48       44        %PAGE(ARG="Includes");

                61        /***************************************************************************
                62         *                                                                         *
                63         *                                  Includes                               *
                64         *                                                                         *
                65         ***************************************************************************/

       49       69        %INCLUDE CP_6;
       50      150        %INCLUDE XU_FORMAT_C;
       51      312        %INCLUDE QQ_MACROS_C;
       52      737        %INCLUDE QQ_DATA_R;
       53      983        %PAGE(ARG="Parameters");

              1000    1   /***************************************************************************
              1001    1    *                                                                         *
              1002    1    *                                 Parameters                              *
              1003    1    *                                                                         *
              1004    1    ***************************************************************************/

       54     1008        %VLP_VECTOR(FPTN="P_BUF_", STCLASS=);
       55     1023        %F_FDS(NAME="P_FDS", STCLASS=);
       56     1136        %PAGE(ARG="Externally defined routines");

              1153    1   /***************************************************************************
PL6.E3A0      #002=QQC$PRINT_FMTMCT File=QQC$PRINT_FMT.:E05TSI                   WED 07/30/97 05:40 Page:15
              1154    1    *                                                                         *
              1155    1    *                        Externally defined routines                      *
              1156    1    *                                                                         *
              1157    1    ***************************************************************************/

       57     1161    1   DCL QQC$SNDMSG ENTRY(1);
       58     1162    1   DCL QQC$BLDMSG_ERRBLK ENTRY(1);
       59     1163        %PAGE(ARG="Auto");

              1180    1   /***************************************************************************
              1181    1    *                                                                         *
              1182    1    *                                    Auto                                 *
              1183    1    *                                                                         *
              1184    1    ***************************************************************************/

       60     1188        %MSGBLK;
       61     1278        %PAGE(ARG="QQC$PRINT_FMTMCT", PAGE=YES);

PL6.E3A0      #002=QQC$PRINT_FMTMCT File=QQC$PRINT_FMT.:E05TSI                   WED 07/30/97 05:40 Page:16
              1295    1   /***************************************************************************
              1296    1    *                                                                         *
              1297    1    *                              QQC$PRINT_FMTMCT                           *
              1298    1    *                                                                         *
              1299    1    ***************************************************************************/

       62     1303    1           CALL QQC$BLDMSG_ERRBLK(MSGBLK);
       63     1304    1           MSGBLK.TEXT$ = P_BUF_.PTR$;
       64     1305    1           MSGBLK.ARS = P_BUF_.W1.VSIZE# + 1;
       65     1306    1           CALL QQC$SNDMSG(MSGBLK);
       66     1307
       67     1308    1           ALTRETURN;
       68     1309
       69     1310    1   END QQC$PRINT_FMTMCT;

PL6.E3A0      #002=QQC$PRINT_FMTMCT File=QQC$PRINT_FMT.:E05TSI                   WED 07/30/97 05:40 Page:17
--  Include file information  --

   QQ_DATA_R.:E05TOU  cannot be made into a system file and is referenced.
   QQ_MACROS_C.:E05TOU  is referenced.
   XU_FORMAT_C.:E05TOU  is referenced.
   CP_6.:E05TOU  cannot be made into a system file and is referenced.
   Q_PAGE_C.:E05TOU  is referenced.
   B$JIT_C.:E05TOU  was found in the system file and is never referenced.
   CP_6_C.:E05TOU  was found in the system file and is referenced.
      No diagnostics issued in procedure QQC$PRINT_FMTMCT.

   Procedure QQC$PRINT_FMTMCT requires 22 words for executable code.
   Procedure QQC$PRINT_FMTMCT requires 28 words of local(AUTO) storage.

    No errors detected in file QQC$PRINT_FMT.:E05TSI    .

PL6.E3A0      #002=QQC$PRINT_FMTMCT File=QQC$PRINT_FMT.:E05TSI                   WED 07/30/97 05:40 Page:18

 Object Unit name= QQC$PRINT_FMTMCT                           File name= QQC$PRINT_FMT.:E05TOU
 UTS= JUL 30 '97 05:40:58.04 WED                              Compiler= PL-6/E31         Sev=      00
 SharedLib= :SHARED_SYSTEM                                    Alt SharedLib=


    ****  Control sections  ****

 Sect   Type Bound  Init  Size OctSiz  Section name(segment info)
    0   DCB   even  none     0      0  M$UC
    1   Proc  even  none    22     26  QQC$PRINT_FMTMCT

    ****  Entry defs  ****

                              Check   Calling
                             calling  sequence
  Sect OctLoc Primary Altret sequence   type   Parms  Name
     1      0   yes    yes     yes      Std        2  QQC$PRINT_FMTMCT

  ****  Entry refs  ****

         Check        Calling
        calling       sequence
Altret sequence SRef   type   Args  Name
         yes           Std       1 QQC$BLDMSG_ERRBLK
         yes           Std       1 QQC$SNDMSG
                       nStd      0 X66_AUTO_2
                       Std       0 B_CONSPOOL_D
                       nStd      0 X66_AALT

  ****  Data refs  ****

  Flags:  r = read only, s = secondary
Flgs Name                             Flgs Name                             Flgs Name
     M$UC                                  B_VECTNIL
PL6.E3A0      #002=QQC$PRINT_FMTMCT File=QQC$PRINT_FMT.:E05TSI                   WED 07/30/97 05:40 Page:19


       36        1        /*M* QQC$PRINT_FMTMCT - Print a line formatted by XUF$FORMAT to a MCT */
       37        2        /*T***********************************************************/
       38        3        /*T*                                                         */
       39        4        /*T* Copyright (c) Bull HN Information Systems Inc., 1997    */
       40        5        /*T*                                                         */
       41        6        /*T***********************************************************/
       42        7        /*X* IND=2, DCI=4, CSU=2, ECU=4, DTI=2, CTI=4, AND */
       43        8        QQC$PRINT_FMTMCT:
       44        9                PROC(P_BUF_, P_FDS) ALTRET;

      9  1 000000   000000 700200 xent  QQC$PRINT_F* TSX0  ! X66_AUTO_2
         1 000001   000034 000002                    ZERO    28,2

       45       10
       46       11        %INCLUDE Q_PAGE_C;
       47       43        %SET LISTEXP = '1'B;
       48       44        %PAGE(ARG="Includes");

                61        /***************************************************************************
                62         *                                                                         *
                63         *                                  Includes                               *
                64         *                                                                         *
                65         ***************************************************************************/

       49       69        %INCLUDE CP_6;
       50      150        %INCLUDE XU_FORMAT_C;
       51      312        %INCLUDE QQ_MACROS_C;
       52      737        %INCLUDE QQ_DATA_R;
       53      983        %PAGE(ARG="Parameters");

              1000    1   /***************************************************************************
              1001    1    *                                                                         *
              1002    1    *                                 Parameters                              *
              1003    1    *                                                                         *
              1004    1    ***************************************************************************/

PL6.E3A0      #002=QQC$PRINT_FMTMCT File=QQC$PRINT_FMT.:E05TSI                   WED 07/30/97 05:40 Page:20
       54     1008        %VLP_VECTOR(FPTN="P_BUF_", STCLASS=);
       55     1023        %F_FDS(NAME="P_FDS", STCLASS=);
       56     1136        %PAGE(ARG="Externally defined routines");

              1153    1   /***************************************************************************
              1154    1    *                                                                         *
              1155    1    *                        Externally defined routines                      *
              1156    1    *                                                                         *
              1157    1    ***************************************************************************/

       57     1161    1   DCL QQC$SNDMSG ENTRY(1);
       58     1162    1   DCL QQC$BLDMSG_ERRBLK ENTRY(1);
       59     1163        %PAGE(ARG="Auto");

              1180    1   /***************************************************************************
              1181    1    *                                                                         *
              1182    1    *                                    Auto                                 *
              1183    1    *                                                                         *
              1184    1    ***************************************************************************/

       60     1188        %MSGBLK;
       61     1278        %PAGE(ARG="QQC$PRINT_FMTMCT", PAGE=YES);

PL6.E3A0      #002=QQC$PRINT_FMTMCT File=QQC$PRINT_FMT.:E05TSI                   WED 07/30/97 05:40 Page:21
              1295    1   /***************************************************************************
              1296    1    *                                                                         *
              1297    1    *                              QQC$PRINT_FMTMCT                           *
              1298    1    *                                                                         *
              1299    1    ***************************************************************************/

       62     1303    1           CALL QQC$BLDMSG_ERRBLK(MSGBLK);

   1303  1 000002   200005 630500                    EPPR0   MSGBLK,,AUTO
         1 000003   200032 450500                    STP0    MSGBLK+21,,AUTO
         1 000004   200032 630500                    EPPR0   MSGBLK+21,,AUTO
         1 000005   000017 631400 xsym               EPPR1   B_VECTNIL+15
         1 000006   000000 701000 xent               TSX1    QQC$BLDMSG_ERRBLK
         1 000007   000000 011000                    NOP     0

       63     1304    1           MSGBLK.TEXT$ = P_BUF_.PTR$;

   1304  1 000010   200003 470500                    LDP0    @P_BUF_,,AUTO
         1 000011   000001 236100                    LDQ     1,,PR0
         1 000012   200012 756100                    STQ     MSGBLK+5,,AUTO

       64     1305    1           MSGBLK.ARS = P_BUF_.W1.VSIZE# + 1;

   1305  1 000013   000000 236100                    LDQ     0,,PR0
         1 000014   000020 772000                    QRL     16
         1 000015   000001 620006                    EAX0    1,QL
         1 000016   200010 740100                    STX0    MSGBLK+3,,AUTO

       65     1306    1           CALL QQC$SNDMSG(MSGBLK);

   1306  1 000017   200005 631500                    EPPR1   MSGBLK,,AUTO
         1 000020   200032 451500                    STP1    MSGBLK+21,,AUTO
         1 000021   200032 630500                    EPPR0   MSGBLK+21,,AUTO
         1 000022   000017 631400 xsym               EPPR1   B_VECTNIL+15
         1 000023   000000 701000 xent               TSX1    QQC$SNDMSG
         1 000024   000000 011000                    NOP     0

PL6.E3A0      #002=QQC$PRINT_FMTMCT File=QQC$PRINT_FMT.:E05TSI                   WED 07/30/97 05:40 Page:22
       66     1307
       67     1308    1           ALTRETURN;

   1308  1 000025   000000 702200 xent               TSX2  ! X66_AALT
       68     1309
       69     1310    1   END QQC$PRINT_FMTMCT;

PL6.E3A0      #002=QQC$PRINT_FMTMCT File=QQC$PRINT_FMT.:E05TSI                   WED 07/30/97 05:40 Page:23
--  Include file information  --

   QQ_DATA_R.:E05TOU  cannot be made into a system file and is referenced.
   QQ_MACROS_C.:E05TOU  is referenced.
   XU_FORMAT_C.:E05TOU  is referenced.
   CP_6.:E05TOU  cannot be made into a system file and is referenced.
   Q_PAGE_C.:E05TOU  is referenced.
   B$JIT_C.:E05TOU  was found in the system file and is never referenced.
   CP_6_C.:E05TOU  was found in the system file and is referenced.
      No diagnostics issued in procedure QQC$PRINT_FMTMCT.
PL6.E3A0      #002=QQC$PRINT_FMTMCT File=QQC$PRINT_FMT.:E05TSI                   WED 07/30/97 05:40 Page:24

 **** Variables and constants ****

  ****  Auto variables  ****

  ****  Scalars and arrays  ****
OctLoc.c.b A Datatyp(siz) R M Lvl/name                 OctLoc.c.b A Datatyp(siz) R M Lvl/name

     3-0-0/w PTR         r     1 @P_BUF_                    4-0-0/w PTR         r     1 @P_FDS
     5-0-0/w STRC(738)   r     1 MSGBLK                    *0-0-0/d STRC(72)    r     1 P_BUF_
    *0-0-0/w STRC(1080)  r     1 P_FDS


   Procedure QQC$PRINT_FMTMCT requires 22 words for executable code.
   Procedure QQC$PRINT_FMTMCT requires 28 words of local(AUTO) storage.

    No errors detected in file QQC$PRINT_FMT.:E05TSI    .
PL6.E3A0      #002=QQC$PRINT_FMTMCT File=QQC$PRINT_FMT.:E05TSI                   WED 07/30/97 05:40 Page:25
          *** CROSS REFERENCE LISTING ***
**     DENOTES     IDENTIFIER DEFINITION
<<                 IDENTIFIER'S VALUE SET
>>                 IDENTIFIER'S VALUE USED
<>                 IDENTIFIER SET AND/OR USED
--                 IDENTIFIER REFERENCED
PL6.E3A0      #002=QQC$PRINT_FMTMCT File=QQC$PRINT_FMT.:E05TSI                   WED 07/30/97 05:40 Page:26
          MINI XREF LISTING

MSGBLK
      1189**DCL      1303<>CALL     1306<>CALL
MSGBLK.ARS
      1256**DCL      1305<<ASSIGN
MSGBLK.TEXT$
      1263**DCL      1304<<ASSIGN
P_BUF_
      1019**DCL         8--PROC
P_BUF_.PTR$
      1021**DCL      1304>>ASSIGN
P_BUF_.W1.VSIZE#
      1019**DCL      1305>>ASSIGN
P_BUF_.W2
      1020**DCL      1021--REDEF
P_FDS
      1037**DCL         8--PROC
QQC$BLDMSG_ERRBLK
      1162**DCL-ENT  1303--CALL
QQC$SNDMSG
      1161**DCL-ENT  1306--CALL
QQ_GLOBAL.DS1$_BITS
       757**DCL       757--REDEF
QQ_GLOBAL.DS2$_BITS
       757**DCL       758--REDEF
QQ_GLOBAL.DS3$_BITS
       758**DCL       758--REDEF
QQ_GLOBAL.DS4$_BITS
       758**DCL       759--REDEF
