VERSION E05

PL6.E3A0      #001=QQC$SCREECH File=QQC$SCREECH.:E05TSI                          WED 07/30/97 05:41 Page:1
        1        1        /*M* QQC$SCREECH - Give info (a dump) after a detected problem */
        2        2        /*T***********************************************************/
        3        3        /*T*                                                         */
        4        4        /*T* Copyright (c) Bull HN Information Systems Inc., 1997    */
        5        5        /*T*                                                         */
        6        6        /*T***********************************************************/
        7        7        /*X* IND=2, DCI=4, CSU=2, ECU=4, DTI=2, CTI=4, AND */
        8        8        QQC$SCREECH:
        9        9                PROC;
       10       10
       11       11        %INCLUDE Q_PAGE_C;
       12       43        %SET LISTEXP = '1'B;
       13       44        %PAGE(ARG="Includes");

                61        /***************************************************************************
                62         *                                                                         *
                63         *                                  Includes                               *
                64         *                                                                         *
                65         ***************************************************************************/

       14       69        %INCLUDE CP_6;
       15      150        %INCLUDE B$ROSEG;
       16      213        %INCLUDE B$JIT;
       17      503        %INCLUDE QQ_MACROS_C;
       18      928        %INCLUDE QQ_DATA_R;
       19     1174        %INCLUDE OC_SUBS_C;
       20     1905        %INCLUDE QQ_SUBS_C;
       21     2097        %INCLUDE Q_SCODE_C;
       22     2108        %PAGE(ARG="Externally defined routines");

              2125    1   /***************************************************************************
              2126    1    *                                                                         *
              2127    1    *                        Externally defined routines                      *
              2128    1    *                                                                         *
              2129    1    ***************************************************************************/

       23     2133    1   DCL QQC$STOPTP ENTRY(1);
PL6.E3A0      #001=QQC$SCREECH File=QQC$SCREECH.:E05TSI                          WED 07/30/97 05:41 Page:2
       24     2134    1   DCL QQC$DUMP ENTRY(3) ALTRET;
       25     2135    1   DCL QQD$SEGSIZE ENTRY(2);
       26     2136        %PAGE(ARG="Symrefs");

              2153    1   /***************************************************************************
              2154    1    *                                                                         *
              2155    1    *                                  Symrefs                                *
              2156    1    *                                                                         *
              2157    1    ***************************************************************************/

       27     2161    1   DCL B$TCB$ PTR SYMREF;
       28     2162    1   DCL B$JIT$ PTR SYMREF;
       29     2163    1   DCL B$ROS$ PTR SYMREF;
       30     2164        %PAGE(ARG="Constants");

              2181    1   /***************************************************************************
              2182    1    *                                                                         *
              2183    1    *                                 Constants                               *
              2184    1    *                                                                         *
              2185    1    ***************************************************************************/

       31     2189        %VLP_NAME(FPTN=QQ_GLOBAL_TITLE, STCLASS=CONSTANT, NAME='QQ_GLOBAL');
       32     2216        %VLP_NAME(FPTN=QQ_CMDBLK_TITLE, STCLASS=CONSTANT, NAME='QQ_CMDBLK');
       33     2243        %VLP_NAME(FPTN=CMDBUF_TITLE, STCLASS=CONSTANT, NAME='CMDBUF');
       34     2270        %VLP_NAME(FPTN=KEYINBUF_TITLE, STCLASS=CONSTANT, NAME='KEYINBUF');
       35     2297        %VLP_NAME(FPTN=MEMORY_POOL_TITLE, STCLASS=CONSTANT, NAME='Memory pool');
       36     2324        %VLP_NAME(FPTN=STATION_CNTXT_TITLE, STCLASS=CONSTANT, NAME='Station context');
       37     2351        %VLP_NAME(FPTN=TRASH_TITLE, STCLASS=CONSTANT, NAME='Trash buffer');
       38     2378        %VLP_NAME(FPTN=CONTROL_TITLE, STCLASS=CONSTANT, NAME='CONTROL buffer');
       39     2405        %VLP_NAME(FPTN=TCB_TITLE, STCLASS=CONSTANT, NAME='TCB');
       40     2432        %VLP_NAME(FPTN=ROS_TITLE, STCLASS=CONSTANT, NAME='Read only segment');
       41     2459        %VLP_NAME(FPTN=JIT_TITLE, STCLASS=CONSTANT, NAME='JIT');
       42     2486        %VLP_NAME(FPTN=AUTO_TITLE, STCLASS=CONSTANT, NAME='Auto');
       43     2513        %VLP_NAME(FPTN=LIBNAME, STCLASS=CONSTANT, NAME='DELTA');
       44     2540        %PAGE(ARG="Static");

              2557    1   /***************************************************************************
PL6.E3A0      #001=QQC$SCREECH File=QQC$SCREECH.:E05TSI                          WED 07/30/97 05:41 Page:3
              2558    1    *                                                                         *
              2559    1    *                                   Static                                *
              2560    1    *                                                                         *
              2561    1    ***************************************************************************/

       45     2565    1   DCL CMD CHAR(40) STATIC /* Delta command */;
       46     2566        %PAGE(ARG="Auto");

              2583    1   /***************************************************************************
              2584    1    *                                                                         *
              2585    1    *                                    Auto                                 *
              2586    1    *                                                                         *
              2587    1    ***************************************************************************/

       47     2591    1   DCL WORDS UBIN WORD;
       48     2592        %PAGE(ARG="Screech codes",PAGE=YES);

PL6.E3A0      #001=QQC$SCREECH File=QQC$SCREECH.:E05TSI                          WED 07/30/97 05:41 Page:4
              2609    1   /***************************************************************************
              2610    1    *                                                                         *
              2611    1    *                               Screech codes                             *
              2612    1    *                                                                         *
              2613    1    ***************************************************************************/

       49     2617        /*S* SCREECH_CODE: QQC-S$TPA_ERR
       50     2618
       51     2619             TYPE:        SNAP
       52     2620
       53     2621             MESSAGE:     An unexpected condition was encountered by TPA.
       54     2622             REMARKS:     For some reason TPA received control at its error
       55     2623                          processing routine.
       56     2624        */
       57     2625        /*S* SCREECH_CODE: QQC-S$CGFULL
       58     2626
       59     2627             TYPE:        SNAP
       60     2628
       61     2629             MESSAGE:     TPA aborted due to a full comgroup.
       62     2630             REMARKS:     Check TYPE in the CG display of this dump. It
       63     2631                          should be 4.
       64     2632        */
       65     2633        %PAGE(ARG="FPTs", PAGE=YES);

PL6.E3A0      #001=QQC$SCREECH File=QQC$SCREECH.:E05TSI                          WED 07/30/97 05:41 Page:5
              2650    1   /***************************************************************************
              2651    1    *                                                                         *
              2652    1    *                                    FPTs                                 *
              2653    1    *                                                                         *
              2654    1    ***************************************************************************/

       66     2658        %FPT_ALIB(CMD=CMD, LIBNAME=LIBNAME);
       67     2675
       68     2676        %FPT_SCREECH(STCLASS=STATIC);           /* SCODE filled in later              */
       69     2690
       70     2691        %VLP_SCODE(FPTN=SC_SNAP, STCLASS=CONSTANT, FCG=QQ, CUSR=YES,
       71     2692        MID=C, CODE=%S$TPA_ERR, MON=NO, ENQ=YES, LDCTS=YES, PPUT=YES, SHJIT=YES,
       72     2693        CGDATA=YES, CURCG=YES, ALLUSR=YES, FMBUF=YES, ROSEG=YES, ISEG=YES,
       73     2694        DDSEG=YES, CPSEG=YES);
       74     2755        %VLP_SCODE(FPTN=SC_CGFULL, STCLASS=CONSTANT, FCG=QQ, CUSR=YES,
       75     2756        MID=C, CODE=%S$CGFULL, MON=NO, ENQ=YES, LDCTS=YES, PPUT=YES, SHJIT=YES,
       76     2757        CGDATA=YES, CURCG=YES, ALLUSR=YES, FMBUF=YES, ROSEG=YES, ISEG=YES,
       77     2758        DDSEG=YES, CPSEG=YES);
       78     2819        %PAGE(ARG="QQC$SCREECH", PAGE=YES);

PL6.E3A0      #001=QQC$SCREECH File=QQC$SCREECH.:E05TSI                          WED 07/30/97 05:41 Page:6
              2836    1   /***************************************************************************
              2837    1    *                                                                         *
              2838    1    *                                QQC$SCREECH                              *
              2839    1    *                                                                         *
              2840    1    ***************************************************************************/

       79     2844    1           IF QQ_GLOBAL.SCREECH THEN
       80     2845    2             DO;
       81     2846    2               GOTO ALT1;
       82     2847    2             END;
       83     2848    1           ELSE
       84     2849    2             DO;
       85     2850    2               QQ_GLOBAL.SCREECH = '1'B;
       86     2851    2             END;
       87     2852
       88     2853    1           IF B$JIT.MODE = 3 /* M_INT# */ OR QQ_GLOBAL.DEBUG THEN
       89     2854    2             DO;
       90     2855    2               GOTO MY_DUMP;
       91     2856    2             END;
       92     2857    1           ELSE
       93     2858    2             DO;
       94     2859    2               B$JIT.USRERR = QQ_GLOBAL.ERR;
       95     2860    2               FPT_SCREECH.JERR_ = VECTOR(B$JIT.USRERR);
       96     2861    2               IF B$JIT.USRERR.CODE = 13   /* E$DACTR                            */
       97     2862    2               THEN FPT_SCREECH.SCODE_ = VECTOR(SC_CGFULL);
       98     2863    2               ELSE FPT_SCREECH.SCODE_ = VECTOR(SC_SNAP);
       99     2864    2               CALL M$SCREECH(FPT_SCREECH) ALTRET(MY_DUMP);
      100     2865    2               GOTO ALT;
      101     2866    2             END;
      102     2867
      103     2868    1   MY_DUMP:
      104     2869    1           CMD = 'M QQ_GLOBAL\J';
      105     2870    1           CALL M$ALIB(FPT_ALIB) ALTRET(ALT);
      106     2871    1           CMD = 'PLUGH';
      107     2872    1           CALL M$ALIB(FPT_ALIB) ALTRET(ALT);
      108     2873
      109     2874    1   ALT:
PL6.E3A0      #001=QQC$SCREECH File=QQC$SCREECH.:E05TSI                          WED 07/30/97 05:41 Page:7
      110     2875    1           QQ_GLOBAL.ERR = '0'B;
      111     2876    1           CALL QQC$STOPTP('1'B);
      112     2877
      113     2878    1   ALT1:
      114     2879    1           CALL M$ERR;
      115     2880
      116     2881    1   END QQC$SCREECH;

PL6.E3A0      #001=QQC$SCREECH File=QQC$SCREECH.:E05TSI                          WED 07/30/97 05:41 Page:8
--  Include file information  --

   Q_SCODE_C.:E05TOU  is referenced.
   QQ_SUBS_C.:E05TOU  is referenced.
   OC_SUBS_C.:E05TOU  is referenced.
   QQ_DATA_R.:E05TOU  cannot be made into a system file and is referenced.
   QQ_MACROS_C.:E05TOU  is referenced.
   B$JIT.:E05TOU  cannot be made into a system file and is referenced.
   B$ROSEG.:E05TOU  cannot be made into a system file and is referenced.
   CP_6.:E05TOU  cannot be made into a system file and is referenced.
   Q_PAGE_C.:E05TOU  is referenced.
   B$JIT_C.:E05TOU  was found in the system file and is referenced.
   CP_6_C.:E05TOU  was found in the system file and is referenced.
      No diagnostics issued in procedure QQC$SCREECH.

   Procedure QQC$SCREECH requires 57 words for executable code.
   Procedure QQC$SCREECH requires 4 words of local(AUTO) storage.

    No errors detected in file QQC$SCREECH.:E05TSI    .

PL6.E3A0      #001=QQC$SCREECH File=QQC$SCREECH.:E05TSI                          WED 07/30/97 05:41 Page:9

 Object Unit name= QQC$SCREECH                                File name= QQC$SCREECH.:E05TOU
 UTS= JUL 30 '97 05:41:16.44 WED                              Compiler= PL-6/E31         Sev=      00
 SharedLib= :SHARED_SYSTEM                                    Alt SharedLib=


    ****  Control sections  ****

 Sect   Type Bound  Init  Size OctSiz  Section name(segment info)
    0   DCB   even  none     0      0  M$UC
    1  RoData even  UTS     48     60  QQC$SCREECH
    2   Data  even  none    26     32  QQC$SCREECH
    3   Proc  even  none    57     71  QQC$SCREECH
    4  RoData even  none     5      5  QQC$SCREECH

    ****  Entry defs  ****

                              Check   Calling
                             calling  sequence
  Sect OctLoc Primary Altret sequence   type   Parms  Name
     3      0   yes            yes      Std        0  QQC$SCREECH

  ****  Entry refs  ****

         Check        Calling
        calling       sequence
Altret sequence SRef   type   Args  Name
         yes           Std       1 QQC$STOPTP
                       nStd      0 X66_AUTO_0
                       Std       0 B_CONSPOOL_D
                       nStd      0 X66_ARET
PL6.E3A0      #001=QQC$SCREECH File=QQC$SCREECH.:E05TSI                          WED 07/30/97 05:41 Page:10

  ****  Data refs  ****

  Flags:  r = read only, s = secondary
Flgs Name                             Flgs Name                             Flgs Name
     M$UC                                  QQ_GLOBAL                             B$JIT$
     B_VECTNIL

  ****  Segment refs  ****

  Flags:  r = read only, s = secondary
Flgs Name                             Flgs Name                             Flgs Name
     ISSID                                 NULLSID
PL6.E3A0      #001=QQC$SCREECH File=QQC$SCREECH.:E05TSI                          WED 07/30/97 05:41 Page:11


        1        1        /*M* QQC$SCREECH - Give info (a dump) after a detected problem */
        2        2        /*T***********************************************************/
        3        3        /*T*                                                         */
        4        4        /*T* Copyright (c) Bull HN Information Systems Inc., 1997    */
        5        5        /*T*                                                         */
        6        6        /*T***********************************************************/
        7        7        /*X* IND=2, DCI=4, CSU=2, ECU=4, DTI=2, CTI=4, AND */
        8        8        QQC$SCREECH:
        9        9                PROC;

      9  3 000000   000000 700200 xent  QQC$SCREECH  TSX0  ! X66_AUTO_0
         3 000001   000004 000000                    ZERO    4,0

       10       10
       11       11        %INCLUDE Q_PAGE_C;
       12       43        %SET LISTEXP = '1'B;
       13       44        %PAGE(ARG="Includes");

                61        /***************************************************************************
                62         *                                                                         *
                63         *                                  Includes                               *
                64         *                                                                         *
                65         ***************************************************************************/

       14       69        %INCLUDE CP_6;
       15      150        %INCLUDE B$ROSEG;
       16      213        %INCLUDE B$JIT;
       17      503        %INCLUDE QQ_MACROS_C;
       18      928        %INCLUDE QQ_DATA_R;
       19     1174        %INCLUDE OC_SUBS_C;
       20     1905        %INCLUDE QQ_SUBS_C;
       21     2097        %INCLUDE Q_SCODE_C;
       22     2108        %PAGE(ARG="Externally defined routines");

              2125    1   /***************************************************************************
              2126    1    *                                                                         *
PL6.E3A0      #001=QQC$SCREECH File=QQC$SCREECH.:E05TSI                          WED 07/30/97 05:41 Page:12
              2127    1    *                        Externally defined routines                      *
              2128    1    *                                                                         *
              2129    1    ***************************************************************************/

       23     2133    1   DCL QQC$STOPTP ENTRY(1);
       24     2134    1   DCL QQC$DUMP ENTRY(3) ALTRET;
       25     2135    1   DCL QQD$SEGSIZE ENTRY(2);
       26     2136        %PAGE(ARG="Symrefs");

              2153    1   /***************************************************************************
              2154    1    *                                                                         *
              2155    1    *                                  Symrefs                                *
              2156    1    *                                                                         *
              2157    1    ***************************************************************************/

       27     2161    1   DCL B$TCB$ PTR SYMREF;
       28     2162    1   DCL B$JIT$ PTR SYMREF;
       29     2163    1   DCL B$ROS$ PTR SYMREF;
       30     2164        %PAGE(ARG="Constants");

              2181    1   /***************************************************************************
              2182    1    *                                                                         *
              2183    1    *                                 Constants                               *
              2184    1    *                                                                         *
              2185    1    ***************************************************************************/

       31     2189        %VLP_NAME(FPTN=QQ_GLOBAL_TITLE, STCLASS=CONSTANT, NAME='QQ_GLOBAL');
       32     2216        %VLP_NAME(FPTN=QQ_CMDBLK_TITLE, STCLASS=CONSTANT, NAME='QQ_CMDBLK');
       33     2243        %VLP_NAME(FPTN=CMDBUF_TITLE, STCLASS=CONSTANT, NAME='CMDBUF');
       34     2270        %VLP_NAME(FPTN=KEYINBUF_TITLE, STCLASS=CONSTANT, NAME='KEYINBUF');
       35     2297        %VLP_NAME(FPTN=MEMORY_POOL_TITLE, STCLASS=CONSTANT, NAME='Memory pool');
       36     2324        %VLP_NAME(FPTN=STATION_CNTXT_TITLE, STCLASS=CONSTANT, NAME='Station context');
       37     2351        %VLP_NAME(FPTN=TRASH_TITLE, STCLASS=CONSTANT, NAME='Trash buffer');
       38     2378        %VLP_NAME(FPTN=CONTROL_TITLE, STCLASS=CONSTANT, NAME='CONTROL buffer');
       39     2405        %VLP_NAME(FPTN=TCB_TITLE, STCLASS=CONSTANT, NAME='TCB');
       40     2432        %VLP_NAME(FPTN=ROS_TITLE, STCLASS=CONSTANT, NAME='Read only segment');
       41     2459        %VLP_NAME(FPTN=JIT_TITLE, STCLASS=CONSTANT, NAME='JIT');
PL6.E3A0      #001=QQC$SCREECH File=QQC$SCREECH.:E05TSI                          WED 07/30/97 05:41 Page:13
       42     2486        %VLP_NAME(FPTN=AUTO_TITLE, STCLASS=CONSTANT, NAME='Auto');
       43     2513        %VLP_NAME(FPTN=LIBNAME, STCLASS=CONSTANT, NAME='DELTA');
       44     2540        %PAGE(ARG="Static");

              2557    1   /***************************************************************************
              2558    1    *                                                                         *
              2559    1    *                                   Static                                *
              2560    1    *                                                                         *
              2561    1    ***************************************************************************/

       45     2565    1   DCL CMD CHAR(40) STATIC /* Delta command */;
       46     2566        %PAGE(ARG="Auto");

              2583    1   /***************************************************************************
              2584    1    *                                                                         *
              2585    1    *                                    Auto                                 *
              2586    1    *                                                                         *
              2587    1    ***************************************************************************/

       47     2591    1   DCL WORDS UBIN WORD;
       48     2592        %PAGE(ARG="Screech codes",PAGE=YES);

PL6.E3A0      #001=QQC$SCREECH File=QQC$SCREECH.:E05TSI                          WED 07/30/97 05:41 Page:14
              2609    1   /***************************************************************************
              2610    1    *                                                                         *
              2611    1    *                               Screech codes                             *
              2612    1    *                                                                         *
              2613    1    ***************************************************************************/

       49     2617        /*S* SCREECH_CODE: QQC-S$TPA_ERR
       50     2618
       51     2619             TYPE:        SNAP
       52     2620
       53     2621             MESSAGE:     An unexpected condition was encountered by TPA.
       54     2622             REMARKS:     For some reason TPA received control at its error
       55     2623                          processing routine.
       56     2624        */
       57     2625        /*S* SCREECH_CODE: QQC-S$CGFULL
       58     2626
       59     2627             TYPE:        SNAP
       60     2628
       61     2629             MESSAGE:     TPA aborted due to a full comgroup.
       62     2630             REMARKS:     Check TYPE in the CG display of this dump. It
       63     2631                          should be 4.
       64     2632        */
       65     2633        %PAGE(ARG="FPTs", PAGE=YES);

PL6.E3A0      #001=QQC$SCREECH File=QQC$SCREECH.:E05TSI                          WED 07/30/97 05:41 Page:15
              2650    1   /***************************************************************************
              2651    1    *                                                                         *
              2652    1    *                                    FPTs                                 *
              2653    1    *                                                                         *
              2654    1    ***************************************************************************/

       66     2658        %FPT_ALIB(CMD=CMD, LIBNAME=LIBNAME);
       67     2675
       68     2676        %FPT_SCREECH(STCLASS=STATIC);           /* SCODE filled in later              */
       69     2690
       70     2691        %VLP_SCODE(FPTN=SC_SNAP, STCLASS=CONSTANT, FCG=QQ, CUSR=YES,
       71     2692        MID=C, CODE=%S$TPA_ERR, MON=NO, ENQ=YES, LDCTS=YES, PPUT=YES, SHJIT=YES,
       72     2693        CGDATA=YES, CURCG=YES, ALLUSR=YES, FMBUF=YES, ROSEG=YES, ISEG=YES,
       73     2694        DDSEG=YES, CPSEG=YES);
       74     2755        %VLP_SCODE(FPTN=SC_CGFULL, STCLASS=CONSTANT, FCG=QQ, CUSR=YES,
       75     2756        MID=C, CODE=%S$CGFULL, MON=NO, ENQ=YES, LDCTS=YES, PPUT=YES, SHJIT=YES,
       76     2757        CGDATA=YES, CURCG=YES, ALLUSR=YES, FMBUF=YES, ROSEG=YES, ISEG=YES,
       77     2758        DDSEG=YES, CPSEG=YES);
       78     2819        %PAGE(ARG="QQC$SCREECH", PAGE=YES);

PL6.E3A0      #001=QQC$SCREECH File=QQC$SCREECH.:E05TSI                          WED 07/30/97 05:41 Page:16
              2836    1   /***************************************************************************
              2837    1    *                                                                         *
              2838    1    *                                QQC$SCREECH                              *
              2839    1    *                                                                         *
              2840    1    ***************************************************************************/

       79     2844    1           IF QQ_GLOBAL.SCREECH THEN

   2844  3 000002   000001 234000 xsym               SZN     QQ_GLOBAL+1
         3 000003   000005 605000 3                  TPL     s:2850

       80     2845    2             DO;

       81     2846    2               GOTO ALT1;

   2846  3 000004   000066 710000 3                  TRA     ALT1

       82     2847    2             END;
       83     2848    1           ELSE
       84     2849    2             DO;

       85     2850    2               QQ_GLOBAL.SCREECH = '1'B;

   2850  3 000005   400000 236003                    LDQ     -131072,DU
         3 000006   000001 756000 xsym               STQ     QQ_GLOBAL+1

       86     2851    2             END;

       87     2852
       88     2853    1           IF B$JIT.MODE = 3 /* M_INT# */ OR QQ_GLOBAL.DEBUG THEN

   2853  3 000007   000000 470400 xsym               LDP0    B$JIT$
         3 000010   000000 236100                    LDQ     0,,PR0
         3 000011   740000 376003                    ANQ     -16384,DU
         3 000012   140000 116003                    CMPQ    49152,DU
         3 000013   000016 600000 3                  TZE     s:2855
         3 000014   000066 234000 xsym               SZN     QQ_GLOBAL+54
PL6.E3A0      #001=QQC$SCREECH File=QQC$SCREECH.:E05TSI                          WED 07/30/97 05:41 Page:17
         3 000015   000017 605000 3                  TPL     s:2859

       89     2854    2             DO;

       90     2855    2               GOTO MY_DUMP;

   2855  3 000016   000043 710000 3                  TRA     MY_DUMP

       91     2856    2             END;
       92     2857    1           ELSE
       93     2858    2             DO;

       94     2859    2               B$JIT.USRERR = QQ_GLOBAL.ERR;

   2859  3 000017   000000 236000 xsym               LDQ     QQ_GLOBAL
         3 000020   000144 756100                    STQ     100,,PR0

       95     2860    2               FPT_SCREECH.JERR_ = VECTOR(B$JIT.USRERR);

   2860  3 000021   777640 235007                    LDA     -96,DL
         3 000022   000000 236000 xsym               LDQ     B$JIT$
         3 000023   000144 036003                    ADLQ    100,DU
         3 000024   000026 757000 2                  STAQ    FPT_SCREECH+2

       96     2861    2               IF B$JIT.USRERR.CODE = 13   /* E$DACTR                            */

   2861  3 000025   000144 236100                    LDQ     100,,PR0
         3 000026   377770 376007                    ANQ     131064,DL
         3 000027   000150 116007                    CMPQ    104,DL
         3 000030   000034 601000 3                  TNZ     s:2863

       97     2862    2               THEN FPT_SCREECH.SCODE_ = VECTOR(SC_CGFULL);

   2862  3 000031   000000 237000 4                  LDAQ    0
         3 000032   000024 757000 2                  STAQ    FPT_SCREECH
         3 000033   000036 710000 3                  TRA     s:2864

PL6.E3A0      #001=QQC$SCREECH File=QQC$SCREECH.:E05TSI                          WED 07/30/97 05:41 Page:18
       98     2863    2               ELSE FPT_SCREECH.SCODE_ = VECTOR(SC_SNAP);

   2863  3 000034   000002 237000 4                  LDAQ    2
         3 000035   000024 757000 2                  STAQ    FPT_SCREECH

       99     2864    2               CALL M$SCREECH(FPT_SCREECH) ALTRET(MY_DUMP);

   2864  3 000036   000024 630400 2                  EPPR0   FPT_SCREECH
         3 000037   400013 713400                    CLIMB   alt,+11
         3 000040   401000 401760                    pmme    nvectors=3
         3 000041   000043 702000 3                  TSX2    MY_DUMP

      100     2865    2               GOTO ALT;

   2865  3 000042   000061 710000 3                  TRA     ALT

      101     2866    2             END;
      102     2867
      103     2868    1   MY_DUMP:
      104     2869    1           CMD = 'M QQ_GLOBAL\J';

   2869  3 000043   040000 100400       MY_DUMP      MLR     fill='040'O
         3 000044   000052 000015 1                  ADSC9   SC_CGFULL+2              cn=0,n=13
         3 000045   000000 000050 2                  ADSC9   CMD                      cn=0,n=40

      105     2870    1           CALL M$ALIB(FPT_ALIB) ALTRET(ALT);

   2870  3 000046   000012 630400 2                  EPPR0   FPT_ALIB
         3 000047   400007 713400                    CLIMB   alt,+7
         3 000050   401400 401760                    pmme    nvectors=4
         3 000051   000061 702000 3                  TSX2    ALT

      106     2871    1           CMD = 'PLUGH';

   2871  3 000052   040000 100400                    MLR     fill='040'O
         3 000053   000056 000005 1                  ADSC9   SC_CGFULL+6              cn=0,n=5
         3 000054   000000 000050 2                  ADSC9   CMD                      cn=0,n=40
PL6.E3A0      #001=QQC$SCREECH File=QQC$SCREECH.:E05TSI                          WED 07/30/97 05:41 Page:19

      107     2872    1           CALL M$ALIB(FPT_ALIB) ALTRET(ALT);

   2872  3 000055   000012 630400 2                  EPPR0   FPT_ALIB
         3 000056   400007 713400                    CLIMB   alt,+7
         3 000057   401400 401760                    pmme    nvectors=4
         3 000060   000061 702000 3                  TSX2    ALT

      108     2873
      109     2874    1   ALT:
      110     2875    1           QQ_GLOBAL.ERR = '0'B;

   2875  3 000061   000000 450000 xsym  ALT          STZ     QQ_GLOBAL

      111     2876    1           CALL QQC$STOPTP('1'B);

   2876  3 000062   000004 630400 4                  EPPR0   4
         3 000063   000017 631400 xsym               EPPR1   B_VECTNIL+15
         3 000064   000000 701000 xent               TSX1    QQC$STOPTP
         3 000065   000000 011000                    NOP     0

      112     2877
      113     2878    1   ALT1:
      114     2879    1           CALL M$ERR;

   2879  3 000066   000002 713400       ALT1         CLIMB   err
         3 000067   000000 401760                    pmme    nvectors=0

      115     2880
      116     2881    1   END QQC$SCREECH;

   2881  3 000070   000000 702200 xent               TSX2  ! X66_ARET

PL6.E3A0      #001=QQC$SCREECH File=QQC$SCREECH.:E05TSI                          WED 07/30/97 05:41 Page:20
--  Include file information  --

   Q_SCODE_C.:E05TOU  is referenced.
   QQ_SUBS_C.:E05TOU  is referenced.
   OC_SUBS_C.:E05TOU  is referenced.
   QQ_DATA_R.:E05TOU  cannot be made into a system file and is referenced.
   QQ_MACROS_C.:E05TOU  is referenced.
   B$JIT.:E05TOU  cannot be made into a system file and is referenced.
   B$ROSEG.:E05TOU  cannot be made into a system file and is referenced.
   CP_6.:E05TOU  cannot be made into a system file and is referenced.
   Q_PAGE_C.:E05TOU  is referenced.
   B$JIT_C.:E05TOU  was found in the system file and is referenced.
   CP_6_C.:E05TOU  was found in the system file and is referenced.
      No diagnostics issued in procedure QQC$SCREECH.
PL6.E3A0      #001=QQC$SCREECH File=QQC$SCREECH.:E05TSI                          WED 07/30/97 05:41 Page:21

 **** Variables and constants ****

  ****  Section 001 RoData QQC$SCREECH

  ****  Scalars and arrays  ****
OctLoc.c.b A Datatyp(siz) R M Lvl/name                 OctLoc.c.b A Datatyp(siz) R M Lvl/name

    43-0-0/c STRC(54)    r     1 LIBNAME                   50-0-0/d STRC(72)    r     1 SC_CGFULL
    46-0-0/d STRC(72)    r     1 SC_SNAP

  ****  Section 002  Data  QQC$SCREECH

  ****  Scalars and arrays  ****
OctLoc.c.b A Datatyp(siz) R M Lvl/name                 OctLoc.c.b A Datatyp(siz) R M Lvl/name

     0-0-0/c CHAR(40)    r     1 CMD                       12-0-0/d STRC(360)   r     1 FPT_ALIB
    24-0-0/d STRC(216)   r     1 FPT_SCREECH

  ****  SYMREF variables  ****

  ****  Scalars and arrays  ****
OctLoc.c.b A Datatyp(siz) R M Lvl/name                 OctLoc.c.b A Datatyp(siz) R M Lvl/name

     0-0-0/w PTR         r     1 B$JIT$                     0-0-0/d STRC(9090)  r     1 QQ_GLOBAL

  ****  BASED and DCB variables  ****

  ****  Scalars and arrays  ****
OctLoc.c.b A Datatyp(siz) R M Lvl/name                 OctLoc.c.b A Datatyp(siz) R M Lvl/name

     0-0-0/d STRC(8856)  r     1 B$JIT


   Procedure QQC$SCREECH requires 57 words for executable code.
   Procedure QQC$SCREECH requires 4 words of local(AUTO) storage.
PL6.E3A0      #001=QQC$SCREECH File=QQC$SCREECH.:E05TSI                          WED 07/30/97 05:41 Page:22

    No errors detected in file QQC$SCREECH.:E05TSI    .
PL6.E3A0      #001=QQC$SCREECH File=QQC$SCREECH.:E05TSI                          WED 07/30/97 05:41 Page:23
          *** CROSS REFERENCE LISTING ***
**     DENOTES     IDENTIFIER DEFINITION
<<                 IDENTIFIER'S VALUE SET
>>                 IDENTIFIER'S VALUE USED
<>                 IDENTIFIER SET AND/OR USED
--                 IDENTIFIER REFERENCED
PL6.E3A0      #001=QQC$SCREECH File=QQC$SCREECH.:E05TSI                          WED 07/30/97 05:41 Page:24
          MINI XREF LISTING

ALT
      2875**LABEL    2865--GOTO     2870--CALLALT  2872--CALLALT
ALT1
      2879**LABEL    2846--GOTO
B$JIT.CPFLAGS1.SLEAZE
       321**DCL       321--REDEF
B$JIT.ERR.MID
       228**DCL       228--REDEF
B$JIT.JRESPEAK
       389**DCL       390--REDEF
B$JIT.MODE
       222**DCL      2853>>IF
B$JIT.ORIGINATOR_PORT.FROM_CR
       498**DCL       498--REDEF     499--REDEF
B$JIT.PNR
       402**DCL       402--REDEF
B$JIT.TSLINE
       496**DCL       497--REDEF
B$JIT.USRERR
       363**DCL      2859<<ASSIGN   2860--ASSIGN
B$JIT.USRERR.CODE
       363**DCL      2861>>IF
B$JIT$
      2162**DCL       222--IMP-PTR  2853>>IF       2859>>ASSIGN   2860>>ASSIGN   2861>>IF
CMD
      2565**DCL      2669--DCLINIT  2869<<ASSIGN   2871<<ASSIGN
FPT_ALIB
      2669**DCL      2870<>CALL     2872<>CALL
FPT_ALIB.V
      2670**DCL      2670--DCLINIT
FPT_SCREECH
      2687**DCL      2864<>CALL
PL6.E3A0      #001=QQC$SCREECH File=QQC$SCREECH.:E05TSI                          WED 07/30/97 05:41 Page:25
FPT_SCREECH.JERR_
      2687**DCL      2860<<ASSIGN
FPT_SCREECH.SCODE_
      2687**DCL      2862<<ASSIGN   2863<<ASSIGN
LIBNAME
      2538**DCL      2669--DCLINIT
M$ALIB
        91**DCL-ENT  2870--CALL     2872--CALL
M$ERR
        90**DCL-ENT  2879--CALL
M$SCREECH
        92**DCL-ENT  2864--CALL
MY_DUMP
      2869**LABEL    2855--GOTO     2864--CALLALT
QQC$STOPTP
      2133**DCL-ENT  2876--CALL
QQ_GLOBAL.DEBUG
       947**DCL      2853>>IF
QQ_GLOBAL.DS1$_BITS
       948**DCL       948--REDEF
QQ_GLOBAL.DS2$_BITS
       948**DCL       949--REDEF
QQ_GLOBAL.DS3$_BITS
       949**DCL       949--REDEF
QQ_GLOBAL.DS4$_BITS
       949**DCL       950--REDEF
QQ_GLOBAL.ERR
       938**DCL      2859>>ASSIGN   2875<<ASSIGN
QQ_GLOBAL.SCREECH
       938**DCL      2844>>IF       2850<<ASSIGN
SC_CGFULL
      2773**DCL      2862--ASSIGN
SC_SNAP
      2709**DCL      2863--ASSIGN
