VERSION E05

PL6.E3A0      #001=QQC$WILD_COMP File=QQC$WILD_COMP.:E05TSI                      WED 07/30/97 05:43 Page:1
        1        1        /*M* QQC$WILD_COMP - Utility for wild card string matching */
        2        2        /*T***********************************************************/
        3        3        /*T*                                                         */
        4        4        /*T* Copyright (c) Bull HN Information Systems Inc., 1997    */
        5        5        /*T*                                                         */
        6        6        /*T***********************************************************/
        7        7        /*X* IND=2, DCI=4, CSU=2, ECU=4, DTI=2, CTI=4, AND */
        8        8        QQC$WILD_COMP:
        9        9                PROC(P_WILD_CHARS, P_COMPARE_CHARS) ALTRET;
       10       10
       11       11        %INCLUDE Q_PAGE_C;
       12       43        %SET LISTEXP = '1'B;
       13       44        %PAGE(ARG="Includes");

                61        /***************************************************************************
                62         *                                                                         *
                63         *                                  Includes                               *
                64         *                                                                         *
                65         ***************************************************************************/

       14       69        %INCLUDE FM$FIT;
       15      290        %PAGE(ARG="Parameters");

               307        /***************************************************************************
               308         *                                                                         *
               309         *                                 Parameters                              *
               310         *                                                                         *
               311         ***************************************************************************/

       16      315    1   DCL P_WILD_CHARS CHAR(8);
       17      316    1   DCL P_COMPARE_CHARS CHAR(8);
       18      317        %PAGE(ARG="Auto");

               334    1   /***************************************************************************
               335    1    *                                                                         *
               336    1    *                                    Auto                                 *
               337    1    *                                                                         *
PL6.E3A0      #001=QQC$WILD_COMP File=QQC$WILD_COMP.:E05TSI                      WED 07/30/97 05:43 Page:2
               338    1    ***************************************************************************/

       19      342    1   DCL WILD_X UBIN WORD;
       20      343    1   DCL WILD_XC REDEF WILD_X CHAR(4);
       21      344    1   DCL WILD_XP UBIN WORD;
       22      345    1   DCL COMPARE_X UBIN WORD;
       23      346    1   DCL COMPARE_XP UBIN WORD;
       24      347        %PAGE(ARG="QQC$WILD_COMP", PAGE=YES);

PL6.E3A0      #001=QQC$WILD_COMP File=QQC$WILD_COMP.:E05TSI                      WED 07/30/97 05:43 Page:3
               364    1   /***************************************************************************
               365    1    *                                                                         *
               366    1    *                               QQC$WILD_COMP                             *
               367    1    *                                                                         *
               368    1    ***************************************************************************/

       25      372        %SUB WILD_CHARS = P_WILD_CHARS;
       26      373        %SUB COMPARE_CHARS = P_COMPARE_CHARS;
       27      374        %LIST;
       28      375
       29      376        %WILD_COMPARE(WILD_MAX=8, COMPARE_MAX=8);
               377        %LSET LISTDIR='0'B;
               394    1           WILD_XC=P_WILD_CHARS;
               395    2           IF (BINBIT(WILD_X,36)&'737737737777'O)='101114114040'O THEN DO;
               396    2              WILD_X=3;
               397    2              WILD_XP=2;
               398    2              END;
               408    2           ELSE DO;
               409    2              WILD_X=0;
               410    2              WILD_XP=8;
               411    2              END;
               412    1           COMPARE_X=0;
               413    1           COMPARE_XP=0;
               417    2           DO WHILE(WILD_X<8 AND SUBSTR(P_WILD_CHARS,WILD_X,1)~=' '
               418    2             OR COMPARE_X<8 AND SUBSTR(P_COMPARE_CHARS,COMPARE_X,1)~=' ');
               419    3              IF WILD_X<8 AND SUBSTR(P_WILD_CHARS,WILD_X,1)='?' THEN DO;
               420    3                 WILD_XP=WILD_X;
               421    3                 END;
               422    3              ELSE DO;
               423    3                 IF WILD_X=WILD_XP+1 THEN COMPARE_XP=COMPARE_X;
               424    3                 IF WILD_X>=8
               425    3                   OR COMPARE_X>=8
               426    3                   OR SUBSTR(P_WILD_CHARS,WILD_X,1) ~=
               427    4                   SUBSTR(P_COMPARE_CHARS,COMPARE_X,1) THEN DO;
               428    4                    IF WILD_XP=8 OR COMPARE_XP=8
               429    4                    THEN ALTRETURN;
               430    4                    WILD_X=WILD_XP;
PL6.E3A0      #001=QQC$WILD_COMP File=QQC$WILD_COMP.:E05TSI                      WED 07/30/97 05:43 Page:4
               434    4                    COMPARE_X=COMPARE_XP;
               435    4                    END;
               439    3                 COMPARE_X=COMPARE_X+1;
               440    3                 END;
               441    2              IF WILD_X<8 THEN WILD_X=WILD_X+1;
               442    2   END;
       30      447
       31      448    1           RETURN;
       32      449
       33      450    1   END QQC$WILD_COMP;

PL6.E3A0      #001=QQC$WILD_COMP File=QQC$WILD_COMP.:E05TSI                      WED 07/30/97 05:43 Page:5
--  Include file information  --

   FM$FIT.:E05TOU  is referenced.
   Q_PAGE_C.:E05TOU  is referenced.
      No diagnostics issued in procedure QQC$WILD_COMP.

   Procedure QQC$WILD_COMP requires 83 words for executable code.
   Procedure QQC$WILD_COMP requires 10 words of local(AUTO) storage.

    No errors detected in file QQC$WILD_COMP.:E05TSI    .

PL6.E3A0      #001=QQC$WILD_COMP File=QQC$WILD_COMP.:E05TSI                      WED 07/30/97 05:43 Page:6

 Object Unit name= QQC$WILD_COMP                              File name= QQC$WILD_COMP.:E05TOU
 UTS= JUL 30 '97 05:43:07.08 WED                              Compiler= PL-6/E31         Sev=      00
 SharedLib= :SHARED_SYSTEM                                    Alt SharedLib=


    ****  Control sections  ****

 Sect   Type Bound  Init  Size OctSiz  Section name(segment info)
    0  RoData even  UTS      2      2  QQC$WILD_COMP
    1   Proc  even  none    83    123  QQC$WILD_COMP
    2  RoData even  none     1      1  QQC$WILD_COMP

    ****  Entry defs  ****

                              Check   Calling
                             calling  sequence
  Sect OctLoc Primary Altret sequence   type   Parms  Name
     1      0   yes    yes     yes      Std        2  QQC$WILD_COMP

  ****  Entry refs  ****

         Check        Calling
        calling       sequence
Altret sequence SRef   type   Args  Name
                       nStd      0 X66_AUTO_2
                       nStd      0 X66_AALT
                       Std       0 B_CONSPOOL_D
                       nStd      0 X66_ARET

  ****  Data refs  ****

  Flags:  r = read only, s = secondary
Flgs Name                             Flgs Name                             Flgs Name
     B_VECTNIL
PL6.E3A0      #001=QQC$WILD_COMP File=QQC$WILD_COMP.:E05TSI                      WED 07/30/97 05:43 Page:7


        1        1        /*M* QQC$WILD_COMP - Utility for wild card string matching */
        2        2        /*T***********************************************************/
        3        3        /*T*                                                         */
        4        4        /*T* Copyright (c) Bull HN Information Systems Inc., 1997    */
        5        5        /*T*                                                         */
        6        6        /*T***********************************************************/
        7        7        /*X* IND=2, DCI=4, CSU=2, ECU=4, DTI=2, CTI=4, AND */
        8        8        QQC$WILD_COMP:
        9        9                PROC(P_WILD_CHARS, P_COMPARE_CHARS) ALTRET;

      9  1 000000   000000 700200 xent  QQC$WILD_CO* TSX0  ! X66_AUTO_2
         1 000001   000012 000002                    ZERO    10,2

       10       10
       11       11        %INCLUDE Q_PAGE_C;
       12       43        %SET LISTEXP = '1'B;
       13       44        %PAGE(ARG="Includes");

                61        /***************************************************************************
                62         *                                                                         *
                63         *                                  Includes                               *
                64         *                                                                         *
                65         ***************************************************************************/

       14       69        %INCLUDE FM$FIT;
       15      290        %PAGE(ARG="Parameters");

               307        /***************************************************************************
               308         *                                                                         *
               309         *                                 Parameters                              *
               310         *                                                                         *
               311         ***************************************************************************/

       16      315    1   DCL P_WILD_CHARS CHAR(8);
       17      316    1   DCL P_COMPARE_CHARS CHAR(8);
       18      317        %PAGE(ARG="Auto");
PL6.E3A0      #001=QQC$WILD_COMP File=QQC$WILD_COMP.:E05TSI                      WED 07/30/97 05:43 Page:8

               334    1   /***************************************************************************
               335    1    *                                                                         *
               336    1    *                                    Auto                                 *
               337    1    *                                                                         *
               338    1    ***************************************************************************/

       19      342    1   DCL WILD_X UBIN WORD;
       20      343    1   DCL WILD_XC REDEF WILD_X CHAR(4);
       21      344    1   DCL WILD_XP UBIN WORD;
       22      345    1   DCL COMPARE_X UBIN WORD;
       23      346    1   DCL COMPARE_XP UBIN WORD;
       24      347        %PAGE(ARG="QQC$WILD_COMP", PAGE=YES);

PL6.E3A0      #001=QQC$WILD_COMP File=QQC$WILD_COMP.:E05TSI                      WED 07/30/97 05:43 Page:9
               364    1   /***************************************************************************
               365    1    *                                                                         *
               366    1    *                               QQC$WILD_COMP                             *
               367    1    *                                                                         *
               368    1    ***************************************************************************/

       25      372        %SUB WILD_CHARS = P_WILD_CHARS;
       26      373        %SUB COMPARE_CHARS = P_COMPARE_CHARS;
       27      374        %LIST;
       28      375
       29      376        %WILD_COMPARE(WILD_MAX=8, COMPARE_MAX=8);
               377        %LSET LISTDIR='0'B;
               394    1           WILD_XC=P_WILD_CHARS;

    394  1 000002   200003 470500                    LDP0    @P_WILD_CHARS,,AUTO
         1 000003   040100 100500                    MLR     fill='040'O
         1 000004   000000 000004                    ADSC9   0,,PR0                   cn=0,n=4
         1 000005   200005 000004                    ADSC9   WILD_X,,AUTO             cn=0,n=4

               395    2           IF (BINBIT(WILD_X,36)&'737737737777'O)='101114114040'O THEN DO;

    395  1 000006   200005 236100                    LDQ     WILD_X,,AUTO
         1 000007   000000 376000 0                  ANQ     0
         1 000010   000001 116000 0                  CMPQ    1
         1 000011   000017 601000 1                  TNZ     s:409

               396    2              WILD_X=3;

    396  1 000012   000003 235007                    LDA     3,DL
         1 000013   200005 755100                    STA     WILD_X,,AUTO

               397    2              WILD_XP=2;

    397  1 000014   000002 236007                    LDQ     2,DL
         1 000015   200006 756100                    STQ     WILD_XP,,AUTO

               398    2              END;
PL6.E3A0      #001=QQC$WILD_COMP File=QQC$WILD_COMP.:E05TSI                      WED 07/30/97 05:43 Page:10

    398  1 000016   000022 710000 1                  TRA     s:412

               408    2           ELSE DO;

               409    2              WILD_X=0;

    409  1 000017   200005 450100                    STZ     WILD_X,,AUTO

               410    2              WILD_XP=8;

    410  1 000020   000010 235007                    LDA     8,DL
         1 000021   200006 755100                    STA     WILD_XP,,AUTO

               411    2              END;

               412    1           COMPARE_X=0;

    412  1 000022   200007 450100                    STZ     COMPARE_X,,AUTO

               413    1           COMPARE_XP=0;

    413  1 000023   200010 450100                    STZ     COMPARE_XP,,AUTO

               417    2           DO WHILE(WILD_X<8 AND SUBSTR(P_WILD_CHARS,WILD_X,1)~=' '

    417  1 000024   000102 710000 1                  TRA     s:442

               418    2             OR COMPARE_X<8 AND SUBSTR(P_COMPARE_CHARS,COMPARE_X,1)~=' ');
               419    3              IF WILD_X<8 AND SUBSTR(P_WILD_CHARS,WILD_X,1)='?' THEN DO;

    419  1 000025   200005 235100                    LDA     WILD_X,,AUTO
         1 000026   000010 115007                    CMPA    8,DL
         1 000027   000037 603000 1                  TRC     s:423
         1 000030   200003 470500                    LDP0    @P_WILD_CHARS,,AUTO
         1 000031   040000 106505                    CMPC    fill='040'O
         1 000032   000000 000001                    ADSC9   0,A,PR0                  cn=0,n=1
PL6.E3A0      #001=QQC$WILD_COMP File=QQC$WILD_COMP.:E05TSI                      WED 07/30/97 05:43 Page:11
         1 000033   000000 000001 2                  ADSC9   0                        cn=0,n=1
         1 000034   000037 601000 1                  TNZ     s:423

               420    3                 WILD_XP=WILD_X;

    420  1 000035   200006 755100                    STA     WILD_XP,,AUTO

               421    3                 END;

    421  1 000036   000076 710000 1                  TRA     s:441

               422    3              ELSE DO;

               423    3                 IF WILD_X=WILD_XP+1 THEN COMPARE_XP=COMPARE_X;

    423  1 000037   200006 236100                    LDQ     WILD_XP,,AUTO
         1 000040   000001 036007                    ADLQ    1,DL
         1 000041   200005 116100                    CMPQ    WILD_X,,AUTO
         1 000042   000045 601000 1                  TNZ     s:424

    423  1 000043   200007 235100                    LDA     COMPARE_X,,AUTO
         1 000044   200010 755100                    STA     COMPARE_XP,,AUTO

               424    3                 IF WILD_X>=8

    424  1 000045   200005 235100                    LDA     WILD_X,,AUTO
         1 000046   000010 115007                    CMPA    8,DL
         1 000047   000063 603000 1                  TRC     s:428
         1 000050   200007 235100                    LDA     COMPARE_X,,AUTO
         1 000051   000010 115007                    CMPA    8,DL
         1 000052   000063 603000 1                  TRC     s:428
         1 000053   200003 470500                    LDP0    @P_WILD_CHARS,,AUTO
         1 000054   200005 235100                    LDA     WILD_X,,AUTO
         1 000055   200004 471500                    LDP1    @P_COMPARE_CHARS,,AUTO
         1 000056   200007 236100                    LDQ     COMPARE_X,,AUTO
         1 000057   040106 106505                    CMPC    fill='040'O
         1 000060   000000 000001                    ADSC9   0,A,PR0                  cn=0,n=1
PL6.E3A0      #001=QQC$WILD_COMP File=QQC$WILD_COMP.:E05TSI                      WED 07/30/97 05:43 Page:12
         1 000061   100000 000001                    ADSC9   0,Q,PR1                  cn=0,n=1
         1 000062   000074 600000 1                  TZE     s:439

               425    3                   OR COMPARE_X>=8
               426    3                   OR SUBSTR(P_WILD_CHARS,WILD_X,1) ~=
               427    4                   SUBSTR(P_COMPARE_CHARS,COMPARE_X,1) THEN DO;

               428    4                    IF WILD_XP=8 OR COMPARE_XP=8

    428  1 000063   200006 235100                    LDA     WILD_XP,,AUTO
         1 000064   000010 115007                    CMPA    8,DL
         1 000065   000071 600000 1                  TZE     s:429
         1 000066   200010 236100                    LDQ     COMPARE_XP,,AUTO
         1 000067   000010 116007                    CMPQ    8,DL
         1 000070   000072 601000 1                  TNZ     s:430

               429    4                    THEN ALTRETURN;

    429  1 000071   000000 702200 xent               TSX2  ! X66_AALT

               430    4                    WILD_X=WILD_XP;

    430  1 000072   200005 755100                    STA     WILD_X,,AUTO

               434    4                    COMPARE_X=COMPARE_XP;

    434  1 000073   200007 756100                    STQ     COMPARE_X,,AUTO

               435    4                    END;

               439    3                 COMPARE_X=COMPARE_X+1;

    439  1 000074   000001 036007                    ADLQ    1,DL
         1 000075   200007 756100                    STQ     COMPARE_X,,AUTO

               440    3                 END;

PL6.E3A0      #001=QQC$WILD_COMP File=QQC$WILD_COMP.:E05TSI                      WED 07/30/97 05:43 Page:13
               441    2              IF WILD_X<8 THEN WILD_X=WILD_X+1;

    441  1 000076   000010 115007                    CMPA    8,DL
         1 000077   000102 603000 1                  TRC     s:442

    441  1 000100   000001 035007                    ADLA    1,DL
         1 000101   200005 755100                    STA     WILD_X,,AUTO

               442    2   END;

    442  1 000102   200005 235100                    LDA     WILD_X,,AUTO
         1 000103   000010 115007                    CMPA    8,DL
         1 000104   000112 603000 1                  TRC     s:442+8
         1 000105   200003 470500                    LDP0    @P_WILD_CHARS,,AUTO
         1 000106   040000 106505                    CMPC    fill='040'O
         1 000107   000000 000001                    ADSC9   0,A,PR0                  cn=0,n=1
         1 000110   000035 000001 xsym               ADSC9   B_VECTNIL+29             cn=0,n=1
         1 000111   000025 601000 1                  TNZ     s:419
         1 000112   200007 236100                    LDQ     COMPARE_X,,AUTO
         1 000113   000010 116007                    CMPQ    8,DL
         1 000114   000122 603000 1                  TRC     s:448
         1 000115   200004 470500                    LDP0    @P_COMPARE_CHARS,,AUTO
         1 000116   040000 106506                    CMPC    fill='040'O
         1 000117   000000 000001                    ADSC9   0,Q,PR0                  cn=0,n=1
         1 000120   000035 000001 xsym               ADSC9   B_VECTNIL+29             cn=0,n=1
         1 000121   000025 601000 1                  TNZ     s:419

       30      447
       31      448    1           RETURN;

    448  1 000122   000000 702200 xent               TSX2  ! X66_ARET
       32      449
       33      450    1   END QQC$WILD_COMP;

PL6.E3A0      #001=QQC$WILD_COMP File=QQC$WILD_COMP.:E05TSI                      WED 07/30/97 05:43 Page:14
--  Include file information  --

   FM$FIT.:E05TOU  is referenced.
   Q_PAGE_C.:E05TOU  is referenced.
      No diagnostics issued in procedure QQC$WILD_COMP.
PL6.E3A0      #001=QQC$WILD_COMP File=QQC$WILD_COMP.:E05TSI                      WED 07/30/97 05:43 Page:15

 **** Variables and constants ****

  ****  Auto variables  ****

  ****  Scalars and arrays  ****
OctLoc.c.b A Datatyp(siz) R M Lvl/name                 OctLoc.c.b A Datatyp(siz) R M Lvl/name

     4-0-0/w PTR         r     1 @P_COMPARE_CHARS           3-0-0/w PTR         r     1 @P_WILD_CHARS
     7-0-0/w UBIN        r     1 COMPARE_X                 10-0-0/w UBIN        r     1 COMPARE_XP
    *0-0-0/c CHAR(8)     r     1 P_COMPARE_CHARS           *0-0-0/c CHAR(8)     r     1 P_WILD_CHARS
     5-0-0/w UBIN        r     1 WILD_X                     5-0-0/w CHAR(4)     r     1 WILD_XC
     6-0-0/w UBIN        r     1 WILD_XP


   Procedure QQC$WILD_COMP requires 83 words for executable code.
   Procedure QQC$WILD_COMP requires 10 words of local(AUTO) storage.

    No errors detected in file QQC$WILD_COMP.:E05TSI    .
PL6.E3A0      #001=QQC$WILD_COMP File=QQC$WILD_COMP.:E05TSI                      WED 07/30/97 05:43 Page:16
          *** CROSS REFERENCE LISTING ***
**     DENOTES     IDENTIFIER DEFINITION
<<                 IDENTIFIER'S VALUE SET
>>                 IDENTIFIER'S VALUE USED
<>                 IDENTIFIER SET AND/OR USED
--                 IDENTIFIER REFERENCED
PL6.E3A0      #001=QQC$WILD_COMP File=QQC$WILD_COMP.:E05TSI                      WED 07/30/97 05:43 Page:17
          MINI XREF LISTING

COMPARE_X
       345**DCL       412<<ASSIGN    417>>DOWHILE   417>>DOWHILE   423>>ASSIGN    424>>IF        424>>IF
       434<<ASSIGN    439<<ASSIGN    439>>ASSIGN
COMPARE_XP
       346**DCL       413<<ASSIGN    423<<ASSIGN    428>>IF        434>>ASSIGN
P_COMPARE_CHARS
       316**DCL         8--PROC      417>>DOWHILE   424>>IF
P_WILD_CHARS
       315**DCL         8--PROC      394>>ASSIGN    417>>DOWHILE   419>>IF        424>>IF
WILD_X
       342**DCL       343--REDEF     395>>IF        396<<ASSIGN    409<<ASSIGN    417>>DOWHILE   417>>DOWHILE
       419>>IF        419>>IF        420>>ASSIGN    423>>IF        424>>IF        424>>IF        430<<ASSIGN
       441>>IF        441<<ASSIGN    441>>ASSIGN
WILD_XC
       343**DCL       394<<ASSIGN
WILD_XP
       344**DCL       397<<ASSIGN    410<<ASSIGN    420<<ASSIGN    423>>IF        428>>IF        430>>ASSIGN
