VERSION E05

PL6.E3A0      #001=QQ_CMDFLAGS_D File=QQ_CMDFLAGS_D.:E05TSI                      WED 07/30/97 05:43 Page:1
        1        1        /*M* QQ_CMDFLAGS_D - Command control words */
        2        2        /*T***********************************************************/
        3        3        /*T*                                                         */
        4        4        /*T* Copyright (c) Bull HN Information Systems Inc., 1997    */
        5        5        /*T*                                                         */
        6        6        /*T***********************************************************/
        7        7        /*X* IND=2, DCI=4, CSU=2, ECU=4, DTI=2, CTI=4, AND */
        8        8        QQ_CMDFLAGS_D:
        9        9                PROC;
       10       10
       11       11        %INCLUDE Q_PAGE_C;
       12       43        %SET LISTEXP = '1'B;
       13       44        %PAGE(ARG="Includes");

                61        /***************************************************************************
                62         *                                                                         *
                63         *                                  Includes                               *
                64         *                                                                         *
                65         ***************************************************************************/

       14       69        %INCLUDE CP_6;
       15      150        %INCLUDE QQ_MACROS_C;
       16      575        %INCLUDE QQ_DATA_R;
       17      821        %INCLUDE QQ_SUBS_C;
       18     1013        %PAGE(ARG="Symdefs");

              1030    1   /***************************************************************************
              1031    1    *                                                                         *
              1032    1    *                                  Symdefs                                *
              1033    1    *                                                                         *
              1034    1    ***************************************************************************/

       19     1038
       20     1039        /* QQ_CMDFLAGS - Is an array of structures which define the
       21     1040           attributes of each command.  QQ_CMDBLK.CODE is used as
       22     1041           an index into the array to determine information about
       23     1042           each command.  To find out exactly what information is
PL6.E3A0      #001=QQ_CMDFLAGS_D File=QQ_CMDFLAGS_D.:E05TSI                      WED 07/30/97 05:43 Page:2
       24     1043           kept for each command examine the CMD_FLAGS macro. */
       25     1044
       26     1045    1   DCL 1 QQ_CMDFLAGS STATIC SYMDEF,
       27     1046    1         2 INFOS,
       28     1047
       29     1048        %CMD_FLAGS /* UNUSED */;
       30     1093
       31     1094        %CMD_FLAGS(TREE=0) /* NULL */;
       32     1139
       33     1140        %CMD_FLAGS (RUNONLY=YES, CONSOLESOK=NO, TREE=1, NOTIMP=YES) /* ACCEPT */;
       34     1185
       35     1186        %CMD_FLAGS (RUNONLY=YES, CONSOLESOK=NO, TREE=1) /* ASSIST */;
       36     1231
       37     1232        %CMD_FLAGS (RUNONLY=YES, CONSOLESOK=NO, TREE=1) /* BEGIN */;
       38     1277
       39     1278        %CMD_FLAGS (RUNONLY=YES, CONSOLESOK=NO, TREE=0) /* BYE */;
       40     1323
       41     1324        %CMD_FLAGS (PASS=1, TREE=1) /* CANCEL */;
       42     1369
       43     1370        %CMD_FLAGS (PASS=1, TREE=1) /* CHECK */;
       44     1415
       45     1416        %CMD_FLAGS (RUNONLY=YES, CONSOLESOK=NO, TREE=1) /* DEBUG */;
       46     1461
       47     1462        %CMD_FLAGS (PASS=1,  TREE=1) /* DELIVER */;
       48     1507
       49     1508        %CMD_FLAGS (PASS=1, PRIVREQ=YES, TREE=2) /* DISABLE */;
       50     1553
       51     1554        %CMD_FLAGS (PASS=1, PRIVREQ=YES, TREE=2) /* DISPLAY */;
       52     1599
       53     1600        %CMD_FLAGS (PASS=1, PRIVREQ=YES, TREE=2) /* ENABLE */;
       54     1645
       55     1646        %CMD_FLAGS (PASS=1, TREE=1) /* HOLD */;
       56     1691
       57     1692        %CMD_FLAGS (PASS=1, TREE=1) /* ERASE */;
       58     1737
       59     1738        %CMD_FLAGS (RUNONLY=YES, CONSOLESOK=NO, TREE=1, NOTIMP=NO) /* HELP */;
       60     1783
PL6.E3A0      #001=QQ_CMDFLAGS_D File=QQ_CMDFLAGS_D.:E05TSI                      WED 07/30/97 05:43 Page:3
       61     1784        %CMD_FLAGS (RUNONLY=YES, PRIVREQ=YES, TREE=2) /* KILL */;
       62     1829
       63     1830        %CMD_FLAGS (PASS=0, TREE=2) /* LET */;
       64     1875
       65     1876        %CMD_FLAGS (PASS=0, PRIVREQ=YES, ONCEONLY=YES,
       66     1877        TYPE=LOGL, DATA$="QQ_GLOBAL.ACCOUNTING") /* LET_ACCOUNTING */;
       67     1922
       68     1923        %CMD_FLAGS (PASS=0, INITONLY=YES, ONCEONLY=YES,
       69     1924        TYPE=UBIN, DATA$="QQ_GLOBAL.CGPAGEMAX") /* LET_CGPAGEMAX */;
       70     1969
       71     1970        %CMD_FLAGS (PASS=0, INITONLY=YES, ONCEONLY=YES,
       72     1971        TYPE=UBIN, DATA$="QQ_GLOBAL.CGPAGEMIN") /* LET_CGPAGEMIN */;
       73     2016
       74     2017        %CMD_FLAGS (PASS=0, INITONLY=YES, ONCEONLY=YES,
       75     2018        TYPE=UBIN, DATA$="QQ_GLOBAL.CGSIZEMAX") /* LET_CGSIZEMAX */;
       76     2063
       77     2064        %CMD_FLAGS (PASS=0, PRIVREQ=YES, ONCEONLY=YES,
       78     2065        TYPE=LOGL, DATA$="QQ_GLOBAL.DCBCON") /* LET_DCBCON */;
       79     2110
       80     2111        %CMD_FLAGS (PASS=0, PRIVREQ=YES, ONCEONLY=YES,
       81     2112        INHIBPRINT=YES, TYPE=LOGL, DATA$="QQ_GLOBAL.HISTORY") /* LET_HISTORY */;
       82     2157
       83     2158        %CMD_FLAGS (PASS=0, INITONLY=YES, ONCEONLY=YES,
       84     2159        TYPE=UBIN, DATA$="QQ_GLOBAL.IXTNSIZE") /* LET_IXTNSIZE */;
       85     2204
       86     2205        %CMD_FLAGS (PASS=0, INITONLY=YES, ONCEONLY=YES,
       87     2206        TYPE=LOGL, DATA$="QQ_GLOBAL.JOURNAL") /* LET_JOURNAL */;
       88     2251
       89     2252        %CMD_FLAGS (PASS=0, ONCEONLY=YES, CONSOLESONLY=YES,
       90     2253        RUNONLY=YES, TYPE=LOGL, DATA$="QQ_GLOBAL.LOG") /* LET_LOG */;
       91     2298
       92     2299        %CMD_FLAGS (PASS=0, PRIVREQ=YES, ONCEONLY=YES,
       93     2300        LEN=8, TYPE=CHAR, DATA$="QQ_GLOBAL.MCTID") /* LET_MCTID */;
       94     2345
       95     2346        %CMD_FLAGS (PASS=0, INITONLY=YES, ONCEONLY=YES,
       96     2347        TYPE=LOGL, DATA$="QQ_GLOBAL.NEWCG") /* LET_NEWCG */;
       97     2392
PL6.E3A0      #001=QQ_CMDFLAGS_D File=QQ_CMDFLAGS_D.:E05TSI                      WED 07/30/97 05:43 Page:4
       98     2393        %CMD_FLAGS (PASS=0, INITONLY=YES, ONCEONLY=YES,
       99     2394        TYPE=UBIN, DATA$="QQ_GLOBAL.POOLSIZE") /* LET_POOLSIZE */;
      100     2439
      101     2440        %CMD_FLAGS (PASS=0, INITONLY=YES, ONCEONLY=YES,
      102     2441        TYPE=UBIN, DATA$="QQ_GLOBAL.CGDISKWARN") /* LET_CGDISKWARN */;
      103     2486
      104     2487
      105     2488        %CMD_FLAGS (PASS=0, PRIVREQ=YES, ONCEONLY=YES,
      106     2489        TYPE=UBIN, DATA$="QQ_GLOBAL.STATIONMAX") /* LET_STATIONMAX */;
      107     2534
      108     2535        %CMD_FLAGS (PASS=0, INITONLY=YES, ONCEONLY=YES,
      109     2536        TYPE=UBIN, DATA$="QQ_GLOBAL.CGMEMWARN") /* LET_CGMEMWARN */;
      110     2581
      111     2582
      112     2583        %CMD_FLAGS (PASS=0, INITONLY=YES, ONCEONLY=YES,
      113     2584        TYPE=TEXTC, DATA$="QQ_GLOBAL.TPCP_RU") /* LET_TPCPRU */;
      114     2629
      115     2630        %CMD_FLAGS (PASS=0, INITONLY=YES, ONCEONLY=YES,
      116     2631        TYPE=UBIN, DATA$="QQ_GLOBAL.TPUINITIAL") /* LET_TPUINITIAL */;
      117     2676
      118     2677        %CMD_FLAGS (PASS=0, PRIVREQ=YES, ONCEONLY=YES,
      119     2678        TYPE=UBIN, DATA$="QQ_GLOBAL.TPUMAX") /* LET_TPUMAX */;
      120     2723
      121     2724        %CMD_FLAGS (PASS=0, PRIVREQ=YES, ONCEONLY=YES,
      122     2725        TYPE=UBIN, DATA$="QQ_GLOBAL.TPUMIN") /* LET_TPUMIN */;
      123     2770
      124     2771        %CMD_FLAGS (PASS=0, INITONLY=YES, ONCEONLY=YES,
      125     2772        TYPE=TEXTC, DATA$="QQ_GLOBAL.CFP_RU.NAME") /* LET_CFPRU */;
      126     2817
      127     2818        %CMD_FLAGS (PASS=0, PRIVREQ=YES, ONCEONLY=YES,
      128     2819        TYPE=UBIN, DATA$="QQ_GLOBAL.XTNSIZE") /* LET_XTNSIZE */;
      129     2864
      130     2865        %CMD_FLAGS (PASS=0, PRIVREQ=YES, ONCEONLY=YES,
      131     2866        LEN=120, TYPE=CHAR ) /* LET_TPHEADER */;
      132     2911        %CMD_FLAGS (RUNONLY=YES, CONSOLESOK=NO, TREE=0) /* OFF */;
      133     2956
      134     2957        %CMD_FLAGS (RUNONLY=YES, CONSOLESOK=NO, TREE=1) /* PASSWORD */;
PL6.E3A0      #001=QQ_CMDFLAGS_D File=QQ_CMDFLAGS_D.:E05TSI                      WED 07/30/97 05:43 Page:5
      135     3002
      136     3003        %CMD_FLAGS (PASS=1, TREE=1) /* PRIORITY */;
      137     3048
      138     3049        %CMD_FLAGS (RUNONLY=YES, CONSOLESOK=NO, TREE=1, NOTIMP=NO ) /* PROFILE */;
      139     3094
      140     3095        %CMD_FLAGS (PASS=0, PRIVREQ=YES, TREE=2) /* READ */;
      141     3140
      142     3141        %CMD_FLAGS (PASS=1, TREE=1) /* RELEASE */;
      143     3186
      144     3187        %CMD_FLAGS (RUNONLY=YES, TREE=1, NOTIMP=YES) /* SHOW */;
      145     3232
      146     3233        %CMD_FLAGS (RUNONLY=YES, PRIVREQ=YES, TREE=2) /* SPY */;
      147     3278
      148     3279        %CMD_FLAGS (RUNONLY=YES, PRIVREQ=YES, TREE=2) /* STATS */;
      149     3324
      150     3325        %CMD_FLAGS (RUNONLY=YES, PRIVREQ=YES, TREE=0, NOTIMP=YES) /* STATUS */;
      151     3370
      152     3371        %CMD_FLAGS (RUNONLY=YES, PRIVREQ=YES, TREE=2) /* STOPTP */;
      153     3416
      154     3417        %CMD_FLAGS  (PASS=1, PRIVREQ=YES, TREE=2) /* TRANSACTION */;
      155     3462
      156     3463        %CMD_FLAGS (RUNONLY=YES, TREE=0, NOTIMP=NO) /* ? */;
      157     3508
      158     3509        %CMD_FLAGS (RUNONLY=YES, TREE=0, NOTIMP=NO) /* ?? */;
      159     3554
      160     3555        %CMD_FLAGS (TREE=0, NOTIMP=NO) /* TIME */;
      161     3600
      162     3601        %CMD_FLAGS (TREE=2,PRIVREQ=YES,PASS=1) /* ERSEND  */;
      163     3646
      164     3647        %CMD_FLAGS (TREE=1,RUNONLY=YES,CONSOLESOK=NO) /* START */;
      165     3692
      166     3693        %CMD_FLAGS (TREE=1,RUNONLY=YES,CONSOLESOK=NO) /* RUNUNIT */;
      167     3738
      168     3739        %CMD_FLAGS (TREE=1,RUNONLY=YES,CONSOLESOK=NO) /* UNDER  */;
      169     3784
      170     3785        %CMD_FLAGS (PASS=1, TREE=1) /* MESSAGE */;
      171     3830
PL6.E3A0      #001=QQ_CMDFLAGS_D File=QQ_CMDFLAGS_D.:E05TSI                      WED 07/30/97 05:43 Page:6
      172     3831    1           2 INFO(0:59 /* HIGH_CMD */) REDEF INFOS,
      173     3832                    %CMD_FLAGS(STCLASS=, LVL=3, LAST=";");
      174     3877    1   END QQ_CMDFLAGS_D;

PL6.E3A0      #001=QQ_CMDFLAGS_D File=QQ_CMDFLAGS_D.:E05TSI                      WED 07/30/97 05:43 Page:7
--  Include file information  --

   QQ_SUBS_C.:E05TOU  is referenced.
   QQ_DATA_R.:E05TOU  cannot be made into a system file and is referenced.
   QQ_MACROS_C.:E05TOU  is referenced.
   CP_6.:E05TOU  cannot be made into a system file and is referenced.
   Q_PAGE_C.:E05TOU  is referenced.
   B$JIT_C.:E05TOU  was found in the system file and is never referenced.
   CP_6_C.:E05TOU  was found in the system file and is referenced.
      No diagnostics issued in procedure QQ_CMDFLAGS_D.

   No code generated for procedure QQ_CMDFLAGS_D .
   Procedure QQ_CMDFLAGS_D requires 4 words of local(AUTO) storage.

    No errors detected in file QQ_CMDFLAGS_D.:E05TSI    .

PL6.E3A0      #001=QQ_CMDFLAGS_D File=QQ_CMDFLAGS_D.:E05TSI                      WED 07/30/97 05:43 Page:8

 Object Unit name= QQ_CMDFLAGS_D                              File name= QQ_CMDFLAGS_D.:E05TOU
 UTS= JUL 30 '97 05:43:56.16 WED                              Compiler= PL-6/E31         Sev=      00
 SharedLib= :SHARED_SYSTEM                                    Alt SharedLib=


    ****  Control sections  ****

 Sect   Type Bound  Init  Size OctSiz  Section name(segment info)
    0   DCB   even  none     0      0  M$UC
    1   Data  even  none   180    264  QQ_CMDFLAGS_D
    2   Proc  even  none     0      0  QQ_CMDFLAGS_D

    ****  Entry defs  ****

                              Check   Calling
                             calling  sequence
  Sect OctLoc Primary Altret sequence   type   Parms  Name
     2      0   yes            yes     ~proc       0  QQ_CMDFLAGS_D

  ****  Data defs  ****

 Sect OctLoc  Name                           Sect OctLoc  Name
    1      0  QQ_CMDFLAGS

  ****  Data refs  ****

  Flags:  r = read only, s = secondary
Flgs Name                             Flgs Name                             Flgs Name
     M$UC                                  QQ_GLOBAL

  ****  Segment refs  ****

  Flags:  r = read only, s = secondary
Flgs Name                             Flgs Name                             Flgs Name
     NULLSID                               ISSID
PL6.E3A0      #001=QQ_CMDFLAGS_D File=QQ_CMDFLAGS_D.:E05TSI                      WED 07/30/97 05:43 Page:9

        1        1        /*M* QQ_CMDFLAGS_D - Command control words */
        2        2        /*T***********************************************************/
        3        3        /*T*                                                         */
        4        4        /*T* Copyright (c) Bull HN Information Systems Inc., 1997    */
        5        5        /*T*                                                         */
        6        6        /*T***********************************************************/
        7        7        /*X* IND=2, DCI=4, CSU=2, ECU=4, DTI=2, CTI=4, AND */
        8        8        QQ_CMDFLAGS_D:
        9        9                PROC;
       10       10
       11       11        %INCLUDE Q_PAGE_C;
       12       43        %SET LISTEXP = '1'B;
       13       44        %PAGE(ARG="Includes");

                61        /***************************************************************************
                62         *                                                                         *
                63         *                                  Includes                               *
                64         *                                                                         *
                65         ***************************************************************************/

       14       69        %INCLUDE CP_6;
       15      150        %INCLUDE QQ_MACROS_C;
       16      575        %INCLUDE QQ_DATA_R;
       17      821        %INCLUDE QQ_SUBS_C;
       18     1013        %PAGE(ARG="Symdefs");

              1030    1   /***************************************************************************
              1031    1    *                                                                         *
              1032    1    *                                  Symdefs                                *
              1033    1    *                                                                         *
              1034    1    ***************************************************************************/

       19     1038
       20     1039        /* QQ_CMDFLAGS - Is an array of structures which define the
       21     1040           attributes of each command.  QQ_CMDBLK.CODE is used as
       22     1041           an index into the array to determine information about
       23     1042           each command.  To find out exactly what information is
PL6.E3A0      #001=QQ_CMDFLAGS_D File=QQ_CMDFLAGS_D.:E05TSI                      WED 07/30/97 05:43 Page:10
       24     1043           kept for each command examine the CMD_FLAGS macro. */
       25     1044
       26     1045    1   DCL 1 QQ_CMDFLAGS STATIC SYMDEF,
       27     1046    1         2 INFOS,
       28     1047
       29     1048        %CMD_FLAGS /* UNUSED */;
       30     1093
       31     1094        %CMD_FLAGS(TREE=0) /* NULL */;
       32     1139
       33     1140        %CMD_FLAGS (RUNONLY=YES, CONSOLESOK=NO, TREE=1, NOTIMP=YES) /* ACCEPT */;
       34     1185
       35     1186        %CMD_FLAGS (RUNONLY=YES, CONSOLESOK=NO, TREE=1) /* ASSIST */;
       36     1231
       37     1232        %CMD_FLAGS (RUNONLY=YES, CONSOLESOK=NO, TREE=1) /* BEGIN */;
       38     1277
       39     1278        %CMD_FLAGS (RUNONLY=YES, CONSOLESOK=NO, TREE=0) /* BYE */;
       40     1323
       41     1324        %CMD_FLAGS (PASS=1, TREE=1) /* CANCEL */;
       42     1369
       43     1370        %CMD_FLAGS (PASS=1, TREE=1) /* CHECK */;
       44     1415
       45     1416        %CMD_FLAGS (RUNONLY=YES, CONSOLESOK=NO, TREE=1) /* DEBUG */;
       46     1461
       47     1462        %CMD_FLAGS (PASS=1,  TREE=1) /* DELIVER */;
       48     1507
       49     1508        %CMD_FLAGS (PASS=1, PRIVREQ=YES, TREE=2) /* DISABLE */;
       50     1553
       51     1554        %CMD_FLAGS (PASS=1, PRIVREQ=YES, TREE=2) /* DISPLAY */;
       52     1599
       53     1600        %CMD_FLAGS (PASS=1, PRIVREQ=YES, TREE=2) /* ENABLE */;
       54     1645
       55     1646        %CMD_FLAGS (PASS=1, TREE=1) /* HOLD */;
       56     1691
       57     1692        %CMD_FLAGS (PASS=1, TREE=1) /* ERASE */;
       58     1737
       59     1738        %CMD_FLAGS (RUNONLY=YES, CONSOLESOK=NO, TREE=1, NOTIMP=NO) /* HELP */;
       60     1783
PL6.E3A0      #001=QQ_CMDFLAGS_D File=QQ_CMDFLAGS_D.:E05TSI                      WED 07/30/97 05:43 Page:11
       61     1784        %CMD_FLAGS (RUNONLY=YES, PRIVREQ=YES, TREE=2) /* KILL */;
       62     1829
       63     1830        %CMD_FLAGS (PASS=0, TREE=2) /* LET */;
       64     1875
       65     1876        %CMD_FLAGS (PASS=0, PRIVREQ=YES, ONCEONLY=YES,
       66     1877        TYPE=LOGL, DATA$="QQ_GLOBAL.ACCOUNTING") /* LET_ACCOUNTING */;
       67     1922
       68     1923        %CMD_FLAGS (PASS=0, INITONLY=YES, ONCEONLY=YES,
       69     1924        TYPE=UBIN, DATA$="QQ_GLOBAL.CGPAGEMAX") /* LET_CGPAGEMAX */;
       70     1969
       71     1970        %CMD_FLAGS (PASS=0, INITONLY=YES, ONCEONLY=YES,
       72     1971        TYPE=UBIN, DATA$="QQ_GLOBAL.CGPAGEMIN") /* LET_CGPAGEMIN */;
       73     2016
       74     2017        %CMD_FLAGS (PASS=0, INITONLY=YES, ONCEONLY=YES,
       75     2018        TYPE=UBIN, DATA$="QQ_GLOBAL.CGSIZEMAX") /* LET_CGSIZEMAX */;
       76     2063
       77     2064        %CMD_FLAGS (PASS=0, PRIVREQ=YES, ONCEONLY=YES,
       78     2065        TYPE=LOGL, DATA$="QQ_GLOBAL.DCBCON") /* LET_DCBCON */;
       79     2110
       80     2111        %CMD_FLAGS (PASS=0, PRIVREQ=YES, ONCEONLY=YES,
       81     2112        INHIBPRINT=YES, TYPE=LOGL, DATA$="QQ_GLOBAL.HISTORY") /* LET_HISTORY */;
       82     2157
       83     2158        %CMD_FLAGS (PASS=0, INITONLY=YES, ONCEONLY=YES,
       84     2159        TYPE=UBIN, DATA$="QQ_GLOBAL.IXTNSIZE") /* LET_IXTNSIZE */;
       85     2204
       86     2205        %CMD_FLAGS (PASS=0, INITONLY=YES, ONCEONLY=YES,
       87     2206        TYPE=LOGL, DATA$="QQ_GLOBAL.JOURNAL") /* LET_JOURNAL */;
       88     2251
       89     2252        %CMD_FLAGS (PASS=0, ONCEONLY=YES, CONSOLESONLY=YES,
       90     2253        RUNONLY=YES, TYPE=LOGL, DATA$="QQ_GLOBAL.LOG") /* LET_LOG */;
       91     2298
       92     2299        %CMD_FLAGS (PASS=0, PRIVREQ=YES, ONCEONLY=YES,
       93     2300        LEN=8, TYPE=CHAR, DATA$="QQ_GLOBAL.MCTID") /* LET_MCTID */;
       94     2345
       95     2346        %CMD_FLAGS (PASS=0, INITONLY=YES, ONCEONLY=YES,
       96     2347        TYPE=LOGL, DATA$="QQ_GLOBAL.NEWCG") /* LET_NEWCG */;
       97     2392
PL6.E3A0      #001=QQ_CMDFLAGS_D File=QQ_CMDFLAGS_D.:E05TSI                      WED 07/30/97 05:43 Page:12
       98     2393        %CMD_FLAGS (PASS=0, INITONLY=YES, ONCEONLY=YES,
       99     2394        TYPE=UBIN, DATA$="QQ_GLOBAL.POOLSIZE") /* LET_POOLSIZE */;
      100     2439
      101     2440        %CMD_FLAGS (PASS=0, INITONLY=YES, ONCEONLY=YES,
      102     2441        TYPE=UBIN, DATA$="QQ_GLOBAL.CGDISKWARN") /* LET_CGDISKWARN */;
      103     2486
      104     2487
      105     2488        %CMD_FLAGS (PASS=0, PRIVREQ=YES, ONCEONLY=YES,
      106     2489        TYPE=UBIN, DATA$="QQ_GLOBAL.STATIONMAX") /* LET_STATIONMAX */;
      107     2534
      108     2535        %CMD_FLAGS (PASS=0, INITONLY=YES, ONCEONLY=YES,
      109     2536        TYPE=UBIN, DATA$="QQ_GLOBAL.CGMEMWARN") /* LET_CGMEMWARN */;
      110     2581
      111     2582
      112     2583        %CMD_FLAGS (PASS=0, INITONLY=YES, ONCEONLY=YES,
      113     2584        TYPE=TEXTC, DATA$="QQ_GLOBAL.TPCP_RU") /* LET_TPCPRU */;
      114     2629
      115     2630        %CMD_FLAGS (PASS=0, INITONLY=YES, ONCEONLY=YES,
      116     2631        TYPE=UBIN, DATA$="QQ_GLOBAL.TPUINITIAL") /* LET_TPUINITIAL */;
      117     2676
      118     2677        %CMD_FLAGS (PASS=0, PRIVREQ=YES, ONCEONLY=YES,
      119     2678        TYPE=UBIN, DATA$="QQ_GLOBAL.TPUMAX") /* LET_TPUMAX */;
      120     2723
      121     2724        %CMD_FLAGS (PASS=0, PRIVREQ=YES, ONCEONLY=YES,
      122     2725        TYPE=UBIN, DATA$="QQ_GLOBAL.TPUMIN") /* LET_TPUMIN */;
      123     2770
      124     2771        %CMD_FLAGS (PASS=0, INITONLY=YES, ONCEONLY=YES,
      125     2772        TYPE=TEXTC, DATA$="QQ_GLOBAL.CFP_RU.NAME") /* LET_CFPRU */;
      126     2817
      127     2818        %CMD_FLAGS (PASS=0, PRIVREQ=YES, ONCEONLY=YES,
      128     2819        TYPE=UBIN, DATA$="QQ_GLOBAL.XTNSIZE") /* LET_XTNSIZE */;
      129     2864
      130     2865        %CMD_FLAGS (PASS=0, PRIVREQ=YES, ONCEONLY=YES,
      131     2866        LEN=120, TYPE=CHAR ) /* LET_TPHEADER */;
      132     2911        %CMD_FLAGS (RUNONLY=YES, CONSOLESOK=NO, TREE=0) /* OFF */;
      133     2956
      134     2957        %CMD_FLAGS (RUNONLY=YES, CONSOLESOK=NO, TREE=1) /* PASSWORD */;
PL6.E3A0      #001=QQ_CMDFLAGS_D File=QQ_CMDFLAGS_D.:E05TSI                      WED 07/30/97 05:43 Page:13
      135     3002
      136     3003        %CMD_FLAGS (PASS=1, TREE=1) /* PRIORITY */;
      137     3048
      138     3049        %CMD_FLAGS (RUNONLY=YES, CONSOLESOK=NO, TREE=1, NOTIMP=NO ) /* PROFILE */;
      139     3094
      140     3095        %CMD_FLAGS (PASS=0, PRIVREQ=YES, TREE=2) /* READ */;
      141     3140
      142     3141        %CMD_FLAGS (PASS=1, TREE=1) /* RELEASE */;
      143     3186
      144     3187        %CMD_FLAGS (RUNONLY=YES, TREE=1, NOTIMP=YES) /* SHOW */;
      145     3232
      146     3233        %CMD_FLAGS (RUNONLY=YES, PRIVREQ=YES, TREE=2) /* SPY */;
      147     3278
      148     3279        %CMD_FLAGS (RUNONLY=YES, PRIVREQ=YES, TREE=2) /* STATS */;
      149     3324
      150     3325        %CMD_FLAGS (RUNONLY=YES, PRIVREQ=YES, TREE=0, NOTIMP=YES) /* STATUS */;
      151     3370
      152     3371        %CMD_FLAGS (RUNONLY=YES, PRIVREQ=YES, TREE=2) /* STOPTP */;
      153     3416
      154     3417        %CMD_FLAGS  (PASS=1, PRIVREQ=YES, TREE=2) /* TRANSACTION */;
      155     3462
      156     3463        %CMD_FLAGS (RUNONLY=YES, TREE=0, NOTIMP=NO) /* ? */;
      157     3508
      158     3509        %CMD_FLAGS (RUNONLY=YES, TREE=0, NOTIMP=NO) /* ?? */;
      159     3554
      160     3555        %CMD_FLAGS (TREE=0, NOTIMP=NO) /* TIME */;
      161     3600
      162     3601        %CMD_FLAGS (TREE=2,PRIVREQ=YES,PASS=1) /* ERSEND  */;
      163     3646
      164     3647        %CMD_FLAGS (TREE=1,RUNONLY=YES,CONSOLESOK=NO) /* START */;
      165     3692
      166     3693        %CMD_FLAGS (TREE=1,RUNONLY=YES,CONSOLESOK=NO) /* RUNUNIT */;
      167     3738
      168     3739        %CMD_FLAGS (TREE=1,RUNONLY=YES,CONSOLESOK=NO) /* UNDER  */;
      169     3784
      170     3785        %CMD_FLAGS (PASS=1, TREE=1) /* MESSAGE */;
      171     3830
PL6.E3A0      #001=QQ_CMDFLAGS_D File=QQ_CMDFLAGS_D.:E05TSI                      WED 07/30/97 05:43 Page:14
      172     3831    1           2 INFO(0:59 /* HIGH_CMD */) REDEF INFOS,
      173     3832                    %CMD_FLAGS(STCLASS=, LVL=3, LAST=";");
      174     3877    1   END QQ_CMDFLAGS_D;

PL6.E3A0      #001=QQ_CMDFLAGS_D File=QQ_CMDFLAGS_D.:E05TSI                      WED 07/30/97 05:43 Page:15
--  Include file information  --

   QQ_SUBS_C.:E05TOU  is referenced.
   QQ_DATA_R.:E05TOU  cannot be made into a system file and is referenced.
   QQ_MACROS_C.:E05TOU  is referenced.
   CP_6.:E05TOU  cannot be made into a system file and is referenced.
   Q_PAGE_C.:E05TOU  is referenced.
   B$JIT_C.:E05TOU  was found in the system file and is never referenced.
   CP_6_C.:E05TOU  was found in the system file and is referenced.
      No diagnostics issued in procedure QQ_CMDFLAGS_D.
PL6.E3A0      #001=QQ_CMDFLAGS_D File=QQ_CMDFLAGS_D.:E05TSI                      WED 07/30/97 05:43 Page:16

 **** Variables and constants ****

  ****  SYMREF variables  ****

  ****  Scalars and arrays  ****
OctLoc.c.b A Datatyp(siz) R M Lvl/name                 OctLoc.c.b A Datatyp(siz) R M Lvl/name

     0-0-0/d STRC(9090)  r     1 QQ_GLOBAL


   No code generated for procedure QQ_CMDFLAGS_D .
   Procedure QQ_CMDFLAGS_D requires 4 words of local(AUTO) storage.

    No errors detected in file QQ_CMDFLAGS_D.:E05TSI    .
PL6.E3A0      #001=QQ_CMDFLAGS_D File=QQ_CMDFLAGS_D.:E05TSI                      WED 07/30/97 05:43 Page:17
          *** CROSS REFERENCE LISTING ***
**     DENOTES     IDENTIFIER DEFINITION
<<                 IDENTIFIER'S VALUE SET
>>                 IDENTIFIER'S VALUE USED
<>                 IDENTIFIER SET AND/OR USED
--                 IDENTIFIER REFERENCED
PL6.E3A0      #001=QQ_CMDFLAGS_D File=QQ_CMDFLAGS_D.:E05TSI                      WED 07/30/97 05:43 Page:18
          MINI XREF LISTING

QQ_CMDFLAGS.INFOS
      1046**DCL      3831--REDEF
QQ_GLOBAL.ACCOUNTING
       585**DCL      1919--DCLINIT
QQ_GLOBAL.CFP_RU.NAME
       673**DCL      2814--DCLINIT
QQ_GLOBAL.CGDISKWARN
       588**DCL      2483--DCLINIT
QQ_GLOBAL.CGMEMWARN
       589**DCL      2578--DCLINIT
QQ_GLOBAL.CGPAGEMAX
       588**DCL      1966--DCLINIT
QQ_GLOBAL.CGPAGEMIN
       588**DCL      2013--DCLINIT
QQ_GLOBAL.CGSIZEMAX
       588**DCL      2060--DCLINIT
QQ_GLOBAL.DCBCON
       587**DCL      2107--DCLINIT
QQ_GLOBAL.DS1$_BITS
       595**DCL       595--REDEF
QQ_GLOBAL.DS2$_BITS
       595**DCL       596--REDEF
QQ_GLOBAL.DS3$_BITS
       596**DCL       596--REDEF
QQ_GLOBAL.DS4$_BITS
       596**DCL       597--REDEF
QQ_GLOBAL.HISTORY
       586**DCL      2154--DCLINIT
QQ_GLOBAL.IXTNSIZE
       593**DCL      2201--DCLINIT
QQ_GLOBAL.JOURNAL
       586**DCL      2248--DCLINIT
PL6.E3A0      #001=QQ_CMDFLAGS_D File=QQ_CMDFLAGS_D.:E05TSI                      WED 07/30/97 05:43 Page:19
QQ_GLOBAL.LOG
       586**DCL      2295--DCLINIT
QQ_GLOBAL.MCTID
       672**DCL      2342--DCLINIT
QQ_GLOBAL.NEWCG
       587**DCL      2389--DCLINIT
QQ_GLOBAL.POOLSIZE
       592**DCL      2436--DCLINIT
QQ_GLOBAL.STATIONMAX
       589**DCL      2531--DCLINIT
QQ_GLOBAL.TPCP_RU
       672**DCL      2626--DCLINIT
QQ_GLOBAL.TPUINITIAL
       588**DCL      2673--DCLINIT
QQ_GLOBAL.TPUMAX
       589**DCL      2720--DCLINIT
QQ_GLOBAL.TPUMIN
       589**DCL      2767--DCLINIT
QQ_GLOBAL.XTNSIZE
       594**DCL      2861--DCLINIT
