VERSION E05

PL6.E3A0      #001=QTA$INIT File=QTA$INIT.:E05TSI                                WED 07/30/97 05:45 Page:1
        1        1        /*M* QTA$INIT - TRADER initialization */
        2        2        /*T***********************************************************/
        3        3        /*T*                                                         */
        4        4        /*T* Copyright (c) Bull HN Information Systems Inc., 1997    */
        5        5        /*T*                                                         */
        6        6        /*T***********************************************************/
        7        7        /*X* IND=2, DCI=4, CSU=2, ECU=4, DTI=2, CTI=4, AND */
        8        8        QTA$INIT:
        9        9                PROC;
       10       10
       11       11        %INCLUDE Q_PAGE_C;
       12       43        %SET LISTEXP = '1'B;
       13       44        %PAGE(ARG="Includes");

                61        /***************************************************************************
                62         *                                                                         *
                63         *                                  Includes                               *
                64         *                                                                         *
                65         ***************************************************************************/

       14       69        %INCLUDE QT_DATA_R;
       15       83        %INCLUDE Q_ERRCODE_C;
       16      106        %INCLUDE CP_6;
       17      187        %INCLUDE QT_PERR_C;
       18      238        %INCLUDE XU_MACRO_C;
       19     3344        %PAGE(ARG="Externally defined routines");

              3361    1   /***************************************************************************
              3362    1    *                                                                         *
              3363    1    *                        Externally defined routines                      *
              3364    1    *                                                                         *
              3365    1    ***************************************************************************/

       20     3369    1   DCL QTC$GETMEM ENTRY(2);
       21     3370        %INCLUDE XUR_ENTRY;
       22     3402    1   DCL QTA$XCON ENTRY ASYNC;
       23     3403        %PAGE(ARG="DCBs");
PL6.E3A0      #001=QTA$INIT File=QTA$INIT.:E05TSI                                WED 07/30/97 05:45 Page:2

              3420    1   /***************************************************************************
              3421    1    *                                                                         *
              3422    1    *                                    DCBs                                 *
              3423    1    *                                                                         *
              3424    1    ***************************************************************************/

       24     3428    1   DCL M$DO DCB;
       25     3429    1   DCL M$SI DCB;
       26     3430    1   DCL M$TRADER DCB;
       27     3431        %PAGE(ARG="Constants");

              3448    1   /***************************************************************************
              3449    1    *                                                                         *
              3450    1    *                                 Constants                               *
              3451    1    *                                                                         *
              3452    1    ***************************************************************************/

       28     3456        %VLP_NAME(FPTN=QQERRMSG, STCLASS=CONSTANT, NAME=':QQERRMSG.:SYS         ');
       29     3483        %XUR_INIT(STCLASS=CONSTANT);
       30     3582        %PAGE(ARG="Error codes", PAGE=YES);

PL6.E3A0      #001=QTA$INIT File=QTA$INIT.:E05TSI                                WED 07/30/97 05:45 Page:3
              3599    1   /***************************************************************************
              3600    1    *                                                                         *
              3601    1    *                                Error codes                              *
              3602    1    *                                                                         *
              3603    1    ***************************************************************************/

       31     3607    1   DCL B_VERSION CHAR (1) SYMREF;
       32     3608    1   DCL 1 B$VERSIONB BASED,
       33     3609    1         2 C_ UBIN BYTE CALIGNED,
       34     3610    1         2 T_ CHAR (B$VERSIONB.C_) CALIGNED;
       35     3611
       36     3612        %FPT_WRITE(FPTN=GREETING,
       37     3613                   DCB =M$GREETING,
       38     3614                   BUF =OUTLINE,
       39     3615                   WAIT=YES);
       40     3646
       41     3647    1   DCL M$GREETING DCB;
       42     3648    1   DCL OUTLINE CHAR (80) STATIC CALIGNED INIT(' ');
       43     3649
       44     3650        %PAGE(ARG="FPTs", PAGE=YES);

PL6.E3A0      #001=QTA$INIT File=QTA$INIT.:E05TSI                                WED 07/30/97 05:45 Page:4
              3667    1   /***************************************************************************
              3668    1    *                                                                         *
              3669    1    *                                    FPTs                                 *
              3670    1    *                                                                         *
              3671    1    ***************************************************************************/

       45     3675        %FPT_INT(UENTRY=QTA$XCON);
       46     3689
       47     3690        %FPT_XCON(UENTRY=QTA$XCON);
       48     3704        %PAGE(ARG="QTA$INIT", PAGE=YES);

PL6.E3A0      #001=QTA$INIT File=QTA$INIT.:E05TSI                                WED 07/30/97 05:45 Page:5
              3721    1   /***************************************************************************
              3722    1    *                                                                         *
              3723    1    *                                  QTA$INIT                               *
              3724    1    *                                                                         *
              3725    1    ***************************************************************************/

       49     3729    1           CALL M$XCON(FPT_XCON);
       50     3730    1           CALL M$INT(FPT_INT);
       51     3731
       52     3732    1           CALL XUR$INIT(XUR_INIT, QT_GLOBAL.P$PCB$);
       53     3733    1           CALL XUR$SETERRMSG(QQERRMSG);
       54     3734    1           CALL CONCAT(OUTLINE,'TRADER ',ADDR(B_VERSION)->
       55     3735    1               B$VERSIONB.T_,' here');
       56     3736    1           CALL M$WRITE(GREETING);
       57     3737
       58     3738
       59     3739    1           QT_GLOBAL.M$TRADER$ = DCBADDR(DCBNUM(M$TRADER));
       60     3740    1           QT_GLOBAL.M$DO# = DCBNUM(M$DO);
       61     3741
       62     3742    1           CALL QTC$GETMEM(QT_GLOBAL.QT$ENTRY$, QT_GLOBAL.QT$ENTRY_SIZE);
       63     3743    1           CALL QTC$GETMEM(QT_GLOBAL.QT$SETTEXT$, QT_GLOBAL.QT$SETTEXT_SIZE);
       64     3744    1           CALL QTC$GETMEM(QT_GLOBAL.AMR$FPT_OPEN$, QT_GLOBAL.AMR$FPT_OPEN_SIZE);
       65     3745
       66     3746    1           QT_GLOBAL.QT$FORM$ = QT_GLOBAL.QT$ENTRY$;
       67     3747
       68     3748    1           RETURN;
       69     3749
       70     3750    1   END QTA$INIT;

PL6.E3A0      #001=QTA$INIT File=QTA$INIT.:E05TSI                                WED 07/30/97 05:45 Page:6
--  Include file information  --

   XUR_ENTRY.:E05TOU  cannot be made into a system file and is referenced.
   XU_MACRO_C.:E05TOU  is referenced.
   QT_PERR_C.:E05TOU  is referenced.
   CP_6.:E05TOU  cannot be made into a system file and is referenced.
   Q_ERRCODE_C.:E05TOU  is referenced.
   QT_DATA_R.:E05TOU  cannot be made into a system file and is referenced.
   Q_PAGE_C.:E05TOU  is referenced.
   B$JIT_C.:E05TOU  was found in the system file and is never referenced.
   CP_6_C.:E05TOU  was found in the system file and is referenced.
      No diagnostics issued in procedure QTA$INIT.

   Procedure QTA$INIT requires 57 words for executable code.
   Procedure QTA$INIT requires 4 words of local(AUTO) storage.

    No errors detected in file QTA$INIT.:E05TSI    .

PL6.E3A0      #001=QTA$INIT File=QTA$INIT.:E05TSI                                WED 07/30/97 05:45 Page:7

 Object Unit name= QTA$INIT                                   File name= QTA$INIT.:E05TOU
 UTS= JUL 30 '97 05:45:08.96 WED                              Compiler= PL-6/E31         Sev=      00
 SharedLib= :SHARED_SYSTEM                                    Alt SharedLib=


    ****  Control sections  ****

 Sect   Type Bound  Init  Size OctSiz  Section name(segment info)
    0   DCB   even  none     0      0  M$UC
    1   DCB   even  none     0      0  M$DO
    2   DCB   even  none     0      0  M$SI
    3   DCB   even  none     0      0  M$TRADER
    4  RoData even  UTS     50     62  QTA$INIT
    5   Data  even  none    42     52  QTA$INIT
    6   DCB   even  none     0      0  M$GREETING
    7   Proc  even  none    57     71  QTA$INIT
    8  RoData even  none    10     12  QTA$INIT

    ****  Entry defs  ****

                              Check   Calling
                             calling  sequence
  Sect OctLoc Primary Altret sequence   type   Parms  Name
     7      0   yes            yes      Std        0  QTA$INIT
PL6.E3A0      #001=QTA$INIT File=QTA$INIT.:E05TSI                                WED 07/30/97 05:45 Page:8

  ****  Entry refs  ****

         Check        Calling
        calling       sequence
Altret sequence SRef   type   Args  Name
 yes     yes           Std       2 XTX$ADAPT
         yes          Async      0 QTA$XCON
         yes           Std       2 QTC$GETMEM
 yes     yes           Std       3 XUR$INIT
 yes     yes           Std       1 XUR$SETERRMSG
                       nStd      0 X66_AUTO_0
                       Std       0 B_CONSPOOL_D
                       nStd      0 X66_ARET

  ****  Data refs  ****

  Flags:  r = read only, s = secondary
Flgs Name                             Flgs Name                             Flgs Name
     QT_GLOBAL                             M$UC                                  M$DO
     M$SI                                  M$TRADER                              B_VERSION
     M$GREETING                            B_VECTNIL

  ****  Segment refs  ****

  Flags:  r = read only, s = secondary
Flgs Name                             Flgs Name                             Flgs Name
     NULLSID                               ISSID                                 ROSID
PL6.E3A0      #001=QTA$INIT File=QTA$INIT.:E05TSI                                WED 07/30/97 05:45 Page:9


        1        1        /*M* QTA$INIT - TRADER initialization */
        2        2        /*T***********************************************************/
        3        3        /*T*                                                         */
        4        4        /*T* Copyright (c) Bull HN Information Systems Inc., 1997    */
        5        5        /*T*                                                         */
        6        6        /*T***********************************************************/
        7        7        /*X* IND=2, DCI=4, CSU=2, ECU=4, DTI=2, CTI=4, AND */
        8        8        QTA$INIT:
        9        9                PROC;

      9  7 000000   000000 700200 xent  QTA$INIT     TSX0  ! X66_AUTO_0
         7 000001   000004 000000                    ZERO    4,0

       10       10
       11       11        %INCLUDE Q_PAGE_C;
       12       43        %SET LISTEXP = '1'B;
       13       44        %PAGE(ARG="Includes");

                61        /***************************************************************************
                62         *                                                                         *
                63         *                                  Includes                               *
                64         *                                                                         *
                65         ***************************************************************************/

       14       69        %INCLUDE QT_DATA_R;
       15       83        %INCLUDE Q_ERRCODE_C;
       16      106        %INCLUDE CP_6;
       17      187        %INCLUDE QT_PERR_C;
       18      238        %INCLUDE XU_MACRO_C;
       19     3344        %PAGE(ARG="Externally defined routines");

              3361    1   /***************************************************************************
              3362    1    *                                                                         *
              3363    1    *                        Externally defined routines                      *
              3364    1    *                                                                         *
              3365    1    ***************************************************************************/
PL6.E3A0      #001=QTA$INIT File=QTA$INIT.:E05TSI                                WED 07/30/97 05:45 Page:10

       20     3369    1   DCL QTC$GETMEM ENTRY(2);
       21     3370        %INCLUDE XUR_ENTRY;
       22     3402    1   DCL QTA$XCON ENTRY ASYNC;
       23     3403        %PAGE(ARG="DCBs");

              3420    1   /***************************************************************************
              3421    1    *                                                                         *
              3422    1    *                                    DCBs                                 *
              3423    1    *                                                                         *
              3424    1    ***************************************************************************/

       24     3428    1   DCL M$DO DCB;
       25     3429    1   DCL M$SI DCB;
       26     3430    1   DCL M$TRADER DCB;
       27     3431        %PAGE(ARG="Constants");

              3448    1   /***************************************************************************
              3449    1    *                                                                         *
              3450    1    *                                 Constants                               *
              3451    1    *                                                                         *
              3452    1    ***************************************************************************/

       28     3456        %VLP_NAME(FPTN=QQERRMSG, STCLASS=CONSTANT, NAME=':QQERRMSG.:SYS         ');
       29     3483        %XUR_INIT(STCLASS=CONSTANT);
       30     3582        %PAGE(ARG="Error codes", PAGE=YES);

PL6.E3A0      #001=QTA$INIT File=QTA$INIT.:E05TSI                                WED 07/30/97 05:45 Page:11
              3599    1   /***************************************************************************
              3600    1    *                                                                         *
              3601    1    *                                Error codes                              *
              3602    1    *                                                                         *
              3603    1    ***************************************************************************/

       31     3607    1   DCL B_VERSION CHAR (1) SYMREF;
       32     3608    1   DCL 1 B$VERSIONB BASED,
       33     3609    1         2 C_ UBIN BYTE CALIGNED,
       34     3610    1         2 T_ CHAR (B$VERSIONB.C_) CALIGNED;
       35     3611
       36     3612        %FPT_WRITE(FPTN=GREETING,
       37     3613                   DCB =M$GREETING,
       38     3614                   BUF =OUTLINE,
       39     3615                   WAIT=YES);
       40     3646
       41     3647    1   DCL M$GREETING DCB;
       42     3648    1   DCL OUTLINE CHAR (80) STATIC CALIGNED INIT(' ');
       43     3649
       44     3650        %PAGE(ARG="FPTs", PAGE=YES);

PL6.E3A0      #001=QTA$INIT File=QTA$INIT.:E05TSI                                WED 07/30/97 05:45 Page:12
              3667    1   /***************************************************************************
              3668    1    *                                                                         *
              3669    1    *                                    FPTs                                 *
              3670    1    *                                                                         *
              3671    1    ***************************************************************************/

       45     3675        %FPT_INT(UENTRY=QTA$XCON);
       46     3689
       47     3690        %FPT_XCON(UENTRY=QTA$XCON);
       48     3704        %PAGE(ARG="QTA$INIT", PAGE=YES);

PL6.E3A0      #001=QTA$INIT File=QTA$INIT.:E05TSI                                WED 07/30/97 05:45 Page:13
              3721    1   /***************************************************************************
              3722    1    *                                                                         *
              3723    1    *                                  QTA$INIT                               *
              3724    1    *                                                                         *
              3725    1    ***************************************************************************/

       49     3729    1           CALL M$XCON(FPT_XCON);

   3729  7 000002   000044 630400 5                  EPPR0   FPT_XCON
         7 000003   010003 713400                    CLIMB   4099
         7 000004   400400 401760                    pmme    nvectors=2

       50     3730    1           CALL M$INT(FPT_INT);

   3730  7 000005   000040 630400 5                  EPPR0   FPT_INT
         7 000006   010002 713400                    CLIMB   4098
         7 000007   400000 401760                    pmme    nvectors=1

       51     3731
       52     3732    1           CALL XUR$INIT(XUR_INIT, QT_GLOBAL.P$PCB$);

   3732  7 000010   000000 630400 8                  EPPR0   0
         7 000011   000020 631400 xsym               EPPR1   B_VECTNIL+16
         7 000012   000000 701000 xent               TSX1    XUR$INIT
         7 000013   000000 011000                    NOP     0

       53     3733    1           CALL XUR$SETERRMSG(QQERRMSG);

   3733  7 000014   000002 630400 8                  EPPR0   2
         7 000015   000017 631400 xsym               EPPR1   B_VECTNIL+15
         7 000016   000000 701000 xent               TSX1    XUR$SETERRMSG
         7 000017   000000 011000                    NOP     0

       54     3734    1           CALL CONCAT(OUTLINE,'TRADER ',ADDR(B_VERSION)->

   3734  7 000020   000000 236000 xsym               LDQ     B_VERSION
         7 000021   000033 772000                    QRL     27
PL6.E3A0      #001=QTA$INIT File=QTA$INIT.:E05TSI                                WED 07/30/97 05:45 Page:14
         7 000022   040000 100400                    MLR     fill='040'O
         7 000023   000056 000007 4                  ADSC9   XUR_INIT+40              cn=0,n=7
         7 000024   000014 000007 5                  ADSC9   OUTLINE                  cn=0,n=7
         7 000025   000000 620006                    EAX0    0,QL
         7 000026   040000 100440                    MLR     fill='040'O
         7 000027   000000 200010 xsym               ADSC9   B_VERSION                cn=1,n=*X0
         7 000030   000015 600111 5                  ADSC9   OUTLINE+1                cn=3,n=73
         7 000031   000111 116007                    CMPQ    73,DL
         7 000032   000040 603000 7                  TRC     s:3736
         7 000033   777666 621006                    EAX1    -74,QL
         7 000034   777777 661003                    ERX1    -1,DU
         7 000035   040046 100400                    MLR     fill='040'O
         7 000036   000060 000005 4                  ADSC9   XUR_INIT+42              cn=0,n=5
         7 000037   000015 600011 5                  ADSC9   OUTLINE+1,Q              cn=3,n=*X1

       55     3735    1               B$VERSIONB.T_,' here');
       56     3736    1           CALL M$WRITE(GREETING);

   3736  7 000040   000000 630400 5                  EPPR0   GREETING
         7 000041   040001 713400                    CLIMB   write
         7 000042   401400 401760                    pmme    nvectors=4

       57     3737
       58     3738
       59     3739    1           QT_GLOBAL.M$TRADER$ = DCBADDR(DCBNUM(M$TRADER));

   3739  7 000043   000000 236007 xsym               LDQ     M$TRADER,DL
         7 000044   000003 470400 8                  LDP0    3
         7 000045   000000 471500                    LDP1    0,,PR0
         7 000046   100000 236106                    LDQ     0,QL,PR1
         7 000047   000034 756000 xsym               STQ     QT_GLOBAL+28

       60     3740    1           QT_GLOBAL.M$DO# = DCBNUM(M$DO);

   3740  7 000050   000000 236007 xsym               LDQ     M$DO,DL
         7 000051   000035 756000 xsym               STQ     QT_GLOBAL+29

PL6.E3A0      #001=QTA$INIT File=QTA$INIT.:E05TSI                                WED 07/30/97 05:45 Page:15
       61     3741
       62     3742    1           CALL QTC$GETMEM(QT_GLOBAL.QT$ENTRY$, QT_GLOBAL.QT$ENTRY_SIZE);

   3742  7 000052   000004 630400 8                  EPPR0   4
         7 000053   000020 631400 xsym               EPPR1   B_VECTNIL+16
         7 000054   000000 701000 xent               TSX1    QTC$GETMEM
         7 000055   000000 011000                    NOP     0

       63     3743    1           CALL QTC$GETMEM(QT_GLOBAL.QT$SETTEXT$, QT_GLOBAL.QT$SETTEXT_SIZE);

   3743  7 000056   000006 630400 8                  EPPR0   6
         7 000057   000020 631400 xsym               EPPR1   B_VECTNIL+16
         7 000060   000000 701000 xent               TSX1    QTC$GETMEM
         7 000061   000000 011000                    NOP     0

       64     3744    1           CALL QTC$GETMEM(QT_GLOBAL.AMR$FPT_OPEN$, QT_GLOBAL.AMR$FPT_OPEN_SIZE);

   3744  7 000062   000010 630400 8                  EPPR0   8
         7 000063   000020 631400 xsym               EPPR1   B_VECTNIL+16
         7 000064   000000 701000 xent               TSX1    QTC$GETMEM
         7 000065   000000 011000                    NOP     0

       65     3745
       66     3746    1           QT_GLOBAL.QT$FORM$ = QT_GLOBAL.QT$ENTRY$;

   3746  7 000066   000031 236000 xsym               LDQ     QT_GLOBAL+25
         7 000067   000033 756000 xsym               STQ     QT_GLOBAL+27

       67     3747
       68     3748    1           RETURN;

   3748  7 000070   000000 702200 xent               TSX2  ! X66_ARET
       69     3749
       70     3750    1   END QTA$INIT;

PL6.E3A0      #001=QTA$INIT File=QTA$INIT.:E05TSI                                WED 07/30/97 05:45 Page:16
--  Include file information  --

   XUR_ENTRY.:E05TOU  cannot be made into a system file and is referenced.
   XU_MACRO_C.:E05TOU  is referenced.
   QT_PERR_C.:E05TOU  is referenced.
   CP_6.:E05TOU  cannot be made into a system file and is referenced.
   Q_ERRCODE_C.:E05TOU  is referenced.
   QT_DATA_R.:E05TOU  cannot be made into a system file and is referenced.
   Q_PAGE_C.:E05TOU  is referenced.
   B$JIT_C.:E05TOU  was found in the system file and is never referenced.
   CP_6_C.:E05TOU  was found in the system file and is referenced.
      No diagnostics issued in procedure QTA$INIT.
PL6.E3A0      #001=QTA$INIT File=QTA$INIT.:E05TSI                                WED 07/30/97 05:45 Page:17

 **** Variables and constants ****

  ****  Section 004 RoData QTA$INIT

  ****  Scalars and arrays  ****
OctLoc.c.b A Datatyp(siz) R M Lvl/name                 OctLoc.c.b A Datatyp(siz) R M Lvl/name

     0-0-0/c STRC(216)   r     1 QQERRMSG                   6-0-0/d STRC(1404)  r     1 XUR_INIT

  ****  Section 005  Data  QTA$INIT

  ****  Scalars and arrays  ****
OctLoc.c.b A Datatyp(siz) R M Lvl/name                 OctLoc.c.b A Datatyp(siz) R M Lvl/name

    40-0-0/d STRC(144)   r     1 FPT_INT                   44-0-0/d STRC(216)   r     1 FPT_XCON
     0-0-0/d STRC(432)   r     1 GREETING                  14-0-0/c CHAR(80)    r     1 OUTLINE

  ****  SYMREF variables  ****

  ****  Scalars and arrays  ****
OctLoc.c.b A Datatyp(siz) R M Lvl/name                 OctLoc.c.b A Datatyp(siz) R M Lvl/name

     0-0-0/c CHAR        r     1 B_VERSION                  0-0-0/w STRC(1872)  r     1 QT_GLOBAL

  ****  BASED and DCB variables  ****

  ****  Scalars and arrays  ****
OctLoc.c.b A Datatyp(siz) R M Lvl/name                 OctLoc.c.b A Datatyp(siz) R M Lvl/name

     0-0-0/c ASTR(9)     r     1 B$VERSIONB                 0-0-0N  NULL        r     1 M$DO
     0-0-0N  NULL        r     1 M$GREETING                 0-0-0N  NULL        r     1 M$TRADER


   Procedure QTA$INIT requires 57 words for executable code.
   Procedure QTA$INIT requires 4 words of local(AUTO) storage.
PL6.E3A0      #001=QTA$INIT File=QTA$INIT.:E05TSI                                WED 07/30/97 05:45 Page:18

    No errors detected in file QTA$INIT.:E05TSI    .
PL6.E3A0      #001=QTA$INIT File=QTA$INIT.:E05TSI                                WED 07/30/97 05:45 Page:19
          *** CROSS REFERENCE LISTING ***
**     DENOTES     IDENTIFIER DEFINITION
<<                 IDENTIFIER'S VALUE SET
>>                 IDENTIFIER'S VALUE USED
<>                 IDENTIFIER SET AND/OR USED
--                 IDENTIFIER REFERENCED
PL6.E3A0      #001=QTA$INIT File=QTA$INIT.:E05TSI                                WED 07/30/97 05:45 Page:20
          MINI XREF LISTING

B$VERSIONB.C_
      3609**DCL      3610--IMP-SIZ  3734>>CALLBLT
B$VERSIONB.T_
      3610**DCL      3734>>CALLBLT
B_VERSION
      3607**DCL      3734--CALLBLT  3734--CALLBLT
FPT_INT
      3686**DCL      3730<>CALL
FPT_INT.V
      3686**DCL      3686--DCLINIT
FPT_XCON
      3701**DCL      3729<>CALL
FPT_XCON.V
      3702**DCL      3701--DCLINIT
GREETING
      3632**DCL      3736<>CALL
GREETING.STATION_
      3634**DCL      3634--REDEF
GREETING.V
      3635**DCL      3632--DCLINIT
GREETING.V.DVBYTE.VFC#
      3641**DCL      3641--REDEF
M$DO
      3428**DCL      3740>>ASSIGN
M$INT
       170**DCL-ENT  3730--CALL
M$TRADER
      3430**DCL      3739--ASSIGN
M$WRITE
       116**DCL-ENT  3736--CALL
M$XCON
       170**DCL-ENT  3729--CALL
PL6.E3A0      #001=QTA$INIT File=QTA$INIT.:E05TSI                                WED 07/30/97 05:45 Page:21
OUTLINE
      3648**DCL      3633--DCLINIT  3634--DCLINIT  3734<<CALLBLT
QQERRMSG
      3481**DCL      3733<>CALL
QTA$XCON
      3402**DCL-ENT  3686--DCLINIT  3702--DCLINIT
QTC$GETMEM
      3369**DCL-ENT  3742--CALL     3743--CALL     3744--CALL
QT_CMDBLK.OUT$
        80**DCL        81--REDEF
QT_GLOBAL.AMR$FPT_OPEN$
        78**DCL      3744<>CALL
QT_GLOBAL.AMR$FPT_OPEN_SIZE
        79**DCL      3744<>CALL
QT_GLOBAL.M$DO#
        79**DCL      3740<<ASSIGN
QT_GLOBAL.M$TRADER$
        78**DCL      3739<<ASSIGN
QT_GLOBAL.P$PCB$
        78**DCL      3732<>CALL
QT_GLOBAL.QT$ENTRY$
        78**DCL      3742<>CALL     3746>>ASSIGN
QT_GLOBAL.QT$ENTRY_SIZE
        79**DCL      3742<>CALL
QT_GLOBAL.QT$FORM$
        78**DCL      3746<<ASSIGN
QT_GLOBAL.QT$SETTEXT$
        78**DCL      3743<>CALL
QT_GLOBAL.QT$SETTEXT_SIZE
        79**DCL      3743<>CALL
XTX$ADAPT
      3500**DCL-ENT  3579--DCLINIT
XUR$INIT
      3382**DCL-ENT  3732--CALL
XUR$SETERRMSG
      3387**DCL-ENT  3733--CALL
PL6.E3A0      #001=QTA$INIT File=QTA$INIT.:E05TSI                                WED 07/30/97 05:45 Page:22
XUR_INIT
      3505**DCL      3732<>CALL
XUR_INIT.WORKR_
      3519**DCL      3520--REDEF
