VERSION E05

PL6.E3A0      #001=QTA$READ_SET File=QTA$READ_SET.:E05TSI                        WED 07/30/97 05:45 Page:1
        1        1        /*M* QTA$READ_SET - Read a 'SET' and process it */
        2        2        /*T***********************************************************/
        3        3        /*T*                                                         */
        4        4        /*T* Copyright (c) Bull HN Information Systems Inc., 1997    */
        5        5        /*T*                                                         */
        6        6        /*T***********************************************************/
        7        7        /*X* IND=2, DCI=4, CSU=2, ECU=4, DTI=2, CTI=4, AND */
        8        8        QTA$READ_SET:
        9        9                PROC(P_MSGTYP);
       10       10
       11       11        %INCLUDE Q_PAGE_C;
       12       43        %SET LISTEXP = '1'B;
       13       44        %PAGE(ARG="Includes");

                61        /***************************************************************************
                62         *                                                                         *
                63         *                                  Includes                               *
                64         *                                                                         *
                65         ***************************************************************************/

       14       69        %INCLUDE QT_DATA_R;
       15       83        %INCLUDE QT_SUBS_C;
       16      167        %INCLUDE QT_PERR_C;
       17      218        %INCLUDE Q_ERRCODE_C;
       18      241        %INCLUDE XU_MACRO_C;
       19     3347        %PAGE(ARG="Externally defined routines");

              3364    1   /***************************************************************************
              3365    1    *                                                                         *
              3366    1    *                        Externally defined routines                      *
              3367    1    *                                                                         *
              3368    1    ***************************************************************************/

       20     3372        %PAGE(ARG="Parameters");

              3389    1   /***************************************************************************
              3390    1    *                                                                         *
PL6.E3A0      #001=QTA$READ_SET File=QTA$READ_SET.:E05TSI                        WED 07/30/97 05:45 Page:2
              3391    1    *                                 Parameters                              *
              3392    1    *                                                                         *
              3393    1    ***************************************************************************/

       21     3397    1   DCL P_MSGTYP CHAR(8);
       22     3398    1   DCL QTC$PROCESS_SET ENTRY(3);
       23     3399        %INCLUDE XUR_ENTRY;
       24     3431    1   DCL QTB$RESET ENTRY;
       25     3432    1   DCL QTB$HELP ENTRY;
       26     3433        %PAGE(ARG="Symrefs");

              3450    1   /***************************************************************************
              3451    1    *                                                                         *
              3452    1    *                                  Symrefs                                *
              3453    1    *                                                                         *
              3454    1    ***************************************************************************/

       27     3458    1   DCL QT_NODES1 UBIN WORD SYMREF;
       28     3459        %PAGE(ARG="Based");

              3476    1   /***************************************************************************
              3477    1    *                                                                         *
              3478    1    *                                   Based                                 *
              3479    1    *                                                                         *
              3480    1    ***************************************************************************/

       29     3484        %PARSE$SYM(STCLASS=BASED);
       30     3522        %PARSE$OUT(STCLASS=BASED);
       31     3567        %P_PCB(NAME=P$PCB, STCLASS="BASED(QT_GLOBAL.P$PCB$)");
       32     3766
       33     3767    1   DCL CHAR$STRING CHAR(CHAR_STRING_SIZE) BASED;
       34     3768        %PAGE(ARG="DCBs");

              3785    1   /***************************************************************************
              3786    1    *                                                                         *
              3787    1    *                                    DCBs                                 *
              3788    1    *                                                                         *
PL6.E3A0      #001=QTA$READ_SET File=QTA$READ_SET.:E05TSI                        WED 07/30/97 05:45 Page:3
              3789    1    ***************************************************************************/

       35     3793    1   DCL M$LO DCB;
       36     3794        %PAGE(ARG="Constants");

              3811    1   /***************************************************************************
              3812    1    *                                                                         *
              3813    1    *                                 Constants                               *
              3814    1    *                                                                         *
              3815    1    ***************************************************************************/

       37     3819    1   DCL SET_PROMPT CHAR(0) CONSTANT INIT('SET? ');
       38     3820    1   DCL SET_PROMPT_V BIT(72) CONSTANT INIT(VECTOR(SET_PROMPT));
       39     3821        %PAGE(ARG="Auto");

              3838    1   /***************************************************************************
              3839    1    *                                                                         *
              3840    1    *                                    Auto                                 *
              3841    1    *                                                                         *
              3842    1    ***************************************************************************/

       40     3846    1   DCL CPOS UBIN WORD;
       41     3847    1   DCL CHAR_STRING_SIZE UBIN WORD;
       42     3848
       43     3849    1   DCL 1 SET,
       44     3850    1         2 COUNT UBIN(9) UNAL,
       45     3851    1         2 JUNK1 UBIN WORD ALIGNED,
       46     3852    1         2 JUNK2 UBIN WORD UNAL,
       47     3853    1         2 JUNK3 UBIN WORD UNAL,
       48     3854    1         2 TEXT CHAR(256);
       49     3855        %PAGE(ARG="Error codes", PAGE=YES);

PL6.E3A0      #001=QTA$READ_SET File=QTA$READ_SET.:E05TSI                        WED 07/30/97 05:45 Page:4
              3872    1   /***************************************************************************
              3873    1    *                                                                         *
              3874    1    *                                Error codes                              *
              3875    1    *                                                                         *
              3876    1    ***************************************************************************/

       50     3880        %ERRCODE(NAME=CODE_SYN, CODE#=%E$SYN, FCG#=%FCG_QT, MID#=%MID_A);
       51     3887        %PAGE(ARG="QTA$READ_SET", PAGE=YES);

PL6.E3A0      #001=QTA$READ_SET File=QTA$READ_SET.:E05TSI                        WED 07/30/97 05:45 Page:5
              3904    1   /***************************************************************************
              3905    1    *                                                                         *
              3906    1    *                                QTA$READ_SET                             *
              3907    1    *                                                                         *
              3908    1    ***************************************************************************/

       52     3912    2           DO WHILE('1'B);
       53     3913
       54     3914    2             CALL XUR$GETCMD(QT_NODES1, QT_CMDBLK.OUT$, SET_PROMPT_V) ALTRET(PARSE_ERR)
              3914                      ;
       55     3915    2             CALL XUR$ECHOIF(DCBNUM(M$LO));
       56     3916
       57     3917    2             QT_CMDBLK.CODE = QT_CMDBLK.OUT$ -> OUT$BLK.CODE;
       58     3918    2             QT_CMDBLK.TEXT$ = P$PCB.TEXT$;
       59     3919    2             QT_CMDBLK.ARS = P$PCB.NCHARS;
       60     3920
       61     3921    2             IF NOT(QT_CMDBLK.CODE = 14 /* QUEST */ OR
       62     3922    2                 QT_CMDBLK.CODE = 15 /* DBL_QUEST */) THEN
       63     3923    3               DO;
       64     3924    3                 QT_CMDBLK.MINOR_ERR = '0'B;
       65     3925    3               END;
       66     3926
       67     3927    3             DO CASE(QT_CMDBLK.CODE);
       68     3928    3               CASE(1 /* NULL */, 8 /* END */);
       69     3929    3                 GOTO RET;
       70     3930
       71     3931    3               CASE(9 /* HELP */, 14 /* QUEST */, 15 /* DBL_QUEST */);
       72     3932    3                 CALL QTB$HELP;
       73     3933
       74     3934    3               CASE(18 /* READS */,
       75     3935    3                     19 /* REPORTS */,
       76     3936    3                     21 /* RESPONDS */,
       77     3937    3                     25 /* SPAWNS */,
       78     3938    3                     22 /* SET_DCB */,
       79     3939    3                     23 /* ILLEGAL_SET */);
       80     3940    3                 SET.COUNT = QT_CMDBLK.ARS;
       81     3941    3                 CHAR_STRING_SIZE = QT_CMDBLK.ARS;
PL6.E3A0      #001=QTA$READ_SET File=QTA$READ_SET.:E05TSI                        WED 07/30/97 05:45 Page:6
       82     3942    3                 SET.TEXT = QT_CMDBLK.TEXT$ -> CHAR$STRING;
       83     3943    3                 CALL QTC$PROCESS_SET(SET, '0'B, P_MSGTYP);
       84     3944
       85     3945    3               CASE(20 /* RESET */);
       86     3946    3                 CALL QTB$RESET;
       87     3947
       88     3948    3             END /* CASE */;
       89     3949
       90     3950    3             DO WHILE('0'B);
       91     3951
       92     3952    3   PARSE_ERR:
       93     3953    3               IF QT_CMDBLK.ERR.MON THEN
       94     3954    4                 DO;
       95     3955    4                   GOTO RET;
       96     3956    4                 END;
       97     3957
       98     3958    3               CPOS = P$PCB.HI_CHAR;
       99     3959    3               CALL XUR$ERRPTR(CPOS, QT_GLOBAL.M$DO#);
      100     3960    3               CALL XUR$ERRMSG(CODE_SYN);
      101     3961    3             END /* NEVER */;
      102     3962
      103     3963    2           END /* WHILE */;
      104     3964
      105     3965    1   RET:
      106     3966    1           RETURN;
      107     3967
      108     3968    1   END QTA$READ_SET;

PL6.E3A0      #001=QTA$READ_SET File=QTA$READ_SET.:E05TSI                        WED 07/30/97 05:45 Page:7
--  Include file information  --

   XUR_ENTRY.:E05TOU  cannot be made into a system file and is referenced.
   XU_MACRO_C.:E05TOU  is referenced.
   Q_ERRCODE_C.:E05TOU  is referenced.
   QT_PERR_C.:E05TOU  is referenced.
   QT_SUBS_C.:E05TOU  is referenced.
   QT_DATA_R.:E05TOU  cannot be made into a system file and is referenced.
   Q_PAGE_C.:E05TOU  is referenced.
      No diagnostics issued in procedure QTA$READ_SET.

   Procedure QTA$READ_SET requires 109 words for executable code.
   Procedure QTA$READ_SET requires 78 words of local(AUTO) storage.

    No errors detected in file QTA$READ_SET.:E05TSI    .

PL6.E3A0      #001=QTA$READ_SET File=QTA$READ_SET.:E05TSI                        WED 07/30/97 05:45 Page:8

 Object Unit name= QTA$READ_SET                               File name= QTA$READ_SET.:E05TOU
 UTS= JUL 30 '97 05:45:40.84 WED                              Compiler= PL-6/E31         Sev=      00
 SharedLib= :SHARED_SYSTEM                                    Alt SharedLib=


    ****  Control sections  ****

 Sect   Type Bound  Init  Size OctSiz  Section name(segment info)
    0   DCB   even  none     0      0  M$LO
    1  RoData even  UTS      5      5  QTA$READ_SET
    2   Proc  even  none   109    155  QTA$READ_SET
    3  RoData even  none     6      6  QTA$READ_SET

    ****  Entry defs  ****

                              Check   Calling
                             calling  sequence
  Sect OctLoc Primary Altret sequence   type   Parms  Name
     2      0   yes            yes      Std        1  QTA$READ_SET

  ****  Entry refs  ****

         Check        Calling
        calling       sequence
Altret sequence SRef   type   Args  Name
 yes     yes           Std       6 XUR$GETCMD
         yes           Std       3 QTC$PROCESS_SET
 yes     yes           Std       1 XUR$ECHOIF
         yes           Std       0 QTB$HELP
         yes           Std       0 QTB$RESET
 yes     yes           Std       2 XUR$ERRPTR
 yes     yes           Std       7 XUR$ERRMSG
                       nStd      0 X66_AUTO_1
                       Std       0 B_CONSPOOL_D
                       nStd      0 X66_ARET
PL6.E3A0      #001=QTA$READ_SET File=QTA$READ_SET.:E05TSI                        WED 07/30/97 05:45 Page:9

  ****  Data refs  ****

  Flags:  r = read only, s = secondary
Flgs Name                             Flgs Name                             Flgs Name
     QT_GLOBAL                             QT_CMDBLK                             QT_NODES1
     M$LO                                  B_VECTNIL

  ****  Segment refs  ****

  Flags:  r = read only, s = secondary
Flgs Name                             Flgs Name                             Flgs Name
     ISSID
PL6.E3A0      #001=QTA$READ_SET File=QTA$READ_SET.:E05TSI                        WED 07/30/97 05:45 Page:10


        1        1        /*M* QTA$READ_SET - Read a 'SET' and process it */
        2        2        /*T***********************************************************/
        3        3        /*T*                                                         */
        4        4        /*T* Copyright (c) Bull HN Information Systems Inc., 1997    */
        5        5        /*T*                                                         */
        6        6        /*T***********************************************************/
        7        7        /*X* IND=2, DCI=4, CSU=2, ECU=4, DTI=2, CTI=4, AND */
        8        8        QTA$READ_SET:
        9        9                PROC(P_MSGTYP);

      9  2 000000   000000 700200 xent  QTA$READ_SET TSX0  ! X66_AUTO_1
         2 000001   000116 000001                    ZERO    78,1

       10       10
       11       11        %INCLUDE Q_PAGE_C;
       12       43        %SET LISTEXP = '1'B;
       13       44        %PAGE(ARG="Includes");

                61        /***************************************************************************
                62         *                                                                         *
                63         *                                  Includes                               *
                64         *                                                                         *
                65         ***************************************************************************/

       14       69        %INCLUDE QT_DATA_R;
       15       83        %INCLUDE QT_SUBS_C;
       16      167        %INCLUDE QT_PERR_C;
       17      218        %INCLUDE Q_ERRCODE_C;
       18      241        %INCLUDE XU_MACRO_C;
       19     3347        %PAGE(ARG="Externally defined routines");

              3364    1   /***************************************************************************
              3365    1    *                                                                         *
              3366    1    *                        Externally defined routines                      *
              3367    1    *                                                                         *
              3368    1    ***************************************************************************/
PL6.E3A0      #001=QTA$READ_SET File=QTA$READ_SET.:E05TSI                        WED 07/30/97 05:45 Page:11

       20     3372        %PAGE(ARG="Parameters");

              3389    1   /***************************************************************************
              3390    1    *                                                                         *
              3391    1    *                                 Parameters                              *
              3392    1    *                                                                         *
              3393    1    ***************************************************************************/

       21     3397    1   DCL P_MSGTYP CHAR(8);
       22     3398    1   DCL QTC$PROCESS_SET ENTRY(3);
       23     3399        %INCLUDE XUR_ENTRY;
       24     3431    1   DCL QTB$RESET ENTRY;
       25     3432    1   DCL QTB$HELP ENTRY;
       26     3433        %PAGE(ARG="Symrefs");

              3450    1   /***************************************************************************
              3451    1    *                                                                         *
              3452    1    *                                  Symrefs                                *
              3453    1    *                                                                         *
              3454    1    ***************************************************************************/

       27     3458    1   DCL QT_NODES1 UBIN WORD SYMREF;
       28     3459        %PAGE(ARG="Based");

              3476    1   /***************************************************************************
              3477    1    *                                                                         *
              3478    1    *                                   Based                                 *
              3479    1    *                                                                         *
              3480    1    ***************************************************************************/

       29     3484        %PARSE$SYM(STCLASS=BASED);
       30     3522        %PARSE$OUT(STCLASS=BASED);
       31     3567        %P_PCB(NAME=P$PCB, STCLASS="BASED(QT_GLOBAL.P$PCB$)");
       32     3766
       33     3767    1   DCL CHAR$STRING CHAR(CHAR_STRING_SIZE) BASED;
       34     3768        %PAGE(ARG="DCBs");
PL6.E3A0      #001=QTA$READ_SET File=QTA$READ_SET.:E05TSI                        WED 07/30/97 05:45 Page:12

              3785    1   /***************************************************************************
              3786    1    *                                                                         *
              3787    1    *                                    DCBs                                 *
              3788    1    *                                                                         *
              3789    1    ***************************************************************************/

       35     3793    1   DCL M$LO DCB;
       36     3794        %PAGE(ARG="Constants");

              3811    1   /***************************************************************************
              3812    1    *                                                                         *
              3813    1    *                                 Constants                               *
              3814    1    *                                                                         *
              3815    1    ***************************************************************************/

       37     3819    1   DCL SET_PROMPT CHAR(0) CONSTANT INIT('SET? ');
       38     3820    1   DCL SET_PROMPT_V BIT(72) CONSTANT INIT(VECTOR(SET_PROMPT));
       39     3821        %PAGE(ARG="Auto");

              3838    1   /***************************************************************************
              3839    1    *                                                                         *
              3840    1    *                                    Auto                                 *
              3841    1    *                                                                         *
              3842    1    ***************************************************************************/

       40     3846    1   DCL CPOS UBIN WORD;
       41     3847    1   DCL CHAR_STRING_SIZE UBIN WORD;
       42     3848
       43     3849    1   DCL 1 SET,
       44     3850    1         2 COUNT UBIN(9) UNAL,
       45     3851    1         2 JUNK1 UBIN WORD ALIGNED,
       46     3852    1         2 JUNK2 UBIN WORD UNAL,
       47     3853    1         2 JUNK3 UBIN WORD UNAL,
       48     3854    1         2 TEXT CHAR(256);
       49     3855        %PAGE(ARG="Error codes", PAGE=YES);

PL6.E3A0      #001=QTA$READ_SET File=QTA$READ_SET.:E05TSI                        WED 07/30/97 05:45 Page:13
              3872    1   /***************************************************************************
              3873    1    *                                                                         *
              3874    1    *                                Error codes                              *
              3875    1    *                                                                         *
              3876    1    ***************************************************************************/

       50     3880        %ERRCODE(NAME=CODE_SYN, CODE#=%E$SYN, FCG#=%FCG_QT, MID#=%MID_A);
       51     3887        %PAGE(ARG="QTA$READ_SET", PAGE=YES);

PL6.E3A0      #001=QTA$READ_SET File=QTA$READ_SET.:E05TSI                        WED 07/30/97 05:45 Page:14
              3904    1   /***************************************************************************
              3905    1    *                                                                         *
              3906    1    *                                QTA$READ_SET                             *
              3907    1    *                                                                         *
              3908    1    ***************************************************************************/

       52     3912    2           DO WHILE('1'B);

       53     3913
       54     3914    2            CALL XUR$GETCMD(QT_NODES1, QT_CMDBLK.OUT$, SET_PROMPT_V) ALTRET(PARSE_ERR)
              3914                      ;

   3914  2 000002   000000 630400 3                  EPPR0   0
         2 000003   000021 631400 xsym               EPPR1   B_VECTNIL+17
         2 000004   000000 701000 xent               TSX1    XUR$GETCMD
         2 000005   000130 702000 2                  TSX2    PARSE_ERR

       55     3915    2             CALL XUR$ECHOIF(DCBNUM(M$LO));

   3915  2 000006   000000 236007 xsym               LDQ     M$LO,DL
         2 000007   200112 756100                    STQ     SET+68,,AUTO
         2 000010   200112 630500                    EPPR0   SET+68,,AUTO
         2 000011   200113 450500                    STP0    SET+69,,AUTO
         2 000012   200113 630500                    EPPR0   SET+69,,AUTO
         2 000013   000017 631400 xsym               EPPR1   B_VECTNIL+15
         2 000014   000000 701000 xent               TSX1    XUR$ECHOIF
         2 000015   000000 011000                    NOP     0

       56     3916
       57     3917    2             QT_CMDBLK.CODE = QT_CMDBLK.OUT$ -> OUT$BLK.CODE;

   3917  2 000016   000004 470400 xsym               LDP0    QT_CMDBLK+4
         2 000017   000000 236100                    LDQ     0,,PR0
         2 000020   777777 376007                    ANQ     -1,DL
         2 000021   000005 756000 xsym               STQ     QT_CMDBLK+5

       58     3918    2             QT_CMDBLK.TEXT$ = P$PCB.TEXT$;
PL6.E3A0      #001=QTA$READ_SET File=QTA$READ_SET.:E05TSI                        WED 07/30/97 05:45 Page:15

   3918  2 000022   000027 471400 xsym               LDP1    QT_GLOBAL+23
         2 000023   100000 236100                    LDQ     0,,PR1
         2 000024   000003 756000 xsym               STQ     QT_CMDBLK+3

       59     3919    2             QT_CMDBLK.ARS = P$PCB.NCHARS;

   3919  2 000025   100011 235100                    LDA     9,,PR1
         2 000026   000006 755000 xsym               STA     QT_CMDBLK+6

       60     3920
       61     3921    2             IF NOT(QT_CMDBLK.CODE = 14 /* QUEST */ OR

   3921  2 000027   000005 235000 xsym               LDA     QT_CMDBLK+5
         2 000030   000016 115007                    CMPA    14,DL
         2 000031   000035 600000 2                  TZE     s:3927
         2 000032   000017 115007                    CMPA    15,DL
         2 000033   000035 600000 2                  TZE     s:3927

       62     3922    2                 QT_CMDBLK.CODE = 15 /* DBL_QUEST */) THEN
       63     3923    3               DO;

       64     3924    3                 QT_CMDBLK.MINOR_ERR = '0'B;

   3924  2 000034   000001 450000 xsym               STZ     QT_CMDBLK+1

       65     3925    3               END;

       66     3926
       67     3927    3             DO CASE(QT_CMDBLK.CODE);

   3927  2 000035   000032 115007                    CMPA    26,DL
         2 000036   000040 602005 2                  TNC     s:3927+3,AL
         2 000037   000127 710000 2                  TRA     s:3950
         2 000040   000127 710000 2                  TRA     s:3950
         2 000041   000072 710000 2                  TRA     s:3929
         2 000042   000127 710000 2                  TRA     s:3950
PL6.E3A0      #001=QTA$READ_SET File=QTA$READ_SET.:E05TSI                        WED 07/30/97 05:45 Page:16
         2 000043   000127 710000 2                  TRA     s:3950
         2 000044   000127 710000 2                  TRA     s:3950
         2 000045   000127 710000 2                  TRA     s:3950
         2 000046   000127 710000 2                  TRA     s:3950
         2 000047   000127 710000 2                  TRA     s:3950
         2 000050   000072 710000 2                  TRA     s:3929
         2 000051   000073 710000 2                  TRA     s:3932
         2 000052   000127 710000 2                  TRA     s:3950
         2 000053   000127 710000 2                  TRA     s:3950
         2 000054   000127 710000 2                  TRA     s:3950
         2 000055   000127 710000 2                  TRA     s:3950
         2 000056   000073 710000 2                  TRA     s:3932
         2 000057   000073 710000 2                  TRA     s:3932
         2 000060   000127 710000 2                  TRA     s:3950
         2 000061   000127 710000 2                  TRA     s:3950
         2 000062   000077 710000 2                  TRA     s:3940
         2 000063   000077 710000 2                  TRA     s:3940
         2 000064   000124 710000 2                  TRA     s:3946
         2 000065   000077 710000 2                  TRA     s:3940
         2 000066   000077 710000 2                  TRA     s:3940
         2 000067   000077 710000 2                  TRA     s:3940
         2 000070   000127 710000 2                  TRA     s:3950
         2 000071   000077 710000 2                  TRA     s:3940

       68     3928    3               CASE(1 /* NULL */, 8 /* END */);

       69     3929    3                 GOTO RET;

   3929  2 000072   000154 710000 2                  TRA     RET

       70     3930
       71     3931    3               CASE(9 /* HELP */, 14 /* QUEST */, 15 /* DBL_QUEST */);

       72     3932    3                 CALL QTB$HELP;

   3932  2 000073   000002 631400 xsym               EPPR1   B_VECTNIL+2
         2 000074   000000 701000 xent               TSX1    QTB$HELP
PL6.E3A0      #001=QTA$READ_SET File=QTA$READ_SET.:E05TSI                        WED 07/30/97 05:45 Page:17
         2 000075   000000 011000                    NOP     0
         2 000076   000127 710000 2                  TRA     s:3950

       73     3933
       74     3934    3               CASE(18 /* READS */,

       75     3935    3                     19 /* REPORTS */,
       76     3936    3                     21 /* RESPONDS */,
       77     3937    3                     25 /* SPAWNS */,
       78     3938    3                     22 /* SET_DCB */,
       79     3939    3                     23 /* ILLEGAL_SET */);
       80     3940    3                 SET.COUNT = QT_CMDBLK.ARS;

   3940  2 000077   000006 235000 xsym               LDA     QT_CMDBLK+6
         2 000100   000033 735000                    ALS     27
         2 000101   200006 755100                    STA     SET,,AUTO

       81     3941    3                 CHAR_STRING_SIZE = QT_CMDBLK.ARS;

   3941  2 000102   000006 235000 xsym               LDA     QT_CMDBLK+6
         2 000103   200005 755100                    STA     CHAR_STRING_SIZE,,AUTO

       82     3942    3                 SET.TEXT = QT_CMDBLK.TEXT$ -> CHAR$STRING;

   3942  2 000104   000003 473400 xsym               LDP3    QT_CMDBLK+3
         2 000105   000000 620005                    EAX0    0,AL
         2 000106   040100 100540                    MLR     fill='040'O
         2 000107   300000 000010                    ADSC9   0,,PR3                   cn=0,n=*X0
         2 000110   200012 000400                    ADSC9   SET+4,,AUTO              cn=0,n=256

       83     3943    3                 CALL QTC$PROCESS_SET(SET, '0'B, P_MSGTYP);

   3943  2 000111   200003 236100                    LDQ     @P_MSGTYP,,AUTO
         2 000112   200114 756100                    STQ     SET+70,,AUTO
         2 000113   000003 236000 3                  LDQ     3
         2 000114   200113 756100                    STQ     SET+69,,AUTO
         2 000115   200006 634500                    EPPR4   SET,,AUTO
PL6.E3A0      #001=QTA$READ_SET File=QTA$READ_SET.:E05TSI                        WED 07/30/97 05:45 Page:18
         2 000116   200112 454500                    STP4    SET+68,,AUTO
         2 000117   200112 630500                    EPPR0   SET+68,,AUTO
         2 000120   000021 631400 xsym               EPPR1   B_VECTNIL+17
         2 000121   000000 701000 xent               TSX1    QTC$PROCESS_SET
         2 000122   000000 011000                    NOP     0
         2 000123   000127 710000 2                  TRA     s:3950

       84     3944
       85     3945    3               CASE(20 /* RESET */);

       86     3946    3                 CALL QTB$RESET;

   3946  2 000124   000002 631400 xsym               EPPR1   B_VECTNIL+2
         2 000125   000000 701000 xent               TSX1    QTB$RESET
         2 000126   000000 011000                    NOP     0

       87     3947
       88     3948    3             END /* CASE */;

       89     3949
       90     3950    3             DO WHILE('0'B);

   3950  2 000127   000002 710000 2                  TRA     s:3914

       91     3951
       92     3952    3   PARSE_ERR:
       93     3953    3               IF QT_CMDBLK.ERR.MON THEN

   3953  2 000130   000004 236000 xsym  PARSE_ERR    LDQ     QT_CMDBLK+4
         2 000131   400000 316007                    CANQ    -131072,DL
         2 000132   000134 600000 2                  TZE     s:3958

       94     3954    4                 DO;

       95     3955    4                   GOTO RET;

   3955  2 000133   000154 710000 2                  TRA     RET
PL6.E3A0      #001=QTA$READ_SET File=QTA$READ_SET.:E05TSI                        WED 07/30/97 05:45 Page:19

       96     3956    4                 END;
       97     3957
       98     3958    3               CPOS = P$PCB.HI_CHAR;

   3958  2 000134   000027 470400 xsym               LDP0    QT_GLOBAL+23
         2 000135   000012 235100                    LDA     10,,PR0
         2 000136   200004 755100                    STA     CPOS,,AUTO

       99     3959    3               CALL XUR$ERRPTR(CPOS, QT_GLOBAL.M$DO#);

   3959  2 000137   000004 236000 3                  LDQ     4
         2 000140   200113 756100                    STQ     SET+69,,AUTO
         2 000141   200004 631500                    EPPR1   CPOS,,AUTO
         2 000142   200112 451500                    STP1    SET+68,,AUTO
         2 000143   200112 630500                    EPPR0   SET+68,,AUTO
         2 000144   000020 631400 xsym               EPPR1   B_VECTNIL+16
         2 000145   000000 701000 xent               TSX1    XUR$ERRPTR
         2 000146   000000 011000                    NOP     0

      100     3960    3               CALL XUR$ERRMSG(CODE_SYN);

   3960  2 000147   000005 630400 3                  EPPR0   5
         2 000150   000017 631400 xsym               EPPR1   B_VECTNIL+15
         2 000151   000000 701000 xent               TSX1    XUR$ERRMSG
         2 000152   000000 011000                    NOP     0

      101     3961    3             END /* NEVER */;

      102     3962
      103     3963    2           END /* WHILE */;

   3963  2 000153   000002 710000 2                  TRA     s:3914

      104     3964
      105     3965    1   RET:
      106     3966    1           RETURN;
PL6.E3A0      #001=QTA$READ_SET File=QTA$READ_SET.:E05TSI                        WED 07/30/97 05:45 Page:20

   3966  2 000154   000000 702200 xent  RET          TSX2  ! X66_ARET
      107     3967
      108     3968    1   END QTA$READ_SET;

PL6.E3A0      #001=QTA$READ_SET File=QTA$READ_SET.:E05TSI                        WED 07/30/97 05:45 Page:21
--  Include file information  --

   XUR_ENTRY.:E05TOU  cannot be made into a system file and is referenced.
   XU_MACRO_C.:E05TOU  is referenced.
   Q_ERRCODE_C.:E05TOU  is referenced.
   QT_PERR_C.:E05TOU  is referenced.
   QT_SUBS_C.:E05TOU  is referenced.
   QT_DATA_R.:E05TOU  cannot be made into a system file and is referenced.
   Q_PAGE_C.:E05TOU  is referenced.
      No diagnostics issued in procedure QTA$READ_SET.
PL6.E3A0      #001=QTA$READ_SET File=QTA$READ_SET.:E05TSI                        WED 07/30/97 05:45 Page:22

 **** Variables and constants ****

  ****  Section 001 RoData QTA$READ_SET

  ****  Scalars and arrays  ****
OctLoc.c.b A Datatyp(siz) R M Lvl/name                 OctLoc.c.b A Datatyp(siz) R M Lvl/name

     4-0-0/b STRC        r     1 CODE_SYN                   0-0-0/c CHAR(5)     r     1 SET_PROMPT
     2-0-0/b BIT (72)    r     1 SET_PROMPT_V

  ****  Auto variables  ****

  ****  Scalars and arrays  ****
OctLoc.c.b A Datatyp(siz) R M Lvl/name                 OctLoc.c.b A Datatyp(siz) R M Lvl/name

     3-0-0/w PTR         r     1 @P_MSGTYP                  5-0-0/w UBIN        r     1 CHAR_STRING_SIZE
     4-0-0/w UBIN        r     1 CPOS                      *0-0-0/c CHAR(8)     r     1 P_MSGTYP
     6-0-0/w STRC(2448)  r     1 SET

  ****  SYMREF variables  ****

  ****  Scalars and arrays  ****
OctLoc.c.b A Datatyp(siz) R M Lvl/name                 OctLoc.c.b A Datatyp(siz) R M Lvl/name

     0-0-0/w STRC(261)   r     1 QT_CMDBLK                  0-0-0/w STRC(1872)  r     1 QT_GLOBAL
     0-0-0/w UBIN        r     1 QT_NODES1

  ****  BASED and DCB variables  ****

  ****  Scalars and arrays  ****
OctLoc.c.b A Datatyp(siz) R M Lvl/name                 OctLoc.c.b A Datatyp(siz) R M Lvl/name

     0-0-0/c ACHR        r     1 CHAR$STRING                0-0-0N  NULL        r     1 M$LO
     0-0-0/w STRC(144)   r     1 OUT$BLK                    0-0-0/w ASTR(153)   r     1 OUT$SYM
     0-0-0/w STRC(504)   r     1 P$PCB

PL6.E3A0      #001=QTA$READ_SET File=QTA$READ_SET.:E05TSI                        WED 07/30/97 05:45 Page:23

   Procedure QTA$READ_SET requires 109 words for executable code.
   Procedure QTA$READ_SET requires 78 words of local(AUTO) storage.

    No errors detected in file QTA$READ_SET.:E05TSI    .
PL6.E3A0      #001=QTA$READ_SET File=QTA$READ_SET.:E05TSI                        WED 07/30/97 05:45 Page:24
          *** CROSS REFERENCE LISTING ***
**     DENOTES     IDENTIFIER DEFINITION
<<                 IDENTIFIER'S VALUE SET
>>                 IDENTIFIER'S VALUE USED
<>                 IDENTIFIER SET AND/OR USED
--                 IDENTIFIER REFERENCED
PL6.E3A0      #001=QTA$READ_SET File=QTA$READ_SET.:E05TSI                        WED 07/30/97 05:45 Page:25
          MINI XREF LISTING

CHAR$STRING
      3767**DCL      3942>>ASSIGN
CHAR_STRING_SIZE
      3847**DCL      3767--IMP-SIZ  3941<<ASSIGN   3942>>ASSIGN
CODE_SYN
      3881**DCL      3960<>CALL
CPOS
      3846**DCL      3958<<ASSIGN   3959<>CALL
M$LO
      3793**DCL      3915<>CALL
OUT$BLK.CODE
      3536**DCL      3917>>ASSIGN
OUT$SYM.COUNT
      3514**DCL      3517--IMP-SIZ
P$PCB.HI_CHAR
      3736**DCL      3958>>ASSIGN
P$PCB.NCHARS
      3732**DCL      3919>>ASSIGN
P$PCB.TEXT$
      3586**DCL      3918>>ASSIGN
PARSE_ERR
      3953**LABEL    3914--CALLALT
P_MSGTYP
      3397**DCL         8--PROC     3943<>CALL
QTB$HELP
      3432**DCL-ENT  3932--CALL
QTB$RESET
      3431**DCL-ENT  3946--CALL
QTC$PROCESS_SET
      3398**DCL-ENT  3943--CALL
QT_CMDBLK.ARS
        81**DCL      3919<<ASSIGN   3940>>ASSIGN   3941>>ASSIGN
PL6.E3A0      #001=QTA$READ_SET File=QTA$READ_SET.:E05TSI                        WED 07/30/97 05:45 Page:26
QT_CMDBLK.CODE
        81**DCL      3917<<ASSIGN   3921>>IF       3921>>IF       3927>>DOCASE
QT_CMDBLK.ERR.MON
        81**DCL      3953>>IF
QT_CMDBLK.MINOR_ERR
        80**DCL      3924<<ASSIGN
QT_CMDBLK.OUT$
        80**DCL        81--REDEF    3914<>CALL     3917>>ASSIGN
QT_CMDBLK.TEXT$
        80**DCL      3918<<ASSIGN   3942>>ASSIGN
QT_GLOBAL.M$DO#
        79**DCL      3959<>CALL
QT_GLOBAL.P$PCB$
        78**DCL      3585--IMP-PTR  3918>>ASSIGN   3919>>ASSIGN   3958>>ASSIGN
QT_NODES1
      3458**DCL      3914<>CALL
RET
      3966**LABEL    3929--GOTO     3955--GOTO
SET
      3849**DCL      3943<>CALL
SET.COUNT
      3850**DCL      3940<<ASSIGN
SET.TEXT
      3854**DCL      3942<<ASSIGN
SET_PROMPT
      3819**DCL      3820--DCLINIT
SET_PROMPT_V
      3820**DCL      3914<>CALL
XUR$ECHOIF
      3408**DCL-ENT  3915--CALL
XUR$ERRMSG
      3414**DCL-ENT  3960--CALL
XUR$ERRPTR
      3407**DCL-ENT  3959--CALL
XUR$GETCMD
      3406**DCL-ENT  3914--CALL
