VERSION E05

PL6.E3A0      #001=QTA$TRADER File=QTA$TRADER.:E05TSI                            WED 07/30/97 05:45 Page:1
        1        1        /*M* QTA$TRADER - TRADER main program */
        2        2        /*T***********************************************************/
        3        3        /*T*                                                         */
        4        4        /*T* Copyright (c) Bull HN Information Systems Inc., 1997    */
        5        5        /*T*                                                         */
        6        6        /*T***********************************************************/
        7        7        /*X* IND=2, DCI=4, CSU=2, ECU=4, DTI=2, CTI=4, AND */
        8        8        QTA$TRADER:
        9        9                PROC MAIN;
       10       10
       11       11        %INCLUDE Q_PAGE_C;
       12       43        %SET LISTEXP = '1'B;
       13       44        %PAGE(ARG="Externally defined routines");

                61        /***************************************************************************
                62         *                                                                         *
                63         *                        Externally defined routines                      *
                64         *                                                                         *
                65         ***************************************************************************/

       14       69    1   DCL QTA$INIT ENTRY;
       15       70    1   DCL QTA$READ_CMD ENTRY;
       16       71    1   DCL QTB$QUIT ENTRY;
       17       72        %PAGE(ARG="QTA$TRADER", PAGE=YES);

PL6.E3A0      #001=QTA$TRADER File=QTA$TRADER.:E05TSI                            WED 07/30/97 05:45 Page:2
                89    1   /***************************************************************************
                90    1    *                                                                         *
                91    1    *                                 QTA$TRADER                              *
                92    1    *                                                                         *
                93    1    ***************************************************************************/

       18       97    1           CALL QTA$INIT;
       19       98    1           CALL QTA$READ_CMD;
       20       99
       21      100    1           CALL QTB$QUIT;
       22      101
       23      102    1   END QTA$TRADER;

PL6.E3A0      #001=QTA$TRADER File=QTA$TRADER.:E05TSI                            WED 07/30/97 05:45 Page:3
--  Include file information  --

   Q_PAGE_C.:E05TOU  is referenced.
      No diagnostics issued in procedure QTA$TRADER.

   Procedure QTA$TRADER requires 12 words for executable code.
   Procedure QTA$TRADER requires 4 words of local(AUTO) storage.

    No errors detected in file QTA$TRADER.:E05TSI    .

PL6.E3A0      #001=QTA$TRADER File=QTA$TRADER.:E05TSI                            WED 07/30/97 05:45 Page:4

 Object Unit name= QTA$TRADER                                 File name= QTA$TRADER.:E05TOU
 UTS= JUL 30 '97 05:45:56.24 WED                              Compiler= PL-6/E31         Sev=      00
 SharedLib= :SHARED_SYSTEM                                    Alt SharedLib=


    ****  Control sections  ****

 Sect   Type Bound  Init  Size OctSiz  Section name(segment info)
    0   Proc  even  none    12     14  QTA$TRADER

    ****  Entry defs  ****

                              Check   Calling
                             calling  sequence
  Sect OctLoc Primary Altret sequence   type   Parms  Name
     0      0   yes            yes      Main       0  QTA$TRADER

  ****  Entry refs  ****

         Check        Calling
        calling       sequence
Altret sequence SRef   type   Args  Name
         yes           Std       0 QTA$INIT
         yes           Std       0 QTA$READ_CMD
         yes           Std       0 QTB$QUIT
                       nStd      0 X66_MAUTO
                       Std       0 B_CONSPOOL_D
                       nStd      0 X66_MARET

  ****  Data refs  ****

  Flags:  r = read only, s = secondary
Flgs Name                             Flgs Name                             Flgs Name
     B_VECTNIL
PL6.E3A0      #001=QTA$TRADER File=QTA$TRADER.:E05TSI                            WED 07/30/97 05:45 Page:5


        1        1        /*M* QTA$TRADER - TRADER main program */
        2        2        /*T***********************************************************/
        3        3        /*T*                                                         */
        4        4        /*T* Copyright (c) Bull HN Information Systems Inc., 1997    */
        5        5        /*T*                                                         */
        6        6        /*T***********************************************************/
        7        7        /*X* IND=2, DCI=4, CSU=2, ECU=4, DTI=2, CTI=4, AND */
        8        8        QTA$TRADER:
        9        9                PROC MAIN;

      9  0 000000   000000 700200 xent  QTA$TRADER   TSX0  ! X66_MAUTO
         0 000001   000004 000000                    ZERO    4,0

       10       10
       11       11        %INCLUDE Q_PAGE_C;
       12       43        %SET LISTEXP = '1'B;
       13       44        %PAGE(ARG="Externally defined routines");

                61        /***************************************************************************
                62         *                                                                         *
                63         *                        Externally defined routines                      *
                64         *                                                                         *
                65         ***************************************************************************/

       14       69    1   DCL QTA$INIT ENTRY;
       15       70    1   DCL QTA$READ_CMD ENTRY;
       16       71    1   DCL QTB$QUIT ENTRY;
       17       72        %PAGE(ARG="QTA$TRADER", PAGE=YES);

PL6.E3A0      #001=QTA$TRADER File=QTA$TRADER.:E05TSI                            WED 07/30/97 05:45 Page:6
                89    1   /***************************************************************************
                90    1    *                                                                         *
                91    1    *                                 QTA$TRADER                              *
                92    1    *                                                                         *
                93    1    ***************************************************************************/

       18       97    1           CALL QTA$INIT;

     97  0 000002   000002 631400 xsym               EPPR1   B_VECTNIL+2
         0 000003   000000 701000 xent               TSX1    QTA$INIT
         0 000004   000000 011000                    NOP     0

       19       98    1           CALL QTA$READ_CMD;

     98  0 000005   000002 631400 xsym               EPPR1   B_VECTNIL+2
         0 000006   000000 701000 xent               TSX1    QTA$READ_CMD
         0 000007   000000 011000                    NOP     0

       20       99
       21      100    1           CALL QTB$QUIT;

    100  0 000010   000002 631400 xsym               EPPR1   B_VECTNIL+2
         0 000011   000000 701000 xent               TSX1    QTB$QUIT
         0 000012   000000 011000                    NOP     0

       22      101
       23      102    1   END QTA$TRADER;

    102  0 000013   000000 702200 xent               TSX2  ! X66_MARET

PL6.E3A0      #001=QTA$TRADER File=QTA$TRADER.:E05TSI                            WED 07/30/97 05:45 Page:7
--  Include file information  --

   Q_PAGE_C.:E05TOU  is referenced.
      No diagnostics issued in procedure QTA$TRADER.
PL6.E3A0      #001=QTA$TRADER File=QTA$TRADER.:E05TSI                            WED 07/30/97 05:45 Page:8

 **** Variables and constants ****


   Procedure QTA$TRADER requires 12 words for executable code.
   Procedure QTA$TRADER requires 4 words of local(AUTO) storage.

    No errors detected in file QTA$TRADER.:E05TSI    .
PL6.E3A0      #001=QTA$TRADER File=QTA$TRADER.:E05TSI                            WED 07/30/97 05:45 Page:9
          *** CROSS REFERENCE LISTING ***
**     DENOTES     IDENTIFIER DEFINITION
<<                 IDENTIFIER'S VALUE SET
>>                 IDENTIFIER'S VALUE USED
<>                 IDENTIFIER SET AND/OR USED
--                 IDENTIFIER REFERENCED
PL6.E3A0      #001=QTA$TRADER File=QTA$TRADER.:E05TSI                            WED 07/30/97 05:45 Page:10
          MINI XREF LISTING

QTA$INIT
        69**DCL-ENT    97--CALL
QTA$READ_CMD
        70**DCL-ENT    98--CALL
QTB$QUIT
        71**DCL-ENT   100--CALL
