VERSION E05

PL6.E3A0      #001=QTA$XCON File=QTA$XCON.:E05TSI                                WED 07/30/97 05:46 Page:1
        1        1        /*M* QTA$XCON - TRADER XCON processing */
        2        2        /*T***********************************************************/
        3        3        /*T*                                                         */
        4        4        /*T* Copyright (c) Bull HN Information Systems Inc., 1997    */
        5        5        /*T*                                                         */
        6        6        /*T***********************************************************/
        7        7        /*X* IND=2, DCI=4, CSU=2, ECU=4, DTI=2, CTI=4, AND */
        8        8        QTA$XCON:
        9        9                PROC ASYNC;
       10       10
       11       11        %INCLUDE Q_PAGE_C;
       12       43        %SET LISTEXP = '1'B;
       13       44        %PAGE(ARG="Includes");

                61        /***************************************************************************
                62         *                                                                         *
                63         *                                  Includes                               *
                64         *                                                                         *
                65         ***************************************************************************/

       14       69        %INCLUDE CP_6;
       15      150        %INCLUDE QT_DATA_R;
       16      164        %PAGE(ARG="FPTs");

               181    1   /***************************************************************************
               182    1    *                                                                         *
               183    1    *                                    FPTs                                 *
               184    1    *                                                                         *
               185    1    ***************************************************************************/

       17      189        %FPT_YC(FPTN=FPT_YC,CMD=RESET,NOERR=YES);
       18      206
       19      207        %FPT_CLOSE(DCB=M$LO, DISP=SAVE);
       20      249        %PAGE(ARG="DCBs");

               266    1   /***************************************************************************
               267    1    *                                                                         *
PL6.E3A0      #001=QTA$XCON File=QTA$XCON.:E05TSI                                WED 07/30/97 05:46 Page:2
               268    1    *                                    DCBs                                 *
               269    1    *                                                                         *
               270    1    ***************************************************************************/

       21      274    1   DCL M$LO DCB;
       22      275        %PAGE(ARG="Externally Defined Routines");

               292    1   /***************************************************************************
               293    1    *                                                                         *
               294    1    *                        Externally Defined Routines                      *
               295    1    *                                                                         *
               296    1    ***************************************************************************/

       23      300    1   DCL QTC$MON_ERR ENTRY(1);
       24      301        %PAGE(ARG="Constants");

               318    1   /***************************************************************************
               319    1    *                                                                         *
               320    1    *                                 Constants                               *
               321    1    *                                                                         *
               322    1    ***************************************************************************/

       25      326    1   DCL RESET CHAR(0) CONSTANT INIT('R M$TRADER_ASSN:MRGE:REC_DCB_NAME');
       26      327        %PAGE(ARG="Subs");

               344    1   /***************************************************************************
               345    1    *                                                                         *
               346    1    *                                    Subs                                 *
               347    1    *                                                                         *
               348    1    ***************************************************************************/

       27      352        %SUB_EXC;
       28      399        %PAGE(ARG="Symrefs");

               416    1   /***************************************************************************
               417    1    *                                                                         *
               418    1    *                                  Symrefs                                *
PL6.E3A0      #001=QTA$XCON File=QTA$XCON.:E05TSI                                WED 07/30/97 05:46 Page:3
               419    1    *                                                                         *
               420    1    ***************************************************************************/

       29      424    1   DCL B$TCB$ PTR SYMREF;
       30      425        %PAGE(ARG="Based");

               442    1   /***************************************************************************
               443    1    *                                                                         *
               444    1    *                                   Based                                 *
               445    1    *                                                                         *
               446    1    ***************************************************************************/

       31      450        %B$TCB;
       32      453        %F$DCB;
       33      510        %B$XCON;
       34      520        %B$EXCFR;
       35      538        %PAGE(ARG="Auto");

               555    1   /***************************************************************************
               556    1    *                                                                         *
               557    1    *                                    Auto                                 *
               558    1    *                                                                         *
               559    1    ***************************************************************************/

       36      563    1   DCL P$ PTR;
       37      564        %PAGE(ARG="QTA$XCON", PAGE=YES);

PL6.E3A0      #001=QTA$XCON File=QTA$XCON.:E05TSI                                WED 07/30/97 05:46 Page:4
               581    1   /***************************************************************************
               582    1    *                                                                         *
               583    1    *                                  QTA$XCON                               *
               584    1    *                                                                         *
               585    1    ***************************************************************************/

       38      589    2           DO INHIBIT;
       39      590    2             P$ = B$TCB$ -> B$TCB.STK$;
       40      591    3             DO CASE(P$ -> B$EXCFR.ECC);
       41      592
       42      593    3               CASE(2 /* ECC_INT# */);
       43      594    3                 QT_GLOBAL.BREAK = '1'B;
       44      595    3                 GOTO RET;
       45      596
       46      597    3               CASE(3 /* ECC_XCON# */);
       47      598    3                 IF P$ -> B$XCON.RNST.OPERR AND QT_GLOBAL.MUST_FINISH THEN
       48      599    4                   DO;
       49      600    4                     QT_GLOBAL.XCON = '1'B;
       50      601    4                     GOTO RET;
       51      602    4                   END;
       52      603
       53      604    3                 IF P$ -> B$XCON.RNST.ERR THEN
       54      605    4                   DO;
       55      606    4                     GOTO ERR;
       56      607    4                   END;
       57      608
       58      609    3                 IF P$ -> B$XCON.RNST.MABRT THEN
       59      610    4                   DO;
       60      611    4                     GOTO MERCS;
       61      612    4                   END;
       62      613
       63      614    3             END /* CASE */;
       64      615
       65      616    2             IF DCBADDR(DCBNUM(M$LO)) -> F$DCB.FCD# THEN
       66      617    3               DO;
       67      618    3                 CALL M$CLOSE(FPT_CLOSE) ALTRET(MON_ERR);
       68      619    3               END;
PL6.E3A0      #001=QTA$XCON File=QTA$XCON.:E05TSI                                WED 07/30/97 05:46 Page:5
       69      620
       70      621    3             DO WHILE ('0'B);
       71      622    3   MON_ERR:    CALL QTC$MON_ERR('1'B);
       72      623    3             END;
       73      624
       74      625
       75      626    2             CALL M$YC(FPT_YC);
       76      627    2             CALL M$EXIT;
       77      628
       78      629    2   ERR:
       79      630    2             CALL M$YC(FPT_YC);
       80      631    2             CALL M$ERR;
       81      632
       82      633    2   MERCS:
       83      634    2             CALL M$YC(FPT_YC);
       84      635    2             CALL M$MERCS;
       85      636
       86      637    2   RET:
       87      638    2             RETURN;
       88      639
       89      640    2           END /* INHIBIT */;
       90      641    1   END QTA$XCON;

PL6.E3A0      #001=QTA$XCON File=QTA$XCON.:E05TSI                                WED 07/30/97 05:46 Page:6
--  Include file information  --

   QT_DATA_R.:E05TOU  cannot be made into a system file and is referenced.
   CP_6.:E05TOU  cannot be made into a system file and is referenced.
   Q_PAGE_C.:E05TOU  is referenced.
   B$JIT_C.:E05TOU  was found in the system file and is never referenced.
   CP_6_C.:E05TOU  was found in the system file and is referenced.
      No diagnostics issued in procedure QTA$XCON.

   Procedure QTA$XCON requires 64 words for executable code.
   Procedure QTA$XCON requires 4 words of local(AUTO) storage.

    No errors detected in file QTA$XCON.:E05TSI    .

PL6.E3A0      #001=QTA$XCON File=QTA$XCON.:E05TSI                                WED 07/30/97 05:46 Page:7

 Object Unit name= QTA$XCON                                   File name= QTA$XCON.:E05TOU
 UTS= JUL 30 '97 05:46:06.00 WED                              Compiler= PL-6/E31         Sev=      00
 SharedLib= :SHARED_SYSTEM                                    Alt SharedLib=


    ****  Control sections  ****

 Sect   Type Bound  Init  Size OctSiz  Section name(segment info)
    0   DCB   even  none     0      0  M$UC
    1   Data  even  none    38     46  QTA$XCON
    2   DCB   even  none     0      0  M$LO
    3  RoData even  UTS      9     11  QTA$XCON
    4   Proc  even  none    64    100  QTA$XCON
    5  RoData even  none     2      2  QTA$XCON

    ****  Entry defs  ****

                              Check   Calling
                             calling  sequence
  Sect OctLoc Primary Altret sequence   type   Parms  Name
     4      0   yes            yes     Async       0  QTA$XCON

  ****  Entry refs  ****

         Check        Calling
        calling       sequence
Altret sequence SRef   type   Args  Name
         yes           Std       1 QTC$MON_ERR
                       nStd      0 X66_AAUTO
                       Std       0 B_CONSPOOL_D
                       nStd      0 X66_AARET
PL6.E3A0      #001=QTA$XCON File=QTA$XCON.:E05TSI                                WED 07/30/97 05:46 Page:8

  ****  Data refs  ****

  Flags:  r = read only, s = secondary
Flgs Name                             Flgs Name                             Flgs Name
     M$UC                                  QT_GLOBAL                             M$LO
     B$TCB$                                B_VECTNIL

  ****  Segment refs  ****

  Flags:  r = read only, s = secondary
Flgs Name                             Flgs Name                             Flgs Name
     ISSID                                 NULLSID                               ROSID
PL6.E3A0      #001=QTA$XCON File=QTA$XCON.:E05TSI                                WED 07/30/97 05:46 Page:9


        1        1        /*M* QTA$XCON - TRADER XCON processing */
        2        2        /*T***********************************************************/
        3        3        /*T*                                                         */
        4        4        /*T* Copyright (c) Bull HN Information Systems Inc., 1997    */
        5        5        /*T*                                                         */
        6        6        /*T***********************************************************/
        7        7        /*X* IND=2, DCI=4, CSU=2, ECU=4, DTI=2, CTI=4, AND */
        8        8        QTA$XCON:
        9        9                PROC ASYNC;

      9  4 000000   000000 700200 xent  QTA$XCON     TSX0  ! X66_AAUTO
         4 000001   000004 000000                    ZERO    4,0

       10       10
       11       11        %INCLUDE Q_PAGE_C;
       12       43        %SET LISTEXP = '1'B;
       13       44        %PAGE(ARG="Includes");

                61        /***************************************************************************
                62         *                                                                         *
                63         *                                  Includes                               *
                64         *                                                                         *
                65         ***************************************************************************/

       14       69        %INCLUDE CP_6;
       15      150        %INCLUDE QT_DATA_R;
       16      164        %PAGE(ARG="FPTs");

               181    1   /***************************************************************************
               182    1    *                                                                         *
               183    1    *                                    FPTs                                 *
               184    1    *                                                                         *
               185    1    ***************************************************************************/

       17      189        %FPT_YC(FPTN=FPT_YC,CMD=RESET,NOERR=YES);
       18      206
PL6.E3A0      #001=QTA$XCON File=QTA$XCON.:E05TSI                                WED 07/30/97 05:46 Page:10
       19      207        %FPT_CLOSE(DCB=M$LO, DISP=SAVE);
       20      249        %PAGE(ARG="DCBs");

               266    1   /***************************************************************************
               267    1    *                                                                         *
               268    1    *                                    DCBs                                 *
               269    1    *                                                                         *
               270    1    ***************************************************************************/

       21      274    1   DCL M$LO DCB;
       22      275        %PAGE(ARG="Externally Defined Routines");

               292    1   /***************************************************************************
               293    1    *                                                                         *
               294    1    *                        Externally Defined Routines                      *
               295    1    *                                                                         *
               296    1    ***************************************************************************/

       23      300    1   DCL QTC$MON_ERR ENTRY(1);
       24      301        %PAGE(ARG="Constants");

               318    1   /***************************************************************************
               319    1    *                                                                         *
               320    1    *                                 Constants                               *
               321    1    *                                                                         *
               322    1    ***************************************************************************/

       25      326    1   DCL RESET CHAR(0) CONSTANT INIT('R M$TRADER_ASSN:MRGE:REC_DCB_NAME');
       26      327        %PAGE(ARG="Subs");

               344    1   /***************************************************************************
               345    1    *                                                                         *
               346    1    *                                    Subs                                 *
               347    1    *                                                                         *
               348    1    ***************************************************************************/

       27      352        %SUB_EXC;
PL6.E3A0      #001=QTA$XCON File=QTA$XCON.:E05TSI                                WED 07/30/97 05:46 Page:11
       28      399        %PAGE(ARG="Symrefs");

               416    1   /***************************************************************************
               417    1    *                                                                         *
               418    1    *                                  Symrefs                                *
               419    1    *                                                                         *
               420    1    ***************************************************************************/

       29      424    1   DCL B$TCB$ PTR SYMREF;
       30      425        %PAGE(ARG="Based");

               442    1   /***************************************************************************
               443    1    *                                                                         *
               444    1    *                                   Based                                 *
               445    1    *                                                                         *
               446    1    ***************************************************************************/

       31      450        %B$TCB;
       32      453        %F$DCB;
       33      510        %B$XCON;
       34      520        %B$EXCFR;
       35      538        %PAGE(ARG="Auto");

               555    1   /***************************************************************************
               556    1    *                                                                         *
               557    1    *                                    Auto                                 *
               558    1    *                                                                         *
               559    1    ***************************************************************************/

       36      563    1   DCL P$ PTR;
       37      564        %PAGE(ARG="QTA$XCON", PAGE=YES);

PL6.E3A0      #001=QTA$XCON File=QTA$XCON.:E05TSI                                WED 07/30/97 05:46 Page:12
               581    1   /***************************************************************************
               582    1    *                                                                         *
               583    1    *                                  QTA$XCON                               *
               584    1    *                                                                         *
               585    1    ***************************************************************************/

       38      589    2           DO INHIBIT;

       39      590    2             P$ = B$TCB$ -> B$TCB.STK$;

    590  4 000002   000000 470600 xsym               LDP0  ! B$TCB$
         4 000003   000001 236300                    LDQ   ! 1,,PR0
         4 000004   200003 756300                    STQ   ! P$,,AUTO

       40      591    3             DO CASE(P$ -> B$EXCFR.ECC);

    591  4 000005   200003 471700                    LDP1  ! P$,,AUTO
         4 000006   100000 720300                    LXL0  ! 0,,PR1
         4 000007   000004 100203                    CMPX0 ! 4,DU
         4 000010   000012 602210 4                  TNC   ! s:591+5,X0
         4 000011   000037 710200 4                  TRA   ! s:616
         4 000012   000037 710200 4                  TRA   ! s:616
         4 000013   000037 710200 4                  TRA   ! s:616
         4 000014   000016 710200 4                  TRA   ! s:594
         4 000015   000021 710200 4                  TRA   ! s:598

       41      592
       42      593    3               CASE(2 /* ECC_INT# */);

       43      594    3                 QT_GLOBAL.BREAK = '1'B;

    594  4 000016   400000 236203                    LDQ   ! -131072,DU
         4 000017   000003 756200 xsym               STQ   ! QT_GLOBAL+3

       44      595    3                 GOTO RET;

    595  4 000020   000076 710200 4                  TRA   ! RET
PL6.E3A0      #001=QTA$XCON File=QTA$XCON.:E05TSI                                WED 07/30/97 05:46 Page:13

       45      596
       46      597    3               CASE(3 /* ECC_XCON# */);

       47      598    3                 IF P$ -> B$XCON.RNST.OPERR AND QT_GLOBAL.MUST_FINISH THEN

    598  4 000021   100101 236300                    LDQ   ! 65,,PR1
         4 000022   020000 316203                    CANQ  ! 8192,DU
         4 000023   000031 600200 4                  TZE   ! s:604
         4 000024   000004 234200 xsym               SZN   ! QT_GLOBAL+4
         4 000025   000031 605200 4                  TPL   ! s:604

       48      599    4                   DO;

       49      600    4                     QT_GLOBAL.XCON = '1'B;

    600  4 000026   400000 236203                    LDQ   ! -131072,DU
         4 000027   000001 756200 xsym               STQ   ! QT_GLOBAL+1

       50      601    4                     GOTO RET;

    601  4 000030   000076 710200 4                  TRA   ! RET

       51      602    4                   END;
       52      603
       53      604    3                 IF P$ -> B$XCON.RNST.ERR THEN

    604  4 000031   100101 430300                    FSZN  ! 65,,PR1
         4 000032   000034 605200 4                  TPL   ! s:609

       54      605    4                   DO;

       55      606    4                     GOTO ERR;

    606  4 000033   000064 710200 4                  TRA   ! ERR

       56      607    4                   END;
PL6.E3A0      #001=QTA$XCON File=QTA$XCON.:E05TSI                                WED 07/30/97 05:46 Page:14
       57      608
       58      609    3                 IF P$ -> B$XCON.RNST.MABRT THEN

    609  4 000034   010000 316203                    CANQ  ! 4096,DU
         4 000035   000037 600200 4                  TZE   ! s:616

       59      610    4                   DO;

       60      611    4                     GOTO MERCS;

    611  4 000036   000071 710200 4                  TRA   ! MERCS

       61      612    4                   END;
       62      613
       63      614    3             END /* CASE */;

       64      615
       65      616    2             IF DCBADDR(DCBNUM(M$LO)) -> F$DCB.FCD# THEN

    616  4 000037   000000 236207 xsym               LDQ   ! M$LO,DL
         4 000040   000000 473600 5                  LDP3  ! 0
         4 000041   300000 474700                    LDP4  ! 0,,PR3
         4 000042   400000 475706                    LDP5  ! 0,QL,PR4
         4 000043   500031 236300                    LDQ   ! 25,,PR5
         4 000044   020000 316207                    CANQ  ! 8192,DL
         4 000045   000052 600200 4                  TZE   ! s:621

       66      617    3               DO;

       67      618    3                 CALL M$CLOSE(FPT_CLOSE) ALTRET(MON_ERR);

    618  4 000046   000010 630600 1                  EPPR0 ! FPT_CLOSE
         4 000047   450001 713600                    CLIMB ! alt,close
         4 000050   406000 401760                    pmme    nvectors=13
         4 000051   000053 702200 4                  TSX2  ! MON_ERR

       68      619    3               END;
PL6.E3A0      #001=QTA$XCON File=QTA$XCON.:E05TSI                                WED 07/30/97 05:46 Page:15

       69      620
       70      621    3             DO WHILE ('0'B);

    621  4 000052   000057 710200 4                  TRA   ! s:626

       71      622    3   MON_ERR:    CALL QTC$MON_ERR('1'B);

    622  4 000053   000001 630600 5     MON_ERR      EPPR0 ! 1
         4 000054   000017 631600 xsym               EPPR1 ! B_VECTNIL+15
         4 000055   000000 701200 xent               TSX1  ! QTC$MON_ERR
         4 000056   000000 011200                    NOP   ! 0

       72      623    3             END;

       73      624
       74      625
       75      626    2             CALL M$YC(FPT_YC);

    626  4 000057   000000 630600 1                  EPPR0 ! FPT_YC
         4 000060   000011 713600                    CLIMB ! 9
         4 000061   401000 401760                    pmme    nvectors=3

       76      627    2             CALL M$EXIT;

    627  4 000062   000001 713600                    CLIMB ! exit
         4 000063   000000 401760                    pmme    nvectors=0

       77      628
       78      629    2   ERR:
       79      630    2             CALL M$YC(FPT_YC);

    630  4 000064   000000 630600 1     ERR          EPPR0 ! FPT_YC
         4 000065   000011 713600                    CLIMB ! 9
         4 000066   401000 401760                    pmme    nvectors=3

       80      631    2             CALL M$ERR;
PL6.E3A0      #001=QTA$XCON File=QTA$XCON.:E05TSI                                WED 07/30/97 05:46 Page:16

    631  4 000067   000002 713600                    CLIMB ! err
         4 000070   000000 401760                    pmme    nvectors=0

       81      632
       82      633    2   MERCS:
       83      634    2             CALL M$YC(FPT_YC);

    634  4 000071   000000 630600 1     MERCS        EPPR0 ! FPT_YC
         4 000072   000011 713600                    CLIMB ! 9
         4 000073   401000 401760                    pmme    nvectors=3

       84      635    2             CALL M$MERCS;

    635  4 000074   010014 713600                    CLIMB ! 4108
         4 000075   000000 401760                    pmme    nvectors=0

       85      636
       86      637    2   RET:
       87      638    2             RETURN;

    638  4 000076   000000 702200 xent  RET          TSX2  ! X66_AARET

       88      639
       89      640    2           END /* INHIBIT */;

       90      641    1   END QTA$XCON;

    641  4 000077   000000 702200 xent               TSX2  ! X66_AARET

PL6.E3A0      #001=QTA$XCON File=QTA$XCON.:E05TSI                                WED 07/30/97 05:46 Page:17
--  Include file information  --

   QT_DATA_R.:E05TOU  cannot be made into a system file and is referenced.
   CP_6.:E05TOU  cannot be made into a system file and is referenced.
   Q_PAGE_C.:E05TOU  is referenced.
   B$JIT_C.:E05TOU  was found in the system file and is never referenced.
   CP_6_C.:E05TOU  was found in the system file and is referenced.
      No diagnostics issued in procedure QTA$XCON.
PL6.E3A0      #001=QTA$XCON File=QTA$XCON.:E05TSI                                WED 07/30/97 05:46 Page:18

 **** Variables and constants ****

  ****  Section 001  Data  QTA$XCON

  ****  Scalars and arrays  ****
OctLoc.c.b A Datatyp(siz) R M Lvl/name                 OctLoc.c.b A Datatyp(siz) R M Lvl/name

    10-0-0/d STRC(1080)  r     1 FPT_CLOSE                  0-0-0/d STRC(288)   r     1 FPT_YC

  ****  Section 003 RoData QTA$XCON

  ****  Scalars and arrays  ****
OctLoc.c.b A Datatyp(siz) R M Lvl/name                 OctLoc.c.b A Datatyp(siz) R M Lvl/name

     0-0-0/c CHAR(33)    r     1 RESET

  ****  Auto variables  ****

  ****  Scalars and arrays  ****
OctLoc.c.b A Datatyp(siz) R M Lvl/name                 OctLoc.c.b A Datatyp(siz) R M Lvl/name

     3-0-0/w PTR         r     1 P$

  ****  SYMREF variables  ****

  ****  Scalars and arrays  ****
OctLoc.c.b A Datatyp(siz) R M Lvl/name                 OctLoc.c.b A Datatyp(siz) R M Lvl/name

     0-0-0/w PTR         r     1 B$TCB$                     0-0-0/w STRC(1872)  r     1 QT_GLOBAL

  ****  BASED and DCB variables  ****

  ****  Scalars and arrays  ****
OctLoc.c.b A Datatyp(siz) R M Lvl/name                 OctLoc.c.b A Datatyp(siz) R M Lvl/name

     0-0-0/w STRC(2448)  r     1 B$EXCFR                    0-0-0/w STRC(144)   r     1 B$TCB
     0-0-0/w STRC(2448)  r     1 B$XCON                     0-0-0/d ASTR(3528)  r     1 F$DCB
PL6.E3A0      #001=QTA$XCON File=QTA$XCON.:E05TSI                                WED 07/30/97 05:46 Page:19
     0-0-0N  NULL        r     1 M$LO


   Procedure QTA$XCON requires 64 words for executable code.
   Procedure QTA$XCON requires 4 words of local(AUTO) storage.

    No errors detected in file QTA$XCON.:E05TSI    .
PL6.E3A0      #001=QTA$XCON File=QTA$XCON.:E05TSI                                WED 07/30/97 05:46 Page:20
          *** CROSS REFERENCE LISTING ***
**     DENOTES     IDENTIFIER DEFINITION
<<                 IDENTIFIER'S VALUE SET
>>                 IDENTIFIER'S VALUE USED
<>                 IDENTIFIER SET AND/OR USED
--                 IDENTIFIER REFERENCED
PL6.E3A0      #001=QTA$XCON File=QTA$XCON.:E05TSI                                WED 07/30/97 05:46 Page:21
          MINI XREF LISTING

B$EXCFR.ASL
       521**DCL       521--REDEF
B$EXCFR.ECC
       521**DCL       591>>DOCASE
B$EXCFR.ERR.ERR#
       535**DCL       535--REDEF
B$EXCFR.EVID
       534**DCL       534--REDEF     535--REDEF
B$EXCFR.IR
       522**DCL       522--REDEF
B$EXCFR.PREVSZ
       521**DCL       521--REDEF
B$EXCFR.SUBC
       533**DCL       533--REDEF     534--REDEF     534--REDEF
B$TCB.STK$
       451**DCL       590>>ASSIGN
B$TCB$
       424**DCL       590>>ASSIGN
B$XCON.ERR.ERR#
       517**DCL       517--REDEF
B$XCON.LIMIT.MEM
       515**DCL       515--REDEF
B$XCON.RNST.ERR
       513**DCL       604>>IF
B$XCON.RNST.MABRT
       513**DCL       609>>IF
B$XCON.RNST.OPERR
       513**DCL       598>>IF
ERR
       630**LABEL     606--GOTO
F$DCB.ACTPOS
       486**DCL       486--REDEF
PL6.E3A0      #001=QTA$XCON File=QTA$XCON.:E05TSI                                WED 07/30/97 05:46 Page:22
F$DCB.ARS#
       460**DCL       460--REDEF
F$DCB.ATTR
       479**DCL       480--REDEF
F$DCB.BORROW
       494**DCL       494--REDEF     494--REDEF     494--REDEF
F$DCB.DCBNAME.L
       508**DCL       508--IMP-SIZ
F$DCB.EOMCHAR#
       464**DCL       464--REDEF
F$DCB.FCD#
       473**DCL       616>>IF
F$DCB.FLDID
       489**DCL       489--REDEF
F$DCB.FORM$
       483**DCL       483--REDEF
F$DCB.FSECT
       499**DCL       499--REDEF
F$DCB.FSN#
       476**DCL       476--REDEF     476--REDEF     477--REDEF
F$DCB.HEADER$
       482**DCL       482--REDEF
F$DCB.IXTNSIZE#
       480**DCL       480--REDEF
F$DCB.LASTSTA$
       469**DCL       469--REDEF
F$DCB.LVL
       495**DCL       495--REDEF
F$DCB.NAME#.C
       470**DCL       470--REDEF
F$DCB.NOEOF
       492**DCL       492--REDEF
F$DCB.NRECS#
       481**DCL       481--REDEF
F$DCB.NRECX
       500**DCL       500--REDEF
PL6.E3A0      #001=QTA$XCON File=QTA$XCON.:E05TSI                                WED 07/30/97 05:46 Page:23
F$DCB.OHDR
       492**DCL       492--REDEF
F$DCB.ORG#
       475**DCL       475--REDEF
F$DCB.PRECNO
       498**DCL       498--REDEF
F$DCB.RCSZ
       504**DCL       504--REDEF
F$DCB.RES#
       471**DCL       471--REDEF
F$DCB.SETX
       483**DCL       483--REDEF
F$DCB.TAB$
       483**DCL       483--REDEF
F$DCB.TDA
       497**DCL       498--REDEF
F$DCB.WSN#
       471**DCL       471--REDEF
FPT_CLOSE
       230**DCL       618<>CALL
FPT_CLOSE.SN_
       230**DCL       230--REDEF
FPT_CLOSE.UTL_
       231**DCL       231--REDEF
FPT_CLOSE.V
       235**DCL       230--DCLINIT
FPT_CLOSE.V.EXPIRE#
       245**DCL       245--REDEF
FPT_CLOSE.V.TYPE#
       243**DCL       243--REDEF
FPT_CLOSE.V.XTNSIZE#
       240**DCL       240--REDEF     242--REDEF
FPT_YC
       202**DCL       626<>CALL      630<>CALL      634<>CALL
FPT_YC.V
       203**DCL       202--DCLINIT
PL6.E3A0      #001=QTA$XCON File=QTA$XCON.:E05TSI                                WED 07/30/97 05:46 Page:24
M$CLOSE
        78**DCL-ENT   618--CALL
M$ERR
        90**DCL-ENT   631--CALL
M$EXIT
        90**DCL-ENT   627--CALL
M$LO
       274**DCL       616--IF
M$MERCS
       135**DCL-ENT   635--CALL
M$YC
        92**DCL-ENT   626--CALL      630--CALL      634--CALL
MERCS
       634**LABEL     611--GOTO
MON_ERR
       622**LABEL     618--CALLALT
P$
       563**DCL       590<<ASSIGN    591>>DOCASE    598>>IF        604>>IF        609>>IF
QTC$MON_ERR
       300**DCL-ENT   622--CALL
QT_CMDBLK.OUT$
       161**DCL       162--REDEF
QT_GLOBAL.BREAK
       158**DCL       594<<ASSIGN
QT_GLOBAL.MUST_FINISH
       158**DCL       598>>IF
QT_GLOBAL.XCON
       158**DCL       600<<ASSIGN
RESET
       326**DCL       202--DCLINIT
RET
       638**LABEL     595--GOTO      601--GOTO
