VERSION E05

PL6.E3A0      #001=QTB$HELP File=QTB$HELP.:E05TSI                                WED 07/30/97 05:47 Page:1
        1        1        /*M* QTB$HELP - Perform  ? ?? HELP  commands */
        2        2        /*T***********************************************************/
        3        3        /*T*                                                         */
        4        4        /*T* Copyright (c) Bull HN Information Systems Inc., 1997    */
        5        5        /*T*                                                         */
        6        6        /*T***********************************************************/
        7        7        /*X* IND=2, DCI=4, CSU=2, ECU=4, DTI=2, CTI=4, AND */
        8        8        QTB$HELP:
        9        9                PROC;
       10       10
       11       11        %INCLUDE Q_PAGE_C;
       12       43        %SET LISTEXP = '1'B;
       13       44        %PAGE(ARG="Includes");

                61        /***************************************************************************
                62         *                                                                         *
                63         *                                  Includes                               *
                64         *                                                                         *
                65         ***************************************************************************/

       14       69        %INCLUDE CP_6;
       15      150        %INCLUDE QT_SUBS_C;
       16      234        %INCLUDE Q_ERRCODE_C;
       17      257        %INCLUDE QT_PERR_C;
       18      308        %INCLUDE QT_DATA_R;
       19      322        %INCLUDE XU_MACRO_C;
       20     3428        %INCLUDE XUH_MACRO_C;
       21     3512        %PAGE(ARG="Externally defined routines");

              3529    1   /***************************************************************************
              3530    1    *                                                                         *
              3531    1    *                        Externally defined routines                      *
              3532    1    *                                                                         *
              3533    1    ***************************************************************************/

       22     3537    1   DCL XUR$ERRMSG ENTRY(7) ALTRET;
       23     3538    1   DCL XUR$HELP ENTRY(1) ALTRET;
PL6.E3A0      #001=QTB$HELP File=QTB$HELP.:E05TSI                                WED 07/30/97 05:47 Page:2
       24     3539    1   DCL XUR$MOREMSG ENTRY(1) ALTRET;
       25     3540    1   DCL XUR$ALLMSG ENTRY(1) ALTRET;
       26     3541        %PAGE(ARG="DCBs");

              3558    1   /***************************************************************************
              3559    1    *                                                                         *
              3560    1    *                                    DCBs                                 *
              3561    1    *                                                                         *
              3562    1    ***************************************************************************/

       27     3566    1   DCL M$DO DCB;
       28     3567        %PAGE(ARG="Based");

              3584    1   /***************************************************************************
              3585    1    *                                                                         *
              3586    1    *                                   Based                                 *
              3587    1    *                                                                         *
              3588    1    ***************************************************************************/

       29     3592        %PARSE$SYM(STCLASS=BASED);
       30     3630        %PARSE$OUT(STCLASS=BASED);
       31     3675        %PAGE(ARG="Static");

              3692    1   /***************************************************************************
              3693    1    *                                                                         *
              3694    1    *                                   Static                                *
              3695    1    *                                                                         *
              3696    1    ***************************************************************************/

       32     3700        %XUH_PARAM(OUTDCB1=M$DO);
       33     3761        %PAGE(ARG="Constant");

              3778    1   /***************************************************************************
              3779    1    *                                                                         *
              3780    1    *                                  Constant                               *
              3781    1    *                                                                         *
              3782    1    ***************************************************************************/
PL6.E3A0      #001=QTB$HELP File=QTB$HELP.:E05TSI                                WED 07/30/97 05:47 Page:3

       34     3786    1   DCL 1 COMMANDS(0:25) CONSTANT,
       35     3787    1         2 COUNT UBIN(9) UNAL INIT(0, 0, 12, 11, 10, 9, 12, 11,
       36     3788    1       3, 4, 10, 9, 12, 11, 1, 2, 4, 6,
       37     3789    1       5, 7, 5, 8, 3, 11, 6, 6),
       38     3790    1         2 TEXT CHAR(12) INIT(' ',
       39     3791    1                     ' ',
       40     3792    1        'CREATE ENTRY',
       41     3793    1        'CREATE FORM',
       42     3794    1        'COPY ENTRY',
       43     3795    1        'COPY FORM',
       44     3796    1        'DELETE ENTRY',
       45     3797    1        'DELETE FORM',
       46     3798    1        'END',
       47     3799    1        'HELP',
       48     3800    1        'LIST ENTRY',
       49     3801    1        'LIST FORM',
       50     3802    1        'MODIFY ENTRY',
       51     3803    1        'MODIFY FORM',
       52     3804    1        '?',
       53     3805    1        '??',
       54     3806    1        'QUIT',
       55     3807    1        'REDOIT',
       56     3808    1        'READS',
       57     3809    1        'REPORTS',
       58     3810    1        'RESET',
       59     3811    1        'RESPONDS',
       60     3812    1        'SET',
       61     3813    1        'ILLEGAL SET',
       62     3814    1        'SELECT',
       63     3815    1        'SPAWNS');
       64     3816        %PAGE(ARG="Auto");

              3833    1   /***************************************************************************
              3834    1    *                                                                         *
              3835    1    *                                    Auto                                 *
              3836    1    *                                                                         *
PL6.E3A0      #001=QTB$HELP File=QTB$HELP.:E05TSI                                WED 07/30/97 05:47 Page:4
              3837    1    ***************************************************************************/

       65     3841        %VLP_NAME(FPTN=KEYWORD, LEN=31);
       66     3868        %PAGE(ARG="Error codes", PAGE=YES);

PL6.E3A0      #001=QTB$HELP File=QTB$HELP.:E05TSI                                WED 07/30/97 05:47 Page:5
              3885    1   /***************************************************************************
              3886    1    *                                                                         *
              3887    1    *                                Error codes                              *
              3888    1    *                                                                         *
              3889    1    ***************************************************************************/

       67     3893        %ERRCODE(NAME=CODE_NOMORE, CODE#=%E$NOMORE, FCG#=%FCG_QT, MID#=%MID_B);
       68     3900        %ERRCODE(NAME=CODE_BADTOPIC, CODE#=%E$BADTOPIC, FCG#=%FCG_QT, MID#=%MID_B);
       69     3907        /*E*       ERROR: QTB-E$NOMORE-C
       70     3908
       71     3909                 MESSAGE: No more information
       72     3910             DESCRIPTION: There is no more information on that topic
       73     3911                          available.
       74     3912        */
       75     3913        /*E*       ERROR: QTB-E$BADTOPIC-C
       76     3914
       77     3915                 MESSAGE: No information is available on that topic.
       78     3916             DESCRIPTION: No information is available on that topic.
       79     3917        */
       80     3918        %PAGE(ARG="QTB$HELP", PAGE=YES);

PL6.E3A0      #001=QTB$HELP File=QTB$HELP.:E05TSI                                WED 07/30/97 05:47 Page:6
              3935    1   /***************************************************************************
              3936    1    *                                                                         *
              3937    1    *                                  QTB$HELP                               *
              3938    1    *                                                                         *
              3939    1    ***************************************************************************/

       81     3943    2           DO CASE(QT_CMDBLK.CODE);
       82     3944
       83     3945    2             CASE(14 /* QUEST */);
       84     3946    2               CALL XUR$MOREMSG(XUH_PARAM) ALTRET(NO_MORE);
       85     3947
       86     3948    2             CASE(15 /* DBL_QUEST */);
       87     3949    2               CALL XUR$ALLMSG(XUH_PARAM) ALTRET(NO_MORE);
       88     3950
       89     3951    2             CASE(9 /* HELP */);
       90     3952    2               XUH_PARAM.HELP$ = QT_CMDBLK.OUT$ -> OUT$BLK.SUBLK$(0) -> OUT$SYM.TEXTC$;
       91     3953    2               CALL XUR$HELP(XUH_PARAM) ALTRET(BAD_TOPIC);
       92     3954
       93     3955    3               DO WHILE('0'B);
       94     3956
       95     3957    3   BAD_TOPIC:
       96     3958    3                 CALL XUR$ERRMSG(CODE_BADTOPIC);
       97     3959    3               END /* WHILE */;
       98     3960
       99     3961    2           END /* CASE */;
      100     3962
      101     3963    1           GOTO RET;
      102     3964
      103     3965    1   NO_MORE:
      104     3966    1           IF QT_CMDBLK.CODE = 9 /* HELP */ THEN
      105     3967    2             DO;
      106     3968    2               QT_CMDBLK.CODE = 0;
      107     3969    2               CALL XUR$ERRMSG(CODE_NOMORE);
      108     3970    2               GOTO RET;
      109     3971    2             END;
      110     3972
      111     3973    1           IF QT_CMDBLK.CODE = 0 THEN
PL6.E3A0      #001=QTB$HELP File=QTB$HELP.:E05TSI                                WED 07/30/97 05:47 Page:7
      112     3974    2             DO;
      113     3975    2               QT_CMDBLK.CODE = 9 /* HELP */;
      114     3976    2             END;
      115     3977
      116     3978    1           KEYWORD.L# = COMMANDS.COUNT(QT_CMDBLK.CODE);
      117     3979    1           KEYWORD.NAME# = COMMANDS.TEXT(QT_CMDBLK.CODE);
      118     3980    1           XUH_PARAM.KEYWORD_ = VECTOR(KEYWORD);
      119     3981    1           CALL XUR$HELP(XUH_PARAM);
      120     3982
      121     3983    1   RET:
      122     3984    1           RETURN;
      123     3985
      124     3986    1   END QTB$HELP;

PL6.E3A0      #001=QTB$HELP File=QTB$HELP.:E05TSI                                WED 07/30/97 05:47 Page:8
--  Include file information  --

   XUH_MACRO_C.:E05TOU  is referenced.
   XU_MACRO_C.:E05TOU  is referenced.
   QT_DATA_R.:E05TOU  cannot be made into a system file and is referenced.
   QT_PERR_C.:E05TOU  is referenced.
   Q_ERRCODE_C.:E05TOU  is referenced.
   QT_SUBS_C.:E05TOU  is referenced.
   CP_6.:E05TOU  cannot be made into a system file and is referenced.
   Q_PAGE_C.:E05TOU  is referenced.
   B$JIT_C.:E05TOU  was found in the system file and is never referenced.
   CP_6_C.:E05TOU  was found in the system file and is referenced.
      No diagnostics issued in procedure QTB$HELP.

   Procedure QTB$HELP requires 66 words for executable code.
   Procedure QTB$HELP requires 4 words of local(AUTO) storage.

    No errors detected in file QTB$HELP.:E05TSI    .

PL6.E3A0      #001=QTB$HELP File=QTB$HELP.:E05TSI                                WED 07/30/97 05:47 Page:9

 Object Unit name= QTB$HELP                                   File name= QTB$HELP.:E05TOU
 UTS= JUL 30 '97 05:47:43.68 WED                              Compiler= PL-6/E31         Sev=      00
 SharedLib= :SHARED_SYSTEM                                    Alt SharedLib=


    ****  Control sections  ****

 Sect   Type Bound  Init  Size OctSiz  Section name(segment info)
    0   DCB   even  none     0      0  M$UC
    1   DCB   even  none     0      0  M$DO
    2   Data  even  none    66    102  QTB$HELP
    3  RoData even  UTS     87    127  QTB$HELP
    4   Proc  even  none    66    102  QTB$HELP
    5  RoData even  none     6      6  QTB$HELP

    ****  Entry defs  ****

                              Check   Calling
                             calling  sequence
  Sect OctLoc Primary Altret sequence   type   Parms  Name
     4      0   yes            yes      Std        0  QTB$HELP

  ****  Entry refs  ****

         Check        Calling
        calling       sequence
Altret sequence SRef   type   Args  Name
 yes     yes           Std       1 XUR$MOREMSG
 yes     yes           Std       1 XUR$ALLMSG
 yes     yes           Std       1 XUR$HELP
 yes     yes           Std       7 XUR$ERRMSG
                       nStd      0 X66_AUTO_0
                       Std       0 B_CONSPOOL_D
                       nStd      0 X66_ARET
PL6.E3A0      #001=QTB$HELP File=QTB$HELP.:E05TSI                                WED 07/30/97 05:47 Page:10

  ****  Data refs  ****

  Flags:  r = read only, s = secondary
Flgs Name                             Flgs Name                             Flgs Name
     M$UC                                  QT_CMDBLK                             M$DO
     B_VECTNIL

  ****  Segment refs  ****

  Flags:  r = read only, s = secondary
Flgs Name                             Flgs Name                             Flgs Name
     NULLSID                               ISSID
PL6.E3A0      #001=QTB$HELP File=QTB$HELP.:E05TSI                                WED 07/30/97 05:47 Page:11


        1        1        /*M* QTB$HELP - Perform  ? ?? HELP  commands */
        2        2        /*T***********************************************************/
        3        3        /*T*                                                         */
        4        4        /*T* Copyright (c) Bull HN Information Systems Inc., 1997    */
        5        5        /*T*                                                         */
        6        6        /*T***********************************************************/
        7        7        /*X* IND=2, DCI=4, CSU=2, ECU=4, DTI=2, CTI=4, AND */
        8        8        QTB$HELP:
        9        9                PROC;

      9  4 000000   000000 700200 xent  QTB$HELP     TSX0  ! X66_AUTO_0
         4 000001   000004 000000                    ZERO    4,0

       10       10
       11       11        %INCLUDE Q_PAGE_C;
       12       43        %SET LISTEXP = '1'B;
       13       44        %PAGE(ARG="Includes");

                61        /***************************************************************************
                62         *                                                                         *
                63         *                                  Includes                               *
                64         *                                                                         *
                65         ***************************************************************************/

       14       69        %INCLUDE CP_6;
       15      150        %INCLUDE QT_SUBS_C;
       16      234        %INCLUDE Q_ERRCODE_C;
       17      257        %INCLUDE QT_PERR_C;
       18      308        %INCLUDE QT_DATA_R;
       19      322        %INCLUDE XU_MACRO_C;
       20     3428        %INCLUDE XUH_MACRO_C;
       21     3512        %PAGE(ARG="Externally defined routines");

              3529    1   /***************************************************************************
              3530    1    *                                                                         *
              3531    1    *                        Externally defined routines                      *
PL6.E3A0      #001=QTB$HELP File=QTB$HELP.:E05TSI                                WED 07/30/97 05:47 Page:12
              3532    1    *                                                                         *
              3533    1    ***************************************************************************/

       22     3537    1   DCL XUR$ERRMSG ENTRY(7) ALTRET;
       23     3538    1   DCL XUR$HELP ENTRY(1) ALTRET;
       24     3539    1   DCL XUR$MOREMSG ENTRY(1) ALTRET;
       25     3540    1   DCL XUR$ALLMSG ENTRY(1) ALTRET;
       26     3541        %PAGE(ARG="DCBs");

              3558    1   /***************************************************************************
              3559    1    *                                                                         *
              3560    1    *                                    DCBs                                 *
              3561    1    *                                                                         *
              3562    1    ***************************************************************************/

       27     3566    1   DCL M$DO DCB;
       28     3567        %PAGE(ARG="Based");

              3584    1   /***************************************************************************
              3585    1    *                                                                         *
              3586    1    *                                   Based                                 *
              3587    1    *                                                                         *
              3588    1    ***************************************************************************/

       29     3592        %PARSE$SYM(STCLASS=BASED);
       30     3630        %PARSE$OUT(STCLASS=BASED);
       31     3675        %PAGE(ARG="Static");

              3692    1   /***************************************************************************
              3693    1    *                                                                         *
              3694    1    *                                   Static                                *
              3695    1    *                                                                         *
              3696    1    ***************************************************************************/

       32     3700        %XUH_PARAM(OUTDCB1=M$DO);
       33     3761        %PAGE(ARG="Constant");

PL6.E3A0      #001=QTB$HELP File=QTB$HELP.:E05TSI                                WED 07/30/97 05:47 Page:13
              3778    1   /***************************************************************************
              3779    1    *                                                                         *
              3780    1    *                                  Constant                               *
              3781    1    *                                                                         *
              3782    1    ***************************************************************************/

       34     3786    1   DCL 1 COMMANDS(0:25) CONSTANT,
       35     3787    1         2 COUNT UBIN(9) UNAL INIT(0, 0, 12, 11, 10, 9, 12, 11,
       36     3788    1       3, 4, 10, 9, 12, 11, 1, 2, 4, 6,
       37     3789    1       5, 7, 5, 8, 3, 11, 6, 6),
       38     3790    1         2 TEXT CHAR(12) INIT(' ',
       39     3791    1                     ' ',
       40     3792    1        'CREATE ENTRY',
       41     3793    1        'CREATE FORM',
       42     3794    1        'COPY ENTRY',
       43     3795    1        'COPY FORM',
       44     3796    1        'DELETE ENTRY',
       45     3797    1        'DELETE FORM',
       46     3798    1        'END',
       47     3799    1        'HELP',
       48     3800    1        'LIST ENTRY',
       49     3801    1        'LIST FORM',
       50     3802    1        'MODIFY ENTRY',
       51     3803    1        'MODIFY FORM',
       52     3804    1        '?',
       53     3805    1        '??',
       54     3806    1        'QUIT',
       55     3807    1        'REDOIT',
       56     3808    1        'READS',
       57     3809    1        'REPORTS',
       58     3810    1        'RESET',
       59     3811    1        'RESPONDS',
       60     3812    1        'SET',
       61     3813    1        'ILLEGAL SET',
       62     3814    1        'SELECT',
       63     3815    1        'SPAWNS');
       64     3816        %PAGE(ARG="Auto");
PL6.E3A0      #001=QTB$HELP File=QTB$HELP.:E05TSI                                WED 07/30/97 05:47 Page:14

              3833    1   /***************************************************************************
              3834    1    *                                                                         *
              3835    1    *                                    Auto                                 *
              3836    1    *                                                                         *
              3837    1    ***************************************************************************/

       65     3841        %VLP_NAME(FPTN=KEYWORD, LEN=31);
       66     3868        %PAGE(ARG="Error codes", PAGE=YES);

PL6.E3A0      #001=QTB$HELP File=QTB$HELP.:E05TSI                                WED 07/30/97 05:47 Page:15
              3885    1   /***************************************************************************
              3886    1    *                                                                         *
              3887    1    *                                Error codes                              *
              3888    1    *                                                                         *
              3889    1    ***************************************************************************/

       67     3893        %ERRCODE(NAME=CODE_NOMORE, CODE#=%E$NOMORE, FCG#=%FCG_QT, MID#=%MID_B);
       68     3900        %ERRCODE(NAME=CODE_BADTOPIC, CODE#=%E$BADTOPIC, FCG#=%FCG_QT, MID#=%MID_B);
       69     3907        /*E*       ERROR: QTB-E$NOMORE-C
       70     3908
       71     3909                 MESSAGE: No more information
       72     3910             DESCRIPTION: There is no more information on that topic
       73     3911                          available.
       74     3912        */
       75     3913        /*E*       ERROR: QTB-E$BADTOPIC-C
       76     3914
       77     3915                 MESSAGE: No information is available on that topic.
       78     3916             DESCRIPTION: No information is available on that topic.
       79     3917        */
       80     3918        %PAGE(ARG="QTB$HELP", PAGE=YES);

PL6.E3A0      #001=QTB$HELP File=QTB$HELP.:E05TSI                                WED 07/30/97 05:47 Page:16
              3935    1   /***************************************************************************
              3936    1    *                                                                         *
              3937    1    *                                  QTB$HELP                               *
              3938    1    *                                                                         *
              3939    1    ***************************************************************************/

       81     3943    2           DO CASE(QT_CMDBLK.CODE);

   3943  4 000002   000005 235000 xsym               LDA     QT_CMDBLK+5
         4 000003   000011 135007                    SBLA    9,DL
         4 000004   000007 115007                    CMPA    7,DL
         4 000005   000007 602005 4                  TNC     s:3943+5,AL
         4 000006   000045 710000 4                  TRA     s:3963
         4 000007   000030 710000 4                  TRA     s:3952
         4 000010   000045 710000 4                  TRA     s:3963
         4 000011   000045 710000 4                  TRA     s:3963
         4 000012   000045 710000 4                  TRA     s:3963
         4 000013   000045 710000 4                  TRA     s:3963
         4 000014   000016 710000 4                  TRA     s:3946
         4 000015   000023 710000 4                  TRA     s:3949

       82     3944
       83     3945    2             CASE(14 /* QUEST */);

       84     3946    2               CALL XUR$MOREMSG(XUH_PARAM) ALTRET(NO_MORE);

   3946  4 000016   000000 630400 5                  EPPR0   0
         4 000017   000017 631400 xsym               EPPR1   B_VECTNIL+15
         4 000020   000000 701000 xent               TSX1    XUR$MOREMSG
         4 000021   000046 702000 4                  TSX2    NO_MORE
         4 000022   000045 710000 4                  TRA     s:3963

       85     3947
       86     3948    2             CASE(15 /* DBL_QUEST */);

       87     3949    2               CALL XUR$ALLMSG(XUH_PARAM) ALTRET(NO_MORE);

PL6.E3A0      #001=QTB$HELP File=QTB$HELP.:E05TSI                                WED 07/30/97 05:47 Page:17
   3949  4 000023   000000 630400 5                  EPPR0   0
         4 000024   000017 631400 xsym               EPPR1   B_VECTNIL+15
         4 000025   000000 701000 xent               TSX1    XUR$ALLMSG
         4 000026   000046 702000 4                  TSX2    NO_MORE
         4 000027   000045 710000 4                  TRA     s:3963

       88     3950
       89     3951    2             CASE(9 /* HELP */);

       90     3952    2              XUH_PARAM.HELP$ = QT_CMDBLK.OUT$ -> OUT$BLK.SUBLK$(0) -> OUT$SYM.TEXTC$;

   3952  4 000030   000004 470400 xsym               LDP0    QT_CMDBLK+4
         4 000031   000003 471500                    LDP1    3,,PR0
         4 000032   100003 236100                    LDQ     3,,PR1
         4 000033   000011 756000 2                  STQ     XUH_PARAM+9

       91     3953    2               CALL XUR$HELP(XUH_PARAM) ALTRET(BAD_TOPIC);

   3953  4 000034   000000 630400 5                  EPPR0   0
         4 000035   000017 631400 xsym               EPPR1   B_VECTNIL+15
         4 000036   000000 701000 xent               TSX1    XUR$HELP
         4 000037   000041 702000 4                  TSX2    BAD_TOPIC

       92     3954
       93     3955    3               DO WHILE('0'B);

   3955  4 000040   000045 710000 4                  TRA     s:3963

       94     3956
       95     3957    3   BAD_TOPIC:
       96     3958    3                 CALL XUR$ERRMSG(CODE_BADTOPIC);

   3958  4 000041   000001 630400 5     BAD_TOPIC    EPPR0   1
         4 000042   000017 631400 xsym               EPPR1   B_VECTNIL+15
         4 000043   000000 701000 xent               TSX1    XUR$ERRMSG
         4 000044   000000 011000                    NOP     0

PL6.E3A0      #001=QTB$HELP File=QTB$HELP.:E05TSI                                WED 07/30/97 05:47 Page:18
       97     3959    3               END /* WHILE */;

       98     3960
       99     3961    2           END /* CASE */;

      100     3962
      101     3963    1           GOTO RET;

   3963  4 000045   000101 710000 4                  TRA     RET

      102     3964
      103     3965    1   NO_MORE:
      104     3966    1           IF QT_CMDBLK.CODE = 9 /* HELP */ THEN

   3966  4 000046   000005 235000 xsym  NO_MORE      LDA     QT_CMDBLK+5
         4 000047   000011 115007                    CMPA    9,DL
         4 000050   000057 601000 4                  TNZ     s:3973

      105     3967    2             DO;

      106     3968    2               QT_CMDBLK.CODE = 0;

   3968  4 000051   000005 450000 xsym               STZ     QT_CMDBLK+5

      107     3969    2               CALL XUR$ERRMSG(CODE_NOMORE);

   3969  4 000052   000002 630400 5                  EPPR0   2
         4 000053   000017 631400 xsym               EPPR1   B_VECTNIL+15
         4 000054   000000 701000 xent               TSX1    XUR$ERRMSG
         4 000055   000000 011000                    NOP     0

      108     3970    2               GOTO RET;

   3970  4 000056   000101 710000 4                  TRA     RET

      109     3971    2             END;
      110     3972
PL6.E3A0      #001=QTB$HELP File=QTB$HELP.:E05TSI                                WED 07/30/97 05:47 Page:19
      111     3973    1           IF QT_CMDBLK.CODE = 0 THEN

   3973  4 000057   000000 115003                    CMPA    0,DU
         4 000060   000063 601000 4                  TNZ     s:3978

      112     3974    2             DO;

      113     3975    2               QT_CMDBLK.CODE = 9 /* HELP */;

   3975  4 000061   000011 236007                    LDQ     9,DL
         4 000062   000005 756000 xsym               STQ     QT_CMDBLK+5

      114     3976    2             END;

      115     3977
      116     3978    1           KEYWORD.L# = COMMANDS.COUNT(QT_CMDBLK.CODE);

   3978  4 000063   000005 236000 xsym               LDQ     QT_CMDBLK+5
         4 000064   000015 402007                    MPY     13,DL
         4 000065   000000 100406                    MLR     fill='000'O
         4 000066   000000 000001 3                  ADSC9   COMMANDS,Q               cn=0,n=1
         4 000067   000072 000001 2                  ADSC9   KEYWORD                  cn=0,n=1

      117     3979    1           KEYWORD.NAME# = COMMANDS.TEXT(QT_CMDBLK.CODE);

   3979  4 000070   040000 100406                    MLR     fill='040'O
         4 000071   000000 200014 3                  ADSC9   COMMANDS,Q               cn=1,n=12
         4 000072   000072 200037 2                  ADSC9   KEYWORD                  cn=1,n=31

      118     3980    1           XUH_PARAM.KEYWORD_ = VECTOR(KEYWORD);

   3980  4 000073   000004 237000 5                  LDAQ    4
         4 000074   000006 757000 2                  STAQ    XUH_PARAM+6

      119     3981    1           CALL XUR$HELP(XUH_PARAM);

   3981  4 000075   000000 630400 5                  EPPR0   0
PL6.E3A0      #001=QTB$HELP File=QTB$HELP.:E05TSI                                WED 07/30/97 05:47 Page:20
         4 000076   000017 631400 xsym               EPPR1   B_VECTNIL+15
         4 000077   000000 701000 xent               TSX1    XUR$HELP
         4 000100   000000 011000                    NOP     0

      120     3982
      121     3983    1   RET:
      122     3984    1           RETURN;

   3984  4 000101   000000 702200 xent  RET          TSX2  ! X66_ARET
      123     3985
      124     3986    1   END QTB$HELP;

PL6.E3A0      #001=QTB$HELP File=QTB$HELP.:E05TSI                                WED 07/30/97 05:47 Page:21
--  Include file information  --

   XUH_MACRO_C.:E05TOU  is referenced.
   XU_MACRO_C.:E05TOU  is referenced.
   QT_DATA_R.:E05TOU  cannot be made into a system file and is referenced.
   QT_PERR_C.:E05TOU  is referenced.
   Q_ERRCODE_C.:E05TOU  is referenced.
   QT_SUBS_C.:E05TOU  is referenced.
   CP_6.:E05TOU  cannot be made into a system file and is referenced.
   Q_PAGE_C.:E05TOU  is referenced.
   B$JIT_C.:E05TOU  was found in the system file and is never referenced.
   CP_6_C.:E05TOU  was found in the system file and is referenced.
      No diagnostics issued in procedure QTB$HELP.
PL6.E3A0      #001=QTB$HELP File=QTB$HELP.:E05TSI                                WED 07/30/97 05:47 Page:22

 **** Variables and constants ****

  ****  Section 002  Data  QTB$HELP

  ****  Scalars and arrays  ****
OctLoc.c.b A Datatyp(siz) R M Lvl/name                 OctLoc.c.b A Datatyp(siz) R M Lvl/name

    72-0-0/c STRC(288)   r     1 KEYWORD                    0-0-0/d STRC(2052)  r     1 XUH_PARAM

  ****  Section 003 RoData QTB$HELP

  ****  Scalars and arrays  ****
OctLoc.c.b A Datatyp(siz) R M Lvl/name                 OctLoc.c.b A Datatyp(siz) R M Lvl/name

   126-0-0/b STRC        r     1 CODE_BADTOPIC            125-0-0/b STRC        r     1 CODE_NOMORE
     0-0-0/c STRC(117)   r     1 COMMANDS(0:25)

  ****  SYMREF variables  ****

  ****  Scalars and arrays  ****
OctLoc.c.b A Datatyp(siz) R M Lvl/name                 OctLoc.c.b A Datatyp(siz) R M Lvl/name

     0-0-0/w STRC(261)   r     1 QT_CMDBLK

  ****  BASED and DCB variables  ****

  ****  Scalars and arrays  ****
OctLoc.c.b A Datatyp(siz) R M Lvl/name                 OctLoc.c.b A Datatyp(siz) R M Lvl/name

     0-0-0N  NULL        r     1 M$DO                       0-0-0/w STRC(144)   r     1 OUT$BLK
     0-0-0/w ASTR(153)   r     1 OUT$SYM


   Procedure QTB$HELP requires 66 words for executable code.
   Procedure QTB$HELP requires 4 words of local(AUTO) storage.
PL6.E3A0      #001=QTB$HELP File=QTB$HELP.:E05TSI                                WED 07/30/97 05:47 Page:23

    No errors detected in file QTB$HELP.:E05TSI    .
PL6.E3A0      #001=QTB$HELP File=QTB$HELP.:E05TSI                                WED 07/30/97 05:47 Page:24
          *** CROSS REFERENCE LISTING ***
**     DENOTES     IDENTIFIER DEFINITION
<<                 IDENTIFIER'S VALUE SET
>>                 IDENTIFIER'S VALUE USED
<>                 IDENTIFIER SET AND/OR USED
--                 IDENTIFIER REFERENCED
PL6.E3A0      #001=QTB$HELP File=QTB$HELP.:E05TSI                                WED 07/30/97 05:47 Page:25
          MINI XREF LISTING

BAD_TOPIC
      3958**LABEL    3953--CALLALT
CODE_BADTOPIC
      3901**DCL      3958<>CALL
CODE_NOMORE
      3894**DCL      3969<>CALL
COMMANDS.COUNT
      3787**DCL      3978>>ASSIGN
COMMANDS.TEXT
      3790**DCL      3979>>ASSIGN
KEYWORD
      3866**DCL      3980--ASSIGN
KEYWORD.L#
      3866**DCL      3978<<ASSIGN
KEYWORD.NAME#
      3866**DCL      3979<<ASSIGN
NO_MORE
      3966**LABEL    3946--CALLALT  3949--CALLALT
OUT$BLK.SUBLK$
      3669**DCL      3952>>ASSIGN
OUT$SYM.COUNT
      3622**DCL      3625--IMP-SIZ
OUT$SYM.TEXTC$
      3617**DCL      3952>>ASSIGN
QT_CMDBLK.CODE
       320**DCL      3943>>DOCASE   3966>>IF       3968<<ASSIGN   3973>>IF       3975<<ASSIGN   3978>>ASSIGN
      3979>>ASSIGN
QT_CMDBLK.OUT$
       319**DCL       320--REDEF    3952>>ASSIGN
RET
      3984**LABEL    3963--GOTO     3970--GOTO
XUH_PARAM
PL6.E3A0      #001=QTB$HELP File=QTB$HELP.:E05TSI                                WED 07/30/97 05:47 Page:26
      3720**DCL      3946<>CALL     3949<>CALL     3953<>CALL     3981<>CALL
XUH_PARAM.HELP$
      3730**DCL      3952<<ASSIGN
XUH_PARAM.KEYWORD_
      3727**DCL      3980<<ASSIGN
XUR$ALLMSG
      3540**DCL-ENT  3949--CALL
XUR$ERRMSG
      3537**DCL-ENT  3958--CALL     3969--CALL
XUR$HELP
      3538**DCL-ENT  3953--CALL     3981--CALL
XUR$MOREMSG
      3539**DCL-ENT  3946--CALL
