VERSION E05

PL6.E3A0      #001=QTB$QUIT File=QTB$QUIT.:E05TSI                                WED 07/30/97 05:48 Page:1
        1        1        /*M* QTB$QUIT - Perform  QUIT  command */
        2        2        /*T***********************************************************/
        3        3        /*T*                                                         */
        4        4        /*T* Copyright (c) Bull HN Information Systems Inc., 1997    */
        5        5        /*T*                                                         */
        6        6        /*T***********************************************************/
        7        7        /*X* IND=2, DCI=4, CSU=2, ECU=4, DTI=2, CTI=4, AND */
        8        8        QTB$QUIT:
        9        9                PROC;
       10       10
       11       11        %INCLUDE Q_PAGE_C;
       12       43        %SET LISTEXP = '1'B;
       13       44        %PAGE(ARG="Includes");

                61        /***************************************************************************
                62         *                                                                         *
                63         *                                  Includes                               *
                64         *                                                                         *
                65         ***************************************************************************/

       14       69        %INCLUDE CP_6;
       15      150        %INCLUDE QT_DATA_R;
       16      164        %INCLUDE QT_PERR_C;
       17      215        %INCLUDE Q_ERRCODE_C;
       18      238        %INCLUDE XU_MACRO_C;
       19     3344        %PAGE(ARG="Externally defined routines");

              3361    1   /***************************************************************************
              3362    1    *                                                                         *
              3363    1    *                        Externally defined routines                      *
              3364    1    *                                                                         *
              3365    1    ***************************************************************************/

       20     3369    1   DCL QTC$MON_ERR ENTRY(1);
       21     3370    1   DCL XUR$ERRMSG ENTRY(7) ALTRET;
       22     3371        %PAGE(ARG="DCBs");

PL6.E3A0      #001=QTB$QUIT File=QTB$QUIT.:E05TSI                                WED 07/30/97 05:48 Page:2
              3388    1   /***************************************************************************
              3389    1    *                                                                         *
              3390    1    *                                    DCBs                                 *
              3391    1    *                                                                         *
              3392    1    ***************************************************************************/

       23     3396    1   DCL M$TRADER DCB;
       24     3397    1   DCL M$TRADER_SEQ DCB;
       25     3398    1   DCL M$LO DCB;
       26     3399        %F$DCB;
       27     3456        %PAGE(ARG="Error codes");

              3473    1   /***************************************************************************
              3474    1    *                                                                         *
              3475    1    *                                Error codes                              *
              3476    1    *                                                                         *
              3477    1    ***************************************************************************/

       28     3481        %ERRCODE(NAME=CODE_CLWR, CODE#=%E$CLWR, FCG#=%FCG_QT, MID#=%MID_B);
       29     3488        %PAGE(ARG="FPTs", PAGE=YES);

PL6.E3A0      #001=QTB$QUIT File=QTB$QUIT.:E05TSI                                WED 07/30/97 05:48 Page:3
              3505    1   /***************************************************************************
              3506    1    *                                                                         *
              3507    1    *                                    FPTs                                 *
              3508    1    *                                                                         *
              3509    1    ***************************************************************************/

       30     3513        %FPT_CLOSE(DCB=M$TRADER, DISP=SAVE);
       31     3555        %FPT_CLOSE(FPTN=CLOSE_LO, DCB=M$LO, DISP=SAVE);
       32     3597
       33     3598        %FPT_CLOSE(FPTN=FPT_CLOSE_SEQ, DCB=M$TRADER_SEQ, DISP=SAVE);
       34     3640        %PAGE(ARG="QTB$QUIT", PAGE=YES);

PL6.E3A0      #001=QTB$QUIT File=QTB$QUIT.:E05TSI                                WED 07/30/97 05:48 Page:4
              3657    1   /***************************************************************************
              3658    1    *                                                                         *
              3659    1    *                                  QTB$QUIT                               *
              3660    1    *                                                                         *
              3661    1    ***************************************************************************/

       35     3665                /*  verify that file selected has more than the current
       36     3666                    version record written if TRADER file had been previously
       37     3667                    selected.  If only one record, send message that previous
       38     3668                    TRADER file selected will be closed with DISP=RELEASE
       39     3669                */
       40     3670    1           IF QT_GLOBAL.FILE_SELECTED AND
       41     3671    1               QT_GLOBAL.M$TRADER$ -> F$DCB.NRECS# = 1 THEN
       42     3672    2             DO;
       43     3673    2               QT_CMDBLK.MINOR_ERR = CODE_CLWR;
       44     3674    2               CALL XUR$ERRMSG(QT_CMDBLK.MINOR_ERR,,,
       45     3675    2                   VECTOR(QT_GLOBAL.M$TRADER$ -> F$DCB.NAME#));
       46     3676                                      /* temporarily set DISP to RELEASE, then reset  */
       47     3677    2               FPT_CLOSE_SEQ.V.DISP# = 1;  /* release                            */
       48     3678    2               CALL M$CLOSE(FPT_CLOSE) ALTRET(MON_ERR);
       49     3679    2               CALL M$CLOSE(FPT_CLOSE_SEQ) ALTRET(MON_ERR);
       50     3680                                                /* reset                              */
       51     3681    2               FPT_CLOSE_SEQ.V.DISP# = 2;  /* save                               */
       52     3682                                                /* reset to no TRADER file selected   */
       53     3683    2               QT_GLOBAL.FILE_SELECTED = '0'B;
       54     3684    2             END;
       55     3685
       56     3686    1           IF QT_GLOBAL.FILE_SELECTED THEN
       57     3687    2             DO;
       58     3688    2               CALL M$CLOSE(FPT_CLOSE) ALTRET(MON_ERR);
       59     3689    2               CALL M$CLOSE(FPT_CLOSE_SEQ) ALTRET(MON_ERR);
       60     3690    2               QT_GLOBAL.FILE_SELECTED = '0'B;
       61     3691    2             END;
       62     3692
       63     3693    1           CALL M$CLOSE(CLOSE_LO);
       64     3694    1           CALL M$EXIT;
       65     3695
PL6.E3A0      #001=QTB$QUIT File=QTB$QUIT.:E05TSI                                WED 07/30/97 05:48 Page:5
       66     3696    1   MON_ERR:
       67     3697    1           CALL QTC$MON_ERR('1'B);
       68     3698
       69     3699    1   END QTB$QUIT;

PL6.E3A0      #001=QTB$QUIT File=QTB$QUIT.:E05TSI                                WED 07/30/97 05:48 Page:6
--  Include file information  --

   XU_MACRO_C.:E05TOU  is referenced.
   Q_ERRCODE_C.:E05TOU  is referenced.
   QT_PERR_C.:E05TOU  is referenced.
   QT_DATA_R.:E05TOU  cannot be made into a system file and is referenced.
   CP_6.:E05TOU  cannot be made into a system file and is referenced.
   Q_PAGE_C.:E05TOU  is referenced.
   B$JIT_C.:E05TOU  was found in the system file and is never referenced.
   CP_6_C.:E05TOU  was found in the system file and is referenced.
      No diagnostics issued in procedure QTB$QUIT.

   Procedure QTB$QUIT requires 58 words for executable code.
   Procedure QTB$QUIT requires 10 words of local(AUTO) storage.

    No errors detected in file QTB$QUIT.:E05TSI    .

PL6.E3A0      #001=QTB$QUIT File=QTB$QUIT.:E05TSI                                WED 07/30/97 05:48 Page:7

 Object Unit name= QTB$QUIT                                   File name= QTB$QUIT.:E05TOU
 UTS= JUL 30 '97 05:48:29.24 WED                              Compiler= PL-6/E31         Sev=      00
 SharedLib= :SHARED_SYSTEM                                    Alt SharedLib=


    ****  Control sections  ****

 Sect   Type Bound  Init  Size OctSiz  Section name(segment info)
    0   DCB   even  none     0      0  M$UC
    1   DCB   even  none     0      0  M$TRADER
    2   DCB   even  none     0      0  M$TRADER_SEQ
    3   DCB   even  none     0      0  M$LO
    4  RoData even  UTS      1      1  QTB$QUIT
    5   Data  even  none    90    132  QTB$QUIT
    6   Proc  even  none    58     72  QTB$QUIT
    7  RoData even  none     3      3  QTB$QUIT

    ****  Entry defs  ****

                              Check   Calling
                             calling  sequence
  Sect OctLoc Primary Altret sequence   type   Parms  Name
     6      0   yes            yes      Std        0  QTB$QUIT

  ****  Entry refs  ****

         Check        Calling
        calling       sequence
Altret sequence SRef   type   Args  Name
 yes     yes           Std       7 XUR$ERRMSG
         yes           Std       1 QTC$MON_ERR
                       nStd      0 X66_AUTO_0
                       Std       0 B_CONSPOOL_D
                       nStd      0 X66_ARET
PL6.E3A0      #001=QTB$QUIT File=QTB$QUIT.:E05TSI                                WED 07/30/97 05:48 Page:8

  ****  Data refs  ****

  Flags:  r = read only, s = secondary
Flgs Name                             Flgs Name                             Flgs Name
     M$UC                                  QT_GLOBAL                             QT_CMDBLK
     M$TRADER                              M$TRADER_SEQ                          M$LO
     B_VECTNIL

  ****  Segment refs  ****

  Flags:  r = read only, s = secondary
Flgs Name                             Flgs Name                             Flgs Name
     ISSID                                 NULLSID
PL6.E3A0      #001=QTB$QUIT File=QTB$QUIT.:E05TSI                                WED 07/30/97 05:48 Page:9


        1        1        /*M* QTB$QUIT - Perform  QUIT  command */
        2        2        /*T***********************************************************/
        3        3        /*T*                                                         */
        4        4        /*T* Copyright (c) Bull HN Information Systems Inc., 1997    */
        5        5        /*T*                                                         */
        6        6        /*T***********************************************************/
        7        7        /*X* IND=2, DCI=4, CSU=2, ECU=4, DTI=2, CTI=4, AND */
        8        8        QTB$QUIT:
        9        9                PROC;

      9  6 000000   000000 700200 xent  QTB$QUIT     TSX0  ! X66_AUTO_0
         6 000001   000012 000000                    ZERO    10,0

       10       10
       11       11        %INCLUDE Q_PAGE_C;
       12       43        %SET LISTEXP = '1'B;
       13       44        %PAGE(ARG="Includes");

                61        /***************************************************************************
                62         *                                                                         *
                63         *                                  Includes                               *
                64         *                                                                         *
                65         ***************************************************************************/

       14       69        %INCLUDE CP_6;
       15      150        %INCLUDE QT_DATA_R;
       16      164        %INCLUDE QT_PERR_C;
       17      215        %INCLUDE Q_ERRCODE_C;
       18      238        %INCLUDE XU_MACRO_C;
       19     3344        %PAGE(ARG="Externally defined routines");

              3361    1   /***************************************************************************
              3362    1    *                                                                         *
              3363    1    *                        Externally defined routines                      *
              3364    1    *                                                                         *
              3365    1    ***************************************************************************/
PL6.E3A0      #001=QTB$QUIT File=QTB$QUIT.:E05TSI                                WED 07/30/97 05:48 Page:10

       20     3369    1   DCL QTC$MON_ERR ENTRY(1);
       21     3370    1   DCL XUR$ERRMSG ENTRY(7) ALTRET;
       22     3371        %PAGE(ARG="DCBs");

              3388    1   /***************************************************************************
              3389    1    *                                                                         *
              3390    1    *                                    DCBs                                 *
              3391    1    *                                                                         *
              3392    1    ***************************************************************************/

       23     3396    1   DCL M$TRADER DCB;
       24     3397    1   DCL M$TRADER_SEQ DCB;
       25     3398    1   DCL M$LO DCB;
       26     3399        %F$DCB;
       27     3456        %PAGE(ARG="Error codes");

              3473    1   /***************************************************************************
              3474    1    *                                                                         *
              3475    1    *                                Error codes                              *
              3476    1    *                                                                         *
              3477    1    ***************************************************************************/

       28     3481        %ERRCODE(NAME=CODE_CLWR, CODE#=%E$CLWR, FCG#=%FCG_QT, MID#=%MID_B);
       29     3488        %PAGE(ARG="FPTs", PAGE=YES);

PL6.E3A0      #001=QTB$QUIT File=QTB$QUIT.:E05TSI                                WED 07/30/97 05:48 Page:11
              3505    1   /***************************************************************************
              3506    1    *                                                                         *
              3507    1    *                                    FPTs                                 *
              3508    1    *                                                                         *
              3509    1    ***************************************************************************/

       30     3513        %FPT_CLOSE(DCB=M$TRADER, DISP=SAVE);
       31     3555        %FPT_CLOSE(FPTN=CLOSE_LO, DCB=M$LO, DISP=SAVE);
       32     3597
       33     3598        %FPT_CLOSE(FPTN=FPT_CLOSE_SEQ, DCB=M$TRADER_SEQ, DISP=SAVE);
       34     3640        %PAGE(ARG="QTB$QUIT", PAGE=YES);

PL6.E3A0      #001=QTB$QUIT File=QTB$QUIT.:E05TSI                                WED 07/30/97 05:48 Page:12
              3657    1   /***************************************************************************
              3658    1    *                                                                         *
              3659    1    *                                  QTB$QUIT                               *
              3660    1    *                                                                         *
              3661    1    ***************************************************************************/

       35     3665                /*  verify that file selected has more than the current
       36     3666                    version record written if TRADER file had been previously
       37     3667                    selected.  If only one record, send message that previous
       38     3668                    TRADER file selected will be closed with DISP=RELEASE
       39     3669                */
       40     3670    1           IF QT_GLOBAL.FILE_SELECTED AND

   3670  6 000002   000000 234000 xsym               SZN     QT_GLOBAL
         6 000003   000045 605000 6                  TPL     s:3686
         6 000004   000034 470400 xsym               LDP0    QT_GLOBAL+28
         6 000005   000042 235100                    LDA     34,,PR0
         6 000006   000001 115007                    CMPA    1,DL
         6 000007   000045 601000 6                  TNZ     s:3686

       41     3671    1               QT_GLOBAL.M$TRADER$ -> F$DCB.NRECS# = 1 THEN
       42     3672    2             DO;

       43     3673    2               QT_CMDBLK.MINOR_ERR = CODE_CLWR;

   3673  6 000010   000000 236000 4                  LDQ     CODE_CLWR
         6 000011   000001 756000 xsym               STQ     QT_CMDBLK+1

       44     3674    2               CALL XUR$ERRMSG(QT_CMDBLK.MINOR_ERR,,,

   3674  6 000012   000000 235000 7                  LDA     0
         6 000013   000034 236000 xsym               LDQ     QT_GLOBAL+28
         6 000014   000010 036003                    ADLQ    8,DU
         6 000015   200004 757100                    STAQ    4,,AUTO
         6 000016   200004 631500                    EPPR1   4,,AUTO
         6 000017   200011 451500                    STP1    9,,AUTO
         6 000020   000001 236000 xsym               LDQ     B_VECTNIL+1
PL6.E3A0      #001=QTB$QUIT File=QTB$QUIT.:E05TSI                                WED 07/30/97 05:48 Page:13
         6 000021   200010 756100                    STQ     8,,AUTO
         6 000022   000001 235000 7                  LDA     1
         6 000023   200006 757100                    STAQ    6,,AUTO
         6 000024   200006 630500                    EPPR0   6,,AUTO
         6 000025   000022 631400 xsym               EPPR1   B_VECTNIL+18
         6 000026   000000 701000 xent               TSX1    XUR$ERRMSG
         6 000027   000000 011000                    NOP     0

       45     3675    2                   VECTOR(QT_GLOBAL.M$TRADER$ -> F$DCB.NAME#));
       46     3676                                      /* temporarily set DISP to RELEASE, then reset  */
       47     3677    2               FPT_CLOSE_SEQ.V.DISP# = 1;  /* release                            */

   3677  6 000030   000001 236007                    LDQ     1,DL
         6 000031   000126 552004 5                  STBQ    FPT_CLOSE_SEQ+26,'04'O

       48     3678    2               CALL M$CLOSE(FPT_CLOSE) ALTRET(MON_ERR);

   3678  6 000032   000000 630400 5                  EPPR0   FPT_CLOSE
         6 000033   450001 713400                    CLIMB   alt,close
         6 000034   406000 401760                    pmme    nvectors=13
         6 000035   000065 702000 6                  TSX2    MON_ERR

       49     3679    2               CALL M$CLOSE(FPT_CLOSE_SEQ) ALTRET(MON_ERR);

   3679  6 000036   000074 630400 5                  EPPR0   FPT_CLOSE_SEQ
         6 000037   450001 713400                    CLIMB   alt,close
         6 000040   406000 401760                    pmme    nvectors=13
         6 000041   000065 702000 6                  TSX2    MON_ERR

       50     3680                                                /* reset                              */
       51     3681    2               FPT_CLOSE_SEQ.V.DISP# = 2;  /* save                               */

   3681  6 000042   000002 236007                    LDQ     2,DL
         6 000043   000126 552004 5                  STBQ    FPT_CLOSE_SEQ+26,'04'O

       52     3682                                                /* reset to no TRADER file selected   */
       53     3683    2               QT_GLOBAL.FILE_SELECTED = '0'B;
PL6.E3A0      #001=QTB$QUIT File=QTB$QUIT.:E05TSI                                WED 07/30/97 05:48 Page:14

   3683  6 000044   000000 450000 xsym               STZ     QT_GLOBAL

       54     3684    2             END;

       55     3685
       56     3686    1           IF QT_GLOBAL.FILE_SELECTED THEN

   3686  6 000045   000000 234000 xsym               SZN     QT_GLOBAL
         6 000046   000060 605000 6                  TPL     s:3693

       57     3687    2             DO;

       58     3688    2               CALL M$CLOSE(FPT_CLOSE) ALTRET(MON_ERR);

   3688  6 000047   000000 630400 5                  EPPR0   FPT_CLOSE
         6 000050   450001 713400                    CLIMB   alt,close
         6 000051   406000 401760                    pmme    nvectors=13
         6 000052   000065 702000 6                  TSX2    MON_ERR

       59     3689    2               CALL M$CLOSE(FPT_CLOSE_SEQ) ALTRET(MON_ERR);

   3689  6 000053   000074 630400 5                  EPPR0   FPT_CLOSE_SEQ
         6 000054   450001 713400                    CLIMB   alt,close
         6 000055   406000 401760                    pmme    nvectors=13
         6 000056   000065 702000 6                  TSX2    MON_ERR

       60     3690    2               QT_GLOBAL.FILE_SELECTED = '0'B;

   3690  6 000057   000000 450000 xsym               STZ     QT_GLOBAL

       61     3691    2             END;

       62     3692
       63     3693    1           CALL M$CLOSE(CLOSE_LO);

   3693  6 000060   000036 630400 5                  EPPR0   CLOSE_LO
PL6.E3A0      #001=QTB$QUIT File=QTB$QUIT.:E05TSI                                WED 07/30/97 05:48 Page:15
         6 000061   050001 713400                    CLIMB   close
         6 000062   406000 401760                    pmme    nvectors=13

       64     3694    1           CALL M$EXIT;

   3694  6 000063   000001 713400                    CLIMB   exit
         6 000064   000000 401760                    pmme    nvectors=0

       65     3695
       66     3696    1   MON_ERR:
       67     3697    1           CALL QTC$MON_ERR('1'B);

   3697  6 000065   000002 630400 7     MON_ERR      EPPR0   2
         6 000066   000017 631400 xsym               EPPR1   B_VECTNIL+15
         6 000067   000000 701000 xent               TSX1    QTC$MON_ERR
         6 000070   000000 011000                    NOP     0

       68     3698
       69     3699    1   END QTB$QUIT;

   3699  6 000071   000000 702200 xent               TSX2  ! X66_ARET

PL6.E3A0      #001=QTB$QUIT File=QTB$QUIT.:E05TSI                                WED 07/30/97 05:48 Page:16
--  Include file information  --

   XU_MACRO_C.:E05TOU  is referenced.
   Q_ERRCODE_C.:E05TOU  is referenced.
   QT_PERR_C.:E05TOU  is referenced.
   QT_DATA_R.:E05TOU  cannot be made into a system file and is referenced.
   CP_6.:E05TOU  cannot be made into a system file and is referenced.
   Q_PAGE_C.:E05TOU  is referenced.
   B$JIT_C.:E05TOU  was found in the system file and is never referenced.
   CP_6_C.:E05TOU  was found in the system file and is referenced.
      No diagnostics issued in procedure QTB$QUIT.
PL6.E3A0      #001=QTB$QUIT File=QTB$QUIT.:E05TSI                                WED 07/30/97 05:48 Page:17

 **** Variables and constants ****

  ****  Section 004 RoData QTB$QUIT

  ****  Scalars and arrays  ****
OctLoc.c.b A Datatyp(siz) R M Lvl/name                 OctLoc.c.b A Datatyp(siz) R M Lvl/name

     0-0-0/b STRC        r     1 CODE_CLWR

  ****  Section 005  Data  QTB$QUIT

  ****  Scalars and arrays  ****
OctLoc.c.b A Datatyp(siz) R M Lvl/name                 OctLoc.c.b A Datatyp(siz) R M Lvl/name

    36-0-0/d STRC(1080)  r     1 CLOSE_LO                   0-0-0/d STRC(1080)  r     1 FPT_CLOSE
    74-0-0/d STRC(1080)  r     1 FPT_CLOSE_SEQ

  ****  SYMREF variables  ****

  ****  Scalars and arrays  ****
OctLoc.c.b A Datatyp(siz) R M Lvl/name                 OctLoc.c.b A Datatyp(siz) R M Lvl/name

     0-0-0/w STRC(261)   r     1 QT_CMDBLK                  0-0-0/w STRC(1872)  r     1 QT_GLOBAL

  ****  BASED and DCB variables  ****

  ****  Scalars and arrays  ****
OctLoc.c.b A Datatyp(siz) R M Lvl/name                 OctLoc.c.b A Datatyp(siz) R M Lvl/name

     0-0-0/d ASTR(3528)  r     1 F$DCB                      0-0-0N  NULL        r     1 M$LO
     0-0-0N  NULL        r     1 M$TRADER                   0-0-0N  NULL        r     1 M$TRADER_SEQ


   Procedure QTB$QUIT requires 58 words for executable code.
   Procedure QTB$QUIT requires 10 words of local(AUTO) storage.
PL6.E3A0      #001=QTB$QUIT File=QTB$QUIT.:E05TSI                                WED 07/30/97 05:48 Page:18

    No errors detected in file QTB$QUIT.:E05TSI    .
PL6.E3A0      #001=QTB$QUIT File=QTB$QUIT.:E05TSI                                WED 07/30/97 05:48 Page:19
          *** CROSS REFERENCE LISTING ***
**     DENOTES     IDENTIFIER DEFINITION
<<                 IDENTIFIER'S VALUE SET
>>                 IDENTIFIER'S VALUE USED
<>                 IDENTIFIER SET AND/OR USED
--                 IDENTIFIER REFERENCED
PL6.E3A0      #001=QTB$QUIT File=QTB$QUIT.:E05TSI                                WED 07/30/97 05:48 Page:20
          MINI XREF LISTING

CLOSE_LO
      3578**DCL      3693<>CALL
CLOSE_LO.SN_
      3578**DCL      3578--REDEF
CLOSE_LO.UTL_
      3579**DCL      3579--REDEF
CLOSE_LO.V
      3583**DCL      3578--DCLINIT
CLOSE_LO.V.EXPIRE#
      3593**DCL      3593--REDEF
CLOSE_LO.V.TYPE#
      3591**DCL      3591--REDEF
CLOSE_LO.V.XTNSIZE#
      3588**DCL      3588--REDEF    3590--REDEF
CODE_CLWR
      3482**DCL      3673>>ASSIGN
F$DCB.ACTPOS
      3432**DCL      3432--REDEF
F$DCB.ARS#
      3406**DCL      3406--REDEF
F$DCB.ATTR
      3425**DCL      3426--REDEF
F$DCB.BORROW
      3440**DCL      3440--REDEF    3440--REDEF    3440--REDEF
F$DCB.DCBNAME.L
      3454**DCL      3454--IMP-SIZ
F$DCB.EOMCHAR#
      3410**DCL      3410--REDEF
F$DCB.FLDID
      3435**DCL      3435--REDEF
F$DCB.FORM$
      3429**DCL      3429--REDEF
PL6.E3A0      #001=QTB$QUIT File=QTB$QUIT.:E05TSI                                WED 07/30/97 05:48 Page:21
F$DCB.FSECT
      3445**DCL      3445--REDEF
F$DCB.FSN#
      3422**DCL      3422--REDEF    3422--REDEF    3423--REDEF
F$DCB.HEADER$
      3428**DCL      3428--REDEF
F$DCB.IXTNSIZE#
      3426**DCL      3426--REDEF
F$DCB.LASTSTA$
      3415**DCL      3415--REDEF
F$DCB.LVL
      3441**DCL      3441--REDEF
F$DCB.NAME#
      3416**DCL      3674--CALL
F$DCB.NAME#.C
      3416**DCL      3416--REDEF
F$DCB.NOEOF
      3438**DCL      3438--REDEF
F$DCB.NRECS#
      3427**DCL      3427--REDEF    3670>>IF
F$DCB.NRECX
      3446**DCL      3446--REDEF
F$DCB.OHDR
      3438**DCL      3438--REDEF
F$DCB.ORG#
      3421**DCL      3421--REDEF
F$DCB.PRECNO
      3444**DCL      3444--REDEF
F$DCB.RCSZ
      3450**DCL      3450--REDEF
F$DCB.RES#
      3417**DCL      3417--REDEF
F$DCB.SETX
      3429**DCL      3429--REDEF
F$DCB.TAB$
      3429**DCL      3429--REDEF
PL6.E3A0      #001=QTB$QUIT File=QTB$QUIT.:E05TSI                                WED 07/30/97 05:48 Page:22
F$DCB.TDA
      3443**DCL      3444--REDEF
F$DCB.WSN#
      3417**DCL      3417--REDEF
FPT_CLOSE
      3536**DCL      3678<>CALL     3688<>CALL
FPT_CLOSE.SN_
      3536**DCL      3536--REDEF
FPT_CLOSE.UTL_
      3537**DCL      3537--REDEF
FPT_CLOSE.V
      3541**DCL      3536--DCLINIT
FPT_CLOSE.V.EXPIRE#
      3551**DCL      3551--REDEF
FPT_CLOSE.V.TYPE#
      3549**DCL      3549--REDEF
FPT_CLOSE.V.XTNSIZE#
      3546**DCL      3546--REDEF    3548--REDEF
FPT_CLOSE_SEQ
      3621**DCL      3679<>CALL     3689<>CALL
FPT_CLOSE_SEQ.SN_
      3621**DCL      3621--REDEF
FPT_CLOSE_SEQ.UTL_
      3622**DCL      3622--REDEF
FPT_CLOSE_SEQ.V
      3626**DCL      3621--DCLINIT
FPT_CLOSE_SEQ.V.DISP#
      3630**DCL      3677<<ASSIGN   3681<<ASSIGN
FPT_CLOSE_SEQ.V.EXPIRE#
      3636**DCL      3636--REDEF
FPT_CLOSE_SEQ.V.TYPE#
      3634**DCL      3634--REDEF
FPT_CLOSE_SEQ.V.XTNSIZE#
      3631**DCL      3631--REDEF    3633--REDEF
M$CLOSE
        78**DCL-ENT  3678--CALL     3679--CALL     3688--CALL     3689--CALL     3693--CALL
PL6.E3A0      #001=QTB$QUIT File=QTB$QUIT.:E05TSI                                WED 07/30/97 05:48 Page:23
M$EXIT
        90**DCL-ENT  3694--CALL
MON_ERR
      3697**LABEL    3678--CALLALT  3679--CALLALT  3688--CALLALT  3689--CALLALT
QTC$MON_ERR
      3369**DCL-ENT  3697--CALL
QT_CMDBLK.MINOR_ERR
       161**DCL      3673<<ASSIGN   3674<>CALL
QT_CMDBLK.OUT$
       161**DCL       162--REDEF
QT_GLOBAL.FILE_SELECTED
       158**DCL      3670>>IF       3683<<ASSIGN   3686>>IF       3690<<ASSIGN
QT_GLOBAL.M$TRADER$
       159**DCL      3670>>IF       3674>>CALL
XUR$ERRMSG
      3370**DCL-ENT  3674--CALL
