VERSION E05

PL6.E3A0      #001=QTB$REDOIT File=QTB$REDOIT.:E05TSI                            WED 07/30/97 05:48 Page:1
        1        1        /*M* QTB$REDOIT - Process  REDOIT  command */
        2        2        /*T***********************************************************/
        3        3        /*T*                                                         */
        4        4        /*T* Copyright (c) Bull HN Information Systems Inc., 1997    */
        5        5        /*T*                                                         */
        6        6        /*T***********************************************************/
        7        7        /*X* IND=2, DCI=4, CSU=2, ECU=4, DTI=2, CTI=4, AND */
        8        8        QTB$REDOIT:
        9        9                PROC;
       10       10
       11       11        %INCLUDE Q_PAGE_C;
       12       43        %SET LISTEXP = '1'B;
       13       44        %PAGE(ARG="Includes");

                61        /***************************************************************************
                62         *                                                                         *
                63         *                                  Includes                               *
                64         *                                                                         *
                65         ***************************************************************************/

       14       69        %INCLUDE QT_SUBS_C;
       15      153        %INCLUDE Q_ERRCODE_C;
       16      176        %INCLUDE QT_PERR_C;
       17      227        %INCLUDE QT_MACROS_C;
       18      385        %INCLUDE CP_6;
       19      466        %INCLUDE QT_DATA_R;
       20      480        %PAGE(ARG="Externally defined routines");

               497    1   /***************************************************************************
               498    1    *                                                                         *
               499    1    *                        Externally defined routines                      *
               500    1    *                                                                         *
               501    1    ***************************************************************************/

       21      505    1   DCL QTC$READ_TRADER ENTRY(3) ALTRET;
       22      506    1   DCL QTC$PROCESS_SET ENTRY(3);
       23      507    1   DCL QTC$WRITE_TRADER ENTRY(2);
PL6.E3A0      #001=QTB$REDOIT File=QTB$REDOIT.:E05TSI                            WED 07/30/97 05:48 Page:2
       24      508    1   DCL XUR$ERRMSG ENTRY(7) ALTRET;
       25      509    1   DCL QQC$CONVERT_NUM ENTRY(3);
       26      510        %PAGE(ARG="Based");

               527    1   /***************************************************************************
               528    1    *                                                                         *
               529    1    *                                   Based                                 *
               530    1    *                                                                         *
               531    1    ***************************************************************************/

       27      535        %QT$ENTRY;
       28      589        %QT$SETTEXT;
       29      599        %PAGE(ARG="Auto");

               616    1   /***************************************************************************
               617    1    *                                                                         *
               618    1    *                                    Auto                                 *
               619    1    *                                                                         *
               620    1    ***************************************************************************/

       30      624    1   DCL I UBIN WORD;
       31      625    1   DCL SIZE UBIN WORD;
       32      626    1   DCL SETS_UPDATED UBIN WORD;
       33      627
       34      628    1   DCL FOUND_MSGTYP CHAR(8);
       35      629
       36      630        %VLP_NAME(FPTN=TEXTC_NUM);
       37      657        %PAGE(ARG="Error codes", PAGE=YES);

PL6.E3A0      #001=QTB$REDOIT File=QTB$REDOIT.:E05TSI                            WED 07/30/97 05:48 Page:3
               674    1   /***************************************************************************
               675    1    *                                                                         *
               676    1    *                                Error codes                              *
               677    1    *                                                                         *
               678    1    ***************************************************************************/

       38      682        %ERRCODE(NAME=CODE_SU, CODE#=%E$SU, FCG#=%FCG_QT, MID#=%MID_B);
       39      689        /*E*       ERROR: QTB-E$SU-C
       40      690
       41      691                 MESSAGE: %U1 assign-merge records rebuilt
       42      692             DESCRIPTION: Number of records rebuilt by REDOIT
       43      693        */
       44      694        %PAGE(ARG="QTB$REDOIT", PAGE=YES);

PL6.E3A0      #001=QTB$REDOIT File=QTB$REDOIT.:E05TSI                            WED 07/30/97 05:48 Page:4
               711    1   /***************************************************************************
               712    1    *                                                                         *
               713    1    *                                 QTB$REDOIT                              *
               714    1    *                                                                         *
               715    1    ***************************************************************************/

       45      719    1           QT_GLOBAL.MUST_FINISH = '1'B;
       46      720    1           SETS_UPDATED = 0;
       47      721
       48      722    2           DO WHILE('1'B);
       49      723    2             CALL QTC$READ_TRADER('?       ', 1 /* TYPE_E */, FOUND_MSGTYP) ALTRET(
               723                      NO_MORE);
       50      724
       51      725    2             IF QT$ENTRY.SET_COUNT > 0 THEN
       52      726    3               DO;
       53      727    4                 DO I = 1 TO QT$ENTRY.SET_COUNT;
       54      728    4                   SETS_UPDATED = SETS_UPDATED + 1;
       55      729    4                   CALL QTC$PROCESS_SET(QT$SETTEXT, '1'B, FOUND_MSGTYP);
       56      730    4                 END;
       57      731
       58      732    3                 CALL QTC$WRITE_TRADER(FOUND_MSGTYP, 1 /* TYPE_E */);
       59      733    3               END;
       60      734
       61      735    2           END /* WHILE */;
       62      736
       63      737    1   NO_MORE:
       64      738    1           CALL QQC$CONVERT_NUM(SETS_UPDATED, SIZE, ADDR(TEXTC_NUM.NAME#));
       65      739    1           TEXTC_NUM.L# = SIZE;
       66      740    1           CALL XUR$ERRMSG(CODE_SU, , , VECTOR(TEXTC_NUM));
       67      741
       68      742    1           QT_GLOBAL.MUST_FINISH = '0'B;
       69      743
       70      744    1           RETURN;
       71      745
       72      746    1   END QTB$REDOIT;

PL6.E3A0      #001=QTB$REDOIT File=QTB$REDOIT.:E05TSI                            WED 07/30/97 05:48 Page:5
--  Include file information  --

   QT_DATA_R.:E05TOU  cannot be made into a system file and is referenced.
   CP_6.:E05TOU  cannot be made into a system file and is referenced.
   QT_MACROS_C.:E05TOU  is referenced.
   QT_PERR_C.:E05TOU  is referenced.
   Q_ERRCODE_C.:E05TOU  is referenced.
   QT_SUBS_C.:E05TOU  is referenced.
   Q_PAGE_C.:E05TOU  is referenced.
   B$JIT_C.:E05TOU  was found in the system file and is never referenced.
   CP_6_C.:E05TOU  was found in the system file and is referenced.
      No diagnostics issued in procedure QTB$REDOIT.

   Procedure QTB$REDOIT requires 77 words for executable code.
   Procedure QTB$REDOIT requires 12 words of local(AUTO) storage.

    No errors detected in file QTB$REDOIT.:E05TSI    .

PL6.E3A0      #001=QTB$REDOIT File=QTB$REDOIT.:E05TSI                            WED 07/30/97 05:48 Page:6

 Object Unit name= QTB$REDOIT                                 File name= QTB$REDOIT.:E05TOU
 UTS= JUL 30 '97 05:48:46.68 WED                              Compiler= PL-6/E31         Sev=      00
 SharedLib= :SHARED_SYSTEM                                    Alt SharedLib=


    ****  Control sections  ****

 Sect   Type Bound  Init  Size OctSiz  Section name(segment info)
    0   DCB   even  none     0      0  M$UC
    1   Data  even  none     8     10  QTB$REDOIT
    2  RoData even  UTS      3      3  QTB$REDOIT
    3   Proc  even  none    77    115  QTB$REDOIT
    4  RoData even  none     8     10  QTB$REDOIT

    ****  Entry defs  ****

                              Check   Calling
                             calling  sequence
  Sect OctLoc Primary Altret sequence   type   Parms  Name
     3      0   yes            yes      Std        0  QTB$REDOIT

  ****  Entry refs  ****

         Check        Calling
        calling       sequence
Altret sequence SRef   type   Args  Name
 yes     yes           Std       3 QTC$READ_TRADER
         yes           Std       3 QTC$PROCESS_SET
         yes           Std       2 QTC$WRITE_TRADER
         yes           Std       3 QQC$CONVERT_NUM
 yes     yes           Std       7 XUR$ERRMSG
                       nStd      0 X66_AUTO_0
                       Std       0 B_CONSPOOL_D
                       nStd      0 X66_ARET
PL6.E3A0      #001=QTB$REDOIT File=QTB$REDOIT.:E05TSI                            WED 07/30/97 05:48 Page:7

  ****  Data refs  ****

  Flags:  r = read only, s = secondary
Flgs Name                             Flgs Name                             Flgs Name
     M$UC                                  QT_GLOBAL                             B_VECTNIL

  ****  Segment refs  ****

  Flags:  r = read only, s = secondary
Flgs Name                             Flgs Name                             Flgs Name
     ISSID
PL6.E3A0      #001=QTB$REDOIT File=QTB$REDOIT.:E05TSI                            WED 07/30/97 05:48 Page:8


        1        1        /*M* QTB$REDOIT - Process  REDOIT  command */
        2        2        /*T***********************************************************/
        3        3        /*T*                                                         */
        4        4        /*T* Copyright (c) Bull HN Information Systems Inc., 1997    */
        5        5        /*T*                                                         */
        6        6        /*T***********************************************************/
        7        7        /*X* IND=2, DCI=4, CSU=2, ECU=4, DTI=2, CTI=4, AND */
        8        8        QTB$REDOIT:
        9        9                PROC;

      9  3 000000   000000 700200 xent  QTB$REDOIT   TSX0  ! X66_AUTO_0
         3 000001   000014 000000                    ZERO    12,0

       10       10
       11       11        %INCLUDE Q_PAGE_C;
       12       43        %SET LISTEXP = '1'B;
       13       44        %PAGE(ARG="Includes");

                61        /***************************************************************************
                62         *                                                                         *
                63         *                                  Includes                               *
                64         *                                                                         *
                65         ***************************************************************************/

       14       69        %INCLUDE QT_SUBS_C;
       15      153        %INCLUDE Q_ERRCODE_C;
       16      176        %INCLUDE QT_PERR_C;
       17      227        %INCLUDE QT_MACROS_C;
       18      385        %INCLUDE CP_6;
       19      466        %INCLUDE QT_DATA_R;
       20      480        %PAGE(ARG="Externally defined routines");

               497    1   /***************************************************************************
               498    1    *                                                                         *
               499    1    *                        Externally defined routines                      *
               500    1    *                                                                         *
PL6.E3A0      #001=QTB$REDOIT File=QTB$REDOIT.:E05TSI                            WED 07/30/97 05:48 Page:9
               501    1    ***************************************************************************/

       21      505    1   DCL QTC$READ_TRADER ENTRY(3) ALTRET;
       22      506    1   DCL QTC$PROCESS_SET ENTRY(3);
       23      507    1   DCL QTC$WRITE_TRADER ENTRY(2);
       24      508    1   DCL XUR$ERRMSG ENTRY(7) ALTRET;
       25      509    1   DCL QQC$CONVERT_NUM ENTRY(3);
       26      510        %PAGE(ARG="Based");

               527    1   /***************************************************************************
               528    1    *                                                                         *
               529    1    *                                   Based                                 *
               530    1    *                                                                         *
               531    1    ***************************************************************************/

       27      535        %QT$ENTRY;
       28      589        %QT$SETTEXT;
       29      599        %PAGE(ARG="Auto");

               616    1   /***************************************************************************
               617    1    *                                                                         *
               618    1    *                                    Auto                                 *
               619    1    *                                                                         *
               620    1    ***************************************************************************/

       30      624    1   DCL I UBIN WORD;
       31      625    1   DCL SIZE UBIN WORD;
       32      626    1   DCL SETS_UPDATED UBIN WORD;
       33      627
       34      628    1   DCL FOUND_MSGTYP CHAR(8);
       35      629
       36      630        %VLP_NAME(FPTN=TEXTC_NUM);
       37      657        %PAGE(ARG="Error codes", PAGE=YES);

PL6.E3A0      #001=QTB$REDOIT File=QTB$REDOIT.:E05TSI                            WED 07/30/97 05:48 Page:10
               674    1   /***************************************************************************
               675    1    *                                                                         *
               676    1    *                                Error codes                              *
               677    1    *                                                                         *
               678    1    ***************************************************************************/

       38      682        %ERRCODE(NAME=CODE_SU, CODE#=%E$SU, FCG#=%FCG_QT, MID#=%MID_B);
       39      689        /*E*       ERROR: QTB-E$SU-C
       40      690
       41      691                 MESSAGE: %U1 assign-merge records rebuilt
       42      692             DESCRIPTION: Number of records rebuilt by REDOIT
       43      693        */
       44      694        %PAGE(ARG="QTB$REDOIT", PAGE=YES);

PL6.E3A0      #001=QTB$REDOIT File=QTB$REDOIT.:E05TSI                            WED 07/30/97 05:48 Page:11
               711    1   /***************************************************************************
               712    1    *                                                                         *
               713    1    *                                 QTB$REDOIT                              *
               714    1    *                                                                         *
               715    1    ***************************************************************************/

       45      719    1           QT_GLOBAL.MUST_FINISH = '1'B;

    719  3 000002   400000 236003                    LDQ     -131072,DU
         3 000003   000004 756000 xsym               STQ     QT_GLOBAL+4

       46      720    1           SETS_UPDATED = 0;

    720  3 000004   200005 450100                    STZ     SETS_UPDATED,,AUTO

       47      721
       48      722    2           DO WHILE('1'B);

       49      723    2             CALL QTC$READ_TRADER('?       ', 1 /* TYPE_E */, FOUND_MSGTYP) ALTRET(
               723                      NO_MORE);

    723  3 000005   200006 630500                    EPPR0   FOUND_MSGTYP,,AUTO
         3 000006   200012 450500                    STP0    FOUND_MSGTYP+4,,AUTO
         3 000007   000000 237000 4                  LDAQ    0
         3 000010   200010 757100                    STAQ    FOUND_MSGTYP+2,,AUTO
         3 000011   200010 630500                    EPPR0   FOUND_MSGTYP+2,,AUTO
         3 000012   000021 631400 xsym               EPPR1   B_VECTNIL+17
         3 000013   000000 701000 xent               TSX1    QTC$READ_TRADER
         3 000014   000062 702000 3                  TSX2    NO_MORE

       50      724
       51      725    2             IF QT$ENTRY.SET_COUNT > 0 THEN

    725  3 000015   000031 470400 xsym               LDP0    QT_GLOBAL+25
         3 000016   000023 236100                    LDQ     19,,PR0
         3 000017   777000 316007                    CANQ    -512,DL
         3 000020   000005 600000 3                  TZE     s:723
PL6.E3A0      #001=QTB$REDOIT File=QTB$REDOIT.:E05TSI                            WED 07/30/97 05:48 Page:12

       52      726    3               DO;

       53      727    4                 DO I = 1 TO QT$ENTRY.SET_COUNT;

    727  3 000021   000001 235007                    LDA     1,DL
         3 000022   200003 755100                    STA     I,,AUTO
         3 000023   000043 710000 3                  TRA     s:730+3

       54      728    4                   SETS_UPDATED = SETS_UPDATED + 1;

    728  3 000024   200005 235100                    LDA     SETS_UPDATED,,AUTO
         3 000025   000001 035007                    ADLA    1,DL
         3 000026   200005 755100                    STA     SETS_UPDATED,,AUTO

       55      729    4                   CALL QTC$PROCESS_SET(QT$SETTEXT, '1'B, FOUND_MSGTYP);

    729  3 000027   200006 630500                    EPPR0   FOUND_MSGTYP,,AUTO
         3 000030   200012 450500                    STP0    FOUND_MSGTYP+4,,AUTO
         3 000031   000002 236000 4                  LDQ     2
         3 000032   000032 235000 xsym               LDA     QT_GLOBAL+26
         3 000033   200010 757100                    STAQ    FOUND_MSGTYP+2,,AUTO
         3 000034   200010 630500                    EPPR0   FOUND_MSGTYP+2,,AUTO
         3 000035   000021 631400 xsym               EPPR1   B_VECTNIL+17
         3 000036   000000 701000 xent               TSX1    QTC$PROCESS_SET
         3 000037   000000 011000                    NOP     0

       56      730    4                 END;

    730  3 000040   200003 235100                    LDA     I,,AUTO
         3 000041   000001 035007                    ADLA    1,DL
         3 000042   200003 755100                    STA     I,,AUTO
         3 000043   000031 470400 xsym               LDP0    QT_GLOBAL+25
         3 000044   000023 236100                    LDQ     19,,PR0
         3 000045   000011 772000                    QRL     9
         3 000046   000777 376007                    ANQ     511,DL
         3 000047   200003 116100                    CMPQ    I,,AUTO
PL6.E3A0      #001=QTB$REDOIT File=QTB$REDOIT.:E05TSI                            WED 07/30/97 05:48 Page:13
         3 000050   000024 603000 3                  TRC     s:728

       57      731
       58      732    3                 CALL QTC$WRITE_TRADER(FOUND_MSGTYP, 1 /* TYPE_E */);

    732  3 000051   000001 236000 4                  LDQ     1
         3 000052   200011 756100                    STQ     FOUND_MSGTYP+3,,AUTO
         3 000053   200006 631500                    EPPR1   FOUND_MSGTYP,,AUTO
         3 000054   200010 451500                    STP1    FOUND_MSGTYP+2,,AUTO
         3 000055   200010 630500                    EPPR0   FOUND_MSGTYP+2,,AUTO
         3 000056   000020 631400 xsym               EPPR1   B_VECTNIL+16
         3 000057   000000 701000 xent               TSX1    QTC$WRITE_TRADER
         3 000060   000000 011000                    NOP     0

       59      733    3               END;

       60      734
       61      735    2           END /* WHILE */;

    735  3 000061   000005 710000 3                  TRA     s:723

       62      736
       63      737    1   NO_MORE:
       64      738    1           CALL QQC$CONVERT_NUM(SETS_UPDATED, SIZE, ADDR(TEXTC_NUM.NAME#));

    738  3 000062   000003 236000 4     NO_MORE      LDQ     3
         3 000063   200010 756100                    STQ     FOUND_MSGTYP+2,,AUTO
         3 000064   200010 630500                    EPPR0   FOUND_MSGTYP+2,,AUTO
         3 000065   200013 450500                    STP0    FOUND_MSGTYP+5,,AUTO
         3 000066   200004 631500                    EPPR1   SIZE,,AUTO
         3 000067   200012 451500                    STP1    FOUND_MSGTYP+4,,AUTO
         3 000070   200005 633500                    EPPR3   SETS_UPDATED,,AUTO
         3 000071   200011 453500                    STP3    FOUND_MSGTYP+3,,AUTO
         3 000072   200011 630500                    EPPR0   FOUND_MSGTYP+3,,AUTO
         3 000073   000021 631400 xsym               EPPR1   B_VECTNIL+17
         3 000074   000000 701000 xent               TSX1    QQC$CONVERT_NUM
         3 000075   000000 011000                    NOP     0
PL6.E3A0      #001=QTB$REDOIT File=QTB$REDOIT.:E05TSI                            WED 07/30/97 05:48 Page:14

       65      739    1           TEXTC_NUM.L# = SIZE;

    739  3 000076   200004 236100                    LDQ     SIZE,,AUTO
         3 000077   000033 736000                    QLS     27
         3 000100   000000 552040 1                  STBQ    TEXTC_NUM,'40'O

       66      740    1           CALL XUR$ERRMSG(CODE_SU, , , VECTOR(TEXTC_NUM));

    740  3 000101   000006 236000 4                  LDQ     6
         3 000102   000001 235000 xsym               LDA     B_VECTNIL+1
         3 000103   200012 757100                    STAQ    FOUND_MSGTYP+4,,AUTO
         3 000104   000001 236000 xsym               LDQ     B_VECTNIL+1
         3 000105   000007 235000 4                  LDA     7
         3 000106   200010 757100                    STAQ    FOUND_MSGTYP+2,,AUTO
         3 000107   200010 630500                    EPPR0   FOUND_MSGTYP+2,,AUTO
         3 000110   000022 631400 xsym               EPPR1   B_VECTNIL+18
         3 000111   000000 701000 xent               TSX1    XUR$ERRMSG
         3 000112   000000 011000                    NOP     0

       67      741
       68      742    1           QT_GLOBAL.MUST_FINISH = '0'B;

    742  3 000113   000004 450000 xsym               STZ     QT_GLOBAL+4

       69      743
       70      744    1           RETURN;

    744  3 000114   000000 702200 xent               TSX2  ! X66_ARET
       71      745
       72      746    1   END QTB$REDOIT;

PL6.E3A0      #001=QTB$REDOIT File=QTB$REDOIT.:E05TSI                            WED 07/30/97 05:48 Page:15
--  Include file information  --

   QT_DATA_R.:E05TOU  cannot be made into a system file and is referenced.
   CP_6.:E05TOU  cannot be made into a system file and is referenced.
   QT_MACROS_C.:E05TOU  is referenced.
   QT_PERR_C.:E05TOU  is referenced.
   Q_ERRCODE_C.:E05TOU  is referenced.
   QT_SUBS_C.:E05TOU  is referenced.
   Q_PAGE_C.:E05TOU  is referenced.
   B$JIT_C.:E05TOU  was found in the system file and is never referenced.
   CP_6_C.:E05TOU  was found in the system file and is referenced.
      No diagnostics issued in procedure QTB$REDOIT.
PL6.E3A0      #001=QTB$REDOIT File=QTB$REDOIT.:E05TSI                            WED 07/30/97 05:48 Page:16

 **** Variables and constants ****

  ****  Section 001  Data  QTB$REDOIT

  ****  Scalars and arrays  ****
OctLoc.c.b A Datatyp(siz) R M Lvl/name                 OctLoc.c.b A Datatyp(siz) R M Lvl/name

     0-0-0/c STRC(288)   r     1 TEXTC_NUM

  ****  Section 002 RoData QTB$REDOIT

  ****  Scalars and arrays  ****
OctLoc.c.b A Datatyp(siz) R M Lvl/name                 OctLoc.c.b A Datatyp(siz) R M Lvl/name

     0-0-0/b STRC        r     1 CODE_SU

  ****  Auto variables  ****

  ****  Scalars and arrays  ****
OctLoc.c.b A Datatyp(siz) R M Lvl/name                 OctLoc.c.b A Datatyp(siz) R M Lvl/name

     6-0-0/c CHAR(8)     r     1 FOUND_MSGTYP               3-0-0/w UBIN        r     1 I
     5-0-0/w UBIN        r     1 SETS_UPDATED               4-0-0/w UBIN        r     1 SIZE

  ****  SYMREF variables  ****

  ****  Scalars and arrays  ****
OctLoc.c.b A Datatyp(siz) R M Lvl/name                 OctLoc.c.b A Datatyp(siz) R M Lvl/name

     0-0-0/w STRC(1872)  r     1 QT_GLOBAL

  ****  BASED and DCB variables  ****

  ****  Scalars and arrays  ****
OctLoc.c.b A Datatyp(siz) R M Lvl/name                 OctLoc.c.b A Datatyp(siz) R M Lvl/name

     0-0-0/w STRC(936)   r     1 QT$ENTRY                   0-0-0/w ASTR(144)   r     1 QT$SETTEXT
PL6.E3A0      #001=QTB$REDOIT File=QTB$REDOIT.:E05TSI                            WED 07/30/97 05:48 Page:17


   Procedure QTB$REDOIT requires 77 words for executable code.
   Procedure QTB$REDOIT requires 12 words of local(AUTO) storage.

    No errors detected in file QTB$REDOIT.:E05TSI    .
PL6.E3A0      #001=QTB$REDOIT File=QTB$REDOIT.:E05TSI                            WED 07/30/97 05:48 Page:18
          *** CROSS REFERENCE LISTING ***
**     DENOTES     IDENTIFIER DEFINITION
<<                 IDENTIFIER'S VALUE SET
>>                 IDENTIFIER'S VALUE USED
<>                 IDENTIFIER SET AND/OR USED
--                 IDENTIFIER REFERENCED
PL6.E3A0      #001=QTB$REDOIT File=QTB$REDOIT.:E05TSI                            WED 07/30/97 05:48 Page:19
          MINI XREF LISTING

CODE_SU
       683**DCL       740<>CALL
FOUND_MSGTYP
       628**DCL       723<>CALL      729<>CALL      732<>CALL
I
       624**DCL       727<<DOINDEX
NO_MORE
       738**LABEL     723--CALLALT
QQC$CONVERT_NUM
       509**DCL-ENT   738--CALL
QT$ENTRY.SET_COUNT
       582**DCL       725>>IF        727>>DOINDEX
QT$SETTEXT
       590**DCL       729<>CALL
QT$SETTEXT.COUNT
       591**DCL       596--IMP-SIZ   729>>CALL
QTC$PROCESS_SET
       506**DCL-ENT   729--CALL
QTC$READ_TRADER
       505**DCL-ENT   723--CALL
QTC$WRITE_TRADER
       507**DCL-ENT   732--CALL
QT_CMDBLK.OUT$
       477**DCL       478--REDEF
QT_GLOBAL.MUST_FINISH
       474**DCL       719<<ASSIGN    742<<ASSIGN
QT_GLOBAL.QT$ENTRY$
       475**DCL       546--IMP-PTR   725>>IF        727>>DOINDEX
QT_GLOBAL.QT$SETTEXT$
       475**DCL       590--IMP-PTR   729>>CALL      729>>CALL
SETS_UPDATED
       626**DCL       720<<ASSIGN    728<<ASSIGN    728>>ASSIGN    738<>CALL
PL6.E3A0      #001=QTB$REDOIT File=QTB$REDOIT.:E05TSI                            WED 07/30/97 05:48 Page:20
SIZE
       625**DCL       738<>CALL      739>>ASSIGN
TEXTC_NUM
       655**DCL       740--CALL
TEXTC_NUM.L#
       655**DCL       739<<ASSIGN
TEXTC_NUM.NAME#
       655**DCL       738--CALL
XUR$ERRMSG
       508**DCL-ENT   740--CALL
