VERSION E05

PL6.E3A0      #001=QTB$RESET File=QTB$RESET.:E05TSI                              WED 07/30/97 05:48 Page:1
        1        1        /*M* QTB$RESET - Process  RESET command */
        2        2        /*T***********************************************************/
        3        3        /*T*                                                         */
        4        4        /*T* Copyright (c) Bull HN Information Systems Inc., 1997    */
        5        5        /*T*                                                         */
        6        6        /*T***********************************************************/
        7        7        /*X* IND=2, DCI=4, CSU=2, ECU=4, DTI=2, CTI=4, AND */
        8        8        QTB$RESET:
        9        9                PROC;
       10       10
       11       11        %INCLUDE Q_PAGE_C;
       12       43        %SET LISTEXP = '1'B;
       13       44        %PAGE(ARG="Includes");

                61        /***************************************************************************
                62         *                                                                         *
                63         *                                  Includes                               *
                64         *                                                                         *
                65         ***************************************************************************/

       14       69        %INCLUDE QT_DATA_R;
       15       83        %INCLUDE QT_PERR_C;
       16      134        %INCLUDE Q_ERRCODE_C;
       17      157        %INCLUDE QT_MACROS_C;
       18      315        %INCLUDE QT_SUBS_C;
       19      399        %INCLUDE XU_MACRO_C;
       20     3505        %PAGE(ARG="Externally defined routines");

              3522    1   /***************************************************************************
              3523    1    *                                                                         *
              3524    1    *                        Externally defined routines                      *
              3525    1    *                                                                         *
              3526    1    ***************************************************************************/

       21     3530    1   DCL QTC$DELETE_SET ENTRY(1) ALTRET;
       22     3531    1   DCL XUR$ERRMSG ENTRY(7) ALTRET;
       23     3532        %PAGE(ARG="Based");
PL6.E3A0      #001=QTB$RESET File=QTB$RESET.:E05TSI                              WED 07/30/97 05:48 Page:2

              3549    1   /***************************************************************************
              3550    1    *                                                                         *
              3551    1    *                                   Based                                 *
              3552    1    *                                                                         *
              3553    1    ***************************************************************************/

       24     3557        %QT$ENTRY;
       25     3611        %PARSE$SYM(STCLASS=BASED);
       26     3649        %PARSE$OUT(STCLASS=BASED);
       27     3694
       28     3695    1   DCL 1 DCB$NAME BASED,
       29     3696    1         2 COUNT UBIN(9) UNAL,
       30     3697    1         2 TEXT CHAR(DCB$NAME.COUNT);
       31     3698        %PAGE(ARG="Auto");

              3715    1   /***************************************************************************
              3716    1    *                                                                         *
              3717    1    *                                    Auto                                 *
              3718    1    *                                                                         *
              3719    1    ***************************************************************************/

       32     3723    1   DCL SUBLK$ PTR;
       33     3724        %PAGE(ARG="Error codes", PAGE=YES);

PL6.E3A0      #001=QTB$RESET File=QTB$RESET.:E05TSI                              WED 07/30/97 05:48 Page:3
              3741    1   /***************************************************************************
              3742    1    *                                                                         *
              3743    1    *                                Error codes                              *
              3744    1    *                                                                         *
              3745    1    ***************************************************************************/

       34     3749        %ERRCODE(NAME=CODE_DIS, CODE#=%E$DIS, FCG#=%FCG_QT, MID#=%MID_B);
       35     3756        /*E*       ERROR: QTB-E$DIS-C
       36     3757
       37     3758                 MESSAGE: This DCB hasn't been assigned.
       38     3759             DESCRIPTION: Can't reset a DCB that isn't assigned
       39     3760        */
       40     3761        %PAGE(ARG="QTB$RESET", PAGE=YES);

PL6.E3A0      #001=QTB$RESET File=QTB$RESET.:E05TSI                              WED 07/30/97 05:48 Page:4
              3778    1   /***************************************************************************
              3779    1    *                                                                         *
              3780    1    *                                 QTB$RESET                               *
              3781    1    *                                                                         *
              3782    1    ***************************************************************************/

       41     3786    1           IF QT_CMDBLK.OUT$ -> OUT$BLK.NSUBLKS = 0 THEN
       42     3787    2             DO;
       43     3788    2               QT$ENTRY.SET_COUNT = 0;
       44     3789    2             END;
       45     3790    1           ELSE
       46     3791    2             DO;
       47     3792    2               SUBLK$ = QT_CMDBLK.OUT$ -> OUT$BLK.SUBLK$(0);
       48     3793    2               CALL QTC$DELETE_SET(SUBLK$ -> OUT$SYM.TEXTC$ -> DCB$NAME) ALTRET(DIS_ERR
              3793                        );
       49     3794
       50     3795    3               DO WHILE('0'B);
       51     3796
       52     3797    3   DIS_ERR:
       53     3798    3                 QT_CMDBLK.MINOR_ERR = CODE_DIS;
       54     3799    3                 CALL XUR$ERRMSG(CODE_DIS);
       55     3800    3               END /* NEVER */;
       56     3801
       57     3802    2             END;
       58     3803
       59     3804    1           RETURN;
       60     3805
       61     3806    1   END QTB$RESET;

PL6.E3A0      #001=QTB$RESET File=QTB$RESET.:E05TSI                              WED 07/30/97 05:48 Page:5
--  Include file information  --

   XU_MACRO_C.:E05TOU  is referenced.
   QT_SUBS_C.:E05TOU  is referenced.
   QT_MACROS_C.:E05TOU  is referenced.
   Q_ERRCODE_C.:E05TOU  is referenced.
   QT_PERR_C.:E05TOU  is referenced.
   QT_DATA_R.:E05TOU  cannot be made into a system file and is referenced.
   Q_PAGE_C.:E05TOU  is referenced.
      No diagnostics issued in procedure QTB$RESET.

   Procedure QTB$RESET requires 26 words for executable code.
   Procedure QTB$RESET requires 6 words of local(AUTO) storage.

    No errors detected in file QTB$RESET.:E05TSI    .

PL6.E3A0      #001=QTB$RESET File=QTB$RESET.:E05TSI                              WED 07/30/97 05:48 Page:6

 Object Unit name= QTB$RESET                                  File name= QTB$RESET.:E05TOU
 UTS= JUL 30 '97 05:48:59.84 WED                              Compiler= PL-6/E31         Sev=      00
 SharedLib= :SHARED_SYSTEM                                    Alt SharedLib=


    ****  Control sections  ****

 Sect   Type Bound  Init  Size OctSiz  Section name(segment info)
    0  RoData even  UTS      1      1  QTB$RESET
    1   Proc  even  none    26     32  QTB$RESET
    2  RoData even  none     1      1  QTB$RESET

    ****  Entry defs  ****

                              Check   Calling
                             calling  sequence
  Sect OctLoc Primary Altret sequence   type   Parms  Name
     1      0   yes            yes      Std        0  QTB$RESET

  ****  Entry refs  ****

         Check        Calling
        calling       sequence
Altret sequence SRef   type   Args  Name
 yes     yes           Std       1 QTC$DELETE_SET
 yes     yes           Std       7 XUR$ERRMSG
                       nStd      0 X66_AUTO_0
                       Std       0 B_CONSPOOL_D
                       nStd      0 X66_ARET

  ****  Data refs  ****

  Flags:  r = read only, s = secondary
Flgs Name                             Flgs Name                             Flgs Name
     QT_GLOBAL                             QT_CMDBLK                             B_VECTNIL
PL6.E3A0      #001=QTB$RESET File=QTB$RESET.:E05TSI                              WED 07/30/97 05:48 Page:7

  ****  Segment refs  ****

  Flags:  r = read only, s = secondary
Flgs Name                             Flgs Name                             Flgs Name
     ISSID
PL6.E3A0      #001=QTB$RESET File=QTB$RESET.:E05TSI                              WED 07/30/97 05:48 Page:8


        1        1        /*M* QTB$RESET - Process  RESET command */
        2        2        /*T***********************************************************/
        3        3        /*T*                                                         */
        4        4        /*T* Copyright (c) Bull HN Information Systems Inc., 1997    */
        5        5        /*T*                                                         */
        6        6        /*T***********************************************************/
        7        7        /*X* IND=2, DCI=4, CSU=2, ECU=4, DTI=2, CTI=4, AND */
        8        8        QTB$RESET:
        9        9                PROC;

      9  1 000000   000000 700200 xent  QTB$RESET    TSX0  ! X66_AUTO_0
         1 000001   000006 000000                    ZERO    6,0

       10       10
       11       11        %INCLUDE Q_PAGE_C;
       12       43        %SET LISTEXP = '1'B;
       13       44        %PAGE(ARG="Includes");

                61        /***************************************************************************
                62         *                                                                         *
                63         *                                  Includes                               *
                64         *                                                                         *
                65         ***************************************************************************/

       14       69        %INCLUDE QT_DATA_R;
       15       83        %INCLUDE QT_PERR_C;
       16      134        %INCLUDE Q_ERRCODE_C;
       17      157        %INCLUDE QT_MACROS_C;
       18      315        %INCLUDE QT_SUBS_C;
       19      399        %INCLUDE XU_MACRO_C;
       20     3505        %PAGE(ARG="Externally defined routines");

              3522    1   /***************************************************************************
              3523    1    *                                                                         *
              3524    1    *                        Externally defined routines                      *
              3525    1    *                                                                         *
PL6.E3A0      #001=QTB$RESET File=QTB$RESET.:E05TSI                              WED 07/30/97 05:48 Page:9
              3526    1    ***************************************************************************/

       21     3530    1   DCL QTC$DELETE_SET ENTRY(1) ALTRET;
       22     3531    1   DCL XUR$ERRMSG ENTRY(7) ALTRET;
       23     3532        %PAGE(ARG="Based");

              3549    1   /***************************************************************************
              3550    1    *                                                                         *
              3551    1    *                                   Based                                 *
              3552    1    *                                                                         *
              3553    1    ***************************************************************************/

       24     3557        %QT$ENTRY;
       25     3611        %PARSE$SYM(STCLASS=BASED);
       26     3649        %PARSE$OUT(STCLASS=BASED);
       27     3694
       28     3695    1   DCL 1 DCB$NAME BASED,
       29     3696    1         2 COUNT UBIN(9) UNAL,
       30     3697    1         2 TEXT CHAR(DCB$NAME.COUNT);
       31     3698        %PAGE(ARG="Auto");

              3715    1   /***************************************************************************
              3716    1    *                                                                         *
              3717    1    *                                    Auto                                 *
              3718    1    *                                                                         *
              3719    1    ***************************************************************************/

       32     3723    1   DCL SUBLK$ PTR;
       33     3724        %PAGE(ARG="Error codes", PAGE=YES);

PL6.E3A0      #001=QTB$RESET File=QTB$RESET.:E05TSI                              WED 07/30/97 05:48 Page:10
              3741    1   /***************************************************************************
              3742    1    *                                                                         *
              3743    1    *                                Error codes                              *
              3744    1    *                                                                         *
              3745    1    ***************************************************************************/

       34     3749        %ERRCODE(NAME=CODE_DIS, CODE#=%E$DIS, FCG#=%FCG_QT, MID#=%MID_B);
       35     3756        /*E*       ERROR: QTB-E$DIS-C
       36     3757
       37     3758                 MESSAGE: This DCB hasn't been assigned.
       38     3759             DESCRIPTION: Can't reset a DCB that isn't assigned
       39     3760        */
       40     3761        %PAGE(ARG="QTB$RESET", PAGE=YES);

PL6.E3A0      #001=QTB$RESET File=QTB$RESET.:E05TSI                              WED 07/30/97 05:48 Page:11
              3778    1   /***************************************************************************
              3779    1    *                                                                         *
              3780    1    *                                 QTB$RESET                               *
              3781    1    *                                                                         *
              3782    1    ***************************************************************************/

       41     3786    1           IF QT_CMDBLK.OUT$ -> OUT$BLK.NSUBLKS = 0 THEN

   3786  1 000002   000004 470400 xsym               LDP0    QT_CMDBLK+4
         1 000003   000001 220100                    LDX0    1,,PR0
         1 000004   000011 601000 1                  TNZ     s:3792

       42     3787    2             DO;

       43     3788    2               QT$ENTRY.SET_COUNT = 0;

   3788  1 000005   000031 471400 xsym               LDP1    QT_GLOBAL+25
         1 000006   000000 236003                    LDQ     0,DU
         1 000007   100023 552110                    STBQ    19,'10'O,PR1

       44     3789    2             END;

   3789  1 000010   000031 710000 1                  TRA     s:3804

       45     3790    1           ELSE
       46     3791    2             DO;

       47     3792    2               SUBLK$ = QT_CMDBLK.OUT$ -> OUT$BLK.SUBLK$(0);

   3792  1 000011   000003 236100                    LDQ     3,,PR0
         1 000012   200003 756100                    STQ     SUBLK$,,AUTO

       48     3793    2              CALL QTC$DELETE_SET(SUBLK$ -> OUT$SYM.TEXTC$ -> DCB$NAME) ALTRET(DIS_ERR
              3793                        );

   3793  1 000013   200003 471500                    LDP1    SUBLK$,,AUTO
         1 000014   100003 473500                    LDP3    3,,PR1
PL6.E3A0      #001=QTB$RESET File=QTB$RESET.:E05TSI                              WED 07/30/97 05:48 Page:12
         1 000015   200004 453500                    STP3    SUBLK$+1,,AUTO
         1 000016   200004 630500                    EPPR0   SUBLK$+1,,AUTO
         1 000017   000017 631400 xsym               EPPR1   B_VECTNIL+15
         1 000020   000000 701000 xent               TSX1    QTC$DELETE_SET
         1 000021   000023 702000 1                  TSX2    DIS_ERR

       49     3794
       50     3795    3               DO WHILE('0'B);

   3795  1 000022   000031 710000 1                  TRA     s:3804

       51     3796
       52     3797    3   DIS_ERR:
       53     3798    3                 QT_CMDBLK.MINOR_ERR = CODE_DIS;

   3798  1 000023   000000 236000 0     DIS_ERR      LDQ     CODE_DIS
         1 000024   000001 756000 xsym               STQ     QT_CMDBLK+1

       54     3799    3                 CALL XUR$ERRMSG(CODE_DIS);

   3799  1 000025   000000 630400 2                  EPPR0   0
         1 000026   000017 631400 xsym               EPPR1   B_VECTNIL+15
         1 000027   000000 701000 xent               TSX1    XUR$ERRMSG
         1 000030   000000 011000                    NOP     0

       55     3800    3               END /* NEVER */;

       56     3801
       57     3802    2             END;

       58     3803
       59     3804    1           RETURN;

   3804  1 000031   000000 702200 xent               TSX2  ! X66_ARET
       60     3805
       61     3806    1   END QTB$RESET;

PL6.E3A0      #001=QTB$RESET File=QTB$RESET.:E05TSI                              WED 07/30/97 05:48 Page:13
--  Include file information  --

   XU_MACRO_C.:E05TOU  is referenced.
   QT_SUBS_C.:E05TOU  is referenced.
   QT_MACROS_C.:E05TOU  is referenced.
   Q_ERRCODE_C.:E05TOU  is referenced.
   QT_PERR_C.:E05TOU  is referenced.
   QT_DATA_R.:E05TOU  cannot be made into a system file and is referenced.
   Q_PAGE_C.:E05TOU  is referenced.
      No diagnostics issued in procedure QTB$RESET.
PL6.E3A0      #001=QTB$RESET File=QTB$RESET.:E05TSI                              WED 07/30/97 05:48 Page:14

 **** Variables and constants ****

  ****  Section 000 RoData QTB$RESET

  ****  Scalars and arrays  ****
OctLoc.c.b A Datatyp(siz) R M Lvl/name                 OctLoc.c.b A Datatyp(siz) R M Lvl/name

     0-0-0/b STRC        r     1 CODE_DIS

  ****  Auto variables  ****

  ****  Scalars and arrays  ****
OctLoc.c.b A Datatyp(siz) R M Lvl/name                 OctLoc.c.b A Datatyp(siz) R M Lvl/name

     3-0-0/w PTR         r     1 SUBLK$

  ****  SYMREF variables  ****

  ****  Scalars and arrays  ****
OctLoc.c.b A Datatyp(siz) R M Lvl/name                 OctLoc.c.b A Datatyp(siz) R M Lvl/name

     0-0-0/w STRC(261)   r     1 QT_CMDBLK                  0-0-0/w STRC(1872)  r     1 QT_GLOBAL

  ****  BASED and DCB variables  ****

  ****  Scalars and arrays  ****
OctLoc.c.b A Datatyp(siz) R M Lvl/name                 OctLoc.c.b A Datatyp(siz) R M Lvl/name

     0-0-0/c ASTR(9)     r     1 DCB$NAME                   0-0-0/w STRC(144)   r     1 OUT$BLK
     0-0-0/w ASTR(153)   r     1 OUT$SYM                    0-0-0/w STRC(936)   r     1 QT$ENTRY


   Procedure QTB$RESET requires 26 words for executable code.
   Procedure QTB$RESET requires 6 words of local(AUTO) storage.
PL6.E3A0      #001=QTB$RESET File=QTB$RESET.:E05TSI                              WED 07/30/97 05:48 Page:15

    No errors detected in file QTB$RESET.:E05TSI    .
PL6.E3A0      #001=QTB$RESET File=QTB$RESET.:E05TSI                              WED 07/30/97 05:48 Page:16
          *** CROSS REFERENCE LISTING ***
**     DENOTES     IDENTIFIER DEFINITION
<<                 IDENTIFIER'S VALUE SET
>>                 IDENTIFIER'S VALUE USED
<>                 IDENTIFIER SET AND/OR USED
--                 IDENTIFIER REFERENCED
PL6.E3A0      #001=QTB$RESET File=QTB$RESET.:E05TSI                              WED 07/30/97 05:48 Page:17
          MINI XREF LISTING

CODE_DIS
      3750**DCL      3798>>ASSIGN   3799<>CALL
DCB$NAME
      3695**DCL      3793<>CALL
DCB$NAME.COUNT
      3696**DCL      3697--IMP-SIZ  3793>>CALL
DIS_ERR
      3798**LABEL    3793--CALLALT
OUT$BLK.NSUBLKS
      3667**DCL      3786>>IF
OUT$BLK.SUBLK$
      3688**DCL      3792>>ASSIGN
OUT$SYM.COUNT
      3641**DCL      3644--IMP-SIZ
OUT$SYM.TEXTC$
      3636**DCL      3793>>CALL     3793>>CALL
QT$ENTRY.SET_COUNT
      3604**DCL      3788<<ASSIGN
QTC$DELETE_SET
      3530**DCL-ENT  3793--CALL
QT_CMDBLK.MINOR_ERR
        80**DCL      3798<<ASSIGN
QT_CMDBLK.OUT$
        80**DCL        81--REDEF    3786>>IF       3792>>ASSIGN
QT_GLOBAL.QT$ENTRY$
        78**DCL      3568--IMP-PTR  3788>>ASSIGN
SUBLK$
      3723**DCL      3792<<ASSIGN   3793>>CALL     3793>>CALL
XUR$ERRMSG
      3531**DCL-ENT  3799--CALL
