VERSION E05

PL6.E3A0      #001=QTC$DELETE_SET File=QTC$DELETE_SET.:E05TSI                    WED 07/30/97 05:49 Page:1
        1        1        /*M* QTC$DELETE_SET - Delete a 'SET' from a entry record */
        2        2        /*T***********************************************************/
        3        3        /*T*                                                         */
        4        4        /*T* Copyright (c) Bull HN Information Systems Inc., 1997    */
        5        5        /*T*                                                         */
        6        6        /*T***********************************************************/
        7        7        /*X* IND=2, DCI=4, CSU=2, ECU=4, DTI=2, CTI=4, AND */
        8        8        QTC$DELETE_SET:
        9        9                PROC(P_DCBNAME) ALTRET;
       10       10
       11       11        %INCLUDE Q_PAGE_C;
       12       43        %SET LISTEXP = '1'B;
       13       44        %PAGE(ARG="Includes");

                61        /***************************************************************************
                62         *                                                                         *
                63         *                                  Includes                               *
                64         *                                                                         *
                65         ***************************************************************************/

       14       69        %INCLUDE QT_MACROS_C;
       15      227        %INCLUDE QT_DATA_R;
       16      241        %PAGE(ARG="Parameters");

               258    1   /***************************************************************************
               259    1    *                                                                         *
               260    1    *                                 Parameters                              *
               261    1    *                                                                         *
               262    1    ***************************************************************************/

       17      266    1   DCL 1 P_DCBNAME,
       18      267    1         2 COUNT UBIN(9) UNAL,
       19      268    1         2 TEXT CHAR(P_DCBNAME.COUNT);
       20      269        %PAGE(ARG="Based");

               286    1   /***************************************************************************
               287    1    *                                                                         *
PL6.E3A0      #001=QTC$DELETE_SET File=QTC$DELETE_SET.:E05TSI                    WED 07/30/97 05:49 Page:2
               288    1    *                                   Based                                 *
               289    1    *                                                                         *
               290    1    ***************************************************************************/

       21      294        %QT$ENTRY;
       22      348        %QT$SETTEXT;
       23      358        %QT$SETBITS;
       24      379
       25      380    1   DCL CHAR$STRING CHAR(CHAR_STRING_SIZE) BASED;
       26      381        %PAGE(ARG="Auto");

               398    1   /***************************************************************************
               399    1    *                                                                         *
               400    1    *                                    Auto                                 *
               401    1    *                                                                         *
               402    1    ***************************************************************************/

       27      406    1   DCL FOUND_FLAG BIT(1) ALIGNED;
       28      407
       29      408    1   DCL I UBIN WORD;
       30      409    1   DCL REC_WITH_SET_NUM UBIN WORD;
       31      410    1   DCL CHAR_STRING_SIZE UBIN WORD;
       32      411
       33      412    1   DCL REC$ PTR;
       34      413    1   DCL REC_WITH_SET$ PTR;
       35      414    1   DCL END_OF_REC$ PTR;
       36      415        %PAGE(ARG="QTC$DELETE_SET", PAGE=YES);

PL6.E3A0      #001=QTC$DELETE_SET File=QTC$DELETE_SET.:E05TSI                    WED 07/30/97 05:49 Page:3
               432    1   /***************************************************************************
               433    1    *                                                                         *
               434    1    *                               QTC$DELETE_SET                            *
               435    1    *                                                                         *
               436    1    ***************************************************************************/

       37      440    1           FOUND_FLAG = '0'B;
       38      441    1           REC$ = PINCRW(QT_GLOBAL.QT$ENTRY$, SIZEW(QT$ENTRY));
       39      442
       40      443    2           DO I = 1 TO QT$ENTRY.SET_COUNT;
       41      444    2             IF REC$ -> QT$SETBITS.DCBNAME.TEXT = P_DCBNAME.TEXT THEN
       42      445    3               DO;
       43      446    3                 FOUND_FLAG = '1'B;
       44      447    3                 REC_WITH_SET$ = REC$;
       45      448    3                 REC_WITH_SET_NUM = I;
       46      449    3               END;
       47      450    2             REC$ = PINCRW(REC$, SIZEW(REC$ -> QT$SETBITS));
       48      451    2           END;
       49      452
       50      453    1           IF FOUND_FLAG THEN
       51      454    2             DO;
       52      455    2               END_OF_REC$ = PINCRW(REC_WITH_SET$,
       53      456    2                   SIZEW(REC_WITH_SET$ -> QT$SETBITS));
       54      457    2               CHAR_STRING_SIZE = POFFC(REC$, END_OF_REC$);
       55      458    2               REC_WITH_SET$ -> CHAR$STRING = END_OF_REC$ -> CHAR$STRING;
       56      459
       57      460    2               REC$ = QT_GLOBAL.QT$SETTEXT$;
       58      461    3               DO I = 1 TO QT$ENTRY.SET_COUNT;
       59      462    3                 IF I = REC_WITH_SET_NUM THEN
       60      463    4                   DO;
       61      464    4                     REC_WITH_SET$ = REC$;
       62      465    4                   END;
       63      466    3                 REC$ = PINCRW(REC$, SIZEW(REC$ -> QT$SETTEXT));
       64      467    3               END;
       65      468
       66      469    2               END_OF_REC$ = PINCRW(REC_WITH_SET$,
       67      470    2                   SIZEW(REC_WITH_SET$ -> QT$SETTEXT));
PL6.E3A0      #001=QTC$DELETE_SET File=QTC$DELETE_SET.:E05TSI                    WED 07/30/97 05:49 Page:4
       68      471    2               CHAR_STRING_SIZE = POFFC(REC$, END_OF_REC$);
       69      472    2               REC_WITH_SET$ -> CHAR$STRING = END_OF_REC$ -> CHAR$STRING;
       70      473
       71      474    2               QT$ENTRY.SET_COUNT = QT$ENTRY.SET_COUNT - 1;
       72      475
       73      476    2               RETURN;
       74      477    2             END;
       75      478
       76      479    1           ALTRETURN;
       77      480
       78      481    1   END QTC$DELETE_SET;

PL6.E3A0      #001=QTC$DELETE_SET File=QTC$DELETE_SET.:E05TSI                    WED 07/30/97 05:49 Page:5
--  Include file information  --

   QT_DATA_R.:E05TOU  cannot be made into a system file and is referenced.
   QT_MACROS_C.:E05TOU  is referenced.
   Q_PAGE_C.:E05TOU  is referenced.
      No diagnostics issued in procedure QTC$DELETE_SET.

   Procedure QTC$DELETE_SET requires 138 words for executable code.
   Procedure QTC$DELETE_SET requires 14 words of local(AUTO) storage.

    No errors detected in file QTC$DELETE_SET.:E05TSI    .

PL6.E3A0      #001=QTC$DELETE_SET File=QTC$DELETE_SET.:E05TSI                    WED 07/30/97 05:49 Page:6

 Object Unit name= QTC$DELETE_SET                             File name= QTC$DELETE_SET.:E05TOU
 UTS= JUL 30 '97 05:49:40.60 WED                              Compiler= PL-6/E31         Sev=      00
 SharedLib= :SHARED_SYSTEM                                    Alt SharedLib=


    ****  Control sections  ****

 Sect   Type Bound  Init  Size OctSiz  Section name(segment info)
    0   Proc  even  none   138    212  QTC$DELETE_SET

    ****  Entry defs  ****

                              Check   Calling
                             calling  sequence
  Sect OctLoc Primary Altret sequence   type   Parms  Name
     0      0   yes    yes     yes      Std        1  QTC$DELETE_SET

  ****  Entry refs  ****

         Check        Calling
        calling       sequence
Altret sequence SRef   type   Args  Name
                       nStd      0 X66_AUTO_1
                       Std       0 B_CONSPOOL_D
                       nStd      0 X66_ARET
                       nStd      0 X66_AALT

  ****  Data refs  ****

  Flags:  r = read only, s = secondary
Flgs Name                             Flgs Name                             Flgs Name
     QT_GLOBAL                             B_VECTNIL
PL6.E3A0      #001=QTC$DELETE_SET File=QTC$DELETE_SET.:E05TSI                    WED 07/30/97 05:49 Page:7


        1        1        /*M* QTC$DELETE_SET - Delete a 'SET' from a entry record */
        2        2        /*T***********************************************************/
        3        3        /*T*                                                         */
        4        4        /*T* Copyright (c) Bull HN Information Systems Inc., 1997    */
        5        5        /*T*                                                         */
        6        6        /*T***********************************************************/
        7        7        /*X* IND=2, DCI=4, CSU=2, ECU=4, DTI=2, CTI=4, AND */
        8        8        QTC$DELETE_SET:
        9        9                PROC(P_DCBNAME) ALTRET;

      9  0 000000   000000 700200 xent  QTC$DELETE_* TSX0  ! X66_AUTO_1
         0 000001   000016 000001                    ZERO    14,1

       10       10
       11       11        %INCLUDE Q_PAGE_C;
       12       43        %SET LISTEXP = '1'B;
       13       44        %PAGE(ARG="Includes");

                61        /***************************************************************************
                62         *                                                                         *
                63         *                                  Includes                               *
                64         *                                                                         *
                65         ***************************************************************************/

       14       69        %INCLUDE QT_MACROS_C;
       15      227        %INCLUDE QT_DATA_R;
       16      241        %PAGE(ARG="Parameters");

               258    1   /***************************************************************************
               259    1    *                                                                         *
               260    1    *                                 Parameters                              *
               261    1    *                                                                         *
               262    1    ***************************************************************************/

       17      266    1   DCL 1 P_DCBNAME,
       18      267    1         2 COUNT UBIN(9) UNAL,
PL6.E3A0      #001=QTC$DELETE_SET File=QTC$DELETE_SET.:E05TSI                    WED 07/30/97 05:49 Page:8
       19      268    1         2 TEXT CHAR(P_DCBNAME.COUNT);
       20      269        %PAGE(ARG="Based");

               286    1   /***************************************************************************
               287    1    *                                                                         *
               288    1    *                                   Based                                 *
               289    1    *                                                                         *
               290    1    ***************************************************************************/

       21      294        %QT$ENTRY;
       22      348        %QT$SETTEXT;
       23      358        %QT$SETBITS;
       24      379
       25      380    1   DCL CHAR$STRING CHAR(CHAR_STRING_SIZE) BASED;
       26      381        %PAGE(ARG="Auto");

               398    1   /***************************************************************************
               399    1    *                                                                         *
               400    1    *                                    Auto                                 *
               401    1    *                                                                         *
               402    1    ***************************************************************************/

       27      406    1   DCL FOUND_FLAG BIT(1) ALIGNED;
       28      407
       29      408    1   DCL I UBIN WORD;
       30      409    1   DCL REC_WITH_SET_NUM UBIN WORD;
       31      410    1   DCL CHAR_STRING_SIZE UBIN WORD;
       32      411
       33      412    1   DCL REC$ PTR;
       34      413    1   DCL REC_WITH_SET$ PTR;
       35      414    1   DCL END_OF_REC$ PTR;
       36      415        %PAGE(ARG="QTC$DELETE_SET", PAGE=YES);

PL6.E3A0      #001=QTC$DELETE_SET File=QTC$DELETE_SET.:E05TSI                    WED 07/30/97 05:49 Page:9
               432    1   /***************************************************************************
               433    1    *                                                                         *
               434    1    *                               QTC$DELETE_SET                            *
               435    1    *                                                                         *
               436    1    ***************************************************************************/

       37      440    1           FOUND_FLAG = '0'B;

    440  0 000002   200004 450100                    STZ     FOUND_FLAG,,AUTO

       38      441    1           REC$ = PINCRW(QT_GLOBAL.QT$ENTRY$, SIZEW(QT$ENTRY));

    441  0 000003   000031 236000 xsym               LDQ     QT_GLOBAL+25
         0 000004   000032 036003                    ADLQ    26,DU
         0 000005   200010 756100                    STQ     REC$,,AUTO

       39      442
       40      443    2           DO I = 1 TO QT$ENTRY.SET_COUNT;

    443  0 000006   000001 235007                    LDA     1,DL
         0 000007   200005 755100                    STA     I,,AUTO
         0 000010   000051 710000 0                  TRA     s:451+3

       41      444    2             IF REC$ -> QT$SETBITS.DCBNAME.TEXT = P_DCBNAME.TEXT THEN

    444  0 000011   200003 470500                    LDP0    @P_DCBNAME,,AUTO
         0 000012   000100 101500                    MRL     fill='000'O
         0 000013   000000 000001                    ADSC9   0,,PR0                   cn=0,n=1
         0 000014   200014 000002                    ADSC9   END_OF_REC$+2,,AUTO      cn=0,n=2
         0 000015   200014 220100                    LDX0    END_OF_REC$+2,,AUTO
         0 000016   200010 471500                    LDP1    REC$,,AUTO
         0 000017   040140 106500                    CMPC    fill='040'O
         0 000020   100003 200037                    ADSC9   3,,PR1                   cn=1,n=31
         0 000021   000000 200010                    ADSC9   0,,PR0                   cn=1,n=*X0
         0 000022   000031 601000 0                  TNZ     s:450

       42      445    3               DO;
PL6.E3A0      #001=QTC$DELETE_SET File=QTC$DELETE_SET.:E05TSI                    WED 07/30/97 05:49 Page:10

       43      446    3                 FOUND_FLAG = '1'B;

    446  0 000023   400000 236003                    LDQ     -131072,DU
         0 000024   200004 756100                    STQ     FOUND_FLAG,,AUTO

       44      447    3                 REC_WITH_SET$ = REC$;

    447  0 000025   200010 236100                    LDQ     REC$,,AUTO
         0 000026   200011 756100                    STQ     REC_WITH_SET$,,AUTO

       45      448    3                 REC_WITH_SET_NUM = I;

    448  0 000027   200005 235100                    LDA     I,,AUTO
         0 000030   200006 755100                    STA     REC_WITH_SET_NUM,,AUTO

       46      449    3               END;

       47      450    2             REC$ = PINCRW(REC$, SIZEW(REC$ -> QT$SETBITS));

    450  0 000031   000100 101500                    MRL     fill='000'O
         0 000032   100013 000001                    ADSC9   11,,PR1                  cn=0,n=1
         0 000033   200014 000002                    ADSC9   END_OF_REC$+2,,AUTO      cn=0,n=2
         0 000034   200014 220100                    LDX0    END_OF_REC$+2,,AUTO
         0 000035   000055 621010                    EAX1    45,X0
         0 000036   000000 636011                    EAQ     0,X1
         0 000037   000022 772000                    QRL     18
         0 000040   000011 402007                    MPY     9,DL
         0 000041   000043 036007                    ADLQ    35,DL
         0 000042   000044 506007                    DIV     36,DL
         0 000043   000022 736000                    QLS     18
         0 000044   200010 036100                    ADLQ    REC$,,AUTO
         0 000045   200010 756100                    STQ     REC$,,AUTO

       48      451    2           END;

    451  0 000046   200005 235100                    LDA     I,,AUTO
PL6.E3A0      #001=QTC$DELETE_SET File=QTC$DELETE_SET.:E05TSI                    WED 07/30/97 05:49 Page:11
         0 000047   000001 035007                    ADLA    1,DL
         0 000050   200005 755100                    STA     I,,AUTO
         0 000051   000031 470400 xsym               LDP0    QT_GLOBAL+25
         0 000052   000023 236100                    LDQ     19,,PR0
         0 000053   000011 772000                    QRL     9
         0 000054   000777 376007                    ANQ     511,DL
         0 000055   200005 116100                    CMPQ    I,,AUTO
         0 000056   000011 603000 0                  TRC     s:444

       49      452
       50      453    1           IF FOUND_FLAG THEN

    453  0 000057   200004 234100                    SZN     FOUND_FLAG,,AUTO
         0 000060   000211 605000 0                  TPL     s:479

       51      454    2             DO;

       52      455    2               END_OF_REC$ = PINCRW(REC_WITH_SET$,

    455  0 000061   200011 471500                    LDP1    REC_WITH_SET$,,AUTO
         0 000062   000100 101500                    MRL     fill='000'O
         0 000063   100013 000001                    ADSC9   11,,PR1                  cn=0,n=1
         0 000064   200014 000002                    ADSC9   END_OF_REC$+2,,AUTO      cn=0,n=2
         0 000065   200014 220100                    LDX0    END_OF_REC$+2,,AUTO
         0 000066   000055 621010                    EAX1    45,X0
         0 000067   000000 636011                    EAQ     0,X1
         0 000070   000022 772000                    QRL     18
         0 000071   000011 402007                    MPY     9,DL
         0 000072   000043 036007                    ADLQ    35,DL
         0 000073   000044 506007                    DIV     36,DL
         0 000074   000022 736000                    QLS     18
         0 000075   200011 036100                    ADLQ    REC_WITH_SET$,,AUTO
         0 000076   200012 756100                    STQ     END_OF_REC$,,AUTO

       53      456    2                   SIZEW(REC_WITH_SET$ -> QT$SETBITS));
       54      457    2               CHAR_STRING_SIZE = POFFC(REC$, END_OF_REC$);

PL6.E3A0      #001=QTC$DELETE_SET File=QTC$DELETE_SET.:E05TSI                    WED 07/30/97 05:49 Page:12
    457  0 000077   200012 236100                    LDQ     END_OF_REC$,,AUTO
         0 000100   000020 772000                    QRL     16
         0 000101   200014 756100                    STQ     END_OF_REC$+2,,AUTO
         0 000102   200010 236100                    LDQ     REC$,,AUTO
         0 000103   000020 772000                    QRL     16
         0 000104   200014 136100                    SBLQ    END_OF_REC$+2,,AUTO
         0 000105   200007 756100                    STQ     CHAR_STRING_SIZE,,AUTO

       55      458    2               REC_WITH_SET$ -> CHAR$STRING = END_OF_REC$ -> CHAR$STRING;

    458  0 000106   200012 473500                    LDP3    END_OF_REC$,,AUTO
         0 000107   000000 620006                    EAX0    0,QL
         0 000110   200007 721100                    LXL1    CHAR_STRING_SIZE,,AUTO
         0 000111   040140 100540                    MLR     fill='040'O
         0 000112   300000 000010                    ADSC9   0,,PR3                   cn=0,n=*X0
         0 000113   100000 000011                    ADSC9   0,,PR1                   cn=0,n=*X1

       56      459
       57      460    2               REC$ = QT_GLOBAL.QT$SETTEXT$;

    460  0 000114   000032 236000 xsym               LDQ     QT_GLOBAL+26
         0 000115   200010 756100                    STQ     REC$,,AUTO

       58      461    3               DO I = 1 TO QT$ENTRY.SET_COUNT;

    461  0 000116   000001 235007                    LDA     1,DL
         0 000117   200005 755100                    STA     I,,AUTO
         0 000120   000145 710000 0                  TRA     s:467+3

       59      462    3                 IF I = REC_WITH_SET_NUM THEN

    462  0 000121   200005 236100                    LDQ     I,,AUTO
         0 000122   200006 116100                    CMPQ    REC_WITH_SET_NUM,,AUTO
         0 000123   000126 601000 0                  TNZ     s:466

       60      463    4                   DO;

PL6.E3A0      #001=QTC$DELETE_SET File=QTC$DELETE_SET.:E05TSI                    WED 07/30/97 05:49 Page:13
       61      464    4                     REC_WITH_SET$ = REC$;

    464  0 000124   200010 236100                    LDQ     REC$,,AUTO
         0 000125   200011 756100                    STQ     REC_WITH_SET$,,AUTO

       62      465    4                   END;

       63      466    3                 REC$ = PINCRW(REC$, SIZEW(REC$ -> QT$SETTEXT));

    466  0 000126   200010 470500                    LDP0    REC$,,AUTO
         0 000127   000000 236100                    LDQ     0,,PR0
         0 000130   000033 772000                    QRL     27
         0 000131   000020 620006                    EAX0    16,QL
         0 000132   000000 636010                    EAQ     0,X0
         0 000133   000022 772000                    QRL     18
         0 000134   000011 402007                    MPY     9,DL
         0 000135   000043 036007                    ADLQ    35,DL
         0 000136   000044 506007                    DIV     36,DL
         0 000137   000022 736000                    QLS     18
         0 000140   200010 036100                    ADLQ    REC$,,AUTO
         0 000141   200010 756100                    STQ     REC$,,AUTO

       64      467    3               END;

    467  0 000142   200005 235100                    LDA     I,,AUTO
         0 000143   000001 035007                    ADLA    1,DL
         0 000144   200005 755100                    STA     I,,AUTO
         0 000145   000031 470400 xsym               LDP0    QT_GLOBAL+25
         0 000146   000023 236100                    LDQ     19,,PR0
         0 000147   000011 772000                    QRL     9
         0 000150   000777 376007                    ANQ     511,DL
         0 000151   200005 116100                    CMPQ    I,,AUTO
         0 000152   000121 603000 0                  TRC     s:462

       65      468
       66      469    2               END_OF_REC$ = PINCRW(REC_WITH_SET$,

PL6.E3A0      #001=QTC$DELETE_SET File=QTC$DELETE_SET.:E05TSI                    WED 07/30/97 05:49 Page:14
    469  0 000153   200011 471500                    LDP1    REC_WITH_SET$,,AUTO
         0 000154   100000 236100                    LDQ     0,,PR1
         0 000155   000033 772000                    QRL     27
         0 000156   000020 620006                    EAX0    16,QL
         0 000157   000000 636010                    EAQ     0,X0
         0 000160   000022 772000                    QRL     18
         0 000161   000011 402007                    MPY     9,DL
         0 000162   000043 036007                    ADLQ    35,DL
         0 000163   000044 506007                    DIV     36,DL
         0 000164   000022 736000                    QLS     18
         0 000165   200011 036100                    ADLQ    REC_WITH_SET$,,AUTO
         0 000166   200012 756100                    STQ     END_OF_REC$,,AUTO

       67      470    2                   SIZEW(REC_WITH_SET$ -> QT$SETTEXT));
       68      471    2               CHAR_STRING_SIZE = POFFC(REC$, END_OF_REC$);

    471  0 000167   200012 236100                    LDQ     END_OF_REC$,,AUTO
         0 000170   000020 772000                    QRL     16
         0 000171   200014 756100                    STQ     END_OF_REC$+2,,AUTO
         0 000172   200010 236100                    LDQ     REC$,,AUTO
         0 000173   000020 772000                    QRL     16
         0 000174   200014 136100                    SBLQ    END_OF_REC$+2,,AUTO
         0 000175   200007 756100                    STQ     CHAR_STRING_SIZE,,AUTO

       69      472    2               REC_WITH_SET$ -> CHAR$STRING = END_OF_REC$ -> CHAR$STRING;

    472  0 000176   200012 473500                    LDP3    END_OF_REC$,,AUTO
         0 000177   000000 620006                    EAX0    0,QL
         0 000200   200007 721100                    LXL1    CHAR_STRING_SIZE,,AUTO
         0 000201   040140 100540                    MLR     fill='040'O
         0 000202   300000 000010                    ADSC9   0,,PR3                   cn=0,n=*X0
         0 000203   100000 000011                    ADSC9   0,,PR1                   cn=0,n=*X1

       70      473
       71      474    2               QT$ENTRY.SET_COUNT = QT$ENTRY.SET_COUNT - 1;

    474  0 000204   000031 470400 xsym               LDP0    QT_GLOBAL+25
PL6.E3A0      #001=QTC$DELETE_SET File=QTC$DELETE_SET.:E05TSI                    WED 07/30/97 05:49 Page:15
         0 000205   000023 236100                    LDQ     19,,PR0
         0 000206   777000 036007                    ADLQ    -512,DL
         0 000207   000023 552110                    STBQ    19,'10'O,PR0

       72      475
       73      476    2               RETURN;

    476  0 000210   000000 702200 xent               TSX2  ! X66_ARET

       74      477    2             END;
       75      478
       76      479    1           ALTRETURN;

    479  0 000211   000000 702200 xent               TSX2  ! X66_AALT
       77      480
       78      481    1   END QTC$DELETE_SET;

PL6.E3A0      #001=QTC$DELETE_SET File=QTC$DELETE_SET.:E05TSI                    WED 07/30/97 05:49 Page:16
--  Include file information  --

   QT_DATA_R.:E05TOU  cannot be made into a system file and is referenced.
   QT_MACROS_C.:E05TOU  is referenced.
   Q_PAGE_C.:E05TOU  is referenced.
      No diagnostics issued in procedure QTC$DELETE_SET.
PL6.E3A0      #001=QTC$DELETE_SET File=QTC$DELETE_SET.:E05TSI                    WED 07/30/97 05:49 Page:17

 **** Variables and constants ****

  ****  Auto variables  ****

  ****  Scalars and arrays  ****
OctLoc.c.b A Datatyp(siz) R M Lvl/name                 OctLoc.c.b A Datatyp(siz) R M Lvl/name

     3-0-0/w PTR         r     1 @P_DCBNAME                 7-0-0/w UBIN        r     1 CHAR_STRING_SIZE
    12-0-0/w PTR         r     1 END_OF_REC$                4-0-0/w BIT         r     1 FOUND_FLAG
     5-0-0/w UBIN        r     1 I                         *0-0-0/c ASTR(9)     r     1 P_DCBNAME
    10-0-0/w PTR         r     1 REC$                      11-0-0/w PTR         r     1 REC_WITH_SET$
     6-0-0/w UBIN        r     1 REC_WITH_SET_NUM

  ****  SYMREF variables  ****

  ****  Scalars and arrays  ****
OctLoc.c.b A Datatyp(siz) R M Lvl/name                 OctLoc.c.b A Datatyp(siz) R M Lvl/name

     0-0-0/w STRC(1872)  r     1 QT_GLOBAL

  ****  BASED and DCB variables  ****

  ****  Scalars and arrays  ****
OctLoc.c.b A Datatyp(siz) R M Lvl/name                 OctLoc.c.b A Datatyp(siz) R M Lvl/name

     0-0-0/c ACHR        r     1 CHAR$STRING                0-0-0/w STRC(936)   r     1 QT$ENTRY
     0-0-0/c ASTR(405)   r     1 QT$SETBITS                 0-0-0/w ASTR(144)   r     1 QT$SETTEXT


   Procedure QTC$DELETE_SET requires 138 words for executable code.
   Procedure QTC$DELETE_SET requires 14 words of local(AUTO) storage.

    No errors detected in file QTC$DELETE_SET.:E05TSI    .
PL6.E3A0      #001=QTC$DELETE_SET File=QTC$DELETE_SET.:E05TSI                    WED 07/30/97 05:49 Page:18
          *** CROSS REFERENCE LISTING ***
**     DENOTES     IDENTIFIER DEFINITION
<<                 IDENTIFIER'S VALUE SET
>>                 IDENTIFIER'S VALUE USED
<>                 IDENTIFIER SET AND/OR USED
--                 IDENTIFIER REFERENCED
PL6.E3A0      #001=QTC$DELETE_SET File=QTC$DELETE_SET.:E05TSI                    WED 07/30/97 05:49 Page:19
          MINI XREF LISTING

CHAR$STRING
       380**DCL       458<<ASSIGN    458>>ASSIGN    472<<ASSIGN    472>>ASSIGN
CHAR_STRING_SIZE
       410**DCL       380--IMP-SIZ   457<<ASSIGN    458>>ASSIGN    458>>ASSIGN    471<<ASSIGN    472>>ASSIGN
       472>>ASSIGN
END_OF_REC$
       414**DCL       455<<ASSIGN    457>>ASSIGN    458>>ASSIGN    469<<ASSIGN    471>>ASSIGN    472>>ASSIGN
FOUND_FLAG
       406**DCL       440<<ASSIGN    446<<ASSIGN    453>>IF
I
       408**DCL       443<<DOINDEX   448>>ASSIGN    461<<DOINDEX   462>>IF
P_DCBNAME
       266**DCL         8--PROC
P_DCBNAME.COUNT
       267**DCL       268--IMP-SIZ   444>>IF
P_DCBNAME.TEXT
       268**DCL       444>>IF
QT$ENTRY
       305**DCL       441--ASSIGN
QT$ENTRY.SET_COUNT
       341**DCL       443>>DOINDEX   461>>DOINDEX   474<<ASSIGN    474>>ASSIGN
QT$SETBITS
       359**DCL       450--ASSIGN    455--ASSIGN
QT$SETBITS.ASN_MERGE.COUNT
       376**DCL       377--IMP-SIZ   450>>ASSIGN    455>>ASSIGN
QT$SETBITS.DCBNAME.TEXT
       373**DCL       444>>IF
QT$SETTEXT
       349**DCL       466--ASSIGN    469--ASSIGN
QT$SETTEXT.COUNT
       350**DCL       355--IMP-SIZ   466>>ASSIGN    469>>ASSIGN
QT_CMDBLK.OUT$
PL6.E3A0      #001=QTC$DELETE_SET File=QTC$DELETE_SET.:E05TSI                    WED 07/30/97 05:49 Page:20
       238**DCL       239--REDEF
QT_GLOBAL.QT$ENTRY$
       236**DCL       305--IMP-PTR   441>>ASSIGN    443>>DOINDEX   461>>DOINDEX   474>>ASSIGN    474>>ASSIGN
QT_GLOBAL.QT$SETTEXT$
       236**DCL       349--IMP-PTR   460>>ASSIGN
REC$
       412**DCL       441<<ASSIGN    444>>IF        447>>ASSIGN    450<<ASSIGN    450>>ASSIGN    450>>ASSIGN
       450>>ASSIGN    457>>ASSIGN    460<<ASSIGN    464>>ASSIGN    466<<ASSIGN    466>>ASSIGN    466>>ASSIGN
       466>>ASSIGN    471>>ASSIGN
REC_WITH_SET$
       413**DCL       447<<ASSIGN    455>>ASSIGN    455>>ASSIGN    455>>ASSIGN    458>>ASSIGN    464<<ASSIGN
       469>>ASSIGN    469>>ASSIGN    469>>ASSIGN    472>>ASSIGN
REC_WITH_SET_NUM
       409**DCL       448<<ASSIGN    462>>IF
